{
	"contracts/test/Locker.sol": {
		"UniswapV2Locker": {
			"abi": [
				{
					"inputs": [
						{
							"internalType": "contract IUniFactory",
							"name": "_uniswapFactory",
							"type": "address"
						}
					],
					"stateMutability": "nonpayable",
					"type": "constructor"
				},
				{
					"anonymous": false,
					"inputs": [
						{
							"indexed": true,
							"internalType": "address",
							"name": "previousOwner",
							"type": "address"
						},
						{
							"indexed": true,
							"internalType": "address",
							"name": "newOwner",
							"type": "address"
						}
					],
					"name": "OwnershipTransferred",
					"type": "event"
				},
				{
					"anonymous": false,
					"inputs": [
						{
							"indexed": false,
							"internalType": "address",
							"name": "lpToken",
							"type": "address"
						},
						{
							"indexed": false,
							"internalType": "address",
							"name": "user",
							"type": "address"
						},
						{
							"indexed": false,
							"internalType": "uint256",
							"name": "amount",
							"type": "uint256"
						},
						{
							"indexed": false,
							"internalType": "uint256",
							"name": "lockDate",
							"type": "uint256"
						},
						{
							"indexed": false,
							"internalType": "uint256",
							"name": "unlockDate",
							"type": "uint256"
						}
					],
					"name": "onDeposit",
					"type": "event"
				},
				{
					"anonymous": false,
					"inputs": [
						{
							"indexed": false,
							"internalType": "address",
							"name": "lpToken",
							"type": "address"
						},
						{
							"indexed": false,
							"internalType": "uint256",
							"name": "amount",
							"type": "uint256"
						}
					],
					"name": "onWithdraw",
					"type": "event"
				},
				{
					"inputs": [
						{
							"internalType": "address payable",
							"name": "wallet",
							"type": "address"
						}
					],
					"name": "BlocklistStatus",
					"outputs": [
						{
							"internalType": "bool",
							"name": "",
							"type": "bool"
						}
					],
					"stateMutability": "view",
					"type": "function"
				},
				{
					"inputs": [
						{
							"internalType": "address payable",
							"name": "wallet",
							"type": "address"
						}
					],
					"name": "WhitelistStatus",
					"outputs": [
						{
							"internalType": "bool",
							"name": "",
							"type": "bool"
						}
					],
					"stateMutability": "view",
					"type": "function"
				},
				{
					"inputs": [
						{
							"internalType": "address payable",
							"name": "_user",
							"type": "address"
						},
						{
							"internalType": "bool",
							"name": "_add",
							"type": "bool"
						}
					],
					"name": "blocklistAccount",
					"outputs": [],
					"stateMutability": "nonpayable",
					"type": "function"
				},
				{
					"inputs": [],
					"name": "gFees",
					"outputs": [
						{
							"internalType": "uint256",
							"name": "ethFee",
							"type": "uint256"
						},
						{
							"internalType": "contract IERCBurn",
							"name": "secondaryFeeToken",
							"type": "address"
						},
						{
							"internalType": "uint256",
							"name": "secondaryTokenFee",
							"type": "uint256"
						},
						{
							"internalType": "uint256",
							"name": "secondaryTokenDiscount",
							"type": "uint256"
						},
						{
							"internalType": "uint256",
							"name": "liquidityFee",
							"type": "uint256"
						}
					],
					"stateMutability": "view",
					"type": "function"
				},
				{
					"inputs": [
						{
							"internalType": "address",
							"name": "_user",
							"type": "address"
						},
						{
							"internalType": "uint256",
							"name": "_index",
							"type": "uint256"
						}
					],
					"name": "getLockedTokenAtIndex",
					"outputs": [
						{
							"internalType": "address payable",
							"name": "",
							"type": "address"
						}
					],
					"stateMutability": "view",
					"type": "function"
				},
				{
					"inputs": [],
					"name": "getNumLockedTokens",
					"outputs": [
						{
							"internalType": "uint256",
							"name": "",
							"type": "uint256"
						}
					],
					"stateMutability": "view",
					"type": "function"
				},
				{
					"inputs": [
						{
							"internalType": "address",
							"name": "_lpToken",
							"type": "address"
						}
					],
					"name": "getNumLocksForToken",
					"outputs": [
						{
							"internalType": "uint256",
							"name": "",
							"type": "uint256"
						}
					],
					"stateMutability": "view",
					"type": "function"
				},
				{
					"inputs": [
						{
							"internalType": "address",
							"name": "_user",
							"type": "address"
						},
						{
							"internalType": "address",
							"name": "_lpToken",
							"type": "address"
						},
						{
							"internalType": "uint256",
							"name": "_index",
							"type": "uint256"
						}
					],
					"name": "getUserLockForTokenAtIndex",
					"outputs": [
						{
							"internalType": "uint256",
							"name": "",
							"type": "uint256"
						},
						{
							"internalType": "uint256",
							"name": "",
							"type": "uint256"
						},
						{
							"internalType": "uint256",
							"name": "",
							"type": "uint256"
						},
						{
							"internalType": "uint256",
							"name": "",
							"type": "uint256"
						},
						{
							"internalType": "uint256",
							"name": "",
							"type": "uint256"
						},
						{
							"internalType": "address",
							"name": "",
							"type": "address"
						}
					],
					"stateMutability": "view",
					"type": "function"
				},
				{
					"inputs": [
						{
							"internalType": "address",
							"name": "_user",
							"type": "address"
						},
						{
							"internalType": "uint256",
							"name": "_index",
							"type": "uint256"
						}
					],
					"name": "getUserLockedTokenAtIndex",
					"outputs": [
						{
							"internalType": "address",
							"name": "",
							"type": "address"
						}
					],
					"stateMutability": "view",
					"type": "function"
				},
				{
					"inputs": [
						{
							"internalType": "address",
							"name": "_user",
							"type": "address"
						}
					],
					"name": "getUserNumLockedTokens",
					"outputs": [
						{
							"internalType": "uint256",
							"name": "",
							"type": "uint256"
						}
					],
					"stateMutability": "view",
					"type": "function"
				},
				{
					"inputs": [
						{
							"internalType": "address",
							"name": "_user",
							"type": "address"
						},
						{
							"internalType": "address",
							"name": "_lpToken",
							"type": "address"
						}
					],
					"name": "getUserNumLocksForToken",
					"outputs": [
						{
							"internalType": "uint256",
							"name": "",
							"type": "uint256"
						}
					],
					"stateMutability": "view",
					"type": "function"
				},
				{
					"inputs": [
						{
							"internalType": "address",
							"name": "_lpToken",
							"type": "address"
						},
						{
							"internalType": "uint256",
							"name": "_index",
							"type": "uint256"
						},
						{
							"internalType": "uint256",
							"name": "_lockID",
							"type": "uint256"
						},
						{
							"internalType": "uint256",
							"name": "_amount",
							"type": "uint256"
						}
					],
					"name": "incrementLock",
					"outputs": [],
					"stateMutability": "nonpayable",
					"type": "function"
				},
				{
					"inputs": [
						{
							"internalType": "address payable",
							"name": "_lpToken",
							"type": "address"
						},
						{
							"internalType": "uint256",
							"name": "_amount",
							"type": "uint256"
						},
						{
							"internalType": "uint256",
							"name": "_unlock_date",
							"type": "uint256"
						},
						{
							"internalType": "bool",
							"name": "_fee_in_eth",
							"type": "bool"
						},
						{
							"internalType": "address payable",
							"name": "_withdrawer",
							"type": "address"
						}
					],
					"name": "lockLPToken",
					"outputs": [],
					"stateMutability": "payable",
					"type": "function"
				},
				{
					"inputs": [
						{
							"internalType": "address",
							"name": "_lpToken",
							"type": "address"
						},
						{
							"internalType": "uint256",
							"name": "_index",
							"type": "uint256"
						},
						{
							"internalType": "uint256",
							"name": "_lockID",
							"type": "uint256"
						},
						{
							"internalType": "uint256",
							"name": "_amount",
							"type": "uint256"
						}
					],
					"name": "migrate",
					"outputs": [],
					"stateMutability": "nonpayable",
					"type": "function"
				},
				{
					"inputs": [],
					"name": "owner",
					"outputs": [
						{
							"internalType": "address",
							"name": "",
							"type": "address"
						}
					],
					"stateMutability": "view",
					"type": "function"
				},
				{
					"inputs": [
						{
							"internalType": "address payable",
							"name": "_lpToken",
							"type": "address"
						},
						{
							"internalType": "uint256",
							"name": "_index",
							"type": "uint256"
						},
						{
							"internalType": "uint256",
							"name": "_lockID",
							"type": "uint256"
						},
						{
							"internalType": "uint256",
							"name": "_unlock_date",
							"type": "uint256"
						}
					],
					"name": "relock",
					"outputs": [],
					"stateMutability": "nonpayable",
					"type": "function"
				},
				{
					"inputs": [],
					"name": "renounceOwnership",
					"outputs": [],
					"stateMutability": "nonpayable",
					"type": "function"
				},
				{
					"inputs": [
						{
							"internalType": "uint256",
							"name": "_ethFee",
							"type": "uint256"
						},
						{
							"internalType": "uint256",
							"name": "_secondaryTokenFee",
							"type": "uint256"
						},
						{
							"internalType": "uint256",
							"name": "_secondaryTokenDiscount",
							"type": "uint256"
						},
						{
							"internalType": "uint256",
							"name": "_liquidityFee",
							"type": "uint256"
						}
					],
					"name": "setFees",
					"outputs": [],
					"stateMutability": "nonpayable",
					"type": "function"
				},
				{
					"inputs": [
						{
							"internalType": "contract IMigrator",
							"name": "_migrator",
							"type": "address"
						}
					],
					"name": "setMigrator",
					"outputs": [],
					"stateMutability": "nonpayable",
					"type": "function"
				},
				{
					"inputs": [
						{
							"internalType": "address payable",
							"name": "_opsaddr",
							"type": "address"
						}
					],
					"name": "setOps",
					"outputs": [],
					"stateMutability": "nonpayable",
					"type": "function"
				},
				{
					"inputs": [
						{
							"internalType": "address",
							"name": "_secondaryFeeToken",
							"type": "address"
						}
					],
					"name": "setSecondaryFeeToken",
					"outputs": [],
					"stateMutability": "nonpayable",
					"type": "function"
				},
				{
					"inputs": [
						{
							"internalType": "address",
							"name": "_lpToken",
							"type": "address"
						},
						{
							"internalType": "uint256",
							"name": "_index",
							"type": "uint256"
						},
						{
							"internalType": "uint256",
							"name": "_lockID",
							"type": "uint256"
						},
						{
							"internalType": "uint256",
							"name": "_amount",
							"type": "uint256"
						}
					],
					"name": "splitLock",
					"outputs": [],
					"stateMutability": "payable",
					"type": "function"
				},
				{
					"inputs": [
						{
							"internalType": "address",
							"name": "",
							"type": "address"
						},
						{
							"internalType": "uint256",
							"name": "",
							"type": "uint256"
						}
					],
					"name": "tokenLocks",
					"outputs": [
						{
							"internalType": "uint256",
							"name": "lockDate",
							"type": "uint256"
						},
						{
							"internalType": "uint256",
							"name": "amount",
							"type": "uint256"
						},
						{
							"internalType": "uint256",
							"name": "initialAmount",
							"type": "uint256"
						},
						{
							"internalType": "uint256",
							"name": "unlockDate",
							"type": "uint256"
						},
						{
							"internalType": "uint256",
							"name": "lockID",
							"type": "uint256"
						},
						{
							"internalType": "address",
							"name": "owner",
							"type": "address"
						}
					],
					"stateMutability": "view",
					"type": "function"
				},
				{
					"inputs": [
						{
							"internalType": "address payable",
							"name": "_lpToken",
							"type": "address"
						},
						{
							"internalType": "uint256",
							"name": "_index",
							"type": "uint256"
						},
						{
							"internalType": "uint256",
							"name": "_lockID",
							"type": "uint256"
						},
						{
							"internalType": "address payable",
							"name": "_newOwner",
							"type": "address"
						}
					],
					"name": "transferLockOwnership",
					"outputs": [],
					"stateMutability": "nonpayable",
					"type": "function"
				},
				{
					"inputs": [
						{
							"internalType": "address",
							"name": "newOwner",
							"type": "address"
						}
					],
					"name": "transferOwnership",
					"outputs": [],
					"stateMutability": "nonpayable",
					"type": "function"
				},
				{
					"inputs": [],
					"name": "uniswapFactory",
					"outputs": [
						{
							"internalType": "contract IUniFactory",
							"name": "",
							"type": "address"
						}
					],
					"stateMutability": "view",
					"type": "function"
				},
				{
					"inputs": [
						{
							"internalType": "address payable",
							"name": "_user",
							"type": "address"
						},
						{
							"internalType": "bool",
							"name": "_add",
							"type": "bool"
						}
					],
					"name": "whitelistFeeAccount",
					"outputs": [],
					"stateMutability": "nonpayable",
					"type": "function"
				},
				{
					"inputs": [
						{
							"internalType": "address payable",
							"name": "_lpToken",
							"type": "address"
						},
						{
							"internalType": "uint256",
							"name": "_index",
							"type": "uint256"
						},
						{
							"internalType": "uint256",
							"name": "_lockID",
							"type": "uint256"
						},
						{
							"internalType": "uint256",
							"name": "_amount",
							"type": "uint256"
						}
					],
					"name": "withdraw",
					"outputs": [],
					"stateMutability": "nonpayable",
					"type": "function"
				}
			],
			"devdoc": {
				"kind": "dev",
				"methods": {
					"lockLPToken(address,uint256,uint256,bool,address)": {
						"params": {
							"_amount": "amount of LP tokens to lock",
							"_fee_in_eth": "fees can be paid in eth or in a secondary token such as UNCX with a discount on univ2 tokens",
							"_lpToken": "the univ2 token address",
							"_unlock_date": "the unix timestamp (in seconds) until unlock",
							"_withdrawer": "the user who can withdraw liquidity once the lock expires."
						}
					},
					"owner()": {
						"details": "Returns the address of the current owner."
					},
					"renounceOwnership()": {
						"details": "Leaves the contract without owner. It will not be possible to call `onlyOwner` functions anymore. Can only be called by the current owner. NOTE: Renouncing ownership will leave the contract without an owner, thereby removing any functionality that is only available to the owner."
					},
					"transferOwnership(address)": {
						"details": "Transfers ownership of the contract to a new account (`newOwner`). Can only be called by the current owner."
					}
				},
				"version": 1
			},
			"evm": {
				"assembly": "    /* \"contracts/test/Locker.sol\":13283:32456  contract UniswapV2Locker is Ownable, ReentrancyGuard {... */\n  mstore(0x40, 0x80)\n    /* \"contracts/test/Locker.sol\":14926:15210  constructor(IUniFactory _uniswapFactory) {... */\n  callvalue\n  dup1\n  iszero\n  tag_1\n  jumpi\n  0x00\n  dup1\n  revert\ntag_1:\n  pop\n  mload(0x40)\n  sub(codesize, bytecodeSize)\n  dup1\n  bytecodeSize\n  dup4\n  codecopy\n  dup2\n  add\n  0x40\n  dup2\n  swap1\n  mstore\n  tag_2\n  swap2\n  tag_3\n  jump\t// in\ntag_2:\n    /* \"contracts/test/Locker.sol\":1966:1983  address msgSender */\n  0x00\n    /* \"contracts/test/Locker.sol\":2008:2026  _owner = msgSender */\n  dup1\n  sload\n  not(sub(shl(0xa0, 0x01), 0x01))\n  and\n    /* \"contracts/test/Locker.sol\":909:919  msg.sender */\n  caller\n    /* \"contracts/test/Locker.sol\":2008:2026  _owner = msgSender */\n  swap1\n  dup2\n  or\n  dup3\n  sstore\n    /* \"contracts/test/Locker.sol\":2041:2084  OwnershipTransferred(address(0), msgSender) */\n  mload(0x40)\n    /* \"contracts/test/Locker.sol\":909:919  msg.sender */\n  swap1\n  swap2\n  dup3\n  swap2\n    /* \"contracts/test/Locker.sol\":2041:2084  OwnershipTransferred(address(0), msgSender) */\n  0x8be0079c531659141344cd1fd0a4f28419497f9722a3daafe3b4186f6b6457e0\n  swap1\n    /* \"contracts/test/Locker.sol\":1966:1983  address msgSender */\n  dup3\n  swap1\n    /* \"contracts/test/Locker.sol\":2041:2084  OwnershipTransferred(address(0), msgSender) */\n  log3\n  pop\n    /* \"contracts/test/Locker.sol\":6256:6257  1 */\n  0x01\n    /* \"contracts/test/Locker.sol\":6361:6383  _status = _NOT_ENTERED */\n  dup1\n  sstore\n    /* \"contracts/test/Locker.sol\":14977:14980  ops */\n  0x0d\n    /* \"contracts/test/Locker.sol\":14977:15002  ops = payable(msg.sender) */\n  dup1\n  sload\n    /* \"contracts/test/Locker.sol\":14991:15001  msg.sender */\n  caller\n  not(sub(shl(0xa0, 0x01), 0x01))\n    /* \"contracts/test/Locker.sol\":14977:15002  ops = payable(msg.sender) */\n  swap2\n  dup3\n  and\n  or\n  swap1\n  swap2\n  sstore\n    /* \"contracts/test/Locker.sol\":15027:15031  1e19 */\n  0x8ac7230489e80000\n    /* \"contracts/test/Locker.sol\":15012:15017  gFees */\n  0x05\n    /* \"contracts/test/Locker.sol\":15012:15031  gFees.ethFee = 1e19 */\n  dup2\n  swap1\n  sstore\n    /* \"contracts/test/Locker.sol\":15041:15064  gFees.secondaryTokenFee */\n  0x07\n    /* \"contracts/test/Locker.sol\":15041:15071  gFees.secondaryTokenFee = 1e19 */\n  sstore\n    /* \"contracts/test/Locker.sol\":15112:15114  50 */\n  0x32\n  0x08\n    /* \"contracts/test/Locker.sol\":15081:15114  gFees.secondaryTokenDiscount = 50 */\n  sstore\n    /* \"contracts/test/Locker.sol\":15151:15154  100 */\n  0x64\n    /* \"contracts/test/Locker.sol\":15130:15148  gFees.liquidityFee */\n  0x09\n    /* \"contracts/test/Locker.sol\":15130:15154  gFees.liquidityFee = 100 */\n  sstore\n    /* \"contracts/test/Locker.sol\":15041:15064  gFees.secondaryTokenFee */\n  0x02\n    /* \"contracts/test/Locker.sol\":15171:15203  uniswapFactory = _uniswapFactory */\n  dup1\n  sload\n  swap1\n  swap2\n  and\n  sub(shl(0xa0, 0x01), 0x01)\n  swap3\n  swap1\n  swap3\n  and\n  swap2\n  swap1\n  swap2\n  or\n  swap1\n  sstore\n    /* \"contracts/test/Locker.sol\":13283:32456  contract UniswapV2Locker is Ownable, ReentrancyGuard {... */\n  jump(tag_14)\n    /* \"#utility.yul\":14:323   */\ntag_3:\n    /* \"#utility.yul\":103:109   */\n  0x00\n    /* \"#utility.yul\":156:158   */\n  0x20\n    /* \"#utility.yul\":144:153   */\n  dup3\n    /* \"#utility.yul\":135:142   */\n  dup5\n    /* \"#utility.yul\":131:154   */\n  sub\n    /* \"#utility.yul\":127:159   */\n  slt\n    /* \"#utility.yul\":124:176   */\n  iszero\n  tag_16\n  jumpi\n    /* \"#utility.yul\":172:173   */\n  0x00\n    /* \"#utility.yul\":169:170   */\n  dup1\n    /* \"#utility.yul\":162:174   */\n  revert\n    /* \"#utility.yul\":124:176   */\ntag_16:\n    /* \"#utility.yul\":198:214   */\n  dup2\n  mload\n  sub(shl(0xa0, 0x01), 0x01)\n    /* \"#utility.yul\":243:274   */\n  dup2\n  and\n    /* \"#utility.yul\":233:275   */\n  dup2\n  eq\n    /* \"#utility.yul\":223:293   */\n  tag_17\n  jumpi\n    /* \"#utility.yul\":289:290   */\n  0x00\n    /* \"#utility.yul\":286:287   */\n  dup1\n    /* \"#utility.yul\":279:291   */\n  revert\n    /* \"#utility.yul\":223:293   */\ntag_17:\n    /* \"#utility.yul\":312:317   */\n  swap4\n    /* \"#utility.yul\":14:323   */\n  swap3\n  pop\n  pop\n  pop\n  jump\t// out\ntag_14:\n    /* \"contracts/test/Locker.sol\":13283:32456  contract UniswapV2Locker is Ownable, ReentrancyGuard {... */\n  dataSize(sub_0)\n  dup1\n  dataOffset(sub_0)\n  0x00\n  codecopy\n  0x00\n  return\nstop\n\nsub_0: assembly {\n        /* \"contracts/test/Locker.sol\":13283:32456  contract UniswapV2Locker is Ownable, ReentrancyGuard {... */\n      mstore(0x40, 0x80)\n      jumpi(tag_1, lt(calldatasize, 0x04))\n      shr(0xe0, calldataload(0x00))\n      dup1\n      0x8da5cb5b\n      gt\n      tag_30\n      jumpi\n      dup1\n      0x8da5cb5b\n      eq\n      tag_16\n      jumpi\n      dup1\n      0x903df806\n      eq\n      tag_17\n      jumpi\n      dup1\n      0x90e1a003\n      eq\n      tag_18\n      jumpi\n      dup1\n      0x91ff1eb1\n      eq\n      tag_19\n      jumpi\n      dup1\n      0x974f9626\n      eq\n      tag_20\n      jumpi\n      dup1\n      0xa3969815\n      eq\n      tag_21\n      jumpi\n      dup1\n      0xa69d9c4f\n      eq\n      tag_22\n      jumpi\n      dup1\n      0xa9b07cea\n      eq\n      tag_23\n      jumpi\n      dup1\n      0xb1cb89a3\n      eq\n      tag_24\n      jumpi\n      dup1\n      0xbef497fd\n      eq\n      tag_25\n      jumpi\n      dup1\n      0xccebfa3f\n      eq\n      tag_26\n      jumpi\n      dup1\n      0xd4ff493f\n      eq\n      tag_27\n      jumpi\n      dup1\n      0xee424278\n      eq\n      tag_28\n      jumpi\n      dup1\n      0xf2fde38b\n      eq\n      tag_29\n      jumpi\n      0x00\n      dup1\n      revert\n    tag_30:\n      dup1\n      0x1f0b8a0d\n      eq\n      tag_2\n      jumpi\n      dup1\n      0x1f2a1d2f\n      eq\n      tag_3\n      jumpi\n      dup1\n      0x23cf3118\n      eq\n      tag_4\n      jumpi\n      dup1\n      0x34ddbfe9\n      eq\n      tag_5\n      jumpi\n      dup1\n      0x4532d776\n      eq\n      tag_6\n      jumpi\n      dup1\n      0x582d5adc\n      eq\n      tag_7\n      jumpi\n      dup1\n      0x5a4ddd17\n      eq\n      tag_5\n      jumpi\n      dup1\n      0x5c7e9db8\n      eq\n      tag_9\n      jumpi\n      dup1\n      0x60491d24\n      eq\n      tag_10\n      jumpi\n      dup1\n      0x6fcba377\n      eq\n      tag_11\n      jumpi\n      dup1\n      0x715018a6\n      eq\n      tag_12\n      jumpi\n      dup1\n      0x783451e8\n      eq\n      tag_13\n      jumpi\n      dup1\n      0x8931a4be\n      eq\n      tag_14\n      jumpi\n      dup1\n      0x8bdb2afa\n      eq\n      tag_15\n      jumpi\n    tag_1:\n      0x00\n      dup1\n      revert\n        /* \"contracts/test/Locker.sol\":30471:30696  function getLockedTokenAtIndex(address _user, uint256 _index)... */\n    tag_2:\n      callvalue\n      dup1\n      iszero\n      tag_31\n      jumpi\n      0x00\n      dup1\n      revert\n    tag_31:\n      pop\n      tag_32\n      tag_33\n      calldatasize\n      0x04\n      tag_34\n      jump\t// in\n    tag_33:\n      tag_35\n      jump\t// in\n    tag_32:\n      mload(0x40)\n      sub(shl(0xa0, 0x01), 0x01)\n        /* \"#utility.yul\":650:682   */\n      swap1\n      swap2\n      and\n        /* \"#utility.yul\":632:683   */\n      dup2\n      mstore\n        /* \"#utility.yul\":620:622   */\n      0x20\n        /* \"#utility.yul\":605:623   */\n      add\n        /* \"contracts/test/Locker.sol\":30471:30696  function getLockedTokenAtIndex(address _user, uint256 _index)... */\n    tag_36:\n      mload(0x40)\n      dup1\n      swap2\n      sub\n      swap1\n      return\n        /* \"contracts/test/Locker.sol\":30131:30289  function getNumLocksForToken(address _lpToken)... */\n    tag_3:\n      callvalue\n      dup1\n      iszero\n      tag_38\n      jumpi\n      0x00\n      dup1\n      revert\n    tag_38:\n      pop\n      tag_39\n      tag_40\n      calldatasize\n      0x04\n      tag_41\n      jump\t// in\n    tag_40:\n      sub(shl(0xa0, 0x01), 0x01)\n        /* \"contracts/test/Locker.sol\":30255:30275  tokenLocks[_lpToken] */\n      and\n        /* \"contracts/test/Locker.sol\":30225:30232  uint256 */\n      0x00\n        /* \"contracts/test/Locker.sol\":30255:30275  tokenLocks[_lpToken] */\n      swap1\n      dup2\n      mstore\n        /* \"contracts/test/Locker.sol\":30255:30265  tokenLocks */\n      0x04\n        /* \"contracts/test/Locker.sol\":30255:30275  tokenLocks[_lpToken] */\n      0x20\n      mstore\n      0x40\n      swap1\n      keccak256\n        /* \"contracts/test/Locker.sol\":30255:30282  tokenLocks[_lpToken].length */\n      sload\n      swap1\n        /* \"contracts/test/Locker.sol\":30131:30289  function getNumLocksForToken(address _lpToken)... */\n      jump\n    tag_39:\n      mload(0x40)\n        /* \"#utility.yul\":1092:1117   */\n      swap1\n      dup2\n      mstore\n        /* \"#utility.yul\":1080:1082   */\n      0x20\n        /* \"#utility.yul\":1065:1083   */\n      add\n        /* \"contracts/test/Locker.sol\":30131:30289  function getNumLocksForToken(address _lpToken)... */\n      tag_36\n        /* \"#utility.yul\":946:1123   */\n      jump\n        /* \"contracts/test/Locker.sol\":15428:15524  function setMigrator(IMigrator _migrator) public onlyOwner {... */\n    tag_4:\n      callvalue\n      dup1\n      iszero\n      tag_45\n      jumpi\n      0x00\n      dup1\n      revert\n    tag_45:\n      pop\n      tag_46\n      tag_47\n      calldatasize\n      0x04\n      tag_41\n      jump\t// in\n    tag_47:\n      tag_49\n      jump\t// in\n    tag_46:\n      stop\n        /* \"contracts/test/Locker.sol\":32148:32298  function WhitelistStatus(address payable wallet)... */\n    tag_5:\n      callvalue\n      dup1\n      iszero\n      tag_50\n      jumpi\n      0x00\n      dup1\n      revert\n    tag_50:\n      pop\n      tag_51\n      tag_52\n      calldatasize\n      0x04\n      tag_41\n      jump\t// in\n    tag_52:\n      sub(shl(0xa0, 0x01), 0x01)\n        /* \"contracts/test/Locker.sol\":32271:32291  feeWhitelist[wallet] */\n      and\n        /* \"contracts/test/Locker.sol\":32244:32248  bool */\n      0x00\n        /* \"contracts/test/Locker.sol\":32271:32291  feeWhitelist[wallet] */\n      swap1\n      dup2\n      mstore\n        /* \"contracts/test/Locker.sol\":32271:32283  feeWhitelist */\n      0x0a\n        /* \"contracts/test/Locker.sol\":32271:32291  feeWhitelist[wallet] */\n      0x20\n      mstore\n      0x40\n      swap1\n      keccak256\n      sload\n      0xff\n      and\n      swap1\n        /* \"contracts/test/Locker.sol\":32148:32298  function WhitelistStatus(address payable wallet)... */\n      jump\n    tag_51:\n      mload(0x40)\n        /* \"#utility.yul\":1822:1836   */\n      swap1\n      iszero\n        /* \"#utility.yul\":1815:1837   */\n      iszero\n        /* \"#utility.yul\":1797:1838   */\n      dup2\n      mstore\n        /* \"#utility.yul\":1785:1787   */\n      0x20\n        /* \"#utility.yul\":1770:1788   */\n      add\n        /* \"contracts/test/Locker.sol\":32148:32298  function WhitelistStatus(address payable wallet)... */\n      tag_36\n        /* \"#utility.yul\":1657:1844   */\n      jump\n        /* \"contracts/test/Locker.sol\":23196:24671  function withdraw(... */\n    tag_6:\n      callvalue\n      dup1\n      iszero\n      tag_57\n      jumpi\n      0x00\n      dup1\n      revert\n    tag_57:\n      pop\n      tag_46\n      tag_59\n      calldatasize\n      0x04\n      tag_60\n      jump\t// in\n    tag_59:\n      tag_61\n      jump\t// in\n        /* \"contracts/test/Locker.sol\":26225:27550  function splitLock(... */\n    tag_7:\n      tag_46\n      tag_63\n      calldatasize\n      0x04\n      tag_60\n      jump\t// in\n    tag_63:\n      tag_65\n      jump\t// in\n        /* \"contracts/test/Locker.sol\":15216:15306  function setOps(address payable _opsaddr) public onlyOwner {... */\n    tag_9:\n      callvalue\n      dup1\n      iszero\n      tag_71\n      jumpi\n      0x00\n      dup1\n      revert\n    tag_71:\n      pop\n      tag_46\n      tag_73\n      calldatasize\n      0x04\n      tag_41\n      jump\t// in\n    tag_73:\n      tag_74\n      jump\t// in\n        /* \"contracts/test/Locker.sol\":21720:22960  function relock(... */\n    tag_10:\n      callvalue\n      dup1\n      iszero\n      tag_75\n      jumpi\n      0x00\n      dup1\n      revert\n    tag_75:\n      pop\n      tag_46\n      tag_77\n      calldatasize\n      0x04\n      tag_60\n      jump\t// in\n    tag_77:\n      tag_78\n      jump\t// in\n        /* \"contracts/test/Locker.sol\":15682:16056  function setFees(... */\n    tag_11:\n      callvalue\n      dup1\n      iszero\n      tag_79\n      jumpi\n      0x00\n      dup1\n      revert\n    tag_79:\n      pop\n      tag_46\n      tag_81\n      calldatasize\n      0x04\n      tag_82\n      jump\t// in\n    tag_81:\n      tag_83\n      jump\t// in\n        /* \"contracts/test/Locker.sol\":2790:2935  function renounceOwnership() public virtual onlyOwner {... */\n    tag_12:\n      callvalue\n      dup1\n      iszero\n      tag_84\n      jumpi\n      0x00\n      dup1\n      revert\n    tag_84:\n      pop\n      tag_46\n      tag_86\n      jump\t// in\n        /* \"contracts/test/Locker.sol\":30295:30465  function getNumLockedTokens() external view returns (uint256) {... */\n    tag_13:\n      callvalue\n      dup1\n      iszero\n      tag_87\n      jumpi\n      0x00\n      dup1\n      revert\n    tag_87:\n      pop\n        /* \"contracts/test/Locker.sol\":30405:30415  msg.sender */\n      caller\n        /* \"contracts/test/Locker.sol\":30348:30355  uint256 */\n      0x00\n        /* \"contracts/test/Locker.sol\":30391:30417  users[payable(msg.sender)] */\n      swap1\n      dup2\n      mstore\n        /* \"contracts/test/Locker.sol\":30391:30396  users */\n      0x03\n        /* \"contracts/test/Locker.sol\":30391:30417  users[payable(msg.sender)] */\n      0x20\n      mstore\n      0x40\n      swap1\n      keccak256\n        /* \"contracts/test/Locker.sol\":30434:30458  user.lockedTokens.length */\n      sload\n        /* \"contracts/test/Locker.sol\":30295:30465  function getNumLockedTokens() external view returns (uint256) {... */\n      jump(tag_39)\n        /* \"contracts/test/Locker.sol\":15530:15676  function setSecondaryFeeToken(address _secondaryFeeToken) public onlyOwner {... */\n    tag_14:\n      callvalue\n      dup1\n      iszero\n      tag_91\n      jumpi\n      0x00\n      dup1\n      revert\n    tag_91:\n      pop\n      tag_46\n      tag_93\n      calldatasize\n      0x04\n      tag_41\n      jump\t// in\n    tag_93:\n      tag_94\n      jump\t// in\n        /* \"contracts/test/Locker.sol\":13375:13408  IUniFactory public uniswapFactory */\n    tag_15:\n      callvalue\n      dup1\n      iszero\n      tag_95\n      jumpi\n      0x00\n      dup1\n      revert\n    tag_95:\n      pop\n      sload(0x02)\n      tag_32\n      swap1\n      sub(shl(0xa0, 0x01), 0x01)\n      and\n      dup2\n      jump\n        /* \"contracts/test/Locker.sol\":2167:2244  function owner() public view returns (address) {... */\n    tag_16:\n      callvalue\n      dup1\n      iszero\n      tag_100\n      jumpi\n      0x00\n      dup1\n      revert\n    tag_100:\n      pop\n        /* \"contracts/test/Locker.sol\":2205:2212  address */\n      0x00\n        /* \"contracts/test/Locker.sol\":2231:2237  _owner */\n      sload\n      sub(shl(0xa0, 0x01), 0x01)\n      and\n        /* \"contracts/test/Locker.sol\":2167:2244  function owner() public view returns (address) {... */\n      jump(tag_32)\n        /* \"contracts/test/Locker.sol\":30931:31232  function getUserLockedTokenAtIndex(address _user, uint256 _index)... */\n    tag_17:\n      callvalue\n      dup1\n      iszero\n      tag_105\n      jumpi\n      0x00\n      dup1\n      revert\n    tag_105:\n      pop\n      tag_32\n      tag_107\n      calldatasize\n      0x04\n      tag_34\n      jump\t// in\n    tag_107:\n      tag_108\n      jump\t// in\n        /* \"contracts/test/Locker.sol\":14484:14506  FeeStruct public gFees */\n    tag_18:\n      callvalue\n      dup1\n      iszero\n      tag_110\n      jumpi\n      0x00\n      dup1\n      revert\n    tag_110:\n      pop\n      sload(0x05)\n      sload(0x06)\n      sload(0x07)\n      sload(0x08)\n      sload(0x09)\n      tag_111\n      swap5\n      swap4\n      sub(shl(0xa0, 0x01), 0x01)\n      and\n      swap3\n      swap2\n      swap1\n      dup6\n      jump\n    tag_111:\n      0x40\n      dup1\n      mload\n        /* \"#utility.yul\":3871:3896   */\n      swap6\n      dup7\n      mstore\n      sub(shl(0xa0, 0x01), 0x01)\n        /* \"#utility.yul\":3932:3964   */\n      swap1\n      swap5\n      and\n        /* \"#utility.yul\":3927:3929   */\n      0x20\n        /* \"#utility.yul\":3912:3930   */\n      dup7\n      add\n        /* \"#utility.yul\":3905:3965   */\n      mstore\n        /* \"#utility.yul\":3981:3999   */\n      swap3\n      dup5\n      add\n        /* \"#utility.yul\":3974:4008   */\n      swap2\n      swap1\n      swap2\n      mstore\n        /* \"#utility.yul\":4039:4041   */\n      0x60\n        /* \"#utility.yul\":4024:4042   */\n      dup4\n      add\n        /* \"#utility.yul\":4017:4051   */\n      mstore\n        /* \"#utility.yul\":4082:4085   */\n      0x80\n        /* \"#utility.yul\":4067:4086   */\n      dup3\n      add\n        /* \"#utility.yul\":4060:4095   */\n      mstore\n        /* \"#utility.yul\":3858:3861   */\n      0xa0\n        /* \"#utility.yul\":3843:3862   */\n      add\n        /* \"contracts/test/Locker.sol\":14484:14506  FeeStruct public gFees */\n      tag_36\n        /* \"#utility.yul\":3596:4101   */\n      jump\n        /* \"contracts/test/Locker.sol\":16148:16291  function whitelistFeeAccount(address payable _user, bool _add)... */\n    tag_19:\n      callvalue\n      dup1\n      iszero\n      tag_115\n      jumpi\n      0x00\n      dup1\n      revert\n    tag_115:\n      pop\n      tag_46\n      tag_117\n      calldatasize\n      0x04\n      tag_118\n      jump\t// in\n    tag_117:\n      tag_119\n      jump\t// in\n        /* \"contracts/test/Locker.sol\":16929:21487  function lockLPToken(... */\n    tag_20:\n      tag_46\n      tag_121\n      calldatasize\n      0x04\n      tag_122\n      jump\t// in\n    tag_121:\n      tag_123\n      jump\t// in\n        /* \"contracts/test/Locker.sol\":30724:30925  function getUserNumLockedTokens(address _user)... */\n    tag_21:\n      callvalue\n      dup1\n      iszero\n      tag_124\n      jumpi\n      0x00\n      dup1\n      revert\n    tag_124:\n      pop\n      tag_39\n      tag_126\n      calldatasize\n      0x04\n      tag_41\n      jump\t// in\n    tag_126:\n      sub(shl(0xa0, 0x01), 0x01)\n        /* \"contracts/test/Locker.sol\":30865:30877  users[_user] */\n      and\n        /* \"contracts/test/Locker.sol\":30818:30825  uint256 */\n      0x00\n        /* \"contracts/test/Locker.sol\":30865:30877  users[_user] */\n      swap1\n      dup2\n      mstore\n        /* \"contracts/test/Locker.sol\":30865:30870  users */\n      0x03\n        /* \"contracts/test/Locker.sol\":30865:30877  users[_user] */\n      0x20\n      mstore\n      0x40\n      swap1\n      keccak256\n        /* \"contracts/test/Locker.sol\":30894:30918  user.lockedTokens.length */\n      sload\n      swap1\n        /* \"contracts/test/Locker.sol\":30724:30925  function getUserNumLockedTokens(address _user)... */\n      jump\n        /* \"contracts/test/Locker.sol\":31238:31469  function getUserNumLocksForToken(address _user, address _lpToken)... */\n    tag_22:\n      callvalue\n      dup1\n      iszero\n      tag_129\n      jumpi\n      0x00\n      dup1\n      revert\n    tag_129:\n      pop\n      tag_39\n      tag_131\n      calldatasize\n      0x04\n      tag_132\n      jump\t// in\n    tag_131:\n      sub(shl(0xa0, 0x01), 0x01)\n        /* \"contracts/test/Locker.sol\":31398:31410  users[_user] */\n      swap2\n      dup3\n      and\n        /* \"contracts/test/Locker.sol\":31351:31358  uint256 */\n      0x00\n        /* \"contracts/test/Locker.sol\":31398:31410  users[_user] */\n      swap1\n      dup2\n      mstore\n        /* \"contracts/test/Locker.sol\":31398:31403  users */\n      0x03\n        /* \"contracts/test/Locker.sol\":31398:31410  users[_user] */\n      0x20\n      swap1\n      dup2\n      mstore\n      0x40\n      dup1\n      dup4\n      keccak256\n        /* \"contracts/test/Locker.sol\":31427:31455  user.locksForToken[_lpToken] */\n      swap4\n      swap1\n      swap5\n      and\n      dup3\n      mstore\n        /* \"contracts/test/Locker.sol\":31427:31445  user.locksForToken */\n      0x01\n      swap1\n      swap3\n      add\n        /* \"contracts/test/Locker.sol\":31427:31455  user.locksForToken[_lpToken] */\n      swap1\n      swap2\n      mstore\n      keccak256\n        /* \"contracts/test/Locker.sol\":31427:31462  user.locksForToken[_lpToken].length */\n      sload\n      swap1\n        /* \"contracts/test/Locker.sol\":31238:31469  function getUserNumLocksForToken(address _user, address _lpToken)... */\n      jump\n        /* \"contracts/test/Locker.sol\":24859:26040  function incrementLock(... */\n    tag_23:\n      callvalue\n      dup1\n      iszero\n      tag_135\n      jumpi\n      0x00\n      dup1\n      revert\n    tag_135:\n      pop\n      tag_46\n      tag_137\n      calldatasize\n      0x04\n      tag_60\n      jump\t// in\n    tag_137:\n      tag_138\n      jump\t// in\n        /* \"contracts/test/Locker.sol\":16360:16500  function blocklistAccount(address payable _user, bool _add)... */\n    tag_24:\n      callvalue\n      dup1\n      iszero\n      tag_139\n      jumpi\n      0x00\n      dup1\n      revert\n    tag_139:\n      pop\n      tag_46\n      tag_141\n      calldatasize\n      0x04\n      tag_118\n      jump\t// in\n    tag_141:\n      tag_142\n      jump\t// in\n        /* \"contracts/test/Locker.sol\":27657:28846  function transferLockOwnership(... */\n    tag_25:\n      callvalue\n      dup1\n      iszero\n      tag_143\n      jumpi\n      0x00\n      dup1\n      revert\n    tag_143:\n      pop\n      tag_46\n      tag_145\n      calldatasize\n      0x04\n      tag_146\n      jump\t// in\n    tag_145:\n      tag_147\n      jump\t// in\n        /* \"contracts/test/Locker.sol\":14059:14108  mapping(address => TokenLock[]) public tokenLocks */\n    tag_26:\n      callvalue\n      dup1\n      iszero\n      tag_148\n      jumpi\n      0x00\n      dup1\n      revert\n    tag_148:\n      pop\n      tag_149\n      tag_150\n      calldatasize\n      0x04\n      tag_34\n      jump\t// in\n    tag_150:\n      tag_151\n      jump\t// in\n    tag_149:\n      0x40\n      dup1\n      mload\n        /* \"#utility.yul\":6532:6557   */\n      swap7\n      dup8\n      mstore\n        /* \"#utility.yul\":6588:6590   */\n      0x20\n        /* \"#utility.yul\":6573:6591   */\n      dup8\n      add\n        /* \"#utility.yul\":6566:6600   */\n      swap6\n      swap1\n      swap6\n      mstore\n        /* \"#utility.yul\":6616:6634   */\n      swap4\n      dup6\n      add\n        /* \"#utility.yul\":6609:6643   */\n      swap3\n      swap1\n      swap3\n      mstore\n        /* \"#utility.yul\":6674:6676   */\n      0x60\n        /* \"#utility.yul\":6659:6677   */\n      dup5\n      add\n        /* \"#utility.yul\":6652:6686   */\n      mstore\n        /* \"#utility.yul\":6717:6720   */\n      0x80\n        /* \"#utility.yul\":6702:6721   */\n      dup4\n      add\n        /* \"#utility.yul\":6695:6730   */\n      mstore\n      sub(shl(0xa0, 0x01), 0x01)\n        /* \"#utility.yul\":6767:6799   */\n      and\n        /* \"#utility.yul\":6787:6790   */\n      0xa0\n        /* \"#utility.yul\":6746:6765   */\n      dup3\n      add\n        /* \"#utility.yul\":6739:6800   */\n      mstore\n        /* \"#utility.yul\":6519:6522   */\n      0xc0\n        /* \"#utility.yul\":6504:6523   */\n      add\n        /* \"contracts/test/Locker.sol\":14059:14108  mapping(address => TokenLock[]) public tokenLocks */\n      tag_36\n        /* \"#utility.yul\":6245:6806   */\n      jump\n        /* \"contracts/test/Locker.sol\":31475:32142  function getUserLockForTokenAtIndex(... */\n    tag_27:\n      callvalue\n      dup1\n      iszero\n      tag_154\n      jumpi\n      0x00\n      dup1\n      revert\n    tag_154:\n      pop\n      tag_149\n      tag_156\n      calldatasize\n      0x04\n      tag_157\n      jump\t// in\n    tag_156:\n      tag_158\n      jump\t// in\n        /* \"contracts/test/Locker.sol\":28916:30125  function migrate(... */\n    tag_28:\n      callvalue\n      dup1\n      iszero\n      tag_160\n      jumpi\n      0x00\n      dup1\n      revert\n    tag_160:\n      pop\n      tag_46\n      tag_162\n      calldatasize\n      0x04\n      tag_60\n      jump\t// in\n    tag_162:\n      tag_163\n      jump\t// in\n        /* \"contracts/test/Locker.sol\":3084:3358  function transferOwnership(address newOwner) public virtual onlyOwner {... */\n    tag_29:\n      callvalue\n      dup1\n      iszero\n      tag_164\n      jumpi\n      0x00\n      dup1\n      revert\n    tag_164:\n      pop\n      tag_46\n      tag_166\n      calldatasize\n      0x04\n      tag_41\n      jump\t// in\n    tag_166:\n      tag_167\n      jump\t// in\n        /* \"contracts/test/Locker.sol\":30471:30696  function getLockedTokenAtIndex(address _user, uint256 _index)... */\n    tag_35:\n      sub(shl(0xa0, 0x01), 0x01)\n        /* \"contracts/test/Locker.sol\":30635:30647  users[_user] */\n      dup3\n      and\n        /* \"contracts/test/Locker.sol\":30580:30595  address payable */\n      0x00\n        /* \"contracts/test/Locker.sol\":30635:30647  users[_user] */\n      swap1\n      dup2\n      mstore\n        /* \"contracts/test/Locker.sol\":30635:30640  users */\n      0x03\n        /* \"contracts/test/Locker.sol\":30635:30647  users[_user] */\n      0x20\n      mstore\n      0x40\n      dup2\n      keccak256\n        /* \"contracts/test/Locker.sol\":30664:30689  user.lockedTokens[_index] */\n      dup1\n      sload\n        /* \"contracts/test/Locker.sol\":30635:30647  users[_user] */\n      dup2\n      swap1\n        /* \"contracts/test/Locker.sol\":30682:30688  _index */\n      dup5\n      swap1\n        /* \"contracts/test/Locker.sol\":30664:30689  user.lockedTokens[_index] */\n      dup2\n      lt\n      tag_170\n      jumpi\n      tag_170\n      tag_171\n      jump\t// in\n    tag_170:\n      0x00\n      swap2\n      dup3\n      mstore\n      0x20\n      swap1\n      swap2\n      keccak256\n      add\n      sload\n      sub(shl(0xa0, 0x01), 0x01)\n      and\n      swap2\n      pop\n      pop\n        /* \"contracts/test/Locker.sol\":30471:30696  function getLockedTokenAtIndex(address _user, uint256 _index)... */\n    tag_168:\n      swap3\n      swap2\n      pop\n      pop\n      jump\t// out\n        /* \"contracts/test/Locker.sol\":15428:15524  function setMigrator(IMigrator _migrator) public onlyOwner {... */\n    tag_49:\n        /* \"contracts/test/Locker.sol\":2371:2377  _owner */\n      and(sub(shl(0xa0, 0x01), 0x01), sload(0x00))\n        /* \"contracts/test/Locker.sol\":909:919  msg.sender */\n      caller\n        /* \"contracts/test/Locker.sol\":2371:2393  _owner == _msgSender() */\n      eq\n        /* \"contracts/test/Locker.sol\":2363:2430  require(_owner == _msgSender(), \"Ownable: caller is not the owner\") */\n      tag_177\n      jumpi\n      mload(0x40)\n      shl(0xe5, 0x461bcd)\n      dup2\n      mstore\n      0x04\n      add\n      tag_178\n      swap1\n      tag_179\n      jump\t// in\n    tag_178:\n      mload(0x40)\n      dup1\n      swap2\n      sub\n      swap1\n      revert\n    tag_177:\n        /* \"contracts/test/Locker.sol\":15497:15505  migrator */\n      0x0e\n        /* \"contracts/test/Locker.sol\":15497:15517  migrator = _migrator */\n      dup1\n      sload\n      not(sub(shl(0xa0, 0x01), 0x01))\n      and\n      sub(shl(0xa0, 0x01), 0x01)\n      swap3\n      swap1\n      swap3\n      and\n      swap2\n      swap1\n      swap2\n      or\n      swap1\n      sstore\n        /* \"contracts/test/Locker.sol\":15428:15524  function setMigrator(IMigrator _migrator) public onlyOwner {... */\n      jump\t// out\n        /* \"contracts/test/Locker.sol\":23196:24671  function withdraw(... */\n    tag_61:\n        /* \"contracts/test/Locker.sol\":6299:6300  2 */\n      0x02\n        /* \"contracts/test/Locker.sol\":6878:6885  _status */\n      sload(0x01)\n        /* \"contracts/test/Locker.sol\":6878:6897  _status != _ENTERED */\n      sub\n        /* \"contracts/test/Locker.sol\":6870:6933  require(_status != _ENTERED, \"ReentrancyGuard: reentrant call\") */\n      tag_183\n      jumpi\n      mload(0x40)\n      shl(0xe5, 0x461bcd)\n      dup2\n      mstore\n      0x04\n      add\n      tag_178\n      swap1\n      tag_185\n      jump\t// in\n    tag_183:\n        /* \"contracts/test/Locker.sol\":6299:6300  2 */\n      0x02\n        /* \"contracts/test/Locker.sol\":7008:7015  _status */\n      0x01\n        /* \"contracts/test/Locker.sol\":7008:7026  _status = _ENTERED */\n      sstore\n        /* \"contracts/test/Locker.sol\":23368:23379  _amount > 0 */\n      dup1\n        /* \"contracts/test/Locker.sol\":23360:23398  require(_amount > 0, \"ZERO WITHDRAWL\") */\n      tag_187\n      jumpi\n      mload(0x40)\n      shl(0xe5, 0x461bcd)\n      dup2\n      mstore\n        /* \"#utility.yul\":8327:8329   */\n      0x20\n        /* \"contracts/test/Locker.sol\":23360:23398  require(_amount > 0, \"ZERO WITHDRAWL\") */\n      0x04\n      dup3\n      add\n        /* \"#utility.yul\":8309:8330   */\n      mstore\n        /* \"#utility.yul\":8366:8368   */\n      0x0e\n        /* \"#utility.yul\":8346:8364   */\n      0x24\n      dup3\n      add\n        /* \"#utility.yul\":8339:8369   */\n      mstore\n      shl(0x92, 0x16915493c815d2551211149055d3)\n        /* \"#utility.yul\":8385:8403   */\n      0x44\n      dup3\n      add\n        /* \"#utility.yul\":8378:8422   */\n      mstore\n        /* \"#utility.yul\":8439:8457   */\n      0x64\n      add\n        /* \"contracts/test/Locker.sol\":23360:23398  require(_amount > 0, \"ZERO WITHDRAWL\") */\n      tag_178\n        /* \"#utility.yul\":8125:8463   */\n      jump\n        /* \"contracts/test/Locker.sol\":23360:23398  require(_amount > 0, \"ZERO WITHDRAWL\") */\n    tag_187:\n        /* \"contracts/test/Locker.sol\":23431:23441  msg.sender */\n      caller\n        /* \"contracts/test/Locker.sol\":23408:23422  uint256 lockID */\n      0x00\n        /* \"contracts/test/Locker.sol\":23425:23442  users[msg.sender] */\n      swap1\n      dup2\n      mstore\n        /* \"contracts/test/Locker.sol\":23425:23430  users */\n      0x03\n        /* \"contracts/test/Locker.sol\":23425:23442  users[msg.sender] */\n      0x20\n      swap1\n      dup2\n      mstore\n      0x40\n      dup1\n      dup4\n      keccak256\n      sub(shl(0xa0, 0x01), 0x01)\n        /* \"contracts/test/Locker.sol\":23425:23466  users[msg.sender].locksForToken[_lpToken] */\n      dup9\n      and\n      dup5\n      mstore\n        /* \"contracts/test/Locker.sol\":23425:23456  users[msg.sender].locksForToken */\n      0x01\n      add\n        /* \"contracts/test/Locker.sol\":23425:23466  users[msg.sender].locksForToken[_lpToken] */\n      swap1\n      swap2\n      mstore\n      dup2\n      keccak256\n        /* \"contracts/test/Locker.sol\":23425:23474  users[msg.sender].locksForToken[_lpToken][_index] */\n      dup1\n      sload\n        /* \"contracts/test/Locker.sol\":23467:23473  _index */\n      dup6\n      swap1\n        /* \"contracts/test/Locker.sol\":23425:23474  users[msg.sender].locksForToken[_lpToken][_index] */\n      dup2\n      lt\n      tag_191\n      jumpi\n      tag_191\n      tag_171\n      jump\t// in\n    tag_191:\n      swap1\n      0x00\n      mstore\n      keccak256(0x00, 0x20)\n      add\n      sload\n        /* \"contracts/test/Locker.sol\":23408:23474  uint256 lockID = users[msg.sender].locksForToken[_lpToken][_index] */\n      swap1\n      pop\n        /* \"contracts/test/Locker.sol\":23484:23510  TokenLock storage userLock */\n      0x00\n        /* \"contracts/test/Locker.sol\":23513:23523  tokenLocks */\n      0x04\n        /* \"contracts/test/Locker.sol\":23513:23533  tokenLocks[_lpToken] */\n      0x00\n        /* \"contracts/test/Locker.sol\":23524:23532  _lpToken */\n      dup8\n      sub(shl(0xa0, 0x01), 0x01)\n        /* \"contracts/test/Locker.sol\":23513:23533  tokenLocks[_lpToken] */\n      and\n      sub(shl(0xa0, 0x01), 0x01)\n      and\n      dup2\n      mstore\n      0x20\n      add\n      swap1\n      dup2\n      mstore\n      0x20\n      add\n      0x00\n      keccak256\n        /* \"contracts/test/Locker.sol\":23534:23540  lockID */\n      dup3\n        /* \"contracts/test/Locker.sol\":23513:23541  tokenLocks[_lpToken][lockID] */\n      dup2\n      sload\n      dup2\n      lt\n      tag_194\n      jumpi\n      tag_194\n      tag_171\n      jump\t// in\n    tag_194:\n      swap1\n      0x00\n      mstore\n      keccak256(0x00, 0x20)\n      swap1\n      0x06\n      mul\n      add\n        /* \"contracts/test/Locker.sol\":23484:23541  TokenLock storage userLock = tokenLocks[_lpToken][lockID] */\n      swap1\n      pop\n        /* \"contracts/test/Locker.sol\":23582:23589  _lockID */\n      dup4\n        /* \"contracts/test/Locker.sol\":23572:23578  lockID */\n      dup3\n        /* \"contracts/test/Locker.sol\":23572:23589  lockID == _lockID */\n      eq\n        /* \"contracts/test/Locker.sol\":23572:23621  lockID == _lockID && userLock.owner == msg.sender */\n      dup1\n      iszero\n      tag_196\n      jumpi\n      pop\n        /* \"contracts/test/Locker.sol\":23593:23607  userLock.owner */\n      0x05\n      dup2\n      add\n      sload\n      sub(shl(0xa0, 0x01), 0x01)\n      and\n        /* \"contracts/test/Locker.sol\":23611:23621  msg.sender */\n      caller\n        /* \"contracts/test/Locker.sol\":23593:23621  userLock.owner == msg.sender */\n      eq\n        /* \"contracts/test/Locker.sol\":23572:23621  lockID == _lockID && userLock.owner == msg.sender */\n    tag_196:\n        /* \"contracts/test/Locker.sol\":23551:23660  require(... */\n      tag_197\n      jumpi\n      mload(0x40)\n      shl(0xe5, 0x461bcd)\n      dup2\n      mstore\n      0x04\n      add\n      tag_178\n      swap1\n      tag_199\n      jump\t// in\n    tag_197:\n        /* \"contracts/test/Locker.sol\":23736:23751  block.timestamp */\n      timestamp\n        /* \"contracts/test/Locker.sol\":23714:23722  userLock */\n      dup2\n        /* \"contracts/test/Locker.sol\":23714:23733  userLock.unlockDate */\n      0x03\n      add\n      sload\n        /* \"contracts/test/Locker.sol\":23714:23751  userLock.unlockDate < block.timestamp */\n      lt\n        /* \"contracts/test/Locker.sol\":23706:23763  require(userLock.unlockDate < block.timestamp, \"NOT YET\") */\n      tag_200\n      jumpi\n      mload(0x40)\n      shl(0xe5, 0x461bcd)\n      dup2\n      mstore\n        /* \"#utility.yul\":9012:9014   */\n      0x20\n        /* \"contracts/test/Locker.sol\":23706:23763  require(userLock.unlockDate < block.timestamp, \"NOT YET\") */\n      0x04\n      dup3\n      add\n        /* \"#utility.yul\":8994:9015   */\n      mstore\n        /* \"#utility.yul\":9051:9052   */\n      0x07\n        /* \"#utility.yul\":9031:9049   */\n      0x24\n      dup3\n      add\n        /* \"#utility.yul\":9024:9053   */\n      mstore\n      shl(0xca, 0x1393d508165155)\n        /* \"#utility.yul\":9069:9087   */\n      0x44\n      dup3\n      add\n        /* \"#utility.yul\":9062:9099   */\n      mstore\n        /* \"#utility.yul\":9116:9134   */\n      0x64\n      add\n        /* \"contracts/test/Locker.sol\":23706:23763  require(userLock.unlockDate < block.timestamp, \"NOT YET\") */\n      tag_178\n        /* \"#utility.yul\":8810:9140   */\n      jump\n        /* \"contracts/test/Locker.sol\":23706:23763  require(userLock.unlockDate < block.timestamp, \"NOT YET\") */\n    tag_200:\n        /* \"contracts/test/Locker.sol\":23791:23806  userLock.amount */\n      0x01\n      dup2\n      add\n      sload\n        /* \"contracts/test/Locker.sol\":23791:23819  userLock.amount.sub(_amount) */\n      tag_203\n      swap1\n        /* \"contracts/test/Locker.sol\":23811:23818  _amount */\n      dup5\n        /* \"contracts/test/Locker.sol\":23791:23810  userLock.amount.sub */\n      tag_204\n        /* \"contracts/test/Locker.sol\":23791:23819  userLock.amount.sub(_amount) */\n      jump\t// in\n    tag_203:\n        /* \"contracts/test/Locker.sol\":23773:23788  userLock.amount */\n      0x01\n      dup3\n      add\n        /* \"contracts/test/Locker.sol\":23773:23819  userLock.amount = userLock.amount.sub(_amount) */\n      dup2\n      swap1\n      sstore\n        /* \"contracts/test/Locker.sol\":23883:23884  0 */\n      0x00\n        /* \"contracts/test/Locker.sol\":23864:23884  userLock.amount == 0 */\n      sub\n        /* \"contracts/test/Locker.sol\":23860:24665  if (userLock.amount == 0) {... */\n      tag_205\n      jumpi\n        /* \"contracts/test/Locker.sol\":23936:23946  msg.sender */\n      caller\n        /* \"contracts/test/Locker.sol\":23900:23927  uint256[] storage userLocks */\n      0x00\n        /* \"contracts/test/Locker.sol\":23930:23947  users[msg.sender] */\n      swap1\n      dup2\n      mstore\n        /* \"contracts/test/Locker.sol\":23930:23935  users */\n      0x03\n        /* \"contracts/test/Locker.sol\":23930:23947  users[msg.sender] */\n      0x20\n      swap1\n      dup2\n      mstore\n      0x40\n      dup1\n      dup4\n      keccak256\n      sub(shl(0xa0, 0x01), 0x01)\n        /* \"contracts/test/Locker.sol\":23930:24001  users[msg.sender].locksForToken[... */\n      dup11\n      and\n      dup5\n      mstore\n        /* \"contracts/test/Locker.sol\":23930:23961  users[msg.sender].locksForToken */\n      0x01\n      swap1\n      dup2\n      add\n        /* \"contracts/test/Locker.sol\":23930:24001  users[msg.sender].locksForToken[... */\n      swap1\n      swap3\n      mstore\n      swap1\n      swap2\n      keccak256\n        /* \"contracts/test/Locker.sol\":24045:24061  userLocks.length */\n      dup1\n      sload\n        /* \"contracts/test/Locker.sol\":23930:24001  users[msg.sender].locksForToken[... */\n      swap1\n      swap2\n      dup3\n      swap2\n        /* \"contracts/test/Locker.sol\":24045:24065  userLocks.length - 1 */\n      tag_206\n      swap2\n        /* \"contracts/test/Locker.sol\":23930:23961  users[msg.sender].locksForToken */\n      swap1\n        /* \"contracts/test/Locker.sol\":24045:24065  userLocks.length - 1 */\n      tag_207\n      jump\t// in\n    tag_206:\n        /* \"contracts/test/Locker.sol\":24035:24066  userLocks[userLocks.length - 1] */\n      dup2\n      sload\n      dup2\n      lt\n      tag_209\n      jumpi\n      tag_209\n      tag_171\n      jump\t// in\n    tag_209:\n      swap1\n      0x00\n      mstore\n      keccak256(0x00, 0x20)\n      add\n      sload\n        /* \"contracts/test/Locker.sol\":24015:24024  userLocks */\n      dup2\n        /* \"contracts/test/Locker.sol\":24025:24031  _index */\n      dup8\n        /* \"contracts/test/Locker.sol\":24015:24032  userLocks[_index] */\n      dup2\n      sload\n      dup2\n      lt\n      tag_212\n      jumpi\n      tag_212\n      tag_171\n      jump\t// in\n    tag_212:\n      swap1\n      0x00\n      mstore\n      keccak256(0x00, 0x20)\n      add\n        /* \"contracts/test/Locker.sol\":24015:24066  userLocks[_index] = userLocks[userLocks.length - 1] */\n      dup2\n      swap1\n      sstore\n      pop\n        /* \"contracts/test/Locker.sol\":24080:24089  userLocks */\n      dup1\n        /* \"contracts/test/Locker.sol\":24080:24095  userLocks.pop() */\n      dup1\n      sload\n      dup1\n      tag_215\n      jumpi\n      tag_215\n      tag_216\n      jump\t// in\n    tag_215:\n      0x01\n      swap1\n      sub\n      dup2\n      dup2\n      swap1\n      0x00\n      mstore\n      keccak256(0x00, 0x20)\n      add\n      0x00\n      swap1\n      sstore\n      swap1\n      sstore\n        /* \"contracts/test/Locker.sol\":24113:24122  userLocks */\n      dup1\n        /* \"contracts/test/Locker.sol\":24113:24129  userLocks.length */\n      dup1\n      sload\n      swap1\n      pop\n        /* \"contracts/test/Locker.sol\":24133:24134  0 */\n      0x00\n        /* \"contracts/test/Locker.sol\":24113:24134  userLocks.length == 0 */\n      sub\n        /* \"contracts/test/Locker.sol\":24109:24198  if (userLocks.length == 0) {... */\n      tag_218\n      jumpi\n      sub(shl(0xa0, 0x01), 0x01)\n        /* \"contracts/test/Locker.sol\":24154:24176  user_removed[_lpToken] */\n      dup8\n      and\n      0x00\n      swap1\n      dup2\n      mstore\n        /* \"contracts/test/Locker.sol\":24154:24166  user_removed */\n      0x0c\n        /* \"contracts/test/Locker.sol\":24154:24176  user_removed[_lpToken] */\n      0x20\n      mstore\n      0x40\n      swap1\n      keccak256\n        /* \"contracts/test/Locker.sol\":24154:24183  user_removed[_lpToken] = true */\n      dup1\n      sload\n      not(0xff)\n      and\n        /* \"contracts/test/Locker.sol\":24179:24183  true */\n      0x01\n        /* \"contracts/test/Locker.sol\":24154:24183  user_removed[_lpToken] = true */\n      or\n      swap1\n      sstore\n        /* \"contracts/test/Locker.sol\":24109:24198  if (userLocks.length == 0) {... */\n    tag_218:\n        /* \"contracts/test/Locker.sol\":23886:24208  {... */\n      pop\n        /* \"contracts/test/Locker.sol\":23860:24665  if (userLock.amount == 0) {... */\n      jump(tag_225)\n    tag_205:\n        /* \"contracts/test/Locker.sol\":24244:24254  msg.sender */\n      caller\n        /* \"contracts/test/Locker.sol\":24231:24255  feeBlocklist[msg.sender] */\n      0x00\n      swap1\n      dup2\n      mstore\n        /* \"contracts/test/Locker.sol\":24231:24243  feeBlocklist */\n      0x0b\n        /* \"contracts/test/Locker.sol\":24231:24255  feeBlocklist[msg.sender] */\n      0x20\n      mstore\n      0x40\n      swap1\n      keccak256\n      sload\n      0xff\n      and\n        /* \"contracts/test/Locker.sol\":24231:24263  feeBlocklist[msg.sender] == true */\n      iszero\n      iszero\n        /* \"contracts/test/Locker.sol\":24231:24255  feeBlocklist[msg.sender] */\n      0x01\n        /* \"contracts/test/Locker.sol\":24231:24263  feeBlocklist[msg.sender] == true */\n      sub\n        /* \"contracts/test/Locker.sol\":24228:24655  if(feeBlocklist[msg.sender] == true){... */\n      tag_220\n      jumpi\n        /* \"contracts/test/Locker.sol\":24369:24372  ops */\n      sload(0x0d)\n        /* \"contracts/test/Locker.sol\":24282:24419  TransferHelper.safeApprove(... */\n      tag_221\n      swap1\n        /* \"contracts/test/Locker.sol\":24338:24346  _lpToken */\n      dup8\n      swap1\n      sub(shl(0xa0, 0x01), 0x01)\n        /* \"contracts/test/Locker.sol\":24369:24372  ops */\n      and\n        /* \"contracts/test/Locker.sol\":24394:24401  _amount */\n      dup6\n        /* \"contracts/test/Locker.sol\":24282:24308  TransferHelper.safeApprove */\n      tag_222\n        /* \"contracts/test/Locker.sol\":24282:24419  TransferHelper.safeApprove(... */\n      jump\t// in\n    tag_221:\n        /* \"contracts/test/Locker.sol\":24475:24478  ops */\n      sload(0x0d)\n        /* \"contracts/test/Locker.sol\":24437:24488  TransferHelper.safeTransfer(_lpToken, ops, _amount) */\n      tag_223\n      swap1\n        /* \"contracts/test/Locker.sol\":24465:24473  _lpToken */\n      dup8\n      swap1\n      sub(shl(0xa0, 0x01), 0x01)\n        /* \"contracts/test/Locker.sol\":24475:24478  ops */\n      and\n        /* \"contracts/test/Locker.sol\":24480:24487  _amount */\n      dup6\n        /* \"contracts/test/Locker.sol\":24437:24464  TransferHelper.safeTransfer */\n      tag_224\n        /* \"contracts/test/Locker.sol\":24437:24488  TransferHelper.safeTransfer(_lpToken, ops, _amount) */\n      jump\t// in\n    tag_223:\n        /* \"contracts/test/Locker.sol\":24228:24655  if(feeBlocklist[msg.sender] == true){... */\n      jump(tag_225)\n    tag_220:\n        /* \"contracts/test/Locker.sol\":24530:24588  TransferHelper.safeTransfer(_lpToken, msg.sender, _amount) */\n      tag_226\n        /* \"contracts/test/Locker.sol\":24558:24566  _lpToken */\n      dup7\n        /* \"contracts/test/Locker.sol\":24568:24578  msg.sender */\n      caller\n        /* \"contracts/test/Locker.sol\":24580:24587  _amount */\n      dup6\n        /* \"contracts/test/Locker.sol\":24530:24557  TransferHelper.safeTransfer */\n      tag_224\n        /* \"contracts/test/Locker.sol\":24530:24588  TransferHelper.safeTransfer(_lpToken, msg.sender, _amount) */\n      jump\t// in\n    tag_226:\n        /* \"contracts/test/Locker.sol\":24611:24640  onWithdraw(_lpToken, _amount) */\n      0xccad973dcd043c7d680389db4378bd6b9775db7124092e9e0422c9e46d7985dc\n        /* \"contracts/test/Locker.sol\":24622:24630  _lpToken */\n      dup7\n        /* \"contracts/test/Locker.sol\":24632:24639  _amount */\n      dup5\n        /* \"contracts/test/Locker.sol\":24611:24640  onWithdraw(_lpToken, _amount) */\n      mload(0x40)\n      tag_227\n      swap3\n      swap2\n      swap1\n      tag_228\n      jump\t// in\n    tag_227:\n      mload(0x40)\n      dup1\n      swap2\n      sub\n      swap1\n      log1\n        /* \"contracts/test/Locker.sol\":24228:24655  if(feeBlocklist[msg.sender] == true){... */\n    tag_225:\n      pop\n      pop\n        /* \"contracts/test/Locker.sol\":6256:6257  1 */\n      0x01\n        /* \"contracts/test/Locker.sol\":7181:7203  _status = _NOT_ENTERED */\n      dup1\n      sstore\n      pop\n      pop\n      pop\n      pop\n        /* \"contracts/test/Locker.sol\":23196:24671  function withdraw(... */\n      jump\t// out\n        /* \"contracts/test/Locker.sol\":26225:27550  function splitLock(... */\n    tag_65:\n        /* \"contracts/test/Locker.sol\":6299:6300  2 */\n      0x02\n        /* \"contracts/test/Locker.sol\":6878:6885  _status */\n      sload(0x01)\n        /* \"contracts/test/Locker.sol\":6878:6897  _status != _ENTERED */\n      sub\n        /* \"contracts/test/Locker.sol\":6870:6933  require(_status != _ENTERED, \"ReentrancyGuard: reentrant call\") */\n      tag_230\n      jumpi\n      mload(0x40)\n      shl(0xe5, 0x461bcd)\n      dup2\n      mstore\n      0x04\n      add\n      tag_178\n      swap1\n      tag_185\n      jump\t// in\n    tag_230:\n        /* \"contracts/test/Locker.sol\":6299:6300  2 */\n      0x02\n        /* \"contracts/test/Locker.sol\":7008:7015  _status */\n      0x01\n        /* \"contracts/test/Locker.sol\":7008:7026  _status = _ENTERED */\n      sstore\n        /* \"contracts/test/Locker.sol\":26411:26421  msg.sender */\n      caller\n        /* \"contracts/test/Locker.sol\":26398:26422  feeBlocklist[msg.sender] */\n      0x00\n      swap1\n      dup2\n      mstore\n        /* \"contracts/test/Locker.sol\":26398:26410  feeBlocklist */\n      0x0b\n        /* \"contracts/test/Locker.sol\":26398:26422  feeBlocklist[msg.sender] */\n      0x20\n      mstore\n      0x40\n      swap1\n      keccak256\n      sload\n      0xff\n      and\n        /* \"contracts/test/Locker.sol\":26398:26431  feeBlocklist[msg.sender] == false */\n      iszero\n        /* \"contracts/test/Locker.sol\":26390:26432  require(feeBlocklist[msg.sender] == false) */\n      tag_233\n      jumpi\n      0x00\n      dup1\n      revert\n    tag_233:\n        /* \"contracts/test/Locker.sol\":26460:26461  0 */\n      0x00\n        /* \"contracts/test/Locker.sol\":26450:26457  _amount */\n      dup2\n        /* \"contracts/test/Locker.sol\":26450:26461  _amount > 0 */\n      gt\n        /* \"contracts/test/Locker.sol\":26442:26477  require(_amount > 0, \"ZERO AMOUNT\") */\n      tag_234\n      jumpi\n      mload(0x40)\n      shl(0xe5, 0x461bcd)\n      dup2\n      mstore\n      0x04\n      add\n      tag_178\n      swap1\n      tag_236\n      jump\t// in\n    tag_234:\n        /* \"contracts/test/Locker.sol\":26510:26520  msg.sender */\n      caller\n        /* \"contracts/test/Locker.sol\":26487:26501  uint256 lockID */\n      0x00\n        /* \"contracts/test/Locker.sol\":26504:26521  users[msg.sender] */\n      swap1\n      dup2\n      mstore\n        /* \"contracts/test/Locker.sol\":26504:26509  users */\n      0x03\n        /* \"contracts/test/Locker.sol\":26504:26521  users[msg.sender] */\n      0x20\n      swap1\n      dup2\n      mstore\n      0x40\n      dup1\n      dup4\n      keccak256\n      sub(shl(0xa0, 0x01), 0x01)\n        /* \"contracts/test/Locker.sol\":26504:26545  users[msg.sender].locksForToken[_lpToken] */\n      dup9\n      and\n      dup5\n      mstore\n        /* \"contracts/test/Locker.sol\":26504:26535  users[msg.sender].locksForToken */\n      0x01\n      add\n        /* \"contracts/test/Locker.sol\":26504:26545  users[msg.sender].locksForToken[_lpToken] */\n      swap1\n      swap2\n      mstore\n      dup2\n      keccak256\n        /* \"contracts/test/Locker.sol\":26504:26553  users[msg.sender].locksForToken[_lpToken][_index] */\n      dup1\n      sload\n        /* \"contracts/test/Locker.sol\":26546:26552  _index */\n      dup6\n      swap1\n        /* \"contracts/test/Locker.sol\":26504:26553  users[msg.sender].locksForToken[_lpToken][_index] */\n      dup2\n      lt\n      tag_238\n      jumpi\n      tag_238\n      tag_171\n      jump\t// in\n    tag_238:\n      swap1\n      0x00\n      mstore\n      keccak256(0x00, 0x20)\n      add\n      sload\n        /* \"contracts/test/Locker.sol\":26487:26553  uint256 lockID = users[msg.sender].locksForToken[_lpToken][_index] */\n      swap1\n      pop\n        /* \"contracts/test/Locker.sol\":26563:26589  TokenLock storage userLock */\n      0x00\n        /* \"contracts/test/Locker.sol\":26592:26602  tokenLocks */\n      0x04\n        /* \"contracts/test/Locker.sol\":26592:26612  tokenLocks[_lpToken] */\n      0x00\n        /* \"contracts/test/Locker.sol\":26603:26611  _lpToken */\n      dup8\n      sub(shl(0xa0, 0x01), 0x01)\n        /* \"contracts/test/Locker.sol\":26592:26612  tokenLocks[_lpToken] */\n      and\n      sub(shl(0xa0, 0x01), 0x01)\n      and\n      dup2\n      mstore\n      0x20\n      add\n      swap1\n      dup2\n      mstore\n      0x20\n      add\n      0x00\n      keccak256\n        /* \"contracts/test/Locker.sol\":26613:26619  lockID */\n      dup3\n        /* \"contracts/test/Locker.sol\":26592:26620  tokenLocks[_lpToken][lockID] */\n      dup2\n      sload\n      dup2\n      lt\n      tag_241\n      jumpi\n      tag_241\n      tag_171\n      jump\t// in\n    tag_241:\n      swap1\n      0x00\n      mstore\n      keccak256(0x00, 0x20)\n      swap1\n      0x06\n      mul\n      add\n        /* \"contracts/test/Locker.sol\":26563:26620  TokenLock storage userLock = tokenLocks[_lpToken][lockID] */\n      swap1\n      pop\n        /* \"contracts/test/Locker.sol\":26661:26668  _lockID */\n      dup4\n        /* \"contracts/test/Locker.sol\":26651:26657  lockID */\n      dup3\n        /* \"contracts/test/Locker.sol\":26651:26668  lockID == _lockID */\n      eq\n        /* \"contracts/test/Locker.sol\":26651:26700  lockID == _lockID && userLock.owner == msg.sender */\n      dup1\n      iszero\n      tag_243\n      jumpi\n      pop\n        /* \"contracts/test/Locker.sol\":26672:26686  userLock.owner */\n      0x05\n      dup2\n      add\n      sload\n      sub(shl(0xa0, 0x01), 0x01)\n      and\n        /* \"contracts/test/Locker.sol\":26690:26700  msg.sender */\n      caller\n        /* \"contracts/test/Locker.sol\":26672:26700  userLock.owner == msg.sender */\n      eq\n        /* \"contracts/test/Locker.sol\":26651:26700  lockID == _lockID && userLock.owner == msg.sender */\n    tag_243:\n        /* \"contracts/test/Locker.sol\":26630:26739  require(... */\n      tag_244\n      jumpi\n      mload(0x40)\n      shl(0xe5, 0x461bcd)\n      dup2\n      mstore\n      0x04\n      add\n      tag_178\n      swap1\n      tag_199\n      jump\t// in\n    tag_244:\n        /* \"contracts/test/Locker.sol\":26807:26812  gFees */\n      0x05\n        /* \"contracts/test/Locker.sol\":26807:26819  gFees.ethFee */\n      sload\n        /* \"contracts/test/Locker.sol\":26794:26803  msg.value */\n      callvalue\n        /* \"contracts/test/Locker.sol\":26794:26819  msg.value == gFees.ethFee */\n      eq\n        /* \"contracts/test/Locker.sol\":26786:26835  require(msg.value == gFees.ethFee, \"FEE NOT MET\") */\n      tag_246\n      jumpi\n      mload(0x40)\n      shl(0xe5, 0x461bcd)\n      dup2\n      mstore\n      0x04\n      add\n      tag_178\n      swap1\n      tag_248\n      jump\t// in\n    tag_246:\n        /* \"contracts/test/Locker.sol\":26845:26848  ops */\n      sload(0x0d)\n        /* \"contracts/test/Locker.sol\":26858:26863  gFees */\n      0x05\n        /* \"contracts/test/Locker.sol\":26858:26870  gFees.ethFee */\n      sload\n        /* \"contracts/test/Locker.sol\":26845:26871  ops.transfer(gFees.ethFee) */\n      mload(0x40)\n      sub(shl(0xa0, 0x01), 0x01)\n        /* \"contracts/test/Locker.sol\":26845:26848  ops */\n      swap1\n      swap3\n      and\n      swap2\n        /* \"contracts/test/Locker.sol\":26845:26871  ops.transfer(gFees.ethFee) */\n      dup2\n      iszero\n      0x08fc\n      mul\n      swap2\n        /* \"contracts/test/Locker.sol\":26858:26870  gFees.ethFee */\n      swap1\n        /* \"contracts/test/Locker.sol\":26845:26848  ops */\n      0x00\n        /* \"contracts/test/Locker.sol\":26845:26871  ops.transfer(gFees.ethFee) */\n      dup2\n        /* \"contracts/test/Locker.sol\":26845:26848  ops */\n      dup2\n        /* \"contracts/test/Locker.sol\":26845:26871  ops.transfer(gFees.ethFee) */\n      dup2\n        /* \"contracts/test/Locker.sol\":26858:26870  gFees.ethFee */\n      dup6\n        /* \"contracts/test/Locker.sol\":26845:26848  ops */\n      dup9\n        /* \"contracts/test/Locker.sol\":26845:26871  ops.transfer(gFees.ethFee) */\n      dup9\n      call\n      swap4\n      pop\n      pop\n      pop\n      pop\n      iszero\n      dup1\n      iszero\n      tag_250\n      jumpi\n      returndatasize\n      0x00\n      dup1\n      returndatacopy\n      revert(0x00, returndatasize)\n    tag_250:\n      pop\n        /* \"contracts/test/Locker.sol\":26900:26915  userLock.amount */\n      0x01\n      dup2\n      add\n      sload\n        /* \"contracts/test/Locker.sol\":26900:26928  userLock.amount.sub(_amount) */\n      tag_251\n      swap1\n        /* \"contracts/test/Locker.sol\":26920:26927  _amount */\n      dup5\n        /* \"contracts/test/Locker.sol\":26900:26919  userLock.amount.sub */\n      tag_204\n        /* \"contracts/test/Locker.sol\":26900:26928  userLock.amount.sub(_amount) */\n      jump\t// in\n    tag_251:\n        /* \"contracts/test/Locker.sol\":26882:26897  userLock.amount */\n      0x01\n      dup3\n      add\n        /* \"contracts/test/Locker.sol\":26882:26928  userLock.amount = userLock.amount.sub(_amount) */\n      sstore\n        /* \"contracts/test/Locker.sol\":26939:26966  TokenLock memory token_lock */\n      tag_252\n      tag_253\n      jump\t// in\n    tag_252:\n        /* \"contracts/test/Locker.sol\":26998:27015  userLock.lockDate */\n      dup2\n      sload\n        /* \"contracts/test/Locker.sol\":26976:27015  token_lock.lockDate = userLock.lockDate */\n      dup2\n      mstore\n        /* \"contracts/test/Locker.sol\":27025:27042  token_lock.amount */\n      0x20\n      dup1\n      dup3\n      add\n        /* \"contracts/test/Locker.sol\":27025:27052  token_lock.amount = _amount */\n      dup6\n      dup2\n      mstore\n        /* \"contracts/test/Locker.sol\":27062:27086  token_lock.initialAmount */\n      0x40\n      dup1\n      dup5\n      add\n        /* \"contracts/test/Locker.sol\":27062:27096  token_lock.initialAmount = _amount */\n      swap7\n      dup8\n      mstore\n        /* \"contracts/test/Locker.sol\":27130:27149  userLock.unlockDate */\n      0x03\n      swap5\n      dup6\n      add\n      sload\n        /* \"contracts/test/Locker.sol\":27106:27127  token_lock.unlockDate */\n      0x60\n      dup6\n      add\n        /* \"contracts/test/Locker.sol\":27106:27149  token_lock.unlockDate = userLock.unlockDate */\n      swap1\n      dup2\n      mstore\n      sub(shl(0xa0, 0x01), 0x01)\n        /* \"contracts/test/Locker.sol\":27179:27199  tokenLocks[_lpToken] */\n      swap11\n      dup12\n      and\n      0x00\n      dup2\n      dup2\n      mstore\n        /* \"contracts/test/Locker.sol\":27179:27189  tokenLocks */\n      0x04\n        /* \"contracts/test/Locker.sol\":27179:27199  tokenLocks[_lpToken] */\n      dup1\n      dup8\n      mstore\n      dup5\n      dup3\n      keccak256\n        /* \"contracts/test/Locker.sol\":27179:27206  tokenLocks[_lpToken].length */\n      dup1\n      sload\n        /* \"contracts/test/Locker.sol\":27159:27176  token_lock.lockID */\n      0x80\n      dup11\n      add\n        /* \"contracts/test/Locker.sol\":27159:27206  token_lock.lockID = tokenLocks[_lpToken].length */\n      dup2\n      dup2\n      mstore\n        /* \"contracts/test/Locker.sol\":27235:27245  msg.sender */\n      caller\n        /* \"contracts/test/Locker.sol\":27216:27232  token_lock.owner */\n      0xa0\n      dup13\n      add\n        /* \"contracts/test/Locker.sol\":27216:27245  token_lock.owner = msg.sender */\n      dup2\n      dup2\n      mstore\n        /* \"contracts/test/Locker.sol\":27301:27321  tokenLocks[_lpToken] */\n      dup6\n      dup13\n      mstore\n        /* \"contracts/test/Locker.sol\":27301:27338  tokenLocks[_lpToken].push(token_lock) */\n      0x01\n      dup1\n      dup6\n      add\n      dup7\n      sstore\n      swap5\n      dup8\n      mstore\n      dup12\n      dup8\n      keccak256\n      swap13\n      mload\n      0x06\n      swap1\n      swap5\n      mul\n      swap1\n      swap13\n      add\n      swap3\n      dup4\n      sstore\n      swap9\n      mload\n      dup3\n      dup5\n      add\n      sstore\n      swap13\n      mload\n      0x02\n      dup3\n      add\n      sstore\n      swap5\n      mload\n      dup6\n      dup12\n      add\n      sstore\n      dup12\n      mload\n      swap2\n      dup6\n      add\n      swap2\n      swap1\n      swap2\n      sstore\n      swap7\n      mload\n      0x05\n      swap1\n      swap4\n      add\n      dup1\n      sload\n      not(sub(shl(0xa0, 0x01), 0x01))\n      and\n      swap4\n      swap1\n      swap14\n      and\n      swap3\n      swap1\n      swap3\n      or\n      swap1\n      swap12\n      sstore\n        /* \"contracts/test/Locker.sol\":27413:27430  users[msg.sender] */\n      swap2\n      dup3\n      mstore\n      swap4\n      dup3\n      mstore\n      dup4\n      dup2\n      keccak256\n        /* \"contracts/test/Locker.sol\":27471:27499  user.locksForToken[_lpToken] */\n      swap9\n      dup2\n      mstore\n        /* \"contracts/test/Locker.sol\":27471:27489  user.locksForToken */\n      swap8\n      dup3\n      add\n        /* \"contracts/test/Locker.sol\":27471:27499  user.locksForToken[_lpToken] */\n      dup2\n      mstore\n      swap2\n      dup8\n      keccak256\n        /* \"contracts/test/Locker.sol\":27525:27542  token_lock.lockID */\n      swap4\n      mload\n        /* \"contracts/test/Locker.sol\":27509:27543  user_locks.push(token_lock.lockID) */\n      dup5\n      sload\n      dup1\n      dup4\n      add\n      dup7\n      sstore\n      swap5\n      dup9\n      mstore\n      swap2\n      swap1\n      swap7\n      keccak256\n      swap1\n      swap3\n      add\n      swap2\n      swap1\n      swap2\n      sstore\n      pop\n      pop\n      pop\n        /* \"contracts/test/Locker.sol\":7181:7203  _status = _NOT_ENTERED */\n      dup1\n      sstore\n        /* \"contracts/test/Locker.sol\":26225:27550  function splitLock(... */\n      jump\t// out\n        /* \"contracts/test/Locker.sol\":15216:15306  function setOps(address payable _opsaddr) public onlyOwner {... */\n    tag_74:\n        /* \"contracts/test/Locker.sol\":2371:2377  _owner */\n      and(sub(shl(0xa0, 0x01), 0x01), sload(0x00))\n        /* \"contracts/test/Locker.sol\":909:919  msg.sender */\n      caller\n        /* \"contracts/test/Locker.sol\":2371:2393  _owner == _msgSender() */\n      eq\n        /* \"contracts/test/Locker.sol\":2363:2430  require(_owner == _msgSender(), \"Ownable: caller is not the owner\") */\n      tag_259\n      jumpi\n      mload(0x40)\n      shl(0xe5, 0x461bcd)\n      dup2\n      mstore\n      0x04\n      add\n      tag_178\n      swap1\n      tag_179\n      jump\t// in\n    tag_259:\n        /* \"contracts/test/Locker.sol\":15285:15288  ops */\n      0x0d\n        /* \"contracts/test/Locker.sol\":15285:15299  ops = _opsaddr */\n      dup1\n      sload\n      not(sub(shl(0xa0, 0x01), 0x01))\n      and\n      sub(shl(0xa0, 0x01), 0x01)\n      swap3\n      swap1\n      swap3\n      and\n      swap2\n      swap1\n      swap2\n      or\n      swap1\n      sstore\n        /* \"contracts/test/Locker.sol\":15216:15306  function setOps(address payable _opsaddr) public onlyOwner {... */\n      jump\t// out\n        /* \"contracts/test/Locker.sol\":21720:22960  function relock(... */\n    tag_78:\n        /* \"contracts/test/Locker.sol\":6299:6300  2 */\n      0x02\n        /* \"contracts/test/Locker.sol\":6878:6885  _status */\n      sload(0x01)\n        /* \"contracts/test/Locker.sol\":6878:6897  _status != _ENTERED */\n      sub\n        /* \"contracts/test/Locker.sol\":6870:6933  require(_status != _ENTERED, \"ReentrancyGuard: reentrant call\") */\n      tag_263\n      jumpi\n      mload(0x40)\n      shl(0xe5, 0x461bcd)\n      dup2\n      mstore\n      0x04\n      add\n      tag_178\n      swap1\n      tag_185\n      jump\t// in\n    tag_263:\n        /* \"contracts/test/Locker.sol\":6299:6300  2 */\n      0x02\n        /* \"contracts/test/Locker.sol\":7008:7015  _status */\n      0x01\n        /* \"contracts/test/Locker.sol\":7008:7026  _status = _ENTERED */\n      sstore\n        /* \"contracts/test/Locker.sol\":21910:21921  10000000000 */\n      0x02540be400\n        /* \"contracts/test/Locker.sol\":21895:21921  _unlock_date < 10000000000 */\n      dup2\n      lt\n        /* \"contracts/test/Locker.sol\":21887:21943  require(_unlock_date < 10000000000, \"TIMESTAMP INVALID\") */\n      tag_266\n      jumpi\n      mload(0x40)\n      shl(0xe5, 0x461bcd)\n      dup2\n      mstore\n      0x04\n      add\n      tag_178\n      swap1\n      tag_268\n      jump\t// in\n    tag_266:\n        /* \"contracts/test/Locker.sol\":22034:22044  msg.sender */\n      caller\n        /* \"contracts/test/Locker.sol\":22011:22025  uint256 lockID */\n      0x00\n        /* \"contracts/test/Locker.sol\":22028:22045  users[msg.sender] */\n      swap1\n      dup2\n      mstore\n        /* \"contracts/test/Locker.sol\":22028:22033  users */\n      0x03\n        /* \"contracts/test/Locker.sol\":22028:22045  users[msg.sender] */\n      0x20\n      swap1\n      dup2\n      mstore\n      0x40\n      dup1\n      dup4\n      keccak256\n      sub(shl(0xa0, 0x01), 0x01)\n        /* \"contracts/test/Locker.sol\":22028:22069  users[msg.sender].locksForToken[_lpToken] */\n      dup9\n      and\n      dup5\n      mstore\n        /* \"contracts/test/Locker.sol\":22028:22059  users[msg.sender].locksForToken */\n      0x01\n      add\n        /* \"contracts/test/Locker.sol\":22028:22069  users[msg.sender].locksForToken[_lpToken] */\n      swap1\n      swap2\n      mstore\n      dup2\n      keccak256\n        /* \"contracts/test/Locker.sol\":22028:22077  users[msg.sender].locksForToken[_lpToken][_index] */\n      dup1\n      sload\n        /* \"contracts/test/Locker.sol\":22070:22076  _index */\n      dup6\n      swap1\n        /* \"contracts/test/Locker.sol\":22028:22077  users[msg.sender].locksForToken[_lpToken][_index] */\n      dup2\n      lt\n      tag_270\n      jumpi\n      tag_270\n      tag_171\n      jump\t// in\n    tag_270:\n      swap1\n      0x00\n      mstore\n      keccak256(0x00, 0x20)\n      add\n      sload\n        /* \"contracts/test/Locker.sol\":22011:22077  uint256 lockID = users[msg.sender].locksForToken[_lpToken][_index] */\n      swap1\n      pop\n        /* \"contracts/test/Locker.sol\":22087:22113  TokenLock storage userLock */\n      0x00\n        /* \"contracts/test/Locker.sol\":22116:22126  tokenLocks */\n      0x04\n        /* \"contracts/test/Locker.sol\":22116:22136  tokenLocks[_lpToken] */\n      0x00\n        /* \"contracts/test/Locker.sol\":22127:22135  _lpToken */\n      dup8\n      sub(shl(0xa0, 0x01), 0x01)\n        /* \"contracts/test/Locker.sol\":22116:22136  tokenLocks[_lpToken] */\n      and\n      sub(shl(0xa0, 0x01), 0x01)\n      and\n      dup2\n      mstore\n      0x20\n      add\n      swap1\n      dup2\n      mstore\n      0x20\n      add\n      0x00\n      keccak256\n        /* \"contracts/test/Locker.sol\":22137:22143  lockID */\n      dup3\n        /* \"contracts/test/Locker.sol\":22116:22144  tokenLocks[_lpToken][lockID] */\n      dup2\n      sload\n      dup2\n      lt\n      tag_273\n      jumpi\n      tag_273\n      tag_171\n      jump\t// in\n    tag_273:\n      swap1\n      0x00\n      mstore\n      keccak256(0x00, 0x20)\n      swap1\n      0x06\n      mul\n      add\n        /* \"contracts/test/Locker.sol\":22087:22144  TokenLock storage userLock = tokenLocks[_lpToken][lockID] */\n      swap1\n      pop\n        /* \"contracts/test/Locker.sol\":22185:22192  _lockID */\n      dup4\n        /* \"contracts/test/Locker.sol\":22175:22181  lockID */\n      dup3\n        /* \"contracts/test/Locker.sol\":22175:22192  lockID == _lockID */\n      eq\n        /* \"contracts/test/Locker.sol\":22175:22224  lockID == _lockID && userLock.owner == msg.sender */\n      dup1\n      iszero\n      tag_275\n      jumpi\n      pop\n        /* \"contracts/test/Locker.sol\":22196:22210  userLock.owner */\n      0x05\n      dup2\n      add\n      sload\n      sub(shl(0xa0, 0x01), 0x01)\n      and\n        /* \"contracts/test/Locker.sol\":22214:22224  msg.sender */\n      caller\n        /* \"contracts/test/Locker.sol\":22196:22224  userLock.owner == msg.sender */\n      eq\n        /* \"contracts/test/Locker.sol\":22175:22224  lockID == _lockID && userLock.owner == msg.sender */\n    tag_275:\n        /* \"contracts/test/Locker.sol\":22154:22263  require(... */\n      tag_276\n      jumpi\n      mload(0x40)\n      shl(0xe5, 0x461bcd)\n      dup2\n      mstore\n      0x04\n      add\n      tag_178\n      swap1\n      tag_199\n      jump\t// in\n    tag_276:\n        /* \"contracts/test/Locker.sol\":22339:22351  _unlock_date */\n      dup3\n        /* \"contracts/test/Locker.sol\":22317:22325  userLock */\n      dup2\n        /* \"contracts/test/Locker.sol\":22317:22336  userLock.unlockDate */\n      0x03\n      add\n      sload\n        /* \"contracts/test/Locker.sol\":22317:22351  userLock.unlockDate < _unlock_date */\n      lt\n        /* \"contracts/test/Locker.sol\":22309:22369  require(userLock.unlockDate < _unlock_date, \"UNLOCK BEFORE\") */\n      tag_278\n      jumpi\n      mload(0x40)\n      shl(0xe5, 0x461bcd)\n      dup2\n      mstore\n        /* \"#utility.yul\":11054:11056   */\n      0x20\n        /* \"contracts/test/Locker.sol\":22309:22369  require(userLock.unlockDate < _unlock_date, \"UNLOCK BEFORE\") */\n      0x04\n      dup3\n      add\n        /* \"#utility.yul\":11036:11057   */\n      mstore\n        /* \"#utility.yul\":11093:11095   */\n      0x0d\n        /* \"#utility.yul\":11073:11091   */\n      0x24\n      dup3\n      add\n        /* \"#utility.yul\":11066:11096   */\n      mstore\n      shl(0x98, 0x554e4c4f434b204245464f5245)\n        /* \"#utility.yul\":11112:11130   */\n      0x44\n      dup3\n      add\n        /* \"#utility.yul\":11105:11148   */\n      mstore\n        /* \"#utility.yul\":11165:11183   */\n      0x64\n      add\n        /* \"contracts/test/Locker.sol\":22309:22369  require(userLock.unlockDate < _unlock_date, \"UNLOCK BEFORE\") */\n      tag_178\n        /* \"#utility.yul\":10852:11189   */\n      jump\n        /* \"contracts/test/Locker.sol\":22309:22369  require(userLock.unlockDate < _unlock_date, \"UNLOCK BEFORE\") */\n    tag_278:\n        /* \"contracts/test/Locker.sol\":22422:22440  gFees.liquidityFee */\n      sload(0x09)\n        /* \"contracts/test/Locker.sol\":22466:22476  msg.sender */\n      caller\n        /* \"contracts/test/Locker.sol\":22379:22399  uint256 liquidityFee */\n      0x00\n        /* \"contracts/test/Locker.sol\":22453:22477  feeBlocklist[msg.sender] */\n      swap1\n      dup2\n      mstore\n        /* \"contracts/test/Locker.sol\":22453:22465  feeBlocklist */\n      0x0b\n        /* \"contracts/test/Locker.sol\":22453:22477  feeBlocklist[msg.sender] */\n      0x20\n      mstore\n      0x40\n      dup2\n      keccak256\n      sload\n        /* \"contracts/test/Locker.sol\":22379:22399  uint256 liquidityFee */\n      swap1\n      swap2\n        /* \"contracts/test/Locker.sol\":22422:22440  gFees.liquidityFee */\n      swap1\n        /* \"contracts/test/Locker.sol\":22453:22477  feeBlocklist[msg.sender] */\n      0xff\n      and\n        /* \"contracts/test/Locker.sol\":22453:22485  feeBlocklist[msg.sender] == true */\n      iszero\n      iszero\n        /* \"contracts/test/Locker.sol\":22453:22477  feeBlocklist[msg.sender] */\n      0x01\n        /* \"contracts/test/Locker.sol\":22453:22485  feeBlocklist[msg.sender] == true */\n      sub\n        /* \"contracts/test/Locker.sol\":22450:22695  if(feeBlocklist[msg.sender] == true){... */\n      tag_281\n      jumpi\n        /* \"contracts/test/Locker.sol\":22515:22530  userLock.amount */\n      0x01\n      dup4\n      add\n      sload\n      swap2\n      pop\n        /* \"contracts/test/Locker.sol\":22559:22602  uint(block.timestamp) + uint(10 * 365 days) */\n      tag_282\n        /* \"contracts/test/Locker.sol\":22588:22601  10 * 365 days */\n      0x12cc0300\n        /* \"contracts/test/Locker.sol\":22564:22579  block.timestamp */\n      timestamp\n        /* \"contracts/test/Locker.sol\":22559:22602  uint(block.timestamp) + uint(10 * 365 days) */\n      tag_283\n      jump\t// in\n    tag_282:\n        /* \"contracts/test/Locker.sol\":22544:22602  _unlock_date = uint(block.timestamp) + uint(10 * 365 days) */\n      swap5\n      pop\n        /* \"contracts/test/Locker.sol\":22450:22695  if(feeBlocklist[msg.sender] == true){... */\n      jump(tag_284)\n    tag_281:\n        /* \"contracts/test/Locker.sol\":22648:22684  userLock.amount.mul(glFee).div(1000) */\n      tag_285\n        /* \"contracts/test/Locker.sol\":22679:22683  1000 */\n      0x03e8\n        /* \"contracts/test/Locker.sol\":22648:22674  userLock.amount.mul(glFee) */\n      tag_286\n        /* \"contracts/test/Locker.sol\":22668:22673  glFee */\n      dup4\n        /* \"contracts/test/Locker.sol\":22648:22656  userLock */\n      dup7\n        /* \"contracts/test/Locker.sol\":22648:22663  userLock.amount */\n      0x01\n      add\n      sload\n        /* \"contracts/test/Locker.sol\":22648:22667  userLock.amount.mul */\n      tag_287\n      swap1\n        /* \"contracts/test/Locker.sol\":22648:22674  userLock.amount.mul(glFee) */\n      swap2\n      swap1\n      0xffffffff\n      and\n      jump\t// in\n    tag_286:\n        /* \"contracts/test/Locker.sol\":22648:22678  userLock.amount.mul(glFee).div */\n      swap1\n      tag_288\n        /* \"contracts/test/Locker.sol\":22648:22684  userLock.amount.mul(glFee).div(1000) */\n      jump\t// in\n    tag_285:\n        /* \"contracts/test/Locker.sol\":22633:22684  liquidityFee = userLock.amount.mul(glFee).div(1000) */\n      swap2\n      pop\n        /* \"contracts/test/Locker.sol\":22450:22695  if(feeBlocklist[msg.sender] == true){... */\n    tag_284:\n        /* \"contracts/test/Locker.sol\":22727:22742  userLock.amount */\n      0x01\n      dup4\n      add\n      sload\n        /* \"contracts/test/Locker.sol\":22704:22724  uint256 amountLocked */\n      0x00\n      swap1\n        /* \"contracts/test/Locker.sol\":22727:22760  userLock.amount.sub(liquidityFee) */\n      tag_289\n      swap1\n        /* \"contracts/test/Locker.sol\":22747:22759  liquidityFee */\n      dup5\n        /* \"contracts/test/Locker.sol\":22727:22746  userLock.amount.sub */\n      tag_204\n        /* \"contracts/test/Locker.sol\":22727:22760  userLock.amount.sub(liquidityFee) */\n      jump\t// in\n    tag_289:\n        /* \"contracts/test/Locker.sol\":22771:22786  userLock.amount */\n      0x01\n      dup6\n      add\n        /* \"contracts/test/Locker.sol\":22771:22801  userLock.amount = amountLocked */\n      dup2\n      swap1\n      sstore\n        /* \"contracts/test/Locker.sol\":22811:22830  userLock.unlockDate */\n      0x03\n      dup6\n      add\n        /* \"contracts/test/Locker.sol\":22811:22845  userLock.unlockDate = _unlock_date */\n      dup8\n      swap1\n      sstore\n        /* \"contracts/test/Locker.sol\":22935:22938  ops */\n      sload(0x0d)\n        /* \"contracts/test/Locker.sol\":22704:22760  uint256 amountLocked = userLock.amount.sub(liquidityFee) */\n      swap1\n      swap2\n      pop\n        /* \"contracts/test/Locker.sol\":22897:22953  TransferHelper.safeTransfer(_lpToken, ops, liquidityFee) */\n      tag_290\n      swap1\n        /* \"contracts/test/Locker.sol\":22925:22933  _lpToken */\n      dup11\n      swap1\n      sub(shl(0xa0, 0x01), 0x01)\n        /* \"contracts/test/Locker.sol\":22935:22938  ops */\n      and\n        /* \"contracts/test/Locker.sol\":22940:22952  liquidityFee */\n      dup6\n        /* \"contracts/test/Locker.sol\":22897:22924  TransferHelper.safeTransfer */\n      tag_224\n        /* \"contracts/test/Locker.sol\":22897:22953  TransferHelper.safeTransfer(_lpToken, ops, liquidityFee) */\n      jump\t// in\n    tag_290:\n      pop\n      pop\n        /* \"contracts/test/Locker.sol\":6256:6257  1 */\n      0x01\n        /* \"contracts/test/Locker.sol\":7181:7203  _status = _NOT_ENTERED */\n      dup1\n      sstore\n      pop\n      pop\n      pop\n      pop\n      pop\n      pop\n      pop\n        /* \"contracts/test/Locker.sol\":21720:22960  function relock(... */\n      jump\t// out\n        /* \"contracts/test/Locker.sol\":15682:16056  function setFees(... */\n    tag_83:\n        /* \"contracts/test/Locker.sol\":2371:2377  _owner */\n      and(sub(shl(0xa0, 0x01), 0x01), sload(0x00))\n        /* \"contracts/test/Locker.sol\":909:919  msg.sender */\n      caller\n        /* \"contracts/test/Locker.sol\":2371:2393  _owner == _msgSender() */\n      eq\n        /* \"contracts/test/Locker.sol\":2363:2430  require(_owner == _msgSender(), \"Ownable: caller is not the owner\") */\n      tag_293\n      jumpi\n      mload(0x40)\n      shl(0xe5, 0x461bcd)\n      dup2\n      mstore\n      0x04\n      add\n      tag_178\n      swap1\n      tag_179\n      jump\t// in\n    tag_293:\n        /* \"contracts/test/Locker.sol\":15865:15870  gFees */\n      0x05\n        /* \"contracts/test/Locker.sol\":15865:15887  gFees.ethFee = _ethFee */\n      swap4\n      swap1\n      swap4\n      sstore\n        /* \"contracts/test/Locker.sol\":15897:15920  gFees.secondaryTokenFee */\n      0x07\n        /* \"contracts/test/Locker.sol\":15897:15941  gFees.secondaryTokenFee = _secondaryTokenFee */\n      swap2\n      swap1\n      swap2\n      sstore\n        /* \"contracts/test/Locker.sol\":15951:15979  gFees.secondaryTokenDiscount */\n      0x08\n        /* \"contracts/test/Locker.sol\":15951:16005  gFees.secondaryTokenDiscount = _secondaryTokenDiscount */\n      sstore\n        /* \"contracts/test/Locker.sol\":16015:16033  gFees.liquidityFee */\n      0x09\n        /* \"contracts/test/Locker.sol\":16015:16049  gFees.liquidityFee = _liquidityFee */\n      sstore\n        /* \"contracts/test/Locker.sol\":15682:16056  function setFees(... */\n      jump\t// out\n        /* \"contracts/test/Locker.sol\":2790:2935  function renounceOwnership() public virtual onlyOwner {... */\n    tag_86:\n        /* \"contracts/test/Locker.sol\":2371:2377  _owner */\n      and(sub(shl(0xa0, 0x01), 0x01), sload(0x00))\n        /* \"contracts/test/Locker.sol\":909:919  msg.sender */\n      caller\n        /* \"contracts/test/Locker.sol\":2371:2393  _owner == _msgSender() */\n      eq\n        /* \"contracts/test/Locker.sol\":2363:2430  require(_owner == _msgSender(), \"Ownable: caller is not the owner\") */\n      tag_298\n      jumpi\n      mload(0x40)\n      shl(0xe5, 0x461bcd)\n      dup2\n      mstore\n      0x04\n      add\n      tag_178\n      swap1\n      tag_179\n      jump\t// in\n    tag_298:\n        /* \"contracts/test/Locker.sol\":2896:2897  0 */\n      0x00\n        /* \"contracts/test/Locker.sol\":2880:2886  _owner */\n      dup1\n      sload\n        /* \"contracts/test/Locker.sol\":2859:2899  OwnershipTransferred(_owner, address(0)) */\n      mload(0x40)\n      sub(shl(0xa0, 0x01), 0x01)\n        /* \"contracts/test/Locker.sol\":2880:2886  _owner */\n      swap1\n      swap2\n      and\n      swap1\n        /* \"contracts/test/Locker.sol\":2859:2899  OwnershipTransferred(_owner, address(0)) */\n      0x8be0079c531659141344cd1fd0a4f28419497f9722a3daafe3b4186f6b6457e0\n      swap1\n        /* \"contracts/test/Locker.sol\":2896:2897  0 */\n      dup4\n      swap1\n        /* \"contracts/test/Locker.sol\":2859:2899  OwnershipTransferred(_owner, address(0)) */\n      log3\n        /* \"contracts/test/Locker.sol\":2926:2927  0 */\n      0x00\n        /* \"contracts/test/Locker.sol\":2909:2928  _owner = address(0) */\n      dup1\n      sload\n      not(sub(shl(0xa0, 0x01), 0x01))\n      and\n      swap1\n      sstore\n        /* \"contracts/test/Locker.sol\":2790:2935  function renounceOwnership() public virtual onlyOwner {... */\n      jump\t// out\n        /* \"contracts/test/Locker.sol\":15530:15676  function setSecondaryFeeToken(address _secondaryFeeToken) public onlyOwner {... */\n    tag_94:\n        /* \"contracts/test/Locker.sol\":2371:2377  _owner */\n      and(sub(shl(0xa0, 0x01), 0x01), sload(0x00))\n        /* \"contracts/test/Locker.sol\":909:919  msg.sender */\n      caller\n        /* \"contracts/test/Locker.sol\":2371:2393  _owner == _msgSender() */\n      eq\n        /* \"contracts/test/Locker.sol\":2363:2430  require(_owner == _msgSender(), \"Ownable: caller is not the owner\") */\n      tag_304\n      jumpi\n      mload(0x40)\n      shl(0xe5, 0x461bcd)\n      dup2\n      mstore\n      0x04\n      add\n      tag_178\n      swap1\n      tag_179\n      jump\t// in\n    tag_304:\n        /* \"contracts/test/Locker.sol\":15615:15638  gFees.secondaryFeeToken */\n      0x06\n        /* \"contracts/test/Locker.sol\":15615:15669  gFees.secondaryFeeToken = IERCBurn(_secondaryFeeToken) */\n      dup1\n      sload\n      not(sub(shl(0xa0, 0x01), 0x01))\n      and\n      sub(shl(0xa0, 0x01), 0x01)\n      swap3\n      swap1\n      swap3\n      and\n      swap2\n      swap1\n      swap2\n      or\n      swap1\n      sstore\n        /* \"contracts/test/Locker.sol\":15530:15676  function setSecondaryFeeToken(address _secondaryFeeToken) public onlyOwner {... */\n      jump\t// out\n        /* \"contracts/test/Locker.sol\":30931:31232  function getUserLockedTokenAtIndex(address _user, uint256 _index)... */\n    tag_108:\n      sub(shl(0xa0, 0x01), 0x01)\n        /* \"contracts/test/Locker.sol\":31091:31103  users[_user] */\n      dup3\n      and\n        /* \"contracts/test/Locker.sol\":31044:31051  address */\n      0x00\n        /* \"contracts/test/Locker.sol\":31091:31103  users[_user] */\n      swap1\n      dup2\n      mstore\n        /* \"contracts/test/Locker.sol\":31091:31096  users */\n      0x03\n        /* \"contracts/test/Locker.sol\":31091:31103  users[_user] */\n      0x20\n      mstore\n      0x40\n      dup2\n      keccak256\n        /* \"contracts/test/Locker.sol\":31135:31160  user.lockedTokens[_index] */\n      dup1\n      sload\n        /* \"contracts/test/Locker.sol\":31122:31134  user_removed */\n      0x0c\n      swap1\n        /* \"contracts/test/Locker.sol\":31044:31051  address */\n      dup4\n      swap1\n        /* \"contracts/test/Locker.sol\":31091:31103  users[_user] */\n      dup4\n      swap1\n        /* \"contracts/test/Locker.sol\":31153:31159  _index */\n      dup7\n      swap1\n        /* \"contracts/test/Locker.sol\":31135:31160  user.lockedTokens[_index] */\n      dup2\n      lt\n      tag_310\n      jumpi\n      tag_310\n      tag_171\n      jump\t// in\n    tag_310:\n      0x00\n      swap2\n      dup3\n      mstore\n      0x20\n      dup1\n      dup4\n      keccak256\n      swap1\n      swap2\n      add\n      sload\n      sub(shl(0xa0, 0x01), 0x01)\n      and\n        /* \"contracts/test/Locker.sol\":31122:31161  user_removed[user.lockedTokens[_index]] */\n      dup4\n      mstore\n      dup3\n      add\n      swap3\n      swap1\n      swap3\n      mstore\n      0x40\n      add\n      swap1\n      keccak256\n      sload\n      0xff\n      and\n        /* \"contracts/test/Locker.sol\":31122:31170  user_removed[user.lockedTokens[_index]] == false */\n      iszero\n        /* \"contracts/test/Locker.sol\":31113:31183  require((user_removed[user.lockedTokens[_index]] == false), \"Removed\") */\n      tag_312\n      jumpi\n      mload(0x40)\n      shl(0xe5, 0x461bcd)\n      dup2\n      mstore\n        /* \"#utility.yul\":11529:11531   */\n      0x20\n        /* \"contracts/test/Locker.sol\":31113:31183  require((user_removed[user.lockedTokens[_index]] == false), \"Removed\") */\n      0x04\n      dup3\n      add\n        /* \"#utility.yul\":11511:11532   */\n      mstore\n        /* \"#utility.yul\":11568:11569   */\n      0x07\n        /* \"#utility.yul\":11548:11566   */\n      0x24\n      dup3\n      add\n        /* \"#utility.yul\":11541:11570   */\n      mstore\n      shl(0xca, 0x14995b5bdd9959)\n        /* \"#utility.yul\":11586:11604   */\n      0x44\n      dup3\n      add\n        /* \"#utility.yul\":11579:11616   */\n      mstore\n        /* \"#utility.yul\":11633:11651   */\n      0x64\n      add\n        /* \"contracts/test/Locker.sol\":31113:31183  require((user_removed[user.lockedTokens[_index]] == false), \"Removed\") */\n      tag_178\n        /* \"#utility.yul\":11327:11657   */\n      jump\n        /* \"contracts/test/Locker.sol\":31113:31183  require((user_removed[user.lockedTokens[_index]] == false), \"Removed\") */\n    tag_312:\n        /* \"contracts/test/Locker.sol\":31200:31204  user */\n      dup1\n        /* \"contracts/test/Locker.sol\":31200:31217  user.lockedTokens */\n      0x00\n      add\n        /* \"contracts/test/Locker.sol\":31218:31224  _index */\n      dup4\n        /* \"contracts/test/Locker.sol\":31200:31225  user.lockedTokens[_index] */\n      dup2\n      sload\n      dup2\n      lt\n      tag_170\n      jumpi\n      tag_170\n      tag_171\n      jump\t// in\n        /* \"contracts/test/Locker.sol\":16148:16291  function whitelistFeeAccount(address payable _user, bool _add)... */\n    tag_119:\n        /* \"contracts/test/Locker.sol\":2371:2377  _owner */\n      and(sub(shl(0xa0, 0x01), 0x01), sload(0x00))\n        /* \"contracts/test/Locker.sol\":909:919  msg.sender */\n      caller\n        /* \"contracts/test/Locker.sol\":2371:2393  _owner == _msgSender() */\n      eq\n        /* \"contracts/test/Locker.sol\":2363:2430  require(_owner == _msgSender(), \"Ownable: caller is not the owner\") */\n      tag_320\n      jumpi\n      mload(0x40)\n      shl(0xe5, 0x461bcd)\n      dup2\n      mstore\n      0x04\n      add\n      tag_178\n      swap1\n      tag_179\n      jump\t// in\n    tag_320:\n      sub(shl(0xa0, 0x01), 0x01)\n        /* \"contracts/test/Locker.sol\":16258:16277  feeWhitelist[_user] */\n      swap2\n      swap1\n      swap2\n      and\n      0x00\n      swap1\n      dup2\n      mstore\n        /* \"contracts/test/Locker.sol\":16258:16270  feeWhitelist */\n      0x0a\n        /* \"contracts/test/Locker.sol\":16258:16277  feeWhitelist[_user] */\n      0x20\n      mstore\n      0x40\n      swap1\n      keccak256\n        /* \"contracts/test/Locker.sol\":16258:16284  feeWhitelist[_user] = _add */\n      dup1\n      sload\n      not(0xff)\n      and\n      swap2\n      iszero\n      iszero\n      swap2\n      swap1\n      swap2\n      or\n      swap1\n      sstore\n        /* \"contracts/test/Locker.sol\":16148:16291  function whitelistFeeAccount(address payable _user, bool _add)... */\n      jump\t// out\n        /* \"contracts/test/Locker.sol\":16929:21487  function lockLPToken(... */\n    tag_123:\n        /* \"contracts/test/Locker.sol\":6299:6300  2 */\n      0x02\n        /* \"contracts/test/Locker.sol\":6878:6885  _status */\n      sload(0x01)\n        /* \"contracts/test/Locker.sol\":6878:6897  _status != _ENTERED */\n      sub\n        /* \"contracts/test/Locker.sol\":6870:6933  require(_status != _ENTERED, \"ReentrancyGuard: reentrant call\") */\n      tag_324\n      jumpi\n      mload(0x40)\n      shl(0xe5, 0x461bcd)\n      dup2\n      mstore\n      0x04\n      add\n      tag_178\n      swap1\n      tag_185\n      jump\t// in\n    tag_324:\n        /* \"contracts/test/Locker.sol\":6299:6300  2 */\n      0x02\n        /* \"contracts/test/Locker.sol\":7008:7015  _status */\n      0x01\n        /* \"contracts/test/Locker.sol\":7008:7026  _status = _ENTERED */\n      sstore\n        /* \"contracts/test/Locker.sol\":17232:17243  10000000000 */\n      0x02540be400\n        /* \"contracts/test/Locker.sol\":17217:17243  _unlock_date < 10000000000 */\n      dup4\n      lt\n        /* \"contracts/test/Locker.sol\":17209:17265  require(_unlock_date < 10000000000, \"TIMESTAMP INVALID\") */\n      tag_327\n      jumpi\n      mload(0x40)\n      shl(0xe5, 0x461bcd)\n      dup2\n      mstore\n      0x04\n      add\n      tag_178\n      swap1\n      tag_268\n      jump\t// in\n    tag_327:\n        /* \"contracts/test/Locker.sol\":17351:17352  0 */\n      0x00\n        /* \"contracts/test/Locker.sol\":17341:17348  _amount */\n      dup5\n        /* \"contracts/test/Locker.sol\":17341:17352  _amount > 0 */\n      gt\n        /* \"contracts/test/Locker.sol\":17333:17369  require(_amount > 0, \"INSUFFICIENT\") */\n      tag_329\n      jumpi\n      mload(0x40)\n      shl(0xe5, 0x461bcd)\n      dup2\n      mstore\n        /* \"#utility.yul\":11864:11866   */\n      0x20\n        /* \"contracts/test/Locker.sol\":17333:17369  require(_amount > 0, \"INSUFFICIENT\") */\n      0x04\n      dup3\n      add\n        /* \"#utility.yul\":11846:11867   */\n      mstore\n        /* \"#utility.yul\":11903:11905   */\n      0x0c\n        /* \"#utility.yul\":11883:11901   */\n      0x24\n      dup3\n      add\n        /* \"#utility.yul\":11876:11906   */\n      mstore\n      shl(0xa2, 0x125394d551919250d2515395)\n        /* \"#utility.yul\":11922:11940   */\n      0x44\n      dup3\n      add\n        /* \"#utility.yul\":11915:11957   */\n      mstore\n        /* \"#utility.yul\":11974:11992   */\n      0x64\n      add\n        /* \"contracts/test/Locker.sol\":17333:17369  require(_amount > 0, \"INSUFFICIENT\") */\n      tag_178\n        /* \"#utility.yul\":11662:11998   */\n      jump\n        /* \"contracts/test/Locker.sol\":17333:17369  require(_amount > 0, \"INSUFFICIENT\") */\n    tag_329:\n        /* \"contracts/test/Locker.sol\":17543:17557  uniswapFactory */\n      sload(0x02)\n        /* \"contracts/test/Locker.sol\":17579:17593  lpair.token0() */\n      0x40\n      dup1\n      mload\n      shl(0xe0, 0x0dfe1681)\n      dup2\n      mstore\n      swap1\n      mload\n        /* \"contracts/test/Locker.sol\":17494:17502  _lpToken */\n      dup8\n      swap3\n        /* \"contracts/test/Locker.sol\":17448:17468  IUniswapV2Pair lpair */\n      0x00\n      swap3\n      sub(shl(0xa0, 0x01), 0x01)\n        /* \"contracts/test/Locker.sol\":17543:17557  uniswapFactory */\n      swap2\n      dup3\n      and\n      swap3\n        /* \"contracts/test/Locker.sol\":17543:17565  uniswapFactory.getPair */\n      0xe6a43905\n      swap3\n        /* \"contracts/test/Locker.sol\":17579:17591  lpair.token0 */\n      dup7\n      and\n      swap2\n      0x0dfe1681\n      swap2\n        /* \"contracts/test/Locker.sol\":17579:17593  lpair.token0() */\n      0x04\n      dup1\n      dup4\n      add\n      swap3\n      0x20\n      swap3\n      swap2\n      swap1\n      dup3\n      swap1\n      sub\n      add\n      dup2\n        /* \"contracts/test/Locker.sol\":17579:17591  lpair.token0 */\n      dup7\n        /* \"contracts/test/Locker.sol\":17579:17593  lpair.token0() */\n      gas\n      staticcall\n      iszero\n      dup1\n      iszero\n      tag_333\n      jumpi\n      returndatasize\n      0x00\n      dup1\n      returndatacopy\n      revert(0x00, returndatasize)\n    tag_333:\n      pop\n      pop\n      pop\n      pop\n      mload(0x40)\n      returndatasize\n      not(0x1f)\n      0x1f\n      dup3\n      add\n      and\n      dup3\n      add\n      dup1\n      0x40\n      mstore\n      pop\n      dup2\n      add\n      swap1\n      tag_334\n      swap2\n      swap1\n      tag_335\n      jump\t// in\n    tag_334:\n        /* \"contracts/test/Locker.sol\":17607:17612  lpair */\n      dup5\n      sub(shl(0xa0, 0x01), 0x01)\n        /* \"contracts/test/Locker.sol\":17607:17619  lpair.token1 */\n      and\n      0xd21220a7\n        /* \"contracts/test/Locker.sol\":17607:17621  lpair.token1() */\n      mload(0x40)\n      dup2\n      0xffffffff\n      and\n      0xe0\n      shl\n      dup2\n      mstore\n      0x04\n      add\n      0x20\n      mload(0x40)\n      dup1\n      dup4\n      sub\n      dup2\n      dup7\n      gas\n      staticcall\n      iszero\n      dup1\n      iszero\n      tag_337\n      jumpi\n      returndatasize\n      0x00\n      dup1\n      returndatacopy\n      revert(0x00, returndatasize)\n    tag_337:\n      pop\n      pop\n      pop\n      pop\n      mload(0x40)\n      returndatasize\n      not(0x1f)\n      0x1f\n      dup3\n      add\n      and\n      dup3\n      add\n      dup1\n      0x40\n      mstore\n      pop\n      dup2\n      add\n      swap1\n      tag_338\n      swap2\n      swap1\n      tag_335\n      jump\t// in\n    tag_338:\n        /* \"contracts/test/Locker.sol\":17543:17631  uniswapFactory.getPair(... */\n      mload(0x40)\n      not(sub(shl(0xe0, 0x01), 0x01))\n      0xe0\n      dup6\n      swap1\n      shl\n      and\n      dup2\n      mstore\n      sub(shl(0xa0, 0x01), 0x01)\n        /* \"#utility.yul\":12489:12504   */\n      swap3\n      dup4\n      and\n        /* \"contracts/test/Locker.sol\":17543:17631  uniswapFactory.getPair(... */\n      0x04\n      dup3\n      add\n        /* \"#utility.yul\":12471:12505   */\n      mstore\n        /* \"#utility.yul\":12541:12556   */\n      swap2\n      and\n        /* \"#utility.yul\":12521:12539   */\n      0x24\n      dup3\n      add\n        /* \"#utility.yul\":12514:12557   */\n      mstore\n        /* \"#utility.yul\":12406:12424   */\n      0x44\n      add\n        /* \"contracts/test/Locker.sol\":17543:17631  uniswapFactory.getPair(... */\n      0x20\n      mload(0x40)\n      dup1\n      dup4\n      sub\n      dup2\n      dup7\n      gas\n      staticcall\n      iszero\n      dup1\n      iszero\n      tag_342\n      jumpi\n      returndatasize\n      0x00\n      dup1\n      returndatacopy\n      revert(0x00, returndatasize)\n    tag_342:\n      pop\n      pop\n      pop\n      pop\n      mload(0x40)\n      returndatasize\n      not(0x1f)\n      0x1f\n      dup3\n      add\n      and\n      dup3\n      add\n      dup1\n      0x40\n      mstore\n      pop\n      dup2\n      add\n      swap1\n      tag_343\n      swap2\n      swap1\n      tag_335\n      jump\t// in\n    tag_343:\n        /* \"contracts/test/Locker.sol\":17514:17631  address factoryPairAddress = uniswapFactory.getPair(... */\n      swap1\n      pop\n        /* \"contracts/test/Locker.sol\":17679:17687  _lpToken */\n      dup7\n      sub(shl(0xa0, 0x01), 0x01)\n        /* \"contracts/test/Locker.sol\":17649:17688  factoryPairAddress == address(_lpToken) */\n      and\n        /* \"contracts/test/Locker.sol\":17649:17667  factoryPairAddress */\n      dup2\n      sub(shl(0xa0, 0x01), 0x01)\n        /* \"contracts/test/Locker.sol\":17649:17688  factoryPairAddress == address(_lpToken) */\n      and\n      eq\n        /* \"contracts/test/Locker.sol\":17641:17702  require(factoryPairAddress == address(_lpToken), \"NOT UNIV2\") */\n      tag_344\n      jumpi\n      mload(0x40)\n      shl(0xe5, 0x461bcd)\n      dup2\n      mstore\n        /* \"#utility.yul\":12770:12772   */\n      0x20\n        /* \"contracts/test/Locker.sol\":17641:17702  require(factoryPairAddress == address(_lpToken), \"NOT UNIV2\") */\n      0x04\n      dup3\n      add\n        /* \"#utility.yul\":12752:12773   */\n      mstore\n        /* \"#utility.yul\":12809:12810   */\n      0x09\n        /* \"#utility.yul\":12789:12807   */\n      0x24\n      dup3\n      add\n        /* \"#utility.yul\":12782:12811   */\n      mstore\n      shl(0xb9, 0x2727aa102aa724ab19)\n        /* \"#utility.yul\":12827:12845   */\n      0x44\n      dup3\n      add\n        /* \"#utility.yul\":12820:12859   */\n      mstore\n        /* \"#utility.yul\":12876:12894   */\n      0x64\n      add\n        /* \"contracts/test/Locker.sol\":17641:17702  require(factoryPairAddress == address(_lpToken), \"NOT UNIV2\") */\n      tag_178\n        /* \"#utility.yul\":12568:12900   */\n      jump\n        /* \"contracts/test/Locker.sol\":17641:17702  require(factoryPairAddress == address(_lpToken), \"NOT UNIV2\") */\n    tag_344:\n        /* \"contracts/test/Locker.sol\":17778:17933  TransferHelper.safeTransferFrom(... */\n      tag_347\n        /* \"contracts/test/Locker.sol\":17823:17831  _lpToken */\n      dup8\n        /* \"contracts/test/Locker.sol\":17853:17863  msg.sender */\n      caller\n        /* \"contracts/test/Locker.sol\":17895:17899  this */\n      address\n        /* \"contracts/test/Locker.sol\":17916:17923  _amount */\n      dup10\n        /* \"contracts/test/Locker.sol\":17778:17809  TransferHelper.safeTransferFrom */\n      tag_348\n        /* \"contracts/test/Locker.sol\":17778:17933  TransferHelper.safeTransferFrom(... */\n      jump\t// in\n    tag_347:\n        /* \"contracts/test/Locker.sol\":17961:17971  msg.sender */\n      caller\n        /* \"contracts/test/Locker.sol\":17948:17972  feeWhitelist[msg.sender] */\n      0x00\n      swap1\n      dup2\n      mstore\n        /* \"contracts/test/Locker.sol\":17948:17960  feeWhitelist */\n      0x0a\n        /* \"contracts/test/Locker.sol\":17948:17972  feeWhitelist[msg.sender] */\n      0x20\n      mstore\n      0x40\n      swap1\n      keccak256\n      sload\n      0xff\n      and\n        /* \"contracts/test/Locker.sol\":17943:19615  if (!feeWhitelist[msg.sender]) {... */\n      tag_349\n      jumpi\n        /* \"contracts/test/Locker.sol\":17992:18003  _fee_in_eth */\n      dup4\n        /* \"contracts/test/Locker.sol\":17988:19236  if (_fee_in_eth) {... */\n      iszero\n      tag_350\n      jumpi\n        /* \"contracts/test/Locker.sol\":18040:18045  gFees */\n      0x05\n        /* \"contracts/test/Locker.sol\":18040:18052  gFees.ethFee */\n      sload\n        /* \"contracts/test/Locker.sol\":18078:18087  msg.value */\n      callvalue\n        /* \"contracts/test/Locker.sol\":18078:18097  msg.value == ethFee */\n      dup2\n      eq\n        /* \"contracts/test/Locker.sol\":18070:18113  require(msg.value == ethFee, \"FEE NOT MET\") */\n      tag_351\n      jumpi\n      mload(0x40)\n      shl(0xe5, 0x461bcd)\n      dup2\n      mstore\n      0x04\n      add\n      tag_178\n      swap1\n      tag_248\n      jump\t// in\n    tag_351:\n        /* \"contracts/test/Locker.sol\":18131:18134  ops */\n      sload(0x0d)\n        /* \"contracts/test/Locker.sol\":18131:18154  ops.transfer(msg.value) */\n      mload(0x40)\n      sub(shl(0xa0, 0x01), 0x01)\n        /* \"contracts/test/Locker.sol\":18131:18134  ops */\n      swap1\n      swap2\n      and\n      swap1\n        /* \"contracts/test/Locker.sol\":18144:18153  msg.value */\n      callvalue\n        /* \"contracts/test/Locker.sol\":18131:18154  ops.transfer(msg.value) */\n      dup1\n      iszero\n      0x08fc\n      mul\n      swap2\n        /* \"contracts/test/Locker.sol\":18131:18134  ops */\n      0x00\n        /* \"contracts/test/Locker.sol\":18131:18154  ops.transfer(msg.value) */\n      dup2\n        /* \"contracts/test/Locker.sol\":18131:18134  ops */\n      dup2\n        /* \"contracts/test/Locker.sol\":18131:18154  ops.transfer(msg.value) */\n      dup2\n        /* \"contracts/test/Locker.sol\":18144:18153  msg.value */\n      dup6\n        /* \"contracts/test/Locker.sol\":18131:18134  ops */\n      dup9\n        /* \"contracts/test/Locker.sol\":18131:18154  ops.transfer(msg.value) */\n      dup9\n      call\n      swap4\n      pop\n      pop\n      pop\n      pop\n      iszero\n      dup1\n      iszero\n      tag_354\n      jumpi\n      returndatasize\n      0x00\n      dup1\n      returndatacopy\n      revert(0x00, returndatasize)\n    tag_354:\n      pop\n        /* \"contracts/test/Locker.sol\":18005:18169  {... */\n      pop\n        /* \"contracts/test/Locker.sol\":17943:19615  if (!feeWhitelist[msg.sender]) {... */\n      jump(tag_372)\n        /* \"contracts/test/Locker.sol\":17988:19236  if (_fee_in_eth) {... */\n    tag_350:\n        /* \"contracts/test/Locker.sol\":18211:18234  gFees.secondaryTokenFee */\n      sload(0x07)\n        /* \"contracts/test/Locker.sol\":18268:18278  msg.sender */\n      caller\n        /* \"contracts/test/Locker.sol\":18193:18208  uint256 burnFee */\n      0x00\n        /* \"contracts/test/Locker.sol\":18255:18279  feeBlocklist[msg.sender] */\n      swap1\n      dup2\n      mstore\n        /* \"contracts/test/Locker.sol\":18255:18267  feeBlocklist */\n      0x0b\n        /* \"contracts/test/Locker.sol\":18255:18279  feeBlocklist[msg.sender] */\n      0x20\n      mstore\n      0x40\n      swap1\n      keccak256\n      sload\n      0xff\n      and\n        /* \"contracts/test/Locker.sol\":18255:18287  feeBlocklist[msg.sender] == true */\n      iszero\n      iszero\n        /* \"contracts/test/Locker.sol\":18255:18279  feeBlocklist[msg.sender] */\n      0x01\n        /* \"contracts/test/Locker.sol\":18255:18287  feeBlocklist[msg.sender] == true */\n      sub\n        /* \"contracts/test/Locker.sol\":18252:19222  if(feeBlocklist[msg.sender] == true){... */\n      tag_356\n      jumpi\n        /* \"contracts/test/Locker.sol\":18370:18393  gFees.secondaryFeeToken */\n      sload(0x06)\n        /* \"contracts/test/Locker.sol\":18420:18423  ops */\n      sload(0x0d)\n        /* \"contracts/test/Locker.sol\":18310:18478  TransferHelper.safeApprove(... */\n      tag_357\n      swap2\n      sub(shl(0xa0, 0x01), 0x01)\n        /* \"contracts/test/Locker.sol\":18370:18393  gFees.secondaryFeeToken */\n      swap1\n      dup2\n      and\n      swap2\n        /* \"contracts/test/Locker.sol\":18420:18423  ops */\n      and\n        /* \"contracts/test/Locker.sol\":18449:18456  burnFee */\n      dup4\n        /* \"contracts/test/Locker.sol\":18310:18336  TransferHelper.safeApprove */\n      tag_222\n        /* \"contracts/test/Locker.sol\":18310:18478  TransferHelper.safeApprove(... */\n      jump\t// in\n    tag_357:\n        /* \"contracts/test/Locker.sol\":18561:18584  gFees.secondaryFeeToken */\n      sload(0x06)\n        /* \"contracts/test/Locker.sol\":18611:18614  ops */\n      sload(0x0d)\n        /* \"contracts/test/Locker.sol\":18500:18669  TransferHelper.safeTransfer(... */\n      tag_358\n      swap2\n      sub(shl(0xa0, 0x01), 0x01)\n        /* \"contracts/test/Locker.sol\":18561:18584  gFees.secondaryFeeToken */\n      swap1\n      dup2\n      and\n      swap2\n        /* \"contracts/test/Locker.sol\":18611:18614  ops */\n      and\n        /* \"contracts/test/Locker.sol\":18640:18647  burnFee */\n      dup4\n        /* \"contracts/test/Locker.sol\":18500:18527  TransferHelper.safeTransfer */\n      tag_224\n        /* \"contracts/test/Locker.sol\":18500:18669  TransferHelper.safeTransfer(... */\n      jump\t// in\n    tag_358:\n        /* \"contracts/test/Locker.sol\":18252:19222  if(feeBlocklist[msg.sender] == true){... */\n      jump(tag_359)\n    tag_356:\n        /* \"contracts/test/Locker.sol\":18776:18799  gFees.secondaryFeeToken */\n      sload(0x06)\n        /* \"contracts/test/Locker.sol\":18716:18894  TransferHelper.safeApprove(... */\n      tag_360\n      swap1\n      sub(shl(0xa0, 0x01), 0x01)\n        /* \"contracts/test/Locker.sol\":18776:18799  gFees.secondaryFeeToken */\n      and\n        /* \"contracts/test/Locker.sol\":18834:18838  this */\n      address\n        /* \"contracts/test/Locker.sol\":18865:18872  burnFee */\n      dup4\n        /* \"contracts/test/Locker.sol\":18716:18742  TransferHelper.safeApprove */\n      tag_222\n        /* \"contracts/test/Locker.sol\":18716:18894  TransferHelper.safeApprove(... */\n      jump\t// in\n    tag_360:\n        /* \"contracts/test/Locker.sol\":18981:19004  gFees.secondaryFeeToken */\n      sload(0x06)\n        /* \"contracts/test/Locker.sol\":18916:19144  TransferHelper.safeTransferFrom(... */\n      tag_361\n      swap1\n      sub(shl(0xa0, 0x01), 0x01)\n        /* \"contracts/test/Locker.sol\":18981:19004  gFees.secondaryFeeToken */\n      and\n        /* \"contracts/test/Locker.sol\":19039:19049  msg.sender */\n      caller\n        /* \"contracts/test/Locker.sol\":19084:19088  this */\n      address\n        /* \"contracts/test/Locker.sol\":19115:19122  burnFee */\n      dup5\n        /* \"contracts/test/Locker.sol\":18916:18947  TransferHelper.safeTransferFrom */\n      tag_348\n        /* \"contracts/test/Locker.sol\":18916:19144  TransferHelper.safeTransferFrom(... */\n      jump\t// in\n    tag_361:\n        /* \"contracts/test/Locker.sol\":19166:19189  gFees.secondaryFeeToken */\n      sload(0x06)\n        /* \"contracts/test/Locker.sol\":19166:19203  gFees.secondaryFeeToken.burn(burnFee) */\n      mload(0x40)\n      shl(0xe3, 0x0852cd8d)\n      dup2\n      mstore\n      0x04\n      dup2\n      add\n        /* \"#utility.yul\":1092:1117   */\n      dup4\n      swap1\n      mstore\n      sub(shl(0xa0, 0x01), 0x01)\n        /* \"contracts/test/Locker.sol\":19166:19189  gFees.secondaryFeeToken */\n      swap1\n      swap2\n      and\n      swap1\n        /* \"contracts/test/Locker.sol\":19166:19194  gFees.secondaryFeeToken.burn */\n      0x42966c68\n      swap1\n        /* \"#utility.yul\":1065:1083   */\n      0x24\n      add\n        /* \"contracts/test/Locker.sol\":19166:19203  gFees.secondaryFeeToken.burn(burnFee) */\n      0x00\n      mload(0x40)\n      dup1\n      dup4\n      sub\n      dup2\n      0x00\n      dup8\n      dup1\n      extcodesize\n      iszero\n      dup1\n      iszero\n      tag_363\n      jumpi\n      0x00\n      dup1\n      revert\n    tag_363:\n      pop\n      gas\n      call\n      iszero\n      dup1\n      iszero\n      tag_365\n      jumpi\n      returndatasize\n      0x00\n      dup1\n      returndatacopy\n      revert(0x00, returndatasize)\n    tag_365:\n      pop\n      pop\n      pop\n      pop\n        /* \"contracts/test/Locker.sol\":18252:19222  if(feeBlocklist[msg.sender] == true){... */\n    tag_359:\n        /* \"contracts/test/Locker.sol\":18175:19236  {... */\n      pop\n        /* \"contracts/test/Locker.sol\":17943:19615  if (!feeWhitelist[msg.sender]) {... */\n      jump(tag_372)\n    tag_349:\n        /* \"contracts/test/Locker.sol\":19282:19292  msg.sender */\n      caller\n        /* \"contracts/test/Locker.sol\":19269:19293  feeWhitelist[msg.sender] */\n      0x00\n      swap1\n      dup2\n      mstore\n        /* \"contracts/test/Locker.sol\":19269:19281  feeWhitelist */\n      0x0a\n        /* \"contracts/test/Locker.sol\":19269:19293  feeWhitelist[msg.sender] */\n      0x20\n      mstore\n      0x40\n      swap1\n      keccak256\n      sload\n      0xff\n      and\n        /* \"contracts/test/Locker.sol\":19269:19301  feeWhitelist[msg.sender] == true */\n      iszero\n      iszero\n        /* \"contracts/test/Locker.sol\":19269:19293  feeWhitelist[msg.sender] */\n      0x01\n        /* \"contracts/test/Locker.sol\":19269:19301  feeWhitelist[msg.sender] == true */\n      eq\n        /* \"contracts/test/Locker.sol\":19269:19336  feeWhitelist[msg.sender] == true && uint256(msg.value) > uint256(0) */\n      dup1\n      iszero\n      tag_367\n      jumpi\n      pop\n        /* \"contracts/test/Locker.sol\":19334:19335  0 */\n      0x00\n        /* \"contracts/test/Locker.sol\":19313:19322  msg.value */\n      callvalue\n        /* \"contracts/test/Locker.sol\":19305:19336  uint256(msg.value) > uint256(0) */\n      gt\n        /* \"contracts/test/Locker.sol\":19269:19336  feeWhitelist[msg.sender] == true && uint256(msg.value) > uint256(0) */\n    tag_367:\n        /* \"contracts/test/Locker.sol\":19252:19615  if (... */\n      iszero\n      tag_372\n      jumpi\n        /* \"contracts/test/Locker.sol\":19377:19387  msg.sender */\n      caller\n        /* \"contracts/test/Locker.sol\":19364:19388  feeBlocklist[msg.sender] */\n      0x00\n      swap1\n      dup2\n      mstore\n        /* \"contracts/test/Locker.sol\":19364:19376  feeBlocklist */\n      0x0b\n        /* \"contracts/test/Locker.sol\":19364:19388  feeBlocklist[msg.sender] */\n      0x20\n      mstore\n      0x40\n      dup2\n      keccak256\n      sload\n      0xff\n      and\n        /* \"contracts/test/Locker.sol\":19364:19397  feeBlocklist[msg.sender] == false */\n      iszero\n      iszero\n      swap1\n      sub\n        /* \"contracts/test/Locker.sol\":19361:19605  if(feeBlocklist[msg.sender] == false){... */\n      tag_369\n      jumpi\n        /* \"contracts/test/Locker.sol\":19489:19528  payable(msg.sender).transfer(msg.value) */\n      mload(0x40)\n        /* \"contracts/test/Locker.sol\":19497:19507  msg.sender */\n      caller\n      swap1\n        /* \"contracts/test/Locker.sol\":19518:19527  msg.value */\n      callvalue\n        /* \"contracts/test/Locker.sol\":19489:19528  payable(msg.sender).transfer(msg.value) */\n      dup1\n      iszero\n      0x08fc\n      mul\n      swap2\n      0x00\n      dup2\n      dup2\n      dup2\n        /* \"contracts/test/Locker.sol\":19518:19527  msg.value */\n      dup6\n        /* \"contracts/test/Locker.sol\":19497:19507  msg.sender */\n      dup9\n        /* \"contracts/test/Locker.sol\":19489:19528  payable(msg.sender).transfer(msg.value) */\n      dup9\n      call\n      swap4\n      pop\n      pop\n      pop\n      pop\n      iszero\n      dup1\n      iszero\n      tag_359\n      jumpi\n      returndatasize\n      0x00\n      dup1\n      returndatacopy\n      revert(0x00, returndatasize)\n        /* \"contracts/test/Locker.sol\":19361:19605  if(feeBlocklist[msg.sender] == false){... */\n    tag_369:\n        /* \"contracts/test/Locker.sol\":19567:19570  ops */\n      sload(0x0d)\n        /* \"contracts/test/Locker.sol\":19567:19590  ops.transfer(msg.value) */\n      mload(0x40)\n      sub(shl(0xa0, 0x01), 0x01)\n        /* \"contracts/test/Locker.sol\":19567:19570  ops */\n      swap1\n      swap2\n      and\n      swap1\n        /* \"contracts/test/Locker.sol\":19580:19589  msg.value */\n      callvalue\n        /* \"contracts/test/Locker.sol\":19567:19590  ops.transfer(msg.value) */\n      dup1\n      iszero\n      0x08fc\n      mul\n      swap2\n        /* \"contracts/test/Locker.sol\":19567:19570  ops */\n      0x00\n        /* \"contracts/test/Locker.sol\":19567:19590  ops.transfer(msg.value) */\n      dup2\n        /* \"contracts/test/Locker.sol\":19567:19570  ops */\n      dup2\n        /* \"contracts/test/Locker.sol\":19567:19590  ops.transfer(msg.value) */\n      dup2\n        /* \"contracts/test/Locker.sol\":19580:19589  msg.value */\n      dup6\n        /* \"contracts/test/Locker.sol\":19567:19570  ops */\n      dup9\n        /* \"contracts/test/Locker.sol\":19567:19590  ops.transfer(msg.value) */\n      dup9\n      call\n      swap4\n      pop\n      pop\n      pop\n      pop\n      iszero\n      dup1\n      iszero\n      tag_374\n      jumpi\n      returndatasize\n      0x00\n      dup1\n      returndatacopy\n      revert(0x00, returndatasize)\n    tag_374:\n      pop\n        /* \"contracts/test/Locker.sol\":19361:19605  if(feeBlocklist[msg.sender] == false){... */\n    tag_372:\n        /* \"contracts/test/Locker.sol\":19640:19650  msg.sender */\n      caller\n        /* \"contracts/test/Locker.sol\":19627:19651  feeBlocklist[msg.sender] */\n      0x00\n      swap1\n      dup2\n      mstore\n        /* \"contracts/test/Locker.sol\":19627:19639  feeBlocklist */\n      0x0b\n        /* \"contracts/test/Locker.sol\":19627:19651  feeBlocklist[msg.sender] */\n      0x20\n      mstore\n      0x40\n      swap1\n      keccak256\n      sload\n      0xff\n      and\n        /* \"contracts/test/Locker.sol\":19627:19659  feeBlocklist[msg.sender] == true */\n      iszero\n      iszero\n        /* \"contracts/test/Locker.sol\":19627:19651  feeBlocklist[msg.sender] */\n      0x01\n        /* \"contracts/test/Locker.sol\":19627:19659  feeBlocklist[msg.sender] == true */\n      sub\n        /* \"contracts/test/Locker.sol\":19624:21481  if(feeBlocklist[msg.sender] == true){... */\n      tag_375\n      jumpi\n        /* \"contracts/test/Locker.sol\":19833:19836  ops */\n      sload(0x0d)\n        /* \"contracts/test/Locker.sol\":19754:19875  TransferHelper.safeApprove(... */\n      tag_376\n      swap1\n        /* \"contracts/test/Locker.sol\":19806:19814  _lpToken */\n      dup9\n      swap1\n      sub(shl(0xa0, 0x01), 0x01)\n        /* \"contracts/test/Locker.sol\":19833:19836  ops */\n      and\n        /* \"contracts/test/Locker.sol\":19854:19861  _amount */\n      dup9\n        /* \"contracts/test/Locker.sol\":19754:19780  TransferHelper.safeApprove */\n      tag_222\n        /* \"contracts/test/Locker.sol\":19754:19875  TransferHelper.safeApprove(... */\n      jump\t// in\n    tag_376:\n        /* \"contracts/test/Locker.sol\":19969:19972  ops */\n      sload(0x0d)\n        /* \"contracts/test/Locker.sol\":19889:20011  TransferHelper.safeTransfer(... */\n      tag_377\n      swap1\n        /* \"contracts/test/Locker.sol\":19942:19950  _lpToken */\n      dup9\n      swap1\n      sub(shl(0xa0, 0x01), 0x01)\n        /* \"contracts/test/Locker.sol\":19969:19972  ops */\n      and\n        /* \"contracts/test/Locker.sol\":19990:19997  _amount */\n      dup9\n        /* \"contracts/test/Locker.sol\":19889:19916  TransferHelper.safeTransfer */\n      tag_224\n        /* \"contracts/test/Locker.sol\":19889:20011  TransferHelper.safeTransfer(... */\n      jump\t// in\n    tag_377:\n        /* \"contracts/test/Locker.sol\":19624:21481  if(feeBlocklist[msg.sender] == true){... */\n      jump(tag_378)\n    tag_375:\n        /* \"contracts/test/Locker.sol\":20069:20089  uint256 liquidityFee */\n      0x00\n        /* \"contracts/test/Locker.sol\":20092:20133  _amount.mul(gFees.liquidityFee).div(1000) */\n      tag_379\n        /* \"contracts/test/Locker.sol\":20128:20132  1000 */\n      0x03e8\n        /* \"contracts/test/Locker.sol\":20092:20123  _amount.mul(gFees.liquidityFee) */\n      tag_286\n        /* \"contracts/test/Locker.sol\":20104:20109  gFees */\n      0x05\n        /* \"contracts/test/Locker.sol\":20104:20122  gFees.liquidityFee */\n      0x04\n      add\n      sload\n        /* \"contracts/test/Locker.sol\":20092:20099  _amount */\n      dup11\n        /* \"contracts/test/Locker.sol\":20092:20103  _amount.mul */\n      tag_287\n      swap1\n        /* \"contracts/test/Locker.sol\":20092:20123  _amount.mul(gFees.liquidityFee) */\n      swap2\n      swap1\n      0xffffffff\n      and\n      jump\t// in\n        /* \"contracts/test/Locker.sol\":20092:20133  _amount.mul(gFees.liquidityFee).div(1000) */\n    tag_379:\n        /* \"contracts/test/Locker.sol\":20069:20133  uint256 liquidityFee = _amount.mul(gFees.liquidityFee).div(1000) */\n      swap1\n      pop\n        /* \"contracts/test/Locker.sol\":20152:20163  _fee_in_eth */\n      dup5\n        /* \"contracts/test/Locker.sol\":20151:20163  !_fee_in_eth */\n      iszero\n        /* \"contracts/test/Locker.sol\":20151:20192  !_fee_in_eth && !feeWhitelist[msg.sender] */\n      dup1\n      iszero\n      tag_381\n      jumpi\n      pop\n        /* \"contracts/test/Locker.sol\":20181:20191  msg.sender */\n      caller\n        /* \"contracts/test/Locker.sol\":20168:20192  feeWhitelist[msg.sender] */\n      0x00\n      swap1\n      dup2\n      mstore\n        /* \"contracts/test/Locker.sol\":20168:20180  feeWhitelist */\n      0x0a\n        /* \"contracts/test/Locker.sol\":20168:20192  feeWhitelist[msg.sender] */\n      0x20\n      mstore\n      0x40\n      swap1\n      keccak256\n      sload\n      0xff\n      and\n        /* \"contracts/test/Locker.sol\":20167:20192  !feeWhitelist[msg.sender] */\n      iszero\n        /* \"contracts/test/Locker.sol\":20151:20192  !_fee_in_eth && !feeWhitelist[msg.sender] */\n    tag_381:\n        /* \"contracts/test/Locker.sol\":20147:20419  if (!_fee_in_eth && !feeWhitelist[msg.sender]) {... */\n      iszero\n      tag_382\n      jumpi\n        /* \"contracts/test/Locker.sol\":20299:20404  liquidityFee... */\n      tag_383\n        /* \"contracts/test/Locker.sol\":20399:20403  1000 */\n      0x03e8\n        /* \"contracts/test/Locker.sol\":20299:20373  liquidityFee... */\n      tag_286\n        /* \"contracts/test/Locker.sol\":20344:20349  gFees */\n      0x05\n        /* \"contracts/test/Locker.sol\":20344:20372  gFees.secondaryTokenDiscount */\n      0x03\n      add\n      sload\n        /* \"contracts/test/Locker.sol\":20337:20341  1000 */\n      0x03e8\n        /* \"contracts/test/Locker.sol\":20337:20372  1000 - gFees.secondaryTokenDiscount */\n      tag_385\n      swap2\n      swap1\n      tag_207\n      jump\t// in\n    tag_385:\n        /* \"contracts/test/Locker.sol\":20299:20311  liquidityFee */\n      dup5\n      swap1\n        /* \"contracts/test/Locker.sol\":20299:20336  liquidityFee... */\n      tag_287\n        /* \"contracts/test/Locker.sol\":20299:20373  liquidityFee... */\n      jump\t// in\n        /* \"contracts/test/Locker.sol\":20299:20404  liquidityFee... */\n    tag_383:\n        /* \"contracts/test/Locker.sol\":20284:20404  liquidityFee = liquidityFee... */\n      swap1\n      pop\n        /* \"contracts/test/Locker.sol\":20147:20419  if (!_fee_in_eth && !feeWhitelist[msg.sender]) {... */\n    tag_382:\n        /* \"contracts/test/Locker.sol\":20470:20473  ops */\n      sload(0x0d)\n        /* \"contracts/test/Locker.sol\":20432:20488  TransferHelper.safeTransfer(_lpToken, ops, liquidityFee) */\n      tag_386\n      swap1\n        /* \"contracts/test/Locker.sol\":20460:20468  _lpToken */\n      dup10\n      swap1\n      sub(shl(0xa0, 0x01), 0x01)\n        /* \"contracts/test/Locker.sol\":20470:20473  ops */\n      and\n        /* \"contracts/test/Locker.sol\":20475:20487  liquidityFee */\n      dup4\n        /* \"contracts/test/Locker.sol\":20432:20459  TransferHelper.safeTransfer */\n      tag_224\n        /* \"contracts/test/Locker.sol\":20432:20488  TransferHelper.safeTransfer(_lpToken, ops, liquidityFee) */\n      jump\t// in\n    tag_386:\n        /* \"contracts/test/Locker.sol\":20502:20522  uint256 amountLocked */\n      0x00\n        /* \"contracts/test/Locker.sol\":20525:20550  _amount.sub(liquidityFee) */\n      tag_387\n        /* \"contracts/test/Locker.sol\":20525:20532  _amount */\n      dup9\n        /* \"contracts/test/Locker.sol\":20537:20549  liquidityFee */\n      dup4\n        /* \"contracts/test/Locker.sol\":20525:20536  _amount.sub */\n      tag_204\n        /* \"contracts/test/Locker.sol\":20525:20550  _amount.sub(liquidityFee) */\n      jump\t// in\n    tag_387:\n        /* \"contracts/test/Locker.sol\":20502:20550  uint256 amountLocked = _amount.sub(liquidityFee) */\n      swap1\n      pop\n        /* \"contracts/test/Locker.sol\":20564:20591  TokenLock memory token_lock */\n      tag_388\n      tag_253\n      jump\t// in\n    tag_388:\n        /* \"contracts/test/Locker.sol\":20627:20642  block.timestamp */\n      timestamp\n        /* \"contracts/test/Locker.sol\":20605:20615  token_lock */\n      dup2\n        /* \"contracts/test/Locker.sol\":20605:20624  token_lock.lockDate */\n      0x00\n      add\n        /* \"contracts/test/Locker.sol\":20605:20642  token_lock.lockDate = block.timestamp */\n      dup2\n      dup2\n      mstore\n      pop\n      pop\n        /* \"contracts/test/Locker.sol\":20676:20688  amountLocked */\n      dup2\n        /* \"contracts/test/Locker.sol\":20656:20666  token_lock */\n      dup2\n        /* \"contracts/test/Locker.sol\":20656:20673  token_lock.amount */\n      0x20\n      add\n        /* \"contracts/test/Locker.sol\":20656:20688  token_lock.amount = amountLocked */\n      dup2\n      dup2\n      mstore\n      pop\n      pop\n        /* \"contracts/test/Locker.sol\":20729:20741  amountLocked */\n      dup2\n        /* \"contracts/test/Locker.sol\":20702:20712  token_lock */\n      dup2\n        /* \"contracts/test/Locker.sol\":20702:20726  token_lock.initialAmount */\n      0x40\n      add\n        /* \"contracts/test/Locker.sol\":20702:20741  token_lock.initialAmount = amountLocked */\n      dup2\n      dup2\n      mstore\n      pop\n      pop\n        /* \"contracts/test/Locker.sol\":20779:20791  _unlock_date */\n      dup8\n        /* \"contracts/test/Locker.sol\":20755:20765  token_lock */\n      dup2\n        /* \"contracts/test/Locker.sol\":20755:20776  token_lock.unlockDate */\n      0x60\n      add\n        /* \"contracts/test/Locker.sol\":20755:20791  token_lock.unlockDate = _unlock_date */\n      dup2\n      dup2\n      mstore\n      pop\n      pop\n        /* \"contracts/test/Locker.sol\":20825:20835  tokenLocks */\n      0x04\n        /* \"contracts/test/Locker.sol\":20825:20845  tokenLocks[_lpToken] */\n      0x00\n        /* \"contracts/test/Locker.sol\":20836:20844  _lpToken */\n      dup12\n      sub(shl(0xa0, 0x01), 0x01)\n        /* \"contracts/test/Locker.sol\":20825:20845  tokenLocks[_lpToken] */\n      and\n      sub(shl(0xa0, 0x01), 0x01)\n      and\n      dup2\n      mstore\n      0x20\n      add\n      swap1\n      dup2\n      mstore\n      0x20\n      add\n      0x00\n      keccak256\n        /* \"contracts/test/Locker.sol\":20825:20852  tokenLocks[_lpToken].length */\n      dup1\n      sload\n      swap1\n      pop\n        /* \"contracts/test/Locker.sol\":20805:20815  token_lock */\n      dup2\n        /* \"contracts/test/Locker.sol\":20805:20822  token_lock.lockID */\n      0x80\n      add\n        /* \"contracts/test/Locker.sol\":20805:20852  token_lock.lockID = tokenLocks[_lpToken].length */\n      dup2\n      dup2\n      mstore\n      pop\n      pop\n        /* \"contracts/test/Locker.sol\":20885:20896  _withdrawer */\n      dup6\n        /* \"contracts/test/Locker.sol\":20866:20876  token_lock */\n      dup2\n        /* \"contracts/test/Locker.sol\":20866:20882  token_lock.owner */\n      0xa0\n      add\n        /* \"contracts/test/Locker.sol\":20866:20896  token_lock.owner = _withdrawer */\n      swap1\n      sub(shl(0xa0, 0x01), 0x01)\n      and\n      swap1\n      dup2\n      sub(shl(0xa0, 0x01), 0x01)\n      and\n      dup2\n      mstore\n      pop\n      pop\n        /* \"contracts/test/Locker.sol\":20959:20969  tokenLocks */\n      0x04\n        /* \"contracts/test/Locker.sol\":20959:20979  tokenLocks[_lpToken] */\n      0x00\n        /* \"contracts/test/Locker.sol\":20970:20978  _lpToken */\n      dup12\n      sub(shl(0xa0, 0x01), 0x01)\n        /* \"contracts/test/Locker.sol\":20959:20979  tokenLocks[_lpToken] */\n      and\n      sub(shl(0xa0, 0x01), 0x01)\n      and\n      dup2\n      mstore\n      0x20\n      add\n      swap1\n      dup2\n      mstore\n      0x20\n      add\n      0x00\n      keccak256\n        /* \"contracts/test/Locker.sol\":20985:20995  token_lock */\n      dup2\n        /* \"contracts/test/Locker.sol\":20959:20996  tokenLocks[_lpToken].push(token_lock) */\n      swap1\n      dup1\n      0x01\n      dup2\n      sload\n      add\n      dup1\n      dup3\n      sstore\n      dup1\n      swap2\n      pop\n      pop\n      0x01\n      swap1\n      sub\n      swap1\n      0x00\n      mstore\n      keccak256(0x00, 0x20)\n      swap1\n      0x06\n      mul\n      add\n      0x00\n      swap1\n      swap2\n      swap1\n      swap2\n      swap1\n      swap2\n      pop\n      0x00\n      dup3\n      add\n      mload\n      dup2\n      0x00\n      add\n      sstore\n      0x20\n      dup3\n      add\n      mload\n      dup2\n      0x01\n      add\n      sstore\n      0x40\n      dup3\n      add\n      mload\n      dup2\n      0x02\n      add\n      sstore\n      0x60\n      dup3\n      add\n      mload\n      dup2\n      0x03\n      add\n      sstore\n      0x80\n      dup3\n      add\n      mload\n      dup2\n      0x04\n      add\n      sstore\n      0xa0\n      dup3\n      add\n      mload\n      dup2\n      0x05\n      add\n      exp(0x0100, 0x00)\n      dup2\n      sload\n      dup2\n      sub(shl(0xa0, 0x01), 0x01)\n      mul\n      not\n      and\n      swap1\n      dup4\n      sub(shl(0xa0, 0x01), 0x01)\n      and\n      mul\n      or\n      swap1\n      sstore\n      pop\n      pop\n      pop\n        /* \"contracts/test/Locker.sol\":21054:21075  UserInfo storage user */\n      0x00\n        /* \"contracts/test/Locker.sol\":21078:21083  users */\n      0x03\n        /* \"contracts/test/Locker.sol\":21078:21096  users[_withdrawer] */\n      0x00\n        /* \"contracts/test/Locker.sol\":21084:21095  _withdrawer */\n      dup9\n      sub(shl(0xa0, 0x01), 0x01)\n        /* \"contracts/test/Locker.sol\":21078:21096  users[_withdrawer] */\n      and\n      sub(shl(0xa0, 0x01), 0x01)\n      and\n      dup2\n      mstore\n      0x20\n      add\n      swap1\n      dup2\n      mstore\n      0x20\n      add\n      0x00\n      keccak256\n        /* \"contracts/test/Locker.sol\":21054:21096  UserInfo storage user = users[_withdrawer] */\n      swap1\n      pop\n        /* \"contracts/test/Locker.sol\":21110:21114  user */\n      dup1\n        /* \"contracts/test/Locker.sol\":21110:21127  user.lockedTokens */\n      0x00\n      add\n        /* \"contracts/test/Locker.sol\":21133:21141  _lpToken */\n      dup12\n        /* \"contracts/test/Locker.sol\":21110:21142  user.lockedTokens.push(_lpToken) */\n      swap1\n      dup1\n      0x01\n      dup2\n      sload\n      add\n      dup1\n      dup3\n      sstore\n      dup1\n      swap2\n      pop\n      pop\n      0x01\n      swap1\n      sub\n      swap1\n      0x00\n      mstore\n      keccak256(0x00, 0x20)\n      add\n      0x00\n      swap1\n      swap2\n      swap1\n      swap2\n      swap1\n      swap2\n      0x0100\n      exp\n      dup2\n      sload\n      dup2\n      sub(shl(0xa0, 0x01), 0x01)\n      mul\n      not\n      and\n      swap1\n      dup4\n      sub(shl(0xa0, 0x01), 0x01)\n      and\n      mul\n      or\n      swap1\n      sstore\n      pop\n        /* \"contracts/test/Locker.sol\":21156:21184  uint256[] storage user_locks */\n      0x00\n        /* \"contracts/test/Locker.sol\":21187:21191  user */\n      dup2\n        /* \"contracts/test/Locker.sol\":21187:21205  user.locksForToken */\n      0x01\n      add\n        /* \"contracts/test/Locker.sol\":21187:21215  user.locksForToken[_lpToken] */\n      0x00\n        /* \"contracts/test/Locker.sol\":21206:21214  _lpToken */\n      dup14\n      sub(shl(0xa0, 0x01), 0x01)\n        /* \"contracts/test/Locker.sol\":21187:21215  user.locksForToken[_lpToken] */\n      and\n      sub(shl(0xa0, 0x01), 0x01)\n      and\n      dup2\n      mstore\n      0x20\n      add\n      swap1\n      dup2\n      mstore\n      0x20\n      add\n      0x00\n      keccak256\n        /* \"contracts/test/Locker.sol\":21156:21215  uint256[] storage user_locks = user.locksForToken[_lpToken] */\n      swap1\n      pop\n        /* \"contracts/test/Locker.sol\":21229:21239  user_locks */\n      dup1\n        /* \"contracts/test/Locker.sol\":21245:21255  token_lock */\n      dup4\n        /* \"contracts/test/Locker.sol\":21245:21262  token_lock.lockID */\n      0x80\n      add\n      mload\n        /* \"contracts/test/Locker.sol\":21229:21263  user_locks.push(token_lock.lockID) */\n      swap1\n      dup1\n      0x01\n      dup2\n      sload\n      add\n      dup1\n      dup3\n      sstore\n      dup1\n      swap2\n      pop\n      pop\n      0x01\n      swap1\n      sub\n      swap1\n      0x00\n      mstore\n      keccak256(0x00, 0x20)\n      add\n      0x00\n      swap1\n      swap2\n      swap1\n      swap2\n      swap1\n      swap2\n      pop\n      sstore\n        /* \"contracts/test/Locker.sol\":21282:21470  onDeposit(... */\n      0x830357565da6ecfc26d8d9f69df488ed6f70361af9a07e570544aeb5c5e765e5\n        /* \"contracts/test/Locker.sol\":21309:21317  _lpToken */\n      dup13\n        /* \"contracts/test/Locker.sol\":21335:21345  msg.sender */\n      caller\n        /* \"contracts/test/Locker.sol\":21363:21373  token_lock */\n      dup6\n        /* \"contracts/test/Locker.sol\":21363:21380  token_lock.amount */\n      0x20\n      add\n      mload\n        /* \"contracts/test/Locker.sol\":21398:21408  token_lock */\n      dup7\n        /* \"contracts/test/Locker.sol\":21398:21417  token_lock.lockDate */\n      0x00\n      add\n      mload\n        /* \"contracts/test/Locker.sol\":21435:21445  token_lock */\n      dup8\n        /* \"contracts/test/Locker.sol\":21435:21456  token_lock.unlockDate */\n      0x60\n      add\n      mload\n        /* \"contracts/test/Locker.sol\":21282:21470  onDeposit(... */\n      mload(0x40)\n      tag_392\n      swap6\n      swap5\n      swap4\n      swap3\n      swap2\n      swap1\n      tag_393\n      jump\t// in\n    tag_392:\n      mload(0x40)\n      dup1\n      swap2\n      sub\n      swap1\n      log1\n        /* \"contracts/test/Locker.sol\":20028:21481  {... */\n      pop\n      pop\n      pop\n      pop\n      pop\n        /* \"contracts/test/Locker.sol\":19624:21481  if(feeBlocklist[msg.sender] == true){... */\n    tag_378:\n      pop\n      pop\n        /* \"contracts/test/Locker.sol\":6256:6257  1 */\n      0x01\n        /* \"contracts/test/Locker.sol\":7181:7203  _status = _NOT_ENTERED */\n      dup1\n      sstore\n      pop\n      pop\n      pop\n      pop\n      pop\n        /* \"contracts/test/Locker.sol\":16929:21487  function lockLPToken(... */\n      jump\t// out\n        /* \"contracts/test/Locker.sol\":24859:26040  function incrementLock(... */\n    tag_138:\n        /* \"contracts/test/Locker.sol\":6299:6300  2 */\n      0x02\n        /* \"contracts/test/Locker.sol\":6878:6885  _status */\n      sload(0x01)\n        /* \"contracts/test/Locker.sol\":6878:6897  _status != _ENTERED */\n      sub\n        /* \"contracts/test/Locker.sol\":6870:6933  require(_status != _ENTERED, \"ReentrancyGuard: reentrant call\") */\n      tag_397\n      jumpi\n      mload(0x40)\n      shl(0xe5, 0x461bcd)\n      dup2\n      mstore\n      0x04\n      add\n      tag_178\n      swap1\n      tag_185\n      jump\t// in\n    tag_397:\n        /* \"contracts/test/Locker.sol\":6299:6300  2 */\n      0x02\n        /* \"contracts/test/Locker.sol\":7008:7015  _status */\n      0x01\n        /* \"contracts/test/Locker.sol\":7008:7026  _status = _ENTERED */\n      sstore\n        /* \"contracts/test/Locker.sol\":25041:25051  msg.sender */\n      caller\n        /* \"contracts/test/Locker.sol\":25028:25052  feeBlocklist[msg.sender] */\n      0x00\n      swap1\n      dup2\n      mstore\n        /* \"contracts/test/Locker.sol\":25028:25040  feeBlocklist */\n      0x0b\n        /* \"contracts/test/Locker.sol\":25028:25052  feeBlocklist[msg.sender] */\n      0x20\n      mstore\n      0x40\n      swap1\n      keccak256\n      sload\n      0xff\n      and\n        /* \"contracts/test/Locker.sol\":25028:25061  feeBlocklist[msg.sender] == false */\n      iszero\n        /* \"contracts/test/Locker.sol\":25020:25062  require(feeBlocklist[msg.sender] == false) */\n      tag_400\n      jumpi\n      0x00\n      dup1\n      revert\n    tag_400:\n        /* \"contracts/test/Locker.sol\":25090:25091  0 */\n      0x00\n        /* \"contracts/test/Locker.sol\":25080:25087  _amount */\n      dup2\n        /* \"contracts/test/Locker.sol\":25080:25091  _amount > 0 */\n      gt\n        /* \"contracts/test/Locker.sol\":25072:25107  require(_amount > 0, \"ZERO AMOUNT\") */\n      tag_401\n      jumpi\n      mload(0x40)\n      shl(0xe5, 0x461bcd)\n      dup2\n      mstore\n      0x04\n      add\n      tag_178\n      swap1\n      tag_236\n      jump\t// in\n    tag_401:\n        /* \"contracts/test/Locker.sol\":25140:25150  msg.sender */\n      caller\n        /* \"contracts/test/Locker.sol\":25117:25131  uint256 lockID */\n      0x00\n        /* \"contracts/test/Locker.sol\":25134:25151  users[msg.sender] */\n      swap1\n      dup2\n      mstore\n        /* \"contracts/test/Locker.sol\":25134:25139  users */\n      0x03\n        /* \"contracts/test/Locker.sol\":25134:25151  users[msg.sender] */\n      0x20\n      swap1\n      dup2\n      mstore\n      0x40\n      dup1\n      dup4\n      keccak256\n      sub(shl(0xa0, 0x01), 0x01)\n        /* \"contracts/test/Locker.sol\":25134:25175  users[msg.sender].locksForToken[_lpToken] */\n      dup9\n      and\n      dup5\n      mstore\n        /* \"contracts/test/Locker.sol\":25134:25165  users[msg.sender].locksForToken */\n      0x01\n      add\n        /* \"contracts/test/Locker.sol\":25134:25175  users[msg.sender].locksForToken[_lpToken] */\n      swap1\n      swap2\n      mstore\n      dup2\n      keccak256\n        /* \"contracts/test/Locker.sol\":25134:25183  users[msg.sender].locksForToken[_lpToken][_index] */\n      dup1\n      sload\n        /* \"contracts/test/Locker.sol\":25176:25182  _index */\n      dup6\n      swap1\n        /* \"contracts/test/Locker.sol\":25134:25183  users[msg.sender].locksForToken[_lpToken][_index] */\n      dup2\n      lt\n      tag_404\n      jumpi\n      tag_404\n      tag_171\n      jump\t// in\n    tag_404:\n      swap1\n      0x00\n      mstore\n      keccak256(0x00, 0x20)\n      add\n      sload\n        /* \"contracts/test/Locker.sol\":25117:25183  uint256 lockID = users[msg.sender].locksForToken[_lpToken][_index] */\n      swap1\n      pop\n        /* \"contracts/test/Locker.sol\":25193:25219  TokenLock storage userLock */\n      0x00\n        /* \"contracts/test/Locker.sol\":25222:25232  tokenLocks */\n      0x04\n        /* \"contracts/test/Locker.sol\":25222:25242  tokenLocks[_lpToken] */\n      0x00\n        /* \"contracts/test/Locker.sol\":25233:25241  _lpToken */\n      dup8\n      sub(shl(0xa0, 0x01), 0x01)\n        /* \"contracts/test/Locker.sol\":25222:25242  tokenLocks[_lpToken] */\n      and\n      sub(shl(0xa0, 0x01), 0x01)\n      and\n      dup2\n      mstore\n      0x20\n      add\n      swap1\n      dup2\n      mstore\n      0x20\n      add\n      0x00\n      keccak256\n        /* \"contracts/test/Locker.sol\":25243:25249  lockID */\n      dup3\n        /* \"contracts/test/Locker.sol\":25222:25250  tokenLocks[_lpToken][lockID] */\n      dup2\n      sload\n      dup2\n      lt\n      tag_407\n      jumpi\n      tag_407\n      tag_171\n      jump\t// in\n    tag_407:\n      swap1\n      0x00\n      mstore\n      keccak256(0x00, 0x20)\n      swap1\n      0x06\n      mul\n      add\n        /* \"contracts/test/Locker.sol\":25193:25250  TokenLock storage userLock = tokenLocks[_lpToken][lockID] */\n      swap1\n      pop\n        /* \"contracts/test/Locker.sol\":25291:25298  _lockID */\n      dup4\n        /* \"contracts/test/Locker.sol\":25281:25287  lockID */\n      dup3\n        /* \"contracts/test/Locker.sol\":25281:25298  lockID == _lockID */\n      eq\n        /* \"contracts/test/Locker.sol\":25281:25330  lockID == _lockID && userLock.owner == msg.sender */\n      dup1\n      iszero\n      tag_409\n      jumpi\n      pop\n        /* \"contracts/test/Locker.sol\":25302:25316  userLock.owner */\n      0x05\n      dup2\n      add\n      sload\n      sub(shl(0xa0, 0x01), 0x01)\n      and\n        /* \"contracts/test/Locker.sol\":25320:25330  msg.sender */\n      caller\n        /* \"contracts/test/Locker.sol\":25302:25330  userLock.owner == msg.sender */\n      eq\n        /* \"contracts/test/Locker.sol\":25281:25330  lockID == _lockID && userLock.owner == msg.sender */\n    tag_409:\n        /* \"contracts/test/Locker.sol\":25260:25369  require(... */\n      tag_410\n      jumpi\n      mload(0x40)\n      shl(0xe5, 0x461bcd)\n      dup2\n      mstore\n      0x04\n      add\n      tag_178\n      swap1\n      tag_199\n      jump\t// in\n    tag_410:\n        /* \"contracts/test/Locker.sol\":25416:25560  TransferHelper.safeTransferFrom(... */\n      tag_412\n        /* \"contracts/test/Locker.sol\":25461:25469  _lpToken */\n      dup7\n        /* \"contracts/test/Locker.sol\":25491:25501  msg.sender */\n      caller\n        /* \"contracts/test/Locker.sol\":25524:25528  this */\n      address\n        /* \"contracts/test/Locker.sol\":25543:25550  _amount */\n      dup7\n        /* \"contracts/test/Locker.sol\":25416:25447  TransferHelper.safeTransferFrom */\n      tag_348\n        /* \"contracts/test/Locker.sol\":25416:25560  TransferHelper.safeTransferFrom(... */\n      jump\t// in\n    tag_412:\n        /* \"contracts/test/Locker.sol\":25612:25632  uint256 liquidityFee */\n      0x00\n        /* \"contracts/test/Locker.sol\":25635:25676  _amount.mul(gFees.liquidityFee).div(1000) */\n      tag_413\n        /* \"contracts/test/Locker.sol\":25671:25675  1000 */\n      0x03e8\n        /* \"contracts/test/Locker.sol\":25635:25666  _amount.mul(gFees.liquidityFee) */\n      tag_286\n        /* \"contracts/test/Locker.sol\":25647:25652  gFees */\n      0x05\n        /* \"contracts/test/Locker.sol\":25647:25665  gFees.liquidityFee */\n      0x04\n      add\n      sload\n        /* \"contracts/test/Locker.sol\":25635:25642  _amount */\n      dup8\n        /* \"contracts/test/Locker.sol\":25635:25646  _amount.mul */\n      tag_287\n      swap1\n        /* \"contracts/test/Locker.sol\":25635:25666  _amount.mul(gFees.liquidityFee) */\n      swap2\n      swap1\n      0xffffffff\n      and\n      jump\t// in\n        /* \"contracts/test/Locker.sol\":25635:25676  _amount.mul(gFees.liquidityFee).div(1000) */\n    tag_413:\n        /* \"contracts/test/Locker.sol\":25724:25727  ops */\n      sload(0x0d)\n        /* \"contracts/test/Locker.sol\":25612:25676  uint256 liquidityFee = _amount.mul(gFees.liquidityFee).div(1000) */\n      swap1\n      swap2\n      pop\n        /* \"contracts/test/Locker.sol\":25686:25742  TransferHelper.safeTransfer(_lpToken, ops, liquidityFee) */\n      tag_415\n      swap1\n        /* \"contracts/test/Locker.sol\":25714:25722  _lpToken */\n      dup9\n      swap1\n      sub(shl(0xa0, 0x01), 0x01)\n        /* \"contracts/test/Locker.sol\":25724:25727  ops */\n      and\n        /* \"contracts/test/Locker.sol\":25612:25676  uint256 liquidityFee = _amount.mul(gFees.liquidityFee).div(1000) */\n      dup4\n        /* \"contracts/test/Locker.sol\":25686:25713  TransferHelper.safeTransfer */\n      tag_224\n        /* \"contracts/test/Locker.sol\":25686:25742  TransferHelper.safeTransfer(_lpToken, ops, liquidityFee) */\n      jump\t// in\n    tag_415:\n        /* \"contracts/test/Locker.sol\":25752:25772  uint256 amountLocked */\n      0x00\n        /* \"contracts/test/Locker.sol\":25775:25800  _amount.sub(liquidityFee) */\n      tag_416\n        /* \"contracts/test/Locker.sol\":25775:25782  _amount */\n      dup6\n        /* \"contracts/test/Locker.sol\":25787:25799  liquidityFee */\n      dup4\n        /* \"contracts/test/Locker.sol\":25775:25786  _amount.sub */\n      tag_204\n        /* \"contracts/test/Locker.sol\":25775:25800  _amount.sub(liquidityFee) */\n      jump\t// in\n    tag_416:\n        /* \"contracts/test/Locker.sol\":25829:25844  userLock.amount */\n      0x01\n      dup5\n      add\n      sload\n        /* \"contracts/test/Locker.sol\":25752:25800  uint256 amountLocked = _amount.sub(liquidityFee) */\n      swap1\n      swap2\n      pop\n        /* \"contracts/test/Locker.sol\":25829:25862  userLock.amount.add(amountLocked) */\n      tag_417\n      swap1\n        /* \"contracts/test/Locker.sol\":25752:25800  uint256 amountLocked = _amount.sub(liquidityFee) */\n      dup3\n        /* \"contracts/test/Locker.sol\":25829:25848  userLock.amount.add */\n      tag_418\n        /* \"contracts/test/Locker.sol\":25829:25862  userLock.amount.add(amountLocked) */\n      jump\t// in\n    tag_417:\n        /* \"contracts/test/Locker.sol\":25811:25826  userLock.amount */\n      0x01\n      dup5\n      add\n        /* \"contracts/test/Locker.sol\":25811:25862  userLock.amount = userLock.amount.add(amountLocked) */\n      sstore\n        /* \"contracts/test/Locker.sol\":25973:25990  userLock.lockDate */\n      dup3\n      sload\n        /* \"contracts/test/Locker.sol\":26004:26023  userLock.unlockDate */\n      0x03\n      dup5\n      add\n      sload\n        /* \"contracts/test/Locker.sol\":25878:26033  onDeposit(... */\n      mload(0x40)\n      0x830357565da6ecfc26d8d9f69df488ed6f70361af9a07e570544aeb5c5e765e5\n      swap3\n      tag_419\n      swap3\n        /* \"contracts/test/Locker.sol\":25901:25909  _lpToken */\n      dup13\n      swap3\n        /* \"contracts/test/Locker.sol\":25923:25933  msg.sender */\n      caller\n      swap3\n        /* \"contracts/test/Locker.sol\":25947:25959  amountLocked */\n      dup8\n      swap3\n        /* \"contracts/test/Locker.sol\":25973:25990  userLock.lockDate */\n      swap1\n      swap2\n        /* \"contracts/test/Locker.sol\":25878:26033  onDeposit(... */\n      tag_393\n      jump\t// in\n    tag_419:\n      mload(0x40)\n      dup1\n      swap2\n      sub\n      swap1\n      log1\n      pop\n      pop\n        /* \"contracts/test/Locker.sol\":6256:6257  1 */\n      0x01\n        /* \"contracts/test/Locker.sol\":7181:7203  _status = _NOT_ENTERED */\n      dup1\n      sstore\n      pop\n      pop\n      pop\n      pop\n      pop\n      pop\n        /* \"contracts/test/Locker.sol\":24859:26040  function incrementLock(... */\n      jump\t// out\n        /* \"contracts/test/Locker.sol\":16360:16500  function blocklistAccount(address payable _user, bool _add)... */\n    tag_142:\n        /* \"contracts/test/Locker.sol\":2371:2377  _owner */\n      and(sub(shl(0xa0, 0x01), 0x01), sload(0x00))\n        /* \"contracts/test/Locker.sol\":909:919  msg.sender */\n      caller\n        /* \"contracts/test/Locker.sol\":2371:2393  _owner == _msgSender() */\n      eq\n        /* \"contracts/test/Locker.sol\":2363:2430  require(_owner == _msgSender(), \"Ownable: caller is not the owner\") */\n      tag_423\n      jumpi\n      mload(0x40)\n      shl(0xe5, 0x461bcd)\n      dup2\n      mstore\n      0x04\n      add\n      tag_178\n      swap1\n      tag_179\n      jump\t// in\n    tag_423:\n      sub(shl(0xa0, 0x01), 0x01)\n        /* \"contracts/test/Locker.sol\":16467:16486  feeBlocklist[_user] */\n      swap2\n      swap1\n      swap2\n      and\n      0x00\n      swap1\n      dup2\n      mstore\n        /* \"contracts/test/Locker.sol\":16467:16479  feeBlocklist */\n      0x0b\n        /* \"contracts/test/Locker.sol\":16467:16486  feeBlocklist[_user] */\n      0x20\n      mstore\n      0x40\n      swap1\n      keccak256\n        /* \"contracts/test/Locker.sol\":16467:16493  feeBlocklist[_user] = _add */\n      dup1\n      sload\n      not(0xff)\n      and\n      swap2\n      iszero\n      iszero\n      swap2\n      swap1\n      swap2\n      or\n      swap1\n      sstore\n        /* \"contracts/test/Locker.sol\":16360:16500  function blocklistAccount(address payable _user, bool _add)... */\n      jump\t// out\n        /* \"contracts/test/Locker.sol\":27657:28846  function transferLockOwnership(... */\n    tag_147:\n        /* \"contracts/test/Locker.sol\":27852:27862  msg.sender */\n      caller\n        /* \"contracts/test/Locker.sol\":27839:27863  feeBlocklist[msg.sender] */\n      0x00\n      swap1\n      dup2\n      mstore\n        /* \"contracts/test/Locker.sol\":27839:27851  feeBlocklist */\n      0x0b\n        /* \"contracts/test/Locker.sol\":27839:27863  feeBlocklist[msg.sender] */\n      0x20\n      mstore\n      0x40\n      swap1\n      keccak256\n      sload\n      0xff\n      and\n        /* \"contracts/test/Locker.sol\":27839:27872  feeBlocklist[msg.sender] == false */\n      iszero\n        /* \"contracts/test/Locker.sol\":27831:27873  require(feeBlocklist[msg.sender] == false) */\n      tag_427\n      jumpi\n      0x00\n      dup1\n      revert\n    tag_427:\n      sub(shl(0xa0, 0x01), 0x01)\n        /* \"contracts/test/Locker.sol\":27891:27914  msg.sender != _newOwner */\n      dup2\n      and\n        /* \"contracts/test/Locker.sol\":27891:27901  msg.sender */\n      caller\n        /* \"contracts/test/Locker.sol\":27891:27914  msg.sender != _newOwner */\n      sub\n        /* \"contracts/test/Locker.sol\":27883:27924  require(msg.sender != _newOwner, \"OWNER\") */\n      tag_428\n      jumpi\n      mload(0x40)\n      shl(0xe5, 0x461bcd)\n      dup2\n      mstore\n        /* \"#utility.yul\":14163:14165   */\n      0x20\n        /* \"contracts/test/Locker.sol\":27883:27924  require(msg.sender != _newOwner, \"OWNER\") */\n      0x04\n      dup3\n      add\n        /* \"#utility.yul\":14145:14166   */\n      mstore\n        /* \"#utility.yul\":14202:14203   */\n      0x05\n        /* \"#utility.yul\":14182:14200   */\n      0x24\n      dup3\n      add\n        /* \"#utility.yul\":14175:14204   */\n      mstore\n      shl(0xd9, 0x27aba722a9)\n        /* \"#utility.yul\":14220:14238   */\n      0x44\n      dup3\n      add\n        /* \"#utility.yul\":14213:14248   */\n      mstore\n        /* \"#utility.yul\":14265:14283   */\n      0x64\n      add\n        /* \"contracts/test/Locker.sol\":27883:27924  require(msg.sender != _newOwner, \"OWNER\") */\n      tag_178\n        /* \"#utility.yul\":13961:14289   */\n      jump\n        /* \"contracts/test/Locker.sol\":27883:27924  require(msg.sender != _newOwner, \"OWNER\") */\n    tag_428:\n        /* \"contracts/test/Locker.sol\":27957:27967  msg.sender */\n      caller\n        /* \"contracts/test/Locker.sol\":27934:27948  uint256 lockID */\n      0x00\n        /* \"contracts/test/Locker.sol\":27951:27968  users[msg.sender] */\n      swap1\n      dup2\n      mstore\n        /* \"contracts/test/Locker.sol\":27951:27956  users */\n      0x03\n        /* \"contracts/test/Locker.sol\":27951:27968  users[msg.sender] */\n      0x20\n      swap1\n      dup2\n      mstore\n      0x40\n      dup1\n      dup4\n      keccak256\n      sub(shl(0xa0, 0x01), 0x01)\n        /* \"contracts/test/Locker.sol\":27951:27992  users[msg.sender].locksForToken[_lpToken] */\n      dup9\n      and\n      dup5\n      mstore\n        /* \"contracts/test/Locker.sol\":27951:27982  users[msg.sender].locksForToken */\n      0x01\n      add\n        /* \"contracts/test/Locker.sol\":27951:27992  users[msg.sender].locksForToken[_lpToken] */\n      swap1\n      swap2\n      mstore\n      dup2\n      keccak256\n        /* \"contracts/test/Locker.sol\":27951:28000  users[msg.sender].locksForToken[_lpToken][_index] */\n      dup1\n      sload\n        /* \"contracts/test/Locker.sol\":27993:27999  _index */\n      dup6\n      swap1\n        /* \"contracts/test/Locker.sol\":27951:28000  users[msg.sender].locksForToken[_lpToken][_index] */\n      dup2\n      lt\n      tag_432\n      jumpi\n      tag_432\n      tag_171\n      jump\t// in\n    tag_432:\n      swap1\n      0x00\n      mstore\n      keccak256(0x00, 0x20)\n      add\n      sload\n        /* \"contracts/test/Locker.sol\":27934:28000  uint256 lockID = users[msg.sender].locksForToken[_lpToken][_index] */\n      swap1\n      pop\n        /* \"contracts/test/Locker.sol\":28010:28043  TokenLock storage transferredLock */\n      0x00\n        /* \"contracts/test/Locker.sol\":28046:28056  tokenLocks */\n      0x04\n        /* \"contracts/test/Locker.sol\":28046:28066  tokenLocks[_lpToken] */\n      0x00\n        /* \"contracts/test/Locker.sol\":28057:28065  _lpToken */\n      dup8\n      sub(shl(0xa0, 0x01), 0x01)\n        /* \"contracts/test/Locker.sol\":28046:28066  tokenLocks[_lpToken] */\n      and\n      sub(shl(0xa0, 0x01), 0x01)\n      and\n      dup2\n      mstore\n      0x20\n      add\n      swap1\n      dup2\n      mstore\n      0x20\n      add\n      0x00\n      keccak256\n        /* \"contracts/test/Locker.sol\":28067:28073  lockID */\n      dup3\n        /* \"contracts/test/Locker.sol\":28046:28074  tokenLocks[_lpToken][lockID] */\n      dup2\n      sload\n      dup2\n      lt\n      tag_435\n      jumpi\n      tag_435\n      tag_171\n      jump\t// in\n    tag_435:\n      swap1\n      0x00\n      mstore\n      keccak256(0x00, 0x20)\n      swap1\n      0x06\n      mul\n      add\n        /* \"contracts/test/Locker.sol\":28010:28074  TokenLock storage transferredLock = tokenLocks[_lpToken][lockID] */\n      swap1\n      pop\n        /* \"contracts/test/Locker.sol\":28115:28122  _lockID */\n      dup4\n        /* \"contracts/test/Locker.sol\":28105:28111  lockID */\n      dup3\n        /* \"contracts/test/Locker.sol\":28105:28122  lockID == _lockID */\n      eq\n        /* \"contracts/test/Locker.sol\":28105:28161  lockID == _lockID && transferredLock.owner == msg.sender */\n      dup1\n      iszero\n      tag_437\n      jumpi\n      pop\n        /* \"contracts/test/Locker.sol\":28126:28147  transferredLock.owner */\n      0x05\n      dup2\n      add\n      sload\n      sub(shl(0xa0, 0x01), 0x01)\n      and\n        /* \"contracts/test/Locker.sol\":28151:28161  msg.sender */\n      caller\n        /* \"contracts/test/Locker.sol\":28126:28161  transferredLock.owner == msg.sender */\n      eq\n        /* \"contracts/test/Locker.sol\":28105:28161  lockID == _lockID && transferredLock.owner == msg.sender */\n    tag_437:\n        /* \"contracts/test/Locker.sol\":28084:28200  require(... */\n      tag_438\n      jumpi\n      mload(0x40)\n      shl(0xe5, 0x461bcd)\n      dup2\n      mstore\n      0x04\n      add\n      tag_178\n      swap1\n      tag_199\n      jump\t// in\n    tag_438:\n      sub(shl(0xa0, 0x01), 0x01)\n        /* \"contracts/test/Locker.sol\":28316:28332  users[_newOwner] */\n      dup4\n      dup2\n      and\n        /* \"contracts/test/Locker.sol\":28292:28313  UserInfo storage user */\n      0x00\n        /* \"contracts/test/Locker.sol\":28316:28332  users[_newOwner] */\n      swap1\n      dup2\n      mstore\n        /* \"contracts/test/Locker.sol\":28316:28321  users */\n      0x03\n        /* \"contracts/test/Locker.sol\":28316:28332  users[_newOwner] */\n      0x20\n      dup2\n      dup2\n      mstore\n      0x40\n      dup1\n      dup5\n      keccak256\n        /* \"contracts/test/Locker.sol\":28342:28374  user.lockedTokens.push(_lpToken) */\n      dup1\n      sload\n      0x01\n      dup1\n      dup3\n      add\n      dup4\n      sstore\n      dup3\n      dup8\n      mstore\n      dup5\n      dup8\n      keccak256\n      swap1\n      swap2\n      add\n      dup1\n      sload\n      not(sub(shl(0xa0, 0x01), 0x01))\n      and\n      swap8\n      dup15\n      and\n      swap8\n      dup9\n      or\n      swap1\n      sstore\n        /* \"contracts/test/Locker.sol\":28415:28443  user.locksForToken[_lpToken] */\n      dup7\n      dup7\n      mstore\n        /* \"contracts/test/Locker.sol\":28415:28433  user.locksForToken */\n      dup1\n      dup3\n      add\n        /* \"contracts/test/Locker.sol\":28415:28443  user.locksForToken[_lpToken] */\n      dup5\n      mstore\n      dup3\n      dup7\n      keccak256\n        /* \"contracts/test/Locker.sol\":28469:28491  transferredLock.lockID */\n      0x04\n      dup10\n      add\n      sload\n        /* \"contracts/test/Locker.sol\":28453:28492  user_locks.push(transferredLock.lockID) */\n      dup2\n      sload\n      dup1\n      dup5\n      add\n      dup4\n      sstore\n      dup3\n      dup10\n      mstore\n      dup7\n      dup10\n      keccak256\n      add\n      sstore\n        /* \"contracts/test/Locker.sol\":28585:28595  msg.sender */\n      caller\n        /* \"contracts/test/Locker.sol\":28579:28596  users[msg.sender] */\n      dup8\n      mstore\n      swap5\n      dup5\n      mstore\n      dup3\n      dup7\n      keccak256\n        /* \"contracts/test/Locker.sol\":28579:28620  users[msg.sender].locksForToken[_lpToken] */\n      swap7\n      dup7\n      mstore\n        /* \"contracts/test/Locker.sol\":28579:28610  users[msg.sender].locksForToken */\n      swap6\n      dup7\n      add\n        /* \"contracts/test/Locker.sol\":28579:28620  users[msg.sender].locksForToken[_lpToken] */\n      swap1\n      swap3\n      mstore\n      swap1\n      swap3\n      keccak256\n        /* \"contracts/test/Locker.sol\":28660:28676  userLocks.length */\n      dup1\n      sload\n        /* \"contracts/test/Locker.sol\":28316:28332  users[_newOwner] */\n      swap3\n      swap4\n        /* \"contracts/test/Locker.sol\":28415:28443  user.locksForToken[_lpToken] */\n      swap2\n      swap3\n        /* \"contracts/test/Locker.sol\":28579:28620  users[msg.sender].locksForToken[_lpToken] */\n      swap1\n      swap2\n      dup3\n      swap2\n        /* \"contracts/test/Locker.sol\":28660:28680  userLocks.length - 1 */\n      tag_442\n      swap2\n        /* \"contracts/test/Locker.sol\":28342:28374  user.lockedTokens.push(_lpToken) */\n      swap1\n        /* \"contracts/test/Locker.sol\":28660:28680  userLocks.length - 1 */\n      tag_207\n      jump\t// in\n    tag_442:\n        /* \"contracts/test/Locker.sol\":28650:28681  userLocks[userLocks.length - 1] */\n      dup2\n      sload\n      dup2\n      lt\n      tag_444\n      jumpi\n      tag_444\n      tag_171\n      jump\t// in\n    tag_444:\n      swap1\n      0x00\n      mstore\n      keccak256(0x00, 0x20)\n      add\n      sload\n        /* \"contracts/test/Locker.sol\":28630:28639  userLocks */\n      dup2\n        /* \"contracts/test/Locker.sol\":28640:28646  _index */\n      dup10\n        /* \"contracts/test/Locker.sol\":28630:28647  userLocks[_index] */\n      dup2\n      sload\n      dup2\n      lt\n      tag_447\n      jumpi\n      tag_447\n      tag_171\n      jump\t// in\n    tag_447:\n      swap1\n      0x00\n      mstore\n      keccak256(0x00, 0x20)\n      add\n        /* \"contracts/test/Locker.sol\":28630:28681  userLocks[_index] = userLocks[userLocks.length - 1] */\n      dup2\n      swap1\n      sstore\n      pop\n        /* \"contracts/test/Locker.sol\":28691:28700  userLocks */\n      dup1\n        /* \"contracts/test/Locker.sol\":28691:28706  userLocks.pop() */\n      dup1\n      sload\n      dup1\n      tag_450\n      jumpi\n      tag_450\n      tag_216\n      jump\t// in\n    tag_450:\n      0x01\n      swap1\n      sub\n      dup2\n      dup2\n      swap1\n      0x00\n      mstore\n      keccak256(0x00, 0x20)\n      add\n      0x00\n      swap1\n      sstore\n      swap1\n      sstore\n        /* \"contracts/test/Locker.sol\":28720:28729  userLocks */\n      dup1\n        /* \"contracts/test/Locker.sol\":28720:28736  userLocks.length */\n      dup1\n      sload\n      swap1\n      pop\n        /* \"contracts/test/Locker.sol\":28740:28741  0 */\n      0x00\n        /* \"contracts/test/Locker.sol\":28720:28741  userLocks.length == 0 */\n      sub\n        /* \"contracts/test/Locker.sol\":28716:28797  if (userLocks.length == 0) {... */\n      tag_452\n      jumpi\n      sub(shl(0xa0, 0x01), 0x01)\n        /* \"contracts/test/Locker.sol\":28757:28779  user_removed[_lpToken] */\n      dup10\n      and\n      0x00\n      swap1\n      dup2\n      mstore\n        /* \"contracts/test/Locker.sol\":28757:28769  user_removed */\n      0x0c\n        /* \"contracts/test/Locker.sol\":28757:28779  user_removed[_lpToken] */\n      0x20\n      mstore\n      0x40\n      swap1\n      keccak256\n        /* \"contracts/test/Locker.sol\":28757:28786  user_removed[_lpToken] = true */\n      dup1\n      sload\n      not(0xff)\n      and\n        /* \"contracts/test/Locker.sol\":28782:28786  true */\n      0x01\n        /* \"contracts/test/Locker.sol\":28757:28786  user_removed[_lpToken] = true */\n      or\n      swap1\n      sstore\n        /* \"contracts/test/Locker.sol\":28716:28797  if (userLocks.length == 0) {... */\n    tag_452:\n      pop\n      pop\n      pop\n        /* \"contracts/test/Locker.sol\":28806:28827  transferredLock.owner */\n      0x05\n      add\n        /* \"contracts/test/Locker.sol\":28806:28839  transferredLock.owner = _newOwner */\n      dup1\n      sload\n      not(sub(shl(0xa0, 0x01), 0x01))\n      and\n      sub(shl(0xa0, 0x01), 0x01)\n      swap4\n      swap1\n      swap4\n      and\n      swap3\n      swap1\n      swap3\n      or\n      swap1\n      swap2\n      sstore\n      pop\n      pop\n      pop\n      pop\n        /* \"contracts/test/Locker.sol\":27657:28846  function transferLockOwnership(... */\n      jump\t// out\n        /* \"contracts/test/Locker.sol\":14059:14108  mapping(address => TokenLock[]) public tokenLocks */\n    tag_151:\n      mstore(0x20, 0x04)\n      dup2\n      0x00\n      mstore\n      keccak256(0x00, 0x40)\n      dup2\n      dup2\n      sload\n      dup2\n      lt\n      tag_453\n      jumpi\n      0x00\n      dup1\n      revert\n    tag_453:\n      0x00\n      swap2\n      dup3\n      mstore\n      0x20\n      swap1\n      swap2\n      keccak256\n      0x06\n      swap1\n      swap2\n      mul\n      add\n      dup1\n      sload\n      0x01\n      dup3\n      add\n      sload\n      0x02\n      dup4\n      add\n      sload\n      0x03\n      dup5\n      add\n      sload\n      0x04\n      dup6\n      add\n      sload\n      0x05\n      swap1\n      swap6\n      add\n      sload\n      swap4\n      swap7\n      pop\n      swap2\n      swap5\n      pop\n      swap3\n      swap1\n      swap2\n      sub(shl(0xa0, 0x01), 0x01)\n      and\n      dup7\n      jump\t// out\n        /* \"contracts/test/Locker.sol\":31475:32142  function getUserLockForTokenAtIndex(... */\n    tag_158:\n        /* \"contracts/test/Locker.sol\":31650:31657  uint256 */\n      0x00\n        /* \"contracts/test/Locker.sol\":31671:31678  uint256 */\n      dup1\n        /* \"contracts/test/Locker.sol\":31692:31699  uint256 */\n      0x00\n        /* \"contracts/test/Locker.sol\":31713:31720  uint256 */\n      dup1\n        /* \"contracts/test/Locker.sol\":31734:31741  uint256 */\n      0x00\n        /* \"contracts/test/Locker.sol\":31755:31762  address */\n      dup1\n        /* \"contracts/test/Locker.sol\":31787:31801  uint256 lockID */\n      0x00\n        /* \"contracts/test/Locker.sol\":31804:31809  users */\n      0x03\n        /* \"contracts/test/Locker.sol\":31804:31816  users[_user] */\n      0x00\n        /* \"contracts/test/Locker.sol\":31810:31815  _user */\n      dup12\n      sub(shl(0xa0, 0x01), 0x01)\n        /* \"contracts/test/Locker.sol\":31804:31816  users[_user] */\n      and\n      sub(shl(0xa0, 0x01), 0x01)\n      and\n      dup2\n      mstore\n      0x20\n      add\n      swap1\n      dup2\n      mstore\n      0x20\n      add\n      0x00\n      keccak256\n        /* \"contracts/test/Locker.sol\":31804:31830  users[_user].locksForToken */\n      0x01\n      add\n        /* \"contracts/test/Locker.sol\":31804:31840  users[_user].locksForToken[_lpToken] */\n      0x00\n        /* \"contracts/test/Locker.sol\":31831:31839  _lpToken */\n      dup11\n      sub(shl(0xa0, 0x01), 0x01)\n        /* \"contracts/test/Locker.sol\":31804:31840  users[_user].locksForToken[_lpToken] */\n      and\n      sub(shl(0xa0, 0x01), 0x01)\n      and\n      dup2\n      mstore\n      0x20\n      add\n      swap1\n      dup2\n      mstore\n      0x20\n      add\n      0x00\n      keccak256\n        /* \"contracts/test/Locker.sol\":31841:31847  _index */\n      dup9\n        /* \"contracts/test/Locker.sol\":31804:31848  users[_user].locksForToken[_lpToken][_index] */\n      dup2\n      sload\n      dup2\n      lt\n      tag_457\n      jumpi\n      tag_457\n      tag_171\n      jump\t// in\n    tag_457:\n      swap1\n      0x00\n      mstore\n      keccak256(0x00, 0x20)\n      add\n      sload\n        /* \"contracts/test/Locker.sol\":31787:31848  uint256 lockID = users[_user].locksForToken[_lpToken][_index] */\n      swap1\n      pop\n        /* \"contracts/test/Locker.sol\":31858:31885  TokenLock storage tokenLock */\n      0x00\n        /* \"contracts/test/Locker.sol\":31888:31898  tokenLocks */\n      0x04\n        /* \"contracts/test/Locker.sol\":31888:31908  tokenLocks[_lpToken] */\n      0x00\n        /* \"contracts/test/Locker.sol\":31899:31907  _lpToken */\n      dup12\n      sub(shl(0xa0, 0x01), 0x01)\n        /* \"contracts/test/Locker.sol\":31888:31908  tokenLocks[_lpToken] */\n      and\n      sub(shl(0xa0, 0x01), 0x01)\n      and\n      dup2\n      mstore\n      0x20\n      add\n      swap1\n      dup2\n      mstore\n      0x20\n      add\n      0x00\n      keccak256\n        /* \"contracts/test/Locker.sol\":31909:31915  lockID */\n      dup3\n        /* \"contracts/test/Locker.sol\":31888:31916  tokenLocks[_lpToken][lockID] */\n      dup2\n      sload\n      dup2\n      lt\n      tag_460\n      jumpi\n      tag_460\n      tag_171\n      jump\t// in\n    tag_460:\n      0x00\n      swap2\n      dup3\n      mstore\n      0x20\n      swap1\n      swap2\n      keccak256\n      0x06\n      swap1\n      swap2\n      mul\n      add\n        /* \"contracts/test/Locker.sol\":31947:31965  tokenLock.lockDate */\n      dup1\n      sload\n        /* \"contracts/test/Locker.sol\":31979:31995  tokenLock.amount */\n      0x01\n      dup3\n      add\n      sload\n        /* \"contracts/test/Locker.sol\":32009:32032  tokenLock.initialAmount */\n      0x02\n      dup4\n      add\n      sload\n        /* \"contracts/test/Locker.sol\":32046:32066  tokenLock.unlockDate */\n      0x03\n      dup5\n      add\n      sload\n        /* \"contracts/test/Locker.sol\":32080:32096  tokenLock.lockID */\n      0x04\n      dup6\n      add\n      sload\n        /* \"contracts/test/Locker.sol\":32110:32125  tokenLock.owner */\n      0x05\n      swap1\n      swap6\n      add\n      sload\n        /* \"contracts/test/Locker.sol\":31947:31965  tokenLock.lockDate */\n      swap4\n      swap13\n      pop\n        /* \"contracts/test/Locker.sol\":31979:31995  tokenLock.amount */\n      swap2\n      swap11\n      pop\n        /* \"contracts/test/Locker.sol\":32009:32032  tokenLock.initialAmount */\n      swap9\n      pop\n        /* \"contracts/test/Locker.sol\":32046:32066  tokenLock.unlockDate */\n      swap7\n      pop\n        /* \"contracts/test/Locker.sol\":32080:32096  tokenLock.lockID */\n      swap1\n      swap5\n      pop\n      sub(shl(0xa0, 0x01), 0x01)\n        /* \"contracts/test/Locker.sol\":32110:32125  tokenLock.owner */\n      and\n      swap3\n      pop\n      pop\n      pop\n        /* \"contracts/test/Locker.sol\":31475:32142  function getUserLockForTokenAtIndex(... */\n      swap4\n      swap8\n      pop\n      swap4\n      swap8\n      swap2\n      swap6\n      pop\n      swap4\n      pop\n      jump\t// out\n        /* \"contracts/test/Locker.sol\":28916:30125  function migrate(... */\n    tag_163:\n        /* \"contracts/test/Locker.sol\":6299:6300  2 */\n      0x02\n        /* \"contracts/test/Locker.sol\":6878:6885  _status */\n      sload(0x01)\n        /* \"contracts/test/Locker.sol\":6878:6897  _status != _ENTERED */\n      sub\n        /* \"contracts/test/Locker.sol\":6870:6933  require(_status != _ENTERED, \"ReentrancyGuard: reentrant call\") */\n      tag_463\n      jumpi\n      mload(0x40)\n      shl(0xe5, 0x461bcd)\n      dup2\n      mstore\n      0x04\n      add\n      tag_178\n      swap1\n      tag_185\n      jump\t// in\n    tag_463:\n        /* \"contracts/test/Locker.sol\":6299:6300  2 */\n      0x02\n        /* \"contracts/test/Locker.sol\":7008:7015  _status */\n      0x01\n        /* \"contracts/test/Locker.sol\":7008:7026  _status = _ENTERED */\n      sstore\n        /* \"contracts/test/Locker.sol\":29087:29095  migrator */\n      and(sub(shl(0xa0, 0x01), 0x01), sload(0x0e))\n        /* \"contracts/test/Locker.sol\":29071:29122  require(address(migrator) != address(0), \"NOT SET\") */\n      tag_466\n      jumpi\n      mload(0x40)\n      shl(0xe5, 0x461bcd)\n      dup2\n      mstore\n        /* \"#utility.yul\":14496:14498   */\n      0x20\n        /* \"contracts/test/Locker.sol\":29071:29122  require(address(migrator) != address(0), \"NOT SET\") */\n      0x04\n      dup3\n      add\n        /* \"#utility.yul\":14478:14499   */\n      mstore\n        /* \"#utility.yul\":14535:14536   */\n      0x07\n        /* \"#utility.yul\":14515:14533   */\n      0x24\n      dup3\n      add\n        /* \"#utility.yul\":14508:14537   */\n      mstore\n      shl(0xca, 0x1393d50814d155)\n        /* \"#utility.yul\":14553:14571   */\n      0x44\n      dup3\n      add\n        /* \"#utility.yul\":14546:14583   */\n      mstore\n        /* \"#utility.yul\":14600:14618   */\n      0x64\n      add\n        /* \"contracts/test/Locker.sol\":29071:29122  require(address(migrator) != address(0), \"NOT SET\") */\n      tag_178\n        /* \"#utility.yul\":14294:14624   */\n      jump\n        /* \"contracts/test/Locker.sol\":29071:29122  require(address(migrator) != address(0), \"NOT SET\") */\n    tag_466:\n        /* \"contracts/test/Locker.sol\":29150:29151  0 */\n      0x00\n        /* \"contracts/test/Locker.sol\":29140:29147  _amount */\n      dup2\n        /* \"contracts/test/Locker.sol\":29140:29151  _amount > 0 */\n      gt\n        /* \"contracts/test/Locker.sol\":29132:29170  require(_amount > 0, \"ZERO MIGRATION\") */\n      tag_469\n      jumpi\n      mload(0x40)\n      shl(0xe5, 0x461bcd)\n      dup2\n      mstore\n        /* \"#utility.yul\":14831:14833   */\n      0x20\n        /* \"contracts/test/Locker.sol\":29132:29170  require(_amount > 0, \"ZERO MIGRATION\") */\n      0x04\n      dup3\n      add\n        /* \"#utility.yul\":14813:14834   */\n      mstore\n        /* \"#utility.yul\":14870:14872   */\n      0x0e\n        /* \"#utility.yul\":14850:14868   */\n      0x24\n      dup3\n      add\n        /* \"#utility.yul\":14843:14873   */\n      mstore\n      shl(0x91, 0x2d22a9279026a4a3a920aa24a7a7)\n        /* \"#utility.yul\":14889:14907   */\n      0x44\n      dup3\n      add\n        /* \"#utility.yul\":14882:14926   */\n      mstore\n        /* \"#utility.yul\":14943:14961   */\n      0x64\n      add\n        /* \"contracts/test/Locker.sol\":29132:29170  require(_amount > 0, \"ZERO MIGRATION\") */\n      tag_178\n        /* \"#utility.yul\":14629:14967   */\n      jump\n        /* \"contracts/test/Locker.sol\":29132:29170  require(_amount > 0, \"ZERO MIGRATION\") */\n    tag_469:\n        /* \"contracts/test/Locker.sol\":29201:29211  msg.sender */\n      caller\n        /* \"contracts/test/Locker.sol\":29188:29212  feeBlocklist[msg.sender] */\n      0x00\n      swap1\n      dup2\n      mstore\n        /* \"contracts/test/Locker.sol\":29188:29200  feeBlocklist */\n      0x0b\n        /* \"contracts/test/Locker.sol\":29188:29212  feeBlocklist[msg.sender] */\n      0x20\n      mstore\n      0x40\n      swap1\n      keccak256\n      sload\n      0xff\n      and\n        /* \"contracts/test/Locker.sol\":29188:29221  feeBlocklist[msg.sender] == false */\n      iszero\n        /* \"contracts/test/Locker.sol\":29180:29222  require(feeBlocklist[msg.sender] == false) */\n      tag_472\n      jumpi\n      0x00\n      dup1\n      revert\n    tag_472:\n        /* \"contracts/test/Locker.sol\":29256:29266  msg.sender */\n      caller\n        /* \"contracts/test/Locker.sol\":29233:29247  uint256 lockID */\n      0x00\n        /* \"contracts/test/Locker.sol\":29250:29267  users[msg.sender] */\n      swap1\n      dup2\n      mstore\n        /* \"contracts/test/Locker.sol\":29250:29255  users */\n      0x03\n        /* \"contracts/test/Locker.sol\":29250:29267  users[msg.sender] */\n      0x20\n      swap1\n      dup2\n      mstore\n      0x40\n      dup1\n      dup4\n      keccak256\n      sub(shl(0xa0, 0x01), 0x01)\n        /* \"contracts/test/Locker.sol\":29250:29291  users[msg.sender].locksForToken[_lpToken] */\n      dup9\n      and\n      dup5\n      mstore\n        /* \"contracts/test/Locker.sol\":29250:29281  users[msg.sender].locksForToken */\n      0x01\n      add\n        /* \"contracts/test/Locker.sol\":29250:29291  users[msg.sender].locksForToken[_lpToken] */\n      swap1\n      swap2\n      mstore\n      dup2\n      keccak256\n        /* \"contracts/test/Locker.sol\":29250:29299  users[msg.sender].locksForToken[_lpToken][_index] */\n      dup1\n      sload\n        /* \"contracts/test/Locker.sol\":29292:29298  _index */\n      dup6\n      swap1\n        /* \"contracts/test/Locker.sol\":29250:29299  users[msg.sender].locksForToken[_lpToken][_index] */\n      dup2\n      lt\n      tag_474\n      jumpi\n      tag_474\n      tag_171\n      jump\t// in\n    tag_474:\n      swap1\n      0x00\n      mstore\n      keccak256(0x00, 0x20)\n      add\n      sload\n        /* \"contracts/test/Locker.sol\":29233:29299  uint256 lockID = users[msg.sender].locksForToken[_lpToken][_index] */\n      swap1\n      pop\n        /* \"contracts/test/Locker.sol\":29309:29335  TokenLock storage userLock */\n      0x00\n        /* \"contracts/test/Locker.sol\":29338:29348  tokenLocks */\n      0x04\n        /* \"contracts/test/Locker.sol\":29338:29358  tokenLocks[_lpToken] */\n      0x00\n        /* \"contracts/test/Locker.sol\":29349:29357  _lpToken */\n      dup8\n      sub(shl(0xa0, 0x01), 0x01)\n        /* \"contracts/test/Locker.sol\":29338:29358  tokenLocks[_lpToken] */\n      and\n      sub(shl(0xa0, 0x01), 0x01)\n      and\n      dup2\n      mstore\n      0x20\n      add\n      swap1\n      dup2\n      mstore\n      0x20\n      add\n      0x00\n      keccak256\n        /* \"contracts/test/Locker.sol\":29359:29365  lockID */\n      dup3\n        /* \"contracts/test/Locker.sol\":29338:29366  tokenLocks[_lpToken][lockID] */\n      dup2\n      sload\n      dup2\n      lt\n      tag_477\n      jumpi\n      tag_477\n      tag_171\n      jump\t// in\n    tag_477:\n      swap1\n      0x00\n      mstore\n      keccak256(0x00, 0x20)\n      swap1\n      0x06\n      mul\n      add\n        /* \"contracts/test/Locker.sol\":29309:29366  TokenLock storage userLock = tokenLocks[_lpToken][lockID] */\n      swap1\n      pop\n        /* \"contracts/test/Locker.sol\":29407:29414  _lockID */\n      dup4\n        /* \"contracts/test/Locker.sol\":29397:29403  lockID */\n      dup3\n        /* \"contracts/test/Locker.sol\":29397:29414  lockID == _lockID */\n      eq\n        /* \"contracts/test/Locker.sol\":29397:29446  lockID == _lockID && userLock.owner == msg.sender */\n      dup1\n      iszero\n      tag_479\n      jumpi\n      pop\n        /* \"contracts/test/Locker.sol\":29418:29432  userLock.owner */\n      0x05\n      dup2\n      add\n      sload\n      sub(shl(0xa0, 0x01), 0x01)\n      and\n        /* \"contracts/test/Locker.sol\":29436:29446  msg.sender */\n      caller\n        /* \"contracts/test/Locker.sol\":29418:29446  userLock.owner == msg.sender */\n      eq\n        /* \"contracts/test/Locker.sol\":29397:29446  lockID == _lockID && userLock.owner == msg.sender */\n    tag_479:\n        /* \"contracts/test/Locker.sol\":29376:29485  require(... */\n      tag_480\n      jumpi\n      mload(0x40)\n      shl(0xe5, 0x461bcd)\n      dup2\n      mstore\n      0x04\n      add\n      tag_178\n      swap1\n      tag_199\n      jump\t// in\n    tag_480:\n        /* \"contracts/test/Locker.sol\":29549:29564  userLock.amount */\n      0x01\n      dup2\n      add\n      sload\n        /* \"contracts/test/Locker.sol\":29549:29577  userLock.amount.sub(_amount) */\n      tag_482\n      swap1\n        /* \"contracts/test/Locker.sol\":29569:29576  _amount */\n      dup5\n        /* \"contracts/test/Locker.sol\":29549:29568  userLock.amount.sub */\n      tag_204\n        /* \"contracts/test/Locker.sol\":29549:29577  userLock.amount.sub(_amount) */\n      jump\t// in\n    tag_482:\n        /* \"contracts/test/Locker.sol\":29531:29546  userLock.amount */\n      0x01\n      dup3\n      add\n        /* \"contracts/test/Locker.sol\":29531:29577  userLock.amount = userLock.amount.sub(_amount) */\n      dup2\n      swap1\n      sstore\n        /* \"contracts/test/Locker.sol\":29641:29642  0 */\n      0x00\n        /* \"contracts/test/Locker.sol\":29622:29642  userLock.amount == 0 */\n      sub\n        /* \"contracts/test/Locker.sol\":29618:29966  if (userLock.amount == 0) {... */\n      tag_483\n      jumpi\n        /* \"contracts/test/Locker.sol\":29694:29704  msg.sender */\n      caller\n        /* \"contracts/test/Locker.sol\":29658:29685  uint256[] storage userLocks */\n      0x00\n        /* \"contracts/test/Locker.sol\":29688:29705  users[msg.sender] */\n      swap1\n      dup2\n      mstore\n        /* \"contracts/test/Locker.sol\":29688:29693  users */\n      0x03\n        /* \"contracts/test/Locker.sol\":29688:29705  users[msg.sender] */\n      0x20\n      swap1\n      dup2\n      mstore\n      0x40\n      dup1\n      dup4\n      keccak256\n      sub(shl(0xa0, 0x01), 0x01)\n        /* \"contracts/test/Locker.sol\":29688:29759  users[msg.sender].locksForToken[... */\n      dup11\n      and\n      dup5\n      mstore\n        /* \"contracts/test/Locker.sol\":29688:29719  users[msg.sender].locksForToken */\n      0x01\n      swap1\n      dup2\n      add\n        /* \"contracts/test/Locker.sol\":29688:29759  users[msg.sender].locksForToken[... */\n      swap1\n      swap3\n      mstore\n      swap1\n      swap2\n      keccak256\n        /* \"contracts/test/Locker.sol\":29803:29819  userLocks.length */\n      dup1\n      sload\n        /* \"contracts/test/Locker.sol\":29688:29759  users[msg.sender].locksForToken[... */\n      swap1\n      swap2\n      dup3\n      swap2\n        /* \"contracts/test/Locker.sol\":29803:29823  userLocks.length - 1 */\n      tag_484\n      swap2\n        /* \"contracts/test/Locker.sol\":29688:29719  users[msg.sender].locksForToken */\n      swap1\n        /* \"contracts/test/Locker.sol\":29803:29823  userLocks.length - 1 */\n      tag_207\n      jump\t// in\n    tag_484:\n        /* \"contracts/test/Locker.sol\":29793:29824  userLocks[userLocks.length - 1] */\n      dup2\n      sload\n      dup2\n      lt\n      tag_486\n      jumpi\n      tag_486\n      tag_171\n      jump\t// in\n    tag_486:\n      swap1\n      0x00\n      mstore\n      keccak256(0x00, 0x20)\n      add\n      sload\n        /* \"contracts/test/Locker.sol\":29773:29782  userLocks */\n      dup2\n        /* \"contracts/test/Locker.sol\":29783:29789  _index */\n      dup8\n        /* \"contracts/test/Locker.sol\":29773:29790  userLocks[_index] */\n      dup2\n      sload\n      dup2\n      lt\n      tag_489\n      jumpi\n      tag_489\n      tag_171\n      jump\t// in\n    tag_489:\n      swap1\n      0x00\n      mstore\n      keccak256(0x00, 0x20)\n      add\n        /* \"contracts/test/Locker.sol\":29773:29824  userLocks[_index] = userLocks[userLocks.length - 1] */\n      dup2\n      swap1\n      sstore\n      pop\n        /* \"contracts/test/Locker.sol\":29838:29847  userLocks */\n      dup1\n        /* \"contracts/test/Locker.sol\":29838:29853  userLocks.pop() */\n      dup1\n      sload\n      dup1\n      tag_492\n      jumpi\n      tag_492\n      tag_216\n      jump\t// in\n    tag_492:\n      0x01\n      swap1\n      sub\n      dup2\n      dup2\n      swap1\n      0x00\n      mstore\n      keccak256(0x00, 0x20)\n      add\n      0x00\n      swap1\n      sstore\n      swap1\n      sstore\n        /* \"contracts/test/Locker.sol\":29871:29880  userLocks */\n      dup1\n        /* \"contracts/test/Locker.sol\":29871:29887  userLocks.length */\n      dup1\n      sload\n      swap1\n      pop\n        /* \"contracts/test/Locker.sol\":29891:29892  0 */\n      0x00\n        /* \"contracts/test/Locker.sol\":29871:29892  userLocks.length == 0 */\n      sub\n        /* \"contracts/test/Locker.sol\":29867:29956  if (userLocks.length == 0) {... */\n      tag_494\n      jumpi\n      sub(shl(0xa0, 0x01), 0x01)\n        /* \"contracts/test/Locker.sol\":29912:29934  user_removed[_lpToken] */\n      dup8\n      and\n      0x00\n      swap1\n      dup2\n      mstore\n        /* \"contracts/test/Locker.sol\":29912:29924  user_removed */\n      0x0c\n        /* \"contracts/test/Locker.sol\":29912:29934  user_removed[_lpToken] */\n      0x20\n      mstore\n      0x40\n      swap1\n      keccak256\n        /* \"contracts/test/Locker.sol\":29912:29941  user_removed[_lpToken] = true */\n      dup1\n      sload\n      not(0xff)\n      and\n        /* \"contracts/test/Locker.sol\":29937:29941  true */\n      0x01\n        /* \"contracts/test/Locker.sol\":29912:29941  user_removed[_lpToken] = true */\n      or\n      swap1\n      sstore\n        /* \"contracts/test/Locker.sol\":29867:29956  if (userLocks.length == 0) {... */\n    tag_494:\n        /* \"contracts/test/Locker.sol\":29644:29966  {... */\n      pop\n        /* \"contracts/test/Locker.sol\":29618:29966  if (userLock.amount == 0) {... */\n    tag_483:\n        /* \"contracts/test/Locker.sol\":30021:30029  migrator */\n      sload(0x0e)\n        /* \"contracts/test/Locker.sol\":29976:30040  TransferHelper.safeApprove(_lpToken, address(migrator), _amount) */\n      tag_495\n      swap1\n        /* \"contracts/test/Locker.sol\":30003:30011  _lpToken */\n      dup8\n      swap1\n      sub(shl(0xa0, 0x01), 0x01)\n        /* \"contracts/test/Locker.sol\":30021:30029  migrator */\n      and\n        /* \"contracts/test/Locker.sol\":30032:30039  _amount */\n      dup6\n        /* \"contracts/test/Locker.sol\":29976:30002  TransferHelper.safeApprove */\n      tag_222\n        /* \"contracts/test/Locker.sol\":29976:30040  TransferHelper.safeApprove(_lpToken, address(migrator), _amount) */\n      jump\t// in\n    tag_495:\n        /* \"contracts/test/Locker.sol\":30050:30058  migrator */\n      sload(0x0e)\n        /* \"contracts/test/Locker.sol\":30086:30105  userLock.unlockDate */\n      0x03\n      dup3\n      add\n      sload\n        /* \"contracts/test/Locker.sol\":30050:30118  migrator.migrate(_lpToken, _amount, userLock.unlockDate, msg.sender) */\n      mload(0x40)\n      shl(0xe0, 0xdb5ecd3f)\n      dup2\n      mstore\n      sub(shl(0xa0, 0x01), 0x01)\n        /* \"#utility.yul\":15259:15274   */\n      dup10\n      dup2\n      and\n        /* \"contracts/test/Locker.sol\":30050:30118  migrator.migrate(_lpToken, _amount, userLock.unlockDate, msg.sender) */\n      0x04\n      dup4\n      add\n        /* \"#utility.yul\":15241:15275   */\n      mstore\n        /* \"#utility.yul\":15291:15309   */\n      0x24\n      dup3\n      add\n        /* \"#utility.yul\":15284:15318   */\n      dup8\n      swap1\n      mstore\n        /* \"#utility.yul\":15334:15352   */\n      0x44\n      dup3\n      add\n        /* \"#utility.yul\":15327:15361   */\n      swap3\n      swap1\n      swap3\n      mstore\n        /* \"contracts/test/Locker.sol\":30107:30117  msg.sender */\n      caller\n        /* \"#utility.yul\":15377:15395   */\n      0x64\n      dup3\n      add\n        /* \"#utility.yul\":15370:15413   */\n      mstore\n        /* \"contracts/test/Locker.sol\":30050:30058  migrator */\n      swap2\n      and\n      swap1\n        /* \"contracts/test/Locker.sol\":30050:30066  migrator.migrate */\n      0xdb5ecd3f\n      swap1\n        /* \"#utility.yul\":15175:15194   */\n      0x84\n      add\n        /* \"contracts/test/Locker.sol\":30050:30118  migrator.migrate(_lpToken, _amount, userLock.unlockDate, msg.sender) */\n      0x20\n      mload(0x40)\n      dup1\n      dup4\n      sub\n      dup2\n      0x00\n      dup8\n      gas\n      call\n      iszero\n      dup1\n      iszero\n      tag_499\n      jumpi\n      returndatasize\n      0x00\n      dup1\n      returndatacopy\n      revert(0x00, returndatasize)\n    tag_499:\n      pop\n      pop\n      pop\n      pop\n      mload(0x40)\n      returndatasize\n      not(0x1f)\n      0x1f\n      dup3\n      add\n      and\n      dup3\n      add\n      dup1\n      0x40\n      mstore\n      pop\n      dup2\n      add\n      swap1\n      tag_378\n      swap2\n      swap1\n      tag_501\n      jump\t// in\n        /* \"contracts/test/Locker.sol\":3084:3358  function transferOwnership(address newOwner) public virtual onlyOwner {... */\n    tag_167:\n        /* \"contracts/test/Locker.sol\":2371:2377  _owner */\n      and(sub(shl(0xa0, 0x01), 0x01), sload(0x00))\n        /* \"contracts/test/Locker.sol\":909:919  msg.sender */\n      caller\n        /* \"contracts/test/Locker.sol\":2371:2393  _owner == _msgSender() */\n      eq\n        /* \"contracts/test/Locker.sol\":2363:2430  require(_owner == _msgSender(), \"Ownable: caller is not the owner\") */\n      tag_504\n      jumpi\n      mload(0x40)\n      shl(0xe5, 0x461bcd)\n      dup2\n      mstore\n      0x04\n      add\n      tag_178\n      swap1\n      tag_179\n      jump\t// in\n    tag_504:\n      sub(shl(0xa0, 0x01), 0x01)\n        /* \"contracts/test/Locker.sol\":3185:3207  newOwner != address(0) */\n      dup2\n      and\n        /* \"contracts/test/Locker.sol\":3164:3271  require(... */\n      tag_507\n      jumpi\n      mload(0x40)\n      shl(0xe5, 0x461bcd)\n      dup2\n      mstore\n        /* \"#utility.yul\":15876:15878   */\n      0x20\n        /* \"contracts/test/Locker.sol\":3164:3271  require(... */\n      0x04\n      dup3\n      add\n        /* \"#utility.yul\":15858:15879   */\n      mstore\n        /* \"#utility.yul\":15915:15917   */\n      0x26\n        /* \"#utility.yul\":15895:15913   */\n      0x24\n      dup3\n      add\n        /* \"#utility.yul\":15888:15918   */\n      mstore\n        /* \"#utility.yul\":15954:15988   */\n      0x4f776e61626c653a206e6577206f776e657220697320746865207a65726f2061\n        /* \"#utility.yul\":15934:15952   */\n      0x44\n      dup3\n      add\n        /* \"#utility.yul\":15927:15989   */\n      mstore\n      shl(0xd0, 0x646472657373)\n        /* \"#utility.yul\":16005:16023   */\n      0x64\n      dup3\n      add\n        /* \"#utility.yul\":15998:16034   */\n      mstore\n        /* \"#utility.yul\":16051:16070   */\n      0x84\n      add\n        /* \"contracts/test/Locker.sol\":3164:3271  require(... */\n      tag_178\n        /* \"#utility.yul\":15674:16076   */\n      jump\n        /* \"contracts/test/Locker.sol\":3164:3271  require(... */\n    tag_507:\n        /* \"contracts/test/Locker.sol\":3307:3313  _owner */\n      0x00\n      dup1\n      sload\n        /* \"contracts/test/Locker.sol\":3286:3324  OwnershipTransferred(_owner, newOwner) */\n      mload(0x40)\n      sub(shl(0xa0, 0x01), 0x01)\n      dup1\n      dup6\n      and\n      swap4\n        /* \"contracts/test/Locker.sol\":3307:3313  _owner */\n      swap3\n      and\n      swap2\n        /* \"contracts/test/Locker.sol\":3286:3324  OwnershipTransferred(_owner, newOwner) */\n      0x8be0079c531659141344cd1fd0a4f28419497f9722a3daafe3b4186f6b6457e0\n      swap2\n      log3\n        /* \"contracts/test/Locker.sol\":3334:3340  _owner */\n      0x00\n        /* \"contracts/test/Locker.sol\":3334:3351  _owner = newOwner */\n      dup1\n      sload\n      not(sub(shl(0xa0, 0x01), 0x01))\n      and\n      sub(shl(0xa0, 0x01), 0x01)\n      swap3\n      swap1\n      swap3\n      and\n      swap2\n      swap1\n      swap2\n      or\n      swap1\n      sstore\n        /* \"contracts/test/Locker.sol\":3084:3358  function transferOwnership(address newOwner) public virtual onlyOwner {... */\n      jump\t// out\n        /* \"contracts/test/Locker.sol\":8477:8611  function sub(uint256 a, uint256 b) internal pure returns (uint256) {... */\n    tag_204:\n        /* \"contracts/test/Locker.sol\":8535:8542  uint256 */\n      0x00\n        /* \"contracts/test/Locker.sol\":8561:8604  sub(a, b, \"SafeMath: subtraction overflow\") */\n      tag_512\n        /* \"contracts/test/Locker.sol\":8565:8566  a */\n      dup4\n        /* \"contracts/test/Locker.sol\":8568:8569  b */\n      dup4\n        /* \"contracts/test/Locker.sol\":8561:8604  sub(a, b, \"SafeMath: subtraction overflow\") */\n      mload(0x40)\n      dup1\n      0x40\n      add\n      0x40\n      mstore\n      dup1\n      0x1e\n      dup2\n      mstore\n      0x20\n      add\n      0x536166654d6174683a207375627472616374696f6e206f766572666c6f770000\n      dup2\n      mstore\n      pop\n        /* \"contracts/test/Locker.sol\":8561:8564  sub */\n      tag_513\n        /* \"contracts/test/Locker.sol\":8561:8604  sub(a, b, \"SafeMath: subtraction overflow\") */\n      jump\t// in\n    tag_512:\n        /* \"contracts/test/Locker.sol\":8554:8604  return sub(a, b, \"SafeMath: subtraction overflow\") */\n      swap4\n        /* \"contracts/test/Locker.sol\":8477:8611  function sub(uint256 a, uint256 b) internal pure returns (uint256) {... */\n      swap3\n      pop\n      pop\n      pop\n      jump\t// out\n        /* \"contracts/test/Locker.sol\":3486:3864  function safeApprove(... */\n    tag_222:\n        /* \"contracts/test/Locker.sol\":3599:3611  bool success */\n      0x00\n        /* \"contracts/test/Locker.sol\":3613:3630  bytes memory data */\n      dup1\n        /* \"contracts/test/Locker.sol\":3634:3639  token */\n      dup5\n      sub(shl(0xa0, 0x01), 0x01)\n        /* \"contracts/test/Locker.sol\":3634:3644  token.call */\n      and\n        /* \"contracts/test/Locker.sol\":3681:3691  0x095ea7b3 */\n      0x095ea7b3\n        /* \"contracts/test/Locker.sol\":3693:3695  to */\n      dup6\n        /* \"contracts/test/Locker.sol\":3697:3702  value */\n      dup6\n        /* \"contracts/test/Locker.sol\":3658:3703  abi.encodeWithSelector(0x095ea7b3, to, value) */\n      add(0x24, mload(0x40))\n      tag_515\n      swap3\n      swap2\n      swap1\n      tag_228\n      jump\t// in\n    tag_515:\n      mload(0x40)\n      0x20\n      dup2\n      dup4\n      sub\n      sub\n      dup2\n      mstore\n      swap1\n      0x40\n      mstore\n      swap1\n      0xe0\n      shl\n      0x20\n      dup3\n      add\n      dup1\n      mload\n      sub(shl(0xe0, 0x01), 0x01)\n      dup4\n      dup2\n      dup4\n      and\n      or\n      dup4\n      mstore\n      pop\n      pop\n      pop\n      pop\n        /* \"contracts/test/Locker.sol\":3634:3713  token.call(... */\n      mload(0x40)\n      tag_517\n      swap2\n      swap1\n      tag_518\n      jump\t// in\n    tag_517:\n      0x00\n      mload(0x40)\n      dup1\n      dup4\n      sub\n      dup2\n      0x00\n      dup7\n      gas\n      call\n      swap2\n      pop\n      pop\n      returndatasize\n      dup1\n      0x00\n      dup2\n      eq\n      tag_521\n      jumpi\n      mload(0x40)\n      swap2\n      pop\n      and(add(returndatasize, 0x3f), not(0x1f))\n      dup3\n      add\n      0x40\n      mstore\n      returndatasize\n      dup3\n      mstore\n      returndatasize\n      0x00\n      0x20\n      dup5\n      add\n      returndatacopy\n      jump(tag_520)\n    tag_521:\n      0x60\n      swap2\n      pop\n    tag_520:\n      pop\n        /* \"contracts/test/Locker.sol\":3598:3713  (bool success, bytes memory data) = token.call(... */\n      swap2\n      pop\n      swap2\n      pop\n        /* \"contracts/test/Locker.sol\":3744:3751  success */\n      dup2\n        /* \"contracts/test/Locker.sol\":3744:3801  success && (data.length == 0 || abi.decode(data, (bool))) */\n      dup1\n      iszero\n      tag_524\n      jumpi\n      pop\n        /* \"contracts/test/Locker.sol\":3756:3767  data.length */\n      dup1\n      mload\n        /* \"contracts/test/Locker.sol\":3756:3772  data.length == 0 */\n      iszero\n      dup1\n        /* \"contracts/test/Locker.sol\":3756:3800  data.length == 0 || abi.decode(data, (bool)) */\n      tag_524\n      jumpi\n      pop\n        /* \"contracts/test/Locker.sol\":3787:3791  data */\n      dup1\n        /* \"contracts/test/Locker.sol\":3776:3800  abi.decode(data, (bool)) */\n      dup1\n      0x20\n      add\n      swap1\n      mload\n      dup2\n      add\n      swap1\n      tag_524\n      swap2\n      swap1\n      tag_501\n      jump\t// in\n    tag_524:\n        /* \"contracts/test/Locker.sol\":3723:3857  require(... */\n      tag_525\n      jumpi\n      mload(0x40)\n      shl(0xe5, 0x461bcd)\n      dup2\n      mstore\n        /* \"#utility.yul\":17104:17106   */\n      0x20\n        /* \"contracts/test/Locker.sol\":3723:3857  require(... */\n      0x04\n      dup3\n      add\n        /* \"#utility.yul\":17086:17107   */\n      mstore\n        /* \"#utility.yul\":17143:17145   */\n      0x1e\n        /* \"#utility.yul\":17123:17141   */\n      0x24\n      dup3\n      add\n        /* \"#utility.yul\":17116:17146   */\n      mstore\n        /* \"#utility.yul\":17182:17214   */\n      0x5472616e7366657248656c7065723a20415050524f56455f4641494c45440000\n        /* \"#utility.yul\":17162:17180   */\n      0x44\n      dup3\n      add\n        /* \"#utility.yul\":17155:17215   */\n      mstore\n        /* \"#utility.yul\":17232:17250   */\n      0x64\n      add\n        /* \"contracts/test/Locker.sol\":3723:3857  require(... */\n      tag_178\n        /* \"#utility.yul\":16902:17256   */\n      jump\n        /* \"contracts/test/Locker.sol\":3723:3857  require(... */\n    tag_525:\n        /* \"contracts/test/Locker.sol\":3588:3864  {... */\n      pop\n      pop\n        /* \"contracts/test/Locker.sol\":3486:3864  function safeApprove(... */\n      pop\n      pop\n      pop\n      jump\t// out\n        /* \"contracts/test/Locker.sol\":3870:4250  function safeTransfer(... */\n    tag_224:\n        /* \"contracts/test/Locker.sol\":3984:3996  bool success */\n      0x00\n        /* \"contracts/test/Locker.sol\":3998:4015  bytes memory data */\n      dup1\n        /* \"contracts/test/Locker.sol\":4019:4024  token */\n      dup5\n      sub(shl(0xa0, 0x01), 0x01)\n        /* \"contracts/test/Locker.sol\":4019:4029  token.call */\n      and\n        /* \"contracts/test/Locker.sol\":4066:4076  0xa9059cbb */\n      0xa9059cbb\n        /* \"contracts/test/Locker.sol\":4078:4080  to */\n      dup6\n        /* \"contracts/test/Locker.sol\":4082:4087  value */\n      dup6\n        /* \"contracts/test/Locker.sol\":4043:4088  abi.encodeWithSelector(0xa9059cbb, to, value) */\n      add(0x24, mload(0x40))\n      tag_529\n      swap3\n      swap2\n      swap1\n      tag_228\n      jump\t// in\n    tag_529:\n      mload(0x40)\n      0x20\n      dup2\n      dup4\n      sub\n      sub\n      dup2\n      mstore\n      swap1\n      0x40\n      mstore\n      swap1\n      0xe0\n      shl\n      0x20\n      dup3\n      add\n      dup1\n      mload\n      sub(shl(0xe0, 0x01), 0x01)\n      dup4\n      dup2\n      dup4\n      and\n      or\n      dup4\n      mstore\n      pop\n      pop\n      pop\n      pop\n        /* \"contracts/test/Locker.sol\":4019:4098  token.call(... */\n      mload(0x40)\n      tag_530\n      swap2\n      swap1\n      tag_518\n      jump\t// in\n    tag_530:\n      0x00\n      mload(0x40)\n      dup1\n      dup4\n      sub\n      dup2\n      0x00\n      dup7\n      gas\n      call\n      swap2\n      pop\n      pop\n      returndatasize\n      dup1\n      0x00\n      dup2\n      eq\n      tag_533\n      jumpi\n      mload(0x40)\n      swap2\n      pop\n      and(add(returndatasize, 0x3f), not(0x1f))\n      dup3\n      add\n      0x40\n      mstore\n      returndatasize\n      dup3\n      mstore\n      returndatasize\n      0x00\n      0x20\n      dup5\n      add\n      returndatacopy\n      jump(tag_532)\n    tag_533:\n      0x60\n      swap2\n      pop\n    tag_532:\n      pop\n        /* \"contracts/test/Locker.sol\":3983:4098  (bool success, bytes memory data) = token.call(... */\n      swap2\n      pop\n      swap2\n      pop\n        /* \"contracts/test/Locker.sol\":4129:4136  success */\n      dup2\n        /* \"contracts/test/Locker.sol\":4129:4186  success && (data.length == 0 || abi.decode(data, (bool))) */\n      dup1\n      iszero\n      tag_536\n      jumpi\n      pop\n        /* \"contracts/test/Locker.sol\":4141:4152  data.length */\n      dup1\n      mload\n        /* \"contracts/test/Locker.sol\":4141:4157  data.length == 0 */\n      iszero\n      dup1\n        /* \"contracts/test/Locker.sol\":4141:4185  data.length == 0 || abi.decode(data, (bool)) */\n      tag_536\n      jumpi\n      pop\n        /* \"contracts/test/Locker.sol\":4172:4176  data */\n      dup1\n        /* \"contracts/test/Locker.sol\":4161:4185  abi.decode(data, (bool)) */\n      dup1\n      0x20\n      add\n      swap1\n      mload\n      dup2\n      add\n      swap1\n      tag_536\n      swap2\n      swap1\n      tag_501\n      jump\t// in\n    tag_536:\n        /* \"contracts/test/Locker.sol\":4108:4243  require(... */\n      tag_525\n      jumpi\n      mload(0x40)\n      shl(0xe5, 0x461bcd)\n      dup2\n      mstore\n        /* \"#utility.yul\":17463:17465   */\n      0x20\n        /* \"contracts/test/Locker.sol\":4108:4243  require(... */\n      0x04\n      dup3\n      add\n        /* \"#utility.yul\":17445:17466   */\n      mstore\n        /* \"#utility.yul\":17502:17504   */\n      0x1f\n        /* \"#utility.yul\":17482:17500   */\n      0x24\n      dup3\n      add\n        /* \"#utility.yul\":17475:17505   */\n      mstore\n        /* \"#utility.yul\":17541:17574   */\n      0x5472616e7366657248656c7065723a205452414e534645525f4641494c454400\n        /* \"#utility.yul\":17521:17539   */\n      0x44\n      dup3\n      add\n        /* \"#utility.yul\":17514:17575   */\n      mstore\n        /* \"#utility.yul\":17592:17610   */\n      0x64\n      add\n        /* \"contracts/test/Locker.sol\":4108:4243  require(... */\n      tag_178\n        /* \"#utility.yul\":17261:17616   */\n      jump\n        /* \"contracts/test/Locker.sol\":9366:9825  function mul(uint256 a, uint256 b) internal pure returns (uint256) {... */\n    tag_287:\n        /* \"contracts/test/Locker.sol\":9424:9431  uint256 */\n      0x00\n        /* \"contracts/test/Locker.sol\":9665:9666  a */\n      dup3\n        /* \"contracts/test/Locker.sol\":9670:9671  0 */\n      0x00\n        /* \"contracts/test/Locker.sol\":9665:9671  a == 0 */\n      sub\n        /* \"contracts/test/Locker.sol\":9661:9706  if (a == 0) {... */\n      tag_541\n      jumpi\n      pop\n        /* \"contracts/test/Locker.sol\":9694:9695  0 */\n      0x00\n        /* \"contracts/test/Locker.sol\":9687:9695  return 0 */\n      jump(tag_168)\n        /* \"contracts/test/Locker.sol\":9661:9706  if (a == 0) {... */\n    tag_541:\n        /* \"contracts/test/Locker.sol\":9716:9725  uint256 c */\n      0x00\n        /* \"contracts/test/Locker.sol\":9728:9733  a * b */\n      tag_542\n        /* \"contracts/test/Locker.sol\":9732:9733  b */\n      dup4\n        /* \"contracts/test/Locker.sol\":9728:9729  a */\n      dup6\n        /* \"contracts/test/Locker.sol\":9728:9733  a * b */\n      tag_543\n      jump\t// in\n    tag_542:\n        /* \"contracts/test/Locker.sol\":9716:9733  uint256 c = a * b */\n      swap1\n      pop\n        /* \"contracts/test/Locker.sol\":9760:9761  b */\n      dup3\n        /* \"contracts/test/Locker.sol\":9751:9756  c / a */\n      tag_544\n        /* \"contracts/test/Locker.sol\":9755:9756  a */\n      dup6\n        /* \"contracts/test/Locker.sol\":9716:9733  uint256 c = a * b */\n      dup4\n        /* \"contracts/test/Locker.sol\":9751:9756  c / a */\n      tag_545\n      jump\t// in\n    tag_544:\n        /* \"contracts/test/Locker.sol\":9751:9761  c / a == b */\n      eq\n        /* \"contracts/test/Locker.sol\":9743:9799  require(c / a == b, \"SafeMath: multiplication overflow\") */\n      tag_512\n      jumpi\n      mload(0x40)\n      shl(0xe5, 0x461bcd)\n      dup2\n      mstore\n        /* \"#utility.yul\":18218:18220   */\n      0x20\n        /* \"contracts/test/Locker.sol\":9743:9799  require(c / a == b, \"SafeMath: multiplication overflow\") */\n      0x04\n      dup3\n      add\n        /* \"#utility.yul\":18200:18221   */\n      mstore\n        /* \"#utility.yul\":18257:18259   */\n      0x21\n        /* \"#utility.yul\":18237:18255   */\n      0x24\n      dup3\n      add\n        /* \"#utility.yul\":18230:18260   */\n      mstore\n        /* \"#utility.yul\":18296:18330   */\n      0x536166654d6174683a206d756c7469706c69636174696f6e206f766572666c6f\n        /* \"#utility.yul\":18276:18294   */\n      0x44\n      dup3\n      add\n        /* \"#utility.yul\":18269:18331   */\n      mstore\n      shl(0xf8, 0x77)\n        /* \"#utility.yul\":18347:18365   */\n      0x64\n      dup3\n      add\n        /* \"#utility.yul\":18340:18371   */\n      mstore\n        /* \"#utility.yul\":18388:18407   */\n      0x84\n      add\n        /* \"contracts/test/Locker.sol\":9743:9799  require(c / a == b, \"SafeMath: multiplication overflow\") */\n      tag_178\n        /* \"#utility.yul\":18016:18413   */\n      jump\n        /* \"contracts/test/Locker.sol\":10287:10417  function div(uint256 a, uint256 b) internal pure returns (uint256) {... */\n    tag_288:\n        /* \"contracts/test/Locker.sol\":10345:10352  uint256 */\n      0x00\n        /* \"contracts/test/Locker.sol\":10371:10410  div(a, b, \"SafeMath: division by zero\") */\n      tag_512\n        /* \"contracts/test/Locker.sol\":10375:10376  a */\n      dup4\n        /* \"contracts/test/Locker.sol\":10378:10379  b */\n      dup4\n        /* \"contracts/test/Locker.sol\":10371:10410  div(a, b, \"SafeMath: division by zero\") */\n      mload(0x40)\n      dup1\n      0x40\n      add\n      0x40\n      mstore\n      dup1\n      0x1a\n      dup2\n      mstore\n      0x20\n      add\n      shl(0x30, 0x536166654d6174683a206469766973696f6e206279207a65726f)\n      dup2\n      mstore\n      pop\n        /* \"contracts/test/Locker.sol\":10371:10374  div */\n      tag_551\n        /* \"contracts/test/Locker.sol\":10371:10410  div(a, b, \"SafeMath: division by zero\") */\n      jump\t// in\n        /* \"contracts/test/Locker.sol\":4256:4673  function safeTransferFrom(... */\n    tag_348:\n        /* \"contracts/test/Locker.sol\":4455:4506  abi.encodeWithSelector(0x23b872dd, from, to, value) */\n      0x40\n      dup1\n      mload\n      sub(shl(0xa0, 0x01), 0x01)\n        /* \"#utility.yul\":18676:18691   */\n      dup6\n      dup2\n      and\n        /* \"contracts/test/Locker.sol\":4455:4506  abi.encodeWithSelector(0x23b872dd, from, to, value) */\n      0x24\n      dup4\n      add\n        /* \"#utility.yul\":18658:18692   */\n      mstore\n        /* \"#utility.yul\":18728:18743   */\n      dup5\n      dup2\n      and\n        /* \"#utility.yul\":18708:18726   */\n      0x44\n      dup4\n      add\n        /* \"#utility.yul\":18701:18744   */\n      mstore\n        /* \"#utility.yul\":18760:18778   */\n      0x64\n      dup1\n      dup4\n      add\n        /* \"#utility.yul\":18753:18787   */\n      dup6\n      swap1\n      mstore\n        /* \"contracts/test/Locker.sol\":4455:4506  abi.encodeWithSelector(0x23b872dd, from, to, value) */\n      dup4\n      mload\n      dup1\n      dup5\n      sub\n      swap1\n      swap2\n      add\n      dup2\n      mstore\n        /* \"#utility.yul\":18593:18611   */\n      0x84\n      swap1\n      swap3\n      add\n        /* \"contracts/test/Locker.sol\":4455:4506  abi.encodeWithSelector(0x23b872dd, from, to, value) */\n      dup4\n      mstore\n      0x20\n      dup3\n      add\n      dup1\n      mload\n      sub(shl(0xe0, 0x01), 0x01)\n      and\n      shl(0xe0, 0x23b872dd)\n      or\n      swap1\n      mstore\n        /* \"contracts/test/Locker.sol\":4431:4516  token.call(... */\n      swap2\n      mload\n      0x00\n      swap3\n      dup4\n      swap3\n        /* \"contracts/test/Locker.sol\":4431:4441  token.call */\n      swap1\n      dup9\n      and\n      swap2\n        /* \"contracts/test/Locker.sol\":4431:4516  token.call(... */\n      tag_555\n      swap2\n        /* \"contracts/test/Locker.sol\":4455:4506  abi.encodeWithSelector(0x23b872dd, from, to, value) */\n      swap1\n        /* \"contracts/test/Locker.sol\":4431:4516  token.call(... */\n      tag_518\n      jump\t// in\n    tag_555:\n      0x00\n      mload(0x40)\n      dup1\n      dup4\n      sub\n      dup2\n      0x00\n      dup7\n      gas\n      call\n      swap2\n      pop\n      pop\n      returndatasize\n      dup1\n      0x00\n      dup2\n      eq\n      tag_558\n      jumpi\n      mload(0x40)\n      swap2\n      pop\n      and(add(returndatasize, 0x3f), not(0x1f))\n      dup3\n      add\n      0x40\n      mstore\n      returndatasize\n      dup3\n      mstore\n      returndatasize\n      0x00\n      0x20\n      dup5\n      add\n      returndatacopy\n      jump(tag_557)\n    tag_558:\n      0x60\n      swap2\n      pop\n    tag_557:\n      pop\n        /* \"contracts/test/Locker.sol\":4395:4516  (bool success, bytes memory data) = token.call(... */\n      swap2\n      pop\n      swap2\n      pop\n        /* \"contracts/test/Locker.sol\":4547:4554  success */\n      dup2\n        /* \"contracts/test/Locker.sol\":4547:4604  success && (data.length == 0 || abi.decode(data, (bool))) */\n      dup1\n      iszero\n      tag_561\n      jumpi\n      pop\n        /* \"contracts/test/Locker.sol\":4559:4570  data.length */\n      dup1\n      mload\n        /* \"contracts/test/Locker.sol\":4559:4575  data.length == 0 */\n      iszero\n      dup1\n        /* \"contracts/test/Locker.sol\":4559:4603  data.length == 0 || abi.decode(data, (bool)) */\n      tag_561\n      jumpi\n      pop\n        /* \"contracts/test/Locker.sol\":4590:4594  data */\n      dup1\n        /* \"contracts/test/Locker.sol\":4579:4603  abi.decode(data, (bool)) */\n      dup1\n      0x20\n      add\n      swap1\n      mload\n      dup2\n      add\n      swap1\n      tag_561\n      swap2\n      swap1\n      tag_501\n      jump\t// in\n    tag_561:\n        /* \"contracts/test/Locker.sol\":4526:4666  require(... */\n      tag_562\n      jumpi\n      mload(0x40)\n      shl(0xe5, 0x461bcd)\n      dup2\n      mstore\n        /* \"#utility.yul\":19000:19002   */\n      0x20\n        /* \"contracts/test/Locker.sol\":4526:4666  require(... */\n      0x04\n      dup3\n      add\n        /* \"#utility.yul\":18982:19003   */\n      mstore\n        /* \"#utility.yul\":19039:19041   */\n      0x24\n        /* \"#utility.yul\":19019:19037   */\n      dup1\n      dup3\n      add\n        /* \"#utility.yul\":19012:19042   */\n      mstore\n        /* \"#utility.yul\":19078:19112   */\n      0x5472616e7366657248656c7065723a205452414e534645525f46524f4d5f4641\n        /* \"#utility.yul\":19058:19076   */\n      0x44\n      dup3\n      add\n        /* \"#utility.yul\":19051:19113   */\n      mstore\n      shl(0xe2, 0x12531151)\n        /* \"#utility.yul\":19129:19147   */\n      0x64\n      dup3\n      add\n        /* \"#utility.yul\":19122:19156   */\n      mstore\n        /* \"#utility.yul\":19173:19192   */\n      0x84\n      add\n        /* \"contracts/test/Locker.sol\":4526:4666  require(... */\n      tag_178\n        /* \"#utility.yul\":18798:19198   */\n      jump\n        /* \"contracts/test/Locker.sol\":4526:4666  require(... */\n    tag_562:\n        /* \"contracts/test/Locker.sol\":4385:4673  {... */\n      pop\n      pop\n        /* \"contracts/test/Locker.sol\":4256:4673  function safeTransferFrom(... */\n      pop\n      pop\n      pop\n      pop\n      jump\t// out\n        /* \"contracts/test/Locker.sol\":8030:8206  function add(uint256 a, uint256 b) internal pure returns (uint256) {... */\n    tag_418:\n        /* \"contracts/test/Locker.sol\":8088:8095  uint256 */\n      0x00\n      dup1\n        /* \"contracts/test/Locker.sol\":8119:8124  a + b */\n      tag_566\n        /* \"contracts/test/Locker.sol\":8123:8124  b */\n      dup4\n        /* \"contracts/test/Locker.sol\":8119:8120  a */\n      dup6\n        /* \"contracts/test/Locker.sol\":8119:8124  a + b */\n      tag_283\n      jump\t// in\n    tag_566:\n        /* \"contracts/test/Locker.sol\":8107:8124  uint256 c = a + b */\n      swap1\n      pop\n        /* \"contracts/test/Locker.sol\":8147:8148  a */\n      dup4\n        /* \"contracts/test/Locker.sol\":8142:8143  c */\n      dup2\n        /* \"contracts/test/Locker.sol\":8142:8148  c >= a */\n      lt\n      iszero\n        /* \"contracts/test/Locker.sol\":8134:8180  require(c >= a, \"SafeMath: addition overflow\") */\n      tag_512\n      jumpi\n      mload(0x40)\n      shl(0xe5, 0x461bcd)\n      dup2\n      mstore\n        /* \"#utility.yul\":19405:19407   */\n      0x20\n        /* \"contracts/test/Locker.sol\":8134:8180  require(c >= a, \"SafeMath: addition overflow\") */\n      0x04\n      dup3\n      add\n        /* \"#utility.yul\":19387:19408   */\n      mstore\n        /* \"#utility.yul\":19444:19446   */\n      0x1b\n        /* \"#utility.yul\":19424:19442   */\n      0x24\n      dup3\n      add\n        /* \"#utility.yul\":19417:19447   */\n      mstore\n      shl(0x28, 0x536166654d6174683a206164646974696f6e206f766572666c6f77)\n        /* \"#utility.yul\":19463:19481   */\n      0x44\n      dup3\n      add\n        /* \"#utility.yul\":19456:19513   */\n      mstore\n        /* \"#utility.yul\":19530:19548   */\n      0x64\n      add\n        /* \"contracts/test/Locker.sol\":8134:8180  require(c >= a, \"SafeMath: addition overflow\") */\n      tag_178\n        /* \"#utility.yul\":19203:19554   */\n      jump\n        /* \"contracts/test/Locker.sol\":8902:9119  function sub(... */\n    tag_513:\n        /* \"contracts/test/Locker.sol\":9018:9025  uint256 */\n      0x00\n        /* \"contracts/test/Locker.sol\":9053:9065  errorMessage */\n      dup2\n        /* \"contracts/test/Locker.sol\":9045:9051  b <= a */\n      dup5\n      dup5\n      gt\n      iszero\n        /* \"contracts/test/Locker.sol\":9037:9066  require(b <= a, errorMessage) */\n      tag_571\n      jumpi\n      mload(0x40)\n      shl(0xe5, 0x461bcd)\n      dup2\n      mstore\n      0x04\n      add\n      tag_178\n      swap2\n      swap1\n      tag_573\n      jump\t// in\n    tag_571:\n      pop\n        /* \"contracts/test/Locker.sol\":9076:9085  uint256 c */\n      0x00\n        /* \"contracts/test/Locker.sol\":9088:9093  a - b */\n      tag_574\n        /* \"contracts/test/Locker.sol\":9092:9093  b */\n      dup5\n        /* \"contracts/test/Locker.sol\":9088:9089  a */\n      dup7\n        /* \"contracts/test/Locker.sol\":9088:9093  a - b */\n      tag_207\n      jump\t// in\n    tag_574:\n        /* \"contracts/test/Locker.sol\":9076:9093  uint256 c = a - b */\n      swap6\n        /* \"contracts/test/Locker.sol\":8902:9119  function sub(... */\n      swap5\n      pop\n      pop\n      pop\n      pop\n      pop\n      jump\t// out\n        /* \"contracts/test/Locker.sol\":10899:11201  function div(... */\n    tag_551:\n        /* \"contracts/test/Locker.sol\":11015:11022  uint256 */\n      0x00\n        /* \"contracts/test/Locker.sol\":11049:11061  errorMessage */\n      dup2\n        /* \"contracts/test/Locker.sol\":11042:11047  b > 0 */\n      dup4\n        /* \"contracts/test/Locker.sol\":11034:11062  require(b > 0, errorMessage) */\n      tag_576\n      jumpi\n      mload(0x40)\n      shl(0xe5, 0x461bcd)\n      dup2\n      mstore\n      0x04\n      add\n      tag_178\n      swap2\n      swap1\n      tag_573\n      jump\t// in\n    tag_576:\n      pop\n        /* \"contracts/test/Locker.sol\":11072:11081  uint256 c */\n      0x00\n        /* \"contracts/test/Locker.sol\":11084:11089  a / b */\n      tag_574\n        /* \"contracts/test/Locker.sol\":11088:11089  b */\n      dup5\n        /* \"contracts/test/Locker.sol\":11084:11085  a */\n      dup7\n        /* \"contracts/test/Locker.sol\":11084:11089  a / b */\n      tag_545\n      jump\t// in\n    tag_253:\n      mload(0x40)\n      dup1\n      0xc0\n      add\n      0x40\n      mstore\n      dup1\n      0x00\n      dup2\n      mstore\n      0x20\n      add\n      0x00\n      dup2\n      mstore\n      0x20\n      add\n      0x00\n      dup2\n      mstore\n      0x20\n      add\n      0x00\n      dup2\n      mstore\n      0x20\n      add\n      0x00\n      dup2\n      mstore\n      0x20\n      add\n      and(sub(shl(0xa0, 0x01), 0x01), 0x00)\n      dup2\n      mstore\n      pop\n      swap1\n      jump\t// out\n        /* \"#utility.yul\":14:145   */\n    tag_579:\n      sub(shl(0xa0, 0x01), 0x01)\n        /* \"#utility.yul\":89:120   */\n      dup2\n      and\n        /* \"#utility.yul\":79:121   */\n      dup2\n      eq\n        /* \"#utility.yul\":69:139   */\n      tag_585\n      jumpi\n        /* \"#utility.yul\":135:136   */\n      0x00\n        /* \"#utility.yul\":132:133   */\n      dup1\n        /* \"#utility.yul\":125:137   */\n      revert\n        /* \"#utility.yul\":69:139   */\n    tag_585:\n        /* \"#utility.yul\":14:145   */\n      pop\n      jump\t// out\n        /* \"#utility.yul\":150:465   */\n    tag_34:\n        /* \"#utility.yul\":218:224   */\n      0x00\n        /* \"#utility.yul\":226:232   */\n      dup1\n        /* \"#utility.yul\":279:281   */\n      0x40\n        /* \"#utility.yul\":267:276   */\n      dup4\n        /* \"#utility.yul\":258:265   */\n      dup6\n        /* \"#utility.yul\":254:277   */\n      sub\n        /* \"#utility.yul\":250:282   */\n      slt\n        /* \"#utility.yul\":247:299   */\n      iszero\n      tag_587\n      jumpi\n        /* \"#utility.yul\":295:296   */\n      0x00\n        /* \"#utility.yul\":292:293   */\n      dup1\n        /* \"#utility.yul\":285:297   */\n      revert\n        /* \"#utility.yul\":247:299   */\n    tag_587:\n        /* \"#utility.yul\":334:343   */\n      dup3\n        /* \"#utility.yul\":321:344   */\n      calldataload\n        /* \"#utility.yul\":353:384   */\n      tag_588\n        /* \"#utility.yul\":378:383   */\n      dup2\n        /* \"#utility.yul\":353:384   */\n      tag_579\n      jump\t// in\n    tag_588:\n        /* \"#utility.yul\":403:408   */\n      swap5\n        /* \"#utility.yul\":455:457   */\n      0x20\n        /* \"#utility.yul\":440:458   */\n      swap4\n      swap1\n      swap4\n      add\n        /* \"#utility.yul\":427:459   */\n      calldataload\n      swap4\n      pop\n      pop\n      pop\n        /* \"#utility.yul\":150:465   */\n      jump\t// out\n        /* \"#utility.yul\":694:941   */\n    tag_41:\n        /* \"#utility.yul\":753:759   */\n      0x00\n        /* \"#utility.yul\":806:808   */\n      0x20\n        /* \"#utility.yul\":794:803   */\n      dup3\n        /* \"#utility.yul\":785:792   */\n      dup5\n        /* \"#utility.yul\":781:804   */\n      sub\n        /* \"#utility.yul\":777:809   */\n      slt\n        /* \"#utility.yul\":774:826   */\n      iszero\n      tag_591\n      jumpi\n        /* \"#utility.yul\":822:823   */\n      0x00\n        /* \"#utility.yul\":819:820   */\n      dup1\n        /* \"#utility.yul\":812:824   */\n      revert\n        /* \"#utility.yul\":774:826   */\n    tag_591:\n        /* \"#utility.yul\":861:870   */\n      dup2\n        /* \"#utility.yul\":848:871   */\n      calldataload\n        /* \"#utility.yul\":880:911   */\n      tag_512\n        /* \"#utility.yul\":905:910   */\n      dup2\n        /* \"#utility.yul\":880:911   */\n      tag_579\n      jump\t// in\n        /* \"#utility.yul\":1849:2309   */\n    tag_60:\n        /* \"#utility.yul\":1943:1949   */\n      0x00\n        /* \"#utility.yul\":1951:1957   */\n      dup1\n        /* \"#utility.yul\":1959:1965   */\n      0x00\n        /* \"#utility.yul\":1967:1973   */\n      dup1\n        /* \"#utility.yul\":2020:2023   */\n      0x80\n        /* \"#utility.yul\":2008:2017   */\n      dup6\n        /* \"#utility.yul\":1999:2006   */\n      dup8\n        /* \"#utility.yul\":1995:2018   */\n      sub\n        /* \"#utility.yul\":1991:2024   */\n      slt\n        /* \"#utility.yul\":1988:2041   */\n      iszero\n      tag_602\n      jumpi\n        /* \"#utility.yul\":2037:2038   */\n      0x00\n        /* \"#utility.yul\":2034:2035   */\n      dup1\n        /* \"#utility.yul\":2027:2039   */\n      revert\n        /* \"#utility.yul\":1988:2041   */\n    tag_602:\n        /* \"#utility.yul\":2076:2085   */\n      dup5\n        /* \"#utility.yul\":2063:2086   */\n      calldataload\n        /* \"#utility.yul\":2095:2126   */\n      tag_603\n        /* \"#utility.yul\":2120:2125   */\n      dup2\n        /* \"#utility.yul\":2095:2126   */\n      tag_579\n      jump\t// in\n    tag_603:\n        /* \"#utility.yul\":2145:2150   */\n      swap7\n        /* \"#utility.yul\":2197:2199   */\n      0x20\n        /* \"#utility.yul\":2182:2200   */\n      dup7\n      add\n        /* \"#utility.yul\":2169:2201   */\n      calldataload\n      swap7\n      pop\n        /* \"#utility.yul\":2248:2250   */\n      0x40\n        /* \"#utility.yul\":2233:2251   */\n      dup7\n      add\n        /* \"#utility.yul\":2220:2252   */\n      calldataload\n      swap6\n        /* \"#utility.yul\":2299:2301   */\n      0x60\n        /* \"#utility.yul\":2284:2302   */\n      add\n        /* \"#utility.yul\":2271:2303   */\n      calldataload\n      swap5\n      pop\n        /* \"#utility.yul\":1849:2309   */\n      swap3\n      pop\n      pop\n      pop\n      jump\t// out\n        /* \"#utility.yul\":2771:3156   */\n    tag_82:\n        /* \"#utility.yul\":2857:2863   */\n      0x00\n        /* \"#utility.yul\":2865:2871   */\n      dup1\n        /* \"#utility.yul\":2873:2879   */\n      0x00\n        /* \"#utility.yul\":2881:2887   */\n      dup1\n        /* \"#utility.yul\":2934:2937   */\n      0x80\n        /* \"#utility.yul\":2922:2931   */\n      dup6\n        /* \"#utility.yul\":2913:2920   */\n      dup8\n        /* \"#utility.yul\":2909:2932   */\n      sub\n        /* \"#utility.yul\":2905:2938   */\n      slt\n        /* \"#utility.yul\":2902:2955   */\n      iszero\n      tag_608\n      jumpi\n        /* \"#utility.yul\":2951:2952   */\n      0x00\n        /* \"#utility.yul\":2948:2949   */\n      dup1\n        /* \"#utility.yul\":2941:2953   */\n      revert\n        /* \"#utility.yul\":2902:2955   */\n    tag_608:\n      pop\n      pop\n        /* \"#utility.yul\":2974:2997   */\n      dup3\n      calldataload\n      swap5\n        /* \"#utility.yul\":3044:3046   */\n      0x20\n        /* \"#utility.yul\":3029:3047   */\n      dup5\n      add\n        /* \"#utility.yul\":3016:3048   */\n      calldataload\n      swap5\n      pop\n        /* \"#utility.yul\":3095:3097   */\n      0x40\n        /* \"#utility.yul\":3080:3098   */\n      dup5\n      add\n        /* \"#utility.yul\":3067:3099   */\n      calldataload\n      swap4\n        /* \"#utility.yul\":3146:3148   */\n      0x60\n        /* \"#utility.yul\":3131:3149   */\n      add\n        /* \"#utility.yul\":3118:3150   */\n      calldataload\n      swap3\n      pop\n        /* \"#utility.yul\":2771:3156   */\n      swap1\n      pop\n      jump\t// out\n        /* \"#utility.yul\":4106:4224   */\n    tag_580:\n        /* \"#utility.yul\":4192:4197   */\n      dup1\n        /* \"#utility.yul\":4185:4198   */\n      iszero\n        /* \"#utility.yul\":4178:4199   */\n      iszero\n        /* \"#utility.yul\":4171:4176   */\n      dup2\n        /* \"#utility.yul\":4168:4200   */\n      eq\n        /* \"#utility.yul\":4158:4218   */\n      tag_585\n      jumpi\n        /* \"#utility.yul\":4214:4215   */\n      0x00\n        /* \"#utility.yul\":4211:4212   */\n      dup1\n        /* \"#utility.yul\":4204:4216   */\n      revert\n        /* \"#utility.yul\":4229:4619   */\n    tag_118:\n        /* \"#utility.yul\":4302:4308   */\n      0x00\n        /* \"#utility.yul\":4310:4316   */\n      dup1\n        /* \"#utility.yul\":4363:4365   */\n      0x40\n        /* \"#utility.yul\":4351:4360   */\n      dup4\n        /* \"#utility.yul\":4342:4349   */\n      dup6\n        /* \"#utility.yul\":4338:4361   */\n      sub\n        /* \"#utility.yul\":4334:4366   */\n      slt\n        /* \"#utility.yul\":4331:4383   */\n      iszero\n      tag_615\n      jumpi\n        /* \"#utility.yul\":4379:4380   */\n      0x00\n        /* \"#utility.yul\":4376:4377   */\n      dup1\n        /* \"#utility.yul\":4369:4381   */\n      revert\n        /* \"#utility.yul\":4331:4383   */\n    tag_615:\n        /* \"#utility.yul\":4418:4427   */\n      dup3\n        /* \"#utility.yul\":4405:4428   */\n      calldataload\n        /* \"#utility.yul\":4437:4468   */\n      tag_616\n        /* \"#utility.yul\":4462:4467   */\n      dup2\n        /* \"#utility.yul\":4437:4468   */\n      tag_579\n      jump\t// in\n    tag_616:\n        /* \"#utility.yul\":4487:4492   */\n      swap2\n      pop\n        /* \"#utility.yul\":4544:4546   */\n      0x20\n        /* \"#utility.yul\":4529:4547   */\n      dup4\n      add\n        /* \"#utility.yul\":4516:4548   */\n      calldataload\n        /* \"#utility.yul\":4557:4587   */\n      tag_617\n        /* \"#utility.yul\":4516:4548   */\n      dup2\n        /* \"#utility.yul\":4557:4587   */\n      tag_580\n      jump\t// in\n    tag_617:\n        /* \"#utility.yul\":4606:4613   */\n      dup1\n        /* \"#utility.yul\":4596:4613   */\n      swap2\n      pop\n      pop\n        /* \"#utility.yul\":4229:4619   */\n      swap3\n      pop\n      swap3\n      swap1\n      pop\n      jump\t// out\n        /* \"#utility.yul\":4624:5301   */\n    tag_122:\n        /* \"#utility.yul\":4732:4738   */\n      0x00\n        /* \"#utility.yul\":4740:4746   */\n      dup1\n        /* \"#utility.yul\":4748:4754   */\n      0x00\n        /* \"#utility.yul\":4756:4762   */\n      dup1\n        /* \"#utility.yul\":4764:4770   */\n      0x00\n        /* \"#utility.yul\":4817:4820   */\n      0xa0\n        /* \"#utility.yul\":4805:4814   */\n      dup7\n        /* \"#utility.yul\":4796:4803   */\n      dup9\n        /* \"#utility.yul\":4792:4815   */\n      sub\n        /* \"#utility.yul\":4788:4821   */\n      slt\n        /* \"#utility.yul\":4785:4838   */\n      iszero\n      tag_619\n      jumpi\n        /* \"#utility.yul\":4834:4835   */\n      0x00\n        /* \"#utility.yul\":4831:4832   */\n      dup1\n        /* \"#utility.yul\":4824:4836   */\n      revert\n        /* \"#utility.yul\":4785:4838   */\n    tag_619:\n        /* \"#utility.yul\":4873:4882   */\n      dup6\n        /* \"#utility.yul\":4860:4883   */\n      calldataload\n        /* \"#utility.yul\":4892:4923   */\n      tag_620\n        /* \"#utility.yul\":4917:4922   */\n      dup2\n        /* \"#utility.yul\":4892:4923   */\n      tag_579\n      jump\t// in\n    tag_620:\n        /* \"#utility.yul\":4942:4947   */\n      swap5\n      pop\n        /* \"#utility.yul\":4994:4996   */\n      0x20\n        /* \"#utility.yul\":4979:4997   */\n      dup7\n      add\n        /* \"#utility.yul\":4966:4998   */\n      calldataload\n      swap4\n      pop\n        /* \"#utility.yul\":5045:5047   */\n      0x40\n        /* \"#utility.yul\":5030:5048   */\n      dup7\n      add\n        /* \"#utility.yul\":5017:5049   */\n      calldataload\n      swap3\n      pop\n        /* \"#utility.yul\":5101:5103   */\n      0x60\n        /* \"#utility.yul\":5086:5104   */\n      dup7\n      add\n        /* \"#utility.yul\":5073:5105   */\n      calldataload\n        /* \"#utility.yul\":5114:5144   */\n      tag_621\n        /* \"#utility.yul\":5073:5105   */\n      dup2\n        /* \"#utility.yul\":5114:5144   */\n      tag_580\n      jump\t// in\n    tag_621:\n        /* \"#utility.yul\":5163:5170   */\n      swap2\n      pop\n        /* \"#utility.yul\":5222:5225   */\n      0x80\n        /* \"#utility.yul\":5207:5226   */\n      dup7\n      add\n        /* \"#utility.yul\":5194:5227   */\n      calldataload\n        /* \"#utility.yul\":5236:5269   */\n      tag_622\n        /* \"#utility.yul\":5194:5227   */\n      dup2\n        /* \"#utility.yul\":5236:5269   */\n      tag_579\n      jump\t// in\n    tag_622:\n        /* \"#utility.yul\":5288:5295   */\n      dup1\n        /* \"#utility.yul\":5278:5295   */\n      swap2\n      pop\n      pop\n        /* \"#utility.yul\":4624:5301   */\n      swap3\n      swap6\n      pop\n      swap3\n      swap6\n      swap1\n      swap4\n      pop\n      jump\t// out\n        /* \"#utility.yul\":5306:5694   */\n    tag_132:\n        /* \"#utility.yul\":5374:5380   */\n      0x00\n        /* \"#utility.yul\":5382:5388   */\n      dup1\n        /* \"#utility.yul\":5435:5437   */\n      0x40\n        /* \"#utility.yul\":5423:5432   */\n      dup4\n        /* \"#utility.yul\":5414:5421   */\n      dup6\n        /* \"#utility.yul\":5410:5433   */\n      sub\n        /* \"#utility.yul\":5406:5438   */\n      slt\n        /* \"#utility.yul\":5403:5455   */\n      iszero\n      tag_624\n      jumpi\n        /* \"#utility.yul\":5451:5452   */\n      0x00\n        /* \"#utility.yul\":5448:5449   */\n      dup1\n        /* \"#utility.yul\":5441:5453   */\n      revert\n        /* \"#utility.yul\":5403:5455   */\n    tag_624:\n        /* \"#utility.yul\":5490:5499   */\n      dup3\n        /* \"#utility.yul\":5477:5500   */\n      calldataload\n        /* \"#utility.yul\":5509:5540   */\n      tag_625\n        /* \"#utility.yul\":5534:5539   */\n      dup2\n        /* \"#utility.yul\":5509:5540   */\n      tag_579\n      jump\t// in\n    tag_625:\n        /* \"#utility.yul\":5559:5564   */\n      swap2\n      pop\n        /* \"#utility.yul\":5616:5618   */\n      0x20\n        /* \"#utility.yul\":5601:5619   */\n      dup4\n      add\n        /* \"#utility.yul\":5588:5620   */\n      calldataload\n        /* \"#utility.yul\":5629:5662   */\n      tag_617\n        /* \"#utility.yul\":5588:5620   */\n      dup2\n        /* \"#utility.yul\":5629:5662   */\n      tag_579\n      jump\t// in\n        /* \"#utility.yul\":5699:6240   */\n    tag_146:\n        /* \"#utility.yul\":5801:5807   */\n      0x00\n        /* \"#utility.yul\":5809:5815   */\n      dup1\n        /* \"#utility.yul\":5817:5823   */\n      0x00\n        /* \"#utility.yul\":5825:5831   */\n      dup1\n        /* \"#utility.yul\":5878:5881   */\n      0x80\n        /* \"#utility.yul\":5866:5875   */\n      dup6\n        /* \"#utility.yul\":5857:5864   */\n      dup8\n        /* \"#utility.yul\":5853:5876   */\n      sub\n        /* \"#utility.yul\":5849:5882   */\n      slt\n        /* \"#utility.yul\":5846:5899   */\n      iszero\n      tag_628\n      jumpi\n        /* \"#utility.yul\":5895:5896   */\n      0x00\n        /* \"#utility.yul\":5892:5893   */\n      dup1\n        /* \"#utility.yul\":5885:5897   */\n      revert\n        /* \"#utility.yul\":5846:5899   */\n    tag_628:\n        /* \"#utility.yul\":5934:5943   */\n      dup5\n        /* \"#utility.yul\":5921:5944   */\n      calldataload\n        /* \"#utility.yul\":5953:5984   */\n      tag_629\n        /* \"#utility.yul\":5978:5983   */\n      dup2\n        /* \"#utility.yul\":5953:5984   */\n      tag_579\n      jump\t// in\n    tag_629:\n        /* \"#utility.yul\":6003:6008   */\n      swap4\n      pop\n        /* \"#utility.yul\":6055:6057   */\n      0x20\n        /* \"#utility.yul\":6040:6058   */\n      dup6\n      add\n        /* \"#utility.yul\":6027:6059   */\n      calldataload\n      swap3\n      pop\n        /* \"#utility.yul\":6106:6108   */\n      0x40\n        /* \"#utility.yul\":6091:6109   */\n      dup6\n      add\n        /* \"#utility.yul\":6078:6110   */\n      calldataload\n      swap2\n      pop\n        /* \"#utility.yul\":6162:6164   */\n      0x60\n        /* \"#utility.yul\":6147:6165   */\n      dup6\n      add\n        /* \"#utility.yul\":6134:6166   */\n      calldataload\n        /* \"#utility.yul\":6175:6208   */\n      tag_630\n        /* \"#utility.yul\":6134:6166   */\n      dup2\n        /* \"#utility.yul\":6175:6208   */\n      tag_579\n      jump\t// in\n    tag_630:\n        /* \"#utility.yul\":5699:6240   */\n      swap4\n      swap7\n      swap3\n      swap6\n      pop\n      swap1\n      swap4\n      pop\n      pop\n      jump\t// out\n        /* \"#utility.yul\":6811:7267   */\n    tag_157:\n        /* \"#utility.yul\":6888:6894   */\n      0x00\n        /* \"#utility.yul\":6896:6902   */\n      dup1\n        /* \"#utility.yul\":6904:6910   */\n      0x00\n        /* \"#utility.yul\":6957:6959   */\n      0x60\n        /* \"#utility.yul\":6945:6954   */\n      dup5\n        /* \"#utility.yul\":6936:6943   */\n      dup7\n        /* \"#utility.yul\":6932:6955   */\n      sub\n        /* \"#utility.yul\":6928:6960   */\n      slt\n        /* \"#utility.yul\":6925:6977   */\n      iszero\n      tag_633\n      jumpi\n        /* \"#utility.yul\":6973:6974   */\n      0x00\n        /* \"#utility.yul\":6970:6971   */\n      dup1\n        /* \"#utility.yul\":6963:6975   */\n      revert\n        /* \"#utility.yul\":6925:6977   */\n    tag_633:\n        /* \"#utility.yul\":7012:7021   */\n      dup4\n        /* \"#utility.yul\":6999:7022   */\n      calldataload\n        /* \"#utility.yul\":7031:7062   */\n      tag_634\n        /* \"#utility.yul\":7056:7061   */\n      dup2\n        /* \"#utility.yul\":7031:7062   */\n      tag_579\n      jump\t// in\n    tag_634:\n        /* \"#utility.yul\":7081:7086   */\n      swap3\n      pop\n        /* \"#utility.yul\":7138:7140   */\n      0x20\n        /* \"#utility.yul\":7123:7141   */\n      dup5\n      add\n        /* \"#utility.yul\":7110:7142   */\n      calldataload\n        /* \"#utility.yul\":7151:7184   */\n      tag_635\n        /* \"#utility.yul\":7110:7142   */\n      dup2\n        /* \"#utility.yul\":7151:7184   */\n      tag_579\n      jump\t// in\n    tag_635:\n        /* \"#utility.yul\":6811:7267   */\n      swap3\n      swap6\n        /* \"#utility.yul\":7203:7210   */\n      swap3\n      swap5\n      pop\n      pop\n      pop\n        /* \"#utility.yul\":7257:7259   */\n      0x40\n        /* \"#utility.yul\":7242:7260   */\n      swap2\n      swap1\n      swap2\n      add\n        /* \"#utility.yul\":7229:7261   */\n      calldataload\n      swap1\n        /* \"#utility.yul\":6811:7267   */\n      jump\t// out\n        /* \"#utility.yul\":7272:7399   */\n    tag_171:\n        /* \"#utility.yul\":7333:7343   */\n      0x4e487b71\n        /* \"#utility.yul\":7328:7331   */\n      0xe0\n        /* \"#utility.yul\":7324:7344   */\n      shl\n        /* \"#utility.yul\":7321:7322   */\n      0x00\n        /* \"#utility.yul\":7314:7345   */\n      mstore\n        /* \"#utility.yul\":7364:7368   */\n      0x32\n        /* \"#utility.yul\":7361:7362   */\n      0x04\n        /* \"#utility.yul\":7354:7369   */\n      mstore\n        /* \"#utility.yul\":7388:7392   */\n      0x24\n        /* \"#utility.yul\":7385:7386   */\n      0x00\n        /* \"#utility.yul\":7378:7393   */\n      revert\n        /* \"#utility.yul\":7404:7760   */\n    tag_179:\n        /* \"#utility.yul\":7606:7608   */\n      0x20\n        /* \"#utility.yul\":7588:7609   */\n      dup1\n      dup3\n      mstore\n        /* \"#utility.yul\":7625:7643   */\n      dup2\n      dup2\n      add\n        /* \"#utility.yul\":7618:7648   */\n      mstore\n        /* \"#utility.yul\":7684:7718   */\n      0x4f776e61626c653a2063616c6c6572206973206e6f7420746865206f776e6572\n        /* \"#utility.yul\":7679:7681   */\n      0x40\n        /* \"#utility.yul\":7664:7682   */\n      dup3\n      add\n        /* \"#utility.yul\":7657:7719   */\n      mstore\n        /* \"#utility.yul\":7751:7753   */\n      0x60\n        /* \"#utility.yul\":7736:7754   */\n      add\n      swap1\n        /* \"#utility.yul\":7404:7760   */\n      jump\t// out\n        /* \"#utility.yul\":7765:8120   */\n    tag_185:\n        /* \"#utility.yul\":7967:7969   */\n      0x20\n        /* \"#utility.yul\":7949:7970   */\n      dup1\n      dup3\n      mstore\n        /* \"#utility.yul\":8006:8008   */\n      0x1f\n        /* \"#utility.yul\":7986:8004   */\n      swap1\n      dup3\n      add\n        /* \"#utility.yul\":7979:8009   */\n      mstore\n        /* \"#utility.yul\":8045:8078   */\n      0x5265656e7472616e637947756172643a207265656e7472616e742063616c6c00\n        /* \"#utility.yul\":8040:8042   */\n      0x40\n        /* \"#utility.yul\":8025:8043   */\n      dup3\n      add\n        /* \"#utility.yul\":8018:8079   */\n      mstore\n        /* \"#utility.yul\":8111:8113   */\n      0x60\n        /* \"#utility.yul\":8096:8114   */\n      add\n      swap1\n        /* \"#utility.yul\":7765:8120   */\n      jump\t// out\n        /* \"#utility.yul\":8468:8805   */\n    tag_199:\n        /* \"#utility.yul\":8670:8672   */\n      0x20\n        /* \"#utility.yul\":8652:8673   */\n      dup1\n      dup3\n      mstore\n        /* \"#utility.yul\":8709:8711   */\n      0x0d\n        /* \"#utility.yul\":8689:8707   */\n      swap1\n      dup3\n      add\n        /* \"#utility.yul\":8682:8712   */\n      mstore\n      shl(0x9b, 0x0989e8696409a92a69a82a8869)\n        /* \"#utility.yul\":8743:8745   */\n      0x40\n        /* \"#utility.yul\":8728:8746   */\n      dup3\n      add\n        /* \"#utility.yul\":8721:8764   */\n      mstore\n        /* \"#utility.yul\":8796:8798   */\n      0x60\n        /* \"#utility.yul\":8781:8799   */\n      add\n      swap1\n        /* \"#utility.yul\":8468:8805   */\n      jump\t// out\n        /* \"#utility.yul\":9145:9272   */\n    tag_581:\n        /* \"#utility.yul\":9206:9216   */\n      0x4e487b71\n        /* \"#utility.yul\":9201:9204   */\n      0xe0\n        /* \"#utility.yul\":9197:9217   */\n      shl\n        /* \"#utility.yul\":9194:9195   */\n      0x00\n        /* \"#utility.yul\":9187:9218   */\n      mstore\n        /* \"#utility.yul\":9237:9241   */\n      0x11\n        /* \"#utility.yul\":9234:9235   */\n      0x04\n        /* \"#utility.yul\":9227:9242   */\n      mstore\n        /* \"#utility.yul\":9261:9265   */\n      0x24\n        /* \"#utility.yul\":9258:9259   */\n      0x00\n        /* \"#utility.yul\":9251:9266   */\n      revert\n        /* \"#utility.yul\":9277:9402   */\n    tag_207:\n        /* \"#utility.yul\":9317:9321   */\n      0x00\n        /* \"#utility.yul\":9345:9346   */\n      dup3\n        /* \"#utility.yul\":9342:9343   */\n      dup3\n        /* \"#utility.yul\":9339:9347   */\n      lt\n        /* \"#utility.yul\":9336:9370   */\n      iszero\n      tag_645\n      jumpi\n        /* \"#utility.yul\":9350:9368   */\n      tag_645\n      tag_581\n      jump\t// in\n    tag_645:\n      pop\n        /* \"#utility.yul\":9387:9396   */\n      sub\n      swap1\n        /* \"#utility.yul\":9277:9402   */\n      jump\t// out\n        /* \"#utility.yul\":9407:9534   */\n    tag_216:\n        /* \"#utility.yul\":9468:9478   */\n      0x4e487b71\n        /* \"#utility.yul\":9463:9466   */\n      0xe0\n        /* \"#utility.yul\":9459:9479   */\n      shl\n        /* \"#utility.yul\":9456:9457   */\n      0x00\n        /* \"#utility.yul\":9449:9480   */\n      mstore\n        /* \"#utility.yul\":9499:9503   */\n      0x31\n        /* \"#utility.yul\":9496:9497   */\n      0x04\n        /* \"#utility.yul\":9489:9504   */\n      mstore\n        /* \"#utility.yul\":9523:9527   */\n      0x24\n        /* \"#utility.yul\":9520:9521   */\n      0x00\n        /* \"#utility.yul\":9513:9528   */\n      revert\n        /* \"#utility.yul\":9539:9821   */\n    tag_228:\n      sub(shl(0xa0, 0x01), 0x01)\n        /* \"#utility.yul\":9739:9771   */\n      swap3\n      swap1\n      swap3\n      and\n        /* \"#utility.yul\":9721:9772   */\n      dup3\n      mstore\n        /* \"#utility.yul\":9803:9805   */\n      0x20\n        /* \"#utility.yul\":9788:9806   */\n      dup3\n      add\n        /* \"#utility.yul\":9781:9815   */\n      mstore\n        /* \"#utility.yul\":9709:9711   */\n      0x40\n        /* \"#utility.yul\":9694:9712   */\n      add\n      swap1\n        /* \"#utility.yul\":9539:9821   */\n      jump\t// out\n        /* \"#utility.yul\":9826:10161   */\n    tag_236:\n        /* \"#utility.yul\":10028:10030   */\n      0x20\n        /* \"#utility.yul\":10010:10031   */\n      dup1\n      dup3\n      mstore\n        /* \"#utility.yul\":10067:10069   */\n      0x0b\n        /* \"#utility.yul\":10047:10065   */\n      swap1\n      dup3\n      add\n        /* \"#utility.yul\":10040:10070   */\n      mstore\n      shl(0xaa, 0x16915493c8105353d55395)\n        /* \"#utility.yul\":10101:10103   */\n      0x40\n        /* \"#utility.yul\":10086:10104   */\n      dup3\n      add\n        /* \"#utility.yul\":10079:10120   */\n      mstore\n        /* \"#utility.yul\":10152:10154   */\n      0x60\n        /* \"#utility.yul\":10137:10155   */\n      add\n      swap1\n        /* \"#utility.yul\":9826:10161   */\n      jump\t// out\n        /* \"#utility.yul\":10166:10501   */\n    tag_248:\n        /* \"#utility.yul\":10368:10370   */\n      0x20\n        /* \"#utility.yul\":10350:10371   */\n      dup1\n      dup3\n      mstore\n        /* \"#utility.yul\":10407:10409   */\n      0x0b\n        /* \"#utility.yul\":10387:10405   */\n      swap1\n      dup3\n      add\n        /* \"#utility.yul\":10380:10410   */\n      mstore\n      shl(0xaa, 0x119151481393d508135155)\n        /* \"#utility.yul\":10441:10443   */\n      0x40\n        /* \"#utility.yul\":10426:10444   */\n      dup3\n      add\n        /* \"#utility.yul\":10419:10460   */\n      mstore\n        /* \"#utility.yul\":10492:10494   */\n      0x60\n        /* \"#utility.yul\":10477:10495   */\n      add\n      swap1\n        /* \"#utility.yul\":10166:10501   */\n      jump\t// out\n        /* \"#utility.yul\":10506:10847   */\n    tag_268:\n        /* \"#utility.yul\":10708:10710   */\n      0x20\n        /* \"#utility.yul\":10690:10711   */\n      dup1\n      dup3\n      mstore\n        /* \"#utility.yul\":10747:10749   */\n      0x11\n        /* \"#utility.yul\":10727:10745   */\n      swap1\n      dup3\n      add\n        /* \"#utility.yul\":10720:10750   */\n      mstore\n      shl(0x7a, 0x1512535154d51053540812539590531251)\n        /* \"#utility.yul\":10781:10783   */\n      0x40\n        /* \"#utility.yul\":10766:10784   */\n      dup3\n      add\n        /* \"#utility.yul\":10759:10806   */\n      mstore\n        /* \"#utility.yul\":10838:10840   */\n      0x60\n        /* \"#utility.yul\":10823:10841   */\n      add\n      swap1\n        /* \"#utility.yul\":10506:10847   */\n      jump\t// out\n        /* \"#utility.yul\":11194:11322   */\n    tag_283:\n        /* \"#utility.yul\":11234:11237   */\n      0x00\n        /* \"#utility.yul\":11265:11266   */\n      dup3\n        /* \"#utility.yul\":11261:11267   */\n      not\n        /* \"#utility.yul\":11258:11259   */\n      dup3\n        /* \"#utility.yul\":11255:11268   */\n      gt\n        /* \"#utility.yul\":11252:11291   */\n      iszero\n      tag_654\n      jumpi\n        /* \"#utility.yul\":11271:11289   */\n      tag_654\n      tag_581\n      jump\t// in\n    tag_654:\n      pop\n        /* \"#utility.yul\":11307:11316   */\n      add\n      swap1\n        /* \"#utility.yul\":11194:11322   */\n      jump\t// out\n        /* \"#utility.yul\":12003:12254   */\n    tag_335:\n        /* \"#utility.yul\":12073:12079   */\n      0x00\n        /* \"#utility.yul\":12126:12128   */\n      0x20\n        /* \"#utility.yul\":12114:12123   */\n      dup3\n        /* \"#utility.yul\":12105:12112   */\n      dup5\n        /* \"#utility.yul\":12101:12124   */\n      sub\n        /* \"#utility.yul\":12097:12129   */\n      slt\n        /* \"#utility.yul\":12094:12146   */\n      iszero\n      tag_658\n      jumpi\n        /* \"#utility.yul\":12142:12143   */\n      0x00\n        /* \"#utility.yul\":12139:12140   */\n      dup1\n        /* \"#utility.yul\":12132:12144   */\n      revert\n        /* \"#utility.yul\":12094:12146   */\n    tag_658:\n        /* \"#utility.yul\":12174:12183   */\n      dup2\n        /* \"#utility.yul\":12168:12184   */\n      mload\n        /* \"#utility.yul\":12193:12224   */\n      tag_512\n        /* \"#utility.yul\":12218:12223   */\n      dup2\n        /* \"#utility.yul\":12193:12224   */\n      tag_579\n      jump\t// in\n        /* \"#utility.yul\":12905:13432   */\n    tag_393:\n      sub(shl(0xa0, 0x01), 0x01)\n        /* \"#utility.yul\":13228:13243   */\n      swap6\n      dup7\n      and\n        /* \"#utility.yul\":13210:13244   */\n      dup2\n      mstore\n        /* \"#utility.yul\":13280:13295   */\n      swap4\n      swap1\n      swap5\n      and\n        /* \"#utility.yul\":13275:13277   */\n      0x20\n        /* \"#utility.yul\":13260:13278   */\n      dup5\n      add\n        /* \"#utility.yul\":13253:13296   */\n      mstore\n        /* \"#utility.yul\":13327:13329   */\n      0x40\n        /* \"#utility.yul\":13312:13330   */\n      dup4\n      add\n        /* \"#utility.yul\":13305:13339   */\n      swap2\n      swap1\n      swap2\n      mstore\n        /* \"#utility.yul\":13370:13372   */\n      0x60\n        /* \"#utility.yul\":13355:13373   */\n      dup3\n      add\n        /* \"#utility.yul\":13348:13382   */\n      mstore\n        /* \"#utility.yul\":13413:13416   */\n      0x80\n        /* \"#utility.yul\":13398:13417   */\n      dup2\n      add\n        /* \"#utility.yul\":13391:13426   */\n      swap2\n      swap1\n      swap2\n      mstore\n        /* \"#utility.yul\":13159:13162   */\n      0xa0\n        /* \"#utility.yul\":13144:13163   */\n      add\n      swap1\n        /* \"#utility.yul\":12905:13432   */\n      jump\t// out\n        /* \"#utility.yul\":15424:15669   */\n    tag_501:\n        /* \"#utility.yul\":15491:15497   */\n      0x00\n        /* \"#utility.yul\":15544:15546   */\n      0x20\n        /* \"#utility.yul\":15532:15541   */\n      dup3\n        /* \"#utility.yul\":15523:15530   */\n      dup5\n        /* \"#utility.yul\":15519:15542   */\n      sub\n        /* \"#utility.yul\":15515:15547   */\n      slt\n        /* \"#utility.yul\":15512:15564   */\n      iszero\n      tag_669\n      jumpi\n        /* \"#utility.yul\":15560:15561   */\n      0x00\n        /* \"#utility.yul\":15557:15558   */\n      dup1\n        /* \"#utility.yul\":15550:15562   */\n      revert\n        /* \"#utility.yul\":15512:15564   */\n    tag_669:\n        /* \"#utility.yul\":15592:15601   */\n      dup2\n        /* \"#utility.yul\":15586:15602   */\n      mload\n        /* \"#utility.yul\":15611:15639   */\n      tag_512\n        /* \"#utility.yul\":15633:15638   */\n      dup2\n        /* \"#utility.yul\":15611:15639   */\n      tag_580\n      jump\t// in\n        /* \"#utility.yul\":16360:16618   */\n    tag_582:\n        /* \"#utility.yul\":16432:16433   */\n      0x00\n        /* \"#utility.yul\":16442:16555   */\n    tag_674:\n        /* \"#utility.yul\":16456:16462   */\n      dup4\n        /* \"#utility.yul\":16453:16454   */\n      dup2\n        /* \"#utility.yul\":16450:16463   */\n      lt\n        /* \"#utility.yul\":16442:16555   */\n      iszero\n      tag_676\n      jumpi\n        /* \"#utility.yul\":16532:16543   */\n      dup2\n      dup2\n      add\n        /* \"#utility.yul\":16526:16544   */\n      mload\n        /* \"#utility.yul\":16513:16524   */\n      dup4\n      dup3\n      add\n        /* \"#utility.yul\":16506:16545   */\n      mstore\n        /* \"#utility.yul\":16478:16480   */\n      0x20\n        /* \"#utility.yul\":16471:16481   */\n      add\n        /* \"#utility.yul\":16442:16555   */\n      jump(tag_674)\n    tag_676:\n        /* \"#utility.yul\":16573:16579   */\n      dup4\n        /* \"#utility.yul\":16570:16571   */\n      dup2\n        /* \"#utility.yul\":16567:16580   */\n      gt\n        /* \"#utility.yul\":16564:16612   */\n      iszero\n      tag_677\n      jumpi\n        /* \"#utility.yul\":16608:16609   */\n      0x00\n        /* \"#utility.yul\":16599:16605   */\n      dup5\n        /* \"#utility.yul\":16594:16597   */\n      dup5\n        /* \"#utility.yul\":16590:16606   */\n      add\n        /* \"#utility.yul\":16583:16610   */\n      mstore\n        /* \"#utility.yul\":16564:16612   */\n    tag_677:\n      pop\n        /* \"#utility.yul\":16360:16618   */\n      pop\n      pop\n      pop\n      jump\t// out\n        /* \"#utility.yul\":16623:16897   */\n    tag_518:\n        /* \"#utility.yul\":16752:16755   */\n      0x00\n        /* \"#utility.yul\":16790:16796   */\n      dup3\n        /* \"#utility.yul\":16784:16797   */\n      mload\n        /* \"#utility.yul\":16806:16859   */\n      tag_679\n        /* \"#utility.yul\":16852:16858   */\n      dup2\n        /* \"#utility.yul\":16847:16850   */\n      dup5\n        /* \"#utility.yul\":16840:16844   */\n      0x20\n        /* \"#utility.yul\":16832:16838   */\n      dup8\n        /* \"#utility.yul\":16828:16845   */\n      add\n        /* \"#utility.yul\":16806:16859   */\n      tag_582\n      jump\t// in\n    tag_679:\n        /* \"#utility.yul\":16875:16891   */\n      swap2\n      swap1\n      swap2\n      add\n      swap3\n        /* \"#utility.yul\":16623:16897   */\n      swap2\n      pop\n      pop\n      jump\t// out\n        /* \"#utility.yul\":17621:17789   */\n    tag_543:\n        /* \"#utility.yul\":17661:17668   */\n      0x00\n        /* \"#utility.yul\":17727:17728   */\n      dup2\n        /* \"#utility.yul\":17723:17724   */\n      0x00\n        /* \"#utility.yul\":17719:17725   */\n      not\n        /* \"#utility.yul\":17715:17729   */\n      div\n        /* \"#utility.yul\":17712:17713   */\n      dup4\n        /* \"#utility.yul\":17709:17730   */\n      gt\n        /* \"#utility.yul\":17704:17705   */\n      dup3\n        /* \"#utility.yul\":17697:17706   */\n      iszero\n        /* \"#utility.yul\":17690:17707   */\n      iszero\n        /* \"#utility.yul\":17686:17731   */\n      and\n        /* \"#utility.yul\":17683:17754   */\n      iszero\n      tag_684\n      jumpi\n        /* \"#utility.yul\":17734:17752   */\n      tag_684\n      tag_581\n      jump\t// in\n    tag_684:\n      pop\n        /* \"#utility.yul\":17774:17783   */\n      mul\n      swap1\n        /* \"#utility.yul\":17621:17789   */\n      jump\t// out\n        /* \"#utility.yul\":17794:18011   */\n    tag_545:\n        /* \"#utility.yul\":17834:17835   */\n      0x00\n        /* \"#utility.yul\":17860:17861   */\n      dup3\n        /* \"#utility.yul\":17850:17982   */\n      tag_686\n      jumpi\n        /* \"#utility.yul\":17904:17914   */\n      0x4e487b71\n        /* \"#utility.yul\":17899:17902   */\n      0xe0\n        /* \"#utility.yul\":17895:17915   */\n      shl\n        /* \"#utility.yul\":17892:17893   */\n      0x00\n        /* \"#utility.yul\":17885:17916   */\n      mstore\n        /* \"#utility.yul\":17939:17943   */\n      0x12\n        /* \"#utility.yul\":17936:17937   */\n      0x04\n        /* \"#utility.yul\":17929:17944   */\n      mstore\n        /* \"#utility.yul\":17967:17971   */\n      0x24\n        /* \"#utility.yul\":17964:17965   */\n      0x00\n        /* \"#utility.yul\":17957:17972   */\n      revert\n        /* \"#utility.yul\":17850:17982   */\n    tag_686:\n      pop\n        /* \"#utility.yul\":17996:18005   */\n      div\n      swap1\n        /* \"#utility.yul\":17794:18011   */\n      jump\t// out\n        /* \"#utility.yul\":19559:19942   */\n    tag_573:\n        /* \"#utility.yul\":19708:19710   */\n      0x20\n        /* \"#utility.yul\":19697:19706   */\n      dup2\n        /* \"#utility.yul\":19690:19711   */\n      mstore\n        /* \"#utility.yul\":19671:19675   */\n      0x00\n        /* \"#utility.yul\":19740:19746   */\n      dup3\n        /* \"#utility.yul\":19734:19747   */\n      mload\n        /* \"#utility.yul\":19783:19789   */\n      dup1\n        /* \"#utility.yul\":19778:19780   */\n      0x20\n        /* \"#utility.yul\":19767:19776   */\n      dup5\n        /* \"#utility.yul\":19763:19781   */\n      add\n        /* \"#utility.yul\":19756:19790   */\n      mstore\n        /* \"#utility.yul\":19799:19865   */\n      tag_692\n        /* \"#utility.yul\":19858:19864   */\n      dup2\n        /* \"#utility.yul\":19853:19855   */\n      0x40\n        /* \"#utility.yul\":19842:19851   */\n      dup6\n        /* \"#utility.yul\":19838:19856   */\n      add\n        /* \"#utility.yul\":19833:19835   */\n      0x20\n        /* \"#utility.yul\":19825:19831   */\n      dup8\n        /* \"#utility.yul\":19821:19836   */\n      add\n        /* \"#utility.yul\":19799:19865   */\n      tag_582\n      jump\t// in\n    tag_692:\n        /* \"#utility.yul\":19926:19928   */\n      0x1f\n        /* \"#utility.yul\":19905:19920   */\n      add\n      not(0x1f)\n        /* \"#utility.yul\":19901:19930   */\n      and\n        /* \"#utility.yul\":19886:19931   */\n      swap2\n      swap1\n      swap2\n      add\n        /* \"#utility.yul\":19933:19935   */\n      0x40\n        /* \"#utility.yul\":19882:19936   */\n      add\n      swap3\n        /* \"#utility.yul\":19559:19942   */\n      swap2\n      pop\n      pop\n      jump\t// out\n\n    auxdata: 0xa26469706673582212202931b76e34e0a63884e078781eea603731e604f63181c088a56499e80e71397664736f6c634300080d0033\n}\n",
				"bytecode": {
					"linkReferences": {},
					"object": "60806040523480156200001157600080fd5b5060405162002d2538038062002d258339810160408190526200003491620000c8565b600080546001600160a01b031916339081178255604051909182917f8be0079c531659141344cd1fd0a4f28419497f9722a3daafe3b4186f6b6457e0908290a35060018055600d8054336001600160a01b031991821617909155678ac7230489e80000600581905560075560326008556064600955600280549091166001600160a01b0392909216919091179055620000fa565b600060208284031215620000db57600080fd5b81516001600160a01b0381168114620000f357600080fd5b9392505050565b612c1b806200010a6000396000f3fe6080604052600436106101575760003560e01c80638da5cb5b116100bc5780638da5cb5b14610352578063903df8061461037057806390e1a0031461039057806391ff1eb1146103f0578063974f962614610410578063a396981514610423578063a69d9c4f14610459578063a9b07cea146104a3578063b1cb89a3146104c3578063bef497fd146104e3578063ccebfa3f14610503578063d4ff493f14610559578063ee42427814610579578063f2fde38b1461059957600080fd5b80631f0b8a0d1461015c5780631f2a1d2f1461019957806323cf3118146101dd57806334ddbfe9146101ff5780634532d77614610248578063582d5adc146102685780635a4ddd17146101ff5780635c7e9db81461027b57806360491d241461029b5780636fcba377146102bb578063715018a6146102db578063783451e8146102f05780638931a4be146103125780638bdb2afa14610332575b600080fd5b34801561016857600080fd5b5061017c610177366004612713565b6105b9565b6040516001600160a01b0390911681526020015b60405180910390f35b3480156101a557600080fd5b506101cf6101b436600461273f565b6001600160a01b031660009081526004602052604090205490565b604051908152602001610190565b3480156101e957600080fd5b506101fd6101f836600461273f565b610604565b005b34801561020b57600080fd5b5061023861021a36600461273f565b6001600160a01b03166000908152600a602052604090205460ff1690565b6040519015158152602001610190565b34801561025457600080fd5b506101fd61026336600461275c565b610659565b6101fd61027636600461275c565b61094e565b34801561028757600080fd5b506101fd61029636600461273f565b610bc3565b3480156102a757600080fd5b506101fd6102b636600461275c565b610c0f565b3480156102c757600080fd5b506101fd6102d6366004612797565b610e0f565b3480156102e757600080fd5b506101fd610e4d565b3480156102fc57600080fd5b50336000908152600360205260409020546101cf565b34801561031e57600080fd5b506101fd61032d36600461273f565b610ec1565b34801561033e57600080fd5b5060025461017c906001600160a01b031681565b34801561035e57600080fd5b506000546001600160a01b031661017c565b34801561037c57600080fd5b5061017c61038b366004612713565b610f0d565b34801561039c57600080fd5b506005546006546007546008546009546103c094936001600160a01b031692919085565b604080519586526001600160a01b039094166020860152928401919091526060830152608082015260a001610190565b3480156103fc57600080fd5b506101fd61040b3660046127d7565b610fb2565b6101fd61041e366004612810565b611007565b34801561042f57600080fd5b506101cf61043e36600461273f565b6001600160a01b031660009081526003602052604090205490565b34801561046557600080fd5b506101cf61047436600461286f565b6001600160a01b0391821660009081526003602090815260408083209390941682526001909201909152205490565b3480156104af57600080fd5b506101fd6104be36600461275c565b61178f565b3480156104cf57600080fd5b506101fd6104de3660046127d7565b611974565b3480156104ef57600080fd5b506101fd6104fe36600461289d565b6119c9565b34801561050f57600080fd5b5061052361051e366004612713565b611c30565b60408051968752602087019590955293850192909252606084015260808301526001600160a01b031660a082015260c001610190565b34801561056557600080fd5b506105236105743660046128e7565b611c8d565b34801561058557600080fd5b506101fd61059436600461275c565b611d8b565b3480156105a557600080fd5b506101fd6105b436600461273f565b6120a0565b6001600160a01b038216600090815260036020526040812080548190849081106105e5576105e5612928565b6000918252602090912001546001600160a01b03169150505b92915050565b6000546001600160a01b031633146106375760405162461bcd60e51b815260040161062e9061293e565b60405180910390fd5b600e80546001600160a01b0319166001600160a01b0392909216919091179055565b60026001540361067b5760405162461bcd60e51b815260040161062e90612973565b6002600155806106be5760405162461bcd60e51b815260206004820152600e60248201526d16915493c815d2551211149055d360921b604482015260640161062e565b3360009081526003602090815260408083206001600160a01b038816845260010190915281208054859081106106f6576106f6612928565b90600052602060002001549050600060046000876001600160a01b03166001600160a01b03168152602001908152602001600020828154811061073b5761073b612928565b906000526020600020906006020190508382148015610766575060058101546001600160a01b031633145b6107825760405162461bcd60e51b815260040161062e906129aa565b428160030154106107bf5760405162461bcd60e51b81526020600482015260076024820152661393d50816515560ca1b604482015260640161062e565b60018101546107ce908461218a565b600182018190556000036108ac573360009081526003602090815260408083206001600160a01b038a168452600190810190925290912080549091829161081591906129e7565b8154811061082557610825612928565b906000526020600020015481878154811061084257610842612928565b906000526020600020018190555080805480610860576108606129fe565b6001900381819060005260206000200160009055905580805490506000036108a6576001600160a01b0387166000908152600c60205260409020805460ff191660011790555b50610942565b336000908152600b602052604090205460ff1615156001036108fd57600d546108e09087906001600160a01b0316856121d3565b600d546108f89087906001600160a01b0316856122f0565b610942565b6109088633856122f0565b7fccad973dcd043c7d680389db4378bd6b9775db7124092e9e0422c9e46d7985dc8684604051610939929190612a14565b60405180910390a15b50506001805550505050565b6002600154036109705760405162461bcd60e51b815260040161062e90612973565b6002600155336000908152600b602052604090205460ff161561099257600080fd5b600081116109b25760405162461bcd60e51b815260040161062e90612a2d565b3360009081526003602090815260408083206001600160a01b038816845260010190915281208054859081106109ea576109ea612928565b90600052602060002001549050600060046000876001600160a01b03166001600160a01b031681526020019081526020016000208281548110610a2f57610a2f612928565b906000526020600020906006020190508382148015610a5a575060058101546001600160a01b031633145b610a765760405162461bcd60e51b815260040161062e906129aa565b6005543414610a975760405162461bcd60e51b815260040161062e90612a52565b600d546005546040516001600160a01b039092169181156108fc0291906000818181858888f19350505050158015610ad3573d6000803e3d6000fd5b506001810154610ae3908461218a565b6001820155610af06126bc565b8154815260208082018581526040808401968752600394850154606085019081526001600160a01b039a8b1660008181526004808752848220805460808a018181523360a08c01818152858c52600180850186559487528b87209c516006909402909c019283559851828401559c5160028201559451858b01558b51918501919091559651600590930180546001600160a01b03191693909d1692909217909b55918252938252838120988152978201815291872093518454808301865594885291909620909201919091555050508055565b6000546001600160a01b03163314610bed5760405162461bcd60e51b815260040161062e9061293e565b600d80546001600160a01b0319166001600160a01b0392909216919091179055565b600260015403610c315760405162461bcd60e51b815260040161062e90612973565b60026001556402540be4008110610c5a5760405162461bcd60e51b815260040161062e90612a77565b3360009081526003602090815260408083206001600160a01b03881684526001019091528120805485908110610c9257610c92612928565b90600052602060002001549050600060046000876001600160a01b03166001600160a01b031681526020019081526020016000208281548110610cd757610cd7612928565b906000526020600020906006020190508382148015610d02575060058101546001600160a01b031633145b610d1e5760405162461bcd60e51b815260040161062e906129aa565b82816003015410610d615760405162461bcd60e51b815260206004820152600d60248201526c554e4c4f434b204245464f524560981b604482015260640161062e565b600954336000908152600b602052604081205490919060ff161515600103610d9f5760018301549150610d986312cc030042612aa2565b9450610dc5565b610dc26103e8610dbc83866001015461240690919063ffffffff16565b90612488565b91505b6001830154600090610dd7908461218a565b6001850181905560038501879055600d54909150610e00908a906001600160a01b0316856122f0565b50506001805550505050505050565b6000546001600160a01b03163314610e395760405162461bcd60e51b815260040161062e9061293e565b600593909355600791909155600855600955565b6000546001600160a01b03163314610e775760405162461bcd60e51b815260040161062e9061293e565b600080546040516001600160a01b03909116907f8be0079c531659141344cd1fd0a4f28419497f9722a3daafe3b4186f6b6457e0908390a3600080546001600160a01b0319169055565b6000546001600160a01b03163314610eeb5760405162461bcd60e51b815260040161062e9061293e565b600680546001600160a01b0319166001600160a01b0392909216919091179055565b6001600160a01b03821660009081526003602052604081208054600c908390839086908110610f3e57610f3e612928565b60009182526020808320909101546001600160a01b0316835282019290925260400190205460ff1615610f9d5760405162461bcd60e51b815260206004820152600760248201526614995b5bdd995960ca1b604482015260640161062e565b8060000183815481106105e5576105e5612928565b6000546001600160a01b03163314610fdc5760405162461bcd60e51b815260040161062e9061293e565b6001600160a01b03919091166000908152600a60205260409020805460ff1916911515919091179055565b6002600154036110295760405162461bcd60e51b815260040161062e90612973565b60026001556402540be40083106110525760405162461bcd60e51b815260040161062e90612a77565b600084116110915760405162461bcd60e51b815260206004820152600c60248201526b125394d551919250d251539560a21b604482015260640161062e565b60025460408051630dfe168160e01b8152905187926000926001600160a01b039182169263e6a4390592861691630dfe16819160048083019260209291908290030181865afa1580156110e8573d6000803e3d6000fd5b505050506040513d601f19601f8201168201806040525081019061110c9190612aba565b846001600160a01b031663d21220a76040518163ffffffff1660e01b8152600401602060405180830381865afa15801561114a573d6000803e3d6000fd5b505050506040513d601f19601f8201168201806040525081019061116e9190612aba565b6040516001600160e01b031960e085901b1681526001600160a01b03928316600482015291166024820152604401602060405180830381865afa1580156111b9573d6000803e3d6000fd5b505050506040513d601f19601f820116820180604052508101906111dd9190612aba565b9050866001600160a01b0316816001600160a01b03161461122c5760405162461bcd60e51b81526020600482015260096024820152682727aa102aa724ab1960b91b604482015260640161062e565b611238873330896124c7565b336000908152600a602052604090205460ff166113a95783156112b7576005543481146112775760405162461bcd60e51b815260040161062e90612a52565b600d546040516001600160a01b03909116903480156108fc02916000818181858888f193505050501580156112b0573d6000803e3d6000fd5b5050611454565b600754336000908152600b602052604090205460ff16151560010361131557600654600d546112f3916001600160a01b039081169116836121d3565b600654600d54611310916001600160a01b039081169116836122f0565b6113a3565b60065461132c906001600160a01b031630836121d3565b600654611344906001600160a01b03163330846124c7565b600654604051630852cd8d60e31b8152600481018390526001600160a01b03909116906342966c6890602401600060405180830381600087803b15801561138a57600080fd5b505af115801561139e573d6000803e3d6000fd5b505050505b50611454565b336000908152600a602052604090205460ff16151560011480156113cd5750600034115b1561145457336000908152600b602052604081205460ff16151590036114195760405133903480156108fc02916000818181858888f193505050501580156113a3573d6000803e3d6000fd5b600d546040516001600160a01b03909116903480156108fc02916000818181858888f19350505050158015611452573d6000803e3d6000fd5b505b336000908152600b602052604090205460ff1615156001036114a557600d546114889088906001600160a01b0316886121d3565b600d546114a09088906001600160a01b0316886122f0565b611782565b60006114c56103e8610dbc6005600401548a61240690919063ffffffff16565b9050841580156114e55750336000908152600a602052604090205460ff16155b156115105761150d6103e8610dbc6005600301546103e861150691906129e7565b8490612406565b90505b600d546115289089906001600160a01b0316836122f0565b6000611534888361218a565b905061153e6126bc565b42816000018181525050818160200181815250508181604001818152505087816060018181525050600460008b6001600160a01b03166001600160a01b0316815260200190815260200160002080549050816080018181525050858160a001906001600160a01b031690816001600160a01b031681525050600460008b6001600160a01b03166001600160a01b03168152602001908152602001600020819080600181540180825580915050600190039060005260206000209060060201600090919091909150600082015181600001556020820151816001015560408201518160020155606082015181600301556080820151816004015560a08201518160050160006101000a8154816001600160a01b0302191690836001600160a01b031602179055505050600060036000886001600160a01b03166001600160a01b031681526020019081526020016000209050806000018b9080600181540180825580915050600190039060005260206000200160009091909190916101000a8154816001600160a01b0302191690836001600160a01b0316021790555060008160010160008d6001600160a01b03166001600160a01b03168152602001908152602001600020905080836080015190806001815401808255809150506001900390600052602060002001600090919091909150557f830357565da6ecfc26d8d9f69df488ed6f70361af9a07e570544aeb5c5e765e58c33856020015186600001518760600151604051611774959493929190612ad7565b60405180910390a150505050505b5050600180555050505050565b6002600154036117b15760405162461bcd60e51b815260040161062e90612973565b6002600155336000908152600b602052604090205460ff16156117d357600080fd5b600081116117f35760405162461bcd60e51b815260040161062e90612a2d565b3360009081526003602090815260408083206001600160a01b0388168452600101909152812080548590811061182b5761182b612928565b90600052602060002001549050600060046000876001600160a01b03166001600160a01b03168152602001908152602001600020828154811061187057611870612928565b90600052602060002090600602019050838214801561189b575060058101546001600160a01b031633145b6118b75760405162461bcd60e51b815260040161062e906129aa565b6118c3863330866124c7565b60006118e36103e8610dbc6005600401548761240690919063ffffffff16565b600d549091506118fe9088906001600160a01b0316836122f0565b600061190a858361218a565b600184015490915061191c90826125f7565b6001840155825460038401546040517f830357565da6ecfc26d8d9f69df488ed6f70361af9a07e570544aeb5c5e765e59261195e928c92339287929091612ad7565b60405180910390a1505060018055505050505050565b6000546001600160a01b0316331461199e5760405162461bcd60e51b815260040161062e9061293e565b6001600160a01b03919091166000908152600b60205260409020805460ff1916911515919091179055565b336000908152600b602052604090205460ff16156119e657600080fd5b6001600160a01b0381163303611a265760405162461bcd60e51b815260206004820152600560248201526427aba722a960d91b604482015260640161062e565b3360009081526003602090815260408083206001600160a01b03881684526001019091528120805485908110611a5e57611a5e612928565b90600052602060002001549050600060046000876001600160a01b03166001600160a01b031681526020019081526020016000208281548110611aa357611aa3612928565b906000526020600020906006020190508382148015611ace575060058101546001600160a01b031633145b611aea5760405162461bcd60e51b815260040161062e906129aa565b6001600160a01b03838116600090815260036020818152604080842080546001808201835582875284872090910180546001600160a01b031916978e1697881790558686528082018452828620600489015481548084018355828952868920015533875294845282862096865295860190925290922080549293919290918291611b7491906129e7565b81548110611b8457611b84612928565b9060005260206000200154818981548110611ba157611ba1612928565b906000526020600020018190555080805480611bbf57611bbf6129fe565b600190038181906000526020600020016000905590558080549050600003611c05576001600160a01b0389166000908152600c60205260409020805460ff191660011790555b50505060050180546001600160a01b0319166001600160a01b03939093169290921790915550505050565b60046020528160005260406000208181548110611c4c57600080fd5b60009182526020909120600690910201805460018201546002830154600384015460048501546005909501549396509194509290916001600160a01b031686565b6000806000806000806000600360008b6001600160a01b03166001600160a01b0316815260200190815260200160002060010160008a6001600160a01b03166001600160a01b031681526020019081526020016000208881548110611cf457611cf4612928565b906000526020600020015490506000600460008b6001600160a01b03166001600160a01b031681526020019081526020016000208281548110611d3957611d39612928565b6000918252602090912060069091020180546001820154600283015460038401546004850154600590950154939c50919a50985096509094506001600160a01b03169250505093975093979195509350565b600260015403611dad5760405162461bcd60e51b815260040161062e90612973565b6002600155600e546001600160a01b0316611df45760405162461bcd60e51b81526020600482015260076024820152661393d50814d15560ca1b604482015260640161062e565b60008111611e355760405162461bcd60e51b815260206004820152600e60248201526d2d22a9279026a4a3a920aa24a7a760911b604482015260640161062e565b336000908152600b602052604090205460ff1615611e5257600080fd5b3360009081526003602090815260408083206001600160a01b03881684526001019091528120805485908110611e8a57611e8a612928565b90600052602060002001549050600060046000876001600160a01b03166001600160a01b031681526020019081526020016000208281548110611ecf57611ecf612928565b906000526020600020906006020190508382148015611efa575060058101546001600160a01b031633145b611f165760405162461bcd60e51b815260040161062e906129aa565b6001810154611f25908461218a565b60018201819055600003611fff573360009081526003602090815260408083206001600160a01b038a1684526001908101909252909120805490918291611f6c91906129e7565b81548110611f7c57611f7c612928565b9060005260206000200154818781548110611f9957611f99612928565b906000526020600020018190555080805480611fb757611fb76129fe565b600190038181906000526020600020016000905590558080549050600003611ffd576001600160a01b0387166000908152600c60205260409020805460ff191660011790555b505b600e546120179087906001600160a01b0316856121d3565b600e54600382015460405163db5ecd3f60e01b81526001600160a01b03898116600483015260248201879052604482019290925233606482015291169063db5ecd3f906084016020604051808303816000875af115801561207c573d6000803e3d6000fd5b505050506040513d601f19601f820116820180604052508101906117829190612b08565b6000546001600160a01b031633146120ca5760405162461bcd60e51b815260040161062e9061293e565b6001600160a01b03811661212f5760405162461bcd60e51b815260206004820152602660248201527f4f776e61626c653a206e6577206f776e657220697320746865207a65726f206160448201526564647265737360d01b606482015260840161062e565b600080546040516001600160a01b03808516939216917f8be0079c531659141344cd1fd0a4f28419497f9722a3daafe3b4186f6b6457e091a3600080546001600160a01b0319166001600160a01b0392909216919091179055565b60006121cc83836040518060400160405280601e81526020017f536166654d6174683a207375627472616374696f6e206f766572666c6f770000815250612654565b9392505050565b600080846001600160a01b031663095ea7b385856040516024016121f8929190612a14565b6040516020818303038152906040529060e01b6020820180516001600160e01b0383818316178352505050506040516122319190612b55565b6000604051808303816000865af19150503d806000811461226e576040519150601f19603f3d011682016040523d82523d6000602084013e612273565b606091505b509150915081801561229d57508051158061229d57508080602001905181019061229d9190612b08565b6122e95760405162461bcd60e51b815260206004820152601e60248201527f5472616e7366657248656c7065723a20415050524f56455f4641494c45440000604482015260640161062e565b5050505050565b600080846001600160a01b031663a9059cbb8585604051602401612315929190612a14565b6040516020818303038152906040529060e01b6020820180516001600160e01b03838183161783525050505060405161234e9190612b55565b6000604051808303816000865af19150503d806000811461238b576040519150601f19603f3d011682016040523d82523d6000602084013e612390565b606091505b50915091508180156123ba5750805115806123ba5750808060200190518101906123ba9190612b08565b6122e95760405162461bcd60e51b815260206004820152601f60248201527f5472616e7366657248656c7065723a205452414e534645525f4641494c454400604482015260640161062e565b600082600003612418575060006105fe565b60006124248385612b71565b9050826124318583612b90565b146121cc5760405162461bcd60e51b815260206004820152602160248201527f536166654d6174683a206d756c7469706c69636174696f6e206f766572666c6f6044820152607760f81b606482015260840161062e565b60006121cc83836040518060400160405280601a815260200179536166654d6174683a206469766973696f6e206279207a65726f60301b81525061268e565b604080516001600160a01b0385811660248301528481166044830152606480830185905283518084039091018152608490920183526020820180516001600160e01b03166323b872dd60e01b179052915160009283929088169161252b9190612b55565b6000604051808303816000865af19150503d8060008114612568576040519150601f19603f3d011682016040523d82523d6000602084013e61256d565b606091505b50915091508180156125975750805115806125975750808060200190518101906125979190612b08565b6125ef5760405162461bcd60e51b8152602060048201526024808201527f5472616e7366657248656c7065723a205452414e534645525f46524f4d5f46416044820152631253115160e21b606482015260840161062e565b505050505050565b6000806126048385612aa2565b9050838110156121cc5760405162461bcd60e51b815260206004820152601b60248201527a536166654d6174683a206164646974696f6e206f766572666c6f7760281b604482015260640161062e565b600081848411156126785760405162461bcd60e51b815260040161062e9190612bb2565b50600061268584866129e7565b95945050505050565b600081836126af5760405162461bcd60e51b815260040161062e9190612bb2565b5060006126858486612b90565b6040518060c00160405280600081526020016000815260200160008152602001600081526020016000815260200160006001600160a01b031681525090565b6001600160a01b038116811461271057600080fd5b50565b6000806040838503121561272657600080fd5b8235612731816126fb565b946020939093013593505050565b60006020828403121561275157600080fd5b81356121cc816126fb565b6000806000806080858703121561277257600080fd5b843561277d816126fb565b966020860135965060408601359560600135945092505050565b600080600080608085870312156127ad57600080fd5b5050823594602084013594506040840135936060013592509050565b801515811461271057600080fd5b600080604083850312156127ea57600080fd5b82356127f5816126fb565b91506020830135612805816127c9565b809150509250929050565b600080600080600060a0868803121561282857600080fd5b8535612833816126fb565b945060208601359350604086013592506060860135612851816127c9565b91506080860135612861816126fb565b809150509295509295909350565b6000806040838503121561288257600080fd5b823561288d816126fb565b91506020830135612805816126fb565b600080600080608085870312156128b357600080fd5b84356128be816126fb565b9350602085013592506040850135915060608501356128dc816126fb565b939692955090935050565b6000806000606084860312156128fc57600080fd5b8335612907816126fb565b92506020840135612917816126fb565b929592945050506040919091013590565b634e487b7160e01b600052603260045260246000fd5b6020808252818101527f4f776e61626c653a2063616c6c6572206973206e6f7420746865206f776e6572604082015260600190565b6020808252601f908201527f5265656e7472616e637947756172643a207265656e7472616e742063616c6c00604082015260600190565b6020808252600d908201526c0989e8696409a92a69a82a8869609b1b604082015260600190565b634e487b7160e01b600052601160045260246000fd5b6000828210156129f9576129f96129d1565b500390565b634e487b7160e01b600052603160045260246000fd5b6001600160a01b03929092168252602082015260400190565b6020808252600b908201526a16915493c8105353d5539560aa1b604082015260600190565b6020808252600b908201526a119151481393d50813515560aa1b604082015260600190565b6020808252601190820152701512535154d51053540812539590531251607a1b604082015260600190565b60008219821115612ab557612ab56129d1565b500190565b600060208284031215612acc57600080fd5b81516121cc816126fb565b6001600160a01b03958616815293909416602084015260408301919091526060820152608081019190915260a00190565b600060208284031215612b1a57600080fd5b81516121cc816127c9565b60005b83811015612b40578181015183820152602001612b28565b83811115612b4f576000848401525b50505050565b60008251612b67818460208701612b25565b9190910192915050565b6000816000190483118215151615612b8b57612b8b6129d1565b500290565b600082612bad57634e487b7160e01b600052601260045260246000fd5b500490565b6020815260008251806020840152612bd1816040850160208701612b25565b601f01601f1916919091016040019291505056fea26469706673582212202931b76e34e0a63884e078781eea603731e604f63181c088a56499e80e71397664736f6c634300080d0033",
					"opcodes": "PUSH1 0x80 PUSH1 0x40 MSTORE CALLVALUE DUP1 ISZERO PUSH3 0x11 JUMPI PUSH1 0x0 DUP1 REVERT JUMPDEST POP PUSH1 0x40 MLOAD PUSH3 0x2D25 CODESIZE SUB DUP1 PUSH3 0x2D25 DUP4 CODECOPY DUP2 ADD PUSH1 0x40 DUP2 SWAP1 MSTORE PUSH3 0x34 SWAP2 PUSH3 0xC8 JUMP JUMPDEST PUSH1 0x0 DUP1 SLOAD PUSH1 0x1 PUSH1 0x1 PUSH1 0xA0 SHL SUB NOT AND CALLER SWAP1 DUP2 OR DUP3 SSTORE PUSH1 0x40 MLOAD SWAP1 SWAP2 DUP3 SWAP2 PUSH32 0x8BE0079C531659141344CD1FD0A4F28419497F9722A3DAAFE3B4186F6B6457E0 SWAP1 DUP3 SWAP1 LOG3 POP PUSH1 0x1 DUP1 SSTORE PUSH1 0xD DUP1 SLOAD CALLER PUSH1 0x1 PUSH1 0x1 PUSH1 0xA0 SHL SUB NOT SWAP2 DUP3 AND OR SWAP1 SWAP2 SSTORE PUSH8 0x8AC7230489E80000 PUSH1 0x5 DUP2 SWAP1 SSTORE PUSH1 0x7 SSTORE PUSH1 0x32 PUSH1 0x8 SSTORE PUSH1 0x64 PUSH1 0x9 SSTORE PUSH1 0x2 DUP1 SLOAD SWAP1 SWAP2 AND PUSH1 0x1 PUSH1 0x1 PUSH1 0xA0 SHL SUB SWAP3 SWAP1 SWAP3 AND SWAP2 SWAP1 SWAP2 OR SWAP1 SSTORE PUSH3 0xFA JUMP JUMPDEST PUSH1 0x0 PUSH1 0x20 DUP3 DUP5 SUB SLT ISZERO PUSH3 0xDB JUMPI PUSH1 0x0 DUP1 REVERT JUMPDEST DUP2 MLOAD PUSH1 0x1 PUSH1 0x1 PUSH1 0xA0 SHL SUB DUP2 AND DUP2 EQ PUSH3 0xF3 JUMPI PUSH1 0x0 DUP1 REVERT JUMPDEST SWAP4 SWAP3 POP POP POP JUMP JUMPDEST PUSH2 0x2C1B DUP1 PUSH3 0x10A PUSH1 0x0 CODECOPY PUSH1 0x0 RETURN INVALID PUSH1 0x80 PUSH1 0x40 MSTORE PUSH1 0x4 CALLDATASIZE LT PUSH2 0x157 JUMPI PUSH1 0x0 CALLDATALOAD PUSH1 0xE0 SHR DUP1 PUSH4 0x8DA5CB5B GT PUSH2 0xBC JUMPI DUP1 PUSH4 0x8DA5CB5B EQ PUSH2 0x352 JUMPI DUP1 PUSH4 0x903DF806 EQ PUSH2 0x370 JUMPI DUP1 PUSH4 0x90E1A003 EQ PUSH2 0x390 JUMPI DUP1 PUSH4 0x91FF1EB1 EQ PUSH2 0x3F0 JUMPI DUP1 PUSH4 0x974F9626 EQ PUSH2 0x410 JUMPI DUP1 PUSH4 0xA3969815 EQ PUSH2 0x423 JUMPI DUP1 PUSH4 0xA69D9C4F EQ PUSH2 0x459 JUMPI DUP1 PUSH4 0xA9B07CEA EQ PUSH2 0x4A3 JUMPI DUP1 PUSH4 0xB1CB89A3 EQ PUSH2 0x4C3 JUMPI DUP1 PUSH4 0xBEF497FD EQ PUSH2 0x4E3 JUMPI DUP1 PUSH4 0xCCEBFA3F EQ PUSH2 0x503 JUMPI DUP1 PUSH4 0xD4FF493F EQ PUSH2 0x559 JUMPI DUP1 PUSH4 0xEE424278 EQ PUSH2 0x579 JUMPI DUP1 PUSH4 0xF2FDE38B EQ PUSH2 0x599 JUMPI PUSH1 0x0 DUP1 REVERT JUMPDEST DUP1 PUSH4 0x1F0B8A0D EQ PUSH2 0x15C JUMPI DUP1 PUSH4 0x1F2A1D2F EQ PUSH2 0x199 JUMPI DUP1 PUSH4 0x23CF3118 EQ PUSH2 0x1DD JUMPI DUP1 PUSH4 0x34DDBFE9 EQ PUSH2 0x1FF JUMPI DUP1 PUSH4 0x4532D776 EQ PUSH2 0x248 JUMPI DUP1 PUSH4 0x582D5ADC EQ PUSH2 0x268 JUMPI DUP1 PUSH4 0x5A4DDD17 EQ PUSH2 0x1FF JUMPI DUP1 PUSH4 0x5C7E9DB8 EQ PUSH2 0x27B JUMPI DUP1 PUSH4 0x60491D24 EQ PUSH2 0x29B JUMPI DUP1 PUSH4 0x6FCBA377 EQ PUSH2 0x2BB JUMPI DUP1 PUSH4 0x715018A6 EQ PUSH2 0x2DB JUMPI DUP1 PUSH4 0x783451E8 EQ PUSH2 0x2F0 JUMPI DUP1 PUSH4 0x8931A4BE EQ PUSH2 0x312 JUMPI DUP1 PUSH4 0x8BDB2AFA EQ PUSH2 0x332 JUMPI JUMPDEST PUSH1 0x0 DUP1 REVERT JUMPDEST CALLVALUE DUP1 ISZERO PUSH2 0x168 JUMPI PUSH1 0x0 DUP1 REVERT JUMPDEST POP PUSH2 0x17C PUSH2 0x177 CALLDATASIZE PUSH1 0x4 PUSH2 0x2713 JUMP JUMPDEST PUSH2 0x5B9 JUMP JUMPDEST PUSH1 0x40 MLOAD PUSH1 0x1 PUSH1 0x1 PUSH1 0xA0 SHL SUB SWAP1 SWAP2 AND DUP2 MSTORE PUSH1 0x20 ADD JUMPDEST PUSH1 0x40 MLOAD DUP1 SWAP2 SUB SWAP1 RETURN JUMPDEST CALLVALUE DUP1 ISZERO PUSH2 0x1A5 JUMPI PUSH1 0x0 DUP1 REVERT JUMPDEST POP PUSH2 0x1CF PUSH2 0x1B4 CALLDATASIZE PUSH1 0x4 PUSH2 0x273F JUMP JUMPDEST PUSH1 0x1 PUSH1 0x1 PUSH1 0xA0 SHL SUB AND PUSH1 0x0 SWAP1 DUP2 MSTORE PUSH1 0x4 PUSH1 0x20 MSTORE PUSH1 0x40 SWAP1 KECCAK256 SLOAD SWAP1 JUMP JUMPDEST PUSH1 0x40 MLOAD SWAP1 DUP2 MSTORE PUSH1 0x20 ADD PUSH2 0x190 JUMP JUMPDEST CALLVALUE DUP1 ISZERO PUSH2 0x1E9 JUMPI PUSH1 0x0 DUP1 REVERT JUMPDEST POP PUSH2 0x1FD PUSH2 0x1F8 CALLDATASIZE PUSH1 0x4 PUSH2 0x273F JUMP JUMPDEST PUSH2 0x604 JUMP JUMPDEST STOP JUMPDEST CALLVALUE DUP1 ISZERO PUSH2 0x20B JUMPI PUSH1 0x0 DUP1 REVERT JUMPDEST POP PUSH2 0x238 PUSH2 0x21A CALLDATASIZE PUSH1 0x4 PUSH2 0x273F JUMP JUMPDEST PUSH1 0x1 PUSH1 0x1 PUSH1 0xA0 SHL SUB AND PUSH1 0x0 SWAP1 DUP2 MSTORE PUSH1 0xA PUSH1 0x20 MSTORE PUSH1 0x40 SWAP1 KECCAK256 SLOAD PUSH1 0xFF AND SWAP1 JUMP JUMPDEST PUSH1 0x40 MLOAD SWAP1 ISZERO ISZERO DUP2 MSTORE PUSH1 0x20 ADD PUSH2 0x190 JUMP JUMPDEST CALLVALUE DUP1 ISZERO PUSH2 0x254 JUMPI PUSH1 0x0 DUP1 REVERT JUMPDEST POP PUSH2 0x1FD PUSH2 0x263 CALLDATASIZE PUSH1 0x4 PUSH2 0x275C JUMP JUMPDEST PUSH2 0x659 JUMP JUMPDEST PUSH2 0x1FD PUSH2 0x276 CALLDATASIZE PUSH1 0x4 PUSH2 0x275C JUMP JUMPDEST PUSH2 0x94E JUMP JUMPDEST CALLVALUE DUP1 ISZERO PUSH2 0x287 JUMPI PUSH1 0x0 DUP1 REVERT JUMPDEST POP PUSH2 0x1FD PUSH2 0x296 CALLDATASIZE PUSH1 0x4 PUSH2 0x273F JUMP JUMPDEST PUSH2 0xBC3 JUMP JUMPDEST CALLVALUE DUP1 ISZERO PUSH2 0x2A7 JUMPI PUSH1 0x0 DUP1 REVERT JUMPDEST POP PUSH2 0x1FD PUSH2 0x2B6 CALLDATASIZE PUSH1 0x4 PUSH2 0x275C JUMP JUMPDEST PUSH2 0xC0F JUMP JUMPDEST CALLVALUE DUP1 ISZERO PUSH2 0x2C7 JUMPI PUSH1 0x0 DUP1 REVERT JUMPDEST POP PUSH2 0x1FD PUSH2 0x2D6 CALLDATASIZE PUSH1 0x4 PUSH2 0x2797 JUMP JUMPDEST PUSH2 0xE0F JUMP JUMPDEST CALLVALUE DUP1 ISZERO PUSH2 0x2E7 JUMPI PUSH1 0x0 DUP1 REVERT JUMPDEST POP PUSH2 0x1FD PUSH2 0xE4D JUMP JUMPDEST CALLVALUE DUP1 ISZERO PUSH2 0x2FC JUMPI PUSH1 0x0 DUP1 REVERT JUMPDEST POP CALLER PUSH1 0x0 SWAP1 DUP2 MSTORE PUSH1 0x3 PUSH1 0x20 MSTORE PUSH1 0x40 SWAP1 KECCAK256 SLOAD PUSH2 0x1CF JUMP JUMPDEST CALLVALUE DUP1 ISZERO PUSH2 0x31E JUMPI PUSH1 0x0 DUP1 REVERT JUMPDEST POP PUSH2 0x1FD PUSH2 0x32D CALLDATASIZE PUSH1 0x4 PUSH2 0x273F JUMP JUMPDEST PUSH2 0xEC1 JUMP JUMPDEST CALLVALUE DUP1 ISZERO PUSH2 0x33E JUMPI PUSH1 0x0 DUP1 REVERT JUMPDEST POP PUSH1 0x2 SLOAD PUSH2 0x17C SWAP1 PUSH1 0x1 PUSH1 0x1 PUSH1 0xA0 SHL SUB AND DUP2 JUMP JUMPDEST CALLVALUE DUP1 ISZERO PUSH2 0x35E JUMPI PUSH1 0x0 DUP1 REVERT JUMPDEST POP PUSH1 0x0 SLOAD PUSH1 0x1 PUSH1 0x1 PUSH1 0xA0 SHL SUB AND PUSH2 0x17C JUMP JUMPDEST CALLVALUE DUP1 ISZERO PUSH2 0x37C JUMPI PUSH1 0x0 DUP1 REVERT JUMPDEST POP PUSH2 0x17C PUSH2 0x38B CALLDATASIZE PUSH1 0x4 PUSH2 0x2713 JUMP JUMPDEST PUSH2 0xF0D JUMP JUMPDEST CALLVALUE DUP1 ISZERO PUSH2 0x39C JUMPI PUSH1 0x0 DUP1 REVERT JUMPDEST POP PUSH1 0x5 SLOAD PUSH1 0x6 SLOAD PUSH1 0x7 SLOAD PUSH1 0x8 SLOAD PUSH1 0x9 SLOAD PUSH2 0x3C0 SWAP5 SWAP4 PUSH1 0x1 PUSH1 0x1 PUSH1 0xA0 SHL SUB AND SWAP3 SWAP2 SWAP1 DUP6 JUMP JUMPDEST PUSH1 0x40 DUP1 MLOAD SWAP6 DUP7 MSTORE PUSH1 0x1 PUSH1 0x1 PUSH1 0xA0 SHL SUB SWAP1 SWAP5 AND PUSH1 0x20 DUP7 ADD MSTORE SWAP3 DUP5 ADD SWAP2 SWAP1 SWAP2 MSTORE PUSH1 0x60 DUP4 ADD MSTORE PUSH1 0x80 DUP3 ADD MSTORE PUSH1 0xA0 ADD PUSH2 0x190 JUMP JUMPDEST CALLVALUE DUP1 ISZERO PUSH2 0x3FC JUMPI PUSH1 0x0 DUP1 REVERT JUMPDEST POP PUSH2 0x1FD PUSH2 0x40B CALLDATASIZE PUSH1 0x4 PUSH2 0x27D7 JUMP JUMPDEST PUSH2 0xFB2 JUMP JUMPDEST PUSH2 0x1FD PUSH2 0x41E CALLDATASIZE PUSH1 0x4 PUSH2 0x2810 JUMP JUMPDEST PUSH2 0x1007 JUMP JUMPDEST CALLVALUE DUP1 ISZERO PUSH2 0x42F JUMPI PUSH1 0x0 DUP1 REVERT JUMPDEST POP PUSH2 0x1CF PUSH2 0x43E CALLDATASIZE PUSH1 0x4 PUSH2 0x273F JUMP JUMPDEST PUSH1 0x1 PUSH1 0x1 PUSH1 0xA0 SHL SUB AND PUSH1 0x0 SWAP1 DUP2 MSTORE PUSH1 0x3 PUSH1 0x20 MSTORE PUSH1 0x40 SWAP1 KECCAK256 SLOAD SWAP1 JUMP JUMPDEST CALLVALUE DUP1 ISZERO PUSH2 0x465 JUMPI PUSH1 0x0 DUP1 REVERT JUMPDEST POP PUSH2 0x1CF PUSH2 0x474 CALLDATASIZE PUSH1 0x4 PUSH2 0x286F JUMP JUMPDEST PUSH1 0x1 PUSH1 0x1 PUSH1 0xA0 SHL SUB SWAP2 DUP3 AND PUSH1 0x0 SWAP1 DUP2 MSTORE PUSH1 0x3 PUSH1 0x20 SWAP1 DUP2 MSTORE PUSH1 0x40 DUP1 DUP4 KECCAK256 SWAP4 SWAP1 SWAP5 AND DUP3 MSTORE PUSH1 0x1 SWAP1 SWAP3 ADD SWAP1 SWAP2 MSTORE KECCAK256 SLOAD SWAP1 JUMP JUMPDEST CALLVALUE DUP1 ISZERO PUSH2 0x4AF JUMPI PUSH1 0x0 DUP1 REVERT JUMPDEST POP PUSH2 0x1FD PUSH2 0x4BE CALLDATASIZE PUSH1 0x4 PUSH2 0x275C JUMP JUMPDEST PUSH2 0x178F JUMP JUMPDEST CALLVALUE DUP1 ISZERO PUSH2 0x4CF JUMPI PUSH1 0x0 DUP1 REVERT JUMPDEST POP PUSH2 0x1FD PUSH2 0x4DE CALLDATASIZE PUSH1 0x4 PUSH2 0x27D7 JUMP JUMPDEST PUSH2 0x1974 JUMP JUMPDEST CALLVALUE DUP1 ISZERO PUSH2 0x4EF JUMPI PUSH1 0x0 DUP1 REVERT JUMPDEST POP PUSH2 0x1FD PUSH2 0x4FE CALLDATASIZE PUSH1 0x4 PUSH2 0x289D JUMP JUMPDEST PUSH2 0x19C9 JUMP JUMPDEST CALLVALUE DUP1 ISZERO PUSH2 0x50F JUMPI PUSH1 0x0 DUP1 REVERT JUMPDEST POP PUSH2 0x523 PUSH2 0x51E CALLDATASIZE PUSH1 0x4 PUSH2 0x2713 JUMP JUMPDEST PUSH2 0x1C30 JUMP JUMPDEST PUSH1 0x40 DUP1 MLOAD SWAP7 DUP8 MSTORE PUSH1 0x20 DUP8 ADD SWAP6 SWAP1 SWAP6 MSTORE SWAP4 DUP6 ADD SWAP3 SWAP1 SWAP3 MSTORE PUSH1 0x60 DUP5 ADD MSTORE PUSH1 0x80 DUP4 ADD MSTORE PUSH1 0x1 PUSH1 0x1 PUSH1 0xA0 SHL SUB AND PUSH1 0xA0 DUP3 ADD MSTORE PUSH1 0xC0 ADD PUSH2 0x190 JUMP JUMPDEST CALLVALUE DUP1 ISZERO PUSH2 0x565 JUMPI PUSH1 0x0 DUP1 REVERT JUMPDEST POP PUSH2 0x523 PUSH2 0x574 CALLDATASIZE PUSH1 0x4 PUSH2 0x28E7 JUMP JUMPDEST PUSH2 0x1C8D JUMP JUMPDEST CALLVALUE DUP1 ISZERO PUSH2 0x585 JUMPI PUSH1 0x0 DUP1 REVERT JUMPDEST POP PUSH2 0x1FD PUSH2 0x594 CALLDATASIZE PUSH1 0x4 PUSH2 0x275C JUMP JUMPDEST PUSH2 0x1D8B JUMP JUMPDEST CALLVALUE DUP1 ISZERO PUSH2 0x5A5 JUMPI PUSH1 0x0 DUP1 REVERT JUMPDEST POP PUSH2 0x1FD PUSH2 0x5B4 CALLDATASIZE PUSH1 0x4 PUSH2 0x273F JUMP JUMPDEST PUSH2 0x20A0 JUMP JUMPDEST PUSH1 0x1 PUSH1 0x1 PUSH1 0xA0 SHL SUB DUP3 AND PUSH1 0x0 SWAP1 DUP2 MSTORE PUSH1 0x3 PUSH1 0x20 MSTORE PUSH1 0x40 DUP2 KECCAK256 DUP1 SLOAD DUP2 SWAP1 DUP5 SWAP1 DUP2 LT PUSH2 0x5E5 JUMPI PUSH2 0x5E5 PUSH2 0x2928 JUMP JUMPDEST PUSH1 0x0 SWAP2 DUP3 MSTORE PUSH1 0x20 SWAP1 SWAP2 KECCAK256 ADD SLOAD PUSH1 0x1 PUSH1 0x1 PUSH1 0xA0 SHL SUB AND SWAP2 POP POP JUMPDEST SWAP3 SWAP2 POP POP JUMP JUMPDEST PUSH1 0x0 SLOAD PUSH1 0x1 PUSH1 0x1 PUSH1 0xA0 SHL SUB AND CALLER EQ PUSH2 0x637 JUMPI PUSH1 0x40 MLOAD PUSH3 0x461BCD PUSH1 0xE5 SHL DUP2 MSTORE PUSH1 0x4 ADD PUSH2 0x62E SWAP1 PUSH2 0x293E JUMP JUMPDEST PUSH1 0x40 MLOAD DUP1 SWAP2 SUB SWAP1 REVERT JUMPDEST PUSH1 0xE DUP1 SLOAD PUSH1 0x1 PUSH1 0x1 PUSH1 0xA0 SHL SUB NOT AND PUSH1 0x1 PUSH1 0x1 PUSH1 0xA0 SHL SUB SWAP3 SWAP1 SWAP3 AND SWAP2 SWAP1 SWAP2 OR SWAP1 SSTORE JUMP JUMPDEST PUSH1 0x2 PUSH1 0x1 SLOAD SUB PUSH2 0x67B JUMPI PUSH1 0x40 MLOAD PUSH3 0x461BCD PUSH1 0xE5 SHL DUP2 MSTORE PUSH1 0x4 ADD PUSH2 0x62E SWAP1 PUSH2 0x2973 JUMP JUMPDEST PUSH1 0x2 PUSH1 0x1 SSTORE DUP1 PUSH2 0x6BE JUMPI PUSH1 0x40 MLOAD PUSH3 0x461BCD PUSH1 0xE5 SHL DUP2 MSTORE PUSH1 0x20 PUSH1 0x4 DUP3 ADD MSTORE PUSH1 0xE PUSH1 0x24 DUP3 ADD MSTORE PUSH14 0x16915493C815D2551211149055D3 PUSH1 0x92 SHL PUSH1 0x44 DUP3 ADD MSTORE PUSH1 0x64 ADD PUSH2 0x62E JUMP JUMPDEST CALLER PUSH1 0x0 SWAP1 DUP2 MSTORE PUSH1 0x3 PUSH1 0x20 SWAP1 DUP2 MSTORE PUSH1 0x40 DUP1 DUP4 KECCAK256 PUSH1 0x1 PUSH1 0x1 PUSH1 0xA0 SHL SUB DUP9 AND DUP5 MSTORE PUSH1 0x1 ADD SWAP1 SWAP2 MSTORE DUP2 KECCAK256 DUP1 SLOAD DUP6 SWAP1 DUP2 LT PUSH2 0x6F6 JUMPI PUSH2 0x6F6 PUSH2 0x2928 JUMP JUMPDEST SWAP1 PUSH1 0x0 MSTORE PUSH1 0x20 PUSH1 0x0 KECCAK256 ADD SLOAD SWAP1 POP PUSH1 0x0 PUSH1 0x4 PUSH1 0x0 DUP8 PUSH1 0x1 PUSH1 0x1 PUSH1 0xA0 SHL SUB AND PUSH1 0x1 PUSH1 0x1 PUSH1 0xA0 SHL SUB AND DUP2 MSTORE PUSH1 0x20 ADD SWAP1 DUP2 MSTORE PUSH1 0x20 ADD PUSH1 0x0 KECCAK256 DUP3 DUP2 SLOAD DUP2 LT PUSH2 0x73B JUMPI PUSH2 0x73B PUSH2 0x2928 JUMP JUMPDEST SWAP1 PUSH1 0x0 MSTORE PUSH1 0x20 PUSH1 0x0 KECCAK256 SWAP1 PUSH1 0x6 MUL ADD SWAP1 POP DUP4 DUP3 EQ DUP1 ISZERO PUSH2 0x766 JUMPI POP PUSH1 0x5 DUP2 ADD SLOAD PUSH1 0x1 PUSH1 0x1 PUSH1 0xA0 SHL SUB AND CALLER EQ JUMPDEST PUSH2 0x782 JUMPI PUSH1 0x40 MLOAD PUSH3 0x461BCD PUSH1 0xE5 SHL DUP2 MSTORE PUSH1 0x4 ADD PUSH2 0x62E SWAP1 PUSH2 0x29AA JUMP JUMPDEST TIMESTAMP DUP2 PUSH1 0x3 ADD SLOAD LT PUSH2 0x7BF JUMPI PUSH1 0x40 MLOAD PUSH3 0x461BCD PUSH1 0xE5 SHL DUP2 MSTORE PUSH1 0x20 PUSH1 0x4 DUP3 ADD MSTORE PUSH1 0x7 PUSH1 0x24 DUP3 ADD MSTORE PUSH7 0x1393D508165155 PUSH1 0xCA SHL PUSH1 0x44 DUP3 ADD MSTORE PUSH1 0x64 ADD PUSH2 0x62E JUMP JUMPDEST PUSH1 0x1 DUP2 ADD SLOAD PUSH2 0x7CE SWAP1 DUP5 PUSH2 0x218A JUMP JUMPDEST PUSH1 0x1 DUP3 ADD DUP2 SWAP1 SSTORE PUSH1 0x0 SUB PUSH2 0x8AC JUMPI CALLER PUSH1 0x0 SWAP1 DUP2 MSTORE PUSH1 0x3 PUSH1 0x20 SWAP1 DUP2 MSTORE PUSH1 0x40 DUP1 DUP4 KECCAK256 PUSH1 0x1 PUSH1 0x1 PUSH1 0xA0 SHL SUB DUP11 AND DUP5 MSTORE PUSH1 0x1 SWAP1 DUP2 ADD SWAP1 SWAP3 MSTORE SWAP1 SWAP2 KECCAK256 DUP1 SLOAD SWAP1 SWAP2 DUP3 SWAP2 PUSH2 0x815 SWAP2 SWAP1 PUSH2 0x29E7 JUMP JUMPDEST DUP2 SLOAD DUP2 LT PUSH2 0x825 JUMPI PUSH2 0x825 PUSH2 0x2928 JUMP JUMPDEST SWAP1 PUSH1 0x0 MSTORE PUSH1 0x20 PUSH1 0x0 KECCAK256 ADD SLOAD DUP2 DUP8 DUP2 SLOAD DUP2 LT PUSH2 0x842 JUMPI PUSH2 0x842 PUSH2 0x2928 JUMP JUMPDEST SWAP1 PUSH1 0x0 MSTORE PUSH1 0x20 PUSH1 0x0 KECCAK256 ADD DUP2 SWAP1 SSTORE POP DUP1 DUP1 SLOAD DUP1 PUSH2 0x860 JUMPI PUSH2 0x860 PUSH2 0x29FE JUMP JUMPDEST PUSH1 0x1 SWAP1 SUB DUP2 DUP2 SWAP1 PUSH1 0x0 MSTORE PUSH1 0x20 PUSH1 0x0 KECCAK256 ADD PUSH1 0x0 SWAP1 SSTORE SWAP1 SSTORE DUP1 DUP1 SLOAD SWAP1 POP PUSH1 0x0 SUB PUSH2 0x8A6 JUMPI PUSH1 0x1 PUSH1 0x1 PUSH1 0xA0 SHL SUB DUP8 AND PUSH1 0x0 SWAP1 DUP2 MSTORE PUSH1 0xC PUSH1 0x20 MSTORE PUSH1 0x40 SWAP1 KECCAK256 DUP1 SLOAD PUSH1 0xFF NOT AND PUSH1 0x1 OR SWAP1 SSTORE JUMPDEST POP PUSH2 0x942 JUMP JUMPDEST CALLER PUSH1 0x0 SWAP1 DUP2 MSTORE PUSH1 0xB PUSH1 0x20 MSTORE PUSH1 0x40 SWAP1 KECCAK256 SLOAD PUSH1 0xFF AND ISZERO ISZERO PUSH1 0x1 SUB PUSH2 0x8FD JUMPI PUSH1 0xD SLOAD PUSH2 0x8E0 SWAP1 DUP8 SWAP1 PUSH1 0x1 PUSH1 0x1 PUSH1 0xA0 SHL SUB AND DUP6 PUSH2 0x21D3 JUMP JUMPDEST PUSH1 0xD SLOAD PUSH2 0x8F8 SWAP1 DUP8 SWAP1 PUSH1 0x1 PUSH1 0x1 PUSH1 0xA0 SHL SUB AND DUP6 PUSH2 0x22F0 JUMP JUMPDEST PUSH2 0x942 JUMP JUMPDEST PUSH2 0x908 DUP7 CALLER DUP6 PUSH2 0x22F0 JUMP JUMPDEST PUSH32 0xCCAD973DCD043C7D680389DB4378BD6B9775DB7124092E9E0422C9E46D7985DC DUP7 DUP5 PUSH1 0x40 MLOAD PUSH2 0x939 SWAP3 SWAP2 SWAP1 PUSH2 0x2A14 JUMP JUMPDEST PUSH1 0x40 MLOAD DUP1 SWAP2 SUB SWAP1 LOG1 JUMPDEST POP POP PUSH1 0x1 DUP1 SSTORE POP POP POP POP JUMP JUMPDEST PUSH1 0x2 PUSH1 0x1 SLOAD SUB PUSH2 0x970 JUMPI PUSH1 0x40 MLOAD PUSH3 0x461BCD PUSH1 0xE5 SHL DUP2 MSTORE PUSH1 0x4 ADD PUSH2 0x62E SWAP1 PUSH2 0x2973 JUMP JUMPDEST PUSH1 0x2 PUSH1 0x1 SSTORE CALLER PUSH1 0x0 SWAP1 DUP2 MSTORE PUSH1 0xB PUSH1 0x20 MSTORE PUSH1 0x40 SWAP1 KECCAK256 SLOAD PUSH1 0xFF AND ISZERO PUSH2 0x992 JUMPI PUSH1 0x0 DUP1 REVERT JUMPDEST PUSH1 0x0 DUP2 GT PUSH2 0x9B2 JUMPI PUSH1 0x40 MLOAD PUSH3 0x461BCD PUSH1 0xE5 SHL DUP2 MSTORE PUSH1 0x4 ADD PUSH2 0x62E SWAP1 PUSH2 0x2A2D JUMP JUMPDEST CALLER PUSH1 0x0 SWAP1 DUP2 MSTORE PUSH1 0x3 PUSH1 0x20 SWAP1 DUP2 MSTORE PUSH1 0x40 DUP1 DUP4 KECCAK256 PUSH1 0x1 PUSH1 0x1 PUSH1 0xA0 SHL SUB DUP9 AND DUP5 MSTORE PUSH1 0x1 ADD SWAP1 SWAP2 MSTORE DUP2 KECCAK256 DUP1 SLOAD DUP6 SWAP1 DUP2 LT PUSH2 0x9EA JUMPI PUSH2 0x9EA PUSH2 0x2928 JUMP JUMPDEST SWAP1 PUSH1 0x0 MSTORE PUSH1 0x20 PUSH1 0x0 KECCAK256 ADD SLOAD SWAP1 POP PUSH1 0x0 PUSH1 0x4 PUSH1 0x0 DUP8 PUSH1 0x1 PUSH1 0x1 PUSH1 0xA0 SHL SUB AND PUSH1 0x1 PUSH1 0x1 PUSH1 0xA0 SHL SUB AND DUP2 MSTORE PUSH1 0x20 ADD SWAP1 DUP2 MSTORE PUSH1 0x20 ADD PUSH1 0x0 KECCAK256 DUP3 DUP2 SLOAD DUP2 LT PUSH2 0xA2F JUMPI PUSH2 0xA2F PUSH2 0x2928 JUMP JUMPDEST SWAP1 PUSH1 0x0 MSTORE PUSH1 0x20 PUSH1 0x0 KECCAK256 SWAP1 PUSH1 0x6 MUL ADD SWAP1 POP DUP4 DUP3 EQ DUP1 ISZERO PUSH2 0xA5A JUMPI POP PUSH1 0x5 DUP2 ADD SLOAD PUSH1 0x1 PUSH1 0x1 PUSH1 0xA0 SHL SUB AND CALLER EQ JUMPDEST PUSH2 0xA76 JUMPI PUSH1 0x40 MLOAD PUSH3 0x461BCD PUSH1 0xE5 SHL DUP2 MSTORE PUSH1 0x4 ADD PUSH2 0x62E SWAP1 PUSH2 0x29AA JUMP JUMPDEST PUSH1 0x5 SLOAD CALLVALUE EQ PUSH2 0xA97 JUMPI PUSH1 0x40 MLOAD PUSH3 0x461BCD PUSH1 0xE5 SHL DUP2 MSTORE PUSH1 0x4 ADD PUSH2 0x62E SWAP1 PUSH2 0x2A52 JUMP JUMPDEST PUSH1 0xD SLOAD PUSH1 0x5 SLOAD PUSH1 0x40 MLOAD PUSH1 0x1 PUSH1 0x1 PUSH1 0xA0 SHL SUB SWAP1 SWAP3 AND SWAP2 DUP2 ISZERO PUSH2 0x8FC MUL SWAP2 SWAP1 PUSH1 0x0 DUP2 DUP2 DUP2 DUP6 DUP9 DUP9 CALL SWAP4 POP POP POP POP ISZERO DUP1 ISZERO PUSH2 0xAD3 JUMPI RETURNDATASIZE PUSH1 0x0 DUP1 RETURNDATACOPY RETURNDATASIZE PUSH1 0x0 REVERT JUMPDEST POP PUSH1 0x1 DUP2 ADD SLOAD PUSH2 0xAE3 SWAP1 DUP5 PUSH2 0x218A JUMP JUMPDEST PUSH1 0x1 DUP3 ADD SSTORE PUSH2 0xAF0 PUSH2 0x26BC JUMP JUMPDEST DUP2 SLOAD DUP2 MSTORE PUSH1 0x20 DUP1 DUP3 ADD DUP6 DUP2 MSTORE PUSH1 0x40 DUP1 DUP5 ADD SWAP7 DUP8 MSTORE PUSH1 0x3 SWAP5 DUP6 ADD SLOAD PUSH1 0x60 DUP6 ADD SWAP1 DUP2 MSTORE PUSH1 0x1 PUSH1 0x1 PUSH1 0xA0 SHL SUB SWAP11 DUP12 AND PUSH1 0x0 DUP2 DUP2 MSTORE PUSH1 0x4 DUP1 DUP8 MSTORE DUP5 DUP3 KECCAK256 DUP1 SLOAD PUSH1 0x80 DUP11 ADD DUP2 DUP2 MSTORE CALLER PUSH1 0xA0 DUP13 ADD DUP2 DUP2 MSTORE DUP6 DUP13 MSTORE PUSH1 0x1 DUP1 DUP6 ADD DUP7 SSTORE SWAP5 DUP8 MSTORE DUP12 DUP8 KECCAK256 SWAP13 MLOAD PUSH1 0x6 SWAP1 SWAP5 MUL SWAP1 SWAP13 ADD SWAP3 DUP4 SSTORE SWAP9 MLOAD DUP3 DUP5 ADD SSTORE SWAP13 MLOAD PUSH1 0x2 DUP3 ADD SSTORE SWAP5 MLOAD DUP6 DUP12 ADD SSTORE DUP12 MLOAD SWAP2 DUP6 ADD SWAP2 SWAP1 SWAP2 SSTORE SWAP7 MLOAD PUSH1 0x5 SWAP1 SWAP4 ADD DUP1 SLOAD PUSH1 0x1 PUSH1 0x1 PUSH1 0xA0 SHL SUB NOT AND SWAP4 SWAP1 SWAP14 AND SWAP3 SWAP1 SWAP3 OR SWAP1 SWAP12 SSTORE SWAP2 DUP3 MSTORE SWAP4 DUP3 MSTORE DUP4 DUP2 KECCAK256 SWAP9 DUP2 MSTORE SWAP8 DUP3 ADD DUP2 MSTORE SWAP2 DUP8 KECCAK256 SWAP4 MLOAD DUP5 SLOAD DUP1 DUP4 ADD DUP7 SSTORE SWAP5 DUP9 MSTORE SWAP2 SWAP1 SWAP7 KECCAK256 SWAP1 SWAP3 ADD SWAP2 SWAP1 SWAP2 SSTORE POP POP POP DUP1 SSTORE JUMP JUMPDEST PUSH1 0x0 SLOAD PUSH1 0x1 PUSH1 0x1 PUSH1 0xA0 SHL SUB AND CALLER EQ PUSH2 0xBED JUMPI PUSH1 0x40 MLOAD PUSH3 0x461BCD PUSH1 0xE5 SHL DUP2 MSTORE PUSH1 0x4 ADD PUSH2 0x62E SWAP1 PUSH2 0x293E JUMP JUMPDEST PUSH1 0xD DUP1 SLOAD PUSH1 0x1 PUSH1 0x1 PUSH1 0xA0 SHL SUB NOT AND PUSH1 0x1 PUSH1 0x1 PUSH1 0xA0 SHL SUB SWAP3 SWAP1 SWAP3 AND SWAP2 SWAP1 SWAP2 OR SWAP1 SSTORE JUMP JUMPDEST PUSH1 0x2 PUSH1 0x1 SLOAD SUB PUSH2 0xC31 JUMPI PUSH1 0x40 MLOAD PUSH3 0x461BCD PUSH1 0xE5 SHL DUP2 MSTORE PUSH1 0x4 ADD PUSH2 0x62E SWAP1 PUSH2 0x2973 JUMP JUMPDEST PUSH1 0x2 PUSH1 0x1 SSTORE PUSH5 0x2540BE400 DUP2 LT PUSH2 0xC5A JUMPI PUSH1 0x40 MLOAD PUSH3 0x461BCD PUSH1 0xE5 SHL DUP2 MSTORE PUSH1 0x4 ADD PUSH2 0x62E SWAP1 PUSH2 0x2A77 JUMP JUMPDEST CALLER PUSH1 0x0 SWAP1 DUP2 MSTORE PUSH1 0x3 PUSH1 0x20 SWAP1 DUP2 MSTORE PUSH1 0x40 DUP1 DUP4 KECCAK256 PUSH1 0x1 PUSH1 0x1 PUSH1 0xA0 SHL SUB DUP9 AND DUP5 MSTORE PUSH1 0x1 ADD SWAP1 SWAP2 MSTORE DUP2 KECCAK256 DUP1 SLOAD DUP6 SWAP1 DUP2 LT PUSH2 0xC92 JUMPI PUSH2 0xC92 PUSH2 0x2928 JUMP JUMPDEST SWAP1 PUSH1 0x0 MSTORE PUSH1 0x20 PUSH1 0x0 KECCAK256 ADD SLOAD SWAP1 POP PUSH1 0x0 PUSH1 0x4 PUSH1 0x0 DUP8 PUSH1 0x1 PUSH1 0x1 PUSH1 0xA0 SHL SUB AND PUSH1 0x1 PUSH1 0x1 PUSH1 0xA0 SHL SUB AND DUP2 MSTORE PUSH1 0x20 ADD SWAP1 DUP2 MSTORE PUSH1 0x20 ADD PUSH1 0x0 KECCAK256 DUP3 DUP2 SLOAD DUP2 LT PUSH2 0xCD7 JUMPI PUSH2 0xCD7 PUSH2 0x2928 JUMP JUMPDEST SWAP1 PUSH1 0x0 MSTORE PUSH1 0x20 PUSH1 0x0 KECCAK256 SWAP1 PUSH1 0x6 MUL ADD SWAP1 POP DUP4 DUP3 EQ DUP1 ISZERO PUSH2 0xD02 JUMPI POP PUSH1 0x5 DUP2 ADD SLOAD PUSH1 0x1 PUSH1 0x1 PUSH1 0xA0 SHL SUB AND CALLER EQ JUMPDEST PUSH2 0xD1E JUMPI PUSH1 0x40 MLOAD PUSH3 0x461BCD PUSH1 0xE5 SHL DUP2 MSTORE PUSH1 0x4 ADD PUSH2 0x62E SWAP1 PUSH2 0x29AA JUMP JUMPDEST DUP3 DUP2 PUSH1 0x3 ADD SLOAD LT PUSH2 0xD61 JUMPI PUSH1 0x40 MLOAD PUSH3 0x461BCD PUSH1 0xE5 SHL DUP2 MSTORE PUSH1 0x20 PUSH1 0x4 DUP3 ADD MSTORE PUSH1 0xD PUSH1 0x24 DUP3 ADD MSTORE PUSH13 0x554E4C4F434B204245464F5245 PUSH1 0x98 SHL PUSH1 0x44 DUP3 ADD MSTORE PUSH1 0x64 ADD PUSH2 0x62E JUMP JUMPDEST PUSH1 0x9 SLOAD CALLER PUSH1 0x0 SWAP1 DUP2 MSTORE PUSH1 0xB PUSH1 0x20 MSTORE PUSH1 0x40 DUP2 KECCAK256 SLOAD SWAP1 SWAP2 SWAP1 PUSH1 0xFF AND ISZERO ISZERO PUSH1 0x1 SUB PUSH2 0xD9F JUMPI PUSH1 0x1 DUP4 ADD SLOAD SWAP2 POP PUSH2 0xD98 PUSH4 0x12CC0300 TIMESTAMP PUSH2 0x2AA2 JUMP JUMPDEST SWAP5 POP PUSH2 0xDC5 JUMP JUMPDEST PUSH2 0xDC2 PUSH2 0x3E8 PUSH2 0xDBC DUP4 DUP7 PUSH1 0x1 ADD SLOAD PUSH2 0x2406 SWAP1 SWAP2 SWAP1 PUSH4 0xFFFFFFFF AND JUMP JUMPDEST SWAP1 PUSH2 0x2488 JUMP JUMPDEST SWAP2 POP JUMPDEST PUSH1 0x1 DUP4 ADD SLOAD PUSH1 0x0 SWAP1 PUSH2 0xDD7 SWAP1 DUP5 PUSH2 0x218A JUMP JUMPDEST PUSH1 0x1 DUP6 ADD DUP2 SWAP1 SSTORE PUSH1 0x3 DUP6 ADD DUP8 SWAP1 SSTORE PUSH1 0xD SLOAD SWAP1 SWAP2 POP PUSH2 0xE00 SWAP1 DUP11 SWAP1 PUSH1 0x1 PUSH1 0x1 PUSH1 0xA0 SHL SUB AND DUP6 PUSH2 0x22F0 JUMP JUMPDEST POP POP PUSH1 0x1 DUP1 SSTORE POP POP POP POP POP POP POP JUMP JUMPDEST PUSH1 0x0 SLOAD PUSH1 0x1 PUSH1 0x1 PUSH1 0xA0 SHL SUB AND CALLER EQ PUSH2 0xE39 JUMPI PUSH1 0x40 MLOAD PUSH3 0x461BCD PUSH1 0xE5 SHL DUP2 MSTORE PUSH1 0x4 ADD PUSH2 0x62E SWAP1 PUSH2 0x293E JUMP JUMPDEST PUSH1 0x5 SWAP4 SWAP1 SWAP4 SSTORE PUSH1 0x7 SWAP2 SWAP1 SWAP2 SSTORE PUSH1 0x8 SSTORE PUSH1 0x9 SSTORE JUMP JUMPDEST PUSH1 0x0 SLOAD PUSH1 0x1 PUSH1 0x1 PUSH1 0xA0 SHL SUB AND CALLER EQ PUSH2 0xE77 JUMPI PUSH1 0x40 MLOAD PUSH3 0x461BCD PUSH1 0xE5 SHL DUP2 MSTORE PUSH1 0x4 ADD PUSH2 0x62E SWAP1 PUSH2 0x293E JUMP JUMPDEST PUSH1 0x0 DUP1 SLOAD PUSH1 0x40 MLOAD PUSH1 0x1 PUSH1 0x1 PUSH1 0xA0 SHL SUB SWAP1 SWAP2 AND SWAP1 PUSH32 0x8BE0079C531659141344CD1FD0A4F28419497F9722A3DAAFE3B4186F6B6457E0 SWAP1 DUP4 SWAP1 LOG3 PUSH1 0x0 DUP1 SLOAD PUSH1 0x1 PUSH1 0x1 PUSH1 0xA0 SHL SUB NOT AND SWAP1 SSTORE JUMP JUMPDEST PUSH1 0x0 SLOAD PUSH1 0x1 PUSH1 0x1 PUSH1 0xA0 SHL SUB AND CALLER EQ PUSH2 0xEEB JUMPI PUSH1 0x40 MLOAD PUSH3 0x461BCD PUSH1 0xE5 SHL DUP2 MSTORE PUSH1 0x4 ADD PUSH2 0x62E SWAP1 PUSH2 0x293E JUMP JUMPDEST PUSH1 0x6 DUP1 SLOAD PUSH1 0x1 PUSH1 0x1 PUSH1 0xA0 SHL SUB NOT AND PUSH1 0x1 PUSH1 0x1 PUSH1 0xA0 SHL SUB SWAP3 SWAP1 SWAP3 AND SWAP2 SWAP1 SWAP2 OR SWAP1 SSTORE JUMP JUMPDEST PUSH1 0x1 PUSH1 0x1 PUSH1 0xA0 SHL SUB DUP3 AND PUSH1 0x0 SWAP1 DUP2 MSTORE PUSH1 0x3 PUSH1 0x20 MSTORE PUSH1 0x40 DUP2 KECCAK256 DUP1 SLOAD PUSH1 0xC SWAP1 DUP4 SWAP1 DUP4 SWAP1 DUP7 SWAP1 DUP2 LT PUSH2 0xF3E JUMPI PUSH2 0xF3E PUSH2 0x2928 JUMP JUMPDEST PUSH1 0x0 SWAP2 DUP3 MSTORE PUSH1 0x20 DUP1 DUP4 KECCAK256 SWAP1 SWAP2 ADD SLOAD PUSH1 0x1 PUSH1 0x1 PUSH1 0xA0 SHL SUB AND DUP4 MSTORE DUP3 ADD SWAP3 SWAP1 SWAP3 MSTORE PUSH1 0x40 ADD SWAP1 KECCAK256 SLOAD PUSH1 0xFF AND ISZERO PUSH2 0xF9D JUMPI PUSH1 0x40 MLOAD PUSH3 0x461BCD PUSH1 0xE5 SHL DUP2 MSTORE PUSH1 0x20 PUSH1 0x4 DUP3 ADD MSTORE PUSH1 0x7 PUSH1 0x24 DUP3 ADD MSTORE PUSH7 0x14995B5BDD9959 PUSH1 0xCA SHL PUSH1 0x44 DUP3 ADD MSTORE PUSH1 0x64 ADD PUSH2 0x62E JUMP JUMPDEST DUP1 PUSH1 0x0 ADD DUP4 DUP2 SLOAD DUP2 LT PUSH2 0x5E5 JUMPI PUSH2 0x5E5 PUSH2 0x2928 JUMP JUMPDEST PUSH1 0x0 SLOAD PUSH1 0x1 PUSH1 0x1 PUSH1 0xA0 SHL SUB AND CALLER EQ PUSH2 0xFDC JUMPI PUSH1 0x40 MLOAD PUSH3 0x461BCD PUSH1 0xE5 SHL DUP2 MSTORE PUSH1 0x4 ADD PUSH2 0x62E SWAP1 PUSH2 0x293E JUMP JUMPDEST PUSH1 0x1 PUSH1 0x1 PUSH1 0xA0 SHL SUB SWAP2 SWAP1 SWAP2 AND PUSH1 0x0 SWAP1 DUP2 MSTORE PUSH1 0xA PUSH1 0x20 MSTORE PUSH1 0x40 SWAP1 KECCAK256 DUP1 SLOAD PUSH1 0xFF NOT AND SWAP2 ISZERO ISZERO SWAP2 SWAP1 SWAP2 OR SWAP1 SSTORE JUMP JUMPDEST PUSH1 0x2 PUSH1 0x1 SLOAD SUB PUSH2 0x1029 JUMPI PUSH1 0x40 MLOAD PUSH3 0x461BCD PUSH1 0xE5 SHL DUP2 MSTORE PUSH1 0x4 ADD PUSH2 0x62E SWAP1 PUSH2 0x2973 JUMP JUMPDEST PUSH1 0x2 PUSH1 0x1 SSTORE PUSH5 0x2540BE400 DUP4 LT PUSH2 0x1052 JUMPI PUSH1 0x40 MLOAD PUSH3 0x461BCD PUSH1 0xE5 SHL DUP2 MSTORE PUSH1 0x4 ADD PUSH2 0x62E SWAP1 PUSH2 0x2A77 JUMP JUMPDEST PUSH1 0x0 DUP5 GT PUSH2 0x1091 JUMPI PUSH1 0x40 MLOAD PUSH3 0x461BCD PUSH1 0xE5 SHL DUP2 MSTORE PUSH1 0x20 PUSH1 0x4 DUP3 ADD MSTORE PUSH1 0xC PUSH1 0x24 DUP3 ADD MSTORE PUSH12 0x125394D551919250D2515395 PUSH1 0xA2 SHL PUSH1 0x44 DUP3 ADD MSTORE PUSH1 0x64 ADD PUSH2 0x62E JUMP JUMPDEST PUSH1 0x2 SLOAD PUSH1 0x40 DUP1 MLOAD PUSH4 0xDFE1681 PUSH1 0xE0 SHL DUP2 MSTORE SWAP1 MLOAD DUP8 SWAP3 PUSH1 0x0 SWAP3 PUSH1 0x1 PUSH1 0x1 PUSH1 0xA0 SHL SUB SWAP2 DUP3 AND SWAP3 PUSH4 0xE6A43905 SWAP3 DUP7 AND SWAP2 PUSH4 0xDFE1681 SWAP2 PUSH1 0x4 DUP1 DUP4 ADD SWAP3 PUSH1 0x20 SWAP3 SWAP2 SWAP1 DUP3 SWAP1 SUB ADD DUP2 DUP7 GAS STATICCALL ISZERO DUP1 ISZERO PUSH2 0x10E8 JUMPI RETURNDATASIZE PUSH1 0x0 DUP1 RETURNDATACOPY RETURNDATASIZE PUSH1 0x0 REVERT JUMPDEST POP POP POP POP PUSH1 0x40 MLOAD RETURNDATASIZE PUSH1 0x1F NOT PUSH1 0x1F DUP3 ADD AND DUP3 ADD DUP1 PUSH1 0x40 MSTORE POP DUP2 ADD SWAP1 PUSH2 0x110C SWAP2 SWAP1 PUSH2 0x2ABA JUMP JUMPDEST DUP5 PUSH1 0x1 PUSH1 0x1 PUSH1 0xA0 SHL SUB AND PUSH4 0xD21220A7 PUSH1 0x40 MLOAD DUP2 PUSH4 0xFFFFFFFF AND PUSH1 0xE0 SHL DUP2 MSTORE PUSH1 0x4 ADD PUSH1 0x20 PUSH1 0x40 MLOAD DUP1 DUP4 SUB DUP2 DUP7 GAS STATICCALL ISZERO DUP1 ISZERO PUSH2 0x114A JUMPI RETURNDATASIZE PUSH1 0x0 DUP1 RETURNDATACOPY RETURNDATASIZE PUSH1 0x0 REVERT JUMPDEST POP POP POP POP PUSH1 0x40 MLOAD RETURNDATASIZE PUSH1 0x1F NOT PUSH1 0x1F DUP3 ADD AND DUP3 ADD DUP1 PUSH1 0x40 MSTORE POP DUP2 ADD SWAP1 PUSH2 0x116E SWAP2 SWAP1 PUSH2 0x2ABA JUMP JUMPDEST PUSH1 0x40 MLOAD PUSH1 0x1 PUSH1 0x1 PUSH1 0xE0 SHL SUB NOT PUSH1 0xE0 DUP6 SWAP1 SHL AND DUP2 MSTORE PUSH1 0x1 PUSH1 0x1 PUSH1 0xA0 SHL SUB SWAP3 DUP4 AND PUSH1 0x4 DUP3 ADD MSTORE SWAP2 AND PUSH1 0x24 DUP3 ADD MSTORE PUSH1 0x44 ADD PUSH1 0x20 PUSH1 0x40 MLOAD DUP1 DUP4 SUB DUP2 DUP7 GAS STATICCALL ISZERO DUP1 ISZERO PUSH2 0x11B9 JUMPI RETURNDATASIZE PUSH1 0x0 DUP1 RETURNDATACOPY RETURNDATASIZE PUSH1 0x0 REVERT JUMPDEST POP POP POP POP PUSH1 0x40 MLOAD RETURNDATASIZE PUSH1 0x1F NOT PUSH1 0x1F DUP3 ADD AND DUP3 ADD DUP1 PUSH1 0x40 MSTORE POP DUP2 ADD SWAP1 PUSH2 0x11DD SWAP2 SWAP1 PUSH2 0x2ABA JUMP JUMPDEST SWAP1 POP DUP7 PUSH1 0x1 PUSH1 0x1 PUSH1 0xA0 SHL SUB AND DUP2 PUSH1 0x1 PUSH1 0x1 PUSH1 0xA0 SHL SUB AND EQ PUSH2 0x122C JUMPI PUSH1 0x40 MLOAD PUSH3 0x461BCD PUSH1 0xE5 SHL DUP2 MSTORE PUSH1 0x20 PUSH1 0x4 DUP3 ADD MSTORE PUSH1 0x9 PUSH1 0x24 DUP3 ADD MSTORE PUSH9 0x2727AA102AA724AB19 PUSH1 0xB9 SHL PUSH1 0x44 DUP3 ADD MSTORE PUSH1 0x64 ADD PUSH2 0x62E JUMP JUMPDEST PUSH2 0x1238 DUP8 CALLER ADDRESS DUP10 PUSH2 0x24C7 JUMP JUMPDEST CALLER PUSH1 0x0 SWAP1 DUP2 MSTORE PUSH1 0xA PUSH1 0x20 MSTORE PUSH1 0x40 SWAP1 KECCAK256 SLOAD PUSH1 0xFF AND PUSH2 0x13A9 JUMPI DUP4 ISZERO PUSH2 0x12B7 JUMPI PUSH1 0x5 SLOAD CALLVALUE DUP2 EQ PUSH2 0x1277 JUMPI PUSH1 0x40 MLOAD PUSH3 0x461BCD PUSH1 0xE5 SHL DUP2 MSTORE PUSH1 0x4 ADD PUSH2 0x62E SWAP1 PUSH2 0x2A52 JUMP JUMPDEST PUSH1 0xD SLOAD PUSH1 0x40 MLOAD PUSH1 0x1 PUSH1 0x1 PUSH1 0xA0 SHL SUB SWAP1 SWAP2 AND SWAP1 CALLVALUE DUP1 ISZERO PUSH2 0x8FC MUL SWAP2 PUSH1 0x0 DUP2 DUP2 DUP2 DUP6 DUP9 DUP9 CALL SWAP4 POP POP POP POP ISZERO DUP1 ISZERO PUSH2 0x12B0 JUMPI RETURNDATASIZE PUSH1 0x0 DUP1 RETURNDATACOPY RETURNDATASIZE PUSH1 0x0 REVERT JUMPDEST POP POP PUSH2 0x1454 JUMP JUMPDEST PUSH1 0x7 SLOAD CALLER PUSH1 0x0 SWAP1 DUP2 MSTORE PUSH1 0xB PUSH1 0x20 MSTORE PUSH1 0x40 SWAP1 KECCAK256 SLOAD PUSH1 0xFF AND ISZERO ISZERO PUSH1 0x1 SUB PUSH2 0x1315 JUMPI PUSH1 0x6 SLOAD PUSH1 0xD SLOAD PUSH2 0x12F3 SWAP2 PUSH1 0x1 PUSH1 0x1 PUSH1 0xA0 SHL SUB SWAP1 DUP2 AND SWAP2 AND DUP4 PUSH2 0x21D3 JUMP JUMPDEST PUSH1 0x6 SLOAD PUSH1 0xD SLOAD PUSH2 0x1310 SWAP2 PUSH1 0x1 PUSH1 0x1 PUSH1 0xA0 SHL SUB SWAP1 DUP2 AND SWAP2 AND DUP4 PUSH2 0x22F0 JUMP JUMPDEST PUSH2 0x13A3 JUMP JUMPDEST PUSH1 0x6 SLOAD PUSH2 0x132C SWAP1 PUSH1 0x1 PUSH1 0x1 PUSH1 0xA0 SHL SUB AND ADDRESS DUP4 PUSH2 0x21D3 JUMP JUMPDEST PUSH1 0x6 SLOAD PUSH2 0x1344 SWAP1 PUSH1 0x1 PUSH1 0x1 PUSH1 0xA0 SHL SUB AND CALLER ADDRESS DUP5 PUSH2 0x24C7 JUMP JUMPDEST PUSH1 0x6 SLOAD PUSH1 0x40 MLOAD PUSH4 0x852CD8D PUSH1 0xE3 SHL DUP2 MSTORE PUSH1 0x4 DUP2 ADD DUP4 SWAP1 MSTORE PUSH1 0x1 PUSH1 0x1 PUSH1 0xA0 SHL SUB SWAP1 SWAP2 AND SWAP1 PUSH4 0x42966C68 SWAP1 PUSH1 0x24 ADD PUSH1 0x0 PUSH1 0x40 MLOAD DUP1 DUP4 SUB DUP2 PUSH1 0x0 DUP8 DUP1 EXTCODESIZE ISZERO DUP1 ISZERO PUSH2 0x138A JUMPI PUSH1 0x0 DUP1 REVERT JUMPDEST POP GAS CALL ISZERO DUP1 ISZERO PUSH2 0x139E JUMPI RETURNDATASIZE PUSH1 0x0 DUP1 RETURNDATACOPY RETURNDATASIZE PUSH1 0x0 REVERT JUMPDEST POP POP POP POP JUMPDEST POP PUSH2 0x1454 JUMP JUMPDEST CALLER PUSH1 0x0 SWAP1 DUP2 MSTORE PUSH1 0xA PUSH1 0x20 MSTORE PUSH1 0x40 SWAP1 KECCAK256 SLOAD PUSH1 0xFF AND ISZERO ISZERO PUSH1 0x1 EQ DUP1 ISZERO PUSH2 0x13CD JUMPI POP PUSH1 0x0 CALLVALUE GT JUMPDEST ISZERO PUSH2 0x1454 JUMPI CALLER PUSH1 0x0 SWAP1 DUP2 MSTORE PUSH1 0xB PUSH1 0x20 MSTORE PUSH1 0x40 DUP2 KECCAK256 SLOAD PUSH1 0xFF AND ISZERO ISZERO SWAP1 SUB PUSH2 0x1419 JUMPI PUSH1 0x40 MLOAD CALLER SWAP1 CALLVALUE DUP1 ISZERO PUSH2 0x8FC MUL SWAP2 PUSH1 0x0 DUP2 DUP2 DUP2 DUP6 DUP9 DUP9 CALL SWAP4 POP POP POP POP ISZERO DUP1 ISZERO PUSH2 0x13A3 JUMPI RETURNDATASIZE PUSH1 0x0 DUP1 RETURNDATACOPY RETURNDATASIZE PUSH1 0x0 REVERT JUMPDEST PUSH1 0xD SLOAD PUSH1 0x40 MLOAD PUSH1 0x1 PUSH1 0x1 PUSH1 0xA0 SHL SUB SWAP1 SWAP2 AND SWAP1 CALLVALUE DUP1 ISZERO PUSH2 0x8FC MUL SWAP2 PUSH1 0x0 DUP2 DUP2 DUP2 DUP6 DUP9 DUP9 CALL SWAP4 POP POP POP POP ISZERO DUP1 ISZERO PUSH2 0x1452 JUMPI RETURNDATASIZE PUSH1 0x0 DUP1 RETURNDATACOPY RETURNDATASIZE PUSH1 0x0 REVERT JUMPDEST POP JUMPDEST CALLER PUSH1 0x0 SWAP1 DUP2 MSTORE PUSH1 0xB PUSH1 0x20 MSTORE PUSH1 0x40 SWAP1 KECCAK256 SLOAD PUSH1 0xFF AND ISZERO ISZERO PUSH1 0x1 SUB PUSH2 0x14A5 JUMPI PUSH1 0xD SLOAD PUSH2 0x1488 SWAP1 DUP9 SWAP1 PUSH1 0x1 PUSH1 0x1 PUSH1 0xA0 SHL SUB AND DUP9 PUSH2 0x21D3 JUMP JUMPDEST PUSH1 0xD SLOAD PUSH2 0x14A0 SWAP1 DUP9 SWAP1 PUSH1 0x1 PUSH1 0x1 PUSH1 0xA0 SHL SUB AND DUP9 PUSH2 0x22F0 JUMP JUMPDEST PUSH2 0x1782 JUMP JUMPDEST PUSH1 0x0 PUSH2 0x14C5 PUSH2 0x3E8 PUSH2 0xDBC PUSH1 0x5 PUSH1 0x4 ADD SLOAD DUP11 PUSH2 0x2406 SWAP1 SWAP2 SWAP1 PUSH4 0xFFFFFFFF AND JUMP JUMPDEST SWAP1 POP DUP5 ISZERO DUP1 ISZERO PUSH2 0x14E5 JUMPI POP CALLER PUSH1 0x0 SWAP1 DUP2 MSTORE PUSH1 0xA PUSH1 0x20 MSTORE PUSH1 0x40 SWAP1 KECCAK256 SLOAD PUSH1 0xFF AND ISZERO JUMPDEST ISZERO PUSH2 0x1510 JUMPI PUSH2 0x150D PUSH2 0x3E8 PUSH2 0xDBC PUSH1 0x5 PUSH1 0x3 ADD SLOAD PUSH2 0x3E8 PUSH2 0x1506 SWAP2 SWAP1 PUSH2 0x29E7 JUMP JUMPDEST DUP5 SWAP1 PUSH2 0x2406 JUMP JUMPDEST SWAP1 POP JUMPDEST PUSH1 0xD SLOAD PUSH2 0x1528 SWAP1 DUP10 SWAP1 PUSH1 0x1 PUSH1 0x1 PUSH1 0xA0 SHL SUB AND DUP4 PUSH2 0x22F0 JUMP JUMPDEST PUSH1 0x0 PUSH2 0x1534 DUP9 DUP4 PUSH2 0x218A JUMP JUMPDEST SWAP1 POP PUSH2 0x153E PUSH2 0x26BC JUMP JUMPDEST TIMESTAMP DUP2 PUSH1 0x0 ADD DUP2 DUP2 MSTORE POP POP DUP2 DUP2 PUSH1 0x20 ADD DUP2 DUP2 MSTORE POP POP DUP2 DUP2 PUSH1 0x40 ADD DUP2 DUP2 MSTORE POP POP DUP8 DUP2 PUSH1 0x60 ADD DUP2 DUP2 MSTORE POP POP PUSH1 0x4 PUSH1 0x0 DUP12 PUSH1 0x1 PUSH1 0x1 PUSH1 0xA0 SHL SUB AND PUSH1 0x1 PUSH1 0x1 PUSH1 0xA0 SHL SUB AND DUP2 MSTORE PUSH1 0x20 ADD SWAP1 DUP2 MSTORE PUSH1 0x20 ADD PUSH1 0x0 KECCAK256 DUP1 SLOAD SWAP1 POP DUP2 PUSH1 0x80 ADD DUP2 DUP2 MSTORE POP POP DUP6 DUP2 PUSH1 0xA0 ADD SWAP1 PUSH1 0x1 PUSH1 0x1 PUSH1 0xA0 SHL SUB AND SWAP1 DUP2 PUSH1 0x1 PUSH1 0x1 PUSH1 0xA0 SHL SUB AND DUP2 MSTORE POP POP PUSH1 0x4 PUSH1 0x0 DUP12 PUSH1 0x1 PUSH1 0x1 PUSH1 0xA0 SHL SUB AND PUSH1 0x1 PUSH1 0x1 PUSH1 0xA0 SHL SUB AND DUP2 MSTORE PUSH1 0x20 ADD SWAP1 DUP2 MSTORE PUSH1 0x20 ADD PUSH1 0x0 KECCAK256 DUP2 SWAP1 DUP1 PUSH1 0x1 DUP2 SLOAD ADD DUP1 DUP3 SSTORE DUP1 SWAP2 POP POP PUSH1 0x1 SWAP1 SUB SWAP1 PUSH1 0x0 MSTORE PUSH1 0x20 PUSH1 0x0 KECCAK256 SWAP1 PUSH1 0x6 MUL ADD PUSH1 0x0 SWAP1 SWAP2 SWAP1 SWAP2 SWAP1 SWAP2 POP PUSH1 0x0 DUP3 ADD MLOAD DUP2 PUSH1 0x0 ADD SSTORE PUSH1 0x20 DUP3 ADD MLOAD DUP2 PUSH1 0x1 ADD SSTORE PUSH1 0x40 DUP3 ADD MLOAD DUP2 PUSH1 0x2 ADD SSTORE PUSH1 0x60 DUP3 ADD MLOAD DUP2 PUSH1 0x3 ADD SSTORE PUSH1 0x80 DUP3 ADD MLOAD DUP2 PUSH1 0x4 ADD SSTORE PUSH1 0xA0 DUP3 ADD MLOAD DUP2 PUSH1 0x5 ADD PUSH1 0x0 PUSH2 0x100 EXP DUP2 SLOAD DUP2 PUSH1 0x1 PUSH1 0x1 PUSH1 0xA0 SHL SUB MUL NOT AND SWAP1 DUP4 PUSH1 0x1 PUSH1 0x1 PUSH1 0xA0 SHL SUB AND MUL OR SWAP1 SSTORE POP POP POP PUSH1 0x0 PUSH1 0x3 PUSH1 0x0 DUP9 PUSH1 0x1 PUSH1 0x1 PUSH1 0xA0 SHL SUB AND PUSH1 0x1 PUSH1 0x1 PUSH1 0xA0 SHL SUB AND DUP2 MSTORE PUSH1 0x20 ADD SWAP1 DUP2 MSTORE PUSH1 0x20 ADD PUSH1 0x0 KECCAK256 SWAP1 POP DUP1 PUSH1 0x0 ADD DUP12 SWAP1 DUP1 PUSH1 0x1 DUP2 SLOAD ADD DUP1 DUP3 SSTORE DUP1 SWAP2 POP POP PUSH1 0x1 SWAP1 SUB SWAP1 PUSH1 0x0 MSTORE PUSH1 0x20 PUSH1 0x0 KECCAK256 ADD PUSH1 0x0 SWAP1 SWAP2 SWAP1 SWAP2 SWAP1 SWAP2 PUSH2 0x100 EXP DUP2 SLOAD DUP2 PUSH1 0x1 PUSH1 0x1 PUSH1 0xA0 SHL SUB MUL NOT AND SWAP1 DUP4 PUSH1 0x1 PUSH1 0x1 PUSH1 0xA0 SHL SUB AND MUL OR SWAP1 SSTORE POP PUSH1 0x0 DUP2 PUSH1 0x1 ADD PUSH1 0x0 DUP14 PUSH1 0x1 PUSH1 0x1 PUSH1 0xA0 SHL SUB AND PUSH1 0x1 PUSH1 0x1 PUSH1 0xA0 SHL SUB AND DUP2 MSTORE PUSH1 0x20 ADD SWAP1 DUP2 MSTORE PUSH1 0x20 ADD PUSH1 0x0 KECCAK256 SWAP1 POP DUP1 DUP4 PUSH1 0x80 ADD MLOAD SWAP1 DUP1 PUSH1 0x1 DUP2 SLOAD ADD DUP1 DUP3 SSTORE DUP1 SWAP2 POP POP PUSH1 0x1 SWAP1 SUB SWAP1 PUSH1 0x0 MSTORE PUSH1 0x20 PUSH1 0x0 KECCAK256 ADD PUSH1 0x0 SWAP1 SWAP2 SWAP1 SWAP2 SWAP1 SWAP2 POP SSTORE PUSH32 0x830357565DA6ECFC26D8D9F69DF488ED6F70361AF9A07E570544AEB5C5E765E5 DUP13 CALLER DUP6 PUSH1 0x20 ADD MLOAD DUP7 PUSH1 0x0 ADD MLOAD DUP8 PUSH1 0x60 ADD MLOAD PUSH1 0x40 MLOAD PUSH2 0x1774 SWAP6 SWAP5 SWAP4 SWAP3 SWAP2 SWAP1 PUSH2 0x2AD7 JUMP JUMPDEST PUSH1 0x40 MLOAD DUP1 SWAP2 SUB SWAP1 LOG1 POP POP POP POP POP JUMPDEST POP POP PUSH1 0x1 DUP1 SSTORE POP POP POP POP POP JUMP JUMPDEST PUSH1 0x2 PUSH1 0x1 SLOAD SUB PUSH2 0x17B1 JUMPI PUSH1 0x40 MLOAD PUSH3 0x461BCD PUSH1 0xE5 SHL DUP2 MSTORE PUSH1 0x4 ADD PUSH2 0x62E SWAP1 PUSH2 0x2973 JUMP JUMPDEST PUSH1 0x2 PUSH1 0x1 SSTORE CALLER PUSH1 0x0 SWAP1 DUP2 MSTORE PUSH1 0xB PUSH1 0x20 MSTORE PUSH1 0x40 SWAP1 KECCAK256 SLOAD PUSH1 0xFF AND ISZERO PUSH2 0x17D3 JUMPI PUSH1 0x0 DUP1 REVERT JUMPDEST PUSH1 0x0 DUP2 GT PUSH2 0x17F3 JUMPI PUSH1 0x40 MLOAD PUSH3 0x461BCD PUSH1 0xE5 SHL DUP2 MSTORE PUSH1 0x4 ADD PUSH2 0x62E SWAP1 PUSH2 0x2A2D JUMP JUMPDEST CALLER PUSH1 0x0 SWAP1 DUP2 MSTORE PUSH1 0x3 PUSH1 0x20 SWAP1 DUP2 MSTORE PUSH1 0x40 DUP1 DUP4 KECCAK256 PUSH1 0x1 PUSH1 0x1 PUSH1 0xA0 SHL SUB DUP9 AND DUP5 MSTORE PUSH1 0x1 ADD SWAP1 SWAP2 MSTORE DUP2 KECCAK256 DUP1 SLOAD DUP6 SWAP1 DUP2 LT PUSH2 0x182B JUMPI PUSH2 0x182B PUSH2 0x2928 JUMP JUMPDEST SWAP1 PUSH1 0x0 MSTORE PUSH1 0x20 PUSH1 0x0 KECCAK256 ADD SLOAD SWAP1 POP PUSH1 0x0 PUSH1 0x4 PUSH1 0x0 DUP8 PUSH1 0x1 PUSH1 0x1 PUSH1 0xA0 SHL SUB AND PUSH1 0x1 PUSH1 0x1 PUSH1 0xA0 SHL SUB AND DUP2 MSTORE PUSH1 0x20 ADD SWAP1 DUP2 MSTORE PUSH1 0x20 ADD PUSH1 0x0 KECCAK256 DUP3 DUP2 SLOAD DUP2 LT PUSH2 0x1870 JUMPI PUSH2 0x1870 PUSH2 0x2928 JUMP JUMPDEST SWAP1 PUSH1 0x0 MSTORE PUSH1 0x20 PUSH1 0x0 KECCAK256 SWAP1 PUSH1 0x6 MUL ADD SWAP1 POP DUP4 DUP3 EQ DUP1 ISZERO PUSH2 0x189B JUMPI POP PUSH1 0x5 DUP2 ADD SLOAD PUSH1 0x1 PUSH1 0x1 PUSH1 0xA0 SHL SUB AND CALLER EQ JUMPDEST PUSH2 0x18B7 JUMPI PUSH1 0x40 MLOAD PUSH3 0x461BCD PUSH1 0xE5 SHL DUP2 MSTORE PUSH1 0x4 ADD PUSH2 0x62E SWAP1 PUSH2 0x29AA JUMP JUMPDEST PUSH2 0x18C3 DUP7 CALLER ADDRESS DUP7 PUSH2 0x24C7 JUMP JUMPDEST PUSH1 0x0 PUSH2 0x18E3 PUSH2 0x3E8 PUSH2 0xDBC PUSH1 0x5 PUSH1 0x4 ADD SLOAD DUP8 PUSH2 0x2406 SWAP1 SWAP2 SWAP1 PUSH4 0xFFFFFFFF AND JUMP JUMPDEST PUSH1 0xD SLOAD SWAP1 SWAP2 POP PUSH2 0x18FE SWAP1 DUP9 SWAP1 PUSH1 0x1 PUSH1 0x1 PUSH1 0xA0 SHL SUB AND DUP4 PUSH2 0x22F0 JUMP JUMPDEST PUSH1 0x0 PUSH2 0x190A DUP6 DUP4 PUSH2 0x218A JUMP JUMPDEST PUSH1 0x1 DUP5 ADD SLOAD SWAP1 SWAP2 POP PUSH2 0x191C SWAP1 DUP3 PUSH2 0x25F7 JUMP JUMPDEST PUSH1 0x1 DUP5 ADD SSTORE DUP3 SLOAD PUSH1 0x3 DUP5 ADD SLOAD PUSH1 0x40 MLOAD PUSH32 0x830357565DA6ECFC26D8D9F69DF488ED6F70361AF9A07E570544AEB5C5E765E5 SWAP3 PUSH2 0x195E SWAP3 DUP13 SWAP3 CALLER SWAP3 DUP8 SWAP3 SWAP1 SWAP2 PUSH2 0x2AD7 JUMP JUMPDEST PUSH1 0x40 MLOAD DUP1 SWAP2 SUB SWAP1 LOG1 POP POP PUSH1 0x1 DUP1 SSTORE POP POP POP POP POP POP JUMP JUMPDEST PUSH1 0x0 SLOAD PUSH1 0x1 PUSH1 0x1 PUSH1 0xA0 SHL SUB AND CALLER EQ PUSH2 0x199E JUMPI PUSH1 0x40 MLOAD PUSH3 0x461BCD PUSH1 0xE5 SHL DUP2 MSTORE PUSH1 0x4 ADD PUSH2 0x62E SWAP1 PUSH2 0x293E JUMP JUMPDEST PUSH1 0x1 PUSH1 0x1 PUSH1 0xA0 SHL SUB SWAP2 SWAP1 SWAP2 AND PUSH1 0x0 SWAP1 DUP2 MSTORE PUSH1 0xB PUSH1 0x20 MSTORE PUSH1 0x40 SWAP1 KECCAK256 DUP1 SLOAD PUSH1 0xFF NOT AND SWAP2 ISZERO ISZERO SWAP2 SWAP1 SWAP2 OR SWAP1 SSTORE JUMP JUMPDEST CALLER PUSH1 0x0 SWAP1 DUP2 MSTORE PUSH1 0xB PUSH1 0x20 MSTORE PUSH1 0x40 SWAP1 KECCAK256 SLOAD PUSH1 0xFF AND ISZERO PUSH2 0x19E6 JUMPI PUSH1 0x0 DUP1 REVERT JUMPDEST PUSH1 0x1 PUSH1 0x1 PUSH1 0xA0 SHL SUB DUP2 AND CALLER SUB PUSH2 0x1A26 JUMPI PUSH1 0x40 MLOAD PUSH3 0x461BCD PUSH1 0xE5 SHL DUP2 MSTORE PUSH1 0x20 PUSH1 0x4 DUP3 ADD MSTORE PUSH1 0x5 PUSH1 0x24 DUP3 ADD MSTORE PUSH5 0x27ABA722A9 PUSH1 0xD9 SHL PUSH1 0x44 DUP3 ADD MSTORE PUSH1 0x64 ADD PUSH2 0x62E JUMP JUMPDEST CALLER PUSH1 0x0 SWAP1 DUP2 MSTORE PUSH1 0x3 PUSH1 0x20 SWAP1 DUP2 MSTORE PUSH1 0x40 DUP1 DUP4 KECCAK256 PUSH1 0x1 PUSH1 0x1 PUSH1 0xA0 SHL SUB DUP9 AND DUP5 MSTORE PUSH1 0x1 ADD SWAP1 SWAP2 MSTORE DUP2 KECCAK256 DUP1 SLOAD DUP6 SWAP1 DUP2 LT PUSH2 0x1A5E JUMPI PUSH2 0x1A5E PUSH2 0x2928 JUMP JUMPDEST SWAP1 PUSH1 0x0 MSTORE PUSH1 0x20 PUSH1 0x0 KECCAK256 ADD SLOAD SWAP1 POP PUSH1 0x0 PUSH1 0x4 PUSH1 0x0 DUP8 PUSH1 0x1 PUSH1 0x1 PUSH1 0xA0 SHL SUB AND PUSH1 0x1 PUSH1 0x1 PUSH1 0xA0 SHL SUB AND DUP2 MSTORE PUSH1 0x20 ADD SWAP1 DUP2 MSTORE PUSH1 0x20 ADD PUSH1 0x0 KECCAK256 DUP3 DUP2 SLOAD DUP2 LT PUSH2 0x1AA3 JUMPI PUSH2 0x1AA3 PUSH2 0x2928 JUMP JUMPDEST SWAP1 PUSH1 0x0 MSTORE PUSH1 0x20 PUSH1 0x0 KECCAK256 SWAP1 PUSH1 0x6 MUL ADD SWAP1 POP DUP4 DUP3 EQ DUP1 ISZERO PUSH2 0x1ACE JUMPI POP PUSH1 0x5 DUP2 ADD SLOAD PUSH1 0x1 PUSH1 0x1 PUSH1 0xA0 SHL SUB AND CALLER EQ JUMPDEST PUSH2 0x1AEA JUMPI PUSH1 0x40 MLOAD PUSH3 0x461BCD PUSH1 0xE5 SHL DUP2 MSTORE PUSH1 0x4 ADD PUSH2 0x62E SWAP1 PUSH2 0x29AA JUMP JUMPDEST PUSH1 0x1 PUSH1 0x1 PUSH1 0xA0 SHL SUB DUP4 DUP2 AND PUSH1 0x0 SWAP1 DUP2 MSTORE PUSH1 0x3 PUSH1 0x20 DUP2 DUP2 MSTORE PUSH1 0x40 DUP1 DUP5 KECCAK256 DUP1 SLOAD PUSH1 0x1 DUP1 DUP3 ADD DUP4 SSTORE DUP3 DUP8 MSTORE DUP5 DUP8 KECCAK256 SWAP1 SWAP2 ADD DUP1 SLOAD PUSH1 0x1 PUSH1 0x1 PUSH1 0xA0 SHL SUB NOT AND SWAP8 DUP15 AND SWAP8 DUP9 OR SWAP1 SSTORE DUP7 DUP7 MSTORE DUP1 DUP3 ADD DUP5 MSTORE DUP3 DUP7 KECCAK256 PUSH1 0x4 DUP10 ADD SLOAD DUP2 SLOAD DUP1 DUP5 ADD DUP4 SSTORE DUP3 DUP10 MSTORE DUP7 DUP10 KECCAK256 ADD SSTORE CALLER DUP8 MSTORE SWAP5 DUP5 MSTORE DUP3 DUP7 KECCAK256 SWAP7 DUP7 MSTORE SWAP6 DUP7 ADD SWAP1 SWAP3 MSTORE SWAP1 SWAP3 KECCAK256 DUP1 SLOAD SWAP3 SWAP4 SWAP2 SWAP3 SWAP1 SWAP2 DUP3 SWAP2 PUSH2 0x1B74 SWAP2 SWAP1 PUSH2 0x29E7 JUMP JUMPDEST DUP2 SLOAD DUP2 LT PUSH2 0x1B84 JUMPI PUSH2 0x1B84 PUSH2 0x2928 JUMP JUMPDEST SWAP1 PUSH1 0x0 MSTORE PUSH1 0x20 PUSH1 0x0 KECCAK256 ADD SLOAD DUP2 DUP10 DUP2 SLOAD DUP2 LT PUSH2 0x1BA1 JUMPI PUSH2 0x1BA1 PUSH2 0x2928 JUMP JUMPDEST SWAP1 PUSH1 0x0 MSTORE PUSH1 0x20 PUSH1 0x0 KECCAK256 ADD DUP2 SWAP1 SSTORE POP DUP1 DUP1 SLOAD DUP1 PUSH2 0x1BBF JUMPI PUSH2 0x1BBF PUSH2 0x29FE JUMP JUMPDEST PUSH1 0x1 SWAP1 SUB DUP2 DUP2 SWAP1 PUSH1 0x0 MSTORE PUSH1 0x20 PUSH1 0x0 KECCAK256 ADD PUSH1 0x0 SWAP1 SSTORE SWAP1 SSTORE DUP1 DUP1 SLOAD SWAP1 POP PUSH1 0x0 SUB PUSH2 0x1C05 JUMPI PUSH1 0x1 PUSH1 0x1 PUSH1 0xA0 SHL SUB DUP10 AND PUSH1 0x0 SWAP1 DUP2 MSTORE PUSH1 0xC PUSH1 0x20 MSTORE PUSH1 0x40 SWAP1 KECCAK256 DUP1 SLOAD PUSH1 0xFF NOT AND PUSH1 0x1 OR SWAP1 SSTORE JUMPDEST POP POP POP PUSH1 0x5 ADD DUP1 SLOAD PUSH1 0x1 PUSH1 0x1 PUSH1 0xA0 SHL SUB NOT AND PUSH1 0x1 PUSH1 0x1 PUSH1 0xA0 SHL SUB SWAP4 SWAP1 SWAP4 AND SWAP3 SWAP1 SWAP3 OR SWAP1 SWAP2 SSTORE POP POP POP POP JUMP JUMPDEST PUSH1 0x4 PUSH1 0x20 MSTORE DUP2 PUSH1 0x0 MSTORE PUSH1 0x40 PUSH1 0x0 KECCAK256 DUP2 DUP2 SLOAD DUP2 LT PUSH2 0x1C4C JUMPI PUSH1 0x0 DUP1 REVERT JUMPDEST PUSH1 0x0 SWAP2 DUP3 MSTORE PUSH1 0x20 SWAP1 SWAP2 KECCAK256 PUSH1 0x6 SWAP1 SWAP2 MUL ADD DUP1 SLOAD PUSH1 0x1 DUP3 ADD SLOAD PUSH1 0x2 DUP4 ADD SLOAD PUSH1 0x3 DUP5 ADD SLOAD PUSH1 0x4 DUP6 ADD SLOAD PUSH1 0x5 SWAP1 SWAP6 ADD SLOAD SWAP4 SWAP7 POP SWAP2 SWAP5 POP SWAP3 SWAP1 SWAP2 PUSH1 0x1 PUSH1 0x1 PUSH1 0xA0 SHL SUB AND DUP7 JUMP JUMPDEST PUSH1 0x0 DUP1 PUSH1 0x0 DUP1 PUSH1 0x0 DUP1 PUSH1 0x0 PUSH1 0x3 PUSH1 0x0 DUP12 PUSH1 0x1 PUSH1 0x1 PUSH1 0xA0 SHL SUB AND PUSH1 0x1 PUSH1 0x1 PUSH1 0xA0 SHL SUB AND DUP2 MSTORE PUSH1 0x20 ADD SWAP1 DUP2 MSTORE PUSH1 0x20 ADD PUSH1 0x0 KECCAK256 PUSH1 0x1 ADD PUSH1 0x0 DUP11 PUSH1 0x1 PUSH1 0x1 PUSH1 0xA0 SHL SUB AND PUSH1 0x1 PUSH1 0x1 PUSH1 0xA0 SHL SUB AND DUP2 MSTORE PUSH1 0x20 ADD SWAP1 DUP2 MSTORE PUSH1 0x20 ADD PUSH1 0x0 KECCAK256 DUP9 DUP2 SLOAD DUP2 LT PUSH2 0x1CF4 JUMPI PUSH2 0x1CF4 PUSH2 0x2928 JUMP JUMPDEST SWAP1 PUSH1 0x0 MSTORE PUSH1 0x20 PUSH1 0x0 KECCAK256 ADD SLOAD SWAP1 POP PUSH1 0x0 PUSH1 0x4 PUSH1 0x0 DUP12 PUSH1 0x1 PUSH1 0x1 PUSH1 0xA0 SHL SUB AND PUSH1 0x1 PUSH1 0x1 PUSH1 0xA0 SHL SUB AND DUP2 MSTORE PUSH1 0x20 ADD SWAP1 DUP2 MSTORE PUSH1 0x20 ADD PUSH1 0x0 KECCAK256 DUP3 DUP2 SLOAD DUP2 LT PUSH2 0x1D39 JUMPI PUSH2 0x1D39 PUSH2 0x2928 JUMP JUMPDEST PUSH1 0x0 SWAP2 DUP3 MSTORE PUSH1 0x20 SWAP1 SWAP2 KECCAK256 PUSH1 0x6 SWAP1 SWAP2 MUL ADD DUP1 SLOAD PUSH1 0x1 DUP3 ADD SLOAD PUSH1 0x2 DUP4 ADD SLOAD PUSH1 0x3 DUP5 ADD SLOAD PUSH1 0x4 DUP6 ADD SLOAD PUSH1 0x5 SWAP1 SWAP6 ADD SLOAD SWAP4 SWAP13 POP SWAP2 SWAP11 POP SWAP9 POP SWAP7 POP SWAP1 SWAP5 POP PUSH1 0x1 PUSH1 0x1 PUSH1 0xA0 SHL SUB AND SWAP3 POP POP POP SWAP4 SWAP8 POP SWAP4 SWAP8 SWAP2 SWAP6 POP SWAP4 POP JUMP JUMPDEST PUSH1 0x2 PUSH1 0x1 SLOAD SUB PUSH2 0x1DAD JUMPI PUSH1 0x40 MLOAD PUSH3 0x461BCD PUSH1 0xE5 SHL DUP2 MSTORE PUSH1 0x4 ADD PUSH2 0x62E SWAP1 PUSH2 0x2973 JUMP JUMPDEST PUSH1 0x2 PUSH1 0x1 SSTORE PUSH1 0xE SLOAD PUSH1 0x1 PUSH1 0x1 PUSH1 0xA0 SHL SUB AND PUSH2 0x1DF4 JUMPI PUSH1 0x40 MLOAD PUSH3 0x461BCD PUSH1 0xE5 SHL DUP2 MSTORE PUSH1 0x20 PUSH1 0x4 DUP3 ADD MSTORE PUSH1 0x7 PUSH1 0x24 DUP3 ADD MSTORE PUSH7 0x1393D50814D155 PUSH1 0xCA SHL PUSH1 0x44 DUP3 ADD MSTORE PUSH1 0x64 ADD PUSH2 0x62E JUMP JUMPDEST PUSH1 0x0 DUP2 GT PUSH2 0x1E35 JUMPI PUSH1 0x40 MLOAD PUSH3 0x461BCD PUSH1 0xE5 SHL DUP2 MSTORE PUSH1 0x20 PUSH1 0x4 DUP3 ADD MSTORE PUSH1 0xE PUSH1 0x24 DUP3 ADD MSTORE PUSH14 0x2D22A9279026A4A3A920AA24A7A7 PUSH1 0x91 SHL PUSH1 0x44 DUP3 ADD MSTORE PUSH1 0x64 ADD PUSH2 0x62E JUMP JUMPDEST CALLER PUSH1 0x0 SWAP1 DUP2 MSTORE PUSH1 0xB PUSH1 0x20 MSTORE PUSH1 0x40 SWAP1 KECCAK256 SLOAD PUSH1 0xFF AND ISZERO PUSH2 0x1E52 JUMPI PUSH1 0x0 DUP1 REVERT JUMPDEST CALLER PUSH1 0x0 SWAP1 DUP2 MSTORE PUSH1 0x3 PUSH1 0x20 SWAP1 DUP2 MSTORE PUSH1 0x40 DUP1 DUP4 KECCAK256 PUSH1 0x1 PUSH1 0x1 PUSH1 0xA0 SHL SUB DUP9 AND DUP5 MSTORE PUSH1 0x1 ADD SWAP1 SWAP2 MSTORE DUP2 KECCAK256 DUP1 SLOAD DUP6 SWAP1 DUP2 LT PUSH2 0x1E8A JUMPI PUSH2 0x1E8A PUSH2 0x2928 JUMP JUMPDEST SWAP1 PUSH1 0x0 MSTORE PUSH1 0x20 PUSH1 0x0 KECCAK256 ADD SLOAD SWAP1 POP PUSH1 0x0 PUSH1 0x4 PUSH1 0x0 DUP8 PUSH1 0x1 PUSH1 0x1 PUSH1 0xA0 SHL SUB AND PUSH1 0x1 PUSH1 0x1 PUSH1 0xA0 SHL SUB AND DUP2 MSTORE PUSH1 0x20 ADD SWAP1 DUP2 MSTORE PUSH1 0x20 ADD PUSH1 0x0 KECCAK256 DUP3 DUP2 SLOAD DUP2 LT PUSH2 0x1ECF JUMPI PUSH2 0x1ECF PUSH2 0x2928 JUMP JUMPDEST SWAP1 PUSH1 0x0 MSTORE PUSH1 0x20 PUSH1 0x0 KECCAK256 SWAP1 PUSH1 0x6 MUL ADD SWAP1 POP DUP4 DUP3 EQ DUP1 ISZERO PUSH2 0x1EFA JUMPI POP PUSH1 0x5 DUP2 ADD SLOAD PUSH1 0x1 PUSH1 0x1 PUSH1 0xA0 SHL SUB AND CALLER EQ JUMPDEST PUSH2 0x1F16 JUMPI PUSH1 0x40 MLOAD PUSH3 0x461BCD PUSH1 0xE5 SHL DUP2 MSTORE PUSH1 0x4 ADD PUSH2 0x62E SWAP1 PUSH2 0x29AA JUMP JUMPDEST PUSH1 0x1 DUP2 ADD SLOAD PUSH2 0x1F25 SWAP1 DUP5 PUSH2 0x218A JUMP JUMPDEST PUSH1 0x1 DUP3 ADD DUP2 SWAP1 SSTORE PUSH1 0x0 SUB PUSH2 0x1FFF JUMPI CALLER PUSH1 0x0 SWAP1 DUP2 MSTORE PUSH1 0x3 PUSH1 0x20 SWAP1 DUP2 MSTORE PUSH1 0x40 DUP1 DUP4 KECCAK256 PUSH1 0x1 PUSH1 0x1 PUSH1 0xA0 SHL SUB DUP11 AND DUP5 MSTORE PUSH1 0x1 SWAP1 DUP2 ADD SWAP1 SWAP3 MSTORE SWAP1 SWAP2 KECCAK256 DUP1 SLOAD SWAP1 SWAP2 DUP3 SWAP2 PUSH2 0x1F6C SWAP2 SWAP1 PUSH2 0x29E7 JUMP JUMPDEST DUP2 SLOAD DUP2 LT PUSH2 0x1F7C JUMPI PUSH2 0x1F7C PUSH2 0x2928 JUMP JUMPDEST SWAP1 PUSH1 0x0 MSTORE PUSH1 0x20 PUSH1 0x0 KECCAK256 ADD SLOAD DUP2 DUP8 DUP2 SLOAD DUP2 LT PUSH2 0x1F99 JUMPI PUSH2 0x1F99 PUSH2 0x2928 JUMP JUMPDEST SWAP1 PUSH1 0x0 MSTORE PUSH1 0x20 PUSH1 0x0 KECCAK256 ADD DUP2 SWAP1 SSTORE POP DUP1 DUP1 SLOAD DUP1 PUSH2 0x1FB7 JUMPI PUSH2 0x1FB7 PUSH2 0x29FE JUMP JUMPDEST PUSH1 0x1 SWAP1 SUB DUP2 DUP2 SWAP1 PUSH1 0x0 MSTORE PUSH1 0x20 PUSH1 0x0 KECCAK256 ADD PUSH1 0x0 SWAP1 SSTORE SWAP1 SSTORE DUP1 DUP1 SLOAD SWAP1 POP PUSH1 0x0 SUB PUSH2 0x1FFD JUMPI PUSH1 0x1 PUSH1 0x1 PUSH1 0xA0 SHL SUB DUP8 AND PUSH1 0x0 SWAP1 DUP2 MSTORE PUSH1 0xC PUSH1 0x20 MSTORE PUSH1 0x40 SWAP1 KECCAK256 DUP1 SLOAD PUSH1 0xFF NOT AND PUSH1 0x1 OR SWAP1 SSTORE JUMPDEST POP JUMPDEST PUSH1 0xE SLOAD PUSH2 0x2017 SWAP1 DUP8 SWAP1 PUSH1 0x1 PUSH1 0x1 PUSH1 0xA0 SHL SUB AND DUP6 PUSH2 0x21D3 JUMP JUMPDEST PUSH1 0xE SLOAD PUSH1 0x3 DUP3 ADD SLOAD PUSH1 0x40 MLOAD PUSH4 0xDB5ECD3F PUSH1 0xE0 SHL DUP2 MSTORE PUSH1 0x1 PUSH1 0x1 PUSH1 0xA0 SHL SUB DUP10 DUP2 AND PUSH1 0x4 DUP4 ADD MSTORE PUSH1 0x24 DUP3 ADD DUP8 SWAP1 MSTORE PUSH1 0x44 DUP3 ADD SWAP3 SWAP1 SWAP3 MSTORE CALLER PUSH1 0x64 DUP3 ADD MSTORE SWAP2 AND SWAP1 PUSH4 0xDB5ECD3F SWAP1 PUSH1 0x84 ADD PUSH1 0x20 PUSH1 0x40 MLOAD DUP1 DUP4 SUB DUP2 PUSH1 0x0 DUP8 GAS CALL ISZERO DUP1 ISZERO PUSH2 0x207C JUMPI RETURNDATASIZE PUSH1 0x0 DUP1 RETURNDATACOPY RETURNDATASIZE PUSH1 0x0 REVERT JUMPDEST POP POP POP POP PUSH1 0x40 MLOAD RETURNDATASIZE PUSH1 0x1F NOT PUSH1 0x1F DUP3 ADD AND DUP3 ADD DUP1 PUSH1 0x40 MSTORE POP DUP2 ADD SWAP1 PUSH2 0x1782 SWAP2 SWAP1 PUSH2 0x2B08 JUMP JUMPDEST PUSH1 0x0 SLOAD PUSH1 0x1 PUSH1 0x1 PUSH1 0xA0 SHL SUB AND CALLER EQ PUSH2 0x20CA JUMPI PUSH1 0x40 MLOAD PUSH3 0x461BCD PUSH1 0xE5 SHL DUP2 MSTORE PUSH1 0x4 ADD PUSH2 0x62E SWAP1 PUSH2 0x293E JUMP JUMPDEST PUSH1 0x1 PUSH1 0x1 PUSH1 0xA0 SHL SUB DUP2 AND PUSH2 0x212F JUMPI PUSH1 0x40 MLOAD PUSH3 0x461BCD PUSH1 0xE5 SHL DUP2 MSTORE PUSH1 0x20 PUSH1 0x4 DUP3 ADD MSTORE PUSH1 0x26 PUSH1 0x24 DUP3 ADD MSTORE PUSH32 0x4F776E61626C653A206E6577206F776E657220697320746865207A65726F2061 PUSH1 0x44 DUP3 ADD MSTORE PUSH6 0x646472657373 PUSH1 0xD0 SHL PUSH1 0x64 DUP3 ADD MSTORE PUSH1 0x84 ADD PUSH2 0x62E JUMP JUMPDEST PUSH1 0x0 DUP1 SLOAD PUSH1 0x40 MLOAD PUSH1 0x1 PUSH1 0x1 PUSH1 0xA0 SHL SUB DUP1 DUP6 AND SWAP4 SWAP3 AND SWAP2 PUSH32 0x8BE0079C531659141344CD1FD0A4F28419497F9722A3DAAFE3B4186F6B6457E0 SWAP2 LOG3 PUSH1 0x0 DUP1 SLOAD PUSH1 0x1 PUSH1 0x1 PUSH1 0xA0 SHL SUB NOT AND PUSH1 0x1 PUSH1 0x1 PUSH1 0xA0 SHL SUB SWAP3 SWAP1 SWAP3 AND SWAP2 SWAP1 SWAP2 OR SWAP1 SSTORE JUMP JUMPDEST PUSH1 0x0 PUSH2 0x21CC DUP4 DUP4 PUSH1 0x40 MLOAD DUP1 PUSH1 0x40 ADD PUSH1 0x40 MSTORE DUP1 PUSH1 0x1E DUP2 MSTORE PUSH1 0x20 ADD PUSH32 0x536166654D6174683A207375627472616374696F6E206F766572666C6F770000 DUP2 MSTORE POP PUSH2 0x2654 JUMP JUMPDEST SWAP4 SWAP3 POP POP POP JUMP JUMPDEST PUSH1 0x0 DUP1 DUP5 PUSH1 0x1 PUSH1 0x1 PUSH1 0xA0 SHL SUB AND PUSH4 0x95EA7B3 DUP6 DUP6 PUSH1 0x40 MLOAD PUSH1 0x24 ADD PUSH2 0x21F8 SWAP3 SWAP2 SWAP1 PUSH2 0x2A14 JUMP JUMPDEST PUSH1 0x40 MLOAD PUSH1 0x20 DUP2 DUP4 SUB SUB DUP2 MSTORE SWAP1 PUSH1 0x40 MSTORE SWAP1 PUSH1 0xE0 SHL PUSH1 0x20 DUP3 ADD DUP1 MLOAD PUSH1 0x1 PUSH1 0x1 PUSH1 0xE0 SHL SUB DUP4 DUP2 DUP4 AND OR DUP4 MSTORE POP POP POP POP PUSH1 0x40 MLOAD PUSH2 0x2231 SWAP2 SWAP1 PUSH2 0x2B55 JUMP JUMPDEST PUSH1 0x0 PUSH1 0x40 MLOAD DUP1 DUP4 SUB DUP2 PUSH1 0x0 DUP7 GAS CALL SWAP2 POP POP RETURNDATASIZE DUP1 PUSH1 0x0 DUP2 EQ PUSH2 0x226E JUMPI PUSH1 0x40 MLOAD SWAP2 POP PUSH1 0x1F NOT PUSH1 0x3F RETURNDATASIZE ADD AND DUP3 ADD PUSH1 0x40 MSTORE RETURNDATASIZE DUP3 MSTORE RETURNDATASIZE PUSH1 0x0 PUSH1 0x20 DUP5 ADD RETURNDATACOPY PUSH2 0x2273 JUMP JUMPDEST PUSH1 0x60 SWAP2 POP JUMPDEST POP SWAP2 POP SWAP2 POP DUP2 DUP1 ISZERO PUSH2 0x229D JUMPI POP DUP1 MLOAD ISZERO DUP1 PUSH2 0x229D JUMPI POP DUP1 DUP1 PUSH1 0x20 ADD SWAP1 MLOAD DUP2 ADD SWAP1 PUSH2 0x229D SWAP2 SWAP1 PUSH2 0x2B08 JUMP JUMPDEST PUSH2 0x22E9 JUMPI PUSH1 0x40 MLOAD PUSH3 0x461BCD PUSH1 0xE5 SHL DUP2 MSTORE PUSH1 0x20 PUSH1 0x4 DUP3 ADD MSTORE PUSH1 0x1E PUSH1 0x24 DUP3 ADD MSTORE PUSH32 0x5472616E7366657248656C7065723A20415050524F56455F4641494C45440000 PUSH1 0x44 DUP3 ADD MSTORE PUSH1 0x64 ADD PUSH2 0x62E JUMP JUMPDEST POP POP POP POP POP JUMP JUMPDEST PUSH1 0x0 DUP1 DUP5 PUSH1 0x1 PUSH1 0x1 PUSH1 0xA0 SHL SUB AND PUSH4 0xA9059CBB DUP6 DUP6 PUSH1 0x40 MLOAD PUSH1 0x24 ADD PUSH2 0x2315 SWAP3 SWAP2 SWAP1 PUSH2 0x2A14 JUMP JUMPDEST PUSH1 0x40 MLOAD PUSH1 0x20 DUP2 DUP4 SUB SUB DUP2 MSTORE SWAP1 PUSH1 0x40 MSTORE SWAP1 PUSH1 0xE0 SHL PUSH1 0x20 DUP3 ADD DUP1 MLOAD PUSH1 0x1 PUSH1 0x1 PUSH1 0xE0 SHL SUB DUP4 DUP2 DUP4 AND OR DUP4 MSTORE POP POP POP POP PUSH1 0x40 MLOAD PUSH2 0x234E SWAP2 SWAP1 PUSH2 0x2B55 JUMP JUMPDEST PUSH1 0x0 PUSH1 0x40 MLOAD DUP1 DUP4 SUB DUP2 PUSH1 0x0 DUP7 GAS CALL SWAP2 POP POP RETURNDATASIZE DUP1 PUSH1 0x0 DUP2 EQ PUSH2 0x238B JUMPI PUSH1 0x40 MLOAD SWAP2 POP PUSH1 0x1F NOT PUSH1 0x3F RETURNDATASIZE ADD AND DUP3 ADD PUSH1 0x40 MSTORE RETURNDATASIZE DUP3 MSTORE RETURNDATASIZE PUSH1 0x0 PUSH1 0x20 DUP5 ADD RETURNDATACOPY PUSH2 0x2390 JUMP JUMPDEST PUSH1 0x60 SWAP2 POP JUMPDEST POP SWAP2 POP SWAP2 POP DUP2 DUP1 ISZERO PUSH2 0x23BA JUMPI POP DUP1 MLOAD ISZERO DUP1 PUSH2 0x23BA JUMPI POP DUP1 DUP1 PUSH1 0x20 ADD SWAP1 MLOAD DUP2 ADD SWAP1 PUSH2 0x23BA SWAP2 SWAP1 PUSH2 0x2B08 JUMP JUMPDEST PUSH2 0x22E9 JUMPI PUSH1 0x40 MLOAD PUSH3 0x461BCD PUSH1 0xE5 SHL DUP2 MSTORE PUSH1 0x20 PUSH1 0x4 DUP3 ADD MSTORE PUSH1 0x1F PUSH1 0x24 DUP3 ADD MSTORE PUSH32 0x5472616E7366657248656C7065723A205452414E534645525F4641494C454400 PUSH1 0x44 DUP3 ADD MSTORE PUSH1 0x64 ADD PUSH2 0x62E JUMP JUMPDEST PUSH1 0x0 DUP3 PUSH1 0x0 SUB PUSH2 0x2418 JUMPI POP PUSH1 0x0 PUSH2 0x5FE JUMP JUMPDEST PUSH1 0x0 PUSH2 0x2424 DUP4 DUP6 PUSH2 0x2B71 JUMP JUMPDEST SWAP1 POP DUP3 PUSH2 0x2431 DUP6 DUP4 PUSH2 0x2B90 JUMP JUMPDEST EQ PUSH2 0x21CC JUMPI PUSH1 0x40 MLOAD PUSH3 0x461BCD PUSH1 0xE5 SHL DUP2 MSTORE PUSH1 0x20 PUSH1 0x4 DUP3 ADD MSTORE PUSH1 0x21 PUSH1 0x24 DUP3 ADD MSTORE PUSH32 0x536166654D6174683A206D756C7469706C69636174696F6E206F766572666C6F PUSH1 0x44 DUP3 ADD MSTORE PUSH1 0x77 PUSH1 0xF8 SHL PUSH1 0x64 DUP3 ADD MSTORE PUSH1 0x84 ADD PUSH2 0x62E JUMP JUMPDEST PUSH1 0x0 PUSH2 0x21CC DUP4 DUP4 PUSH1 0x40 MLOAD DUP1 PUSH1 0x40 ADD PUSH1 0x40 MSTORE DUP1 PUSH1 0x1A DUP2 MSTORE PUSH1 0x20 ADD PUSH26 0x536166654D6174683A206469766973696F6E206279207A65726F PUSH1 0x30 SHL DUP2 MSTORE POP PUSH2 0x268E JUMP JUMPDEST PUSH1 0x40 DUP1 MLOAD PUSH1 0x1 PUSH1 0x1 PUSH1 0xA0 SHL SUB DUP6 DUP2 AND PUSH1 0x24 DUP4 ADD MSTORE DUP5 DUP2 AND PUSH1 0x44 DUP4 ADD MSTORE PUSH1 0x64 DUP1 DUP4 ADD DUP6 SWAP1 MSTORE DUP4 MLOAD DUP1 DUP5 SUB SWAP1 SWAP2 ADD DUP2 MSTORE PUSH1 0x84 SWAP1 SWAP3 ADD DUP4 MSTORE PUSH1 0x20 DUP3 ADD DUP1 MLOAD PUSH1 0x1 PUSH1 0x1 PUSH1 0xE0 SHL SUB AND PUSH4 0x23B872DD PUSH1 0xE0 SHL OR SWAP1 MSTORE SWAP2 MLOAD PUSH1 0x0 SWAP3 DUP4 SWAP3 SWAP1 DUP9 AND SWAP2 PUSH2 0x252B SWAP2 SWAP1 PUSH2 0x2B55 JUMP JUMPDEST PUSH1 0x0 PUSH1 0x40 MLOAD DUP1 DUP4 SUB DUP2 PUSH1 0x0 DUP7 GAS CALL SWAP2 POP POP RETURNDATASIZE DUP1 PUSH1 0x0 DUP2 EQ PUSH2 0x2568 JUMPI PUSH1 0x40 MLOAD SWAP2 POP PUSH1 0x1F NOT PUSH1 0x3F RETURNDATASIZE ADD AND DUP3 ADD PUSH1 0x40 MSTORE RETURNDATASIZE DUP3 MSTORE RETURNDATASIZE PUSH1 0x0 PUSH1 0x20 DUP5 ADD RETURNDATACOPY PUSH2 0x256D JUMP JUMPDEST PUSH1 0x60 SWAP2 POP JUMPDEST POP SWAP2 POP SWAP2 POP DUP2 DUP1 ISZERO PUSH2 0x2597 JUMPI POP DUP1 MLOAD ISZERO DUP1 PUSH2 0x2597 JUMPI POP DUP1 DUP1 PUSH1 0x20 ADD SWAP1 MLOAD DUP2 ADD SWAP1 PUSH2 0x2597 SWAP2 SWAP1 PUSH2 0x2B08 JUMP JUMPDEST PUSH2 0x25EF JUMPI PUSH1 0x40 MLOAD PUSH3 0x461BCD PUSH1 0xE5 SHL DUP2 MSTORE PUSH1 0x20 PUSH1 0x4 DUP3 ADD MSTORE PUSH1 0x24 DUP1 DUP3 ADD MSTORE PUSH32 0x5472616E7366657248656C7065723A205452414E534645525F46524F4D5F4641 PUSH1 0x44 DUP3 ADD MSTORE PUSH4 0x12531151 PUSH1 0xE2 SHL PUSH1 0x64 DUP3 ADD MSTORE PUSH1 0x84 ADD PUSH2 0x62E JUMP JUMPDEST POP POP POP POP POP POP JUMP JUMPDEST PUSH1 0x0 DUP1 PUSH2 0x2604 DUP4 DUP6 PUSH2 0x2AA2 JUMP JUMPDEST SWAP1 POP DUP4 DUP2 LT ISZERO PUSH2 0x21CC JUMPI PUSH1 0x40 MLOAD PUSH3 0x461BCD PUSH1 0xE5 SHL DUP2 MSTORE PUSH1 0x20 PUSH1 0x4 DUP3 ADD MSTORE PUSH1 0x1B PUSH1 0x24 DUP3 ADD MSTORE PUSH27 0x536166654D6174683A206164646974696F6E206F766572666C6F77 PUSH1 0x28 SHL PUSH1 0x44 DUP3 ADD MSTORE PUSH1 0x64 ADD PUSH2 0x62E JUMP JUMPDEST PUSH1 0x0 DUP2 DUP5 DUP5 GT ISZERO PUSH2 0x2678 JUMPI PUSH1 0x40 MLOAD PUSH3 0x461BCD PUSH1 0xE5 SHL DUP2 MSTORE PUSH1 0x4 ADD PUSH2 0x62E SWAP2 SWAP1 PUSH2 0x2BB2 JUMP JUMPDEST POP PUSH1 0x0 PUSH2 0x2685 DUP5 DUP7 PUSH2 0x29E7 JUMP JUMPDEST SWAP6 SWAP5 POP POP POP POP POP JUMP JUMPDEST PUSH1 0x0 DUP2 DUP4 PUSH2 0x26AF JUMPI PUSH1 0x40 MLOAD PUSH3 0x461BCD PUSH1 0xE5 SHL DUP2 MSTORE PUSH1 0x4 ADD PUSH2 0x62E SWAP2 SWAP1 PUSH2 0x2BB2 JUMP JUMPDEST POP PUSH1 0x0 PUSH2 0x2685 DUP5 DUP7 PUSH2 0x2B90 JUMP JUMPDEST PUSH1 0x40 MLOAD DUP1 PUSH1 0xC0 ADD PUSH1 0x40 MSTORE DUP1 PUSH1 0x0 DUP2 MSTORE PUSH1 0x20 ADD PUSH1 0x0 DUP2 MSTORE PUSH1 0x20 ADD PUSH1 0x0 DUP2 MSTORE PUSH1 0x20 ADD PUSH1 0x0 DUP2 MSTORE PUSH1 0x20 ADD PUSH1 0x0 DUP2 MSTORE PUSH1 0x20 ADD PUSH1 0x0 PUSH1 0x1 PUSH1 0x1 PUSH1 0xA0 SHL SUB AND DUP2 MSTORE POP SWAP1 JUMP JUMPDEST PUSH1 0x1 PUSH1 0x1 PUSH1 0xA0 SHL SUB DUP2 AND DUP2 EQ PUSH2 0x2710 JUMPI PUSH1 0x0 DUP1 REVERT JUMPDEST POP JUMP JUMPDEST PUSH1 0x0 DUP1 PUSH1 0x40 DUP4 DUP6 SUB SLT ISZERO PUSH2 0x2726 JUMPI PUSH1 0x0 DUP1 REVERT JUMPDEST DUP3 CALLDATALOAD PUSH2 0x2731 DUP2 PUSH2 0x26FB JUMP JUMPDEST SWAP5 PUSH1 0x20 SWAP4 SWAP1 SWAP4 ADD CALLDATALOAD SWAP4 POP POP POP JUMP JUMPDEST PUSH1 0x0 PUSH1 0x20 DUP3 DUP5 SUB SLT ISZERO PUSH2 0x2751 JUMPI PUSH1 0x0 DUP1 REVERT JUMPDEST DUP2 CALLDATALOAD PUSH2 0x21CC DUP2 PUSH2 0x26FB JUMP JUMPDEST PUSH1 0x0 DUP1 PUSH1 0x0 DUP1 PUSH1 0x80 DUP6 DUP8 SUB SLT ISZERO PUSH2 0x2772 JUMPI PUSH1 0x0 DUP1 REVERT JUMPDEST DUP5 CALLDATALOAD PUSH2 0x277D DUP2 PUSH2 0x26FB JUMP JUMPDEST SWAP7 PUSH1 0x20 DUP7 ADD CALLDATALOAD SWAP7 POP PUSH1 0x40 DUP7 ADD CALLDATALOAD SWAP6 PUSH1 0x60 ADD CALLDATALOAD SWAP5 POP SWAP3 POP POP POP JUMP JUMPDEST PUSH1 0x0 DUP1 PUSH1 0x0 DUP1 PUSH1 0x80 DUP6 DUP8 SUB SLT ISZERO PUSH2 0x27AD JUMPI PUSH1 0x0 DUP1 REVERT JUMPDEST POP POP DUP3 CALLDATALOAD SWAP5 PUSH1 0x20 DUP5 ADD CALLDATALOAD SWAP5 POP PUSH1 0x40 DUP5 ADD CALLDATALOAD SWAP4 PUSH1 0x60 ADD CALLDATALOAD SWAP3 POP SWAP1 POP JUMP JUMPDEST DUP1 ISZERO ISZERO DUP2 EQ PUSH2 0x2710 JUMPI PUSH1 0x0 DUP1 REVERT JUMPDEST PUSH1 0x0 DUP1 PUSH1 0x40 DUP4 DUP6 SUB SLT ISZERO PUSH2 0x27EA JUMPI PUSH1 0x0 DUP1 REVERT JUMPDEST DUP3 CALLDATALOAD PUSH2 0x27F5 DUP2 PUSH2 0x26FB JUMP JUMPDEST SWAP2 POP PUSH1 0x20 DUP4 ADD CALLDATALOAD PUSH2 0x2805 DUP2 PUSH2 0x27C9 JUMP JUMPDEST DUP1 SWAP2 POP POP SWAP3 POP SWAP3 SWAP1 POP JUMP JUMPDEST PUSH1 0x0 DUP1 PUSH1 0x0 DUP1 PUSH1 0x0 PUSH1 0xA0 DUP7 DUP9 SUB SLT ISZERO PUSH2 0x2828 JUMPI PUSH1 0x0 DUP1 REVERT JUMPDEST DUP6 CALLDATALOAD PUSH2 0x2833 DUP2 PUSH2 0x26FB JUMP JUMPDEST SWAP5 POP PUSH1 0x20 DUP7 ADD CALLDATALOAD SWAP4 POP PUSH1 0x40 DUP7 ADD CALLDATALOAD SWAP3 POP PUSH1 0x60 DUP7 ADD CALLDATALOAD PUSH2 0x2851 DUP2 PUSH2 0x27C9 JUMP JUMPDEST SWAP2 POP PUSH1 0x80 DUP7 ADD CALLDATALOAD PUSH2 0x2861 DUP2 PUSH2 0x26FB JUMP JUMPDEST DUP1 SWAP2 POP POP SWAP3 SWAP6 POP SWAP3 SWAP6 SWAP1 SWAP4 POP JUMP JUMPDEST PUSH1 0x0 DUP1 PUSH1 0x40 DUP4 DUP6 SUB SLT ISZERO PUSH2 0x2882 JUMPI PUSH1 0x0 DUP1 REVERT JUMPDEST DUP3 CALLDATALOAD PUSH2 0x288D DUP2 PUSH2 0x26FB JUMP JUMPDEST SWAP2 POP PUSH1 0x20 DUP4 ADD CALLDATALOAD PUSH2 0x2805 DUP2 PUSH2 0x26FB JUMP JUMPDEST PUSH1 0x0 DUP1 PUSH1 0x0 DUP1 PUSH1 0x80 DUP6 DUP8 SUB SLT ISZERO PUSH2 0x28B3 JUMPI PUSH1 0x0 DUP1 REVERT JUMPDEST DUP5 CALLDATALOAD PUSH2 0x28BE DUP2 PUSH2 0x26FB JUMP JUMPDEST SWAP4 POP PUSH1 0x20 DUP6 ADD CALLDATALOAD SWAP3 POP PUSH1 0x40 DUP6 ADD CALLDATALOAD SWAP2 POP PUSH1 0x60 DUP6 ADD CALLDATALOAD PUSH2 0x28DC DUP2 PUSH2 0x26FB JUMP JUMPDEST SWAP4 SWAP7 SWAP3 SWAP6 POP SWAP1 SWAP4 POP POP JUMP JUMPDEST PUSH1 0x0 DUP1 PUSH1 0x0 PUSH1 0x60 DUP5 DUP7 SUB SLT ISZERO PUSH2 0x28FC JUMPI PUSH1 0x0 DUP1 REVERT JUMPDEST DUP4 CALLDATALOAD PUSH2 0x2907 DUP2 PUSH2 0x26FB JUMP JUMPDEST SWAP3 POP PUSH1 0x20 DUP5 ADD CALLDATALOAD PUSH2 0x2917 DUP2 PUSH2 0x26FB JUMP JUMPDEST SWAP3 SWAP6 SWAP3 SWAP5 POP POP POP PUSH1 0x40 SWAP2 SWAP1 SWAP2 ADD CALLDATALOAD SWAP1 JUMP JUMPDEST PUSH4 0x4E487B71 PUSH1 0xE0 SHL PUSH1 0x0 MSTORE PUSH1 0x32 PUSH1 0x4 MSTORE PUSH1 0x24 PUSH1 0x0 REVERT JUMPDEST PUSH1 0x20 DUP1 DUP3 MSTORE DUP2 DUP2 ADD MSTORE PUSH32 0x4F776E61626C653A2063616C6C6572206973206E6F7420746865206F776E6572 PUSH1 0x40 DUP3 ADD MSTORE PUSH1 0x60 ADD SWAP1 JUMP JUMPDEST PUSH1 0x20 DUP1 DUP3 MSTORE PUSH1 0x1F SWAP1 DUP3 ADD MSTORE PUSH32 0x5265656E7472616E637947756172643A207265656E7472616E742063616C6C00 PUSH1 0x40 DUP3 ADD MSTORE PUSH1 0x60 ADD SWAP1 JUMP JUMPDEST PUSH1 0x20 DUP1 DUP3 MSTORE PUSH1 0xD SWAP1 DUP3 ADD MSTORE PUSH13 0x989E8696409A92A69A82A8869 PUSH1 0x9B SHL PUSH1 0x40 DUP3 ADD MSTORE PUSH1 0x60 ADD SWAP1 JUMP JUMPDEST PUSH4 0x4E487B71 PUSH1 0xE0 SHL PUSH1 0x0 MSTORE PUSH1 0x11 PUSH1 0x4 MSTORE PUSH1 0x24 PUSH1 0x0 REVERT JUMPDEST PUSH1 0x0 DUP3 DUP3 LT ISZERO PUSH2 0x29F9 JUMPI PUSH2 0x29F9 PUSH2 0x29D1 JUMP JUMPDEST POP SUB SWAP1 JUMP JUMPDEST PUSH4 0x4E487B71 PUSH1 0xE0 SHL PUSH1 0x0 MSTORE PUSH1 0x31 PUSH1 0x4 MSTORE PUSH1 0x24 PUSH1 0x0 REVERT JUMPDEST PUSH1 0x1 PUSH1 0x1 PUSH1 0xA0 SHL SUB SWAP3 SWAP1 SWAP3 AND DUP3 MSTORE PUSH1 0x20 DUP3 ADD MSTORE PUSH1 0x40 ADD SWAP1 JUMP JUMPDEST PUSH1 0x20 DUP1 DUP3 MSTORE PUSH1 0xB SWAP1 DUP3 ADD MSTORE PUSH11 0x16915493C8105353D55395 PUSH1 0xAA SHL PUSH1 0x40 DUP3 ADD MSTORE PUSH1 0x60 ADD SWAP1 JUMP JUMPDEST PUSH1 0x20 DUP1 DUP3 MSTORE PUSH1 0xB SWAP1 DUP3 ADD MSTORE PUSH11 0x119151481393D508135155 PUSH1 0xAA SHL PUSH1 0x40 DUP3 ADD MSTORE PUSH1 0x60 ADD SWAP1 JUMP JUMPDEST PUSH1 0x20 DUP1 DUP3 MSTORE PUSH1 0x11 SWAP1 DUP3 ADD MSTORE PUSH17 0x1512535154D51053540812539590531251 PUSH1 0x7A SHL PUSH1 0x40 DUP3 ADD MSTORE PUSH1 0x60 ADD SWAP1 JUMP JUMPDEST PUSH1 0x0 DUP3 NOT DUP3 GT ISZERO PUSH2 0x2AB5 JUMPI PUSH2 0x2AB5 PUSH2 0x29D1 JUMP JUMPDEST POP ADD SWAP1 JUMP JUMPDEST PUSH1 0x0 PUSH1 0x20 DUP3 DUP5 SUB SLT ISZERO PUSH2 0x2ACC JUMPI PUSH1 0x0 DUP1 REVERT JUMPDEST DUP2 MLOAD PUSH2 0x21CC DUP2 PUSH2 0x26FB JUMP JUMPDEST PUSH1 0x1 PUSH1 0x1 PUSH1 0xA0 SHL SUB SWAP6 DUP7 AND DUP2 MSTORE SWAP4 SWAP1 SWAP5 AND PUSH1 0x20 DUP5 ADD MSTORE PUSH1 0x40 DUP4 ADD SWAP2 SWAP1 SWAP2 MSTORE PUSH1 0x60 DUP3 ADD MSTORE PUSH1 0x80 DUP2 ADD SWAP2 SWAP1 SWAP2 MSTORE PUSH1 0xA0 ADD SWAP1 JUMP JUMPDEST PUSH1 0x0 PUSH1 0x20 DUP3 DUP5 SUB SLT ISZERO PUSH2 0x2B1A JUMPI PUSH1 0x0 DUP1 REVERT JUMPDEST DUP2 MLOAD PUSH2 0x21CC DUP2 PUSH2 0x27C9 JUMP JUMPDEST PUSH1 0x0 JUMPDEST DUP4 DUP2 LT ISZERO PUSH2 0x2B40 JUMPI DUP2 DUP2 ADD MLOAD DUP4 DUP3 ADD MSTORE PUSH1 0x20 ADD PUSH2 0x2B28 JUMP JUMPDEST DUP4 DUP2 GT ISZERO PUSH2 0x2B4F JUMPI PUSH1 0x0 DUP5 DUP5 ADD MSTORE JUMPDEST POP POP POP POP JUMP JUMPDEST PUSH1 0x0 DUP3 MLOAD PUSH2 0x2B67 DUP2 DUP5 PUSH1 0x20 DUP8 ADD PUSH2 0x2B25 JUMP JUMPDEST SWAP2 SWAP1 SWAP2 ADD SWAP3 SWAP2 POP POP JUMP JUMPDEST PUSH1 0x0 DUP2 PUSH1 0x0 NOT DIV DUP4 GT DUP3 ISZERO ISZERO AND ISZERO PUSH2 0x2B8B JUMPI PUSH2 0x2B8B PUSH2 0x29D1 JUMP JUMPDEST POP MUL SWAP1 JUMP JUMPDEST PUSH1 0x0 DUP3 PUSH2 0x2BAD JUMPI PUSH4 0x4E487B71 PUSH1 0xE0 SHL PUSH1 0x0 MSTORE PUSH1 0x12 PUSH1 0x4 MSTORE PUSH1 0x24 PUSH1 0x0 REVERT JUMPDEST POP DIV SWAP1 JUMP JUMPDEST PUSH1 0x20 DUP2 MSTORE PUSH1 0x0 DUP3 MLOAD DUP1 PUSH1 0x20 DUP5 ADD MSTORE PUSH2 0x2BD1 DUP2 PUSH1 0x40 DUP6 ADD PUSH1 0x20 DUP8 ADD PUSH2 0x2B25 JUMP JUMPDEST PUSH1 0x1F ADD PUSH1 0x1F NOT AND SWAP2 SWAP1 SWAP2 ADD PUSH1 0x40 ADD SWAP3 SWAP2 POP POP JUMP INVALID LOG2 PUSH5 0x6970667358 0x22 SLT KECCAK256 0x29 BALANCE 0xB7 PUSH15 0x34E0A63884E078781EEA603731E604 0xF6 BALANCE DUP2 0xC0 DUP9 0xA5 PUSH5 0x99E80E7139 PUSH23 0x64736F6C634300080D0033000000000000000000000000 "
				},
				"gasEstimates": {
					"creation": {
						"codeDepositCost": "2258200",
						"executionCost": "infinite",
						"totalCost": "infinite"
					},
					"external": {
						"BlocklistStatus(address)": "2676",
						"WhitelistStatus(address)": "2610",
						"blocklistAccount(address,bool)": "infinite",
						"gFees()": "10880",
						"getLockedTokenAtIndex(address,uint256)": "4806",
						"getNumLockedTokens()": "2603",
						"getNumLocksForToken(address)": "2554",
						"getUserLockForTokenAtIndex(address,address,uint256)": "infinite",
						"getUserLockedTokenAtIndex(address,uint256)": "11356",
						"getUserNumLockedTokens(address)": "2641",
						"getUserNumLocksForToken(address,address)": "infinite",
						"incrementLock(address,uint256,uint256,uint256)": "infinite",
						"lockLPToken(address,uint256,uint256,bool,address)": "infinite",
						"migrate(address,uint256,uint256,uint256)": "infinite",
						"owner()": "2320",
						"relock(address,uint256,uint256,uint256)": "infinite",
						"renounceOwnership()": "30386",
						"setFees(uint256,uint256,uint256,uint256)": "91050",
						"setMigrator(address)": "26750",
						"setOps(address)": "26860",
						"setSecondaryFeeToken(address)": "26970",
						"splitLock(address,uint256,uint256,uint256)": "infinite",
						"tokenLocks(address,uint256)": "15671",
						"transferLockOwnership(address,uint256,uint256,address)": "infinite",
						"transferOwnership(address)": "30680",
						"uniswapFactory()": "2613",
						"whitelistFeeAccount(address,bool)": "infinite",
						"withdraw(address,uint256,uint256,uint256)": "infinite"
					}
				},
				"methodIdentifiers": {
					"BlocklistStatus(address)": "5a4ddd17",
					"WhitelistStatus(address)": "34ddbfe9",
					"blocklistAccount(address,bool)": "b1cb89a3",
					"gFees()": "90e1a003",
					"getLockedTokenAtIndex(address,uint256)": "1f0b8a0d",
					"getNumLockedTokens()": "783451e8",
					"getNumLocksForToken(address)": "1f2a1d2f",
					"getUserLockForTokenAtIndex(address,address,uint256)": "d4ff493f",
					"getUserLockedTokenAtIndex(address,uint256)": "903df806",
					"getUserNumLockedTokens(address)": "a3969815",
					"getUserNumLocksForToken(address,address)": "a69d9c4f",
					"incrementLock(address,uint256,uint256,uint256)": "a9b07cea",
					"lockLPToken(address,uint256,uint256,bool,address)": "974f9626",
					"migrate(address,uint256,uint256,uint256)": "ee424278",
					"owner()": "8da5cb5b",
					"relock(address,uint256,uint256,uint256)": "60491d24",
					"renounceOwnership()": "715018a6",
					"setFees(uint256,uint256,uint256,uint256)": "6fcba377",
					"setMigrator(address)": "23cf3118",
					"setOps(address)": "5c7e9db8",
					"setSecondaryFeeToken(address)": "8931a4be",
					"splitLock(address,uint256,uint256,uint256)": "582d5adc",
					"tokenLocks(address,uint256)": "ccebfa3f",
					"transferLockOwnership(address,uint256,uint256,address)": "bef497fd",
					"transferOwnership(address)": "f2fde38b",
					"uniswapFactory()": "8bdb2afa",
					"whitelistFeeAccount(address,bool)": "91ff1eb1",
					"withdraw(address,uint256,uint256,uint256)": "4532d776"
				}
			},
			"storageLayout": {
				"storage": [
					{
						"astId": 30,
						"contract": "contracts/test/Locker.sol:UniswapV2Locker",
						"label": "_owner",
						"offset": 0,
						"slot": "0",
						"type": "t_address"
					},
					{
						"astId": 273,
						"contract": "contracts/test/Locker.sol:UniswapV2Locker",
						"label": "_status",
						"offset": 0,
						"slot": "1",
						"type": "t_uint256"
					},
					{
						"astId": 577,
						"contract": "contracts/test/Locker.sol:UniswapV2Locker",
						"label": "uniswapFactory",
						"offset": 0,
						"slot": "2",
						"type": "t_contract(IUniFactory)553"
					},
					{
						"astId": 604,
						"contract": "contracts/test/Locker.sol:UniswapV2Locker",
						"label": "users",
						"offset": 0,
						"slot": "3",
						"type": "t_mapping(t_address,t_struct(UserInfo)586_storage)"
					},
					{
						"astId": 610,
						"contract": "contracts/test/Locker.sol:UniswapV2Locker",
						"label": "tokenLocks",
						"offset": 0,
						"slot": "4",
						"type": "t_mapping(t_address,t_array(t_struct(TokenLock)599_storage)dyn_storage)"
					},
					{
						"astId": 625,
						"contract": "contracts/test/Locker.sol:UniswapV2Locker",
						"label": "gFees",
						"offset": 0,
						"slot": "5",
						"type": "t_struct(FeeStruct)622_storage"
					},
					{
						"astId": 629,
						"contract": "contracts/test/Locker.sol:UniswapV2Locker",
						"label": "feeWhitelist",
						"offset": 0,
						"slot": "10",
						"type": "t_mapping(t_address,t_bool)"
					},
					{
						"astId": 633,
						"contract": "contracts/test/Locker.sol:UniswapV2Locker",
						"label": "feeBlocklist",
						"offset": 0,
						"slot": "11",
						"type": "t_mapping(t_address,t_bool)"
					},
					{
						"astId": 637,
						"contract": "contracts/test/Locker.sol:UniswapV2Locker",
						"label": "user_removed",
						"offset": 0,
						"slot": "12",
						"type": "t_mapping(t_address,t_bool)"
					},
					{
						"astId": 639,
						"contract": "contracts/test/Locker.sol:UniswapV2Locker",
						"label": "ops",
						"offset": 0,
						"slot": "13",
						"type": "t_address_payable"
					},
					{
						"astId": 642,
						"contract": "contracts/test/Locker.sol:UniswapV2Locker",
						"label": "migrator",
						"offset": 0,
						"slot": "14",
						"type": "t_contract(IMigrator)567"
					}
				],
				"types": {
					"t_address": {
						"encoding": "inplace",
						"label": "address",
						"numberOfBytes": "20"
					},
					"t_address_payable": {
						"encoding": "inplace",
						"label": "address payable",
						"numberOfBytes": "20"
					},
					"t_array(t_address_payable)dyn_storage": {
						"base": "t_address_payable",
						"encoding": "dynamic_array",
						"label": "address payable[]",
						"numberOfBytes": "32"
					},
					"t_array(t_struct(TokenLock)599_storage)dyn_storage": {
						"base": "t_struct(TokenLock)599_storage",
						"encoding": "dynamic_array",
						"label": "struct UniswapV2Locker.TokenLock[]",
						"numberOfBytes": "32"
					},
					"t_array(t_uint256)dyn_storage": {
						"base": "t_uint256",
						"encoding": "dynamic_array",
						"label": "uint256[]",
						"numberOfBytes": "32"
					},
					"t_bool": {
						"encoding": "inplace",
						"label": "bool",
						"numberOfBytes": "1"
					},
					"t_contract(IERCBurn)543": {
						"encoding": "inplace",
						"label": "contract IERCBurn",
						"numberOfBytes": "20"
					},
					"t_contract(IMigrator)567": {
						"encoding": "inplace",
						"label": "contract IMigrator",
						"numberOfBytes": "20"
					},
					"t_contract(IUniFactory)553": {
						"encoding": "inplace",
						"label": "contract IUniFactory",
						"numberOfBytes": "20"
					},
					"t_mapping(t_address,t_array(t_struct(TokenLock)599_storage)dyn_storage)": {
						"encoding": "mapping",
						"key": "t_address",
						"label": "mapping(address => struct UniswapV2Locker.TokenLock[])",
						"numberOfBytes": "32",
						"value": "t_array(t_struct(TokenLock)599_storage)dyn_storage"
					},
					"t_mapping(t_address,t_array(t_uint256)dyn_storage)": {
						"encoding": "mapping",
						"key": "t_address",
						"label": "mapping(address => uint256[])",
						"numberOfBytes": "32",
						"value": "t_array(t_uint256)dyn_storage"
					},
					"t_mapping(t_address,t_bool)": {
						"encoding": "mapping",
						"key": "t_address",
						"label": "mapping(address => bool)",
						"numberOfBytes": "32",
						"value": "t_bool"
					},
					"t_mapping(t_address,t_struct(UserInfo)586_storage)": {
						"encoding": "mapping",
						"key": "t_address",
						"label": "mapping(address => struct UniswapV2Locker.UserInfo)",
						"numberOfBytes": "32",
						"value": "t_struct(UserInfo)586_storage"
					},
					"t_struct(FeeStruct)622_storage": {
						"encoding": "inplace",
						"label": "struct UniswapV2Locker.FeeStruct",
						"members": [
							{
								"astId": 612,
								"contract": "contracts/test/Locker.sol:UniswapV2Locker",
								"label": "ethFee",
								"offset": 0,
								"slot": "0",
								"type": "t_uint256"
							},
							{
								"astId": 615,
								"contract": "contracts/test/Locker.sol:UniswapV2Locker",
								"label": "secondaryFeeToken",
								"offset": 0,
								"slot": "1",
								"type": "t_contract(IERCBurn)543"
							},
							{
								"astId": 617,
								"contract": "contracts/test/Locker.sol:UniswapV2Locker",
								"label": "secondaryTokenFee",
								"offset": 0,
								"slot": "2",
								"type": "t_uint256"
							},
							{
								"astId": 619,
								"contract": "contracts/test/Locker.sol:UniswapV2Locker",
								"label": "secondaryTokenDiscount",
								"offset": 0,
								"slot": "3",
								"type": "t_uint256"
							},
							{
								"astId": 621,
								"contract": "contracts/test/Locker.sol:UniswapV2Locker",
								"label": "liquidityFee",
								"offset": 0,
								"slot": "4",
								"type": "t_uint256"
							}
						],
						"numberOfBytes": "160"
					},
					"t_struct(TokenLock)599_storage": {
						"encoding": "inplace",
						"label": "struct UniswapV2Locker.TokenLock",
						"members": [
							{
								"astId": 588,
								"contract": "contracts/test/Locker.sol:UniswapV2Locker",
								"label": "lockDate",
								"offset": 0,
								"slot": "0",
								"type": "t_uint256"
							},
							{
								"astId": 590,
								"contract": "contracts/test/Locker.sol:UniswapV2Locker",
								"label": "amount",
								"offset": 0,
								"slot": "1",
								"type": "t_uint256"
							},
							{
								"astId": 592,
								"contract": "contracts/test/Locker.sol:UniswapV2Locker",
								"label": "initialAmount",
								"offset": 0,
								"slot": "2",
								"type": "t_uint256"
							},
							{
								"astId": 594,
								"contract": "contracts/test/Locker.sol:UniswapV2Locker",
								"label": "unlockDate",
								"offset": 0,
								"slot": "3",
								"type": "t_uint256"
							},
							{
								"astId": 596,
								"contract": "contracts/test/Locker.sol:UniswapV2Locker",
								"label": "lockID",
								"offset": 0,
								"slot": "4",
								"type": "t_uint256"
							},
							{
								"astId": 598,
								"contract": "contracts/test/Locker.sol:UniswapV2Locker",
								"label": "owner",
								"offset": 0,
								"slot": "5",
								"type": "t_address"
							}
						],
						"numberOfBytes": "192"
					},
					"t_struct(UserInfo)586_storage": {
						"encoding": "inplace",
						"label": "struct UniswapV2Locker.UserInfo",
						"members": [
							{
								"astId": 580,
								"contract": "contracts/test/Locker.sol:UniswapV2Locker",
								"label": "lockedTokens",
								"offset": 0,
								"slot": "0",
								"type": "t_array(t_address_payable)dyn_storage"
							},
							{
								"astId": 585,
								"contract": "contracts/test/Locker.sol:UniswapV2Locker",
								"label": "locksForToken",
								"offset": 0,
								"slot": "1",
								"type": "t_mapping(t_address,t_array(t_uint256)dyn_storage)"
							}
						],
						"numberOfBytes": "64"
					},
					"t_uint256": {
						"encoding": "inplace",
						"label": "uint256",
						"numberOfBytes": "32"
					}
				}
			},
			"userdoc": {
				"kind": "user",
				"methods": {
					"blocklistAccount(address,bool)": {
						"notice": "blocklisted accounts are banned"
					},
					"incrementLock(address,uint256,uint256,uint256)": {
						"notice": "increase the amount of tokens per a specific lock, this is preferable to creating a new lock, less fees, and faster loading on our live block explorer"
					},
					"lockLPToken(address,uint256,uint256,bool,address)": {
						"notice": "Creates a new lock"
					},
					"migrate(address,uint256,uint256,uint256)": {
						"notice": "migrates liquidity to uniswap v3"
					},
					"relock(address,uint256,uint256,uint256)": {
						"notice": "extend a lock with a new unlock date, _index and _lockID ensure the correct lock is changed this prevents errors when a user performs multiple tx per block possibly with varying gas prices"
					},
					"setMigrator(address)": {
						"notice": "set the migrator contract which allows locked lp tokens to be migrated to uniswap v3"
					},
					"splitLock(address,uint256,uint256,uint256)": {
						"notice": "split a lock into two seperate locks, useful when a lock is about to expire and youd like to relock a portion and withdraw a smaller portion"
					},
					"transferLockOwnership(address,uint256,uint256,address)": {
						"notice": "transfer a lock to a new owner, e.g. presale project -> project owner"
					},
					"whitelistFeeAccount(address,bool)": {
						"notice": "whitelisted accounts dont pay flatrate fees on locking"
					},
					"withdraw(address,uint256,uint256,uint256)": {
						"notice": "withdraw a specified amount from a lock. _index and _lockID ensure the correct lock is changed this prevents errors when a user performs multiple tx per block possibly with varying gas prices"
					}
				},
				"version": 1
			}
		}
	}
}