{
	"contracts/p2p/bridge/ChainB.sol": {
		"iVault_ChainB": {
			"abi": [
				{
					"inputs": [
						{
							"internalType": "address",
							"name": "VF",
							"type": "address"
						}
					],
					"stateMutability": "payable",
					"type": "constructor"
				},
				{
					"anonymous": false,
					"inputs": [
						{
							"indexed": true,
							"internalType": "address",
							"name": "src",
							"type": "address"
						},
						{
							"indexed": false,
							"internalType": "uint256",
							"name": "wad",
							"type": "uint256"
						}
					],
					"name": "TokenizeWETH",
					"type": "event"
				},
				{
					"anonymous": false,
					"inputs": [
						{
							"indexed": true,
							"internalType": "address",
							"name": "from",
							"type": "address"
						},
						{
							"indexed": true,
							"internalType": "address",
							"name": "to",
							"type": "address"
						},
						{
							"indexed": false,
							"internalType": "uint256",
							"name": "value",
							"type": "uint256"
						}
					],
					"name": "Transfer",
					"type": "event"
				},
				{
					"anonymous": false,
					"inputs": [
						{
							"indexed": true,
							"internalType": "address",
							"name": "src",
							"type": "address"
						},
						{
							"indexed": true,
							"internalType": "address",
							"name": "token",
							"type": "address"
						},
						{
							"indexed": false,
							"internalType": "uint256",
							"name": "wad",
							"type": "uint256"
						}
					],
					"name": "WithdrawToken",
					"type": "event"
				},
				{
					"anonymous": false,
					"inputs": [
						{
							"indexed": true,
							"internalType": "address",
							"name": "src",
							"type": "address"
						},
						{
							"indexed": false,
							"internalType": "uint256",
							"name": "wad",
							"type": "uint256"
						}
					],
					"name": "Withdrawal",
					"type": "event"
				},
				{
					"stateMutability": "payable",
					"type": "fallback"
				},
				{
					"inputs": [
						{
							"internalType": "address",
							"name": "adr",
							"type": "address"
						}
					],
					"name": "authorize",
					"outputs": [],
					"stateMutability": "nonpayable",
					"type": "function"
				},
				{
					"inputs": [
						{
							"internalType": "uint256",
							"name": "amountKEK",
							"type": "uint256"
						}
					],
					"name": "bridgeKEK",
					"outputs": [
						{
							"internalType": "bool",
							"name": "",
							"type": "bool"
						}
					],
					"stateMutability": "payable",
					"type": "function"
				},
				{
					"inputs": [
						{
							"internalType": "uint256",
							"name": "amountKEK",
							"type": "uint256"
						}
					],
					"name": "bridgeKEK_bulk",
					"outputs": [
						{
							"internalType": "bool",
							"name": "",
							"type": "bool"
						}
					],
					"stateMutability": "payable",
					"type": "function"
				},
				{
					"inputs": [],
					"name": "bridgeMaxAmount",
					"outputs": [
						{
							"internalType": "uint256",
							"name": "",
							"type": "uint256"
						}
					],
					"stateMutability": "view",
					"type": "function"
				},
				{
					"inputs": [
						{
							"internalType": "uint256[]",
							"name": "_amount",
							"type": "uint256[]"
						},
						{
							"internalType": "address[]",
							"name": "_addresses",
							"type": "address[]"
						}
					],
					"name": "bridgeTransferOutBulk",
					"outputs": [
						{
							"internalType": "bool",
							"name": "",
							"type": "bool"
						}
					],
					"stateMutability": "payable",
					"type": "function"
				},
				{
					"inputs": [
						{
							"internalType": "address",
							"name": "_depositor",
							"type": "address"
						},
						{
							"internalType": "uint256",
							"name": "blockNumber",
							"type": "uint256"
						}
					],
					"name": "depositTrace",
					"outputs": [
						{
							"internalType": "uint256",
							"name": "",
							"type": "uint256"
						}
					],
					"stateMutability": "view",
					"type": "function"
				},
				{
					"inputs": [
						{
							"internalType": "address",
							"name": "_depositor",
							"type": "address"
						}
					],
					"name": "depositTracer",
					"outputs": [
						{
							"internalType": "uint256[]",
							"name": "",
							"type": "uint256[]"
						}
					],
					"stateMutability": "view",
					"type": "function"
				},
				{
					"inputs": [],
					"name": "iVF",
					"outputs": [
						{
							"internalType": "address",
							"name": "",
							"type": "address"
						}
					],
					"stateMutability": "view",
					"type": "function"
				},
				{
					"inputs": [],
					"name": "name",
					"outputs": [
						{
							"internalType": "string",
							"name": "",
							"type": "string"
						}
					],
					"stateMutability": "view",
					"type": "function"
				},
				{
					"inputs": [
						{
							"internalType": "address payable",
							"name": "iMov",
							"type": "address"
						}
					],
					"name": "setMoV",
					"outputs": [],
					"stateMutability": "nonpayable",
					"type": "function"
				},
				{
					"inputs": [
						{
							"internalType": "address payable",
							"name": "iKEK",
							"type": "address"
						},
						{
							"internalType": "address payable",
							"name": "iWKEK",
							"type": "address"
						},
						{
							"internalType": "uint256",
							"name": "_m",
							"type": "uint256"
						},
						{
							"internalType": "bool",
							"name": "tFee",
							"type": "bool"
						},
						{
							"internalType": "uint256",
							"name": "txFEE",
							"type": "uint256"
						},
						{
							"internalType": "uint256",
							"name": "bMaxAmt",
							"type": "uint256"
						}
					],
					"name": "setShards",
					"outputs": [],
					"stateMutability": "nonpayable",
					"type": "function"
				},
				{
					"inputs": [],
					"name": "symbol",
					"outputs": [
						{
							"internalType": "string",
							"name": "",
							"type": "string"
						}
					],
					"stateMutability": "view",
					"type": "function"
				},
				{
					"inputs": [],
					"name": "tokenizeWETH",
					"outputs": [],
					"stateMutability": "nonpayable",
					"type": "function"
				},
				{
					"inputs": [
						{
							"internalType": "address",
							"name": "sender",
							"type": "address"
						},
						{
							"internalType": "uint256",
							"name": "amount",
							"type": "uint256"
						},
						{
							"internalType": "address payable",
							"name": "receiver",
							"type": "address"
						}
					],
					"name": "transfer",
					"outputs": [
						{
							"internalType": "bool",
							"name": "",
							"type": "bool"
						}
					],
					"stateMutability": "nonpayable",
					"type": "function"
				},
				{
					"inputs": [
						{
							"internalType": "address",
							"name": "fromAddr",
							"type": "address"
						},
						{
							"internalType": "address",
							"name": "toAddr",
							"type": "address"
						}
					],
					"name": "transferAuthorization",
					"outputs": [
						{
							"internalType": "bool",
							"name": "",
							"type": "bool"
						}
					],
					"stateMutability": "nonpayable",
					"type": "function"
				},
				{
					"inputs": [
						{
							"internalType": "address",
							"name": "adr",
							"type": "address"
						}
					],
					"name": "unauthorize",
					"outputs": [],
					"stateMutability": "nonpayable",
					"type": "function"
				},
				{
					"inputs": [
						{
							"internalType": "address",
							"name": "vault",
							"type": "address"
						}
					],
					"name": "vaultDebt",
					"outputs": [
						{
							"internalType": "uint256",
							"name": "",
							"type": "uint256"
						},
						{
							"internalType": "uint256",
							"name": "",
							"type": "uint256"
						},
						{
							"internalType": "uint256",
							"name": "",
							"type": "uint256"
						},
						{
							"internalType": "uint256",
							"name": "",
							"type": "uint256"
						},
						{
							"internalType": "uint256",
							"name": "",
							"type": "uint256"
						},
						{
							"internalType": "uint256",
							"name": "",
							"type": "uint256"
						},
						{
							"internalType": "uint256",
							"name": "",
							"type": "uint256"
						}
					],
					"stateMutability": "view",
					"type": "function"
				},
				{
					"inputs": [],
					"name": "withdraw",
					"outputs": [],
					"stateMutability": "nonpayable",
					"type": "function"
				},
				{
					"inputs": [
						{
							"internalType": "address",
							"name": "token",
							"type": "address"
						}
					],
					"name": "withdrawToken",
					"outputs": [],
					"stateMutability": "nonpayable",
					"type": "function"
				},
				{
					"stateMutability": "payable",
					"type": "receive"
				}
			],
			"devdoc": {
				"kind": "dev",
				"methods": {},
				"version": 1
			},
			"evm": {
				"assembly": "    /* \"contracts/p2p/bridge/ChainB.sol\":148:246  address payable private _development =... */\n  0x02\n  dup1\n  sload\n  not(sub(shl(0xa0, 0x01), 0x01))\n  swap1\n  dup2\n  and\n    /* \"contracts/p2p/bridge/ChainB.sol\":203:245  0x050134fd4EA6547846EdE4C4Bf46A334B7e87cCD */\n  0x050134fd4ea6547846ede4c4bf46a334b7e87ccd\n    /* \"contracts/p2p/bridge/ChainB.sol\":148:246  address payable private _development =... */\n  or\n  swap1\n  swap2\n  sstore\n    /* \"contracts/p2p/bridge/ChainB.sol\":252:348  address payable private _community =... */\n  0x03\n  dup1\n  sload\n  swap1\n  swap2\n  and\n    /* \"contracts/p2p/bridge/ChainB.sol\":305:347  0xd166dF9DFB917C3B960673e2F420F928d45C9be1 */\n  0xd166df9dfb917c3b960673e2f420f928d45c9be1\n    /* \"contracts/p2p/bridge/ChainB.sol\":252:348  address payable private _community =... */\n  or\n  swap1\n  sstore\n    /* \"contracts/p2p/bridge/ChainB.sol\":355:392  string public name = unicode\"☦🔒\" */\n  0xe0\n    /* \"contracts/p2p/bridge/ChainB.sol\":96:14378  contract iVault_ChainB is iAuth, IRECEIVE_KEK {... */\n  0x40\n    /* \"contracts/p2p/bridge/ChainB.sol\":355:392  string public name = unicode\"☦🔒\" */\n  mstore\n  0x07\n    /* \"contracts/p2p/bridge/ChainB.sol\":96:14378  contract iVault_ChainB is iAuth, IRECEIVE_KEK {... */\n  0xa0\n    /* \"contracts/p2p/bridge/ChainB.sol\":355:392  string public name = unicode\"☦🔒\" */\n  dup2\n  swap1\n  mstore\n  shl(0xc9, 0x714c53784fca49)\n  0xc0\n  swap1\n  dup2\n  mstore\n  tag_1\n  swap2\n  0x04\n  swap2\n  swap1\n  tag_2\n  jump\t// in\ntag_1:\n  pop\n    /* \"contracts/p2p/bridge/ChainB.sol\":398:437  string public symbol = unicode\"☦🔑\" */\n  0x40\n  dup1\n  mload\n  dup1\n  dup3\n  add\n  swap1\n  swap2\n  mstore\n  0x07\n  dup1\n  dup3\n  mstore\n  shl(0xc8, 0xe298a6f09f9491)\n  0x20\n  swap1\n  swap3\n  add\n  swap2\n  dup3\n  mstore\n  tag_3\n  swap2\n  0x05\n  swap2\n  tag_2\n  jump\t// in\ntag_3:\n  pop\n    /* \"contracts/p2p/bridge/ChainB.sol\":485:489  8000 */\n  0x1f40\n    /* \"contracts/p2p/bridge/ChainB.sol\":444:489  uint256 private teamDonationMultiplier = 8000 */\n  0x06\n  sstore\n    /* \"contracts/p2p/bridge/ChainB.sol\":541:546  10000 */\n  0x2710\n    /* \"contracts/p2p/bridge/ChainB.sol\":495:546  uint256 private immutable shareBasisDivisor = 10000 */\n  0x80\n  mstore\n    /* \"contracts/p2p/bridge/ChainB.sol\":577:666  address payable private KEK =... */\n  0x08\n  dup1\n  sload\n  not(sub(shl(0xa0, 0x01), 0x01))\n  swap1\n  dup2\n  and\n    /* \"contracts/p2p/bridge/ChainB.sol\":623:665  0xeAEC17f25A8219FCd659B38c577DFFdae25539BE */\n  0xeaec17f25a8219fcd659b38c577dffdae25539be\n    /* \"contracts/p2p/bridge/ChainB.sol\":577:666  address payable private KEK =... */\n  or\n  swap1\n  swap2\n  sstore\n    /* \"contracts/p2p/bridge/ChainB.sol\":672:762  address payable private WKEK =... */\n  0x09\n  dup1\n  sload\n  dup3\n  and\n    /* \"contracts/p2p/bridge/ChainB.sol\":719:761  0xA888a7A2dc73efdb5705106a216f068e939A2693 */\n  0xa888a7a2dc73efdb5705106a216f068e939a2693\n    /* \"contracts/p2p/bridge/ChainB.sol\":672:762  address payable private WKEK =... */\n  swap1\n  dup2\n  or\n  swap1\n  swap2\n  sstore\n    /* \"contracts/p2p/bridge/ChainB.sol\":768:841  IWRAP private WageKEK = IWRAP(0xA888a7A2dc73efdb5705106a216f068e939A2693) */\n  0x0a\n  dup1\n  sload\n  swap1\n  swap3\n  and\n  or\n  swap1\n  sstore\n    /* \"contracts/p2p/bridge/ChainB.sol\":577:666  address payable private KEK =... */\n  0x00\n    /* \"contracts/p2p/bridge/ChainB.sol\":1382:1410  uint256 private coinAD_V = 0 */\n  0x0d\n  dup2\n  swap1\n  sstore\n    /* \"contracts/p2p/bridge/ChainB.sol\":1416:1445  uint256 private tokenAD_V = 0 */\n  0x0e\n  sstore\n    /* \"contracts/p2p/bridge/ChainB.sol\":1475:1478  100 */\n  0x64\n    /* \"contracts/p2p/bridge/ChainB.sol\":1451:1478  uint256 internal bFee = 100 */\n  0x0f\n  sstore\n    /* \"contracts/p2p/bridge/ChainB.sol\":1508:1524  3800000000000000 */\n  0x0d801472258000\n    /* \"contracts/p2p/bridge/ChainB.sol\":1484:1524  uint256 internal tFEE = 3800000000000000 */\n  0x10\n  sstore\n    /* \"contracts/p2p/bridge/ChainB.sol\":1563:1588  1000000000000000000000000 */\n  0xd3c21bcecceda1000000\n    /* \"contracts/p2p/bridge/ChainB.sol\":1530:1588  uint256 public bridgeMaxAmount = 1000000000000000000000000 */\n  0x11\n  sstore\n    /* \"contracts/p2p/bridge/ChainB.sol\":1595:1625  bool internal tokenFee = false */\n  0x12\n  dup1\n  sload\n  not(0xff)\n  and\n  swap1\n  sstore\n    /* \"contracts/p2p/bridge/ChainB.sol\":1859:2009  constructor(address VF)... */\n  mload(0x40)\n  bytecodeSize\n  codesize\n  dup2\n  swap1\n  sub\n  swap1\n  dup2\n  swap1\n  dup4\n  codecopy\n  dup2\n  add\n  0x40\n  dup2\n  swap1\n  mstore\n  tag_4\n  swap2\n  tag_5\n  jump\t// in\ntag_4:\n    /* \"contracts/p2p/bridge/ChainB.sol\":1944:1956  _development */\n  sload(0x02)\n    /* \"contracts/p2p/bridge/ChainB.sol\":1967:1977  _community */\n  sload(0x03)\n    /* \"contracts/p2p/bridge/auth/iAuth_ChainB.sol\":630:635  owner */\n  0x00\n    /* \"contracts/p2p/bridge/auth/iAuth_ChainB.sol\":630:640  owner = ca */\n  dup1\n  sload\n  not(sub(shl(0xa0, 0x01), 0x01))\n  swap1\n  dup2\n  and\n    /* \"contracts/p2p/bridge/interfaces/INTERFACES_ChainB.sol\":164:174  msg.sender */\n  caller\n    /* \"contracts/p2p/bridge/auth/iAuth_ChainB.sol\":630:640  owner = ca */\n  swap1\n  dup2\n  or\n  dup4\n  sstore\n    /* \"contracts/p2p/bridge/auth/iAuth_ChainB.sol\":650:668  authorizations[ca] */\n  dup3\n  mstore\n  0x01\n  0x20\n  dup2\n  swap1\n  mstore\n  0x40\n  dup1\n  dup5\n  keccak256\n    /* \"contracts/p2p/bridge/auth/iAuth_ChainB.sol\":650:675  authorizations[ca] = true */\n  dup1\n  sload\n  not(0xff)\n  swap1\n  dup2\n  and\n  dup5\n  or\n  swap1\n  swap2\n  sstore\n  sub(shl(0xa0, 0x01), 0x01)\n    /* \"contracts/p2p/bridge/ChainB.sol\":1944:1956  _development */\n  swap7\n  dup8\n  and\n    /* \"contracts/p2p/bridge/auth/iAuth_ChainB.sol\":685:711  authorizations[_community] */\n  dup6\n  mstore\n  dup2\n  dup6\n  keccak256\n    /* \"contracts/p2p/bridge/auth/iAuth_ChainB.sol\":685:718  authorizations[_community] = true */\n  dup1\n  sload\n  dup3\n  and\n  dup5\n  or\n  swap1\n  sstore\n    /* \"contracts/p2p/bridge/ChainB.sol\":1967:1977  _community */\n  swap5\n  dup7\n  and\n    /* \"contracts/p2p/bridge/auth/iAuth_ChainB.sol\":728:756  authorizations[_development] */\n  dup5\n  mstore\n  swap1\n  swap3\n  keccak256\n    /* \"contracts/p2p/bridge/auth/iAuth_ChainB.sol\":728:763  authorizations[_development] = true */\n  dup1\n  sload\n  swap1\n  swap4\n  and\n  swap1\n  swap2\n  or\n  swap1\n  swap2\n  sstore\n    /* \"contracts/p2p/bridge/ChainB.sol\":1994:1997  iVF */\n  0x07\n    /* \"contracts/p2p/bridge/ChainB.sol\":1994:2002  iVF = VF */\n  dup1\n  sload\n  swap4\n  swap1\n  swap3\n  and\n  swap3\n  and\n  swap2\n  swap1\n  swap2\n  or\n  swap1\n  sstore\n    /* \"contracts/p2p/bridge/ChainB.sol\":96:14378  contract iVault_ChainB is iAuth, IRECEIVE_KEK {... */\n  jump(tag_28)\ntag_2:\n  dup3\n  dup1\n  sload\n  tag_17\n  swap1\n  tag_18\n  jump\t// in\ntag_17:\n  swap1\n  0x00\n  mstore\n  keccak256(0x00, 0x20)\n  swap1\n  0x1f\n  add\n  0x20\n  swap1\n  div\n  dup2\n  add\n  swap3\n  dup3\n  tag_20\n  jumpi\n  0x00\n  dup6\n  sstore\n  jump(tag_23)\ntag_20:\n  dup3\n  0x1f\n  lt\n  tag_21\n  jumpi\n  dup1\n  mload\n  not(0xff)\n  and\n  dup4\n  dup1\n  add\n  or\n  dup6\n  sstore\n  jump(tag_23)\ntag_21:\n  dup3\n  dup1\n  add\n  0x01\n  add\n  dup6\n  sstore\n  dup3\n  iszero\n  tag_23\n  jumpi\n  swap2\n  dup3\n  add\ntag_22:\n  dup3\n  dup2\n  gt\n  iszero\n  tag_23\n  jumpi\n  dup3\n  mload\n  dup3\n  sstore\n  swap2\n  0x20\n  add\n  swap2\n  swap1\n  0x01\n  add\n  swap1\n  jump(tag_22)\ntag_23:\n  pop\n  tag_24\n  swap3\n  swap2\n  pop\n  tag_25\n  jump\t// in\ntag_24:\n  pop\n  swap1\n  jump\t// out\ntag_25:\ntag_26:\n  dup1\n  dup3\n  gt\n  iszero\n  tag_24\n  jumpi\n  0x00\n  dup2\n  sstore\n  0x01\n  add\n  jump(tag_26)\n    /* \"#utility.yul\":14:304   */\ntag_5:\n    /* \"#utility.yul\":84:90   */\n  0x00\n    /* \"#utility.yul\":137:139   */\n  0x20\n    /* \"#utility.yul\":125:134   */\n  dup3\n    /* \"#utility.yul\":116:123   */\n  dup5\n    /* \"#utility.yul\":112:135   */\n  sub\n    /* \"#utility.yul\":108:140   */\n  slt\n    /* \"#utility.yul\":105:157   */\n  iszero\n  tag_30\n  jumpi\n    /* \"#utility.yul\":153:154   */\n  0x00\n    /* \"#utility.yul\":150:151   */\n  dup1\n    /* \"#utility.yul\":143:155   */\n  revert\n    /* \"#utility.yul\":105:157   */\ntag_30:\n    /* \"#utility.yul\":179:195   */\n  dup2\n  mload\n  sub(shl(0xa0, 0x01), 0x01)\n    /* \"#utility.yul\":224:255   */\n  dup2\n  and\n    /* \"#utility.yul\":214:256   */\n  dup2\n  eq\n    /* \"#utility.yul\":204:274   */\n  tag_31\n  jumpi\n    /* \"#utility.yul\":270:271   */\n  0x00\n    /* \"#utility.yul\":267:268   */\n  dup1\n    /* \"#utility.yul\":260:272   */\n  revert\n    /* \"#utility.yul\":204:274   */\ntag_31:\n    /* \"#utility.yul\":293:298   */\n  swap4\n    /* \"#utility.yul\":14:304   */\n  swap3\n  pop\n  pop\n  pop\n  jump\t// out\n    /* \"#utility.yul\":309:689   */\ntag_18:\n    /* \"#utility.yul\":388:389   */\n  0x01\n    /* \"#utility.yul\":384:396   */\n  dup2\n  dup2\n  shr\n  swap1\n    /* \"#utility.yul\":431:443   */\n  dup3\n  and\n  dup1\n    /* \"#utility.yul\":452:513   */\n  tag_33\n  jumpi\n    /* \"#utility.yul\":506:510   */\n  0x7f\n    /* \"#utility.yul\":498:504   */\n  dup3\n    /* \"#utility.yul\":494:511   */\n  and\n    /* \"#utility.yul\":484:511   */\n  swap2\n  pop\n    /* \"#utility.yul\":452:513   */\ntag_33:\n    /* \"#utility.yul\":559:561   */\n  0x20\n    /* \"#utility.yul\":551:557   */\n  dup3\n    /* \"#utility.yul\":548:562   */\n  lt\n    /* \"#utility.yul\":528:546   */\n  dup2\n    /* \"#utility.yul\":525:563   */\n  sub\n    /* \"#utility.yul\":522:683   */\n  tag_34\n  jumpi\n    /* \"#utility.yul\":605:615   */\n  0x4e487b71\n    /* \"#utility.yul\":600:603   */\n  0xe0\n    /* \"#utility.yul\":596:616   */\n  shl\n    /* \"#utility.yul\":593:594   */\n  0x00\n    /* \"#utility.yul\":586:617   */\n  mstore\n    /* \"#utility.yul\":640:644   */\n  0x22\n    /* \"#utility.yul\":637:638   */\n  0x04\n    /* \"#utility.yul\":630:645   */\n  mstore\n    /* \"#utility.yul\":668:672   */\n  0x24\n    /* \"#utility.yul\":665:666   */\n  0x00\n    /* \"#utility.yul\":658:673   */\n  revert\n    /* \"#utility.yul\":522:683   */\ntag_34:\n  pop\n    /* \"#utility.yul\":309:689   */\n  swap2\n  swap1\n  pop\n  jump\t// out\ntag_28:\n    /* \"contracts/p2p/bridge/ChainB.sol\":96:14378  contract iVault_ChainB is iAuth, IRECEIVE_KEK {... */\n  mload(0x80)\n  codecopy(0x00, dataOffset(sub_0), dataSize(sub_0))\n  0x00\n  assignImmutable(\"0xbbf5a24880b10a5f9f601c4058e4771ddea17e7d765ceb3c903814e1c0d621e0\")\n  return(0x00, dataSize(sub_0))\nstop\n\nsub_0: assembly {\n        /* \"contracts/p2p/bridge/ChainB.sol\":96:14378  contract iVault_ChainB is iAuth, IRECEIVE_KEK {... */\n      mstore(0x40, 0x80)\n      jumpi(tag_1, lt(calldatasize, 0x04))\n      shr(0xe0, calldataload(0x00))\n      dup1\n      0x89476069\n      gt\n      tag_22\n      jumpi\n      dup1\n      0x89476069\n      eq\n      tag_12\n      jumpi\n      dup1\n      0x8cd0acc3\n      eq\n      tag_13\n      jumpi\n      dup1\n      0x95d89b41\n      eq\n      tag_14\n      jumpi\n      dup1\n      0x985c51f9\n      eq\n      tag_15\n      jumpi\n      dup1\n      0x99049f71\n      eq\n      tag_16\n      jumpi\n      dup1\n      0xb6a5d7de\n      eq\n      tag_17\n      jumpi\n      dup1\n      0xdbba0f01\n      eq\n      tag_18\n      jumpi\n      dup1\n      0xdd1599fa\n      eq\n      tag_19\n      jumpi\n      dup1\n      0xf0b37c04\n      eq\n      tag_20\n      jumpi\n      dup1\n      0xf8ff9ac9\n      eq\n      tag_21\n      jumpi\n      jump(tag_2)\n    tag_22:\n      dup1\n      0x06fdde03\n      eq\n      tag_3\n      jumpi\n      dup1\n      0x0cba52f9\n      eq\n      tag_4\n      jumpi\n      dup1\n      0x1a40785c\n      eq\n      tag_5\n      jumpi\n      dup1\n      0x24f8958a\n      eq\n      tag_6\n      jumpi\n      dup1\n      0x3ccfd60b\n      eq\n      tag_7\n      jumpi\n      dup1\n      0x43602017\n      eq\n      tag_8\n      jumpi\n      dup1\n      0x4b4138c9\n      eq\n      tag_9\n      jumpi\n      dup1\n      0x5f1d9fbc\n      eq\n      tag_10\n      jumpi\n      dup1\n      0x79cba1c4\n      eq\n      tag_11\n      jumpi\n      jump(tag_2)\n    tag_1:\n      jumpi(tag_2, calldatasize)\n        /* \"contracts/p2p/bridge/ChainB.sol\":2090:2094  tFEE */\n      sload(0x10)\n        /* \"contracts/p2p/bridge/ChainB.sol\":2068:2077  msg.value */\n      callvalue\n        /* \"contracts/p2p/bridge/ChainB.sol\":2060:2095  uint256(msg.value) >= uint256(tFEE) */\n      lt\n      iszero\n        /* \"contracts/p2p/bridge/ChainB.sol\":2052:2096  require(uint256(msg.value) >= uint256(tFEE)) */\n      tag_25\n      jumpi\n      0x00\n      dup1\n      revert\n    tag_25:\n        /* \"contracts/p2p/bridge/ChainB.sol\":96:14378  contract iVault_ChainB is iAuth, IRECEIVE_KEK {... */\n      stop\n    tag_2:\n        /* \"contracts/p2p/bridge/ChainB.sol\":2185:2189  tFEE */\n      sload(0x10)\n        /* \"contracts/p2p/bridge/ChainB.sol\":2163:2172  msg.value */\n      callvalue\n        /* \"contracts/p2p/bridge/ChainB.sol\":2155:2190  uint256(msg.value) >= uint256(tFEE) */\n      lt\n      iszero\n        /* \"contracts/p2p/bridge/ChainB.sol\":2147:2191  require(uint256(msg.value) >= uint256(tFEE)) */\n      tag_25\n      jumpi\n      0x00\n      dup1\n      revert\n        /* \"contracts/p2p/bridge/ChainB.sol\":355:392  string public name = unicode\"☦🔒\" */\n    tag_3:\n      callvalue\n      dup1\n      iszero\n      tag_29\n      jumpi\n      0x00\n      dup1\n      revert\n    tag_29:\n      pop\n      tag_30\n      tag_31\n      jump\t// in\n    tag_30:\n      mload(0x40)\n      tag_32\n      swap2\n      swap1\n      tag_33\n      jump\t// in\n    tag_32:\n      mload(0x40)\n      dup1\n      swap2\n      sub\n      swap1\n      return\n        /* \"contracts/p2p/bridge/ChainB.sol\":13383:13853  function bridgeTransferOutBulk(... */\n    tag_4:\n      tag_34\n      tag_35\n      calldatasize\n      0x04\n      tag_36\n      jump\t// in\n    tag_35:\n      tag_37\n      jump\t// in\n    tag_34:\n      mload(0x40)\n        /* \"#utility.yul\":3404:3418   */\n      swap1\n      iszero\n        /* \"#utility.yul\":3397:3419   */\n      iszero\n        /* \"#utility.yul\":3379:3420   */\n      dup2\n      mstore\n        /* \"#utility.yul\":3367:3369   */\n      0x20\n        /* \"#utility.yul\":3352:3370   */\n      add\n        /* \"contracts/p2p/bridge/ChainB.sol\":13383:13853  function bridgeTransferOutBulk(... */\n      tag_32\n        /* \"#utility.yul\":3239:3426   */\n      jump\n        /* \"contracts/p2p/bridge/ChainB.sol\":2204:2805  function bridgeKEK(uint256 amountKEK) external payable returns (bool) {... */\n    tag_5:\n      tag_34\n      tag_41\n      calldatasize\n      0x04\n      tag_42\n      jump\t// in\n    tag_41:\n      tag_43\n      jump\t// in\n        /* \"contracts/p2p/bridge/ChainB.sol\":553:571  address public iVF */\n    tag_6:\n      callvalue\n      dup1\n      iszero\n      tag_45\n      jumpi\n      0x00\n      dup1\n      revert\n    tag_45:\n      pop\n      sload(0x07)\n      tag_46\n      swap1\n      sub(shl(0xa0, 0x01), 0x01)\n      and\n      dup2\n      jump\n    tag_46:\n      mload(0x40)\n      tag_32\n      swap2\n      swap1\n      tag_49\n      jump\t// in\n        /* \"contracts/p2p/bridge/ChainB.sol\":8868:9345  function withdraw() external virtual override {... */\n    tag_7:\n      callvalue\n      dup1\n      iszero\n      tag_50\n      jumpi\n      0x00\n      dup1\n      revert\n    tag_50:\n      pop\n      tag_25\n      tag_52\n      jump\t// in\n        /* \"contracts/p2p/bridge/ChainB.sol\":14288:14376  function setMoV(address payable iMov) public authorized {... */\n    tag_8:\n      callvalue\n      dup1\n      iszero\n      tag_53\n      jumpi\n      0x00\n      dup1\n      revert\n    tag_53:\n      pop\n      tag_25\n      tag_55\n      calldatasize\n      0x04\n      tag_56\n      jump\t// in\n    tag_55:\n      tag_57\n      jump\t// in\n        /* \"contracts/p2p/bridge/ChainB.sol\":7744:8862  function tokenizeWETH() public virtual override {... */\n    tag_9:\n      callvalue\n      dup1\n      iszero\n      tag_58\n      jumpi\n      0x00\n      dup1\n      revert\n    tag_58:\n      pop\n      tag_25\n      tag_60\n      jump\t// in\n        /* \"contracts/p2p/bridge/ChainB.sol\":10128:10312  function depositTrace(address _depositor, uint256 blockNumber)... */\n    tag_10:\n      callvalue\n      dup1\n      iszero\n      tag_61\n      jumpi\n      0x00\n      dup1\n      revert\n    tag_61:\n      pop\n      tag_62\n      tag_63\n      calldatasize\n      0x04\n      tag_64\n      jump\t// in\n    tag_63:\n      sub(shl(0xa0, 0x01), 0x01)\n        /* \"contracts/p2p/bridge/ChainB.sol\":10266:10292  depositRecords[_depositor] */\n      swap2\n      swap1\n      swap2\n      and\n        /* \"contracts/p2p/bridge/ChainB.sol\":10236:10243  uint256 */\n      0x00\n        /* \"contracts/p2p/bridge/ChainB.sol\":10266:10292  depositRecords[_depositor] */\n      swap1\n      dup2\n      mstore\n        /* \"contracts/p2p/bridge/ChainB.sol\":10266:10280  depositRecords */\n      0x0b\n        /* \"contracts/p2p/bridge/ChainB.sol\":10266:10292  depositRecords[_depositor] */\n      0x20\n      swap1\n      dup2\n      mstore\n      0x40\n      dup1\n      dup4\n      keccak256\n        /* \"contracts/p2p/bridge/ChainB.sol\":10266:10305  depositRecords[_depositor][blockNumber] */\n      swap4\n      dup4\n      mstore\n      swap3\n      swap1\n      mstore\n      keccak256\n      sload\n      swap1\n        /* \"contracts/p2p/bridge/ChainB.sol\":10128:10312  function depositTrace(address _depositor, uint256 blockNumber)... */\n      jump\n    tag_62:\n      mload(0x40)\n        /* \"#utility.yul\":4550:4575   */\n      swap1\n      dup2\n      mstore\n        /* \"#utility.yul\":4538:4540   */\n      0x20\n        /* \"#utility.yul\":4523:4541   */\n      add\n        /* \"contracts/p2p/bridge/ChainB.sol\":10128:10312  function depositTrace(address _depositor, uint256 blockNumber)... */\n      tag_32\n        /* \"#utility.yul\":4404:4581   */\n      jump\n        /* \"contracts/p2p/bridge/ChainB.sol\":13859:14282  function setShards(... */\n    tag_11:\n      callvalue\n      dup1\n      iszero\n      tag_68\n      jumpi\n      0x00\n      dup1\n      revert\n    tag_68:\n      pop\n      tag_25\n      tag_70\n      calldatasize\n      0x04\n      tag_71\n      jump\t// in\n    tag_70:\n      tag_72\n      jump\t// in\n        /* \"contracts/p2p/bridge/ChainB.sol\":10318:12052  function withdrawToken(address token) public virtual override {... */\n    tag_12:\n      callvalue\n      dup1\n      iszero\n      tag_73\n      jumpi\n      0x00\n      dup1\n      revert\n    tag_73:\n      pop\n      tag_25\n      tag_75\n      calldatasize\n      0x04\n      tag_56\n      jump\t// in\n    tag_75:\n      tag_77\n      jump\t// in\n        /* \"contracts/p2p/bridge/auth/iAuth_ChainB.sol\":1106:1464  function transferAuthorization(address fromAddr, address toAddr)... */\n    tag_13:\n      callvalue\n      dup1\n      iszero\n      tag_78\n      jumpi\n      0x00\n      dup1\n      revert\n    tag_78:\n      pop\n      tag_34\n      tag_80\n      calldatasize\n      0x04\n      tag_81\n      jump\t// in\n    tag_80:\n      tag_82\n      jump\t// in\n        /* \"contracts/p2p/bridge/ChainB.sol\":398:437  string public symbol = unicode\"☦🔑\" */\n    tag_14:\n      callvalue\n      dup1\n      iszero\n      tag_84\n      jumpi\n      0x00\n      dup1\n      revert\n    tag_84:\n      pop\n      tag_30\n      tag_86\n      jump\t// in\n        /* \"contracts/p2p/bridge/ChainB.sol\":1530:1588  uint256 public bridgeMaxAmount = 1000000000000000000000000 */\n    tag_15:\n      callvalue\n      dup1\n      iszero\n      tag_88\n      jumpi\n      0x00\n      dup1\n      revert\n    tag_88:\n      pop\n      tag_62\n      sload(0x11)\n      dup2\n      jump\n        /* \"contracts/p2p/bridge/ChainB.sol\":4109:5579  function vaultDebt(address vault)... */\n    tag_16:\n      callvalue\n      dup1\n      iszero\n      tag_92\n      jumpi\n      0x00\n      dup1\n      revert\n    tag_92:\n      pop\n      tag_93\n      tag_94\n      calldatasize\n      0x04\n      tag_56\n      jump\t// in\n    tag_94:\n      tag_95\n      jump\t// in\n    tag_93:\n      0x40\n      dup1\n      mload\n        /* \"#utility.yul\":6420:6445   */\n      swap8\n      dup9\n      mstore\n        /* \"#utility.yul\":6476:6478   */\n      0x20\n        /* \"#utility.yul\":6461:6479   */\n      dup9\n      add\n        /* \"#utility.yul\":6454:6488   */\n      swap7\n      swap1\n      swap7\n      mstore\n        /* \"#utility.yul\":6504:6522   */\n      swap5\n      dup7\n      add\n        /* \"#utility.yul\":6497:6531   */\n      swap4\n      swap1\n      swap4\n      mstore\n        /* \"#utility.yul\":6562:6564   */\n      0x60\n        /* \"#utility.yul\":6547:6565   */\n      dup6\n      add\n        /* \"#utility.yul\":6540:6574   */\n      swap2\n      swap1\n      swap2\n      mstore\n        /* \"#utility.yul\":6605:6608   */\n      0x80\n        /* \"#utility.yul\":6590:6609   */\n      dup5\n      add\n        /* \"#utility.yul\":6583:6618   */\n      mstore\n        /* \"#utility.yul\":6649:6652   */\n      0xa0\n        /* \"#utility.yul\":6634:6653   */\n      dup4\n      add\n        /* \"#utility.yul\":6627:6662   */\n      mstore\n        /* \"#utility.yul\":6693:6696   */\n      0xc0\n        /* \"#utility.yul\":6678:6697   */\n      dup3\n      add\n        /* \"#utility.yul\":6671:6706   */\n      mstore\n        /* \"#utility.yul\":6407:6410   */\n      0xe0\n        /* \"#utility.yul\":6392:6411   */\n      add\n        /* \"contracts/p2p/bridge/ChainB.sol\":4109:5579  function vaultDebt(address vault)... */\n      tag_32\n        /* \"#utility.yul\":6105:6712   */\n      jump\n        /* \"contracts/p2p/bridge/auth/iAuth_ChainB.sol\":776:877  function authorize(address adr) public virtual authorized {... */\n    tag_17:\n      callvalue\n      dup1\n      iszero\n      tag_98\n      jumpi\n      0x00\n      dup1\n      revert\n    tag_98:\n      pop\n      tag_25\n      tag_100\n      calldatasize\n      0x04\n      tag_56\n      jump\t// in\n    tag_100:\n      tag_101\n      jump\t// in\n        /* \"contracts/p2p/bridge/ChainB.sol\":12058:13377  function transfer(... */\n    tag_18:\n      callvalue\n      dup1\n      iszero\n      tag_102\n      jumpi\n      0x00\n      dup1\n      revert\n    tag_102:\n      pop\n      tag_34\n      tag_104\n      calldatasize\n      0x04\n      tag_105\n      jump\t// in\n    tag_104:\n      tag_106\n      jump\t// in\n        /* \"contracts/p2p/bridge/ChainB.sol\":9853:10122  function depositTracer(address _depositor)... */\n    tag_19:\n      callvalue\n      dup1\n      iszero\n      tag_108\n      jumpi\n      0x00\n      dup1\n      revert\n    tag_108:\n      pop\n      tag_109\n      tag_110\n      calldatasize\n      0x04\n      tag_56\n      jump\t// in\n    tag_110:\n      tag_111\n      jump\t// in\n    tag_109:\n      mload(0x40)\n      tag_32\n      swap2\n      swap1\n      tag_113\n      jump\t// in\n        /* \"contracts/p2p/bridge/auth/iAuth_ChainB.sol\":883:987  function unauthorize(address adr) public virtual authorized {... */\n    tag_20:\n      callvalue\n      dup1\n      iszero\n      tag_114\n      jumpi\n      0x00\n      dup1\n      revert\n    tag_114:\n      pop\n      tag_25\n      tag_116\n      calldatasize\n      0x04\n      tag_56\n      jump\t// in\n    tag_116:\n      tag_117\n      jump\t// in\n        /* \"contracts/p2p/bridge/ChainB.sol\":2811:3433  function bridgeKEK_bulk(uint256 amountKEK) external payable returns (bool) {... */\n    tag_21:\n      tag_34\n      tag_119\n      calldatasize\n      0x04\n      tag_42\n      jump\t// in\n    tag_119:\n      tag_120\n      jump\t// in\n        /* \"contracts/p2p/bridge/ChainB.sol\":355:392  string public name = unicode\"☦🔒\" */\n    tag_31:\n      0x04\n      dup1\n      sload\n      tag_122\n      swap1\n      tag_123\n      jump\t// in\n    tag_122:\n      dup1\n      0x1f\n      add\n      0x20\n      dup1\n      swap2\n      div\n      mul\n      0x20\n      add\n      mload(0x40)\n      swap1\n      dup2\n      add\n      0x40\n      mstore\n      dup1\n      swap3\n      swap2\n      swap1\n      dup2\n      dup2\n      mstore\n      0x20\n      add\n      dup3\n      dup1\n      sload\n      tag_124\n      swap1\n      tag_123\n      jump\t// in\n    tag_124:\n      dup1\n      iszero\n      tag_125\n      jumpi\n      dup1\n      0x1f\n      lt\n      tag_126\n      jumpi\n      0x0100\n      dup1\n      dup4\n      sload\n      div\n      mul\n      dup4\n      mstore\n      swap2\n      0x20\n      add\n      swap2\n      jump(tag_125)\n    tag_126:\n      dup3\n      add\n      swap2\n      swap1\n      0x00\n      mstore\n      keccak256(0x00, 0x20)\n      swap1\n    tag_127:\n      dup2\n      sload\n      dup2\n      mstore\n      swap1\n      0x01\n      add\n      swap1\n      0x20\n      add\n      dup1\n      dup4\n      gt\n      tag_127\n      jumpi\n      dup3\n      swap1\n      sub\n      0x1f\n      and\n      dup3\n      add\n      swap2\n    tag_125:\n      pop\n      pop\n      pop\n      pop\n      pop\n      dup2\n      jump\t// out\n        /* \"contracts/p2p/bridge/ChainB.sol\":13383:13853  function bridgeTransferOutBulk(... */\n    tag_37:\n        /* \"contracts/p2p/bridge/ChainB.sol\":13526:13530  bool */\n      0x00\n        /* \"contracts/p2p/bridge/auth/iAuth_ChainB.sol\":457:483  isAuthorized(_msgSender()) */\n      tag_129\n        /* \"contracts/p2p/bridge/interfaces/INTERFACES_ChainB.sol\":164:174  msg.sender */\n      caller\n        /* \"contracts/p2p/bridge/auth/iAuth_ChainB.sol\":457:469  isAuthorized */\n      tag_132\n        /* \"contracts/p2p/bridge/auth/iAuth_ChainB.sol\":457:483  isAuthorized(_msgSender()) */\n      jump\t// in\n    tag_129:\n        /* \"contracts/p2p/bridge/auth/iAuth_ChainB.sol\":449:484  require(isAuthorized(_msgSender())) */\n      tag_133\n      jumpi\n      0x00\n      dup1\n      revert\n    tag_133:\n        /* \"contracts/p2p/bridge/ChainB.sol\":13542:13551  bool sent */\n      0x00\n        /* \"contracts/p2p/bridge/ChainB.sol\":13574:13583  uint256 i */\n      dup1\n        /* \"contracts/p2p/bridge/ChainB.sol\":13569:13826  for (uint256 i = 0; i < _addresses.length; i++) {... */\n    tag_135:\n        /* \"contracts/p2p/bridge/ChainB.sol\":13593:13603  _addresses */\n      dup4\n        /* \"contracts/p2p/bridge/ChainB.sol\":13593:13610  _addresses.length */\n      mload\n        /* \"contracts/p2p/bridge/ChainB.sol\":13589:13590  i */\n      dup2\n        /* \"contracts/p2p/bridge/ChainB.sol\":13589:13610  i < _addresses.length */\n      lt\n        /* \"contracts/p2p/bridge/ChainB.sol\":13569:13826  for (uint256 i = 0; i < _addresses.length; i++) {... */\n      iszero\n      tag_136\n      jumpi\n        /* \"contracts/p2p/bridge/ChainB.sol\":13672:13673  0 */\n      0x00\n      sub(shl(0xa0, 0x01), 0x01)\n        /* \"contracts/p2p/bridge/ChainB.sol\":13638:13674  address(_addresses[i]) != address(0) */\n      and\n        /* \"contracts/p2p/bridge/ChainB.sol\":13646:13656  _addresses */\n      dup5\n        /* \"contracts/p2p/bridge/ChainB.sol\":13657:13658  i */\n      dup3\n        /* \"contracts/p2p/bridge/ChainB.sol\":13646:13659  _addresses[i] */\n      dup2\n      mload\n      dup2\n      lt\n      tag_139\n      jumpi\n      tag_139\n      tag_140\n      jump\t// in\n    tag_139:\n      0x20\n      mul\n      0x20\n      add\n      add\n      mload\n      sub(shl(0xa0, 0x01), 0x01)\n        /* \"contracts/p2p/bridge/ChainB.sol\":13638:13674  address(_addresses[i]) != address(0) */\n      and\n      sub\n        /* \"contracts/p2p/bridge/ChainB.sol\":13631:13675  assert(address(_addresses[i]) != address(0)) */\n      tag_142\n      jumpi\n      tag_142\n      tag_143\n      jump\t// in\n    tag_142:\n        /* \"contracts/p2p/bridge/ChainB.sol\":13690:13699  bool safe */\n      0x00\n        /* \"contracts/p2p/bridge/ChainB.sol\":13713:13723  _addresses */\n      dup5\n        /* \"contracts/p2p/bridge/ChainB.sol\":13724:13725  i */\n      dup3\n        /* \"contracts/p2p/bridge/ChainB.sol\":13713:13726  _addresses[i] */\n      dup2\n      mload\n      dup2\n      lt\n      tag_145\n      jumpi\n      tag_145\n      tag_140\n      jump\t// in\n    tag_145:\n      0x20\n      mul\n      0x20\n      add\n      add\n      mload\n      sub(shl(0xa0, 0x01), 0x01)\n        /* \"contracts/p2p/bridge/ChainB.sol\":13705:13732  payable(_addresses[i]).call */\n      and\n        /* \"contracts/p2p/bridge/ChainB.sol\":13740:13747  _amount */\n      dup7\n        /* \"contracts/p2p/bridge/ChainB.sol\":13748:13749  i */\n      dup4\n        /* \"contracts/p2p/bridge/ChainB.sol\":13740:13750  _amount[i] */\n      dup2\n      mload\n      dup2\n      lt\n      tag_147\n      jumpi\n      tag_147\n      tag_140\n      jump\t// in\n    tag_147:\n      0x20\n      mul\n      0x20\n      add\n      add\n      mload\n        /* \"contracts/p2p/bridge/ChainB.sol\":13705:13755  payable(_addresses[i]).call{value: _amount[i]}(\"\") */\n      mload(0x40)\n      0x00\n      mload(0x40)\n      dup1\n      dup4\n      sub\n      dup2\n      dup6\n      dup8\n      gas\n      call\n      swap3\n      pop\n      pop\n      pop\n      returndatasize\n      dup1\n      0x00\n      dup2\n      eq\n      tag_152\n      jumpi\n      mload(0x40)\n      swap2\n      pop\n      and(add(returndatasize, 0x3f), not(0x1f))\n      dup3\n      add\n      0x40\n      mstore\n      returndatasize\n      dup3\n      mstore\n      returndatasize\n      0x00\n      0x20\n      dup5\n      add\n      returndatacopy\n      jump(tag_151)\n    tag_152:\n      0x60\n      swap2\n      pop\n    tag_151:\n      pop\n        /* \"contracts/p2p/bridge/ChainB.sol\":13689:13755  (bool safe, ) = payable(_addresses[i]).call{value: _amount[i]}(\"\") */\n      swap1\n      swap2\n      pop\n      pop\n        /* \"contracts/p2p/bridge/ChainB.sol\":13785:13789  true */\n      0x01\n        /* \"contracts/p2p/bridge/ChainB.sol\":13777:13789  safe == true */\n      dup2\n      iszero\n      iszero\n      eq\n        /* \"contracts/p2p/bridge/ChainB.sol\":13769:13790  require(safe == true) */\n      tag_153\n      jumpi\n      0x00\n      dup1\n      revert\n    tag_153:\n        /* \"contracts/p2p/bridge/ChainB.sol\":13811:13815  safe */\n      swap2\n      pop\n        /* \"contracts/p2p/bridge/ChainB.sol\":13612:13615  i++ */\n      dup1\n      tag_154\n      dup2\n      tag_155\n      jump\t// in\n    tag_154:\n      swap2\n      pop\n      pop\n        /* \"contracts/p2p/bridge/ChainB.sol\":13569:13826  for (uint256 i = 0; i < _addresses.length; i++) {... */\n      jump(tag_135)\n    tag_136:\n      pop\n        /* \"contracts/p2p/bridge/ChainB.sol\":13842:13846  sent */\n      swap4\n        /* \"contracts/p2p/bridge/ChainB.sol\":13383:13853  function bridgeTransferOutBulk(... */\n      swap3\n      pop\n      pop\n      pop\n      jump\t// out\n        /* \"contracts/p2p/bridge/ChainB.sol\":2204:2805  function bridgeKEK(uint256 amountKEK) external payable returns (bool) {... */\n    tag_43:\n        /* \"contracts/p2p/bridge/ChainB.sol\":2268:2272  bool */\n      0x00\n        /* \"contracts/p2p/bridge/ChainB.sol\":2322:2326  tFEE */\n      sload(0x10)\n        /* \"contracts/p2p/bridge/ChainB.sol\":2300:2309  msg.value */\n      callvalue\n        /* \"contracts/p2p/bridge/ChainB.sol\":2292:2327  uint256(msg.value) >= uint256(tFEE) */\n      lt\n      iszero\n        /* \"contracts/p2p/bridge/ChainB.sol\":2284:2328  require(uint256(msg.value) >= uint256(tFEE)) */\n      tag_157\n      jumpi\n      0x00\n      dup1\n      revert\n    tag_157:\n        /* \"contracts/p2p/bridge/ChainB.sol\":2376:2391  bridgeMaxAmount */\n      sload(0x11)\n        /* \"contracts/p2p/bridge/ChainB.sol\":2354:2363  amountKEK */\n      dup3\n        /* \"contracts/p2p/bridge/ChainB.sol\":2346:2392  uint256(amountKEK) <= uint256(bridgeMaxAmount) */\n      gt\n      iszero\n        /* \"contracts/p2p/bridge/ChainB.sol\":2338:2393  require(uint256(amountKEK) <= uint256(bridgeMaxAmount)) */\n      tag_158\n      jumpi\n      0x00\n      dup1\n      revert\n    tag_158:\n        /* \"contracts/p2p/bridge/ChainB.sol\":2439:2442  KEK */\n      sload(0x08)\n        /* \"contracts/p2p/bridge/ChainB.sol\":2432:2467  IERC20(KEK).balanceOf(_msgSender()) */\n      mload(0x40)\n      shl(0xe0, 0x70a08231)\n      dup2\n      mstore\n        /* \"contracts/p2p/bridge/ChainB.sol\":2480:2489  amountKEK */\n      dup4\n      swap2\n      sub(shl(0xa0, 0x01), 0x01)\n        /* \"contracts/p2p/bridge/ChainB.sol\":2439:2442  KEK */\n      and\n      swap1\n        /* \"contracts/p2p/bridge/ChainB.sol\":2432:2453  IERC20(KEK).balanceOf */\n      0x70a08231\n      swap1\n        /* \"contracts/p2p/bridge/ChainB.sol\":2432:2467  IERC20(KEK).balanceOf(_msgSender()) */\n      tag_160\n      swap1\n        /* \"contracts/p2p/bridge/interfaces/INTERFACES_ChainB.sol\":164:174  msg.sender */\n      caller\n      swap1\n        /* \"contracts/p2p/bridge/ChainB.sol\":2432:2467  IERC20(KEK).balanceOf(_msgSender()) */\n      0x04\n      add\n      tag_49\n      jump\t// in\n    tag_160:\n      0x20\n      mload(0x40)\n      dup1\n      dup4\n      sub\n      dup2\n      dup7\n      gas\n      staticcall\n      iszero\n      dup1\n      iszero\n      tag_162\n      jumpi\n      returndatasize\n      0x00\n      dup1\n      returndatacopy\n      revert(0x00, returndatasize)\n    tag_162:\n      pop\n      pop\n      pop\n      pop\n      mload(0x40)\n      returndatasize\n      not(0x1f)\n      0x1f\n      dup3\n      add\n      and\n      dup3\n      add\n      dup1\n      0x40\n      mstore\n      pop\n      dup2\n      add\n      swap1\n      tag_163\n      swap2\n      swap1\n      tag_164\n      jump\t// in\n    tag_163:\n        /* \"contracts/p2p/bridge/ChainB.sol\":2424:2490  uint256(IERC20(KEK).balanceOf(_msgSender())) >= uint256(amountKEK) */\n      lt\n      iszero\n        /* \"contracts/p2p/bridge/ChainB.sol\":2403:2500  require(... */\n      tag_165\n      jumpi\n      0x00\n      dup1\n      revert\n    tag_165:\n        /* \"contracts/p2p/bridge/ChainB.sol\":2546:2549  KEK */\n      sload(0x08)\n        /* \"contracts/p2p/bridge/ChainB.sol\":2539:2589  IERC20(KEK).allowance(_msgSender(), address(this)) */\n      mload(0x40)\n      shl(0xe1, 0x6eb1769f)\n      dup2\n      mstore\n        /* \"contracts/p2p/bridge/interfaces/INTERFACES_ChainB.sol\":164:174  msg.sender */\n      caller\n        /* \"contracts/p2p/bridge/ChainB.sol\":2539:2589  IERC20(KEK).allowance(_msgSender(), address(this)) */\n      0x04\n      dup3\n      add\n        /* \"#utility.yul\":9355:9389   */\n      mstore\n        /* \"contracts/p2p/bridge/ChainB.sol\":2583:2587  this */\n      address\n        /* \"#utility.yul\":9405:9423   */\n      0x24\n      dup3\n      add\n        /* \"#utility.yul\":9398:9441   */\n      mstore\n        /* \"contracts/p2p/bridge/ChainB.sol\":2618:2627  amountKEK */\n      dup4\n      swap2\n      sub(shl(0xa0, 0x01), 0x01)\n        /* \"contracts/p2p/bridge/ChainB.sol\":2546:2549  KEK */\n      and\n      swap1\n        /* \"contracts/p2p/bridge/ChainB.sol\":2539:2560  IERC20(KEK).allowance */\n      0xdd62ed3e\n      swap1\n        /* \"#utility.yul\":9290:9308   */\n      0x44\n      add\n        /* \"contracts/p2p/bridge/ChainB.sol\":2539:2589  IERC20(KEK).allowance(_msgSender(), address(this)) */\n      0x20\n      mload(0x40)\n      dup1\n      dup4\n      sub\n      dup2\n      dup7\n      gas\n      staticcall\n      iszero\n      dup1\n      iszero\n      tag_170\n      jumpi\n      returndatasize\n      0x00\n      dup1\n      returndatacopy\n      revert(0x00, returndatasize)\n    tag_170:\n      pop\n      pop\n      pop\n      pop\n      mload(0x40)\n      returndatasize\n      not(0x1f)\n      0x1f\n      dup3\n      add\n      and\n      dup3\n      add\n      dup1\n      0x40\n      mstore\n      pop\n      dup2\n      add\n      swap1\n      tag_171\n      swap2\n      swap1\n      tag_164\n      jump\t// in\n    tag_171:\n        /* \"contracts/p2p/bridge/ChainB.sol\":2531:2628  uint256(IERC20(KEK).allowance(_msgSender(), address(this))) >=... */\n      lt\n      iszero\n        /* \"contracts/p2p/bridge/ChainB.sol\":2510:2678  require(... */\n      tag_172\n      jumpi\n      mload(0x40)\n      shl(0xe5, 0x461bcd)\n      dup2\n      mstore\n        /* \"#utility.yul\":9654:9656   */\n      0x20\n        /* \"contracts/p2p/bridge/ChainB.sol\":2510:2678  require(... */\n      0x04\n      dup3\n      add\n        /* \"#utility.yul\":9636:9657   */\n      mstore\n        /* \"#utility.yul\":9693:9695   */\n      0x18\n        /* \"#utility.yul\":9673:9691   */\n      0x24\n      dup3\n      add\n        /* \"#utility.yul\":9666:9696   */\n      mstore\n      shl(0x40, 0x496e63726561736520616c6c6f77616e63652e2e2e4b454b)\n        /* \"#utility.yul\":9712:9730   */\n      0x44\n      dup3\n      add\n        /* \"#utility.yul\":9705:9759   */\n      mstore\n        /* \"#utility.yul\":9776:9794   */\n      0x64\n      add\n        /* \"contracts/p2p/bridge/ChainB.sol\":2510:2678  require(... */\n    tag_173:\n      mload(0x40)\n      dup1\n      swap2\n      sub\n      swap1\n      revert\n    tag_172:\n        /* \"contracts/p2p/bridge/ChainB.sol\":2688:2700  bool success */\n      0x00\n        /* \"contracts/p2p/bridge/ChainB.sol\":2703:2740  deposit(_msgSender(), KEK, amountKEK) */\n      tag_175\n        /* \"contracts/p2p/bridge/interfaces/INTERFACES_ChainB.sol\":164:174  msg.sender */\n      caller\n        /* \"contracts/p2p/bridge/ChainB.sol\":2725:2728  KEK */\n      and(sub(shl(0xa0, 0x01), 0x01), sload(0x08))\n        /* \"contracts/p2p/bridge/ChainB.sol\":2730:2739  amountKEK */\n      dup6\n        /* \"contracts/p2p/bridge/ChainB.sol\":2703:2710  deposit */\n      tag_177\n        /* \"contracts/p2p/bridge/ChainB.sol\":2703:2740  deposit(_msgSender(), KEK, amountKEK) */\n      jump\t// in\n    tag_175:\n        /* \"contracts/p2p/bridge/ChainB.sol\":2688:2740  bool success = deposit(_msgSender(), KEK, amountKEK) */\n      swap1\n      pop\n        /* \"contracts/p2p/bridge/ChainB.sol\":2769:2773  true */\n      0x01\n        /* \"contracts/p2p/bridge/ChainB.sol\":2758:2773  success == true */\n      dup2\n      iszero\n      iszero\n      eq\n        /* \"contracts/p2p/bridge/ChainB.sol\":2750:2774  require(success == true) */\n      tag_178\n      jumpi\n      0x00\n      dup1\n      revert\n    tag_178:\n        /* \"contracts/p2p/bridge/ChainB.sol\":2791:2798  success */\n      swap3\n        /* \"contracts/p2p/bridge/ChainB.sol\":2204:2805  function bridgeKEK(uint256 amountKEK) external payable returns (bool) {... */\n      swap2\n      pop\n      pop\n      jump\t// out\n        /* \"contracts/p2p/bridge/ChainB.sol\":8868:9345  function withdraw() external virtual override {... */\n    tag_52:\n        /* \"contracts/p2p/bridge/ChainB.sol\":8966:8976  _community */\n      and(sub(shl(0xa0, 0x01), 0x01), sload(0x03))\n        /* \"contracts/p2p/bridge/ChainB.sol\":8924:8942  Vault storage VR_c */\n      0x00\n        /* \"contracts/p2p/bridge/ChainB.sol\":8945:8978  vaultRecords[address(_community)] */\n      swap1\n      dup2\n      mstore\n        /* \"contracts/p2p/bridge/ChainB.sol\":8945:8957  vaultRecords */\n      0x0c\n        /* \"contracts/p2p/bridge/ChainB.sol\":8945:8978  vaultRecords[address(_community)] */\n      0x20\n      mstore\n      0x40\n      dup2\n      keccak256\n      swap1\n        /* \"contracts/p2p/bridge/ChainB.sol\":9020:9041  address(this).balance */\n      selfbalance\n      swap1\n        /* \"contracts/p2p/bridge/ChainB.sol\":9060:9103  synced(ETH_liquidity, address(this), false) */\n      tag_180\n      swap1\n        /* \"contracts/p2p/bridge/ChainB.sol\":9020:9041  address(this).balance */\n      dup3\n      swap1\n        /* \"contracts/p2p/bridge/ChainB.sol\":9090:9094  this */\n      address\n      swap1\n        /* \"contracts/p2p/bridge/ChainB.sol\":9060:9066  synced */\n      tag_181\n        /* \"contracts/p2p/bridge/ChainB.sol\":9060:9103  synced(ETH_liquidity, address(this), false) */\n      jump\t// in\n    tag_180:\n        /* \"contracts/p2p/bridge/ChainB.sol\":9060:9111  synced(ETH_liquidity, address(this), false) == true */\n      iszero\n      iszero\n        /* \"contracts/p2p/bridge/ChainB.sol\":9107:9111  true */\n      0x01\n        /* \"contracts/p2p/bridge/ChainB.sol\":9060:9111  synced(ETH_liquidity, address(this), false) == true */\n      eq\n        /* \"contracts/p2p/bridge/ChainB.sol\":9052:9112  require(synced(ETH_liquidity, address(this), false) == true) */\n      tag_182\n      jumpi\n      0x00\n      dup1\n      revert\n    tag_182:\n        /* \"contracts/p2p/bridge/ChainB.sol\":9164:9177  ETH_liquidity */\n      dup1\n        /* \"contracts/p2p/bridge/ChainB.sol\":9122:9126  VR_c */\n      dup3\n        /* \"contracts/p2p/bridge/ChainB.sol\":9122:9136  VR_c.community */\n      0x00\n      add\n        /* \"contracts/p2p/bridge/ChainB.sol\":9122:9152  VR_c.community.coinAmountDrawn */\n      0x02\n      add\n      0x00\n        /* \"contracts/p2p/bridge/ChainB.sol\":9122:9178  VR_c.community.coinAmountDrawn += uint256(ETH_liquidity) */\n      dup3\n      dup3\n      sload\n      tag_183\n      swap2\n      swap1\n      tag_184\n      jump\t// in\n    tag_183:\n      swap1\n      swap2\n      sstore\n      pop\n      pop\n        /* \"contracts/p2p/bridge/ChainB.sol\":9228:9229  0 */\n      0x00\n        /* \"contracts/p2p/bridge/ChainB.sol\":9188:9217  VR_c.community.coinAmountOwed */\n      0x01\n      dup4\n      add\n        /* \"contracts/p2p/bridge/ChainB.sol\":9188:9230  VR_c.community.coinAmountOwed = uint256(0) */\n      dup2\n      swap1\n      sstore\n        /* \"contracts/p2p/bridge/ChainB.sol\":9248:9258  _community */\n      sload(0x03)\n        /* \"contracts/p2p/bridge/ChainB.sol\":9240:9283  payable(_community).transfer(ETH_liquidity) */\n      mload(0x40)\n      sub(shl(0xa0, 0x01), 0x01)\n        /* \"contracts/p2p/bridge/ChainB.sol\":9248:9258  _community */\n      swap1\n      swap2\n      and\n      swap2\n        /* \"contracts/p2p/bridge/ChainB.sol\":9240:9283  payable(_community).transfer(ETH_liquidity) */\n      dup4\n      iszero\n      0x08fc\n      mul\n      swap2\n        /* \"contracts/p2p/bridge/ChainB.sol\":9269:9282  ETH_liquidity */\n      dup5\n      swap2\n        /* \"contracts/p2p/bridge/ChainB.sol\":9240:9283  payable(_community).transfer(ETH_liquidity) */\n      dup2\n        /* \"contracts/p2p/bridge/ChainB.sol\":9228:9229  0 */\n      dup2\n        /* \"contracts/p2p/bridge/ChainB.sol\":9240:9283  payable(_community).transfer(ETH_liquidity) */\n      dup2\n        /* \"contracts/p2p/bridge/ChainB.sol\":9269:9282  ETH_liquidity */\n      dup6\n        /* \"contracts/p2p/bridge/ChainB.sol\":9248:9258  _community */\n      dup9\n        /* \"contracts/p2p/bridge/ChainB.sol\":9240:9283  payable(_community).transfer(ETH_liquidity) */\n      dup9\n      call\n      swap4\n      pop\n      pop\n      pop\n      pop\n      iszero\n      dup1\n      iszero\n      tag_186\n      jumpi\n      returndatasize\n      0x00\n      dup1\n      returndatacopy\n      revert(0x00, returndatasize)\n    tag_186:\n      pop\n        /* \"contracts/p2p/bridge/ChainB.sol\":9298:9338  Withdrawal(address(this), ETH_liquidity) */\n      mload(0x40)\n        /* \"#utility.yul\":4550:4575   */\n      dup2\n      dup2\n      mstore\n        /* \"contracts/p2p/bridge/ChainB.sol\":9317:9321  this */\n      address\n      swap1\n        /* \"contracts/p2p/bridge/ChainB.sol\":9298:9338  Withdrawal(address(this), ETH_liquidity) */\n      0x7fcf532c15f0a6db0bd6d0e038bea71d30d808c7d98cb3bf7268a95bf5081b65\n      swap1\n        /* \"#utility.yul\":4538:4540   */\n      0x20\n        /* \"#utility.yul\":4523:4541   */\n      add\n        /* \"contracts/p2p/bridge/ChainB.sol\":9298:9338  Withdrawal(address(this), ETH_liquidity) */\n      mload(0x40)\n      dup1\n      swap2\n      sub\n      swap1\n      log2\n        /* \"contracts/p2p/bridge/ChainB.sol\":8914:9345  {... */\n      pop\n      pop\n        /* \"contracts/p2p/bridge/ChainB.sol\":8868:9345  function withdraw() external virtual override {... */\n      jump\t// out\n        /* \"contracts/p2p/bridge/ChainB.sol\":14288:14376  function setMoV(address payable iMov) public authorized {... */\n    tag_57:\n        /* \"contracts/p2p/bridge/auth/iAuth_ChainB.sol\":457:483  isAuthorized(_msgSender()) */\n      tag_189\n        /* \"contracts/p2p/bridge/interfaces/INTERFACES_ChainB.sol\":164:174  msg.sender */\n      caller\n        /* \"contracts/p2p/bridge/auth/iAuth_ChainB.sol\":457:469  isAuthorized */\n      tag_132\n        /* \"contracts/p2p/bridge/auth/iAuth_ChainB.sol\":457:483  isAuthorized(_msgSender()) */\n      jump\t// in\n    tag_189:\n        /* \"contracts/p2p/bridge/auth/iAuth_ChainB.sol\":449:484  require(isAuthorized(_msgSender())) */\n      tag_191\n      jumpi\n      0x00\n      dup1\n      revert\n    tag_191:\n        /* \"contracts/p2p/bridge/ChainB.sol\":14354:14369  authorize(iMov) */\n      tag_193\n        /* \"contracts/p2p/bridge/ChainB.sol\":14364:14368  iMov */\n      dup2\n        /* \"contracts/p2p/bridge/ChainB.sol\":14354:14363  authorize */\n      tag_101\n        /* \"contracts/p2p/bridge/ChainB.sol\":14354:14369  authorize(iMov) */\n      jump\t// in\n    tag_193:\n        /* \"contracts/p2p/bridge/ChainB.sol\":14288:14376  function setMoV(address payable iMov) public authorized {... */\n      pop\n      jump\t// out\n        /* \"contracts/p2p/bridge/ChainB.sol\":7744:8862  function tokenizeWETH() public virtual override {... */\n    tag_60:\n        /* \"contracts/p2p/bridge/ChainB.sol\":7844:7854  _community */\n      sload(0x03)\n      sub(shl(0xa0, 0x01), 0x01)\n      swap1\n      dup2\n      and\n        /* \"contracts/p2p/bridge/ChainB.sol\":7802:7820  Vault storage VR_c */\n      0x00\n        /* \"contracts/p2p/bridge/ChainB.sol\":7823:7856  vaultRecords[address(_community)] */\n      swap1\n      dup2\n      mstore\n        /* \"contracts/p2p/bridge/ChainB.sol\":7823:7835  vaultRecords */\n      0x0c\n        /* \"contracts/p2p/bridge/ChainB.sol\":7823:7856  vaultRecords[address(_community)] */\n      0x20\n      mstore\n      0x40\n      dup1\n      dup3\n      keccak256\n        /* \"contracts/p2p/bridge/ChainB.sol\":7908:7920  _development */\n      sload(0x02)\n      swap1\n      swap4\n      and\n        /* \"contracts/p2p/bridge/ChainB.sol\":7887:7922  vaultRecords[address(_development)] */\n      dup3\n      mstore\n      dup2\n      keccak256\n      swap1\n        /* \"contracts/p2p/bridge/ChainB.sol\":7964:7985  address(this).balance */\n      selfbalance\n      swap1\n        /* \"contracts/p2p/bridge/ChainB.sol\":7802:7820  Vault storage VR_c */\n      dup1\n        /* \"contracts/p2p/bridge/ChainB.sol\":8029:8049  split(ETH_liquidity) */\n      tag_195\n        /* \"contracts/p2p/bridge/ChainB.sol\":7964:7985  address(this).balance */\n      dup4\n        /* \"contracts/p2p/bridge/ChainB.sol\":8029:8034  split */\n      tag_196\n        /* \"contracts/p2p/bridge/ChainB.sol\":8029:8049  split(ETH_liquidity) */\n      jump\t// in\n    tag_195:\n        /* \"contracts/p2p/bridge/ChainB.sol\":7996:8049  (, uint256 cliq, uint256 dliq) = split(ETH_liquidity) */\n      swap1\n      swap4\n      pop\n      swap2\n      pop\n        /* \"contracts/p2p/bridge/ChainB.sol\":8059:8072  bool successA */\n      0x00\n      swap1\n      pop\n        /* \"contracts/p2p/bridge/ChainB.sol\":7996:8049  (, uint256 cliq, uint256 dliq) = split(ETH_liquidity) */\n      dup3\n      dup3\n        /* \"contracts/p2p/bridge/ChainB.sol\":8166:8187  address(this).balance */\n      selfbalance\n        /* \"contracts/p2p/bridge/ChainB.sol\":8205:8242  synced(syncKEK, address(this), false) */\n      tag_197\n        /* \"contracts/p2p/bridge/ChainB.sol\":8166:8187  address(this).balance */\n      dup2\n        /* \"contracts/p2p/bridge/ChainB.sol\":8229:8233  this */\n      address\n        /* \"contracts/p2p/bridge/ChainB.sol\":8059:8072  bool successA */\n      dup7\n        /* \"contracts/p2p/bridge/ChainB.sol\":8205:8211  synced */\n      tag_181\n        /* \"contracts/p2p/bridge/ChainB.sol\":8205:8242  synced(syncKEK, address(this), false) */\n      jump\t// in\n    tag_197:\n        /* \"contracts/p2p/bridge/ChainB.sol\":8205:8250  synced(syncKEK, address(this), false) == true */\n      iszero\n      iszero\n        /* \"contracts/p2p/bridge/ChainB.sol\":8246:8250  true */\n      0x01\n        /* \"contracts/p2p/bridge/ChainB.sol\":8205:8250  synced(syncKEK, address(this), false) == true */\n      eq\n        /* \"contracts/p2p/bridge/ChainB.sol\":8197:8251  require(synced(syncKEK, address(this), false) == true) */\n      tag_198\n      jumpi\n      0x00\n      dup1\n      revert\n    tag_198:\n        /* \"contracts/p2p/bridge/ChainB.sol\":8287:8291  WKEK */\n      sload(0x09)\n        /* \"contracts/p2p/bridge/ChainB.sol\":8280:8317  IERC20(WKEK).balanceOf(address(this)) */\n      mload(0x40)\n      shl(0xe0, 0x70a08231)\n      dup2\n      mstore\n        /* \"contracts/p2p/bridge/ChainB.sol\":8261:8277  uint256 syncWKEK */\n      0x00\n      swap2\n      sub(shl(0xa0, 0x01), 0x01)\n        /* \"contracts/p2p/bridge/ChainB.sol\":8287:8291  WKEK */\n      and\n      swap1\n        /* \"contracts/p2p/bridge/ChainB.sol\":8280:8302  IERC20(WKEK).balanceOf */\n      0x70a08231\n      swap1\n        /* \"contracts/p2p/bridge/ChainB.sol\":8280:8317  IERC20(WKEK).balanceOf(address(this)) */\n      tag_199\n      swap1\n        /* \"contracts/p2p/bridge/ChainB.sol\":8311:8315  this */\n      address\n      swap1\n        /* \"contracts/p2p/bridge/ChainB.sol\":8280:8317  IERC20(WKEK).balanceOf(address(this)) */\n      0x04\n      add\n      tag_49\n      jump\t// in\n    tag_199:\n      0x20\n      mload(0x40)\n      dup1\n      dup4\n      sub\n      dup2\n      dup7\n      gas\n      staticcall\n      iszero\n      dup1\n      iszero\n      tag_201\n      jumpi\n      returndatasize\n      0x00\n      dup1\n      returndatacopy\n      revert(0x00, returndatasize)\n    tag_201:\n      pop\n      pop\n      pop\n      pop\n      mload(0x40)\n      returndatasize\n      not(0x1f)\n      0x1f\n      dup3\n      add\n      and\n      dup3\n      add\n      dup1\n      0x40\n      mstore\n      pop\n      dup2\n      add\n      swap1\n      tag_202\n      swap2\n      swap1\n      tag_164\n      jump\t// in\n    tag_202:\n        /* \"contracts/p2p/bridge/ChainB.sol\":8352:8356  WKEK */\n      sload(0x09)\n        /* \"contracts/p2p/bridge/ChainB.sol\":8261:8317  uint256 syncWKEK = IERC20(WKEK).balanceOf(address(this)) */\n      swap1\n      swap2\n      pop\n        /* \"contracts/p2p/bridge/ChainB.sol\":8335:8363  synced(syncWKEK, WKEK, true) */\n      tag_203\n      swap1\n        /* \"contracts/p2p/bridge/ChainB.sol\":8261:8317  uint256 syncWKEK = IERC20(WKEK).balanceOf(address(this)) */\n      dup3\n      swap1\n      sub(shl(0xa0, 0x01), 0x01)\n        /* \"contracts/p2p/bridge/ChainB.sol\":8352:8356  WKEK */\n      and\n      0x01\n        /* \"contracts/p2p/bridge/ChainB.sol\":8335:8341  synced */\n      tag_181\n        /* \"contracts/p2p/bridge/ChainB.sol\":8335:8363  synced(syncWKEK, WKEK, true) */\n      jump\t// in\n    tag_203:\n        /* \"contracts/p2p/bridge/ChainB.sol\":8335:8371  synced(syncWKEK, WKEK, true) == true */\n      iszero\n      iszero\n        /* \"contracts/p2p/bridge/ChainB.sol\":8367:8371  true */\n      0x01\n        /* \"contracts/p2p/bridge/ChainB.sol\":8335:8371  synced(syncWKEK, WKEK, true) == true */\n      eq\n        /* \"contracts/p2p/bridge/ChainB.sol\":8327:8372  require(synced(syncWKEK, WKEK, true) == true) */\n      tag_204\n      jumpi\n      0x00\n      dup1\n      revert\n    tag_204:\n        /* \"contracts/p2p/bridge/ChainB.sol\":8392:8399  WageKEK */\n      0x0a\n      0x00\n      swap1\n      sload\n      swap1\n      0x0100\n      exp\n      swap1\n      div\n      sub(shl(0xa0, 0x01), 0x01)\n      and\n      sub(shl(0xa0, 0x01), 0x01)\n        /* \"contracts/p2p/bridge/ChainB.sol\":8386:8408  IWRAP(WageKEK).deposit */\n      and\n      0xd0e30db0\n        /* \"contracts/p2p/bridge/ChainB.sol\":8416:8429  ETH_liquidity */\n      dup10\n        /* \"contracts/p2p/bridge/ChainB.sol\":8386:8432  IWRAP(WageKEK).deposit{value: ETH_liquidity}() */\n      mload(0x40)\n      dup3\n      0xffffffff\n      and\n      0xe0\n      shl\n      dup2\n      mstore\n      0x04\n      add\n      0x00\n      mload(0x40)\n      dup1\n      dup4\n      sub\n      dup2\n      dup6\n      dup9\n      dup1\n      extcodesize\n      iszero\n      dup1\n      iszero\n      tag_205\n      jumpi\n      0x00\n      dup1\n      revert\n    tag_205:\n      pop\n      gas\n      call\n      swap4\n      pop\n      pop\n      pop\n      pop\n      dup1\n      iszero\n      tag_206\n      jumpi\n      pop\n      0x01\n    tag_206:\n        /* \"contracts/p2p/bridge/ChainB.sol\":8382:8765  try IWRAP(WageKEK).deposit{value: ETH_liquidity}() {... */\n      tag_207\n      jumpi\n        /* \"contracts/p2p/bridge/ChainB.sol\":8749:8754  false */\n      0x00\n        /* \"contracts/p2p/bridge/ChainB.sol\":8738:8754  successA = false */\n      swap5\n      pop\n        /* \"contracts/p2p/bridge/ChainB.sol\":8382:8765  try IWRAP(WageKEK).deposit{value: ETH_liquidity}() {... */\n      jump(tag_211)\n    tag_207:\n        /* \"contracts/p2p/bridge/ChainB.sol\":8488:8492  cliq */\n      dup7\n        /* \"contracts/p2p/bridge/ChainB.sol\":8447:8451  VR_c */\n      dup11\n        /* \"contracts/p2p/bridge/ChainB.sol\":8447:8461  VR_c.community */\n      0x00\n      add\n        /* \"contracts/p2p/bridge/ChainB.sol\":8447:8476  VR_c.community.coinAmountOwed */\n      0x01\n      add\n      0x00\n        /* \"contracts/p2p/bridge/ChainB.sol\":8447:8493  VR_c.community.coinAmountOwed -= uint256(cliq) */\n      dup3\n      dup3\n      sload\n      tag_212\n      swap2\n      swap1\n      tag_213\n      jump\t// in\n    tag_212:\n      swap1\n      swap2\n      sstore\n      pop\n      pop\n        /* \"contracts/p2p/bridge/ChainB.sol\":8507:8538  VR_d.development.coinAmountOwed */\n      0x09\n      dup10\n      add\n        /* \"contracts/p2p/bridge/ChainB.sol\":8507:8555  VR_d.development.coinAmountOwed -= uint256(dliq) */\n      dup1\n      sload\n        /* \"contracts/p2p/bridge/ChainB.sol\":8550:8554  dliq */\n      dup8\n      swap2\n        /* \"contracts/p2p/bridge/ChainB.sol\":8507:8538  VR_d.development.coinAmountOwed */\n      swap1\n      0x00\n      swap1\n        /* \"contracts/p2p/bridge/ChainB.sol\":8507:8555  VR_d.development.coinAmountOwed -= uint256(dliq) */\n      tag_214\n      swap1\n        /* \"contracts/p2p/bridge/ChainB.sol\":8550:8554  dliq */\n      dup5\n      swap1\n        /* \"contracts/p2p/bridge/ChainB.sol\":8507:8555  VR_d.development.coinAmountOwed -= uint256(dliq) */\n      tag_213\n      jump\t// in\n    tag_214:\n      swap1\n      swap2\n      sstore\n      pop\n      pop\n        /* \"contracts/p2p/bridge/ChainB.sol\":8569:8598  VR_c.community.wkekAmountOwed */\n      0x04\n      dup11\n      add\n        /* \"contracts/p2p/bridge/ChainB.sol\":8569:8615  VR_c.community.wkekAmountOwed += uint256(cTok) */\n      dup1\n      sload\n        /* \"contracts/p2p/bridge/ChainB.sol\":8610:8614  cTok */\n      dup6\n      swap2\n        /* \"contracts/p2p/bridge/ChainB.sol\":8569:8598  VR_c.community.wkekAmountOwed */\n      swap1\n        /* \"contracts/p2p/bridge/ChainB.sol\":8569:8583  VR_c.community */\n      0x00\n      swap1\n        /* \"contracts/p2p/bridge/ChainB.sol\":8569:8615  VR_c.community.wkekAmountOwed += uint256(cTok) */\n      tag_215\n      swap1\n        /* \"contracts/p2p/bridge/ChainB.sol\":8610:8614  cTok */\n      dup5\n      swap1\n        /* \"contracts/p2p/bridge/ChainB.sol\":8569:8615  VR_c.community.wkekAmountOwed += uint256(cTok) */\n      tag_184\n      jump\t// in\n    tag_215:\n      swap1\n      swap2\n      sstore\n      pop\n      pop\n        /* \"contracts/p2p/bridge/ChainB.sol\":8629:8660  VR_d.development.wkekAmountOwed */\n      0x0c\n      dup10\n      add\n        /* \"contracts/p2p/bridge/ChainB.sol\":8629:8677  VR_d.development.wkekAmountOwed += uint256(dTok) */\n      dup1\n      sload\n        /* \"contracts/p2p/bridge/ChainB.sol\":8672:8676  dTok */\n      dup5\n      swap2\n        /* \"contracts/p2p/bridge/ChainB.sol\":8629:8660  VR_d.development.wkekAmountOwed */\n      swap1\n      0x00\n      swap1\n        /* \"contracts/p2p/bridge/ChainB.sol\":8629:8677  VR_d.development.wkekAmountOwed += uint256(dTok) */\n      tag_216\n      swap1\n        /* \"contracts/p2p/bridge/ChainB.sol\":8672:8676  dTok */\n      dup5\n      swap1\n        /* \"contracts/p2p/bridge/ChainB.sol\":8629:8677  VR_d.development.wkekAmountOwed += uint256(dTok) */\n      tag_184\n      jump\t// in\n    tag_216:\n      swap1\n      swap2\n      sstore\n      pop\n        /* \"contracts/p2p/bridge/ChainB.sol\":8702:8706  true */\n      0x01\n      swap6\n      pop\n      pop\n        /* \"contracts/p2p/bridge/ChainB.sol\":8382:8765  try IWRAP(WageKEK).deposit{value: ETH_liquidity}() {... */\n    tag_211:\n        /* \"contracts/p2p/bridge/ChainB.sol\":8793:8797  true */\n      0x01\n        /* \"contracts/p2p/bridge/ChainB.sol\":8781:8797  successA == true */\n      dup6\n      iszero\n      iszero\n      eq\n        /* \"contracts/p2p/bridge/ChainB.sol\":8774:8798  assert(successA == true) */\n      tag_218\n      jumpi\n      tag_218\n      tag_143\n      jump\t// in\n    tag_218:\n        /* \"contracts/p2p/bridge/ChainB.sol\":8813:8855  TokenizeWETH(address(this), ETH_liquidity) */\n      mload(0x40)\n        /* \"#utility.yul\":4550:4575   */\n      dup9\n      dup2\n      mstore\n        /* \"contracts/p2p/bridge/ChainB.sol\":8834:8838  this */\n      address\n      swap1\n        /* \"contracts/p2p/bridge/ChainB.sol\":8813:8855  TokenizeWETH(address(this), ETH_liquidity) */\n      0x04611f1757844fdc2d4237a951583ca101c93f843bdc2d91a0e3fcf1d7a64cd2\n      swap1\n        /* \"#utility.yul\":4538:4540   */\n      0x20\n        /* \"#utility.yul\":4523:4541   */\n      add\n        /* \"contracts/p2p/bridge/ChainB.sol\":8813:8855  TokenizeWETH(address(this), ETH_liquidity) */\n      mload(0x40)\n      dup1\n      swap2\n      sub\n      swap1\n      log2\n        /* \"contracts/p2p/bridge/ChainB.sol\":7792:8862  {... */\n      pop\n      pop\n      pop\n      pop\n      pop\n      pop\n      pop\n      pop\n      pop\n      pop\n        /* \"contracts/p2p/bridge/ChainB.sol\":7744:8862  function tokenizeWETH() public virtual override {... */\n      jump\t// out\n        /* \"contracts/p2p/bridge/ChainB.sol\":13859:14282  function setShards(... */\n    tag_72:\n        /* \"contracts/p2p/bridge/auth/iAuth_ChainB.sol\":457:483  isAuthorized(_msgSender()) */\n      tag_222\n        /* \"contracts/p2p/bridge/interfaces/INTERFACES_ChainB.sol\":164:174  msg.sender */\n      caller\n        /* \"contracts/p2p/bridge/auth/iAuth_ChainB.sol\":457:469  isAuthorized */\n      tag_132\n        /* \"contracts/p2p/bridge/auth/iAuth_ChainB.sol\":457:483  isAuthorized(_msgSender()) */\n      jump\t// in\n    tag_222:\n        /* \"contracts/p2p/bridge/auth/iAuth_ChainB.sol\":449:484  require(isAuthorized(_msgSender())) */\n      tag_224\n      jumpi\n      0x00\n      dup1\n      revert\n    tag_224:\n        /* \"contracts/p2p/bridge/ChainB.sol\":14108:14112  8000 */\n      0x1f40\n        /* \"contracts/p2p/bridge/ChainB.sol\":14093:14095  _m */\n      dup5\n        /* \"contracts/p2p/bridge/ChainB.sol\":14085:14113  uint256(_m) <= uint256(8000) */\n      gt\n      iszero\n        /* \"contracts/p2p/bridge/ChainB.sol\":14077:14114  require(uint256(_m) <= uint256(8000)) */\n      tag_226\n      jumpi\n      0x00\n      dup1\n      revert\n    tag_226:\n        /* \"contracts/p2p/bridge/ChainB.sol\":14124:14146  teamDonationMultiplier */\n      0x06\n        /* \"contracts/p2p/bridge/ChainB.sol\":14124:14151  teamDonationMultiplier = _m */\n      swap4\n      swap1\n      swap4\n      sstore\n        /* \"contracts/p2p/bridge/ChainB.sol\":14161:14176  bridgeMaxAmount */\n      0x11\n        /* \"contracts/p2p/bridge/ChainB.sol\":14161:14186  bridgeMaxAmount = bMaxAmt */\n      swap3\n      swap1\n      swap3\n      sstore\n        /* \"contracts/p2p/bridge/ChainB.sol\":14196:14204  tokenFee */\n      0x12\n        /* \"contracts/p2p/bridge/ChainB.sol\":14196:14211  tokenFee = tFee */\n      dup1\n      sload\n      not(0xff)\n      and\n      swap2\n      iszero\n      iszero\n      swap2\n      swap1\n      swap2\n      or\n      swap1\n      sstore\n        /* \"contracts/p2p/bridge/ChainB.sol\":14221:14225  tFEE */\n      0x10\n        /* \"contracts/p2p/bridge/ChainB.sol\":14221:14233  tFEE = txFEE */\n      sstore\n        /* \"contracts/p2p/bridge/ChainB.sol\":14243:14247  WKEK */\n      0x09\n        /* \"contracts/p2p/bridge/ChainB.sol\":14243:14255  WKEK = iWKEK */\n      dup1\n      sload\n      not(sub(shl(0xa0, 0x01), 0x01))\n      swap1\n      dup2\n      and\n      sub(shl(0xa0, 0x01), 0x01)\n      swap4\n      dup5\n      and\n      or\n      swap1\n      swap2\n      sstore\n      0x08\n        /* \"contracts/p2p/bridge/ChainB.sol\":14265:14275  KEK = iKEK */\n      dup1\n      sload\n      swap1\n      swap2\n      and\n      swap3\n      swap1\n      swap2\n      and\n      swap2\n      swap1\n      swap2\n      or\n      swap1\n      sstore\n        /* \"contracts/p2p/bridge/ChainB.sol\":13859:14282  function setShards(... */\n      jump\t// out\n        /* \"contracts/p2p/bridge/ChainB.sol\":10318:12052  function withdrawToken(address token) public virtual override {... */\n    tag_77:\n        /* \"contracts/p2p/bridge/ChainB.sol\":10432:10442  _community */\n      sload(0x03)\n      sub(shl(0xa0, 0x01), 0x01)\n      swap1\n      dup2\n      and\n        /* \"contracts/p2p/bridge/ChainB.sol\":10390:10408  Vault storage VR_c */\n      0x00\n        /* \"contracts/p2p/bridge/ChainB.sol\":10411:10444  vaultRecords[address(_community)] */\n      swap1\n      dup2\n      mstore\n        /* \"contracts/p2p/bridge/ChainB.sol\":10411:10423  vaultRecords */\n      0x0c\n        /* \"contracts/p2p/bridge/ChainB.sol\":10411:10444  vaultRecords[address(_community)] */\n      0x20\n      mstore\n      0x40\n      dup1\n      dup3\n      keccak256\n        /* \"contracts/p2p/bridge/ChainB.sol\":10496:10508  _development */\n      sload(0x02)\n      dup5\n      and\n        /* \"contracts/p2p/bridge/ChainB.sol\":10475:10510  vaultRecords[address(_development)] */\n      dup4\n      mstore\n      dup2\n      dup4\n      keccak256\n        /* \"contracts/p2p/bridge/ChainB.sol\":10567:10605  IERC20(token).balanceOf(address(this)) */\n      swap2\n      mload\n      shl(0xe0, 0x70a08231)\n      dup2\n      mstore\n        /* \"contracts/p2p/bridge/ChainB.sol\":10411:10444  vaultRecords[address(_community)] */\n      swap1\n      swap4\n        /* \"contracts/p2p/bridge/ChainB.sol\":10475:10510  vaultRecords[address(_development)] */\n      swap2\n      swap3\n        /* \"contracts/p2p/bridge/ChainB.sol\":10390:10408  Vault storage VR_c */\n      swap2\n        /* \"contracts/p2p/bridge/ChainB.sol\":10567:10590  IERC20(token).balanceOf */\n      dup6\n      and\n      swap1\n      0x70a08231\n      swap1\n        /* \"contracts/p2p/bridge/ChainB.sol\":10567:10605  IERC20(token).balanceOf(address(this)) */\n      tag_228\n      swap1\n        /* \"contracts/p2p/bridge/ChainB.sol\":10599:10603  this */\n      address\n      swap1\n        /* \"contracts/p2p/bridge/ChainB.sol\":10567:10605  IERC20(token).balanceOf(address(this)) */\n      0x04\n      add\n      tag_49\n      jump\t// in\n    tag_228:\n      0x20\n      mload(0x40)\n      dup1\n      dup4\n      sub\n      dup2\n      dup7\n      gas\n      staticcall\n      iszero\n      dup1\n      iszero\n      tag_230\n      jumpi\n      returndatasize\n      0x00\n      dup1\n      returndatacopy\n      revert(0x00, returndatasize)\n    tag_230:\n      pop\n      pop\n      pop\n      pop\n      mload(0x40)\n      returndatasize\n      not(0x1f)\n      0x1f\n      dup3\n      add\n      and\n      dup3\n      add\n      dup1\n      0x40\n      mstore\n      pop\n      dup2\n      add\n      swap1\n      tag_231\n      swap2\n      swap1\n      tag_164\n      jump\t// in\n    tag_231:\n        /* \"contracts/p2p/bridge/ChainB.sol\":10520:10615  uint256 Token_liquidity = uint256(... */\n      swap1\n      pop\n        /* \"contracts/p2p/bridge/ChainB.sol\":10628:10640  uint256 cliq */\n      0x00\n        /* \"contracts/p2p/bridge/ChainB.sol\":10642:10654  uint256 dliq */\n      dup1\n        /* \"contracts/p2p/bridge/ChainB.sol\":10658:10680  split(Token_liquidity) */\n      tag_232\n        /* \"contracts/p2p/bridge/ChainB.sol\":10664:10679  Token_liquidity */\n      dup4\n        /* \"contracts/p2p/bridge/ChainB.sol\":10658:10663  split */\n      tag_196\n        /* \"contracts/p2p/bridge/ChainB.sol\":10658:10680  split(Token_liquidity) */\n      jump\t// in\n    tag_232:\n        /* \"contracts/p2p/bridge/ChainB.sol\":10762:10800  IERC20(token).balanceOf(address(this)) */\n      mload(0x40)\n      shl(0xe0, 0x70a08231)\n      dup2\n      mstore\n        /* \"contracts/p2p/bridge/ChainB.sol\":10625:10680  (, uint256 cliq, uint256 dliq) = split(Token_liquidity) */\n      swap2\n      swap5\n      pop\n      swap3\n      pop\n      dup4\n      swap2\n      pop\n      dup3\n      swap1\n        /* \"contracts/p2p/bridge/ChainB.sol\":10690:10702  uint256 cTok */\n      0x00\n      swap1\n      sub(shl(0xa0, 0x01), 0x01)\n        /* \"contracts/p2p/bridge/ChainB.sol\":10762:10785  IERC20(token).balanceOf */\n      dup11\n      and\n      swap1\n      0x70a08231\n      swap1\n        /* \"contracts/p2p/bridge/ChainB.sol\":10762:10800  IERC20(token).balanceOf(address(this)) */\n      tag_233\n      swap1\n        /* \"contracts/p2p/bridge/ChainB.sol\":10794:10798  this */\n      address\n      swap1\n        /* \"contracts/p2p/bridge/ChainB.sol\":10762:10800  IERC20(token).balanceOf(address(this)) */\n      0x04\n      add\n      tag_49\n      jump\t// in\n    tag_233:\n      0x20\n      mload(0x40)\n      dup1\n      dup4\n      sub\n      dup2\n      dup7\n      gas\n      staticcall\n      iszero\n      dup1\n      iszero\n      tag_235\n      jumpi\n      returndatasize\n      0x00\n      dup1\n      returndatacopy\n      revert(0x00, returndatasize)\n    tag_235:\n      pop\n      pop\n      pop\n      pop\n      mload(0x40)\n      returndatasize\n      not(0x1f)\n      0x1f\n      dup3\n      add\n      and\n      dup3\n      add\n      dup1\n      0x40\n      mstore\n      pop\n      dup2\n      add\n      swap1\n      tag_236\n      swap2\n      swap1\n      tag_164\n      jump\t// in\n    tag_236:\n        /* \"contracts/p2p/bridge/ChainB.sol\":10748:10800  uint256 sTb = IERC20(token).balanceOf(address(this)) */\n      swap1\n      pop\n        /* \"contracts/p2p/bridge/ChainB.sol\":10818:10842  synced(sTb, token, true) */\n      tag_237\n        /* \"contracts/p2p/bridge/ChainB.sol\":10825:10828  sTb */\n      dup2\n        /* \"contracts/p2p/bridge/ChainB.sol\":10830:10835  token */\n      dup11\n        /* \"contracts/p2p/bridge/ChainB.sol\":10837:10841  true */\n      0x01\n        /* \"contracts/p2p/bridge/ChainB.sol\":10818:10824  synced */\n      tag_181\n        /* \"contracts/p2p/bridge/ChainB.sol\":10818:10842  synced(sTb, token, true) */\n      jump\t// in\n    tag_237:\n        /* \"contracts/p2p/bridge/ChainB.sol\":10818:10850  synced(sTb, token, true) == true */\n      iszero\n      iszero\n        /* \"contracts/p2p/bridge/ChainB.sol\":10846:10850  true */\n      0x01\n        /* \"contracts/p2p/bridge/ChainB.sol\":10818:10850  synced(sTb, token, true) == true */\n      eq\n        /* \"contracts/p2p/bridge/ChainB.sol\":10810:10851  require(synced(sTb, token, true) == true) */\n      tag_238\n      jumpi\n      0x00\n      dup1\n      revert\n    tag_238:\n        /* \"contracts/p2p/bridge/ChainB.sol\":10891:10895  WKEK */\n      sload(0x09)\n      sub(shl(0xa0, 0x01), 0x01)\n      swap1\n      dup2\n      and\n        /* \"contracts/p2p/bridge/ChainB.sol\":10865:10896  address(token) == address(WKEK) */\n      swap1\n      dup11\n      and\n      sub\n        /* \"contracts/p2p/bridge/ChainB.sol\":10861:11970  if (address(token) == address(WKEK)) {... */\n      tag_239\n      jumpi\n        /* \"contracts/p2p/bridge/ChainB.sol\":10953:10957  cTok */\n      dup3\n        /* \"contracts/p2p/bridge/ChainB.sol\":10912:10916  VR_c */\n      dup9\n        /* \"contracts/p2p/bridge/ChainB.sol\":10912:10926  VR_c.community */\n      0x00\n      add\n        /* \"contracts/p2p/bridge/ChainB.sol\":10912:10941  VR_c.community.wkekAmountOwed */\n      0x04\n      add\n      0x00\n        /* \"contracts/p2p/bridge/ChainB.sol\":10912:10958  VR_c.community.wkekAmountOwed -= uint256(cTok) */\n      dup3\n      dup3\n      sload\n      tag_240\n      swap2\n      swap1\n      tag_213\n      jump\t// in\n    tag_240:\n      swap1\n      swap2\n      sstore\n      pop\n      pop\n        /* \"contracts/p2p/bridge/ChainB.sol\":10972:11003  VR_d.development.wkekAmountOwed */\n      0x0c\n      dup8\n      add\n        /* \"contracts/p2p/bridge/ChainB.sol\":10972:11020  VR_d.development.wkekAmountOwed -= uint256(dTok) */\n      dup1\n      sload\n        /* \"contracts/p2p/bridge/ChainB.sol\":11015:11019  dTok */\n      dup4\n      swap2\n        /* \"contracts/p2p/bridge/ChainB.sol\":10972:11003  VR_d.development.wkekAmountOwed */\n      swap1\n      0x00\n      swap1\n        /* \"contracts/p2p/bridge/ChainB.sol\":10972:11020  VR_d.development.wkekAmountOwed -= uint256(dTok) */\n      tag_241\n      swap1\n        /* \"contracts/p2p/bridge/ChainB.sol\":11015:11019  dTok */\n      dup5\n      swap1\n        /* \"contracts/p2p/bridge/ChainB.sol\":10972:11020  VR_d.development.wkekAmountOwed -= uint256(dTok) */\n      tag_213\n      jump\t// in\n    tag_241:\n      swap1\n      swap2\n      sstore\n      pop\n      pop\n        /* \"contracts/p2p/bridge/ChainB.sol\":11034:11065  VR_c.community.tokenAmountDrawn */\n      0x06\n      dup9\n      add\n        /* \"contracts/p2p/bridge/ChainB.sol\":11034:11082  VR_c.community.tokenAmountDrawn += uint256(cliq) */\n      dup1\n      sload\n        /* \"contracts/p2p/bridge/ChainB.sol\":11077:11081  cliq */\n      dup7\n      swap2\n        /* \"contracts/p2p/bridge/ChainB.sol\":11034:11065  VR_c.community.tokenAmountDrawn */\n      swap1\n        /* \"contracts/p2p/bridge/ChainB.sol\":11034:11048  VR_c.community */\n      0x00\n      swap1\n        /* \"contracts/p2p/bridge/ChainB.sol\":11034:11082  VR_c.community.tokenAmountDrawn += uint256(cliq) */\n      tag_242\n      swap1\n        /* \"contracts/p2p/bridge/ChainB.sol\":11077:11081  cliq */\n      dup5\n      swap1\n        /* \"contracts/p2p/bridge/ChainB.sol\":11034:11082  VR_c.community.tokenAmountDrawn += uint256(cliq) */\n      tag_184\n      jump\t// in\n    tag_242:\n      swap1\n      swap2\n      sstore\n      pop\n      pop\n        /* \"contracts/p2p/bridge/ChainB.sol\":11096:11129  VR_d.development.tokenAmountDrawn */\n      0x0e\n      dup8\n      add\n        /* \"contracts/p2p/bridge/ChainB.sol\":11096:11146  VR_d.development.tokenAmountDrawn += uint256(dliq) */\n      dup1\n      sload\n        /* \"contracts/p2p/bridge/ChainB.sol\":11141:11145  dliq */\n      dup6\n      swap2\n        /* \"contracts/p2p/bridge/ChainB.sol\":11096:11129  VR_d.development.tokenAmountDrawn */\n      swap1\n      0x00\n      swap1\n        /* \"contracts/p2p/bridge/ChainB.sol\":11096:11146  VR_d.development.tokenAmountDrawn += uint256(dliq) */\n      tag_243\n      swap1\n        /* \"contracts/p2p/bridge/ChainB.sol\":11141:11145  dliq */\n      dup5\n      swap1\n        /* \"contracts/p2p/bridge/ChainB.sol\":11096:11146  VR_d.development.tokenAmountDrawn += uint256(dliq) */\n      tag_184\n      jump\t// in\n    tag_243:\n      swap1\n      swap2\n      sstore\n      pop\n      pop\n        /* \"contracts/p2p/bridge/ChainB.sol\":11167:11171  WKEK */\n      sload(0x09)\n        /* \"contracts/p2p/bridge/ChainB.sol\":11190:11200  _community */\n      sload(0x03)\n        /* \"contracts/p2p/bridge/ChainB.sol\":11160:11208  IERC20(WKEK).transfer(payable(_community), cliq) */\n      mload(0x40)\n      shl(0xe0, 0xa9059cbb)\n      dup2\n      mstore\n      sub(shl(0xa0, 0x01), 0x01)\n        /* \"contracts/p2p/bridge/ChainB.sol\":11167:11171  WKEK */\n      swap3\n      dup4\n      and\n      swap3\n        /* \"contracts/p2p/bridge/ChainB.sol\":11160:11181  IERC20(WKEK).transfer */\n      0xa9059cbb\n      swap3\n        /* \"contracts/p2p/bridge/ChainB.sol\":11160:11208  IERC20(WKEK).transfer(payable(_community), cliq) */\n      tag_244\n      swap3\n        /* \"contracts/p2p/bridge/ChainB.sol\":11190:11200  _community */\n      swap2\n      and\n      swap1\n        /* \"contracts/p2p/bridge/ChainB.sol\":11203:11207  cliq */\n      dup10\n      swap1\n        /* \"contracts/p2p/bridge/ChainB.sol\":11160:11208  IERC20(WKEK).transfer(payable(_community), cliq) */\n      0x04\n      add\n      tag_245\n      jump\t// in\n    tag_244:\n      0x20\n      mload(0x40)\n      dup1\n      dup4\n      sub\n      dup2\n      0x00\n      dup8\n      gas\n      call\n      iszero\n      dup1\n      iszero\n      tag_247\n      jumpi\n      returndatasize\n      0x00\n      dup1\n      returndatacopy\n      revert(0x00, returndatasize)\n    tag_247:\n      pop\n      pop\n      pop\n      pop\n      mload(0x40)\n      returndatasize\n      not(0x1f)\n      0x1f\n      dup3\n      add\n      and\n      dup3\n      add\n      dup1\n      0x40\n      mstore\n      pop\n      dup2\n      add\n      swap1\n      tag_248\n      swap2\n      swap1\n      tag_249\n      jump\t// in\n    tag_248:\n      pop\n        /* \"contracts/p2p/bridge/ChainB.sol\":11229:11233  WKEK */\n      sload(0x09)\n        /* \"contracts/p2p/bridge/ChainB.sol\":11252:11264  _development */\n      sload(0x02)\n        /* \"contracts/p2p/bridge/ChainB.sol\":11222:11272  IERC20(WKEK).transfer(payable(_development), dliq) */\n      mload(0x40)\n      shl(0xe0, 0xa9059cbb)\n      dup2\n      mstore\n      sub(shl(0xa0, 0x01), 0x01)\n        /* \"contracts/p2p/bridge/ChainB.sol\":11229:11233  WKEK */\n      swap3\n      dup4\n      and\n      swap3\n        /* \"contracts/p2p/bridge/ChainB.sol\":11222:11243  IERC20(WKEK).transfer */\n      0xa9059cbb\n      swap3\n        /* \"contracts/p2p/bridge/ChainB.sol\":11222:11272  IERC20(WKEK).transfer(payable(_development), dliq) */\n      tag_250\n      swap3\n        /* \"contracts/p2p/bridge/ChainB.sol\":11252:11264  _development */\n      swap2\n      and\n      swap1\n        /* \"contracts/p2p/bridge/ChainB.sol\":11267:11271  dliq */\n      dup9\n      swap1\n        /* \"contracts/p2p/bridge/ChainB.sol\":11222:11272  IERC20(WKEK).transfer(payable(_development), dliq) */\n      0x04\n      add\n      tag_245\n      jump\t// in\n    tag_250:\n      0x20\n      mload(0x40)\n      dup1\n      dup4\n      sub\n      dup2\n      0x00\n      dup8\n      gas\n      call\n      iszero\n      dup1\n      iszero\n      tag_252\n      jumpi\n      returndatasize\n      0x00\n      dup1\n      returndatacopy\n      revert(0x00, returndatasize)\n    tag_252:\n      pop\n      pop\n      pop\n      pop\n      mload(0x40)\n      returndatasize\n      not(0x1f)\n      0x1f\n      dup3\n      add\n      and\n      dup3\n      add\n      dup1\n      0x40\n      mstore\n      pop\n      dup2\n      add\n      swap1\n      tag_253\n      swap2\n      swap1\n      tag_249\n      jump\t// in\n    tag_253:\n      pop\n        /* \"contracts/p2p/bridge/ChainB.sol\":10861:11970  if (address(token) == address(WKEK)) {... */\n      jump(tag_269)\n    tag_239:\n        /* \"contracts/p2p/bridge/ChainB.sol\":11319:11322  KEK */\n      sload(0x08)\n      sub(shl(0xa0, 0x01), 0x01)\n        /* \"contracts/p2p/bridge/ChainB.sol\":11293:11323  address(token) == address(KEK) */\n      dup11\n      dup2\n      and\n        /* \"contracts/p2p/bridge/ChainB.sol\":11319:11322  KEK */\n      swap2\n      and\n        /* \"contracts/p2p/bridge/ChainB.sol\":11293:11323  address(token) == address(KEK) */\n      eq\n        /* \"contracts/p2p/bridge/ChainB.sol\":11293:11343  address(token) == address(KEK) && tokenFee == true */\n      dup1\n      iszero\n      tag_255\n      jumpi\n      pop\n        /* \"contracts/p2p/bridge/ChainB.sol\":11327:11335  tokenFee */\n      and(0xff, sload(0x12))\n        /* \"contracts/p2p/bridge/ChainB.sol\":11327:11343  tokenFee == true */\n      iszero\n      iszero\n        /* \"contracts/p2p/bridge/ChainB.sol\":11327:11335  tokenFee */\n      0x01\n        /* \"contracts/p2p/bridge/ChainB.sol\":11327:11343  tokenFee == true */\n      eq\n        /* \"contracts/p2p/bridge/ChainB.sol\":11293:11343  address(token) == address(KEK) && tokenFee == true */\n    tag_255:\n        /* \"contracts/p2p/bridge/ChainB.sol\":11289:11970  if (address(token) == address(KEK) && tokenFee == true) {... */\n      iszero\n      tag_256\n      jumpi\n        /* \"contracts/p2p/bridge/ChainB.sol\":11401:11405  cTok */\n      dup3\n        /* \"contracts/p2p/bridge/ChainB.sol\":11359:11363  VR_c */\n      dup9\n        /* \"contracts/p2p/bridge/ChainB.sol\":11359:11373  VR_c.community */\n      0x00\n      add\n        /* \"contracts/p2p/bridge/ChainB.sol\":11359:11389  VR_c.community.tokenAmountOwed */\n      0x05\n      add\n      0x00\n        /* \"contracts/p2p/bridge/ChainB.sol\":11359:11406  VR_c.community.tokenAmountOwed -= uint256(cTok) */\n      dup3\n      dup3\n      sload\n      tag_257\n      swap2\n      swap1\n      tag_213\n      jump\t// in\n    tag_257:\n      swap1\n      swap2\n      sstore\n      pop\n      pop\n        /* \"contracts/p2p/bridge/ChainB.sol\":11420:11452  VR_d.development.tokenAmountOwed */\n      0x0d\n      dup8\n      add\n        /* \"contracts/p2p/bridge/ChainB.sol\":11420:11469  VR_d.development.tokenAmountOwed -= uint256(dTok) */\n      dup1\n      sload\n        /* \"contracts/p2p/bridge/ChainB.sol\":11464:11468  dTok */\n      dup4\n      swap2\n        /* \"contracts/p2p/bridge/ChainB.sol\":11420:11452  VR_d.development.tokenAmountOwed */\n      swap1\n      0x00\n      swap1\n        /* \"contracts/p2p/bridge/ChainB.sol\":11420:11469  VR_d.development.tokenAmountOwed -= uint256(dTok) */\n      tag_258\n      swap1\n        /* \"contracts/p2p/bridge/ChainB.sol\":11464:11468  dTok */\n      dup5\n      swap1\n        /* \"contracts/p2p/bridge/ChainB.sol\":11420:11469  VR_d.development.tokenAmountOwed -= uint256(dTok) */\n      tag_213\n      jump\t// in\n    tag_258:\n      swap1\n      swap2\n      sstore\n      pop\n      pop\n        /* \"contracts/p2p/bridge/ChainB.sol\":11483:11514  VR_c.community.tokenAmountDrawn */\n      0x06\n      dup9\n      add\n        /* \"contracts/p2p/bridge/ChainB.sol\":11483:11531  VR_c.community.tokenAmountDrawn += uint256(cliq) */\n      dup1\n      sload\n        /* \"contracts/p2p/bridge/ChainB.sol\":11526:11530  cliq */\n      dup7\n      swap2\n        /* \"contracts/p2p/bridge/ChainB.sol\":11483:11514  VR_c.community.tokenAmountDrawn */\n      swap1\n        /* \"contracts/p2p/bridge/ChainB.sol\":11483:11497  VR_c.community */\n      0x00\n      swap1\n        /* \"contracts/p2p/bridge/ChainB.sol\":11483:11531  VR_c.community.tokenAmountDrawn += uint256(cliq) */\n      tag_259\n      swap1\n        /* \"contracts/p2p/bridge/ChainB.sol\":11526:11530  cliq */\n      dup5\n      swap1\n        /* \"contracts/p2p/bridge/ChainB.sol\":11483:11531  VR_c.community.tokenAmountDrawn += uint256(cliq) */\n      tag_184\n      jump\t// in\n    tag_259:\n      swap1\n      swap2\n      sstore\n      pop\n      pop\n        /* \"contracts/p2p/bridge/ChainB.sol\":11545:11578  VR_d.development.tokenAmountDrawn */\n      0x0e\n      dup8\n      add\n        /* \"contracts/p2p/bridge/ChainB.sol\":11545:11595  VR_d.development.tokenAmountDrawn += uint256(dliq) */\n      dup1\n      sload\n        /* \"contracts/p2p/bridge/ChainB.sol\":11590:11594  dliq */\n      dup6\n      swap2\n        /* \"contracts/p2p/bridge/ChainB.sol\":11545:11578  VR_d.development.tokenAmountDrawn */\n      swap1\n      0x00\n      swap1\n        /* \"contracts/p2p/bridge/ChainB.sol\":11545:11595  VR_d.development.tokenAmountDrawn += uint256(dliq) */\n      tag_260\n      swap1\n        /* \"contracts/p2p/bridge/ChainB.sol\":11590:11594  dliq */\n      dup5\n      swap1\n        /* \"contracts/p2p/bridge/ChainB.sol\":11545:11595  VR_d.development.tokenAmountDrawn += uint256(dliq) */\n      tag_184\n      jump\t// in\n    tag_260:\n      swap1\n      swap2\n      sstore\n      pop\n      pop\n        /* \"contracts/p2p/bridge/ChainB.sol\":11640:11650  _community */\n      sload(0x03)\n        /* \"contracts/p2p/bridge/ChainB.sol\":11609:11658  IERC20(token).transfer(payable(_community), cliq) */\n      mload(0x40)\n      shl(0xe0, 0xa9059cbb)\n      dup2\n      mstore\n      sub(shl(0xa0, 0x01), 0x01)\n        /* \"contracts/p2p/bridge/ChainB.sol\":11609:11631  IERC20(token).transfer */\n      dup12\n      dup2\n      and\n      swap3\n      0xa9059cbb\n      swap3\n        /* \"contracts/p2p/bridge/ChainB.sol\":11609:11658  IERC20(token).transfer(payable(_community), cliq) */\n      tag_261\n      swap3\n        /* \"contracts/p2p/bridge/ChainB.sol\":11640:11650  _community */\n      swap1\n      swap2\n      and\n      swap1\n        /* \"contracts/p2p/bridge/ChainB.sol\":11653:11657  cliq */\n      dup10\n      swap1\n        /* \"contracts/p2p/bridge/ChainB.sol\":11609:11658  IERC20(token).transfer(payable(_community), cliq) */\n      0x04\n      add\n      tag_245\n      jump\t// in\n    tag_261:\n      0x20\n      mload(0x40)\n      dup1\n      dup4\n      sub\n      dup2\n      0x00\n      dup8\n      gas\n      call\n      iszero\n      dup1\n      iszero\n      tag_263\n      jumpi\n      returndatasize\n      0x00\n      dup1\n      returndatacopy\n      revert(0x00, returndatasize)\n    tag_263:\n      pop\n      pop\n      pop\n      pop\n      mload(0x40)\n      returndatasize\n      not(0x1f)\n      0x1f\n      dup3\n      add\n      and\n      dup3\n      add\n      dup1\n      0x40\n      mstore\n      pop\n      dup2\n      add\n      swap1\n      tag_264\n      swap2\n      swap1\n      tag_249\n      jump\t// in\n    tag_264:\n      pop\n        /* \"contracts/p2p/bridge/ChainB.sol\":11703:11715  _development */\n      sload(0x02)\n        /* \"contracts/p2p/bridge/ChainB.sol\":11672:11723  IERC20(token).transfer(payable(_development), dliq) */\n      mload(0x40)\n      shl(0xe0, 0xa9059cbb)\n      dup2\n      mstore\n      sub(shl(0xa0, 0x01), 0x01)\n        /* \"contracts/p2p/bridge/ChainB.sol\":11672:11694  IERC20(token).transfer */\n      dup12\n      dup2\n      and\n      swap3\n      0xa9059cbb\n      swap3\n        /* \"contracts/p2p/bridge/ChainB.sol\":11672:11723  IERC20(token).transfer(payable(_development), dliq) */\n      tag_250\n      swap3\n        /* \"contracts/p2p/bridge/ChainB.sol\":11703:11715  _development */\n      swap1\n      swap2\n      and\n      swap1\n        /* \"contracts/p2p/bridge/ChainB.sol\":11718:11722  dliq */\n      dup9\n      swap1\n        /* \"contracts/p2p/bridge/ChainB.sol\":11672:11723  IERC20(token).transfer(payable(_development), dliq) */\n      0x04\n      add\n      tag_245\n      jump\t// in\n        /* \"contracts/p2p/bridge/ChainB.sol\":11289:11970  if (address(token) == address(KEK) && tokenFee == true) {... */\n    tag_256:\n        /* \"contracts/p2p/bridge/ChainB.sol\":11796:11811  Token_liquidity */\n      dup6\n        /* \"contracts/p2p/bridge/ChainB.sol\":11754:11758  VR_c */\n      dup9\n        /* \"contracts/p2p/bridge/ChainB.sol\":11754:11768  VR_c.community */\n      0x00\n      add\n        /* \"contracts/p2p/bridge/ChainB.sol\":11754:11784  VR_c.community.tokenAmountOwed */\n      0x05\n      add\n      0x00\n        /* \"contracts/p2p/bridge/ChainB.sol\":11754:11812  VR_c.community.tokenAmountOwed -= uint256(Token_liquidity) */\n      dup3\n      dup3\n      sload\n      tag_270\n      swap2\n      swap1\n      tag_213\n      jump\t// in\n    tag_270:\n      swap1\n      swap2\n      sstore\n      pop\n      pop\n        /* \"contracts/p2p/bridge/ChainB.sol\":11826:11857  VR_c.community.tokenAmountDrawn */\n      0x06\n      dup9\n      add\n        /* \"contracts/p2p/bridge/ChainB.sol\":11826:11885  VR_c.community.tokenAmountDrawn += uint256(Token_liquidity) */\n      dup1\n      sload\n        /* \"contracts/p2p/bridge/ChainB.sol\":11869:11884  Token_liquidity */\n      dup8\n      swap2\n        /* \"contracts/p2p/bridge/ChainB.sol\":11826:11857  VR_c.community.tokenAmountDrawn */\n      swap1\n        /* \"contracts/p2p/bridge/ChainB.sol\":11826:11840  VR_c.community */\n      0x00\n      swap1\n        /* \"contracts/p2p/bridge/ChainB.sol\":11826:11885  VR_c.community.tokenAmountDrawn += uint256(Token_liquidity) */\n      tag_271\n      swap1\n        /* \"contracts/p2p/bridge/ChainB.sol\":11869:11884  Token_liquidity */\n      dup5\n      swap1\n        /* \"contracts/p2p/bridge/ChainB.sol\":11826:11885  VR_c.community.tokenAmountDrawn += uint256(Token_liquidity) */\n      tag_184\n      jump\t// in\n    tag_271:\n      swap1\n      swap2\n      sstore\n      pop\n      pop\n        /* \"contracts/p2p/bridge/ChainB.sol\":11930:11940  _community */\n      sload(0x03)\n        /* \"contracts/p2p/bridge/ChainB.sol\":11899:11959  IERC20(token).transfer(payable(_community), Token_liquidity) */\n      mload(0x40)\n      shl(0xe0, 0xa9059cbb)\n      dup2\n      mstore\n      sub(shl(0xa0, 0x01), 0x01)\n        /* \"contracts/p2p/bridge/ChainB.sol\":11899:11921  IERC20(token).transfer */\n      dup12\n      dup2\n      and\n      swap3\n      0xa9059cbb\n      swap3\n        /* \"contracts/p2p/bridge/ChainB.sol\":11899:11959  IERC20(token).transfer(payable(_community), Token_liquidity) */\n      tag_272\n      swap3\n        /* \"contracts/p2p/bridge/ChainB.sol\":11930:11940  _community */\n      swap1\n      swap2\n      and\n      swap1\n        /* \"contracts/p2p/bridge/ChainB.sol\":11943:11958  Token_liquidity */\n      dup11\n      swap1\n        /* \"contracts/p2p/bridge/ChainB.sol\":11899:11959  IERC20(token).transfer(payable(_community), Token_liquidity) */\n      0x04\n      add\n      tag_245\n      jump\t// in\n    tag_272:\n      0x20\n      mload(0x40)\n      dup1\n      dup4\n      sub\n      dup2\n      0x00\n      dup8\n      gas\n      call\n      iszero\n      dup1\n      iszero\n      tag_274\n      jumpi\n      returndatasize\n      0x00\n      dup1\n      returndatacopy\n      revert(0x00, returndatasize)\n    tag_274:\n      pop\n      pop\n      pop\n      pop\n      mload(0x40)\n      returndatasize\n      not(0x1f)\n      0x1f\n      dup3\n      add\n      and\n      dup3\n      add\n      dup1\n      0x40\n      mstore\n      pop\n      dup2\n      add\n      swap1\n      tag_275\n      swap2\n      swap1\n      tag_249\n      jump\t// in\n    tag_275:\n      pop\n        /* \"contracts/p2p/bridge/ChainB.sol\":11289:11970  if (address(token) == address(KEK) && tokenFee == true) {... */\n    tag_269:\n        /* \"contracts/p2p/bridge/ChainB.sol\":11984:12045  WithdrawToken(address(this), address(token), Token_liquidity) */\n      mload(0x40)\n        /* \"#utility.yul\":4550:4575   */\n      dup7\n      dup2\n      mstore\n      sub(shl(0xa0, 0x01), 0x01)\n        /* \"contracts/p2p/bridge/ChainB.sol\":11984:12045  WithdrawToken(address(this), address(token), Token_liquidity) */\n      dup11\n      and\n      swap1\n        /* \"contracts/p2p/bridge/ChainB.sol\":12006:12010  this */\n      address\n      swap1\n        /* \"contracts/p2p/bridge/ChainB.sol\":11984:12045  WithdrawToken(address(this), address(token), Token_liquidity) */\n      0x037238854fe57fbf51f09946f854fc3916fe83938d6521f09bd05463839f1304\n      swap1\n        /* \"#utility.yul\":4538:4540   */\n      0x20\n        /* \"#utility.yul\":4523:4541   */\n      add\n        /* \"contracts/p2p/bridge/ChainB.sol\":11984:12045  WithdrawToken(address(this), address(token), Token_liquidity) */\n      mload(0x40)\n      dup1\n      swap2\n      sub\n      swap1\n      log3\n        /* \"contracts/p2p/bridge/ChainB.sol\":10380:12052  {... */\n      pop\n      pop\n      pop\n      pop\n      pop\n      pop\n      pop\n      pop\n        /* \"contracts/p2p/bridge/ChainB.sol\":10318:12052  function withdrawToken(address token) public virtual override {... */\n      pop\n      jump\t// out\n        /* \"contracts/p2p/bridge/auth/iAuth_ChainB.sol\":1106:1464  function transferAuthorization(address fromAddr, address toAddr)... */\n    tag_82:\n        /* \"contracts/p2p/bridge/auth/iAuth_ChainB.sol\":1238:1242  bool */\n      0x00\n        /* \"contracts/p2p/bridge/auth/iAuth_ChainB.sol\":457:483  isAuthorized(_msgSender()) */\n      tag_278\n        /* \"contracts/p2p/bridge/interfaces/INTERFACES_ChainB.sol\":164:174  msg.sender */\n      caller\n        /* \"contracts/p2p/bridge/auth/iAuth_ChainB.sol\":457:469  isAuthorized */\n      tag_132\n        /* \"contracts/p2p/bridge/auth/iAuth_ChainB.sol\":457:483  isAuthorized(_msgSender()) */\n      jump\t// in\n    tag_278:\n        /* \"contracts/p2p/bridge/auth/iAuth_ChainB.sol\":449:484  require(isAuthorized(_msgSender())) */\n      tag_280\n      jumpi\n      0x00\n      dup1\n      revert\n    tag_280:\n      sub(shl(0xa0, 0x01), 0x01)\n        /* \"contracts/p2p/bridge/auth/iAuth_ChainB.sol\":1266:1290  fromAddr == _msgSender() */\n      dup4\n      and\n        /* \"contracts/p2p/bridge/interfaces/INTERFACES_ChainB.sol\":164:174  msg.sender */\n      caller\n        /* \"contracts/p2p/bridge/auth/iAuth_ChainB.sol\":1266:1290  fromAddr == _msgSender() */\n      eq\n        /* \"contracts/p2p/bridge/auth/iAuth_ChainB.sol\":1258:1291  require(fromAddr == _msgSender()) */\n      tag_283\n      jumpi\n      0x00\n      dup1\n      revert\n    tag_283:\n        /* \"contracts/p2p/bridge/auth/iAuth_ChainB.sol\":1301:1317  bool transferred */\n      0x00\n        /* \"contracts/p2p/bridge/auth/iAuth_ChainB.sol\":1335:1361  authorize(address(toAddr)) */\n      tag_284\n        /* \"contracts/p2p/bridge/auth/iAuth_ChainB.sol\":1353:1359  toAddr */\n      dup4\n        /* \"contracts/p2p/bridge/auth/iAuth_ChainB.sol\":1335:1344  authorize */\n      tag_101\n        /* \"contracts/p2p/bridge/auth/iAuth_ChainB.sol\":1335:1361  authorize(address(toAddr)) */\n      jump\t// in\n    tag_284:\n        /* \"contracts/p2p/bridge/auth/iAuth_ChainB.sol\":1371:1401  unauthorize(address(fromAddr)) */\n      tag_285\n        /* \"contracts/p2p/bridge/auth/iAuth_ChainB.sol\":1391:1399  fromAddr */\n      dup5\n        /* \"contracts/p2p/bridge/auth/iAuth_ChainB.sol\":1371:1382  unauthorize */\n      tag_117\n        /* \"contracts/p2p/bridge/auth/iAuth_ChainB.sol\":1371:1401  unauthorize(address(fromAddr)) */\n      jump\t// in\n    tag_285:\n      pop\n        /* \"contracts/p2p/bridge/auth/iAuth_ChainB.sol\":1425:1429  true */\n      0x01\n      swap4\n        /* \"contracts/p2p/bridge/auth/iAuth_ChainB.sol\":1106:1464  function transferAuthorization(address fromAddr, address toAddr)... */\n      swap3\n      pop\n      pop\n      pop\n      jump\t// out\n        /* \"contracts/p2p/bridge/ChainB.sol\":398:437  string public symbol = unicode\"☦🔑\" */\n    tag_86:\n      0x05\n      dup1\n      sload\n      tag_122\n      swap1\n      tag_123\n      jump\t// in\n        /* \"contracts/p2p/bridge/ChainB.sol\":4109:5579  function vaultDebt(address vault)... */\n    tag_95:\n        /* \"contracts/p2p/bridge/ChainB.sol\":4253:4260  uint256 */\n      0x00\n      dup1\n      dup1\n      dup1\n      dup1\n      dup1\n      dup1\n        /* \"contracts/p2p/bridge/auth/iAuth_ChainB.sol\":457:483  isAuthorized(_msgSender()) */\n      tag_292\n        /* \"contracts/p2p/bridge/interfaces/INTERFACES_ChainB.sol\":164:174  msg.sender */\n      caller\n        /* \"contracts/p2p/bridge/auth/iAuth_ChainB.sol\":457:469  isAuthorized */\n      tag_132\n        /* \"contracts/p2p/bridge/auth/iAuth_ChainB.sol\":457:483  isAuthorized(_msgSender()) */\n      jump\t// in\n    tag_292:\n        /* \"contracts/p2p/bridge/auth/iAuth_ChainB.sol\":449:484  require(isAuthorized(_msgSender())) */\n      tag_294\n      jumpi\n      0x00\n      dup1\n      revert\n    tag_294:\n      sub(shl(0xa0, 0x01), 0x01)\n        /* \"contracts/p2p/bridge/ChainB.sol\":4432:4460  vaultRecords[address(vault)] */\n      dup1\n      dup10\n      and\n        /* \"contracts/p2p/bridge/ChainB.sol\":4411:4429  Vault storage VR_v */\n      0x00\n        /* \"contracts/p2p/bridge/ChainB.sol\":4432:4460  vaultRecords[address(vault)] */\n      dup2\n      dup2\n      mstore\n        /* \"contracts/p2p/bridge/ChainB.sol\":4432:4444  vaultRecords */\n      0x0c\n        /* \"contracts/p2p/bridge/ChainB.sol\":4432:4460  vaultRecords[address(vault)] */\n      0x20\n      mstore\n      0x40\n      dup2\n      keccak256\n        /* \"contracts/p2p/bridge/ChainB.sol\":4617:4627  _community */\n      sload(0x03)\n        /* \"contracts/p2p/bridge/ChainB.sol\":4432:4460  vaultRecords[address(vault)] */\n      swap1\n      swap4\n        /* \"contracts/p2p/bridge/ChainB.sol\":4411:4429  Vault storage VR_v */\n      swap2\n      swap3\n      dup4\n      swap3\n      dup4\n      swap3\n      dup4\n      swap3\n      dup4\n      swap3\n        /* \"contracts/p2p/bridge/ChainB.sol\":4617:4627  _community */\n      swap2\n      swap1\n      swap2\n      and\n        /* \"contracts/p2p/bridge/ChainB.sol\":4591:4628  address(vault) == address(_community) */\n      swap1\n      sub\n        /* \"contracts/p2p/bridge/ChainB.sol\":4587:5498  if (address(vault) == address(_community)) {... */\n      tag_296\n      jumpi\n      pop\n      pop\n      pop\n        /* \"contracts/p2p/bridge/ChainB.sol\":4652:4681  VR_v.community.coinAmountOwed */\n      0x01\n      dup4\n      add\n      sload\n        /* \"contracts/p2p/bridge/ChainB.sol\":4703:4733  VR_v.community.tokenAmountOwed */\n      0x05\n      dup5\n      add\n      sload\n        /* \"contracts/p2p/bridge/ChainB.sol\":4755:4784  VR_v.community.wkekAmountOwed */\n      0x04\n      dup6\n      add\n      sload\n        /* \"contracts/p2p/bridge/ChainB.sol\":4807:4837  VR_v.community.coinAmountDrawn */\n      0x02\n      dup7\n      add\n      sload\n        /* \"contracts/p2p/bridge/ChainB.sol\":4860:4891  VR_v.community.tokenAmountDrawn */\n      0x06\n      dup8\n      add\n      sload\n        /* \"contracts/p2p/bridge/ChainB.sol\":4652:4681  VR_v.community.coinAmountOwed */\n      swap4\n      swap6\n      pop\n        /* \"contracts/p2p/bridge/ChainB.sol\":4703:4733  VR_v.community.tokenAmountOwed */\n      swap2\n      swap4\n      pop\n        /* \"contracts/p2p/bridge/ChainB.sol\":4755:4784  VR_v.community.wkekAmountOwed */\n      swap2\n        /* \"contracts/p2p/bridge/ChainB.sol\":4587:5498  if (address(vault) == address(_community)) {... */\n      jump(tag_299)\n    tag_296:\n        /* \"contracts/p2p/bridge/ChainB.sol\":4938:4950  _development */\n      sload(0x02)\n      sub(shl(0xa0, 0x01), 0x01)\n      swap1\n      dup2\n      and\n        /* \"contracts/p2p/bridge/ChainB.sol\":4912:4951  address(vault) == address(_development) */\n      swap1\n      dup16\n      and\n      sub\n        /* \"contracts/p2p/bridge/ChainB.sol\":4908:5498  if (address(vault) == address(_development)) {... */\n      tag_298\n      jumpi\n      pop\n      pop\n      pop\n        /* \"contracts/p2p/bridge/ChainB.sol\":4975:5006  VR_v.development.coinAmountOwed */\n      0x09\n      dup4\n      add\n      sload\n        /* \"contracts/p2p/bridge/ChainB.sol\":5028:5060  VR_v.development.tokenAmountOwed */\n      0x0d\n      dup5\n      add\n      sload\n        /* \"contracts/p2p/bridge/ChainB.sol\":5082:5113  VR_v.development.wkekAmountOwed */\n      0x0c\n      dup6\n      add\n      sload\n        /* \"contracts/p2p/bridge/ChainB.sol\":5136:5168  VR_v.development.coinAmountDrawn */\n      0x0a\n      dup7\n      add\n      sload\n        /* \"contracts/p2p/bridge/ChainB.sol\":5191:5224  VR_v.development.tokenAmountDrawn */\n      0x0e\n      dup8\n      add\n      sload\n        /* \"contracts/p2p/bridge/ChainB.sol\":4975:5006  VR_v.development.coinAmountOwed */\n      swap4\n      swap6\n      pop\n        /* \"contracts/p2p/bridge/ChainB.sol\":5028:5060  VR_v.development.tokenAmountOwed */\n      swap2\n      swap4\n      pop\n        /* \"contracts/p2p/bridge/ChainB.sol\":5082:5113  VR_v.development.wkekAmountOwed */\n      swap2\n        /* \"contracts/p2p/bridge/ChainB.sol\":4908:5498  if (address(vault) == address(_development)) {... */\n      jump(tag_299)\n    tag_298:\n      pop\n      pop\n      pop\n        /* \"contracts/p2p/bridge/ChainB.sol\":5263:5289  VR_v.member.coinAmountOwed */\n      0x11\n      dup4\n      add\n      sload\n        /* \"contracts/p2p/bridge/ChainB.sol\":5311:5338  VR_v.member.tokenAmountOwed */\n      0x15\n      dup5\n      add\n      sload\n        /* \"contracts/p2p/bridge/ChainB.sol\":5360:5386  VR_v.member.wkekAmountOwed */\n      0x14\n      dup6\n      add\n      sload\n        /* \"contracts/p2p/bridge/ChainB.sol\":5409:5436  VR_v.member.coinAmountDrawn */\n      0x12\n      dup7\n      add\n      sload\n        /* \"contracts/p2p/bridge/ChainB.sol\":5459:5487  VR_v.member.tokenAmountDrawn */\n      0x16\n      dup8\n      add\n      sload\n        /* \"contracts/p2p/bridge/ChainB.sol\":5263:5289  VR_v.member.coinAmountOwed */\n      swap4\n      swap6\n      pop\n        /* \"contracts/p2p/bridge/ChainB.sol\":5311:5338  VR_v.member.tokenAmountOwed */\n      swap2\n      swap4\n      pop\n        /* \"contracts/p2p/bridge/ChainB.sol\":5360:5386  VR_v.member.wkekAmountOwed */\n      swap2\n        /* \"contracts/p2p/bridge/ChainB.sol\":4908:5498  if (address(vault) == address(_development)) {... */\n    tag_299:\n        /* \"contracts/p2p/bridge/ChainB.sol\":5515:5523  coinAD_V */\n      sload(0x0d)\n        /* \"contracts/p2p/bridge/ChainB.sol\":5525:5534  tokenAD_V */\n      sload(0x0e)\n        /* \"contracts/p2p/bridge/ChainB.sol\":5515:5523  coinAD_V */\n      swap1\n      swap16\n        /* \"contracts/p2p/bridge/ChainB.sol\":5525:5534  tokenAD_V */\n      swap1\n      swap15\n      pop\n        /* \"contracts/p2p/bridge/ChainB.sol\":5536:5541  cOwed */\n      swap5\n      swap13\n      pop\n        /* \"contracts/p2p/bridge/ChainB.sol\":5543:5548  tOwed */\n      swap3\n      swap11\n      pop\n        /* \"contracts/p2p/bridge/ChainB.sol\":5550:5555  wOwed */\n      swap1\n      swap9\n      pop\n        /* \"contracts/p2p/bridge/ChainB.sol\":5543:5548  tOwed */\n      swap7\n      pop\n        /* \"contracts/p2p/bridge/ChainB.sol\":5536:5541  cOwed */\n      swap5\n      pop\n        /* \"contracts/p2p/bridge/ChainB.sol\":4109:5579  function vaultDebt(address vault)... */\n      swap3\n      pop\n      pop\n      pop\n      jump\t// out\n        /* \"contracts/p2p/bridge/auth/iAuth_ChainB.sol\":776:877  function authorize(address adr) public virtual authorized {... */\n    tag_101:\n        /* \"contracts/p2p/bridge/auth/iAuth_ChainB.sol\":457:483  isAuthorized(_msgSender()) */\n      tag_301\n        /* \"contracts/p2p/bridge/interfaces/INTERFACES_ChainB.sol\":164:174  msg.sender */\n      caller\n        /* \"contracts/p2p/bridge/auth/iAuth_ChainB.sol\":457:469  isAuthorized */\n      tag_132\n        /* \"contracts/p2p/bridge/auth/iAuth_ChainB.sol\":457:483  isAuthorized(_msgSender()) */\n      jump\t// in\n    tag_301:\n        /* \"contracts/p2p/bridge/auth/iAuth_ChainB.sol\":449:484  require(isAuthorized(_msgSender())) */\n      tag_303\n      jumpi\n      0x00\n      dup1\n      revert\n    tag_303:\n      sub(shl(0xa0, 0x01), 0x01)\n        /* \"contracts/p2p/bridge/auth/iAuth_ChainB.sol\":844:863  authorizations[adr] */\n      and\n      0x00\n      swap1\n      dup2\n      mstore\n        /* \"contracts/p2p/bridge/auth/iAuth_ChainB.sol\":866:870  true */\n      0x01\n        /* \"contracts/p2p/bridge/auth/iAuth_ChainB.sol\":844:863  authorizations[adr] */\n      0x20\n      dup2\n      swap1\n      mstore\n      0x40\n      swap1\n      swap2\n      keccak256\n        /* \"contracts/p2p/bridge/auth/iAuth_ChainB.sol\":844:870  authorizations[adr] = true */\n      dup1\n      sload\n      not(0xff)\n      and\n      swap1\n      swap2\n      or\n      swap1\n      sstore\n        /* \"contracts/p2p/bridge/auth/iAuth_ChainB.sol\":776:877  function authorize(address adr) public virtual authorized {... */\n      jump\t// out\n        /* \"contracts/p2p/bridge/ChainB.sol\":12058:13377  function transfer(... */\n    tag_106:\n        /* \"contracts/p2p/bridge/ChainB.sol\":12208:12212  bool */\n      0x00\n        /* \"contracts/p2p/bridge/auth/iAuth_ChainB.sol\":457:483  isAuthorized(_msgSender()) */\n      tag_306\n        /* \"contracts/p2p/bridge/interfaces/INTERFACES_ChainB.sol\":164:174  msg.sender */\n      caller\n        /* \"contracts/p2p/bridge/auth/iAuth_ChainB.sol\":457:469  isAuthorized */\n      tag_132\n        /* \"contracts/p2p/bridge/auth/iAuth_ChainB.sol\":457:483  isAuthorized(_msgSender()) */\n      jump\t// in\n    tag_306:\n        /* \"contracts/p2p/bridge/auth/iAuth_ChainB.sol\":449:484  require(isAuthorized(_msgSender())) */\n      tag_308\n      jumpi\n      0x00\n      dup1\n      revert\n    tag_308:\n        /* \"contracts/p2p/bridge/ChainB.sol\":12254:12264  _community */\n      sload(0x03)\n      sub(shl(0xa0, 0x01), 0x01)\n      swap1\n      dup2\n      and\n      swap1\n        /* \"contracts/p2p/bridge/ChainB.sol\":12282:12313  address(receiver) != address(0) */\n      dup4\n      and\n        /* \"contracts/p2p/bridge/ChainB.sol\":12275:12314  assert(address(receiver) != address(0)) */\n      tag_311\n      jumpi\n      tag_311\n      tag_143\n      jump\t// in\n    tag_311:\n        /* \"contracts/p2p/bridge/ChainB.sol\":12404:12414  _community */\n      sload(0x03)\n        /* \"contracts/p2p/bridge/ChainB.sol\":12346:12352  amount */\n      dup5\n      swap1\n        /* \"contracts/p2p/bridge/ChainB.sol\":12324:12343  uint256 amountDrawn */\n      0x00\n      swap1\n      sub(shl(0xa0, 0x01), 0x01)\n        /* \"contracts/p2p/bridge/ChainB.sol\":12396:12434  address(_community) == address(sender) */\n      dup1\n      dup10\n      and\n        /* \"contracts/p2p/bridge/ChainB.sol\":12404:12414  _community */\n      swap2\n      and\n        /* \"contracts/p2p/bridge/ChainB.sol\":12396:12434  address(_community) == address(sender) */\n      sub\n        /* \"contracts/p2p/bridge/ChainB.sol\":12392:13321  if (address(_community) == address(sender)) {... */\n      tag_312\n      jumpi\n        /* \"contracts/p2p/bridge/ChainB.sol\":12472:12480  receiver */\n      dup5\n        /* \"contracts/p2p/bridge/ChainB.sol\":12450:12481  _community_ = payable(receiver) */\n      swap3\n      pop\n        /* \"contracts/p2p/bridge/ChainB.sol\":12496:12505  bool safe */\n      0x00\n        /* \"contracts/p2p/bridge/ChainB.sol\":12519:12530  _community_ */\n      dup4\n      sub(shl(0xa0, 0x01), 0x01)\n        /* \"contracts/p2p/bridge/ChainB.sol\":12511:12536  payable(_community_).call */\n      and\n        /* \"contracts/p2p/bridge/ChainB.sol\":12544:12555  amountDrawn */\n      dup4\n        /* \"contracts/p2p/bridge/ChainB.sol\":12511:12560  payable(_community_).call{value: amountDrawn}(\"\") */\n      mload(0x40)\n      0x00\n      mload(0x40)\n      dup1\n      dup4\n      sub\n      dup2\n      dup6\n      dup8\n      gas\n      call\n      swap3\n      pop\n      pop\n      pop\n      returndatasize\n      dup1\n      0x00\n      dup2\n      eq\n      tag_316\n      jumpi\n      mload(0x40)\n      swap2\n      pop\n      and(add(returndatasize, 0x3f), not(0x1f))\n      dup3\n      add\n      0x40\n      mstore\n      returndatasize\n      dup3\n      mstore\n      returndatasize\n      0x00\n      0x20\n      dup5\n      add\n      returndatacopy\n      jump(tag_315)\n    tag_316:\n      0x60\n      swap2\n      pop\n    tag_315:\n      pop\n        /* \"contracts/p2p/bridge/ChainB.sol\":12495:12560  (bool safe, ) = payable(_community_).call{value: amountDrawn}(\"\") */\n      swap1\n      swap2\n      pop\n      pop\n        /* \"contracts/p2p/bridge/ChainB.sol\":12590:12594  true */\n      0x01\n        /* \"contracts/p2p/bridge/ChainB.sol\":12582:12594  safe == true */\n      dup2\n      iszero\n      iszero\n      eq\n        /* \"contracts/p2p/bridge/ChainB.sol\":12574:12595  require(safe == true) */\n      tag_317\n      jumpi\n      0x00\n      dup1\n      revert\n    tag_317:\n        /* \"contracts/p2p/bridge/ChainB.sol\":12619:12623  true */\n      0x01\n        /* \"contracts/p2p/bridge/ChainB.sol\":12609:12623  success = true */\n      swap2\n      pop\n        /* \"contracts/p2p/bridge/ChainB.sol\":12436:12634  {... */\n      pop\n        /* \"contracts/p2p/bridge/ChainB.sol\":12392:13321  if (address(_community) == address(sender)) {... */\n      jump(tag_341)\n    tag_312:\n        /* \"contracts/p2p/bridge/ChainB.sol\":12652:12664  _development */\n      sload(0x02)\n      sub(shl(0xa0, 0x01), 0x01)\n        /* \"contracts/p2p/bridge/ChainB.sol\":12644:12684  address(_development) == address(sender) */\n      dup1\n      dup10\n      and\n        /* \"contracts/p2p/bridge/ChainB.sol\":12652:12664  _development */\n      swap2\n      and\n        /* \"contracts/p2p/bridge/ChainB.sol\":12644:12684  address(_development) == address(sender) */\n      sub\n        /* \"contracts/p2p/bridge/ChainB.sol\":12640:13321  if (address(_development) == address(sender)) {... */\n      tag_319\n      jumpi\n        /* \"contracts/p2p/bridge/ChainB.sol\":12722:12730  receiver */\n      dup5\n        /* \"contracts/p2p/bridge/ChainB.sol\":12700:12731  _community_ = payable(receiver) */\n      swap3\n      pop\n        /* \"contracts/p2p/bridge/ChainB.sol\":12745:12757  uint256 hFee */\n      0x00\n        /* \"contracts/p2p/bridge/ChainB.sol\":12804:12809  10000 */\n      0x2710\n        /* \"contracts/p2p/bridge/ChainB.sol\":12787:12791  bFee */\n      sload(0x0f)\n        /* \"contracts/p2p/bridge/ChainB.sol\":12769:12775  amount */\n      dup9\n        /* \"contracts/p2p/bridge/ChainB.sol\":12761:12792  uint256(amount) * uint256(bFee) */\n      tag_320\n      swap2\n      swap1\n      tag_321\n      jump\t// in\n    tag_320:\n        /* \"contracts/p2p/bridge/ChainB.sol\":12760:12810  (uint256(amount) * uint256(bFee)) / uint256(10000) */\n      tag_322\n      swap2\n      swap1\n      tag_323\n      jump\t// in\n    tag_322:\n        /* \"contracts/p2p/bridge/ChainB.sol\":12745:12810  uint256 hFee = (uint256(amount) * uint256(bFee)) / uint256(10000) */\n      swap1\n      pop\n        /* \"contracts/p2p/bridge/ChainB.sol\":12824:12838  amount -= hFee */\n      tag_324\n        /* \"contracts/p2p/bridge/ChainB.sol\":12745:12810  uint256 hFee = (uint256(amount) * uint256(bFee)) / uint256(10000) */\n      dup2\n        /* \"contracts/p2p/bridge/ChainB.sol\":12824:12838  amount -= hFee */\n      dup9\n      tag_213\n      jump\t// in\n    tag_324:\n      swap7\n      pop\n        /* \"contracts/p2p/bridge/ChainB.sol\":12855:12867  uint256 cliq */\n      0x00\n        /* \"contracts/p2p/bridge/ChainB.sol\":12869:12881  uint256 dliq */\n      dup1\n        /* \"contracts/p2p/bridge/ChainB.sol\":12885:12896  split(hFee) */\n      tag_325\n        /* \"contracts/p2p/bridge/ChainB.sol\":12891:12895  hFee */\n      dup4\n        /* \"contracts/p2p/bridge/ChainB.sol\":12885:12890  split */\n      tag_196\n        /* \"contracts/p2p/bridge/ChainB.sol\":12885:12896  split(hFee) */\n      jump\t// in\n    tag_325:\n        /* \"contracts/p2p/bridge/ChainB.sol\":12852:12896  (, uint256 cliq, uint256 dliq) = split(hFee) */\n      swap3\n      pop\n      swap3\n      pop\n      pop\n        /* \"contracts/p2p/bridge/ChainB.sol\":12911:12924  bool successA */\n      0x00\n        /* \"contracts/p2p/bridge/ChainB.sol\":12938:12949  _community_ */\n      dup7\n      sub(shl(0xa0, 0x01), 0x01)\n        /* \"contracts/p2p/bridge/ChainB.sol\":12930:12955  payable(_community_).call */\n      and\n        /* \"contracts/p2p/bridge/ChainB.sol\":12963:12969  amount */\n      dup11\n        /* \"contracts/p2p/bridge/ChainB.sol\":12930:12974  payable(_community_).call{value: amount}(\"\") */\n      mload(0x40)\n      0x00\n      mload(0x40)\n      dup1\n      dup4\n      sub\n      dup2\n      dup6\n      dup8\n      gas\n      call\n      swap3\n      pop\n      pop\n      pop\n      returndatasize\n      dup1\n      0x00\n      dup2\n      eq\n      tag_329\n      jumpi\n      mload(0x40)\n      swap2\n      pop\n      and(add(returndatasize, 0x3f), not(0x1f))\n      dup3\n      add\n      0x40\n      mstore\n      returndatasize\n      dup3\n      mstore\n      returndatasize\n      0x00\n      0x20\n      dup5\n      add\n      returndatacopy\n      jump(tag_328)\n    tag_329:\n      0x60\n      swap2\n      pop\n    tag_328:\n      pop\n      pop\n        /* \"contracts/p2p/bridge/ChainB.sol\":13016:13026  _community */\n      sload(0x03)\n        /* \"contracts/p2p/bridge/ChainB.sol\":13008:13049  payable(_community).call{value: cliq}(\"\") */\n      mload(0x40)\n        /* \"contracts/p2p/bridge/ChainB.sol\":12910:12974  (bool successA, ) = payable(_community_).call{value: amount}(\"\") */\n      swap2\n      swap3\n      pop\n        /* \"contracts/p2p/bridge/ChainB.sol\":12989:13002  bool successB */\n      0x00\n      swap2\n      sub(shl(0xa0, 0x01), 0x01)\n        /* \"contracts/p2p/bridge/ChainB.sol\":13016:13026  _community */\n      swap1\n      swap2\n      and\n      swap1\n        /* \"contracts/p2p/bridge/ChainB.sol\":13040:13044  cliq */\n      dup6\n      swap1\n        /* \"contracts/p2p/bridge/ChainB.sol\":12989:13002  bool successB */\n      dup4\n        /* \"contracts/p2p/bridge/ChainB.sol\":13008:13049  payable(_community).call{value: cliq}(\"\") */\n      dup2\n        /* \"contracts/p2p/bridge/ChainB.sol\":12989:13002  bool successB */\n      dup2\n        /* \"contracts/p2p/bridge/ChainB.sol\":13008:13049  payable(_community).call{value: cliq}(\"\") */\n      dup2\n        /* \"contracts/p2p/bridge/ChainB.sol\":13040:13044  cliq */\n      dup6\n        /* \"contracts/p2p/bridge/ChainB.sol\":13016:13026  _community */\n      dup8\n        /* \"contracts/p2p/bridge/ChainB.sol\":13008:13049  payable(_community).call{value: cliq}(\"\") */\n      gas\n      call\n      swap3\n      pop\n      pop\n      pop\n      returndatasize\n      dup1\n      0x00\n      dup2\n      eq\n      tag_333\n      jumpi\n      mload(0x40)\n      swap2\n      pop\n      and(add(returndatasize, 0x3f), not(0x1f))\n      dup3\n      add\n      0x40\n      mstore\n      returndatasize\n      dup3\n      mstore\n      returndatasize\n      0x00\n      0x20\n      dup5\n      add\n      returndatacopy\n      jump(tag_332)\n    tag_333:\n      0x60\n      swap2\n      pop\n    tag_332:\n      pop\n      pop\n        /* \"contracts/p2p/bridge/ChainB.sol\":13091:13103  _development */\n      sload(0x02)\n        /* \"contracts/p2p/bridge/ChainB.sol\":13083:13126  payable(_development).call{value: dliq}(\"\") */\n      mload(0x40)\n        /* \"contracts/p2p/bridge/ChainB.sol\":12988:13049  (bool successB, ) = payable(_community).call{value: cliq}(\"\") */\n      swap2\n      swap3\n      pop\n        /* \"contracts/p2p/bridge/ChainB.sol\":13064:13077  bool successC */\n      0x00\n      swap2\n      sub(shl(0xa0, 0x01), 0x01)\n        /* \"contracts/p2p/bridge/ChainB.sol\":13091:13103  _development */\n      swap1\n      swap2\n      and\n      swap1\n        /* \"contracts/p2p/bridge/ChainB.sol\":13117:13121  dliq */\n      dup6\n      swap1\n        /* \"contracts/p2p/bridge/ChainB.sol\":13064:13077  bool successC */\n      dup4\n        /* \"contracts/p2p/bridge/ChainB.sol\":13083:13126  payable(_development).call{value: dliq}(\"\") */\n      dup2\n        /* \"contracts/p2p/bridge/ChainB.sol\":13064:13077  bool successC */\n      dup2\n        /* \"contracts/p2p/bridge/ChainB.sol\":13083:13126  payable(_development).call{value: dliq}(\"\") */\n      dup2\n        /* \"contracts/p2p/bridge/ChainB.sol\":13117:13121  dliq */\n      dup6\n        /* \"contracts/p2p/bridge/ChainB.sol\":13091:13103  _development */\n      dup8\n        /* \"contracts/p2p/bridge/ChainB.sol\":13083:13126  payable(_development).call{value: dliq}(\"\") */\n      gas\n      call\n      swap3\n      pop\n      pop\n      pop\n      returndatasize\n      dup1\n      0x00\n      dup2\n      eq\n      tag_337\n      jumpi\n      mload(0x40)\n      swap2\n      pop\n      and(add(returndatasize, 0x3f), not(0x1f))\n      dup3\n      add\n      0x40\n      mstore\n      returndatasize\n      dup3\n      mstore\n      returndatasize\n      0x00\n      0x20\n      dup5\n      add\n      returndatacopy\n      jump(tag_336)\n    tag_337:\n      0x60\n      swap2\n      pop\n    tag_336:\n      pop\n        /* \"contracts/p2p/bridge/ChainB.sol\":13063:13126  (bool successC, ) = payable(_development).call{value: dliq}(\"\") */\n      swap1\n      swap2\n      pop\n      pop\n        /* \"contracts/p2p/bridge/ChainB.sol\":13160:13164  true */\n      0x01\n        /* \"contracts/p2p/bridge/ChainB.sol\":13148:13164  successA == true */\n      dup4\n      iszero\n      iszero\n      eq\n        /* \"contracts/p2p/bridge/ChainB.sol\":13140:13165  require(successA == true) */\n      tag_338\n      jumpi\n      0x00\n      dup1\n      revert\n    tag_338:\n        /* \"contracts/p2p/bridge/ChainB.sol\":13199:13203  true */\n      0x01\n        /* \"contracts/p2p/bridge/ChainB.sol\":13187:13203  successB == true */\n      dup3\n      iszero\n      iszero\n      eq\n        /* \"contracts/p2p/bridge/ChainB.sol\":13179:13204  require(successB == true) */\n      tag_339\n      jumpi\n      0x00\n      dup1\n      revert\n    tag_339:\n        /* \"contracts/p2p/bridge/ChainB.sol\":13238:13242  true */\n      0x01\n        /* \"contracts/p2p/bridge/ChainB.sol\":13226:13242  successC == true */\n      dup2\n      iszero\n      iszero\n      eq\n        /* \"contracts/p2p/bridge/ChainB.sol\":13218:13243  require(successC == true) */\n      tag_340\n      jumpi\n      0x00\n      dup1\n      revert\n    tag_340:\n        /* \"contracts/p2p/bridge/ChainB.sol\":13267:13271  true */\n      0x01\n        /* \"contracts/p2p/bridge/ChainB.sol\":13257:13271  success = true */\n      swap7\n      pop\n        /* \"contracts/p2p/bridge/ChainB.sol\":12686:13282  {... */\n      pop\n      pop\n      pop\n      pop\n      pop\n      pop\n        /* \"contracts/p2p/bridge/ChainB.sol\":12640:13321  if (address(_development) == address(sender)) {... */\n      jump(tag_341)\n    tag_319:\n        /* \"contracts/p2p/bridge/ChainB.sol\":13302:13310  revert() */\n      0x00\n      dup1\n      revert\n        /* \"contracts/p2p/bridge/ChainB.sol\":12640:13321  if (address(_development) == address(sender)) {... */\n    tag_341:\n        /* \"contracts/p2p/bridge/ChainB.sol\":13338:13345  success */\n      dup1\n        /* \"contracts/p2p/bridge/ChainB.sol\":13330:13346  require(success) */\n      tag_342\n      jumpi\n      0x00\n      dup1\n      revert\n    tag_342:\n        /* \"contracts/p2p/bridge/ChainB.sol\":13363:13370  success */\n      swap7\n        /* \"contracts/p2p/bridge/ChainB.sol\":12058:13377  function transfer(... */\n      swap6\n      pop\n      pop\n      pop\n      pop\n      pop\n      pop\n      jump\t// out\n        /* \"contracts/p2p/bridge/ChainB.sol\":9853:10122  function depositTracer(address _depositor)... */\n    tag_111:\n      sub(shl(0xa0, 0x01), 0x01)\n        /* \"contracts/p2p/bridge/ChainB.sol\":9994:10027  vaultRecords[address(_depositor)] */\n      dup2\n      and\n        /* \"contracts/p2p/bridge/ChainB.sol\":9973:9991  Vault storage VR_s */\n      0x00\n        /* \"contracts/p2p/bridge/ChainB.sol\":9994:10027  vaultRecords[address(_depositor)] */\n      swap1\n      dup2\n      mstore\n        /* \"contracts/p2p/bridge/ChainB.sol\":9994:10006  vaultRecords */\n      0x0c\n        /* \"contracts/p2p/bridge/ChainB.sol\":9994:10027  vaultRecords[address(_depositor)] */\n      0x20\n      swap1\n      dup2\n      mstore\n      0x40\n      swap2\n      dup3\n      swap1\n      keccak256\n        /* \"contracts/p2p/bridge/ChainB.sol\":10065:10076  VR_s.member */\n      0x10\n      dup2\n      add\n        /* \"contracts/p2p/bridge/ChainB.sol\":10099:10115  return (tBlocks) */\n      dup1\n      sload\n      dup5\n      mload\n      dup2\n      dup6\n      mul\n      dup2\n      add\n      dup6\n      add\n      swap1\n      swap6\n      mstore\n      dup1\n      dup6\n      mstore\n        /* \"contracts/p2p/bridge/ChainB.sol\":9941:9957  uint256[] memory */\n      0x60\n      swap5\n        /* \"contracts/p2p/bridge/ChainB.sol\":9994:10027  vaultRecords[address(_depositor)] */\n      swap3\n      swap4\n        /* \"contracts/p2p/bridge/ChainB.sol\":10065:10076  VR_s.member */\n      swap2\n      swap3\n        /* \"contracts/p2p/bridge/ChainB.sol\":10099:10115  return (tBlocks) */\n      swap2\n        /* \"contracts/p2p/bridge/ChainB.sol\":10065:10076  VR_s.member */\n      dup4\n      swap2\n        /* \"contracts/p2p/bridge/ChainB.sol\":10099:10115  return (tBlocks) */\n      swap1\n      dup4\n      add\n        /* \"contracts/p2p/bridge/ChainB.sol\":10065:10076  VR_s.member */\n      dup3\n        /* \"contracts/p2p/bridge/ChainB.sol\":10099:10115  return (tBlocks) */\n      dup3\n      dup1\n      iszero\n      tag_344\n      jumpi\n      0x20\n      mul\n      dup3\n      add\n      swap2\n      swap1\n      0x00\n      mstore\n      keccak256(0x00, 0x20)\n      swap1\n    tag_345:\n      dup2\n      sload\n      dup2\n      mstore\n      0x20\n      add\n      swap1\n      0x01\n      add\n      swap1\n      dup1\n      dup4\n      gt\n      tag_345\n      jumpi\n    tag_344:\n      pop\n      pop\n      pop\n      pop\n      pop\n      swap3\n      pop\n      pop\n      pop\n        /* \"contracts/p2p/bridge/ChainB.sol\":9853:10122  function depositTracer(address _depositor)... */\n      swap2\n      swap1\n      pop\n      jump\t// out\n        /* \"contracts/p2p/bridge/auth/iAuth_ChainB.sol\":883:987  function unauthorize(address adr) public virtual authorized {... */\n    tag_117:\n        /* \"contracts/p2p/bridge/auth/iAuth_ChainB.sol\":457:483  isAuthorized(_msgSender()) */\n      tag_347\n        /* \"contracts/p2p/bridge/interfaces/INTERFACES_ChainB.sol\":164:174  msg.sender */\n      caller\n        /* \"contracts/p2p/bridge/auth/iAuth_ChainB.sol\":457:469  isAuthorized */\n      tag_132\n        /* \"contracts/p2p/bridge/auth/iAuth_ChainB.sol\":457:483  isAuthorized(_msgSender()) */\n      jump\t// in\n    tag_347:\n        /* \"contracts/p2p/bridge/auth/iAuth_ChainB.sol\":449:484  require(isAuthorized(_msgSender())) */\n      tag_349\n      jumpi\n      0x00\n      dup1\n      revert\n    tag_349:\n      sub(shl(0xa0, 0x01), 0x01)\n        /* \"contracts/p2p/bridge/auth/iAuth_ChainB.sol\":953:972  authorizations[adr] */\n      and\n        /* \"contracts/p2p/bridge/auth/iAuth_ChainB.sol\":975:980  false */\n      0x00\n        /* \"contracts/p2p/bridge/auth/iAuth_ChainB.sol\":953:972  authorizations[adr] */\n      swap1\n      dup2\n      mstore\n        /* \"contracts/p2p/bridge/auth/iAuth_ChainB.sol\":953:967  authorizations */\n      0x01\n        /* \"contracts/p2p/bridge/auth/iAuth_ChainB.sol\":953:972  authorizations[adr] */\n      0x20\n      mstore\n      0x40\n      swap1\n      keccak256\n        /* \"contracts/p2p/bridge/auth/iAuth_ChainB.sol\":953:980  authorizations[adr] = false */\n      dup1\n      sload\n      not(0xff)\n      and\n      swap1\n      sstore\n        /* \"contracts/p2p/bridge/auth/iAuth_ChainB.sol\":883:987  function unauthorize(address adr) public virtual authorized {... */\n      jump\t// out\n        /* \"contracts/p2p/bridge/ChainB.sol\":2811:3433  function bridgeKEK_bulk(uint256 amountKEK) external payable returns (bool) {... */\n    tag_120:\n        /* \"contracts/p2p/bridge/ChainB.sol\":2880:2884  bool */\n      0x00\n        /* \"contracts/p2p/bridge/ChainB.sol\":2934:2938  tFEE */\n      sload(0x10)\n        /* \"contracts/p2p/bridge/ChainB.sol\":2912:2921  msg.value */\n      callvalue\n        /* \"contracts/p2p/bridge/ChainB.sol\":2904:2939  uint256(msg.value) >= uint256(tFEE) */\n      lt\n      iszero\n        /* \"contracts/p2p/bridge/ChainB.sol\":2896:2940  require(uint256(msg.value) >= uint256(tFEE)) */\n      tag_352\n      jumpi\n      0x00\n      dup1\n      revert\n    tag_352:\n        /* \"contracts/p2p/bridge/ChainB.sol\":3016:3018  40 */\n      0x28\n        /* \"contracts/p2p/bridge/ChainB.sol\":2989:3004  bridgeMaxAmount */\n      sload(0x11)\n        /* \"contracts/p2p/bridge/ChainB.sol\":2981:3019  uint256(bridgeMaxAmount) * uint256(40) */\n      tag_353\n      swap2\n      swap1\n      tag_321\n      jump\t// in\n    tag_353:\n        /* \"contracts/p2p/bridge/ChainB.sol\":2966:2975  amountKEK */\n      dup3\n        /* \"contracts/p2p/bridge/ChainB.sol\":2958:3020  uint256(amountKEK) <= (uint256(bridgeMaxAmount) * uint256(40)) */\n      gt\n      iszero\n        /* \"contracts/p2p/bridge/ChainB.sol\":2950:3021  require(uint256(amountKEK) <= (uint256(bridgeMaxAmount) * uint256(40))) */\n      tag_158\n      jumpi\n      0x00\n      dup1\n      revert\n        /* \"contracts/p2p/bridge/auth/iAuth_ChainB.sol\":993:1100  function isAuthorized(address adr) internal view returns (bool) {... */\n    tag_132:\n      sub(shl(0xa0, 0x01), 0x01)\n        /* \"contracts/p2p/bridge/auth/iAuth_ChainB.sol\":1074:1093  authorizations[adr] */\n      and\n        /* \"contracts/p2p/bridge/auth/iAuth_ChainB.sol\":1051:1055  bool */\n      0x00\n        /* \"contracts/p2p/bridge/auth/iAuth_ChainB.sol\":1074:1093  authorizations[adr] */\n      swap1\n      dup2\n      mstore\n        /* \"contracts/p2p/bridge/auth/iAuth_ChainB.sol\":1074:1088  authorizations */\n      0x01\n        /* \"contracts/p2p/bridge/auth/iAuth_ChainB.sol\":1074:1093  authorizations[adr] */\n      0x20\n      mstore\n      0x40\n      swap1\n      keccak256\n      sload\n      0xff\n      and\n      swap1\n        /* \"contracts/p2p/bridge/auth/iAuth_ChainB.sol\":993:1100  function isAuthorized(address adr) internal view returns (bool) {... */\n      jump\t// out\n        /* \"contracts/p2p/bridge/ChainB.sol\":3439:4103  function deposit(... */\n    tag_177:\n        /* \"contracts/p2p/bridge/ChainB.sol\":3665:3668  KEK */\n      sload(0x08)\n        /* \"contracts/p2p/bridge/ChainB.sol\":3553:3557  bool */\n      0x00\n      swap1\n        /* \"contracts/p2p/bridge/ChainB.sol\":3589:3595  amount */\n      dup3\n      swap1\n        /* \"contracts/p2p/bridge/ChainB.sol\":3553:3557  bool */\n      dup3\n      swap1\n      sub(shl(0xa0, 0x01), 0x01)\n        /* \"contracts/p2p/bridge/ChainB.sol\":3665:3668  KEK */\n      swap1\n      dup2\n      and\n        /* \"contracts/p2p/bridge/ChainB.sol\":3639:3669  address(token) == address(KEK) */\n      swap1\n      dup7\n      and\n      sub\n        /* \"contracts/p2p/bridge/ChainB.sol\":3635:4073  if (address(token) == address(KEK)) {... */\n      tag_374\n      jumpi\n        /* \"contracts/p2p/bridge/ChainB.sol\":3698:3704  amount */\n      dup4\n        /* \"contracts/p2p/bridge/ChainB.sol\":3685:3694  tokenAD_V */\n      0x0e\n      0x00\n        /* \"contracts/p2p/bridge/ChainB.sol\":3685:3704  tokenAD_V += amount */\n      dup3\n      dup3\n      sload\n      tag_375\n      swap2\n      swap1\n      tag_184\n      jump\t// in\n    tag_375:\n      swap3\n      pop\n      pop\n      dup2\n      swap1\n      sstore\n      pop\n        /* \"contracts/p2p/bridge/ChainB.sol\":3738:3747  msg.value */\n      callvalue\n        /* \"contracts/p2p/bridge/ChainB.sol\":3718:3726  coinAD_V */\n      0x0d\n      0x00\n        /* \"contracts/p2p/bridge/ChainB.sol\":3718:3748  coinAD_V += uint256(msg.value) */\n      dup3\n      dup3\n      sload\n      tag_376\n      swap2\n      swap1\n      tag_184\n      jump\t// in\n    tag_376:\n      swap1\n      swap2\n      sstore\n      pop\n      pop\n        /* \"contracts/p2p/bridge/ChainB.sol\":3769:3772  KEK */\n      sload(0x08)\n        /* \"contracts/p2p/bridge/ChainB.sol\":3762:3900  IERC20(KEK).transferFrom(... */\n      mload(0x40)\n      shl(0xe0, 0x23b872dd)\n      dup2\n      mstore\n      sub(shl(0xa0, 0x01), 0x01)\n        /* \"#utility.yul\":11298:11313   */\n      dup9\n      dup2\n      and\n        /* \"contracts/p2p/bridge/ChainB.sol\":3762:3900  IERC20(KEK).transferFrom(... */\n      0x04\n      dup4\n      add\n        /* \"#utility.yul\":11280:11314   */\n      mstore\n        /* \"contracts/p2p/bridge/ChainB.sol\":3856:3860  this */\n      address\n        /* \"#utility.yul\":11330:11348   */\n      0x24\n      dup4\n      add\n        /* \"#utility.yul\":11323:11366   */\n      mstore\n        /* \"#utility.yul\":11382:11400   */\n      0x44\n      dup3\n      add\n        /* \"#utility.yul\":11375:11409   */\n      dup8\n      swap1\n      mstore\n        /* \"contracts/p2p/bridge/ChainB.sol\":3769:3772  KEK */\n      swap1\n      swap2\n      and\n      swap1\n        /* \"contracts/p2p/bridge/ChainB.sol\":3762:3786  IERC20(KEK).transferFrom */\n      0x23b872dd\n      swap1\n        /* \"#utility.yul\":11215:11233   */\n      0x64\n      add\n        /* \"contracts/p2p/bridge/ChainB.sol\":3762:3900  IERC20(KEK).transferFrom(... */\n      0x20\n      mload(0x40)\n      dup1\n      dup4\n      sub\n      dup2\n      0x00\n      dup8\n      gas\n      call\n      iszero\n      dup1\n      iszero\n      tag_380\n      jumpi\n      returndatasize\n      0x00\n      dup1\n      returndatacopy\n      revert(0x00, returndatasize)\n    tag_380:\n      pop\n      pop\n      pop\n      pop\n      mload(0x40)\n      returndatasize\n      not(0x1f)\n      0x1f\n      dup3\n      add\n      and\n      dup3\n      add\n      dup1\n      0x40\n      mstore\n      pop\n      dup2\n      add\n      swap1\n      tag_381\n      swap2\n      swap1\n      tag_249\n      jump\t// in\n    tag_381:\n      pop\n        /* \"contracts/p2p/bridge/ChainB.sol\":3914:3954  traceDeposit(depositor, liquidity, true) */\n      tag_382\n        /* \"contracts/p2p/bridge/ChainB.sol\":3927:3936  depositor */\n      dup7\n        /* \"contracts/p2p/bridge/ChainB.sol\":3938:3947  liquidity */\n      dup4\n        /* \"contracts/p2p/bridge/ChainB.sol\":3949:3953  true */\n      0x01\n        /* \"contracts/p2p/bridge/ChainB.sol\":3914:3926  traceDeposit */\n      tag_383\n        /* \"contracts/p2p/bridge/ChainB.sol\":3914:3954  traceDeposit(depositor, liquidity, true) */\n      jump\t// in\n    tag_382:\n      pop\n        /* \"contracts/p2p/bridge/ChainB.sol\":3978:3982  true */\n      0x01\n        /* \"contracts/p2p/bridge/ChainB.sol\":3635:4073  if (address(token) == address(KEK)) {... */\n      jump(tag_384)\n    tag_374:\n      pop\n        /* \"contracts/p2p/bridge/ChainB.sol\":4042:4062  revert(\"!SUPPORTED\") */\n      mload(0x40)\n      shl(0xe5, 0x461bcd)\n      dup2\n      mstore\n        /* \"#utility.yul\":11622:11624   */\n      0x20\n        /* \"contracts/p2p/bridge/ChainB.sol\":4042:4062  revert(\"!SUPPORTED\") */\n      0x04\n      dup3\n      add\n        /* \"#utility.yul\":11604:11625   */\n      mstore\n        /* \"#utility.yul\":11661:11663   */\n      0x0a\n        /* \"#utility.yul\":11641:11659   */\n      0x24\n      dup3\n      add\n        /* \"#utility.yul\":11634:11664   */\n      mstore\n      shl(0xb2, 0x0854d5541413d4951151)\n        /* \"#utility.yul\":11680:11698   */\n      0x44\n      dup3\n      add\n        /* \"#utility.yul\":11673:11713   */\n      mstore\n        /* \"contracts/p2p/bridge/ChainB.sol\":4023:4028  false */\n      0x00\n      swap1\n        /* \"#utility.yul\":11730:11748   */\n      0x64\n      add\n        /* \"contracts/p2p/bridge/ChainB.sol\":4042:4062  revert(\"!SUPPORTED\") */\n      tag_173\n        /* \"#utility.yul\":11420:11754   */\n      jump\n        /* \"contracts/p2p/bridge/ChainB.sol\":3635:4073  if (address(token) == address(KEK)) {... */\n    tag_384:\n        /* \"contracts/p2p/bridge/ChainB.sol\":4089:4096  success */\n      swap6\n        /* \"contracts/p2p/bridge/ChainB.sol\":3439:4103  function deposit(... */\n      swap5\n      pop\n      pop\n      pop\n      pop\n      pop\n      jump\t// out\n        /* \"contracts/p2p/bridge/ChainB.sol\":6213:7738  function synced(... */\n    tag_181:\n        /* \"contracts/p2p/bridge/ChainB.sol\":6340:6344  bool */\n      0x00\n        /* \"contracts/p2p/bridge/auth/iAuth_ChainB.sol\":457:483  isAuthorized(_msgSender()) */\n      tag_388\n        /* \"contracts/p2p/bridge/interfaces/INTERFACES_ChainB.sol\":164:174  msg.sender */\n      caller\n        /* \"contracts/p2p/bridge/auth/iAuth_ChainB.sol\":457:469  isAuthorized */\n      tag_132\n        /* \"contracts/p2p/bridge/auth/iAuth_ChainB.sol\":457:483  isAuthorized(_msgSender()) */\n      jump\t// in\n    tag_388:\n        /* \"contracts/p2p/bridge/auth/iAuth_ChainB.sol\":449:484  require(isAuthorized(_msgSender())) */\n      tag_390\n      jumpi\n      0x00\n      dup1\n      revert\n    tag_390:\n        /* \"contracts/p2p/bridge/ChainB.sol\":6398:6408  _community */\n      sload(0x03)\n      sub(shl(0xa0, 0x01), 0x01)\n      swap1\n      dup2\n      and\n        /* \"contracts/p2p/bridge/ChainB.sol\":6356:6374  Vault storage VR_c */\n      0x00\n        /* \"contracts/p2p/bridge/ChainB.sol\":6377:6410  vaultRecords[address(_community)] */\n      swap1\n      dup2\n      mstore\n        /* \"contracts/p2p/bridge/ChainB.sol\":6377:6389  vaultRecords */\n      0x0c\n        /* \"contracts/p2p/bridge/ChainB.sol\":6377:6410  vaultRecords[address(_community)] */\n      0x20\n      mstore\n      0x40\n      dup1\n      dup3\n      keccak256\n        /* \"contracts/p2p/bridge/ChainB.sol\":6462:6474  _development */\n      sload(0x02)\n      swap1\n      swap4\n      and\n        /* \"contracts/p2p/bridge/ChainB.sol\":6441:6476  vaultRecords[address(_development)] */\n      dup3\n      mstore\n      dup2\n      keccak256\n      swap1\n        /* \"contracts/p2p/bridge/ChainB.sol\":6356:6374  Vault storage VR_c */\n      dup1\n      dup1\n        /* \"contracts/p2p/bridge/ChainB.sol\":6533:6543  split(sTb) */\n      tag_392\n        /* \"contracts/p2p/bridge/ChainB.sol\":6539:6542  sTb */\n      dup10\n        /* \"contracts/p2p/bridge/ChainB.sol\":6533:6538  split */\n      tag_196\n        /* \"contracts/p2p/bridge/ChainB.sol\":6533:6543  split(sTb) */\n      jump\t// in\n    tag_392:\n        /* \"contracts/p2p/bridge/ChainB.sol\":6486:6543  (uint256 tSum, uint256 cTliq, uint256 dTliq) = split(sTb) */\n      swap2\n      swap5\n      pop\n      swap3\n      pop\n      swap1\n      pop\n        /* \"contracts/p2p/bridge/ChainB.sol\":6553:6562  bool sync */\n      0x00\n        /* \"contracts/p2p/bridge/ChainB.sol\":6597:6601  true */\n      0x01\n        /* \"contracts/p2p/bridge/ChainB.sol\":6584:6601  isTokenTx == true */\n      dup9\n      iszero\n      iszero\n      eq\n        /* \"contracts/p2p/bridge/ChainB.sol\":6584:6636  isTokenTx == true && address(token) == address(WKEK) */\n      dup1\n      iszero\n      tag_393\n      jumpi\n      pop\n        /* \"contracts/p2p/bridge/ChainB.sol\":6631:6635  WKEK */\n      sload(0x09)\n      sub(shl(0xa0, 0x01), 0x01)\n        /* \"contracts/p2p/bridge/ChainB.sol\":6605:6636  address(token) == address(WKEK) */\n      dup11\n      dup2\n      and\n        /* \"contracts/p2p/bridge/ChainB.sol\":6631:6635  WKEK */\n      swap2\n      and\n        /* \"contracts/p2p/bridge/ChainB.sol\":6605:6636  address(token) == address(WKEK) */\n      eq\n        /* \"contracts/p2p/bridge/ChainB.sol\":6584:6636  isTokenTx == true && address(token) == address(WKEK) */\n    tag_393:\n        /* \"contracts/p2p/bridge/ChainB.sol\":6580:7570  if (isTokenTx == true && address(token) == address(WKEK)) {... */\n      iszero\n      tag_394\n      jumpi\n      pop\n        /* \"contracts/p2p/bridge/ChainB.sol\":6652:6681  VR_c.community.wkekAmountOwed */\n      0x04\n      dup6\n      add\n        /* \"contracts/p2p/bridge/ChainB.sol\":6652:6698  VR_c.community.wkekAmountOwed = uint256(cTliq) */\n      dup3\n      swap1\n      sstore\n        /* \"contracts/p2p/bridge/ChainB.sol\":6712:6743  VR_d.development.wkekAmountOwed */\n      0x0c\n      dup5\n      add\n        /* \"contracts/p2p/bridge/ChainB.sol\":6712:6760  VR_d.development.wkekAmountOwed = uint256(dTliq) */\n      dup2\n      swap1\n      sstore\n        /* \"contracts/p2p/bridge/ChainB.sol\":6781:6785  true */\n      0x01\n        /* \"contracts/p2p/bridge/ChainB.sol\":6580:7570  if (isTokenTx == true && address(token) == address(WKEK)) {... */\n      jump(tag_405)\n    tag_394:\n        /* \"contracts/p2p/bridge/ChainB.sol\":6832:6836  true */\n      0x01\n        /* \"contracts/p2p/bridge/ChainB.sol\":6819:6836  isTokenTx == true */\n      dup9\n      iszero\n      iszero\n      eq\n        /* \"contracts/p2p/bridge/ChainB.sol\":6819:6882  isTokenTx == true &&... */\n      dup1\n      iszero\n      tag_396\n      jumpi\n      pop\n        /* \"contracts/p2p/bridge/ChainB.sol\":6878:6881  KEK */\n      sload(0x08)\n      sub(shl(0xa0, 0x01), 0x01)\n        /* \"contracts/p2p/bridge/ChainB.sol\":6852:6882  address(token) == address(KEK) */\n      dup11\n      dup2\n      and\n        /* \"contracts/p2p/bridge/ChainB.sol\":6878:6881  KEK */\n      swap2\n      and\n        /* \"contracts/p2p/bridge/ChainB.sol\":6852:6882  address(token) == address(KEK) */\n      eq\n        /* \"contracts/p2p/bridge/ChainB.sol\":6819:6882  isTokenTx == true &&... */\n    tag_396:\n        /* \"contracts/p2p/bridge/ChainB.sol\":6819:6915  isTokenTx == true &&... */\n      dup1\n      iszero\n      tag_397\n      jumpi\n      pop\n        /* \"contracts/p2p/bridge/ChainB.sol\":6898:6906  tokenFee */\n      and(0xff, sload(0x12))\n        /* \"contracts/p2p/bridge/ChainB.sol\":6898:6915  tokenFee == false */\n      iszero\n        /* \"contracts/p2p/bridge/ChainB.sol\":6819:6915  isTokenTx == true &&... */\n    tag_397:\n        /* \"contracts/p2p/bridge/ChainB.sol\":6802:7570  if (... */\n      iszero\n      tag_398\n      jumpi\n      pop\n        /* \"contracts/p2p/bridge/ChainB.sol\":6940:6970  VR_c.community.tokenAmountOwed */\n      0x05\n      dup6\n      add\n        /* \"contracts/p2p/bridge/ChainB.sol\":6940:6986  VR_c.community.tokenAmountOwed = uint256(tSum) */\n      dup4\n      swap1\n      sstore\n        /* \"contracts/p2p/bridge/ChainB.sol\":7007:7011  true */\n      0x01\n        /* \"contracts/p2p/bridge/ChainB.sol\":6802:7570  if (... */\n      jump(tag_405)\n    tag_398:\n        /* \"contracts/p2p/bridge/ChainB.sol\":7032:7050  isTokenTx == false */\n      dup8\n      iszero\n      dup1\n      iszero\n        /* \"contracts/p2p/bridge/ChainB.sol\":7032:7085  isTokenTx == false && address(token) == address(this) */\n      tag_400\n      jumpi\n      pop\n      sub(shl(0xa0, 0x01), 0x01)\n        /* \"contracts/p2p/bridge/ChainB.sol\":7054:7085  address(token) == address(this) */\n      dup10\n      and\n        /* \"contracts/p2p/bridge/ChainB.sol\":7080:7084  this */\n      address\n        /* \"contracts/p2p/bridge/ChainB.sol\":7054:7085  address(token) == address(this) */\n      eq\n        /* \"contracts/p2p/bridge/ChainB.sol\":7032:7085  isTokenTx == false && address(token) == address(this) */\n    tag_400:\n        /* \"contracts/p2p/bridge/ChainB.sol\":7028:7570  if (isTokenTx == false && address(token) == address(this)) {... */\n      iszero\n      tag_401\n      jumpi\n      pop\n        /* \"contracts/p2p/bridge/ChainB.sol\":7101:7130  VR_c.community.coinAmountOwed */\n      0x01\n      dup1\n      dup7\n      add\n        /* \"contracts/p2p/bridge/ChainB.sol\":7101:7146  VR_c.community.coinAmountOwed = uint256(tSum) */\n      dup5\n      swap1\n      sstore\n        /* \"contracts/p2p/bridge/ChainB.sol\":7028:7570  if (isTokenTx == false && address(token) == address(this)) {... */\n      jump(tag_405)\n    tag_401:\n        /* \"contracts/p2p/bridge/ChainB.sol\":7205:7209  true */\n      0x01\n        /* \"contracts/p2p/bridge/ChainB.sol\":7192:7209  isTokenTx == true */\n      dup9\n      iszero\n      iszero\n      eq\n        /* \"contracts/p2p/bridge/ChainB.sol\":7192:7244  isTokenTx == true && address(token) == address(this) */\n      dup1\n      iszero\n      tag_403\n      jumpi\n      pop\n      sub(shl(0xa0, 0x01), 0x01)\n        /* \"contracts/p2p/bridge/ChainB.sol\":7213:7244  address(token) == address(this) */\n      dup10\n      and\n        /* \"contracts/p2p/bridge/ChainB.sol\":7239:7243  this */\n      address\n        /* \"contracts/p2p/bridge/ChainB.sol\":7213:7244  address(token) == address(this) */\n      eq\n        /* \"contracts/p2p/bridge/ChainB.sol\":7192:7244  isTokenTx == true && address(token) == address(this) */\n    tag_403:\n        /* \"contracts/p2p/bridge/ChainB.sol\":7188:7570  if (isTokenTx == true && address(token) == address(this)) {... */\n      iszero\n      tag_404\n      jumpi\n      pop\n        /* \"contracts/p2p/bridge/ChainB.sol\":7260:7289  VR_c.community.coinAmountOwed */\n      0x01\n      dup1\n      dup7\n      add\n        /* \"contracts/p2p/bridge/ChainB.sol\":7260:7306  VR_c.community.coinAmountOwed = uint256(cTliq) */\n      dup4\n      swap1\n      sstore\n        /* \"contracts/p2p/bridge/ChainB.sol\":7320:7351  VR_d.development.coinAmountOwed */\n      0x09\n      dup6\n      add\n        /* \"contracts/p2p/bridge/ChainB.sol\":7320:7368  VR_d.development.coinAmountOwed = uint256(dTliq) */\n      dup3\n      swap1\n      sstore\n        /* \"contracts/p2p/bridge/ChainB.sol\":7188:7570  if (isTokenTx == true && address(token) == address(this)) {... */\n      jump(tag_405)\n    tag_404:\n      pop\n        /* \"contracts/p2p/bridge/ChainB.sol\":7424:7454  VR_c.community.tokenAmountOwed */\n      0x05\n      dup6\n      add\n        /* \"contracts/p2p/bridge/ChainB.sol\":7424:7471  VR_c.community.tokenAmountOwed = uint256(cTliq) */\n      dup3\n      swap1\n      sstore\n        /* \"contracts/p2p/bridge/ChainB.sol\":7485:7517  VR_d.development.tokenAmountOwed */\n      0x0d\n      dup5\n      add\n        /* \"contracts/p2p/bridge/ChainB.sol\":7485:7534  VR_d.development.tokenAmountOwed = uint256(dTliq) */\n      dup2\n      swap1\n      sstore\n        /* \"contracts/p2p/bridge/ChainB.sol\":7555:7559  true */\n      0x01\n        /* \"contracts/p2p/bridge/ChainB.sol\":7188:7570  if (isTokenTx == true && address(token) == address(this)) {... */\n    tag_405:\n        /* \"contracts/p2p/bridge/ChainB.sol\":7596:7600  true */\n      0x01\n        /* \"contracts/p2p/bridge/ChainB.sol\":7583:7600  isTokenTx == true */\n      dup9\n      iszero\n      iszero\n      eq\n        /* \"contracts/p2p/bridge/ChainB.sol\":7583:7620  isTokenTx == true && tokenAD_V < tSum */\n      dup1\n      iszero\n      tag_406\n      jumpi\n      pop\n        /* \"contracts/p2p/bridge/ChainB.sol\":7616:7620  tSum */\n      dup4\n        /* \"contracts/p2p/bridge/ChainB.sol\":7604:7613  tokenAD_V */\n      sload(0x0e)\n        /* \"contracts/p2p/bridge/ChainB.sol\":7604:7620  tokenAD_V < tSum */\n      lt\n        /* \"contracts/p2p/bridge/ChainB.sol\":7583:7620  isTokenTx == true && tokenAD_V < tSum */\n    tag_406:\n        /* \"contracts/p2p/bridge/ChainB.sol\":7579:7711  if (isTokenTx == true && tokenAD_V < tSum) {... */\n      iszero\n      tag_407\n      jumpi\n        /* \"contracts/p2p/bridge/ChainB.sol\":7649:7653  tSum */\n      dup4\n        /* \"contracts/p2p/bridge/ChainB.sol\":7636:7645  tokenAD_V */\n      0x0e\n      0x00\n        /* \"contracts/p2p/bridge/ChainB.sol\":7636:7653  tokenAD_V += tSum */\n      dup3\n      dup3\n      sload\n      tag_408\n      swap2\n      swap1\n      tag_184\n      jump\t// in\n    tag_408:\n      swap1\n      swap2\n      sstore\n      pop\n        /* \"contracts/p2p/bridge/ChainB.sol\":7579:7711  if (isTokenTx == true && tokenAD_V < tSum) {... */\n      tag_409\n      swap1\n      pop\n      jump\n    tag_407:\n        /* \"contracts/p2p/bridge/ChainB.sol\":7696:7700  tSum */\n      dup4\n        /* \"contracts/p2p/bridge/ChainB.sol\":7684:7692  coinAD_V */\n      0x0d\n      0x00\n        /* \"contracts/p2p/bridge/ChainB.sol\":7684:7700  coinAD_V += tSum */\n      dup3\n      dup3\n      sload\n      tag_410\n      swap2\n      swap1\n      tag_184\n      jump\t// in\n    tag_410:\n      swap1\n      swap2\n      sstore\n      pop\n      pop\n        /* \"contracts/p2p/bridge/ChainB.sol\":7579:7711  if (isTokenTx == true && tokenAD_V < tSum) {... */\n    tag_409:\n        /* \"contracts/p2p/bridge/ChainB.sol\":7727:7731  sync */\n      swap10\n        /* \"contracts/p2p/bridge/ChainB.sol\":6213:7738  function synced(... */\n      swap9\n      pop\n      pop\n      pop\n      pop\n      pop\n      pop\n      pop\n      pop\n      pop\n      jump\t// out\n        /* \"contracts/p2p/bridge/ChainB.sol\":5585:6207  function split(uint256 liquidity)... */\n    tag_196:\n        /* \"contracts/p2p/bridge/ChainB.sol\":5678:5685  uint256 */\n      0x00\n        /* \"contracts/p2p/bridge/ChainB.sol\":5699:5706  uint256 */\n      dup1\n        /* \"contracts/p2p/bridge/ChainB.sol\":5720:5727  uint256 */\n      0x00\n        /* \"contracts/p2p/bridge/ChainB.sol\":5788:5789  0 */\n      dup1\n        /* \"contracts/p2p/bridge/ChainB.sol\":5767:5776  liquidity */\n      dup5\n        /* \"contracts/p2p/bridge/ChainB.sol\":5759:5790  uint256(liquidity) > uint256(0) */\n      gt\n        /* \"contracts/p2p/bridge/ChainB.sol\":5752:5791  assert(uint256(liquidity) > uint256(0)) */\n      tag_413\n      jumpi\n      tag_413\n      tag_143\n      jump\t// in\n    tag_413:\n        /* \"contracts/p2p/bridge/ChainB.sol\":5801:5827  uint256 communityLiquidity */\n      0x00\n        /* \"contracts/p2p/bridge/ChainB.sol\":5881:5898  shareBasisDivisor */\n      immutable(\"0xbbf5a24880b10a5f9f601c4058e4771ddea17e7d765ceb3c903814e1c0d621e0\")\n        /* \"contracts/p2p/bridge/ChainB.sol\":5843:5865  teamDonationMultiplier */\n      sload(0x06)\n        /* \"contracts/p2p/bridge/ChainB.sol\":5831:5840  liquidity */\n      dup7\n        /* \"contracts/p2p/bridge/ChainB.sol\":5831:5865  liquidity * teamDonationMultiplier */\n      tag_414\n      swap2\n      swap1\n      tag_321\n      jump\t// in\n    tag_414:\n        /* \"contracts/p2p/bridge/ChainB.sol\":5830:5898  (liquidity * teamDonationMultiplier) /... */\n      tag_415\n      swap2\n      swap1\n      tag_323\n      jump\t// in\n    tag_415:\n        /* \"contracts/p2p/bridge/ChainB.sol\":5801:5898  uint256 communityLiquidity = (liquidity * teamDonationMultiplier) /... */\n      swap1\n      pop\n        /* \"contracts/p2p/bridge/ChainB.sol\":5908:5936  uint256 developmentLiquidity */\n      0x00\n        /* \"contracts/p2p/bridge/ChainB.sol\":5940:5970  liquidity - communityLiquidity */\n      tag_416\n        /* \"contracts/p2p/bridge/ChainB.sol\":5801:5898  uint256 communityLiquidity = (liquidity * teamDonationMultiplier) /... */\n      dup3\n        /* \"contracts/p2p/bridge/ChainB.sol\":5940:5949  liquidity */\n      dup8\n        /* \"contracts/p2p/bridge/ChainB.sol\":5940:5970  liquidity - communityLiquidity */\n      tag_213\n      jump\t// in\n    tag_416:\n        /* \"contracts/p2p/bridge/ChainB.sol\":5908:5971  uint256 developmentLiquidity = (liquidity - communityLiquidity) */\n      swap1\n      pop\n        /* \"contracts/p2p/bridge/ChainB.sol\":5981:6008  uint256 totalSumOfLiquidity */\n      0x00\n        /* \"contracts/p2p/bridge/ChainB.sol\":6011:6052  communityLiquidity + developmentLiquidity */\n      tag_417\n        /* \"contracts/p2p/bridge/ChainB.sol\":5908:5971  uint256 developmentLiquidity = (liquidity - communityLiquidity) */\n      dup3\n        /* \"contracts/p2p/bridge/ChainB.sol\":6011:6029  communityLiquidity */\n      dup5\n        /* \"contracts/p2p/bridge/ChainB.sol\":6011:6052  communityLiquidity + developmentLiquidity */\n      tag_184\n      jump\t// in\n    tag_417:\n        /* \"contracts/p2p/bridge/ChainB.sol\":5981:6052  uint256 totalSumOfLiquidity = communityLiquidity + developmentLiquidity */\n      swap1\n      pop\n        /* \"contracts/p2p/bridge/ChainB.sol\":6109:6118  liquidity */\n      dup7\n        /* \"contracts/p2p/bridge/ChainB.sol\":6077:6096  totalSumOfLiquidity */\n      dup2\n        /* \"contracts/p2p/bridge/ChainB.sol\":6069:6119  uint256(totalSumOfLiquidity) == uint256(liquidity) */\n      eq\n        /* \"contracts/p2p/bridge/ChainB.sol\":6062:6120  assert(uint256(totalSumOfLiquidity) == uint256(liquidity)) */\n      tag_419\n      jumpi\n      tag_419\n      tag_143\n      jump\t// in\n    tag_419:\n        /* \"contracts/p2p/bridge/ChainB.sol\":6138:6157  totalSumOfLiquidity */\n      swap7\n        /* \"contracts/p2p/bridge/ChainB.sol\":6159:6177  communityLiquidity */\n      swap2\n      swap6\n      pop\n      swap4\n      pop\n        /* \"contracts/p2p/bridge/ChainB.sol\":5585:6207  function split(uint256 liquidity)... */\n      swap2\n      pop\n      pop\n      jump\t// out\n        /* \"contracts/p2p/bridge/ChainB.sol\":9351:9847  function traceDeposit(... */\n    tag_383:\n      sub(shl(0xa0, 0x01), 0x01)\n        /* \"contracts/p2p/bridge/ChainB.sol\":9496:9529  vaultRecords[address(_depositor)] */\n      dup4\n      and\n        /* \"contracts/p2p/bridge/ChainB.sol\":9475:9493  Vault storage VR_s */\n      0x00\n        /* \"contracts/p2p/bridge/ChainB.sol\":9496:9529  vaultRecords[address(_depositor)] */\n      swap1\n      dup2\n      mstore\n        /* \"contracts/p2p/bridge/ChainB.sol\":9496:9508  vaultRecords */\n      0x0c\n        /* \"contracts/p2p/bridge/ChainB.sol\":9496:9529  vaultRecords[address(_depositor)] */\n      0x20\n      swap1\n      dup2\n      mstore\n      0x40\n      dup1\n      dup4\n      keccak256\n        /* \"contracts/p2p/bridge/interfaces/INTERFACES_ChainB.sol\":164:174  msg.sender */\n      caller\n        /* \"contracts/p2p/bridge/ChainB.sol\":9539:9567  depositRecords[_msgSender()] */\n      dup5\n      mstore\n        /* \"contracts/p2p/bridge/ChainB.sol\":9539:9553  depositRecords */\n      0x0b\n        /* \"contracts/p2p/bridge/ChainB.sol\":9539:9567  depositRecords[_msgSender()] */\n      dup4\n      mstore\n      dup2\n      dup5\n      keccak256\n        /* \"contracts/p2p/bridge/ChainB.sol\":9568:9580  block.number */\n      number\n        /* \"contracts/p2p/bridge/ChainB.sol\":9539:9581  depositRecords[_msgSender()][block.number] */\n      dup1\n      dup7\n      mstore\n      swap1\n      dup5\n      mstore\n      swap2\n      dup5\n      keccak256\n        /* \"contracts/p2p/bridge/ChainB.sol\":9539:9593  depositRecords[_msgSender()][block.number] = liquidity */\n      dup7\n      swap1\n      sstore\n        /* \"contracts/p2p/bridge/ChainB.sol\":9603:9614  VR_s.member */\n      0x10\n      dup2\n      add\n        /* \"contracts/p2p/bridge/ChainB.sol\":9603:9646  VR_s.member.blockNumbers.push(block.number) */\n      dup1\n      sload\n      0x01\n      dup1\n      dup3\n      add\n      dup4\n      sstore\n      swap2\n      dup7\n      mstore\n      swap4\n      swap1\n      swap5\n      keccak256\n      swap1\n      swap3\n      add\n      sstore\n        /* \"contracts/p2p/bridge/ChainB.sol\":9496:9529  vaultRecords[address(_depositor)] */\n      swap1\n        /* \"contracts/p2p/bridge/ChainB.sol\":9660:9676  aTokenTX == true */\n      dup3\n      iszero\n      iszero\n      swap1\n      sub\n        /* \"contracts/p2p/bridge/ChainB.sol\":9656:9841  if (aTokenTX == true) {... */\n      tag_423\n      jumpi\n        /* \"contracts/p2p/bridge/ChainB.sol\":9736:9745  liquidity */\n      dup3\n        /* \"contracts/p2p/bridge/ChainB.sol\":9692:9696  VR_s */\n      dup2\n        /* \"contracts/p2p/bridge/ChainB.sol\":9692:9703  VR_s.member */\n      0x10\n      add\n        /* \"contracts/p2p/bridge/ChainB.sol\":9692:9724  VR_s.member.tokenAmountDeposited */\n      0x07\n      add\n      0x00\n        /* \"contracts/p2p/bridge/ChainB.sol\":9692:9746  VR_s.member.tokenAmountDeposited += uint256(liquidity) */\n      dup3\n      dup3\n      sload\n      tag_424\n      swap2\n      swap1\n      tag_184\n      jump\t// in\n    tag_424:\n      swap1\n      swap2\n      sstore\n      pop\n        /* \"contracts/p2p/bridge/ChainB.sol\":9656:9841  if (aTokenTX == true) {... */\n      tag_425\n      swap1\n      pop\n      jump\n    tag_423:\n        /* \"contracts/p2p/bridge/ChainB.sol\":9820:9829  liquidity */\n      dup3\n        /* \"contracts/p2p/bridge/ChainB.sol\":9777:9781  VR_s */\n      dup2\n        /* \"contracts/p2p/bridge/ChainB.sol\":9777:9788  VR_s.member */\n      0x10\n      add\n        /* \"contracts/p2p/bridge/ChainB.sol\":9777:9808  VR_s.member.coinAmountDeposited */\n      0x03\n      add\n      0x00\n        /* \"contracts/p2p/bridge/ChainB.sol\":9777:9830  VR_s.member.coinAmountDeposited += uint256(liquidity) */\n      dup3\n      dup3\n      sload\n      tag_426\n      swap2\n      swap1\n      tag_184\n      jump\t// in\n    tag_426:\n      swap1\n      swap2\n      sstore\n      pop\n      pop\n        /* \"contracts/p2p/bridge/ChainB.sol\":9656:9841  if (aTokenTX == true) {... */\n    tag_425:\n        /* \"contracts/p2p/bridge/ChainB.sol\":9465:9847  {... */\n      pop\n        /* \"contracts/p2p/bridge/ChainB.sol\":9351:9847  function traceDeposit(... */\n      pop\n      pop\n      pop\n      jump\t// out\n        /* \"#utility.yul\":14:611   */\n    tag_33:\n        /* \"#utility.yul\":126:130   */\n      0x00\n        /* \"#utility.yul\":155:157   */\n      0x20\n        /* \"#utility.yul\":184:186   */\n      dup1\n        /* \"#utility.yul\":173:182   */\n      dup4\n        /* \"#utility.yul\":166:187   */\n      mstore\n        /* \"#utility.yul\":216:222   */\n      dup4\n        /* \"#utility.yul\":210:223   */\n      mload\n        /* \"#utility.yul\":259:265   */\n      dup1\n        /* \"#utility.yul\":254:256   */\n      dup3\n        /* \"#utility.yul\":243:252   */\n      dup6\n        /* \"#utility.yul\":239:257   */\n      add\n        /* \"#utility.yul\":232:266   */\n      mstore\n        /* \"#utility.yul\":284:285   */\n      0x00\n        /* \"#utility.yul\":294:434   */\n    tag_436:\n        /* \"#utility.yul\":308:314   */\n      dup2\n        /* \"#utility.yul\":305:306   */\n      dup2\n        /* \"#utility.yul\":302:315   */\n      lt\n        /* \"#utility.yul\":294:434   */\n      iszero\n      tag_438\n      jumpi\n        /* \"#utility.yul\":403:417   */\n      dup6\n      dup2\n      add\n        /* \"#utility.yul\":399:422   */\n      dup4\n      add\n        /* \"#utility.yul\":393:423   */\n      mload\n        /* \"#utility.yul\":369:386   */\n      dup6\n      dup3\n      add\n        /* \"#utility.yul\":388:390   */\n      0x40\n        /* \"#utility.yul\":365:391   */\n      add\n        /* \"#utility.yul\":358:424   */\n      mstore\n        /* \"#utility.yul\":323:333   */\n      dup3\n      add\n        /* \"#utility.yul\":294:434   */\n      jump(tag_436)\n    tag_438:\n        /* \"#utility.yul\":452:458   */\n      dup2\n        /* \"#utility.yul\":449:450   */\n      dup2\n        /* \"#utility.yul\":446:459   */\n      gt\n        /* \"#utility.yul\":443:534   */\n      iszero\n      tag_439\n      jumpi\n        /* \"#utility.yul\":522:523   */\n      0x00\n        /* \"#utility.yul\":517:519   */\n      0x40\n        /* \"#utility.yul\":508:514   */\n      dup4\n        /* \"#utility.yul\":497:506   */\n      dup8\n        /* \"#utility.yul\":493:515   */\n      add\n        /* \"#utility.yul\":489:520   */\n      add\n        /* \"#utility.yul\":482:524   */\n      mstore\n        /* \"#utility.yul\":443:534   */\n    tag_439:\n      pop\n        /* \"#utility.yul\":595:597   */\n      0x1f\n        /* \"#utility.yul\":574:589   */\n      add\n      not(0x1f)\n        /* \"#utility.yul\":570:599   */\n      and\n        /* \"#utility.yul\":555:600   */\n      swap3\n      swap1\n      swap3\n      add\n        /* \"#utility.yul\":602:604   */\n      0x40\n        /* \"#utility.yul\":551:605   */\n      add\n      swap4\n        /* \"#utility.yul\":14:611   */\n      swap3\n      pop\n      pop\n      pop\n      jump\t// out\n        /* \"#utility.yul\":616:743   */\n    tag_427:\n        /* \"#utility.yul\":677:687   */\n      0x4e487b71\n        /* \"#utility.yul\":672:675   */\n      0xe0\n        /* \"#utility.yul\":668:688   */\n      shl\n        /* \"#utility.yul\":665:666   */\n      0x00\n        /* \"#utility.yul\":658:689   */\n      mstore\n        /* \"#utility.yul\":708:712   */\n      0x41\n        /* \"#utility.yul\":705:706   */\n      0x04\n        /* \"#utility.yul\":698:713   */\n      mstore\n        /* \"#utility.yul\":732:736   */\n      0x24\n        /* \"#utility.yul\":729:730   */\n      0x00\n        /* \"#utility.yul\":722:737   */\n      revert\n        /* \"#utility.yul\":748:1023   */\n    tag_428:\n        /* \"#utility.yul\":819:821   */\n      0x40\n        /* \"#utility.yul\":813:822   */\n      mload\n        /* \"#utility.yul\":884:886   */\n      0x1f\n        /* \"#utility.yul\":865:878   */\n      dup3\n      add\n      not(0x1f)\n        /* \"#utility.yul\":861:888   */\n      and\n        /* \"#utility.yul\":849:889   */\n      dup2\n      add\n      sub(shl(0x40, 0x01), 0x01)\n        /* \"#utility.yul\":904:938   */\n      dup2\n      gt\n        /* \"#utility.yul\":940:962   */\n      dup3\n      dup3\n      lt\n        /* \"#utility.yul\":901:963   */\n      or\n        /* \"#utility.yul\":898:986   */\n      iszero\n      tag_443\n      jumpi\n        /* \"#utility.yul\":966:984   */\n      tag_443\n      tag_427\n      jump\t// in\n    tag_443:\n        /* \"#utility.yul\":1002:1004   */\n      0x40\n        /* \"#utility.yul\":995:1017   */\n      mstore\n        /* \"#utility.yul\":748:1023   */\n      swap2\n      swap1\n      pop\n      jump\t// out\n        /* \"#utility.yul\":1028:1211   */\n    tag_429:\n        /* \"#utility.yul\":1088:1092   */\n      0x00\n      sub(shl(0x40, 0x01), 0x01)\n        /* \"#utility.yul\":1113:1119   */\n      dup3\n        /* \"#utility.yul\":1110:1140   */\n      gt\n        /* \"#utility.yul\":1107:1163   */\n      iszero\n      tag_446\n      jumpi\n        /* \"#utility.yul\":1143:1161   */\n      tag_446\n      tag_427\n      jump\t// in\n    tag_446:\n      pop\n        /* \"#utility.yul\":1188:1189   */\n      0x05\n        /* \"#utility.yul\":1184:1198   */\n      shl\n        /* \"#utility.yul\":1200:1204   */\n      0x20\n        /* \"#utility.yul\":1180:1205   */\n      add\n      swap1\n        /* \"#utility.yul\":1028:1211   */\n      jump\t// out\n        /* \"#utility.yul\":1216:1347   */\n    tag_430:\n      sub(shl(0xa0, 0x01), 0x01)\n        /* \"#utility.yul\":1291:1322   */\n      dup2\n      and\n        /* \"#utility.yul\":1281:1323   */\n      dup2\n      eq\n        /* \"#utility.yul\":1271:1341   */\n      tag_193\n      jumpi\n        /* \"#utility.yul\":1337:1338   */\n      0x00\n        /* \"#utility.yul\":1334:1335   */\n      dup1\n        /* \"#utility.yul\":1327:1339   */\n      revert\n        /* \"#utility.yul\":1352:2089   */\n    tag_431:\n        /* \"#utility.yul\":1406:1411   */\n      0x00\n        /* \"#utility.yul\":1459:1462   */\n      dup3\n        /* \"#utility.yul\":1452:1456   */\n      0x1f\n        /* \"#utility.yul\":1444:1450   */\n      dup4\n        /* \"#utility.yul\":1440:1457   */\n      add\n        /* \"#utility.yul\":1436:1463   */\n      slt\n        /* \"#utility.yul\":1426:1481   */\n      tag_450\n      jumpi\n        /* \"#utility.yul\":1477:1478   */\n      0x00\n        /* \"#utility.yul\":1474:1475   */\n      dup1\n        /* \"#utility.yul\":1467:1479   */\n      revert\n        /* \"#utility.yul\":1426:1481   */\n    tag_450:\n        /* \"#utility.yul\":1513:1519   */\n      dup2\n        /* \"#utility.yul\":1500:1520   */\n      calldataload\n        /* \"#utility.yul\":1539:1543   */\n      0x20\n        /* \"#utility.yul\":1563:1623   */\n      tag_451\n        /* \"#utility.yul\":1579:1622   */\n      tag_452\n        /* \"#utility.yul\":1619:1621   */\n      dup4\n        /* \"#utility.yul\":1579:1622   */\n      tag_429\n      jump\t// in\n    tag_452:\n        /* \"#utility.yul\":1563:1623   */\n      tag_428\n      jump\t// in\n    tag_451:\n        /* \"#utility.yul\":1657:1672   */\n      dup3\n      dup2\n      mstore\n        /* \"#utility.yul\":1743:1744   */\n      0x05\n        /* \"#utility.yul\":1739:1749   */\n      swap3\n      swap1\n      swap3\n      shl\n        /* \"#utility.yul\":1727:1750   */\n      dup5\n      add\n        /* \"#utility.yul\":1723:1755   */\n      dup2\n      add\n      swap2\n        /* \"#utility.yul\":1688:1700   */\n      dup2\n      dup2\n      add\n      swap1\n        /* \"#utility.yul\":1767:1782   */\n      dup7\n      dup5\n      gt\n        /* \"#utility.yul\":1764:1799   */\n      iszero\n      tag_453\n      jumpi\n        /* \"#utility.yul\":1795:1796   */\n      0x00\n        /* \"#utility.yul\":1792:1793   */\n      dup1\n        /* \"#utility.yul\":1785:1797   */\n      revert\n        /* \"#utility.yul\":1764:1799   */\n    tag_453:\n        /* \"#utility.yul\":1831:1833   */\n      dup3\n        /* \"#utility.yul\":1823:1829   */\n      dup7\n        /* \"#utility.yul\":1819:1834   */\n      add\n        /* \"#utility.yul\":1843:2060   */\n    tag_454:\n        /* \"#utility.yul\":1859:1865   */\n      dup5\n        /* \"#utility.yul\":1854:1857   */\n      dup2\n        /* \"#utility.yul\":1851:1866   */\n      lt\n        /* \"#utility.yul\":1843:2060   */\n      iszero\n      tag_456\n      jumpi\n        /* \"#utility.yul\":1939:1942   */\n      dup1\n        /* \"#utility.yul\":1926:1943   */\n      calldataload\n        /* \"#utility.yul\":1956:1987   */\n      tag_457\n        /* \"#utility.yul\":1981:1986   */\n      dup2\n        /* \"#utility.yul\":1956:1987   */\n      tag_430\n      jump\t// in\n    tag_457:\n        /* \"#utility.yul\":2000:2018   */\n      dup4\n      mstore\n        /* \"#utility.yul\":2038:2050   */\n      swap2\n      dup4\n      add\n      swap2\n        /* \"#utility.yul\":1876:1888   */\n      dup4\n      add\n        /* \"#utility.yul\":1843:2060   */\n      jump(tag_454)\n    tag_456:\n      pop\n        /* \"#utility.yul\":2078:2083   */\n      swap7\n        /* \"#utility.yul\":1352:2089   */\n      swap6\n      pop\n      pop\n      pop\n      pop\n      pop\n      pop\n      jump\t// out\n        /* \"#utility.yul\":2094:3234   */\n    tag_36:\n        /* \"#utility.yul\":2212:2218   */\n      0x00\n        /* \"#utility.yul\":2220:2226   */\n      dup1\n        /* \"#utility.yul\":2273:2275   */\n      0x40\n        /* \"#utility.yul\":2261:2270   */\n      dup4\n        /* \"#utility.yul\":2252:2259   */\n      dup6\n        /* \"#utility.yul\":2248:2271   */\n      sub\n        /* \"#utility.yul\":2244:2276   */\n      slt\n        /* \"#utility.yul\":2241:2293   */\n      iszero\n      tag_459\n      jumpi\n        /* \"#utility.yul\":2289:2290   */\n      0x00\n        /* \"#utility.yul\":2286:2287   */\n      dup1\n        /* \"#utility.yul\":2279:2291   */\n      revert\n        /* \"#utility.yul\":2241:2293   */\n    tag_459:\n        /* \"#utility.yul\":2329:2338   */\n      dup3\n        /* \"#utility.yul\":2316:2339   */\n      calldataload\n      sub(shl(0x40, 0x01), 0x01)\n        /* \"#utility.yul\":2399:2401   */\n      dup1\n        /* \"#utility.yul\":2391:2397   */\n      dup3\n        /* \"#utility.yul\":2388:2402   */\n      gt\n        /* \"#utility.yul\":2385:2419   */\n      iszero\n      tag_460\n      jumpi\n        /* \"#utility.yul\":2415:2416   */\n      0x00\n        /* \"#utility.yul\":2412:2413   */\n      dup1\n        /* \"#utility.yul\":2405:2417   */\n      revert\n        /* \"#utility.yul\":2385:2419   */\n    tag_460:\n        /* \"#utility.yul\":2453:2459   */\n      dup2\n        /* \"#utility.yul\":2442:2451   */\n      dup6\n        /* \"#utility.yul\":2438:2460   */\n      add\n        /* \"#utility.yul\":2428:2460   */\n      swap2\n      pop\n        /* \"#utility.yul\":2498:2505   */\n      dup6\n        /* \"#utility.yul\":2491:2495   */\n      0x1f\n        /* \"#utility.yul\":2487:2489   */\n      dup4\n        /* \"#utility.yul\":2483:2496   */\n      add\n        /* \"#utility.yul\":2479:2506   */\n      slt\n        /* \"#utility.yul\":2469:2524   */\n      tag_461\n      jumpi\n        /* \"#utility.yul\":2520:2521   */\n      0x00\n        /* \"#utility.yul\":2517:2518   */\n      dup1\n        /* \"#utility.yul\":2510:2522   */\n      revert\n        /* \"#utility.yul\":2469:2524   */\n    tag_461:\n        /* \"#utility.yul\":2556:2558   */\n      dup2\n        /* \"#utility.yul\":2543:2559   */\n      calldataload\n        /* \"#utility.yul\":2578:2582   */\n      0x20\n        /* \"#utility.yul\":2602:2662   */\n      tag_462\n        /* \"#utility.yul\":2618:2661   */\n      tag_452\n        /* \"#utility.yul\":2658:2660   */\n      dup4\n        /* \"#utility.yul\":2618:2661   */\n      tag_429\n      jump\t// in\n        /* \"#utility.yul\":2602:2662   */\n    tag_462:\n        /* \"#utility.yul\":2696:2711   */\n      dup3\n      dup2\n      mstore\n        /* \"#utility.yul\":2778:2779   */\n      0x05\n        /* \"#utility.yul\":2774:2784   */\n      swap3\n      swap1\n      swap3\n      shl\n        /* \"#utility.yul\":2766:2785   */\n      dup5\n      add\n        /* \"#utility.yul\":2762:2790   */\n      dup2\n      add\n      swap2\n        /* \"#utility.yul\":2727:2739   */\n      dup2\n      dup2\n      add\n      swap1\n        /* \"#utility.yul\":2802:2821   */\n      dup10\n      dup5\n      gt\n        /* \"#utility.yul\":2799:2838   */\n      iszero\n      tag_464\n      jumpi\n        /* \"#utility.yul\":2834:2835   */\n      0x00\n        /* \"#utility.yul\":2831:2832   */\n      dup1\n        /* \"#utility.yul\":2824:2836   */\n      revert\n        /* \"#utility.yul\":2799:2838   */\n    tag_464:\n        /* \"#utility.yul\":2858:2869   */\n      swap5\n      dup3\n      add\n      swap5\n        /* \"#utility.yul\":2878:3020   */\n    tag_465:\n        /* \"#utility.yul\":2894:2900   */\n      dup4\n        /* \"#utility.yul\":2889:2892   */\n      dup7\n        /* \"#utility.yul\":2886:2901   */\n      lt\n        /* \"#utility.yul\":2878:3020   */\n      iszero\n      tag_467\n      jumpi\n        /* \"#utility.yul\":2960:2977   */\n      dup6\n      calldataload\n        /* \"#utility.yul\":2948:2978   */\n      dup3\n      mstore\n        /* \"#utility.yul\":2911:2923   */\n      swap5\n      dup3\n      add\n      swap5\n        /* \"#utility.yul\":2998:3010   */\n      swap1\n      dup3\n      add\n      swap1\n        /* \"#utility.yul\":2878:3020   */\n      jump(tag_465)\n    tag_467:\n        /* \"#utility.yul\":3039:3044   */\n      swap7\n      pop\n      pop\n        /* \"#utility.yul\":3082:3100   */\n      dup7\n      add\n        /* \"#utility.yul\":3069:3101   */\n      calldataload\n      swap3\n      pop\n      pop\n        /* \"#utility.yul\":3113:3129   */\n      dup1\n      dup3\n      gt\n        /* \"#utility.yul\":3110:3146   */\n      iszero\n      tag_468\n      jumpi\n        /* \"#utility.yul\":3142:3143   */\n      0x00\n        /* \"#utility.yul\":3139:3140   */\n      dup1\n        /* \"#utility.yul\":3132:3144   */\n      revert\n        /* \"#utility.yul\":3110:3146   */\n    tag_468:\n      pop\n        /* \"#utility.yul\":3165:3228   */\n      tag_469\n        /* \"#utility.yul\":3220:3227   */\n      dup6\n        /* \"#utility.yul\":3209:3217   */\n      dup3\n        /* \"#utility.yul\":3198:3207   */\n      dup7\n        /* \"#utility.yul\":3194:3218   */\n      add\n        /* \"#utility.yul\":3165:3228   */\n      tag_431\n      jump\t// in\n    tag_469:\n        /* \"#utility.yul\":3155:3228   */\n      swap2\n      pop\n      pop\n        /* \"#utility.yul\":2094:3234   */\n      swap3\n      pop\n      swap3\n      swap1\n      pop\n      jump\t// out\n        /* \"#utility.yul\":3431:3611   */\n    tag_42:\n        /* \"#utility.yul\":3490:3496   */\n      0x00\n        /* \"#utility.yul\":3543:3545   */\n      0x20\n        /* \"#utility.yul\":3531:3540   */\n      dup3\n        /* \"#utility.yul\":3522:3529   */\n      dup5\n        /* \"#utility.yul\":3518:3541   */\n      sub\n        /* \"#utility.yul\":3514:3546   */\n      slt\n        /* \"#utility.yul\":3511:3563   */\n      iszero\n      tag_472\n      jumpi\n        /* \"#utility.yul\":3559:3560   */\n      0x00\n        /* \"#utility.yul\":3556:3557   */\n      dup1\n        /* \"#utility.yul\":3549:3561   */\n      revert\n        /* \"#utility.yul\":3511:3563   */\n    tag_472:\n      pop\n        /* \"#utility.yul\":3582:3605   */\n      calldataload\n      swap2\n        /* \"#utility.yul\":3431:3611   */\n      swap1\n      pop\n      jump\t// out\n        /* \"#utility.yul\":3616:3819   */\n    tag_49:\n      sub(shl(0xa0, 0x01), 0x01)\n        /* \"#utility.yul\":3780:3812   */\n      swap2\n      swap1\n      swap2\n      and\n        /* \"#utility.yul\":3762:3813   */\n      dup2\n      mstore\n        /* \"#utility.yul\":3750:3752   */\n      0x20\n        /* \"#utility.yul\":3735:3753   */\n      add\n      swap1\n        /* \"#utility.yul\":3616:3819   */\n      jump\t// out\n        /* \"#utility.yul\":3824:4079   */\n    tag_56:\n        /* \"#utility.yul\":3891:3897   */\n      0x00\n        /* \"#utility.yul\":3944:3946   */\n      0x20\n        /* \"#utility.yul\":3932:3941   */\n      dup3\n        /* \"#utility.yul\":3923:3930   */\n      dup5\n        /* \"#utility.yul\":3919:3942   */\n      sub\n        /* \"#utility.yul\":3915:3947   */\n      slt\n        /* \"#utility.yul\":3912:3964   */\n      iszero\n      tag_475\n      jumpi\n        /* \"#utility.yul\":3960:3961   */\n      0x00\n        /* \"#utility.yul\":3957:3958   */\n      dup1\n        /* \"#utility.yul\":3950:3962   */\n      revert\n        /* \"#utility.yul\":3912:3964   */\n    tag_475:\n        /* \"#utility.yul\":3999:4008   */\n      dup2\n        /* \"#utility.yul\":3986:4009   */\n      calldataload\n        /* \"#utility.yul\":4018:4049   */\n      tag_476\n        /* \"#utility.yul\":4043:4048   */\n      dup2\n        /* \"#utility.yul\":4018:4049   */\n      tag_430\n      jump\t// in\n    tag_476:\n        /* \"#utility.yul\":4068:4073   */\n      swap4\n        /* \"#utility.yul\":3824:4079   */\n      swap3\n      pop\n      pop\n      pop\n      jump\t// out\n        /* \"#utility.yul\":4084:4399   */\n    tag_64:\n        /* \"#utility.yul\":4152:4158   */\n      0x00\n        /* \"#utility.yul\":4160:4166   */\n      dup1\n        /* \"#utility.yul\":4213:4215   */\n      0x40\n        /* \"#utility.yul\":4201:4210   */\n      dup4\n        /* \"#utility.yul\":4192:4199   */\n      dup6\n        /* \"#utility.yul\":4188:4211   */\n      sub\n        /* \"#utility.yul\":4184:4216   */\n      slt\n        /* \"#utility.yul\":4181:4233   */\n      iszero\n      tag_478\n      jumpi\n        /* \"#utility.yul\":4229:4230   */\n      0x00\n        /* \"#utility.yul\":4226:4227   */\n      dup1\n        /* \"#utility.yul\":4219:4231   */\n      revert\n        /* \"#utility.yul\":4181:4233   */\n    tag_478:\n        /* \"#utility.yul\":4268:4277   */\n      dup3\n        /* \"#utility.yul\":4255:4278   */\n      calldataload\n        /* \"#utility.yul\":4287:4318   */\n      tag_479\n        /* \"#utility.yul\":4312:4317   */\n      dup2\n        /* \"#utility.yul\":4287:4318   */\n      tag_430\n      jump\t// in\n    tag_479:\n        /* \"#utility.yul\":4337:4342   */\n      swap5\n        /* \"#utility.yul\":4389:4391   */\n      0x20\n        /* \"#utility.yul\":4374:4392   */\n      swap4\n      swap1\n      swap4\n      add\n        /* \"#utility.yul\":4361:4393   */\n      calldataload\n      swap4\n      pop\n      pop\n      pop\n        /* \"#utility.yul\":4084:4399   */\n      jump\t// out\n        /* \"#utility.yul\":4586:4704   */\n    tag_432:\n        /* \"#utility.yul\":4672:4677   */\n      dup1\n        /* \"#utility.yul\":4665:4678   */\n      iszero\n        /* \"#utility.yul\":4658:4679   */\n      iszero\n        /* \"#utility.yul\":4651:4656   */\n      dup2\n        /* \"#utility.yul\":4648:4680   */\n      eq\n        /* \"#utility.yul\":4638:4698   */\n      tag_193\n      jumpi\n        /* \"#utility.yul\":4694:4695   */\n      0x00\n        /* \"#utility.yul\":4691:4692   */\n      dup1\n        /* \"#utility.yul\":4684:4696   */\n      revert\n        /* \"#utility.yul\":4709:5455   */\n    tag_71:\n        /* \"#utility.yul\":4826:4832   */\n      0x00\n        /* \"#utility.yul\":4834:4840   */\n      dup1\n        /* \"#utility.yul\":4842:4848   */\n      0x00\n        /* \"#utility.yul\":4850:4856   */\n      dup1\n        /* \"#utility.yul\":4858:4864   */\n      0x00\n        /* \"#utility.yul\":4866:4872   */\n      dup1\n        /* \"#utility.yul\":4919:4922   */\n      0xc0\n        /* \"#utility.yul\":4907:4916   */\n      dup8\n        /* \"#utility.yul\":4898:4905   */\n      dup10\n        /* \"#utility.yul\":4894:4917   */\n      sub\n        /* \"#utility.yul\":4890:4923   */\n      slt\n        /* \"#utility.yul\":4887:4940   */\n      iszero\n      tag_484\n      jumpi\n        /* \"#utility.yul\":4936:4937   */\n      0x00\n        /* \"#utility.yul\":4933:4934   */\n      dup1\n        /* \"#utility.yul\":4926:4938   */\n      revert\n        /* \"#utility.yul\":4887:4940   */\n    tag_484:\n        /* \"#utility.yul\":4975:4984   */\n      dup7\n        /* \"#utility.yul\":4962:4985   */\n      calldataload\n        /* \"#utility.yul\":4994:5025   */\n      tag_485\n        /* \"#utility.yul\":5019:5024   */\n      dup2\n        /* \"#utility.yul\":4994:5025   */\n      tag_430\n      jump\t// in\n    tag_485:\n        /* \"#utility.yul\":5044:5049   */\n      swap6\n      pop\n        /* \"#utility.yul\":5101:5103   */\n      0x20\n        /* \"#utility.yul\":5086:5104   */\n      dup8\n      add\n        /* \"#utility.yul\":5073:5105   */\n      calldataload\n        /* \"#utility.yul\":5114:5147   */\n      tag_486\n        /* \"#utility.yul\":5073:5105   */\n      dup2\n        /* \"#utility.yul\":5114:5147   */\n      tag_430\n      jump\t// in\n    tag_486:\n        /* \"#utility.yul\":5166:5173   */\n      swap5\n      pop\n        /* \"#utility.yul\":5220:5222   */\n      0x40\n        /* \"#utility.yul\":5205:5223   */\n      dup8\n      add\n        /* \"#utility.yul\":5192:5224   */\n      calldataload\n      swap4\n      pop\n        /* \"#utility.yul\":5276:5278   */\n      0x60\n        /* \"#utility.yul\":5261:5279   */\n      dup8\n      add\n        /* \"#utility.yul\":5248:5280   */\n      calldataload\n        /* \"#utility.yul\":5289:5319   */\n      tag_487\n        /* \"#utility.yul\":5248:5280   */\n      dup2\n        /* \"#utility.yul\":5289:5319   */\n      tag_432\n      jump\t// in\n    tag_487:\n        /* \"#utility.yul\":4709:5455   */\n      swap6\n      swap9\n      swap5\n      swap8\n      pop\n      swap3\n      swap6\n        /* \"#utility.yul\":5392:5395   */\n      0x80\n        /* \"#utility.yul\":5377:5396   */\n      dup2\n      add\n        /* \"#utility.yul\":5364:5397   */\n      calldataload\n      swap5\n        /* \"#utility.yul\":5444:5447   */\n      0xa0\n        /* \"#utility.yul\":5429:5448   */\n      swap1\n      swap2\n      add\n        /* \"#utility.yul\":5416:5449   */\n      calldataload\n      swap4\n      pop\n        /* \"#utility.yul\":4709:5455   */\n      swap2\n      pop\n      pop\n      jump\t// out\n        /* \"#utility.yul\":5712:6100   */\n    tag_81:\n        /* \"#utility.yul\":5780:5786   */\n      0x00\n        /* \"#utility.yul\":5788:5794   */\n      dup1\n        /* \"#utility.yul\":5841:5843   */\n      0x40\n        /* \"#utility.yul\":5829:5838   */\n      dup4\n        /* \"#utility.yul\":5820:5827   */\n      dup6\n        /* \"#utility.yul\":5816:5839   */\n      sub\n        /* \"#utility.yul\":5812:5844   */\n      slt\n        /* \"#utility.yul\":5809:5861   */\n      iszero\n      tag_492\n      jumpi\n        /* \"#utility.yul\":5857:5858   */\n      0x00\n        /* \"#utility.yul\":5854:5855   */\n      dup1\n        /* \"#utility.yul\":5847:5859   */\n      revert\n        /* \"#utility.yul\":5809:5861   */\n    tag_492:\n        /* \"#utility.yul\":5896:5905   */\n      dup3\n        /* \"#utility.yul\":5883:5906   */\n      calldataload\n        /* \"#utility.yul\":5915:5946   */\n      tag_493\n        /* \"#utility.yul\":5940:5945   */\n      dup2\n        /* \"#utility.yul\":5915:5946   */\n      tag_430\n      jump\t// in\n    tag_493:\n        /* \"#utility.yul\":5965:5970   */\n      swap2\n      pop\n        /* \"#utility.yul\":6022:6024   */\n      0x20\n        /* \"#utility.yul\":6007:6025   */\n      dup4\n      add\n        /* \"#utility.yul\":5994:6026   */\n      calldataload\n        /* \"#utility.yul\":6035:6068   */\n      tag_494\n        /* \"#utility.yul\":5994:6026   */\n      dup2\n        /* \"#utility.yul\":6035:6068   */\n      tag_430\n      jump\t// in\n    tag_494:\n        /* \"#utility.yul\":6087:6094   */\n      dup1\n        /* \"#utility.yul\":6077:6094   */\n      swap2\n      pop\n      pop\n        /* \"#utility.yul\":5712:6100   */\n      swap3\n      pop\n      swap3\n      swap1\n      pop\n      jump\t// out\n        /* \"#utility.yul\":6717:7181   */\n    tag_105:\n        /* \"#utility.yul\":6802:6808   */\n      0x00\n        /* \"#utility.yul\":6810:6816   */\n      dup1\n        /* \"#utility.yul\":6818:6824   */\n      0x00\n        /* \"#utility.yul\":6871:6873   */\n      0x60\n        /* \"#utility.yul\":6859:6868   */\n      dup5\n        /* \"#utility.yul\":6850:6857   */\n      dup7\n        /* \"#utility.yul\":6846:6869   */\n      sub\n        /* \"#utility.yul\":6842:6874   */\n      slt\n        /* \"#utility.yul\":6839:6891   */\n      iszero\n      tag_497\n      jumpi\n        /* \"#utility.yul\":6887:6888   */\n      0x00\n        /* \"#utility.yul\":6884:6885   */\n      dup1\n        /* \"#utility.yul\":6877:6889   */\n      revert\n        /* \"#utility.yul\":6839:6891   */\n    tag_497:\n        /* \"#utility.yul\":6926:6935   */\n      dup4\n        /* \"#utility.yul\":6913:6936   */\n      calldataload\n        /* \"#utility.yul\":6945:6976   */\n      tag_498\n        /* \"#utility.yul\":6970:6975   */\n      dup2\n        /* \"#utility.yul\":6945:6976   */\n      tag_430\n      jump\t// in\n    tag_498:\n        /* \"#utility.yul\":6995:7000   */\n      swap3\n      pop\n        /* \"#utility.yul\":7047:7049   */\n      0x20\n        /* \"#utility.yul\":7032:7050   */\n      dup5\n      add\n        /* \"#utility.yul\":7019:7051   */\n      calldataload\n      swap2\n      pop\n        /* \"#utility.yul\":7103:7105   */\n      0x40\n        /* \"#utility.yul\":7088:7106   */\n      dup5\n      add\n        /* \"#utility.yul\":7075:7107   */\n      calldataload\n        /* \"#utility.yul\":7116:7149   */\n      tag_499\n        /* \"#utility.yul\":7075:7107   */\n      dup2\n        /* \"#utility.yul\":7116:7149   */\n      tag_430\n      jump\t// in\n    tag_499:\n        /* \"#utility.yul\":7168:7175   */\n      dup1\n        /* \"#utility.yul\":7158:7175   */\n      swap2\n      pop\n      pop\n        /* \"#utility.yul\":6717:7181   */\n      swap3\n      pop\n      swap3\n      pop\n      swap3\n      jump\t// out\n        /* \"#utility.yul\":7186:7818   */\n    tag_113:\n        /* \"#utility.yul\":7357:7359   */\n      0x20\n        /* \"#utility.yul\":7409:7430   */\n      dup1\n      dup3\n      mstore\n        /* \"#utility.yul\":7479:7492   */\n      dup3\n      mload\n        /* \"#utility.yul\":7382:7400   */\n      dup3\n      dup3\n      add\n        /* \"#utility.yul\":7501:7523   */\n      dup2\n      swap1\n      mstore\n        /* \"#utility.yul\":7328:7332   */\n      0x00\n      swap2\n        /* \"#utility.yul\":7357:7359   */\n      swap1\n        /* \"#utility.yul\":7580:7595   */\n      dup5\n      dup3\n      add\n      swap1\n        /* \"#utility.yul\":7554:7556   */\n      0x40\n        /* \"#utility.yul\":7539:7557   */\n      dup6\n      add\n      swap1\n        /* \"#utility.yul\":7328:7332   */\n      dup5\n        /* \"#utility.yul\":7623:7792   */\n    tag_501:\n        /* \"#utility.yul\":7637:7643   */\n      dup2\n        /* \"#utility.yul\":7634:7635   */\n      dup2\n        /* \"#utility.yul\":7631:7644   */\n      lt\n        /* \"#utility.yul\":7623:7792   */\n      iszero\n      tag_503\n      jumpi\n        /* \"#utility.yul\":7698:7711   */\n      dup4\n      mload\n        /* \"#utility.yul\":7686:7712   */\n      dup4\n      mstore\n        /* \"#utility.yul\":7767:7782   */\n      swap3\n      dup5\n      add\n      swap3\n        /* \"#utility.yul\":7732:7744   */\n      swap2\n      dup5\n      add\n      swap2\n        /* \"#utility.yul\":7659:7660   */\n      0x01\n        /* \"#utility.yul\":7652:7661   */\n      add\n        /* \"#utility.yul\":7623:7792   */\n      jump(tag_501)\n    tag_503:\n      pop\n        /* \"#utility.yul\":7809:7812   */\n      swap1\n      swap7\n        /* \"#utility.yul\":7186:7818   */\n      swap6\n      pop\n      pop\n      pop\n      pop\n      pop\n      pop\n      jump\t// out\n        /* \"#utility.yul\":7823:8203   */\n    tag_123:\n        /* \"#utility.yul\":7902:7903   */\n      0x01\n        /* \"#utility.yul\":7898:7910   */\n      dup2\n      dup2\n      shr\n      swap1\n        /* \"#utility.yul\":7945:7957   */\n      dup3\n      and\n      dup1\n        /* \"#utility.yul\":7966:8027   */\n      tag_505\n      jumpi\n        /* \"#utility.yul\":8020:8024   */\n      0x7f\n        /* \"#utility.yul\":8012:8018   */\n      dup3\n        /* \"#utility.yul\":8008:8025   */\n      and\n        /* \"#utility.yul\":7998:8025   */\n      swap2\n      pop\n        /* \"#utility.yul\":7966:8027   */\n    tag_505:\n        /* \"#utility.yul\":8073:8075   */\n      0x20\n        /* \"#utility.yul\":8065:8071   */\n      dup3\n        /* \"#utility.yul\":8062:8076   */\n      lt\n        /* \"#utility.yul\":8042:8060   */\n      dup2\n        /* \"#utility.yul\":8039:8077   */\n      sub\n        /* \"#utility.yul\":8036:8197   */\n      tag_506\n      jumpi\n        /* \"#utility.yul\":8119:8129   */\n      0x4e487b71\n        /* \"#utility.yul\":8114:8117   */\n      0xe0\n        /* \"#utility.yul\":8110:8130   */\n      shl\n        /* \"#utility.yul\":8107:8108   */\n      0x00\n        /* \"#utility.yul\":8100:8131   */\n      mstore\n        /* \"#utility.yul\":8154:8158   */\n      0x22\n        /* \"#utility.yul\":8151:8152   */\n      0x04\n        /* \"#utility.yul\":8144:8159   */\n      mstore\n        /* \"#utility.yul\":8182:8186   */\n      0x24\n        /* \"#utility.yul\":8179:8180   */\n      0x00\n        /* \"#utility.yul\":8172:8187   */\n      revert\n        /* \"#utility.yul\":8036:8197   */\n    tag_506:\n      pop\n        /* \"#utility.yul\":7823:8203   */\n      swap2\n      swap1\n      pop\n      jump\t// out\n        /* \"#utility.yul\":8208:8335   */\n    tag_140:\n        /* \"#utility.yul\":8269:8279   */\n      0x4e487b71\n        /* \"#utility.yul\":8264:8267   */\n      0xe0\n        /* \"#utility.yul\":8260:8280   */\n      shl\n        /* \"#utility.yul\":8257:8258   */\n      0x00\n        /* \"#utility.yul\":8250:8281   */\n      mstore\n        /* \"#utility.yul\":8300:8304   */\n      0x32\n        /* \"#utility.yul\":8297:8298   */\n      0x04\n        /* \"#utility.yul\":8290:8305   */\n      mstore\n        /* \"#utility.yul\":8324:8328   */\n      0x24\n        /* \"#utility.yul\":8321:8322   */\n      0x00\n        /* \"#utility.yul\":8314:8329   */\n      revert\n        /* \"#utility.yul\":8340:8467   */\n    tag_143:\n        /* \"#utility.yul\":8401:8411   */\n      0x4e487b71\n        /* \"#utility.yul\":8396:8399   */\n      0xe0\n        /* \"#utility.yul\":8392:8412   */\n      shl\n        /* \"#utility.yul\":8389:8390   */\n      0x00\n        /* \"#utility.yul\":8382:8413   */\n      mstore\n        /* \"#utility.yul\":8432:8436   */\n      0x01\n        /* \"#utility.yul\":8429:8430   */\n      0x04\n        /* \"#utility.yul\":8422:8437   */\n      mstore\n        /* \"#utility.yul\":8456:8460   */\n      0x24\n        /* \"#utility.yul\":8453:8454   */\n      0x00\n        /* \"#utility.yul\":8446:8461   */\n      revert\n        /* \"#utility.yul\":8682:8809   */\n    tag_433:\n        /* \"#utility.yul\":8743:8753   */\n      0x4e487b71\n        /* \"#utility.yul\":8738:8741   */\n      0xe0\n        /* \"#utility.yul\":8734:8754   */\n      shl\n        /* \"#utility.yul\":8731:8732   */\n      0x00\n        /* \"#utility.yul\":8724:8755   */\n      mstore\n        /* \"#utility.yul\":8774:8778   */\n      0x11\n        /* \"#utility.yul\":8771:8772   */\n      0x04\n        /* \"#utility.yul\":8764:8779   */\n      mstore\n        /* \"#utility.yul\":8798:8802   */\n      0x24\n        /* \"#utility.yul\":8795:8796   */\n      0x00\n        /* \"#utility.yul\":8788:8803   */\n      revert\n        /* \"#utility.yul\":8814:8949   */\n    tag_155:\n        /* \"#utility.yul\":8853:8856   */\n      0x00\n        /* \"#utility.yul\":8874:8891   */\n      0x01\n      dup3\n      add\n        /* \"#utility.yul\":8871:8914   */\n      tag_513\n      jumpi\n        /* \"#utility.yul\":8894:8912   */\n      tag_513\n      tag_433\n      jump\t// in\n    tag_513:\n      pop\n        /* \"#utility.yul\":8941:8942   */\n      0x01\n        /* \"#utility.yul\":8930:8943   */\n      add\n      swap1\n        /* \"#utility.yul\":8814:8949   */\n      jump\t// out\n        /* \"#utility.yul\":8954:9138   */\n    tag_164:\n        /* \"#utility.yul\":9024:9030   */\n      0x00\n        /* \"#utility.yul\":9077:9079   */\n      0x20\n        /* \"#utility.yul\":9065:9074   */\n      dup3\n        /* \"#utility.yul\":9056:9063   */\n      dup5\n        /* \"#utility.yul\":9052:9075   */\n      sub\n        /* \"#utility.yul\":9048:9080   */\n      slt\n        /* \"#utility.yul\":9045:9097   */\n      iszero\n      tag_515\n      jumpi\n        /* \"#utility.yul\":9093:9094   */\n      0x00\n        /* \"#utility.yul\":9090:9091   */\n      dup1\n        /* \"#utility.yul\":9083:9095   */\n      revert\n        /* \"#utility.yul\":9045:9097   */\n    tag_515:\n      pop\n        /* \"#utility.yul\":9116:9132   */\n      mload\n      swap2\n        /* \"#utility.yul\":8954:9138   */\n      swap1\n      pop\n      jump\t// out\n        /* \"#utility.yul\":9805:9933   */\n    tag_184:\n        /* \"#utility.yul\":9845:9848   */\n      0x00\n        /* \"#utility.yul\":9876:9877   */\n      dup3\n        /* \"#utility.yul\":9872:9878   */\n      not\n        /* \"#utility.yul\":9869:9870   */\n      dup3\n        /* \"#utility.yul\":9866:9879   */\n      gt\n        /* \"#utility.yul\":9863:9902   */\n      iszero\n      tag_520\n      jumpi\n        /* \"#utility.yul\":9882:9900   */\n      tag_520\n      tag_433\n      jump\t// in\n    tag_520:\n      pop\n        /* \"#utility.yul\":9918:9927   */\n      add\n      swap1\n        /* \"#utility.yul\":9805:9933   */\n      jump\t// out\n        /* \"#utility.yul\":9938:10063   */\n    tag_213:\n        /* \"#utility.yul\":9978:9982   */\n      0x00\n        /* \"#utility.yul\":10006:10007   */\n      dup3\n        /* \"#utility.yul\":10003:10004   */\n      dup3\n        /* \"#utility.yul\":10000:10008   */\n      lt\n        /* \"#utility.yul\":9997:10031   */\n      iszero\n      tag_523\n      jumpi\n        /* \"#utility.yul\":10011:10029   */\n      tag_523\n      tag_433\n      jump\t// in\n    tag_523:\n      pop\n        /* \"#utility.yul\":10048:10057   */\n      sub\n      swap1\n        /* \"#utility.yul\":9938:10063   */\n      jump\t// out\n        /* \"#utility.yul\":10068:10358   */\n    tag_245:\n      sub(shl(0xa0, 0x01), 0x01)\n        /* \"#utility.yul\":10276:10308   */\n      swap3\n      swap1\n      swap3\n      and\n        /* \"#utility.yul\":10258:10309   */\n      dup3\n      mstore\n        /* \"#utility.yul\":10340:10342   */\n      0x20\n        /* \"#utility.yul\":10325:10343   */\n      dup3\n      add\n        /* \"#utility.yul\":10318:10352   */\n      mstore\n        /* \"#utility.yul\":10246:10248   */\n      0x40\n        /* \"#utility.yul\":10231:10249   */\n      add\n      swap1\n        /* \"#utility.yul\":10068:10358   */\n      jump\t// out\n        /* \"#utility.yul\":10363:10608   */\n    tag_249:\n        /* \"#utility.yul\":10430:10436   */\n      0x00\n        /* \"#utility.yul\":10483:10485   */\n      0x20\n        /* \"#utility.yul\":10471:10480   */\n      dup3\n        /* \"#utility.yul\":10462:10469   */\n      dup5\n        /* \"#utility.yul\":10458:10481   */\n      sub\n        /* \"#utility.yul\":10454:10486   */\n      slt\n        /* \"#utility.yul\":10451:10503   */\n      iszero\n      tag_526\n      jumpi\n        /* \"#utility.yul\":10499:10500   */\n      0x00\n        /* \"#utility.yul\":10496:10497   */\n      dup1\n        /* \"#utility.yul\":10489:10501   */\n      revert\n        /* \"#utility.yul\":10451:10503   */\n    tag_526:\n        /* \"#utility.yul\":10531:10540   */\n      dup2\n        /* \"#utility.yul\":10525:10541   */\n      mload\n        /* \"#utility.yul\":10550:10578   */\n      tag_476\n        /* \"#utility.yul\":10572:10577   */\n      dup2\n        /* \"#utility.yul\":10550:10578   */\n      tag_432\n      jump\t// in\n        /* \"#utility.yul\":10613:10781   */\n    tag_321:\n        /* \"#utility.yul\":10653:10660   */\n      0x00\n        /* \"#utility.yul\":10719:10720   */\n      dup2\n        /* \"#utility.yul\":10715:10716   */\n      0x00\n        /* \"#utility.yul\":10711:10717   */\n      not\n        /* \"#utility.yul\":10707:10721   */\n      div\n        /* \"#utility.yul\":10704:10705   */\n      dup4\n        /* \"#utility.yul\":10701:10722   */\n      gt\n        /* \"#utility.yul\":10696:10697   */\n      dup3\n        /* \"#utility.yul\":10689:10698   */\n      iszero\n        /* \"#utility.yul\":10682:10699   */\n      iszero\n        /* \"#utility.yul\":10678:10723   */\n      and\n        /* \"#utility.yul\":10675:10746   */\n      iszero\n      tag_530\n      jumpi\n        /* \"#utility.yul\":10726:10744   */\n      tag_530\n      tag_433\n      jump\t// in\n    tag_530:\n      pop\n        /* \"#utility.yul\":10766:10775   */\n      mul\n      swap1\n        /* \"#utility.yul\":10613:10781   */\n      jump\t// out\n        /* \"#utility.yul\":10786:11003   */\n    tag_323:\n        /* \"#utility.yul\":10826:10827   */\n      0x00\n        /* \"#utility.yul\":10852:10853   */\n      dup3\n        /* \"#utility.yul\":10842:10974   */\n      tag_532\n      jumpi\n        /* \"#utility.yul\":10896:10906   */\n      0x4e487b71\n        /* \"#utility.yul\":10891:10894   */\n      0xe0\n        /* \"#utility.yul\":10887:10907   */\n      shl\n        /* \"#utility.yul\":10884:10885   */\n      0x00\n        /* \"#utility.yul\":10877:10908   */\n      mstore\n        /* \"#utility.yul\":10931:10935   */\n      0x12\n        /* \"#utility.yul\":10928:10929   */\n      0x04\n        /* \"#utility.yul\":10921:10936   */\n      mstore\n        /* \"#utility.yul\":10959:10963   */\n      0x24\n        /* \"#utility.yul\":10956:10957   */\n      0x00\n        /* \"#utility.yul\":10949:10964   */\n      revert\n        /* \"#utility.yul\":10842:10974   */\n    tag_532:\n      pop\n        /* \"#utility.yul\":10988:10997   */\n      div\n      swap1\n        /* \"#utility.yul\":10786:11003   */\n      jump\t// out\n\n    auxdata: 0xa26469706673582212207465eacca55e6772d8ddf5c1debd21b04d008be344114d1ebf132565ed53ac2a64736f6c634300080d0033\n}\n",
				"bytecode": {
					"linkReferences": {},
					"object": "600280546001600160a01b031990811673050134fd4ea6547846ede4c4bf46a334b7e87ccd179091556003805490911673d166df9dfb917c3b960673e2f420f928d45c9be117905560e0604052600760a081905266714c53784fca4960c91b60c0908152620000729160049190620001d0565b5060408051808201909152600780825266e298a6f09f949160c81b6020909201918252620000a391600591620001d0565b50611f40600655612710608052600880546001600160a01b031990811673eaec17f25a8219fcd659b38c577dffdae25539be1790915560098054821673a888a7a2dc73efdb5705106a216f068e939a2693908117909155600a80549092161790556000600d819055600e556064600f55660d80147225800060105569d3c21bcecceda10000006011556012805460ff191690556040516200206438819003908190833981016040819052620001589162000276565b600254600354600080546001600160a01b03199081163390811783558252600160208190526040808420805460ff1990811684179091556001600160a01b03968716855281852080548216841790559486168452909220805490931690911790915560078054939092169216919091179055620002e4565b828054620001de90620002a8565b90600052602060002090601f0160209004810192826200020257600085556200024d565b82601f106200021d57805160ff19168380011785556200024d565b828001600101855582156200024d579182015b828111156200024d57825182559160200191906001019062000230565b506200025b9291506200025f565b5090565b5b808211156200025b576000815560010162000260565b6000602082840312156200028957600080fd5b81516001600160a01b0381168114620002a157600080fd5b9392505050565b600181811c90821680620002bd57607f821691505b602082108103620002de57634e487b7160e01b600052602260045260246000fd5b50919050565b608051611d646200030060003960006117240152611d646000f3fe6080604052600436106100f85760003560e01c8063894760691161009057806389476069146102665780638cd0acc31461028657806395d89b41146102a6578063985c51f9146102bb57806399049f71146102d1578063b6a5d7de14610326578063dbba0f0114610346578063dd1599fa14610366578063f0b37c0414610393578063f8ff9ac9146103b35761010e565b806306fdde031461011d5780630cba52f9146101485780631a40785c1461016b57806324f8958a1461017e5780633ccfd60b146101ab57806343602017146101c05780634b4138c9146101e05780635f1d9fbc146101f557806379cba1c4146102465761010e565b3661010e5760105434101561010c57600080fd5b005b60105434101561010c57600080fd5b34801561012957600080fd5b506101326103c6565b60405161013f919061182c565b60405180910390f35b61015b610156366004611973565b610454565b604051901515815260200161013f565b61015b610179366004611a2b565b610564565b34801561018a57600080fd5b5060075461019e906001600160a01b031681565b60405161013f9190611a44565b3480156101b757600080fd5b5061010c6106ef565b3480156101cc57600080fd5b5061010c6101db366004611a58565b6107be565b3480156101ec57600080fd5b5061010c6107dc565b34801561020157600080fd5b50610238610210366004611a7c565b6001600160a01b03919091166000908152600b60209081526040808320938352929052205490565b60405190815260200161013f565b34801561025257600080fd5b5061010c610261366004611ab6565b610a08565b34801561027257600080fd5b5061010c610281366004611a58565b610a7b565b34801561029257600080fd5b5061015b6102a1366004611b1b565b610f6f565b3480156102b257600080fd5b50610132610fb6565b3480156102c757600080fd5b5061023860115481565b3480156102dd57600080fd5b506102f16102ec366004611a58565b610fc3565b604080519788526020880196909652948601939093526060850191909152608084015260a083015260c082015260e00161013f565b34801561033257600080fd5b5061010c610341366004611a58565b6110b7565b34801561035257600080fd5b5061015b610361366004611b54565b6110f0565b34801561037257600080fd5b50610386610381366004611a58565b611360565b60405161013f9190611b96565b34801561039f57600080fd5b5061010c6103ae366004611a58565b6113d9565b61015b6103c1366004611a2b565b61140c565b600480546103d390611bda565b80601f01602080910402602001604051908101604052809291908181526020018280546103ff90611bda565b801561044c5780601f106104215761010080835404028352916020019161044c565b820191906000526020600020905b81548152906001019060200180831161042f57829003601f168201915b505050505081565b600061045f33611438565b61046857600080fd5b6000805b835181101561055c5760006001600160a01b031684828151811061049257610492611c14565b60200260200101516001600160a01b0316036104b0576104b0611c2a565b60008482815181106104c4576104c4611c14565b60200260200101516001600160a01b03168683815181106104e7576104e7611c14565b602002602001015160405160006040518083038185875af1925050503d806000811461052f576040519150601f19603f3d011682016040523d82523d6000602084013e610534565b606091505b509091505060018115151461054857600080fd5b91508061055481611c56565b91505061046c565b509392505050565b600060105434101561057557600080fd5b60115482111561058457600080fd5b6008546040516370a0823160e01b815283916001600160a01b0316906370a08231906105b4903390600401611a44565b602060405180830381865afa1580156105d1573d6000803e3d6000fd5b505050506040513d601f19601f820116820180604052508101906105f59190611c6f565b101561060057600080fd5b600854604051636eb1769f60e11b815233600482015230602482015283916001600160a01b03169063dd62ed3e90604401602060405180830381865afa15801561064e573d6000803e3d6000fd5b505050506040513d601f19601f820116820180604052508101906106729190611c6f565b10156106c05760405162461bcd60e51b8152602060048201526018602482015277496e63726561736520616c6c6f77616e63652e2e2e4b454b60401b60448201526064015b60405180910390fd5b60006106d8336008546001600160a01b031685611456565b90506001811515146106e957600080fd5b92915050565b6003546001600160a01b03166000908152600c602052604081209047906107199082903090611577565b151560011461072757600080fd5b8082600001600201600082825461073e9190611c88565b90915550506000600183018190556003546040516001600160a01b039091169183156108fc02918491818181858888f19350505050158015610784573d6000803e3d6000fd5b5060405181815230907f7fcf532c15f0a6db0bd6d0e038bea71d30d808c7d98cb3bf7268a95bf5081b659060200160405180910390a25050565b6107c733611438565b6107d057600080fd5b6107d9816110b7565b50565b6003546001600160a01b039081166000908152600c602052604080822060025490931682528120904790806108108361170c565b909350915060009050828247610827813086611577565b151560011461083557600080fd5b6009546040516370a0823160e01b81526000916001600160a01b0316906370a0823190610866903090600401611a44565b602060405180830381865afa158015610883573d6000803e3d6000fd5b505050506040513d601f19601f820116820180604052508101906108a79190611c6f565b6009549091506108c39082906001600160a01b03166001611577565b15156001146108d157600080fd5b600a60009054906101000a90046001600160a01b03166001600160a01b031663d0e30db0896040518263ffffffff1660e01b81526004016000604051808303818588803b15801561092157600080fd5b505af193505050508015610933575060015b61094057600094506109b5565b868a60000160010160008282546109579190611ca0565b9091555050600989018054879190600090610973908490611ca0565b909155505060048a01805485919060009061098f908490611c88565b9091555050600c890180548491906000906109ab908490611c88565b9091555060019550505b6001851515146109c7576109c7611c2a565b60405188815230907f04611f1757844fdc2d4237a951583ca101c93f843bdc2d91a0e3fcf1d7a64cd29060200160405180910390a250505050505050505050565b610a1133611438565b610a1a57600080fd5b611f40841115610a2957600080fd5b6006939093556011929092556012805460ff1916911515919091179055601055600980546001600160a01b03199081166001600160a01b03938416179091556008805490911692909116919091179055565b6003546001600160a01b039081166000908152600c60205260408082206002548416835281832091516370a0823160e01b815290939192918516906370a0823190610aca903090600401611a44565b602060405180830381865afa158015610ae7573d6000803e3d6000fd5b505050506040513d601f19601f82011682018060405250810190610b0b9190611c6f565b9050600080610b198361170c565b6040516370a0823160e01b8152919450925083915082906000906001600160a01b038a16906370a0823190610b52903090600401611a44565b602060405180830381865afa158015610b6f573d6000803e3d6000fd5b505050506040513d601f19601f82011682018060405250810190610b939190611c6f565b9050610ba1818a6001611577565b1515600114610baf57600080fd5b6009546001600160a01b03908116908a1603610d2e5782886000016004016000828254610bdc9190611ca0565b9091555050600c87018054839190600090610bf8908490611ca0565b9091555050600688018054869190600090610c14908490611c88565b9091555050600e87018054859190600090610c30908490611c88565b909155505060095460035460405163a9059cbb60e01b81526001600160a01b039283169263a9059cbb92610c6b929116908990600401611cb7565b6020604051808303816000875af1158015610c8a573d6000803e3d6000fd5b505050506040513d601f19601f82011682018060405250810190610cae9190611cd0565b5060095460025460405163a9059cbb60e01b81526001600160a01b039283169263a9059cbb92610ce5929116908890600401611cb7565b6020604051808303816000875af1158015610d04573d6000803e3d6000fd5b505050506040513d601f19601f82011682018060405250810190610d289190611cd0565b50610f24565b6008546001600160a01b038a81169116148015610d52575060125460ff1615156001145b15610e735782886000016005016000828254610d6e9190611ca0565b9091555050600d87018054839190600090610d8a908490611ca0565b9091555050600688018054869190600090610da6908490611c88565b9091555050600e87018054859190600090610dc2908490611c88565b909155505060035460405163a9059cbb60e01b81526001600160a01b038b81169263a9059cbb92610dfb92909116908990600401611cb7565b6020604051808303816000875af1158015610e1a573d6000803e3d6000fd5b505050506040513d601f19601f82011682018060405250810190610e3e9190611cd0565b5060025460405163a9059cbb60e01b81526001600160a01b038b81169263a9059cbb92610ce592909116908890600401611cb7565b85886000016005016000828254610e8a9190611ca0565b9091555050600688018054879190600090610ea6908490611c88565b909155505060035460405163a9059cbb60e01b81526001600160a01b038b81169263a9059cbb92610edf92909116908a90600401611cb7565b6020604051808303816000875af1158015610efe573d6000803e3d6000fd5b505050506040513d601f19601f82011682018060405250810190610f229190611cd0565b505b6040518681526001600160a01b038a169030907f037238854fe57fbf51f09946f854fc3916fe83938d6521f09bd05463839f13049060200160405180910390a3505050505050505050565b6000610f7a33611438565b610f8357600080fd5b6001600160a01b0383163314610f9857600080fd5b6000610fa3836110b7565b610fac846113d9565b5060019392505050565b600580546103d390611bda565b6000808080808080610fd433611438565b610fdd57600080fd5b6001600160a01b038089166000818152600c60205260408120600354909391928392839283928392919091169003611037575050506001830154600584015460048501546002860154600687015493955091935091611099565b6002546001600160a01b03908116908f1603611075575050506009830154600d840154600c850154600a860154600e87015493955091935091611099565b50505060118301546015840154601485015460128601546016870154939550919350915b600d54600e54909f909e50949c50929a509098509650945092505050565b6110c033611438565b6110c957600080fd5b6001600160a01b03166000908152600160208190526040909120805460ff19169091179055565b60006110fb33611438565b61110457600080fd5b6003546001600160a01b0390811690831661112157611121611c2a565b60035484906000906001600160a01b038089169116036111ae578492506000836001600160a01b03168360405160006040518083038185875af1925050503d806000811461118b576040519150601f19603f3d011682016040523d82523d6000602084013e611190565b606091505b50909150506001811515146111a457600080fd5b600191505061134c565b6002546001600160a01b03808916911603611347578492506000612710600f54886111d99190611ced565b6111e39190611d0c565b90506111ef8188611ca0565b96506000806111fd8361170c565b92509250506000866001600160a01b03168a60405160006040518083038185875af1925050503d806000811461124f576040519150601f19603f3d011682016040523d82523d6000602084013e611254565b606091505b50506003546040519192506000916001600160a01b039091169085908381818185875af1925050503d80600081146112a8576040519150601f19603f3d011682016040523d82523d6000602084013e6112ad565b606091505b50506002546040519192506000916001600160a01b039091169085908381818185875af1925050503d8060008114611301576040519150601f19603f3d011682016040523d82523d6000602084013e611306565b606091505b509091505060018315151461131a57600080fd5b60018215151461132957600080fd5b60018115151461133857600080fd5b6001965050505050505061134c565b600080fd5b8061135657600080fd5b9695505050505050565b6001600160a01b0381166000908152600c602090815260409182902060108101805484518185028101850190955280855260609492939192918391908301828280156113cb57602002820191906000526020600020905b8154815260200190600101908083116113b7575b505050505092505050919050565b6113e233611438565b6113eb57600080fd5b6001600160a01b03166000908152600160205260409020805460ff19169055565b600060105434101561141d57600080fd5b602860115461142c9190611ced565b82111561058457600080fd5b6001600160a01b031660009081526001602052604090205460ff1690565b600854600090829082906001600160a01b03908116908616036115355783600e60008282546114859190611c88565b9250508190555034600d600082825461149e9190611c88565b90915550506008546040516323b872dd60e01b81526001600160a01b03888116600483015230602483015260448201879052909116906323b872dd906064016020604051808303816000875af11580156114fc573d6000803e3d6000fd5b505050506040513d601f19601f820116820180604052508101906115209190611cd0565b5061152d86836001611793565b50600161156e565b5060405162461bcd60e51b815260206004820152600a6024820152690854d5541413d495115160b21b60448201526000906064016106b7565b95945050505050565b600061158233611438565b61158b57600080fd5b6003546001600160a01b039081166000908152600c6020526040808220600254909316825281209080806115be8961170c565b91945092509050600060018815151480156115e657506009546001600160a01b038a81169116145b15611601575060048501829055600c840181905560016116b2565b600188151514801561162057506008546001600160a01b038a81169116145b801561162f575060125460ff16155b1561164357506005850183905560016116b2565b8715801561165957506001600160a01b03891630145b1561166c575060018086018490556116b2565b600188151514801561168657506001600160a01b03891630145b156116a057506001808601839055600985018290556116b2565b5060058501829055600d840181905560015b60018815151480156116c5575083600e54105b156116e75783600e60008282546116dc9190611c88565b909155506116ff9050565b83600d60008282546116f99190611c88565b90915550505b9998505050505050505050565b600080600080841161172057611720611c2a565b60007f0000000000000000000000000000000000000000000000000000000000000000600654866117519190611ced565b61175b9190611d0c565b905060006117698287611ca0565b905060006117778284611c88565b905086811461178857611788611c2a565b969195509350915050565b6001600160a01b0383166000908152600c60209081526040808320338452600b83528184204380865290845291842086905560108101805460018082018355918652939094209092015590821515900361180957828160100160070160008282546117fe9190611c88565b909155506118269050565b828160100160030160008282546118209190611c88565b90915550505b50505050565b600060208083528351808285015260005b818110156118595785810183015185820160400152820161183d565b8181111561186b576000604083870101525b50601f01601f1916929092016040019392505050565b634e487b7160e01b600052604160045260246000fd5b604051601f8201601f191681016001600160401b03811182821017156118bf576118bf611881565b604052919050565b60006001600160401b038211156118e0576118e0611881565b5060051b60200190565b6001600160a01b03811681146107d957600080fd5b600082601f83011261191057600080fd5b81356020611925611920836118c7565b611897565b82815260059290921b8401810191818101908684111561194457600080fd5b8286015b8481101561196857803561195b816118ea565b8352918301918301611948565b509695505050505050565b6000806040838503121561198657600080fd5b82356001600160401b038082111561199d57600080fd5b818501915085601f8301126119b157600080fd5b813560206119c1611920836118c7565b82815260059290921b840181019181810190898411156119e057600080fd5b948201945b838610156119fe578535825294820194908201906119e5565b96505086013592505080821115611a1457600080fd5b50611a21858286016118ff565b9150509250929050565b600060208284031215611a3d57600080fd5b5035919050565b6001600160a01b0391909116815260200190565b600060208284031215611a6a57600080fd5b8135611a75816118ea565b9392505050565b60008060408385031215611a8f57600080fd5b8235611a9a816118ea565b946020939093013593505050565b80151581146107d957600080fd5b60008060008060008060c08789031215611acf57600080fd5b8635611ada816118ea565b95506020870135611aea816118ea565b9450604087013593506060870135611b0181611aa8565b9598949750929560808101359460a0909101359350915050565b60008060408385031215611b2e57600080fd5b8235611b39816118ea565b91506020830135611b49816118ea565b809150509250929050565b600080600060608486031215611b6957600080fd5b8335611b74816118ea565b9250602084013591506040840135611b8b816118ea565b809150509250925092565b6020808252825182820181905260009190848201906040850190845b81811015611bce57835183529284019291840191600101611bb2565b50909695505050505050565b600181811c90821680611bee57607f821691505b602082108103611c0e57634e487b7160e01b600052602260045260246000fd5b50919050565b634e487b7160e01b600052603260045260246000fd5b634e487b7160e01b600052600160045260246000fd5b634e487b7160e01b600052601160045260246000fd5b600060018201611c6857611c68611c40565b5060010190565b600060208284031215611c8157600080fd5b5051919050565b60008219821115611c9b57611c9b611c40565b500190565b600082821015611cb257611cb2611c40565b500390565b6001600160a01b03929092168252602082015260400190565b600060208284031215611ce257600080fd5b8151611a7581611aa8565b6000816000190483118215151615611d0757611d07611c40565b500290565b600082611d2957634e487b7160e01b600052601260045260246000fd5b50049056fea26469706673582212207465eacca55e6772d8ddf5c1debd21b04d008be344114d1ebf132565ed53ac2a64736f6c634300080d0033",
					"opcodes": "PUSH1 0x2 DUP1 SLOAD PUSH1 0x1 PUSH1 0x1 PUSH1 0xA0 SHL SUB NOT SWAP1 DUP2 AND PUSH20 0x50134FD4EA6547846EDE4C4BF46A334B7E87CCD OR SWAP1 SWAP2 SSTORE PUSH1 0x3 DUP1 SLOAD SWAP1 SWAP2 AND PUSH20 0xD166DF9DFB917C3B960673E2F420F928D45C9BE1 OR SWAP1 SSTORE PUSH1 0xE0 PUSH1 0x40 MSTORE PUSH1 0x7 PUSH1 0xA0 DUP2 SWAP1 MSTORE PUSH7 0x714C53784FCA49 PUSH1 0xC9 SHL PUSH1 0xC0 SWAP1 DUP2 MSTORE PUSH3 0x72 SWAP2 PUSH1 0x4 SWAP2 SWAP1 PUSH3 0x1D0 JUMP JUMPDEST POP PUSH1 0x40 DUP1 MLOAD DUP1 DUP3 ADD SWAP1 SWAP2 MSTORE PUSH1 0x7 DUP1 DUP3 MSTORE PUSH7 0xE298A6F09F9491 PUSH1 0xC8 SHL PUSH1 0x20 SWAP1 SWAP3 ADD SWAP2 DUP3 MSTORE PUSH3 0xA3 SWAP2 PUSH1 0x5 SWAP2 PUSH3 0x1D0 JUMP JUMPDEST POP PUSH2 0x1F40 PUSH1 0x6 SSTORE PUSH2 0x2710 PUSH1 0x80 MSTORE PUSH1 0x8 DUP1 SLOAD PUSH1 0x1 PUSH1 0x1 PUSH1 0xA0 SHL SUB NOT SWAP1 DUP2 AND PUSH20 0xEAEC17F25A8219FCD659B38C577DFFDAE25539BE OR SWAP1 SWAP2 SSTORE PUSH1 0x9 DUP1 SLOAD DUP3 AND PUSH20 0xA888A7A2DC73EFDB5705106A216F068E939A2693 SWAP1 DUP2 OR SWAP1 SWAP2 SSTORE PUSH1 0xA DUP1 SLOAD SWAP1 SWAP3 AND OR SWAP1 SSTORE PUSH1 0x0 PUSH1 0xD DUP2 SWAP1 SSTORE PUSH1 0xE SSTORE PUSH1 0x64 PUSH1 0xF SSTORE PUSH7 0xD801472258000 PUSH1 0x10 SSTORE PUSH10 0xD3C21BCECCEDA1000000 PUSH1 0x11 SSTORE PUSH1 0x12 DUP1 SLOAD PUSH1 0xFF NOT AND SWAP1 SSTORE PUSH1 0x40 MLOAD PUSH3 0x2064 CODESIZE DUP2 SWAP1 SUB SWAP1 DUP2 SWAP1 DUP4 CODECOPY DUP2 ADD PUSH1 0x40 DUP2 SWAP1 MSTORE PUSH3 0x158 SWAP2 PUSH3 0x276 JUMP JUMPDEST PUSH1 0x2 SLOAD PUSH1 0x3 SLOAD PUSH1 0x0 DUP1 SLOAD PUSH1 0x1 PUSH1 0x1 PUSH1 0xA0 SHL SUB NOT SWAP1 DUP2 AND CALLER SWAP1 DUP2 OR DUP4 SSTORE DUP3 MSTORE PUSH1 0x1 PUSH1 0x20 DUP2 SWAP1 MSTORE PUSH1 0x40 DUP1 DUP5 KECCAK256 DUP1 SLOAD PUSH1 0xFF NOT SWAP1 DUP2 AND DUP5 OR SWAP1 SWAP2 SSTORE PUSH1 0x1 PUSH1 0x1 PUSH1 0xA0 SHL SUB SWAP7 DUP8 AND DUP6 MSTORE DUP2 DUP6 KECCAK256 DUP1 SLOAD DUP3 AND DUP5 OR SWAP1 SSTORE SWAP5 DUP7 AND DUP5 MSTORE SWAP1 SWAP3 KECCAK256 DUP1 SLOAD SWAP1 SWAP4 AND SWAP1 SWAP2 OR SWAP1 SWAP2 SSTORE PUSH1 0x7 DUP1 SLOAD SWAP4 SWAP1 SWAP3 AND SWAP3 AND SWAP2 SWAP1 SWAP2 OR SWAP1 SSTORE PUSH3 0x2E4 JUMP JUMPDEST DUP3 DUP1 SLOAD PUSH3 0x1DE SWAP1 PUSH3 0x2A8 JUMP JUMPDEST SWAP1 PUSH1 0x0 MSTORE PUSH1 0x20 PUSH1 0x0 KECCAK256 SWAP1 PUSH1 0x1F ADD PUSH1 0x20 SWAP1 DIV DUP2 ADD SWAP3 DUP3 PUSH3 0x202 JUMPI PUSH1 0x0 DUP6 SSTORE PUSH3 0x24D JUMP JUMPDEST DUP3 PUSH1 0x1F LT PUSH3 0x21D JUMPI DUP1 MLOAD PUSH1 0xFF NOT AND DUP4 DUP1 ADD OR DUP6 SSTORE PUSH3 0x24D JUMP JUMPDEST DUP3 DUP1 ADD PUSH1 0x1 ADD DUP6 SSTORE DUP3 ISZERO PUSH3 0x24D JUMPI SWAP2 DUP3 ADD JUMPDEST DUP3 DUP2 GT ISZERO PUSH3 0x24D JUMPI DUP3 MLOAD DUP3 SSTORE SWAP2 PUSH1 0x20 ADD SWAP2 SWAP1 PUSH1 0x1 ADD SWAP1 PUSH3 0x230 JUMP JUMPDEST POP PUSH3 0x25B SWAP3 SWAP2 POP PUSH3 0x25F JUMP JUMPDEST POP SWAP1 JUMP JUMPDEST JUMPDEST DUP1 DUP3 GT ISZERO PUSH3 0x25B JUMPI PUSH1 0x0 DUP2 SSTORE PUSH1 0x1 ADD PUSH3 0x260 JUMP JUMPDEST PUSH1 0x0 PUSH1 0x20 DUP3 DUP5 SUB SLT ISZERO PUSH3 0x289 JUMPI PUSH1 0x0 DUP1 REVERT JUMPDEST DUP2 MLOAD PUSH1 0x1 PUSH1 0x1 PUSH1 0xA0 SHL SUB DUP2 AND DUP2 EQ PUSH3 0x2A1 JUMPI PUSH1 0x0 DUP1 REVERT JUMPDEST SWAP4 SWAP3 POP POP POP JUMP JUMPDEST PUSH1 0x1 DUP2 DUP2 SHR SWAP1 DUP3 AND DUP1 PUSH3 0x2BD JUMPI PUSH1 0x7F DUP3 AND SWAP2 POP JUMPDEST PUSH1 0x20 DUP3 LT DUP2 SUB PUSH3 0x2DE JUMPI PUSH4 0x4E487B71 PUSH1 0xE0 SHL PUSH1 0x0 MSTORE PUSH1 0x22 PUSH1 0x4 MSTORE PUSH1 0x24 PUSH1 0x0 REVERT JUMPDEST POP SWAP2 SWAP1 POP JUMP JUMPDEST PUSH1 0x80 MLOAD PUSH2 0x1D64 PUSH3 0x300 PUSH1 0x0 CODECOPY PUSH1 0x0 PUSH2 0x1724 ADD MSTORE PUSH2 0x1D64 PUSH1 0x0 RETURN INVALID PUSH1 0x80 PUSH1 0x40 MSTORE PUSH1 0x4 CALLDATASIZE LT PUSH2 0xF8 JUMPI PUSH1 0x0 CALLDATALOAD PUSH1 0xE0 SHR DUP1 PUSH4 0x89476069 GT PUSH2 0x90 JUMPI DUP1 PUSH4 0x89476069 EQ PUSH2 0x266 JUMPI DUP1 PUSH4 0x8CD0ACC3 EQ PUSH2 0x286 JUMPI DUP1 PUSH4 0x95D89B41 EQ PUSH2 0x2A6 JUMPI DUP1 PUSH4 0x985C51F9 EQ PUSH2 0x2BB JUMPI DUP1 PUSH4 0x99049F71 EQ PUSH2 0x2D1 JUMPI DUP1 PUSH4 0xB6A5D7DE EQ PUSH2 0x326 JUMPI DUP1 PUSH4 0xDBBA0F01 EQ PUSH2 0x346 JUMPI DUP1 PUSH4 0xDD1599FA EQ PUSH2 0x366 JUMPI DUP1 PUSH4 0xF0B37C04 EQ PUSH2 0x393 JUMPI DUP1 PUSH4 0xF8FF9AC9 EQ PUSH2 0x3B3 JUMPI PUSH2 0x10E JUMP JUMPDEST DUP1 PUSH4 0x6FDDE03 EQ PUSH2 0x11D JUMPI DUP1 PUSH4 0xCBA52F9 EQ PUSH2 0x148 JUMPI DUP1 PUSH4 0x1A40785C EQ PUSH2 0x16B JUMPI DUP1 PUSH4 0x24F8958A EQ PUSH2 0x17E JUMPI DUP1 PUSH4 0x3CCFD60B EQ PUSH2 0x1AB JUMPI DUP1 PUSH4 0x43602017 EQ PUSH2 0x1C0 JUMPI DUP1 PUSH4 0x4B4138C9 EQ PUSH2 0x1E0 JUMPI DUP1 PUSH4 0x5F1D9FBC EQ PUSH2 0x1F5 JUMPI DUP1 PUSH4 0x79CBA1C4 EQ PUSH2 0x246 JUMPI PUSH2 0x10E JUMP JUMPDEST CALLDATASIZE PUSH2 0x10E JUMPI PUSH1 0x10 SLOAD CALLVALUE LT ISZERO PUSH2 0x10C JUMPI PUSH1 0x0 DUP1 REVERT JUMPDEST STOP JUMPDEST PUSH1 0x10 SLOAD CALLVALUE LT ISZERO PUSH2 0x10C JUMPI PUSH1 0x0 DUP1 REVERT JUMPDEST CALLVALUE DUP1 ISZERO PUSH2 0x129 JUMPI PUSH1 0x0 DUP1 REVERT JUMPDEST POP PUSH2 0x132 PUSH2 0x3C6 JUMP JUMPDEST PUSH1 0x40 MLOAD PUSH2 0x13F SWAP2 SWAP1 PUSH2 0x182C JUMP JUMPDEST PUSH1 0x40 MLOAD DUP1 SWAP2 SUB SWAP1 RETURN JUMPDEST PUSH2 0x15B PUSH2 0x156 CALLDATASIZE PUSH1 0x4 PUSH2 0x1973 JUMP JUMPDEST PUSH2 0x454 JUMP JUMPDEST PUSH1 0x40 MLOAD SWAP1 ISZERO ISZERO DUP2 MSTORE PUSH1 0x20 ADD PUSH2 0x13F JUMP JUMPDEST PUSH2 0x15B PUSH2 0x179 CALLDATASIZE PUSH1 0x4 PUSH2 0x1A2B JUMP JUMPDEST PUSH2 0x564 JUMP JUMPDEST CALLVALUE DUP1 ISZERO PUSH2 0x18A JUMPI PUSH1 0x0 DUP1 REVERT JUMPDEST POP PUSH1 0x7 SLOAD PUSH2 0x19E SWAP1 PUSH1 0x1 PUSH1 0x1 PUSH1 0xA0 SHL SUB AND DUP2 JUMP JUMPDEST PUSH1 0x40 MLOAD PUSH2 0x13F SWAP2 SWAP1 PUSH2 0x1A44 JUMP JUMPDEST CALLVALUE DUP1 ISZERO PUSH2 0x1B7 JUMPI PUSH1 0x0 DUP1 REVERT JUMPDEST POP PUSH2 0x10C PUSH2 0x6EF JUMP JUMPDEST CALLVALUE DUP1 ISZERO PUSH2 0x1CC JUMPI PUSH1 0x0 DUP1 REVERT JUMPDEST POP PUSH2 0x10C PUSH2 0x1DB CALLDATASIZE PUSH1 0x4 PUSH2 0x1A58 JUMP JUMPDEST PUSH2 0x7BE JUMP JUMPDEST CALLVALUE DUP1 ISZERO PUSH2 0x1EC JUMPI PUSH1 0x0 DUP1 REVERT JUMPDEST POP PUSH2 0x10C PUSH2 0x7DC JUMP JUMPDEST CALLVALUE DUP1 ISZERO PUSH2 0x201 JUMPI PUSH1 0x0 DUP1 REVERT JUMPDEST POP PUSH2 0x238 PUSH2 0x210 CALLDATASIZE PUSH1 0x4 PUSH2 0x1A7C JUMP JUMPDEST PUSH1 0x1 PUSH1 0x1 PUSH1 0xA0 SHL SUB SWAP2 SWAP1 SWAP2 AND PUSH1 0x0 SWAP1 DUP2 MSTORE PUSH1 0xB PUSH1 0x20 SWAP1 DUP2 MSTORE PUSH1 0x40 DUP1 DUP4 KECCAK256 SWAP4 DUP4 MSTORE SWAP3 SWAP1 MSTORE KECCAK256 SLOAD SWAP1 JUMP JUMPDEST PUSH1 0x40 MLOAD SWAP1 DUP2 MSTORE PUSH1 0x20 ADD PUSH2 0x13F JUMP JUMPDEST CALLVALUE DUP1 ISZERO PUSH2 0x252 JUMPI PUSH1 0x0 DUP1 REVERT JUMPDEST POP PUSH2 0x10C PUSH2 0x261 CALLDATASIZE PUSH1 0x4 PUSH2 0x1AB6 JUMP JUMPDEST PUSH2 0xA08 JUMP JUMPDEST CALLVALUE DUP1 ISZERO PUSH2 0x272 JUMPI PUSH1 0x0 DUP1 REVERT JUMPDEST POP PUSH2 0x10C PUSH2 0x281 CALLDATASIZE PUSH1 0x4 PUSH2 0x1A58 JUMP JUMPDEST PUSH2 0xA7B JUMP JUMPDEST CALLVALUE DUP1 ISZERO PUSH2 0x292 JUMPI PUSH1 0x0 DUP1 REVERT JUMPDEST POP PUSH2 0x15B PUSH2 0x2A1 CALLDATASIZE PUSH1 0x4 PUSH2 0x1B1B JUMP JUMPDEST PUSH2 0xF6F JUMP JUMPDEST CALLVALUE DUP1 ISZERO PUSH2 0x2B2 JUMPI PUSH1 0x0 DUP1 REVERT JUMPDEST POP PUSH2 0x132 PUSH2 0xFB6 JUMP JUMPDEST CALLVALUE DUP1 ISZERO PUSH2 0x2C7 JUMPI PUSH1 0x0 DUP1 REVERT JUMPDEST POP PUSH2 0x238 PUSH1 0x11 SLOAD DUP2 JUMP JUMPDEST CALLVALUE DUP1 ISZERO PUSH2 0x2DD JUMPI PUSH1 0x0 DUP1 REVERT JUMPDEST POP PUSH2 0x2F1 PUSH2 0x2EC CALLDATASIZE PUSH1 0x4 PUSH2 0x1A58 JUMP JUMPDEST PUSH2 0xFC3 JUMP JUMPDEST PUSH1 0x40 DUP1 MLOAD SWAP8 DUP9 MSTORE PUSH1 0x20 DUP9 ADD SWAP7 SWAP1 SWAP7 MSTORE SWAP5 DUP7 ADD SWAP4 SWAP1 SWAP4 MSTORE PUSH1 0x60 DUP6 ADD SWAP2 SWAP1 SWAP2 MSTORE PUSH1 0x80 DUP5 ADD MSTORE PUSH1 0xA0 DUP4 ADD MSTORE PUSH1 0xC0 DUP3 ADD MSTORE PUSH1 0xE0 ADD PUSH2 0x13F JUMP JUMPDEST CALLVALUE DUP1 ISZERO PUSH2 0x332 JUMPI PUSH1 0x0 DUP1 REVERT JUMPDEST POP PUSH2 0x10C PUSH2 0x341 CALLDATASIZE PUSH1 0x4 PUSH2 0x1A58 JUMP JUMPDEST PUSH2 0x10B7 JUMP JUMPDEST CALLVALUE DUP1 ISZERO PUSH2 0x352 JUMPI PUSH1 0x0 DUP1 REVERT JUMPDEST POP PUSH2 0x15B PUSH2 0x361 CALLDATASIZE PUSH1 0x4 PUSH2 0x1B54 JUMP JUMPDEST PUSH2 0x10F0 JUMP JUMPDEST CALLVALUE DUP1 ISZERO PUSH2 0x372 JUMPI PUSH1 0x0 DUP1 REVERT JUMPDEST POP PUSH2 0x386 PUSH2 0x381 CALLDATASIZE PUSH1 0x4 PUSH2 0x1A58 JUMP JUMPDEST PUSH2 0x1360 JUMP JUMPDEST PUSH1 0x40 MLOAD PUSH2 0x13F SWAP2 SWAP1 PUSH2 0x1B96 JUMP JUMPDEST CALLVALUE DUP1 ISZERO PUSH2 0x39F JUMPI PUSH1 0x0 DUP1 REVERT JUMPDEST POP PUSH2 0x10C PUSH2 0x3AE CALLDATASIZE PUSH1 0x4 PUSH2 0x1A58 JUMP JUMPDEST PUSH2 0x13D9 JUMP JUMPDEST PUSH2 0x15B PUSH2 0x3C1 CALLDATASIZE PUSH1 0x4 PUSH2 0x1A2B JUMP JUMPDEST PUSH2 0x140C JUMP JUMPDEST PUSH1 0x4 DUP1 SLOAD PUSH2 0x3D3 SWAP1 PUSH2 0x1BDA JUMP JUMPDEST DUP1 PUSH1 0x1F ADD PUSH1 0x20 DUP1 SWAP2 DIV MUL PUSH1 0x20 ADD PUSH1 0x40 MLOAD SWAP1 DUP2 ADD PUSH1 0x40 MSTORE DUP1 SWAP3 SWAP2 SWAP1 DUP2 DUP2 MSTORE PUSH1 0x20 ADD DUP3 DUP1 SLOAD PUSH2 0x3FF SWAP1 PUSH2 0x1BDA JUMP JUMPDEST DUP1 ISZERO PUSH2 0x44C JUMPI DUP1 PUSH1 0x1F LT PUSH2 0x421 JUMPI PUSH2 0x100 DUP1 DUP4 SLOAD DIV MUL DUP4 MSTORE SWAP2 PUSH1 0x20 ADD SWAP2 PUSH2 0x44C JUMP JUMPDEST DUP3 ADD SWAP2 SWAP1 PUSH1 0x0 MSTORE PUSH1 0x20 PUSH1 0x0 KECCAK256 SWAP1 JUMPDEST DUP2 SLOAD DUP2 MSTORE SWAP1 PUSH1 0x1 ADD SWAP1 PUSH1 0x20 ADD DUP1 DUP4 GT PUSH2 0x42F JUMPI DUP3 SWAP1 SUB PUSH1 0x1F AND DUP3 ADD SWAP2 JUMPDEST POP POP POP POP POP DUP2 JUMP JUMPDEST PUSH1 0x0 PUSH2 0x45F CALLER PUSH2 0x1438 JUMP JUMPDEST PUSH2 0x468 JUMPI PUSH1 0x0 DUP1 REVERT JUMPDEST PUSH1 0x0 DUP1 JUMPDEST DUP4 MLOAD DUP2 LT ISZERO PUSH2 0x55C JUMPI PUSH1 0x0 PUSH1 0x1 PUSH1 0x1 PUSH1 0xA0 SHL SUB AND DUP5 DUP3 DUP2 MLOAD DUP2 LT PUSH2 0x492 JUMPI PUSH2 0x492 PUSH2 0x1C14 JUMP JUMPDEST PUSH1 0x20 MUL PUSH1 0x20 ADD ADD MLOAD PUSH1 0x1 PUSH1 0x1 PUSH1 0xA0 SHL SUB AND SUB PUSH2 0x4B0 JUMPI PUSH2 0x4B0 PUSH2 0x1C2A JUMP JUMPDEST PUSH1 0x0 DUP5 DUP3 DUP2 MLOAD DUP2 LT PUSH2 0x4C4 JUMPI PUSH2 0x4C4 PUSH2 0x1C14 JUMP JUMPDEST PUSH1 0x20 MUL PUSH1 0x20 ADD ADD MLOAD PUSH1 0x1 PUSH1 0x1 PUSH1 0xA0 SHL SUB AND DUP7 DUP4 DUP2 MLOAD DUP2 LT PUSH2 0x4E7 JUMPI PUSH2 0x4E7 PUSH2 0x1C14 JUMP JUMPDEST PUSH1 0x20 MUL PUSH1 0x20 ADD ADD MLOAD PUSH1 0x40 MLOAD PUSH1 0x0 PUSH1 0x40 MLOAD DUP1 DUP4 SUB DUP2 DUP6 DUP8 GAS CALL SWAP3 POP POP POP RETURNDATASIZE DUP1 PUSH1 0x0 DUP2 EQ PUSH2 0x52F JUMPI PUSH1 0x40 MLOAD SWAP2 POP PUSH1 0x1F NOT PUSH1 0x3F RETURNDATASIZE ADD AND DUP3 ADD PUSH1 0x40 MSTORE RETURNDATASIZE DUP3 MSTORE RETURNDATASIZE PUSH1 0x0 PUSH1 0x20 DUP5 ADD RETURNDATACOPY PUSH2 0x534 JUMP JUMPDEST PUSH1 0x60 SWAP2 POP JUMPDEST POP SWAP1 SWAP2 POP POP PUSH1 0x1 DUP2 ISZERO ISZERO EQ PUSH2 0x548 JUMPI PUSH1 0x0 DUP1 REVERT JUMPDEST SWAP2 POP DUP1 PUSH2 0x554 DUP2 PUSH2 0x1C56 JUMP JUMPDEST SWAP2 POP POP PUSH2 0x46C JUMP JUMPDEST POP SWAP4 SWAP3 POP POP POP JUMP JUMPDEST PUSH1 0x0 PUSH1 0x10 SLOAD CALLVALUE LT ISZERO PUSH2 0x575 JUMPI PUSH1 0x0 DUP1 REVERT JUMPDEST PUSH1 0x11 SLOAD DUP3 GT ISZERO PUSH2 0x584 JUMPI PUSH1 0x0 DUP1 REVERT JUMPDEST PUSH1 0x8 SLOAD PUSH1 0x40 MLOAD PUSH4 0x70A08231 PUSH1 0xE0 SHL DUP2 MSTORE DUP4 SWAP2 PUSH1 0x1 PUSH1 0x1 PUSH1 0xA0 SHL SUB AND SWAP1 PUSH4 0x70A08231 SWAP1 PUSH2 0x5B4 SWAP1 CALLER SWAP1 PUSH1 0x4 ADD PUSH2 0x1A44 JUMP JUMPDEST PUSH1 0x20 PUSH1 0x40 MLOAD DUP1 DUP4 SUB DUP2 DUP7 GAS STATICCALL ISZERO DUP1 ISZERO PUSH2 0x5D1 JUMPI RETURNDATASIZE PUSH1 0x0 DUP1 RETURNDATACOPY RETURNDATASIZE PUSH1 0x0 REVERT JUMPDEST POP POP POP POP PUSH1 0x40 MLOAD RETURNDATASIZE PUSH1 0x1F NOT PUSH1 0x1F DUP3 ADD AND DUP3 ADD DUP1 PUSH1 0x40 MSTORE POP DUP2 ADD SWAP1 PUSH2 0x5F5 SWAP2 SWAP1 PUSH2 0x1C6F JUMP JUMPDEST LT ISZERO PUSH2 0x600 JUMPI PUSH1 0x0 DUP1 REVERT JUMPDEST PUSH1 0x8 SLOAD PUSH1 0x40 MLOAD PUSH4 0x6EB1769F PUSH1 0xE1 SHL DUP2 MSTORE CALLER PUSH1 0x4 DUP3 ADD MSTORE ADDRESS PUSH1 0x24 DUP3 ADD MSTORE DUP4 SWAP2 PUSH1 0x1 PUSH1 0x1 PUSH1 0xA0 SHL SUB AND SWAP1 PUSH4 0xDD62ED3E SWAP1 PUSH1 0x44 ADD PUSH1 0x20 PUSH1 0x40 MLOAD DUP1 DUP4 SUB DUP2 DUP7 GAS STATICCALL ISZERO DUP1 ISZERO PUSH2 0x64E JUMPI RETURNDATASIZE PUSH1 0x0 DUP1 RETURNDATACOPY RETURNDATASIZE PUSH1 0x0 REVERT JUMPDEST POP POP POP POP PUSH1 0x40 MLOAD RETURNDATASIZE PUSH1 0x1F NOT PUSH1 0x1F DUP3 ADD AND DUP3 ADD DUP1 PUSH1 0x40 MSTORE POP DUP2 ADD SWAP1 PUSH2 0x672 SWAP2 SWAP1 PUSH2 0x1C6F JUMP JUMPDEST LT ISZERO PUSH2 0x6C0 JUMPI PUSH1 0x40 MLOAD PUSH3 0x461BCD PUSH1 0xE5 SHL DUP2 MSTORE PUSH1 0x20 PUSH1 0x4 DUP3 ADD MSTORE PUSH1 0x18 PUSH1 0x24 DUP3 ADD MSTORE PUSH24 0x496E63726561736520616C6C6F77616E63652E2E2E4B454B PUSH1 0x40 SHL PUSH1 0x44 DUP3 ADD MSTORE PUSH1 0x64 ADD JUMPDEST PUSH1 0x40 MLOAD DUP1 SWAP2 SUB SWAP1 REVERT JUMPDEST PUSH1 0x0 PUSH2 0x6D8 CALLER PUSH1 0x8 SLOAD PUSH1 0x1 PUSH1 0x1 PUSH1 0xA0 SHL SUB AND DUP6 PUSH2 0x1456 JUMP JUMPDEST SWAP1 POP PUSH1 0x1 DUP2 ISZERO ISZERO EQ PUSH2 0x6E9 JUMPI PUSH1 0x0 DUP1 REVERT JUMPDEST SWAP3 SWAP2 POP POP JUMP JUMPDEST PUSH1 0x3 SLOAD PUSH1 0x1 PUSH1 0x1 PUSH1 0xA0 SHL SUB AND PUSH1 0x0 SWAP1 DUP2 MSTORE PUSH1 0xC PUSH1 0x20 MSTORE PUSH1 0x40 DUP2 KECCAK256 SWAP1 SELFBALANCE SWAP1 PUSH2 0x719 SWAP1 DUP3 SWAP1 ADDRESS SWAP1 PUSH2 0x1577 JUMP JUMPDEST ISZERO ISZERO PUSH1 0x1 EQ PUSH2 0x727 JUMPI PUSH1 0x0 DUP1 REVERT JUMPDEST DUP1 DUP3 PUSH1 0x0 ADD PUSH1 0x2 ADD PUSH1 0x0 DUP3 DUP3 SLOAD PUSH2 0x73E SWAP2 SWAP1 PUSH2 0x1C88 JUMP JUMPDEST SWAP1 SWAP2 SSTORE POP POP PUSH1 0x0 PUSH1 0x1 DUP4 ADD DUP2 SWAP1 SSTORE PUSH1 0x3 SLOAD PUSH1 0x40 MLOAD PUSH1 0x1 PUSH1 0x1 PUSH1 0xA0 SHL SUB SWAP1 SWAP2 AND SWAP2 DUP4 ISZERO PUSH2 0x8FC MUL SWAP2 DUP5 SWAP2 DUP2 DUP2 DUP2 DUP6 DUP9 DUP9 CALL SWAP4 POP POP POP POP ISZERO DUP1 ISZERO PUSH2 0x784 JUMPI RETURNDATASIZE PUSH1 0x0 DUP1 RETURNDATACOPY RETURNDATASIZE PUSH1 0x0 REVERT JUMPDEST POP PUSH1 0x40 MLOAD DUP2 DUP2 MSTORE ADDRESS SWAP1 PUSH32 0x7FCF532C15F0A6DB0BD6D0E038BEA71D30D808C7D98CB3BF7268A95BF5081B65 SWAP1 PUSH1 0x20 ADD PUSH1 0x40 MLOAD DUP1 SWAP2 SUB SWAP1 LOG2 POP POP JUMP JUMPDEST PUSH2 0x7C7 CALLER PUSH2 0x1438 JUMP JUMPDEST PUSH2 0x7D0 JUMPI PUSH1 0x0 DUP1 REVERT JUMPDEST PUSH2 0x7D9 DUP2 PUSH2 0x10B7 JUMP JUMPDEST POP JUMP JUMPDEST PUSH1 0x3 SLOAD PUSH1 0x1 PUSH1 0x1 PUSH1 0xA0 SHL SUB SWAP1 DUP2 AND PUSH1 0x0 SWAP1 DUP2 MSTORE PUSH1 0xC PUSH1 0x20 MSTORE PUSH1 0x40 DUP1 DUP3 KECCAK256 PUSH1 0x2 SLOAD SWAP1 SWAP4 AND DUP3 MSTORE DUP2 KECCAK256 SWAP1 SELFBALANCE SWAP1 DUP1 PUSH2 0x810 DUP4 PUSH2 0x170C JUMP JUMPDEST SWAP1 SWAP4 POP SWAP2 POP PUSH1 0x0 SWAP1 POP DUP3 DUP3 SELFBALANCE PUSH2 0x827 DUP2 ADDRESS DUP7 PUSH2 0x1577 JUMP JUMPDEST ISZERO ISZERO PUSH1 0x1 EQ PUSH2 0x835 JUMPI PUSH1 0x0 DUP1 REVERT JUMPDEST PUSH1 0x9 SLOAD PUSH1 0x40 MLOAD PUSH4 0x70A08231 PUSH1 0xE0 SHL DUP2 MSTORE PUSH1 0x0 SWAP2 PUSH1 0x1 PUSH1 0x1 PUSH1 0xA0 SHL SUB AND SWAP1 PUSH4 0x70A08231 SWAP1 PUSH2 0x866 SWAP1 ADDRESS SWAP1 PUSH1 0x4 ADD PUSH2 0x1A44 JUMP JUMPDEST PUSH1 0x20 PUSH1 0x40 MLOAD DUP1 DUP4 SUB DUP2 DUP7 GAS STATICCALL ISZERO DUP1 ISZERO PUSH2 0x883 JUMPI RETURNDATASIZE PUSH1 0x0 DUP1 RETURNDATACOPY RETURNDATASIZE PUSH1 0x0 REVERT JUMPDEST POP POP POP POP PUSH1 0x40 MLOAD RETURNDATASIZE PUSH1 0x1F NOT PUSH1 0x1F DUP3 ADD AND DUP3 ADD DUP1 PUSH1 0x40 MSTORE POP DUP2 ADD SWAP1 PUSH2 0x8A7 SWAP2 SWAP1 PUSH2 0x1C6F JUMP JUMPDEST PUSH1 0x9 SLOAD SWAP1 SWAP2 POP PUSH2 0x8C3 SWAP1 DUP3 SWAP1 PUSH1 0x1 PUSH1 0x1 PUSH1 0xA0 SHL SUB AND PUSH1 0x1 PUSH2 0x1577 JUMP JUMPDEST ISZERO ISZERO PUSH1 0x1 EQ PUSH2 0x8D1 JUMPI PUSH1 0x0 DUP1 REVERT JUMPDEST PUSH1 0xA PUSH1 0x0 SWAP1 SLOAD SWAP1 PUSH2 0x100 EXP SWAP1 DIV PUSH1 0x1 PUSH1 0x1 PUSH1 0xA0 SHL SUB AND PUSH1 0x1 PUSH1 0x1 PUSH1 0xA0 SHL SUB AND PUSH4 0xD0E30DB0 DUP10 PUSH1 0x40 MLOAD DUP3 PUSH4 0xFFFFFFFF AND PUSH1 0xE0 SHL DUP2 MSTORE PUSH1 0x4 ADD PUSH1 0x0 PUSH1 0x40 MLOAD DUP1 DUP4 SUB DUP2 DUP6 DUP9 DUP1 EXTCODESIZE ISZERO DUP1 ISZERO PUSH2 0x921 JUMPI PUSH1 0x0 DUP1 REVERT JUMPDEST POP GAS CALL SWAP4 POP POP POP POP DUP1 ISZERO PUSH2 0x933 JUMPI POP PUSH1 0x1 JUMPDEST PUSH2 0x940 JUMPI PUSH1 0x0 SWAP5 POP PUSH2 0x9B5 JUMP JUMPDEST DUP7 DUP11 PUSH1 0x0 ADD PUSH1 0x1 ADD PUSH1 0x0 DUP3 DUP3 SLOAD PUSH2 0x957 SWAP2 SWAP1 PUSH2 0x1CA0 JUMP JUMPDEST SWAP1 SWAP2 SSTORE POP POP PUSH1 0x9 DUP10 ADD DUP1 SLOAD DUP8 SWAP2 SWAP1 PUSH1 0x0 SWAP1 PUSH2 0x973 SWAP1 DUP5 SWAP1 PUSH2 0x1CA0 JUMP JUMPDEST SWAP1 SWAP2 SSTORE POP POP PUSH1 0x4 DUP11 ADD DUP1 SLOAD DUP6 SWAP2 SWAP1 PUSH1 0x0 SWAP1 PUSH2 0x98F SWAP1 DUP5 SWAP1 PUSH2 0x1C88 JUMP JUMPDEST SWAP1 SWAP2 SSTORE POP POP PUSH1 0xC DUP10 ADD DUP1 SLOAD DUP5 SWAP2 SWAP1 PUSH1 0x0 SWAP1 PUSH2 0x9AB SWAP1 DUP5 SWAP1 PUSH2 0x1C88 JUMP JUMPDEST SWAP1 SWAP2 SSTORE POP PUSH1 0x1 SWAP6 POP POP JUMPDEST PUSH1 0x1 DUP6 ISZERO ISZERO EQ PUSH2 0x9C7 JUMPI PUSH2 0x9C7 PUSH2 0x1C2A JUMP JUMPDEST PUSH1 0x40 MLOAD DUP9 DUP2 MSTORE ADDRESS SWAP1 PUSH32 0x4611F1757844FDC2D4237A951583CA101C93F843BDC2D91A0E3FCF1D7A64CD2 SWAP1 PUSH1 0x20 ADD PUSH1 0x40 MLOAD DUP1 SWAP2 SUB SWAP1 LOG2 POP POP POP POP POP POP POP POP POP POP JUMP JUMPDEST PUSH2 0xA11 CALLER PUSH2 0x1438 JUMP JUMPDEST PUSH2 0xA1A JUMPI PUSH1 0x0 DUP1 REVERT JUMPDEST PUSH2 0x1F40 DUP5 GT ISZERO PUSH2 0xA29 JUMPI PUSH1 0x0 DUP1 REVERT JUMPDEST PUSH1 0x6 SWAP4 SWAP1 SWAP4 SSTORE PUSH1 0x11 SWAP3 SWAP1 SWAP3 SSTORE PUSH1 0x12 DUP1 SLOAD PUSH1 0xFF NOT AND SWAP2 ISZERO ISZERO SWAP2 SWAP1 SWAP2 OR SWAP1 SSTORE PUSH1 0x10 SSTORE PUSH1 0x9 DUP1 SLOAD PUSH1 0x1 PUSH1 0x1 PUSH1 0xA0 SHL SUB NOT SWAP1 DUP2 AND PUSH1 0x1 PUSH1 0x1 PUSH1 0xA0 SHL SUB SWAP4 DUP5 AND OR SWAP1 SWAP2 SSTORE PUSH1 0x8 DUP1 SLOAD SWAP1 SWAP2 AND SWAP3 SWAP1 SWAP2 AND SWAP2 SWAP1 SWAP2 OR SWAP1 SSTORE JUMP JUMPDEST PUSH1 0x3 SLOAD PUSH1 0x1 PUSH1 0x1 PUSH1 0xA0 SHL SUB SWAP1 DUP2 AND PUSH1 0x0 SWAP1 DUP2 MSTORE PUSH1 0xC PUSH1 0x20 MSTORE PUSH1 0x40 DUP1 DUP3 KECCAK256 PUSH1 0x2 SLOAD DUP5 AND DUP4 MSTORE DUP2 DUP4 KECCAK256 SWAP2 MLOAD PUSH4 0x70A08231 PUSH1 0xE0 SHL DUP2 MSTORE SWAP1 SWAP4 SWAP2 SWAP3 SWAP2 DUP6 AND SWAP1 PUSH4 0x70A08231 SWAP1 PUSH2 0xACA SWAP1 ADDRESS SWAP1 PUSH1 0x4 ADD PUSH2 0x1A44 JUMP JUMPDEST PUSH1 0x20 PUSH1 0x40 MLOAD DUP1 DUP4 SUB DUP2 DUP7 GAS STATICCALL ISZERO DUP1 ISZERO PUSH2 0xAE7 JUMPI RETURNDATASIZE PUSH1 0x0 DUP1 RETURNDATACOPY RETURNDATASIZE PUSH1 0x0 REVERT JUMPDEST POP POP POP POP PUSH1 0x40 MLOAD RETURNDATASIZE PUSH1 0x1F NOT PUSH1 0x1F DUP3 ADD AND DUP3 ADD DUP1 PUSH1 0x40 MSTORE POP DUP2 ADD SWAP1 PUSH2 0xB0B SWAP2 SWAP1 PUSH2 0x1C6F JUMP JUMPDEST SWAP1 POP PUSH1 0x0 DUP1 PUSH2 0xB19 DUP4 PUSH2 0x170C JUMP JUMPDEST PUSH1 0x40 MLOAD PUSH4 0x70A08231 PUSH1 0xE0 SHL DUP2 MSTORE SWAP2 SWAP5 POP SWAP3 POP DUP4 SWAP2 POP DUP3 SWAP1 PUSH1 0x0 SWAP1 PUSH1 0x1 PUSH1 0x1 PUSH1 0xA0 SHL SUB DUP11 AND SWAP1 PUSH4 0x70A08231 SWAP1 PUSH2 0xB52 SWAP1 ADDRESS SWAP1 PUSH1 0x4 ADD PUSH2 0x1A44 JUMP JUMPDEST PUSH1 0x20 PUSH1 0x40 MLOAD DUP1 DUP4 SUB DUP2 DUP7 GAS STATICCALL ISZERO DUP1 ISZERO PUSH2 0xB6F JUMPI RETURNDATASIZE PUSH1 0x0 DUP1 RETURNDATACOPY RETURNDATASIZE PUSH1 0x0 REVERT JUMPDEST POP POP POP POP PUSH1 0x40 MLOAD RETURNDATASIZE PUSH1 0x1F NOT PUSH1 0x1F DUP3 ADD AND DUP3 ADD DUP1 PUSH1 0x40 MSTORE POP DUP2 ADD SWAP1 PUSH2 0xB93 SWAP2 SWAP1 PUSH2 0x1C6F JUMP JUMPDEST SWAP1 POP PUSH2 0xBA1 DUP2 DUP11 PUSH1 0x1 PUSH2 0x1577 JUMP JUMPDEST ISZERO ISZERO PUSH1 0x1 EQ PUSH2 0xBAF JUMPI PUSH1 0x0 DUP1 REVERT JUMPDEST PUSH1 0x9 SLOAD PUSH1 0x1 PUSH1 0x1 PUSH1 0xA0 SHL SUB SWAP1 DUP2 AND SWAP1 DUP11 AND SUB PUSH2 0xD2E JUMPI DUP3 DUP9 PUSH1 0x0 ADD PUSH1 0x4 ADD PUSH1 0x0 DUP3 DUP3 SLOAD PUSH2 0xBDC SWAP2 SWAP1 PUSH2 0x1CA0 JUMP JUMPDEST SWAP1 SWAP2 SSTORE POP POP PUSH1 0xC DUP8 ADD DUP1 SLOAD DUP4 SWAP2 SWAP1 PUSH1 0x0 SWAP1 PUSH2 0xBF8 SWAP1 DUP5 SWAP1 PUSH2 0x1CA0 JUMP JUMPDEST SWAP1 SWAP2 SSTORE POP POP PUSH1 0x6 DUP9 ADD DUP1 SLOAD DUP7 SWAP2 SWAP1 PUSH1 0x0 SWAP1 PUSH2 0xC14 SWAP1 DUP5 SWAP1 PUSH2 0x1C88 JUMP JUMPDEST SWAP1 SWAP2 SSTORE POP POP PUSH1 0xE DUP8 ADD DUP1 SLOAD DUP6 SWAP2 SWAP1 PUSH1 0x0 SWAP1 PUSH2 0xC30 SWAP1 DUP5 SWAP1 PUSH2 0x1C88 JUMP JUMPDEST SWAP1 SWAP2 SSTORE POP POP PUSH1 0x9 SLOAD PUSH1 0x3 SLOAD PUSH1 0x40 MLOAD PUSH4 0xA9059CBB PUSH1 0xE0 SHL DUP2 MSTORE PUSH1 0x1 PUSH1 0x1 PUSH1 0xA0 SHL SUB SWAP3 DUP4 AND SWAP3 PUSH4 0xA9059CBB SWAP3 PUSH2 0xC6B SWAP3 SWAP2 AND SWAP1 DUP10 SWAP1 PUSH1 0x4 ADD PUSH2 0x1CB7 JUMP JUMPDEST PUSH1 0x20 PUSH1 0x40 MLOAD DUP1 DUP4 SUB DUP2 PUSH1 0x0 DUP8 GAS CALL ISZERO DUP1 ISZERO PUSH2 0xC8A JUMPI RETURNDATASIZE PUSH1 0x0 DUP1 RETURNDATACOPY RETURNDATASIZE PUSH1 0x0 REVERT JUMPDEST POP POP POP POP PUSH1 0x40 MLOAD RETURNDATASIZE PUSH1 0x1F NOT PUSH1 0x1F DUP3 ADD AND DUP3 ADD DUP1 PUSH1 0x40 MSTORE POP DUP2 ADD SWAP1 PUSH2 0xCAE SWAP2 SWAP1 PUSH2 0x1CD0 JUMP JUMPDEST POP PUSH1 0x9 SLOAD PUSH1 0x2 SLOAD PUSH1 0x40 MLOAD PUSH4 0xA9059CBB PUSH1 0xE0 SHL DUP2 MSTORE PUSH1 0x1 PUSH1 0x1 PUSH1 0xA0 SHL SUB SWAP3 DUP4 AND SWAP3 PUSH4 0xA9059CBB SWAP3 PUSH2 0xCE5 SWAP3 SWAP2 AND SWAP1 DUP9 SWAP1 PUSH1 0x4 ADD PUSH2 0x1CB7 JUMP JUMPDEST PUSH1 0x20 PUSH1 0x40 MLOAD DUP1 DUP4 SUB DUP2 PUSH1 0x0 DUP8 GAS CALL ISZERO DUP1 ISZERO PUSH2 0xD04 JUMPI RETURNDATASIZE PUSH1 0x0 DUP1 RETURNDATACOPY RETURNDATASIZE PUSH1 0x0 REVERT JUMPDEST POP POP POP POP PUSH1 0x40 MLOAD RETURNDATASIZE PUSH1 0x1F NOT PUSH1 0x1F DUP3 ADD AND DUP3 ADD DUP1 PUSH1 0x40 MSTORE POP DUP2 ADD SWAP1 PUSH2 0xD28 SWAP2 SWAP1 PUSH2 0x1CD0 JUMP JUMPDEST POP PUSH2 0xF24 JUMP JUMPDEST PUSH1 0x8 SLOAD PUSH1 0x1 PUSH1 0x1 PUSH1 0xA0 SHL SUB DUP11 DUP2 AND SWAP2 AND EQ DUP1 ISZERO PUSH2 0xD52 JUMPI POP PUSH1 0x12 SLOAD PUSH1 0xFF AND ISZERO ISZERO PUSH1 0x1 EQ JUMPDEST ISZERO PUSH2 0xE73 JUMPI DUP3 DUP9 PUSH1 0x0 ADD PUSH1 0x5 ADD PUSH1 0x0 DUP3 DUP3 SLOAD PUSH2 0xD6E SWAP2 SWAP1 PUSH2 0x1CA0 JUMP JUMPDEST SWAP1 SWAP2 SSTORE POP POP PUSH1 0xD DUP8 ADD DUP1 SLOAD DUP4 SWAP2 SWAP1 PUSH1 0x0 SWAP1 PUSH2 0xD8A SWAP1 DUP5 SWAP1 PUSH2 0x1CA0 JUMP JUMPDEST SWAP1 SWAP2 SSTORE POP POP PUSH1 0x6 DUP9 ADD DUP1 SLOAD DUP7 SWAP2 SWAP1 PUSH1 0x0 SWAP1 PUSH2 0xDA6 SWAP1 DUP5 SWAP1 PUSH2 0x1C88 JUMP JUMPDEST SWAP1 SWAP2 SSTORE POP POP PUSH1 0xE DUP8 ADD DUP1 SLOAD DUP6 SWAP2 SWAP1 PUSH1 0x0 SWAP1 PUSH2 0xDC2 SWAP1 DUP5 SWAP1 PUSH2 0x1C88 JUMP JUMPDEST SWAP1 SWAP2 SSTORE POP POP PUSH1 0x3 SLOAD PUSH1 0x40 MLOAD PUSH4 0xA9059CBB PUSH1 0xE0 SHL DUP2 MSTORE PUSH1 0x1 PUSH1 0x1 PUSH1 0xA0 SHL SUB DUP12 DUP2 AND SWAP3 PUSH4 0xA9059CBB SWAP3 PUSH2 0xDFB SWAP3 SWAP1 SWAP2 AND SWAP1 DUP10 SWAP1 PUSH1 0x4 ADD PUSH2 0x1CB7 JUMP JUMPDEST PUSH1 0x20 PUSH1 0x40 MLOAD DUP1 DUP4 SUB DUP2 PUSH1 0x0 DUP8 GAS CALL ISZERO DUP1 ISZERO PUSH2 0xE1A JUMPI RETURNDATASIZE PUSH1 0x0 DUP1 RETURNDATACOPY RETURNDATASIZE PUSH1 0x0 REVERT JUMPDEST POP POP POP POP PUSH1 0x40 MLOAD RETURNDATASIZE PUSH1 0x1F NOT PUSH1 0x1F DUP3 ADD AND DUP3 ADD DUP1 PUSH1 0x40 MSTORE POP DUP2 ADD SWAP1 PUSH2 0xE3E SWAP2 SWAP1 PUSH2 0x1CD0 JUMP JUMPDEST POP PUSH1 0x2 SLOAD PUSH1 0x40 MLOAD PUSH4 0xA9059CBB PUSH1 0xE0 SHL DUP2 MSTORE PUSH1 0x1 PUSH1 0x1 PUSH1 0xA0 SHL SUB DUP12 DUP2 AND SWAP3 PUSH4 0xA9059CBB SWAP3 PUSH2 0xCE5 SWAP3 SWAP1 SWAP2 AND SWAP1 DUP9 SWAP1 PUSH1 0x4 ADD PUSH2 0x1CB7 JUMP JUMPDEST DUP6 DUP9 PUSH1 0x0 ADD PUSH1 0x5 ADD PUSH1 0x0 DUP3 DUP3 SLOAD PUSH2 0xE8A SWAP2 SWAP1 PUSH2 0x1CA0 JUMP JUMPDEST SWAP1 SWAP2 SSTORE POP POP PUSH1 0x6 DUP9 ADD DUP1 SLOAD DUP8 SWAP2 SWAP1 PUSH1 0x0 SWAP1 PUSH2 0xEA6 SWAP1 DUP5 SWAP1 PUSH2 0x1C88 JUMP JUMPDEST SWAP1 SWAP2 SSTORE POP POP PUSH1 0x3 SLOAD PUSH1 0x40 MLOAD PUSH4 0xA9059CBB PUSH1 0xE0 SHL DUP2 MSTORE PUSH1 0x1 PUSH1 0x1 PUSH1 0xA0 SHL SUB DUP12 DUP2 AND SWAP3 PUSH4 0xA9059CBB SWAP3 PUSH2 0xEDF SWAP3 SWAP1 SWAP2 AND SWAP1 DUP11 SWAP1 PUSH1 0x4 ADD PUSH2 0x1CB7 JUMP JUMPDEST PUSH1 0x20 PUSH1 0x40 MLOAD DUP1 DUP4 SUB DUP2 PUSH1 0x0 DUP8 GAS CALL ISZERO DUP1 ISZERO PUSH2 0xEFE JUMPI RETURNDATASIZE PUSH1 0x0 DUP1 RETURNDATACOPY RETURNDATASIZE PUSH1 0x0 REVERT JUMPDEST POP POP POP POP PUSH1 0x40 MLOAD RETURNDATASIZE PUSH1 0x1F NOT PUSH1 0x1F DUP3 ADD AND DUP3 ADD DUP1 PUSH1 0x40 MSTORE POP DUP2 ADD SWAP1 PUSH2 0xF22 SWAP2 SWAP1 PUSH2 0x1CD0 JUMP JUMPDEST POP JUMPDEST PUSH1 0x40 MLOAD DUP7 DUP2 MSTORE PUSH1 0x1 PUSH1 0x1 PUSH1 0xA0 SHL SUB DUP11 AND SWAP1 ADDRESS SWAP1 PUSH32 0x37238854FE57FBF51F09946F854FC3916FE83938D6521F09BD05463839F1304 SWAP1 PUSH1 0x20 ADD PUSH1 0x40 MLOAD DUP1 SWAP2 SUB SWAP1 LOG3 POP POP POP POP POP POP POP POP POP JUMP JUMPDEST PUSH1 0x0 PUSH2 0xF7A CALLER PUSH2 0x1438 JUMP JUMPDEST PUSH2 0xF83 JUMPI PUSH1 0x0 DUP1 REVERT JUMPDEST PUSH1 0x1 PUSH1 0x1 PUSH1 0xA0 SHL SUB DUP4 AND CALLER EQ PUSH2 0xF98 JUMPI PUSH1 0x0 DUP1 REVERT JUMPDEST PUSH1 0x0 PUSH2 0xFA3 DUP4 PUSH2 0x10B7 JUMP JUMPDEST PUSH2 0xFAC DUP5 PUSH2 0x13D9 JUMP JUMPDEST POP PUSH1 0x1 SWAP4 SWAP3 POP POP POP JUMP JUMPDEST PUSH1 0x5 DUP1 SLOAD PUSH2 0x3D3 SWAP1 PUSH2 0x1BDA JUMP JUMPDEST PUSH1 0x0 DUP1 DUP1 DUP1 DUP1 DUP1 DUP1 PUSH2 0xFD4 CALLER PUSH2 0x1438 JUMP JUMPDEST PUSH2 0xFDD JUMPI PUSH1 0x0 DUP1 REVERT JUMPDEST PUSH1 0x1 PUSH1 0x1 PUSH1 0xA0 SHL SUB DUP1 DUP10 AND PUSH1 0x0 DUP2 DUP2 MSTORE PUSH1 0xC PUSH1 0x20 MSTORE PUSH1 0x40 DUP2 KECCAK256 PUSH1 0x3 SLOAD SWAP1 SWAP4 SWAP2 SWAP3 DUP4 SWAP3 DUP4 SWAP3 DUP4 SWAP3 DUP4 SWAP3 SWAP2 SWAP1 SWAP2 AND SWAP1 SUB PUSH2 0x1037 JUMPI POP POP POP PUSH1 0x1 DUP4 ADD SLOAD PUSH1 0x5 DUP5 ADD SLOAD PUSH1 0x4 DUP6 ADD SLOAD PUSH1 0x2 DUP7 ADD SLOAD PUSH1 0x6 DUP8 ADD SLOAD SWAP4 SWAP6 POP SWAP2 SWAP4 POP SWAP2 PUSH2 0x1099 JUMP JUMPDEST PUSH1 0x2 SLOAD PUSH1 0x1 PUSH1 0x1 PUSH1 0xA0 SHL SUB SWAP1 DUP2 AND SWAP1 DUP16 AND SUB PUSH2 0x1075 JUMPI POP POP POP PUSH1 0x9 DUP4 ADD SLOAD PUSH1 0xD DUP5 ADD SLOAD PUSH1 0xC DUP6 ADD SLOAD PUSH1 0xA DUP7 ADD SLOAD PUSH1 0xE DUP8 ADD SLOAD SWAP4 SWAP6 POP SWAP2 SWAP4 POP SWAP2 PUSH2 0x1099 JUMP JUMPDEST POP POP POP PUSH1 0x11 DUP4 ADD SLOAD PUSH1 0x15 DUP5 ADD SLOAD PUSH1 0x14 DUP6 ADD SLOAD PUSH1 0x12 DUP7 ADD SLOAD PUSH1 0x16 DUP8 ADD SLOAD SWAP4 SWAP6 POP SWAP2 SWAP4 POP SWAP2 JUMPDEST PUSH1 0xD SLOAD PUSH1 0xE SLOAD SWAP1 SWAP16 SWAP1 SWAP15 POP SWAP5 SWAP13 POP SWAP3 SWAP11 POP SWAP1 SWAP9 POP SWAP7 POP SWAP5 POP SWAP3 POP POP POP JUMP JUMPDEST PUSH2 0x10C0 CALLER PUSH2 0x1438 JUMP JUMPDEST PUSH2 0x10C9 JUMPI PUSH1 0x0 DUP1 REVERT JUMPDEST PUSH1 0x1 PUSH1 0x1 PUSH1 0xA0 SHL SUB AND PUSH1 0x0 SWAP1 DUP2 MSTORE PUSH1 0x1 PUSH1 0x20 DUP2 SWAP1 MSTORE PUSH1 0x40 SWAP1 SWAP2 KECCAK256 DUP1 SLOAD PUSH1 0xFF NOT AND SWAP1 SWAP2 OR SWAP1 SSTORE JUMP JUMPDEST PUSH1 0x0 PUSH2 0x10FB CALLER PUSH2 0x1438 JUMP JUMPDEST PUSH2 0x1104 JUMPI PUSH1 0x0 DUP1 REVERT JUMPDEST PUSH1 0x3 SLOAD PUSH1 0x1 PUSH1 0x1 PUSH1 0xA0 SHL SUB SWAP1 DUP2 AND SWAP1 DUP4 AND PUSH2 0x1121 JUMPI PUSH2 0x1121 PUSH2 0x1C2A JUMP JUMPDEST PUSH1 0x3 SLOAD DUP5 SWAP1 PUSH1 0x0 SWAP1 PUSH1 0x1 PUSH1 0x1 PUSH1 0xA0 SHL SUB DUP1 DUP10 AND SWAP2 AND SUB PUSH2 0x11AE JUMPI DUP5 SWAP3 POP PUSH1 0x0 DUP4 PUSH1 0x1 PUSH1 0x1 PUSH1 0xA0 SHL SUB AND DUP4 PUSH1 0x40 MLOAD PUSH1 0x0 PUSH1 0x40 MLOAD DUP1 DUP4 SUB DUP2 DUP6 DUP8 GAS CALL SWAP3 POP POP POP RETURNDATASIZE DUP1 PUSH1 0x0 DUP2 EQ PUSH2 0x118B JUMPI PUSH1 0x40 MLOAD SWAP2 POP PUSH1 0x1F NOT PUSH1 0x3F RETURNDATASIZE ADD AND DUP3 ADD PUSH1 0x40 MSTORE RETURNDATASIZE DUP3 MSTORE RETURNDATASIZE PUSH1 0x0 PUSH1 0x20 DUP5 ADD RETURNDATACOPY PUSH2 0x1190 JUMP JUMPDEST PUSH1 0x60 SWAP2 POP JUMPDEST POP SWAP1 SWAP2 POP POP PUSH1 0x1 DUP2 ISZERO ISZERO EQ PUSH2 0x11A4 JUMPI PUSH1 0x0 DUP1 REVERT JUMPDEST PUSH1 0x1 SWAP2 POP POP PUSH2 0x134C JUMP JUMPDEST PUSH1 0x2 SLOAD PUSH1 0x1 PUSH1 0x1 PUSH1 0xA0 SHL SUB DUP1 DUP10 AND SWAP2 AND SUB PUSH2 0x1347 JUMPI DUP5 SWAP3 POP PUSH1 0x0 PUSH2 0x2710 PUSH1 0xF SLOAD DUP9 PUSH2 0x11D9 SWAP2 SWAP1 PUSH2 0x1CED JUMP JUMPDEST PUSH2 0x11E3 SWAP2 SWAP1 PUSH2 0x1D0C JUMP JUMPDEST SWAP1 POP PUSH2 0x11EF DUP2 DUP9 PUSH2 0x1CA0 JUMP JUMPDEST SWAP7 POP PUSH1 0x0 DUP1 PUSH2 0x11FD DUP4 PUSH2 0x170C JUMP JUMPDEST SWAP3 POP SWAP3 POP POP PUSH1 0x0 DUP7 PUSH1 0x1 PUSH1 0x1 PUSH1 0xA0 SHL SUB AND DUP11 PUSH1 0x40 MLOAD PUSH1 0x0 PUSH1 0x40 MLOAD DUP1 DUP4 SUB DUP2 DUP6 DUP8 GAS CALL SWAP3 POP POP POP RETURNDATASIZE DUP1 PUSH1 0x0 DUP2 EQ PUSH2 0x124F JUMPI PUSH1 0x40 MLOAD SWAP2 POP PUSH1 0x1F NOT PUSH1 0x3F RETURNDATASIZE ADD AND DUP3 ADD PUSH1 0x40 MSTORE RETURNDATASIZE DUP3 MSTORE RETURNDATASIZE PUSH1 0x0 PUSH1 0x20 DUP5 ADD RETURNDATACOPY PUSH2 0x1254 JUMP JUMPDEST PUSH1 0x60 SWAP2 POP JUMPDEST POP POP PUSH1 0x3 SLOAD PUSH1 0x40 MLOAD SWAP2 SWAP3 POP PUSH1 0x0 SWAP2 PUSH1 0x1 PUSH1 0x1 PUSH1 0xA0 SHL SUB SWAP1 SWAP2 AND SWAP1 DUP6 SWAP1 DUP4 DUP2 DUP2 DUP2 DUP6 DUP8 GAS CALL SWAP3 POP POP POP RETURNDATASIZE DUP1 PUSH1 0x0 DUP2 EQ PUSH2 0x12A8 JUMPI PUSH1 0x40 MLOAD SWAP2 POP PUSH1 0x1F NOT PUSH1 0x3F RETURNDATASIZE ADD AND DUP3 ADD PUSH1 0x40 MSTORE RETURNDATASIZE DUP3 MSTORE RETURNDATASIZE PUSH1 0x0 PUSH1 0x20 DUP5 ADD RETURNDATACOPY PUSH2 0x12AD JUMP JUMPDEST PUSH1 0x60 SWAP2 POP JUMPDEST POP POP PUSH1 0x2 SLOAD PUSH1 0x40 MLOAD SWAP2 SWAP3 POP PUSH1 0x0 SWAP2 PUSH1 0x1 PUSH1 0x1 PUSH1 0xA0 SHL SUB SWAP1 SWAP2 AND SWAP1 DUP6 SWAP1 DUP4 DUP2 DUP2 DUP2 DUP6 DUP8 GAS CALL SWAP3 POP POP POP RETURNDATASIZE DUP1 PUSH1 0x0 DUP2 EQ PUSH2 0x1301 JUMPI PUSH1 0x40 MLOAD SWAP2 POP PUSH1 0x1F NOT PUSH1 0x3F RETURNDATASIZE ADD AND DUP3 ADD PUSH1 0x40 MSTORE RETURNDATASIZE DUP3 MSTORE RETURNDATASIZE PUSH1 0x0 PUSH1 0x20 DUP5 ADD RETURNDATACOPY PUSH2 0x1306 JUMP JUMPDEST PUSH1 0x60 SWAP2 POP JUMPDEST POP SWAP1 SWAP2 POP POP PUSH1 0x1 DUP4 ISZERO ISZERO EQ PUSH2 0x131A JUMPI PUSH1 0x0 DUP1 REVERT JUMPDEST PUSH1 0x1 DUP3 ISZERO ISZERO EQ PUSH2 0x1329 JUMPI PUSH1 0x0 DUP1 REVERT JUMPDEST PUSH1 0x1 DUP2 ISZERO ISZERO EQ PUSH2 0x1338 JUMPI PUSH1 0x0 DUP1 REVERT JUMPDEST PUSH1 0x1 SWAP7 POP POP POP POP POP POP POP PUSH2 0x134C JUMP JUMPDEST PUSH1 0x0 DUP1 REVERT JUMPDEST DUP1 PUSH2 0x1356 JUMPI PUSH1 0x0 DUP1 REVERT JUMPDEST SWAP7 SWAP6 POP POP POP POP POP POP JUMP JUMPDEST PUSH1 0x1 PUSH1 0x1 PUSH1 0xA0 SHL SUB DUP2 AND PUSH1 0x0 SWAP1 DUP2 MSTORE PUSH1 0xC PUSH1 0x20 SWAP1 DUP2 MSTORE PUSH1 0x40 SWAP2 DUP3 SWAP1 KECCAK256 PUSH1 0x10 DUP2 ADD DUP1 SLOAD DUP5 MLOAD DUP2 DUP6 MUL DUP2 ADD DUP6 ADD SWAP1 SWAP6 MSTORE DUP1 DUP6 MSTORE PUSH1 0x60 SWAP5 SWAP3 SWAP4 SWAP2 SWAP3 SWAP2 DUP4 SWAP2 SWAP1 DUP4 ADD DUP3 DUP3 DUP1 ISZERO PUSH2 0x13CB JUMPI PUSH1 0x20 MUL DUP3 ADD SWAP2 SWAP1 PUSH1 0x0 MSTORE PUSH1 0x20 PUSH1 0x0 KECCAK256 SWAP1 JUMPDEST DUP2 SLOAD DUP2 MSTORE PUSH1 0x20 ADD SWAP1 PUSH1 0x1 ADD SWAP1 DUP1 DUP4 GT PUSH2 0x13B7 JUMPI JUMPDEST POP POP POP POP POP SWAP3 POP POP POP SWAP2 SWAP1 POP JUMP JUMPDEST PUSH2 0x13E2 CALLER PUSH2 0x1438 JUMP JUMPDEST PUSH2 0x13EB JUMPI PUSH1 0x0 DUP1 REVERT JUMPDEST PUSH1 0x1 PUSH1 0x1 PUSH1 0xA0 SHL SUB AND PUSH1 0x0 SWAP1 DUP2 MSTORE PUSH1 0x1 PUSH1 0x20 MSTORE PUSH1 0x40 SWAP1 KECCAK256 DUP1 SLOAD PUSH1 0xFF NOT AND SWAP1 SSTORE JUMP JUMPDEST PUSH1 0x0 PUSH1 0x10 SLOAD CALLVALUE LT ISZERO PUSH2 0x141D JUMPI PUSH1 0x0 DUP1 REVERT JUMPDEST PUSH1 0x28 PUSH1 0x11 SLOAD PUSH2 0x142C SWAP2 SWAP1 PUSH2 0x1CED JUMP JUMPDEST DUP3 GT ISZERO PUSH2 0x584 JUMPI PUSH1 0x0 DUP1 REVERT JUMPDEST PUSH1 0x1 PUSH1 0x1 PUSH1 0xA0 SHL SUB AND PUSH1 0x0 SWAP1 DUP2 MSTORE PUSH1 0x1 PUSH1 0x20 MSTORE PUSH1 0x40 SWAP1 KECCAK256 SLOAD PUSH1 0xFF AND SWAP1 JUMP JUMPDEST PUSH1 0x8 SLOAD PUSH1 0x0 SWAP1 DUP3 SWAP1 DUP3 SWAP1 PUSH1 0x1 PUSH1 0x1 PUSH1 0xA0 SHL SUB SWAP1 DUP2 AND SWAP1 DUP7 AND SUB PUSH2 0x1535 JUMPI DUP4 PUSH1 0xE PUSH1 0x0 DUP3 DUP3 SLOAD PUSH2 0x1485 SWAP2 SWAP1 PUSH2 0x1C88 JUMP JUMPDEST SWAP3 POP POP DUP2 SWAP1 SSTORE POP CALLVALUE PUSH1 0xD PUSH1 0x0 DUP3 DUP3 SLOAD PUSH2 0x149E SWAP2 SWAP1 PUSH2 0x1C88 JUMP JUMPDEST SWAP1 SWAP2 SSTORE POP POP PUSH1 0x8 SLOAD PUSH1 0x40 MLOAD PUSH4 0x23B872DD PUSH1 0xE0 SHL DUP2 MSTORE PUSH1 0x1 PUSH1 0x1 PUSH1 0xA0 SHL SUB DUP9 DUP2 AND PUSH1 0x4 DUP4 ADD MSTORE ADDRESS PUSH1 0x24 DUP4 ADD MSTORE PUSH1 0x44 DUP3 ADD DUP8 SWAP1 MSTORE SWAP1 SWAP2 AND SWAP1 PUSH4 0x23B872DD SWAP1 PUSH1 0x64 ADD PUSH1 0x20 PUSH1 0x40 MLOAD DUP1 DUP4 SUB DUP2 PUSH1 0x0 DUP8 GAS CALL ISZERO DUP1 ISZERO PUSH2 0x14FC JUMPI RETURNDATASIZE PUSH1 0x0 DUP1 RETURNDATACOPY RETURNDATASIZE PUSH1 0x0 REVERT JUMPDEST POP POP POP POP PUSH1 0x40 MLOAD RETURNDATASIZE PUSH1 0x1F NOT PUSH1 0x1F DUP3 ADD AND DUP3 ADD DUP1 PUSH1 0x40 MSTORE POP DUP2 ADD SWAP1 PUSH2 0x1520 SWAP2 SWAP1 PUSH2 0x1CD0 JUMP JUMPDEST POP PUSH2 0x152D DUP7 DUP4 PUSH1 0x1 PUSH2 0x1793 JUMP JUMPDEST POP PUSH1 0x1 PUSH2 0x156E JUMP JUMPDEST POP PUSH1 0x40 MLOAD PUSH3 0x461BCD PUSH1 0xE5 SHL DUP2 MSTORE PUSH1 0x20 PUSH1 0x4 DUP3 ADD MSTORE PUSH1 0xA PUSH1 0x24 DUP3 ADD MSTORE PUSH10 0x854D5541413D4951151 PUSH1 0xB2 SHL PUSH1 0x44 DUP3 ADD MSTORE PUSH1 0x0 SWAP1 PUSH1 0x64 ADD PUSH2 0x6B7 JUMP JUMPDEST SWAP6 SWAP5 POP POP POP POP POP JUMP JUMPDEST PUSH1 0x0 PUSH2 0x1582 CALLER PUSH2 0x1438 JUMP JUMPDEST PUSH2 0x158B JUMPI PUSH1 0x0 DUP1 REVERT JUMPDEST PUSH1 0x3 SLOAD PUSH1 0x1 PUSH1 0x1 PUSH1 0xA0 SHL SUB SWAP1 DUP2 AND PUSH1 0x0 SWAP1 DUP2 MSTORE PUSH1 0xC PUSH1 0x20 MSTORE PUSH1 0x40 DUP1 DUP3 KECCAK256 PUSH1 0x2 SLOAD SWAP1 SWAP4 AND DUP3 MSTORE DUP2 KECCAK256 SWAP1 DUP1 DUP1 PUSH2 0x15BE DUP10 PUSH2 0x170C JUMP JUMPDEST SWAP2 SWAP5 POP SWAP3 POP SWAP1 POP PUSH1 0x0 PUSH1 0x1 DUP9 ISZERO ISZERO EQ DUP1 ISZERO PUSH2 0x15E6 JUMPI POP PUSH1 0x9 SLOAD PUSH1 0x1 PUSH1 0x1 PUSH1 0xA0 SHL SUB DUP11 DUP2 AND SWAP2 AND EQ JUMPDEST ISZERO PUSH2 0x1601 JUMPI POP PUSH1 0x4 DUP6 ADD DUP3 SWAP1 SSTORE PUSH1 0xC DUP5 ADD DUP2 SWAP1 SSTORE PUSH1 0x1 PUSH2 0x16B2 JUMP JUMPDEST PUSH1 0x1 DUP9 ISZERO ISZERO EQ DUP1 ISZERO PUSH2 0x1620 JUMPI POP PUSH1 0x8 SLOAD PUSH1 0x1 PUSH1 0x1 PUSH1 0xA0 SHL SUB DUP11 DUP2 AND SWAP2 AND EQ JUMPDEST DUP1 ISZERO PUSH2 0x162F JUMPI POP PUSH1 0x12 SLOAD PUSH1 0xFF AND ISZERO JUMPDEST ISZERO PUSH2 0x1643 JUMPI POP PUSH1 0x5 DUP6 ADD DUP4 SWAP1 SSTORE PUSH1 0x1 PUSH2 0x16B2 JUMP JUMPDEST DUP8 ISZERO DUP1 ISZERO PUSH2 0x1659 JUMPI POP PUSH1 0x1 PUSH1 0x1 PUSH1 0xA0 SHL SUB DUP10 AND ADDRESS EQ JUMPDEST ISZERO PUSH2 0x166C JUMPI POP PUSH1 0x1 DUP1 DUP7 ADD DUP5 SWAP1 SSTORE PUSH2 0x16B2 JUMP JUMPDEST PUSH1 0x1 DUP9 ISZERO ISZERO EQ DUP1 ISZERO PUSH2 0x1686 JUMPI POP PUSH1 0x1 PUSH1 0x1 PUSH1 0xA0 SHL SUB DUP10 AND ADDRESS EQ JUMPDEST ISZERO PUSH2 0x16A0 JUMPI POP PUSH1 0x1 DUP1 DUP7 ADD DUP4 SWAP1 SSTORE PUSH1 0x9 DUP6 ADD DUP3 SWAP1 SSTORE PUSH2 0x16B2 JUMP JUMPDEST POP PUSH1 0x5 DUP6 ADD DUP3 SWAP1 SSTORE PUSH1 0xD DUP5 ADD DUP2 SWAP1 SSTORE PUSH1 0x1 JUMPDEST PUSH1 0x1 DUP9 ISZERO ISZERO EQ DUP1 ISZERO PUSH2 0x16C5 JUMPI POP DUP4 PUSH1 0xE SLOAD LT JUMPDEST ISZERO PUSH2 0x16E7 JUMPI DUP4 PUSH1 0xE PUSH1 0x0 DUP3 DUP3 SLOAD PUSH2 0x16DC SWAP2 SWAP1 PUSH2 0x1C88 JUMP JUMPDEST SWAP1 SWAP2 SSTORE POP PUSH2 0x16FF SWAP1 POP JUMP JUMPDEST DUP4 PUSH1 0xD PUSH1 0x0 DUP3 DUP3 SLOAD PUSH2 0x16F9 SWAP2 SWAP1 PUSH2 0x1C88 JUMP JUMPDEST SWAP1 SWAP2 SSTORE POP POP JUMPDEST SWAP10 SWAP9 POP POP POP POP POP POP POP POP POP JUMP JUMPDEST PUSH1 0x0 DUP1 PUSH1 0x0 DUP1 DUP5 GT PUSH2 0x1720 JUMPI PUSH2 0x1720 PUSH2 0x1C2A JUMP JUMPDEST PUSH1 0x0 PUSH32 0x0 PUSH1 0x6 SLOAD DUP7 PUSH2 0x1751 SWAP2 SWAP1 PUSH2 0x1CED JUMP JUMPDEST PUSH2 0x175B SWAP2 SWAP1 PUSH2 0x1D0C JUMP JUMPDEST SWAP1 POP PUSH1 0x0 PUSH2 0x1769 DUP3 DUP8 PUSH2 0x1CA0 JUMP JUMPDEST SWAP1 POP PUSH1 0x0 PUSH2 0x1777 DUP3 DUP5 PUSH2 0x1C88 JUMP JUMPDEST SWAP1 POP DUP7 DUP2 EQ PUSH2 0x1788 JUMPI PUSH2 0x1788 PUSH2 0x1C2A JUMP JUMPDEST SWAP7 SWAP2 SWAP6 POP SWAP4 POP SWAP2 POP POP JUMP JUMPDEST PUSH1 0x1 PUSH1 0x1 PUSH1 0xA0 SHL SUB DUP4 AND PUSH1 0x0 SWAP1 DUP2 MSTORE PUSH1 0xC PUSH1 0x20 SWAP1 DUP2 MSTORE PUSH1 0x40 DUP1 DUP4 KECCAK256 CALLER DUP5 MSTORE PUSH1 0xB DUP4 MSTORE DUP2 DUP5 KECCAK256 NUMBER DUP1 DUP7 MSTORE SWAP1 DUP5 MSTORE SWAP2 DUP5 KECCAK256 DUP7 SWAP1 SSTORE PUSH1 0x10 DUP2 ADD DUP1 SLOAD PUSH1 0x1 DUP1 DUP3 ADD DUP4 SSTORE SWAP2 DUP7 MSTORE SWAP4 SWAP1 SWAP5 KECCAK256 SWAP1 SWAP3 ADD SSTORE SWAP1 DUP3 ISZERO ISZERO SWAP1 SUB PUSH2 0x1809 JUMPI DUP3 DUP2 PUSH1 0x10 ADD PUSH1 0x7 ADD PUSH1 0x0 DUP3 DUP3 SLOAD PUSH2 0x17FE SWAP2 SWAP1 PUSH2 0x1C88 JUMP JUMPDEST SWAP1 SWAP2 SSTORE POP PUSH2 0x1826 SWAP1 POP JUMP JUMPDEST DUP3 DUP2 PUSH1 0x10 ADD PUSH1 0x3 ADD PUSH1 0x0 DUP3 DUP3 SLOAD PUSH2 0x1820 SWAP2 SWAP1 PUSH2 0x1C88 JUMP JUMPDEST SWAP1 SWAP2 SSTORE POP POP JUMPDEST POP POP POP POP JUMP JUMPDEST PUSH1 0x0 PUSH1 0x20 DUP1 DUP4 MSTORE DUP4 MLOAD DUP1 DUP3 DUP6 ADD MSTORE PUSH1 0x0 JUMPDEST DUP2 DUP2 LT ISZERO PUSH2 0x1859 JUMPI DUP6 DUP2 ADD DUP4 ADD MLOAD DUP6 DUP3 ADD PUSH1 0x40 ADD MSTORE DUP3 ADD PUSH2 0x183D JUMP JUMPDEST DUP2 DUP2 GT ISZERO PUSH2 0x186B JUMPI PUSH1 0x0 PUSH1 0x40 DUP4 DUP8 ADD ADD MSTORE JUMPDEST POP PUSH1 0x1F ADD PUSH1 0x1F NOT AND SWAP3 SWAP1 SWAP3 ADD PUSH1 0x40 ADD SWAP4 SWAP3 POP POP POP JUMP JUMPDEST PUSH4 0x4E487B71 PUSH1 0xE0 SHL PUSH1 0x0 MSTORE PUSH1 0x41 PUSH1 0x4 MSTORE PUSH1 0x24 PUSH1 0x0 REVERT JUMPDEST PUSH1 0x40 MLOAD PUSH1 0x1F DUP3 ADD PUSH1 0x1F NOT AND DUP2 ADD PUSH1 0x1 PUSH1 0x1 PUSH1 0x40 SHL SUB DUP2 GT DUP3 DUP3 LT OR ISZERO PUSH2 0x18BF JUMPI PUSH2 0x18BF PUSH2 0x1881 JUMP JUMPDEST PUSH1 0x40 MSTORE SWAP2 SWAP1 POP JUMP JUMPDEST PUSH1 0x0 PUSH1 0x1 PUSH1 0x1 PUSH1 0x40 SHL SUB DUP3 GT ISZERO PUSH2 0x18E0 JUMPI PUSH2 0x18E0 PUSH2 0x1881 JUMP JUMPDEST POP PUSH1 0x5 SHL PUSH1 0x20 ADD SWAP1 JUMP JUMPDEST PUSH1 0x1 PUSH1 0x1 PUSH1 0xA0 SHL SUB DUP2 AND DUP2 EQ PUSH2 0x7D9 JUMPI PUSH1 0x0 DUP1 REVERT JUMPDEST PUSH1 0x0 DUP3 PUSH1 0x1F DUP4 ADD SLT PUSH2 0x1910 JUMPI PUSH1 0x0 DUP1 REVERT JUMPDEST DUP2 CALLDATALOAD PUSH1 0x20 PUSH2 0x1925 PUSH2 0x1920 DUP4 PUSH2 0x18C7 JUMP JUMPDEST PUSH2 0x1897 JUMP JUMPDEST DUP3 DUP2 MSTORE PUSH1 0x5 SWAP3 SWAP1 SWAP3 SHL DUP5 ADD DUP2 ADD SWAP2 DUP2 DUP2 ADD SWAP1 DUP7 DUP5 GT ISZERO PUSH2 0x1944 JUMPI PUSH1 0x0 DUP1 REVERT JUMPDEST DUP3 DUP7 ADD JUMPDEST DUP5 DUP2 LT ISZERO PUSH2 0x1968 JUMPI DUP1 CALLDATALOAD PUSH2 0x195B DUP2 PUSH2 0x18EA JUMP JUMPDEST DUP4 MSTORE SWAP2 DUP4 ADD SWAP2 DUP4 ADD PUSH2 0x1948 JUMP JUMPDEST POP SWAP7 SWAP6 POP POP POP POP POP POP JUMP JUMPDEST PUSH1 0x0 DUP1 PUSH1 0x40 DUP4 DUP6 SUB SLT ISZERO PUSH2 0x1986 JUMPI PUSH1 0x0 DUP1 REVERT JUMPDEST DUP3 CALLDATALOAD PUSH1 0x1 PUSH1 0x1 PUSH1 0x40 SHL SUB DUP1 DUP3 GT ISZERO PUSH2 0x199D JUMPI PUSH1 0x0 DUP1 REVERT JUMPDEST DUP2 DUP6 ADD SWAP2 POP DUP6 PUSH1 0x1F DUP4 ADD SLT PUSH2 0x19B1 JUMPI PUSH1 0x0 DUP1 REVERT JUMPDEST DUP2 CALLDATALOAD PUSH1 0x20 PUSH2 0x19C1 PUSH2 0x1920 DUP4 PUSH2 0x18C7 JUMP JUMPDEST DUP3 DUP2 MSTORE PUSH1 0x5 SWAP3 SWAP1 SWAP3 SHL DUP5 ADD DUP2 ADD SWAP2 DUP2 DUP2 ADD SWAP1 DUP10 DUP5 GT ISZERO PUSH2 0x19E0 JUMPI PUSH1 0x0 DUP1 REVERT JUMPDEST SWAP5 DUP3 ADD SWAP5 JUMPDEST DUP4 DUP7 LT ISZERO PUSH2 0x19FE JUMPI DUP6 CALLDATALOAD DUP3 MSTORE SWAP5 DUP3 ADD SWAP5 SWAP1 DUP3 ADD SWAP1 PUSH2 0x19E5 JUMP JUMPDEST SWAP7 POP POP DUP7 ADD CALLDATALOAD SWAP3 POP POP DUP1 DUP3 GT ISZERO PUSH2 0x1A14 JUMPI PUSH1 0x0 DUP1 REVERT JUMPDEST POP PUSH2 0x1A21 DUP6 DUP3 DUP7 ADD PUSH2 0x18FF JUMP JUMPDEST SWAP2 POP POP SWAP3 POP SWAP3 SWAP1 POP JUMP JUMPDEST PUSH1 0x0 PUSH1 0x20 DUP3 DUP5 SUB SLT ISZERO PUSH2 0x1A3D JUMPI PUSH1 0x0 DUP1 REVERT JUMPDEST POP CALLDATALOAD SWAP2 SWAP1 POP JUMP JUMPDEST PUSH1 0x1 PUSH1 0x1 PUSH1 0xA0 SHL SUB SWAP2 SWAP1 SWAP2 AND DUP2 MSTORE PUSH1 0x20 ADD SWAP1 JUMP JUMPDEST PUSH1 0x0 PUSH1 0x20 DUP3 DUP5 SUB SLT ISZERO PUSH2 0x1A6A JUMPI PUSH1 0x0 DUP1 REVERT JUMPDEST DUP2 CALLDATALOAD PUSH2 0x1A75 DUP2 PUSH2 0x18EA JUMP JUMPDEST SWAP4 SWAP3 POP POP POP JUMP JUMPDEST PUSH1 0x0 DUP1 PUSH1 0x40 DUP4 DUP6 SUB SLT ISZERO PUSH2 0x1A8F JUMPI PUSH1 0x0 DUP1 REVERT JUMPDEST DUP3 CALLDATALOAD PUSH2 0x1A9A DUP2 PUSH2 0x18EA JUMP JUMPDEST SWAP5 PUSH1 0x20 SWAP4 SWAP1 SWAP4 ADD CALLDATALOAD SWAP4 POP POP POP JUMP JUMPDEST DUP1 ISZERO ISZERO DUP2 EQ PUSH2 0x7D9 JUMPI PUSH1 0x0 DUP1 REVERT JUMPDEST PUSH1 0x0 DUP1 PUSH1 0x0 DUP1 PUSH1 0x0 DUP1 PUSH1 0xC0 DUP8 DUP10 SUB SLT ISZERO PUSH2 0x1ACF JUMPI PUSH1 0x0 DUP1 REVERT JUMPDEST DUP7 CALLDATALOAD PUSH2 0x1ADA DUP2 PUSH2 0x18EA JUMP JUMPDEST SWAP6 POP PUSH1 0x20 DUP8 ADD CALLDATALOAD PUSH2 0x1AEA DUP2 PUSH2 0x18EA JUMP JUMPDEST SWAP5 POP PUSH1 0x40 DUP8 ADD CALLDATALOAD SWAP4 POP PUSH1 0x60 DUP8 ADD CALLDATALOAD PUSH2 0x1B01 DUP2 PUSH2 0x1AA8 JUMP JUMPDEST SWAP6 SWAP9 SWAP5 SWAP8 POP SWAP3 SWAP6 PUSH1 0x80 DUP2 ADD CALLDATALOAD SWAP5 PUSH1 0xA0 SWAP1 SWAP2 ADD CALLDATALOAD SWAP4 POP SWAP2 POP POP JUMP JUMPDEST PUSH1 0x0 DUP1 PUSH1 0x40 DUP4 DUP6 SUB SLT ISZERO PUSH2 0x1B2E JUMPI PUSH1 0x0 DUP1 REVERT JUMPDEST DUP3 CALLDATALOAD PUSH2 0x1B39 DUP2 PUSH2 0x18EA JUMP JUMPDEST SWAP2 POP PUSH1 0x20 DUP4 ADD CALLDATALOAD PUSH2 0x1B49 DUP2 PUSH2 0x18EA JUMP JUMPDEST DUP1 SWAP2 POP POP SWAP3 POP SWAP3 SWAP1 POP JUMP JUMPDEST PUSH1 0x0 DUP1 PUSH1 0x0 PUSH1 0x60 DUP5 DUP7 SUB SLT ISZERO PUSH2 0x1B69 JUMPI PUSH1 0x0 DUP1 REVERT JUMPDEST DUP4 CALLDATALOAD PUSH2 0x1B74 DUP2 PUSH2 0x18EA JUMP JUMPDEST SWAP3 POP PUSH1 0x20 DUP5 ADD CALLDATALOAD SWAP2 POP PUSH1 0x40 DUP5 ADD CALLDATALOAD PUSH2 0x1B8B DUP2 PUSH2 0x18EA JUMP JUMPDEST DUP1 SWAP2 POP POP SWAP3 POP SWAP3 POP SWAP3 JUMP JUMPDEST PUSH1 0x20 DUP1 DUP3 MSTORE DUP3 MLOAD DUP3 DUP3 ADD DUP2 SWAP1 MSTORE PUSH1 0x0 SWAP2 SWAP1 DUP5 DUP3 ADD SWAP1 PUSH1 0x40 DUP6 ADD SWAP1 DUP5 JUMPDEST DUP2 DUP2 LT ISZERO PUSH2 0x1BCE JUMPI DUP4 MLOAD DUP4 MSTORE SWAP3 DUP5 ADD SWAP3 SWAP2 DUP5 ADD SWAP2 PUSH1 0x1 ADD PUSH2 0x1BB2 JUMP JUMPDEST POP SWAP1 SWAP7 SWAP6 POP POP POP POP POP POP JUMP JUMPDEST PUSH1 0x1 DUP2 DUP2 SHR SWAP1 DUP3 AND DUP1 PUSH2 0x1BEE JUMPI PUSH1 0x7F DUP3 AND SWAP2 POP JUMPDEST PUSH1 0x20 DUP3 LT DUP2 SUB PUSH2 0x1C0E JUMPI PUSH4 0x4E487B71 PUSH1 0xE0 SHL PUSH1 0x0 MSTORE PUSH1 0x22 PUSH1 0x4 MSTORE PUSH1 0x24 PUSH1 0x0 REVERT JUMPDEST POP SWAP2 SWAP1 POP JUMP JUMPDEST PUSH4 0x4E487B71 PUSH1 0xE0 SHL PUSH1 0x0 MSTORE PUSH1 0x32 PUSH1 0x4 MSTORE PUSH1 0x24 PUSH1 0x0 REVERT JUMPDEST PUSH4 0x4E487B71 PUSH1 0xE0 SHL PUSH1 0x0 MSTORE PUSH1 0x1 PUSH1 0x4 MSTORE PUSH1 0x24 PUSH1 0x0 REVERT JUMPDEST PUSH4 0x4E487B71 PUSH1 0xE0 SHL PUSH1 0x0 MSTORE PUSH1 0x11 PUSH1 0x4 MSTORE PUSH1 0x24 PUSH1 0x0 REVERT JUMPDEST PUSH1 0x0 PUSH1 0x1 DUP3 ADD PUSH2 0x1C68 JUMPI PUSH2 0x1C68 PUSH2 0x1C40 JUMP JUMPDEST POP PUSH1 0x1 ADD SWAP1 JUMP JUMPDEST PUSH1 0x0 PUSH1 0x20 DUP3 DUP5 SUB SLT ISZERO PUSH2 0x1C81 JUMPI PUSH1 0x0 DUP1 REVERT JUMPDEST POP MLOAD SWAP2 SWAP1 POP JUMP JUMPDEST PUSH1 0x0 DUP3 NOT DUP3 GT ISZERO PUSH2 0x1C9B JUMPI PUSH2 0x1C9B PUSH2 0x1C40 JUMP JUMPDEST POP ADD SWAP1 JUMP JUMPDEST PUSH1 0x0 DUP3 DUP3 LT ISZERO PUSH2 0x1CB2 JUMPI PUSH2 0x1CB2 PUSH2 0x1C40 JUMP JUMPDEST POP SUB SWAP1 JUMP JUMPDEST PUSH1 0x1 PUSH1 0x1 PUSH1 0xA0 SHL SUB SWAP3 SWAP1 SWAP3 AND DUP3 MSTORE PUSH1 0x20 DUP3 ADD MSTORE PUSH1 0x40 ADD SWAP1 JUMP JUMPDEST PUSH1 0x0 PUSH1 0x20 DUP3 DUP5 SUB SLT ISZERO PUSH2 0x1CE2 JUMPI PUSH1 0x0 DUP1 REVERT JUMPDEST DUP2 MLOAD PUSH2 0x1A75 DUP2 PUSH2 0x1AA8 JUMP JUMPDEST PUSH1 0x0 DUP2 PUSH1 0x0 NOT DIV DUP4 GT DUP3 ISZERO ISZERO AND ISZERO PUSH2 0x1D07 JUMPI PUSH2 0x1D07 PUSH2 0x1C40 JUMP JUMPDEST POP MUL SWAP1 JUMP JUMPDEST PUSH1 0x0 DUP3 PUSH2 0x1D29 JUMPI PUSH4 0x4E487B71 PUSH1 0xE0 SHL PUSH1 0x0 MSTORE PUSH1 0x12 PUSH1 0x4 MSTORE PUSH1 0x24 PUSH1 0x0 REVERT JUMPDEST POP DIV SWAP1 JUMP INVALID LOG2 PUSH5 0x6970667358 0x22 SLT KECCAK256 PUSH21 0x65EACCA55E6772D8DDF5C1DEBD21B04D008BE34411 0x4D 0x1E 0xBF SGT 0x25 PUSH6 0xED53AC2A6473 PUSH16 0x6C634300080D00330000000000000000 "
				},
				"gasEstimates": {
					"creation": {
						"codeDepositCost": "1504800",
						"executionCost": "infinite",
						"totalCost": "infinite"
					},
					"external": {
						"": "2414",
						"authorize(address)": "26962",
						"bridgeKEK(uint256)": "infinite",
						"bridgeKEK_bulk(uint256)": "infinite",
						"bridgeMaxAmount()": "2361",
						"bridgeTransferOutBulk(uint256[],address[])": "infinite",
						"depositTrace(address,uint256)": "2785",
						"depositTracer(address)": "infinite",
						"iVF()": "2428",
						"name()": "infinite",
						"setMoV(address)": "infinite",
						"setShards(address,address,uint256,bool,uint256,uint256)": "infinite",
						"symbol()": "infinite",
						"tokenizeWETH()": "infinite",
						"transfer(address,uint256,address)": "infinite",
						"transferAuthorization(address,address)": "infinite",
						"unauthorize(address)": "27010",
						"vaultDebt(address)": "22079",
						"withdraw()": "infinite",
						"withdrawToken(address)": "infinite"
					},
					"internal": {
						"deposit(address,address,uint256)": "infinite",
						"split(uint256)": "infinite",
						"synced(uint256,address,bool)": "infinite",
						"traceDeposit(address,uint256,bool)": "93104"
					}
				},
				"methodIdentifiers": {
					"authorize(address)": "b6a5d7de",
					"bridgeKEK(uint256)": "1a40785c",
					"bridgeKEK_bulk(uint256)": "f8ff9ac9",
					"bridgeMaxAmount()": "985c51f9",
					"bridgeTransferOutBulk(uint256[],address[])": "0cba52f9",
					"depositTrace(address,uint256)": "5f1d9fbc",
					"depositTracer(address)": "dd1599fa",
					"iVF()": "24f8958a",
					"name()": "06fdde03",
					"setMoV(address)": "43602017",
					"setShards(address,address,uint256,bool,uint256,uint256)": "79cba1c4",
					"symbol()": "95d89b41",
					"tokenizeWETH()": "4b4138c9",
					"transfer(address,uint256,address)": "dbba0f01",
					"transferAuthorization(address,address)": "8cd0acc3",
					"unauthorize(address)": "f0b37c04",
					"vaultDebt(address)": "99049f71",
					"withdraw()": "3ccfd60b",
					"withdrawToken(address)": "89476069"
				}
			},
			"storageLayout": {
				"storage": [
					{
						"astId": 1930,
						"contract": "contracts/p2p/bridge/ChainB.sol:iVault_ChainB",
						"label": "owner",
						"offset": 0,
						"slot": "0",
						"type": "t_address"
					},
					{
						"astId": 1934,
						"contract": "contracts/p2p/bridge/ChainB.sol:iVault_ChainB",
						"label": "authorizations",
						"offset": 0,
						"slot": "1",
						"type": "t_mapping(t_address,t_bool)"
					},
					{
						"astId": 12,
						"contract": "contracts/p2p/bridge/ChainB.sol:iVault_ChainB",
						"label": "_development",
						"offset": 0,
						"slot": "2",
						"type": "t_address_payable"
					},
					{
						"astId": 18,
						"contract": "contracts/p2p/bridge/ChainB.sol:iVault_ChainB",
						"label": "_community",
						"offset": 0,
						"slot": "3",
						"type": "t_address_payable"
					},
					{
						"astId": 21,
						"contract": "contracts/p2p/bridge/ChainB.sol:iVault_ChainB",
						"label": "name",
						"offset": 0,
						"slot": "4",
						"type": "t_string_storage"
					},
					{
						"astId": 24,
						"contract": "contracts/p2p/bridge/ChainB.sol:iVault_ChainB",
						"label": "symbol",
						"offset": 0,
						"slot": "5",
						"type": "t_string_storage"
					},
					{
						"astId": 27,
						"contract": "contracts/p2p/bridge/ChainB.sol:iVault_ChainB",
						"label": "teamDonationMultiplier",
						"offset": 0,
						"slot": "6",
						"type": "t_uint256"
					},
					{
						"astId": 32,
						"contract": "contracts/p2p/bridge/ChainB.sol:iVault_ChainB",
						"label": "iVF",
						"offset": 0,
						"slot": "7",
						"type": "t_address"
					},
					{
						"astId": 38,
						"contract": "contracts/p2p/bridge/ChainB.sol:iVault_ChainB",
						"label": "KEK",
						"offset": 0,
						"slot": "8",
						"type": "t_address_payable"
					},
					{
						"astId": 44,
						"contract": "contracts/p2p/bridge/ChainB.sol:iVault_ChainB",
						"label": "WKEK",
						"offset": 0,
						"slot": "9",
						"type": "t_address_payable"
					},
					{
						"astId": 50,
						"contract": "contracts/p2p/bridge/ChainB.sol:iVault_ChainB",
						"label": "WageKEK",
						"offset": 0,
						"slot": "10",
						"type": "t_contract(IWRAP)2222"
					},
					{
						"astId": 56,
						"contract": "contracts/p2p/bridge/ChainB.sol:iVault_ChainB",
						"label": "depositRecords",
						"offset": 0,
						"slot": "11",
						"type": "t_mapping(t_address,t_mapping(t_uint256,t_uint256))"
					},
					{
						"astId": 61,
						"contract": "contracts/p2p/bridge/ChainB.sol:iVault_ChainB",
						"label": "vaultRecords",
						"offset": 0,
						"slot": "12",
						"type": "t_mapping(t_address,t_struct(Vault)89_storage)"
					},
					{
						"astId": 92,
						"contract": "contracts/p2p/bridge/ChainB.sol:iVault_ChainB",
						"label": "coinAD_V",
						"offset": 0,
						"slot": "13",
						"type": "t_uint256"
					},
					{
						"astId": 95,
						"contract": "contracts/p2p/bridge/ChainB.sol:iVault_ChainB",
						"label": "tokenAD_V",
						"offset": 0,
						"slot": "14",
						"type": "t_uint256"
					},
					{
						"astId": 98,
						"contract": "contracts/p2p/bridge/ChainB.sol:iVault_ChainB",
						"label": "bFee",
						"offset": 0,
						"slot": "15",
						"type": "t_uint256"
					},
					{
						"astId": 101,
						"contract": "contracts/p2p/bridge/ChainB.sol:iVault_ChainB",
						"label": "tFEE",
						"offset": 0,
						"slot": "16",
						"type": "t_uint256"
					},
					{
						"astId": 104,
						"contract": "contracts/p2p/bridge/ChainB.sol:iVault_ChainB",
						"label": "bridgeMaxAmount",
						"offset": 0,
						"slot": "17",
						"type": "t_uint256"
					},
					{
						"astId": 107,
						"contract": "contracts/p2p/bridge/ChainB.sol:iVault_ChainB",
						"label": "tokenFee",
						"offset": 0,
						"slot": "18",
						"type": "t_bool"
					}
				],
				"types": {
					"t_address": {
						"encoding": "inplace",
						"label": "address",
						"numberOfBytes": "20"
					},
					"t_address_payable": {
						"encoding": "inplace",
						"label": "address payable",
						"numberOfBytes": "20"
					},
					"t_array(t_uint256)dyn_storage": {
						"base": "t_uint256",
						"encoding": "dynamic_array",
						"label": "uint256[]",
						"numberOfBytes": "32"
					},
					"t_bool": {
						"encoding": "inplace",
						"label": "bool",
						"numberOfBytes": "1"
					},
					"t_contract(IWRAP)2222": {
						"encoding": "inplace",
						"label": "contract IWRAP",
						"numberOfBytes": "20"
					},
					"t_mapping(t_address,t_bool)": {
						"encoding": "mapping",
						"key": "t_address",
						"label": "mapping(address => bool)",
						"numberOfBytes": "32",
						"value": "t_bool"
					},
					"t_mapping(t_address,t_mapping(t_uint256,t_uint256))": {
						"encoding": "mapping",
						"key": "t_address",
						"label": "mapping(address => mapping(uint256 => uint256))",
						"numberOfBytes": "32",
						"value": "t_mapping(t_uint256,t_uint256)"
					},
					"t_mapping(t_address,t_struct(Vault)89_storage)": {
						"encoding": "mapping",
						"key": "t_address",
						"label": "mapping(address => struct iVault_ChainB.Vault)",
						"numberOfBytes": "32",
						"value": "t_struct(Vault)89_storage"
					},
					"t_mapping(t_uint256,t_uint256)": {
						"encoding": "mapping",
						"key": "t_uint256",
						"label": "mapping(uint256 => uint256)",
						"numberOfBytes": "32",
						"value": "t_uint256"
					},
					"t_string_storage": {
						"encoding": "bytes",
						"label": "string",
						"numberOfBytes": "32"
					},
					"t_struct(History)79_storage": {
						"encoding": "inplace",
						"label": "struct iVault_ChainB.History",
						"members": [
							{
								"astId": 64,
								"contract": "contracts/p2p/bridge/ChainB.sol:iVault_ChainB",
								"label": "blockNumbers",
								"offset": 0,
								"slot": "0",
								"type": "t_array(t_uint256)dyn_storage"
							},
							{
								"astId": 66,
								"contract": "contracts/p2p/bridge/ChainB.sol:iVault_ChainB",
								"label": "coinAmountOwed",
								"offset": 0,
								"slot": "1",
								"type": "t_uint256"
							},
							{
								"astId": 68,
								"contract": "contracts/p2p/bridge/ChainB.sol:iVault_ChainB",
								"label": "coinAmountDrawn",
								"offset": 0,
								"slot": "2",
								"type": "t_uint256"
							},
							{
								"astId": 70,
								"contract": "contracts/p2p/bridge/ChainB.sol:iVault_ChainB",
								"label": "coinAmountDeposited",
								"offset": 0,
								"slot": "3",
								"type": "t_uint256"
							},
							{
								"astId": 72,
								"contract": "contracts/p2p/bridge/ChainB.sol:iVault_ChainB",
								"label": "wkekAmountOwed",
								"offset": 0,
								"slot": "4",
								"type": "t_uint256"
							},
							{
								"astId": 74,
								"contract": "contracts/p2p/bridge/ChainB.sol:iVault_ChainB",
								"label": "tokenAmountOwed",
								"offset": 0,
								"slot": "5",
								"type": "t_uint256"
							},
							{
								"astId": 76,
								"contract": "contracts/p2p/bridge/ChainB.sol:iVault_ChainB",
								"label": "tokenAmountDrawn",
								"offset": 0,
								"slot": "6",
								"type": "t_uint256"
							},
							{
								"astId": 78,
								"contract": "contracts/p2p/bridge/ChainB.sol:iVault_ChainB",
								"label": "tokenAmountDeposited",
								"offset": 0,
								"slot": "7",
								"type": "t_uint256"
							}
						],
						"numberOfBytes": "256"
					},
					"t_struct(Vault)89_storage": {
						"encoding": "inplace",
						"label": "struct iVault_ChainB.Vault",
						"members": [
							{
								"astId": 82,
								"contract": "contracts/p2p/bridge/ChainB.sol:iVault_ChainB",
								"label": "community",
								"offset": 0,
								"slot": "0",
								"type": "t_struct(History)79_storage"
							},
							{
								"astId": 85,
								"contract": "contracts/p2p/bridge/ChainB.sol:iVault_ChainB",
								"label": "development",
								"offset": 0,
								"slot": "8",
								"type": "t_struct(History)79_storage"
							},
							{
								"astId": 88,
								"contract": "contracts/p2p/bridge/ChainB.sol:iVault_ChainB",
								"label": "member",
								"offset": 0,
								"slot": "16",
								"type": "t_struct(History)79_storage"
							}
						],
						"numberOfBytes": "768"
					},
					"t_uint256": {
						"encoding": "inplace",
						"label": "uint256",
						"numberOfBytes": "32"
					}
				}
			},
			"userdoc": {
				"kind": "user",
				"methods": {},
				"version": 1
			}
		}
	}
}