{
	"data": {
		"bytecode": {
			"linkReferences": {},
			"object": "60806040523480156200001157600080fd5b5060405162000eea38038062000eea83398101604081905262000034916200042c565b8351849084906200004d906003906020850190620002b9565b50805162000063906004906020840190620002b9565b505050620000806200007a620000f260201b60201c565b620000f6565b835162000095906003906020870190620002b9565b508251620000ab906004906020860190620002b9565b50620000b8828262000137565b620000c382620001d8565b6040516001600160a01b0383169060009060008051602062000eca833981519152908290a35050505062000522565b3390565b600580546001600160a01b038381166001600160a01b03198316811790935560405191169190829060008051602062000eca83398151915290600090a35050565b6001600160a01b0382166200014b57600080fd5b80600260008282546200015f9190620004bf565b90915550506001600160a01b038216600090815260208190526040812080548392906200018e908490620004bf565b90915550506040518181526001600160a01b038316906000907fddf252ad1be2c89b69c2b068fc378daa952ba7f163c4a11628f55a4df523b3ef9060200160405180910390a35050565b620001e26200025b565b6001600160a01b0381166200024d5760405162461bcd60e51b815260206004820152602660248201527f4f776e61626c653a206e6577206f776e657220697320746865207a65726f206160448201526564647265737360d01b60648201526084015b60405180910390fd5b6200025881620000f6565b50565b6005546001600160a01b03163314620002b75760405162461bcd60e51b815260206004820181905260248201527f4f776e61626c653a2063616c6c6572206973206e6f7420746865206f776e6572604482015260640162000244565b565b828054620002c790620004e6565b90600052602060002090601f016020900481019282620002eb576000855562000336565b82601f106200030657805160ff191683800117855562000336565b8280016001018555821562000336579182015b828111156200033657825182559160200191906001019062000319565b506200034492915062000348565b5090565b5b8082111562000344576000815560010162000349565b634e487b7160e01b600052604160045260246000fd5b600082601f8301126200038757600080fd5b81516001600160401b0380821115620003a457620003a46200035f565b604051601f8301601f19908116603f01168101908282118183101715620003cf57620003cf6200035f565b81604052838152602092508683858801011115620003ec57600080fd5b600091505b83821015620004105785820183015181830184015290820190620003f1565b83821115620004225760008385830101525b9695505050505050565b600080600080608085870312156200044357600080fd5b84516001600160401b03808211156200045b57600080fd5b620004698883890162000375565b955060208701519150808211156200048057600080fd5b506200048f8782880162000375565b604087015190945090506001600160a01b0381168114620004af57600080fd5b6060959095015193969295505050565b60008219821115620004e157634e487b7160e01b600052601160045260246000fd5b500190565b600181811c90821680620004fb57607f821691505b6020821081036200051c57634e487b7160e01b600052602260045260246000fd5b50919050565b61099880620005326000396000f3fe6080604052600436106100c45760003560e01c806306fdde03146100cd578063095ea7b3146100f857806318160ddd1461012857806323b872dd14610147578063313ce56714610167578063395093511461018357806370a08231146101a3578063715018a6146101d95780638da5cb5b146101ee57806395d89b4114610216578063a457c2d71461022b578063a9059cbb1461024b578063b09f12661461026b578063d28d885214610280578063dd62ed3e14610295578063f2fde38b146102db57005b366100cb57005b005b3480156100d957600080fd5b506100e26102fb565b6040516100ef91906107d6565b60405180910390f35b34801561010457600080fd5b50610118610113366004610847565b61038d565b60405190151581526020016100ef565b34801561013457600080fd5b506002545b6040519081526020016100ef565b34801561015357600080fd5b50610118610162366004610871565b6103a3565b34801561017357600080fd5b50604051601281526020016100ef565b34801561018f57600080fd5b5061011861019e366004610847565b6103f9565b3480156101af57600080fd5b506101396101be3660046108ad565b6001600160a01b031660009081526020819052604090205490565b3480156101e557600080fd5b506100cb610435565b3480156101fa57600080fd5b506005546040516001600160a01b0390911681526020016100ef565b34801561022257600080fd5b506100e2610449565b34801561023757600080fd5b50610118610246366004610847565b610458565b34801561025757600080fd5b50610118610266366004610847565b6104a0565b34801561027757600080fd5b506100e26104ad565b34801561028c57600080fd5b506100e261053b565b3480156102a157600080fd5b506101396102b03660046108cf565b6001600160a01b03918216600090815260016020908152604080832093909416825291909152205490565b3480156102e757600080fd5b506100cb6102f63660046108ad565b610548565b60606003805461030a90610902565b80601f016020809104026020016040519081016040528092919081815260200182805461033690610902565b80156103835780601f1061035857610100808354040283529160200191610383565b820191906000526020600020905b81548152906001019060200180831161036657829003601f168201915b5050505050905090565b600061039a3384846105c6565b50600192915050565b60006103b084848461064d565b6001600160a01b0384166000908152600160209081526040808320338452909152902054828110156103e157600080fd5b6103ee85338584036105c6565b506001949350505050565b3360008181526001602090815260408083206001600160a01b0387168452909152812054909161039a91859061043090869061093c565b6105c6565b61043d61072a565b6104476000610784565b565b60606004805461030a90610902565b3360009081526001602090815260408083206001600160a01b03861684529091528120548281101561048957600080fd5b61049633858584036105c6565b5060019392505050565b600061039a33848461064d565b600480546104ba90610902565b80601f01602080910402602001604051908101604052809291908181526020018280546104e690610902565b80156105335780601f1061050857610100808354040283529160200191610533565b820191906000526020600020905b81548152906001019060200180831161051657829003601f168201915b505050505081565b600380546104ba90610902565b61055061072a565b6001600160a01b0381166105ba5760405162461bcd60e51b815260206004820152602660248201527f4f776e61626c653a206e6577206f776e657220697320746865207a65726f206160448201526564647265737360d01b60648201526084015b60405180910390fd5b6105c381610784565b50565b6001600160a01b0383166105d957600080fd5b6001600160a01b0382166105ec57600080fd5b6001600160a01b0383811660008181526001602090815260408083209487168084529482529182902085905590518481527f8c5be1e5ebec7d5bd14f71427d1e84f3dd0314c0f7b2291e5b200ac8c7c3b925910160405180910390a3505050565b6001600160a01b03831661066057600080fd5b6001600160a01b03821661067357600080fd5b6001600160a01b0383166000908152602081905260409020548181101561069957600080fd5b6001600160a01b038085166000908152602081905260408082208585039055918516815290812080548492906106d090849061093c565b92505081905550826001600160a01b0316846001600160a01b03167fddf252ad1be2c89b69c2b068fc378daa952ba7f163c4a11628f55a4df523b3ef8460405161071c91815260200190565b60405180910390a350505050565b6005546001600160a01b031633146104475760405162461bcd60e51b815260206004820181905260248201527f4f776e61626c653a2063616c6c6572206973206e6f7420746865206f776e657260448201526064016105b1565b600580546001600160a01b038381166001600160a01b0319831681179093556040519116919082907f8be0079c531659141344cd1fd0a4f28419497f9722a3daafe3b4186f6b6457e090600090a35050565b600060208083528351808285015260005b81811015610803578581018301518582016040015282016107e7565b81811115610815576000604083870101525b50601f01601f1916929092016040019392505050565b80356001600160a01b038116811461084257600080fd5b919050565b6000806040838503121561085a57600080fd5b6108638361082b565b946020939093013593505050565b60008060006060848603121561088657600080fd5b61088f8461082b565b925061089d6020850161082b565b9150604084013590509250925092565b6000602082840312156108bf57600080fd5b6108c88261082b565b9392505050565b600080604083850312156108e257600080fd5b6108eb8361082b565b91506108f96020840161082b565b90509250929050565b600181811c9082168061091657607f821691505b60208210810361093657634e487b7160e01b600052602260045260246000fd5b50919050565b6000821982111561095d57634e487b7160e01b600052601160045260246000fd5b50019056fea2646970667358221220dadd407c65f2ac480bd3854b346be9fc0a64862e89dd51920bc667d47a94511664736f6c634300080d00338be0079c531659141344cd1fd0a4f28419497f9722a3daafe3b4186f6b6457e0",
			"opcodes": "PUSH1 0x80 PUSH1 0x40 MSTORE CALLVALUE DUP1 ISZERO PUSH3 0x11 JUMPI PUSH1 0x0 DUP1 REVERT JUMPDEST POP PUSH1 0x40 MLOAD PUSH3 0xEEA CODESIZE SUB DUP1 PUSH3 0xEEA DUP4 CODECOPY DUP2 ADD PUSH1 0x40 DUP2 SWAP1 MSTORE PUSH3 0x34 SWAP2 PUSH3 0x42C JUMP JUMPDEST DUP4 MLOAD DUP5 SWAP1 DUP5 SWAP1 PUSH3 0x4D SWAP1 PUSH1 0x3 SWAP1 PUSH1 0x20 DUP6 ADD SWAP1 PUSH3 0x2B9 JUMP JUMPDEST POP DUP1 MLOAD PUSH3 0x63 SWAP1 PUSH1 0x4 SWAP1 PUSH1 0x20 DUP5 ADD SWAP1 PUSH3 0x2B9 JUMP JUMPDEST POP POP POP PUSH3 0x80 PUSH3 0x7A PUSH3 0xF2 PUSH1 0x20 SHL PUSH1 0x20 SHR JUMP JUMPDEST PUSH3 0xF6 JUMP JUMPDEST DUP4 MLOAD PUSH3 0x95 SWAP1 PUSH1 0x3 SWAP1 PUSH1 0x20 DUP8 ADD SWAP1 PUSH3 0x2B9 JUMP JUMPDEST POP DUP3 MLOAD PUSH3 0xAB SWAP1 PUSH1 0x4 SWAP1 PUSH1 0x20 DUP7 ADD SWAP1 PUSH3 0x2B9 JUMP JUMPDEST POP PUSH3 0xB8 DUP3 DUP3 PUSH3 0x137 JUMP JUMPDEST PUSH3 0xC3 DUP3 PUSH3 0x1D8 JUMP JUMPDEST PUSH1 0x40 MLOAD PUSH1 0x1 PUSH1 0x1 PUSH1 0xA0 SHL SUB DUP4 AND SWAP1 PUSH1 0x0 SWAP1 PUSH1 0x0 DUP1 MLOAD PUSH1 0x20 PUSH3 0xECA DUP4 CODECOPY DUP2 MLOAD SWAP2 MSTORE SWAP1 DUP3 SWAP1 LOG3 POP POP POP POP PUSH3 0x522 JUMP JUMPDEST CALLER SWAP1 JUMP JUMPDEST PUSH1 0x5 DUP1 SLOAD PUSH1 0x1 PUSH1 0x1 PUSH1 0xA0 SHL SUB DUP4 DUP2 AND PUSH1 0x1 PUSH1 0x1 PUSH1 0xA0 SHL SUB NOT DUP4 AND DUP2 OR SWAP1 SWAP4 SSTORE PUSH1 0x40 MLOAD SWAP2 AND SWAP2 SWAP1 DUP3 SWAP1 PUSH1 0x0 DUP1 MLOAD PUSH1 0x20 PUSH3 0xECA DUP4 CODECOPY DUP2 MLOAD SWAP2 MSTORE SWAP1 PUSH1 0x0 SWAP1 LOG3 POP POP JUMP JUMPDEST PUSH1 0x1 PUSH1 0x1 PUSH1 0xA0 SHL SUB DUP3 AND PUSH3 0x14B JUMPI PUSH1 0x0 DUP1 REVERT JUMPDEST DUP1 PUSH1 0x2 PUSH1 0x0 DUP3 DUP3 SLOAD PUSH3 0x15F SWAP2 SWAP1 PUSH3 0x4BF JUMP JUMPDEST SWAP1 SWAP2 SSTORE POP POP PUSH1 0x1 PUSH1 0x1 PUSH1 0xA0 SHL SUB DUP3 AND PUSH1 0x0 SWAP1 DUP2 MSTORE PUSH1 0x20 DUP2 SWAP1 MSTORE PUSH1 0x40 DUP2 KECCAK256 DUP1 SLOAD DUP4 SWAP3 SWAP1 PUSH3 0x18E SWAP1 DUP5 SWAP1 PUSH3 0x4BF JUMP JUMPDEST SWAP1 SWAP2 SSTORE POP POP PUSH1 0x40 MLOAD DUP2 DUP2 MSTORE PUSH1 0x1 PUSH1 0x1 PUSH1 0xA0 SHL SUB DUP4 AND SWAP1 PUSH1 0x0 SWAP1 PUSH32 0xDDF252AD1BE2C89B69C2B068FC378DAA952BA7F163C4A11628F55A4DF523B3EF SWAP1 PUSH1 0x20 ADD PUSH1 0x40 MLOAD DUP1 SWAP2 SUB SWAP1 LOG3 POP POP JUMP JUMPDEST PUSH3 0x1E2 PUSH3 0x25B JUMP JUMPDEST PUSH1 0x1 PUSH1 0x1 PUSH1 0xA0 SHL SUB DUP2 AND PUSH3 0x24D JUMPI PUSH1 0x40 MLOAD PUSH3 0x461BCD PUSH1 0xE5 SHL DUP2 MSTORE PUSH1 0x20 PUSH1 0x4 DUP3 ADD MSTORE PUSH1 0x26 PUSH1 0x24 DUP3 ADD MSTORE PUSH32 0x4F776E61626C653A206E6577206F776E657220697320746865207A65726F2061 PUSH1 0x44 DUP3 ADD MSTORE PUSH6 0x646472657373 PUSH1 0xD0 SHL PUSH1 0x64 DUP3 ADD MSTORE PUSH1 0x84 ADD JUMPDEST PUSH1 0x40 MLOAD DUP1 SWAP2 SUB SWAP1 REVERT JUMPDEST PUSH3 0x258 DUP2 PUSH3 0xF6 JUMP JUMPDEST POP JUMP JUMPDEST PUSH1 0x5 SLOAD PUSH1 0x1 PUSH1 0x1 PUSH1 0xA0 SHL SUB AND CALLER EQ PUSH3 0x2B7 JUMPI PUSH1 0x40 MLOAD PUSH3 0x461BCD PUSH1 0xE5 SHL DUP2 MSTORE PUSH1 0x20 PUSH1 0x4 DUP3 ADD DUP2 SWAP1 MSTORE PUSH1 0x24 DUP3 ADD MSTORE PUSH32 0x4F776E61626C653A2063616C6C6572206973206E6F7420746865206F776E6572 PUSH1 0x44 DUP3 ADD MSTORE PUSH1 0x64 ADD PUSH3 0x244 JUMP JUMPDEST JUMP JUMPDEST DUP3 DUP1 SLOAD PUSH3 0x2C7 SWAP1 PUSH3 0x4E6 JUMP JUMPDEST SWAP1 PUSH1 0x0 MSTORE PUSH1 0x20 PUSH1 0x0 KECCAK256 SWAP1 PUSH1 0x1F ADD PUSH1 0x20 SWAP1 DIV DUP2 ADD SWAP3 DUP3 PUSH3 0x2EB JUMPI PUSH1 0x0 DUP6 SSTORE PUSH3 0x336 JUMP JUMPDEST DUP3 PUSH1 0x1F LT PUSH3 0x306 JUMPI DUP1 MLOAD PUSH1 0xFF NOT AND DUP4 DUP1 ADD OR DUP6 SSTORE PUSH3 0x336 JUMP JUMPDEST DUP3 DUP1 ADD PUSH1 0x1 ADD DUP6 SSTORE DUP3 ISZERO PUSH3 0x336 JUMPI SWAP2 DUP3 ADD JUMPDEST DUP3 DUP2 GT ISZERO PUSH3 0x336 JUMPI DUP3 MLOAD DUP3 SSTORE SWAP2 PUSH1 0x20 ADD SWAP2 SWAP1 PUSH1 0x1 ADD SWAP1 PUSH3 0x319 JUMP JUMPDEST POP PUSH3 0x344 SWAP3 SWAP2 POP PUSH3 0x348 JUMP JUMPDEST POP SWAP1 JUMP JUMPDEST JUMPDEST DUP1 DUP3 GT ISZERO PUSH3 0x344 JUMPI PUSH1 0x0 DUP2 SSTORE PUSH1 0x1 ADD PUSH3 0x349 JUMP JUMPDEST PUSH4 0x4E487B71 PUSH1 0xE0 SHL PUSH1 0x0 MSTORE PUSH1 0x41 PUSH1 0x4 MSTORE PUSH1 0x24 PUSH1 0x0 REVERT JUMPDEST PUSH1 0x0 DUP3 PUSH1 0x1F DUP4 ADD SLT PUSH3 0x387 JUMPI PUSH1 0x0 DUP1 REVERT JUMPDEST DUP2 MLOAD PUSH1 0x1 PUSH1 0x1 PUSH1 0x40 SHL SUB DUP1 DUP3 GT ISZERO PUSH3 0x3A4 JUMPI PUSH3 0x3A4 PUSH3 0x35F JUMP JUMPDEST PUSH1 0x40 MLOAD PUSH1 0x1F DUP4 ADD PUSH1 0x1F NOT SWAP1 DUP2 AND PUSH1 0x3F ADD AND DUP2 ADD SWAP1 DUP3 DUP3 GT DUP2 DUP4 LT OR ISZERO PUSH3 0x3CF JUMPI PUSH3 0x3CF PUSH3 0x35F JUMP JUMPDEST DUP2 PUSH1 0x40 MSTORE DUP4 DUP2 MSTORE PUSH1 0x20 SWAP3 POP DUP7 DUP4 DUP6 DUP9 ADD ADD GT ISZERO PUSH3 0x3EC JUMPI PUSH1 0x0 DUP1 REVERT JUMPDEST PUSH1 0x0 SWAP2 POP JUMPDEST DUP4 DUP3 LT ISZERO PUSH3 0x410 JUMPI DUP6 DUP3 ADD DUP4 ADD MLOAD DUP2 DUP4 ADD DUP5 ADD MSTORE SWAP1 DUP3 ADD SWAP1 PUSH3 0x3F1 JUMP JUMPDEST DUP4 DUP3 GT ISZERO PUSH3 0x422 JUMPI PUSH1 0x0 DUP4 DUP6 DUP4 ADD ADD MSTORE JUMPDEST SWAP7 SWAP6 POP POP POP POP POP POP JUMP JUMPDEST PUSH1 0x0 DUP1 PUSH1 0x0 DUP1 PUSH1 0x80 DUP6 DUP8 SUB SLT ISZERO PUSH3 0x443 JUMPI PUSH1 0x0 DUP1 REVERT JUMPDEST DUP5 MLOAD PUSH1 0x1 PUSH1 0x1 PUSH1 0x40 SHL SUB DUP1 DUP3 GT ISZERO PUSH3 0x45B JUMPI PUSH1 0x0 DUP1 REVERT JUMPDEST PUSH3 0x469 DUP9 DUP4 DUP10 ADD PUSH3 0x375 JUMP JUMPDEST SWAP6 POP PUSH1 0x20 DUP8 ADD MLOAD SWAP2 POP DUP1 DUP3 GT ISZERO PUSH3 0x480 JUMPI PUSH1 0x0 DUP1 REVERT JUMPDEST POP PUSH3 0x48F DUP8 DUP3 DUP9 ADD PUSH3 0x375 JUMP JUMPDEST PUSH1 0x40 DUP8 ADD MLOAD SWAP1 SWAP5 POP SWAP1 POP PUSH1 0x1 PUSH1 0x1 PUSH1 0xA0 SHL SUB DUP2 AND DUP2 EQ PUSH3 0x4AF JUMPI PUSH1 0x0 DUP1 REVERT JUMPDEST PUSH1 0x60 SWAP6 SWAP1 SWAP6 ADD MLOAD SWAP4 SWAP7 SWAP3 SWAP6 POP POP POP JUMP JUMPDEST PUSH1 0x0 DUP3 NOT DUP3 GT ISZERO PUSH3 0x4E1 JUMPI PUSH4 0x4E487B71 PUSH1 0xE0 SHL PUSH1 0x0 MSTORE PUSH1 0x11 PUSH1 0x4 MSTORE PUSH1 0x24 PUSH1 0x0 REVERT JUMPDEST POP ADD SWAP1 JUMP JUMPDEST PUSH1 0x1 DUP2 DUP2 SHR SWAP1 DUP3 AND DUP1 PUSH3 0x4FB JUMPI PUSH1 0x7F DUP3 AND SWAP2 POP JUMPDEST PUSH1 0x20 DUP3 LT DUP2 SUB PUSH3 0x51C JUMPI PUSH4 0x4E487B71 PUSH1 0xE0 SHL PUSH1 0x0 MSTORE PUSH1 0x22 PUSH1 0x4 MSTORE PUSH1 0x24 PUSH1 0x0 REVERT JUMPDEST POP SWAP2 SWAP1 POP JUMP JUMPDEST PUSH2 0x998 DUP1 PUSH3 0x532 PUSH1 0x0 CODECOPY PUSH1 0x0 RETURN INVALID PUSH1 0x80 PUSH1 0x40 MSTORE PUSH1 0x4 CALLDATASIZE LT PUSH2 0xC4 JUMPI PUSH1 0x0 CALLDATALOAD PUSH1 0xE0 SHR DUP1 PUSH4 0x6FDDE03 EQ PUSH2 0xCD JUMPI DUP1 PUSH4 0x95EA7B3 EQ PUSH2 0xF8 JUMPI DUP1 PUSH4 0x18160DDD EQ PUSH2 0x128 JUMPI DUP1 PUSH4 0x23B872DD EQ PUSH2 0x147 JUMPI DUP1 PUSH4 0x313CE567 EQ PUSH2 0x167 JUMPI DUP1 PUSH4 0x39509351 EQ PUSH2 0x183 JUMPI DUP1 PUSH4 0x70A08231 EQ PUSH2 0x1A3 JUMPI DUP1 PUSH4 0x715018A6 EQ PUSH2 0x1D9 JUMPI DUP1 PUSH4 0x8DA5CB5B EQ PUSH2 0x1EE JUMPI DUP1 PUSH4 0x95D89B41 EQ PUSH2 0x216 JUMPI DUP1 PUSH4 0xA457C2D7 EQ PUSH2 0x22B JUMPI DUP1 PUSH4 0xA9059CBB EQ PUSH2 0x24B JUMPI DUP1 PUSH4 0xB09F1266 EQ PUSH2 0x26B JUMPI DUP1 PUSH4 0xD28D8852 EQ PUSH2 0x280 JUMPI DUP1 PUSH4 0xDD62ED3E EQ PUSH2 0x295 JUMPI DUP1 PUSH4 0xF2FDE38B EQ PUSH2 0x2DB JUMPI STOP JUMPDEST CALLDATASIZE PUSH2 0xCB JUMPI STOP JUMPDEST STOP JUMPDEST CALLVALUE DUP1 ISZERO PUSH2 0xD9 JUMPI PUSH1 0x0 DUP1 REVERT JUMPDEST POP PUSH2 0xE2 PUSH2 0x2FB JUMP JUMPDEST PUSH1 0x40 MLOAD PUSH2 0xEF SWAP2 SWAP1 PUSH2 0x7D6 JUMP JUMPDEST PUSH1 0x40 MLOAD DUP1 SWAP2 SUB SWAP1 RETURN JUMPDEST CALLVALUE DUP1 ISZERO PUSH2 0x104 JUMPI PUSH1 0x0 DUP1 REVERT JUMPDEST POP PUSH2 0x118 PUSH2 0x113 CALLDATASIZE PUSH1 0x4 PUSH2 0x847 JUMP JUMPDEST PUSH2 0x38D JUMP JUMPDEST PUSH1 0x40 MLOAD SWAP1 ISZERO ISZERO DUP2 MSTORE PUSH1 0x20 ADD PUSH2 0xEF JUMP JUMPDEST CALLVALUE DUP1 ISZERO PUSH2 0x134 JUMPI PUSH1 0x0 DUP1 REVERT JUMPDEST POP PUSH1 0x2 SLOAD JUMPDEST PUSH1 0x40 MLOAD SWAP1 DUP2 MSTORE PUSH1 0x20 ADD PUSH2 0xEF JUMP JUMPDEST CALLVALUE DUP1 ISZERO PUSH2 0x153 JUMPI PUSH1 0x0 DUP1 REVERT JUMPDEST POP PUSH2 0x118 PUSH2 0x162 CALLDATASIZE PUSH1 0x4 PUSH2 0x871 JUMP JUMPDEST PUSH2 0x3A3 JUMP JUMPDEST CALLVALUE DUP1 ISZERO PUSH2 0x173 JUMPI PUSH1 0x0 DUP1 REVERT JUMPDEST POP PUSH1 0x40 MLOAD PUSH1 0x12 DUP2 MSTORE PUSH1 0x20 ADD PUSH2 0xEF JUMP JUMPDEST CALLVALUE DUP1 ISZERO PUSH2 0x18F JUMPI PUSH1 0x0 DUP1 REVERT JUMPDEST POP PUSH2 0x118 PUSH2 0x19E CALLDATASIZE PUSH1 0x4 PUSH2 0x847 JUMP JUMPDEST PUSH2 0x3F9 JUMP JUMPDEST CALLVALUE DUP1 ISZERO PUSH2 0x1AF JUMPI PUSH1 0x0 DUP1 REVERT JUMPDEST POP PUSH2 0x139 PUSH2 0x1BE CALLDATASIZE PUSH1 0x4 PUSH2 0x8AD JUMP JUMPDEST PUSH1 0x1 PUSH1 0x1 PUSH1 0xA0 SHL SUB AND PUSH1 0x0 SWAP1 DUP2 MSTORE PUSH1 0x20 DUP2 SWAP1 MSTORE PUSH1 0x40 SWAP1 KECCAK256 SLOAD SWAP1 JUMP JUMPDEST CALLVALUE DUP1 ISZERO PUSH2 0x1E5 JUMPI PUSH1 0x0 DUP1 REVERT JUMPDEST POP PUSH2 0xCB PUSH2 0x435 JUMP JUMPDEST CALLVALUE DUP1 ISZERO PUSH2 0x1FA JUMPI PUSH1 0x0 DUP1 REVERT JUMPDEST POP PUSH1 0x5 SLOAD PUSH1 0x40 MLOAD PUSH1 0x1 PUSH1 0x1 PUSH1 0xA0 SHL SUB SWAP1 SWAP2 AND DUP2 MSTORE PUSH1 0x20 ADD PUSH2 0xEF JUMP JUMPDEST CALLVALUE DUP1 ISZERO PUSH2 0x222 JUMPI PUSH1 0x0 DUP1 REVERT JUMPDEST POP PUSH2 0xE2 PUSH2 0x449 JUMP JUMPDEST CALLVALUE DUP1 ISZERO PUSH2 0x237 JUMPI PUSH1 0x0 DUP1 REVERT JUMPDEST POP PUSH2 0x118 PUSH2 0x246 CALLDATASIZE PUSH1 0x4 PUSH2 0x847 JUMP JUMPDEST PUSH2 0x458 JUMP JUMPDEST CALLVALUE DUP1 ISZERO PUSH2 0x257 JUMPI PUSH1 0x0 DUP1 REVERT JUMPDEST POP PUSH2 0x118 PUSH2 0x266 CALLDATASIZE PUSH1 0x4 PUSH2 0x847 JUMP JUMPDEST PUSH2 0x4A0 JUMP JUMPDEST CALLVALUE DUP1 ISZERO PUSH2 0x277 JUMPI PUSH1 0x0 DUP1 REVERT JUMPDEST POP PUSH2 0xE2 PUSH2 0x4AD JUMP JUMPDEST CALLVALUE DUP1 ISZERO PUSH2 0x28C JUMPI PUSH1 0x0 DUP1 REVERT JUMPDEST POP PUSH2 0xE2 PUSH2 0x53B JUMP JUMPDEST CALLVALUE DUP1 ISZERO PUSH2 0x2A1 JUMPI PUSH1 0x0 DUP1 REVERT JUMPDEST POP PUSH2 0x139 PUSH2 0x2B0 CALLDATASIZE PUSH1 0x4 PUSH2 0x8CF JUMP JUMPDEST PUSH1 0x1 PUSH1 0x1 PUSH1 0xA0 SHL SUB SWAP2 DUP3 AND PUSH1 0x0 SWAP1 DUP2 MSTORE PUSH1 0x1 PUSH1 0x20 SWAP1 DUP2 MSTORE PUSH1 0x40 DUP1 DUP4 KECCAK256 SWAP4 SWAP1 SWAP5 AND DUP3 MSTORE SWAP2 SWAP1 SWAP2 MSTORE KECCAK256 SLOAD SWAP1 JUMP JUMPDEST CALLVALUE DUP1 ISZERO PUSH2 0x2E7 JUMPI PUSH1 0x0 DUP1 REVERT JUMPDEST POP PUSH2 0xCB PUSH2 0x2F6 CALLDATASIZE PUSH1 0x4 PUSH2 0x8AD JUMP JUMPDEST PUSH2 0x548 JUMP JUMPDEST PUSH1 0x60 PUSH1 0x3 DUP1 SLOAD PUSH2 0x30A SWAP1 PUSH2 0x902 JUMP JUMPDEST DUP1 PUSH1 0x1F ADD PUSH1 0x20 DUP1 SWAP2 DIV MUL PUSH1 0x20 ADD PUSH1 0x40 MLOAD SWAP1 DUP2 ADD PUSH1 0x40 MSTORE DUP1 SWAP3 SWAP2 SWAP1 DUP2 DUP2 MSTORE PUSH1 0x20 ADD DUP3 DUP1 SLOAD PUSH2 0x336 SWAP1 PUSH2 0x902 JUMP JUMPDEST DUP1 ISZERO PUSH2 0x383 JUMPI DUP1 PUSH1 0x1F LT PUSH2 0x358 JUMPI PUSH2 0x100 DUP1 DUP4 SLOAD DIV MUL DUP4 MSTORE SWAP2 PUSH1 0x20 ADD SWAP2 PUSH2 0x383 JUMP JUMPDEST DUP3 ADD SWAP2 SWAP1 PUSH1 0x0 MSTORE PUSH1 0x20 PUSH1 0x0 KECCAK256 SWAP1 JUMPDEST DUP2 SLOAD DUP2 MSTORE SWAP1 PUSH1 0x1 ADD SWAP1 PUSH1 0x20 ADD DUP1 DUP4 GT PUSH2 0x366 JUMPI DUP3 SWAP1 SUB PUSH1 0x1F AND DUP3 ADD SWAP2 JUMPDEST POP POP POP POP POP SWAP1 POP SWAP1 JUMP JUMPDEST PUSH1 0x0 PUSH2 0x39A CALLER DUP5 DUP5 PUSH2 0x5C6 JUMP JUMPDEST POP PUSH1 0x1 SWAP3 SWAP2 POP POP JUMP JUMPDEST PUSH1 0x0 PUSH2 0x3B0 DUP5 DUP5 DUP5 PUSH2 0x64D JUMP JUMPDEST PUSH1 0x1 PUSH1 0x1 PUSH1 0xA0 SHL SUB DUP5 AND PUSH1 0x0 SWAP1 DUP2 MSTORE PUSH1 0x1 PUSH1 0x20 SWAP1 DUP2 MSTORE PUSH1 0x40 DUP1 DUP4 KECCAK256 CALLER DUP5 MSTORE SWAP1 SWAP2 MSTORE SWAP1 KECCAK256 SLOAD DUP3 DUP2 LT ISZERO PUSH2 0x3E1 JUMPI PUSH1 0x0 DUP1 REVERT JUMPDEST PUSH2 0x3EE DUP6 CALLER DUP6 DUP5 SUB PUSH2 0x5C6 JUMP JUMPDEST POP PUSH1 0x1 SWAP5 SWAP4 POP POP POP POP JUMP JUMPDEST CALLER PUSH1 0x0 DUP2 DUP2 MSTORE PUSH1 0x1 PUSH1 0x20 SWAP1 DUP2 MSTORE PUSH1 0x40 DUP1 DUP4 KECCAK256 PUSH1 0x1 PUSH1 0x1 PUSH1 0xA0 SHL SUB DUP8 AND DUP5 MSTORE SWAP1 SWAP2 MSTORE DUP2 KECCAK256 SLOAD SWAP1 SWAP2 PUSH2 0x39A SWAP2 DUP6 SWAP1 PUSH2 0x430 SWAP1 DUP7 SWAP1 PUSH2 0x93C JUMP JUMPDEST PUSH2 0x5C6 JUMP JUMPDEST PUSH2 0x43D PUSH2 0x72A JUMP JUMPDEST PUSH2 0x447 PUSH1 0x0 PUSH2 0x784 JUMP JUMPDEST JUMP JUMPDEST PUSH1 0x60 PUSH1 0x4 DUP1 SLOAD PUSH2 0x30A SWAP1 PUSH2 0x902 JUMP JUMPDEST CALLER PUSH1 0x0 SWAP1 DUP2 MSTORE PUSH1 0x1 PUSH1 0x20 SWAP1 DUP2 MSTORE PUSH1 0x40 DUP1 DUP4 KECCAK256 PUSH1 0x1 PUSH1 0x1 PUSH1 0xA0 SHL SUB DUP7 AND DUP5 MSTORE SWAP1 SWAP2 MSTORE DUP2 KECCAK256 SLOAD DUP3 DUP2 LT ISZERO PUSH2 0x489 JUMPI PUSH1 0x0 DUP1 REVERT JUMPDEST PUSH2 0x496 CALLER DUP6 DUP6 DUP5 SUB PUSH2 0x5C6 JUMP JUMPDEST POP PUSH1 0x1 SWAP4 SWAP3 POP POP POP JUMP JUMPDEST PUSH1 0x0 PUSH2 0x39A CALLER DUP5 DUP5 PUSH2 0x64D JUMP JUMPDEST PUSH1 0x4 DUP1 SLOAD PUSH2 0x4BA SWAP1 PUSH2 0x902 JUMP JUMPDEST DUP1 PUSH1 0x1F ADD PUSH1 0x20 DUP1 SWAP2 DIV MUL PUSH1 0x20 ADD PUSH1 0x40 MLOAD SWAP1 DUP2 ADD PUSH1 0x40 MSTORE DUP1 SWAP3 SWAP2 SWAP1 DUP2 DUP2 MSTORE PUSH1 0x20 ADD DUP3 DUP1 SLOAD PUSH2 0x4E6 SWAP1 PUSH2 0x902 JUMP JUMPDEST DUP1 ISZERO PUSH2 0x533 JUMPI DUP1 PUSH1 0x1F LT PUSH2 0x508 JUMPI PUSH2 0x100 DUP1 DUP4 SLOAD DIV MUL DUP4 MSTORE SWAP2 PUSH1 0x20 ADD SWAP2 PUSH2 0x533 JUMP JUMPDEST DUP3 ADD SWAP2 SWAP1 PUSH1 0x0 MSTORE PUSH1 0x20 PUSH1 0x0 KECCAK256 SWAP1 JUMPDEST DUP2 SLOAD DUP2 MSTORE SWAP1 PUSH1 0x1 ADD SWAP1 PUSH1 0x20 ADD DUP1 DUP4 GT PUSH2 0x516 JUMPI DUP3 SWAP1 SUB PUSH1 0x1F AND DUP3 ADD SWAP2 JUMPDEST POP POP POP POP POP DUP2 JUMP JUMPDEST PUSH1 0x3 DUP1 SLOAD PUSH2 0x4BA SWAP1 PUSH2 0x902 JUMP JUMPDEST PUSH2 0x550 PUSH2 0x72A JUMP JUMPDEST PUSH1 0x1 PUSH1 0x1 PUSH1 0xA0 SHL SUB DUP2 AND PUSH2 0x5BA JUMPI PUSH1 0x40 MLOAD PUSH3 0x461BCD PUSH1 0xE5 SHL DUP2 MSTORE PUSH1 0x20 PUSH1 0x4 DUP3 ADD MSTORE PUSH1 0x26 PUSH1 0x24 DUP3 ADD MSTORE PUSH32 0x4F776E61626C653A206E6577206F776E657220697320746865207A65726F2061 PUSH1 0x44 DUP3 ADD MSTORE PUSH6 0x646472657373 PUSH1 0xD0 SHL PUSH1 0x64 DUP3 ADD MSTORE PUSH1 0x84 ADD JUMPDEST PUSH1 0x40 MLOAD DUP1 SWAP2 SUB SWAP1 REVERT JUMPDEST PUSH2 0x5C3 DUP2 PUSH2 0x784 JUMP JUMPDEST POP JUMP JUMPDEST PUSH1 0x1 PUSH1 0x1 PUSH1 0xA0 SHL SUB DUP4 AND PUSH2 0x5D9 JUMPI PUSH1 0x0 DUP1 REVERT JUMPDEST PUSH1 0x1 PUSH1 0x1 PUSH1 0xA0 SHL SUB DUP3 AND PUSH2 0x5EC JUMPI PUSH1 0x0 DUP1 REVERT JUMPDEST PUSH1 0x1 PUSH1 0x1 PUSH1 0xA0 SHL SUB DUP4 DUP2 AND PUSH1 0x0 DUP2 DUP2 MSTORE PUSH1 0x1 PUSH1 0x20 SWAP1 DUP2 MSTORE PUSH1 0x40 DUP1 DUP4 KECCAK256 SWAP5 DUP8 AND DUP1 DUP5 MSTORE SWAP5 DUP3 MSTORE SWAP2 DUP3 SWAP1 KECCAK256 DUP6 SWAP1 SSTORE SWAP1 MLOAD DUP5 DUP2 MSTORE PUSH32 0x8C5BE1E5EBEC7D5BD14F71427D1E84F3DD0314C0F7B2291E5B200AC8C7C3B925 SWAP2 ADD PUSH1 0x40 MLOAD DUP1 SWAP2 SUB SWAP1 LOG3 POP POP POP JUMP JUMPDEST PUSH1 0x1 PUSH1 0x1 PUSH1 0xA0 SHL SUB DUP4 AND PUSH2 0x660 JUMPI PUSH1 0x0 DUP1 REVERT JUMPDEST PUSH1 0x1 PUSH1 0x1 PUSH1 0xA0 SHL SUB DUP3 AND PUSH2 0x673 JUMPI PUSH1 0x0 DUP1 REVERT JUMPDEST PUSH1 0x1 PUSH1 0x1 PUSH1 0xA0 SHL SUB DUP4 AND PUSH1 0x0 SWAP1 DUP2 MSTORE PUSH1 0x20 DUP2 SWAP1 MSTORE PUSH1 0x40 SWAP1 KECCAK256 SLOAD DUP2 DUP2 LT ISZERO PUSH2 0x699 JUMPI PUSH1 0x0 DUP1 REVERT JUMPDEST PUSH1 0x1 PUSH1 0x1 PUSH1 0xA0 SHL SUB DUP1 DUP6 AND PUSH1 0x0 SWAP1 DUP2 MSTORE PUSH1 0x20 DUP2 SWAP1 MSTORE PUSH1 0x40 DUP1 DUP3 KECCAK256 DUP6 DUP6 SUB SWAP1 SSTORE SWAP2 DUP6 AND DUP2 MSTORE SWAP1 DUP2 KECCAK256 DUP1 SLOAD DUP5 SWAP3 SWAP1 PUSH2 0x6D0 SWAP1 DUP5 SWAP1 PUSH2 0x93C JUMP JUMPDEST SWAP3 POP POP DUP2 SWAP1 SSTORE POP DUP3 PUSH1 0x1 PUSH1 0x1 PUSH1 0xA0 SHL SUB AND DUP5 PUSH1 0x1 PUSH1 0x1 PUSH1 0xA0 SHL SUB AND PUSH32 0xDDF252AD1BE2C89B69C2B068FC378DAA952BA7F163C4A11628F55A4DF523B3EF DUP5 PUSH1 0x40 MLOAD PUSH2 0x71C SWAP2 DUP2 MSTORE PUSH1 0x20 ADD SWAP1 JUMP JUMPDEST PUSH1 0x40 MLOAD DUP1 SWAP2 SUB SWAP1 LOG3 POP POP POP POP JUMP JUMPDEST PUSH1 0x5 SLOAD PUSH1 0x1 PUSH1 0x1 PUSH1 0xA0 SHL SUB AND CALLER EQ PUSH2 0x447 JUMPI PUSH1 0x40 MLOAD PUSH3 0x461BCD PUSH1 0xE5 SHL DUP2 MSTORE PUSH1 0x20 PUSH1 0x4 DUP3 ADD DUP2 SWAP1 MSTORE PUSH1 0x24 DUP3 ADD MSTORE PUSH32 0x4F776E61626C653A2063616C6C6572206973206E6F7420746865206F776E6572 PUSH1 0x44 DUP3 ADD MSTORE PUSH1 0x64 ADD PUSH2 0x5B1 JUMP JUMPDEST PUSH1 0x5 DUP1 SLOAD PUSH1 0x1 PUSH1 0x1 PUSH1 0xA0 SHL SUB DUP4 DUP2 AND PUSH1 0x1 PUSH1 0x1 PUSH1 0xA0 SHL SUB NOT DUP4 AND DUP2 OR SWAP1 SWAP4 SSTORE PUSH1 0x40 MLOAD SWAP2 AND SWAP2 SWAP1 DUP3 SWAP1 PUSH32 0x8BE0079C531659141344CD1FD0A4F28419497F9722A3DAAFE3B4186F6B6457E0 SWAP1 PUSH1 0x0 SWAP1 LOG3 POP POP JUMP JUMPDEST PUSH1 0x0 PUSH1 0x20 DUP1 DUP4 MSTORE DUP4 MLOAD DUP1 DUP3 DUP6 ADD MSTORE PUSH1 0x0 JUMPDEST DUP2 DUP2 LT ISZERO PUSH2 0x803 JUMPI DUP6 DUP2 ADD DUP4 ADD MLOAD DUP6 DUP3 ADD PUSH1 0x40 ADD MSTORE DUP3 ADD PUSH2 0x7E7 JUMP JUMPDEST DUP2 DUP2 GT ISZERO PUSH2 0x815 JUMPI PUSH1 0x0 PUSH1 0x40 DUP4 DUP8 ADD ADD MSTORE JUMPDEST POP PUSH1 0x1F ADD PUSH1 0x1F NOT AND SWAP3 SWAP1 SWAP3 ADD PUSH1 0x40 ADD SWAP4 SWAP3 POP POP POP JUMP JUMPDEST DUP1 CALLDATALOAD PUSH1 0x1 PUSH1 0x1 PUSH1 0xA0 SHL SUB DUP2 AND DUP2 EQ PUSH2 0x842 JUMPI PUSH1 0x0 DUP1 REVERT JUMPDEST SWAP2 SWAP1 POP JUMP JUMPDEST PUSH1 0x0 DUP1 PUSH1 0x40 DUP4 DUP6 SUB SLT ISZERO PUSH2 0x85A JUMPI PUSH1 0x0 DUP1 REVERT JUMPDEST PUSH2 0x863 DUP4 PUSH2 0x82B JUMP JUMPDEST SWAP5 PUSH1 0x20 SWAP4 SWAP1 SWAP4 ADD CALLDATALOAD SWAP4 POP POP POP JUMP JUMPDEST PUSH1 0x0 DUP1 PUSH1 0x0 PUSH1 0x60 DUP5 DUP7 SUB SLT ISZERO PUSH2 0x886 JUMPI PUSH1 0x0 DUP1 REVERT JUMPDEST PUSH2 0x88F DUP5 PUSH2 0x82B JUMP JUMPDEST SWAP3 POP PUSH2 0x89D PUSH1 0x20 DUP6 ADD PUSH2 0x82B JUMP JUMPDEST SWAP2 POP PUSH1 0x40 DUP5 ADD CALLDATALOAD SWAP1 POP SWAP3 POP SWAP3 POP SWAP3 JUMP JUMPDEST PUSH1 0x0 PUSH1 0x20 DUP3 DUP5 SUB SLT ISZERO PUSH2 0x8BF JUMPI PUSH1 0x0 DUP1 REVERT JUMPDEST PUSH2 0x8C8 DUP3 PUSH2 0x82B JUMP JUMPDEST SWAP4 SWAP3 POP POP POP JUMP JUMPDEST PUSH1 0x0 DUP1 PUSH1 0x40 DUP4 DUP6 SUB SLT ISZERO PUSH2 0x8E2 JUMPI PUSH1 0x0 DUP1 REVERT JUMPDEST PUSH2 0x8EB DUP4 PUSH2 0x82B JUMP JUMPDEST SWAP2 POP PUSH2 0x8F9 PUSH1 0x20 DUP5 ADD PUSH2 0x82B JUMP JUMPDEST SWAP1 POP SWAP3 POP SWAP3 SWAP1 POP JUMP JUMPDEST PUSH1 0x1 DUP2 DUP2 SHR SWAP1 DUP3 AND DUP1 PUSH2 0x916 JUMPI PUSH1 0x7F DUP3 AND SWAP2 POP JUMPDEST PUSH1 0x20 DUP3 LT DUP2 SUB PUSH2 0x936 JUMPI PUSH4 0x4E487B71 PUSH1 0xE0 SHL PUSH1 0x0 MSTORE PUSH1 0x22 PUSH1 0x4 MSTORE PUSH1 0x24 PUSH1 0x0 REVERT JUMPDEST POP SWAP2 SWAP1 POP JUMP JUMPDEST PUSH1 0x0 DUP3 NOT DUP3 GT ISZERO PUSH2 0x95D JUMPI PUSH4 0x4E487B71 PUSH1 0xE0 SHL PUSH1 0x0 MSTORE PUSH1 0x11 PUSH1 0x4 MSTORE PUSH1 0x24 PUSH1 0x0 REVERT JUMPDEST POP ADD SWAP1 JUMP INVALID LOG2 PUSH5 0x6970667358 0x22 SLT KECCAK256 0xDA 0xDD BLOCKHASH PUSH29 0x65F2AC480BD3854B346BE9FC0A64862E89DD51920BC667D47A94511664 PUSH20 0x6F6C634300080D00338BE0079C531659141344CD 0x1F 0xD0 LOG4 CALLCODE DUP5 NOT 0x49 PUSH32 0x9722A3DAAFE3B4186F6B6457E000000000000000000000000000000000000000 "
		},
		"gasEstimates": {
			"creation": {
				"codeDepositCost": "491200",
				"executionCost": "infinite",
				"totalCost": "infinite"
			},
			"external": {
				"": "403",
				"_name()": "infinite",
				"_symbol()": "infinite",
				"allowance(address,address)": "infinite",
				"approve(address,uint256)": "24596",
				"balanceOf(address)": "2650",
				"decimals()": "243",
				"decreaseAllowance(address,uint256)": "27086",
				"increaseAllowance(address,uint256)": "27022",
				"name()": "infinite",
				"owner()": "2455",
				"renounceOwnership()": "infinite",
				"symbol()": "infinite",
				"totalSupply()": "2303",
				"transfer(address,uint256)": "51385",
				"transferFrom(address,address,uint256)": "infinite",
				"transferOwnership(address)": "28644"
			}
		},
		"methodIdentifiers": {
			"_name()": "d28d8852",
			"_symbol()": "b09f1266",
			"allowance(address,address)": "dd62ed3e",
			"approve(address,uint256)": "095ea7b3",
			"balanceOf(address)": "70a08231",
			"decimals()": "313ce567",
			"decreaseAllowance(address,uint256)": "a457c2d7",
			"increaseAllowance(address,uint256)": "39509351",
			"name()": "06fdde03",
			"owner()": "8da5cb5b",
			"renounceOwnership()": "715018a6",
			"symbol()": "95d89b41",
			"totalSupply()": "18160ddd",
			"transfer(address,uint256)": "a9059cbb",
			"transferFrom(address,address,uint256)": "23b872dd",
			"transferOwnership(address)": "f2fde38b"
		}
	},
	"abi": [
		{
			"inputs": [
				{
					"internalType": "string",
					"name": "name",
					"type": "string"
				},
				{
					"internalType": "string",
					"name": "symbol",
					"type": "string"
				},
				{
					"internalType": "address payable",
					"name": "_depositors",
					"type": "address"
				},
				{
					"internalType": "uint256",
					"name": "supply",
					"type": "uint256"
				}
			],
			"stateMutability": "nonpayable",
			"type": "constructor"
		},
		{
			"anonymous": false,
			"inputs": [
				{
					"indexed": true,
					"internalType": "address",
					"name": "owner",
					"type": "address"
				},
				{
					"indexed": true,
					"internalType": "address",
					"name": "spender",
					"type": "address"
				},
				{
					"indexed": false,
					"internalType": "uint256",
					"name": "value",
					"type": "uint256"
				}
			],
			"name": "Approval",
			"type": "event"
		},
		{
			"anonymous": false,
			"inputs": [
				{
					"indexed": true,
					"internalType": "address",
					"name": "previousOwner",
					"type": "address"
				},
				{
					"indexed": true,
					"internalType": "address",
					"name": "newOwner",
					"type": "address"
				}
			],
			"name": "OwnershipTransferred",
			"type": "event"
		},
		{
			"anonymous": false,
			"inputs": [
				{
					"indexed": true,
					"internalType": "address",
					"name": "from",
					"type": "address"
				},
				{
					"indexed": true,
					"internalType": "address",
					"name": "to",
					"type": "address"
				},
				{
					"indexed": false,
					"internalType": "uint256",
					"name": "value",
					"type": "uint256"
				}
			],
			"name": "Transfer",
			"type": "event"
		},
		{
			"stateMutability": "payable",
			"type": "fallback"
		},
		{
			"inputs": [],
			"name": "_name",
			"outputs": [
				{
					"internalType": "string",
					"name": "",
					"type": "string"
				}
			],
			"stateMutability": "view",
			"type": "function"
		},
		{
			"inputs": [],
			"name": "_symbol",
			"outputs": [
				{
					"internalType": "string",
					"name": "",
					"type": "string"
				}
			],
			"stateMutability": "view",
			"type": "function"
		},
		{
			"inputs": [
				{
					"internalType": "address",
					"name": "owner",
					"type": "address"
				},
				{
					"internalType": "address",
					"name": "spender",
					"type": "address"
				}
			],
			"name": "allowance",
			"outputs": [
				{
					"internalType": "uint256",
					"name": "",
					"type": "uint256"
				}
			],
			"stateMutability": "view",
			"type": "function"
		},
		{
			"inputs": [
				{
					"internalType": "address",
					"name": "spender",
					"type": "address"
				},
				{
					"internalType": "uint256",
					"name": "amount",
					"type": "uint256"
				}
			],
			"name": "approve",
			"outputs": [
				{
					"internalType": "bool",
					"name": "",
					"type": "bool"
				}
			],
			"stateMutability": "nonpayable",
			"type": "function"
		},
		{
			"inputs": [
				{
					"internalType": "address",
					"name": "account",
					"type": "address"
				}
			],
			"name": "balanceOf",
			"outputs": [
				{
					"internalType": "uint256",
					"name": "",
					"type": "uint256"
				}
			],
			"stateMutability": "view",
			"type": "function"
		},
		{
			"inputs": [],
			"name": "decimals",
			"outputs": [
				{
					"internalType": "uint8",
					"name": "",
					"type": "uint8"
				}
			],
			"stateMutability": "view",
			"type": "function"
		},
		{
			"inputs": [
				{
					"internalType": "address",
					"name": "spender",
					"type": "address"
				},
				{
					"internalType": "uint256",
					"name": "subtractedValue",
					"type": "uint256"
				}
			],
			"name": "decreaseAllowance",
			"outputs": [
				{
					"internalType": "bool",
					"name": "",
					"type": "bool"
				}
			],
			"stateMutability": "nonpayable",
			"type": "function"
		},
		{
			"inputs": [
				{
					"internalType": "address",
					"name": "spender",
					"type": "address"
				},
				{
					"internalType": "uint256",
					"name": "addedValue",
					"type": "uint256"
				}
			],
			"name": "increaseAllowance",
			"outputs": [
				{
					"internalType": "bool",
					"name": "",
					"type": "bool"
				}
			],
			"stateMutability": "nonpayable",
			"type": "function"
		},
		{
			"inputs": [],
			"name": "name",
			"outputs": [
				{
					"internalType": "string",
					"name": "",
					"type": "string"
				}
			],
			"stateMutability": "view",
			"type": "function"
		},
		{
			"inputs": [],
			"name": "owner",
			"outputs": [
				{
					"internalType": "address",
					"name": "",
					"type": "address"
				}
			],
			"stateMutability": "view",
			"type": "function"
		},
		{
			"inputs": [],
			"name": "renounceOwnership",
			"outputs": [],
			"stateMutability": "nonpayable",
			"type": "function"
		},
		{
			"inputs": [],
			"name": "symbol",
			"outputs": [
				{
					"internalType": "string",
					"name": "",
					"type": "string"
				}
			],
			"stateMutability": "view",
			"type": "function"
		},
		{
			"inputs": [],
			"name": "totalSupply",
			"outputs": [
				{
					"internalType": "uint256",
					"name": "",
					"type": "uint256"
				}
			],
			"stateMutability": "view",
			"type": "function"
		},
		{
			"inputs": [
				{
					"internalType": "address",
					"name": "recipient",
					"type": "address"
				},
				{
					"internalType": "uint256",
					"name": "amount",
					"type": "uint256"
				}
			],
			"name": "transfer",
			"outputs": [
				{
					"internalType": "bool",
					"name": "",
					"type": "bool"
				}
			],
			"stateMutability": "nonpayable",
			"type": "function"
		},
		{
			"inputs": [
				{
					"internalType": "address",
					"name": "sender",
					"type": "address"
				},
				{
					"internalType": "address",
					"name": "recipient",
					"type": "address"
				},
				{
					"internalType": "uint256",
					"name": "amount",
					"type": "uint256"
				}
			],
			"name": "transferFrom",
			"outputs": [
				{
					"internalType": "bool",
					"name": "",
					"type": "bool"
				}
			],
			"stateMutability": "nonpayable",
			"type": "function"
		},
		{
			"inputs": [
				{
					"internalType": "address",
					"name": "newOwner",
					"type": "address"
				}
			],
			"name": "transferOwnership",
			"outputs": [],
			"stateMutability": "nonpayable",
			"type": "function"
		},
		{
			"stateMutability": "payable",
			"type": "receive"
		}
	]
}