{
	"data": {
		"bytecode": {
			"linkReferences": {},
			"object": "60806040523480156200001157600080fd5b50604051620063c2380380620063c28339810160408190526200003491620003aa565b8151829082906200004d90600090602085019062000237565b5080516200006390600190602084019062000237565b505050620000806200007a6200010060201b60201c565b62000104565b6001600b5581516200009a90601790602085019062000237565b508051620000b090601890602084019062000237565b506011805460ff1916600117905567016345785d8a0000601055620000d58362000156565b5050600a54600d80546001600160a01b0319166001600160a01b039092169190911790555062000470565b3390565b600a80546001600160a01b038381166001600160a01b0319831681179093556040519116919082907f8be0079c531659141344cd1fd0a4f28419497f9722a3daafe3b4186f6b6457e090600090a35050565b62000160620001d9565b6001600160a01b038116620001cb5760405162461bcd60e51b815260206004820152602660248201527f4f776e61626c653a206e6577206f776e657220697320746865207a65726f206160448201526564647265737360d01b60648201526084015b60405180910390fd5b620001d68162000104565b50565b600a546001600160a01b03163314620002355760405162461bcd60e51b815260206004820181905260248201527f4f776e61626c653a2063616c6c6572206973206e6f7420746865206f776e65726044820152606401620001c2565b565b828054620002459062000434565b90600052602060002090601f016020900481019282620002695760008555620002b4565b82601f106200028457805160ff1916838001178555620002b4565b82800160010185558215620002b4579182015b82811115620002b457825182559160200191906001019062000297565b50620002c2929150620002c6565b5090565b5b80821115620002c25760008155600101620002c7565b634e487b7160e01b600052604160045260246000fd5b600082601f8301126200030557600080fd5b81516001600160401b0380821115620003225762000322620002dd565b604051601f8301601f19908116603f011681019082821181831017156200034d576200034d620002dd565b816040528381526020925086838588010111156200036a57600080fd5b600091505b838210156200038e57858201830151818301840152908201906200036f565b83821115620003a05760008385830101525b9695505050505050565b600080600060608486031215620003c057600080fd5b83516001600160a01b0381168114620003d857600080fd5b60208501519093506001600160401b0380821115620003f657600080fd5b6200040487838801620002f3565b935060408601519150808211156200041b57600080fd5b506200042a86828701620002f3565b9150509250925092565b600181811c908216806200044957607f821691505b6020821081036200046a57634e487b7160e01b600052602260045260246000fd5b50919050565b615f4280620004806000396000f3fe608060405260043610620001d25760003560e01c80636352211e11620000f95780636352211e146200047857806370a08231146200049d578063715018a614620004c257806376743b6b14620004da5780637f0e964b14620004f15780638da5cb5b146200051657806395d89b411462000536578063a0477b8a146200054e578063a22cb4651462000575578063b88d4fde146200059a578063c0a20d8814620005bf578063c87b56dd14620005d7578063d0cb39c614620005fc578063d68f4dd1146200062a578063e985e9c5146200064f578063f2fde38b1462000674578063f6abd4e91462000699578063f8aaec8b14620006cd57005b8062ebf5dd14620001dc57806301ffc9a714620001f35780630536716a146200022d57806306fdde031462000261578063081812fc1462000288578063095ea7b314620002bc578063143f39ee14620002e15780631513236b146200030657806318160ddd146200032b57806323b872dd146200034c5780632ccf8aa614620003715780632f745c591462000388578063359aa0b5146200022d5780633817820e14620003ad57806342842e0e14620003e25780634f6ccce7146200040757806354a5e97f146200042c57806359a85794146200046057005b36620001da57005b005b620001da620001ed36600462003b1e565b620006f4565b3480156200020057600080fd5b50620002186200021236600462003b7c565b62000bf8565b60405190151581526020015b60405180910390f35b3480156200023a57600080fd5b50620002526200024c36600462003b9c565b62000c26565b60405162000224919062003c89565b3480156200026e57600080fd5b506200027962000cf9565b60405162000224919062003cf7565b3480156200029557600080fd5b50620002ad620002a736600462003b9c565b62000d93565b60405162000224919062003d0c565b348015620002c957600080fd5b50620001da620002db36600462003d20565b62000dbc565b348015620002ee57600080fd5b50620002186200030036600462003b9c565b62000ed7565b3480156200031357600080fd5b50620001da6200032536600462003d4f565b62000eed565b3480156200033857600080fd5b506008545b60405190815260200162000224565b3480156200035957600080fd5b50620001da6200036b36600462003d82565b62000f3c565b620001da6200038236600462003dc8565b62000f74565b3480156200039557600080fd5b506200033d620003a736600462003d20565b62001351565b620003c4620003be36600462003e2e565b620013eb565b604080519283526001600160a01b0390911660208301520162000224565b348015620003ef57600080fd5b50620001da6200040136600462003d82565b62002178565b3480156200041457600080fd5b506200033d6200042636600462003b9c565b62002195565b3480156200043957600080fd5b50620004516200044b36600462003e90565b6200222e565b60405162000224919062003efa565b3480156200046d57600080fd5b506200033d60105481565b3480156200048557600080fd5b50620002ad6200049736600462003b9c565b62002362565b348015620004aa57600080fd5b506200033d620004bc36600462003e90565b6200239b565b348015620004cf57600080fd5b50620001da62002423565b348015620004e757600080fd5b506010546200033d565b348015620004fe57600080fd5b50620001da6200051036600462003d4f565b6200243b565b3480156200052357600080fd5b50600a546001600160a01b0316620002ad565b3480156200054357600080fd5b5062000279620025a3565b3480156200055b57600080fd5b5062000566620025b4565b60405162000224919062003f17565b3480156200058257600080fd5b50620001da6200059436600462003f2c565b620026f3565b348015620005a757600080fd5b50620001da620005b936600462003f75565b62002700565b348015620005cc57600080fd5b50620005666200273f565b348015620005e457600080fd5b5062000279620005f636600462003b9c565b62002846565b3480156200060957600080fd5b5062000614620028c3565b6040805192835260208301919091520162000224565b3480156200063757600080fd5b50620002526200064936600462003b9c565b620028db565b3480156200065c57600080fd5b50620002186200066e36600462004063565b6200292d565b3480156200068157600080fd5b50620001da6200069336600462003e90565b6200295b565b348015620006a657600080fd5b5062000218620006b836600462003b9c565b60156020526000908152604090205460ff1681565b348015620006da57600080fd5b50620006e5620029da565b60405162000224919062004096565b620006fe62002a3c565b620007098362000ed7565b6200074e5760405162461bcd60e51b815260206004820152601060248201526f1a5b9d985b1a59081a531bd8dac81a5960821b60448201526064015b60405180910390fd5b6000838152601260205260409020600781015460068201546001600160a01b0390911690421015806200078c57506007820154600160a81b900460ff165b620007c95760405162461bcd60e51b815260206004820152600c60248201526b1cdd1a5b1b081b1bd8dad95960a21b604482015260640162000745565b600d546040516000916001600160a01b03169034908381818185875af1925050503d806000811462000818576040519150601f19603f3d011682016040523d82523d6000602084013e6200081d565b606091505b50509050806200082c57600080fd5b506007820154600090600160a81b900460ff1615158103620008cc5733620008548762002362565b6001600160a01b031614620008a15760405162461bcd60e51b81526020600482015260126024820152716e6f74206f776e6572206f6620694c6f636b60701b604482015260640162000745565b6007830154600160b01b900460ff1615620008bb57600080fd5b620008c68662002a97565b62000917565b33620008d88762002362565b6001600160a01b03161480620008f85750600d546001600160a01b031633145b620009175760405162461bcd60e51b81526004016200074590620040dc565b6000868152601560205260408120805460ff19169055841515900362000a855760018301546040516370a0823160e01b81526001600160a01b03909116906370a08231906200096b90859060040162003d0c565b602060405180830381865afa15801562000989573d6000803e3d6000fd5b505050506040513d601f19601f82011682018060405250810190620009af91906200410a565b6001840154604051631ff3d4cb60e21b81529192506001600160a01b0380851692637fcf532c92620009e8921690859060040162004124565b6020604051808303816000875af192505050801562000a26575060408051601f3d908101601f1916820190925262000a23918101906200413d565b60015b62000a6c5760405162461bcd60e51b81526020600482015260156024820152742330b4b632b21022a9219918103a3930b739b332b960591b604482015260640162000745565b60058401805460ff191691151591909117905562000b4c565b50604051621ce66f60e31b81526001600160a01b03821680319162e733789062000ab6908890859060040162004124565b6020604051808303816000875af192505050801562000af4575060408051601f3d908101601f1916820190925262000af1918101906200413d565b60015b62000b385760405162461bcd60e51b81526020600482015260136024820152722330b4b632b21022aa24103a3930b739b332b960691b604482015260640162000745565b60058401805460ff19169115159190911790555b600583015460ff16151560011462000b9d5760405162461bcd60e51b8152602060048201526013602482015272111a5cdd1c9a589d5d1a5bdb8811985a5b1959606a1b604482015260640162000745565b60018301546040518281526001600160a01b0387811692169088907ffeb2000dca3e617cd6f3a8bbb63014bb54a124aac6ccbf73ee7229b4cd01f1209060200160405180910390a450505062000bf36001600b55565b505050565b60006001600160e01b0319821663780e9d6360e01b148062000c20575062000c208262002b2f565b92915050565b62000c3062003a87565b506000908152601260209081526040918290208251610180810184528154815260018201546001600160a01b0390811693820193909352600282015483169381019390935260038101548216606084015260048101546080840152600581015460ff808216151560a0860152610100918290048116151560c0860152600683015460e086015260079092015492831690840152600160a01b820481161515610120840152600160a81b820481161515610140840152600160b01b90910416151561016082015290565b60606017805462000d0a906200415d565b80601f016020809104026020016040519081016040528092919081815260200182805462000d38906200415d565b801562000d895780601f1062000d5d5761010080835404028352916020019162000d89565b820191906000526020600020905b81548152906001019060200180831162000d6b57829003601f168201915b5050505050905090565b600062000da08262002b82565b506000908152600460205260409020546001600160a01b031690565b600062000dc98262002362565b9050806001600160a01b0316836001600160a01b03160362000e385760405162461bcd60e51b815260206004820152602160248201527f4552433732313a20617070726f76616c20746f2063757272656e74206f776e656044820152603960f91b606482015260840162000745565b336001600160a01b038216148062000e57575062000e5781336200292d565b62000ecb5760405162461bcd60e51b815260206004820152603d60248201527f4552433732313a20617070726f76652063616c6c6572206973206e6f7420746f60448201527f6b656e206f776e6572206f7220617070726f76656420666f7220616c6c000000606482015260840162000745565b62000bf3838362002bac565b6000811580159062000c20575050600e54101590565b600d546001600160a01b0316336001600160a01b03161462000f235760405162461bcd60e51b8152600401620007459062004199565b6010919091556011805460ff1916911515919091179055565b62000f48338262002c1c565b62000f675760405162461bcd60e51b81526004016200074590620041c1565b62000bf383838362002c83565b600d546001600160a01b0316336001600160a01b03161462000f9557600080fd5b801515600103620012375762000fab8462000ed7565b62000fb557600080fd5b600084815260126020526040812060078101549091600160a01b90910460ff161515900362000fe357600080fd5b60078101805460ff60a81b1916600160a81b179055826200118b5783620010815760078101546040516370a0823160e01b81526001600160a01b03888116926370a08231926200103a929091169060040162003d0c565b602060405180830381865afa15801562001058573d6000803e3d6000fd5b505050506040513d601f19601f820116820180604052508101906200107e91906200410a565b93505b60078101546001820154600d546040516370a0823160e01b81526001600160a01b039384169363a5f2a15293811692811691908b16906370a0823190620010cd90879060040162003d0c565b602060405180830381865afa158015620010eb573d6000803e3d6000fd5b505050506040513d601f19601f820116820180604052508101906200111191906200410a565b6040518463ffffffff1660e01b815260040162001131939291906200420e565b6020604051808303816000875af19250505080156200116f575060408051601f3d908101601f191682019092526200116c918101906200413d565b60015b6200117957600080fd5b806200118457600080fd5b5062001230565b83620011a35760078101546001600160a01b03163193505b6007810154600d54604051621ce66f60e31b81526001600160a01b039283169262e7337892620011db92911690889060040162004124565b6020604051808303816000875af192505050801562001219575060408051601f3d908101601f1916820190925262001216918101906200413d565b60015b6200122357600080fd5b806200122e57600080fd5b505b506200134a565b81620012da5782620012b8576040516370a0823160e01b81526001600160a01b038616906370a08231906200127190309060040162003d0c565b602060405180830381865afa1580156200128f573d6000803e3d6000fd5b505050506040513d601f19601f82011682018060405250810190620012b591906200410a565b92505b600d54620012d4906001600160a01b0387811691168562002d6e565b6200134a565b82620012e557303192505b600d546040516000916001600160a01b03169085908381818185875af1925050503d806000811462001334576040519150601f19603f3d011682016040523d82523d6000602084013e62001339565b606091505b50509050806200134857600080fd5b505b5050505050565b60006200135e836200239b565b8210620013c25760405162461bcd60e51b815260206004820152602b60248201527f455243373231456e756d657261626c653a206f776e657220696e646578206f7560448201526a74206f6620626f756e647360a81b606482015260840162000745565b506001600160a01b03919091166000908152600660209081526040808320938352929052205490565b600080620013f862002a3c565b600019831080156200140957504283115b6200144c5760405162461bcd60e51b81526020600482015260126024820152710696d70726f7065722074696d657374616d760741b604482015260640162000745565b6200145b600e80546001019055565b600062001467600e5490565b600f8190559050600087620016535760003088878b8a6040516200148b9062003aeb565b6200149b95949392919062004232565b6040518091039082f0905080158015620014b9573d6000803e3d6000fd5b509050341562001619576040516370a0823160e01b81526000906001600160a01b038b16906370a0823190620014f490859060040162003d0c565b602060405180830381865afa15801562001512573d6000803e3d6000fd5b505050506040513d601f19601f820116820180604052508101906200153891906200410a565b9050620015516001600160a01b038b1633848a62002dc8565b6040516370a0823160e01b81526000906001600160a01b038c16906370a08231906200158290869060040162003d0c565b602060405180830381865afa158015620015a0573d6000803e3d6000fd5b505050506040513d601f19601f82011682018060405250810190620015c691906200410a565b905081811015620016115760405162461bcd60e51b815260206004820152601460248201527342616c616e6365206972726567756c617269747960601b604482015260640162000745565b505062001794565b60405162461bcd60e51b815260206004820152600e60248201526d11985a5b19590819195c1bdcda5d60921b604482015260640162000745565b6010546200166290876200427b565b3410156200166f57600080fd5b60115460ff166200168157346200168d565b6200168d863462004296565b3088878b8a604051620016a09062003aeb565b620016b095949392919062004232565b6040518091039082f0905080158015620016ce573d6000803e3d6000fd5b509050341562001619576000620016e6873462004296565b90506000620016f6823462004296565b90506000836001600160a01b03168260405160006040518083038185875af1925050503d806000811462001747576040519150601f19603f3d011682016040523d82523d6000602084013e6200174c565b606091505b5050905080620017905760405162461bcd60e51b815260206004820152600e60248201526d19985a5b19590819195c1bdcda5d60921b604482015260640162000745565b5050505b6001600160a01b03811615801590620017c557506000828152601260205260409020600201546001600160a01b0316155b6200180a5760405162461bcd60e51b8152602060048201526014602482015273694c6f636b20616c72656164792065786973747360601b604482015260640162000745565b6040518061018001604052808381526020018a6001600160a01b03168152602001620018333390565b6001600160a01b03908116825289811660208084019190915260408084018b9052600060608086018290528e151560808088019190915260a08088018e905289871660c0808a0191909152600160e0808b01829052610100808c018890526101209b8c018890528e885260128a52968890208c518155988c01519189018054928b166001600160a01b0319938416179055968b0151600289018054918b16918316919091179055938a0151600388018054918a169190951617909355908801516004860155870151600585018054928901511515840261ff00199215159290921661ffff19909316929092171790559085015160068301558401516007909101805493850151610140860151610160909601511515600160b01b0260ff60b01b19961515600160a81b029690961661ffff60a81b19911515600160a01b026001600160a81b03199096169390941692909217939093171617919091179055620019993390565b6001600160a01b0316876001600160a01b03161462001cc2573360008181526013602090815260408083208684526012835290832081546001808201845592855292842081546008909402019283558181015491830180546001600160a01b03199081166001600160a01b039485161790915560028083015490850180548316918516919091179055600380830154908501805483169185169190911790556004808301549085015560058083018054918601805460ff938416151560ff19821681178355925461010090819004851615150261ff001990931661ffff199091161791909117905560068084015490860155600792830180549390950180549283169390941692831784558454600160a01b9081900482161515026001600160a81b0319909216909217178083558354600160a81b90819004831615150260ff60a81b198216811784559354600160b01b90819004909216151590910260ff60b01b1990931661ffff60a81b19909116179190911790556016916001600160a01b0390811682526020808301939093526040918201600090812080546001818101835591835285832001879055868252601285528382206003808201805486168552601488528685208054808601825590865288862084546008909202019081558385015481860180546001600160a01b0319908116928a1692909217905560028086015490830180548316918a16919091179055825493820180548216948916949094179093556004808501549082015560058085018054918301805460ff938416151560ff19821681178355925461010090819004851615150261ff001990931661ffff1990911617919091179055600680860154908301556007948501805495909201805494851695891695861781558254600160a01b9081900483161515026001600160a81b0319909516909517939093178085558154600160a81b90819004851615150260ff60a81b198216811786559154600160b01b90819004909416151590930260ff60b01b1990911661ffff60a81b199093169290921791909117909155549092168152601684529182208054918201815582529190200182905562001e4a565b6000828152601260209081526040808320600380820180546001600160a01b0390811687526014865284872080546001818101835591895287892086546008909202019081558186015481830180546001600160a01b031990811692861692909217905560028088015490830180548316918616919091179055845495820180548216968516969096179095556004808701549082015560058087018054918301805460ff938416151560ff19821681178355925461010090819004851615150261ff001990931661ffff1990911617919091179055600680880154908301556007968701805497909201805496871697851697881781558254600160a01b9081900483161515026001600160a81b0319909716909717959095178087558154600160a81b90819004871615150260ff60a81b198216811788559154600160b01b90819004909616151590950260ff60b01b1990911661ffff60a81b199095169490941793909317909355549091168452601683529083208054918201815583529120018290555b6000828152601260209081526040808320600c80546001818101909255825460089091027fdf6966c971051c3d54ec59162606531493a51404a002842f56009d7e5cf4a8c7810191909155818301547fdf6966c971051c3d54ec59162606531493a51404a002842f56009d7e5cf4a8c8820180546001600160a01b03199081166001600160a01b039384161790915560028501547fdf6966c971051c3d54ec59162606531493a51404a002842f56009d7e5cf4a8c984018054831691841691909117905560038501547fdf6966c971051c3d54ec59162606531493a51404a002842f56009d7e5cf4a8ca84018054831691841691909117905560048501547fdf6966c971051c3d54ec59162606531493a51404a002842f56009d7e5cf4a8cb8401556005850180547fdf6966c971051c3d54ec59162606531493a51404a002842f56009d7e5cf4a8cc8501805460ff928316151560ff1980831682178455945461010090819004851615150261ff001990911661ffff199092169190911717905560068701547fdf6966c971051c3d54ec59162606531493a51404a002842f56009d7e5cf4a8cd860155600790960180547fdf6966c971051c3d54ec59162606531493a51404a002842f56009d7e5cf4a8ce90950180549384169590941694851784558054600160a01b9081900488161515026001600160a81b0319909316909417919091178083558354600160a81b90819004871615150260ff60a81b198216811784559354600160b01b90819004909616151590950260ff60b01b1990931661ffff60a81b1990951694909417919091179055868552601590935292208054909216179055620020bd878362002dec565b876200211857866001600160a01b0316896001600160a01b0316837f2161ac88b058ae4333d49c523005a7ecef8267ac631690891d19a7e1939e2a8a896040516200210a91815260200190565b60405180910390a46200215e565b866001600160a01b0316827f5f15a63b6b8e02c22f782f930b9456648f524cccc3edf511c77946340f4bdf78886040516200215591815260200190565b60405180910390a35b90925090506200216e6001600b55565b9550959350505050565b62000bf38383836040518060200160405280600081525062002700565b6000620021a160085490565b8210620022065760405162461bcd60e51b815260206004820152602c60248201527f455243373231456e756d657261626c653a20676c6f62616c20696e646578206f60448201526b7574206f6620626f756e647360a01b606482015260840162000745565b600882815481106200221c576200221c620042b0565b90600052602060002001549050919050565b6040805160208082018352606082526001600160a01b03841660009081526014825283812084518154808502820187018752938101848152949591949093859385938592919085015b8282101562002353576000848152602090819020604080516101808101825260088602909201805483526001808201546001600160a01b0390811685870152600283015481169385019390935260038201548316606085015260048201546080850152600582015460ff808216151560a0870152610100918290048116151560c0870152600684015460e087015260079093015493841690850152600160a01b830482161515610120850152600160a81b830482161515610140850152600160b01b909204161515610160830152908352909201910162002277565b50505091525090949350505050565b600080620023708362002e08565b90506001600160a01b03811662000c205760405162461bcd60e51b81526004016200074590620042c6565b60006001600160a01b038216620024075760405162461bcd60e51b815260206004820152602960248201527f4552433732313a2061646472657373207a65726f206973206e6f7420612076616044820152683634b21037bbb732b960b91b606482015260840162000745565b506001600160a01b031660009081526003602052604090205490565b6200242d62002e23565b62002439600062002e7f565b565b6200244562002a3c565b33620024518362002362565b6001600160a01b03161480620024715750600d546001600160a01b031633145b620024905760405162461bcd60e51b81526004016200074590620040dc565b6200249b8262000ed7565b620024d95760405162461bcd60e51b815260206004820152600d60248201526c696e76616c696420694c6f636b60981b604482015260640162000745565b60008281526012602052604090206007810154821515600160a81b90910460ff16151503620025395760405162461bcd60e51b815260206004820152600b60248201526a185b1c9958591e481cd95d60aa1b604482015260640162000745565b600781018054831515600160a81b0260ff60a81b1990911617905560405183907f792b43b1b60ef204becc6f6a88af423f27a24b1197259bb393969f0194897230906200258b90851515815260200190565b60405180910390a2506200259f6001600b55565b5050565b60606018805462000d0a906200415d565b600d546060906001600160a01b0316336001600160a01b031614620025ed5760405162461bcd60e51b8152600401620007459062004199565b600c80546040805160208084028201810190925282815291839160009084015b82821015620026e9576000848152602090819020604080516101808101825260088602909201805483526001808201546001600160a01b0390811685870152600283015481169385019390935260038201548316606085015260048201546080850152600582015460ff808216151560a0870152610100918290048116151560c0870152600684015460e087015260079093015493841690850152600160a01b830482161515610120850152600160a81b830482161515610140850152600160b01b90920416151561016083015290835290920191016200260d565b5050505091505090565b6200259f33838362002ed1565b6200270c338362002c1c565b6200272b5760405162461bcd60e51b81526004016200074590620041c1565b620027398484848462002f9d565b50505050565b3360009081526014602090815260408083208054825181850281018501909352808352606094919384929084018215620026e9576000848152602090819020604080516101808101825260088602909201805483526001808201546001600160a01b0390811685870152600283015481169385019390935260038201548316606085015260048201546080850152600582015460ff808216151560a0870152610100918290048116151560c0870152600684015460e087015260079093015493841690850152600160a01b830482161515610120850152600160a81b830482161515610140850152600160b01b90920416151561016083015290835290920191016200260d565b6060620028538262002b82565b60006200286b60408051602081019091526000815290565b905060008151116200288d5760405180602001604052806000815250620028bc565b80620028998462002fd7565b604051602001620028ac929190620042f8565b6040516020818303038152906040525b9392505050565b600080620028d0600e5490565b600f54915091509091565b620028e562003a87565b620028f08262000ed7565b62000c305760405162461bcd60e51b815260206004820152600c60248201526b6f7574206f662072616e676560a01b604482015260640162000745565b6001600160a01b03918216600090815260056020908152604080832093909416825291909152205460ff1690565b6200296562002e23565b6001600160a01b038116620029cc5760405162461bcd60e51b815260206004820152602660248201527f4f776e61626c653a206e6577206f776e657220697320746865207a65726f206160448201526564647265737360d01b606482015260840162000745565b620029d78162002e7f565b50565b3360009081526016602090815260409182902080548351818402810184019094528084526060939283018282801562000d8957602002820191906000526020600020905b81548152602001906001019080831162002a1e575050505050905090565b6002600b540362002a905760405162461bcd60e51b815260206004820152601f60248201527f5265656e7472616e637947756172643a207265656e7472616e742063616c6c00604482015260640162000745565b6002600b55565b600062002aa48262002362565b905062002ab681600084600162003071565b62002ac18262002362565b600083815260046020908152604080832080546001600160a01b03199081169091556001600160a01b03851680855260038452828520805460001901905587855260029093528184208054909116905551929350849260008051602062005eed833981519152908390a45050565b60006001600160e01b031982166380ac58cd60e01b148062002b6157506001600160e01b03198216635b5e139f60e01b145b8062000c2057506301ffc9a760e01b6001600160e01b031983161462000c20565b62002b8d81620031a7565b620029d75760405162461bcd60e51b81526004016200074590620042c6565b600081815260046020526040902080546001600160a01b0319166001600160a01b038416908117909155819062002be38262002362565b6001600160a01b03167f8c5be1e5ebec7d5bd14f71427d1e84f3dd0314c0f7b2291e5b200ac8c7c3b92560405160405180910390a45050565b60008062002c2a8362002362565b9050806001600160a01b0316846001600160a01b0316148062002c54575062002c5481856200292d565b8062002c7b5750836001600160a01b031662002c708462000d93565b6001600160a01b0316145b949350505050565b62002c8d62002a3c565b600081815260126020526040902060038101546001600160a01b0385811691161462002cb857600080fd5b6003810180546001600160a01b0319166001600160a01b03858116919091179091556007820154604051637ea64dcb60e11b815291169063fd4c9b969062002d0590869060040162003d0c565b6020604051808303816000875af115801562002d25573d6000803e3d6000fd5b505050506040513d601f19601f8201168201806040525081019062002d4b91906200413d565b62002d5557600080fd5b62002d62848484620031c6565b5062000bf36001600b55565b62000bf38363a9059cbb60e01b848460405160240162002d9092919062004124565b60408051601f198184030181529190526020810180516001600160e01b03166001600160e01b03199093169290921790915262003334565b62002739846323b872dd60e01b85858560405160240162002d90939291906200420e565b6200259f8282604051806020016040528060008152506200340d565b6000908152600260205260409020546001600160a01b031690565b600a546001600160a01b03163314620024395760405162461bcd60e51b815260206004820181905260248201527f4f776e61626c653a2063616c6c6572206973206e6f7420746865206f776e6572604482015260640162000745565b600a80546001600160a01b038381166001600160a01b0319831681179093556040519116919082907f8be0079c531659141344cd1fd0a4f28419497f9722a3daafe3b4186f6b6457e090600090a35050565b816001600160a01b0316836001600160a01b03160362002f305760405162461bcd60e51b815260206004820152601960248201527822a9219b99189d1030b8383937bb32903a379031b0b63632b960391b604482015260640162000745565b6001600160a01b03838116600081815260056020908152604080832094871680845294825291829020805460ff191686151590811790915591519182527f17307eab39ab6107e8899845ad3d59bd9653f200f220920489ca2b5937696c31910160405180910390a3505050565b62002faa84848462002c83565b62002fb88484848462003447565b620027395760405162461bcd60e51b815260040162000745906200432b565b6060600062002fe68362003555565b600101905060008167ffffffffffffffff81111562003009576200300962003f5f565b6040519080825280601f01601f19166020018201604052801562003034576020820181803683370190505b5090508181016020015b600019016f181899199a1a9b1b9c1cb0b131b232b360811b600a86061a8153600a85049450846200303e57509392505050565b6001811115620030e25760405162461bcd60e51b815260206004820152603560248201527f455243373231456e756d657261626c653a20636f6e7365637574697665207472604482015274185b9cd9995c9cc81b9bdd081cdd5c1c1bdc9d1959605a1b606482015260840162000745565b816001600160a01b03851662003141576200313b81600880546000838152600960205260408120829055600182018355919091527ff3f7a9fe364faab93b216da50a3214154f22a0a2b415b23a84c8169e8b636ee30155565b62003167565b836001600160a01b0316856001600160a01b031614620031675762003167858262003632565b6001600160a01b0384166200318157620012d481620036d4565b846001600160a01b0316846001600160a01b0316146200134a576200134a84826200378e565b600080620031b58362002e08565b6001600160a01b0316141592915050565b826001600160a01b0316620031db8262002362565b6001600160a01b031614620032045760405162461bcd60e51b815260040162000745906200437d565b6001600160a01b038216620032685760405162461bcd60e51b8152602060048201526024808201527f4552433732313a207472616e7366657220746f20746865207a65726f206164646044820152637265737360e01b606482015260840162000745565b62003277838383600162003071565b826001600160a01b03166200328c8262002362565b6001600160a01b031614620032b55760405162461bcd60e51b815260040162000745906200437d565b600081815260046020908152604080832080546001600160a01b03199081169091556001600160a01b03878116808652600385528386208054600019019055908716808652838620805460010190558686526002909452828520805490921684179091559051849360008051602062005eed83398151915291a4505050565b60006200338b826040518060400160405280602081526020017f5361666545524332303a206c6f772d6c6576656c2063616c6c206661696c6564815250856001600160a01b0316620037d49092919063ffffffff16565b80519091501562000bf35780806020019051810190620033ac91906200413d565b62000bf35760405162461bcd60e51b815260206004820152602a60248201527f5361666545524332303a204552433230206f7065726174696f6e20646964206e6044820152691bdd081cdd58d8d9595960b21b606482015260840162000745565b620034198383620037e5565b62003428600084848462003447565b62000bf35760405162461bcd60e51b815260040162000745906200432b565b60006001600160a01b0384163b156200354a57604051630a85bd0160e11b81526001600160a01b0385169063150b7a02906200348e903390899088908890600401620043c2565b6020604051808303816000875af1925050508015620034cc575060408051601f3d908101601f19168201909252620034c99181019062004401565b60015b6200352f573d808015620034fd576040519150601f19603f3d011682016040523d82523d6000602084013e62003502565b606091505b508051600003620035275760405162461bcd60e51b815260040162000745906200432b565b805181602001fd5b6001600160e01b031916630a85bd0160e11b14905062002c7b565b506001949350505050565b60008072184f03e93ff9f4daa797ed6e38ed64bf6a1f0160401b8310620035955772184f03e93ff9f4daa797ed6e38ed64bf6a1f0160401b830492506040015b6904ee2d6d415b85acef8160201b8310620035c0576904ee2d6d415b85acef8160201b830492506020015b662386f26fc100008310620035df57662386f26fc10000830492506010015b6305f5e1008310620035f8576305f5e100830492506008015b61271083106200360d57612710830492506004015b6064831062003620576064830492506002015b600a831062000c205760010192915050565b6000600162003641846200239b565b6200364d919062004296565b600083815260076020526040902054909150808214620036a1576001600160a01b03841660009081526006602090815260408083208584528252808320548484528184208190558352600790915290208190555b5060009182526007602090815260408084208490556001600160a01b039094168352600681528383209183525290812055565b600854600090620036e89060019062004296565b60008381526009602052604081205460088054939450909284908110620037135762003713620042b0565b906000526020600020015490508060088381548110620037375762003737620042b0565b600091825260208083209091019290925582815260099091526040808220849055858252812055600880548062003772576200377262004421565b6001900381819060005260206000200160009055905550505050565b60006200379b836200239b565b6001600160a01b039093166000908152600660209081526040808320868452825280832085905593825260079052919091209190915550565b606062002c7b8484600085620038fd565b6001600160a01b0382166200383d5760405162461bcd60e51b815260206004820181905260248201527f4552433732313a206d696e7420746f20746865207a65726f2061646472657373604482015260640162000745565b6200384881620031a7565b15620038685760405162461bcd60e51b8152600401620007459062004437565b6200387860008383600162003071565b6200388381620031a7565b15620038a35760405162461bcd60e51b8152600401620007459062004437565b6001600160a01b038216600081815260036020908152604080832080546001019055848352600290915280822080546001600160a01b03191684179055518392919060008051602062005eed833981519152908290a45050565b606082471015620039605760405162461bcd60e51b815260206004820152602660248201527f416464726573733a20696e73756666696369656e742062616c616e636520666f6044820152651c8818d85b1b60d21b606482015260840162000745565b600080866001600160a01b031685876040516200397e91906200446e565b60006040518083038185875af1925050503d8060008114620039bd576040519150601f19603f3d011682016040523d82523d6000602084013e620039c2565b606091505b5091509150620039d587838387620039e0565b979650505050505050565b6060831562003a5457825160000362003a4c576001600160a01b0385163b62003a4c5760405162461bcd60e51b815260206004820152601d60248201527f416464726573733a2063616c6c20746f206e6f6e2d636f6e7472616374000000604482015260640162000745565b508162002c7b565b62002c7b838381511562003a6b5781518083602001fd5b8060405162461bcd60e51b815260040162000745919062003cf7565b6040805161018081018252600080825260208201819052918101829052606081018290526080810182905260a0810182905260c0810182905260e0810182905261010081018290526101208101829052610140810182905261016081019190915290565b611a60806200448d83390190565b6001600160a01b0381168114620029d757600080fd5b8015158114620029d757600080fd5b60008060006060848603121562003b3457600080fd5b83359250602084013562003b488162003af9565b9150604084013562003b5a8162003b0f565b809150509250925092565b6001600160e01b031981168114620029d757600080fd5b60006020828403121562003b8f57600080fd5b8135620028bc8162003b65565b60006020828403121562003baf57600080fd5b5035919050565b6001600160a01b03169052565b80518252602081015162003bdb602084018262003bb6565b50604081015162003bf0604084018262003bb6565b50606081015162003c05606084018262003bb6565b506080810151608083015260a081015162003c2460a084018215159052565b5060c081015162003c3960c084018215159052565b5060e081015160e08301526101008082015162003c598285018262003bb6565b50506101208181015115159083015261014080820151151590830152610160808201518015158285015262002739565b610180810162000c20828462003bc3565b60005b8381101562003cb757818101518382015260200162003c9d565b83811115620027395750506000910152565b6000815180845262003ce381602086016020860162003c9a565b601f01601f19169290920160200192915050565b602081526000620028bc602083018462003cc9565b6001600160a01b0391909116815260200190565b6000806040838503121562003d3457600080fd5b823562003d418162003af9565b946020939093013593505050565b6000806040838503121562003d6357600080fd5b82359150602083013562003d778162003b0f565b809150509250929050565b60008060006060848603121562003d9857600080fd5b833562003da58162003af9565b9250602084013562003db78162003af9565b929592945050506040919091013590565b600080600080600060a0868803121562003de157600080fd5b853562003dee8162003af9565b94506020860135935060408601359250606086013562003e0e8162003b0f565b9150608086013562003e208162003b0f565b809150509295509295909350565b600080600080600060a0868803121562003e4757600080fd5b853562003e548162003af9565b9450602086013562003e668162003b0f565b9350604086013562003e788162003af9565b94979396509394606081013594506080013592915050565b60006020828403121562003ea357600080fd5b8135620028bc8162003af9565b600081518084526020808501945080840160005b8381101562003eef5762003eda87835162003bc3565b61018096909601959082019060010162003ec4565b509495945050505050565b602081526000825160208084015262002c7b604084018262003eb0565b602081526000620028bc602083018462003eb0565b6000806040838503121562003f4057600080fd5b823562003f4d8162003af9565b9150602083013562003d778162003b0f565b634e487b7160e01b600052604160045260246000fd5b6000806000806080858703121562003f8c57600080fd5b843562003f998162003af9565b9350602085013562003fab8162003af9565b925060408501359150606085013567ffffffffffffffff8082111562003fd057600080fd5b818701915087601f83011262003fe557600080fd5b81358181111562003ffa5762003ffa62003f5f565b604051601f8201601f19908116603f0116810190838211818310171562004025576200402562003f5f565b816040528281528a60208487010111156200403f57600080fd5b82602086016020830137600060208483010152809550505050505092959194509250565b600080604083850312156200407757600080fd5b8235620040848162003af9565b9150602083013562003d778162003af9565b6020808252825182820181905260009190848201906040850190845b81811015620040d057835183529284019291840191600101620040b2565b50909695505050505050565b6020808252601490820152731b9bdd081dda5d1a1bdd5d0818481c195c9b5a5d60621b604082015260600190565b6000602082840312156200411d57600080fd5b5051919050565b6001600160a01b03929092168252602082015260400190565b6000602082840312156200415057600080fd5b8151620028bc8162003b0f565b600181811c908216806200417257607f821691505b6020821081036200419357634e487b7160e01b600052602260045260246000fd5b50919050565b6020808252600e908201526d6f6e6c79206f70657261746f727360901b604082015260600190565b6020808252602d908201527f4552433732313a2063616c6c6572206973206e6f7420746f6b656e206f776e6560408201526c1c881bdc88185c1c1c9bdd9959609a1b606082015260800190565b6001600160a01b039384168152919092166020820152604081019190915260600190565b6001600160a01b039586168152939094166020840152604083019190915215156060820152608081019190915260a00190565b634e487b7160e01b600052601160045260246000fd5b6000821982111562004291576200429162004265565b500190565b600082821015620042ab57620042ab62004265565b500390565b634e487b7160e01b600052603260045260246000fd5b602080825260189082015277115490cdcc8c4e881a5b9d985b1a59081d1bdad95b88125160421b604082015260600190565b600083516200430c81846020880162003c9a565b8351908301906200432281836020880162003c9a565b01949350505050565b60208082526032908201527f4552433732313a207472616e7366657220746f206e6f6e20455243373231526560408201527131b2b4bb32b91034b6b83632b6b2b73a32b960711b606082015260800190565b60208082526025908201527f4552433732313a207472616e736665722066726f6d20696e636f72726563742060408201526437bbb732b960d91b606082015260800190565b6001600160a01b0385811682528416602082015260408101839052608060608201819052600090620043f79083018462003cc9565b9695505050505050565b6000602082840312156200441457600080fd5b8151620028bc8162003b65565b634e487b7160e01b600052603160045260246000fd5b6020808252601c908201527f4552433732313a20746f6b656e20616c7265616479206d696e74656400000000604082015260600190565b600082516200448281846020870162003c9a565b919091019291505056fe60a060405260405162001a6038038062001a608339810160408190526200002691620002ce565b6040518060400160405280600781526020016634a637b1b5b2b960c91b8152506040518060400160405280600781526020016634a637b1b5b2b960c91b81525082868383838260039080519060200190620000839291906200020b565b508151620000999060049060208501906200020b565b50620000b933620000b383670de0b6b3a76400006200034a565b62000123565b505060058054336001600160a01b0319918216179091556006805482166001600160a01b03948516179055600b805460ff19169815159890981790975550600a969096555050600780549093169484169490941790915550426008559190911660805250620003c3565b6001600160a01b0382166200017e5760405162461bcd60e51b815260206004820152601f60248201527f45524332303a206d696e7420746f20746865207a65726f206164647265737300604482015260640160405180910390fd5b80600260008282546200019291906200036c565b90915550506001600160a01b03821660009081526020819052604081208054839290620001c19084906200036c565b90915550506040518181526001600160a01b038316906000907fddf252ad1be2c89b69c2b068fc378daa952ba7f163c4a11628f55a4df523b3ef9060200160405180910390a35050565b828054620002199062000387565b90600052602060002090601f0160209004810192826200023d576000855562000288565b82601f106200025857805160ff191683800117855562000288565b8280016001018555821562000288579182015b82811115620002885782518255916020019190600101906200026b565b50620002969291506200029a565b5090565b5b808211156200029657600081556001016200029b565b80516001600160a01b0381168114620002c957600080fd5b919050565b600080600080600060a08688031215620002e757600080fd5b620002f286620002b1565b94506200030260208701620002b1565b935060408601519250606086015180151581146200031f57600080fd5b80925050608086015190509295509295909350565b634e487b7160e01b600052601160045260246000fd5b600081600019048311821515161562000367576200036762000334565b500290565b6000821982111562000382576200038262000334565b500190565b600181811c908216806200039c57607f821691505b602082108103620003bd57634e487b7160e01b600052602260045260246000fd5b50919050565b608051611665620003fb60003960008181610391015281816104530152818161085401528181610b770152610d3201526116656000f3fe60806040526004361061013e5760003560e01c806370a08231116100ae57806370a08231146102a35780637fcf532c146102d957806395d89b41146102ec578063a2b61e5514610301578063a457c2d714610309578063a5f2a15214610329578063a7f0b3de14610349578063a9059cbb1461035f578063d7b96d4e1461037f578063d8579db2146103c0578063dd62ed3e146103c8578063e534155d1461040e578063fd4c9b961461042e57005b8062e733781461014757806306fdde031461016f578063095ea7b3146101915780630f388b4f146101b1578063125e527e146101d557806313d663f6146101ef57806318160ddd1461020457806323b872dd14610219578063313ce5671461023957806334f9941214610255578063395093511461025d578063493031b61461027d5780636bef117e1461029057005b3661014557005b005b61015a6101553660046113de565b61044e565b60405190151581526020015b60405180910390f35b34801561017b57600080fd5b50610184610551565b6040516101669190611436565b34801561019d57600080fd5b5061015a6101ac3660046113de565b6105e3565b3480156101bd57600080fd5b506101c7600a5481565b604051908152602001610166565b3480156101e157600080fd5b50600b5461015a9060ff1681565b3480156101fb57600080fd5b506101c76105fa565b34801561021057600080fd5b506002546101c7565b34801561022557600080fd5b5061015a610234366004611469565b61060f565b34801561024557600080fd5b5060405160128152602001610166565b6101456106b9565b34801561026957600080fd5b5061015a6102783660046113de565b61070e565b61014561028b3660046113de565b61074a565b61014561029e3660046113de565b6107f4565b3480156102af57600080fd5b506101c76102be3660046114aa565b6001600160a01b031660009081526020819052604090205490565b61015a6102e73660046113de565b61084f565b3480156102f857600080fd5b50610184610a50565b610145610a5f565b34801561031557600080fd5b5061015a6103243660046113de565b610ae3565b34801561033557600080fd5b5061015a610344366004611469565b610b72565b34801561035557600080fd5b506101c760085481565b34801561036b57600080fd5b5061015a61037a3660046113de565b610cb4565b34801561038b57600080fd5b506103b37f000000000000000000000000000000000000000000000000000000000000000081565b60405161016691906114ce565b610145610cc1565b3480156103d457600080fd5b506101c76103e33660046114e2565b6001600160a01b03918216600090815260016020908152604080832093909416825291909152205490565b34801561041a57600080fd5b506007546103b3906001600160a01b031681565b34801561043a57600080fd5b5061015a6104493660046114aa565b610d2d565b6000337f00000000000000000000000000000000000000000000000000000000000000006001600160a01b0316146104a15760405162461bcd60e51b81526004016104989061151b565b60405180910390fd5b478211156104ad574791505b6000836001600160a01b03168360405160006040518083038185875af1925050503d80600081146104fa576040519150601f19603f3d011682016040523d82523d6000602084013e6104ff565b606091505b50509050806105475760405162461bcd60e51b81526020600482015260146024820152732330b4b632b2103a379039b2b7321022ba3432b960611b6044820152606401610498565b5060019392505050565b60606003805461056090611540565b80601f016020809104026020016040519081016040528092919081815260200182805461058c90611540565b80156105d95780601f106105ae576101008083540402835291602001916105d9565b820191906000526020600020905b8154815290600101906020018083116105bc57829003601f168201915b5050505050905090565b60006105f0338484610e1a565b5060015b92915050565b600042600a5461060a9190611590565b905090565b600061061c848484610f3e565b6001600160a01b0384166000908152600160209081526040808320338452909152902054828110156106a15760405162461bcd60e51b815260206004820152602860248201527f45524332303a207472616e7366657220616d6f756e74206578636565647320616044820152676c6c6f77616e636560c01b6064820152608401610498565b6106ae8533858403610e1a565b506001949350505050565b306001600160a01b031663a2b61e556040518163ffffffff1660e01b8152600401600060405180830381600087803b1580156106f457600080fd5b505af1158015610708573d6000803e3d6000fd5b50505050565b3360008181526001602090815260408083206001600160a01b038716845290915281205490916105f09185906107459086906115a7565b610e1a565b6006546001600160a01b031633148061076d57506005546001600160a01b031633145b61077657600080fd5b60405163a9059cbb60e01b81526001600160a01b0383169063a9059cbb906107a490339085906004016115bf565b6020604051808303816000875af11580156107c3573d6000803e3d6000fd5b505050506040513d601f19601f820116820180604052508101906107e791906115d8565b6107f057600080fd5b5050565b60405163249818db60e11b8152309063493031b69061081990859085906004016115bf565b600060405180830381600087803b15801561083357600080fd5b505af1158015610847573d6000803e3d6000fd5b505050505050565b6000337f00000000000000000000000000000000000000000000000000000000000000006001600160a01b0316146108995760405162461bcd60e51b81526004016104989061151b565b600b5460ff166109a9576040516370a0823160e01b81526001600160a01b038416906370a08231906108cf9030906004016114ce565b602060405180830381865afa1580156108ec573d6000803e3d6000fd5b505050506040513d601f19601f8201168201806040525081019061091091906115fa565b821115610987576040516370a0823160e01b81526001600160a01b038416906370a08231906109439030906004016114ce565b602060405180830381865afa158015610960573d6000803e3d6000fd5b505050506040513d601f19601f8201168201806040525081019061098491906115fa565b91505b6007546109a1906001600160a01b0385811691168461110c565b506001610a0e565b478211156109b5574791505b6007546040516000916001600160a01b03169084908381818185875af1925050503d8060008114610a02576040519150601f19603f3d011682016040523d82523d6000602084013e610a07565b606091505b5090925050505b806105f45760405162461bcd60e51b8152602060048201526012602482015271151c985b9cd858dd1a5bdb8811985a5b195960721b6044820152606401610498565b60606004805461056090611540565b6006546001600160a01b0316331480610a8257506005546001600160a01b031633145b610a8b57600080fd5b604051600090339047908381818185875af1925050503d8060008114610acd576040519150601f19603f3d011682016040523d82523d6000602084013e610ad2565b606091505b5050905080610ae057600080fd5b50565b3360009081526001602090815260408083206001600160a01b038616845290915281205482811015610b655760405162461bcd60e51b815260206004820152602560248201527f45524332303a2064656372656173656420616c6c6f77616e63652062656c6f77604482015264207a65726f60d81b6064820152608401610498565b6105473385858403610e1a565b6000337f00000000000000000000000000000000000000000000000000000000000000006001600160a01b031614610bbc5760405162461bcd60e51b81526004016104989061151b565b6040516370a0823160e01b81526001600160a01b038516906370a0823190610be89030906004016114ce565b602060405180830381865afa158015610c05573d6000803e3d6000fd5b505050506040513d601f19601f82011682018060405250810190610c2991906115fa565b821115610ca0576040516370a0823160e01b81526001600160a01b038516906370a0823190610c5c9030906004016114ce565b602060405180830381865afa158015610c79573d6000803e3d6000fd5b505050506040513d601f19601f82011682018060405250810190610c9d91906115fa565b91505b6105476001600160a01b038516848461110c565b60006105f0338484610f3e565b6040516370a0823160e01b8152610d2b90309081906370a0823190610cea9083906004016114ce565b602060405180830381865afa158015610d07573d6000803e3d6000fd5b505050506040513d601f19601f8201168201806040525081019061029e91906115fa565b565b6000337f00000000000000000000000000000000000000000000000000000000000000006001600160a01b031614610d775760405162461bcd60e51b81526004016104989061151b565b6007546001600160a01b0390811690831603610dc35760405162461bcd60e51b815260206004820152600b60248201526a185b1c9958591e481cd95d60aa1b6044820152606401610498565b600780546001600160a01b038481166001600160a01b0319831681179093556040519116919082907f63db4fd02abe7291d8f941514c494426e598a36d386fafa477735f923d30c83e90600090a350600192915050565b6001600160a01b038316610e7c5760405162461bcd60e51b8152602060048201526024808201527f45524332303a20617070726f76652066726f6d20746865207a65726f206164646044820152637265737360e01b6064820152608401610498565b6001600160a01b038216610edd5760405162461bcd60e51b815260206004820152602260248201527f45524332303a20617070726f766520746f20746865207a65726f206164647265604482015261737360f01b6064820152608401610498565b6001600160a01b0383811660008181526001602090815260408083209487168084529482529182902085905590518481527f8c5be1e5ebec7d5bd14f71427d1e84f3dd0314c0f7b2291e5b200ac8c7c3b925910160405180910390a3505050565b6001600160a01b038316610fa25760405162461bcd60e51b815260206004820152602560248201527f45524332303a207472616e736665722066726f6d20746865207a65726f206164604482015264647265737360d81b6064820152608401610498565b6001600160a01b0382166110045760405162461bcd60e51b815260206004820152602360248201527f45524332303a207472616e7366657220746f20746865207a65726f206164647260448201526265737360e81b6064820152608401610498565b6001600160a01b0383166000908152602081905260409020548181101561107c5760405162461bcd60e51b815260206004820152602660248201527f45524332303a207472616e7366657220616d6f756e7420657863656564732062604482015265616c616e636560d01b6064820152608401610498565b6001600160a01b038085166000908152602081905260408082208585039055918516815290812080548492906110b39084906115a7565b92505081905550826001600160a01b0316846001600160a01b03167fddf252ad1be2c89b69c2b068fc378daa952ba7f163c4a11628f55a4df523b3ef846040516110ff91815260200190565b60405180910390a3610708565b6111628363a9059cbb60e01b848460405160240161112b9291906115bf565b60408051601f198184030181529190526020810180516001600160e01b03166001600160e01b031990931692909217909152611167565b505050565b60006111bc826040518060400160405280602081526020017f5361666545524332303a206c6f772d6c6576656c2063616c6c206661696c6564815250856001600160a01b03166112399092919063ffffffff16565b80519091501561116257808060200190518101906111da91906115d8565b6111625760405162461bcd60e51b815260206004820152602a60248201527f5361666545524332303a204552433230206f7065726174696f6e20646964206e6044820152691bdd081cdd58d8d9595960b21b6064820152608401610498565b60606112488484600085611250565b949350505050565b6060824710156112b15760405162461bcd60e51b815260206004820152602660248201527f416464726573733a20696e73756666696369656e742062616c616e636520666f6044820152651c8818d85b1b60d21b6064820152608401610498565b600080866001600160a01b031685876040516112cd9190611613565b60006040518083038185875af1925050503d806000811461130a576040519150601f19603f3d011682016040523d82523d6000602084013e61130f565b606091505b50915091506113208783838761132b565b979650505050505050565b6060831561139a578251600003611393576001600160a01b0385163b6113935760405162461bcd60e51b815260206004820152601d60248201527f416464726573733a2063616c6c20746f206e6f6e2d636f6e74726163740000006044820152606401610498565b5081611248565b61124883838151156113af5781518083602001fd5b8060405162461bcd60e51b81526004016104989190611436565b6001600160a01b0381168114610ae057600080fd5b600080604083850312156113f157600080fd5b82356113fc816113c9565b946020939093013593505050565b60005b8381101561142557818101518382015260200161140d565b838111156107085750506000910152565b602081526000825180602084015261145581604085016020870161140a565b601f01601f19169190910160400192915050565b60008060006060848603121561147e57600080fd5b8335611489816113c9565b92506020840135611499816113c9565b929592945050506040919091013590565b6000602082840312156114bc57600080fd5b81356114c7816113c9565b9392505050565b6001600160a01b0391909116815260200190565b600080604083850312156114f557600080fd5b8235611500816113c9565b91506020830135611510816113c9565b809150509250929050565b6020808252600b908201526a37b7363c903637b1b5b2b960a91b604082015260600190565b600181811c9082168061155457607f821691505b60208210810361157457634e487b7160e01b600052602260045260246000fd5b50919050565b634e487b7160e01b600052601160045260246000fd5b6000828210156115a2576115a261157a565b500390565b600082198211156115ba576115ba61157a565b500190565b6001600160a01b03929092168252602082015260400190565b6000602082840312156115ea57600080fd5b815180151581146114c757600080fd5b60006020828403121561160c57600080fd5b5051919050565b6000825161162581846020870161140a565b919091019291505056fea2646970667358221220bee3f5b9fbba08656a96b0d3d9d24436df8c54b17b2e1ee9c6204350c47d898e64736f6c634300080d0033ddf252ad1be2c89b69c2b068fc378daa952ba7f163c4a11628f55a4df523b3efa264697066735822122042b8dc6baf6e146270941e5a7af94d1f5a59636b87d4f48630ca2b55c1c2e19064736f6c634300080d0033",
			"opcodes": "PUSH1 0x80 PUSH1 0x40 MSTORE CALLVALUE DUP1 ISZERO PUSH3 0x11 JUMPI PUSH1 0x0 DUP1 REVERT JUMPDEST POP PUSH1 0x40 MLOAD PUSH3 0x63C2 CODESIZE SUB DUP1 PUSH3 0x63C2 DUP4 CODECOPY DUP2 ADD PUSH1 0x40 DUP2 SWAP1 MSTORE PUSH3 0x34 SWAP2 PUSH3 0x3AA JUMP JUMPDEST DUP2 MLOAD DUP3 SWAP1 DUP3 SWAP1 PUSH3 0x4D SWAP1 PUSH1 0x0 SWAP1 PUSH1 0x20 DUP6 ADD SWAP1 PUSH3 0x237 JUMP JUMPDEST POP DUP1 MLOAD PUSH3 0x63 SWAP1 PUSH1 0x1 SWAP1 PUSH1 0x20 DUP5 ADD SWAP1 PUSH3 0x237 JUMP JUMPDEST POP POP POP PUSH3 0x80 PUSH3 0x7A PUSH3 0x100 PUSH1 0x20 SHL PUSH1 0x20 SHR JUMP JUMPDEST PUSH3 0x104 JUMP JUMPDEST PUSH1 0x1 PUSH1 0xB SSTORE DUP2 MLOAD PUSH3 0x9A SWAP1 PUSH1 0x17 SWAP1 PUSH1 0x20 DUP6 ADD SWAP1 PUSH3 0x237 JUMP JUMPDEST POP DUP1 MLOAD PUSH3 0xB0 SWAP1 PUSH1 0x18 SWAP1 PUSH1 0x20 DUP5 ADD SWAP1 PUSH3 0x237 JUMP JUMPDEST POP PUSH1 0x11 DUP1 SLOAD PUSH1 0xFF NOT AND PUSH1 0x1 OR SWAP1 SSTORE PUSH8 0x16345785D8A0000 PUSH1 0x10 SSTORE PUSH3 0xD5 DUP4 PUSH3 0x156 JUMP JUMPDEST POP POP PUSH1 0xA SLOAD PUSH1 0xD DUP1 SLOAD PUSH1 0x1 PUSH1 0x1 PUSH1 0xA0 SHL SUB NOT AND PUSH1 0x1 PUSH1 0x1 PUSH1 0xA0 SHL SUB SWAP1 SWAP3 AND SWAP2 SWAP1 SWAP2 OR SWAP1 SSTORE POP PUSH3 0x470 JUMP JUMPDEST CALLER SWAP1 JUMP JUMPDEST PUSH1 0xA DUP1 SLOAD PUSH1 0x1 PUSH1 0x1 PUSH1 0xA0 SHL SUB DUP4 DUP2 AND PUSH1 0x1 PUSH1 0x1 PUSH1 0xA0 SHL SUB NOT DUP4 AND DUP2 OR SWAP1 SWAP4 SSTORE PUSH1 0x40 MLOAD SWAP2 AND SWAP2 SWAP1 DUP3 SWAP1 PUSH32 0x8BE0079C531659141344CD1FD0A4F28419497F9722A3DAAFE3B4186F6B6457E0 SWAP1 PUSH1 0x0 SWAP1 LOG3 POP POP JUMP JUMPDEST PUSH3 0x160 PUSH3 0x1D9 JUMP JUMPDEST PUSH1 0x1 PUSH1 0x1 PUSH1 0xA0 SHL SUB DUP2 AND PUSH3 0x1CB JUMPI PUSH1 0x40 MLOAD PUSH3 0x461BCD PUSH1 0xE5 SHL DUP2 MSTORE PUSH1 0x20 PUSH1 0x4 DUP3 ADD MSTORE PUSH1 0x26 PUSH1 0x24 DUP3 ADD MSTORE PUSH32 0x4F776E61626C653A206E6577206F776E657220697320746865207A65726F2061 PUSH1 0x44 DUP3 ADD MSTORE PUSH6 0x646472657373 PUSH1 0xD0 SHL PUSH1 0x64 DUP3 ADD MSTORE PUSH1 0x84 ADD JUMPDEST PUSH1 0x40 MLOAD DUP1 SWAP2 SUB SWAP1 REVERT JUMPDEST PUSH3 0x1D6 DUP2 PUSH3 0x104 JUMP JUMPDEST POP JUMP JUMPDEST PUSH1 0xA SLOAD PUSH1 0x1 PUSH1 0x1 PUSH1 0xA0 SHL SUB AND CALLER EQ PUSH3 0x235 JUMPI PUSH1 0x40 MLOAD PUSH3 0x461BCD PUSH1 0xE5 SHL DUP2 MSTORE PUSH1 0x20 PUSH1 0x4 DUP3 ADD DUP2 SWAP1 MSTORE PUSH1 0x24 DUP3 ADD MSTORE PUSH32 0x4F776E61626C653A2063616C6C6572206973206E6F7420746865206F776E6572 PUSH1 0x44 DUP3 ADD MSTORE PUSH1 0x64 ADD PUSH3 0x1C2 JUMP JUMPDEST JUMP JUMPDEST DUP3 DUP1 SLOAD PUSH3 0x245 SWAP1 PUSH3 0x434 JUMP JUMPDEST SWAP1 PUSH1 0x0 MSTORE PUSH1 0x20 PUSH1 0x0 KECCAK256 SWAP1 PUSH1 0x1F ADD PUSH1 0x20 SWAP1 DIV DUP2 ADD SWAP3 DUP3 PUSH3 0x269 JUMPI PUSH1 0x0 DUP6 SSTORE PUSH3 0x2B4 JUMP JUMPDEST DUP3 PUSH1 0x1F LT PUSH3 0x284 JUMPI DUP1 MLOAD PUSH1 0xFF NOT AND DUP4 DUP1 ADD OR DUP6 SSTORE PUSH3 0x2B4 JUMP JUMPDEST DUP3 DUP1 ADD PUSH1 0x1 ADD DUP6 SSTORE DUP3 ISZERO PUSH3 0x2B4 JUMPI SWAP2 DUP3 ADD JUMPDEST DUP3 DUP2 GT ISZERO PUSH3 0x2B4 JUMPI DUP3 MLOAD DUP3 SSTORE SWAP2 PUSH1 0x20 ADD SWAP2 SWAP1 PUSH1 0x1 ADD SWAP1 PUSH3 0x297 JUMP JUMPDEST POP PUSH3 0x2C2 SWAP3 SWAP2 POP PUSH3 0x2C6 JUMP JUMPDEST POP SWAP1 JUMP JUMPDEST JUMPDEST DUP1 DUP3 GT ISZERO PUSH3 0x2C2 JUMPI PUSH1 0x0 DUP2 SSTORE PUSH1 0x1 ADD PUSH3 0x2C7 JUMP JUMPDEST PUSH4 0x4E487B71 PUSH1 0xE0 SHL PUSH1 0x0 MSTORE PUSH1 0x41 PUSH1 0x4 MSTORE PUSH1 0x24 PUSH1 0x0 REVERT JUMPDEST PUSH1 0x0 DUP3 PUSH1 0x1F DUP4 ADD SLT PUSH3 0x305 JUMPI PUSH1 0x0 DUP1 REVERT JUMPDEST DUP2 MLOAD PUSH1 0x1 PUSH1 0x1 PUSH1 0x40 SHL SUB DUP1 DUP3 GT ISZERO PUSH3 0x322 JUMPI PUSH3 0x322 PUSH3 0x2DD JUMP JUMPDEST PUSH1 0x40 MLOAD PUSH1 0x1F DUP4 ADD PUSH1 0x1F NOT SWAP1 DUP2 AND PUSH1 0x3F ADD AND DUP2 ADD SWAP1 DUP3 DUP3 GT DUP2 DUP4 LT OR ISZERO PUSH3 0x34D JUMPI PUSH3 0x34D PUSH3 0x2DD JUMP JUMPDEST DUP2 PUSH1 0x40 MSTORE DUP4 DUP2 MSTORE PUSH1 0x20 SWAP3 POP DUP7 DUP4 DUP6 DUP9 ADD ADD GT ISZERO PUSH3 0x36A JUMPI PUSH1 0x0 DUP1 REVERT JUMPDEST PUSH1 0x0 SWAP2 POP JUMPDEST DUP4 DUP3 LT ISZERO PUSH3 0x38E JUMPI DUP6 DUP3 ADD DUP4 ADD MLOAD DUP2 DUP4 ADD DUP5 ADD MSTORE SWAP1 DUP3 ADD SWAP1 PUSH3 0x36F JUMP JUMPDEST DUP4 DUP3 GT ISZERO PUSH3 0x3A0 JUMPI PUSH1 0x0 DUP4 DUP6 DUP4 ADD ADD MSTORE JUMPDEST SWAP7 SWAP6 POP POP POP POP POP POP JUMP JUMPDEST PUSH1 0x0 DUP1 PUSH1 0x0 PUSH1 0x60 DUP5 DUP7 SUB SLT ISZERO PUSH3 0x3C0 JUMPI PUSH1 0x0 DUP1 REVERT JUMPDEST DUP4 MLOAD PUSH1 0x1 PUSH1 0x1 PUSH1 0xA0 SHL SUB DUP2 AND DUP2 EQ PUSH3 0x3D8 JUMPI PUSH1 0x0 DUP1 REVERT JUMPDEST PUSH1 0x20 DUP6 ADD MLOAD SWAP1 SWAP4 POP PUSH1 0x1 PUSH1 0x1 PUSH1 0x40 SHL SUB DUP1 DUP3 GT ISZERO PUSH3 0x3F6 JUMPI PUSH1 0x0 DUP1 REVERT JUMPDEST PUSH3 0x404 DUP8 DUP4 DUP9 ADD PUSH3 0x2F3 JUMP JUMPDEST SWAP4 POP PUSH1 0x40 DUP7 ADD MLOAD SWAP2 POP DUP1 DUP3 GT ISZERO PUSH3 0x41B JUMPI PUSH1 0x0 DUP1 REVERT JUMPDEST POP PUSH3 0x42A DUP7 DUP3 DUP8 ADD PUSH3 0x2F3 JUMP JUMPDEST SWAP2 POP POP SWAP3 POP SWAP3 POP SWAP3 JUMP JUMPDEST PUSH1 0x1 DUP2 DUP2 SHR SWAP1 DUP3 AND DUP1 PUSH3 0x449 JUMPI PUSH1 0x7F DUP3 AND SWAP2 POP JUMPDEST PUSH1 0x20 DUP3 LT DUP2 SUB PUSH3 0x46A JUMPI PUSH4 0x4E487B71 PUSH1 0xE0 SHL PUSH1 0x0 MSTORE PUSH1 0x22 PUSH1 0x4 MSTORE PUSH1 0x24 PUSH1 0x0 REVERT JUMPDEST POP SWAP2 SWAP1 POP JUMP JUMPDEST PUSH2 0x5F42 DUP1 PUSH3 0x480 PUSH1 0x0 CODECOPY PUSH1 0x0 RETURN INVALID PUSH1 0x80 PUSH1 0x40 MSTORE PUSH1 0x4 CALLDATASIZE LT PUSH3 0x1D2 JUMPI PUSH1 0x0 CALLDATALOAD PUSH1 0xE0 SHR DUP1 PUSH4 0x6352211E GT PUSH3 0xF9 JUMPI DUP1 PUSH4 0x6352211E EQ PUSH3 0x478 JUMPI DUP1 PUSH4 0x70A08231 EQ PUSH3 0x49D JUMPI DUP1 PUSH4 0x715018A6 EQ PUSH3 0x4C2 JUMPI DUP1 PUSH4 0x76743B6B EQ PUSH3 0x4DA JUMPI DUP1 PUSH4 0x7F0E964B EQ PUSH3 0x4F1 JUMPI DUP1 PUSH4 0x8DA5CB5B EQ PUSH3 0x516 JUMPI DUP1 PUSH4 0x95D89B41 EQ PUSH3 0x536 JUMPI DUP1 PUSH4 0xA0477B8A EQ PUSH3 0x54E JUMPI DUP1 PUSH4 0xA22CB465 EQ PUSH3 0x575 JUMPI DUP1 PUSH4 0xB88D4FDE EQ PUSH3 0x59A JUMPI DUP1 PUSH4 0xC0A20D88 EQ PUSH3 0x5BF JUMPI DUP1 PUSH4 0xC87B56DD EQ PUSH3 0x5D7 JUMPI DUP1 PUSH4 0xD0CB39C6 EQ PUSH3 0x5FC JUMPI DUP1 PUSH4 0xD68F4DD1 EQ PUSH3 0x62A JUMPI DUP1 PUSH4 0xE985E9C5 EQ PUSH3 0x64F JUMPI DUP1 PUSH4 0xF2FDE38B EQ PUSH3 0x674 JUMPI DUP1 PUSH4 0xF6ABD4E9 EQ PUSH3 0x699 JUMPI DUP1 PUSH4 0xF8AAEC8B EQ PUSH3 0x6CD JUMPI STOP JUMPDEST DUP1 PUSH3 0xEBF5DD EQ PUSH3 0x1DC JUMPI DUP1 PUSH4 0x1FFC9A7 EQ PUSH3 0x1F3 JUMPI DUP1 PUSH4 0x536716A EQ PUSH3 0x22D JUMPI DUP1 PUSH4 0x6FDDE03 EQ PUSH3 0x261 JUMPI DUP1 PUSH4 0x81812FC EQ PUSH3 0x288 JUMPI DUP1 PUSH4 0x95EA7B3 EQ PUSH3 0x2BC JUMPI DUP1 PUSH4 0x143F39EE EQ PUSH3 0x2E1 JUMPI DUP1 PUSH4 0x1513236B EQ PUSH3 0x306 JUMPI DUP1 PUSH4 0x18160DDD EQ PUSH3 0x32B JUMPI DUP1 PUSH4 0x23B872DD EQ PUSH3 0x34C JUMPI DUP1 PUSH4 0x2CCF8AA6 EQ PUSH3 0x371 JUMPI DUP1 PUSH4 0x2F745C59 EQ PUSH3 0x388 JUMPI DUP1 PUSH4 0x359AA0B5 EQ PUSH3 0x22D JUMPI DUP1 PUSH4 0x3817820E EQ PUSH3 0x3AD JUMPI DUP1 PUSH4 0x42842E0E EQ PUSH3 0x3E2 JUMPI DUP1 PUSH4 0x4F6CCCE7 EQ PUSH3 0x407 JUMPI DUP1 PUSH4 0x54A5E97F EQ PUSH3 0x42C JUMPI DUP1 PUSH4 0x59A85794 EQ PUSH3 0x460 JUMPI STOP JUMPDEST CALLDATASIZE PUSH3 0x1DA JUMPI STOP JUMPDEST STOP JUMPDEST PUSH3 0x1DA PUSH3 0x1ED CALLDATASIZE PUSH1 0x4 PUSH3 0x3B1E JUMP JUMPDEST PUSH3 0x6F4 JUMP JUMPDEST CALLVALUE DUP1 ISZERO PUSH3 0x200 JUMPI PUSH1 0x0 DUP1 REVERT JUMPDEST POP PUSH3 0x218 PUSH3 0x212 CALLDATASIZE PUSH1 0x4 PUSH3 0x3B7C JUMP JUMPDEST PUSH3 0xBF8 JUMP JUMPDEST PUSH1 0x40 MLOAD SWAP1 ISZERO ISZERO DUP2 MSTORE PUSH1 0x20 ADD JUMPDEST PUSH1 0x40 MLOAD DUP1 SWAP2 SUB SWAP1 RETURN JUMPDEST CALLVALUE DUP1 ISZERO PUSH3 0x23A JUMPI PUSH1 0x0 DUP1 REVERT JUMPDEST POP PUSH3 0x252 PUSH3 0x24C CALLDATASIZE PUSH1 0x4 PUSH3 0x3B9C JUMP JUMPDEST PUSH3 0xC26 JUMP JUMPDEST PUSH1 0x40 MLOAD PUSH3 0x224 SWAP2 SWAP1 PUSH3 0x3C89 JUMP JUMPDEST CALLVALUE DUP1 ISZERO PUSH3 0x26E JUMPI PUSH1 0x0 DUP1 REVERT JUMPDEST POP PUSH3 0x279 PUSH3 0xCF9 JUMP JUMPDEST PUSH1 0x40 MLOAD PUSH3 0x224 SWAP2 SWAP1 PUSH3 0x3CF7 JUMP JUMPDEST CALLVALUE DUP1 ISZERO PUSH3 0x295 JUMPI PUSH1 0x0 DUP1 REVERT JUMPDEST POP PUSH3 0x2AD PUSH3 0x2A7 CALLDATASIZE PUSH1 0x4 PUSH3 0x3B9C JUMP JUMPDEST PUSH3 0xD93 JUMP JUMPDEST PUSH1 0x40 MLOAD PUSH3 0x224 SWAP2 SWAP1 PUSH3 0x3D0C JUMP JUMPDEST CALLVALUE DUP1 ISZERO PUSH3 0x2C9 JUMPI PUSH1 0x0 DUP1 REVERT JUMPDEST POP PUSH3 0x1DA PUSH3 0x2DB CALLDATASIZE PUSH1 0x4 PUSH3 0x3D20 JUMP JUMPDEST PUSH3 0xDBC JUMP JUMPDEST CALLVALUE DUP1 ISZERO PUSH3 0x2EE JUMPI PUSH1 0x0 DUP1 REVERT JUMPDEST POP PUSH3 0x218 PUSH3 0x300 CALLDATASIZE PUSH1 0x4 PUSH3 0x3B9C JUMP JUMPDEST PUSH3 0xED7 JUMP JUMPDEST CALLVALUE DUP1 ISZERO PUSH3 0x313 JUMPI PUSH1 0x0 DUP1 REVERT JUMPDEST POP PUSH3 0x1DA PUSH3 0x325 CALLDATASIZE PUSH1 0x4 PUSH3 0x3D4F JUMP JUMPDEST PUSH3 0xEED JUMP JUMPDEST CALLVALUE DUP1 ISZERO PUSH3 0x338 JUMPI PUSH1 0x0 DUP1 REVERT JUMPDEST POP PUSH1 0x8 SLOAD JUMPDEST PUSH1 0x40 MLOAD SWAP1 DUP2 MSTORE PUSH1 0x20 ADD PUSH3 0x224 JUMP JUMPDEST CALLVALUE DUP1 ISZERO PUSH3 0x359 JUMPI PUSH1 0x0 DUP1 REVERT JUMPDEST POP PUSH3 0x1DA PUSH3 0x36B CALLDATASIZE PUSH1 0x4 PUSH3 0x3D82 JUMP JUMPDEST PUSH3 0xF3C JUMP JUMPDEST PUSH3 0x1DA PUSH3 0x382 CALLDATASIZE PUSH1 0x4 PUSH3 0x3DC8 JUMP JUMPDEST PUSH3 0xF74 JUMP JUMPDEST CALLVALUE DUP1 ISZERO PUSH3 0x395 JUMPI PUSH1 0x0 DUP1 REVERT JUMPDEST POP PUSH3 0x33D PUSH3 0x3A7 CALLDATASIZE PUSH1 0x4 PUSH3 0x3D20 JUMP JUMPDEST PUSH3 0x1351 JUMP JUMPDEST PUSH3 0x3C4 PUSH3 0x3BE CALLDATASIZE PUSH1 0x4 PUSH3 0x3E2E JUMP JUMPDEST PUSH3 0x13EB JUMP JUMPDEST PUSH1 0x40 DUP1 MLOAD SWAP3 DUP4 MSTORE PUSH1 0x1 PUSH1 0x1 PUSH1 0xA0 SHL SUB SWAP1 SWAP2 AND PUSH1 0x20 DUP4 ADD MSTORE ADD PUSH3 0x224 JUMP JUMPDEST CALLVALUE DUP1 ISZERO PUSH3 0x3EF JUMPI PUSH1 0x0 DUP1 REVERT JUMPDEST POP PUSH3 0x1DA PUSH3 0x401 CALLDATASIZE PUSH1 0x4 PUSH3 0x3D82 JUMP JUMPDEST PUSH3 0x2178 JUMP JUMPDEST CALLVALUE DUP1 ISZERO PUSH3 0x414 JUMPI PUSH1 0x0 DUP1 REVERT JUMPDEST POP PUSH3 0x33D PUSH3 0x426 CALLDATASIZE PUSH1 0x4 PUSH3 0x3B9C JUMP JUMPDEST PUSH3 0x2195 JUMP JUMPDEST CALLVALUE DUP1 ISZERO PUSH3 0x439 JUMPI PUSH1 0x0 DUP1 REVERT JUMPDEST POP PUSH3 0x451 PUSH3 0x44B CALLDATASIZE PUSH1 0x4 PUSH3 0x3E90 JUMP JUMPDEST PUSH3 0x222E JUMP JUMPDEST PUSH1 0x40 MLOAD PUSH3 0x224 SWAP2 SWAP1 PUSH3 0x3EFA JUMP JUMPDEST CALLVALUE DUP1 ISZERO PUSH3 0x46D JUMPI PUSH1 0x0 DUP1 REVERT JUMPDEST POP PUSH3 0x33D PUSH1 0x10 SLOAD DUP2 JUMP JUMPDEST CALLVALUE DUP1 ISZERO PUSH3 0x485 JUMPI PUSH1 0x0 DUP1 REVERT JUMPDEST POP PUSH3 0x2AD PUSH3 0x497 CALLDATASIZE PUSH1 0x4 PUSH3 0x3B9C JUMP JUMPDEST PUSH3 0x2362 JUMP JUMPDEST CALLVALUE DUP1 ISZERO PUSH3 0x4AA JUMPI PUSH1 0x0 DUP1 REVERT JUMPDEST POP PUSH3 0x33D PUSH3 0x4BC CALLDATASIZE PUSH1 0x4 PUSH3 0x3E90 JUMP JUMPDEST PUSH3 0x239B JUMP JUMPDEST CALLVALUE DUP1 ISZERO PUSH3 0x4CF JUMPI PUSH1 0x0 DUP1 REVERT JUMPDEST POP PUSH3 0x1DA PUSH3 0x2423 JUMP JUMPDEST CALLVALUE DUP1 ISZERO PUSH3 0x4E7 JUMPI PUSH1 0x0 DUP1 REVERT JUMPDEST POP PUSH1 0x10 SLOAD PUSH3 0x33D JUMP JUMPDEST CALLVALUE DUP1 ISZERO PUSH3 0x4FE JUMPI PUSH1 0x0 DUP1 REVERT JUMPDEST POP PUSH3 0x1DA PUSH3 0x510 CALLDATASIZE PUSH1 0x4 PUSH3 0x3D4F JUMP JUMPDEST PUSH3 0x243B JUMP JUMPDEST CALLVALUE DUP1 ISZERO PUSH3 0x523 JUMPI PUSH1 0x0 DUP1 REVERT JUMPDEST POP PUSH1 0xA SLOAD PUSH1 0x1 PUSH1 0x1 PUSH1 0xA0 SHL SUB AND PUSH3 0x2AD JUMP JUMPDEST CALLVALUE DUP1 ISZERO PUSH3 0x543 JUMPI PUSH1 0x0 DUP1 REVERT JUMPDEST POP PUSH3 0x279 PUSH3 0x25A3 JUMP JUMPDEST CALLVALUE DUP1 ISZERO PUSH3 0x55B JUMPI PUSH1 0x0 DUP1 REVERT JUMPDEST POP PUSH3 0x566 PUSH3 0x25B4 JUMP JUMPDEST PUSH1 0x40 MLOAD PUSH3 0x224 SWAP2 SWAP1 PUSH3 0x3F17 JUMP JUMPDEST CALLVALUE DUP1 ISZERO PUSH3 0x582 JUMPI PUSH1 0x0 DUP1 REVERT JUMPDEST POP PUSH3 0x1DA PUSH3 0x594 CALLDATASIZE PUSH1 0x4 PUSH3 0x3F2C JUMP JUMPDEST PUSH3 0x26F3 JUMP JUMPDEST CALLVALUE DUP1 ISZERO PUSH3 0x5A7 JUMPI PUSH1 0x0 DUP1 REVERT JUMPDEST POP PUSH3 0x1DA PUSH3 0x5B9 CALLDATASIZE PUSH1 0x4 PUSH3 0x3F75 JUMP JUMPDEST PUSH3 0x2700 JUMP JUMPDEST CALLVALUE DUP1 ISZERO PUSH3 0x5CC JUMPI PUSH1 0x0 DUP1 REVERT JUMPDEST POP PUSH3 0x566 PUSH3 0x273F JUMP JUMPDEST CALLVALUE DUP1 ISZERO PUSH3 0x5E4 JUMPI PUSH1 0x0 DUP1 REVERT JUMPDEST POP PUSH3 0x279 PUSH3 0x5F6 CALLDATASIZE PUSH1 0x4 PUSH3 0x3B9C JUMP JUMPDEST PUSH3 0x2846 JUMP JUMPDEST CALLVALUE DUP1 ISZERO PUSH3 0x609 JUMPI PUSH1 0x0 DUP1 REVERT JUMPDEST POP PUSH3 0x614 PUSH3 0x28C3 JUMP JUMPDEST PUSH1 0x40 DUP1 MLOAD SWAP3 DUP4 MSTORE PUSH1 0x20 DUP4 ADD SWAP2 SWAP1 SWAP2 MSTORE ADD PUSH3 0x224 JUMP JUMPDEST CALLVALUE DUP1 ISZERO PUSH3 0x637 JUMPI PUSH1 0x0 DUP1 REVERT JUMPDEST POP PUSH3 0x252 PUSH3 0x649 CALLDATASIZE PUSH1 0x4 PUSH3 0x3B9C JUMP JUMPDEST PUSH3 0x28DB JUMP JUMPDEST CALLVALUE DUP1 ISZERO PUSH3 0x65C JUMPI PUSH1 0x0 DUP1 REVERT JUMPDEST POP PUSH3 0x218 PUSH3 0x66E CALLDATASIZE PUSH1 0x4 PUSH3 0x4063 JUMP JUMPDEST PUSH3 0x292D JUMP JUMPDEST CALLVALUE DUP1 ISZERO PUSH3 0x681 JUMPI PUSH1 0x0 DUP1 REVERT JUMPDEST POP PUSH3 0x1DA PUSH3 0x693 CALLDATASIZE PUSH1 0x4 PUSH3 0x3E90 JUMP JUMPDEST PUSH3 0x295B JUMP JUMPDEST CALLVALUE DUP1 ISZERO PUSH3 0x6A6 JUMPI PUSH1 0x0 DUP1 REVERT JUMPDEST POP PUSH3 0x218 PUSH3 0x6B8 CALLDATASIZE PUSH1 0x4 PUSH3 0x3B9C JUMP JUMPDEST PUSH1 0x15 PUSH1 0x20 MSTORE PUSH1 0x0 SWAP1 DUP2 MSTORE PUSH1 0x40 SWAP1 KECCAK256 SLOAD PUSH1 0xFF AND DUP2 JUMP JUMPDEST CALLVALUE DUP1 ISZERO PUSH3 0x6DA JUMPI PUSH1 0x0 DUP1 REVERT JUMPDEST POP PUSH3 0x6E5 PUSH3 0x29DA JUMP JUMPDEST PUSH1 0x40 MLOAD PUSH3 0x224 SWAP2 SWAP1 PUSH3 0x4096 JUMP JUMPDEST PUSH3 0x6FE PUSH3 0x2A3C JUMP JUMPDEST PUSH3 0x709 DUP4 PUSH3 0xED7 JUMP JUMPDEST PUSH3 0x74E JUMPI PUSH1 0x40 MLOAD PUSH3 0x461BCD PUSH1 0xE5 SHL DUP2 MSTORE PUSH1 0x20 PUSH1 0x4 DUP3 ADD MSTORE PUSH1 0x10 PUSH1 0x24 DUP3 ADD MSTORE PUSH16 0x1A5B9D985B1A59081A531BD8DAC81A59 PUSH1 0x82 SHL PUSH1 0x44 DUP3 ADD MSTORE PUSH1 0x64 ADD JUMPDEST PUSH1 0x40 MLOAD DUP1 SWAP2 SUB SWAP1 REVERT JUMPDEST PUSH1 0x0 DUP4 DUP2 MSTORE PUSH1 0x12 PUSH1 0x20 MSTORE PUSH1 0x40 SWAP1 KECCAK256 PUSH1 0x7 DUP2 ADD SLOAD PUSH1 0x6 DUP3 ADD SLOAD PUSH1 0x1 PUSH1 0x1 PUSH1 0xA0 SHL SUB SWAP1 SWAP2 AND SWAP1 TIMESTAMP LT ISZERO DUP1 PUSH3 0x78C JUMPI POP PUSH1 0x7 DUP3 ADD SLOAD PUSH1 0x1 PUSH1 0xA8 SHL SWAP1 DIV PUSH1 0xFF AND JUMPDEST PUSH3 0x7C9 JUMPI PUSH1 0x40 MLOAD PUSH3 0x461BCD PUSH1 0xE5 SHL DUP2 MSTORE PUSH1 0x20 PUSH1 0x4 DUP3 ADD MSTORE PUSH1 0xC PUSH1 0x24 DUP3 ADD MSTORE PUSH12 0x1CDD1A5B1B081B1BD8DAD959 PUSH1 0xA2 SHL PUSH1 0x44 DUP3 ADD MSTORE PUSH1 0x64 ADD PUSH3 0x745 JUMP JUMPDEST PUSH1 0xD SLOAD PUSH1 0x40 MLOAD PUSH1 0x0 SWAP2 PUSH1 0x1 PUSH1 0x1 PUSH1 0xA0 SHL SUB AND SWAP1 CALLVALUE SWAP1 DUP4 DUP2 DUP2 DUP2 DUP6 DUP8 GAS CALL SWAP3 POP POP POP RETURNDATASIZE DUP1 PUSH1 0x0 DUP2 EQ PUSH3 0x818 JUMPI PUSH1 0x40 MLOAD SWAP2 POP PUSH1 0x1F NOT PUSH1 0x3F RETURNDATASIZE ADD AND DUP3 ADD PUSH1 0x40 MSTORE RETURNDATASIZE DUP3 MSTORE RETURNDATASIZE PUSH1 0x0 PUSH1 0x20 DUP5 ADD RETURNDATACOPY PUSH3 0x81D JUMP JUMPDEST PUSH1 0x60 SWAP2 POP JUMPDEST POP POP SWAP1 POP DUP1 PUSH3 0x82C JUMPI PUSH1 0x0 DUP1 REVERT JUMPDEST POP PUSH1 0x7 DUP3 ADD SLOAD PUSH1 0x0 SWAP1 PUSH1 0x1 PUSH1 0xA8 SHL SWAP1 DIV PUSH1 0xFF AND ISZERO ISZERO DUP2 SUB PUSH3 0x8CC JUMPI CALLER PUSH3 0x854 DUP8 PUSH3 0x2362 JUMP JUMPDEST PUSH1 0x1 PUSH1 0x1 PUSH1 0xA0 SHL SUB AND EQ PUSH3 0x8A1 JUMPI PUSH1 0x40 MLOAD PUSH3 0x461BCD PUSH1 0xE5 SHL DUP2 MSTORE PUSH1 0x20 PUSH1 0x4 DUP3 ADD MSTORE PUSH1 0x12 PUSH1 0x24 DUP3 ADD MSTORE PUSH18 0x6E6F74206F776E6572206F6620694C6F636B PUSH1 0x70 SHL PUSH1 0x44 DUP3 ADD MSTORE PUSH1 0x64 ADD PUSH3 0x745 JUMP JUMPDEST PUSH1 0x7 DUP4 ADD SLOAD PUSH1 0x1 PUSH1 0xB0 SHL SWAP1 DIV PUSH1 0xFF AND ISZERO PUSH3 0x8BB JUMPI PUSH1 0x0 DUP1 REVERT JUMPDEST PUSH3 0x8C6 DUP7 PUSH3 0x2A97 JUMP JUMPDEST PUSH3 0x917 JUMP JUMPDEST CALLER PUSH3 0x8D8 DUP8 PUSH3 0x2362 JUMP JUMPDEST PUSH1 0x1 PUSH1 0x1 PUSH1 0xA0 SHL SUB AND EQ DUP1 PUSH3 0x8F8 JUMPI POP PUSH1 0xD SLOAD PUSH1 0x1 PUSH1 0x1 PUSH1 0xA0 SHL SUB AND CALLER EQ JUMPDEST PUSH3 0x917 JUMPI PUSH1 0x40 MLOAD PUSH3 0x461BCD PUSH1 0xE5 SHL DUP2 MSTORE PUSH1 0x4 ADD PUSH3 0x745 SWAP1 PUSH3 0x40DC JUMP JUMPDEST PUSH1 0x0 DUP7 DUP2 MSTORE PUSH1 0x15 PUSH1 0x20 MSTORE PUSH1 0x40 DUP2 KECCAK256 DUP1 SLOAD PUSH1 0xFF NOT AND SWAP1 SSTORE DUP5 ISZERO ISZERO SWAP1 SUB PUSH3 0xA85 JUMPI PUSH1 0x1 DUP4 ADD SLOAD PUSH1 0x40 MLOAD PUSH4 0x70A08231 PUSH1 0xE0 SHL DUP2 MSTORE PUSH1 0x1 PUSH1 0x1 PUSH1 0xA0 SHL SUB SWAP1 SWAP2 AND SWAP1 PUSH4 0x70A08231 SWAP1 PUSH3 0x96B SWAP1 DUP6 SWAP1 PUSH1 0x4 ADD PUSH3 0x3D0C JUMP JUMPDEST PUSH1 0x20 PUSH1 0x40 MLOAD DUP1 DUP4 SUB DUP2 DUP7 GAS STATICCALL ISZERO DUP1 ISZERO PUSH3 0x989 JUMPI RETURNDATASIZE PUSH1 0x0 DUP1 RETURNDATACOPY RETURNDATASIZE PUSH1 0x0 REVERT JUMPDEST POP POP POP POP PUSH1 0x40 MLOAD RETURNDATASIZE PUSH1 0x1F NOT PUSH1 0x1F DUP3 ADD AND DUP3 ADD DUP1 PUSH1 0x40 MSTORE POP DUP2 ADD SWAP1 PUSH3 0x9AF SWAP2 SWAP1 PUSH3 0x410A JUMP JUMPDEST PUSH1 0x1 DUP5 ADD SLOAD PUSH1 0x40 MLOAD PUSH4 0x1FF3D4CB PUSH1 0xE2 SHL DUP2 MSTORE SWAP2 SWAP3 POP PUSH1 0x1 PUSH1 0x1 PUSH1 0xA0 SHL SUB DUP1 DUP6 AND SWAP3 PUSH4 0x7FCF532C SWAP3 PUSH3 0x9E8 SWAP3 AND SWAP1 DUP6 SWAP1 PUSH1 0x4 ADD PUSH3 0x4124 JUMP JUMPDEST PUSH1 0x20 PUSH1 0x40 MLOAD DUP1 DUP4 SUB DUP2 PUSH1 0x0 DUP8 GAS CALL SWAP3 POP POP POP DUP1 ISZERO PUSH3 0xA26 JUMPI POP PUSH1 0x40 DUP1 MLOAD PUSH1 0x1F RETURNDATASIZE SWAP1 DUP2 ADD PUSH1 0x1F NOT AND DUP3 ADD SWAP1 SWAP3 MSTORE PUSH3 0xA23 SWAP2 DUP2 ADD SWAP1 PUSH3 0x413D JUMP JUMPDEST PUSH1 0x1 JUMPDEST PUSH3 0xA6C JUMPI PUSH1 0x40 MLOAD PUSH3 0x461BCD PUSH1 0xE5 SHL DUP2 MSTORE PUSH1 0x20 PUSH1 0x4 DUP3 ADD MSTORE PUSH1 0x15 PUSH1 0x24 DUP3 ADD MSTORE PUSH21 0x2330B4B632B21022A9219918103A3930B739B332B9 PUSH1 0x59 SHL PUSH1 0x44 DUP3 ADD MSTORE PUSH1 0x64 ADD PUSH3 0x745 JUMP JUMPDEST PUSH1 0x5 DUP5 ADD DUP1 SLOAD PUSH1 0xFF NOT AND SWAP2 ISZERO ISZERO SWAP2 SWAP1 SWAP2 OR SWAP1 SSTORE PUSH3 0xB4C JUMP JUMPDEST POP PUSH1 0x40 MLOAD PUSH3 0x1CE66F PUSH1 0xE3 SHL DUP2 MSTORE PUSH1 0x1 PUSH1 0x1 PUSH1 0xA0 SHL SUB DUP3 AND DUP1 BALANCE SWAP2 PUSH3 0xE73378 SWAP1 PUSH3 0xAB6 SWAP1 DUP9 SWAP1 DUP6 SWAP1 PUSH1 0x4 ADD PUSH3 0x4124 JUMP JUMPDEST PUSH1 0x20 PUSH1 0x40 MLOAD DUP1 DUP4 SUB DUP2 PUSH1 0x0 DUP8 GAS CALL SWAP3 POP POP POP DUP1 ISZERO PUSH3 0xAF4 JUMPI POP PUSH1 0x40 DUP1 MLOAD PUSH1 0x1F RETURNDATASIZE SWAP1 DUP2 ADD PUSH1 0x1F NOT AND DUP3 ADD SWAP1 SWAP3 MSTORE PUSH3 0xAF1 SWAP2 DUP2 ADD SWAP1 PUSH3 0x413D JUMP JUMPDEST PUSH1 0x1 JUMPDEST PUSH3 0xB38 JUMPI PUSH1 0x40 MLOAD PUSH3 0x461BCD PUSH1 0xE5 SHL DUP2 MSTORE PUSH1 0x20 PUSH1 0x4 DUP3 ADD MSTORE PUSH1 0x13 PUSH1 0x24 DUP3 ADD MSTORE PUSH19 0x2330B4B632B21022AA24103A3930B739B332B9 PUSH1 0x69 SHL PUSH1 0x44 DUP3 ADD MSTORE PUSH1 0x64 ADD PUSH3 0x745 JUMP JUMPDEST PUSH1 0x5 DUP5 ADD DUP1 SLOAD PUSH1 0xFF NOT AND SWAP2 ISZERO ISZERO SWAP2 SWAP1 SWAP2 OR SWAP1 SSTORE JUMPDEST PUSH1 0x5 DUP4 ADD SLOAD PUSH1 0xFF AND ISZERO ISZERO PUSH1 0x1 EQ PUSH3 0xB9D JUMPI PUSH1 0x40 MLOAD PUSH3 0x461BCD PUSH1 0xE5 SHL DUP2 MSTORE PUSH1 0x20 PUSH1 0x4 DUP3 ADD MSTORE PUSH1 0x13 PUSH1 0x24 DUP3 ADD MSTORE PUSH19 0x111A5CDD1C9A589D5D1A5BDB8811985A5B1959 PUSH1 0x6A SHL PUSH1 0x44 DUP3 ADD MSTORE PUSH1 0x64 ADD PUSH3 0x745 JUMP JUMPDEST PUSH1 0x1 DUP4 ADD SLOAD PUSH1 0x40 MLOAD DUP3 DUP2 MSTORE PUSH1 0x1 PUSH1 0x1 PUSH1 0xA0 SHL SUB DUP8 DUP2 AND SWAP3 AND SWAP1 DUP9 SWAP1 PUSH32 0xFEB2000DCA3E617CD6F3A8BBB63014BB54A124AAC6CCBF73EE7229B4CD01F120 SWAP1 PUSH1 0x20 ADD PUSH1 0x40 MLOAD DUP1 SWAP2 SUB SWAP1 LOG4 POP POP POP PUSH3 0xBF3 PUSH1 0x1 PUSH1 0xB SSTORE JUMP JUMPDEST POP POP POP JUMP JUMPDEST PUSH1 0x0 PUSH1 0x1 PUSH1 0x1 PUSH1 0xE0 SHL SUB NOT DUP3 AND PUSH4 0x780E9D63 PUSH1 0xE0 SHL EQ DUP1 PUSH3 0xC20 JUMPI POP PUSH3 0xC20 DUP3 PUSH3 0x2B2F JUMP JUMPDEST SWAP3 SWAP2 POP POP JUMP JUMPDEST PUSH3 0xC30 PUSH3 0x3A87 JUMP JUMPDEST POP PUSH1 0x0 SWAP1 DUP2 MSTORE PUSH1 0x12 PUSH1 0x20 SWAP1 DUP2 MSTORE PUSH1 0x40 SWAP2 DUP3 SWAP1 KECCAK256 DUP3 MLOAD PUSH2 0x180 DUP2 ADD DUP5 MSTORE DUP2 SLOAD DUP2 MSTORE PUSH1 0x1 DUP3 ADD SLOAD PUSH1 0x1 PUSH1 0x1 PUSH1 0xA0 SHL SUB SWAP1 DUP2 AND SWAP4 DUP3 ADD SWAP4 SWAP1 SWAP4 MSTORE PUSH1 0x2 DUP3 ADD SLOAD DUP4 AND SWAP4 DUP2 ADD SWAP4 SWAP1 SWAP4 MSTORE PUSH1 0x3 DUP2 ADD SLOAD DUP3 AND PUSH1 0x60 DUP5 ADD MSTORE PUSH1 0x4 DUP2 ADD SLOAD PUSH1 0x80 DUP5 ADD MSTORE PUSH1 0x5 DUP2 ADD SLOAD PUSH1 0xFF DUP1 DUP3 AND ISZERO ISZERO PUSH1 0xA0 DUP7 ADD MSTORE PUSH2 0x100 SWAP2 DUP3 SWAP1 DIV DUP2 AND ISZERO ISZERO PUSH1 0xC0 DUP7 ADD MSTORE PUSH1 0x6 DUP4 ADD SLOAD PUSH1 0xE0 DUP7 ADD MSTORE PUSH1 0x7 SWAP1 SWAP3 ADD SLOAD SWAP3 DUP4 AND SWAP1 DUP5 ADD MSTORE PUSH1 0x1 PUSH1 0xA0 SHL DUP3 DIV DUP2 AND ISZERO ISZERO PUSH2 0x120 DUP5 ADD MSTORE PUSH1 0x1 PUSH1 0xA8 SHL DUP3 DIV DUP2 AND ISZERO ISZERO PUSH2 0x140 DUP5 ADD MSTORE PUSH1 0x1 PUSH1 0xB0 SHL SWAP1 SWAP2 DIV AND ISZERO ISZERO PUSH2 0x160 DUP3 ADD MSTORE SWAP1 JUMP JUMPDEST PUSH1 0x60 PUSH1 0x17 DUP1 SLOAD PUSH3 0xD0A SWAP1 PUSH3 0x415D JUMP JUMPDEST DUP1 PUSH1 0x1F ADD PUSH1 0x20 DUP1 SWAP2 DIV MUL PUSH1 0x20 ADD PUSH1 0x40 MLOAD SWAP1 DUP2 ADD PUSH1 0x40 MSTORE DUP1 SWAP3 SWAP2 SWAP1 DUP2 DUP2 MSTORE PUSH1 0x20 ADD DUP3 DUP1 SLOAD PUSH3 0xD38 SWAP1 PUSH3 0x415D JUMP JUMPDEST DUP1 ISZERO PUSH3 0xD89 JUMPI DUP1 PUSH1 0x1F LT PUSH3 0xD5D JUMPI PUSH2 0x100 DUP1 DUP4 SLOAD DIV MUL DUP4 MSTORE SWAP2 PUSH1 0x20 ADD SWAP2 PUSH3 0xD89 JUMP JUMPDEST DUP3 ADD SWAP2 SWAP1 PUSH1 0x0 MSTORE PUSH1 0x20 PUSH1 0x0 KECCAK256 SWAP1 JUMPDEST DUP2 SLOAD DUP2 MSTORE SWAP1 PUSH1 0x1 ADD SWAP1 PUSH1 0x20 ADD DUP1 DUP4 GT PUSH3 0xD6B JUMPI DUP3 SWAP1 SUB PUSH1 0x1F AND DUP3 ADD SWAP2 JUMPDEST POP POP POP POP POP SWAP1 POP SWAP1 JUMP JUMPDEST PUSH1 0x0 PUSH3 0xDA0 DUP3 PUSH3 0x2B82 JUMP JUMPDEST POP PUSH1 0x0 SWAP1 DUP2 MSTORE PUSH1 0x4 PUSH1 0x20 MSTORE PUSH1 0x40 SWAP1 KECCAK256 SLOAD PUSH1 0x1 PUSH1 0x1 PUSH1 0xA0 SHL SUB AND SWAP1 JUMP JUMPDEST PUSH1 0x0 PUSH3 0xDC9 DUP3 PUSH3 0x2362 JUMP JUMPDEST SWAP1 POP DUP1 PUSH1 0x1 PUSH1 0x1 PUSH1 0xA0 SHL SUB AND DUP4 PUSH1 0x1 PUSH1 0x1 PUSH1 0xA0 SHL SUB AND SUB PUSH3 0xE38 JUMPI PUSH1 0x40 MLOAD PUSH3 0x461BCD PUSH1 0xE5 SHL DUP2 MSTORE PUSH1 0x20 PUSH1 0x4 DUP3 ADD MSTORE PUSH1 0x21 PUSH1 0x24 DUP3 ADD MSTORE PUSH32 0x4552433732313A20617070726F76616C20746F2063757272656E74206F776E65 PUSH1 0x44 DUP3 ADD MSTORE PUSH1 0x39 PUSH1 0xF9 SHL PUSH1 0x64 DUP3 ADD MSTORE PUSH1 0x84 ADD PUSH3 0x745 JUMP JUMPDEST CALLER PUSH1 0x1 PUSH1 0x1 PUSH1 0xA0 SHL SUB DUP3 AND EQ DUP1 PUSH3 0xE57 JUMPI POP PUSH3 0xE57 DUP2 CALLER PUSH3 0x292D JUMP JUMPDEST PUSH3 0xECB JUMPI PUSH1 0x40 MLOAD PUSH3 0x461BCD PUSH1 0xE5 SHL DUP2 MSTORE PUSH1 0x20 PUSH1 0x4 DUP3 ADD MSTORE PUSH1 0x3D PUSH1 0x24 DUP3 ADD MSTORE PUSH32 0x4552433732313A20617070726F76652063616C6C6572206973206E6F7420746F PUSH1 0x44 DUP3 ADD MSTORE PUSH32 0x6B656E206F776E6572206F7220617070726F76656420666F7220616C6C000000 PUSH1 0x64 DUP3 ADD MSTORE PUSH1 0x84 ADD PUSH3 0x745 JUMP JUMPDEST PUSH3 0xBF3 DUP4 DUP4 PUSH3 0x2BAC JUMP JUMPDEST PUSH1 0x0 DUP2 ISZERO DUP1 ISZERO SWAP1 PUSH3 0xC20 JUMPI POP POP PUSH1 0xE SLOAD LT ISZERO SWAP1 JUMP JUMPDEST PUSH1 0xD SLOAD PUSH1 0x1 PUSH1 0x1 PUSH1 0xA0 SHL SUB AND CALLER PUSH1 0x1 PUSH1 0x1 PUSH1 0xA0 SHL SUB AND EQ PUSH3 0xF23 JUMPI PUSH1 0x40 MLOAD PUSH3 0x461BCD PUSH1 0xE5 SHL DUP2 MSTORE PUSH1 0x4 ADD PUSH3 0x745 SWAP1 PUSH3 0x4199 JUMP JUMPDEST PUSH1 0x10 SWAP2 SWAP1 SWAP2 SSTORE PUSH1 0x11 DUP1 SLOAD PUSH1 0xFF NOT AND SWAP2 ISZERO ISZERO SWAP2 SWAP1 SWAP2 OR SWAP1 SSTORE JUMP JUMPDEST PUSH3 0xF48 CALLER DUP3 PUSH3 0x2C1C JUMP JUMPDEST PUSH3 0xF67 JUMPI PUSH1 0x40 MLOAD PUSH3 0x461BCD PUSH1 0xE5 SHL DUP2 MSTORE PUSH1 0x4 ADD PUSH3 0x745 SWAP1 PUSH3 0x41C1 JUMP JUMPDEST PUSH3 0xBF3 DUP4 DUP4 DUP4 PUSH3 0x2C83 JUMP JUMPDEST PUSH1 0xD SLOAD PUSH1 0x1 PUSH1 0x1 PUSH1 0xA0 SHL SUB AND CALLER PUSH1 0x1 PUSH1 0x1 PUSH1 0xA0 SHL SUB AND EQ PUSH3 0xF95 JUMPI PUSH1 0x0 DUP1 REVERT JUMPDEST DUP1 ISZERO ISZERO PUSH1 0x1 SUB PUSH3 0x1237 JUMPI PUSH3 0xFAB DUP5 PUSH3 0xED7 JUMP JUMPDEST PUSH3 0xFB5 JUMPI PUSH1 0x0 DUP1 REVERT JUMPDEST PUSH1 0x0 DUP5 DUP2 MSTORE PUSH1 0x12 PUSH1 0x20 MSTORE PUSH1 0x40 DUP2 KECCAK256 PUSH1 0x7 DUP2 ADD SLOAD SWAP1 SWAP2 PUSH1 0x1 PUSH1 0xA0 SHL SWAP1 SWAP2 DIV PUSH1 0xFF AND ISZERO ISZERO SWAP1 SUB PUSH3 0xFE3 JUMPI PUSH1 0x0 DUP1 REVERT JUMPDEST PUSH1 0x7 DUP2 ADD DUP1 SLOAD PUSH1 0xFF PUSH1 0xA8 SHL NOT AND PUSH1 0x1 PUSH1 0xA8 SHL OR SWAP1 SSTORE DUP3 PUSH3 0x118B JUMPI DUP4 PUSH3 0x1081 JUMPI PUSH1 0x7 DUP2 ADD SLOAD PUSH1 0x40 MLOAD PUSH4 0x70A08231 PUSH1 0xE0 SHL DUP2 MSTORE PUSH1 0x1 PUSH1 0x1 PUSH1 0xA0 SHL SUB DUP9 DUP2 AND SWAP3 PUSH4 0x70A08231 SWAP3 PUSH3 0x103A SWAP3 SWAP1 SWAP2 AND SWAP1 PUSH1 0x4 ADD PUSH3 0x3D0C JUMP JUMPDEST PUSH1 0x20 PUSH1 0x40 MLOAD DUP1 DUP4 SUB DUP2 DUP7 GAS STATICCALL ISZERO DUP1 ISZERO PUSH3 0x1058 JUMPI RETURNDATASIZE PUSH1 0x0 DUP1 RETURNDATACOPY RETURNDATASIZE PUSH1 0x0 REVERT JUMPDEST POP POP POP POP PUSH1 0x40 MLOAD RETURNDATASIZE PUSH1 0x1F NOT PUSH1 0x1F DUP3 ADD AND DUP3 ADD DUP1 PUSH1 0x40 MSTORE POP DUP2 ADD SWAP1 PUSH3 0x107E SWAP2 SWAP1 PUSH3 0x410A JUMP JUMPDEST SWAP4 POP JUMPDEST PUSH1 0x7 DUP2 ADD SLOAD PUSH1 0x1 DUP3 ADD SLOAD PUSH1 0xD SLOAD PUSH1 0x40 MLOAD PUSH4 0x70A08231 PUSH1 0xE0 SHL DUP2 MSTORE PUSH1 0x1 PUSH1 0x1 PUSH1 0xA0 SHL SUB SWAP4 DUP5 AND SWAP4 PUSH4 0xA5F2A152 SWAP4 DUP2 AND SWAP3 DUP2 AND SWAP2 SWAP1 DUP12 AND SWAP1 PUSH4 0x70A08231 SWAP1 PUSH3 0x10CD SWAP1 DUP8 SWAP1 PUSH1 0x4 ADD PUSH3 0x3D0C JUMP JUMPDEST PUSH1 0x20 PUSH1 0x40 MLOAD DUP1 DUP4 SUB DUP2 DUP7 GAS STATICCALL ISZERO DUP1 ISZERO PUSH3 0x10EB JUMPI RETURNDATASIZE PUSH1 0x0 DUP1 RETURNDATACOPY RETURNDATASIZE PUSH1 0x0 REVERT JUMPDEST POP POP POP POP PUSH1 0x40 MLOAD RETURNDATASIZE PUSH1 0x1F NOT PUSH1 0x1F DUP3 ADD AND DUP3 ADD DUP1 PUSH1 0x40 MSTORE POP DUP2 ADD SWAP1 PUSH3 0x1111 SWAP2 SWAP1 PUSH3 0x410A JUMP JUMPDEST PUSH1 0x40 MLOAD DUP5 PUSH4 0xFFFFFFFF AND PUSH1 0xE0 SHL DUP2 MSTORE PUSH1 0x4 ADD PUSH3 0x1131 SWAP4 SWAP3 SWAP2 SWAP1 PUSH3 0x420E JUMP JUMPDEST PUSH1 0x20 PUSH1 0x40 MLOAD DUP1 DUP4 SUB DUP2 PUSH1 0x0 DUP8 GAS CALL SWAP3 POP POP POP DUP1 ISZERO PUSH3 0x116F JUMPI POP PUSH1 0x40 DUP1 MLOAD PUSH1 0x1F RETURNDATASIZE SWAP1 DUP2 ADD PUSH1 0x1F NOT AND DUP3 ADD SWAP1 SWAP3 MSTORE PUSH3 0x116C SWAP2 DUP2 ADD SWAP1 PUSH3 0x413D JUMP JUMPDEST PUSH1 0x1 JUMPDEST PUSH3 0x1179 JUMPI PUSH1 0x0 DUP1 REVERT JUMPDEST DUP1 PUSH3 0x1184 JUMPI PUSH1 0x0 DUP1 REVERT JUMPDEST POP PUSH3 0x1230 JUMP JUMPDEST DUP4 PUSH3 0x11A3 JUMPI PUSH1 0x7 DUP2 ADD SLOAD PUSH1 0x1 PUSH1 0x1 PUSH1 0xA0 SHL SUB AND BALANCE SWAP4 POP JUMPDEST PUSH1 0x7 DUP2 ADD SLOAD PUSH1 0xD SLOAD PUSH1 0x40 MLOAD PUSH3 0x1CE66F PUSH1 0xE3 SHL DUP2 MSTORE PUSH1 0x1 PUSH1 0x1 PUSH1 0xA0 SHL SUB SWAP3 DUP4 AND SWAP3 PUSH3 0xE73378 SWAP3 PUSH3 0x11DB SWAP3 SWAP2 AND SWAP1 DUP9 SWAP1 PUSH1 0x4 ADD PUSH3 0x4124 JUMP JUMPDEST PUSH1 0x20 PUSH1 0x40 MLOAD DUP1 DUP4 SUB DUP2 PUSH1 0x0 DUP8 GAS CALL SWAP3 POP POP POP DUP1 ISZERO PUSH3 0x1219 JUMPI POP PUSH1 0x40 DUP1 MLOAD PUSH1 0x1F RETURNDATASIZE SWAP1 DUP2 ADD PUSH1 0x1F NOT AND DUP3 ADD SWAP1 SWAP3 MSTORE PUSH3 0x1216 SWAP2 DUP2 ADD SWAP1 PUSH3 0x413D JUMP JUMPDEST PUSH1 0x1 JUMPDEST PUSH3 0x1223 JUMPI PUSH1 0x0 DUP1 REVERT JUMPDEST DUP1 PUSH3 0x122E JUMPI PUSH1 0x0 DUP1 REVERT JUMPDEST POP JUMPDEST POP PUSH3 0x134A JUMP JUMPDEST DUP2 PUSH3 0x12DA JUMPI DUP3 PUSH3 0x12B8 JUMPI PUSH1 0x40 MLOAD PUSH4 0x70A08231 PUSH1 0xE0 SHL DUP2 MSTORE PUSH1 0x1 PUSH1 0x1 PUSH1 0xA0 SHL SUB DUP7 AND SWAP1 PUSH4 0x70A08231 SWAP1 PUSH3 0x1271 SWAP1 ADDRESS SWAP1 PUSH1 0x4 ADD PUSH3 0x3D0C JUMP JUMPDEST PUSH1 0x20 PUSH1 0x40 MLOAD DUP1 DUP4 SUB DUP2 DUP7 GAS STATICCALL ISZERO DUP1 ISZERO PUSH3 0x128F JUMPI RETURNDATASIZE PUSH1 0x0 DUP1 RETURNDATACOPY RETURNDATASIZE PUSH1 0x0 REVERT JUMPDEST POP POP POP POP PUSH1 0x40 MLOAD RETURNDATASIZE PUSH1 0x1F NOT PUSH1 0x1F DUP3 ADD AND DUP3 ADD DUP1 PUSH1 0x40 MSTORE POP DUP2 ADD SWAP1 PUSH3 0x12B5 SWAP2 SWAP1 PUSH3 0x410A JUMP JUMPDEST SWAP3 POP JUMPDEST PUSH1 0xD SLOAD PUSH3 0x12D4 SWAP1 PUSH1 0x1 PUSH1 0x1 PUSH1 0xA0 SHL SUB DUP8 DUP2 AND SWAP2 AND DUP6 PUSH3 0x2D6E JUMP JUMPDEST PUSH3 0x134A JUMP JUMPDEST DUP3 PUSH3 0x12E5 JUMPI ADDRESS BALANCE SWAP3 POP JUMPDEST PUSH1 0xD SLOAD PUSH1 0x40 MLOAD PUSH1 0x0 SWAP2 PUSH1 0x1 PUSH1 0x1 PUSH1 0xA0 SHL SUB AND SWAP1 DUP6 SWAP1 DUP4 DUP2 DUP2 DUP2 DUP6 DUP8 GAS CALL SWAP3 POP POP POP RETURNDATASIZE DUP1 PUSH1 0x0 DUP2 EQ PUSH3 0x1334 JUMPI PUSH1 0x40 MLOAD SWAP2 POP PUSH1 0x1F NOT PUSH1 0x3F RETURNDATASIZE ADD AND DUP3 ADD PUSH1 0x40 MSTORE RETURNDATASIZE DUP3 MSTORE RETURNDATASIZE PUSH1 0x0 PUSH1 0x20 DUP5 ADD RETURNDATACOPY PUSH3 0x1339 JUMP JUMPDEST PUSH1 0x60 SWAP2 POP JUMPDEST POP POP SWAP1 POP DUP1 PUSH3 0x1348 JUMPI PUSH1 0x0 DUP1 REVERT JUMPDEST POP JUMPDEST POP POP POP POP POP JUMP JUMPDEST PUSH1 0x0 PUSH3 0x135E DUP4 PUSH3 0x239B JUMP JUMPDEST DUP3 LT PUSH3 0x13C2 JUMPI PUSH1 0x40 MLOAD PUSH3 0x461BCD PUSH1 0xE5 SHL DUP2 MSTORE PUSH1 0x20 PUSH1 0x4 DUP3 ADD MSTORE PUSH1 0x2B PUSH1 0x24 DUP3 ADD MSTORE PUSH32 0x455243373231456E756D657261626C653A206F776E657220696E646578206F75 PUSH1 0x44 DUP3 ADD MSTORE PUSH11 0x74206F6620626F756E6473 PUSH1 0xA8 SHL PUSH1 0x64 DUP3 ADD MSTORE PUSH1 0x84 ADD PUSH3 0x745 JUMP JUMPDEST POP PUSH1 0x1 PUSH1 0x1 PUSH1 0xA0 SHL SUB SWAP2 SWAP1 SWAP2 AND PUSH1 0x0 SWAP1 DUP2 MSTORE PUSH1 0x6 PUSH1 0x20 SWAP1 DUP2 MSTORE PUSH1 0x40 DUP1 DUP4 KECCAK256 SWAP4 DUP4 MSTORE SWAP3 SWAP1 MSTORE KECCAK256 SLOAD SWAP1 JUMP JUMPDEST PUSH1 0x0 DUP1 PUSH3 0x13F8 PUSH3 0x2A3C JUMP JUMPDEST PUSH1 0x0 NOT DUP4 LT DUP1 ISZERO PUSH3 0x1409 JUMPI POP TIMESTAMP DUP4 GT JUMPDEST PUSH3 0x144C JUMPI PUSH1 0x40 MLOAD PUSH3 0x461BCD PUSH1 0xE5 SHL DUP2 MSTORE PUSH1 0x20 PUSH1 0x4 DUP3 ADD MSTORE PUSH1 0x12 PUSH1 0x24 DUP3 ADD MSTORE PUSH18 0x696D70726F7065722074696D657374616D7 PUSH1 0x74 SHL PUSH1 0x44 DUP3 ADD MSTORE PUSH1 0x64 ADD PUSH3 0x745 JUMP JUMPDEST PUSH3 0x145B PUSH1 0xE DUP1 SLOAD PUSH1 0x1 ADD SWAP1 SSTORE JUMP JUMPDEST PUSH1 0x0 PUSH3 0x1467 PUSH1 0xE SLOAD SWAP1 JUMP JUMPDEST PUSH1 0xF DUP2 SWAP1 SSTORE SWAP1 POP PUSH1 0x0 DUP8 PUSH3 0x1653 JUMPI PUSH1 0x0 ADDRESS DUP9 DUP8 DUP12 DUP11 PUSH1 0x40 MLOAD PUSH3 0x148B SWAP1 PUSH3 0x3AEB JUMP JUMPDEST PUSH3 0x149B SWAP6 SWAP5 SWAP4 SWAP3 SWAP2 SWAP1 PUSH3 0x4232 JUMP JUMPDEST PUSH1 0x40 MLOAD DUP1 SWAP2 SUB SWAP1 DUP3 CREATE SWAP1 POP DUP1 ISZERO DUP1 ISZERO PUSH3 0x14B9 JUMPI RETURNDATASIZE PUSH1 0x0 DUP1 RETURNDATACOPY RETURNDATASIZE PUSH1 0x0 REVERT JUMPDEST POP SWAP1 POP CALLVALUE ISZERO PUSH3 0x1619 JUMPI PUSH1 0x40 MLOAD PUSH4 0x70A08231 PUSH1 0xE0 SHL DUP2 MSTORE PUSH1 0x0 SWAP1 PUSH1 0x1 PUSH1 0x1 PUSH1 0xA0 SHL SUB DUP12 AND SWAP1 PUSH4 0x70A08231 SWAP1 PUSH3 0x14F4 SWAP1 DUP6 SWAP1 PUSH1 0x4 ADD PUSH3 0x3D0C JUMP JUMPDEST PUSH1 0x20 PUSH1 0x40 MLOAD DUP1 DUP4 SUB DUP2 DUP7 GAS STATICCALL ISZERO DUP1 ISZERO PUSH3 0x1512 JUMPI RETURNDATASIZE PUSH1 0x0 DUP1 RETURNDATACOPY RETURNDATASIZE PUSH1 0x0 REVERT JUMPDEST POP POP POP POP PUSH1 0x40 MLOAD RETURNDATASIZE PUSH1 0x1F NOT PUSH1 0x1F DUP3 ADD AND DUP3 ADD DUP1 PUSH1 0x40 MSTORE POP DUP2 ADD SWAP1 PUSH3 0x1538 SWAP2 SWAP1 PUSH3 0x410A JUMP JUMPDEST SWAP1 POP PUSH3 0x1551 PUSH1 0x1 PUSH1 0x1 PUSH1 0xA0 SHL SUB DUP12 AND CALLER DUP5 DUP11 PUSH3 0x2DC8 JUMP JUMPDEST PUSH1 0x40 MLOAD PUSH4 0x70A08231 PUSH1 0xE0 SHL DUP2 MSTORE PUSH1 0x0 SWAP1 PUSH1 0x1 PUSH1 0x1 PUSH1 0xA0 SHL SUB DUP13 AND SWAP1 PUSH4 0x70A08231 SWAP1 PUSH3 0x1582 SWAP1 DUP7 SWAP1 PUSH1 0x4 ADD PUSH3 0x3D0C JUMP JUMPDEST PUSH1 0x20 PUSH1 0x40 MLOAD DUP1 DUP4 SUB DUP2 DUP7 GAS STATICCALL ISZERO DUP1 ISZERO PUSH3 0x15A0 JUMPI RETURNDATASIZE PUSH1 0x0 DUP1 RETURNDATACOPY RETURNDATASIZE PUSH1 0x0 REVERT JUMPDEST POP POP POP POP PUSH1 0x40 MLOAD RETURNDATASIZE PUSH1 0x1F NOT PUSH1 0x1F DUP3 ADD AND DUP3 ADD DUP1 PUSH1 0x40 MSTORE POP DUP2 ADD SWAP1 PUSH3 0x15C6 SWAP2 SWAP1 PUSH3 0x410A JUMP JUMPDEST SWAP1 POP DUP2 DUP2 LT ISZERO PUSH3 0x1611 JUMPI PUSH1 0x40 MLOAD PUSH3 0x461BCD PUSH1 0xE5 SHL DUP2 MSTORE PUSH1 0x20 PUSH1 0x4 DUP3 ADD MSTORE PUSH1 0x14 PUSH1 0x24 DUP3 ADD MSTORE PUSH20 0x42616C616E6365206972726567756C6172697479 PUSH1 0x60 SHL PUSH1 0x44 DUP3 ADD MSTORE PUSH1 0x64 ADD PUSH3 0x745 JUMP JUMPDEST POP POP PUSH3 0x1794 JUMP JUMPDEST PUSH1 0x40 MLOAD PUSH3 0x461BCD PUSH1 0xE5 SHL DUP2 MSTORE PUSH1 0x20 PUSH1 0x4 DUP3 ADD MSTORE PUSH1 0xE PUSH1 0x24 DUP3 ADD MSTORE PUSH14 0x11985A5B19590819195C1BDCDA5D PUSH1 0x92 SHL PUSH1 0x44 DUP3 ADD MSTORE PUSH1 0x64 ADD PUSH3 0x745 JUMP JUMPDEST PUSH1 0x10 SLOAD PUSH3 0x1662 SWAP1 DUP8 PUSH3 0x427B JUMP JUMPDEST CALLVALUE LT ISZERO PUSH3 0x166F JUMPI PUSH1 0x0 DUP1 REVERT JUMPDEST PUSH1 0x11 SLOAD PUSH1 0xFF AND PUSH3 0x1681 JUMPI CALLVALUE PUSH3 0x168D JUMP JUMPDEST PUSH3 0x168D DUP7 CALLVALUE PUSH3 0x4296 JUMP JUMPDEST ADDRESS DUP9 DUP8 DUP12 DUP11 PUSH1 0x40 MLOAD PUSH3 0x16A0 SWAP1 PUSH3 0x3AEB JUMP JUMPDEST PUSH3 0x16B0 SWAP6 SWAP5 SWAP4 SWAP3 SWAP2 SWAP1 PUSH3 0x4232 JUMP JUMPDEST PUSH1 0x40 MLOAD DUP1 SWAP2 SUB SWAP1 DUP3 CREATE SWAP1 POP DUP1 ISZERO DUP1 ISZERO PUSH3 0x16CE JUMPI RETURNDATASIZE PUSH1 0x0 DUP1 RETURNDATACOPY RETURNDATASIZE PUSH1 0x0 REVERT JUMPDEST POP SWAP1 POP CALLVALUE ISZERO PUSH3 0x1619 JUMPI PUSH1 0x0 PUSH3 0x16E6 DUP8 CALLVALUE PUSH3 0x4296 JUMP JUMPDEST SWAP1 POP PUSH1 0x0 PUSH3 0x16F6 DUP3 CALLVALUE PUSH3 0x4296 JUMP JUMPDEST SWAP1 POP PUSH1 0x0 DUP4 PUSH1 0x1 PUSH1 0x1 PUSH1 0xA0 SHL SUB AND DUP3 PUSH1 0x40 MLOAD PUSH1 0x0 PUSH1 0x40 MLOAD DUP1 DUP4 SUB DUP2 DUP6 DUP8 GAS CALL SWAP3 POP POP POP RETURNDATASIZE DUP1 PUSH1 0x0 DUP2 EQ PUSH3 0x1747 JUMPI PUSH1 0x40 MLOAD SWAP2 POP PUSH1 0x1F NOT PUSH1 0x3F RETURNDATASIZE ADD AND DUP3 ADD PUSH1 0x40 MSTORE RETURNDATASIZE DUP3 MSTORE RETURNDATASIZE PUSH1 0x0 PUSH1 0x20 DUP5 ADD RETURNDATACOPY PUSH3 0x174C JUMP JUMPDEST PUSH1 0x60 SWAP2 POP JUMPDEST POP POP SWAP1 POP DUP1 PUSH3 0x1790 JUMPI PUSH1 0x40 MLOAD PUSH3 0x461BCD PUSH1 0xE5 SHL DUP2 MSTORE PUSH1 0x20 PUSH1 0x4 DUP3 ADD MSTORE PUSH1 0xE PUSH1 0x24 DUP3 ADD MSTORE PUSH14 0x19985A5B19590819195C1BDCDA5D PUSH1 0x92 SHL PUSH1 0x44 DUP3 ADD MSTORE PUSH1 0x64 ADD PUSH3 0x745 JUMP JUMPDEST POP POP POP JUMPDEST PUSH1 0x1 PUSH1 0x1 PUSH1 0xA0 SHL SUB DUP2 AND ISZERO DUP1 ISZERO SWAP1 PUSH3 0x17C5 JUMPI POP PUSH1 0x0 DUP3 DUP2 MSTORE PUSH1 0x12 PUSH1 0x20 MSTORE PUSH1 0x40 SWAP1 KECCAK256 PUSH1 0x2 ADD SLOAD PUSH1 0x1 PUSH1 0x1 PUSH1 0xA0 SHL SUB AND ISZERO JUMPDEST PUSH3 0x180A JUMPI PUSH1 0x40 MLOAD PUSH3 0x461BCD PUSH1 0xE5 SHL DUP2 MSTORE PUSH1 0x20 PUSH1 0x4 DUP3 ADD MSTORE PUSH1 0x14 PUSH1 0x24 DUP3 ADD MSTORE PUSH20 0x694C6F636B20616C726561647920657869737473 PUSH1 0x60 SHL PUSH1 0x44 DUP3 ADD MSTORE PUSH1 0x64 ADD PUSH3 0x745 JUMP JUMPDEST PUSH1 0x40 MLOAD DUP1 PUSH2 0x180 ADD PUSH1 0x40 MSTORE DUP1 DUP4 DUP2 MSTORE PUSH1 0x20 ADD DUP11 PUSH1 0x1 PUSH1 0x1 PUSH1 0xA0 SHL SUB AND DUP2 MSTORE PUSH1 0x20 ADD PUSH3 0x1833 CALLER SWAP1 JUMP JUMPDEST PUSH1 0x1 PUSH1 0x1 PUSH1 0xA0 SHL SUB SWAP1 DUP2 AND DUP3 MSTORE DUP10 DUP2 AND PUSH1 0x20 DUP1 DUP5 ADD SWAP2 SWAP1 SWAP2 MSTORE PUSH1 0x40 DUP1 DUP5 ADD DUP12 SWAP1 MSTORE PUSH1 0x0 PUSH1 0x60 DUP1 DUP7 ADD DUP3 SWAP1 MSTORE DUP15 ISZERO ISZERO PUSH1 0x80 DUP1 DUP9 ADD SWAP2 SWAP1 SWAP2 MSTORE PUSH1 0xA0 DUP1 DUP9 ADD DUP15 SWAP1 MSTORE DUP10 DUP8 AND PUSH1 0xC0 DUP1 DUP11 ADD SWAP2 SWAP1 SWAP2 MSTORE PUSH1 0x1 PUSH1 0xE0 DUP1 DUP12 ADD DUP3 SWAP1 MSTORE PUSH2 0x100 DUP1 DUP13 ADD DUP9 SWAP1 MSTORE PUSH2 0x120 SWAP12 DUP13 ADD DUP9 SWAP1 MSTORE DUP15 DUP9 MSTORE PUSH1 0x12 DUP11 MSTORE SWAP7 DUP9 SWAP1 KECCAK256 DUP13 MLOAD DUP2 SSTORE SWAP9 DUP13 ADD MLOAD SWAP2 DUP10 ADD DUP1 SLOAD SWAP3 DUP12 AND PUSH1 0x1 PUSH1 0x1 PUSH1 0xA0 SHL SUB NOT SWAP4 DUP5 AND OR SWAP1 SSTORE SWAP7 DUP12 ADD MLOAD PUSH1 0x2 DUP10 ADD DUP1 SLOAD SWAP2 DUP12 AND SWAP2 DUP4 AND SWAP2 SWAP1 SWAP2 OR SWAP1 SSTORE SWAP4 DUP11 ADD MLOAD PUSH1 0x3 DUP9 ADD DUP1 SLOAD SWAP2 DUP11 AND SWAP2 SWAP1 SWAP6 AND OR SWAP1 SWAP4 SSTORE SWAP1 DUP9 ADD MLOAD PUSH1 0x4 DUP7 ADD SSTORE DUP8 ADD MLOAD PUSH1 0x5 DUP6 ADD DUP1 SLOAD SWAP3 DUP10 ADD MLOAD ISZERO ISZERO DUP5 MUL PUSH2 0xFF00 NOT SWAP3 ISZERO ISZERO SWAP3 SWAP1 SWAP3 AND PUSH2 0xFFFF NOT SWAP1 SWAP4 AND SWAP3 SWAP1 SWAP3 OR OR SWAP1 SSTORE SWAP1 DUP6 ADD MLOAD PUSH1 0x6 DUP4 ADD SSTORE DUP5 ADD MLOAD PUSH1 0x7 SWAP1 SWAP2 ADD DUP1 SLOAD SWAP4 DUP6 ADD MLOAD PUSH2 0x140 DUP7 ADD MLOAD PUSH2 0x160 SWAP1 SWAP7 ADD MLOAD ISZERO ISZERO PUSH1 0x1 PUSH1 0xB0 SHL MUL PUSH1 0xFF PUSH1 0xB0 SHL NOT SWAP7 ISZERO ISZERO PUSH1 0x1 PUSH1 0xA8 SHL MUL SWAP7 SWAP1 SWAP7 AND PUSH2 0xFFFF PUSH1 0xA8 SHL NOT SWAP2 ISZERO ISZERO PUSH1 0x1 PUSH1 0xA0 SHL MUL PUSH1 0x1 PUSH1 0x1 PUSH1 0xA8 SHL SUB NOT SWAP1 SWAP7 AND SWAP4 SWAP1 SWAP5 AND SWAP3 SWAP1 SWAP3 OR SWAP4 SWAP1 SWAP4 OR AND OR SWAP2 SWAP1 SWAP2 OR SWAP1 SSTORE PUSH3 0x1999 CALLER SWAP1 JUMP JUMPDEST PUSH1 0x1 PUSH1 0x1 PUSH1 0xA0 SHL SUB AND DUP8 PUSH1 0x1 PUSH1 0x1 PUSH1 0xA0 SHL SUB AND EQ PUSH3 0x1CC2 JUMPI CALLER PUSH1 0x0 DUP2 DUP2 MSTORE PUSH1 0x13 PUSH1 0x20 SWAP1 DUP2 MSTORE PUSH1 0x40 DUP1 DUP4 KECCAK256 DUP7 DUP5 MSTORE PUSH1 0x12 DUP4 MSTORE SWAP1 DUP4 KECCAK256 DUP2 SLOAD PUSH1 0x1 DUP1 DUP3 ADD DUP5 SSTORE SWAP3 DUP6 MSTORE SWAP3 DUP5 KECCAK256 DUP2 SLOAD PUSH1 0x8 SWAP1 SWAP5 MUL ADD SWAP3 DUP4 SSTORE DUP2 DUP2 ADD SLOAD SWAP2 DUP4 ADD DUP1 SLOAD PUSH1 0x1 PUSH1 0x1 PUSH1 0xA0 SHL SUB NOT SWAP1 DUP2 AND PUSH1 0x1 PUSH1 0x1 PUSH1 0xA0 SHL SUB SWAP5 DUP6 AND OR SWAP1 SWAP2 SSTORE PUSH1 0x2 DUP1 DUP4 ADD SLOAD SWAP1 DUP6 ADD DUP1 SLOAD DUP4 AND SWAP2 DUP6 AND SWAP2 SWAP1 SWAP2 OR SWAP1 SSTORE PUSH1 0x3 DUP1 DUP4 ADD SLOAD SWAP1 DUP6 ADD DUP1 SLOAD DUP4 AND SWAP2 DUP6 AND SWAP2 SWAP1 SWAP2 OR SWAP1 SSTORE PUSH1 0x4 DUP1 DUP4 ADD SLOAD SWAP1 DUP6 ADD SSTORE PUSH1 0x5 DUP1 DUP4 ADD DUP1 SLOAD SWAP2 DUP7 ADD DUP1 SLOAD PUSH1 0xFF SWAP4 DUP5 AND ISZERO ISZERO PUSH1 0xFF NOT DUP3 AND DUP2 OR DUP4 SSTORE SWAP3 SLOAD PUSH2 0x100 SWAP1 DUP2 SWAP1 DIV DUP6 AND ISZERO ISZERO MUL PUSH2 0xFF00 NOT SWAP1 SWAP4 AND PUSH2 0xFFFF NOT SWAP1 SWAP2 AND OR SWAP2 SWAP1 SWAP2 OR SWAP1 SSTORE PUSH1 0x6 DUP1 DUP5 ADD SLOAD SWAP1 DUP7 ADD SSTORE PUSH1 0x7 SWAP3 DUP4 ADD DUP1 SLOAD SWAP4 SWAP1 SWAP6 ADD DUP1 SLOAD SWAP3 DUP4 AND SWAP4 SWAP1 SWAP5 AND SWAP3 DUP4 OR DUP5 SSTORE DUP5 SLOAD PUSH1 0x1 PUSH1 0xA0 SHL SWAP1 DUP2 SWAP1 DIV DUP3 AND ISZERO ISZERO MUL PUSH1 0x1 PUSH1 0x1 PUSH1 0xA8 SHL SUB NOT SWAP1 SWAP3 AND SWAP1 SWAP3 OR OR DUP1 DUP4 SSTORE DUP4 SLOAD PUSH1 0x1 PUSH1 0xA8 SHL SWAP1 DUP2 SWAP1 DIV DUP4 AND ISZERO ISZERO MUL PUSH1 0xFF PUSH1 0xA8 SHL NOT DUP3 AND DUP2 OR DUP5 SSTORE SWAP4 SLOAD PUSH1 0x1 PUSH1 0xB0 SHL SWAP1 DUP2 SWAP1 DIV SWAP1 SWAP3 AND ISZERO ISZERO SWAP1 SWAP2 MUL PUSH1 0xFF PUSH1 0xB0 SHL NOT SWAP1 SWAP4 AND PUSH2 0xFFFF PUSH1 0xA8 SHL NOT SWAP1 SWAP2 AND OR SWAP2 SWAP1 SWAP2 OR SWAP1 SSTORE PUSH1 0x16 SWAP2 PUSH1 0x1 PUSH1 0x1 PUSH1 0xA0 SHL SUB SWAP1 DUP2 AND DUP3 MSTORE PUSH1 0x20 DUP1 DUP4 ADD SWAP4 SWAP1 SWAP4 MSTORE PUSH1 0x40 SWAP2 DUP3 ADD PUSH1 0x0 SWAP1 DUP2 KECCAK256 DUP1 SLOAD PUSH1 0x1 DUP2 DUP2 ADD DUP4 SSTORE SWAP2 DUP4 MSTORE DUP6 DUP4 KECCAK256 ADD DUP8 SWAP1 SSTORE DUP7 DUP3 MSTORE PUSH1 0x12 DUP6 MSTORE DUP4 DUP3 KECCAK256 PUSH1 0x3 DUP1 DUP3 ADD DUP1 SLOAD DUP7 AND DUP6 MSTORE PUSH1 0x14 DUP9 MSTORE DUP7 DUP6 KECCAK256 DUP1 SLOAD DUP1 DUP7 ADD DUP3 SSTORE SWAP1 DUP7 MSTORE DUP9 DUP7 KECCAK256 DUP5 SLOAD PUSH1 0x8 SWAP1 SWAP3 MUL ADD SWAP1 DUP2 SSTORE DUP4 DUP6 ADD SLOAD DUP2 DUP7 ADD DUP1 SLOAD PUSH1 0x1 PUSH1 0x1 PUSH1 0xA0 SHL SUB NOT SWAP1 DUP2 AND SWAP3 DUP11 AND SWAP3 SWAP1 SWAP3 OR SWAP1 SSTORE PUSH1 0x2 DUP1 DUP7 ADD SLOAD SWAP1 DUP4 ADD DUP1 SLOAD DUP4 AND SWAP2 DUP11 AND SWAP2 SWAP1 SWAP2 OR SWAP1 SSTORE DUP3 SLOAD SWAP4 DUP3 ADD DUP1 SLOAD DUP3 AND SWAP5 DUP10 AND SWAP5 SWAP1 SWAP5 OR SWAP1 SWAP4 SSTORE PUSH1 0x4 DUP1 DUP6 ADD SLOAD SWAP1 DUP3 ADD SSTORE PUSH1 0x5 DUP1 DUP6 ADD DUP1 SLOAD SWAP2 DUP4 ADD DUP1 SLOAD PUSH1 0xFF SWAP4 DUP5 AND ISZERO ISZERO PUSH1 0xFF NOT DUP3 AND DUP2 OR DUP4 SSTORE SWAP3 SLOAD PUSH2 0x100 SWAP1 DUP2 SWAP1 DIV DUP6 AND ISZERO ISZERO MUL PUSH2 0xFF00 NOT SWAP1 SWAP4 AND PUSH2 0xFFFF NOT SWAP1 SWAP2 AND OR SWAP2 SWAP1 SWAP2 OR SWAP1 SSTORE PUSH1 0x6 DUP1 DUP7 ADD SLOAD SWAP1 DUP4 ADD SSTORE PUSH1 0x7 SWAP5 DUP6 ADD DUP1 SLOAD SWAP6 SWAP1 SWAP3 ADD DUP1 SLOAD SWAP5 DUP6 AND SWAP6 DUP10 AND SWAP6 DUP7 OR DUP2 SSTORE DUP3 SLOAD PUSH1 0x1 PUSH1 0xA0 SHL SWAP1 DUP2 SWAP1 DIV DUP4 AND ISZERO ISZERO MUL PUSH1 0x1 PUSH1 0x1 PUSH1 0xA8 SHL SUB NOT SWAP1 SWAP6 AND SWAP1 SWAP6 OR SWAP4 SWAP1 SWAP4 OR DUP1 DUP6 SSTORE DUP2 SLOAD PUSH1 0x1 PUSH1 0xA8 SHL SWAP1 DUP2 SWAP1 DIV DUP6 AND ISZERO ISZERO MUL PUSH1 0xFF PUSH1 0xA8 SHL NOT DUP3 AND DUP2 OR DUP7 SSTORE SWAP2 SLOAD PUSH1 0x1 PUSH1 0xB0 SHL SWAP1 DUP2 SWAP1 DIV SWAP1 SWAP5 AND ISZERO ISZERO SWAP1 SWAP4 MUL PUSH1 0xFF PUSH1 0xB0 SHL NOT SWAP1 SWAP2 AND PUSH2 0xFFFF PUSH1 0xA8 SHL NOT SWAP1 SWAP4 AND SWAP3 SWAP1 SWAP3 OR SWAP2 SWAP1 SWAP2 OR SWAP1 SWAP2 SSTORE SLOAD SWAP1 SWAP3 AND DUP2 MSTORE PUSH1 0x16 DUP5 MSTORE SWAP2 DUP3 KECCAK256 DUP1 SLOAD SWAP2 DUP3 ADD DUP2 SSTORE DUP3 MSTORE SWAP2 SWAP1 KECCAK256 ADD DUP3 SWAP1 SSTORE PUSH3 0x1E4A JUMP JUMPDEST PUSH1 0x0 DUP3 DUP2 MSTORE PUSH1 0x12 PUSH1 0x20 SWAP1 DUP2 MSTORE PUSH1 0x40 DUP1 DUP4 KECCAK256 PUSH1 0x3 DUP1 DUP3 ADD DUP1 SLOAD PUSH1 0x1 PUSH1 0x1 PUSH1 0xA0 SHL SUB SWAP1 DUP2 AND DUP8 MSTORE PUSH1 0x14 DUP7 MSTORE DUP5 DUP8 KECCAK256 DUP1 SLOAD PUSH1 0x1 DUP2 DUP2 ADD DUP4 SSTORE SWAP2 DUP10 MSTORE DUP8 DUP10 KECCAK256 DUP7 SLOAD PUSH1 0x8 SWAP1 SWAP3 MUL ADD SWAP1 DUP2 SSTORE DUP2 DUP7 ADD SLOAD DUP2 DUP4 ADD DUP1 SLOAD PUSH1 0x1 PUSH1 0x1 PUSH1 0xA0 SHL SUB NOT SWAP1 DUP2 AND SWAP3 DUP7 AND SWAP3 SWAP1 SWAP3 OR SWAP1 SSTORE PUSH1 0x2 DUP1 DUP9 ADD SLOAD SWAP1 DUP4 ADD DUP1 SLOAD DUP4 AND SWAP2 DUP7 AND SWAP2 SWAP1 SWAP2 OR SWAP1 SSTORE DUP5 SLOAD SWAP6 DUP3 ADD DUP1 SLOAD DUP3 AND SWAP7 DUP6 AND SWAP7 SWAP1 SWAP7 OR SWAP1 SWAP6 SSTORE PUSH1 0x4 DUP1 DUP8 ADD SLOAD SWAP1 DUP3 ADD SSTORE PUSH1 0x5 DUP1 DUP8 ADD DUP1 SLOAD SWAP2 DUP4 ADD DUP1 SLOAD PUSH1 0xFF SWAP4 DUP5 AND ISZERO ISZERO PUSH1 0xFF NOT DUP3 AND DUP2 OR DUP4 SSTORE SWAP3 SLOAD PUSH2 0x100 SWAP1 DUP2 SWAP1 DIV DUP6 AND ISZERO ISZERO MUL PUSH2 0xFF00 NOT SWAP1 SWAP4 AND PUSH2 0xFFFF NOT SWAP1 SWAP2 AND OR SWAP2 SWAP1 SWAP2 OR SWAP1 SSTORE PUSH1 0x6 DUP1 DUP9 ADD SLOAD SWAP1 DUP4 ADD SSTORE PUSH1 0x7 SWAP7 DUP8 ADD DUP1 SLOAD SWAP8 SWAP1 SWAP3 ADD DUP1 SLOAD SWAP7 DUP8 AND SWAP8 DUP6 AND SWAP8 DUP9 OR DUP2 SSTORE DUP3 SLOAD PUSH1 0x1 PUSH1 0xA0 SHL SWAP1 DUP2 SWAP1 DIV DUP4 AND ISZERO ISZERO MUL PUSH1 0x1 PUSH1 0x1 PUSH1 0xA8 SHL SUB NOT SWAP1 SWAP8 AND SWAP1 SWAP8 OR SWAP6 SWAP1 SWAP6 OR DUP1 DUP8 SSTORE DUP2 SLOAD PUSH1 0x1 PUSH1 0xA8 SHL SWAP1 DUP2 SWAP1 DIV DUP8 AND ISZERO ISZERO MUL PUSH1 0xFF PUSH1 0xA8 SHL NOT DUP3 AND DUP2 OR DUP9 SSTORE SWAP2 SLOAD PUSH1 0x1 PUSH1 0xB0 SHL SWAP1 DUP2 SWAP1 DIV SWAP1 SWAP7 AND ISZERO ISZERO SWAP1 SWAP6 MUL PUSH1 0xFF PUSH1 0xB0 SHL NOT SWAP1 SWAP2 AND PUSH2 0xFFFF PUSH1 0xA8 SHL NOT SWAP1 SWAP6 AND SWAP5 SWAP1 SWAP5 OR SWAP4 SWAP1 SWAP4 OR SWAP1 SWAP4 SSTORE SLOAD SWAP1 SWAP2 AND DUP5 MSTORE PUSH1 0x16 DUP4 MSTORE SWAP1 DUP4 KECCAK256 DUP1 SLOAD SWAP2 DUP3 ADD DUP2 SSTORE DUP4 MSTORE SWAP2 KECCAK256 ADD DUP3 SWAP1 SSTORE JUMPDEST PUSH1 0x0 DUP3 DUP2 MSTORE PUSH1 0x12 PUSH1 0x20 SWAP1 DUP2 MSTORE PUSH1 0x40 DUP1 DUP4 KECCAK256 PUSH1 0xC DUP1 SLOAD PUSH1 0x1 DUP2 DUP2 ADD SWAP1 SWAP3 SSTORE DUP3 SLOAD PUSH1 0x8 SWAP1 SWAP2 MUL PUSH32 0xDF6966C971051C3D54EC59162606531493A51404A002842F56009D7E5CF4A8C7 DUP2 ADD SWAP2 SWAP1 SWAP2 SSTORE DUP2 DUP4 ADD SLOAD PUSH32 0xDF6966C971051C3D54EC59162606531493A51404A002842F56009D7E5CF4A8C8 DUP3 ADD DUP1 SLOAD PUSH1 0x1 PUSH1 0x1 PUSH1 0xA0 SHL SUB NOT SWAP1 DUP2 AND PUSH1 0x1 PUSH1 0x1 PUSH1 0xA0 SHL SUB SWAP4 DUP5 AND OR SWAP1 SWAP2 SSTORE PUSH1 0x2 DUP6 ADD SLOAD PUSH32 0xDF6966C971051C3D54EC59162606531493A51404A002842F56009D7E5CF4A8C9 DUP5 ADD DUP1 SLOAD DUP4 AND SWAP2 DUP5 AND SWAP2 SWAP1 SWAP2 OR SWAP1 SSTORE PUSH1 0x3 DUP6 ADD SLOAD PUSH32 0xDF6966C971051C3D54EC59162606531493A51404A002842F56009D7E5CF4A8CA DUP5 ADD DUP1 SLOAD DUP4 AND SWAP2 DUP5 AND SWAP2 SWAP1 SWAP2 OR SWAP1 SSTORE PUSH1 0x4 DUP6 ADD SLOAD PUSH32 0xDF6966C971051C3D54EC59162606531493A51404A002842F56009D7E5CF4A8CB DUP5 ADD SSTORE PUSH1 0x5 DUP6 ADD DUP1 SLOAD PUSH32 0xDF6966C971051C3D54EC59162606531493A51404A002842F56009D7E5CF4A8CC DUP6 ADD DUP1 SLOAD PUSH1 0xFF SWAP3 DUP4 AND ISZERO ISZERO PUSH1 0xFF NOT DUP1 DUP4 AND DUP3 OR DUP5 SSTORE SWAP5 SLOAD PUSH2 0x100 SWAP1 DUP2 SWAP1 DIV DUP6 AND ISZERO ISZERO MUL PUSH2 0xFF00 NOT SWAP1 SWAP2 AND PUSH2 0xFFFF NOT SWAP1 SWAP3 AND SWAP2 SWAP1 SWAP2 OR OR SWAP1 SSTORE PUSH1 0x6 DUP8 ADD SLOAD PUSH32 0xDF6966C971051C3D54EC59162606531493A51404A002842F56009D7E5CF4A8CD DUP7 ADD SSTORE PUSH1 0x7 SWAP1 SWAP7 ADD DUP1 SLOAD PUSH32 0xDF6966C971051C3D54EC59162606531493A51404A002842F56009D7E5CF4A8CE SWAP1 SWAP6 ADD DUP1 SLOAD SWAP4 DUP5 AND SWAP6 SWAP1 SWAP5 AND SWAP5 DUP6 OR DUP5 SSTORE DUP1 SLOAD PUSH1 0x1 PUSH1 0xA0 SHL SWAP1 DUP2 SWAP1 DIV DUP9 AND ISZERO ISZERO MUL PUSH1 0x1 PUSH1 0x1 PUSH1 0xA8 SHL SUB NOT SWAP1 SWAP4 AND SWAP1 SWAP5 OR SWAP2 SWAP1 SWAP2 OR DUP1 DUP4 SSTORE DUP4 SLOAD PUSH1 0x1 PUSH1 0xA8 SHL SWAP1 DUP2 SWAP1 DIV DUP8 AND ISZERO ISZERO MUL PUSH1 0xFF PUSH1 0xA8 SHL NOT DUP3 AND DUP2 OR DUP5 SSTORE SWAP4 SLOAD PUSH1 0x1 PUSH1 0xB0 SHL SWAP1 DUP2 SWAP1 DIV SWAP1 SWAP7 AND ISZERO ISZERO SWAP1 SWAP6 MUL PUSH1 0xFF PUSH1 0xB0 SHL NOT SWAP1 SWAP4 AND PUSH2 0xFFFF PUSH1 0xA8 SHL NOT SWAP1 SWAP6 AND SWAP5 SWAP1 SWAP5 OR SWAP2 SWAP1 SWAP2 OR SWAP1 SSTORE DUP7 DUP6 MSTORE PUSH1 0x15 SWAP1 SWAP4 MSTORE SWAP3 KECCAK256 DUP1 SLOAD SWAP1 SWAP3 AND OR SWAP1 SSTORE PUSH3 0x20BD DUP8 DUP4 PUSH3 0x2DEC JUMP JUMPDEST DUP8 PUSH3 0x2118 JUMPI DUP7 PUSH1 0x1 PUSH1 0x1 PUSH1 0xA0 SHL SUB AND DUP10 PUSH1 0x1 PUSH1 0x1 PUSH1 0xA0 SHL SUB AND DUP4 PUSH32 0x2161AC88B058AE4333D49C523005A7ECEF8267AC631690891D19A7E1939E2A8A DUP10 PUSH1 0x40 MLOAD PUSH3 0x210A SWAP2 DUP2 MSTORE PUSH1 0x20 ADD SWAP1 JUMP JUMPDEST PUSH1 0x40 MLOAD DUP1 SWAP2 SUB SWAP1 LOG4 PUSH3 0x215E JUMP JUMPDEST DUP7 PUSH1 0x1 PUSH1 0x1 PUSH1 0xA0 SHL SUB AND DUP3 PUSH32 0x5F15A63B6B8E02C22F782F930B9456648F524CCCC3EDF511C77946340F4BDF78 DUP9 PUSH1 0x40 MLOAD PUSH3 0x2155 SWAP2 DUP2 MSTORE PUSH1 0x20 ADD SWAP1 JUMP JUMPDEST PUSH1 0x40 MLOAD DUP1 SWAP2 SUB SWAP1 LOG3 JUMPDEST SWAP1 SWAP3 POP SWAP1 POP PUSH3 0x216E PUSH1 0x1 PUSH1 0xB SSTORE JUMP JUMPDEST SWAP6 POP SWAP6 SWAP4 POP POP POP POP JUMP JUMPDEST PUSH3 0xBF3 DUP4 DUP4 DUP4 PUSH1 0x40 MLOAD DUP1 PUSH1 0x20 ADD PUSH1 0x40 MSTORE DUP1 PUSH1 0x0 DUP2 MSTORE POP PUSH3 0x2700 JUMP JUMPDEST PUSH1 0x0 PUSH3 0x21A1 PUSH1 0x8 SLOAD SWAP1 JUMP JUMPDEST DUP3 LT PUSH3 0x2206 JUMPI PUSH1 0x40 MLOAD PUSH3 0x461BCD PUSH1 0xE5 SHL DUP2 MSTORE PUSH1 0x20 PUSH1 0x4 DUP3 ADD MSTORE PUSH1 0x2C PUSH1 0x24 DUP3 ADD MSTORE PUSH32 0x455243373231456E756D657261626C653A20676C6F62616C20696E646578206F PUSH1 0x44 DUP3 ADD MSTORE PUSH12 0x7574206F6620626F756E6473 PUSH1 0xA0 SHL PUSH1 0x64 DUP3 ADD MSTORE PUSH1 0x84 ADD PUSH3 0x745 JUMP JUMPDEST PUSH1 0x8 DUP3 DUP2 SLOAD DUP2 LT PUSH3 0x221C JUMPI PUSH3 0x221C PUSH3 0x42B0 JUMP JUMPDEST SWAP1 PUSH1 0x0 MSTORE PUSH1 0x20 PUSH1 0x0 KECCAK256 ADD SLOAD SWAP1 POP SWAP2 SWAP1 POP JUMP JUMPDEST PUSH1 0x40 DUP1 MLOAD PUSH1 0x20 DUP1 DUP3 ADD DUP4 MSTORE PUSH1 0x60 DUP3 MSTORE PUSH1 0x1 PUSH1 0x1 PUSH1 0xA0 SHL SUB DUP5 AND PUSH1 0x0 SWAP1 DUP2 MSTORE PUSH1 0x14 DUP3 MSTORE DUP4 DUP2 KECCAK256 DUP5 MLOAD DUP2 SLOAD DUP1 DUP6 MUL DUP3 ADD DUP8 ADD DUP8 MSTORE SWAP4 DUP2 ADD DUP5 DUP2 MSTORE SWAP5 SWAP6 SWAP2 SWAP5 SWAP1 SWAP4 DUP6 SWAP4 DUP6 SWAP4 DUP6 SWAP3 SWAP2 SWAP1 DUP6 ADD JUMPDEST DUP3 DUP3 LT ISZERO PUSH3 0x2353 JUMPI PUSH1 0x0 DUP5 DUP2 MSTORE PUSH1 0x20 SWAP1 DUP2 SWAP1 KECCAK256 PUSH1 0x40 DUP1 MLOAD PUSH2 0x180 DUP2 ADD DUP3 MSTORE PUSH1 0x8 DUP7 MUL SWAP1 SWAP3 ADD DUP1 SLOAD DUP4 MSTORE PUSH1 0x1 DUP1 DUP3 ADD SLOAD PUSH1 0x1 PUSH1 0x1 PUSH1 0xA0 SHL SUB SWAP1 DUP2 AND DUP6 DUP8 ADD MSTORE PUSH1 0x2 DUP4 ADD SLOAD DUP2 AND SWAP4 DUP6 ADD SWAP4 SWAP1 SWAP4 MSTORE PUSH1 0x3 DUP3 ADD SLOAD DUP4 AND PUSH1 0x60 DUP6 ADD MSTORE PUSH1 0x4 DUP3 ADD SLOAD PUSH1 0x80 DUP6 ADD MSTORE PUSH1 0x5 DUP3 ADD SLOAD PUSH1 0xFF DUP1 DUP3 AND ISZERO ISZERO PUSH1 0xA0 DUP8 ADD MSTORE PUSH2 0x100 SWAP2 DUP3 SWAP1 DIV DUP2 AND ISZERO ISZERO PUSH1 0xC0 DUP8 ADD MSTORE PUSH1 0x6 DUP5 ADD SLOAD PUSH1 0xE0 DUP8 ADD MSTORE PUSH1 0x7 SWAP1 SWAP4 ADD SLOAD SWAP4 DUP5 AND SWAP1 DUP6 ADD MSTORE PUSH1 0x1 PUSH1 0xA0 SHL DUP4 DIV DUP3 AND ISZERO ISZERO PUSH2 0x120 DUP6 ADD MSTORE PUSH1 0x1 PUSH1 0xA8 SHL DUP4 DIV DUP3 AND ISZERO ISZERO PUSH2 0x140 DUP6 ADD MSTORE PUSH1 0x1 PUSH1 0xB0 SHL SWAP1 SWAP3 DIV AND ISZERO ISZERO PUSH2 0x160 DUP4 ADD MSTORE SWAP1 DUP4 MSTORE SWAP1 SWAP3 ADD SWAP2 ADD PUSH3 0x2277 JUMP JUMPDEST POP POP POP SWAP2 MSTORE POP SWAP1 SWAP5 SWAP4 POP POP POP POP JUMP JUMPDEST PUSH1 0x0 DUP1 PUSH3 0x2370 DUP4 PUSH3 0x2E08 JUMP JUMPDEST SWAP1 POP PUSH1 0x1 PUSH1 0x1 PUSH1 0xA0 SHL SUB DUP2 AND PUSH3 0xC20 JUMPI PUSH1 0x40 MLOAD PUSH3 0x461BCD PUSH1 0xE5 SHL DUP2 MSTORE PUSH1 0x4 ADD PUSH3 0x745 SWAP1 PUSH3 0x42C6 JUMP JUMPDEST PUSH1 0x0 PUSH1 0x1 PUSH1 0x1 PUSH1 0xA0 SHL SUB DUP3 AND PUSH3 0x2407 JUMPI PUSH1 0x40 MLOAD PUSH3 0x461BCD PUSH1 0xE5 SHL DUP2 MSTORE PUSH1 0x20 PUSH1 0x4 DUP3 ADD MSTORE PUSH1 0x29 PUSH1 0x24 DUP3 ADD MSTORE PUSH32 0x4552433732313A2061646472657373207A65726F206973206E6F742061207661 PUSH1 0x44 DUP3 ADD MSTORE PUSH9 0x3634B21037BBB732B9 PUSH1 0xB9 SHL PUSH1 0x64 DUP3 ADD MSTORE PUSH1 0x84 ADD PUSH3 0x745 JUMP JUMPDEST POP PUSH1 0x1 PUSH1 0x1 PUSH1 0xA0 SHL SUB AND PUSH1 0x0 SWAP1 DUP2 MSTORE PUSH1 0x3 PUSH1 0x20 MSTORE PUSH1 0x40 SWAP1 KECCAK256 SLOAD SWAP1 JUMP JUMPDEST PUSH3 0x242D PUSH3 0x2E23 JUMP JUMPDEST PUSH3 0x2439 PUSH1 0x0 PUSH3 0x2E7F JUMP JUMPDEST JUMP JUMPDEST PUSH3 0x2445 PUSH3 0x2A3C JUMP JUMPDEST CALLER PUSH3 0x2451 DUP4 PUSH3 0x2362 JUMP JUMPDEST PUSH1 0x1 PUSH1 0x1 PUSH1 0xA0 SHL SUB AND EQ DUP1 PUSH3 0x2471 JUMPI POP PUSH1 0xD SLOAD PUSH1 0x1 PUSH1 0x1 PUSH1 0xA0 SHL SUB AND CALLER EQ JUMPDEST PUSH3 0x2490 JUMPI PUSH1 0x40 MLOAD PUSH3 0x461BCD PUSH1 0xE5 SHL DUP2 MSTORE PUSH1 0x4 ADD PUSH3 0x745 SWAP1 PUSH3 0x40DC JUMP JUMPDEST PUSH3 0x249B DUP3 PUSH3 0xED7 JUMP JUMPDEST PUSH3 0x24D9 JUMPI PUSH1 0x40 MLOAD PUSH3 0x461BCD PUSH1 0xE5 SHL DUP2 MSTORE PUSH1 0x20 PUSH1 0x4 DUP3 ADD MSTORE PUSH1 0xD PUSH1 0x24 DUP3 ADD MSTORE PUSH13 0x696E76616C696420694C6F636B PUSH1 0x98 SHL PUSH1 0x44 DUP3 ADD MSTORE PUSH1 0x64 ADD PUSH3 0x745 JUMP JUMPDEST PUSH1 0x0 DUP3 DUP2 MSTORE PUSH1 0x12 PUSH1 0x20 MSTORE PUSH1 0x40 SWAP1 KECCAK256 PUSH1 0x7 DUP2 ADD SLOAD DUP3 ISZERO ISZERO PUSH1 0x1 PUSH1 0xA8 SHL SWAP1 SWAP2 DIV PUSH1 0xFF AND ISZERO ISZERO SUB PUSH3 0x2539 JUMPI PUSH1 0x40 MLOAD PUSH3 0x461BCD PUSH1 0xE5 SHL DUP2 MSTORE PUSH1 0x20 PUSH1 0x4 DUP3 ADD MSTORE PUSH1 0xB PUSH1 0x24 DUP3 ADD MSTORE PUSH11 0x185B1C9958591E481CD95D PUSH1 0xAA SHL PUSH1 0x44 DUP3 ADD MSTORE PUSH1 0x64 ADD PUSH3 0x745 JUMP JUMPDEST PUSH1 0x7 DUP2 ADD DUP1 SLOAD DUP4 ISZERO ISZERO PUSH1 0x1 PUSH1 0xA8 SHL MUL PUSH1 0xFF PUSH1 0xA8 SHL NOT SWAP1 SWAP2 AND OR SWAP1 SSTORE PUSH1 0x40 MLOAD DUP4 SWAP1 PUSH32 0x792B43B1B60EF204BECC6F6A88AF423F27A24B1197259BB393969F0194897230 SWAP1 PUSH3 0x258B SWAP1 DUP6 ISZERO ISZERO DUP2 MSTORE PUSH1 0x20 ADD SWAP1 JUMP JUMPDEST PUSH1 0x40 MLOAD DUP1 SWAP2 SUB SWAP1 LOG2 POP PUSH3 0x259F PUSH1 0x1 PUSH1 0xB SSTORE JUMP JUMPDEST POP POP JUMP JUMPDEST PUSH1 0x60 PUSH1 0x18 DUP1 SLOAD PUSH3 0xD0A SWAP1 PUSH3 0x415D JUMP JUMPDEST PUSH1 0xD SLOAD PUSH1 0x60 SWAP1 PUSH1 0x1 PUSH1 0x1 PUSH1 0xA0 SHL SUB AND CALLER PUSH1 0x1 PUSH1 0x1 PUSH1 0xA0 SHL SUB AND EQ PUSH3 0x25ED JUMPI PUSH1 0x40 MLOAD PUSH3 0x461BCD PUSH1 0xE5 SHL DUP2 MSTORE PUSH1 0x4 ADD PUSH3 0x745 SWAP1 PUSH3 0x4199 JUMP JUMPDEST PUSH1 0xC DUP1 SLOAD PUSH1 0x40 DUP1 MLOAD PUSH1 0x20 DUP1 DUP5 MUL DUP3 ADD DUP2 ADD SWAP1 SWAP3 MSTORE DUP3 DUP2 MSTORE SWAP2 DUP4 SWAP2 PUSH1 0x0 SWAP1 DUP5 ADD JUMPDEST DUP3 DUP3 LT ISZERO PUSH3 0x26E9 JUMPI PUSH1 0x0 DUP5 DUP2 MSTORE PUSH1 0x20 SWAP1 DUP2 SWAP1 KECCAK256 PUSH1 0x40 DUP1 MLOAD PUSH2 0x180 DUP2 ADD DUP3 MSTORE PUSH1 0x8 DUP7 MUL SWAP1 SWAP3 ADD DUP1 SLOAD DUP4 MSTORE PUSH1 0x1 DUP1 DUP3 ADD SLOAD PUSH1 0x1 PUSH1 0x1 PUSH1 0xA0 SHL SUB SWAP1 DUP2 AND DUP6 DUP8 ADD MSTORE PUSH1 0x2 DUP4 ADD SLOAD DUP2 AND SWAP4 DUP6 ADD SWAP4 SWAP1 SWAP4 MSTORE PUSH1 0x3 DUP3 ADD SLOAD DUP4 AND PUSH1 0x60 DUP6 ADD MSTORE PUSH1 0x4 DUP3 ADD SLOAD PUSH1 0x80 DUP6 ADD MSTORE PUSH1 0x5 DUP3 ADD SLOAD PUSH1 0xFF DUP1 DUP3 AND ISZERO ISZERO PUSH1 0xA0 DUP8 ADD MSTORE PUSH2 0x100 SWAP2 DUP3 SWAP1 DIV DUP2 AND ISZERO ISZERO PUSH1 0xC0 DUP8 ADD MSTORE PUSH1 0x6 DUP5 ADD SLOAD PUSH1 0xE0 DUP8 ADD MSTORE PUSH1 0x7 SWAP1 SWAP4 ADD SLOAD SWAP4 DUP5 AND SWAP1 DUP6 ADD MSTORE PUSH1 0x1 PUSH1 0xA0 SHL DUP4 DIV DUP3 AND ISZERO ISZERO PUSH2 0x120 DUP6 ADD MSTORE PUSH1 0x1 PUSH1 0xA8 SHL DUP4 DIV DUP3 AND ISZERO ISZERO PUSH2 0x140 DUP6 ADD MSTORE PUSH1 0x1 PUSH1 0xB0 SHL SWAP1 SWAP3 DIV AND ISZERO ISZERO PUSH2 0x160 DUP4 ADD MSTORE SWAP1 DUP4 MSTORE SWAP1 SWAP3 ADD SWAP2 ADD PUSH3 0x260D JUMP JUMPDEST POP POP POP POP SWAP2 POP POP SWAP1 JUMP JUMPDEST PUSH3 0x259F CALLER DUP4 DUP4 PUSH3 0x2ED1 JUMP JUMPDEST PUSH3 0x270C CALLER DUP4 PUSH3 0x2C1C JUMP JUMPDEST PUSH3 0x272B JUMPI PUSH1 0x40 MLOAD PUSH3 0x461BCD PUSH1 0xE5 SHL DUP2 MSTORE PUSH1 0x4 ADD PUSH3 0x745 SWAP1 PUSH3 0x41C1 JUMP JUMPDEST PUSH3 0x2739 DUP5 DUP5 DUP5 DUP5 PUSH3 0x2F9D JUMP JUMPDEST POP POP POP POP JUMP JUMPDEST CALLER PUSH1 0x0 SWAP1 DUP2 MSTORE PUSH1 0x14 PUSH1 0x20 SWAP1 DUP2 MSTORE PUSH1 0x40 DUP1 DUP4 KECCAK256 DUP1 SLOAD DUP3 MLOAD DUP2 DUP6 MUL DUP2 ADD DUP6 ADD SWAP1 SWAP4 MSTORE DUP1 DUP4 MSTORE PUSH1 0x60 SWAP5 SWAP2 SWAP4 DUP5 SWAP3 SWAP1 DUP5 ADD DUP3 ISZERO PUSH3 0x26E9 JUMPI PUSH1 0x0 DUP5 DUP2 MSTORE PUSH1 0x20 SWAP1 DUP2 SWAP1 KECCAK256 PUSH1 0x40 DUP1 MLOAD PUSH2 0x180 DUP2 ADD DUP3 MSTORE PUSH1 0x8 DUP7 MUL SWAP1 SWAP3 ADD DUP1 SLOAD DUP4 MSTORE PUSH1 0x1 DUP1 DUP3 ADD SLOAD PUSH1 0x1 PUSH1 0x1 PUSH1 0xA0 SHL SUB SWAP1 DUP2 AND DUP6 DUP8 ADD MSTORE PUSH1 0x2 DUP4 ADD SLOAD DUP2 AND SWAP4 DUP6 ADD SWAP4 SWAP1 SWAP4 MSTORE PUSH1 0x3 DUP3 ADD SLOAD DUP4 AND PUSH1 0x60 DUP6 ADD MSTORE PUSH1 0x4 DUP3 ADD SLOAD PUSH1 0x80 DUP6 ADD MSTORE PUSH1 0x5 DUP3 ADD SLOAD PUSH1 0xFF DUP1 DUP3 AND ISZERO ISZERO PUSH1 0xA0 DUP8 ADD MSTORE PUSH2 0x100 SWAP2 DUP3 SWAP1 DIV DUP2 AND ISZERO ISZERO PUSH1 0xC0 DUP8 ADD MSTORE PUSH1 0x6 DUP5 ADD SLOAD PUSH1 0xE0 DUP8 ADD MSTORE PUSH1 0x7 SWAP1 SWAP4 ADD SLOAD SWAP4 DUP5 AND SWAP1 DUP6 ADD MSTORE PUSH1 0x1 PUSH1 0xA0 SHL DUP4 DIV DUP3 AND ISZERO ISZERO PUSH2 0x120 DUP6 ADD MSTORE PUSH1 0x1 PUSH1 0xA8 SHL DUP4 DIV DUP3 AND ISZERO ISZERO PUSH2 0x140 DUP6 ADD MSTORE PUSH1 0x1 PUSH1 0xB0 SHL SWAP1 SWAP3 DIV AND ISZERO ISZERO PUSH2 0x160 DUP4 ADD MSTORE SWAP1 DUP4 MSTORE SWAP1 SWAP3 ADD SWAP2 ADD PUSH3 0x260D JUMP JUMPDEST PUSH1 0x60 PUSH3 0x2853 DUP3 PUSH3 0x2B82 JUMP JUMPDEST PUSH1 0x0 PUSH3 0x286B PUSH1 0x40 DUP1 MLOAD PUSH1 0x20 DUP2 ADD SWAP1 SWAP2 MSTORE PUSH1 0x0 DUP2 MSTORE SWAP1 JUMP JUMPDEST SWAP1 POP PUSH1 0x0 DUP2 MLOAD GT PUSH3 0x288D JUMPI PUSH1 0x40 MLOAD DUP1 PUSH1 0x20 ADD PUSH1 0x40 MSTORE DUP1 PUSH1 0x0 DUP2 MSTORE POP PUSH3 0x28BC JUMP JUMPDEST DUP1 PUSH3 0x2899 DUP5 PUSH3 0x2FD7 JUMP JUMPDEST PUSH1 0x40 MLOAD PUSH1 0x20 ADD PUSH3 0x28AC SWAP3 SWAP2 SWAP1 PUSH3 0x42F8 JUMP JUMPDEST PUSH1 0x40 MLOAD PUSH1 0x20 DUP2 DUP4 SUB SUB DUP2 MSTORE SWAP1 PUSH1 0x40 MSTORE JUMPDEST SWAP4 SWAP3 POP POP POP JUMP JUMPDEST PUSH1 0x0 DUP1 PUSH3 0x28D0 PUSH1 0xE SLOAD SWAP1 JUMP JUMPDEST PUSH1 0xF SLOAD SWAP2 POP SWAP2 POP SWAP1 SWAP2 JUMP JUMPDEST PUSH3 0x28E5 PUSH3 0x3A87 JUMP JUMPDEST PUSH3 0x28F0 DUP3 PUSH3 0xED7 JUMP JUMPDEST PUSH3 0xC30 JUMPI PUSH1 0x40 MLOAD PUSH3 0x461BCD PUSH1 0xE5 SHL DUP2 MSTORE PUSH1 0x20 PUSH1 0x4 DUP3 ADD MSTORE PUSH1 0xC PUSH1 0x24 DUP3 ADD MSTORE PUSH12 0x6F7574206F662072616E6765 PUSH1 0xA0 SHL PUSH1 0x44 DUP3 ADD MSTORE PUSH1 0x64 ADD PUSH3 0x745 JUMP JUMPDEST PUSH1 0x1 PUSH1 0x1 PUSH1 0xA0 SHL SUB SWAP2 DUP3 AND PUSH1 0x0 SWAP1 DUP2 MSTORE PUSH1 0x5 PUSH1 0x20 SWAP1 DUP2 MSTORE PUSH1 0x40 DUP1 DUP4 KECCAK256 SWAP4 SWAP1 SWAP5 AND DUP3 MSTORE SWAP2 SWAP1 SWAP2 MSTORE KECCAK256 SLOAD PUSH1 0xFF AND SWAP1 JUMP JUMPDEST PUSH3 0x2965 PUSH3 0x2E23 JUMP JUMPDEST PUSH1 0x1 PUSH1 0x1 PUSH1 0xA0 SHL SUB DUP2 AND PUSH3 0x29CC JUMPI PUSH1 0x40 MLOAD PUSH3 0x461BCD PUSH1 0xE5 SHL DUP2 MSTORE PUSH1 0x20 PUSH1 0x4 DUP3 ADD MSTORE PUSH1 0x26 PUSH1 0x24 DUP3 ADD MSTORE PUSH32 0x4F776E61626C653A206E6577206F776E657220697320746865207A65726F2061 PUSH1 0x44 DUP3 ADD MSTORE PUSH6 0x646472657373 PUSH1 0xD0 SHL PUSH1 0x64 DUP3 ADD MSTORE PUSH1 0x84 ADD PUSH3 0x745 JUMP JUMPDEST PUSH3 0x29D7 DUP2 PUSH3 0x2E7F JUMP JUMPDEST POP JUMP JUMPDEST CALLER PUSH1 0x0 SWAP1 DUP2 MSTORE PUSH1 0x16 PUSH1 0x20 SWAP1 DUP2 MSTORE PUSH1 0x40 SWAP2 DUP3 SWAP1 KECCAK256 DUP1 SLOAD DUP4 MLOAD DUP2 DUP5 MUL DUP2 ADD DUP5 ADD SWAP1 SWAP5 MSTORE DUP1 DUP5 MSTORE PUSH1 0x60 SWAP4 SWAP3 DUP4 ADD DUP3 DUP3 DUP1 ISZERO PUSH3 0xD89 JUMPI PUSH1 0x20 MUL DUP3 ADD SWAP2 SWAP1 PUSH1 0x0 MSTORE PUSH1 0x20 PUSH1 0x0 KECCAK256 SWAP1 JUMPDEST DUP2 SLOAD DUP2 MSTORE PUSH1 0x20 ADD SWAP1 PUSH1 0x1 ADD SWAP1 DUP1 DUP4 GT PUSH3 0x2A1E JUMPI POP POP POP POP POP SWAP1 POP SWAP1 JUMP JUMPDEST PUSH1 0x2 PUSH1 0xB SLOAD SUB PUSH3 0x2A90 JUMPI PUSH1 0x40 MLOAD PUSH3 0x461BCD PUSH1 0xE5 SHL DUP2 MSTORE PUSH1 0x20 PUSH1 0x4 DUP3 ADD MSTORE PUSH1 0x1F PUSH1 0x24 DUP3 ADD MSTORE PUSH32 0x5265656E7472616E637947756172643A207265656E7472616E742063616C6C00 PUSH1 0x44 DUP3 ADD MSTORE PUSH1 0x64 ADD PUSH3 0x745 JUMP JUMPDEST PUSH1 0x2 PUSH1 0xB SSTORE JUMP JUMPDEST PUSH1 0x0 PUSH3 0x2AA4 DUP3 PUSH3 0x2362 JUMP JUMPDEST SWAP1 POP PUSH3 0x2AB6 DUP2 PUSH1 0x0 DUP5 PUSH1 0x1 PUSH3 0x3071 JUMP JUMPDEST PUSH3 0x2AC1 DUP3 PUSH3 0x2362 JUMP JUMPDEST PUSH1 0x0 DUP4 DUP2 MSTORE PUSH1 0x4 PUSH1 0x20 SWAP1 DUP2 MSTORE PUSH1 0x40 DUP1 DUP4 KECCAK256 DUP1 SLOAD PUSH1 0x1 PUSH1 0x1 PUSH1 0xA0 SHL SUB NOT SWAP1 DUP2 AND SWAP1 SWAP2 SSTORE PUSH1 0x1 PUSH1 0x1 PUSH1 0xA0 SHL SUB DUP6 AND DUP1 DUP6 MSTORE PUSH1 0x3 DUP5 MSTORE DUP3 DUP6 KECCAK256 DUP1 SLOAD PUSH1 0x0 NOT ADD SWAP1 SSTORE DUP8 DUP6 MSTORE PUSH1 0x2 SWAP1 SWAP4 MSTORE DUP2 DUP5 KECCAK256 DUP1 SLOAD SWAP1 SWAP2 AND SWAP1 SSTORE MLOAD SWAP3 SWAP4 POP DUP5 SWAP3 PUSH1 0x0 DUP1 MLOAD PUSH1 0x20 PUSH3 0x5EED DUP4 CODECOPY DUP2 MLOAD SWAP2 MSTORE SWAP1 DUP4 SWAP1 LOG4 POP POP JUMP JUMPDEST PUSH1 0x0 PUSH1 0x1 PUSH1 0x1 PUSH1 0xE0 SHL SUB NOT DUP3 AND PUSH4 0x80AC58CD PUSH1 0xE0 SHL EQ DUP1 PUSH3 0x2B61 JUMPI POP PUSH1 0x1 PUSH1 0x1 PUSH1 0xE0 SHL SUB NOT DUP3 AND PUSH4 0x5B5E139F PUSH1 0xE0 SHL EQ JUMPDEST DUP1 PUSH3 0xC20 JUMPI POP PUSH4 0x1FFC9A7 PUSH1 0xE0 SHL PUSH1 0x1 PUSH1 0x1 PUSH1 0xE0 SHL SUB NOT DUP4 AND EQ PUSH3 0xC20 JUMP JUMPDEST PUSH3 0x2B8D DUP2 PUSH3 0x31A7 JUMP JUMPDEST PUSH3 0x29D7 JUMPI PUSH1 0x40 MLOAD PUSH3 0x461BCD PUSH1 0xE5 SHL DUP2 MSTORE PUSH1 0x4 ADD PUSH3 0x745 SWAP1 PUSH3 0x42C6 JUMP JUMPDEST PUSH1 0x0 DUP2 DUP2 MSTORE PUSH1 0x4 PUSH1 0x20 MSTORE PUSH1 0x40 SWAP1 KECCAK256 DUP1 SLOAD PUSH1 0x1 PUSH1 0x1 PUSH1 0xA0 SHL SUB NOT AND PUSH1 0x1 PUSH1 0x1 PUSH1 0xA0 SHL SUB DUP5 AND SWAP1 DUP2 OR SWAP1 SWAP2 SSTORE DUP2 SWAP1 PUSH3 0x2BE3 DUP3 PUSH3 0x2362 JUMP JUMPDEST PUSH1 0x1 PUSH1 0x1 PUSH1 0xA0 SHL SUB AND PUSH32 0x8C5BE1E5EBEC7D5BD14F71427D1E84F3DD0314C0F7B2291E5B200AC8C7C3B925 PUSH1 0x40 MLOAD PUSH1 0x40 MLOAD DUP1 SWAP2 SUB SWAP1 LOG4 POP POP JUMP JUMPDEST PUSH1 0x0 DUP1 PUSH3 0x2C2A DUP4 PUSH3 0x2362 JUMP JUMPDEST SWAP1 POP DUP1 PUSH1 0x1 PUSH1 0x1 PUSH1 0xA0 SHL SUB AND DUP5 PUSH1 0x1 PUSH1 0x1 PUSH1 0xA0 SHL SUB AND EQ DUP1 PUSH3 0x2C54 JUMPI POP PUSH3 0x2C54 DUP2 DUP6 PUSH3 0x292D JUMP JUMPDEST DUP1 PUSH3 0x2C7B JUMPI POP DUP4 PUSH1 0x1 PUSH1 0x1 PUSH1 0xA0 SHL SUB AND PUSH3 0x2C70 DUP5 PUSH3 0xD93 JUMP JUMPDEST PUSH1 0x1 PUSH1 0x1 PUSH1 0xA0 SHL SUB AND EQ JUMPDEST SWAP5 SWAP4 POP POP POP POP JUMP JUMPDEST PUSH3 0x2C8D PUSH3 0x2A3C JUMP JUMPDEST PUSH1 0x0 DUP2 DUP2 MSTORE PUSH1 0x12 PUSH1 0x20 MSTORE PUSH1 0x40 SWAP1 KECCAK256 PUSH1 0x3 DUP2 ADD SLOAD PUSH1 0x1 PUSH1 0x1 PUSH1 0xA0 SHL SUB DUP6 DUP2 AND SWAP2 AND EQ PUSH3 0x2CB8 JUMPI PUSH1 0x0 DUP1 REVERT JUMPDEST PUSH1 0x3 DUP2 ADD DUP1 SLOAD PUSH1 0x1 PUSH1 0x1 PUSH1 0xA0 SHL SUB NOT AND PUSH1 0x1 PUSH1 0x1 PUSH1 0xA0 SHL SUB DUP6 DUP2 AND SWAP2 SWAP1 SWAP2 OR SWAP1 SWAP2 SSTORE PUSH1 0x7 DUP3 ADD SLOAD PUSH1 0x40 MLOAD PUSH4 0x7EA64DCB PUSH1 0xE1 SHL DUP2 MSTORE SWAP2 AND SWAP1 PUSH4 0xFD4C9B96 SWAP1 PUSH3 0x2D05 SWAP1 DUP7 SWAP1 PUSH1 0x4 ADD PUSH3 0x3D0C JUMP JUMPDEST PUSH1 0x20 PUSH1 0x40 MLOAD DUP1 DUP4 SUB DUP2 PUSH1 0x0 DUP8 GAS CALL ISZERO DUP1 ISZERO PUSH3 0x2D25 JUMPI RETURNDATASIZE PUSH1 0x0 DUP1 RETURNDATACOPY RETURNDATASIZE PUSH1 0x0 REVERT JUMPDEST POP POP POP POP PUSH1 0x40 MLOAD RETURNDATASIZE PUSH1 0x1F NOT PUSH1 0x1F DUP3 ADD AND DUP3 ADD DUP1 PUSH1 0x40 MSTORE POP DUP2 ADD SWAP1 PUSH3 0x2D4B SWAP2 SWAP1 PUSH3 0x413D JUMP JUMPDEST PUSH3 0x2D55 JUMPI PUSH1 0x0 DUP1 REVERT JUMPDEST PUSH3 0x2D62 DUP5 DUP5 DUP5 PUSH3 0x31C6 JUMP JUMPDEST POP PUSH3 0xBF3 PUSH1 0x1 PUSH1 0xB SSTORE JUMP JUMPDEST PUSH3 0xBF3 DUP4 PUSH4 0xA9059CBB PUSH1 0xE0 SHL DUP5 DUP5 PUSH1 0x40 MLOAD PUSH1 0x24 ADD PUSH3 0x2D90 SWAP3 SWAP2 SWAP1 PUSH3 0x4124 JUMP JUMPDEST PUSH1 0x40 DUP1 MLOAD PUSH1 0x1F NOT DUP2 DUP5 SUB ADD DUP2 MSTORE SWAP2 SWAP1 MSTORE PUSH1 0x20 DUP2 ADD DUP1 MLOAD PUSH1 0x1 PUSH1 0x1 PUSH1 0xE0 SHL SUB AND PUSH1 0x1 PUSH1 0x1 PUSH1 0xE0 SHL SUB NOT SWAP1 SWAP4 AND SWAP3 SWAP1 SWAP3 OR SWAP1 SWAP2 MSTORE PUSH3 0x3334 JUMP JUMPDEST PUSH3 0x2739 DUP5 PUSH4 0x23B872DD PUSH1 0xE0 SHL DUP6 DUP6 DUP6 PUSH1 0x40 MLOAD PUSH1 0x24 ADD PUSH3 0x2D90 SWAP4 SWAP3 SWAP2 SWAP1 PUSH3 0x420E JUMP JUMPDEST PUSH3 0x259F DUP3 DUP3 PUSH1 0x40 MLOAD DUP1 PUSH1 0x20 ADD PUSH1 0x40 MSTORE DUP1 PUSH1 0x0 DUP2 MSTORE POP PUSH3 0x340D JUMP JUMPDEST PUSH1 0x0 SWAP1 DUP2 MSTORE PUSH1 0x2 PUSH1 0x20 MSTORE PUSH1 0x40 SWAP1 KECCAK256 SLOAD PUSH1 0x1 PUSH1 0x1 PUSH1 0xA0 SHL SUB AND SWAP1 JUMP JUMPDEST PUSH1 0xA SLOAD PUSH1 0x1 PUSH1 0x1 PUSH1 0xA0 SHL SUB AND CALLER EQ PUSH3 0x2439 JUMPI PUSH1 0x40 MLOAD PUSH3 0x461BCD PUSH1 0xE5 SHL DUP2 MSTORE PUSH1 0x20 PUSH1 0x4 DUP3 ADD DUP2 SWAP1 MSTORE PUSH1 0x24 DUP3 ADD MSTORE PUSH32 0x4F776E61626C653A2063616C6C6572206973206E6F7420746865206F776E6572 PUSH1 0x44 DUP3 ADD MSTORE PUSH1 0x64 ADD PUSH3 0x745 JUMP JUMPDEST PUSH1 0xA DUP1 SLOAD PUSH1 0x1 PUSH1 0x1 PUSH1 0xA0 SHL SUB DUP4 DUP2 AND PUSH1 0x1 PUSH1 0x1 PUSH1 0xA0 SHL SUB NOT DUP4 AND DUP2 OR SWAP1 SWAP4 SSTORE PUSH1 0x40 MLOAD SWAP2 AND SWAP2 SWAP1 DUP3 SWAP1 PUSH32 0x8BE0079C531659141344CD1FD0A4F28419497F9722A3DAAFE3B4186F6B6457E0 SWAP1 PUSH1 0x0 SWAP1 LOG3 POP POP JUMP JUMPDEST DUP2 PUSH1 0x1 PUSH1 0x1 PUSH1 0xA0 SHL SUB AND DUP4 PUSH1 0x1 PUSH1 0x1 PUSH1 0xA0 SHL SUB AND SUB PUSH3 0x2F30 JUMPI PUSH1 0x40 MLOAD PUSH3 0x461BCD PUSH1 0xE5 SHL DUP2 MSTORE PUSH1 0x20 PUSH1 0x4 DUP3 ADD MSTORE PUSH1 0x19 PUSH1 0x24 DUP3 ADD MSTORE PUSH25 0x22A9219B99189D1030B8383937BB32903A379031B0B63632B9 PUSH1 0x39 SHL PUSH1 0x44 DUP3 ADD MSTORE PUSH1 0x64 ADD PUSH3 0x745 JUMP JUMPDEST PUSH1 0x1 PUSH1 0x1 PUSH1 0xA0 SHL SUB DUP4 DUP2 AND PUSH1 0x0 DUP2 DUP2 MSTORE PUSH1 0x5 PUSH1 0x20 SWAP1 DUP2 MSTORE PUSH1 0x40 DUP1 DUP4 KECCAK256 SWAP5 DUP8 AND DUP1 DUP5 MSTORE SWAP5 DUP3 MSTORE SWAP2 DUP3 SWAP1 KECCAK256 DUP1 SLOAD PUSH1 0xFF NOT AND DUP7 ISZERO ISZERO SWAP1 DUP2 OR SWAP1 SWAP2 SSTORE SWAP2 MLOAD SWAP2 DUP3 MSTORE PUSH32 0x17307EAB39AB6107E8899845AD3D59BD9653F200F220920489CA2B5937696C31 SWAP2 ADD PUSH1 0x40 MLOAD DUP1 SWAP2 SUB SWAP1 LOG3 POP POP POP JUMP JUMPDEST PUSH3 0x2FAA DUP5 DUP5 DUP5 PUSH3 0x2C83 JUMP JUMPDEST PUSH3 0x2FB8 DUP5 DUP5 DUP5 DUP5 PUSH3 0x3447 JUMP JUMPDEST PUSH3 0x2739 JUMPI PUSH1 0x40 MLOAD PUSH3 0x461BCD PUSH1 0xE5 SHL DUP2 MSTORE PUSH1 0x4 ADD PUSH3 0x745 SWAP1 PUSH3 0x432B JUMP JUMPDEST PUSH1 0x60 PUSH1 0x0 PUSH3 0x2FE6 DUP4 PUSH3 0x3555 JUMP JUMPDEST PUSH1 0x1 ADD SWAP1 POP PUSH1 0x0 DUP2 PUSH8 0xFFFFFFFFFFFFFFFF DUP2 GT ISZERO PUSH3 0x3009 JUMPI PUSH3 0x3009 PUSH3 0x3F5F JUMP JUMPDEST PUSH1 0x40 MLOAD SWAP1 DUP1 DUP3 MSTORE DUP1 PUSH1 0x1F ADD PUSH1 0x1F NOT AND PUSH1 0x20 ADD DUP3 ADD PUSH1 0x40 MSTORE DUP1 ISZERO PUSH3 0x3034 JUMPI PUSH1 0x20 DUP3 ADD DUP2 DUP1 CALLDATASIZE DUP4 CALLDATACOPY ADD SWAP1 POP JUMPDEST POP SWAP1 POP DUP2 DUP2 ADD PUSH1 0x20 ADD JUMPDEST PUSH1 0x0 NOT ADD PUSH16 0x181899199A1A9B1B9C1CB0B131B232B3 PUSH1 0x81 SHL PUSH1 0xA DUP7 MOD BYTE DUP2 MSTORE8 PUSH1 0xA DUP6 DIV SWAP5 POP DUP5 PUSH3 0x303E JUMPI POP SWAP4 SWAP3 POP POP POP JUMP JUMPDEST PUSH1 0x1 DUP2 GT ISZERO PUSH3 0x30E2 JUMPI PUSH1 0x40 MLOAD PUSH3 0x461BCD PUSH1 0xE5 SHL DUP2 MSTORE PUSH1 0x20 PUSH1 0x4 DUP3 ADD MSTORE PUSH1 0x35 PUSH1 0x24 DUP3 ADD MSTORE PUSH32 0x455243373231456E756D657261626C653A20636F6E7365637574697665207472 PUSH1 0x44 DUP3 ADD MSTORE PUSH21 0x185B9CD9995C9CC81B9BDD081CDD5C1C1BDC9D1959 PUSH1 0x5A SHL PUSH1 0x64 DUP3 ADD MSTORE PUSH1 0x84 ADD PUSH3 0x745 JUMP JUMPDEST DUP2 PUSH1 0x1 PUSH1 0x1 PUSH1 0xA0 SHL SUB DUP6 AND PUSH3 0x3141 JUMPI PUSH3 0x313B DUP2 PUSH1 0x8 DUP1 SLOAD PUSH1 0x0 DUP4 DUP2 MSTORE PUSH1 0x9 PUSH1 0x20 MSTORE PUSH1 0x40 DUP2 KECCAK256 DUP3 SWAP1 SSTORE PUSH1 0x1 DUP3 ADD DUP4 SSTORE SWAP2 SWAP1 SWAP2 MSTORE PUSH32 0xF3F7A9FE364FAAB93B216DA50A3214154F22A0A2B415B23A84C8169E8B636EE3 ADD SSTORE JUMP JUMPDEST PUSH3 0x3167 JUMP JUMPDEST DUP4 PUSH1 0x1 PUSH1 0x1 PUSH1 0xA0 SHL SUB AND DUP6 PUSH1 0x1 PUSH1 0x1 PUSH1 0xA0 SHL SUB AND EQ PUSH3 0x3167 JUMPI PUSH3 0x3167 DUP6 DUP3 PUSH3 0x3632 JUMP JUMPDEST PUSH1 0x1 PUSH1 0x1 PUSH1 0xA0 SHL SUB DUP5 AND PUSH3 0x3181 JUMPI PUSH3 0x12D4 DUP2 PUSH3 0x36D4 JUMP JUMPDEST DUP5 PUSH1 0x1 PUSH1 0x1 PUSH1 0xA0 SHL SUB AND DUP5 PUSH1 0x1 PUSH1 0x1 PUSH1 0xA0 SHL SUB AND EQ PUSH3 0x134A JUMPI PUSH3 0x134A DUP5 DUP3 PUSH3 0x378E JUMP JUMPDEST PUSH1 0x0 DUP1 PUSH3 0x31B5 DUP4 PUSH3 0x2E08 JUMP JUMPDEST PUSH1 0x1 PUSH1 0x1 PUSH1 0xA0 SHL SUB AND EQ ISZERO SWAP3 SWAP2 POP POP JUMP JUMPDEST DUP3 PUSH1 0x1 PUSH1 0x1 PUSH1 0xA0 SHL SUB AND PUSH3 0x31DB DUP3 PUSH3 0x2362 JUMP JUMPDEST PUSH1 0x1 PUSH1 0x1 PUSH1 0xA0 SHL SUB AND EQ PUSH3 0x3204 JUMPI PUSH1 0x40 MLOAD PUSH3 0x461BCD PUSH1 0xE5 SHL DUP2 MSTORE PUSH1 0x4 ADD PUSH3 0x745 SWAP1 PUSH3 0x437D JUMP JUMPDEST PUSH1 0x1 PUSH1 0x1 PUSH1 0xA0 SHL SUB DUP3 AND PUSH3 0x3268 JUMPI PUSH1 0x40 MLOAD PUSH3 0x461BCD PUSH1 0xE5 SHL DUP2 MSTORE PUSH1 0x20 PUSH1 0x4 DUP3 ADD MSTORE PUSH1 0x24 DUP1 DUP3 ADD MSTORE PUSH32 0x4552433732313A207472616E7366657220746F20746865207A65726F20616464 PUSH1 0x44 DUP3 ADD MSTORE PUSH4 0x72657373 PUSH1 0xE0 SHL PUSH1 0x64 DUP3 ADD MSTORE PUSH1 0x84 ADD PUSH3 0x745 JUMP JUMPDEST PUSH3 0x3277 DUP4 DUP4 DUP4 PUSH1 0x1 PUSH3 0x3071 JUMP JUMPDEST DUP3 PUSH1 0x1 PUSH1 0x1 PUSH1 0xA0 SHL SUB AND PUSH3 0x328C DUP3 PUSH3 0x2362 JUMP JUMPDEST PUSH1 0x1 PUSH1 0x1 PUSH1 0xA0 SHL SUB AND EQ PUSH3 0x32B5 JUMPI PUSH1 0x40 MLOAD PUSH3 0x461BCD PUSH1 0xE5 SHL DUP2 MSTORE PUSH1 0x4 ADD PUSH3 0x745 SWAP1 PUSH3 0x437D JUMP JUMPDEST PUSH1 0x0 DUP2 DUP2 MSTORE PUSH1 0x4 PUSH1 0x20 SWAP1 DUP2 MSTORE PUSH1 0x40 DUP1 DUP4 KECCAK256 DUP1 SLOAD PUSH1 0x1 PUSH1 0x1 PUSH1 0xA0 SHL SUB NOT SWAP1 DUP2 AND SWAP1 SWAP2 SSTORE PUSH1 0x1 PUSH1 0x1 PUSH1 0xA0 SHL SUB DUP8 DUP2 AND DUP1 DUP7 MSTORE PUSH1 0x3 DUP6 MSTORE DUP4 DUP7 KECCAK256 DUP1 SLOAD PUSH1 0x0 NOT ADD SWAP1 SSTORE SWAP1 DUP8 AND DUP1 DUP7 MSTORE DUP4 DUP7 KECCAK256 DUP1 SLOAD PUSH1 0x1 ADD SWAP1 SSTORE DUP7 DUP7 MSTORE PUSH1 0x2 SWAP1 SWAP5 MSTORE DUP3 DUP6 KECCAK256 DUP1 SLOAD SWAP1 SWAP3 AND DUP5 OR SWAP1 SWAP2 SSTORE SWAP1 MLOAD DUP5 SWAP4 PUSH1 0x0 DUP1 MLOAD PUSH1 0x20 PUSH3 0x5EED DUP4 CODECOPY DUP2 MLOAD SWAP2 MSTORE SWAP2 LOG4 POP POP POP JUMP JUMPDEST PUSH1 0x0 PUSH3 0x338B DUP3 PUSH1 0x40 MLOAD DUP1 PUSH1 0x40 ADD PUSH1 0x40 MSTORE DUP1 PUSH1 0x20 DUP2 MSTORE PUSH1 0x20 ADD PUSH32 0x5361666545524332303A206C6F772D6C6576656C2063616C6C206661696C6564 DUP2 MSTORE POP DUP6 PUSH1 0x1 PUSH1 0x1 PUSH1 0xA0 SHL SUB AND PUSH3 0x37D4 SWAP1 SWAP3 SWAP2 SWAP1 PUSH4 0xFFFFFFFF AND JUMP JUMPDEST DUP1 MLOAD SWAP1 SWAP2 POP ISZERO PUSH3 0xBF3 JUMPI DUP1 DUP1 PUSH1 0x20 ADD SWAP1 MLOAD DUP2 ADD SWAP1 PUSH3 0x33AC SWAP2 SWAP1 PUSH3 0x413D JUMP JUMPDEST PUSH3 0xBF3 JUMPI PUSH1 0x40 MLOAD PUSH3 0x461BCD PUSH1 0xE5 SHL DUP2 MSTORE PUSH1 0x20 PUSH1 0x4 DUP3 ADD MSTORE PUSH1 0x2A PUSH1 0x24 DUP3 ADD MSTORE PUSH32 0x5361666545524332303A204552433230206F7065726174696F6E20646964206E PUSH1 0x44 DUP3 ADD MSTORE PUSH10 0x1BDD081CDD58D8D95959 PUSH1 0xB2 SHL PUSH1 0x64 DUP3 ADD MSTORE PUSH1 0x84 ADD PUSH3 0x745 JUMP JUMPDEST PUSH3 0x3419 DUP4 DUP4 PUSH3 0x37E5 JUMP JUMPDEST PUSH3 0x3428 PUSH1 0x0 DUP5 DUP5 DUP5 PUSH3 0x3447 JUMP JUMPDEST PUSH3 0xBF3 JUMPI PUSH1 0x40 MLOAD PUSH3 0x461BCD PUSH1 0xE5 SHL DUP2 MSTORE PUSH1 0x4 ADD PUSH3 0x745 SWAP1 PUSH3 0x432B JUMP JUMPDEST PUSH1 0x0 PUSH1 0x1 PUSH1 0x1 PUSH1 0xA0 SHL SUB DUP5 AND EXTCODESIZE ISZERO PUSH3 0x354A JUMPI PUSH1 0x40 MLOAD PUSH4 0xA85BD01 PUSH1 0xE1 SHL DUP2 MSTORE PUSH1 0x1 PUSH1 0x1 PUSH1 0xA0 SHL SUB DUP6 AND SWAP1 PUSH4 0x150B7A02 SWAP1 PUSH3 0x348E SWAP1 CALLER SWAP1 DUP10 SWAP1 DUP9 SWAP1 DUP9 SWAP1 PUSH1 0x4 ADD PUSH3 0x43C2 JUMP JUMPDEST PUSH1 0x20 PUSH1 0x40 MLOAD DUP1 DUP4 SUB DUP2 PUSH1 0x0 DUP8 GAS CALL SWAP3 POP POP POP DUP1 ISZERO PUSH3 0x34CC JUMPI POP PUSH1 0x40 DUP1 MLOAD PUSH1 0x1F RETURNDATASIZE SWAP1 DUP2 ADD PUSH1 0x1F NOT AND DUP3 ADD SWAP1 SWAP3 MSTORE PUSH3 0x34C9 SWAP2 DUP2 ADD SWAP1 PUSH3 0x4401 JUMP JUMPDEST PUSH1 0x1 JUMPDEST PUSH3 0x352F JUMPI RETURNDATASIZE DUP1 DUP1 ISZERO PUSH3 0x34FD JUMPI PUSH1 0x40 MLOAD SWAP2 POP PUSH1 0x1F NOT PUSH1 0x3F RETURNDATASIZE ADD AND DUP3 ADD PUSH1 0x40 MSTORE RETURNDATASIZE DUP3 MSTORE RETURNDATASIZE PUSH1 0x0 PUSH1 0x20 DUP5 ADD RETURNDATACOPY PUSH3 0x3502 JUMP JUMPDEST PUSH1 0x60 SWAP2 POP JUMPDEST POP DUP1 MLOAD PUSH1 0x0 SUB PUSH3 0x3527 JUMPI PUSH1 0x40 MLOAD PUSH3 0x461BCD PUSH1 0xE5 SHL DUP2 MSTORE PUSH1 0x4 ADD PUSH3 0x745 SWAP1 PUSH3 0x432B JUMP JUMPDEST DUP1 MLOAD DUP2 PUSH1 0x20 ADD REVERT JUMPDEST PUSH1 0x1 PUSH1 0x1 PUSH1 0xE0 SHL SUB NOT AND PUSH4 0xA85BD01 PUSH1 0xE1 SHL EQ SWAP1 POP PUSH3 0x2C7B JUMP JUMPDEST POP PUSH1 0x1 SWAP5 SWAP4 POP POP POP POP JUMP JUMPDEST PUSH1 0x0 DUP1 PUSH19 0x184F03E93FF9F4DAA797ED6E38ED64BF6A1F01 PUSH1 0x40 SHL DUP4 LT PUSH3 0x3595 JUMPI PUSH19 0x184F03E93FF9F4DAA797ED6E38ED64BF6A1F01 PUSH1 0x40 SHL DUP4 DIV SWAP3 POP PUSH1 0x40 ADD JUMPDEST PUSH10 0x4EE2D6D415B85ACEF81 PUSH1 0x20 SHL DUP4 LT PUSH3 0x35C0 JUMPI PUSH10 0x4EE2D6D415B85ACEF81 PUSH1 0x20 SHL DUP4 DIV SWAP3 POP PUSH1 0x20 ADD JUMPDEST PUSH7 0x2386F26FC10000 DUP4 LT PUSH3 0x35DF JUMPI PUSH7 0x2386F26FC10000 DUP4 DIV SWAP3 POP PUSH1 0x10 ADD JUMPDEST PUSH4 0x5F5E100 DUP4 LT PUSH3 0x35F8 JUMPI PUSH4 0x5F5E100 DUP4 DIV SWAP3 POP PUSH1 0x8 ADD JUMPDEST PUSH2 0x2710 DUP4 LT PUSH3 0x360D JUMPI PUSH2 0x2710 DUP4 DIV SWAP3 POP PUSH1 0x4 ADD JUMPDEST PUSH1 0x64 DUP4 LT PUSH3 0x3620 JUMPI PUSH1 0x64 DUP4 DIV SWAP3 POP PUSH1 0x2 ADD JUMPDEST PUSH1 0xA DUP4 LT PUSH3 0xC20 JUMPI PUSH1 0x1 ADD SWAP3 SWAP2 POP POP JUMP JUMPDEST PUSH1 0x0 PUSH1 0x1 PUSH3 0x3641 DUP5 PUSH3 0x239B JUMP JUMPDEST PUSH3 0x364D SWAP2 SWAP1 PUSH3 0x4296 JUMP JUMPDEST PUSH1 0x0 DUP4 DUP2 MSTORE PUSH1 0x7 PUSH1 0x20 MSTORE PUSH1 0x40 SWAP1 KECCAK256 SLOAD SWAP1 SWAP2 POP DUP1 DUP3 EQ PUSH3 0x36A1 JUMPI PUSH1 0x1 PUSH1 0x1 PUSH1 0xA0 SHL SUB DUP5 AND PUSH1 0x0 SWAP1 DUP2 MSTORE PUSH1 0x6 PUSH1 0x20 SWAP1 DUP2 MSTORE PUSH1 0x40 DUP1 DUP4 KECCAK256 DUP6 DUP5 MSTORE DUP3 MSTORE DUP1 DUP4 KECCAK256 SLOAD DUP5 DUP5 MSTORE DUP2 DUP5 KECCAK256 DUP2 SWAP1 SSTORE DUP4 MSTORE PUSH1 0x7 SWAP1 SWAP2 MSTORE SWAP1 KECCAK256 DUP2 SWAP1 SSTORE JUMPDEST POP PUSH1 0x0 SWAP2 DUP3 MSTORE PUSH1 0x7 PUSH1 0x20 SWAP1 DUP2 MSTORE PUSH1 0x40 DUP1 DUP5 KECCAK256 DUP5 SWAP1 SSTORE PUSH1 0x1 PUSH1 0x1 PUSH1 0xA0 SHL SUB SWAP1 SWAP5 AND DUP4 MSTORE PUSH1 0x6 DUP2 MSTORE DUP4 DUP4 KECCAK256 SWAP2 DUP4 MSTORE MSTORE SWAP1 DUP2 KECCAK256 SSTORE JUMP JUMPDEST PUSH1 0x8 SLOAD PUSH1 0x0 SWAP1 PUSH3 0x36E8 SWAP1 PUSH1 0x1 SWAP1 PUSH3 0x4296 JUMP JUMPDEST PUSH1 0x0 DUP4 DUP2 MSTORE PUSH1 0x9 PUSH1 0x20 MSTORE PUSH1 0x40 DUP2 KECCAK256 SLOAD PUSH1 0x8 DUP1 SLOAD SWAP4 SWAP5 POP SWAP1 SWAP3 DUP5 SWAP1 DUP2 LT PUSH3 0x3713 JUMPI PUSH3 0x3713 PUSH3 0x42B0 JUMP JUMPDEST SWAP1 PUSH1 0x0 MSTORE PUSH1 0x20 PUSH1 0x0 KECCAK256 ADD SLOAD SWAP1 POP DUP1 PUSH1 0x8 DUP4 DUP2 SLOAD DUP2 LT PUSH3 0x3737 JUMPI PUSH3 0x3737 PUSH3 0x42B0 JUMP JUMPDEST PUSH1 0x0 SWAP2 DUP3 MSTORE PUSH1 0x20 DUP1 DUP4 KECCAK256 SWAP1 SWAP2 ADD SWAP3 SWAP1 SWAP3 SSTORE DUP3 DUP2 MSTORE PUSH1 0x9 SWAP1 SWAP2 MSTORE PUSH1 0x40 DUP1 DUP3 KECCAK256 DUP5 SWAP1 SSTORE DUP6 DUP3 MSTORE DUP2 KECCAK256 SSTORE PUSH1 0x8 DUP1 SLOAD DUP1 PUSH3 0x3772 JUMPI PUSH3 0x3772 PUSH3 0x4421 JUMP JUMPDEST PUSH1 0x1 SWAP1 SUB DUP2 DUP2 SWAP1 PUSH1 0x0 MSTORE PUSH1 0x20 PUSH1 0x0 KECCAK256 ADD PUSH1 0x0 SWAP1 SSTORE SWAP1 SSTORE POP POP POP POP JUMP JUMPDEST PUSH1 0x0 PUSH3 0x379B DUP4 PUSH3 0x239B JUMP JUMPDEST PUSH1 0x1 PUSH1 0x1 PUSH1 0xA0 SHL SUB SWAP1 SWAP4 AND PUSH1 0x0 SWAP1 DUP2 MSTORE PUSH1 0x6 PUSH1 0x20 SWAP1 DUP2 MSTORE PUSH1 0x40 DUP1 DUP4 KECCAK256 DUP7 DUP5 MSTORE DUP3 MSTORE DUP1 DUP4 KECCAK256 DUP6 SWAP1 SSTORE SWAP4 DUP3 MSTORE PUSH1 0x7 SWAP1 MSTORE SWAP2 SWAP1 SWAP2 KECCAK256 SWAP2 SWAP1 SWAP2 SSTORE POP JUMP JUMPDEST PUSH1 0x60 PUSH3 0x2C7B DUP5 DUP5 PUSH1 0x0 DUP6 PUSH3 0x38FD JUMP JUMPDEST PUSH1 0x1 PUSH1 0x1 PUSH1 0xA0 SHL SUB DUP3 AND PUSH3 0x383D JUMPI PUSH1 0x40 MLOAD PUSH3 0x461BCD PUSH1 0xE5 SHL DUP2 MSTORE PUSH1 0x20 PUSH1 0x4 DUP3 ADD DUP2 SWAP1 MSTORE PUSH1 0x24 DUP3 ADD MSTORE PUSH32 0x4552433732313A206D696E7420746F20746865207A65726F2061646472657373 PUSH1 0x44 DUP3 ADD MSTORE PUSH1 0x64 ADD PUSH3 0x745 JUMP JUMPDEST PUSH3 0x3848 DUP2 PUSH3 0x31A7 JUMP JUMPDEST ISZERO PUSH3 0x3868 JUMPI PUSH1 0x40 MLOAD PUSH3 0x461BCD PUSH1 0xE5 SHL DUP2 MSTORE PUSH1 0x4 ADD PUSH3 0x745 SWAP1 PUSH3 0x4437 JUMP JUMPDEST PUSH3 0x3878 PUSH1 0x0 DUP4 DUP4 PUSH1 0x1 PUSH3 0x3071 JUMP JUMPDEST PUSH3 0x3883 DUP2 PUSH3 0x31A7 JUMP JUMPDEST ISZERO PUSH3 0x38A3 JUMPI PUSH1 0x40 MLOAD PUSH3 0x461BCD PUSH1 0xE5 SHL DUP2 MSTORE PUSH1 0x4 ADD PUSH3 0x745 SWAP1 PUSH3 0x4437 JUMP JUMPDEST PUSH1 0x1 PUSH1 0x1 PUSH1 0xA0 SHL SUB DUP3 AND PUSH1 0x0 DUP2 DUP2 MSTORE PUSH1 0x3 PUSH1 0x20 SWAP1 DUP2 MSTORE PUSH1 0x40 DUP1 DUP4 KECCAK256 DUP1 SLOAD PUSH1 0x1 ADD SWAP1 SSTORE DUP5 DUP4 MSTORE PUSH1 0x2 SWAP1 SWAP2 MSTORE DUP1 DUP3 KECCAK256 DUP1 SLOAD PUSH1 0x1 PUSH1 0x1 PUSH1 0xA0 SHL SUB NOT AND DUP5 OR SWAP1 SSTORE MLOAD DUP4 SWAP3 SWAP2 SWAP1 PUSH1 0x0 DUP1 MLOAD PUSH1 0x20 PUSH3 0x5EED DUP4 CODECOPY DUP2 MLOAD SWAP2 MSTORE SWAP1 DUP3 SWAP1 LOG4 POP POP JUMP JUMPDEST PUSH1 0x60 DUP3 SELFBALANCE LT ISZERO PUSH3 0x3960 JUMPI PUSH1 0x40 MLOAD PUSH3 0x461BCD PUSH1 0xE5 SHL DUP2 MSTORE PUSH1 0x20 PUSH1 0x4 DUP3 ADD MSTORE PUSH1 0x26 PUSH1 0x24 DUP3 ADD MSTORE PUSH32 0x416464726573733A20696E73756666696369656E742062616C616E636520666F PUSH1 0x44 DUP3 ADD MSTORE PUSH6 0x1C8818D85B1B PUSH1 0xD2 SHL PUSH1 0x64 DUP3 ADD MSTORE PUSH1 0x84 ADD PUSH3 0x745 JUMP JUMPDEST PUSH1 0x0 DUP1 DUP7 PUSH1 0x1 PUSH1 0x1 PUSH1 0xA0 SHL SUB AND DUP6 DUP8 PUSH1 0x40 MLOAD PUSH3 0x397E SWAP2 SWAP1 PUSH3 0x446E JUMP JUMPDEST PUSH1 0x0 PUSH1 0x40 MLOAD DUP1 DUP4 SUB DUP2 DUP6 DUP8 GAS CALL SWAP3 POP POP POP RETURNDATASIZE DUP1 PUSH1 0x0 DUP2 EQ PUSH3 0x39BD JUMPI PUSH1 0x40 MLOAD SWAP2 POP PUSH1 0x1F NOT PUSH1 0x3F RETURNDATASIZE ADD AND DUP3 ADD PUSH1 0x40 MSTORE RETURNDATASIZE DUP3 MSTORE RETURNDATASIZE PUSH1 0x0 PUSH1 0x20 DUP5 ADD RETURNDATACOPY PUSH3 0x39C2 JUMP JUMPDEST PUSH1 0x60 SWAP2 POP JUMPDEST POP SWAP2 POP SWAP2 POP PUSH3 0x39D5 DUP8 DUP4 DUP4 DUP8 PUSH3 0x39E0 JUMP JUMPDEST SWAP8 SWAP7 POP POP POP POP POP POP POP JUMP JUMPDEST PUSH1 0x60 DUP4 ISZERO PUSH3 0x3A54 JUMPI DUP3 MLOAD PUSH1 0x0 SUB PUSH3 0x3A4C JUMPI PUSH1 0x1 PUSH1 0x1 PUSH1 0xA0 SHL SUB DUP6 AND EXTCODESIZE PUSH3 0x3A4C JUMPI PUSH1 0x40 MLOAD PUSH3 0x461BCD PUSH1 0xE5 SHL DUP2 MSTORE PUSH1 0x20 PUSH1 0x4 DUP3 ADD MSTORE PUSH1 0x1D PUSH1 0x24 DUP3 ADD MSTORE PUSH32 0x416464726573733A2063616C6C20746F206E6F6E2D636F6E7472616374000000 PUSH1 0x44 DUP3 ADD MSTORE PUSH1 0x64 ADD PUSH3 0x745 JUMP JUMPDEST POP DUP2 PUSH3 0x2C7B JUMP JUMPDEST PUSH3 0x2C7B DUP4 DUP4 DUP2 MLOAD ISZERO PUSH3 0x3A6B JUMPI DUP2 MLOAD DUP1 DUP4 PUSH1 0x20 ADD REVERT JUMPDEST DUP1 PUSH1 0x40 MLOAD PUSH3 0x461BCD PUSH1 0xE5 SHL DUP2 MSTORE PUSH1 0x4 ADD PUSH3 0x745 SWAP2 SWAP1 PUSH3 0x3CF7 JUMP JUMPDEST PUSH1 0x40 DUP1 MLOAD PUSH2 0x180 DUP2 ADD DUP3 MSTORE PUSH1 0x0 DUP1 DUP3 MSTORE PUSH1 0x20 DUP3 ADD DUP2 SWAP1 MSTORE SWAP2 DUP2 ADD DUP3 SWAP1 MSTORE PUSH1 0x60 DUP2 ADD DUP3 SWAP1 MSTORE PUSH1 0x80 DUP2 ADD DUP3 SWAP1 MSTORE PUSH1 0xA0 DUP2 ADD DUP3 SWAP1 MSTORE PUSH1 0xC0 DUP2 ADD DUP3 SWAP1 MSTORE PUSH1 0xE0 DUP2 ADD DUP3 SWAP1 MSTORE PUSH2 0x100 DUP2 ADD DUP3 SWAP1 MSTORE PUSH2 0x120 DUP2 ADD DUP3 SWAP1 MSTORE PUSH2 0x140 DUP2 ADD DUP3 SWAP1 MSTORE PUSH2 0x160 DUP2 ADD SWAP2 SWAP1 SWAP2 MSTORE SWAP1 JUMP JUMPDEST PUSH2 0x1A60 DUP1 PUSH3 0x448D DUP4 CODECOPY ADD SWAP1 JUMP JUMPDEST PUSH1 0x1 PUSH1 0x1 PUSH1 0xA0 SHL SUB DUP2 AND DUP2 EQ PUSH3 0x29D7 JUMPI PUSH1 0x0 DUP1 REVERT JUMPDEST DUP1 ISZERO ISZERO DUP2 EQ PUSH3 0x29D7 JUMPI PUSH1 0x0 DUP1 REVERT JUMPDEST PUSH1 0x0 DUP1 PUSH1 0x0 PUSH1 0x60 DUP5 DUP7 SUB SLT ISZERO PUSH3 0x3B34 JUMPI PUSH1 0x0 DUP1 REVERT JUMPDEST DUP4 CALLDATALOAD SWAP3 POP PUSH1 0x20 DUP5 ADD CALLDATALOAD PUSH3 0x3B48 DUP2 PUSH3 0x3AF9 JUMP JUMPDEST SWAP2 POP PUSH1 0x40 DUP5 ADD CALLDATALOAD PUSH3 0x3B5A DUP2 PUSH3 0x3B0F JUMP JUMPDEST DUP1 SWAP2 POP POP SWAP3 POP SWAP3 POP SWAP3 JUMP JUMPDEST PUSH1 0x1 PUSH1 0x1 PUSH1 0xE0 SHL SUB NOT DUP2 AND DUP2 EQ PUSH3 0x29D7 JUMPI PUSH1 0x0 DUP1 REVERT JUMPDEST PUSH1 0x0 PUSH1 0x20 DUP3 DUP5 SUB SLT ISZERO PUSH3 0x3B8F JUMPI PUSH1 0x0 DUP1 REVERT JUMPDEST DUP2 CALLDATALOAD PUSH3 0x28BC DUP2 PUSH3 0x3B65 JUMP JUMPDEST PUSH1 0x0 PUSH1 0x20 DUP3 DUP5 SUB SLT ISZERO PUSH3 0x3BAF JUMPI PUSH1 0x0 DUP1 REVERT JUMPDEST POP CALLDATALOAD SWAP2 SWAP1 POP JUMP JUMPDEST PUSH1 0x1 PUSH1 0x1 PUSH1 0xA0 SHL SUB AND SWAP1 MSTORE JUMP JUMPDEST DUP1 MLOAD DUP3 MSTORE PUSH1 0x20 DUP2 ADD MLOAD PUSH3 0x3BDB PUSH1 0x20 DUP5 ADD DUP3 PUSH3 0x3BB6 JUMP JUMPDEST POP PUSH1 0x40 DUP2 ADD MLOAD PUSH3 0x3BF0 PUSH1 0x40 DUP5 ADD DUP3 PUSH3 0x3BB6 JUMP JUMPDEST POP PUSH1 0x60 DUP2 ADD MLOAD PUSH3 0x3C05 PUSH1 0x60 DUP5 ADD DUP3 PUSH3 0x3BB6 JUMP JUMPDEST POP PUSH1 0x80 DUP2 ADD MLOAD PUSH1 0x80 DUP4 ADD MSTORE PUSH1 0xA0 DUP2 ADD MLOAD PUSH3 0x3C24 PUSH1 0xA0 DUP5 ADD DUP3 ISZERO ISZERO SWAP1 MSTORE JUMP JUMPDEST POP PUSH1 0xC0 DUP2 ADD MLOAD PUSH3 0x3C39 PUSH1 0xC0 DUP5 ADD DUP3 ISZERO ISZERO SWAP1 MSTORE JUMP JUMPDEST POP PUSH1 0xE0 DUP2 ADD MLOAD PUSH1 0xE0 DUP4 ADD MSTORE PUSH2 0x100 DUP1 DUP3 ADD MLOAD PUSH3 0x3C59 DUP3 DUP6 ADD DUP3 PUSH3 0x3BB6 JUMP JUMPDEST POP POP PUSH2 0x120 DUP2 DUP2 ADD MLOAD ISZERO ISZERO SWAP1 DUP4 ADD MSTORE PUSH2 0x140 DUP1 DUP3 ADD MLOAD ISZERO ISZERO SWAP1 DUP4 ADD MSTORE PUSH2 0x160 DUP1 DUP3 ADD MLOAD DUP1 ISZERO ISZERO DUP3 DUP6 ADD MSTORE PUSH3 0x2739 JUMP JUMPDEST PUSH2 0x180 DUP2 ADD PUSH3 0xC20 DUP3 DUP5 PUSH3 0x3BC3 JUMP JUMPDEST PUSH1 0x0 JUMPDEST DUP4 DUP2 LT ISZERO PUSH3 0x3CB7 JUMPI DUP2 DUP2 ADD MLOAD DUP4 DUP3 ADD MSTORE PUSH1 0x20 ADD PUSH3 0x3C9D JUMP JUMPDEST DUP4 DUP2 GT ISZERO PUSH3 0x2739 JUMPI POP POP PUSH1 0x0 SWAP2 ADD MSTORE JUMP JUMPDEST PUSH1 0x0 DUP2 MLOAD DUP1 DUP5 MSTORE PUSH3 0x3CE3 DUP2 PUSH1 0x20 DUP7 ADD PUSH1 0x20 DUP7 ADD PUSH3 0x3C9A JUMP JUMPDEST PUSH1 0x1F ADD PUSH1 0x1F NOT AND SWAP3 SWAP1 SWAP3 ADD PUSH1 0x20 ADD SWAP3 SWAP2 POP POP JUMP JUMPDEST PUSH1 0x20 DUP2 MSTORE PUSH1 0x0 PUSH3 0x28BC PUSH1 0x20 DUP4 ADD DUP5 PUSH3 0x3CC9 JUMP JUMPDEST PUSH1 0x1 PUSH1 0x1 PUSH1 0xA0 SHL SUB SWAP2 SWAP1 SWAP2 AND DUP2 MSTORE PUSH1 0x20 ADD SWAP1 JUMP JUMPDEST PUSH1 0x0 DUP1 PUSH1 0x40 DUP4 DUP6 SUB SLT ISZERO PUSH3 0x3D34 JUMPI PUSH1 0x0 DUP1 REVERT JUMPDEST DUP3 CALLDATALOAD PUSH3 0x3D41 DUP2 PUSH3 0x3AF9 JUMP JUMPDEST SWAP5 PUSH1 0x20 SWAP4 SWAP1 SWAP4 ADD CALLDATALOAD SWAP4 POP POP POP JUMP JUMPDEST PUSH1 0x0 DUP1 PUSH1 0x40 DUP4 DUP6 SUB SLT ISZERO PUSH3 0x3D63 JUMPI PUSH1 0x0 DUP1 REVERT JUMPDEST DUP3 CALLDATALOAD SWAP2 POP PUSH1 0x20 DUP4 ADD CALLDATALOAD PUSH3 0x3D77 DUP2 PUSH3 0x3B0F JUMP JUMPDEST DUP1 SWAP2 POP POP SWAP3 POP SWAP3 SWAP1 POP JUMP JUMPDEST PUSH1 0x0 DUP1 PUSH1 0x0 PUSH1 0x60 DUP5 DUP7 SUB SLT ISZERO PUSH3 0x3D98 JUMPI PUSH1 0x0 DUP1 REVERT JUMPDEST DUP4 CALLDATALOAD PUSH3 0x3DA5 DUP2 PUSH3 0x3AF9 JUMP JUMPDEST SWAP3 POP PUSH1 0x20 DUP5 ADD CALLDATALOAD PUSH3 0x3DB7 DUP2 PUSH3 0x3AF9 JUMP JUMPDEST SWAP3 SWAP6 SWAP3 SWAP5 POP POP POP PUSH1 0x40 SWAP2 SWAP1 SWAP2 ADD CALLDATALOAD SWAP1 JUMP JUMPDEST PUSH1 0x0 DUP1 PUSH1 0x0 DUP1 PUSH1 0x0 PUSH1 0xA0 DUP7 DUP9 SUB SLT ISZERO PUSH3 0x3DE1 JUMPI PUSH1 0x0 DUP1 REVERT JUMPDEST DUP6 CALLDATALOAD PUSH3 0x3DEE DUP2 PUSH3 0x3AF9 JUMP JUMPDEST SWAP5 POP PUSH1 0x20 DUP7 ADD CALLDATALOAD SWAP4 POP PUSH1 0x40 DUP7 ADD CALLDATALOAD SWAP3 POP PUSH1 0x60 DUP7 ADD CALLDATALOAD PUSH3 0x3E0E DUP2 PUSH3 0x3B0F JUMP JUMPDEST SWAP2 POP PUSH1 0x80 DUP7 ADD CALLDATALOAD PUSH3 0x3E20 DUP2 PUSH3 0x3B0F JUMP JUMPDEST DUP1 SWAP2 POP POP SWAP3 SWAP6 POP SWAP3 SWAP6 SWAP1 SWAP4 POP JUMP JUMPDEST PUSH1 0x0 DUP1 PUSH1 0x0 DUP1 PUSH1 0x0 PUSH1 0xA0 DUP7 DUP9 SUB SLT ISZERO PUSH3 0x3E47 JUMPI PUSH1 0x0 DUP1 REVERT JUMPDEST DUP6 CALLDATALOAD PUSH3 0x3E54 DUP2 PUSH3 0x3AF9 JUMP JUMPDEST SWAP5 POP PUSH1 0x20 DUP7 ADD CALLDATALOAD PUSH3 0x3E66 DUP2 PUSH3 0x3B0F JUMP JUMPDEST SWAP4 POP PUSH1 0x40 DUP7 ADD CALLDATALOAD PUSH3 0x3E78 DUP2 PUSH3 0x3AF9 JUMP JUMPDEST SWAP5 SWAP8 SWAP4 SWAP7 POP SWAP4 SWAP5 PUSH1 0x60 DUP2 ADD CALLDATALOAD SWAP5 POP PUSH1 0x80 ADD CALLDATALOAD SWAP3 SWAP2 POP POP JUMP JUMPDEST PUSH1 0x0 PUSH1 0x20 DUP3 DUP5 SUB SLT ISZERO PUSH3 0x3EA3 JUMPI PUSH1 0x0 DUP1 REVERT JUMPDEST DUP2 CALLDATALOAD PUSH3 0x28BC DUP2 PUSH3 0x3AF9 JUMP JUMPDEST PUSH1 0x0 DUP2 MLOAD DUP1 DUP5 MSTORE PUSH1 0x20 DUP1 DUP6 ADD SWAP5 POP DUP1 DUP5 ADD PUSH1 0x0 JUMPDEST DUP4 DUP2 LT ISZERO PUSH3 0x3EEF JUMPI PUSH3 0x3EDA DUP8 DUP4 MLOAD PUSH3 0x3BC3 JUMP JUMPDEST PUSH2 0x180 SWAP7 SWAP1 SWAP7 ADD SWAP6 SWAP1 DUP3 ADD SWAP1 PUSH1 0x1 ADD PUSH3 0x3EC4 JUMP JUMPDEST POP SWAP5 SWAP6 SWAP5 POP POP POP POP POP JUMP JUMPDEST PUSH1 0x20 DUP2 MSTORE PUSH1 0x0 DUP3 MLOAD PUSH1 0x20 DUP1 DUP5 ADD MSTORE PUSH3 0x2C7B PUSH1 0x40 DUP5 ADD DUP3 PUSH3 0x3EB0 JUMP JUMPDEST PUSH1 0x20 DUP2 MSTORE PUSH1 0x0 PUSH3 0x28BC PUSH1 0x20 DUP4 ADD DUP5 PUSH3 0x3EB0 JUMP JUMPDEST PUSH1 0x0 DUP1 PUSH1 0x40 DUP4 DUP6 SUB SLT ISZERO PUSH3 0x3F40 JUMPI PUSH1 0x0 DUP1 REVERT JUMPDEST DUP3 CALLDATALOAD PUSH3 0x3F4D DUP2 PUSH3 0x3AF9 JUMP JUMPDEST SWAP2 POP PUSH1 0x20 DUP4 ADD CALLDATALOAD PUSH3 0x3D77 DUP2 PUSH3 0x3B0F JUMP JUMPDEST PUSH4 0x4E487B71 PUSH1 0xE0 SHL PUSH1 0x0 MSTORE PUSH1 0x41 PUSH1 0x4 MSTORE PUSH1 0x24 PUSH1 0x0 REVERT JUMPDEST PUSH1 0x0 DUP1 PUSH1 0x0 DUP1 PUSH1 0x80 DUP6 DUP8 SUB SLT ISZERO PUSH3 0x3F8C JUMPI PUSH1 0x0 DUP1 REVERT JUMPDEST DUP5 CALLDATALOAD PUSH3 0x3F99 DUP2 PUSH3 0x3AF9 JUMP JUMPDEST SWAP4 POP PUSH1 0x20 DUP6 ADD CALLDATALOAD PUSH3 0x3FAB DUP2 PUSH3 0x3AF9 JUMP JUMPDEST SWAP3 POP PUSH1 0x40 DUP6 ADD CALLDATALOAD SWAP2 POP PUSH1 0x60 DUP6 ADD CALLDATALOAD PUSH8 0xFFFFFFFFFFFFFFFF DUP1 DUP3 GT ISZERO PUSH3 0x3FD0 JUMPI PUSH1 0x0 DUP1 REVERT JUMPDEST DUP2 DUP8 ADD SWAP2 POP DUP8 PUSH1 0x1F DUP4 ADD SLT PUSH3 0x3FE5 JUMPI PUSH1 0x0 DUP1 REVERT JUMPDEST DUP2 CALLDATALOAD DUP2 DUP2 GT ISZERO PUSH3 0x3FFA JUMPI PUSH3 0x3FFA PUSH3 0x3F5F JUMP JUMPDEST PUSH1 0x40 MLOAD PUSH1 0x1F DUP3 ADD PUSH1 0x1F NOT SWAP1 DUP2 AND PUSH1 0x3F ADD AND DUP2 ADD SWAP1 DUP4 DUP3 GT DUP2 DUP4 LT OR ISZERO PUSH3 0x4025 JUMPI PUSH3 0x4025 PUSH3 0x3F5F JUMP JUMPDEST DUP2 PUSH1 0x40 MSTORE DUP3 DUP2 MSTORE DUP11 PUSH1 0x20 DUP5 DUP8 ADD ADD GT ISZERO PUSH3 0x403F JUMPI PUSH1 0x0 DUP1 REVERT JUMPDEST DUP3 PUSH1 0x20 DUP7 ADD PUSH1 0x20 DUP4 ADD CALLDATACOPY PUSH1 0x0 PUSH1 0x20 DUP5 DUP4 ADD ADD MSTORE DUP1 SWAP6 POP POP POP POP POP POP SWAP3 SWAP6 SWAP2 SWAP5 POP SWAP3 POP JUMP JUMPDEST PUSH1 0x0 DUP1 PUSH1 0x40 DUP4 DUP6 SUB SLT ISZERO PUSH3 0x4077 JUMPI PUSH1 0x0 DUP1 REVERT JUMPDEST DUP3 CALLDATALOAD PUSH3 0x4084 DUP2 PUSH3 0x3AF9 JUMP JUMPDEST SWAP2 POP PUSH1 0x20 DUP4 ADD CALLDATALOAD PUSH3 0x3D77 DUP2 PUSH3 0x3AF9 JUMP JUMPDEST PUSH1 0x20 DUP1 DUP3 MSTORE DUP3 MLOAD DUP3 DUP3 ADD DUP2 SWAP1 MSTORE PUSH1 0x0 SWAP2 SWAP1 DUP5 DUP3 ADD SWAP1 PUSH1 0x40 DUP6 ADD SWAP1 DUP5 JUMPDEST DUP2 DUP2 LT ISZERO PUSH3 0x40D0 JUMPI DUP4 MLOAD DUP4 MSTORE SWAP3 DUP5 ADD SWAP3 SWAP2 DUP5 ADD SWAP2 PUSH1 0x1 ADD PUSH3 0x40B2 JUMP JUMPDEST POP SWAP1 SWAP7 SWAP6 POP POP POP POP POP POP JUMP JUMPDEST PUSH1 0x20 DUP1 DUP3 MSTORE PUSH1 0x14 SWAP1 DUP3 ADD MSTORE PUSH20 0x1B9BDD081DDA5D1A1BDD5D0818481C195C9B5A5D PUSH1 0x62 SHL PUSH1 0x40 DUP3 ADD MSTORE PUSH1 0x60 ADD SWAP1 JUMP JUMPDEST PUSH1 0x0 PUSH1 0x20 DUP3 DUP5 SUB SLT ISZERO PUSH3 0x411D JUMPI PUSH1 0x0 DUP1 REVERT JUMPDEST POP MLOAD SWAP2 SWAP1 POP JUMP JUMPDEST PUSH1 0x1 PUSH1 0x1 PUSH1 0xA0 SHL SUB SWAP3 SWAP1 SWAP3 AND DUP3 MSTORE PUSH1 0x20 DUP3 ADD MSTORE PUSH1 0x40 ADD SWAP1 JUMP JUMPDEST PUSH1 0x0 PUSH1 0x20 DUP3 DUP5 SUB SLT ISZERO PUSH3 0x4150 JUMPI PUSH1 0x0 DUP1 REVERT JUMPDEST DUP2 MLOAD PUSH3 0x28BC DUP2 PUSH3 0x3B0F JUMP JUMPDEST PUSH1 0x1 DUP2 DUP2 SHR SWAP1 DUP3 AND DUP1 PUSH3 0x4172 JUMPI PUSH1 0x7F DUP3 AND SWAP2 POP JUMPDEST PUSH1 0x20 DUP3 LT DUP2 SUB PUSH3 0x4193 JUMPI PUSH4 0x4E487B71 PUSH1 0xE0 SHL PUSH1 0x0 MSTORE PUSH1 0x22 PUSH1 0x4 MSTORE PUSH1 0x24 PUSH1 0x0 REVERT JUMPDEST POP SWAP2 SWAP1 POP JUMP JUMPDEST PUSH1 0x20 DUP1 DUP3 MSTORE PUSH1 0xE SWAP1 DUP3 ADD MSTORE PUSH14 0x6F6E6C79206F70657261746F7273 PUSH1 0x90 SHL PUSH1 0x40 DUP3 ADD MSTORE PUSH1 0x60 ADD SWAP1 JUMP JUMPDEST PUSH1 0x20 DUP1 DUP3 MSTORE PUSH1 0x2D SWAP1 DUP3 ADD MSTORE PUSH32 0x4552433732313A2063616C6C6572206973206E6F7420746F6B656E206F776E65 PUSH1 0x40 DUP3 ADD MSTORE PUSH13 0x1C881BDC88185C1C1C9BDD9959 PUSH1 0x9A SHL PUSH1 0x60 DUP3 ADD MSTORE PUSH1 0x80 ADD SWAP1 JUMP JUMPDEST PUSH1 0x1 PUSH1 0x1 PUSH1 0xA0 SHL SUB SWAP4 DUP5 AND DUP2 MSTORE SWAP2 SWAP1 SWAP3 AND PUSH1 0x20 DUP3 ADD MSTORE PUSH1 0x40 DUP2 ADD SWAP2 SWAP1 SWAP2 MSTORE PUSH1 0x60 ADD SWAP1 JUMP JUMPDEST PUSH1 0x1 PUSH1 0x1 PUSH1 0xA0 SHL SUB SWAP6 DUP7 AND DUP2 MSTORE SWAP4 SWAP1 SWAP5 AND PUSH1 0x20 DUP5 ADD MSTORE PUSH1 0x40 DUP4 ADD SWAP2 SWAP1 SWAP2 MSTORE ISZERO ISZERO PUSH1 0x60 DUP3 ADD MSTORE PUSH1 0x80 DUP2 ADD SWAP2 SWAP1 SWAP2 MSTORE PUSH1 0xA0 ADD SWAP1 JUMP JUMPDEST PUSH4 0x4E487B71 PUSH1 0xE0 SHL PUSH1 0x0 MSTORE PUSH1 0x11 PUSH1 0x4 MSTORE PUSH1 0x24 PUSH1 0x0 REVERT JUMPDEST PUSH1 0x0 DUP3 NOT DUP3 GT ISZERO PUSH3 0x4291 JUMPI PUSH3 0x4291 PUSH3 0x4265 JUMP JUMPDEST POP ADD SWAP1 JUMP JUMPDEST PUSH1 0x0 DUP3 DUP3 LT ISZERO PUSH3 0x42AB JUMPI PUSH3 0x42AB PUSH3 0x4265 JUMP JUMPDEST POP SUB SWAP1 JUMP JUMPDEST PUSH4 0x4E487B71 PUSH1 0xE0 SHL PUSH1 0x0 MSTORE PUSH1 0x32 PUSH1 0x4 MSTORE PUSH1 0x24 PUSH1 0x0 REVERT JUMPDEST PUSH1 0x20 DUP1 DUP3 MSTORE PUSH1 0x18 SWAP1 DUP3 ADD MSTORE PUSH24 0x115490CDCC8C4E881A5B9D985B1A59081D1BDAD95B881251 PUSH1 0x42 SHL PUSH1 0x40 DUP3 ADD MSTORE PUSH1 0x60 ADD SWAP1 JUMP JUMPDEST PUSH1 0x0 DUP4 MLOAD PUSH3 0x430C DUP2 DUP5 PUSH1 0x20 DUP9 ADD PUSH3 0x3C9A JUMP JUMPDEST DUP4 MLOAD SWAP1 DUP4 ADD SWAP1 PUSH3 0x4322 DUP2 DUP4 PUSH1 0x20 DUP9 ADD PUSH3 0x3C9A JUMP JUMPDEST ADD SWAP5 SWAP4 POP POP POP POP JUMP JUMPDEST PUSH1 0x20 DUP1 DUP3 MSTORE PUSH1 0x32 SWAP1 DUP3 ADD MSTORE PUSH32 0x4552433732313A207472616E7366657220746F206E6F6E204552433732315265 PUSH1 0x40 DUP3 ADD MSTORE PUSH18 0x31B2B4BB32B91034B6B83632B6B2B73A32B9 PUSH1 0x71 SHL PUSH1 0x60 DUP3 ADD MSTORE PUSH1 0x80 ADD SWAP1 JUMP JUMPDEST PUSH1 0x20 DUP1 DUP3 MSTORE PUSH1 0x25 SWAP1 DUP3 ADD MSTORE PUSH32 0x4552433732313A207472616E736665722066726F6D20696E636F727265637420 PUSH1 0x40 DUP3 ADD MSTORE PUSH5 0x37BBB732B9 PUSH1 0xD9 SHL PUSH1 0x60 DUP3 ADD MSTORE PUSH1 0x80 ADD SWAP1 JUMP JUMPDEST PUSH1 0x1 PUSH1 0x1 PUSH1 0xA0 SHL SUB DUP6 DUP2 AND DUP3 MSTORE DUP5 AND PUSH1 0x20 DUP3 ADD MSTORE PUSH1 0x40 DUP2 ADD DUP4 SWAP1 MSTORE PUSH1 0x80 PUSH1 0x60 DUP3 ADD DUP2 SWAP1 MSTORE PUSH1 0x0 SWAP1 PUSH3 0x43F7 SWAP1 DUP4 ADD DUP5 PUSH3 0x3CC9 JUMP JUMPDEST SWAP7 SWAP6 POP POP POP POP POP POP JUMP JUMPDEST PUSH1 0x0 PUSH1 0x20 DUP3 DUP5 SUB SLT ISZERO PUSH3 0x4414 JUMPI PUSH1 0x0 DUP1 REVERT JUMPDEST DUP2 MLOAD PUSH3 0x28BC DUP2 PUSH3 0x3B65 JUMP JUMPDEST PUSH4 0x4E487B71 PUSH1 0xE0 SHL PUSH1 0x0 MSTORE PUSH1 0x31 PUSH1 0x4 MSTORE PUSH1 0x24 PUSH1 0x0 REVERT JUMPDEST PUSH1 0x20 DUP1 DUP3 MSTORE PUSH1 0x1C SWAP1 DUP3 ADD MSTORE PUSH32 0x4552433732313A20746F6B656E20616C7265616479206D696E74656400000000 PUSH1 0x40 DUP3 ADD MSTORE PUSH1 0x60 ADD SWAP1 JUMP JUMPDEST PUSH1 0x0 DUP3 MLOAD PUSH3 0x4482 DUP2 DUP5 PUSH1 0x20 DUP8 ADD PUSH3 0x3C9A JUMP JUMPDEST SWAP2 SWAP1 SWAP2 ADD SWAP3 SWAP2 POP POP JUMP INVALID PUSH1 0xA0 PUSH1 0x40 MSTORE PUSH1 0x40 MLOAD PUSH3 0x1A60 CODESIZE SUB DUP1 PUSH3 0x1A60 DUP4 CODECOPY DUP2 ADD PUSH1 0x40 DUP2 SWAP1 MSTORE PUSH3 0x26 SWAP2 PUSH3 0x2CE JUMP JUMPDEST PUSH1 0x40 MLOAD DUP1 PUSH1 0x40 ADD PUSH1 0x40 MSTORE DUP1 PUSH1 0x7 DUP2 MSTORE PUSH1 0x20 ADD PUSH7 0x34A637B1B5B2B9 PUSH1 0xC9 SHL DUP2 MSTORE POP PUSH1 0x40 MLOAD DUP1 PUSH1 0x40 ADD PUSH1 0x40 MSTORE DUP1 PUSH1 0x7 DUP2 MSTORE PUSH1 0x20 ADD PUSH7 0x34A637B1B5B2B9 PUSH1 0xC9 SHL DUP2 MSTORE POP DUP3 DUP7 DUP4 DUP4 DUP4 DUP3 PUSH1 0x3 SWAP1 DUP1 MLOAD SWAP1 PUSH1 0x20 ADD SWAP1 PUSH3 0x83 SWAP3 SWAP2 SWAP1 PUSH3 0x20B JUMP JUMPDEST POP DUP2 MLOAD PUSH3 0x99 SWAP1 PUSH1 0x4 SWAP1 PUSH1 0x20 DUP6 ADD SWAP1 PUSH3 0x20B JUMP JUMPDEST POP PUSH3 0xB9 CALLER PUSH3 0xB3 DUP4 PUSH8 0xDE0B6B3A7640000 PUSH3 0x34A JUMP JUMPDEST PUSH3 0x123 JUMP JUMPDEST POP POP PUSH1 0x5 DUP1 SLOAD CALLER PUSH1 0x1 PUSH1 0x1 PUSH1 0xA0 SHL SUB NOT SWAP2 DUP3 AND OR SWAP1 SWAP2 SSTORE PUSH1 0x6 DUP1 SLOAD DUP3 AND PUSH1 0x1 PUSH1 0x1 PUSH1 0xA0 SHL SUB SWAP5 DUP6 AND OR SWAP1 SSTORE PUSH1 0xB DUP1 SLOAD PUSH1 0xFF NOT AND SWAP9 ISZERO ISZERO SWAP9 SWAP1 SWAP9 OR SWAP1 SWAP8 SSTORE POP PUSH1 0xA SWAP7 SWAP1 SWAP7 SSTORE POP POP PUSH1 0x7 DUP1 SLOAD SWAP1 SWAP4 AND SWAP5 DUP5 AND SWAP5 SWAP1 SWAP5 OR SWAP1 SWAP2 SSTORE POP TIMESTAMP PUSH1 0x8 SSTORE SWAP2 SWAP1 SWAP2 AND PUSH1 0x80 MSTORE POP PUSH3 0x3C3 JUMP JUMPDEST PUSH1 0x1 PUSH1 0x1 PUSH1 0xA0 SHL SUB DUP3 AND PUSH3 0x17E JUMPI PUSH1 0x40 MLOAD PUSH3 0x461BCD PUSH1 0xE5 SHL DUP2 MSTORE PUSH1 0x20 PUSH1 0x4 DUP3 ADD MSTORE PUSH1 0x1F PUSH1 0x24 DUP3 ADD MSTORE PUSH32 0x45524332303A206D696E7420746F20746865207A65726F206164647265737300 PUSH1 0x44 DUP3 ADD MSTORE PUSH1 0x64 ADD PUSH1 0x40 MLOAD DUP1 SWAP2 SUB SWAP1 REVERT JUMPDEST DUP1 PUSH1 0x2 PUSH1 0x0 DUP3 DUP3 SLOAD PUSH3 0x192 SWAP2 SWAP1 PUSH3 0x36C JUMP JUMPDEST SWAP1 SWAP2 SSTORE POP POP PUSH1 0x1 PUSH1 0x1 PUSH1 0xA0 SHL SUB DUP3 AND PUSH1 0x0 SWAP1 DUP2 MSTORE PUSH1 0x20 DUP2 SWAP1 MSTORE PUSH1 0x40 DUP2 KECCAK256 DUP1 SLOAD DUP4 SWAP3 SWAP1 PUSH3 0x1C1 SWAP1 DUP5 SWAP1 PUSH3 0x36C JUMP JUMPDEST SWAP1 SWAP2 SSTORE POP POP PUSH1 0x40 MLOAD DUP2 DUP2 MSTORE PUSH1 0x1 PUSH1 0x1 PUSH1 0xA0 SHL SUB DUP4 AND SWAP1 PUSH1 0x0 SWAP1 PUSH32 0xDDF252AD1BE2C89B69C2B068FC378DAA952BA7F163C4A11628F55A4DF523B3EF SWAP1 PUSH1 0x20 ADD PUSH1 0x40 MLOAD DUP1 SWAP2 SUB SWAP1 LOG3 POP POP JUMP JUMPDEST DUP3 DUP1 SLOAD PUSH3 0x219 SWAP1 PUSH3 0x387 JUMP JUMPDEST SWAP1 PUSH1 0x0 MSTORE PUSH1 0x20 PUSH1 0x0 KECCAK256 SWAP1 PUSH1 0x1F ADD PUSH1 0x20 SWAP1 DIV DUP2 ADD SWAP3 DUP3 PUSH3 0x23D JUMPI PUSH1 0x0 DUP6 SSTORE PUSH3 0x288 JUMP JUMPDEST DUP3 PUSH1 0x1F LT PUSH3 0x258 JUMPI DUP1 MLOAD PUSH1 0xFF NOT AND DUP4 DUP1 ADD OR DUP6 SSTORE PUSH3 0x288 JUMP JUMPDEST DUP3 DUP1 ADD PUSH1 0x1 ADD DUP6 SSTORE DUP3 ISZERO PUSH3 0x288 JUMPI SWAP2 DUP3 ADD JUMPDEST DUP3 DUP2 GT ISZERO PUSH3 0x288 JUMPI DUP3 MLOAD DUP3 SSTORE SWAP2 PUSH1 0x20 ADD SWAP2 SWAP1 PUSH1 0x1 ADD SWAP1 PUSH3 0x26B JUMP JUMPDEST POP PUSH3 0x296 SWAP3 SWAP2 POP PUSH3 0x29A JUMP JUMPDEST POP SWAP1 JUMP JUMPDEST JUMPDEST DUP1 DUP3 GT ISZERO PUSH3 0x296 JUMPI PUSH1 0x0 DUP2 SSTORE PUSH1 0x1 ADD PUSH3 0x29B JUMP JUMPDEST DUP1 MLOAD PUSH1 0x1 PUSH1 0x1 PUSH1 0xA0 SHL SUB DUP2 AND DUP2 EQ PUSH3 0x2C9 JUMPI PUSH1 0x0 DUP1 REVERT JUMPDEST SWAP2 SWAP1 POP JUMP JUMPDEST PUSH1 0x0 DUP1 PUSH1 0x0 DUP1 PUSH1 0x0 PUSH1 0xA0 DUP7 DUP9 SUB SLT ISZERO PUSH3 0x2E7 JUMPI PUSH1 0x0 DUP1 REVERT JUMPDEST PUSH3 0x2F2 DUP7 PUSH3 0x2B1 JUMP JUMPDEST SWAP5 POP PUSH3 0x302 PUSH1 0x20 DUP8 ADD PUSH3 0x2B1 JUMP JUMPDEST SWAP4 POP PUSH1 0x40 DUP7 ADD MLOAD SWAP3 POP PUSH1 0x60 DUP7 ADD MLOAD DUP1 ISZERO ISZERO DUP2 EQ PUSH3 0x31F JUMPI PUSH1 0x0 DUP1 REVERT JUMPDEST DUP1 SWAP3 POP POP PUSH1 0x80 DUP7 ADD MLOAD SWAP1 POP SWAP3 SWAP6 POP SWAP3 SWAP6 SWAP1 SWAP4 POP JUMP JUMPDEST PUSH4 0x4E487B71 PUSH1 0xE0 SHL PUSH1 0x0 MSTORE PUSH1 0x11 PUSH1 0x4 MSTORE PUSH1 0x24 PUSH1 0x0 REVERT JUMPDEST PUSH1 0x0 DUP2 PUSH1 0x0 NOT DIV DUP4 GT DUP3 ISZERO ISZERO AND ISZERO PUSH3 0x367 JUMPI PUSH3 0x367 PUSH3 0x334 JUMP JUMPDEST POP MUL SWAP1 JUMP JUMPDEST PUSH1 0x0 DUP3 NOT DUP3 GT ISZERO PUSH3 0x382 JUMPI PUSH3 0x382 PUSH3 0x334 JUMP JUMPDEST POP ADD SWAP1 JUMP JUMPDEST PUSH1 0x1 DUP2 DUP2 SHR SWAP1 DUP3 AND DUP1 PUSH3 0x39C JUMPI PUSH1 0x7F DUP3 AND SWAP2 POP JUMPDEST PUSH1 0x20 DUP3 LT DUP2 SUB PUSH3 0x3BD JUMPI PUSH4 0x4E487B71 PUSH1 0xE0 SHL PUSH1 0x0 MSTORE PUSH1 0x22 PUSH1 0x4 MSTORE PUSH1 0x24 PUSH1 0x0 REVERT JUMPDEST POP SWAP2 SWAP1 POP JUMP JUMPDEST PUSH1 0x80 MLOAD PUSH2 0x1665 PUSH3 0x3FB PUSH1 0x0 CODECOPY PUSH1 0x0 DUP2 DUP2 PUSH2 0x391 ADD MSTORE DUP2 DUP2 PUSH2 0x453 ADD MSTORE DUP2 DUP2 PUSH2 0x854 ADD MSTORE DUP2 DUP2 PUSH2 0xB77 ADD MSTORE PUSH2 0xD32 ADD MSTORE PUSH2 0x1665 PUSH1 0x0 RETURN INVALID PUSH1 0x80 PUSH1 0x40 MSTORE PUSH1 0x4 CALLDATASIZE LT PUSH2 0x13E JUMPI PUSH1 0x0 CALLDATALOAD PUSH1 0xE0 SHR DUP1 PUSH4 0x70A08231 GT PUSH2 0xAE JUMPI DUP1 PUSH4 0x70A08231 EQ PUSH2 0x2A3 JUMPI DUP1 PUSH4 0x7FCF532C EQ PUSH2 0x2D9 JUMPI DUP1 PUSH4 0x95D89B41 EQ PUSH2 0x2EC JUMPI DUP1 PUSH4 0xA2B61E55 EQ PUSH2 0x301 JUMPI DUP1 PUSH4 0xA457C2D7 EQ PUSH2 0x309 JUMPI DUP1 PUSH4 0xA5F2A152 EQ PUSH2 0x329 JUMPI DUP1 PUSH4 0xA7F0B3DE EQ PUSH2 0x349 JUMPI DUP1 PUSH4 0xA9059CBB EQ PUSH2 0x35F JUMPI DUP1 PUSH4 0xD7B96D4E EQ PUSH2 0x37F JUMPI DUP1 PUSH4 0xD8579DB2 EQ PUSH2 0x3C0 JUMPI DUP1 PUSH4 0xDD62ED3E EQ PUSH2 0x3C8 JUMPI DUP1 PUSH4 0xE534155D EQ PUSH2 0x40E JUMPI DUP1 PUSH4 0xFD4C9B96 EQ PUSH2 0x42E JUMPI STOP JUMPDEST DUP1 PUSH3 0xE73378 EQ PUSH2 0x147 JUMPI DUP1 PUSH4 0x6FDDE03 EQ PUSH2 0x16F JUMPI DUP1 PUSH4 0x95EA7B3 EQ PUSH2 0x191 JUMPI DUP1 PUSH4 0xF388B4F EQ PUSH2 0x1B1 JUMPI DUP1 PUSH4 0x125E527E EQ PUSH2 0x1D5 JUMPI DUP1 PUSH4 0x13D663F6 EQ PUSH2 0x1EF JUMPI DUP1 PUSH4 0x18160DDD EQ PUSH2 0x204 JUMPI DUP1 PUSH4 0x23B872DD EQ PUSH2 0x219 JUMPI DUP1 PUSH4 0x313CE567 EQ PUSH2 0x239 JUMPI DUP1 PUSH4 0x34F99412 EQ PUSH2 0x255 JUMPI DUP1 PUSH4 0x39509351 EQ PUSH2 0x25D JUMPI DUP1 PUSH4 0x493031B6 EQ PUSH2 0x27D JUMPI DUP1 PUSH4 0x6BEF117E EQ PUSH2 0x290 JUMPI STOP JUMPDEST CALLDATASIZE PUSH2 0x145 JUMPI STOP JUMPDEST STOP JUMPDEST PUSH2 0x15A PUSH2 0x155 CALLDATASIZE PUSH1 0x4 PUSH2 0x13DE JUMP JUMPDEST PUSH2 0x44E JUMP JUMPDEST PUSH1 0x40 MLOAD SWAP1 ISZERO ISZERO DUP2 MSTORE PUSH1 0x20 ADD JUMPDEST PUSH1 0x40 MLOAD DUP1 SWAP2 SUB SWAP1 RETURN JUMPDEST CALLVALUE DUP1 ISZERO PUSH2 0x17B JUMPI PUSH1 0x0 DUP1 REVERT JUMPDEST POP PUSH2 0x184 PUSH2 0x551 JUMP JUMPDEST PUSH1 0x40 MLOAD PUSH2 0x166 SWAP2 SWAP1 PUSH2 0x1436 JUMP JUMPDEST CALLVALUE DUP1 ISZERO PUSH2 0x19D JUMPI PUSH1 0x0 DUP1 REVERT JUMPDEST POP PUSH2 0x15A PUSH2 0x1AC CALLDATASIZE PUSH1 0x4 PUSH2 0x13DE JUMP JUMPDEST PUSH2 0x5E3 JUMP JUMPDEST CALLVALUE DUP1 ISZERO PUSH2 0x1BD JUMPI PUSH1 0x0 DUP1 REVERT JUMPDEST POP PUSH2 0x1C7 PUSH1 0xA SLOAD DUP2 JUMP JUMPDEST PUSH1 0x40 MLOAD SWAP1 DUP2 MSTORE PUSH1 0x20 ADD PUSH2 0x166 JUMP JUMPDEST CALLVALUE DUP1 ISZERO PUSH2 0x1E1 JUMPI PUSH1 0x0 DUP1 REVERT JUMPDEST POP PUSH1 0xB SLOAD PUSH2 0x15A SWAP1 PUSH1 0xFF AND DUP2 JUMP JUMPDEST CALLVALUE DUP1 ISZERO PUSH2 0x1FB JUMPI PUSH1 0x0 DUP1 REVERT JUMPDEST POP PUSH2 0x1C7 PUSH2 0x5FA JUMP JUMPDEST CALLVALUE DUP1 ISZERO PUSH2 0x210 JUMPI PUSH1 0x0 DUP1 REVERT JUMPDEST POP PUSH1 0x2 SLOAD PUSH2 0x1C7 JUMP JUMPDEST CALLVALUE DUP1 ISZERO PUSH2 0x225 JUMPI PUSH1 0x0 DUP1 REVERT JUMPDEST POP PUSH2 0x15A PUSH2 0x234 CALLDATASIZE PUSH1 0x4 PUSH2 0x1469 JUMP JUMPDEST PUSH2 0x60F JUMP JUMPDEST CALLVALUE DUP1 ISZERO PUSH2 0x245 JUMPI PUSH1 0x0 DUP1 REVERT JUMPDEST POP PUSH1 0x40 MLOAD PUSH1 0x12 DUP2 MSTORE PUSH1 0x20 ADD PUSH2 0x166 JUMP JUMPDEST PUSH2 0x145 PUSH2 0x6B9 JUMP JUMPDEST CALLVALUE DUP1 ISZERO PUSH2 0x269 JUMPI PUSH1 0x0 DUP1 REVERT JUMPDEST POP PUSH2 0x15A PUSH2 0x278 CALLDATASIZE PUSH1 0x4 PUSH2 0x13DE JUMP JUMPDEST PUSH2 0x70E JUMP JUMPDEST PUSH2 0x145 PUSH2 0x28B CALLDATASIZE PUSH1 0x4 PUSH2 0x13DE JUMP JUMPDEST PUSH2 0x74A JUMP JUMPDEST PUSH2 0x145 PUSH2 0x29E CALLDATASIZE PUSH1 0x4 PUSH2 0x13DE JUMP JUMPDEST PUSH2 0x7F4 JUMP JUMPDEST CALLVALUE DUP1 ISZERO PUSH2 0x2AF JUMPI PUSH1 0x0 DUP1 REVERT JUMPDEST POP PUSH2 0x1C7 PUSH2 0x2BE CALLDATASIZE PUSH1 0x4 PUSH2 0x14AA JUMP JUMPDEST PUSH1 0x1 PUSH1 0x1 PUSH1 0xA0 SHL SUB AND PUSH1 0x0 SWAP1 DUP2 MSTORE PUSH1 0x20 DUP2 SWAP1 MSTORE PUSH1 0x40 SWAP1 KECCAK256 SLOAD SWAP1 JUMP JUMPDEST PUSH2 0x15A PUSH2 0x2E7 CALLDATASIZE PUSH1 0x4 PUSH2 0x13DE JUMP JUMPDEST PUSH2 0x84F JUMP JUMPDEST CALLVALUE DUP1 ISZERO PUSH2 0x2F8 JUMPI PUSH1 0x0 DUP1 REVERT JUMPDEST POP PUSH2 0x184 PUSH2 0xA50 JUMP JUMPDEST PUSH2 0x145 PUSH2 0xA5F JUMP JUMPDEST CALLVALUE DUP1 ISZERO PUSH2 0x315 JUMPI PUSH1 0x0 DUP1 REVERT JUMPDEST POP PUSH2 0x15A PUSH2 0x324 CALLDATASIZE PUSH1 0x4 PUSH2 0x13DE JUMP JUMPDEST PUSH2 0xAE3 JUMP JUMPDEST CALLVALUE DUP1 ISZERO PUSH2 0x335 JUMPI PUSH1 0x0 DUP1 REVERT JUMPDEST POP PUSH2 0x15A PUSH2 0x344 CALLDATASIZE PUSH1 0x4 PUSH2 0x1469 JUMP JUMPDEST PUSH2 0xB72 JUMP JUMPDEST CALLVALUE DUP1 ISZERO PUSH2 0x355 JUMPI PUSH1 0x0 DUP1 REVERT JUMPDEST POP PUSH2 0x1C7 PUSH1 0x8 SLOAD DUP2 JUMP JUMPDEST CALLVALUE DUP1 ISZERO PUSH2 0x36B JUMPI PUSH1 0x0 DUP1 REVERT JUMPDEST POP PUSH2 0x15A PUSH2 0x37A CALLDATASIZE PUSH1 0x4 PUSH2 0x13DE JUMP JUMPDEST PUSH2 0xCB4 JUMP JUMPDEST CALLVALUE DUP1 ISZERO PUSH2 0x38B JUMPI PUSH1 0x0 DUP1 REVERT JUMPDEST POP PUSH2 0x3B3 PUSH32 0x0 DUP2 JUMP JUMPDEST PUSH1 0x40 MLOAD PUSH2 0x166 SWAP2 SWAP1 PUSH2 0x14CE JUMP JUMPDEST PUSH2 0x145 PUSH2 0xCC1 JUMP JUMPDEST CALLVALUE DUP1 ISZERO PUSH2 0x3D4 JUMPI PUSH1 0x0 DUP1 REVERT JUMPDEST POP PUSH2 0x1C7 PUSH2 0x3E3 CALLDATASIZE PUSH1 0x4 PUSH2 0x14E2 JUMP JUMPDEST PUSH1 0x1 PUSH1 0x1 PUSH1 0xA0 SHL SUB SWAP2 DUP3 AND PUSH1 0x0 SWAP1 DUP2 MSTORE PUSH1 0x1 PUSH1 0x20 SWAP1 DUP2 MSTORE PUSH1 0x40 DUP1 DUP4 KECCAK256 SWAP4 SWAP1 SWAP5 AND DUP3 MSTORE SWAP2 SWAP1 SWAP2 MSTORE KECCAK256 SLOAD SWAP1 JUMP JUMPDEST CALLVALUE DUP1 ISZERO PUSH2 0x41A JUMPI PUSH1 0x0 DUP1 REVERT JUMPDEST POP PUSH1 0x7 SLOAD PUSH2 0x3B3 SWAP1 PUSH1 0x1 PUSH1 0x1 PUSH1 0xA0 SHL SUB AND DUP2 JUMP JUMPDEST CALLVALUE DUP1 ISZERO PUSH2 0x43A JUMPI PUSH1 0x0 DUP1 REVERT JUMPDEST POP PUSH2 0x15A PUSH2 0x449 CALLDATASIZE PUSH1 0x4 PUSH2 0x14AA JUMP JUMPDEST PUSH2 0xD2D JUMP JUMPDEST PUSH1 0x0 CALLER PUSH32 0x0 PUSH1 0x1 PUSH1 0x1 PUSH1 0xA0 SHL SUB AND EQ PUSH2 0x4A1 JUMPI PUSH1 0x40 MLOAD PUSH3 0x461BCD PUSH1 0xE5 SHL DUP2 MSTORE PUSH1 0x4 ADD PUSH2 0x498 SWAP1 PUSH2 0x151B JUMP JUMPDEST PUSH1 0x40 MLOAD DUP1 SWAP2 SUB SWAP1 REVERT JUMPDEST SELFBALANCE DUP3 GT ISZERO PUSH2 0x4AD JUMPI SELFBALANCE SWAP2 POP JUMPDEST PUSH1 0x0 DUP4 PUSH1 0x1 PUSH1 0x1 PUSH1 0xA0 SHL SUB AND DUP4 PUSH1 0x40 MLOAD PUSH1 0x0 PUSH1 0x40 MLOAD DUP1 DUP4 SUB DUP2 DUP6 DUP8 GAS CALL SWAP3 POP POP POP RETURNDATASIZE DUP1 PUSH1 0x0 DUP2 EQ PUSH2 0x4FA JUMPI PUSH1 0x40 MLOAD SWAP2 POP PUSH1 0x1F NOT PUSH1 0x3F RETURNDATASIZE ADD AND DUP3 ADD PUSH1 0x40 MSTORE RETURNDATASIZE DUP3 MSTORE RETURNDATASIZE PUSH1 0x0 PUSH1 0x20 DUP5 ADD RETURNDATACOPY PUSH2 0x4FF JUMP JUMPDEST PUSH1 0x60 SWAP2 POP JUMPDEST POP POP SWAP1 POP DUP1 PUSH2 0x547 JUMPI PUSH1 0x40 MLOAD PUSH3 0x461BCD PUSH1 0xE5 SHL DUP2 MSTORE PUSH1 0x20 PUSH1 0x4 DUP3 ADD MSTORE PUSH1 0x14 PUSH1 0x24 DUP3 ADD MSTORE PUSH20 0x2330B4B632B2103A379039B2B7321022BA3432B9 PUSH1 0x61 SHL PUSH1 0x44 DUP3 ADD MSTORE PUSH1 0x64 ADD PUSH2 0x498 JUMP JUMPDEST POP PUSH1 0x1 SWAP4 SWAP3 POP POP POP JUMP JUMPDEST PUSH1 0x60 PUSH1 0x3 DUP1 SLOAD PUSH2 0x560 SWAP1 PUSH2 0x1540 JUMP JUMPDEST DUP1 PUSH1 0x1F ADD PUSH1 0x20 DUP1 SWAP2 DIV MUL PUSH1 0x20 ADD PUSH1 0x40 MLOAD SWAP1 DUP2 ADD PUSH1 0x40 MSTORE DUP1 SWAP3 SWAP2 SWAP1 DUP2 DUP2 MSTORE PUSH1 0x20 ADD DUP3 DUP1 SLOAD PUSH2 0x58C SWAP1 PUSH2 0x1540 JUMP JUMPDEST DUP1 ISZERO PUSH2 0x5D9 JUMPI DUP1 PUSH1 0x1F LT PUSH2 0x5AE JUMPI PUSH2 0x100 DUP1 DUP4 SLOAD DIV MUL DUP4 MSTORE SWAP2 PUSH1 0x20 ADD SWAP2 PUSH2 0x5D9 JUMP JUMPDEST DUP3 ADD SWAP2 SWAP1 PUSH1 0x0 MSTORE PUSH1 0x20 PUSH1 0x0 KECCAK256 SWAP1 JUMPDEST DUP2 SLOAD DUP2 MSTORE SWAP1 PUSH1 0x1 ADD SWAP1 PUSH1 0x20 ADD DUP1 DUP4 GT PUSH2 0x5BC JUMPI DUP3 SWAP1 SUB PUSH1 0x1F AND DUP3 ADD SWAP2 JUMPDEST POP POP POP POP POP SWAP1 POP SWAP1 JUMP JUMPDEST PUSH1 0x0 PUSH2 0x5F0 CALLER DUP5 DUP5 PUSH2 0xE1A JUMP JUMPDEST POP PUSH1 0x1 JUMPDEST SWAP3 SWAP2 POP POP JUMP JUMPDEST PUSH1 0x0 TIMESTAMP PUSH1 0xA SLOAD PUSH2 0x60A SWAP2 SWAP1 PUSH2 0x1590 JUMP JUMPDEST SWAP1 POP SWAP1 JUMP JUMPDEST PUSH1 0x0 PUSH2 0x61C DUP5 DUP5 DUP5 PUSH2 0xF3E JUMP JUMPDEST PUSH1 0x1 PUSH1 0x1 PUSH1 0xA0 SHL SUB DUP5 AND PUSH1 0x0 SWAP1 DUP2 MSTORE PUSH1 0x1 PUSH1 0x20 SWAP1 DUP2 MSTORE PUSH1 0x40 DUP1 DUP4 KECCAK256 CALLER DUP5 MSTORE SWAP1 SWAP2 MSTORE SWAP1 KECCAK256 SLOAD DUP3 DUP2 LT ISZERO PUSH2 0x6A1 JUMPI PUSH1 0x40 MLOAD PUSH3 0x461BCD PUSH1 0xE5 SHL DUP2 MSTORE PUSH1 0x20 PUSH1 0x4 DUP3 ADD MSTORE PUSH1 0x28 PUSH1 0x24 DUP3 ADD MSTORE PUSH32 0x45524332303A207472616E7366657220616D6F756E7420657863656564732061 PUSH1 0x44 DUP3 ADD MSTORE PUSH8 0x6C6C6F77616E6365 PUSH1 0xC0 SHL PUSH1 0x64 DUP3 ADD MSTORE PUSH1 0x84 ADD PUSH2 0x498 JUMP JUMPDEST PUSH2 0x6AE DUP6 CALLER DUP6 DUP5 SUB PUSH2 0xE1A JUMP JUMPDEST POP PUSH1 0x1 SWAP5 SWAP4 POP POP POP POP JUMP JUMPDEST ADDRESS PUSH1 0x1 PUSH1 0x1 PUSH1 0xA0 SHL SUB AND PUSH4 0xA2B61E55 PUSH1 0x40 MLOAD DUP2 PUSH4 0xFFFFFFFF AND PUSH1 0xE0 SHL DUP2 MSTORE PUSH1 0x4 ADD PUSH1 0x0 PUSH1 0x40 MLOAD DUP1 DUP4 SUB DUP2 PUSH1 0x0 DUP8 DUP1 EXTCODESIZE ISZERO DUP1 ISZERO PUSH2 0x6F4 JUMPI PUSH1 0x0 DUP1 REVERT JUMPDEST POP GAS CALL ISZERO DUP1 ISZERO PUSH2 0x708 JUMPI RETURNDATASIZE PUSH1 0x0 DUP1 RETURNDATACOPY RETURNDATASIZE PUSH1 0x0 REVERT JUMPDEST POP POP POP POP JUMP JUMPDEST CALLER PUSH1 0x0 DUP2 DUP2 MSTORE PUSH1 0x1 PUSH1 0x20 SWAP1 DUP2 MSTORE PUSH1 0x40 DUP1 DUP4 KECCAK256 PUSH1 0x1 PUSH1 0x1 PUSH1 0xA0 SHL SUB DUP8 AND DUP5 MSTORE SWAP1 SWAP2 MSTORE DUP2 KECCAK256 SLOAD SWAP1 SWAP2 PUSH2 0x5F0 SWAP2 DUP6 SWAP1 PUSH2 0x745 SWAP1 DUP7 SWAP1 PUSH2 0x15A7 JUMP JUMPDEST PUSH2 0xE1A JUMP JUMPDEST PUSH1 0x6 SLOAD PUSH1 0x1 PUSH1 0x1 PUSH1 0xA0 SHL SUB AND CALLER EQ DUP1 PUSH2 0x76D JUMPI POP PUSH1 0x5 SLOAD PUSH1 0x1 PUSH1 0x1 PUSH1 0xA0 SHL SUB AND CALLER EQ JUMPDEST PUSH2 0x776 JUMPI PUSH1 0x0 DUP1 REVERT JUMPDEST PUSH1 0x40 MLOAD PUSH4 0xA9059CBB PUSH1 0xE0 SHL DUP2 MSTORE PUSH1 0x1 PUSH1 0x1 PUSH1 0xA0 SHL SUB DUP4 AND SWAP1 PUSH4 0xA9059CBB SWAP1 PUSH2 0x7A4 SWAP1 CALLER SWAP1 DUP6 SWAP1 PUSH1 0x4 ADD PUSH2 0x15BF JUMP JUMPDEST PUSH1 0x20 PUSH1 0x40 MLOAD DUP1 DUP4 SUB DUP2 PUSH1 0x0 DUP8 GAS CALL ISZERO DUP1 ISZERO PUSH2 0x7C3 JUMPI RETURNDATASIZE PUSH1 0x0 DUP1 RETURNDATACOPY RETURNDATASIZE PUSH1 0x0 REVERT JUMPDEST POP POP POP POP PUSH1 0x40 MLOAD RETURNDATASIZE PUSH1 0x1F NOT PUSH1 0x1F DUP3 ADD AND DUP3 ADD DUP1 PUSH1 0x40 MSTORE POP DUP2 ADD SWAP1 PUSH2 0x7E7 SWAP2 SWAP1 PUSH2 0x15D8 JUMP JUMPDEST PUSH2 0x7F0 JUMPI PUSH1 0x0 DUP1 REVERT JUMPDEST POP POP JUMP JUMPDEST PUSH1 0x40 MLOAD PUSH4 0x249818DB PUSH1 0xE1 SHL DUP2 MSTORE ADDRESS SWAP1 PUSH4 0x493031B6 SWAP1 PUSH2 0x819 SWAP1 DUP6 SWAP1 DUP6 SWAP1 PUSH1 0x4 ADD PUSH2 0x15BF JUMP JUMPDEST PUSH1 0x0 PUSH1 0x40 MLOAD DUP1 DUP4 SUB DUP2 PUSH1 0x0 DUP8 DUP1 EXTCODESIZE ISZERO DUP1 ISZERO PUSH2 0x833 JUMPI PUSH1 0x0 DUP1 REVERT JUMPDEST POP GAS CALL ISZERO DUP1 ISZERO PUSH2 0x847 JUMPI RETURNDATASIZE PUSH1 0x0 DUP1 RETURNDATACOPY RETURNDATASIZE PUSH1 0x0 REVERT JUMPDEST POP POP POP POP POP POP JUMP JUMPDEST PUSH1 0x0 CALLER PUSH32 0x0 PUSH1 0x1 PUSH1 0x1 PUSH1 0xA0 SHL SUB AND EQ PUSH2 0x899 JUMPI PUSH1 0x40 MLOAD PUSH3 0x461BCD PUSH1 0xE5 SHL DUP2 MSTORE PUSH1 0x4 ADD PUSH2 0x498 SWAP1 PUSH2 0x151B JUMP JUMPDEST PUSH1 0xB SLOAD PUSH1 0xFF AND PUSH2 0x9A9 JUMPI PUSH1 0x40 MLOAD PUSH4 0x70A08231 PUSH1 0xE0 SHL DUP2 MSTORE PUSH1 0x1 PUSH1 0x1 PUSH1 0xA0 SHL SUB DUP5 AND SWAP1 PUSH4 0x70A08231 SWAP1 PUSH2 0x8CF SWAP1 ADDRESS SWAP1 PUSH1 0x4 ADD PUSH2 0x14CE JUMP JUMPDEST PUSH1 0x20 PUSH1 0x40 MLOAD DUP1 DUP4 SUB DUP2 DUP7 GAS STATICCALL ISZERO DUP1 ISZERO PUSH2 0x8EC JUMPI RETURNDATASIZE PUSH1 0x0 DUP1 RETURNDATACOPY RETURNDATASIZE PUSH1 0x0 REVERT JUMPDEST POP POP POP POP PUSH1 0x40 MLOAD RETURNDATASIZE PUSH1 0x1F NOT PUSH1 0x1F DUP3 ADD AND DUP3 ADD DUP1 PUSH1 0x40 MSTORE POP DUP2 ADD SWAP1 PUSH2 0x910 SWAP2 SWAP1 PUSH2 0x15FA JUMP JUMPDEST DUP3 GT ISZERO PUSH2 0x987 JUMPI PUSH1 0x40 MLOAD PUSH4 0x70A08231 PUSH1 0xE0 SHL DUP2 MSTORE PUSH1 0x1 PUSH1 0x1 PUSH1 0xA0 SHL SUB DUP5 AND SWAP1 PUSH4 0x70A08231 SWAP1 PUSH2 0x943 SWAP1 ADDRESS SWAP1 PUSH1 0x4 ADD PUSH2 0x14CE JUMP JUMPDEST PUSH1 0x20 PUSH1 0x40 MLOAD DUP1 DUP4 SUB DUP2 DUP7 GAS STATICCALL ISZERO DUP1 ISZERO PUSH2 0x960 JUMPI RETURNDATASIZE PUSH1 0x0 DUP1 RETURNDATACOPY RETURNDATASIZE PUSH1 0x0 REVERT JUMPDEST POP POP POP POP PUSH1 0x40 MLOAD RETURNDATASIZE PUSH1 0x1F NOT PUSH1 0x1F DUP3 ADD AND DUP3 ADD DUP1 PUSH1 0x40 MSTORE POP DUP2 ADD SWAP1 PUSH2 0x984 SWAP2 SWAP1 PUSH2 0x15FA JUMP JUMPDEST SWAP2 POP JUMPDEST PUSH1 0x7 SLOAD PUSH2 0x9A1 SWAP1 PUSH1 0x1 PUSH1 0x1 PUSH1 0xA0 SHL SUB DUP6 DUP2 AND SWAP2 AND DUP5 PUSH2 0x110C JUMP JUMPDEST POP PUSH1 0x1 PUSH2 0xA0E JUMP JUMPDEST SELFBALANCE DUP3 GT ISZERO PUSH2 0x9B5 JUMPI SELFBALANCE SWAP2 POP JUMPDEST PUSH1 0x7 SLOAD PUSH1 0x40 MLOAD PUSH1 0x0 SWAP2 PUSH1 0x1 PUSH1 0x1 PUSH1 0xA0 SHL SUB AND SWAP1 DUP5 SWAP1 DUP4 DUP2 DUP2 DUP2 DUP6 DUP8 GAS CALL SWAP3 POP POP POP RETURNDATASIZE DUP1 PUSH1 0x0 DUP2 EQ PUSH2 0xA02 JUMPI PUSH1 0x40 MLOAD SWAP2 POP PUSH1 0x1F NOT PUSH1 0x3F RETURNDATASIZE ADD AND DUP3 ADD PUSH1 0x40 MSTORE RETURNDATASIZE DUP3 MSTORE RETURNDATASIZE PUSH1 0x0 PUSH1 0x20 DUP5 ADD RETURNDATACOPY PUSH2 0xA07 JUMP JUMPDEST PUSH1 0x60 SWAP2 POP JUMPDEST POP SWAP1 SWAP3 POP POP POP JUMPDEST DUP1 PUSH2 0x5F4 JUMPI PUSH1 0x40 MLOAD PUSH3 0x461BCD PUSH1 0xE5 SHL DUP2 MSTORE PUSH1 0x20 PUSH1 0x4 DUP3 ADD MSTORE PUSH1 0x12 PUSH1 0x24 DUP3 ADD MSTORE PUSH18 0x151C985B9CD858DD1A5BDB8811985A5B1959 PUSH1 0x72 SHL PUSH1 0x44 DUP3 ADD MSTORE PUSH1 0x64 ADD PUSH2 0x498 JUMP JUMPDEST PUSH1 0x60 PUSH1 0x4 DUP1 SLOAD PUSH2 0x560 SWAP1 PUSH2 0x1540 JUMP JUMPDEST PUSH1 0x6 SLOAD PUSH1 0x1 PUSH1 0x1 PUSH1 0xA0 SHL SUB AND CALLER EQ DUP1 PUSH2 0xA82 JUMPI POP PUSH1 0x5 SLOAD PUSH1 0x1 PUSH1 0x1 PUSH1 0xA0 SHL SUB AND CALLER EQ JUMPDEST PUSH2 0xA8B JUMPI PUSH1 0x0 DUP1 REVERT JUMPDEST PUSH1 0x40 MLOAD PUSH1 0x0 SWAP1 CALLER SWAP1 SELFBALANCE SWAP1 DUP4 DUP2 DUP2 DUP2 DUP6 DUP8 GAS CALL SWAP3 POP POP POP RETURNDATASIZE DUP1 PUSH1 0x0 DUP2 EQ PUSH2 0xACD JUMPI PUSH1 0x40 MLOAD SWAP2 POP PUSH1 0x1F NOT PUSH1 0x3F RETURNDATASIZE ADD AND DUP3 ADD PUSH1 0x40 MSTORE RETURNDATASIZE DUP3 MSTORE RETURNDATASIZE PUSH1 0x0 PUSH1 0x20 DUP5 ADD RETURNDATACOPY PUSH2 0xAD2 JUMP JUMPDEST PUSH1 0x60 SWAP2 POP JUMPDEST POP POP SWAP1 POP DUP1 PUSH2 0xAE0 JUMPI PUSH1 0x0 DUP1 REVERT JUMPDEST POP JUMP JUMPDEST CALLER PUSH1 0x0 SWAP1 DUP2 MSTORE PUSH1 0x1 PUSH1 0x20 SWAP1 DUP2 MSTORE PUSH1 0x40 DUP1 DUP4 KECCAK256 PUSH1 0x1 PUSH1 0x1 PUSH1 0xA0 SHL SUB DUP7 AND DUP5 MSTORE SWAP1 SWAP2 MSTORE DUP2 KECCAK256 SLOAD DUP3 DUP2 LT ISZERO PUSH2 0xB65 JUMPI PUSH1 0x40 MLOAD PUSH3 0x461BCD PUSH1 0xE5 SHL DUP2 MSTORE PUSH1 0x20 PUSH1 0x4 DUP3 ADD MSTORE PUSH1 0x25 PUSH1 0x24 DUP3 ADD MSTORE PUSH32 0x45524332303A2064656372656173656420616C6C6F77616E63652062656C6F77 PUSH1 0x44 DUP3 ADD MSTORE PUSH5 0x207A65726F PUSH1 0xD8 SHL PUSH1 0x64 DUP3 ADD MSTORE PUSH1 0x84 ADD PUSH2 0x498 JUMP JUMPDEST PUSH2 0x547 CALLER DUP6 DUP6 DUP5 SUB PUSH2 0xE1A JUMP JUMPDEST PUSH1 0x0 CALLER PUSH32 0x0 PUSH1 0x1 PUSH1 0x1 PUSH1 0xA0 SHL SUB AND EQ PUSH2 0xBBC JUMPI PUSH1 0x40 MLOAD PUSH3 0x461BCD PUSH1 0xE5 SHL DUP2 MSTORE PUSH1 0x4 ADD PUSH2 0x498 SWAP1 PUSH2 0x151B JUMP JUMPDEST PUSH1 0x40 MLOAD PUSH4 0x70A08231 PUSH1 0xE0 SHL DUP2 MSTORE PUSH1 0x1 PUSH1 0x1 PUSH1 0xA0 SHL SUB DUP6 AND SWAP1 PUSH4 0x70A08231 SWAP1 PUSH2 0xBE8 SWAP1 ADDRESS SWAP1 PUSH1 0x4 ADD PUSH2 0x14CE JUMP JUMPDEST PUSH1 0x20 PUSH1 0x40 MLOAD DUP1 DUP4 SUB DUP2 DUP7 GAS STATICCALL ISZERO DUP1 ISZERO PUSH2 0xC05 JUMPI RETURNDATASIZE PUSH1 0x0 DUP1 RETURNDATACOPY RETURNDATASIZE PUSH1 0x0 REVERT JUMPDEST POP POP POP POP PUSH1 0x40 MLOAD RETURNDATASIZE PUSH1 0x1F NOT PUSH1 0x1F DUP3 ADD AND DUP3 ADD DUP1 PUSH1 0x40 MSTORE POP DUP2 ADD SWAP1 PUSH2 0xC29 SWAP2 SWAP1 PUSH2 0x15FA JUMP JUMPDEST DUP3 GT ISZERO PUSH2 0xCA0 JUMPI PUSH1 0x40 MLOAD PUSH4 0x70A08231 PUSH1 0xE0 SHL DUP2 MSTORE PUSH1 0x1 PUSH1 0x1 PUSH1 0xA0 SHL SUB DUP6 AND SWAP1 PUSH4 0x70A08231 SWAP1 PUSH2 0xC5C SWAP1 ADDRESS SWAP1 PUSH1 0x4 ADD PUSH2 0x14CE JUMP JUMPDEST PUSH1 0x20 PUSH1 0x40 MLOAD DUP1 DUP4 SUB DUP2 DUP7 GAS STATICCALL ISZERO DUP1 ISZERO PUSH2 0xC79 JUMPI RETURNDATASIZE PUSH1 0x0 DUP1 RETURNDATACOPY RETURNDATASIZE PUSH1 0x0 REVERT JUMPDEST POP POP POP POP PUSH1 0x40 MLOAD RETURNDATASIZE PUSH1 0x1F NOT PUSH1 0x1F DUP3 ADD AND DUP3 ADD DUP1 PUSH1 0x40 MSTORE POP DUP2 ADD SWAP1 PUSH2 0xC9D SWAP2 SWAP1 PUSH2 0x15FA JUMP JUMPDEST SWAP2 POP JUMPDEST PUSH2 0x547 PUSH1 0x1 PUSH1 0x1 PUSH1 0xA0 SHL SUB DUP6 AND DUP5 DUP5 PUSH2 0x110C JUMP JUMPDEST PUSH1 0x0 PUSH2 0x5F0 CALLER DUP5 DUP5 PUSH2 0xF3E JUMP JUMPDEST PUSH1 0x40 MLOAD PUSH4 0x70A08231 PUSH1 0xE0 SHL DUP2 MSTORE PUSH2 0xD2B SWAP1 ADDRESS SWAP1 DUP2 SWAP1 PUSH4 0x70A08231 SWAP1 PUSH2 0xCEA SWAP1 DUP4 SWAP1 PUSH1 0x4 ADD PUSH2 0x14CE JUMP JUMPDEST PUSH1 0x20 PUSH1 0x40 MLOAD DUP1 DUP4 SUB DUP2 DUP7 GAS STATICCALL ISZERO DUP1 ISZERO PUSH2 0xD07 JUMPI RETURNDATASIZE PUSH1 0x0 DUP1 RETURNDATACOPY RETURNDATASIZE PUSH1 0x0 REVERT JUMPDEST POP POP POP POP PUSH1 0x40 MLOAD RETURNDATASIZE PUSH1 0x1F NOT PUSH1 0x1F DUP3 ADD AND DUP3 ADD DUP1 PUSH1 0x40 MSTORE POP DUP2 ADD SWAP1 PUSH2 0x29E SWAP2 SWAP1 PUSH2 0x15FA JUMP JUMPDEST JUMP JUMPDEST PUSH1 0x0 CALLER PUSH32 0x0 PUSH1 0x1 PUSH1 0x1 PUSH1 0xA0 SHL SUB AND EQ PUSH2 0xD77 JUMPI PUSH1 0x40 MLOAD PUSH3 0x461BCD PUSH1 0xE5 SHL DUP2 MSTORE PUSH1 0x4 ADD PUSH2 0x498 SWAP1 PUSH2 0x151B JUMP JUMPDEST PUSH1 0x7 SLOAD PUSH1 0x1 PUSH1 0x1 PUSH1 0xA0 SHL SUB SWAP1 DUP2 AND SWAP1 DUP4 AND SUB PUSH2 0xDC3 JUMPI PUSH1 0x40 MLOAD PUSH3 0x461BCD PUSH1 0xE5 SHL DUP2 MSTORE PUSH1 0x20 PUSH1 0x4 DUP3 ADD MSTORE PUSH1 0xB PUSH1 0x24 DUP3 ADD MSTORE PUSH11 0x185B1C9958591E481CD95D PUSH1 0xAA SHL PUSH1 0x44 DUP3 ADD MSTORE PUSH1 0x64 ADD PUSH2 0x498 JUMP JUMPDEST PUSH1 0x7 DUP1 SLOAD PUSH1 0x1 PUSH1 0x1 PUSH1 0xA0 SHL SUB DUP5 DUP2 AND PUSH1 0x1 PUSH1 0x1 PUSH1 0xA0 SHL SUB NOT DUP4 AND DUP2 OR SWAP1 SWAP4 SSTORE PUSH1 0x40 MLOAD SWAP2 AND SWAP2 SWAP1 DUP3 SWAP1 PUSH32 0x63DB4FD02ABE7291D8F941514C494426E598A36D386FAFA477735F923D30C83E SWAP1 PUSH1 0x0 SWAP1 LOG3 POP PUSH1 0x1 SWAP3 SWAP2 POP POP JUMP JUMPDEST PUSH1 0x1 PUSH1 0x1 PUSH1 0xA0 SHL SUB DUP4 AND PUSH2 0xE7C JUMPI PUSH1 0x40 MLOAD PUSH3 0x461BCD PUSH1 0xE5 SHL DUP2 MSTORE PUSH1 0x20 PUSH1 0x4 DUP3 ADD MSTORE PUSH1 0x24 DUP1 DUP3 ADD MSTORE PUSH32 0x45524332303A20617070726F76652066726F6D20746865207A65726F20616464 PUSH1 0x44 DUP3 ADD MSTORE PUSH4 0x72657373 PUSH1 0xE0 SHL PUSH1 0x64 DUP3 ADD MSTORE PUSH1 0x84 ADD PUSH2 0x498 JUMP JUMPDEST PUSH1 0x1 PUSH1 0x1 PUSH1 0xA0 SHL SUB DUP3 AND PUSH2 0xEDD JUMPI PUSH1 0x40 MLOAD PUSH3 0x461BCD PUSH1 0xE5 SHL DUP2 MSTORE PUSH1 0x20 PUSH1 0x4 DUP3 ADD MSTORE PUSH1 0x22 PUSH1 0x24 DUP3 ADD MSTORE PUSH32 0x45524332303A20617070726F766520746F20746865207A65726F206164647265 PUSH1 0x44 DUP3 ADD MSTORE PUSH2 0x7373 PUSH1 0xF0 SHL PUSH1 0x64 DUP3 ADD MSTORE PUSH1 0x84 ADD PUSH2 0x498 JUMP JUMPDEST PUSH1 0x1 PUSH1 0x1 PUSH1 0xA0 SHL SUB DUP4 DUP2 AND PUSH1 0x0 DUP2 DUP2 MSTORE PUSH1 0x1 PUSH1 0x20 SWAP1 DUP2 MSTORE PUSH1 0x40 DUP1 DUP4 KECCAK256 SWAP5 DUP8 AND DUP1 DUP5 MSTORE SWAP5 DUP3 MSTORE SWAP2 DUP3 SWAP1 KECCAK256 DUP6 SWAP1 SSTORE SWAP1 MLOAD DUP5 DUP2 MSTORE PUSH32 0x8C5BE1E5EBEC7D5BD14F71427D1E84F3DD0314C0F7B2291E5B200AC8C7C3B925 SWAP2 ADD PUSH1 0x40 MLOAD DUP1 SWAP2 SUB SWAP1 LOG3 POP POP POP JUMP JUMPDEST PUSH1 0x1 PUSH1 0x1 PUSH1 0xA0 SHL SUB DUP4 AND PUSH2 0xFA2 JUMPI PUSH1 0x40 MLOAD PUSH3 0x461BCD PUSH1 0xE5 SHL DUP2 MSTORE PUSH1 0x20 PUSH1 0x4 DUP3 ADD MSTORE PUSH1 0x25 PUSH1 0x24 DUP3 ADD MSTORE PUSH32 0x45524332303A207472616E736665722066726F6D20746865207A65726F206164 PUSH1 0x44 DUP3 ADD MSTORE PUSH5 0x6472657373 PUSH1 0xD8 SHL PUSH1 0x64 DUP3 ADD MSTORE PUSH1 0x84 ADD PUSH2 0x498 JUMP JUMPDEST PUSH1 0x1 PUSH1 0x1 PUSH1 0xA0 SHL SUB DUP3 AND PUSH2 0x1004 JUMPI PUSH1 0x40 MLOAD PUSH3 0x461BCD PUSH1 0xE5 SHL DUP2 MSTORE PUSH1 0x20 PUSH1 0x4 DUP3 ADD MSTORE PUSH1 0x23 PUSH1 0x24 DUP3 ADD MSTORE PUSH32 0x45524332303A207472616E7366657220746F20746865207A65726F2061646472 PUSH1 0x44 DUP3 ADD MSTORE PUSH3 0x657373 PUSH1 0xE8 SHL PUSH1 0x64 DUP3 ADD MSTORE PUSH1 0x84 ADD PUSH2 0x498 JUMP JUMPDEST PUSH1 0x1 PUSH1 0x1 PUSH1 0xA0 SHL SUB DUP4 AND PUSH1 0x0 SWAP1 DUP2 MSTORE PUSH1 0x20 DUP2 SWAP1 MSTORE PUSH1 0x40 SWAP1 KECCAK256 SLOAD DUP2 DUP2 LT ISZERO PUSH2 0x107C JUMPI PUSH1 0x40 MLOAD PUSH3 0x461BCD PUSH1 0xE5 SHL DUP2 MSTORE PUSH1 0x20 PUSH1 0x4 DUP3 ADD MSTORE PUSH1 0x26 PUSH1 0x24 DUP3 ADD MSTORE PUSH32 0x45524332303A207472616E7366657220616D6F756E7420657863656564732062 PUSH1 0x44 DUP3 ADD MSTORE PUSH6 0x616C616E6365 PUSH1 0xD0 SHL PUSH1 0x64 DUP3 ADD MSTORE PUSH1 0x84 ADD PUSH2 0x498 JUMP JUMPDEST PUSH1 0x1 PUSH1 0x1 PUSH1 0xA0 SHL SUB DUP1 DUP6 AND PUSH1 0x0 SWAP1 DUP2 MSTORE PUSH1 0x20 DUP2 SWAP1 MSTORE PUSH1 0x40 DUP1 DUP3 KECCAK256 DUP6 DUP6 SUB SWAP1 SSTORE SWAP2 DUP6 AND DUP2 MSTORE SWAP1 DUP2 KECCAK256 DUP1 SLOAD DUP5 SWAP3 SWAP1 PUSH2 0x10B3 SWAP1 DUP5 SWAP1 PUSH2 0x15A7 JUMP JUMPDEST SWAP3 POP POP DUP2 SWAP1 SSTORE POP DUP3 PUSH1 0x1 PUSH1 0x1 PUSH1 0xA0 SHL SUB AND DUP5 PUSH1 0x1 PUSH1 0x1 PUSH1 0xA0 SHL SUB AND PUSH32 0xDDF252AD1BE2C89B69C2B068FC378DAA952BA7F163C4A11628F55A4DF523B3EF DUP5 PUSH1 0x40 MLOAD PUSH2 0x10FF SWAP2 DUP2 MSTORE PUSH1 0x20 ADD SWAP1 JUMP JUMPDEST PUSH1 0x40 MLOAD DUP1 SWAP2 SUB SWAP1 LOG3 PUSH2 0x708 JUMP JUMPDEST PUSH2 0x1162 DUP4 PUSH4 0xA9059CBB PUSH1 0xE0 SHL DUP5 DUP5 PUSH1 0x40 MLOAD PUSH1 0x24 ADD PUSH2 0x112B SWAP3 SWAP2 SWAP1 PUSH2 0x15BF JUMP JUMPDEST PUSH1 0x40 DUP1 MLOAD PUSH1 0x1F NOT DUP2 DUP5 SUB ADD DUP2 MSTORE SWAP2 SWAP1 MSTORE PUSH1 0x20 DUP2 ADD DUP1 MLOAD PUSH1 0x1 PUSH1 0x1 PUSH1 0xE0 SHL SUB AND PUSH1 0x1 PUSH1 0x1 PUSH1 0xE0 SHL SUB NOT SWAP1 SWAP4 AND SWAP3 SWAP1 SWAP3 OR SWAP1 SWAP2 MSTORE PUSH2 0x1167 JUMP JUMPDEST POP POP POP JUMP JUMPDEST PUSH1 0x0 PUSH2 0x11BC DUP3 PUSH1 0x40 MLOAD DUP1 PUSH1 0x40 ADD PUSH1 0x40 MSTORE DUP1 PUSH1 0x20 DUP2 MSTORE PUSH1 0x20 ADD PUSH32 0x5361666545524332303A206C6F772D6C6576656C2063616C6C206661696C6564 DUP2 MSTORE POP DUP6 PUSH1 0x1 PUSH1 0x1 PUSH1 0xA0 SHL SUB AND PUSH2 0x1239 SWAP1 SWAP3 SWAP2 SWAP1 PUSH4 0xFFFFFFFF AND JUMP JUMPDEST DUP1 MLOAD SWAP1 SWAP2 POP ISZERO PUSH2 0x1162 JUMPI DUP1 DUP1 PUSH1 0x20 ADD SWAP1 MLOAD DUP2 ADD SWAP1 PUSH2 0x11DA SWAP2 SWAP1 PUSH2 0x15D8 JUMP JUMPDEST PUSH2 0x1162 JUMPI PUSH1 0x40 MLOAD PUSH3 0x461BCD PUSH1 0xE5 SHL DUP2 MSTORE PUSH1 0x20 PUSH1 0x4 DUP3 ADD MSTORE PUSH1 0x2A PUSH1 0x24 DUP3 ADD MSTORE PUSH32 0x5361666545524332303A204552433230206F7065726174696F6E20646964206E PUSH1 0x44 DUP3 ADD MSTORE PUSH10 0x1BDD081CDD58D8D95959 PUSH1 0xB2 SHL PUSH1 0x64 DUP3 ADD MSTORE PUSH1 0x84 ADD PUSH2 0x498 JUMP JUMPDEST PUSH1 0x60 PUSH2 0x1248 DUP5 DUP5 PUSH1 0x0 DUP6 PUSH2 0x1250 JUMP JUMPDEST SWAP5 SWAP4 POP POP POP POP JUMP JUMPDEST PUSH1 0x60 DUP3 SELFBALANCE LT ISZERO PUSH2 0x12B1 JUMPI PUSH1 0x40 MLOAD PUSH3 0x461BCD PUSH1 0xE5 SHL DUP2 MSTORE PUSH1 0x20 PUSH1 0x4 DUP3 ADD MSTORE PUSH1 0x26 PUSH1 0x24 DUP3 ADD MSTORE PUSH32 0x416464726573733A20696E73756666696369656E742062616C616E636520666F PUSH1 0x44 DUP3 ADD MSTORE PUSH6 0x1C8818D85B1B PUSH1 0xD2 SHL PUSH1 0x64 DUP3 ADD MSTORE PUSH1 0x84 ADD PUSH2 0x498 JUMP JUMPDEST PUSH1 0x0 DUP1 DUP7 PUSH1 0x1 PUSH1 0x1 PUSH1 0xA0 SHL SUB AND DUP6 DUP8 PUSH1 0x40 MLOAD PUSH2 0x12CD SWAP2 SWAP1 PUSH2 0x1613 JUMP JUMPDEST PUSH1 0x0 PUSH1 0x40 MLOAD DUP1 DUP4 SUB DUP2 DUP6 DUP8 GAS CALL SWAP3 POP POP POP RETURNDATASIZE DUP1 PUSH1 0x0 DUP2 EQ PUSH2 0x130A JUMPI PUSH1 0x40 MLOAD SWAP2 POP PUSH1 0x1F NOT PUSH1 0x3F RETURNDATASIZE ADD AND DUP3 ADD PUSH1 0x40 MSTORE RETURNDATASIZE DUP3 MSTORE RETURNDATASIZE PUSH1 0x0 PUSH1 0x20 DUP5 ADD RETURNDATACOPY PUSH2 0x130F JUMP JUMPDEST PUSH1 0x60 SWAP2 POP JUMPDEST POP SWAP2 POP SWAP2 POP PUSH2 0x1320 DUP8 DUP4 DUP4 DUP8 PUSH2 0x132B JUMP JUMPDEST SWAP8 SWAP7 POP POP POP POP POP POP POP JUMP JUMPDEST PUSH1 0x60 DUP4 ISZERO PUSH2 0x139A JUMPI DUP3 MLOAD PUSH1 0x0 SUB PUSH2 0x1393 JUMPI PUSH1 0x1 PUSH1 0x1 PUSH1 0xA0 SHL SUB DUP6 AND EXTCODESIZE PUSH2 0x1393 JUMPI PUSH1 0x40 MLOAD PUSH3 0x461BCD PUSH1 0xE5 SHL DUP2 MSTORE PUSH1 0x20 PUSH1 0x4 DUP3 ADD MSTORE PUSH1 0x1D PUSH1 0x24 DUP3 ADD MSTORE PUSH32 0x416464726573733A2063616C6C20746F206E6F6E2D636F6E7472616374000000 PUSH1 0x44 DUP3 ADD MSTORE PUSH1 0x64 ADD PUSH2 0x498 JUMP JUMPDEST POP DUP2 PUSH2 0x1248 JUMP JUMPDEST PUSH2 0x1248 DUP4 DUP4 DUP2 MLOAD ISZERO PUSH2 0x13AF JUMPI DUP2 MLOAD DUP1 DUP4 PUSH1 0x20 ADD REVERT JUMPDEST DUP1 PUSH1 0x40 MLOAD PUSH3 0x461BCD PUSH1 0xE5 SHL DUP2 MSTORE PUSH1 0x4 ADD PUSH2 0x498 SWAP2 SWAP1 PUSH2 0x1436 JUMP JUMPDEST PUSH1 0x1 PUSH1 0x1 PUSH1 0xA0 SHL SUB DUP2 AND DUP2 EQ PUSH2 0xAE0 JUMPI PUSH1 0x0 DUP1 REVERT JUMPDEST PUSH1 0x0 DUP1 PUSH1 0x40 DUP4 DUP6 SUB SLT ISZERO PUSH2 0x13F1 JUMPI PUSH1 0x0 DUP1 REVERT JUMPDEST DUP3 CALLDATALOAD PUSH2 0x13FC DUP2 PUSH2 0x13C9 JUMP JUMPDEST SWAP5 PUSH1 0x20 SWAP4 SWAP1 SWAP4 ADD CALLDATALOAD SWAP4 POP POP POP JUMP JUMPDEST PUSH1 0x0 JUMPDEST DUP4 DUP2 LT ISZERO PUSH2 0x1425 JUMPI DUP2 DUP2 ADD MLOAD DUP4 DUP3 ADD MSTORE PUSH1 0x20 ADD PUSH2 0x140D JUMP JUMPDEST DUP4 DUP2 GT ISZERO PUSH2 0x708 JUMPI POP POP PUSH1 0x0 SWAP2 ADD MSTORE JUMP JUMPDEST PUSH1 0x20 DUP2 MSTORE PUSH1 0x0 DUP3 MLOAD DUP1 PUSH1 0x20 DUP5 ADD MSTORE PUSH2 0x1455 DUP2 PUSH1 0x40 DUP6 ADD PUSH1 0x20 DUP8 ADD PUSH2 0x140A JUMP JUMPDEST PUSH1 0x1F ADD PUSH1 0x1F NOT AND SWAP2 SWAP1 SWAP2 ADD PUSH1 0x40 ADD SWAP3 SWAP2 POP POP JUMP JUMPDEST PUSH1 0x0 DUP1 PUSH1 0x0 PUSH1 0x60 DUP5 DUP7 SUB SLT ISZERO PUSH2 0x147E JUMPI PUSH1 0x0 DUP1 REVERT JUMPDEST DUP4 CALLDATALOAD PUSH2 0x1489 DUP2 PUSH2 0x13C9 JUMP JUMPDEST SWAP3 POP PUSH1 0x20 DUP5 ADD CALLDATALOAD PUSH2 0x1499 DUP2 PUSH2 0x13C9 JUMP JUMPDEST SWAP3 SWAP6 SWAP3 SWAP5 POP POP POP PUSH1 0x40 SWAP2 SWAP1 SWAP2 ADD CALLDATALOAD SWAP1 JUMP JUMPDEST PUSH1 0x0 PUSH1 0x20 DUP3 DUP5 SUB SLT ISZERO PUSH2 0x14BC JUMPI PUSH1 0x0 DUP1 REVERT JUMPDEST DUP2 CALLDATALOAD PUSH2 0x14C7 DUP2 PUSH2 0x13C9 JUMP JUMPDEST SWAP4 SWAP3 POP POP POP JUMP JUMPDEST PUSH1 0x1 PUSH1 0x1 PUSH1 0xA0 SHL SUB SWAP2 SWAP1 SWAP2 AND DUP2 MSTORE PUSH1 0x20 ADD SWAP1 JUMP JUMPDEST PUSH1 0x0 DUP1 PUSH1 0x40 DUP4 DUP6 SUB SLT ISZERO PUSH2 0x14F5 JUMPI PUSH1 0x0 DUP1 REVERT JUMPDEST DUP3 CALLDATALOAD PUSH2 0x1500 DUP2 PUSH2 0x13C9 JUMP JUMPDEST SWAP2 POP PUSH1 0x20 DUP4 ADD CALLDATALOAD PUSH2 0x1510 DUP2 PUSH2 0x13C9 JUMP JUMPDEST DUP1 SWAP2 POP POP SWAP3 POP SWAP3 SWAP1 POP JUMP JUMPDEST PUSH1 0x20 DUP1 DUP3 MSTORE PUSH1 0xB SWAP1 DUP3 ADD MSTORE PUSH11 0x37B7363C903637B1B5B2B9 PUSH1 0xA9 SHL PUSH1 0x40 DUP3 ADD MSTORE PUSH1 0x60 ADD SWAP1 JUMP JUMPDEST PUSH1 0x1 DUP2 DUP2 SHR SWAP1 DUP3 AND DUP1 PUSH2 0x1554 JUMPI PUSH1 0x7F DUP3 AND SWAP2 POP JUMPDEST PUSH1 0x20 DUP3 LT DUP2 SUB PUSH2 0x1574 JUMPI PUSH4 0x4E487B71 PUSH1 0xE0 SHL PUSH1 0x0 MSTORE PUSH1 0x22 PUSH1 0x4 MSTORE PUSH1 0x24 PUSH1 0x0 REVERT JUMPDEST POP SWAP2 SWAP1 POP JUMP JUMPDEST PUSH4 0x4E487B71 PUSH1 0xE0 SHL PUSH1 0x0 MSTORE PUSH1 0x11 PUSH1 0x4 MSTORE PUSH1 0x24 PUSH1 0x0 REVERT JUMPDEST PUSH1 0x0 DUP3 DUP3 LT ISZERO PUSH2 0x15A2 JUMPI PUSH2 0x15A2 PUSH2 0x157A JUMP JUMPDEST POP SUB SWAP1 JUMP JUMPDEST PUSH1 0x0 DUP3 NOT DUP3 GT ISZERO PUSH2 0x15BA JUMPI PUSH2 0x15BA PUSH2 0x157A JUMP JUMPDEST POP ADD SWAP1 JUMP JUMPDEST PUSH1 0x1 PUSH1 0x1 PUSH1 0xA0 SHL SUB SWAP3 SWAP1 SWAP3 AND DUP3 MSTORE PUSH1 0x20 DUP3 ADD MSTORE PUSH1 0x40 ADD SWAP1 JUMP JUMPDEST PUSH1 0x0 PUSH1 0x20 DUP3 DUP5 SUB SLT ISZERO PUSH2 0x15EA JUMPI PUSH1 0x0 DUP1 REVERT JUMPDEST DUP2 MLOAD DUP1 ISZERO ISZERO DUP2 EQ PUSH2 0x14C7 JUMPI PUSH1 0x0 DUP1 REVERT JUMPDEST PUSH1 0x0 PUSH1 0x20 DUP3 DUP5 SUB SLT ISZERO PUSH2 0x160C JUMPI PUSH1 0x0 DUP1 REVERT JUMPDEST POP MLOAD SWAP2 SWAP1 POP JUMP JUMPDEST PUSH1 0x0 DUP3 MLOAD PUSH2 0x1625 DUP2 DUP5 PUSH1 0x20 DUP8 ADD PUSH2 0x140A JUMP JUMPDEST SWAP2 SWAP1 SWAP2 ADD SWAP3 SWAP2 POP POP JUMP INVALID LOG2 PUSH5 0x6970667358 0x22 SLT KECCAK256 0xBE 0xE3 CREATE2 0xB9 0xFB 0xBA ADDMOD PUSH6 0x6A96B0D3D9D2 DIFFICULTY CALLDATASIZE 0xDF DUP13 SLOAD 0xB1 PUSH28 0x2E1EE9C6204350C47D898E64736F6C634300080D0033DDF252AD1BE2 0xC8 SWAP12 PUSH10 0xC2B068FC378DAA952BA7 CALL PUSH4 0xC4A11628 CREATE2 GAS 0x4D CREATE2 0x23 0xB3 0xEF LOG2 PUSH5 0x6970667358 0x22 SLT KECCAK256 TIMESTAMP 0xB8 0xDC PUSH12 0xAF6E146270941E5A7AF94D1F GAS MSIZE PUSH4 0x6B87D4F4 DUP7 ADDRESS 0xCA 0x2B SSTORE 0xC1 0xC2 0xE1 SWAP1 PUSH5 0x736F6C6343 STOP ADDMOD 0xD STOP CALLER "
		},
		"gasEstimates": {
			"creation": {
				"codeDepositCost": "4877200",
				"executionCost": "infinite",
				"totalCost": "infinite"
			},
			"external": {
				"": "470",
				"All_iLocks()": "infinite",
				"Holder_iLock(address)": "infinite",
				"My_nested_iLocks()": "infinite",
				"activity(uint256)": "2791",
				"approve(address,uint256)": "infinite",
				"balanceOf(address)": "2605",
				"changeLockStatusByGovernance(uint256,bool)": "infinite",
				"createLock(address,bool,address,uint256,uint256)": "infinite",
				"donation_in_ETH()": "2670",
				"emergencyWithdraw(address,uint256,uint256,bool,bool)": "infinite",
				"feesInETH()": "2358",
				"getApproved(uint256)": "4934",
				"getLock(uint256)": "infinite",
				"getLock_byIndex(uint256)": "infinite",
				"isApprovedForAll(address,address)": "infinite",
				"isValidLock(uint256)": "2553",
				"lastLockId()": "4732",
				"myLocks_()": "infinite",
				"myiLock(uint256)": "infinite",
				"name()": "infinite",
				"owner()": "2465",
				"ownerOf(uint256)": "2618",
				"renounceOwnership()": "infinite",
				"safeTransferFrom(address,address,uint256)": "infinite",
				"safeTransferFrom(address,address,uint256,bytes)": "infinite",
				"setApprovalForAll(address,bool)": "infinite",
				"set_fee_in_ETH(uint256,bool)": "48979",
				"supportsInterface(bytes4)": "infinite",
				"symbol()": "infinite",
				"tokenByIndex(uint256)": "7046",
				"tokenOfOwnerByIndex(address,uint256)": "5167",
				"tokenURI(uint256)": "infinite",
				"totalSupply()": "2458",
				"transferFrom(address,address,uint256)": "infinite",
				"transferOwnership(address)": "infinite",
				"withdraw(uint256,address,bool)": "infinite"
			},
			"internal": {
				"_transfer(address,address,uint256)": "infinite",
				"stringsEqual(string memory,string memory)": "infinite"
			}
		},
		"methodIdentifiers": {
			"All_iLocks()": "a0477b8a",
			"Holder_iLock(address)": "54a5e97f",
			"My_nested_iLocks()": "c0a20d88",
			"activity(uint256)": "f6abd4e9",
			"approve(address,uint256)": "095ea7b3",
			"balanceOf(address)": "70a08231",
			"changeLockStatusByGovernance(uint256,bool)": "7f0e964b",
			"createLock(address,bool,address,uint256,uint256)": "3817820e",
			"donation_in_ETH()": "59a85794",
			"emergencyWithdraw(address,uint256,uint256,bool,bool)": "2ccf8aa6",
			"feesInETH()": "76743b6b",
			"getApproved(uint256)": "081812fc",
			"getLock(uint256)": "d68f4dd1",
			"getLock_byIndex(uint256)": "0536716a",
			"isApprovedForAll(address,address)": "e985e9c5",
			"isValidLock(uint256)": "143f39ee",
			"lastLockId()": "d0cb39c6",
			"myLocks_()": "f8aaec8b",
			"myiLock(uint256)": "359aa0b5",
			"name()": "06fdde03",
			"owner()": "8da5cb5b",
			"ownerOf(uint256)": "6352211e",
			"renounceOwnership()": "715018a6",
			"safeTransferFrom(address,address,uint256)": "42842e0e",
			"safeTransferFrom(address,address,uint256,bytes)": "b88d4fde",
			"setApprovalForAll(address,bool)": "a22cb465",
			"set_fee_in_ETH(uint256,bool)": "1513236b",
			"supportsInterface(bytes4)": "01ffc9a7",
			"symbol()": "95d89b41",
			"tokenByIndex(uint256)": "4f6ccce7",
			"tokenOfOwnerByIndex(address,uint256)": "2f745c59",
			"tokenURI(uint256)": "c87b56dd",
			"totalSupply()": "18160ddd",
			"transferFrom(address,address,uint256)": "23b872dd",
			"transferOwnership(address)": "f2fde38b",
			"withdraw(uint256,address,bool)": "00ebf5dd"
		}
	},
	"abi": [
		{
			"inputs": [
				{
					"internalType": "address",
					"name": "initialOwner",
					"type": "address"
				},
				{
					"internalType": "string",
					"name": "_name",
					"type": "string"
				},
				{
					"internalType": "string",
					"name": "_symbol",
					"type": "string"
				}
			],
			"stateMutability": "nonpayable",
			"type": "constructor"
		},
		{
			"anonymous": false,
			"inputs": [
				{
					"indexed": true,
					"internalType": "address",
					"name": "owner",
					"type": "address"
				},
				{
					"indexed": true,
					"internalType": "address",
					"name": "approved",
					"type": "address"
				},
				{
					"indexed": true,
					"internalType": "uint256",
					"name": "tokenId",
					"type": "uint256"
				}
			],
			"name": "Approval",
			"type": "event"
		},
		{
			"anonymous": false,
			"inputs": [
				{
					"indexed": true,
					"internalType": "address",
					"name": "owner",
					"type": "address"
				},
				{
					"indexed": true,
					"internalType": "address",
					"name": "operator",
					"type": "address"
				},
				{
					"indexed": false,
					"internalType": "bool",
					"name": "approved",
					"type": "bool"
				}
			],
			"name": "ApprovalForAll",
			"type": "event"
		},
		{
			"anonymous": false,
			"inputs": [
				{
					"indexed": true,
					"internalType": "uint256",
					"name": "lockId",
					"type": "uint256"
				},
				{
					"indexed": true,
					"internalType": "address",
					"name": "creator",
					"type": "address"
				},
				{
					"indexed": false,
					"internalType": "uint256",
					"name": "amount",
					"type": "uint256"
				}
			],
			"name": "ETHLockCreated",
			"type": "event"
		},
		{
			"anonymous": false,
			"inputs": [
				{
					"indexed": true,
					"internalType": "uint256",
					"name": "lockId",
					"type": "uint256"
				},
				{
					"indexed": false,
					"internalType": "bool",
					"name": "unlocked",
					"type": "bool"
				}
			],
			"name": "GovernanceUnlockChanged",
			"type": "event"
		},
		{
			"anonymous": false,
			"inputs": [
				{
					"indexed": true,
					"internalType": "uint256",
					"name": "lockId",
					"type": "uint256"
				},
				{
					"indexed": true,
					"internalType": "address",
					"name": "token",
					"type": "address"
				},
				{
					"indexed": true,
					"internalType": "address",
					"name": "creator",
					"type": "address"
				},
				{
					"indexed": false,
					"internalType": "uint256",
					"name": "amount",
					"type": "uint256"
				}
			],
			"name": "LockCreated",
			"type": "event"
		},
		{
			"anonymous": false,
			"inputs": [
				{
					"indexed": true,
					"internalType": "address",
					"name": "oldOperator",
					"type": "address"
				},
				{
					"indexed": true,
					"internalType": "address",
					"name": "newOperator",
					"type": "address"
				}
			],
			"name": "OperatorTransferred",
			"type": "event"
		},
		{
			"anonymous": false,
			"inputs": [
				{
					"indexed": true,
					"internalType": "address",
					"name": "previousOwner",
					"type": "address"
				},
				{
					"indexed": true,
					"internalType": "address",
					"name": "newOwner",
					"type": "address"
				}
			],
			"name": "OwnershipTransferred",
			"type": "event"
		},
		{
			"anonymous": false,
			"inputs": [
				{
					"indexed": false,
					"internalType": "string",
					"name": "oldName",
					"type": "string"
				},
				{
					"indexed": false,
					"internalType": "string",
					"name": "newName",
					"type": "string"
				}
			],
			"name": "TokenNameChanged",
			"type": "event"
		},
		{
			"anonymous": false,
			"inputs": [
				{
					"indexed": false,
					"internalType": "string",
					"name": "oldSymbol",
					"type": "string"
				},
				{
					"indexed": false,
					"internalType": "string",
					"name": "newSymbol",
					"type": "string"
				}
			],
			"name": "TokenSymbolChanged",
			"type": "event"
		},
		{
			"anonymous": false,
			"inputs": [
				{
					"indexed": true,
					"internalType": "address",
					"name": "from",
					"type": "address"
				},
				{
					"indexed": true,
					"internalType": "address",
					"name": "to",
					"type": "address"
				},
				{
					"indexed": true,
					"internalType": "uint256",
					"name": "tokenId",
					"type": "uint256"
				}
			],
			"name": "Transfer",
			"type": "event"
		},
		{
			"anonymous": false,
			"inputs": [
				{
					"indexed": true,
					"internalType": "uint256",
					"name": "lockId",
					"type": "uint256"
				},
				{
					"indexed": true,
					"internalType": "address",
					"name": "token",
					"type": "address"
				},
				{
					"indexed": true,
					"internalType": "address",
					"name": "receiver",
					"type": "address"
				},
				{
					"indexed": false,
					"internalType": "uint256",
					"name": "amount",
					"type": "uint256"
				}
			],
			"name": "Withdraw",
			"type": "event"
		},
		{
			"stateMutability": "payable",
			"type": "fallback"
		},
		{
			"inputs": [],
			"name": "All_iLocks",
			"outputs": [
				{
					"components": [
						{
							"internalType": "uint256",
							"name": "lockId",
							"type": "uint256"
						},
						{
							"internalType": "contract IERC20",
							"name": "token",
							"type": "address"
						},
						{
							"internalType": "address payable",
							"name": "creator",
							"type": "address"
						},
						{
							"internalType": "address payable",
							"name": "holder",
							"type": "address"
						},
						{
							"internalType": "uint256",
							"name": "amount",
							"type": "uint256"
						},
						{
							"internalType": "bool",
							"name": "claimed",
							"type": "bool"
						},
						{
							"internalType": "bool",
							"name": "Ether",
							"type": "bool"
						},
						{
							"internalType": "uint256",
							"name": "unlockTimestamp",
							"type": "uint256"
						},
						{
							"internalType": "address payable",
							"name": "holdingContract",
							"type": "address"
						},
						{
							"internalType": "bool",
							"name": "unlockableByGovernance",
							"type": "bool"
						},
						{
							"internalType": "bool",
							"name": "unlockedByGovernance",
							"type": "bool"
						},
						{
							"internalType": "bool",
							"name": "lockedByGovernance",
							"type": "bool"
						}
					],
					"internalType": "struct ILOCKER.Lock[]",
					"name": "",
					"type": "tuple[]"
				}
			],
			"stateMutability": "view",
			"type": "function"
		},
		{
			"inputs": [
				{
					"internalType": "address",
					"name": "holder",
					"type": "address"
				}
			],
			"name": "Holder_iLock",
			"outputs": [
				{
					"components": [
						{
							"components": [
								{
									"internalType": "uint256",
									"name": "lockId",
									"type": "uint256"
								},
								{
									"internalType": "contract IERC20",
									"name": "token",
									"type": "address"
								},
								{
									"internalType": "address payable",
									"name": "creator",
									"type": "address"
								},
								{
									"internalType": "address payable",
									"name": "holder",
									"type": "address"
								},
								{
									"internalType": "uint256",
									"name": "amount",
									"type": "uint256"
								},
								{
									"internalType": "bool",
									"name": "claimed",
									"type": "bool"
								},
								{
									"internalType": "bool",
									"name": "Ether",
									"type": "bool"
								},
								{
									"internalType": "uint256",
									"name": "unlockTimestamp",
									"type": "uint256"
								},
								{
									"internalType": "address payable",
									"name": "holdingContract",
									"type": "address"
								},
								{
									"internalType": "bool",
									"name": "unlockableByGovernance",
									"type": "bool"
								},
								{
									"internalType": "bool",
									"name": "unlockedByGovernance",
									"type": "bool"
								},
								{
									"internalType": "bool",
									"name": "lockedByGovernance",
									"type": "bool"
								}
							],
							"internalType": "struct ILOCKER.Lock[]",
							"name": "_my_iLocks",
							"type": "tuple[]"
						}
					],
					"internalType": "struct ILOCKER.i_Locks_",
					"name": "",
					"type": "tuple"
				}
			],
			"stateMutability": "view",
			"type": "function"
		},
		{
			"inputs": [],
			"name": "My_nested_iLocks",
			"outputs": [
				{
					"components": [
						{
							"internalType": "uint256",
							"name": "lockId",
							"type": "uint256"
						},
						{
							"internalType": "contract IERC20",
							"name": "token",
							"type": "address"
						},
						{
							"internalType": "address payable",
							"name": "creator",
							"type": "address"
						},
						{
							"internalType": "address payable",
							"name": "holder",
							"type": "address"
						},
						{
							"internalType": "uint256",
							"name": "amount",
							"type": "uint256"
						},
						{
							"internalType": "bool",
							"name": "claimed",
							"type": "bool"
						},
						{
							"internalType": "bool",
							"name": "Ether",
							"type": "bool"
						},
						{
							"internalType": "uint256",
							"name": "unlockTimestamp",
							"type": "uint256"
						},
						{
							"internalType": "address payable",
							"name": "holdingContract",
							"type": "address"
						},
						{
							"internalType": "bool",
							"name": "unlockableByGovernance",
							"type": "bool"
						},
						{
							"internalType": "bool",
							"name": "unlockedByGovernance",
							"type": "bool"
						},
						{
							"internalType": "bool",
							"name": "lockedByGovernance",
							"type": "bool"
						}
					],
					"internalType": "struct ILOCKER.Lock[]",
					"name": "",
					"type": "tuple[]"
				}
			],
			"stateMutability": "view",
			"type": "function"
		},
		{
			"inputs": [
				{
					"internalType": "uint256",
					"name": "",
					"type": "uint256"
				}
			],
			"name": "activity",
			"outputs": [
				{
					"internalType": "bool",
					"name": "",
					"type": "bool"
				}
			],
			"stateMutability": "view",
			"type": "function"
		},
		{
			"inputs": [
				{
					"internalType": "address",
					"name": "to",
					"type": "address"
				},
				{
					"internalType": "uint256",
					"name": "tokenId",
					"type": "uint256"
				}
			],
			"name": "approve",
			"outputs": [],
			"stateMutability": "nonpayable",
			"type": "function"
		},
		{
			"inputs": [
				{
					"internalType": "address",
					"name": "owner",
					"type": "address"
				}
			],
			"name": "balanceOf",
			"outputs": [
				{
					"internalType": "uint256",
					"name": "",
					"type": "uint256"
				}
			],
			"stateMutability": "view",
			"type": "function"
		},
		{
			"inputs": [
				{
					"internalType": "uint256",
					"name": "lockId",
					"type": "uint256"
				},
				{
					"internalType": "bool",
					"name": "unlocked",
					"type": "bool"
				}
			],
			"name": "changeLockStatusByGovernance",
			"outputs": [],
			"stateMutability": "nonpayable",
			"type": "function"
		},
		{
			"inputs": [
				{
					"internalType": "contract IERC20",
					"name": "token",
					"type": "address"
				},
				{
					"internalType": "bool",
					"name": "isEth",
					"type": "bool"
				},
				{
					"internalType": "address",
					"name": "holder",
					"type": "address"
				},
				{
					"internalType": "uint256",
					"name": "amount",
					"type": "uint256"
				},
				{
					"internalType": "uint256",
					"name": "unlockTimestamp",
					"type": "uint256"
				}
			],
			"name": "createLock",
			"outputs": [
				{
					"internalType": "uint256",
					"name": "",
					"type": "uint256"
				},
				{
					"internalType": "address",
					"name": "",
					"type": "address"
				}
			],
			"stateMutability": "payable",
			"type": "function"
		},
		{
			"inputs": [],
			"name": "donation_in_ETH",
			"outputs": [
				{
					"internalType": "uint256",
					"name": "",
					"type": "uint256"
				}
			],
			"stateMutability": "view",
			"type": "function"
		},
		{
			"inputs": [
				{
					"internalType": "contract IERC20",
					"name": "token",
					"type": "address"
				},
				{
					"internalType": "uint256",
					"name": "lockId",
					"type": "uint256"
				},
				{
					"internalType": "uint256",
					"name": "amount",
					"type": "uint256"
				},
				{
					"internalType": "bool",
					"name": "isEth",
					"type": "bool"
				},
				{
					"internalType": "bool",
					"name": "isLocker",
					"type": "bool"
				}
			],
			"name": "emergencyWithdraw",
			"outputs": [],
			"stateMutability": "payable",
			"type": "function"
		},
		{
			"inputs": [],
			"name": "feesInETH",
			"outputs": [
				{
					"internalType": "uint256",
					"name": "",
					"type": "uint256"
				}
			],
			"stateMutability": "view",
			"type": "function"
		},
		{
			"inputs": [
				{
					"internalType": "uint256",
					"name": "tokenId",
					"type": "uint256"
				}
			],
			"name": "getApproved",
			"outputs": [
				{
					"internalType": "address",
					"name": "",
					"type": "address"
				}
			],
			"stateMutability": "view",
			"type": "function"
		},
		{
			"inputs": [
				{
					"internalType": "uint256",
					"name": "lockId",
					"type": "uint256"
				}
			],
			"name": "getLock",
			"outputs": [
				{
					"components": [
						{
							"internalType": "uint256",
							"name": "lockId",
							"type": "uint256"
						},
						{
							"internalType": "contract IERC20",
							"name": "token",
							"type": "address"
						},
						{
							"internalType": "address payable",
							"name": "creator",
							"type": "address"
						},
						{
							"internalType": "address payable",
							"name": "holder",
							"type": "address"
						},
						{
							"internalType": "uint256",
							"name": "amount",
							"type": "uint256"
						},
						{
							"internalType": "bool",
							"name": "claimed",
							"type": "bool"
						},
						{
							"internalType": "bool",
							"name": "Ether",
							"type": "bool"
						},
						{
							"internalType": "uint256",
							"name": "unlockTimestamp",
							"type": "uint256"
						},
						{
							"internalType": "address payable",
							"name": "holdingContract",
							"type": "address"
						},
						{
							"internalType": "bool",
							"name": "unlockableByGovernance",
							"type": "bool"
						},
						{
							"internalType": "bool",
							"name": "unlockedByGovernance",
							"type": "bool"
						},
						{
							"internalType": "bool",
							"name": "lockedByGovernance",
							"type": "bool"
						}
					],
					"internalType": "struct ILOCKER.Lock",
					"name": "",
					"type": "tuple"
				}
			],
			"stateMutability": "view",
			"type": "function"
		},
		{
			"inputs": [
				{
					"internalType": "uint256",
					"name": "index",
					"type": "uint256"
				}
			],
			"name": "getLock_byIndex",
			"outputs": [
				{
					"components": [
						{
							"internalType": "uint256",
							"name": "lockId",
							"type": "uint256"
						},
						{
							"internalType": "contract IERC20",
							"name": "token",
							"type": "address"
						},
						{
							"internalType": "address payable",
							"name": "creator",
							"type": "address"
						},
						{
							"internalType": "address payable",
							"name": "holder",
							"type": "address"
						},
						{
							"internalType": "uint256",
							"name": "amount",
							"type": "uint256"
						},
						{
							"internalType": "bool",
							"name": "claimed",
							"type": "bool"
						},
						{
							"internalType": "bool",
							"name": "Ether",
							"type": "bool"
						},
						{
							"internalType": "uint256",
							"name": "unlockTimestamp",
							"type": "uint256"
						},
						{
							"internalType": "address payable",
							"name": "holdingContract",
							"type": "address"
						},
						{
							"internalType": "bool",
							"name": "unlockableByGovernance",
							"type": "bool"
						},
						{
							"internalType": "bool",
							"name": "unlockedByGovernance",
							"type": "bool"
						},
						{
							"internalType": "bool",
							"name": "lockedByGovernance",
							"type": "bool"
						}
					],
					"internalType": "struct ILOCKER.Lock",
					"name": "",
					"type": "tuple"
				}
			],
			"stateMutability": "view",
			"type": "function"
		},
		{
			"inputs": [
				{
					"internalType": "address",
					"name": "owner",
					"type": "address"
				},
				{
					"internalType": "address",
					"name": "operator",
					"type": "address"
				}
			],
			"name": "isApprovedForAll",
			"outputs": [
				{
					"internalType": "bool",
					"name": "",
					"type": "bool"
				}
			],
			"stateMutability": "view",
			"type": "function"
		},
		{
			"inputs": [
				{
					"internalType": "uint256",
					"name": "lockId",
					"type": "uint256"
				}
			],
			"name": "isValidLock",
			"outputs": [
				{
					"internalType": "bool",
					"name": "",
					"type": "bool"
				}
			],
			"stateMutability": "view",
			"type": "function"
		},
		{
			"inputs": [],
			"name": "lastLockId",
			"outputs": [
				{
					"internalType": "uint256",
					"name": "",
					"type": "uint256"
				},
				{
					"internalType": "uint256",
					"name": "",
					"type": "uint256"
				}
			],
			"stateMutability": "view",
			"type": "function"
		},
		{
			"inputs": [],
			"name": "myLocks_",
			"outputs": [
				{
					"internalType": "uint256[]",
					"name": "_my_locks",
					"type": "uint256[]"
				}
			],
			"stateMutability": "view",
			"type": "function"
		},
		{
			"inputs": [
				{
					"internalType": "uint256",
					"name": "lockId",
					"type": "uint256"
				}
			],
			"name": "myiLock",
			"outputs": [
				{
					"components": [
						{
							"internalType": "uint256",
							"name": "lockId",
							"type": "uint256"
						},
						{
							"internalType": "contract IERC20",
							"name": "token",
							"type": "address"
						},
						{
							"internalType": "address payable",
							"name": "creator",
							"type": "address"
						},
						{
							"internalType": "address payable",
							"name": "holder",
							"type": "address"
						},
						{
							"internalType": "uint256",
							"name": "amount",
							"type": "uint256"
						},
						{
							"internalType": "bool",
							"name": "claimed",
							"type": "bool"
						},
						{
							"internalType": "bool",
							"name": "Ether",
							"type": "bool"
						},
						{
							"internalType": "uint256",
							"name": "unlockTimestamp",
							"type": "uint256"
						},
						{
							"internalType": "address payable",
							"name": "holdingContract",
							"type": "address"
						},
						{
							"internalType": "bool",
							"name": "unlockableByGovernance",
							"type": "bool"
						},
						{
							"internalType": "bool",
							"name": "unlockedByGovernance",
							"type": "bool"
						},
						{
							"internalType": "bool",
							"name": "lockedByGovernance",
							"type": "bool"
						}
					],
					"internalType": "struct ILOCKER.Lock",
					"name": "",
					"type": "tuple"
				}
			],
			"stateMutability": "view",
			"type": "function"
		},
		{
			"inputs": [],
			"name": "name",
			"outputs": [
				{
					"internalType": "string",
					"name": "",
					"type": "string"
				}
			],
			"stateMutability": "view",
			"type": "function"
		},
		{
			"inputs": [],
			"name": "owner",
			"outputs": [
				{
					"internalType": "address",
					"name": "",
					"type": "address"
				}
			],
			"stateMutability": "view",
			"type": "function"
		},
		{
			"inputs": [
				{
					"internalType": "uint256",
					"name": "tokenId",
					"type": "uint256"
				}
			],
			"name": "ownerOf",
			"outputs": [
				{
					"internalType": "address",
					"name": "",
					"type": "address"
				}
			],
			"stateMutability": "view",
			"type": "function"
		},
		{
			"inputs": [],
			"name": "renounceOwnership",
			"outputs": [],
			"stateMutability": "nonpayable",
			"type": "function"
		},
		{
			"inputs": [
				{
					"internalType": "address",
					"name": "from",
					"type": "address"
				},
				{
					"internalType": "address",
					"name": "to",
					"type": "address"
				},
				{
					"internalType": "uint256",
					"name": "tokenId",
					"type": "uint256"
				}
			],
			"name": "safeTransferFrom",
			"outputs": [],
			"stateMutability": "nonpayable",
			"type": "function"
		},
		{
			"inputs": [
				{
					"internalType": "address",
					"name": "from",
					"type": "address"
				},
				{
					"internalType": "address",
					"name": "to",
					"type": "address"
				},
				{
					"internalType": "uint256",
					"name": "tokenId",
					"type": "uint256"
				},
				{
					"internalType": "bytes",
					"name": "data",
					"type": "bytes"
				}
			],
			"name": "safeTransferFrom",
			"outputs": [],
			"stateMutability": "nonpayable",
			"type": "function"
		},
		{
			"inputs": [
				{
					"internalType": "address",
					"name": "operator",
					"type": "address"
				},
				{
					"internalType": "bool",
					"name": "approved",
					"type": "bool"
				}
			],
			"name": "setApprovalForAll",
			"outputs": [],
			"stateMutability": "nonpayable",
			"type": "function"
		},
		{
			"inputs": [
				{
					"internalType": "uint256",
					"name": "fie",
					"type": "uint256"
				},
				{
					"internalType": "bool",
					"name": "onOff",
					"type": "bool"
				}
			],
			"name": "set_fee_in_ETH",
			"outputs": [],
			"stateMutability": "nonpayable",
			"type": "function"
		},
		{
			"inputs": [
				{
					"internalType": "bytes4",
					"name": "interfaceId",
					"type": "bytes4"
				}
			],
			"name": "supportsInterface",
			"outputs": [
				{
					"internalType": "bool",
					"name": "",
					"type": "bool"
				}
			],
			"stateMutability": "view",
			"type": "function"
		},
		{
			"inputs": [],
			"name": "symbol",
			"outputs": [
				{
					"internalType": "string",
					"name": "",
					"type": "string"
				}
			],
			"stateMutability": "view",
			"type": "function"
		},
		{
			"inputs": [
				{
					"internalType": "uint256",
					"name": "index",
					"type": "uint256"
				}
			],
			"name": "tokenByIndex",
			"outputs": [
				{
					"internalType": "uint256",
					"name": "",
					"type": "uint256"
				}
			],
			"stateMutability": "view",
			"type": "function"
		},
		{
			"inputs": [
				{
					"internalType": "address",
					"name": "owner",
					"type": "address"
				},
				{
					"internalType": "uint256",
					"name": "index",
					"type": "uint256"
				}
			],
			"name": "tokenOfOwnerByIndex",
			"outputs": [
				{
					"internalType": "uint256",
					"name": "",
					"type": "uint256"
				}
			],
			"stateMutability": "view",
			"type": "function"
		},
		{
			"inputs": [
				{
					"internalType": "uint256",
					"name": "tokenId",
					"type": "uint256"
				}
			],
			"name": "tokenURI",
			"outputs": [
				{
					"internalType": "string",
					"name": "",
					"type": "string"
				}
			],
			"stateMutability": "view",
			"type": "function"
		},
		{
			"inputs": [],
			"name": "totalSupply",
			"outputs": [
				{
					"internalType": "uint256",
					"name": "",
					"type": "uint256"
				}
			],
			"stateMutability": "view",
			"type": "function"
		},
		{
			"inputs": [
				{
					"internalType": "address",
					"name": "from",
					"type": "address"
				},
				{
					"internalType": "address",
					"name": "to",
					"type": "address"
				},
				{
					"internalType": "uint256",
					"name": "tokenId",
					"type": "uint256"
				}
			],
			"name": "transferFrom",
			"outputs": [],
			"stateMutability": "nonpayable",
			"type": "function"
		},
		{
			"inputs": [
				{
					"internalType": "address",
					"name": "newOwner",
					"type": "address"
				}
			],
			"name": "transferOwnership",
			"outputs": [],
			"stateMutability": "nonpayable",
			"type": "function"
		},
		{
			"inputs": [
				{
					"internalType": "uint256",
					"name": "lockId",
					"type": "uint256"
				},
				{
					"internalType": "address payable",
					"name": "recipient",
					"type": "address"
				},
				{
					"internalType": "bool",
					"name": "isEth",
					"type": "bool"
				}
			],
			"name": "withdraw",
			"outputs": [],
			"stateMutability": "payable",
			"type": "function"
		},
		{
			"stateMutability": "payable",
			"type": "receive"
		}
	]
}