{
	"contracts/utilities/iHold.sol": {
		"iHold": {
			"abi": [
				{
					"inputs": [
						{
							"internalType": "string",
							"name": "name",
							"type": "string"
						},
						{
							"internalType": "string",
							"name": "symbol",
							"type": "string"
						},
						{
							"internalType": "address payable",
							"name": "_depositors",
							"type": "address"
						},
						{
							"internalType": "uint256",
							"name": "supply",
							"type": "uint256"
						}
					],
					"stateMutability": "nonpayable",
					"type": "constructor"
				},
				{
					"anonymous": false,
					"inputs": [
						{
							"indexed": true,
							"internalType": "address",
							"name": "owner",
							"type": "address"
						},
						{
							"indexed": true,
							"internalType": "address",
							"name": "spender",
							"type": "address"
						},
						{
							"indexed": false,
							"internalType": "uint256",
							"name": "value",
							"type": "uint256"
						}
					],
					"name": "Approval",
					"type": "event"
				},
				{
					"anonymous": false,
					"inputs": [
						{
							"indexed": true,
							"internalType": "address",
							"name": "previousOwner",
							"type": "address"
						},
						{
							"indexed": true,
							"internalType": "address",
							"name": "newOwner",
							"type": "address"
						}
					],
					"name": "OwnershipTransferred",
					"type": "event"
				},
				{
					"anonymous": false,
					"inputs": [
						{
							"indexed": true,
							"internalType": "address",
							"name": "from",
							"type": "address"
						},
						{
							"indexed": true,
							"internalType": "address",
							"name": "to",
							"type": "address"
						},
						{
							"indexed": false,
							"internalType": "uint256",
							"name": "value",
							"type": "uint256"
						}
					],
					"name": "Transfer",
					"type": "event"
				},
				{
					"stateMutability": "payable",
					"type": "fallback"
				},
				{
					"inputs": [],
					"name": "_name",
					"outputs": [
						{
							"internalType": "string",
							"name": "",
							"type": "string"
						}
					],
					"stateMutability": "view",
					"type": "function"
				},
				{
					"inputs": [],
					"name": "_symbol",
					"outputs": [
						{
							"internalType": "string",
							"name": "",
							"type": "string"
						}
					],
					"stateMutability": "view",
					"type": "function"
				},
				{
					"inputs": [
						{
							"internalType": "address",
							"name": "owner",
							"type": "address"
						},
						{
							"internalType": "address",
							"name": "spender",
							"type": "address"
						}
					],
					"name": "allowance",
					"outputs": [
						{
							"internalType": "uint256",
							"name": "",
							"type": "uint256"
						}
					],
					"stateMutability": "view",
					"type": "function"
				},
				{
					"inputs": [
						{
							"internalType": "address",
							"name": "spender",
							"type": "address"
						},
						{
							"internalType": "uint256",
							"name": "amount",
							"type": "uint256"
						}
					],
					"name": "approve",
					"outputs": [
						{
							"internalType": "bool",
							"name": "",
							"type": "bool"
						}
					],
					"stateMutability": "nonpayable",
					"type": "function"
				},
				{
					"inputs": [
						{
							"internalType": "address",
							"name": "account",
							"type": "address"
						}
					],
					"name": "balanceOf",
					"outputs": [
						{
							"internalType": "uint256",
							"name": "",
							"type": "uint256"
						}
					],
					"stateMutability": "view",
					"type": "function"
				},
				{
					"inputs": [],
					"name": "decimals",
					"outputs": [
						{
							"internalType": "uint8",
							"name": "",
							"type": "uint8"
						}
					],
					"stateMutability": "view",
					"type": "function"
				},
				{
					"inputs": [
						{
							"internalType": "address",
							"name": "spender",
							"type": "address"
						},
						{
							"internalType": "uint256",
							"name": "subtractedValue",
							"type": "uint256"
						}
					],
					"name": "decreaseAllowance",
					"outputs": [
						{
							"internalType": "bool",
							"name": "",
							"type": "bool"
						}
					],
					"stateMutability": "nonpayable",
					"type": "function"
				},
				{
					"inputs": [
						{
							"internalType": "address",
							"name": "spender",
							"type": "address"
						},
						{
							"internalType": "uint256",
							"name": "addedValue",
							"type": "uint256"
						}
					],
					"name": "increaseAllowance",
					"outputs": [
						{
							"internalType": "bool",
							"name": "",
							"type": "bool"
						}
					],
					"stateMutability": "nonpayable",
					"type": "function"
				},
				{
					"inputs": [],
					"name": "name",
					"outputs": [
						{
							"internalType": "string",
							"name": "",
							"type": "string"
						}
					],
					"stateMutability": "view",
					"type": "function"
				},
				{
					"inputs": [],
					"name": "owner",
					"outputs": [
						{
							"internalType": "address",
							"name": "",
							"type": "address"
						}
					],
					"stateMutability": "view",
					"type": "function"
				},
				{
					"inputs": [],
					"name": "renounceOwnership",
					"outputs": [],
					"stateMutability": "nonpayable",
					"type": "function"
				},
				{
					"inputs": [],
					"name": "symbol",
					"outputs": [
						{
							"internalType": "string",
							"name": "",
							"type": "string"
						}
					],
					"stateMutability": "view",
					"type": "function"
				},
				{
					"inputs": [],
					"name": "totalSupply",
					"outputs": [
						{
							"internalType": "uint256",
							"name": "",
							"type": "uint256"
						}
					],
					"stateMutability": "view",
					"type": "function"
				},
				{
					"inputs": [
						{
							"internalType": "address",
							"name": "recipient",
							"type": "address"
						},
						{
							"internalType": "uint256",
							"name": "amount",
							"type": "uint256"
						}
					],
					"name": "transfer",
					"outputs": [
						{
							"internalType": "bool",
							"name": "",
							"type": "bool"
						}
					],
					"stateMutability": "nonpayable",
					"type": "function"
				},
				{
					"inputs": [
						{
							"internalType": "address",
							"name": "sender",
							"type": "address"
						},
						{
							"internalType": "address",
							"name": "recipient",
							"type": "address"
						},
						{
							"internalType": "uint256",
							"name": "amount",
							"type": "uint256"
						}
					],
					"name": "transferFrom",
					"outputs": [
						{
							"internalType": "bool",
							"name": "",
							"type": "bool"
						}
					],
					"stateMutability": "nonpayable",
					"type": "function"
				},
				{
					"inputs": [
						{
							"internalType": "address",
							"name": "newOwner",
							"type": "address"
						}
					],
					"name": "transferOwnership",
					"outputs": [],
					"stateMutability": "nonpayable",
					"type": "function"
				},
				{
					"stateMutability": "payable",
					"type": "receive"
				}
			],
			"devdoc": {
				"author": "Interchained && Lucas && Decentral && Muse",
				"kind": "dev",
				"methods": {
					"allowance(address,address)": {
						"details": "See {IERC20-allowance}."
					},
					"approve(address,uint256)": {
						"details": "See {IERC20-approve}. Requirements: - `spender` cannot be the zero address."
					},
					"balanceOf(address)": {
						"details": "See {IERC20-balanceOf}."
					},
					"decimals()": {
						"details": "Returns the number of decimals used to get its user representation. For example, if `decimals` equals `2`, a balance of `505` tokens should be displayed to a user as `5.05` (`505 / 10 ** 2`). Tokens usually opt for a value of 18, imitating the relationship between Ether and Wei. This is the value {ERC20} uses, unless this function is overridden; NOTE: This information is only used for _display_ purposes: it in no way affects any of the arithmetic of the contract, including {IERC20-balanceOf} and {IERC20-transfer}."
					},
					"decreaseAllowance(address,uint256)": {
						"details": "Atomically decreases the allowance granted to `spender` by the caller. This is an alternative to {approve} that can be used as a mitigation for problems described in {IERC20-approve}. Emits an {Approval} event indicating the updated allowance. Requirements: - `spender` cannot be the zero address. - `spender` must have allowance for the caller of at least `subtractedValue`."
					},
					"increaseAllowance(address,uint256)": {
						"details": "Atomically increases the allowance granted to `spender` by the caller. This is an alternative to {approve} that can be used as a mitigation for problems described in {IERC20-approve}. Emits an {Approval} event indicating the updated allowance. Requirements: - `spender` cannot be the zero address."
					},
					"name()": {
						"details": "Returns the name of the token."
					},
					"owner()": {
						"details": "Returns the address of the current owner."
					},
					"renounceOwnership()": {
						"details": "Leaves the contract without owner. It will not be possible to call `onlyOwner` functions anymore. Can only be called by the current owner. NOTE: Renouncing ownership will leave the contract without an owner, thereby removing any functionality that is only available to the owner."
					},
					"symbol()": {
						"details": "Returns the symbol of the token, usually a shorter version of the name."
					},
					"totalSupply()": {
						"details": "See {IERC20-totalSupply}."
					},
					"transfer(address,uint256)": {
						"details": "See {IERC20-transfer}. Requirements: - `recipient` cannot be the zero address. - the caller must have a balance of at least `amount`."
					},
					"transferFrom(address,address,uint256)": {
						"details": "See {IERC20-transferFrom}. Emits an {Approval} event indicating the updated allowance. This is not required by the EIP. See the note at the beginning of {ERC20}. Requirements: - `sender` and `recipient` cannot be the zero address. - `sender` must have a balance of at least `amount`. - the caller must have allowance for ``sender``'s tokens of at least `amount`."
					},
					"transferOwnership(address)": {
						"details": "Transfers ownership of the contract to a new account (`newOwner`). Can only be called by the current owner."
					}
				},
				"title": "Interchained's iHold contracts",
				"version": 1
			},
			"evm": {
				"assembly": "    /* \"contracts/utilities/iHold.sol\":5191:5728  contract iHold is ERC20, Ownable {... */\n  mstore(0x40, 0x80)\n    /* \"contracts/utilities/iHold.sol\":5263:5621  constructor(... */\n  callvalue\n  dup1\n  iszero\n  tag_1\n  jumpi\n  0x00\n  dup1\n  revert\ntag_1:\n  pop\n  mload(0x40)\n  sub(codesize, bytecodeSize)\n  dup1\n  bytecodeSize\n  dup4\n  codecopy\n  dup2\n  add\n  0x40\n  dup2\n  swap1\n  mstore\n  tag_2\n  swap2\n  tag_3\n  jump\t// in\ntag_2:\n    /* \"contracts/token/ERC20.sol\":694:708  _name = __name */\n  dup4\n  mload\n    /* \"contracts/utilities/iHold.sol\":5406:5410  name */\n  dup5\n  swap1\n    /* \"contracts/utilities/iHold.sol\":5412:5418  symbol */\n  dup5\n  swap1\n    /* \"contracts/token/ERC20.sol\":694:708  _name = __name */\n  tag_8\n  swap1\n    /* \"contracts/token/ERC20.sol\":694:699  _name */\n  0x03\n  swap1\n    /* \"contracts/token/ERC20.sol\":694:708  _name = __name */\n  0x20\n  dup6\n  add\n  swap1\n  tag_9\n  jump\t// in\ntag_8:\n  pop\n    /* \"contracts/token/ERC20.sol\":718:736  _symbol = __symbol */\n  dup1\n  mload\n  tag_10\n  swap1\n    /* \"contracts/token/ERC20.sol\":718:725  _symbol */\n  0x04\n  swap1\n    /* \"contracts/token/ERC20.sol\":718:736  _symbol = __symbol */\n  0x20\n  dup5\n  add\n  swap1\n  tag_9\n  jump\t// in\ntag_10:\n  pop\n    /* \"contracts/token/ERC20.sol\":604:743  constructor(... */\n  pop\n  pop\n    /* \"@openzeppelin/contracts/access/Ownable.sol\":936:968  _transferOwnership(_msgSender()) */\n  tag_12\n    /* \"@openzeppelin/contracts/access/Ownable.sol\":955:967  _msgSender() */\n  tag_13\n    /* \"@openzeppelin/contracts/access/Ownable.sol\":955:965  _msgSender */\n  shl(0x20, tag_14)\n    /* \"@openzeppelin/contracts/access/Ownable.sol\":955:967  _msgSender() */\n  0x20\n  shr\n  jump\t// in\ntag_13:\n    /* \"@openzeppelin/contracts/access/Ownable.sol\":936:954  _transferOwnership */\n  tag_15\n    /* \"@openzeppelin/contracts/access/Ownable.sol\":936:968  _transferOwnership(_msgSender()) */\n  jump\t// in\ntag_12:\n    /* \"contracts/utilities/iHold.sol\":5440:5452  _name = name */\n  dup4\n  mload\n  tag_17\n  swap1\n    /* \"contracts/utilities/iHold.sol\":5440:5445  _name */\n  0x03\n  swap1\n    /* \"contracts/utilities/iHold.sol\":5440:5452  _name = name */\n  0x20\n  dup8\n  add\n  swap1\n  tag_9\n  jump\t// in\ntag_17:\n  pop\n    /* \"contracts/utilities/iHold.sol\":5462:5478  _symbol = symbol */\n  dup3\n  mload\n  tag_18\n  swap1\n    /* \"contracts/utilities/iHold.sol\":5462:5469  _symbol */\n  0x04\n  swap1\n    /* \"contracts/utilities/iHold.sol\":5462:5478  _symbol = symbol */\n  0x20\n  dup7\n  add\n  swap1\n  tag_9\n  jump\t// in\ntag_18:\n  pop\n    /* \"contracts/utilities/iHold.sol\":5488:5514  _mint(_depositors, supply) */\n  tag_19\n    /* \"contracts/utilities/iHold.sol\":5494:5505  _depositors */\n  dup3\n    /* \"contracts/utilities/iHold.sol\":5507:5513  supply */\n  dup3\n    /* \"contracts/utilities/iHold.sol\":5488:5493  _mint */\n  tag_20\n    /* \"contracts/utilities/iHold.sol\":5488:5514  _mint(_depositors, supply) */\n  jump\t// in\ntag_19:\n    /* \"contracts/utilities/iHold.sol\":5524:5554  transferOwnership(_depositors) */\n  tag_21\n    /* \"contracts/utilities/iHold.sol\":5542:5553  _depositors */\n  dup3\n    /* \"contracts/utilities/iHold.sol\":5524:5541  transferOwnership */\n  tag_22\n    /* \"contracts/utilities/iHold.sol\":5524:5554  transferOwnership(_depositors) */\n  jump\t// in\ntag_21:\n    /* \"contracts/utilities/iHold.sol\":5569:5614  OwnershipTransferred(address(0), _depositors) */\n  mload(0x40)\n  sub(shl(0xa0, 0x01), 0x01)\n  dup4\n  and\n  swap1\n    /* \"contracts/utilities/iHold.sol\":5598:5599  0 */\n  0x00\n  swap1\n  0x00\n  dup1\n  mload\n  0x20\n  data_9c064737b570a74c2bac5d21056d93ac53115214216cd14d4a0fc9b60be81231\n  dup4\n  codecopy\n  dup2\n  mload\n  swap2\n  mstore\n    /* \"contracts/utilities/iHold.sol\":5569:5614  OwnershipTransferred(address(0), _depositors) */\n  swap1\n    /* \"contracts/utilities/iHold.sol\":5598:5599  0 */\n  dup3\n  swap1\n    /* \"contracts/utilities/iHold.sol\":5569:5614  OwnershipTransferred(address(0), _depositors) */\n  log3\n    /* \"contracts/utilities/iHold.sol\":5263:5621  constructor(... */\n  pop\n  pop\n  pop\n  pop\n    /* \"contracts/utilities/iHold.sol\":5191:5728  contract iHold is ERC20, Ownable {... */\n  jump(tag_68)\n    /* \"@openzeppelin/contracts/utils/Context.sol\":640:736  function _msgSender() internal view virtual returns (address) {... */\ntag_14:\n    /* \"@openzeppelin/contracts/utils/Context.sol\":719:729  msg.sender */\n  caller\n  swap1\n    /* \"@openzeppelin/contracts/utils/Context.sol\":640:736  function _msgSender() internal view virtual returns (address) {... */\n  jump\t// out\n    /* \"@openzeppelin/contracts/access/Ownable.sol\":2433:2620  function _transferOwnership(address newOwner) internal virtual {... */\ntag_15:\n    /* \"@openzeppelin/contracts/access/Ownable.sol\":2525:2531  _owner */\n  0x05\n  dup1\n  sload\n  sub(shl(0xa0, 0x01), 0x01)\n    /* \"@openzeppelin/contracts/access/Ownable.sol\":2541:2558  _owner = newOwner */\n  dup4\n  dup2\n  and\n  not(sub(shl(0xa0, 0x01), 0x01))\n  dup4\n  and\n  dup2\n  or\n  swap1\n  swap4\n  sstore\n    /* \"@openzeppelin/contracts/access/Ownable.sol\":2573:2613  OwnershipTransferred(oldOwner, newOwner) */\n  mload(0x40)\n    /* \"@openzeppelin/contracts/access/Ownable.sol\":2525:2531  _owner */\n  swap2\n  and\n  swap2\n    /* \"@openzeppelin/contracts/access/Ownable.sol\":2541:2558  _owner = newOwner */\n  swap1\n    /* \"@openzeppelin/contracts/access/Ownable.sol\":2525:2531  _owner */\n  dup3\n  swap1\n  0x00\n  dup1\n  mload\n  0x20\n  data_9c064737b570a74c2bac5d21056d93ac53115214216cd14d4a0fc9b60be81231\n  dup4\n  codecopy\n  dup2\n  mload\n  swap2\n  mstore\n    /* \"@openzeppelin/contracts/access/Ownable.sol\":2573:2613  OwnershipTransferred(oldOwner, newOwner) */\n  swap1\n    /* \"@openzeppelin/contracts/access/Ownable.sol\":2506:2522  address oldOwner */\n  0x00\n  swap1\n    /* \"@openzeppelin/contracts/access/Ownable.sol\":2573:2613  OwnershipTransferred(oldOwner, newOwner) */\n  log3\n    /* \"@openzeppelin/contracts/access/Ownable.sol\":2496:2620  {... */\n  pop\n    /* \"@openzeppelin/contracts/access/Ownable.sol\":2433:2620  function _transferOwnership(address newOwner) internal virtual {... */\n  pop\n  jump\t// out\n    /* \"contracts/token/ERC20.sol\":7170:7524  function _mint(address account, uint256 amount) internal virtual {... */\ntag_20:\n  sub(shl(0xa0, 0x01), 0x01)\n    /* \"contracts/token/ERC20.sol\":7253:7274  account != address(0) */\n  dup3\n  and\n    /* \"contracts/token/ERC20.sol\":7245:7275  require(account != address(0)) */\n  tag_27\n  jumpi\n  0x00\n  dup1\n  revert\ntag_27:\n    /* \"contracts/token/ERC20.sol\":7362:7368  amount */\n  dup1\n    /* \"contracts/token/ERC20.sol\":7346:7358  _totalSupply */\n  0x02\n  0x00\n    /* \"contracts/token/ERC20.sol\":7346:7368  _totalSupply += amount */\n  dup3\n  dup3\n  sload\n  tag_30\n  swap2\n  swap1\n  tag_31\n  jump\t// in\ntag_30:\n  swap1\n  swap2\n  sstore\n  pop\n  pop\n  sub(shl(0xa0, 0x01), 0x01)\n    /* \"contracts/token/ERC20.sol\":7378:7396  _balances[account] */\n  dup3\n  and\n    /* \"contracts/token/ERC20.sol\":7378:7387  _balances */\n  0x00\n    /* \"contracts/token/ERC20.sol\":7378:7396  _balances[account] */\n  swap1\n  dup2\n  mstore\n  0x20\n  dup2\n  swap1\n  mstore\n  0x40\n  dup2\n  keccak256\n    /* \"contracts/token/ERC20.sol\":7378:7406  _balances[account] += amount */\n  dup1\n  sload\n    /* \"contracts/token/ERC20.sol\":7400:7406  amount */\n  dup4\n  swap3\n    /* \"contracts/token/ERC20.sol\":7378:7387  _balances */\n  swap1\n    /* \"contracts/token/ERC20.sol\":7378:7406  _balances[account] += amount */\n  tag_32\n  swap1\n    /* \"contracts/token/ERC20.sol\":7400:7406  amount */\n  dup5\n  swap1\n    /* \"contracts/token/ERC20.sol\":7378:7406  _balances[account] += amount */\n  tag_31\n  jump\t// in\ntag_32:\n  swap1\n  swap2\n  sstore\n  pop\n  pop\n    /* \"contracts/token/ERC20.sol\":7421:7458  Transfer(address(0), account, amount) */\n  mload(0x40)\n    /* \"#utility.yul\":2216:2241   */\n  dup2\n  dup2\n  mstore\n  sub(shl(0xa0, 0x01), 0x01)\n    /* \"contracts/token/ERC20.sol\":7421:7458  Transfer(address(0), account, amount) */\n  dup4\n  and\n  swap1\n    /* \"contracts/token/ERC20.sol\":7438:7439  0 */\n  0x00\n  swap1\n    /* \"contracts/token/ERC20.sol\":7421:7458  Transfer(address(0), account, amount) */\n  0xddf252ad1be2c89b69c2b068fc378daa952ba7f163c4a11628f55a4df523b3ef\n  swap1\n    /* \"#utility.yul\":2204:2206   */\n  0x20\n    /* \"#utility.yul\":2189:2207   */\n  add\n    /* \"contracts/token/ERC20.sol\":7421:7458  Transfer(address(0), account, amount) */\n  mload(0x40)\n  dup1\n  swap2\n  sub\n  swap1\n  log3\n    /* \"contracts/token/ERC20.sol\":7170:7524  function _mint(address account, uint256 amount) internal virtual {... */\n  pop\n  pop\n  jump\t// out\n    /* \"@openzeppelin/contracts/access/Ownable.sol\":2081:2279  function transferOwnership(address newOwner) public virtual onlyOwner {... */\ntag_22:\n    /* \"@openzeppelin/contracts/access/Ownable.sol\":1094:1107  _checkOwner() */\n  tag_38\n    /* \"@openzeppelin/contracts/access/Ownable.sol\":1094:1105  _checkOwner */\n  tag_39\n    /* \"@openzeppelin/contracts/access/Ownable.sol\":1094:1107  _checkOwner() */\n  jump\t// in\ntag_38:\n  sub(shl(0xa0, 0x01), 0x01)\n    /* \"@openzeppelin/contracts/access/Ownable.sol\":2169:2191  newOwner != address(0) */\n  dup2\n  and\n    /* \"@openzeppelin/contracts/access/Ownable.sol\":2161:2234  require(newOwner != address(0), \"Ownable: new owner is the zero address\") */\n  tag_41\n  jumpi\n  mload(0x40)\n  shl(0xe5, 0x461bcd)\n  dup2\n  mstore\n    /* \"#utility.yul\":2454:2456   */\n  0x20\n    /* \"@openzeppelin/contracts/access/Ownable.sol\":2161:2234  require(newOwner != address(0), \"Ownable: new owner is the zero address\") */\n  0x04\n  dup3\n  add\n    /* \"#utility.yul\":2436:2457   */\n  mstore\n    /* \"#utility.yul\":2493:2495   */\n  0x26\n    /* \"#utility.yul\":2473:2491   */\n  0x24\n  dup3\n  add\n    /* \"#utility.yul\":2466:2496   */\n  mstore\n    /* \"#utility.yul\":2532:2566   */\n  0x4f776e61626c653a206e6577206f776e657220697320746865207a65726f2061\n    /* \"#utility.yul\":2512:2530   */\n  0x44\n  dup3\n  add\n    /* \"#utility.yul\":2505:2567   */\n  mstore\n  shl(0xd0, 0x646472657373)\n    /* \"#utility.yul\":2583:2601   */\n  0x64\n  dup3\n  add\n    /* \"#utility.yul\":2576:2612   */\n  mstore\n    /* \"#utility.yul\":2629:2648   */\n  0x84\n  add\n    /* \"@openzeppelin/contracts/access/Ownable.sol\":2161:2234  require(newOwner != address(0), \"Ownable: new owner is the zero address\") */\ntag_42:\n  mload(0x40)\n  dup1\n  swap2\n  sub\n  swap1\n  revert\ntag_41:\n    /* \"@openzeppelin/contracts/access/Ownable.sol\":2244:2272  _transferOwnership(newOwner) */\n  tag_44\n    /* \"@openzeppelin/contracts/access/Ownable.sol\":2263:2271  newOwner */\n  dup2\n    /* \"@openzeppelin/contracts/access/Ownable.sol\":2244:2262  _transferOwnership */\n  tag_15\n    /* \"@openzeppelin/contracts/access/Ownable.sol\":2244:2272  _transferOwnership(newOwner) */\n  jump\t// in\ntag_44:\n    /* \"@openzeppelin/contracts/access/Ownable.sol\":2081:2279  function transferOwnership(address newOwner) public virtual onlyOwner {... */\n  pop\n  jump\t// out\n    /* \"@openzeppelin/contracts/access/Ownable.sol\":1359:1489  function _checkOwner() internal view virtual {... */\ntag_39:\n    /* \"@openzeppelin/contracts/access/Ownable.sol\":1273:1279  _owner */\n  and(sub(shl(0xa0, 0x01), 0x01), sload(0x05))\n    /* \"@openzeppelin/contracts/utils/Context.sol\":719:729  msg.sender */\n  caller\n    /* \"@openzeppelin/contracts/access/Ownable.sol\":1422:1445  owner() == _msgSender() */\n  eq\n    /* \"@openzeppelin/contracts/access/Ownable.sol\":1414:1482  require(owner() == _msgSender(), \"Ownable: caller is not the owner\") */\n  tag_51\n  jumpi\n  mload(0x40)\n  shl(0xe5, 0x461bcd)\n  dup2\n  mstore\n    /* \"#utility.yul\":2861:2863   */\n  0x20\n    /* \"@openzeppelin/contracts/access/Ownable.sol\":1414:1482  require(owner() == _msgSender(), \"Ownable: caller is not the owner\") */\n  0x04\n  dup3\n  add\n    /* \"#utility.yul\":2843:2864   */\n  dup2\n  swap1\n  mstore\n    /* \"#utility.yul\":2880:2898   */\n  0x24\n  dup3\n  add\n    /* \"#utility.yul\":2873:2903   */\n  mstore\n    /* \"#utility.yul\":2939:2973   */\n  0x4f776e61626c653a2063616c6c6572206973206e6f7420746865206f776e6572\n    /* \"#utility.yul\":2919:2937   */\n  0x44\n  dup3\n  add\n    /* \"#utility.yul\":2912:2974   */\n  mstore\n    /* \"#utility.yul\":2991:3009   */\n  0x64\n  add\n    /* \"@openzeppelin/contracts/access/Ownable.sol\":1414:1482  require(owner() == _msgSender(), \"Ownable: caller is not the owner\") */\n  tag_42\n    /* \"#utility.yul\":2659:3015   */\n  jump\n    /* \"@openzeppelin/contracts/access/Ownable.sol\":1414:1482  require(owner() == _msgSender(), \"Ownable: caller is not the owner\") */\ntag_51:\n    /* \"@openzeppelin/contracts/access/Ownable.sol\":1359:1489  function _checkOwner() internal view virtual {... */\n  jump\t// out\n    /* \"contracts/utilities/iHold.sol\":5191:5728  contract iHold is ERC20, Ownable {... */\ntag_9:\n  dup3\n  dup1\n  sload\n  tag_55\n  swap1\n  tag_56\n  jump\t// in\ntag_55:\n  swap1\n  0x00\n  mstore\n  keccak256(0x00, 0x20)\n  swap1\n  0x1f\n  add\n  0x20\n  swap1\n  div\n  dup2\n  add\n  swap3\n  dup3\n  tag_58\n  jumpi\n  0x00\n  dup6\n  sstore\n  jump(tag_61)\ntag_58:\n  dup3\n  0x1f\n  lt\n  tag_59\n  jumpi\n  dup1\n  mload\n  not(0xff)\n  and\n  dup4\n  dup1\n  add\n  or\n  dup6\n  sstore\n  jump(tag_61)\ntag_59:\n  dup3\n  dup1\n  add\n  0x01\n  add\n  dup6\n  sstore\n  dup3\n  iszero\n  tag_61\n  jumpi\n  swap2\n  dup3\n  add\ntag_60:\n  dup3\n  dup2\n  gt\n  iszero\n  tag_61\n  jumpi\n  dup3\n  mload\n  dup3\n  sstore\n  swap2\n  0x20\n  add\n  swap2\n  swap1\n  0x01\n  add\n  swap1\n  jump(tag_60)\ntag_61:\n  pop\n  tag_62\n  swap3\n  swap2\n  pop\n  tag_63\n  jump\t// in\ntag_62:\n  pop\n  swap1\n  jump\t// out\ntag_63:\ntag_64:\n  dup1\n  dup3\n  gt\n  iszero\n  tag_62\n  jumpi\n  0x00\n  dup2\n  sstore\n  0x01\n  add\n  jump(tag_64)\n    /* \"#utility.yul\":14:141   */\ntag_66:\n    /* \"#utility.yul\":75:85   */\n  0x4e487b71\n    /* \"#utility.yul\":70:73   */\n  0xe0\n    /* \"#utility.yul\":66:86   */\n  shl\n    /* \"#utility.yul\":63:64   */\n  0x00\n    /* \"#utility.yul\":56:87   */\n  mstore\n    /* \"#utility.yul\":106:110   */\n  0x41\n    /* \"#utility.yul\":103:104   */\n  0x04\n    /* \"#utility.yul\":96:111   */\n  mstore\n    /* \"#utility.yul\":130:134   */\n  0x24\n    /* \"#utility.yul\":127:128   */\n  0x00\n    /* \"#utility.yul\":120:135   */\n  revert\n    /* \"#utility.yul\":146:1031   */\ntag_67:\n    /* \"#utility.yul\":200:205   */\n  0x00\n    /* \"#utility.yul\":253:256   */\n  dup3\n    /* \"#utility.yul\":246:250   */\n  0x1f\n    /* \"#utility.yul\":238:244   */\n  dup4\n    /* \"#utility.yul\":234:251   */\n  add\n    /* \"#utility.yul\":230:257   */\n  slt\n    /* \"#utility.yul\":220:275   */\n  tag_71\n  jumpi\n    /* \"#utility.yul\":271:272   */\n  0x00\n    /* \"#utility.yul\":268:269   */\n  dup1\n    /* \"#utility.yul\":261:273   */\n  revert\n    /* \"#utility.yul\":220:275   */\ntag_71:\n    /* \"#utility.yul\":294:307   */\n  dup2\n  mload\n  sub(shl(0x40, 0x01), 0x01)\n    /* \"#utility.yul\":356:366   */\n  dup1\n  dup3\n  gt\n    /* \"#utility.yul\":353:389   */\n  iszero\n  tag_73\n  jumpi\n    /* \"#utility.yul\":369:387   */\n  tag_73\n  tag_66\n  jump\t// in\ntag_73:\n    /* \"#utility.yul\":444:446   */\n  0x40\n    /* \"#utility.yul\":438:447   */\n  mload\n    /* \"#utility.yul\":412:414   */\n  0x1f\n    /* \"#utility.yul\":498:511   */\n  dup4\n  add\n  not(0x1f)\n    /* \"#utility.yul\":494:516   */\n  swap1\n  dup2\n  and\n    /* \"#utility.yul\":518:520   */\n  0x3f\n    /* \"#utility.yul\":490:521   */\n  add\n    /* \"#utility.yul\":486:526   */\n  and\n    /* \"#utility.yul\":474:527   */\n  dup2\n  add\n  swap1\n    /* \"#utility.yul\":542:560   */\n  dup3\n  dup3\n  gt\n    /* \"#utility.yul\":562:584   */\n  dup2\n  dup4\n  lt\n    /* \"#utility.yul\":539:585   */\n  or\n    /* \"#utility.yul\":536:608   */\n  iszero\n  tag_75\n  jumpi\n    /* \"#utility.yul\":588:606   */\n  tag_75\n  tag_66\n  jump\t// in\ntag_75:\n    /* \"#utility.yul\":628:638   */\n  dup2\n    /* \"#utility.yul\":624:626   */\n  0x40\n    /* \"#utility.yul\":617:639   */\n  mstore\n    /* \"#utility.yul\":663:665   */\n  dup4\n    /* \"#utility.yul\":655:661   */\n  dup2\n    /* \"#utility.yul\":648:666   */\n  mstore\n    /* \"#utility.yul\":685:689   */\n  0x20\n    /* \"#utility.yul\":675:689   */\n  swap3\n  pop\n    /* \"#utility.yul\":730:733   */\n  dup7\n    /* \"#utility.yul\":725:727   */\n  dup4\n    /* \"#utility.yul\":720:722   */\n  dup6\n    /* \"#utility.yul\":712:718   */\n  dup9\n    /* \"#utility.yul\":708:723   */\n  add\n    /* \"#utility.yul\":704:728   */\n  add\n    /* \"#utility.yul\":701:734   */\n  gt\n    /* \"#utility.yul\":698:751   */\n  iszero\n  tag_76\n  jumpi\n    /* \"#utility.yul\":747:748   */\n  0x00\n    /* \"#utility.yul\":744:745   */\n  dup1\n    /* \"#utility.yul\":737:749   */\n  revert\n    /* \"#utility.yul\":698:751   */\ntag_76:\n    /* \"#utility.yul\":769:770   */\n  0x00\n    /* \"#utility.yul\":760:770   */\n  swap2\n  pop\n    /* \"#utility.yul\":779:912   */\ntag_77:\n    /* \"#utility.yul\":793:795   */\n  dup4\n    /* \"#utility.yul\":790:791   */\n  dup3\n    /* \"#utility.yul\":787:796   */\n  lt\n    /* \"#utility.yul\":779:912   */\n  iszero\n  tag_79\n  jumpi\n    /* \"#utility.yul\":881:895   */\n  dup6\n  dup3\n  add\n    /* \"#utility.yul\":877:900   */\n  dup4\n  add\n    /* \"#utility.yul\":871:901   */\n  mload\n    /* \"#utility.yul\":850:864   */\n  dup2\n  dup4\n  add\n    /* \"#utility.yul\":846:869   */\n  dup5\n  add\n    /* \"#utility.yul\":839:902   */\n  mstore\n    /* \"#utility.yul\":804:814   */\n  swap1\n  dup3\n  add\n  swap1\n    /* \"#utility.yul\":779:912   */\n  jump(tag_77)\ntag_79:\n    /* \"#utility.yul\":930:932   */\n  dup4\n    /* \"#utility.yul\":927:928   */\n  dup3\n    /* \"#utility.yul\":924:933   */\n  gt\n    /* \"#utility.yul\":921:1001   */\n  iszero\n  tag_80\n  jumpi\n    /* \"#utility.yul\":989:990   */\n  0x00\n    /* \"#utility.yul\":984:986   */\n  dup4\n    /* \"#utility.yul\":979:981   */\n  dup6\n    /* \"#utility.yul\":971:977   */\n  dup4\n    /* \"#utility.yul\":967:982   */\n  add\n    /* \"#utility.yul\":963:987   */\n  add\n    /* \"#utility.yul\":956:991   */\n  mstore\n    /* \"#utility.yul\":921:1001   */\ntag_80:\n    /* \"#utility.yul\":1019:1025   */\n  swap7\n    /* \"#utility.yul\":146:1031   */\n  swap6\n  pop\n  pop\n  pop\n  pop\n  pop\n  pop\n  jump\t// out\n    /* \"#utility.yul\":1036:1835   */\ntag_3:\n    /* \"#utility.yul\":1161:1167   */\n  0x00\n    /* \"#utility.yul\":1169:1175   */\n  dup1\n    /* \"#utility.yul\":1177:1183   */\n  0x00\n    /* \"#utility.yul\":1185:1191   */\n  dup1\n    /* \"#utility.yul\":1238:1241   */\n  0x80\n    /* \"#utility.yul\":1226:1235   */\n  dup6\n    /* \"#utility.yul\":1217:1224   */\n  dup8\n    /* \"#utility.yul\":1213:1236   */\n  sub\n    /* \"#utility.yul\":1209:1242   */\n  slt\n    /* \"#utility.yul\":1206:1259   */\n  iszero\n  tag_82\n  jumpi\n    /* \"#utility.yul\":1255:1256   */\n  0x00\n    /* \"#utility.yul\":1252:1253   */\n  dup1\n    /* \"#utility.yul\":1245:1257   */\n  revert\n    /* \"#utility.yul\":1206:1259   */\ntag_82:\n    /* \"#utility.yul\":1282:1298   */\n  dup5\n  mload\n  sub(shl(0x40, 0x01), 0x01)\n    /* \"#utility.yul\":1347:1361   */\n  dup1\n  dup3\n  gt\n    /* \"#utility.yul\":1344:1378   */\n  iszero\n  tag_83\n  jumpi\n    /* \"#utility.yul\":1374:1375   */\n  0x00\n    /* \"#utility.yul\":1371:1372   */\n  dup1\n    /* \"#utility.yul\":1364:1376   */\n  revert\n    /* \"#utility.yul\":1344:1378   */\ntag_83:\n    /* \"#utility.yul\":1397:1458   */\n  tag_84\n    /* \"#utility.yul\":1450:1457   */\n  dup9\n    /* \"#utility.yul\":1441:1447   */\n  dup4\n    /* \"#utility.yul\":1430:1439   */\n  dup10\n    /* \"#utility.yul\":1426:1448   */\n  add\n    /* \"#utility.yul\":1397:1458   */\n  tag_67\n  jump\t// in\ntag_84:\n    /* \"#utility.yul\":1387:1458   */\n  swap6\n  pop\n    /* \"#utility.yul\":1504:1506   */\n  0x20\n    /* \"#utility.yul\":1493:1502   */\n  dup8\n    /* \"#utility.yul\":1489:1507   */\n  add\n    /* \"#utility.yul\":1483:1508   */\n  mload\n    /* \"#utility.yul\":1467:1508   */\n  swap2\n  pop\n    /* \"#utility.yul\":1533:1535   */\n  dup1\n    /* \"#utility.yul\":1523:1531   */\n  dup3\n    /* \"#utility.yul\":1520:1536   */\n  gt\n    /* \"#utility.yul\":1517:1553   */\n  iszero\n  tag_85\n  jumpi\n    /* \"#utility.yul\":1549:1550   */\n  0x00\n    /* \"#utility.yul\":1546:1547   */\n  dup1\n    /* \"#utility.yul\":1539:1551   */\n  revert\n    /* \"#utility.yul\":1517:1553   */\ntag_85:\n  pop\n    /* \"#utility.yul\":1572:1635   */\n  tag_86\n    /* \"#utility.yul\":1627:1634   */\n  dup8\n    /* \"#utility.yul\":1616:1624   */\n  dup3\n    /* \"#utility.yul\":1605:1614   */\n  dup9\n    /* \"#utility.yul\":1601:1625   */\n  add\n    /* \"#utility.yul\":1572:1635   */\n  tag_67\n  jump\t// in\ntag_86:\n    /* \"#utility.yul\":1678:1680   */\n  0x40\n    /* \"#utility.yul\":1663:1681   */\n  dup8\n  add\n    /* \"#utility.yul\":1657:1682   */\n  mload\n    /* \"#utility.yul\":1562:1635   */\n  swap1\n  swap5\n  pop\n    /* \"#utility.yul\":1657:1682   */\n  swap1\n  pop\n  sub(shl(0xa0, 0x01), 0x01)\n    /* \"#utility.yul\":1711:1742   */\n  dup2\n  and\n    /* \"#utility.yul\":1701:1743   */\n  dup2\n  eq\n    /* \"#utility.yul\":1691:1761   */\n  tag_87\n  jumpi\n    /* \"#utility.yul\":1757:1758   */\n  0x00\n    /* \"#utility.yul\":1754:1755   */\n  dup1\n    /* \"#utility.yul\":1747:1759   */\n  revert\n    /* \"#utility.yul\":1691:1761   */\ntag_87:\n    /* \"#utility.yul\":1825:1827   */\n  0x60\n    /* \"#utility.yul\":1810:1828   */\n  swap6\n  swap1\n  swap6\n  add\n    /* \"#utility.yul\":1804:1829   */\n  mload\n    /* \"#utility.yul\":1036:1835   */\n  swap4\n  swap7\n  swap3\n  swap6\n  pop\n  pop\n  pop\n  jump\t// out\n    /* \"#utility.yul\":1840:2065   */\ntag_31:\n    /* \"#utility.yul\":1880:1883   */\n  0x00\n    /* \"#utility.yul\":1911:1912   */\n  dup3\n    /* \"#utility.yul\":1907:1913   */\n  not\n    /* \"#utility.yul\":1904:1905   */\n  dup3\n    /* \"#utility.yul\":1901:1914   */\n  gt\n    /* \"#utility.yul\":1898:2034   */\n  iszero\n  tag_89\n  jumpi\n    /* \"#utility.yul\":1956:1966   */\n  0x4e487b71\n    /* \"#utility.yul\":1951:1954   */\n  0xe0\n    /* \"#utility.yul\":1947:1967   */\n  shl\n    /* \"#utility.yul\":1944:1945   */\n  0x00\n    /* \"#utility.yul\":1937:1968   */\n  mstore\n    /* \"#utility.yul\":1991:1995   */\n  0x11\n    /* \"#utility.yul\":1988:1989   */\n  0x04\n    /* \"#utility.yul\":1981:1996   */\n  mstore\n    /* \"#utility.yul\":2019:2023   */\n  0x24\n    /* \"#utility.yul\":2016:2017   */\n  0x00\n    /* \"#utility.yul\":2009:2024   */\n  revert\n    /* \"#utility.yul\":1898:2034   */\ntag_89:\n  pop\n    /* \"#utility.yul\":2050:2059   */\n  add\n  swap1\n    /* \"#utility.yul\":1840:2065   */\n  jump\t// out\n    /* \"#utility.yul\":3020:3400   */\ntag_56:\n    /* \"#utility.yul\":3099:3100   */\n  0x01\n    /* \"#utility.yul\":3095:3107   */\n  dup2\n  dup2\n  shr\n  swap1\n    /* \"#utility.yul\":3142:3154   */\n  dup3\n  and\n  dup1\n    /* \"#utility.yul\":3163:3224   */\n  tag_94\n  jumpi\n    /* \"#utility.yul\":3217:3221   */\n  0x7f\n    /* \"#utility.yul\":3209:3215   */\n  dup3\n    /* \"#utility.yul\":3205:3222   */\n  and\n    /* \"#utility.yul\":3195:3222   */\n  swap2\n  pop\n    /* \"#utility.yul\":3163:3224   */\ntag_94:\n    /* \"#utility.yul\":3270:3272   */\n  0x20\n    /* \"#utility.yul\":3262:3268   */\n  dup3\n    /* \"#utility.yul\":3259:3273   */\n  lt\n    /* \"#utility.yul\":3239:3257   */\n  dup2\n    /* \"#utility.yul\":3236:3274   */\n  sub\n    /* \"#utility.yul\":3233:3394   */\n  tag_95\n  jumpi\n    /* \"#utility.yul\":3316:3326   */\n  0x4e487b71\n    /* \"#utility.yul\":3311:3314   */\n  0xe0\n    /* \"#utility.yul\":3307:3327   */\n  shl\n    /* \"#utility.yul\":3304:3305   */\n  0x00\n    /* \"#utility.yul\":3297:3328   */\n  mstore\n    /* \"#utility.yul\":3351:3355   */\n  0x22\n    /* \"#utility.yul\":3348:3349   */\n  0x04\n    /* \"#utility.yul\":3341:3356   */\n  mstore\n    /* \"#utility.yul\":3379:3383   */\n  0x24\n    /* \"#utility.yul\":3376:3377   */\n  0x00\n    /* \"#utility.yul\":3369:3384   */\n  revert\n    /* \"#utility.yul\":3233:3394   */\ntag_95:\n  pop\n    /* \"#utility.yul\":3020:3400   */\n  swap2\n  swap1\n  pop\n  jump\t// out\ntag_68:\n    /* \"contracts/utilities/iHold.sol\":5191:5728  contract iHold is ERC20, Ownable {... */\n  dataSize(sub_0)\n  dup1\n  dataOffset(sub_0)\n  0x00\n  codecopy\n  0x00\n  return\nstop\ndata_9c064737b570a74c2bac5d21056d93ac53115214216cd14d4a0fc9b60be81231 8be0079c531659141344cd1fd0a4f28419497f9722a3daafe3b4186f6b6457e0\n\nsub_0: assembly {\n        /* \"contracts/utilities/iHold.sol\":5191:5728  contract iHold is ERC20, Ownable {... */\n      mstore(0x40, 0x80)\n      jumpi(tag_1, lt(calldatasize, 0x04))\n      shr(0xe0, calldataload(0x00))\n      dup1\n      0x06fdde03\n      eq\n      tag_3\n      jumpi\n      dup1\n      0x095ea7b3\n      eq\n      tag_4\n      jumpi\n      dup1\n      0x18160ddd\n      eq\n      tag_5\n      jumpi\n      dup1\n      0x23b872dd\n      eq\n      tag_6\n      jumpi\n      dup1\n      0x313ce567\n      eq\n      tag_7\n      jumpi\n      dup1\n      0x39509351\n      eq\n      tag_8\n      jumpi\n      dup1\n      0x70a08231\n      eq\n      tag_9\n      jumpi\n      dup1\n      0x715018a6\n      eq\n      tag_10\n      jumpi\n      dup1\n      0x8da5cb5b\n      eq\n      tag_11\n      jumpi\n      dup1\n      0x95d89b41\n      eq\n      tag_12\n      jumpi\n      dup1\n      0xa457c2d7\n      eq\n      tag_13\n      jumpi\n      dup1\n      0xa9059cbb\n      eq\n      tag_14\n      jumpi\n      dup1\n      0xb09f1266\n      eq\n      tag_15\n      jumpi\n      dup1\n      0xd28d8852\n      eq\n      tag_16\n      jumpi\n      dup1\n      0xdd62ed3e\n      eq\n      tag_17\n      jumpi\n      dup1\n      0xf2fde38b\n      eq\n      tag_18\n      jumpi\n      stop\n    tag_1:\n      jumpi(tag_2, calldatasize)\n      stop\n    tag_2:\n      stop\n        /* \"contracts/token/ERC20.sol\":895:993  function name() public view virtual override returns (string memory) {... */\n    tag_3:\n      callvalue\n      dup1\n      iszero\n      tag_23\n      jumpi\n      0x00\n      dup1\n      revert\n    tag_23:\n      pop\n      tag_24\n      tag_25\n      jump\t// in\n    tag_24:\n      mload(0x40)\n      tag_26\n      swap2\n      swap1\n      tag_27\n      jump\t// in\n    tag_26:\n      mload(0x40)\n      dup1\n      swap2\n      sub\n      swap1\n      return\n        /* \"contracts/token/ERC20.sol\":3114:3314  function approve(address spender, uint256 amount)... */\n    tag_4:\n      callvalue\n      dup1\n      iszero\n      tag_28\n      jumpi\n      0x00\n      dup1\n      revert\n    tag_28:\n      pop\n      tag_29\n      tag_30\n      calldatasize\n      0x04\n      tag_31\n      jump\t// in\n    tag_30:\n      tag_32\n      jump\t// in\n    tag_29:\n      mload(0x40)\n        /* \"#utility.yul\":1218:1232   */\n      swap1\n      iszero\n        /* \"#utility.yul\":1211:1233   */\n      iszero\n        /* \"#utility.yul\":1193:1234   */\n      dup2\n      mstore\n        /* \"#utility.yul\":1181:1183   */\n      0x20\n        /* \"#utility.yul\":1166:1184   */\n      add\n        /* \"contracts/token/ERC20.sol\":3114:3314  function approve(address spender, uint256 amount)... */\n      tag_26\n        /* \"#utility.yul\":1053:1240   */\n      jump\n        /* \"contracts/token/ERC20.sol\":1983:2089  function totalSupply() public view virtual override returns (uint256) {... */\n    tag_5:\n      callvalue\n      dup1\n      iszero\n      tag_35\n      jumpi\n      0x00\n      dup1\n      revert\n    tag_35:\n      pop\n        /* \"contracts/token/ERC20.sol\":2070:2082  _totalSupply */\n      sload(0x02)\n        /* \"contracts/token/ERC20.sol\":1983:2089  function totalSupply() public view virtual override returns (uint256) {... */\n    tag_36:\n      mload(0x40)\n        /* \"#utility.yul\":1391:1416   */\n      swap1\n      dup2\n      mstore\n        /* \"#utility.yul\":1379:1381   */\n      0x20\n        /* \"#utility.yul\":1364:1382   */\n      add\n        /* \"contracts/token/ERC20.sol\":1983:2089  function totalSupply() public view virtual override returns (uint256) {... */\n      tag_26\n        /* \"#utility.yul\":1245:1422   */\n      jump\n        /* \"contracts/token/ERC20.sol\":3781:4233  function transferFrom(... */\n    tag_6:\n      callvalue\n      dup1\n      iszero\n      tag_40\n      jumpi\n      0x00\n      dup1\n      revert\n    tag_40:\n      pop\n      tag_29\n      tag_42\n      calldatasize\n      0x04\n      tag_43\n      jump\t// in\n    tag_42:\n      tag_44\n      jump\t// in\n        /* \"contracts/token/ERC20.sol\":1832:1923  function decimals() public view virtual override returns (uint8) {... */\n    tag_7:\n      callvalue\n      dup1\n      iszero\n      tag_46\n      jumpi\n      0x00\n      dup1\n      revert\n    tag_46:\n      pop\n      mload(0x40)\n        /* \"contracts/token/ERC20.sol\":1914:1916  18 */\n      0x12\n        /* \"#utility.yul\":1902:1938   */\n      dup2\n      mstore\n        /* \"#utility.yul\":1890:1892   */\n      0x20\n        /* \"#utility.yul\":1875:1893   */\n      add\n        /* \"contracts/token/ERC20.sol\":1832:1923  function decimals() public view virtual override returns (uint8) {... */\n      tag_26\n        /* \"#utility.yul\":1760:1944   */\n      jump\n        /* \"contracts/token/ERC20.sol\":4628:4910  function increaseAllowance(address spender, uint256 addedValue)... */\n    tag_8:\n      callvalue\n      dup1\n      iszero\n      tag_51\n      jumpi\n      0x00\n      dup1\n      revert\n    tag_51:\n      pop\n      tag_29\n      tag_53\n      calldatasize\n      0x04\n      tag_31\n      jump\t// in\n    tag_53:\n      tag_54\n      jump\t// in\n        /* \"contracts/token/ERC20.sol\":2147:2316  function balanceOf(address account)... */\n    tag_9:\n      callvalue\n      dup1\n      iszero\n      tag_56\n      jumpi\n      0x00\n      dup1\n      revert\n    tag_56:\n      pop\n      tag_36\n      tag_58\n      calldatasize\n      0x04\n      tag_59\n      jump\t// in\n    tag_58:\n      sub(shl(0xa0, 0x01), 0x01)\n        /* \"contracts/token/ERC20.sol\":2291:2309  _balances[account] */\n      and\n        /* \"contracts/token/ERC20.sol\":2261:2268  uint256 */\n      0x00\n        /* \"contracts/token/ERC20.sol\":2291:2309  _balances[account] */\n      swap1\n      dup2\n      mstore\n      0x20\n      dup2\n      swap1\n      mstore\n      0x40\n      swap1\n      keccak256\n      sload\n      swap1\n        /* \"contracts/token/ERC20.sol\":2147:2316  function balanceOf(address account)... */\n      jump\n        /* \"@openzeppelin/contracts/access/Ownable.sol\":1831:1932  function renounceOwnership() public virtual onlyOwner {... */\n    tag_10:\n      callvalue\n      dup1\n      iszero\n      tag_62\n      jumpi\n      0x00\n      dup1\n      revert\n    tag_62:\n      pop\n      tag_2\n      tag_64\n      jump\t// in\n        /* \"@openzeppelin/contracts/access/Ownable.sol\":1201:1286  function owner() public view virtual returns (address) {... */\n    tag_11:\n      callvalue\n      dup1\n      iszero\n      tag_65\n      jumpi\n      0x00\n      dup1\n      revert\n    tag_65:\n      pop\n        /* \"@openzeppelin/contracts/access/Ownable.sol\":1273:1279  _owner */\n      sload(0x05)\n        /* \"@openzeppelin/contracts/access/Ownable.sol\":1201:1286  function owner() public view virtual returns (address) {... */\n      mload(0x40)\n      sub(shl(0xa0, 0x01), 0x01)\n        /* \"@openzeppelin/contracts/access/Ownable.sol\":1273:1279  _owner */\n      swap1\n      swap2\n      and\n        /* \"#utility.yul\":2286:2337   */\n      dup2\n      mstore\n        /* \"#utility.yul\":2274:2276   */\n      0x20\n        /* \"#utility.yul\":2259:2277   */\n      add\n        /* \"@openzeppelin/contracts/access/Ownable.sol\":1201:1286  function owner() public view virtual returns (address) {... */\n      tag_26\n        /* \"#utility.yul\":2140:2343   */\n      jump\n        /* \"contracts/token/ERC20.sol\":1106:1208  function symbol() public view virtual override returns (string memory) {... */\n    tag_12:\n      callvalue\n      dup1\n      iszero\n      tag_70\n      jumpi\n      0x00\n      dup1\n      revert\n    tag_70:\n      pop\n      tag_24\n      tag_72\n      jump\t// in\n        /* \"contracts/token/ERC20.sol\":5397:5807  function decreaseAllowance(address spender, uint256 subtractedValue)... */\n    tag_13:\n      callvalue\n      dup1\n      iszero\n      tag_74\n      jumpi\n      0x00\n      dup1\n      revert\n    tag_74:\n      pop\n      tag_29\n      tag_76\n      calldatasize\n      0x04\n      tag_31\n      jump\t// in\n    tag_76:\n      tag_77\n      jump\t// in\n        /* \"contracts/token/ERC20.sol\":2519:2725  function transfer(address recipient, uint256 amount)... */\n    tag_14:\n      callvalue\n      dup1\n      iszero\n      tag_79\n      jumpi\n      0x00\n      dup1\n      revert\n    tag_79:\n      pop\n      tag_29\n      tag_81\n      calldatasize\n      0x04\n      tag_31\n      jump\t// in\n    tag_81:\n      tag_82\n      jump\t// in\n        /* \"contracts/token/ERC20.sol\":576:597  string public _symbol */\n    tag_15:\n      callvalue\n      dup1\n      iszero\n      tag_84\n      jumpi\n      0x00\n      dup1\n      revert\n    tag_84:\n      pop\n      tag_24\n      tag_86\n      jump\t// in\n        /* \"contracts/token/ERC20.sol\":551:570  string public _name */\n    tag_16:\n      callvalue\n      dup1\n      iszero\n      tag_88\n      jumpi\n      0x00\n      dup1\n      revert\n    tag_88:\n      pop\n      tag_24\n      tag_90\n      jump\t// in\n        /* \"contracts/token/ERC20.sol\":2783:2976  function allowance(address owner, address spender)... */\n    tag_17:\n      callvalue\n      dup1\n      iszero\n      tag_92\n      jumpi\n      0x00\n      dup1\n      revert\n    tag_92:\n      pop\n      tag_36\n      tag_94\n      calldatasize\n      0x04\n      tag_95\n      jump\t// in\n    tag_94:\n      sub(shl(0xa0, 0x01), 0x01)\n        /* \"contracts/token/ERC20.sol\":2942:2960  _allowances[owner] */\n      swap2\n      dup3\n      and\n        /* \"contracts/token/ERC20.sol\":2912:2919  uint256 */\n      0x00\n        /* \"contracts/token/ERC20.sol\":2942:2960  _allowances[owner] */\n      swap1\n      dup2\n      mstore\n        /* \"contracts/token/ERC20.sol\":2942:2953  _allowances */\n      0x01\n        /* \"contracts/token/ERC20.sol\":2942:2960  _allowances[owner] */\n      0x20\n      swap1\n      dup2\n      mstore\n      0x40\n      dup1\n      dup4\n      keccak256\n        /* \"contracts/token/ERC20.sol\":2942:2969  _allowances[owner][spender] */\n      swap4\n      swap1\n      swap5\n      and\n      dup3\n      mstore\n      swap2\n      swap1\n      swap2\n      mstore\n      keccak256\n      sload\n      swap1\n        /* \"contracts/token/ERC20.sol\":2783:2976  function allowance(address owner, address spender)... */\n      jump\n        /* \"@openzeppelin/contracts/access/Ownable.sol\":2081:2279  function transferOwnership(address newOwner) public virtual onlyOwner {... */\n    tag_18:\n      callvalue\n      dup1\n      iszero\n      tag_98\n      jumpi\n      0x00\n      dup1\n      revert\n    tag_98:\n      pop\n      tag_2\n      tag_100\n      calldatasize\n      0x04\n      tag_59\n      jump\t// in\n    tag_100:\n      tag_101\n      jump\t// in\n        /* \"contracts/token/ERC20.sol\":895:993  function name() public view virtual override returns (string memory) {... */\n    tag_25:\n        /* \"contracts/token/ERC20.sol\":949:962  string memory */\n      0x60\n        /* \"contracts/token/ERC20.sol\":981:986  _name */\n      0x03\n        /* \"contracts/token/ERC20.sol\":974:986  return _name */\n      dup1\n      sload\n      tag_103\n      swap1\n      tag_104\n      jump\t// in\n    tag_103:\n      dup1\n      0x1f\n      add\n      0x20\n      dup1\n      swap2\n      div\n      mul\n      0x20\n      add\n      mload(0x40)\n      swap1\n      dup2\n      add\n      0x40\n      mstore\n      dup1\n      swap3\n      swap2\n      swap1\n      dup2\n      dup2\n      mstore\n      0x20\n      add\n      dup3\n      dup1\n      sload\n      tag_105\n      swap1\n      tag_104\n      jump\t// in\n    tag_105:\n      dup1\n      iszero\n      tag_106\n      jumpi\n      dup1\n      0x1f\n      lt\n      tag_107\n      jumpi\n      0x0100\n      dup1\n      dup4\n      sload\n      div\n      mul\n      dup4\n      mstore\n      swap2\n      0x20\n      add\n      swap2\n      jump(tag_106)\n    tag_107:\n      dup3\n      add\n      swap2\n      swap1\n      0x00\n      mstore\n      keccak256(0x00, 0x20)\n      swap1\n    tag_108:\n      dup2\n      sload\n      dup2\n      mstore\n      swap1\n      0x01\n      add\n      swap1\n      0x20\n      add\n      dup1\n      dup4\n      gt\n      tag_108\n      jumpi\n      dup3\n      swap1\n      sub\n      0x1f\n      and\n      dup3\n      add\n      swap2\n    tag_106:\n      pop\n      pop\n      pop\n      pop\n      pop\n      swap1\n      pop\n        /* \"contracts/token/ERC20.sol\":895:993  function name() public view virtual override returns (string memory) {... */\n      swap1\n      jump\t// out\n        /* \"contracts/token/ERC20.sol\":3114:3314  function approve(address spender, uint256 amount)... */\n    tag_32:\n        /* \"contracts/token/ERC20.sol\":3229:3233  bool */\n      0x00\n        /* \"contracts/token/ERC20.sol\":3249:3286  _approve(msg.sender, spender, amount) */\n      tag_110\n        /* \"contracts/token/ERC20.sol\":3258:3268  msg.sender */\n      caller\n        /* \"contracts/token/ERC20.sol\":3270:3277  spender */\n      dup5\n        /* \"contracts/token/ERC20.sol\":3279:3285  amount */\n      dup5\n        /* \"contracts/token/ERC20.sol\":3249:3257  _approve */\n      tag_111\n        /* \"contracts/token/ERC20.sol\":3249:3286  _approve(msg.sender, spender, amount) */\n      jump\t// in\n    tag_110:\n      pop\n        /* \"contracts/token/ERC20.sol\":3303:3307  true */\n      0x01\n        /* \"contracts/token/ERC20.sol\":3114:3314  function approve(address spender, uint256 amount)... */\n      swap3\n      swap2\n      pop\n      pop\n      jump\t// out\n        /* \"contracts/token/ERC20.sol\":3781:4233  function transferFrom(... */\n    tag_44:\n        /* \"contracts/token/ERC20.sol\":3917:3921  bool */\n      0x00\n        /* \"contracts/token/ERC20.sol\":3933:3969  _transfer(sender, recipient, amount) */\n      tag_114\n        /* \"contracts/token/ERC20.sol\":3943:3949  sender */\n      dup5\n        /* \"contracts/token/ERC20.sol\":3951:3960  recipient */\n      dup5\n        /* \"contracts/token/ERC20.sol\":3962:3968  amount */\n      dup5\n        /* \"contracts/token/ERC20.sol\":3933:3942  _transfer */\n      tag_115\n        /* \"contracts/token/ERC20.sol\":3933:3969  _transfer(sender, recipient, amount) */\n      jump\t// in\n    tag_114:\n      sub(shl(0xa0, 0x01), 0x01)\n        /* \"contracts/token/ERC20.sol\":4007:4026  _allowances[sender] */\n      dup5\n      and\n        /* \"contracts/token/ERC20.sol\":3980:4004  uint256 currentAllowance */\n      0x00\n        /* \"contracts/token/ERC20.sol\":4007:4026  _allowances[sender] */\n      swap1\n      dup2\n      mstore\n        /* \"contracts/token/ERC20.sol\":4007:4018  _allowances */\n      0x01\n        /* \"contracts/token/ERC20.sol\":4007:4026  _allowances[sender] */\n      0x20\n      swap1\n      dup2\n      mstore\n      0x40\n      dup1\n      dup4\n      keccak256\n        /* \"contracts/token/ERC20.sol\":4027:4037  msg.sender */\n      caller\n        /* \"contracts/token/ERC20.sol\":4007:4038  _allowances[sender][msg.sender] */\n      dup5\n      mstore\n      swap1\n      swap2\n      mstore\n      swap1\n      keccak256\n      sload\n        /* \"contracts/token/ERC20.sol\":4069:4095  currentAllowance >= amount */\n      dup3\n      dup2\n      lt\n      iszero\n        /* \"contracts/token/ERC20.sol\":4048:4105  require(... */\n      tag_116\n      jumpi\n      0x00\n      dup1\n      revert\n    tag_116:\n        /* \"contracts/token/ERC20.sol\":4139:4194  _approve(sender, msg.sender, currentAllowance - amount) */\n      tag_117\n        /* \"contracts/token/ERC20.sol\":4148:4154  sender */\n      dup6\n        /* \"contracts/token/ERC20.sol\":4156:4166  msg.sender */\n      caller\n        /* \"contracts/token/ERC20.sol\":4187:4193  amount */\n      dup6\n        /* \"contracts/token/ERC20.sol\":4168:4184  currentAllowance */\n      dup5\n        /* \"contracts/token/ERC20.sol\":4168:4193  currentAllowance - amount */\n      sub\n        /* \"contracts/token/ERC20.sol\":4139:4147  _approve */\n      tag_111\n        /* \"contracts/token/ERC20.sol\":4139:4194  _approve(sender, msg.sender, currentAllowance - amount) */\n      jump\t// in\n    tag_117:\n      pop\n        /* \"contracts/token/ERC20.sol\":4222:4226  true */\n      0x01\n      swap5\n        /* \"contracts/token/ERC20.sol\":3781:4233  function transferFrom(... */\n      swap4\n      pop\n      pop\n      pop\n      pop\n      jump\t// out\n        /* \"contracts/token/ERC20.sol\":4628:4910  function increaseAllowance(address spender, uint256 addedValue)... */\n    tag_54:\n        /* \"contracts/token/ERC20.sol\":4782:4792  msg.sender */\n      caller\n        /* \"contracts/token/ERC20.sol\":4740:4744  bool */\n      0x00\n        /* \"contracts/token/ERC20.sol\":4827:4850  _allowances[msg.sender] */\n      dup2\n      dup2\n      mstore\n        /* \"contracts/token/ERC20.sol\":4827:4838  _allowances */\n      0x01\n        /* \"contracts/token/ERC20.sol\":4827:4850  _allowances[msg.sender] */\n      0x20\n      swap1\n      dup2\n      mstore\n      0x40\n      dup1\n      dup4\n      keccak256\n      sub(shl(0xa0, 0x01), 0x01)\n        /* \"contracts/token/ERC20.sol\":4827:4859  _allowances[msg.sender][spender] */\n      dup8\n      and\n      dup5\n      mstore\n      swap1\n      swap2\n      mstore\n      dup2\n      keccak256\n      sload\n        /* \"contracts/token/ERC20.sol\":4740:4744  bool */\n      swap1\n      swap2\n        /* \"contracts/token/ERC20.sol\":4760:4882  _approve(... */\n      tag_110\n      swap2\n        /* \"contracts/token/ERC20.sol\":4806:4813  spender */\n      dup6\n      swap1\n        /* \"contracts/token/ERC20.sol\":4827:4872  _allowances[msg.sender][spender] + addedValue */\n      tag_121\n      swap1\n        /* \"contracts/token/ERC20.sol\":4862:4872  addedValue */\n      dup7\n      swap1\n        /* \"contracts/token/ERC20.sol\":4827:4872  _allowances[msg.sender][spender] + addedValue */\n      tag_122\n      jump\t// in\n    tag_121:\n        /* \"contracts/token/ERC20.sol\":4760:4768  _approve */\n      tag_111\n        /* \"contracts/token/ERC20.sol\":4760:4882  _approve(... */\n      jump\t// in\n        /* \"@openzeppelin/contracts/access/Ownable.sol\":1831:1932  function renounceOwnership() public virtual onlyOwner {... */\n    tag_64:\n        /* \"@openzeppelin/contracts/access/Ownable.sol\":1094:1107  _checkOwner() */\n      tag_125\n        /* \"@openzeppelin/contracts/access/Ownable.sol\":1094:1105  _checkOwner */\n      tag_126\n        /* \"@openzeppelin/contracts/access/Ownable.sol\":1094:1107  _checkOwner() */\n      jump\t// in\n    tag_125:\n        /* \"@openzeppelin/contracts/access/Ownable.sol\":1895:1925  _transferOwnership(address(0)) */\n      tag_128\n        /* \"@openzeppelin/contracts/access/Ownable.sol\":1922:1923  0 */\n      0x00\n        /* \"@openzeppelin/contracts/access/Ownable.sol\":1895:1913  _transferOwnership */\n      tag_129\n        /* \"@openzeppelin/contracts/access/Ownable.sol\":1895:1925  _transferOwnership(address(0)) */\n      jump\t// in\n    tag_128:\n        /* \"@openzeppelin/contracts/access/Ownable.sol\":1831:1932  function renounceOwnership() public virtual onlyOwner {... */\n      jump\t// out\n        /* \"contracts/token/ERC20.sol\":1106:1208  function symbol() public view virtual override returns (string memory) {... */\n    tag_72:\n        /* \"contracts/token/ERC20.sol\":1162:1175  string memory */\n      0x60\n        /* \"contracts/token/ERC20.sol\":1194:1201  _symbol */\n      0x04\n        /* \"contracts/token/ERC20.sol\":1187:1201  return _symbol */\n      dup1\n      sload\n      tag_103\n      swap1\n      tag_104\n      jump\t// in\n        /* \"contracts/token/ERC20.sol\":5397:5807  function decreaseAllowance(address spender, uint256 subtractedValue)... */\n    tag_77:\n        /* \"contracts/token/ERC20.sol\":5573:5583  msg.sender */\n      caller\n        /* \"contracts/token/ERC20.sol\":5514:5518  bool */\n      0x00\n        /* \"contracts/token/ERC20.sol\":5561:5584  _allowances[msg.sender] */\n      swap1\n      dup2\n      mstore\n        /* \"contracts/token/ERC20.sol\":5561:5572  _allowances */\n      0x01\n        /* \"contracts/token/ERC20.sol\":5561:5584  _allowances[msg.sender] */\n      0x20\n      swap1\n      dup2\n      mstore\n      0x40\n      dup1\n      dup4\n      keccak256\n      sub(shl(0xa0, 0x01), 0x01)\n        /* \"contracts/token/ERC20.sol\":5561:5593  _allowances[msg.sender][spender] */\n      dup7\n      and\n      dup5\n      mstore\n      swap1\n      swap2\n      mstore\n      dup2\n      keccak256\n      sload\n        /* \"contracts/token/ERC20.sol\":5624:5659  currentAllowance >= subtractedValue */\n      dup3\n      dup2\n      lt\n      iszero\n        /* \"contracts/token/ERC20.sol\":5603:5669  require(... */\n      tag_138\n      jumpi\n      0x00\n      dup1\n      revert\n    tag_138:\n        /* \"contracts/token/ERC20.sol\":5703:5768  _approve(msg.sender, spender, currentAllowance - subtractedValue) */\n      tag_139\n        /* \"contracts/token/ERC20.sol\":5712:5722  msg.sender */\n      caller\n        /* \"contracts/token/ERC20.sol\":5724:5731  spender */\n      dup6\n        /* \"contracts/token/ERC20.sol\":5752:5767  subtractedValue */\n      dup6\n        /* \"contracts/token/ERC20.sol\":5733:5749  currentAllowance */\n      dup5\n        /* \"contracts/token/ERC20.sol\":5733:5767  currentAllowance - subtractedValue */\n      sub\n        /* \"contracts/token/ERC20.sol\":5703:5711  _approve */\n      tag_111\n        /* \"contracts/token/ERC20.sol\":5703:5768  _approve(msg.sender, spender, currentAllowance - subtractedValue) */\n      jump\t// in\n    tag_139:\n      pop\n        /* \"contracts/token/ERC20.sol\":5796:5800  true */\n      0x01\n      swap4\n        /* \"contracts/token/ERC20.sol\":5397:5807  function decreaseAllowance(address spender, uint256 subtractedValue)... */\n      swap3\n      pop\n      pop\n      pop\n      jump\t// out\n        /* \"contracts/token/ERC20.sol\":2519:2725  function transfer(address recipient, uint256 amount)... */\n    tag_82:\n        /* \"contracts/token/ERC20.sol\":2637:2641  bool */\n      0x00\n        /* \"contracts/token/ERC20.sol\":2657:2697  _transfer(msg.sender, recipient, amount) */\n      tag_110\n        /* \"contracts/token/ERC20.sol\":2667:2677  msg.sender */\n      caller\n        /* \"contracts/token/ERC20.sol\":2679:2688  recipient */\n      dup5\n        /* \"contracts/token/ERC20.sol\":2690:2696  amount */\n      dup5\n        /* \"contracts/token/ERC20.sol\":2657:2666  _transfer */\n      tag_115\n        /* \"contracts/token/ERC20.sol\":2657:2697  _transfer(msg.sender, recipient, amount) */\n      jump\t// in\n        /* \"contracts/token/ERC20.sol\":576:597  string public _symbol */\n    tag_86:\n      0x04\n      dup1\n      sload\n      tag_142\n      swap1\n      tag_104\n      jump\t// in\n    tag_142:\n      dup1\n      0x1f\n      add\n      0x20\n      dup1\n      swap2\n      div\n      mul\n      0x20\n      add\n      mload(0x40)\n      swap1\n      dup2\n      add\n      0x40\n      mstore\n      dup1\n      swap3\n      swap2\n      swap1\n      dup2\n      dup2\n      mstore\n      0x20\n      add\n      dup3\n      dup1\n      sload\n      tag_143\n      swap1\n      tag_104\n      jump\t// in\n    tag_143:\n      dup1\n      iszero\n      tag_144\n      jumpi\n      dup1\n      0x1f\n      lt\n      tag_145\n      jumpi\n      0x0100\n      dup1\n      dup4\n      sload\n      div\n      mul\n      dup4\n      mstore\n      swap2\n      0x20\n      add\n      swap2\n      jump(tag_144)\n    tag_145:\n      dup3\n      add\n      swap2\n      swap1\n      0x00\n      mstore\n      keccak256(0x00, 0x20)\n      swap1\n    tag_146:\n      dup2\n      sload\n      dup2\n      mstore\n      swap1\n      0x01\n      add\n      swap1\n      0x20\n      add\n      dup1\n      dup4\n      gt\n      tag_146\n      jumpi\n      dup3\n      swap1\n      sub\n      0x1f\n      and\n      dup3\n      add\n      swap2\n    tag_144:\n      pop\n      pop\n      pop\n      pop\n      pop\n      dup2\n      jump\t// out\n        /* \"contracts/token/ERC20.sol\":551:570  string public _name */\n    tag_90:\n      0x03\n      dup1\n      sload\n      tag_142\n      swap1\n      tag_104\n      jump\t// in\n        /* \"@openzeppelin/contracts/access/Ownable.sol\":2081:2279  function transferOwnership(address newOwner) public virtual onlyOwner {... */\n    tag_101:\n        /* \"@openzeppelin/contracts/access/Ownable.sol\":1094:1107  _checkOwner() */\n      tag_154\n        /* \"@openzeppelin/contracts/access/Ownable.sol\":1094:1105  _checkOwner */\n      tag_126\n        /* \"@openzeppelin/contracts/access/Ownable.sol\":1094:1107  _checkOwner() */\n      jump\t// in\n    tag_154:\n      sub(shl(0xa0, 0x01), 0x01)\n        /* \"@openzeppelin/contracts/access/Ownable.sol\":2169:2191  newOwner != address(0) */\n      dup2\n      and\n        /* \"@openzeppelin/contracts/access/Ownable.sol\":2161:2234  require(newOwner != address(0), \"Ownable: new owner is the zero address\") */\n      tag_156\n      jumpi\n      mload(0x40)\n      shl(0xe5, 0x461bcd)\n      dup2\n      mstore\n        /* \"#utility.yul\":3430:3432   */\n      0x20\n        /* \"@openzeppelin/contracts/access/Ownable.sol\":2161:2234  require(newOwner != address(0), \"Ownable: new owner is the zero address\") */\n      0x04\n      dup3\n      add\n        /* \"#utility.yul\":3412:3433   */\n      mstore\n        /* \"#utility.yul\":3469:3471   */\n      0x26\n        /* \"#utility.yul\":3449:3467   */\n      0x24\n      dup3\n      add\n        /* \"#utility.yul\":3442:3472   */\n      mstore\n        /* \"#utility.yul\":3508:3542   */\n      0x4f776e61626c653a206e6577206f776e657220697320746865207a65726f2061\n        /* \"#utility.yul\":3488:3506   */\n      0x44\n      dup3\n      add\n        /* \"#utility.yul\":3481:3543   */\n      mstore\n      shl(0xd0, 0x646472657373)\n        /* \"#utility.yul\":3559:3577   */\n      0x64\n      dup3\n      add\n        /* \"#utility.yul\":3552:3588   */\n      mstore\n        /* \"#utility.yul\":3605:3624   */\n      0x84\n      add\n        /* \"@openzeppelin/contracts/access/Ownable.sol\":2161:2234  require(newOwner != address(0), \"Ownable: new owner is the zero address\") */\n    tag_157:\n      mload(0x40)\n      dup1\n      swap2\n      sub\n      swap1\n      revert\n    tag_156:\n        /* \"@openzeppelin/contracts/access/Ownable.sol\":2244:2272  _transferOwnership(newOwner) */\n      tag_159\n        /* \"@openzeppelin/contracts/access/Ownable.sol\":2263:2271  newOwner */\n      dup2\n        /* \"@openzeppelin/contracts/access/Ownable.sol\":2244:2262  _transferOwnership */\n      tag_129\n        /* \"@openzeppelin/contracts/access/Ownable.sol\":2244:2272  _transferOwnership(newOwner) */\n      jump\t// in\n    tag_159:\n        /* \"@openzeppelin/contracts/access/Ownable.sol\":2081:2279  function transferOwnership(address newOwner) public virtual onlyOwner {... */\n      pop\n      jump\t// out\n        /* \"contracts/token/ERC20.sol\":8768:9060  function _approve(... */\n    tag_111:\n      sub(shl(0xa0, 0x01), 0x01)\n        /* \"contracts/token/ERC20.sol\":8899:8918  owner != address(0) */\n      dup4\n      and\n        /* \"contracts/token/ERC20.sol\":8891:8919  require(owner != address(0)) */\n      tag_161\n      jumpi\n      0x00\n      dup1\n      revert\n    tag_161:\n      sub(shl(0xa0, 0x01), 0x01)\n        /* \"contracts/token/ERC20.sol\":8937:8958  spender != address(0) */\n      dup3\n      and\n        /* \"contracts/token/ERC20.sol\":8929:8959  require(spender != address(0)) */\n      tag_162\n      jumpi\n      0x00\n      dup1\n      revert\n    tag_162:\n      sub(shl(0xa0, 0x01), 0x01)\n        /* \"contracts/token/ERC20.sol\":8970:8988  _allowances[owner] */\n      dup4\n      dup2\n      and\n      0x00\n      dup2\n      dup2\n      mstore\n        /* \"contracts/token/ERC20.sol\":8970:8981  _allowances */\n      0x01\n        /* \"contracts/token/ERC20.sol\":8970:8988  _allowances[owner] */\n      0x20\n      swap1\n      dup2\n      mstore\n      0x40\n      dup1\n      dup4\n      keccak256\n        /* \"contracts/token/ERC20.sol\":8970:8997  _allowances[owner][spender] */\n      swap5\n      dup8\n      and\n      dup1\n      dup5\n      mstore\n      swap5\n      dup3\n      mstore\n      swap2\n      dup3\n      swap1\n      keccak256\n        /* \"contracts/token/ERC20.sol\":8970:9006  _allowances[owner][spender] = amount */\n      dup6\n      swap1\n      sstore\n        /* \"contracts/token/ERC20.sol\":9021:9053  Approval(owner, spender, amount) */\n      swap1\n      mload\n        /* \"#utility.yul\":1391:1416   */\n      dup5\n      dup2\n      mstore\n        /* \"contracts/token/ERC20.sol\":9021:9053  Approval(owner, spender, amount) */\n      0x8c5be1e5ebec7d5bd14f71427d1e84f3dd0314c0f7b2291e5b200ac8c7c3b925\n      swap2\n        /* \"#utility.yul\":1364:1382   */\n      add\n        /* \"contracts/token/ERC20.sol\":9021:9053  Approval(owner, spender, amount) */\n      mload(0x40)\n      dup1\n      swap2\n      sub\n      swap1\n      log3\n        /* \"contracts/token/ERC20.sol\":8768:9060  function _approve(... */\n      pop\n      pop\n      pop\n      jump\t// out\n        /* \"contracts/token/ERC20.sol\":6281:6894  function _transfer(... */\n    tag_115:\n      sub(shl(0xa0, 0x01), 0x01)\n        /* \"contracts/token/ERC20.sol\":6416:6436  sender != address(0) */\n      dup4\n      and\n        /* \"contracts/token/ERC20.sol\":6408:6437  require(sender != address(0)) */\n      tag_165\n      jumpi\n      0x00\n      dup1\n      revert\n    tag_165:\n      sub(shl(0xa0, 0x01), 0x01)\n        /* \"contracts/token/ERC20.sol\":6455:6478  recipient != address(0) */\n      dup3\n      and\n        /* \"contracts/token/ERC20.sol\":6447:6479  require(recipient != address(0)) */\n      tag_166\n      jumpi\n      0x00\n      dup1\n      revert\n    tag_166:\n      sub(shl(0xa0, 0x01), 0x01)\n        /* \"contracts/token/ERC20.sol\":6572:6589  _balances[sender] */\n      dup4\n      and\n        /* \"contracts/token/ERC20.sol\":6548:6569  uint256 senderBalance */\n      0x00\n        /* \"contracts/token/ERC20.sol\":6572:6589  _balances[sender] */\n      swap1\n      dup2\n      mstore\n      0x20\n      dup2\n      swap1\n      mstore\n      0x40\n      swap1\n      keccak256\n      sload\n        /* \"contracts/token/ERC20.sol\":6620:6643  senderBalance >= amount */\n      dup2\n      dup2\n      lt\n      iszero\n        /* \"contracts/token/ERC20.sol\":6599:6653  require(... */\n      tag_169\n      jumpi\n      0x00\n      dup1\n      revert\n    tag_169:\n      sub(shl(0xa0, 0x01), 0x01)\n        /* \"contracts/token/ERC20.sol\":6687:6704  _balances[sender] */\n      dup1\n      dup6\n      and\n        /* \"contracts/token/ERC20.sol\":6687:6696  _balances */\n      0x00\n        /* \"contracts/token/ERC20.sol\":6687:6704  _balances[sender] */\n      swap1\n      dup2\n      mstore\n      0x20\n      dup2\n      swap1\n      mstore\n      0x40\n      dup1\n      dup3\n      keccak256\n        /* \"contracts/token/ERC20.sol\":6707:6729  senderBalance - amount */\n      dup6\n      dup6\n      sub\n        /* \"contracts/token/ERC20.sol\":6687:6729  _balances[sender] = senderBalance - amount */\n      swap1\n      sstore\n        /* \"contracts/token/ERC20.sol\":6749:6769  _balances[recipient] */\n      swap2\n      dup6\n      and\n      dup2\n      mstore\n      swap1\n      dup2\n      keccak256\n        /* \"contracts/token/ERC20.sol\":6749:6779  _balances[recipient] += amount */\n      dup1\n      sload\n        /* \"contracts/token/ERC20.sol\":6723:6729  amount */\n      dup5\n      swap3\n        /* \"contracts/token/ERC20.sol\":6687:6696  _balances */\n      swap1\n        /* \"contracts/token/ERC20.sol\":6749:6779  _balances[recipient] += amount */\n      tag_170\n      swap1\n        /* \"contracts/token/ERC20.sol\":6723:6729  amount */\n      dup5\n      swap1\n        /* \"contracts/token/ERC20.sol\":6749:6779  _balances[recipient] += amount */\n      tag_122\n      jump\t// in\n    tag_170:\n      swap3\n      pop\n      pop\n      dup2\n      swap1\n      sstore\n      pop\n        /* \"contracts/token/ERC20.sol\":6812:6821  recipient */\n      dup3\n      sub(shl(0xa0, 0x01), 0x01)\n        /* \"contracts/token/ERC20.sol\":6795:6830  Transfer(sender, recipient, amount) */\n      and\n        /* \"contracts/token/ERC20.sol\":6804:6810  sender */\n      dup5\n      sub(shl(0xa0, 0x01), 0x01)\n        /* \"contracts/token/ERC20.sol\":6795:6830  Transfer(sender, recipient, amount) */\n      and\n      0xddf252ad1be2c89b69c2b068fc378daa952ba7f163c4a11628f55a4df523b3ef\n        /* \"contracts/token/ERC20.sol\":6823:6829  amount */\n      dup5\n        /* \"contracts/token/ERC20.sol\":6795:6830  Transfer(sender, recipient, amount) */\n      mload(0x40)\n      tag_171\n      swap2\n        /* \"#utility.yul\":1391:1416   */\n      dup2\n      mstore\n        /* \"#utility.yul\":1379:1381   */\n      0x20\n        /* \"#utility.yul\":1364:1382   */\n      add\n      swap1\n        /* \"#utility.yul\":1245:1422   */\n      jump\n        /* \"contracts/token/ERC20.sol\":6795:6830  Transfer(sender, recipient, amount) */\n    tag_171:\n      mload(0x40)\n      dup1\n      swap2\n      sub\n      swap1\n      log3\n        /* \"contracts/token/ERC20.sol\":6398:6894  {... */\n      pop\n        /* \"contracts/token/ERC20.sol\":6281:6894  function _transfer(... */\n      pop\n      pop\n      pop\n      jump\t// out\n        /* \"@openzeppelin/contracts/access/Ownable.sol\":1359:1489  function _checkOwner() internal view virtual {... */\n    tag_126:\n        /* \"@openzeppelin/contracts/access/Ownable.sol\":1273:1279  _owner */\n      and(sub(shl(0xa0, 0x01), 0x01), sload(0x05))\n        /* \"@openzeppelin/contracts/utils/Context.sol\":719:729  msg.sender */\n      caller\n        /* \"@openzeppelin/contracts/access/Ownable.sol\":1422:1445  owner() == _msgSender() */\n      eq\n        /* \"@openzeppelin/contracts/access/Ownable.sol\":1414:1482  require(owner() == _msgSender(), \"Ownable: caller is not the owner\") */\n      tag_128\n      jumpi\n      mload(0x40)\n      shl(0xe5, 0x461bcd)\n      dup2\n      mstore\n        /* \"#utility.yul\":3837:3839   */\n      0x20\n        /* \"@openzeppelin/contracts/access/Ownable.sol\":1414:1482  require(owner() == _msgSender(), \"Ownable: caller is not the owner\") */\n      0x04\n      dup3\n      add\n        /* \"#utility.yul\":3819:3840   */\n      dup2\n      swap1\n      mstore\n        /* \"#utility.yul\":3856:3874   */\n      0x24\n      dup3\n      add\n        /* \"#utility.yul\":3849:3879   */\n      mstore\n        /* \"#utility.yul\":3915:3949   */\n      0x4f776e61626c653a2063616c6c6572206973206e6f7420746865206f776e6572\n        /* \"#utility.yul\":3895:3913   */\n      0x44\n      dup3\n      add\n        /* \"#utility.yul\":3888:3950   */\n      mstore\n        /* \"#utility.yul\":3967:3985   */\n      0x64\n      add\n        /* \"@openzeppelin/contracts/access/Ownable.sol\":1414:1482  require(owner() == _msgSender(), \"Ownable: caller is not the owner\") */\n      tag_157\n        /* \"#utility.yul\":3635:3991   */\n      jump\n        /* \"@openzeppelin/contracts/access/Ownable.sol\":2433:2620  function _transferOwnership(address newOwner) internal virtual {... */\n    tag_129:\n        /* \"@openzeppelin/contracts/access/Ownable.sol\":2525:2531  _owner */\n      0x05\n      dup1\n      sload\n      sub(shl(0xa0, 0x01), 0x01)\n        /* \"@openzeppelin/contracts/access/Ownable.sol\":2541:2558  _owner = newOwner */\n      dup4\n      dup2\n      and\n      not(sub(shl(0xa0, 0x01), 0x01))\n      dup4\n      and\n      dup2\n      or\n      swap1\n      swap4\n      sstore\n        /* \"@openzeppelin/contracts/access/Ownable.sol\":2573:2613  OwnershipTransferred(oldOwner, newOwner) */\n      mload(0x40)\n        /* \"@openzeppelin/contracts/access/Ownable.sol\":2525:2531  _owner */\n      swap2\n      and\n      swap2\n        /* \"@openzeppelin/contracts/access/Ownable.sol\":2541:2558  _owner = newOwner */\n      swap1\n        /* \"@openzeppelin/contracts/access/Ownable.sol\":2525:2531  _owner */\n      dup3\n      swap1\n        /* \"@openzeppelin/contracts/access/Ownable.sol\":2573:2613  OwnershipTransferred(oldOwner, newOwner) */\n      0x8be0079c531659141344cd1fd0a4f28419497f9722a3daafe3b4186f6b6457e0\n      swap1\n        /* \"@openzeppelin/contracts/access/Ownable.sol\":2506:2522  address oldOwner */\n      0x00\n      swap1\n        /* \"@openzeppelin/contracts/access/Ownable.sol\":2573:2613  OwnershipTransferred(oldOwner, newOwner) */\n      log3\n        /* \"@openzeppelin/contracts/access/Ownable.sol\":2496:2620  {... */\n      pop\n        /* \"@openzeppelin/contracts/access/Ownable.sol\":2433:2620  function _transferOwnership(address newOwner) internal virtual {... */\n      pop\n      jump\t// out\n        /* \"#utility.yul\":14:611   */\n    tag_27:\n        /* \"#utility.yul\":126:130   */\n      0x00\n        /* \"#utility.yul\":155:157   */\n      0x20\n        /* \"#utility.yul\":184:186   */\n      dup1\n        /* \"#utility.yul\":173:182   */\n      dup4\n        /* \"#utility.yul\":166:187   */\n      mstore\n        /* \"#utility.yul\":216:222   */\n      dup4\n        /* \"#utility.yul\":210:223   */\n      mload\n        /* \"#utility.yul\":259:265   */\n      dup1\n        /* \"#utility.yul\":254:256   */\n      dup3\n        /* \"#utility.yul\":243:252   */\n      dup6\n        /* \"#utility.yul\":239:257   */\n      add\n        /* \"#utility.yul\":232:266   */\n      mstore\n        /* \"#utility.yul\":284:285   */\n      0x00\n        /* \"#utility.yul\":294:434   */\n    tag_188:\n        /* \"#utility.yul\":308:314   */\n      dup2\n        /* \"#utility.yul\":305:306   */\n      dup2\n        /* \"#utility.yul\":302:315   */\n      lt\n        /* \"#utility.yul\":294:434   */\n      iszero\n      tag_190\n      jumpi\n        /* \"#utility.yul\":403:417   */\n      dup6\n      dup2\n      add\n        /* \"#utility.yul\":399:422   */\n      dup4\n      add\n        /* \"#utility.yul\":393:423   */\n      mload\n        /* \"#utility.yul\":369:386   */\n      dup6\n      dup3\n      add\n        /* \"#utility.yul\":388:390   */\n      0x40\n        /* \"#utility.yul\":365:391   */\n      add\n        /* \"#utility.yul\":358:424   */\n      mstore\n        /* \"#utility.yul\":323:333   */\n      dup3\n      add\n        /* \"#utility.yul\":294:434   */\n      jump(tag_188)\n    tag_190:\n        /* \"#utility.yul\":452:458   */\n      dup2\n        /* \"#utility.yul\":449:450   */\n      dup2\n        /* \"#utility.yul\":446:459   */\n      gt\n        /* \"#utility.yul\":443:534   */\n      iszero\n      tag_191\n      jumpi\n        /* \"#utility.yul\":522:523   */\n      0x00\n        /* \"#utility.yul\":517:519   */\n      0x40\n        /* \"#utility.yul\":508:514   */\n      dup4\n        /* \"#utility.yul\":497:506   */\n      dup8\n        /* \"#utility.yul\":493:515   */\n      add\n        /* \"#utility.yul\":489:520   */\n      add\n        /* \"#utility.yul\":482:524   */\n      mstore\n        /* \"#utility.yul\":443:534   */\n    tag_191:\n      pop\n        /* \"#utility.yul\":595:597   */\n      0x1f\n        /* \"#utility.yul\":574:589   */\n      add\n      not(0x1f)\n        /* \"#utility.yul\":570:599   */\n      and\n        /* \"#utility.yul\":555:600   */\n      swap3\n      swap1\n      swap3\n      add\n        /* \"#utility.yul\":602:604   */\n      0x40\n        /* \"#utility.yul\":551:605   */\n      add\n      swap4\n        /* \"#utility.yul\":14:611   */\n      swap3\n      pop\n      pop\n      pop\n      jump\t// out\n        /* \"#utility.yul\":616:789   */\n    tag_185:\n        /* \"#utility.yul\":684:704   */\n      dup1\n      calldataload\n      sub(shl(0xa0, 0x01), 0x01)\n        /* \"#utility.yul\":733:764   */\n      dup2\n      and\n        /* \"#utility.yul\":723:765   */\n      dup2\n      eq\n        /* \"#utility.yul\":713:783   */\n      tag_193\n      jumpi\n        /* \"#utility.yul\":779:780   */\n      0x00\n        /* \"#utility.yul\":776:777   */\n      dup1\n        /* \"#utility.yul\":769:781   */\n      revert\n        /* \"#utility.yul\":713:783   */\n    tag_193:\n        /* \"#utility.yul\":616:789   */\n      swap2\n      swap1\n      pop\n      jump\t// out\n        /* \"#utility.yul\":794:1048   */\n    tag_31:\n        /* \"#utility.yul\":862:868   */\n      0x00\n        /* \"#utility.yul\":870:876   */\n      dup1\n        /* \"#utility.yul\":923:925   */\n      0x40\n        /* \"#utility.yul\":911:920   */\n      dup4\n        /* \"#utility.yul\":902:909   */\n      dup6\n        /* \"#utility.yul\":898:921   */\n      sub\n        /* \"#utility.yul\":894:926   */\n      slt\n        /* \"#utility.yul\":891:943   */\n      iszero\n      tag_195\n      jumpi\n        /* \"#utility.yul\":939:940   */\n      0x00\n        /* \"#utility.yul\":936:937   */\n      dup1\n        /* \"#utility.yul\":929:941   */\n      revert\n        /* \"#utility.yul\":891:943   */\n    tag_195:\n        /* \"#utility.yul\":962:991   */\n      tag_196\n        /* \"#utility.yul\":981:990   */\n      dup4\n        /* \"#utility.yul\":962:991   */\n      tag_185\n      jump\t// in\n    tag_196:\n        /* \"#utility.yul\":952:991   */\n      swap5\n        /* \"#utility.yul\":1038:1040   */\n      0x20\n        /* \"#utility.yul\":1023:1041   */\n      swap4\n      swap1\n      swap4\n      add\n        /* \"#utility.yul\":1010:1042   */\n      calldataload\n      swap4\n      pop\n      pop\n      pop\n        /* \"#utility.yul\":794:1048   */\n      jump\t// out\n        /* \"#utility.yul\":1427:1755   */\n    tag_43:\n        /* \"#utility.yul\":1504:1510   */\n      0x00\n        /* \"#utility.yul\":1512:1518   */\n      dup1\n        /* \"#utility.yul\":1520:1526   */\n      0x00\n        /* \"#utility.yul\":1573:1575   */\n      0x60\n        /* \"#utility.yul\":1561:1570   */\n      dup5\n        /* \"#utility.yul\":1552:1559   */\n      dup7\n        /* \"#utility.yul\":1548:1571   */\n      sub\n        /* \"#utility.yul\":1544:1576   */\n      slt\n        /* \"#utility.yul\":1541:1593   */\n      iszero\n      tag_200\n      jumpi\n        /* \"#utility.yul\":1589:1590   */\n      0x00\n        /* \"#utility.yul\":1586:1587   */\n      dup1\n        /* \"#utility.yul\":1579:1591   */\n      revert\n        /* \"#utility.yul\":1541:1593   */\n    tag_200:\n        /* \"#utility.yul\":1612:1641   */\n      tag_201\n        /* \"#utility.yul\":1631:1640   */\n      dup5\n        /* \"#utility.yul\":1612:1641   */\n      tag_185\n      jump\t// in\n    tag_201:\n        /* \"#utility.yul\":1602:1641   */\n      swap3\n      pop\n        /* \"#utility.yul\":1660:1698   */\n      tag_202\n        /* \"#utility.yul\":1694:1696   */\n      0x20\n        /* \"#utility.yul\":1683:1692   */\n      dup6\n        /* \"#utility.yul\":1679:1697   */\n      add\n        /* \"#utility.yul\":1660:1698   */\n      tag_185\n      jump\t// in\n    tag_202:\n        /* \"#utility.yul\":1650:1698   */\n      swap2\n      pop\n        /* \"#utility.yul\":1745:1747   */\n      0x40\n        /* \"#utility.yul\":1734:1743   */\n      dup5\n        /* \"#utility.yul\":1730:1748   */\n      add\n        /* \"#utility.yul\":1717:1749   */\n      calldataload\n        /* \"#utility.yul\":1707:1749   */\n      swap1\n      pop\n        /* \"#utility.yul\":1427:1755   */\n      swap3\n      pop\n      swap3\n      pop\n      swap3\n      jump\t// out\n        /* \"#utility.yul\":1949:2135   */\n    tag_59:\n        /* \"#utility.yul\":2008:2014   */\n      0x00\n        /* \"#utility.yul\":2061:2063   */\n      0x20\n        /* \"#utility.yul\":2049:2058   */\n      dup3\n        /* \"#utility.yul\":2040:2047   */\n      dup5\n        /* \"#utility.yul\":2036:2059   */\n      sub\n        /* \"#utility.yul\":2032:2064   */\n      slt\n        /* \"#utility.yul\":2029:2081   */\n      iszero\n      tag_205\n      jumpi\n        /* \"#utility.yul\":2077:2078   */\n      0x00\n        /* \"#utility.yul\":2074:2075   */\n      dup1\n        /* \"#utility.yul\":2067:2079   */\n      revert\n        /* \"#utility.yul\":2029:2081   */\n    tag_205:\n        /* \"#utility.yul\":2100:2129   */\n      tag_206\n        /* \"#utility.yul\":2119:2128   */\n      dup3\n        /* \"#utility.yul\":2100:2129   */\n      tag_185\n      jump\t// in\n    tag_206:\n        /* \"#utility.yul\":2090:2129   */\n      swap4\n        /* \"#utility.yul\":1949:2135   */\n      swap3\n      pop\n      pop\n      pop\n      jump\t// out\n        /* \"#utility.yul\":2348:2608   */\n    tag_95:\n        /* \"#utility.yul\":2416:2422   */\n      0x00\n        /* \"#utility.yul\":2424:2430   */\n      dup1\n        /* \"#utility.yul\":2477:2479   */\n      0x40\n        /* \"#utility.yul\":2465:2474   */\n      dup4\n        /* \"#utility.yul\":2456:2463   */\n      dup6\n        /* \"#utility.yul\":2452:2475   */\n      sub\n        /* \"#utility.yul\":2448:2480   */\n      slt\n        /* \"#utility.yul\":2445:2497   */\n      iszero\n      tag_209\n      jumpi\n        /* \"#utility.yul\":2493:2494   */\n      0x00\n        /* \"#utility.yul\":2490:2491   */\n      dup1\n        /* \"#utility.yul\":2483:2495   */\n      revert\n        /* \"#utility.yul\":2445:2497   */\n    tag_209:\n        /* \"#utility.yul\":2516:2545   */\n      tag_210\n        /* \"#utility.yul\":2535:2544   */\n      dup4\n        /* \"#utility.yul\":2516:2545   */\n      tag_185\n      jump\t// in\n    tag_210:\n        /* \"#utility.yul\":2506:2545   */\n      swap2\n      pop\n        /* \"#utility.yul\":2564:2602   */\n      tag_211\n        /* \"#utility.yul\":2598:2600   */\n      0x20\n        /* \"#utility.yul\":2587:2596   */\n      dup5\n        /* \"#utility.yul\":2583:2601   */\n      add\n        /* \"#utility.yul\":2564:2602   */\n      tag_185\n      jump\t// in\n    tag_211:\n        /* \"#utility.yul\":2554:2602   */\n      swap1\n      pop\n        /* \"#utility.yul\":2348:2608   */\n      swap3\n      pop\n      swap3\n      swap1\n      pop\n      jump\t// out\n        /* \"#utility.yul\":2613:2993   */\n    tag_104:\n        /* \"#utility.yul\":2692:2693   */\n      0x01\n        /* \"#utility.yul\":2688:2700   */\n      dup2\n      dup2\n      shr\n      swap1\n        /* \"#utility.yul\":2735:2747   */\n      dup3\n      and\n      dup1\n        /* \"#utility.yul\":2756:2817   */\n      tag_213\n      jumpi\n        /* \"#utility.yul\":2810:2814   */\n      0x7f\n        /* \"#utility.yul\":2802:2808   */\n      dup3\n        /* \"#utility.yul\":2798:2815   */\n      and\n        /* \"#utility.yul\":2788:2815   */\n      swap2\n      pop\n        /* \"#utility.yul\":2756:2817   */\n    tag_213:\n        /* \"#utility.yul\":2863:2865   */\n      0x20\n        /* \"#utility.yul\":2855:2861   */\n      dup3\n        /* \"#utility.yul\":2852:2866   */\n      lt\n        /* \"#utility.yul\":2832:2850   */\n      dup2\n        /* \"#utility.yul\":2829:2867   */\n      sub\n        /* \"#utility.yul\":2826:2987   */\n      tag_214\n      jumpi\n        /* \"#utility.yul\":2909:2919   */\n      0x4e487b71\n        /* \"#utility.yul\":2904:2907   */\n      0xe0\n        /* \"#utility.yul\":2900:2920   */\n      shl\n        /* \"#utility.yul\":2897:2898   */\n      0x00\n        /* \"#utility.yul\":2890:2921   */\n      mstore\n        /* \"#utility.yul\":2944:2948   */\n      0x22\n        /* \"#utility.yul\":2941:2942   */\n      0x04\n        /* \"#utility.yul\":2934:2949   */\n      mstore\n        /* \"#utility.yul\":2972:2976   */\n      0x24\n        /* \"#utility.yul\":2969:2970   */\n      0x00\n        /* \"#utility.yul\":2962:2977   */\n      revert\n        /* \"#utility.yul\":2826:2987   */\n    tag_214:\n      pop\n        /* \"#utility.yul\":2613:2993   */\n      swap2\n      swap1\n      pop\n      jump\t// out\n        /* \"#utility.yul\":2998:3223   */\n    tag_122:\n        /* \"#utility.yul\":3038:3041   */\n      0x00\n        /* \"#utility.yul\":3069:3070   */\n      dup3\n        /* \"#utility.yul\":3065:3071   */\n      not\n        /* \"#utility.yul\":3062:3063   */\n      dup3\n        /* \"#utility.yul\":3059:3072   */\n      gt\n        /* \"#utility.yul\":3056:3192   */\n      iszero\n      tag_216\n      jumpi\n        /* \"#utility.yul\":3114:3124   */\n      0x4e487b71\n        /* \"#utility.yul\":3109:3112   */\n      0xe0\n        /* \"#utility.yul\":3105:3125   */\n      shl\n        /* \"#utility.yul\":3102:3103   */\n      0x00\n        /* \"#utility.yul\":3095:3126   */\n      mstore\n        /* \"#utility.yul\":3149:3153   */\n      0x11\n        /* \"#utility.yul\":3146:3147   */\n      0x04\n        /* \"#utility.yul\":3139:3154   */\n      mstore\n        /* \"#utility.yul\":3177:3181   */\n      0x24\n        /* \"#utility.yul\":3174:3175   */\n      0x00\n        /* \"#utility.yul\":3167:3182   */\n      revert\n        /* \"#utility.yul\":3056:3192   */\n    tag_216:\n      pop\n        /* \"#utility.yul\":3208:3217   */\n      add\n      swap1\n        /* \"#utility.yul\":2998:3223   */\n      jump\t// out\n\n    auxdata: 0xa2646970667358221220dadd407c65f2ac480bd3854b346be9fc0a64862e89dd51920bc667d47a94511664736f6c634300080d0033\n}\n",
				"bytecode": {
					"linkReferences": {},
					"object": "60806040523480156200001157600080fd5b5060405162000eea38038062000eea83398101604081905262000034916200042c565b8351849084906200004d906003906020850190620002b9565b50805162000063906004906020840190620002b9565b505050620000806200007a620000f260201b60201c565b620000f6565b835162000095906003906020870190620002b9565b508251620000ab906004906020860190620002b9565b50620000b8828262000137565b620000c382620001d8565b6040516001600160a01b0383169060009060008051602062000eca833981519152908290a35050505062000522565b3390565b600580546001600160a01b038381166001600160a01b03198316811790935560405191169190829060008051602062000eca83398151915290600090a35050565b6001600160a01b0382166200014b57600080fd5b80600260008282546200015f9190620004bf565b90915550506001600160a01b038216600090815260208190526040812080548392906200018e908490620004bf565b90915550506040518181526001600160a01b038316906000907fddf252ad1be2c89b69c2b068fc378daa952ba7f163c4a11628f55a4df523b3ef9060200160405180910390a35050565b620001e26200025b565b6001600160a01b0381166200024d5760405162461bcd60e51b815260206004820152602660248201527f4f776e61626c653a206e6577206f776e657220697320746865207a65726f206160448201526564647265737360d01b60648201526084015b60405180910390fd5b6200025881620000f6565b50565b6005546001600160a01b03163314620002b75760405162461bcd60e51b815260206004820181905260248201527f4f776e61626c653a2063616c6c6572206973206e6f7420746865206f776e6572604482015260640162000244565b565b828054620002c790620004e6565b90600052602060002090601f016020900481019282620002eb576000855562000336565b82601f106200030657805160ff191683800117855562000336565b8280016001018555821562000336579182015b828111156200033657825182559160200191906001019062000319565b506200034492915062000348565b5090565b5b8082111562000344576000815560010162000349565b634e487b7160e01b600052604160045260246000fd5b600082601f8301126200038757600080fd5b81516001600160401b0380821115620003a457620003a46200035f565b604051601f8301601f19908116603f01168101908282118183101715620003cf57620003cf6200035f565b81604052838152602092508683858801011115620003ec57600080fd5b600091505b83821015620004105785820183015181830184015290820190620003f1565b83821115620004225760008385830101525b9695505050505050565b600080600080608085870312156200044357600080fd5b84516001600160401b03808211156200045b57600080fd5b620004698883890162000375565b955060208701519150808211156200048057600080fd5b506200048f8782880162000375565b604087015190945090506001600160a01b0381168114620004af57600080fd5b6060959095015193969295505050565b60008219821115620004e157634e487b7160e01b600052601160045260246000fd5b500190565b600181811c90821680620004fb57607f821691505b6020821081036200051c57634e487b7160e01b600052602260045260246000fd5b50919050565b61099880620005326000396000f3fe6080604052600436106100c45760003560e01c806306fdde03146100cd578063095ea7b3146100f857806318160ddd1461012857806323b872dd14610147578063313ce56714610167578063395093511461018357806370a08231146101a3578063715018a6146101d95780638da5cb5b146101ee57806395d89b4114610216578063a457c2d71461022b578063a9059cbb1461024b578063b09f12661461026b578063d28d885214610280578063dd62ed3e14610295578063f2fde38b146102db57005b366100cb57005b005b3480156100d957600080fd5b506100e26102fb565b6040516100ef91906107d6565b60405180910390f35b34801561010457600080fd5b50610118610113366004610847565b61038d565b60405190151581526020016100ef565b34801561013457600080fd5b506002545b6040519081526020016100ef565b34801561015357600080fd5b50610118610162366004610871565b6103a3565b34801561017357600080fd5b50604051601281526020016100ef565b34801561018f57600080fd5b5061011861019e366004610847565b6103f9565b3480156101af57600080fd5b506101396101be3660046108ad565b6001600160a01b031660009081526020819052604090205490565b3480156101e557600080fd5b506100cb610435565b3480156101fa57600080fd5b506005546040516001600160a01b0390911681526020016100ef565b34801561022257600080fd5b506100e2610449565b34801561023757600080fd5b50610118610246366004610847565b610458565b34801561025757600080fd5b50610118610266366004610847565b6104a0565b34801561027757600080fd5b506100e26104ad565b34801561028c57600080fd5b506100e261053b565b3480156102a157600080fd5b506101396102b03660046108cf565b6001600160a01b03918216600090815260016020908152604080832093909416825291909152205490565b3480156102e757600080fd5b506100cb6102f63660046108ad565b610548565b60606003805461030a90610902565b80601f016020809104026020016040519081016040528092919081815260200182805461033690610902565b80156103835780601f1061035857610100808354040283529160200191610383565b820191906000526020600020905b81548152906001019060200180831161036657829003601f168201915b5050505050905090565b600061039a3384846105c6565b50600192915050565b60006103b084848461064d565b6001600160a01b0384166000908152600160209081526040808320338452909152902054828110156103e157600080fd5b6103ee85338584036105c6565b506001949350505050565b3360008181526001602090815260408083206001600160a01b0387168452909152812054909161039a91859061043090869061093c565b6105c6565b61043d61072a565b6104476000610784565b565b60606004805461030a90610902565b3360009081526001602090815260408083206001600160a01b03861684529091528120548281101561048957600080fd5b61049633858584036105c6565b5060019392505050565b600061039a33848461064d565b600480546104ba90610902565b80601f01602080910402602001604051908101604052809291908181526020018280546104e690610902565b80156105335780601f1061050857610100808354040283529160200191610533565b820191906000526020600020905b81548152906001019060200180831161051657829003601f168201915b505050505081565b600380546104ba90610902565b61055061072a565b6001600160a01b0381166105ba5760405162461bcd60e51b815260206004820152602660248201527f4f776e61626c653a206e6577206f776e657220697320746865207a65726f206160448201526564647265737360d01b60648201526084015b60405180910390fd5b6105c381610784565b50565b6001600160a01b0383166105d957600080fd5b6001600160a01b0382166105ec57600080fd5b6001600160a01b0383811660008181526001602090815260408083209487168084529482529182902085905590518481527f8c5be1e5ebec7d5bd14f71427d1e84f3dd0314c0f7b2291e5b200ac8c7c3b925910160405180910390a3505050565b6001600160a01b03831661066057600080fd5b6001600160a01b03821661067357600080fd5b6001600160a01b0383166000908152602081905260409020548181101561069957600080fd5b6001600160a01b038085166000908152602081905260408082208585039055918516815290812080548492906106d090849061093c565b92505081905550826001600160a01b0316846001600160a01b03167fddf252ad1be2c89b69c2b068fc378daa952ba7f163c4a11628f55a4df523b3ef8460405161071c91815260200190565b60405180910390a350505050565b6005546001600160a01b031633146104475760405162461bcd60e51b815260206004820181905260248201527f4f776e61626c653a2063616c6c6572206973206e6f7420746865206f776e657260448201526064016105b1565b600580546001600160a01b038381166001600160a01b0319831681179093556040519116919082907f8be0079c531659141344cd1fd0a4f28419497f9722a3daafe3b4186f6b6457e090600090a35050565b600060208083528351808285015260005b81811015610803578581018301518582016040015282016107e7565b81811115610815576000604083870101525b50601f01601f1916929092016040019392505050565b80356001600160a01b038116811461084257600080fd5b919050565b6000806040838503121561085a57600080fd5b6108638361082b565b946020939093013593505050565b60008060006060848603121561088657600080fd5b61088f8461082b565b925061089d6020850161082b565b9150604084013590509250925092565b6000602082840312156108bf57600080fd5b6108c88261082b565b9392505050565b600080604083850312156108e257600080fd5b6108eb8361082b565b91506108f96020840161082b565b90509250929050565b600181811c9082168061091657607f821691505b60208210810361093657634e487b7160e01b600052602260045260246000fd5b50919050565b6000821982111561095d57634e487b7160e01b600052601160045260246000fd5b50019056fea2646970667358221220dadd407c65f2ac480bd3854b346be9fc0a64862e89dd51920bc667d47a94511664736f6c634300080d00338be0079c531659141344cd1fd0a4f28419497f9722a3daafe3b4186f6b6457e0",
					"opcodes": "PUSH1 0x80 PUSH1 0x40 MSTORE CALLVALUE DUP1 ISZERO PUSH3 0x11 JUMPI PUSH1 0x0 DUP1 REVERT JUMPDEST POP PUSH1 0x40 MLOAD PUSH3 0xEEA CODESIZE SUB DUP1 PUSH3 0xEEA DUP4 CODECOPY DUP2 ADD PUSH1 0x40 DUP2 SWAP1 MSTORE PUSH3 0x34 SWAP2 PUSH3 0x42C JUMP JUMPDEST DUP4 MLOAD DUP5 SWAP1 DUP5 SWAP1 PUSH3 0x4D SWAP1 PUSH1 0x3 SWAP1 PUSH1 0x20 DUP6 ADD SWAP1 PUSH3 0x2B9 JUMP JUMPDEST POP DUP1 MLOAD PUSH3 0x63 SWAP1 PUSH1 0x4 SWAP1 PUSH1 0x20 DUP5 ADD SWAP1 PUSH3 0x2B9 JUMP JUMPDEST POP POP POP PUSH3 0x80 PUSH3 0x7A PUSH3 0xF2 PUSH1 0x20 SHL PUSH1 0x20 SHR JUMP JUMPDEST PUSH3 0xF6 JUMP JUMPDEST DUP4 MLOAD PUSH3 0x95 SWAP1 PUSH1 0x3 SWAP1 PUSH1 0x20 DUP8 ADD SWAP1 PUSH3 0x2B9 JUMP JUMPDEST POP DUP3 MLOAD PUSH3 0xAB SWAP1 PUSH1 0x4 SWAP1 PUSH1 0x20 DUP7 ADD SWAP1 PUSH3 0x2B9 JUMP JUMPDEST POP PUSH3 0xB8 DUP3 DUP3 PUSH3 0x137 JUMP JUMPDEST PUSH3 0xC3 DUP3 PUSH3 0x1D8 JUMP JUMPDEST PUSH1 0x40 MLOAD PUSH1 0x1 PUSH1 0x1 PUSH1 0xA0 SHL SUB DUP4 AND SWAP1 PUSH1 0x0 SWAP1 PUSH1 0x0 DUP1 MLOAD PUSH1 0x20 PUSH3 0xECA DUP4 CODECOPY DUP2 MLOAD SWAP2 MSTORE SWAP1 DUP3 SWAP1 LOG3 POP POP POP POP PUSH3 0x522 JUMP JUMPDEST CALLER SWAP1 JUMP JUMPDEST PUSH1 0x5 DUP1 SLOAD PUSH1 0x1 PUSH1 0x1 PUSH1 0xA0 SHL SUB DUP4 DUP2 AND PUSH1 0x1 PUSH1 0x1 PUSH1 0xA0 SHL SUB NOT DUP4 AND DUP2 OR SWAP1 SWAP4 SSTORE PUSH1 0x40 MLOAD SWAP2 AND SWAP2 SWAP1 DUP3 SWAP1 PUSH1 0x0 DUP1 MLOAD PUSH1 0x20 PUSH3 0xECA DUP4 CODECOPY DUP2 MLOAD SWAP2 MSTORE SWAP1 PUSH1 0x0 SWAP1 LOG3 POP POP JUMP JUMPDEST PUSH1 0x1 PUSH1 0x1 PUSH1 0xA0 SHL SUB DUP3 AND PUSH3 0x14B JUMPI PUSH1 0x0 DUP1 REVERT JUMPDEST DUP1 PUSH1 0x2 PUSH1 0x0 DUP3 DUP3 SLOAD PUSH3 0x15F SWAP2 SWAP1 PUSH3 0x4BF JUMP JUMPDEST SWAP1 SWAP2 SSTORE POP POP PUSH1 0x1 PUSH1 0x1 PUSH1 0xA0 SHL SUB DUP3 AND PUSH1 0x0 SWAP1 DUP2 MSTORE PUSH1 0x20 DUP2 SWAP1 MSTORE PUSH1 0x40 DUP2 KECCAK256 DUP1 SLOAD DUP4 SWAP3 SWAP1 PUSH3 0x18E SWAP1 DUP5 SWAP1 PUSH3 0x4BF JUMP JUMPDEST SWAP1 SWAP2 SSTORE POP POP PUSH1 0x40 MLOAD DUP2 DUP2 MSTORE PUSH1 0x1 PUSH1 0x1 PUSH1 0xA0 SHL SUB DUP4 AND SWAP1 PUSH1 0x0 SWAP1 PUSH32 0xDDF252AD1BE2C89B69C2B068FC378DAA952BA7F163C4A11628F55A4DF523B3EF SWAP1 PUSH1 0x20 ADD PUSH1 0x40 MLOAD DUP1 SWAP2 SUB SWAP1 LOG3 POP POP JUMP JUMPDEST PUSH3 0x1E2 PUSH3 0x25B JUMP JUMPDEST PUSH1 0x1 PUSH1 0x1 PUSH1 0xA0 SHL SUB DUP2 AND PUSH3 0x24D JUMPI PUSH1 0x40 MLOAD PUSH3 0x461BCD PUSH1 0xE5 SHL DUP2 MSTORE PUSH1 0x20 PUSH1 0x4 DUP3 ADD MSTORE PUSH1 0x26 PUSH1 0x24 DUP3 ADD MSTORE PUSH32 0x4F776E61626C653A206E6577206F776E657220697320746865207A65726F2061 PUSH1 0x44 DUP3 ADD MSTORE PUSH6 0x646472657373 PUSH1 0xD0 SHL PUSH1 0x64 DUP3 ADD MSTORE PUSH1 0x84 ADD JUMPDEST PUSH1 0x40 MLOAD DUP1 SWAP2 SUB SWAP1 REVERT JUMPDEST PUSH3 0x258 DUP2 PUSH3 0xF6 JUMP JUMPDEST POP JUMP JUMPDEST PUSH1 0x5 SLOAD PUSH1 0x1 PUSH1 0x1 PUSH1 0xA0 SHL SUB AND CALLER EQ PUSH3 0x2B7 JUMPI PUSH1 0x40 MLOAD PUSH3 0x461BCD PUSH1 0xE5 SHL DUP2 MSTORE PUSH1 0x20 PUSH1 0x4 DUP3 ADD DUP2 SWAP1 MSTORE PUSH1 0x24 DUP3 ADD MSTORE PUSH32 0x4F776E61626C653A2063616C6C6572206973206E6F7420746865206F776E6572 PUSH1 0x44 DUP3 ADD MSTORE PUSH1 0x64 ADD PUSH3 0x244 JUMP JUMPDEST JUMP JUMPDEST DUP3 DUP1 SLOAD PUSH3 0x2C7 SWAP1 PUSH3 0x4E6 JUMP JUMPDEST SWAP1 PUSH1 0x0 MSTORE PUSH1 0x20 PUSH1 0x0 KECCAK256 SWAP1 PUSH1 0x1F ADD PUSH1 0x20 SWAP1 DIV DUP2 ADD SWAP3 DUP3 PUSH3 0x2EB JUMPI PUSH1 0x0 DUP6 SSTORE PUSH3 0x336 JUMP JUMPDEST DUP3 PUSH1 0x1F LT PUSH3 0x306 JUMPI DUP1 MLOAD PUSH1 0xFF NOT AND DUP4 DUP1 ADD OR DUP6 SSTORE PUSH3 0x336 JUMP JUMPDEST DUP3 DUP1 ADD PUSH1 0x1 ADD DUP6 SSTORE DUP3 ISZERO PUSH3 0x336 JUMPI SWAP2 DUP3 ADD JUMPDEST DUP3 DUP2 GT ISZERO PUSH3 0x336 JUMPI DUP3 MLOAD DUP3 SSTORE SWAP2 PUSH1 0x20 ADD SWAP2 SWAP1 PUSH1 0x1 ADD SWAP1 PUSH3 0x319 JUMP JUMPDEST POP PUSH3 0x344 SWAP3 SWAP2 POP PUSH3 0x348 JUMP JUMPDEST POP SWAP1 JUMP JUMPDEST JUMPDEST DUP1 DUP3 GT ISZERO PUSH3 0x344 JUMPI PUSH1 0x0 DUP2 SSTORE PUSH1 0x1 ADD PUSH3 0x349 JUMP JUMPDEST PUSH4 0x4E487B71 PUSH1 0xE0 SHL PUSH1 0x0 MSTORE PUSH1 0x41 PUSH1 0x4 MSTORE PUSH1 0x24 PUSH1 0x0 REVERT JUMPDEST PUSH1 0x0 DUP3 PUSH1 0x1F DUP4 ADD SLT PUSH3 0x387 JUMPI PUSH1 0x0 DUP1 REVERT JUMPDEST DUP2 MLOAD PUSH1 0x1 PUSH1 0x1 PUSH1 0x40 SHL SUB DUP1 DUP3 GT ISZERO PUSH3 0x3A4 JUMPI PUSH3 0x3A4 PUSH3 0x35F JUMP JUMPDEST PUSH1 0x40 MLOAD PUSH1 0x1F DUP4 ADD PUSH1 0x1F NOT SWAP1 DUP2 AND PUSH1 0x3F ADD AND DUP2 ADD SWAP1 DUP3 DUP3 GT DUP2 DUP4 LT OR ISZERO PUSH3 0x3CF JUMPI PUSH3 0x3CF PUSH3 0x35F JUMP JUMPDEST DUP2 PUSH1 0x40 MSTORE DUP4 DUP2 MSTORE PUSH1 0x20 SWAP3 POP DUP7 DUP4 DUP6 DUP9 ADD ADD GT ISZERO PUSH3 0x3EC JUMPI PUSH1 0x0 DUP1 REVERT JUMPDEST PUSH1 0x0 SWAP2 POP JUMPDEST DUP4 DUP3 LT ISZERO PUSH3 0x410 JUMPI DUP6 DUP3 ADD DUP4 ADD MLOAD DUP2 DUP4 ADD DUP5 ADD MSTORE SWAP1 DUP3 ADD SWAP1 PUSH3 0x3F1 JUMP JUMPDEST DUP4 DUP3 GT ISZERO PUSH3 0x422 JUMPI PUSH1 0x0 DUP4 DUP6 DUP4 ADD ADD MSTORE JUMPDEST SWAP7 SWAP6 POP POP POP POP POP POP JUMP JUMPDEST PUSH1 0x0 DUP1 PUSH1 0x0 DUP1 PUSH1 0x80 DUP6 DUP8 SUB SLT ISZERO PUSH3 0x443 JUMPI PUSH1 0x0 DUP1 REVERT JUMPDEST DUP5 MLOAD PUSH1 0x1 PUSH1 0x1 PUSH1 0x40 SHL SUB DUP1 DUP3 GT ISZERO PUSH3 0x45B JUMPI PUSH1 0x0 DUP1 REVERT JUMPDEST PUSH3 0x469 DUP9 DUP4 DUP10 ADD PUSH3 0x375 JUMP JUMPDEST SWAP6 POP PUSH1 0x20 DUP8 ADD MLOAD SWAP2 POP DUP1 DUP3 GT ISZERO PUSH3 0x480 JUMPI PUSH1 0x0 DUP1 REVERT JUMPDEST POP PUSH3 0x48F DUP8 DUP3 DUP9 ADD PUSH3 0x375 JUMP JUMPDEST PUSH1 0x40 DUP8 ADD MLOAD SWAP1 SWAP5 POP SWAP1 POP PUSH1 0x1 PUSH1 0x1 PUSH1 0xA0 SHL SUB DUP2 AND DUP2 EQ PUSH3 0x4AF JUMPI PUSH1 0x0 DUP1 REVERT JUMPDEST PUSH1 0x60 SWAP6 SWAP1 SWAP6 ADD MLOAD SWAP4 SWAP7 SWAP3 SWAP6 POP POP POP JUMP JUMPDEST PUSH1 0x0 DUP3 NOT DUP3 GT ISZERO PUSH3 0x4E1 JUMPI PUSH4 0x4E487B71 PUSH1 0xE0 SHL PUSH1 0x0 MSTORE PUSH1 0x11 PUSH1 0x4 MSTORE PUSH1 0x24 PUSH1 0x0 REVERT JUMPDEST POP ADD SWAP1 JUMP JUMPDEST PUSH1 0x1 DUP2 DUP2 SHR SWAP1 DUP3 AND DUP1 PUSH3 0x4FB JUMPI PUSH1 0x7F DUP3 AND SWAP2 POP JUMPDEST PUSH1 0x20 DUP3 LT DUP2 SUB PUSH3 0x51C JUMPI PUSH4 0x4E487B71 PUSH1 0xE0 SHL PUSH1 0x0 MSTORE PUSH1 0x22 PUSH1 0x4 MSTORE PUSH1 0x24 PUSH1 0x0 REVERT JUMPDEST POP SWAP2 SWAP1 POP JUMP JUMPDEST PUSH2 0x998 DUP1 PUSH3 0x532 PUSH1 0x0 CODECOPY PUSH1 0x0 RETURN INVALID PUSH1 0x80 PUSH1 0x40 MSTORE PUSH1 0x4 CALLDATASIZE LT PUSH2 0xC4 JUMPI PUSH1 0x0 CALLDATALOAD PUSH1 0xE0 SHR DUP1 PUSH4 0x6FDDE03 EQ PUSH2 0xCD JUMPI DUP1 PUSH4 0x95EA7B3 EQ PUSH2 0xF8 JUMPI DUP1 PUSH4 0x18160DDD EQ PUSH2 0x128 JUMPI DUP1 PUSH4 0x23B872DD EQ PUSH2 0x147 JUMPI DUP1 PUSH4 0x313CE567 EQ PUSH2 0x167 JUMPI DUP1 PUSH4 0x39509351 EQ PUSH2 0x183 JUMPI DUP1 PUSH4 0x70A08231 EQ PUSH2 0x1A3 JUMPI DUP1 PUSH4 0x715018A6 EQ PUSH2 0x1D9 JUMPI DUP1 PUSH4 0x8DA5CB5B EQ PUSH2 0x1EE JUMPI DUP1 PUSH4 0x95D89B41 EQ PUSH2 0x216 JUMPI DUP1 PUSH4 0xA457C2D7 EQ PUSH2 0x22B JUMPI DUP1 PUSH4 0xA9059CBB EQ PUSH2 0x24B JUMPI DUP1 PUSH4 0xB09F1266 EQ PUSH2 0x26B JUMPI DUP1 PUSH4 0xD28D8852 EQ PUSH2 0x280 JUMPI DUP1 PUSH4 0xDD62ED3E EQ PUSH2 0x295 JUMPI DUP1 PUSH4 0xF2FDE38B EQ PUSH2 0x2DB JUMPI STOP JUMPDEST CALLDATASIZE PUSH2 0xCB JUMPI STOP JUMPDEST STOP JUMPDEST CALLVALUE DUP1 ISZERO PUSH2 0xD9 JUMPI PUSH1 0x0 DUP1 REVERT JUMPDEST POP PUSH2 0xE2 PUSH2 0x2FB JUMP JUMPDEST PUSH1 0x40 MLOAD PUSH2 0xEF SWAP2 SWAP1 PUSH2 0x7D6 JUMP JUMPDEST PUSH1 0x40 MLOAD DUP1 SWAP2 SUB SWAP1 RETURN JUMPDEST CALLVALUE DUP1 ISZERO PUSH2 0x104 JUMPI PUSH1 0x0 DUP1 REVERT JUMPDEST POP PUSH2 0x118 PUSH2 0x113 CALLDATASIZE PUSH1 0x4 PUSH2 0x847 JUMP JUMPDEST PUSH2 0x38D JUMP JUMPDEST PUSH1 0x40 MLOAD SWAP1 ISZERO ISZERO DUP2 MSTORE PUSH1 0x20 ADD PUSH2 0xEF JUMP JUMPDEST CALLVALUE DUP1 ISZERO PUSH2 0x134 JUMPI PUSH1 0x0 DUP1 REVERT JUMPDEST POP PUSH1 0x2 SLOAD JUMPDEST PUSH1 0x40 MLOAD SWAP1 DUP2 MSTORE PUSH1 0x20 ADD PUSH2 0xEF JUMP JUMPDEST CALLVALUE DUP1 ISZERO PUSH2 0x153 JUMPI PUSH1 0x0 DUP1 REVERT JUMPDEST POP PUSH2 0x118 PUSH2 0x162 CALLDATASIZE PUSH1 0x4 PUSH2 0x871 JUMP JUMPDEST PUSH2 0x3A3 JUMP JUMPDEST CALLVALUE DUP1 ISZERO PUSH2 0x173 JUMPI PUSH1 0x0 DUP1 REVERT JUMPDEST POP PUSH1 0x40 MLOAD PUSH1 0x12 DUP2 MSTORE PUSH1 0x20 ADD PUSH2 0xEF JUMP JUMPDEST CALLVALUE DUP1 ISZERO PUSH2 0x18F JUMPI PUSH1 0x0 DUP1 REVERT JUMPDEST POP PUSH2 0x118 PUSH2 0x19E CALLDATASIZE PUSH1 0x4 PUSH2 0x847 JUMP JUMPDEST PUSH2 0x3F9 JUMP JUMPDEST CALLVALUE DUP1 ISZERO PUSH2 0x1AF JUMPI PUSH1 0x0 DUP1 REVERT JUMPDEST POP PUSH2 0x139 PUSH2 0x1BE CALLDATASIZE PUSH1 0x4 PUSH2 0x8AD JUMP JUMPDEST PUSH1 0x1 PUSH1 0x1 PUSH1 0xA0 SHL SUB AND PUSH1 0x0 SWAP1 DUP2 MSTORE PUSH1 0x20 DUP2 SWAP1 MSTORE PUSH1 0x40 SWAP1 KECCAK256 SLOAD SWAP1 JUMP JUMPDEST CALLVALUE DUP1 ISZERO PUSH2 0x1E5 JUMPI PUSH1 0x0 DUP1 REVERT JUMPDEST POP PUSH2 0xCB PUSH2 0x435 JUMP JUMPDEST CALLVALUE DUP1 ISZERO PUSH2 0x1FA JUMPI PUSH1 0x0 DUP1 REVERT JUMPDEST POP PUSH1 0x5 SLOAD PUSH1 0x40 MLOAD PUSH1 0x1 PUSH1 0x1 PUSH1 0xA0 SHL SUB SWAP1 SWAP2 AND DUP2 MSTORE PUSH1 0x20 ADD PUSH2 0xEF JUMP JUMPDEST CALLVALUE DUP1 ISZERO PUSH2 0x222 JUMPI PUSH1 0x0 DUP1 REVERT JUMPDEST POP PUSH2 0xE2 PUSH2 0x449 JUMP JUMPDEST CALLVALUE DUP1 ISZERO PUSH2 0x237 JUMPI PUSH1 0x0 DUP1 REVERT JUMPDEST POP PUSH2 0x118 PUSH2 0x246 CALLDATASIZE PUSH1 0x4 PUSH2 0x847 JUMP JUMPDEST PUSH2 0x458 JUMP JUMPDEST CALLVALUE DUP1 ISZERO PUSH2 0x257 JUMPI PUSH1 0x0 DUP1 REVERT JUMPDEST POP PUSH2 0x118 PUSH2 0x266 CALLDATASIZE PUSH1 0x4 PUSH2 0x847 JUMP JUMPDEST PUSH2 0x4A0 JUMP JUMPDEST CALLVALUE DUP1 ISZERO PUSH2 0x277 JUMPI PUSH1 0x0 DUP1 REVERT JUMPDEST POP PUSH2 0xE2 PUSH2 0x4AD JUMP JUMPDEST CALLVALUE DUP1 ISZERO PUSH2 0x28C JUMPI PUSH1 0x0 DUP1 REVERT JUMPDEST POP PUSH2 0xE2 PUSH2 0x53B JUMP JUMPDEST CALLVALUE DUP1 ISZERO PUSH2 0x2A1 JUMPI PUSH1 0x0 DUP1 REVERT JUMPDEST POP PUSH2 0x139 PUSH2 0x2B0 CALLDATASIZE PUSH1 0x4 PUSH2 0x8CF JUMP JUMPDEST PUSH1 0x1 PUSH1 0x1 PUSH1 0xA0 SHL SUB SWAP2 DUP3 AND PUSH1 0x0 SWAP1 DUP2 MSTORE PUSH1 0x1 PUSH1 0x20 SWAP1 DUP2 MSTORE PUSH1 0x40 DUP1 DUP4 KECCAK256 SWAP4 SWAP1 SWAP5 AND DUP3 MSTORE SWAP2 SWAP1 SWAP2 MSTORE KECCAK256 SLOAD SWAP1 JUMP JUMPDEST CALLVALUE DUP1 ISZERO PUSH2 0x2E7 JUMPI PUSH1 0x0 DUP1 REVERT JUMPDEST POP PUSH2 0xCB PUSH2 0x2F6 CALLDATASIZE PUSH1 0x4 PUSH2 0x8AD JUMP JUMPDEST PUSH2 0x548 JUMP JUMPDEST PUSH1 0x60 PUSH1 0x3 DUP1 SLOAD PUSH2 0x30A SWAP1 PUSH2 0x902 JUMP JUMPDEST DUP1 PUSH1 0x1F ADD PUSH1 0x20 DUP1 SWAP2 DIV MUL PUSH1 0x20 ADD PUSH1 0x40 MLOAD SWAP1 DUP2 ADD PUSH1 0x40 MSTORE DUP1 SWAP3 SWAP2 SWAP1 DUP2 DUP2 MSTORE PUSH1 0x20 ADD DUP3 DUP1 SLOAD PUSH2 0x336 SWAP1 PUSH2 0x902 JUMP JUMPDEST DUP1 ISZERO PUSH2 0x383 JUMPI DUP1 PUSH1 0x1F LT PUSH2 0x358 JUMPI PUSH2 0x100 DUP1 DUP4 SLOAD DIV MUL DUP4 MSTORE SWAP2 PUSH1 0x20 ADD SWAP2 PUSH2 0x383 JUMP JUMPDEST DUP3 ADD SWAP2 SWAP1 PUSH1 0x0 MSTORE PUSH1 0x20 PUSH1 0x0 KECCAK256 SWAP1 JUMPDEST DUP2 SLOAD DUP2 MSTORE SWAP1 PUSH1 0x1 ADD SWAP1 PUSH1 0x20 ADD DUP1 DUP4 GT PUSH2 0x366 JUMPI DUP3 SWAP1 SUB PUSH1 0x1F AND DUP3 ADD SWAP2 JUMPDEST POP POP POP POP POP SWAP1 POP SWAP1 JUMP JUMPDEST PUSH1 0x0 PUSH2 0x39A CALLER DUP5 DUP5 PUSH2 0x5C6 JUMP JUMPDEST POP PUSH1 0x1 SWAP3 SWAP2 POP POP JUMP JUMPDEST PUSH1 0x0 PUSH2 0x3B0 DUP5 DUP5 DUP5 PUSH2 0x64D JUMP JUMPDEST PUSH1 0x1 PUSH1 0x1 PUSH1 0xA0 SHL SUB DUP5 AND PUSH1 0x0 SWAP1 DUP2 MSTORE PUSH1 0x1 PUSH1 0x20 SWAP1 DUP2 MSTORE PUSH1 0x40 DUP1 DUP4 KECCAK256 CALLER DUP5 MSTORE SWAP1 SWAP2 MSTORE SWAP1 KECCAK256 SLOAD DUP3 DUP2 LT ISZERO PUSH2 0x3E1 JUMPI PUSH1 0x0 DUP1 REVERT JUMPDEST PUSH2 0x3EE DUP6 CALLER DUP6 DUP5 SUB PUSH2 0x5C6 JUMP JUMPDEST POP PUSH1 0x1 SWAP5 SWAP4 POP POP POP POP JUMP JUMPDEST CALLER PUSH1 0x0 DUP2 DUP2 MSTORE PUSH1 0x1 PUSH1 0x20 SWAP1 DUP2 MSTORE PUSH1 0x40 DUP1 DUP4 KECCAK256 PUSH1 0x1 PUSH1 0x1 PUSH1 0xA0 SHL SUB DUP8 AND DUP5 MSTORE SWAP1 SWAP2 MSTORE DUP2 KECCAK256 SLOAD SWAP1 SWAP2 PUSH2 0x39A SWAP2 DUP6 SWAP1 PUSH2 0x430 SWAP1 DUP7 SWAP1 PUSH2 0x93C JUMP JUMPDEST PUSH2 0x5C6 JUMP JUMPDEST PUSH2 0x43D PUSH2 0x72A JUMP JUMPDEST PUSH2 0x447 PUSH1 0x0 PUSH2 0x784 JUMP JUMPDEST JUMP JUMPDEST PUSH1 0x60 PUSH1 0x4 DUP1 SLOAD PUSH2 0x30A SWAP1 PUSH2 0x902 JUMP JUMPDEST CALLER PUSH1 0x0 SWAP1 DUP2 MSTORE PUSH1 0x1 PUSH1 0x20 SWAP1 DUP2 MSTORE PUSH1 0x40 DUP1 DUP4 KECCAK256 PUSH1 0x1 PUSH1 0x1 PUSH1 0xA0 SHL SUB DUP7 AND DUP5 MSTORE SWAP1 SWAP2 MSTORE DUP2 KECCAK256 SLOAD DUP3 DUP2 LT ISZERO PUSH2 0x489 JUMPI PUSH1 0x0 DUP1 REVERT JUMPDEST PUSH2 0x496 CALLER DUP6 DUP6 DUP5 SUB PUSH2 0x5C6 JUMP JUMPDEST POP PUSH1 0x1 SWAP4 SWAP3 POP POP POP JUMP JUMPDEST PUSH1 0x0 PUSH2 0x39A CALLER DUP5 DUP5 PUSH2 0x64D JUMP JUMPDEST PUSH1 0x4 DUP1 SLOAD PUSH2 0x4BA SWAP1 PUSH2 0x902 JUMP JUMPDEST DUP1 PUSH1 0x1F ADD PUSH1 0x20 DUP1 SWAP2 DIV MUL PUSH1 0x20 ADD PUSH1 0x40 MLOAD SWAP1 DUP2 ADD PUSH1 0x40 MSTORE DUP1 SWAP3 SWAP2 SWAP1 DUP2 DUP2 MSTORE PUSH1 0x20 ADD DUP3 DUP1 SLOAD PUSH2 0x4E6 SWAP1 PUSH2 0x902 JUMP JUMPDEST DUP1 ISZERO PUSH2 0x533 JUMPI DUP1 PUSH1 0x1F LT PUSH2 0x508 JUMPI PUSH2 0x100 DUP1 DUP4 SLOAD DIV MUL DUP4 MSTORE SWAP2 PUSH1 0x20 ADD SWAP2 PUSH2 0x533 JUMP JUMPDEST DUP3 ADD SWAP2 SWAP1 PUSH1 0x0 MSTORE PUSH1 0x20 PUSH1 0x0 KECCAK256 SWAP1 JUMPDEST DUP2 SLOAD DUP2 MSTORE SWAP1 PUSH1 0x1 ADD SWAP1 PUSH1 0x20 ADD DUP1 DUP4 GT PUSH2 0x516 JUMPI DUP3 SWAP1 SUB PUSH1 0x1F AND DUP3 ADD SWAP2 JUMPDEST POP POP POP POP POP DUP2 JUMP JUMPDEST PUSH1 0x3 DUP1 SLOAD PUSH2 0x4BA SWAP1 PUSH2 0x902 JUMP JUMPDEST PUSH2 0x550 PUSH2 0x72A JUMP JUMPDEST PUSH1 0x1 PUSH1 0x1 PUSH1 0xA0 SHL SUB DUP2 AND PUSH2 0x5BA JUMPI PUSH1 0x40 MLOAD PUSH3 0x461BCD PUSH1 0xE5 SHL DUP2 MSTORE PUSH1 0x20 PUSH1 0x4 DUP3 ADD MSTORE PUSH1 0x26 PUSH1 0x24 DUP3 ADD MSTORE PUSH32 0x4F776E61626C653A206E6577206F776E657220697320746865207A65726F2061 PUSH1 0x44 DUP3 ADD MSTORE PUSH6 0x646472657373 PUSH1 0xD0 SHL PUSH1 0x64 DUP3 ADD MSTORE PUSH1 0x84 ADD JUMPDEST PUSH1 0x40 MLOAD DUP1 SWAP2 SUB SWAP1 REVERT JUMPDEST PUSH2 0x5C3 DUP2 PUSH2 0x784 JUMP JUMPDEST POP JUMP JUMPDEST PUSH1 0x1 PUSH1 0x1 PUSH1 0xA0 SHL SUB DUP4 AND PUSH2 0x5D9 JUMPI PUSH1 0x0 DUP1 REVERT JUMPDEST PUSH1 0x1 PUSH1 0x1 PUSH1 0xA0 SHL SUB DUP3 AND PUSH2 0x5EC JUMPI PUSH1 0x0 DUP1 REVERT JUMPDEST PUSH1 0x1 PUSH1 0x1 PUSH1 0xA0 SHL SUB DUP4 DUP2 AND PUSH1 0x0 DUP2 DUP2 MSTORE PUSH1 0x1 PUSH1 0x20 SWAP1 DUP2 MSTORE PUSH1 0x40 DUP1 DUP4 KECCAK256 SWAP5 DUP8 AND DUP1 DUP5 MSTORE SWAP5 DUP3 MSTORE SWAP2 DUP3 SWAP1 KECCAK256 DUP6 SWAP1 SSTORE SWAP1 MLOAD DUP5 DUP2 MSTORE PUSH32 0x8C5BE1E5EBEC7D5BD14F71427D1E84F3DD0314C0F7B2291E5B200AC8C7C3B925 SWAP2 ADD PUSH1 0x40 MLOAD DUP1 SWAP2 SUB SWAP1 LOG3 POP POP POP JUMP JUMPDEST PUSH1 0x1 PUSH1 0x1 PUSH1 0xA0 SHL SUB DUP4 AND PUSH2 0x660 JUMPI PUSH1 0x0 DUP1 REVERT JUMPDEST PUSH1 0x1 PUSH1 0x1 PUSH1 0xA0 SHL SUB DUP3 AND PUSH2 0x673 JUMPI PUSH1 0x0 DUP1 REVERT JUMPDEST PUSH1 0x1 PUSH1 0x1 PUSH1 0xA0 SHL SUB DUP4 AND PUSH1 0x0 SWAP1 DUP2 MSTORE PUSH1 0x20 DUP2 SWAP1 MSTORE PUSH1 0x40 SWAP1 KECCAK256 SLOAD DUP2 DUP2 LT ISZERO PUSH2 0x699 JUMPI PUSH1 0x0 DUP1 REVERT JUMPDEST PUSH1 0x1 PUSH1 0x1 PUSH1 0xA0 SHL SUB DUP1 DUP6 AND PUSH1 0x0 SWAP1 DUP2 MSTORE PUSH1 0x20 DUP2 SWAP1 MSTORE PUSH1 0x40 DUP1 DUP3 KECCAK256 DUP6 DUP6 SUB SWAP1 SSTORE SWAP2 DUP6 AND DUP2 MSTORE SWAP1 DUP2 KECCAK256 DUP1 SLOAD DUP5 SWAP3 SWAP1 PUSH2 0x6D0 SWAP1 DUP5 SWAP1 PUSH2 0x93C JUMP JUMPDEST SWAP3 POP POP DUP2 SWAP1 SSTORE POP DUP3 PUSH1 0x1 PUSH1 0x1 PUSH1 0xA0 SHL SUB AND DUP5 PUSH1 0x1 PUSH1 0x1 PUSH1 0xA0 SHL SUB AND PUSH32 0xDDF252AD1BE2C89B69C2B068FC378DAA952BA7F163C4A11628F55A4DF523B3EF DUP5 PUSH1 0x40 MLOAD PUSH2 0x71C SWAP2 DUP2 MSTORE PUSH1 0x20 ADD SWAP1 JUMP JUMPDEST PUSH1 0x40 MLOAD DUP1 SWAP2 SUB SWAP1 LOG3 POP POP POP POP JUMP JUMPDEST PUSH1 0x5 SLOAD PUSH1 0x1 PUSH1 0x1 PUSH1 0xA0 SHL SUB AND CALLER EQ PUSH2 0x447 JUMPI PUSH1 0x40 MLOAD PUSH3 0x461BCD PUSH1 0xE5 SHL DUP2 MSTORE PUSH1 0x20 PUSH1 0x4 DUP3 ADD DUP2 SWAP1 MSTORE PUSH1 0x24 DUP3 ADD MSTORE PUSH32 0x4F776E61626C653A2063616C6C6572206973206E6F7420746865206F776E6572 PUSH1 0x44 DUP3 ADD MSTORE PUSH1 0x64 ADD PUSH2 0x5B1 JUMP JUMPDEST PUSH1 0x5 DUP1 SLOAD PUSH1 0x1 PUSH1 0x1 PUSH1 0xA0 SHL SUB DUP4 DUP2 AND PUSH1 0x1 PUSH1 0x1 PUSH1 0xA0 SHL SUB NOT DUP4 AND DUP2 OR SWAP1 SWAP4 SSTORE PUSH1 0x40 MLOAD SWAP2 AND SWAP2 SWAP1 DUP3 SWAP1 PUSH32 0x8BE0079C531659141344CD1FD0A4F28419497F9722A3DAAFE3B4186F6B6457E0 SWAP1 PUSH1 0x0 SWAP1 LOG3 POP POP JUMP JUMPDEST PUSH1 0x0 PUSH1 0x20 DUP1 DUP4 MSTORE DUP4 MLOAD DUP1 DUP3 DUP6 ADD MSTORE PUSH1 0x0 JUMPDEST DUP2 DUP2 LT ISZERO PUSH2 0x803 JUMPI DUP6 DUP2 ADD DUP4 ADD MLOAD DUP6 DUP3 ADD PUSH1 0x40 ADD MSTORE DUP3 ADD PUSH2 0x7E7 JUMP JUMPDEST DUP2 DUP2 GT ISZERO PUSH2 0x815 JUMPI PUSH1 0x0 PUSH1 0x40 DUP4 DUP8 ADD ADD MSTORE JUMPDEST POP PUSH1 0x1F ADD PUSH1 0x1F NOT AND SWAP3 SWAP1 SWAP3 ADD PUSH1 0x40 ADD SWAP4 SWAP3 POP POP POP JUMP JUMPDEST DUP1 CALLDATALOAD PUSH1 0x1 PUSH1 0x1 PUSH1 0xA0 SHL SUB DUP2 AND DUP2 EQ PUSH2 0x842 JUMPI PUSH1 0x0 DUP1 REVERT JUMPDEST SWAP2 SWAP1 POP JUMP JUMPDEST PUSH1 0x0 DUP1 PUSH1 0x40 DUP4 DUP6 SUB SLT ISZERO PUSH2 0x85A JUMPI PUSH1 0x0 DUP1 REVERT JUMPDEST PUSH2 0x863 DUP4 PUSH2 0x82B JUMP JUMPDEST SWAP5 PUSH1 0x20 SWAP4 SWAP1 SWAP4 ADD CALLDATALOAD SWAP4 POP POP POP JUMP JUMPDEST PUSH1 0x0 DUP1 PUSH1 0x0 PUSH1 0x60 DUP5 DUP7 SUB SLT ISZERO PUSH2 0x886 JUMPI PUSH1 0x0 DUP1 REVERT JUMPDEST PUSH2 0x88F DUP5 PUSH2 0x82B JUMP JUMPDEST SWAP3 POP PUSH2 0x89D PUSH1 0x20 DUP6 ADD PUSH2 0x82B JUMP JUMPDEST SWAP2 POP PUSH1 0x40 DUP5 ADD CALLDATALOAD SWAP1 POP SWAP3 POP SWAP3 POP SWAP3 JUMP JUMPDEST PUSH1 0x0 PUSH1 0x20 DUP3 DUP5 SUB SLT ISZERO PUSH2 0x8BF JUMPI PUSH1 0x0 DUP1 REVERT JUMPDEST PUSH2 0x8C8 DUP3 PUSH2 0x82B JUMP JUMPDEST SWAP4 SWAP3 POP POP POP JUMP JUMPDEST PUSH1 0x0 DUP1 PUSH1 0x40 DUP4 DUP6 SUB SLT ISZERO PUSH2 0x8E2 JUMPI PUSH1 0x0 DUP1 REVERT JUMPDEST PUSH2 0x8EB DUP4 PUSH2 0x82B JUMP JUMPDEST SWAP2 POP PUSH2 0x8F9 PUSH1 0x20 DUP5 ADD PUSH2 0x82B JUMP JUMPDEST SWAP1 POP SWAP3 POP SWAP3 SWAP1 POP JUMP JUMPDEST PUSH1 0x1 DUP2 DUP2 SHR SWAP1 DUP3 AND DUP1 PUSH2 0x916 JUMPI PUSH1 0x7F DUP3 AND SWAP2 POP JUMPDEST PUSH1 0x20 DUP3 LT DUP2 SUB PUSH2 0x936 JUMPI PUSH4 0x4E487B71 PUSH1 0xE0 SHL PUSH1 0x0 MSTORE PUSH1 0x22 PUSH1 0x4 MSTORE PUSH1 0x24 PUSH1 0x0 REVERT JUMPDEST POP SWAP2 SWAP1 POP JUMP JUMPDEST PUSH1 0x0 DUP3 NOT DUP3 GT ISZERO PUSH2 0x95D JUMPI PUSH4 0x4E487B71 PUSH1 0xE0 SHL PUSH1 0x0 MSTORE PUSH1 0x11 PUSH1 0x4 MSTORE PUSH1 0x24 PUSH1 0x0 REVERT JUMPDEST POP ADD SWAP1 JUMP INVALID LOG2 PUSH5 0x6970667358 0x22 SLT KECCAK256 0xDA 0xDD BLOCKHASH PUSH29 0x65F2AC480BD3854B346BE9FC0A64862E89DD51920BC667D47A94511664 PUSH20 0x6F6C634300080D00338BE0079C531659141344CD 0x1F 0xD0 LOG4 CALLCODE DUP5 NOT 0x49 PUSH32 0x9722A3DAAFE3B4186F6B6457E000000000000000000000000000000000000000 "
				},
				"gasEstimates": {
					"creation": {
						"codeDepositCost": "491200",
						"executionCost": "infinite",
						"totalCost": "infinite"
					},
					"external": {
						"": "403",
						"_name()": "infinite",
						"_symbol()": "infinite",
						"allowance(address,address)": "infinite",
						"approve(address,uint256)": "24596",
						"balanceOf(address)": "2650",
						"decimals()": "243",
						"decreaseAllowance(address,uint256)": "27086",
						"increaseAllowance(address,uint256)": "27022",
						"name()": "infinite",
						"owner()": "2455",
						"renounceOwnership()": "infinite",
						"symbol()": "infinite",
						"totalSupply()": "2303",
						"transfer(address,uint256)": "51385",
						"transferFrom(address,address,uint256)": "infinite",
						"transferOwnership(address)": "28644"
					}
				},
				"methodIdentifiers": {
					"_name()": "d28d8852",
					"_symbol()": "b09f1266",
					"allowance(address,address)": "dd62ed3e",
					"approve(address,uint256)": "095ea7b3",
					"balanceOf(address)": "70a08231",
					"decimals()": "313ce567",
					"decreaseAllowance(address,uint256)": "a457c2d7",
					"increaseAllowance(address,uint256)": "39509351",
					"name()": "06fdde03",
					"owner()": "8da5cb5b",
					"renounceOwnership()": "715018a6",
					"symbol()": "95d89b41",
					"totalSupply()": "18160ddd",
					"transfer(address,uint256)": "a9059cbb",
					"transferFrom(address,address,uint256)": "23b872dd",
					"transferOwnership(address)": "f2fde38b"
				}
			},
			"storageLayout": {
				"storage": [
					{
						"astId": 902,
						"contract": "contracts/utilities/iHold.sol:iHold",
						"label": "_balances",
						"offset": 0,
						"slot": "0",
						"type": "t_mapping(t_address,t_uint256)"
					},
					{
						"astId": 908,
						"contract": "contracts/utilities/iHold.sol:iHold",
						"label": "_allowances",
						"offset": 0,
						"slot": "1",
						"type": "t_mapping(t_address,t_mapping(t_address,t_uint256))"
					},
					{
						"astId": 910,
						"contract": "contracts/utilities/iHold.sol:iHold",
						"label": "_totalSupply",
						"offset": 0,
						"slot": "2",
						"type": "t_uint256"
					},
					{
						"astId": 912,
						"contract": "contracts/utilities/iHold.sol:iHold",
						"label": "_name",
						"offset": 0,
						"slot": "3",
						"type": "t_string_storage"
					},
					{
						"astId": 914,
						"contract": "contracts/utilities/iHold.sol:iHold",
						"label": "_symbol",
						"offset": 0,
						"slot": "4",
						"type": "t_string_storage"
					},
					{
						"astId": 7,
						"contract": "contracts/utilities/iHold.sol:iHold",
						"label": "_owner",
						"offset": 0,
						"slot": "5",
						"type": "t_address"
					}
				],
				"types": {
					"t_address": {
						"encoding": "inplace",
						"label": "address",
						"numberOfBytes": "20"
					},
					"t_mapping(t_address,t_mapping(t_address,t_uint256))": {
						"encoding": "mapping",
						"key": "t_address",
						"label": "mapping(address => mapping(address => uint256))",
						"numberOfBytes": "32",
						"value": "t_mapping(t_address,t_uint256)"
					},
					"t_mapping(t_address,t_uint256)": {
						"encoding": "mapping",
						"key": "t_address",
						"label": "mapping(address => uint256)",
						"numberOfBytes": "32",
						"value": "t_uint256"
					},
					"t_string_storage": {
						"encoding": "bytes",
						"label": "string",
						"numberOfBytes": "32"
					},
					"t_uint256": {
						"encoding": "inplace",
						"label": "uint256",
						"numberOfBytes": "32"
					}
				}
			},
			"userdoc": {
				"kind": "user",
				"methods": {},
				"notice": "▪  ▄.▄.▄▄▄▄.▪▄▄▄▄.▄▄▄ ▄▄▄· ▄▄.·▄ ▄▄▄▄· ▪  ▄  ▄·▄▄▄▄ .·▄▄▄▄ ██ •█▌█▌•██ ·▀▀▄. ▀▄▄█·▐█ ▌▪██▪▐█ █▀▀█ ██ •█▌▐█ ▀▀▄▪ ▐█▪ ██ ▐█·▐█▐▐▌ ▐█.▪▐▀▀▪▄▐▀▀▄ ██ ▄▄██▀▐█ █▀▀█·▐█·▐█▐▐▌▐▀▀▪▄·▐█· ██ ▐█·██▐█▌ ▐█▌·▐█▄▄▌▐█•█▌▐███▌██ ▐█ █▪ █·▐█ ██▐█▌▐█▄▄▌·▐█. ██ █▪ ▀▪▀ •▀▀▀ .▀▀▀▀·▀ ▀• ▀▀▀· ▀ •▀ ▀• ▀  █▪ ▀ ▀ •▀▀▀▀  ▀▀▀▀▀The iHold contract enables iLocker operators store value for a pre-specified durationCommunity FOSS R&D supported by Kekchain, FrenChain, Electronero Network, Crystaleum",
				"version": 1
			}
		}
	}
}