{
	"contracts/utilities/iLock.sol": {
		"iLock": {
			"abi": [
				{
					"inputs": [
						{
							"internalType": "string",
							"name": "name",
							"type": "string"
						},
						{
							"internalType": "string",
							"name": "symbol",
							"type": "string"
						},
						{
							"internalType": "address payable",
							"name": "_depositors",
							"type": "address"
						}
					],
					"stateMutability": "nonpayable",
					"type": "constructor"
				},
				{
					"anonymous": false,
					"inputs": [
						{
							"indexed": true,
							"internalType": "address",
							"name": "owner",
							"type": "address"
						},
						{
							"indexed": true,
							"internalType": "address",
							"name": "spender",
							"type": "address"
						},
						{
							"indexed": false,
							"internalType": "uint256",
							"name": "value",
							"type": "uint256"
						}
					],
					"name": "Approval",
					"type": "event"
				},
				{
					"anonymous": false,
					"inputs": [
						{
							"indexed": true,
							"internalType": "address",
							"name": "previousOwner",
							"type": "address"
						},
						{
							"indexed": true,
							"internalType": "address",
							"name": "newOwner",
							"type": "address"
						}
					],
					"name": "OwnershipTransferred",
					"type": "event"
				},
				{
					"anonymous": false,
					"inputs": [
						{
							"indexed": true,
							"internalType": "address",
							"name": "from",
							"type": "address"
						},
						{
							"indexed": true,
							"internalType": "address",
							"name": "to",
							"type": "address"
						},
						{
							"indexed": false,
							"internalType": "uint256",
							"name": "value",
							"type": "uint256"
						}
					],
					"name": "Transfer",
					"type": "event"
				},
				{
					"stateMutability": "payable",
					"type": "fallback"
				},
				{
					"inputs": [
						{
							"internalType": "uint256",
							"name": "supply",
							"type": "uint256"
						}
					],
					"name": "Burn",
					"outputs": [],
					"stateMutability": "nonpayable",
					"type": "function"
				},
				{
					"inputs": [
						{
							"internalType": "address",
							"name": "from",
							"type": "address"
						},
						{
							"internalType": "uint256",
							"name": "supply",
							"type": "uint256"
						}
					],
					"name": "BurnFrom",
					"outputs": [],
					"stateMutability": "nonpayable",
					"type": "function"
				},
				{
					"inputs": [
						{
							"internalType": "address payable",
							"name": "holder",
							"type": "address"
						},
						{
							"internalType": "uint256",
							"name": "supply",
							"type": "uint256"
						}
					],
					"name": "Mint",
					"outputs": [],
					"stateMutability": "nonpayable",
					"type": "function"
				},
				{
					"inputs": [],
					"name": "_name",
					"outputs": [
						{
							"internalType": "string",
							"name": "",
							"type": "string"
						}
					],
					"stateMutability": "view",
					"type": "function"
				},
				{
					"inputs": [],
					"name": "_symbol",
					"outputs": [
						{
							"internalType": "string",
							"name": "",
							"type": "string"
						}
					],
					"stateMutability": "view",
					"type": "function"
				},
				{
					"inputs": [
						{
							"internalType": "address",
							"name": "owner",
							"type": "address"
						},
						{
							"internalType": "address",
							"name": "spender",
							"type": "address"
						}
					],
					"name": "allowance",
					"outputs": [
						{
							"internalType": "uint256",
							"name": "",
							"type": "uint256"
						}
					],
					"stateMutability": "view",
					"type": "function"
				},
				{
					"inputs": [
						{
							"internalType": "address",
							"name": "spender",
							"type": "address"
						},
						{
							"internalType": "uint256",
							"name": "amount",
							"type": "uint256"
						}
					],
					"name": "approve",
					"outputs": [
						{
							"internalType": "bool",
							"name": "",
							"type": "bool"
						}
					],
					"stateMutability": "nonpayable",
					"type": "function"
				},
				{
					"inputs": [
						{
							"internalType": "address",
							"name": "account",
							"type": "address"
						}
					],
					"name": "balanceOf",
					"outputs": [
						{
							"internalType": "uint256",
							"name": "",
							"type": "uint256"
						}
					],
					"stateMutability": "view",
					"type": "function"
				},
				{
					"inputs": [],
					"name": "decimals",
					"outputs": [
						{
							"internalType": "uint8",
							"name": "",
							"type": "uint8"
						}
					],
					"stateMutability": "view",
					"type": "function"
				},
				{
					"inputs": [
						{
							"internalType": "address",
							"name": "spender",
							"type": "address"
						},
						{
							"internalType": "uint256",
							"name": "subtractedValue",
							"type": "uint256"
						}
					],
					"name": "decreaseAllowance",
					"outputs": [
						{
							"internalType": "bool",
							"name": "",
							"type": "bool"
						}
					],
					"stateMutability": "nonpayable",
					"type": "function"
				},
				{
					"inputs": [
						{
							"internalType": "address",
							"name": "spender",
							"type": "address"
						},
						{
							"internalType": "uint256",
							"name": "addedValue",
							"type": "uint256"
						}
					],
					"name": "increaseAllowance",
					"outputs": [
						{
							"internalType": "bool",
							"name": "",
							"type": "bool"
						}
					],
					"stateMutability": "nonpayable",
					"type": "function"
				},
				{
					"inputs": [],
					"name": "name",
					"outputs": [
						{
							"internalType": "string",
							"name": "",
							"type": "string"
						}
					],
					"stateMutability": "view",
					"type": "function"
				},
				{
					"inputs": [],
					"name": "owner",
					"outputs": [
						{
							"internalType": "address",
							"name": "",
							"type": "address"
						}
					],
					"stateMutability": "view",
					"type": "function"
				},
				{
					"inputs": [],
					"name": "renounceOwnership",
					"outputs": [],
					"stateMutability": "nonpayable",
					"type": "function"
				},
				{
					"inputs": [],
					"name": "symbol",
					"outputs": [
						{
							"internalType": "string",
							"name": "",
							"type": "string"
						}
					],
					"stateMutability": "view",
					"type": "function"
				},
				{
					"inputs": [],
					"name": "totalSupply",
					"outputs": [
						{
							"internalType": "uint256",
							"name": "",
							"type": "uint256"
						}
					],
					"stateMutability": "view",
					"type": "function"
				},
				{
					"inputs": [
						{
							"internalType": "address",
							"name": "recipient",
							"type": "address"
						},
						{
							"internalType": "uint256",
							"name": "amount",
							"type": "uint256"
						}
					],
					"name": "transfer",
					"outputs": [
						{
							"internalType": "bool",
							"name": "",
							"type": "bool"
						}
					],
					"stateMutability": "nonpayable",
					"type": "function"
				},
				{
					"inputs": [
						{
							"internalType": "address",
							"name": "sender",
							"type": "address"
						},
						{
							"internalType": "address",
							"name": "recipient",
							"type": "address"
						},
						{
							"internalType": "uint256",
							"name": "amount",
							"type": "uint256"
						}
					],
					"name": "transferFrom",
					"outputs": [
						{
							"internalType": "bool",
							"name": "",
							"type": "bool"
						}
					],
					"stateMutability": "nonpayable",
					"type": "function"
				},
				{
					"inputs": [
						{
							"internalType": "address",
							"name": "newOwner",
							"type": "address"
						}
					],
					"name": "transferOwnership",
					"outputs": [],
					"stateMutability": "nonpayable",
					"type": "function"
				},
				{
					"stateMutability": "payable",
					"type": "receive"
				}
			],
			"devdoc": {
				"author": "Interchained && Lucas && Decentral && Muse",
				"kind": "dev",
				"methods": {
					"allowance(address,address)": {
						"details": "See {IERC20-allowance}."
					},
					"approve(address,uint256)": {
						"details": "See {IERC20-approve}. Requirements: - `spender` cannot be the zero address."
					},
					"balanceOf(address)": {
						"details": "See {IERC20-balanceOf}."
					},
					"decimals()": {
						"details": "Returns the number of decimals used to get its user representation. For example, if `decimals` equals `2`, a balance of `505` tokens should be displayed to a user as `5.05` (`505 / 10 ** 2`). Tokens usually opt for a value of 18, imitating the relationship between Ether and Wei. This is the value {ERC20} uses, unless this function is overridden; NOTE: This information is only used for _display_ purposes: it in no way affects any of the arithmetic of the contract, including {IERC20-balanceOf} and {IERC20-transfer}."
					},
					"decreaseAllowance(address,uint256)": {
						"details": "Atomically decreases the allowance granted to `spender` by the caller. This is an alternative to {approve} that can be used as a mitigation for problems described in {IERC20-approve}. Emits an {Approval} event indicating the updated allowance. Requirements: - `spender` cannot be the zero address. - `spender` must have allowance for the caller of at least `subtractedValue`."
					},
					"increaseAllowance(address,uint256)": {
						"details": "Atomically increases the allowance granted to `spender` by the caller. This is an alternative to {approve} that can be used as a mitigation for problems described in {IERC20-approve}. Emits an {Approval} event indicating the updated allowance. Requirements: - `spender` cannot be the zero address."
					},
					"name()": {
						"details": "Returns the name of the token."
					},
					"owner()": {
						"details": "Returns the address of the current owner."
					},
					"renounceOwnership()": {
						"details": "Leaves the contract without owner. It will not be possible to call `onlyOwner` functions anymore. Can only be called by the current owner. NOTE: Renouncing ownership will leave the contract without an owner, thereby removing any functionality that is only available to the owner."
					},
					"symbol()": {
						"details": "Returns the symbol of the token, usually a shorter version of the name."
					},
					"totalSupply()": {
						"details": "See {IERC20-totalSupply}."
					},
					"transfer(address,uint256)": {
						"details": "See {IERC20-transfer}. Requirements: - `recipient` cannot be the zero address. - the caller must have a balance of at least `amount`."
					},
					"transferFrom(address,address,uint256)": {
						"details": "See {IERC20-transferFrom}. Emits an {Approval} event indicating the updated allowance. This is not required by the EIP. See the note at the beginning of {ERC20}. Requirements: - `sender` and `recipient` cannot be the zero address. - `sender` must have a balance of at least `amount`. - the caller must have allowance for ``sender``'s tokens of at least `amount`."
					},
					"transferOwnership(address)": {
						"details": "Transfers ownership of the contract to a new account (`newOwner`). Can only be called by the current owner."
					}
				},
				"title": "Interchained's iLock contracts",
				"version": 1
			},
			"evm": {
				"assembly": "    /* \"contracts/utilities/iLock.sol\":5094:6067  contract iLock is ERC20, Ownable {... */\n  mstore(0x40, 0x80)\n    /* \"contracts/utilities/iLock.sol\":5166:5424  constructor(... */\n  callvalue\n  dup1\n  iszero\n  tag_1\n  jumpi\n  0x00\n  dup1\n  revert\ntag_1:\n  pop\n  mload(0x40)\n  sub(codesize, bytecodeSize)\n  dup1\n  bytecodeSize\n  dup4\n  codecopy\n  dup2\n  add\n  0x40\n  dup2\n  swap1\n  mstore\n  tag_2\n  swap2\n  tag_3\n  jump\t// in\ntag_2:\n    /* \"contracts/token/ERC20.sol\":694:708  _name = __name */\n  dup3\n  mload\n    /* \"contracts/utilities/iLock.sol\":5285:5289  name */\n  dup4\n  swap1\n    /* \"contracts/utilities/iLock.sol\":5291:5297  symbol */\n  dup4\n  swap1\n    /* \"contracts/token/ERC20.sol\":694:708  _name = __name */\n  tag_8\n  swap1\n    /* \"contracts/token/ERC20.sol\":694:699  _name */\n  0x03\n  swap1\n    /* \"contracts/token/ERC20.sol\":694:708  _name = __name */\n  0x20\n  dup6\n  add\n  swap1\n  tag_9\n  jump\t// in\ntag_8:\n  pop\n    /* \"contracts/token/ERC20.sol\":718:736  _symbol = __symbol */\n  dup1\n  mload\n  tag_10\n  swap1\n    /* \"contracts/token/ERC20.sol\":718:725  _symbol */\n  0x04\n  swap1\n    /* \"contracts/token/ERC20.sol\":718:736  _symbol = __symbol */\n  0x20\n  dup5\n  add\n  swap1\n  tag_9\n  jump\t// in\ntag_10:\n  pop\n    /* \"contracts/token/ERC20.sol\":604:743  constructor(... */\n  pop\n  pop\n    /* \"@openzeppelin/contracts/access/Ownable.sol\":936:968  _transferOwnership(_msgSender()) */\n  tag_12\n    /* \"@openzeppelin/contracts/access/Ownable.sol\":955:967  _msgSender() */\n  tag_13\n    /* \"@openzeppelin/contracts/access/Ownable.sol\":955:965  _msgSender */\n  shl(0x20, tag_14)\n    /* \"@openzeppelin/contracts/access/Ownable.sol\":955:967  _msgSender() */\n  0x20\n  shr\n  jump\t// in\ntag_13:\n    /* \"@openzeppelin/contracts/access/Ownable.sol\":936:954  _transferOwnership */\n  tag_15\n    /* \"@openzeppelin/contracts/access/Ownable.sol\":936:968  _transferOwnership(_msgSender()) */\n  jump\t// in\ntag_12:\n    /* \"contracts/utilities/iLock.sol\":5319:5331  _name = name */\n  dup3\n  mload\n  tag_17\n  swap1\n    /* \"contracts/utilities/iLock.sol\":5319:5324  _name */\n  0x03\n  swap1\n    /* \"contracts/utilities/iLock.sol\":5319:5331  _name = name */\n  0x20\n  dup7\n  add\n  swap1\n  tag_9\n  jump\t// in\ntag_17:\n  pop\n    /* \"contracts/utilities/iLock.sol\":5341:5357  _symbol = symbol */\n  dup2\n  mload\n  tag_18\n  swap1\n    /* \"contracts/utilities/iLock.sol\":5341:5348  _symbol */\n  0x04\n  swap1\n    /* \"contracts/utilities/iLock.sol\":5341:5357  _symbol = symbol */\n  0x20\n  dup6\n  add\n  swap1\n  tag_9\n  jump\t// in\ntag_18:\n  pop\n    /* \"contracts/utilities/iLock.sol\":5372:5417  OwnershipTransferred(address(0), _depositors) */\n  mload(0x40)\n  sub(shl(0xa0, 0x01), 0x01)\n  dup3\n  and\n  swap1\n    /* \"contracts/utilities/iLock.sol\":5401:5402  0 */\n  0x00\n  swap1\n  0x00\n  dup1\n  mload\n  0x20\n  data_9c064737b570a74c2bac5d21056d93ac53115214216cd14d4a0fc9b60be81231\n  dup4\n  codecopy\n  dup2\n  mload\n  swap2\n  mstore\n    /* \"contracts/utilities/iLock.sol\":5372:5417  OwnershipTransferred(address(0), _depositors) */\n  swap1\n    /* \"contracts/utilities/iLock.sol\":5401:5402  0 */\n  dup3\n  swap1\n    /* \"contracts/utilities/iLock.sol\":5372:5417  OwnershipTransferred(address(0), _depositors) */\n  log3\n    /* \"contracts/utilities/iLock.sol\":5166:5424  constructor(... */\n  pop\n  pop\n  pop\n    /* \"contracts/utilities/iLock.sol\":5094:6067  contract iLock is ERC20, Ownable {... */\n  jump(tag_35)\n    /* \"@openzeppelin/contracts/utils/Context.sol\":640:736  function _msgSender() internal view virtual returns (address) {... */\ntag_14:\n    /* \"@openzeppelin/contracts/utils/Context.sol\":719:729  msg.sender */\n  caller\n  swap1\n    /* \"@openzeppelin/contracts/utils/Context.sol\":640:736  function _msgSender() internal view virtual returns (address) {... */\n  jump\t// out\n    /* \"@openzeppelin/contracts/access/Ownable.sol\":2433:2620  function _transferOwnership(address newOwner) internal virtual {... */\ntag_15:\n    /* \"@openzeppelin/contracts/access/Ownable.sol\":2525:2531  _owner */\n  0x05\n  dup1\n  sload\n  sub(shl(0xa0, 0x01), 0x01)\n    /* \"@openzeppelin/contracts/access/Ownable.sol\":2541:2558  _owner = newOwner */\n  dup4\n  dup2\n  and\n  not(sub(shl(0xa0, 0x01), 0x01))\n  dup4\n  and\n  dup2\n  or\n  swap1\n  swap4\n  sstore\n    /* \"@openzeppelin/contracts/access/Ownable.sol\":2573:2613  OwnershipTransferred(oldOwner, newOwner) */\n  mload(0x40)\n    /* \"@openzeppelin/contracts/access/Ownable.sol\":2525:2531  _owner */\n  swap2\n  and\n  swap2\n    /* \"@openzeppelin/contracts/access/Ownable.sol\":2541:2558  _owner = newOwner */\n  swap1\n    /* \"@openzeppelin/contracts/access/Ownable.sol\":2525:2531  _owner */\n  dup3\n  swap1\n  0x00\n  dup1\n  mload\n  0x20\n  data_9c064737b570a74c2bac5d21056d93ac53115214216cd14d4a0fc9b60be81231\n  dup4\n  codecopy\n  dup2\n  mload\n  swap2\n  mstore\n    /* \"@openzeppelin/contracts/access/Ownable.sol\":2573:2613  OwnershipTransferred(oldOwner, newOwner) */\n  swap1\n    /* \"@openzeppelin/contracts/access/Ownable.sol\":2506:2522  address oldOwner */\n  0x00\n  swap1\n    /* \"@openzeppelin/contracts/access/Ownable.sol\":2573:2613  OwnershipTransferred(oldOwner, newOwner) */\n  log3\n    /* \"@openzeppelin/contracts/access/Ownable.sol\":2496:2620  {... */\n  pop\n    /* \"@openzeppelin/contracts/access/Ownable.sol\":2433:2620  function _transferOwnership(address newOwner) internal virtual {... */\n  pop\n  jump\t// out\n    /* \"contracts/utilities/iLock.sol\":5094:6067  contract iLock is ERC20, Ownable {... */\ntag_9:\n  dup3\n  dup1\n  sload\n  tag_22\n  swap1\n  tag_23\n  jump\t// in\ntag_22:\n  swap1\n  0x00\n  mstore\n  keccak256(0x00, 0x20)\n  swap1\n  0x1f\n  add\n  0x20\n  swap1\n  div\n  dup2\n  add\n  swap3\n  dup3\n  tag_25\n  jumpi\n  0x00\n  dup6\n  sstore\n  jump(tag_28)\ntag_25:\n  dup3\n  0x1f\n  lt\n  tag_26\n  jumpi\n  dup1\n  mload\n  not(0xff)\n  and\n  dup4\n  dup1\n  add\n  or\n  dup6\n  sstore\n  jump(tag_28)\ntag_26:\n  dup3\n  dup1\n  add\n  0x01\n  add\n  dup6\n  sstore\n  dup3\n  iszero\n  tag_28\n  jumpi\n  swap2\n  dup3\n  add\ntag_27:\n  dup3\n  dup2\n  gt\n  iszero\n  tag_28\n  jumpi\n  dup3\n  mload\n  dup3\n  sstore\n  swap2\n  0x20\n  add\n  swap2\n  swap1\n  0x01\n  add\n  swap1\n  jump(tag_27)\ntag_28:\n  pop\n  tag_29\n  swap3\n  swap2\n  pop\n  tag_30\n  jump\t// in\ntag_29:\n  pop\n  swap1\n  jump\t// out\ntag_30:\ntag_31:\n  dup1\n  dup3\n  gt\n  iszero\n  tag_29\n  jumpi\n  0x00\n  dup2\n  sstore\n  0x01\n  add\n  jump(tag_31)\n    /* \"#utility.yul\":14:141   */\ntag_33:\n    /* \"#utility.yul\":75:85   */\n  0x4e487b71\n    /* \"#utility.yul\":70:73   */\n  0xe0\n    /* \"#utility.yul\":66:86   */\n  shl\n    /* \"#utility.yul\":63:64   */\n  0x00\n    /* \"#utility.yul\":56:87   */\n  mstore\n    /* \"#utility.yul\":106:110   */\n  0x41\n    /* \"#utility.yul\":103:104   */\n  0x04\n    /* \"#utility.yul\":96:111   */\n  mstore\n    /* \"#utility.yul\":130:134   */\n  0x24\n    /* \"#utility.yul\":127:128   */\n  0x00\n    /* \"#utility.yul\":120:135   */\n  revert\n    /* \"#utility.yul\":146:1031   */\ntag_34:\n    /* \"#utility.yul\":200:205   */\n  0x00\n    /* \"#utility.yul\":253:256   */\n  dup3\n    /* \"#utility.yul\":246:250   */\n  0x1f\n    /* \"#utility.yul\":238:244   */\n  dup4\n    /* \"#utility.yul\":234:251   */\n  add\n    /* \"#utility.yul\":230:257   */\n  slt\n    /* \"#utility.yul\":220:275   */\n  tag_38\n  jumpi\n    /* \"#utility.yul\":271:272   */\n  0x00\n    /* \"#utility.yul\":268:269   */\n  dup1\n    /* \"#utility.yul\":261:273   */\n  revert\n    /* \"#utility.yul\":220:275   */\ntag_38:\n    /* \"#utility.yul\":294:307   */\n  dup2\n  mload\n  sub(shl(0x40, 0x01), 0x01)\n    /* \"#utility.yul\":356:366   */\n  dup1\n  dup3\n  gt\n    /* \"#utility.yul\":353:389   */\n  iszero\n  tag_40\n  jumpi\n    /* \"#utility.yul\":369:387   */\n  tag_40\n  tag_33\n  jump\t// in\ntag_40:\n    /* \"#utility.yul\":444:446   */\n  0x40\n    /* \"#utility.yul\":438:447   */\n  mload\n    /* \"#utility.yul\":412:414   */\n  0x1f\n    /* \"#utility.yul\":498:511   */\n  dup4\n  add\n  not(0x1f)\n    /* \"#utility.yul\":494:516   */\n  swap1\n  dup2\n  and\n    /* \"#utility.yul\":518:520   */\n  0x3f\n    /* \"#utility.yul\":490:521   */\n  add\n    /* \"#utility.yul\":486:526   */\n  and\n    /* \"#utility.yul\":474:527   */\n  dup2\n  add\n  swap1\n    /* \"#utility.yul\":542:560   */\n  dup3\n  dup3\n  gt\n    /* \"#utility.yul\":562:584   */\n  dup2\n  dup4\n  lt\n    /* \"#utility.yul\":539:585   */\n  or\n    /* \"#utility.yul\":536:608   */\n  iszero\n  tag_42\n  jumpi\n    /* \"#utility.yul\":588:606   */\n  tag_42\n  tag_33\n  jump\t// in\ntag_42:\n    /* \"#utility.yul\":628:638   */\n  dup2\n    /* \"#utility.yul\":624:626   */\n  0x40\n    /* \"#utility.yul\":617:639   */\n  mstore\n    /* \"#utility.yul\":663:665   */\n  dup4\n    /* \"#utility.yul\":655:661   */\n  dup2\n    /* \"#utility.yul\":648:666   */\n  mstore\n    /* \"#utility.yul\":685:689   */\n  0x20\n    /* \"#utility.yul\":675:689   */\n  swap3\n  pop\n    /* \"#utility.yul\":730:733   */\n  dup7\n    /* \"#utility.yul\":725:727   */\n  dup4\n    /* \"#utility.yul\":720:722   */\n  dup6\n    /* \"#utility.yul\":712:718   */\n  dup9\n    /* \"#utility.yul\":708:723   */\n  add\n    /* \"#utility.yul\":704:728   */\n  add\n    /* \"#utility.yul\":701:734   */\n  gt\n    /* \"#utility.yul\":698:751   */\n  iszero\n  tag_43\n  jumpi\n    /* \"#utility.yul\":747:748   */\n  0x00\n    /* \"#utility.yul\":744:745   */\n  dup1\n    /* \"#utility.yul\":737:749   */\n  revert\n    /* \"#utility.yul\":698:751   */\ntag_43:\n    /* \"#utility.yul\":769:770   */\n  0x00\n    /* \"#utility.yul\":760:770   */\n  swap2\n  pop\n    /* \"#utility.yul\":779:912   */\ntag_44:\n    /* \"#utility.yul\":793:795   */\n  dup4\n    /* \"#utility.yul\":790:791   */\n  dup3\n    /* \"#utility.yul\":787:796   */\n  lt\n    /* \"#utility.yul\":779:912   */\n  iszero\n  tag_46\n  jumpi\n    /* \"#utility.yul\":881:895   */\n  dup6\n  dup3\n  add\n    /* \"#utility.yul\":877:900   */\n  dup4\n  add\n    /* \"#utility.yul\":871:901   */\n  mload\n    /* \"#utility.yul\":850:864   */\n  dup2\n  dup4\n  add\n    /* \"#utility.yul\":846:869   */\n  dup5\n  add\n    /* \"#utility.yul\":839:902   */\n  mstore\n    /* \"#utility.yul\":804:814   */\n  swap1\n  dup3\n  add\n  swap1\n    /* \"#utility.yul\":779:912   */\n  jump(tag_44)\ntag_46:\n    /* \"#utility.yul\":930:932   */\n  dup4\n    /* \"#utility.yul\":927:928   */\n  dup3\n    /* \"#utility.yul\":924:933   */\n  gt\n    /* \"#utility.yul\":921:1001   */\n  iszero\n  tag_47\n  jumpi\n    /* \"#utility.yul\":989:990   */\n  0x00\n    /* \"#utility.yul\":984:986   */\n  dup4\n    /* \"#utility.yul\":979:981   */\n  dup6\n    /* \"#utility.yul\":971:977   */\n  dup4\n    /* \"#utility.yul\":967:982   */\n  add\n    /* \"#utility.yul\":963:987   */\n  add\n    /* \"#utility.yul\":956:991   */\n  mstore\n    /* \"#utility.yul\":921:1001   */\ntag_47:\n    /* \"#utility.yul\":1019:1025   */\n  swap7\n    /* \"#utility.yul\":146:1031   */\n  swap6\n  pop\n  pop\n  pop\n  pop\n  pop\n  pop\n  jump\t// out\n    /* \"#utility.yul\":1036:1773   */\ntag_3:\n    /* \"#utility.yul\":1152:1158   */\n  0x00\n    /* \"#utility.yul\":1160:1166   */\n  dup1\n    /* \"#utility.yul\":1168:1174   */\n  0x00\n    /* \"#utility.yul\":1221:1223   */\n  0x60\n    /* \"#utility.yul\":1209:1218   */\n  dup5\n    /* \"#utility.yul\":1200:1207   */\n  dup7\n    /* \"#utility.yul\":1196:1219   */\n  sub\n    /* \"#utility.yul\":1192:1224   */\n  slt\n    /* \"#utility.yul\":1189:1241   */\n  iszero\n  tag_49\n  jumpi\n    /* \"#utility.yul\":1237:1238   */\n  0x00\n    /* \"#utility.yul\":1234:1235   */\n  dup1\n    /* \"#utility.yul\":1227:1239   */\n  revert\n    /* \"#utility.yul\":1189:1241   */\ntag_49:\n    /* \"#utility.yul\":1264:1280   */\n  dup4\n  mload\n  sub(shl(0x40, 0x01), 0x01)\n    /* \"#utility.yul\":1329:1343   */\n  dup1\n  dup3\n  gt\n    /* \"#utility.yul\":1326:1360   */\n  iszero\n  tag_50\n  jumpi\n    /* \"#utility.yul\":1356:1357   */\n  0x00\n    /* \"#utility.yul\":1353:1354   */\n  dup1\n    /* \"#utility.yul\":1346:1358   */\n  revert\n    /* \"#utility.yul\":1326:1360   */\ntag_50:\n    /* \"#utility.yul\":1379:1440   */\n  tag_51\n    /* \"#utility.yul\":1432:1439   */\n  dup8\n    /* \"#utility.yul\":1423:1429   */\n  dup4\n    /* \"#utility.yul\":1412:1421   */\n  dup9\n    /* \"#utility.yul\":1408:1430   */\n  add\n    /* \"#utility.yul\":1379:1440   */\n  tag_34\n  jump\t// in\ntag_51:\n    /* \"#utility.yul\":1369:1440   */\n  swap5\n  pop\n    /* \"#utility.yul\":1486:1488   */\n  0x20\n    /* \"#utility.yul\":1475:1484   */\n  dup7\n    /* \"#utility.yul\":1471:1489   */\n  add\n    /* \"#utility.yul\":1465:1490   */\n  mload\n    /* \"#utility.yul\":1449:1490   */\n  swap2\n  pop\n    /* \"#utility.yul\":1515:1517   */\n  dup1\n    /* \"#utility.yul\":1505:1513   */\n  dup3\n    /* \"#utility.yul\":1502:1518   */\n  gt\n    /* \"#utility.yul\":1499:1535   */\n  iszero\n  tag_52\n  jumpi\n    /* \"#utility.yul\":1531:1532   */\n  0x00\n    /* \"#utility.yul\":1528:1529   */\n  dup1\n    /* \"#utility.yul\":1521:1533   */\n  revert\n    /* \"#utility.yul\":1499:1535   */\ntag_52:\n  pop\n    /* \"#utility.yul\":1554:1617   */\n  tag_53\n    /* \"#utility.yul\":1609:1616   */\n  dup7\n    /* \"#utility.yul\":1598:1606   */\n  dup3\n    /* \"#utility.yul\":1587:1596   */\n  dup8\n    /* \"#utility.yul\":1583:1607   */\n  add\n    /* \"#utility.yul\":1554:1617   */\n  tag_34\n  jump\t// in\ntag_53:\n    /* \"#utility.yul\":1660:1662   */\n  0x40\n    /* \"#utility.yul\":1645:1663   */\n  dup7\n  add\n    /* \"#utility.yul\":1639:1664   */\n  mload\n    /* \"#utility.yul\":1544:1617   */\n  swap1\n  swap4\n  pop\n    /* \"#utility.yul\":1639:1664   */\n  swap1\n  pop\n  sub(shl(0xa0, 0x01), 0x01)\n    /* \"#utility.yul\":1693:1724   */\n  dup2\n  and\n    /* \"#utility.yul\":1683:1725   */\n  dup2\n  eq\n    /* \"#utility.yul\":1673:1743   */\n  tag_54\n  jumpi\n    /* \"#utility.yul\":1739:1740   */\n  0x00\n    /* \"#utility.yul\":1736:1737   */\n  dup1\n    /* \"#utility.yul\":1729:1741   */\n  revert\n    /* \"#utility.yul\":1673:1743   */\ntag_54:\n    /* \"#utility.yul\":1762:1767   */\n  dup1\n    /* \"#utility.yul\":1752:1767   */\n  swap2\n  pop\n  pop\n    /* \"#utility.yul\":1036:1773   */\n  swap3\n  pop\n  swap3\n  pop\n  swap3\n  jump\t// out\n    /* \"#utility.yul\":1778:2158   */\ntag_23:\n    /* \"#utility.yul\":1857:1858   */\n  0x01\n    /* \"#utility.yul\":1853:1865   */\n  dup2\n  dup2\n  shr\n  swap1\n    /* \"#utility.yul\":1900:1912   */\n  dup3\n  and\n  dup1\n    /* \"#utility.yul\":1921:1982   */\n  tag_56\n  jumpi\n    /* \"#utility.yul\":1975:1979   */\n  0x7f\n    /* \"#utility.yul\":1967:1973   */\n  dup3\n    /* \"#utility.yul\":1963:1980   */\n  and\n    /* \"#utility.yul\":1953:1980   */\n  swap2\n  pop\n    /* \"#utility.yul\":1921:1982   */\ntag_56:\n    /* \"#utility.yul\":2028:2030   */\n  0x20\n    /* \"#utility.yul\":2020:2026   */\n  dup3\n    /* \"#utility.yul\":2017:2031   */\n  lt\n    /* \"#utility.yul\":1997:2015   */\n  dup2\n    /* \"#utility.yul\":1994:2032   */\n  sub\n    /* \"#utility.yul\":1991:2152   */\n  tag_57\n  jumpi\n    /* \"#utility.yul\":2074:2084   */\n  0x4e487b71\n    /* \"#utility.yul\":2069:2072   */\n  0xe0\n    /* \"#utility.yul\":2065:2085   */\n  shl\n    /* \"#utility.yul\":2062:2063   */\n  0x00\n    /* \"#utility.yul\":2055:2086   */\n  mstore\n    /* \"#utility.yul\":2109:2113   */\n  0x22\n    /* \"#utility.yul\":2106:2107   */\n  0x04\n    /* \"#utility.yul\":2099:2114   */\n  mstore\n    /* \"#utility.yul\":2137:2141   */\n  0x24\n    /* \"#utility.yul\":2134:2135   */\n  0x00\n    /* \"#utility.yul\":2127:2142   */\n  revert\n    /* \"#utility.yul\":1991:2152   */\ntag_57:\n  pop\n    /* \"#utility.yul\":1778:2158   */\n  swap2\n  swap1\n  pop\n  jump\t// out\ntag_35:\n    /* \"contracts/utilities/iLock.sol\":5094:6067  contract iLock is ERC20, Ownable {... */\n  dataSize(sub_0)\n  dup1\n  dataOffset(sub_0)\n  0x00\n  codecopy\n  0x00\n  return\nstop\ndata_9c064737b570a74c2bac5d21056d93ac53115214216cd14d4a0fc9b60be81231 8be0079c531659141344cd1fd0a4f28419497f9722a3daafe3b4186f6b6457e0\n\nsub_0: assembly {\n        /* \"contracts/utilities/iLock.sol\":5094:6067  contract iLock is ERC20, Ownable {... */\n      mstore(0x40, 0x80)\n      jumpi(tag_1, lt(calldatasize, 0x04))\n      shr(0xe0, calldataload(0x00))\n      dup1\n      0x715018a6\n      gt\n      tag_22\n      jumpi\n      dup1\n      0x715018a6\n      eq\n      tag_12\n      jumpi\n      dup1\n      0x8da5cb5b\n      eq\n      tag_13\n      jumpi\n      dup1\n      0x95d89b41\n      eq\n      tag_14\n      jumpi\n      dup1\n      0xa457c2d7\n      eq\n      tag_15\n      jumpi\n      dup1\n      0xa9059cbb\n      eq\n      tag_16\n      jumpi\n      dup1\n      0xb09f1266\n      eq\n      tag_17\n      jumpi\n      dup1\n      0xb90306ad\n      eq\n      tag_18\n      jumpi\n      dup1\n      0xd28d8852\n      eq\n      tag_19\n      jumpi\n      dup1\n      0xdd62ed3e\n      eq\n      tag_20\n      jumpi\n      dup1\n      0xf2fde38b\n      eq\n      tag_21\n      jumpi\n      stop\n    tag_22:\n      dup1\n      0x06fdde03\n      eq\n      tag_3\n      jumpi\n      dup1\n      0x095ea7b3\n      eq\n      tag_4\n      jumpi\n      dup1\n      0x0f6798a5\n      eq\n      tag_5\n      jumpi\n      dup1\n      0x18160ddd\n      eq\n      tag_6\n      jumpi\n      dup1\n      0x23b872dd\n      eq\n      tag_7\n      jumpi\n      dup1\n      0x28e1a604\n      eq\n      tag_8\n      jumpi\n      dup1\n      0x313ce567\n      eq\n      tag_9\n      jumpi\n      dup1\n      0x39509351\n      eq\n      tag_10\n      jumpi\n      dup1\n      0x70a08231\n      eq\n      tag_11\n      jumpi\n      stop\n    tag_1:\n      jumpi(tag_2, calldatasize)\n      stop\n    tag_2:\n      stop\n        /* \"contracts/token/ERC20.sol\":895:993  function name() public view virtual override returns (string memory) {... */\n    tag_3:\n      callvalue\n      dup1\n      iszero\n      tag_27\n      jumpi\n      0x00\n      dup1\n      revert\n    tag_27:\n      pop\n      tag_28\n      tag_29\n      jump\t// in\n    tag_28:\n      mload(0x40)\n      tag_30\n      swap2\n      swap1\n      tag_31\n      jump\t// in\n    tag_30:\n      mload(0x40)\n      dup1\n      swap2\n      sub\n      swap1\n      return\n        /* \"contracts/token/ERC20.sol\":3114:3314  function approve(address spender, uint256 amount)... */\n    tag_4:\n      callvalue\n      dup1\n      iszero\n      tag_32\n      jumpi\n      0x00\n      dup1\n      revert\n    tag_32:\n      pop\n      tag_33\n      tag_34\n      calldatasize\n      0x04\n      tag_35\n      jump\t// in\n    tag_34:\n      tag_36\n      jump\t// in\n    tag_33:\n      mload(0x40)\n        /* \"#utility.yul\":1237:1251   */\n      swap1\n      iszero\n        /* \"#utility.yul\":1230:1252   */\n      iszero\n        /* \"#utility.yul\":1212:1253   */\n      dup2\n      mstore\n        /* \"#utility.yul\":1200:1202   */\n      0x20\n        /* \"#utility.yul\":1185:1203   */\n      add\n        /* \"contracts/token/ERC20.sol\":3114:3314  function approve(address spender, uint256 amount)... */\n      tag_30\n        /* \"#utility.yul\":1072:1259   */\n      jump\n        /* \"contracts/utilities/iLock.sol\":5535:5845  function Mint(address payable holder, uint256 supply) public virtual {... */\n    tag_5:\n      callvalue\n      dup1\n      iszero\n      tag_39\n      jumpi\n      0x00\n      dup1\n      revert\n    tag_39:\n      pop\n      tag_2\n      tag_41\n      calldatasize\n      0x04\n      tag_35\n      jump\t// in\n    tag_41:\n      tag_43\n      jump\t// in\n        /* \"contracts/token/ERC20.sol\":1983:2089  function totalSupply() public view virtual override returns (uint256) {... */\n    tag_6:\n      callvalue\n      dup1\n      iszero\n      tag_44\n      jumpi\n      0x00\n      dup1\n      revert\n    tag_44:\n      pop\n        /* \"contracts/token/ERC20.sol\":2070:2082  _totalSupply */\n      sload(0x02)\n        /* \"contracts/token/ERC20.sol\":1983:2089  function totalSupply() public view virtual override returns (uint256) {... */\n    tag_45:\n      mload(0x40)\n        /* \"#utility.yul\":1738:1763   */\n      swap1\n      dup2\n      mstore\n        /* \"#utility.yul\":1726:1728   */\n      0x20\n        /* \"#utility.yul\":1711:1729   */\n      add\n        /* \"contracts/token/ERC20.sol\":1983:2089  function totalSupply() public view virtual override returns (uint256) {... */\n      tag_30\n        /* \"#utility.yul\":1592:1769   */\n      jump\n        /* \"contracts/token/ERC20.sol\":3781:4233  function transferFrom(... */\n    tag_7:\n      callvalue\n      dup1\n      iszero\n      tag_49\n      jumpi\n      0x00\n      dup1\n      revert\n    tag_49:\n      pop\n      tag_33\n      tag_51\n      calldatasize\n      0x04\n      tag_52\n      jump\t// in\n    tag_51:\n      tag_53\n      jump\t// in\n        /* \"contracts/utilities/iLock.sol\":5956:6065  function BurnFrom(address from, uint256 supply) public virtual onlyOwner {... */\n    tag_8:\n      callvalue\n      dup1\n      iszero\n      tag_55\n      jumpi\n      0x00\n      dup1\n      revert\n    tag_55:\n      pop\n      tag_2\n      tag_57\n      calldatasize\n      0x04\n      tag_35\n      jump\t// in\n    tag_57:\n      tag_58\n      jump\t// in\n        /* \"contracts/token/ERC20.sol\":1832:1923  function decimals() public view virtual override returns (uint8) {... */\n    tag_9:\n      callvalue\n      dup1\n      iszero\n      tag_59\n      jumpi\n      0x00\n      dup1\n      revert\n    tag_59:\n      pop\n      mload(0x40)\n        /* \"contracts/token/ERC20.sol\":1914:1916  18 */\n      0x12\n        /* \"#utility.yul\":2377:2413   */\n      dup2\n      mstore\n        /* \"#utility.yul\":2365:2367   */\n      0x20\n        /* \"#utility.yul\":2350:2368   */\n      add\n        /* \"contracts/token/ERC20.sol\":1832:1923  function decimals() public view virtual override returns (uint8) {... */\n      tag_30\n        /* \"#utility.yul\":2235:2419   */\n      jump\n        /* \"contracts/token/ERC20.sol\":4628:4910  function increaseAllowance(address spender, uint256 addedValue)... */\n    tag_10:\n      callvalue\n      dup1\n      iszero\n      tag_64\n      jumpi\n      0x00\n      dup1\n      revert\n    tag_64:\n      pop\n      tag_33\n      tag_66\n      calldatasize\n      0x04\n      tag_35\n      jump\t// in\n    tag_66:\n      tag_67\n      jump\t// in\n        /* \"contracts/token/ERC20.sol\":2147:2316  function balanceOf(address account)... */\n    tag_11:\n      callvalue\n      dup1\n      iszero\n      tag_69\n      jumpi\n      0x00\n      dup1\n      revert\n    tag_69:\n      pop\n      tag_45\n      tag_71\n      calldatasize\n      0x04\n      tag_72\n      jump\t// in\n    tag_71:\n      sub(shl(0xa0, 0x01), 0x01)\n        /* \"contracts/token/ERC20.sol\":2291:2309  _balances[account] */\n      and\n        /* \"contracts/token/ERC20.sol\":2261:2268  uint256 */\n      0x00\n        /* \"contracts/token/ERC20.sol\":2291:2309  _balances[account] */\n      swap1\n      dup2\n      mstore\n      0x20\n      dup2\n      swap1\n      mstore\n      0x40\n      swap1\n      keccak256\n      sload\n      swap1\n        /* \"contracts/token/ERC20.sol\":2147:2316  function balanceOf(address account)... */\n      jump\n        /* \"@openzeppelin/contracts/access/Ownable.sol\":1831:1932  function renounceOwnership() public virtual onlyOwner {... */\n    tag_12:\n      callvalue\n      dup1\n      iszero\n      tag_75\n      jumpi\n      0x00\n      dup1\n      revert\n    tag_75:\n      pop\n      tag_2\n      tag_77\n      jump\t// in\n        /* \"@openzeppelin/contracts/access/Ownable.sol\":1201:1286  function owner() public view virtual returns (address) {... */\n    tag_13:\n      callvalue\n      dup1\n      iszero\n      tag_78\n      jumpi\n      0x00\n      dup1\n      revert\n    tag_78:\n      pop\n        /* \"@openzeppelin/contracts/access/Ownable.sol\":1273:1279  _owner */\n      and(sub(shl(0xa0, 0x01), 0x01), sload(0x05))\n        /* \"@openzeppelin/contracts/access/Ownable.sol\":1201:1286  function owner() public view virtual returns (address) {... */\n      mload(0x40)\n      tag_30\n      swap2\n      swap1\n      tag_82\n      jump\t// in\n        /* \"contracts/token/ERC20.sol\":1106:1208  function symbol() public view virtual override returns (string memory) {... */\n    tag_14:\n      callvalue\n      dup1\n      iszero\n      tag_83\n      jumpi\n      0x00\n      dup1\n      revert\n    tag_83:\n      pop\n      tag_28\n      tag_85\n      jump\t// in\n        /* \"contracts/token/ERC20.sol\":5397:5807  function decreaseAllowance(address spender, uint256 subtractedValue)... */\n    tag_15:\n      callvalue\n      dup1\n      iszero\n      tag_87\n      jumpi\n      0x00\n      dup1\n      revert\n    tag_87:\n      pop\n      tag_33\n      tag_89\n      calldatasize\n      0x04\n      tag_35\n      jump\t// in\n    tag_89:\n      tag_90\n      jump\t// in\n        /* \"contracts/token/ERC20.sol\":2519:2725  function transfer(address recipient, uint256 amount)... */\n    tag_16:\n      callvalue\n      dup1\n      iszero\n      tag_92\n      jumpi\n      0x00\n      dup1\n      revert\n    tag_92:\n      pop\n      tag_33\n      tag_94\n      calldatasize\n      0x04\n      tag_35\n      jump\t// in\n    tag_94:\n      tag_95\n      jump\t// in\n        /* \"contracts/token/ERC20.sol\":576:597  string public _symbol */\n    tag_17:\n      callvalue\n      dup1\n      iszero\n      tag_97\n      jumpi\n      0x00\n      dup1\n      revert\n    tag_97:\n      pop\n      tag_28\n      tag_99\n      jump\t// in\n        /* \"contracts/utilities/iLock.sol\":5851:5950  function Burn(uint256 supply) public virtual onlyOwner {... */\n    tag_18:\n      callvalue\n      dup1\n      iszero\n      tag_101\n      jumpi\n      0x00\n      dup1\n      revert\n    tag_101:\n      pop\n      tag_2\n      tag_103\n      calldatasize\n      0x04\n      tag_104\n      jump\t// in\n    tag_103:\n      tag_105\n      jump\t// in\n        /* \"contracts/token/ERC20.sol\":551:570  string public _name */\n    tag_19:\n      callvalue\n      dup1\n      iszero\n      tag_106\n      jumpi\n      0x00\n      dup1\n      revert\n    tag_106:\n      pop\n      tag_28\n      tag_108\n      jump\t// in\n        /* \"contracts/token/ERC20.sol\":2783:2976  function allowance(address owner, address spender)... */\n    tag_20:\n      callvalue\n      dup1\n      iszero\n      tag_110\n      jumpi\n      0x00\n      dup1\n      revert\n    tag_110:\n      pop\n      tag_45\n      tag_112\n      calldatasize\n      0x04\n      tag_113\n      jump\t// in\n    tag_112:\n      sub(shl(0xa0, 0x01), 0x01)\n        /* \"contracts/token/ERC20.sol\":2942:2960  _allowances[owner] */\n      swap2\n      dup3\n      and\n        /* \"contracts/token/ERC20.sol\":2912:2919  uint256 */\n      0x00\n        /* \"contracts/token/ERC20.sol\":2942:2960  _allowances[owner] */\n      swap1\n      dup2\n      mstore\n        /* \"contracts/token/ERC20.sol\":2942:2953  _allowances */\n      0x01\n        /* \"contracts/token/ERC20.sol\":2942:2960  _allowances[owner] */\n      0x20\n      swap1\n      dup2\n      mstore\n      0x40\n      dup1\n      dup4\n      keccak256\n        /* \"contracts/token/ERC20.sol\":2942:2969  _allowances[owner][spender] */\n      swap4\n      swap1\n      swap5\n      and\n      dup3\n      mstore\n      swap2\n      swap1\n      swap2\n      mstore\n      keccak256\n      sload\n      swap1\n        /* \"contracts/token/ERC20.sol\":2783:2976  function allowance(address owner, address spender)... */\n      jump\n        /* \"@openzeppelin/contracts/access/Ownable.sol\":2081:2279  function transferOwnership(address newOwner) public virtual onlyOwner {... */\n    tag_21:\n      callvalue\n      dup1\n      iszero\n      tag_116\n      jumpi\n      0x00\n      dup1\n      revert\n    tag_116:\n      pop\n      tag_2\n      tag_118\n      calldatasize\n      0x04\n      tag_72\n      jump\t// in\n    tag_118:\n      tag_119\n      jump\t// in\n        /* \"contracts/token/ERC20.sol\":895:993  function name() public view virtual override returns (string memory) {... */\n    tag_29:\n        /* \"contracts/token/ERC20.sol\":949:962  string memory */\n      0x60\n        /* \"contracts/token/ERC20.sol\":981:986  _name */\n      0x03\n        /* \"contracts/token/ERC20.sol\":974:986  return _name */\n      dup1\n      sload\n      tag_121\n      swap1\n      tag_122\n      jump\t// in\n    tag_121:\n      dup1\n      0x1f\n      add\n      0x20\n      dup1\n      swap2\n      div\n      mul\n      0x20\n      add\n      mload(0x40)\n      swap1\n      dup2\n      add\n      0x40\n      mstore\n      dup1\n      swap3\n      swap2\n      swap1\n      dup2\n      dup2\n      mstore\n      0x20\n      add\n      dup3\n      dup1\n      sload\n      tag_123\n      swap1\n      tag_122\n      jump\t// in\n    tag_123:\n      dup1\n      iszero\n      tag_124\n      jumpi\n      dup1\n      0x1f\n      lt\n      tag_125\n      jumpi\n      0x0100\n      dup1\n      dup4\n      sload\n      div\n      mul\n      dup4\n      mstore\n      swap2\n      0x20\n      add\n      swap2\n      jump(tag_124)\n    tag_125:\n      dup3\n      add\n      swap2\n      swap1\n      0x00\n      mstore\n      keccak256(0x00, 0x20)\n      swap1\n    tag_126:\n      dup2\n      sload\n      dup2\n      mstore\n      swap1\n      0x01\n      add\n      swap1\n      0x20\n      add\n      dup1\n      dup4\n      gt\n      tag_126\n      jumpi\n      dup3\n      swap1\n      sub\n      0x1f\n      and\n      dup3\n      add\n      swap2\n    tag_124:\n      pop\n      pop\n      pop\n      pop\n      pop\n      swap1\n      pop\n        /* \"contracts/token/ERC20.sol\":895:993  function name() public view virtual override returns (string memory) {... */\n      swap1\n      jump\t// out\n        /* \"contracts/token/ERC20.sol\":3114:3314  function approve(address spender, uint256 amount)... */\n    tag_36:\n        /* \"contracts/token/ERC20.sol\":3229:3233  bool */\n      0x00\n        /* \"contracts/token/ERC20.sol\":3249:3286  _approve(msg.sender, spender, amount) */\n      tag_128\n        /* \"contracts/token/ERC20.sol\":3258:3268  msg.sender */\n      caller\n        /* \"contracts/token/ERC20.sol\":3270:3277  spender */\n      dup5\n        /* \"contracts/token/ERC20.sol\":3279:3285  amount */\n      dup5\n        /* \"contracts/token/ERC20.sol\":3249:3257  _approve */\n      tag_129\n        /* \"contracts/token/ERC20.sol\":3249:3286  _approve(msg.sender, spender, amount) */\n      jump\t// in\n    tag_128:\n      pop\n        /* \"contracts/token/ERC20.sol\":3303:3307  true */\n      0x01\n        /* \"contracts/token/ERC20.sol\":3114:3314  function approve(address spender, uint256 amount)... */\n      swap3\n      swap2\n      pop\n      pop\n      jump\t// out\n        /* \"contracts/utilities/iLock.sol\":5535:5845  function Mint(address payable holder, uint256 supply) public virtual {... */\n    tag_43:\n        /* \"contracts/utilities/iLock.sol\":5614:5624  bool whale */\n      0x00\n        /* \"contracts/utilities/iLock.sol\":5777:5782  10000 */\n      0x2710\n        /* \"contracts/utilities/iLock.sol\":5728:5732  this */\n      address\n      sub(shl(0xa0, 0x01), 0x01)\n        /* \"contracts/utilities/iLock.sol\":5713:5746  IERC20(address(this)).totalSupply */\n      and\n      0x18160ddd\n        /* \"contracts/utilities/iLock.sol\":5713:5748  IERC20(address(this)).totalSupply() */\n      mload(0x40)\n      dup2\n      0xffffffff\n      and\n      0xe0\n      shl\n      dup2\n      mstore\n      0x04\n      add\n      0x20\n      mload(0x40)\n      dup1\n      dup4\n      sub\n      dup2\n      dup7\n      gas\n      staticcall\n      iszero\n      dup1\n      iszero\n      tag_132\n      jumpi\n      returndatasize\n      0x00\n      dup1\n      returndatacopy\n      revert(0x00, returndatasize)\n    tag_132:\n      pop\n      pop\n      pop\n      pop\n      mload(0x40)\n      returndatasize\n      not(0x1f)\n      0x1f\n      dup3\n      add\n      and\n      dup3\n      add\n      dup1\n      0x40\n      mstore\n      pop\n      dup2\n      add\n      swap1\n      tag_133\n      swap2\n      swap1\n      tag_134\n      jump\t// in\n    tag_133:\n        /* \"contracts/utilities/iLock.sol\":5689:5749  uint256(5100) * uint256(IERC20(address(this)).totalSupply()) */\n      tag_135\n      swap1\n        /* \"contracts/utilities/iLock.sol\":5697:5701  5100 */\n      0x13ec\n        /* \"contracts/utilities/iLock.sol\":5689:5749  uint256(5100) * uint256(IERC20(address(this)).totalSupply()) */\n      tag_136\n      jump\t// in\n    tag_135:\n        /* \"contracts/utilities/iLock.sol\":5688:5783  (uint256(5100) * uint256(IERC20(address(this)).totalSupply())) /... */\n      tag_137\n      swap2\n      swap1\n      tag_138\n      jump\t// in\n    tag_137:\n        /* \"contracts/utilities/iLock.sol\":5627:5672  IERC20(address(this)).balanceOf(_msgSender()) */\n      mload(0x40)\n      shl(0xe0, 0x70a08231)\n      dup2\n      mstore\n        /* \"contracts/utilities/iLock.sol\":5642:5646  this */\n      address\n      swap1\n        /* \"contracts/utilities/iLock.sol\":5627:5658  IERC20(address(this)).balanceOf */\n      0x70a08231\n      swap1\n        /* \"contracts/utilities/iLock.sol\":5627:5672  IERC20(address(this)).balanceOf(_msgSender()) */\n      tag_141\n      swap1\n        /* \"@openzeppelin/contracts/utils/Context.sol\":719:729  msg.sender */\n      caller\n      swap1\n        /* \"contracts/utilities/iLock.sol\":5627:5672  IERC20(address(this)).balanceOf(_msgSender()) */\n      0x04\n      add\n      tag_82\n      jump\t// in\n    tag_141:\n      0x20\n      mload(0x40)\n      dup1\n      dup4\n      sub\n      dup2\n      dup7\n      gas\n      staticcall\n      iszero\n      dup1\n      iszero\n      tag_143\n      jumpi\n      returndatasize\n      0x00\n      dup1\n      returndatacopy\n      revert(0x00, returndatasize)\n    tag_143:\n      pop\n      pop\n      pop\n      pop\n      mload(0x40)\n      returndatasize\n      not(0x1f)\n      0x1f\n      dup3\n      add\n      and\n      dup3\n      add\n      dup1\n      0x40\n      mstore\n      pop\n      dup2\n      add\n      swap1\n      tag_144\n      swap2\n      swap1\n      tag_134\n      jump\t// in\n    tag_144:\n        /* \"contracts/utilities/iLock.sol\":5627:5783  IERC20(address(this)).balanceOf(_msgSender()) >=... */\n      lt\n      iszero\n        /* \"contracts/utilities/iLock.sol\":5614:5783  bool whale = IERC20(address(this)).balanceOf(_msgSender()) >=... */\n      swap1\n      pop\n        /* \"contracts/utilities/iLock.sol\":5801:5806  whale */\n      dup1\n        /* \"contracts/utilities/iLock.sol\":5793:5807  require(whale) */\n      tag_145\n      jumpi\n      0x00\n      dup1\n      revert\n    tag_145:\n        /* \"contracts/utilities/iLock.sol\":5817:5838  _mint(holder, supply) */\n      tag_146\n        /* \"contracts/utilities/iLock.sol\":5823:5829  holder */\n      dup4\n        /* \"contracts/utilities/iLock.sol\":5831:5837  supply */\n      dup4\n        /* \"contracts/utilities/iLock.sol\":5817:5822  _mint */\n      tag_147\n        /* \"contracts/utilities/iLock.sol\":5817:5838  _mint(holder, supply) */\n      jump\t// in\n    tag_146:\n        /* \"contracts/utilities/iLock.sol\":5604:5845  {... */\n      pop\n        /* \"contracts/utilities/iLock.sol\":5535:5845  function Mint(address payable holder, uint256 supply) public virtual {... */\n      pop\n      pop\n      jump\t// out\n        /* \"contracts/token/ERC20.sol\":3781:4233  function transferFrom(... */\n    tag_53:\n        /* \"contracts/token/ERC20.sol\":3917:3921  bool */\n      0x00\n        /* \"contracts/token/ERC20.sol\":3933:3969  _transfer(sender, recipient, amount) */\n      tag_150\n        /* \"contracts/token/ERC20.sol\":3943:3949  sender */\n      dup5\n        /* \"contracts/token/ERC20.sol\":3951:3960  recipient */\n      dup5\n        /* \"contracts/token/ERC20.sol\":3962:3968  amount */\n      dup5\n        /* \"contracts/token/ERC20.sol\":3933:3942  _transfer */\n      tag_151\n        /* \"contracts/token/ERC20.sol\":3933:3969  _transfer(sender, recipient, amount) */\n      jump\t// in\n    tag_150:\n      sub(shl(0xa0, 0x01), 0x01)\n        /* \"contracts/token/ERC20.sol\":4007:4026  _allowances[sender] */\n      dup5\n      and\n        /* \"contracts/token/ERC20.sol\":3980:4004  uint256 currentAllowance */\n      0x00\n        /* \"contracts/token/ERC20.sol\":4007:4026  _allowances[sender] */\n      swap1\n      dup2\n      mstore\n        /* \"contracts/token/ERC20.sol\":4007:4018  _allowances */\n      0x01\n        /* \"contracts/token/ERC20.sol\":4007:4026  _allowances[sender] */\n      0x20\n      swap1\n      dup2\n      mstore\n      0x40\n      dup1\n      dup4\n      keccak256\n        /* \"contracts/token/ERC20.sol\":4027:4037  msg.sender */\n      caller\n        /* \"contracts/token/ERC20.sol\":4007:4038  _allowances[sender][msg.sender] */\n      dup5\n      mstore\n      swap1\n      swap2\n      mstore\n      swap1\n      keccak256\n      sload\n        /* \"contracts/token/ERC20.sol\":4069:4095  currentAllowance >= amount */\n      dup3\n      dup2\n      lt\n      iszero\n        /* \"contracts/token/ERC20.sol\":4048:4105  require(... */\n      tag_152\n      jumpi\n      0x00\n      dup1\n      revert\n    tag_152:\n        /* \"contracts/token/ERC20.sol\":4139:4194  _approve(sender, msg.sender, currentAllowance - amount) */\n      tag_153\n        /* \"contracts/token/ERC20.sol\":4148:4154  sender */\n      dup6\n        /* \"contracts/token/ERC20.sol\":4156:4166  msg.sender */\n      caller\n        /* \"contracts/token/ERC20.sol\":4187:4193  amount */\n      dup6\n        /* \"contracts/token/ERC20.sol\":4168:4184  currentAllowance */\n      dup5\n        /* \"contracts/token/ERC20.sol\":4168:4193  currentAllowance - amount */\n      sub\n        /* \"contracts/token/ERC20.sol\":4139:4147  _approve */\n      tag_129\n        /* \"contracts/token/ERC20.sol\":4139:4194  _approve(sender, msg.sender, currentAllowance - amount) */\n      jump\t// in\n    tag_153:\n      pop\n        /* \"contracts/token/ERC20.sol\":4222:4226  true */\n      0x01\n      swap5\n        /* \"contracts/token/ERC20.sol\":3781:4233  function transferFrom(... */\n      swap4\n      pop\n      pop\n      pop\n      pop\n      jump\t// out\n        /* \"contracts/utilities/iLock.sol\":5956:6065  function BurnFrom(address from, uint256 supply) public virtual onlyOwner {... */\n    tag_58:\n        /* \"@openzeppelin/contracts/access/Ownable.sol\":1094:1107  _checkOwner() */\n      tag_155\n        /* \"@openzeppelin/contracts/access/Ownable.sol\":1094:1105  _checkOwner */\n      tag_156\n        /* \"@openzeppelin/contracts/access/Ownable.sol\":1094:1107  _checkOwner() */\n      jump\t// in\n    tag_155:\n        /* \"contracts/utilities/iLock.sol\":6039:6058  _burn(from, supply) */\n      tag_158\n        /* \"contracts/utilities/iLock.sol\":6045:6049  from */\n      dup3\n        /* \"contracts/utilities/iLock.sol\":6051:6057  supply */\n      dup3\n        /* \"contracts/utilities/iLock.sol\":6039:6044  _burn */\n      tag_159\n        /* \"contracts/utilities/iLock.sol\":6039:6058  _burn(from, supply) */\n      jump\t// in\n    tag_158:\n        /* \"contracts/utilities/iLock.sol\":5956:6065  function BurnFrom(address from, uint256 supply) public virtual onlyOwner {... */\n      pop\n      pop\n      jump\t// out\n        /* \"contracts/token/ERC20.sol\":4628:4910  function increaseAllowance(address spender, uint256 addedValue)... */\n    tag_67:\n        /* \"contracts/token/ERC20.sol\":4782:4792  msg.sender */\n      caller\n        /* \"contracts/token/ERC20.sol\":4740:4744  bool */\n      0x00\n        /* \"contracts/token/ERC20.sol\":4827:4850  _allowances[msg.sender] */\n      dup2\n      dup2\n      mstore\n        /* \"contracts/token/ERC20.sol\":4827:4838  _allowances */\n      0x01\n        /* \"contracts/token/ERC20.sol\":4827:4850  _allowances[msg.sender] */\n      0x20\n      swap1\n      dup2\n      mstore\n      0x40\n      dup1\n      dup4\n      keccak256\n      sub(shl(0xa0, 0x01), 0x01)\n        /* \"contracts/token/ERC20.sol\":4827:4859  _allowances[msg.sender][spender] */\n      dup8\n      and\n      dup5\n      mstore\n      swap1\n      swap2\n      mstore\n      dup2\n      keccak256\n      sload\n        /* \"contracts/token/ERC20.sol\":4740:4744  bool */\n      swap1\n      swap2\n        /* \"contracts/token/ERC20.sol\":4760:4882  _approve(... */\n      tag_128\n      swap2\n        /* \"contracts/token/ERC20.sol\":4806:4813  spender */\n      dup6\n      swap1\n        /* \"contracts/token/ERC20.sol\":4827:4872  _allowances[msg.sender][spender] + addedValue */\n      tag_163\n      swap1\n        /* \"contracts/token/ERC20.sol\":4862:4872  addedValue */\n      dup7\n      swap1\n        /* \"contracts/token/ERC20.sol\":4827:4872  _allowances[msg.sender][spender] + addedValue */\n      tag_164\n      jump\t// in\n    tag_163:\n        /* \"contracts/token/ERC20.sol\":4760:4768  _approve */\n      tag_129\n        /* \"contracts/token/ERC20.sol\":4760:4882  _approve(... */\n      jump\t// in\n        /* \"@openzeppelin/contracts/access/Ownable.sol\":1831:1932  function renounceOwnership() public virtual onlyOwner {... */\n    tag_77:\n        /* \"@openzeppelin/contracts/access/Ownable.sol\":1094:1107  _checkOwner() */\n      tag_167\n        /* \"@openzeppelin/contracts/access/Ownable.sol\":1094:1105  _checkOwner */\n      tag_156\n        /* \"@openzeppelin/contracts/access/Ownable.sol\":1094:1107  _checkOwner() */\n      jump\t// in\n    tag_167:\n        /* \"@openzeppelin/contracts/access/Ownable.sol\":1895:1925  _transferOwnership(address(0)) */\n      tag_169\n        /* \"@openzeppelin/contracts/access/Ownable.sol\":1922:1923  0 */\n      0x00\n        /* \"@openzeppelin/contracts/access/Ownable.sol\":1895:1913  _transferOwnership */\n      tag_170\n        /* \"@openzeppelin/contracts/access/Ownable.sol\":1895:1925  _transferOwnership(address(0)) */\n      jump\t// in\n    tag_169:\n        /* \"@openzeppelin/contracts/access/Ownable.sol\":1831:1932  function renounceOwnership() public virtual onlyOwner {... */\n      jump\t// out\n        /* \"contracts/token/ERC20.sol\":1106:1208  function symbol() public view virtual override returns (string memory) {... */\n    tag_85:\n        /* \"contracts/token/ERC20.sol\":1162:1175  string memory */\n      0x60\n        /* \"contracts/token/ERC20.sol\":1194:1201  _symbol */\n      0x04\n        /* \"contracts/token/ERC20.sol\":1187:1201  return _symbol */\n      dup1\n      sload\n      tag_121\n      swap1\n      tag_122\n      jump\t// in\n        /* \"contracts/token/ERC20.sol\":5397:5807  function decreaseAllowance(address spender, uint256 subtractedValue)... */\n    tag_90:\n        /* \"contracts/token/ERC20.sol\":5573:5583  msg.sender */\n      caller\n        /* \"contracts/token/ERC20.sol\":5514:5518  bool */\n      0x00\n        /* \"contracts/token/ERC20.sol\":5561:5584  _allowances[msg.sender] */\n      swap1\n      dup2\n      mstore\n        /* \"contracts/token/ERC20.sol\":5561:5572  _allowances */\n      0x01\n        /* \"contracts/token/ERC20.sol\":5561:5584  _allowances[msg.sender] */\n      0x20\n      swap1\n      dup2\n      mstore\n      0x40\n      dup1\n      dup4\n      keccak256\n      sub(shl(0xa0, 0x01), 0x01)\n        /* \"contracts/token/ERC20.sol\":5561:5593  _allowances[msg.sender][spender] */\n      dup7\n      and\n      dup5\n      mstore\n      swap1\n      swap2\n      mstore\n      dup2\n      keccak256\n      sload\n        /* \"contracts/token/ERC20.sol\":5624:5659  currentAllowance >= subtractedValue */\n      dup3\n      dup2\n      lt\n      iszero\n        /* \"contracts/token/ERC20.sol\":5603:5669  require(... */\n      tag_179\n      jumpi\n      0x00\n      dup1\n      revert\n    tag_179:\n        /* \"contracts/token/ERC20.sol\":5703:5768  _approve(msg.sender, spender, currentAllowance - subtractedValue) */\n      tag_180\n        /* \"contracts/token/ERC20.sol\":5712:5722  msg.sender */\n      caller\n        /* \"contracts/token/ERC20.sol\":5724:5731  spender */\n      dup6\n        /* \"contracts/token/ERC20.sol\":5752:5767  subtractedValue */\n      dup6\n        /* \"contracts/token/ERC20.sol\":5733:5749  currentAllowance */\n      dup5\n        /* \"contracts/token/ERC20.sol\":5733:5767  currentAllowance - subtractedValue */\n      sub\n        /* \"contracts/token/ERC20.sol\":5703:5711  _approve */\n      tag_129\n        /* \"contracts/token/ERC20.sol\":5703:5768  _approve(msg.sender, spender, currentAllowance - subtractedValue) */\n      jump\t// in\n    tag_180:\n      pop\n        /* \"contracts/token/ERC20.sol\":5796:5800  true */\n      0x01\n      swap4\n        /* \"contracts/token/ERC20.sol\":5397:5807  function decreaseAllowance(address spender, uint256 subtractedValue)... */\n      swap3\n      pop\n      pop\n      pop\n      jump\t// out\n        /* \"contracts/token/ERC20.sol\":2519:2725  function transfer(address recipient, uint256 amount)... */\n    tag_95:\n        /* \"contracts/token/ERC20.sol\":2637:2641  bool */\n      0x00\n        /* \"contracts/token/ERC20.sol\":2657:2697  _transfer(msg.sender, recipient, amount) */\n      tag_128\n        /* \"contracts/token/ERC20.sol\":2667:2677  msg.sender */\n      caller\n        /* \"contracts/token/ERC20.sol\":2679:2688  recipient */\n      dup5\n        /* \"contracts/token/ERC20.sol\":2690:2696  amount */\n      dup5\n        /* \"contracts/token/ERC20.sol\":2657:2666  _transfer */\n      tag_151\n        /* \"contracts/token/ERC20.sol\":2657:2697  _transfer(msg.sender, recipient, amount) */\n      jump\t// in\n        /* \"contracts/token/ERC20.sol\":576:597  string public _symbol */\n    tag_99:\n      0x04\n      dup1\n      sload\n      tag_183\n      swap1\n      tag_122\n      jump\t// in\n    tag_183:\n      dup1\n      0x1f\n      add\n      0x20\n      dup1\n      swap2\n      div\n      mul\n      0x20\n      add\n      mload(0x40)\n      swap1\n      dup2\n      add\n      0x40\n      mstore\n      dup1\n      swap3\n      swap2\n      swap1\n      dup2\n      dup2\n      mstore\n      0x20\n      add\n      dup3\n      dup1\n      sload\n      tag_184\n      swap1\n      tag_122\n      jump\t// in\n    tag_184:\n      dup1\n      iszero\n      tag_185\n      jumpi\n      dup1\n      0x1f\n      lt\n      tag_186\n      jumpi\n      0x0100\n      dup1\n      dup4\n      sload\n      div\n      mul\n      dup4\n      mstore\n      swap2\n      0x20\n      add\n      swap2\n      jump(tag_185)\n    tag_186:\n      dup3\n      add\n      swap2\n      swap1\n      0x00\n      mstore\n      keccak256(0x00, 0x20)\n      swap1\n    tag_187:\n      dup2\n      sload\n      dup2\n      mstore\n      swap1\n      0x01\n      add\n      swap1\n      0x20\n      add\n      dup1\n      dup4\n      gt\n      tag_187\n      jumpi\n      dup3\n      swap1\n      sub\n      0x1f\n      and\n      dup3\n      add\n      swap2\n    tag_185:\n      pop\n      pop\n      pop\n      pop\n      pop\n      dup2\n      jump\t// out\n        /* \"contracts/utilities/iLock.sol\":5851:5950  function Burn(uint256 supply) public virtual onlyOwner {... */\n    tag_105:\n        /* \"@openzeppelin/contracts/access/Ownable.sol\":1094:1107  _checkOwner() */\n      tag_189\n        /* \"@openzeppelin/contracts/access/Ownable.sol\":1094:1105  _checkOwner */\n      tag_156\n        /* \"@openzeppelin/contracts/access/Ownable.sol\":1094:1107  _checkOwner() */\n      jump\t// in\n    tag_189:\n        /* \"contracts/utilities/iLock.sol\":5916:5943  _burn(_msgSender(), supply) */\n      tag_191\n        /* \"@openzeppelin/contracts/utils/Context.sol\":719:729  msg.sender */\n      caller\n        /* \"contracts/utilities/iLock.sol\":5936:5942  supply */\n      dup3\n        /* \"contracts/utilities/iLock.sol\":5916:5921  _burn */\n      tag_159\n        /* \"contracts/utilities/iLock.sol\":5916:5943  _burn(_msgSender(), supply) */\n      jump\t// in\n    tag_191:\n        /* \"contracts/utilities/iLock.sol\":5851:5950  function Burn(uint256 supply) public virtual onlyOwner {... */\n      pop\n      jump\t// out\n        /* \"contracts/token/ERC20.sol\":551:570  string public _name */\n    tag_108:\n      0x03\n      dup1\n      sload\n      tag_183\n      swap1\n      tag_122\n      jump\t// in\n        /* \"@openzeppelin/contracts/access/Ownable.sol\":2081:2279  function transferOwnership(address newOwner) public virtual onlyOwner {... */\n    tag_119:\n        /* \"@openzeppelin/contracts/access/Ownable.sol\":1094:1107  _checkOwner() */\n      tag_200\n        /* \"@openzeppelin/contracts/access/Ownable.sol\":1094:1105  _checkOwner */\n      tag_156\n        /* \"@openzeppelin/contracts/access/Ownable.sol\":1094:1107  _checkOwner() */\n      jump\t// in\n    tag_200:\n      sub(shl(0xa0, 0x01), 0x01)\n        /* \"@openzeppelin/contracts/access/Ownable.sol\":2169:2191  newOwner != address(0) */\n      dup2\n      and\n        /* \"@openzeppelin/contracts/access/Ownable.sol\":2161:2234  require(newOwner != address(0), \"Ownable: new owner is the zero address\") */\n      tag_202\n      jumpi\n      mload(0x40)\n      shl(0xe5, 0x461bcd)\n      dup2\n      mstore\n        /* \"#utility.yul\":4898:4900   */\n      0x20\n        /* \"@openzeppelin/contracts/access/Ownable.sol\":2161:2234  require(newOwner != address(0), \"Ownable: new owner is the zero address\") */\n      0x04\n      dup3\n      add\n        /* \"#utility.yul\":4880:4901   */\n      mstore\n        /* \"#utility.yul\":4937:4939   */\n      0x26\n        /* \"#utility.yul\":4917:4935   */\n      0x24\n      dup3\n      add\n        /* \"#utility.yul\":4910:4940   */\n      mstore\n        /* \"#utility.yul\":4976:5010   */\n      0x4f776e61626c653a206e6577206f776e657220697320746865207a65726f2061\n        /* \"#utility.yul\":4956:4974   */\n      0x44\n      dup3\n      add\n        /* \"#utility.yul\":4949:5011   */\n      mstore\n      shl(0xd0, 0x646472657373)\n        /* \"#utility.yul\":5027:5045   */\n      0x64\n      dup3\n      add\n        /* \"#utility.yul\":5020:5056   */\n      mstore\n        /* \"#utility.yul\":5073:5092   */\n      0x84\n      add\n        /* \"@openzeppelin/contracts/access/Ownable.sol\":2161:2234  require(newOwner != address(0), \"Ownable: new owner is the zero address\") */\n    tag_203:\n      mload(0x40)\n      dup1\n      swap2\n      sub\n      swap1\n      revert\n    tag_202:\n        /* \"@openzeppelin/contracts/access/Ownable.sol\":2244:2272  _transferOwnership(newOwner) */\n      tag_191\n        /* \"@openzeppelin/contracts/access/Ownable.sol\":2263:2271  newOwner */\n      dup2\n        /* \"@openzeppelin/contracts/access/Ownable.sol\":2244:2262  _transferOwnership */\n      tag_170\n        /* \"@openzeppelin/contracts/access/Ownable.sol\":2244:2272  _transferOwnership(newOwner) */\n      jump\t// in\n        /* \"contracts/token/ERC20.sol\":8768:9060  function _approve(... */\n    tag_129:\n      sub(shl(0xa0, 0x01), 0x01)\n        /* \"contracts/token/ERC20.sol\":8899:8918  owner != address(0) */\n      dup4\n      and\n        /* \"contracts/token/ERC20.sol\":8891:8919  require(owner != address(0)) */\n      tag_207\n      jumpi\n      0x00\n      dup1\n      revert\n    tag_207:\n      sub(shl(0xa0, 0x01), 0x01)\n        /* \"contracts/token/ERC20.sol\":8937:8958  spender != address(0) */\n      dup3\n      and\n        /* \"contracts/token/ERC20.sol\":8929:8959  require(spender != address(0)) */\n      tag_208\n      jumpi\n      0x00\n      dup1\n      revert\n    tag_208:\n      sub(shl(0xa0, 0x01), 0x01)\n        /* \"contracts/token/ERC20.sol\":8970:8988  _allowances[owner] */\n      dup4\n      dup2\n      and\n      0x00\n      dup2\n      dup2\n      mstore\n        /* \"contracts/token/ERC20.sol\":8970:8981  _allowances */\n      0x01\n        /* \"contracts/token/ERC20.sol\":8970:8988  _allowances[owner] */\n      0x20\n      swap1\n      dup2\n      mstore\n      0x40\n      dup1\n      dup4\n      keccak256\n        /* \"contracts/token/ERC20.sol\":8970:8997  _allowances[owner][spender] */\n      swap5\n      dup8\n      and\n      dup1\n      dup5\n      mstore\n      swap5\n      dup3\n      mstore\n      swap2\n      dup3\n      swap1\n      keccak256\n        /* \"contracts/token/ERC20.sol\":8970:9006  _allowances[owner][spender] = amount */\n      dup6\n      swap1\n      sstore\n        /* \"contracts/token/ERC20.sol\":9021:9053  Approval(owner, spender, amount) */\n      swap1\n      mload\n        /* \"#utility.yul\":1738:1763   */\n      dup5\n      dup2\n      mstore\n        /* \"contracts/token/ERC20.sol\":9021:9053  Approval(owner, spender, amount) */\n      0x8c5be1e5ebec7d5bd14f71427d1e84f3dd0314c0f7b2291e5b200ac8c7c3b925\n      swap2\n        /* \"#utility.yul\":1711:1729   */\n      add\n        /* \"contracts/token/ERC20.sol\":9021:9053  Approval(owner, spender, amount) */\n      mload(0x40)\n      dup1\n      swap2\n      sub\n      swap1\n      log3\n        /* \"contracts/token/ERC20.sol\":8768:9060  function _approve(... */\n      pop\n      pop\n      pop\n      jump\t// out\n        /* \"contracts/token/ERC20.sol\":7170:7524  function _mint(address account, uint256 amount) internal virtual {... */\n    tag_147:\n      sub(shl(0xa0, 0x01), 0x01)\n        /* \"contracts/token/ERC20.sol\":7253:7274  account != address(0) */\n      dup3\n      and\n        /* \"contracts/token/ERC20.sol\":7245:7275  require(account != address(0)) */\n      tag_212\n      jumpi\n      0x00\n      dup1\n      revert\n    tag_212:\n        /* \"contracts/token/ERC20.sol\":7362:7368  amount */\n      dup1\n        /* \"contracts/token/ERC20.sol\":7346:7358  _totalSupply */\n      0x02\n      0x00\n        /* \"contracts/token/ERC20.sol\":7346:7368  _totalSupply += amount */\n      dup3\n      dup3\n      sload\n      tag_215\n      swap2\n      swap1\n      tag_164\n      jump\t// in\n    tag_215:\n      swap1\n      swap2\n      sstore\n      pop\n      pop\n      sub(shl(0xa0, 0x01), 0x01)\n        /* \"contracts/token/ERC20.sol\":7378:7396  _balances[account] */\n      dup3\n      and\n        /* \"contracts/token/ERC20.sol\":7378:7387  _balances */\n      0x00\n        /* \"contracts/token/ERC20.sol\":7378:7396  _balances[account] */\n      swap1\n      dup2\n      mstore\n      0x20\n      dup2\n      swap1\n      mstore\n      0x40\n      dup2\n      keccak256\n        /* \"contracts/token/ERC20.sol\":7378:7406  _balances[account] += amount */\n      dup1\n      sload\n        /* \"contracts/token/ERC20.sol\":7400:7406  amount */\n      dup4\n      swap3\n        /* \"contracts/token/ERC20.sol\":7378:7387  _balances */\n      swap1\n        /* \"contracts/token/ERC20.sol\":7378:7406  _balances[account] += amount */\n      tag_216\n      swap1\n        /* \"contracts/token/ERC20.sol\":7400:7406  amount */\n      dup5\n      swap1\n        /* \"contracts/token/ERC20.sol\":7378:7406  _balances[account] += amount */\n      tag_164\n      jump\t// in\n    tag_216:\n      swap1\n      swap2\n      sstore\n      pop\n      pop\n        /* \"contracts/token/ERC20.sol\":7421:7458  Transfer(address(0), account, amount) */\n      mload(0x40)\n        /* \"#utility.yul\":1738:1763   */\n      dup2\n      dup2\n      mstore\n      sub(shl(0xa0, 0x01), 0x01)\n        /* \"contracts/token/ERC20.sol\":7421:7458  Transfer(address(0), account, amount) */\n      dup4\n      and\n      swap1\n        /* \"contracts/token/ERC20.sol\":7438:7439  0 */\n      0x00\n      swap1\n      0x00\n      dup1\n      mload\n      0x20\n      data_ada389e1fc24a8587c776340efb91b36e675792ab631816100d55df0b5cf3cbc\n      dup4\n      codecopy\n      dup2\n      mload\n      swap2\n      mstore\n        /* \"contracts/token/ERC20.sol\":7421:7458  Transfer(address(0), account, amount) */\n      swap1\n        /* \"#utility.yul\":1726:1728   */\n      0x20\n        /* \"#utility.yul\":1711:1729   */\n      add\n        /* \"contracts/token/ERC20.sol\":7421:7458  Transfer(address(0), account, amount) */\n      mload(0x40)\n      dup1\n      swap2\n      sub\n      swap1\n      log3\n        /* \"contracts/utilities/iLock.sol\":5956:6065  function BurnFrom(address from, uint256 supply) public virtual onlyOwner {... */\n      pop\n      pop\n      jump\t// out\n        /* \"contracts/token/ERC20.sol\":6281:6894  function _transfer(... */\n    tag_151:\n      sub(shl(0xa0, 0x01), 0x01)\n        /* \"contracts/token/ERC20.sol\":6416:6436  sender != address(0) */\n      dup4\n      and\n        /* \"contracts/token/ERC20.sol\":6408:6437  require(sender != address(0)) */\n      tag_221\n      jumpi\n      0x00\n      dup1\n      revert\n    tag_221:\n      sub(shl(0xa0, 0x01), 0x01)\n        /* \"contracts/token/ERC20.sol\":6455:6478  recipient != address(0) */\n      dup3\n      and\n        /* \"contracts/token/ERC20.sol\":6447:6479  require(recipient != address(0)) */\n      tag_222\n      jumpi\n      0x00\n      dup1\n      revert\n    tag_222:\n      sub(shl(0xa0, 0x01), 0x01)\n        /* \"contracts/token/ERC20.sol\":6572:6589  _balances[sender] */\n      dup4\n      and\n        /* \"contracts/token/ERC20.sol\":6548:6569  uint256 senderBalance */\n      0x00\n        /* \"contracts/token/ERC20.sol\":6572:6589  _balances[sender] */\n      swap1\n      dup2\n      mstore\n      0x20\n      dup2\n      swap1\n      mstore\n      0x40\n      swap1\n      keccak256\n      sload\n        /* \"contracts/token/ERC20.sol\":6620:6643  senderBalance >= amount */\n      dup2\n      dup2\n      lt\n      iszero\n        /* \"contracts/token/ERC20.sol\":6599:6653  require(... */\n      tag_224\n      jumpi\n      0x00\n      dup1\n      revert\n    tag_224:\n      sub(shl(0xa0, 0x01), 0x01)\n        /* \"contracts/token/ERC20.sol\":6687:6704  _balances[sender] */\n      dup1\n      dup6\n      and\n        /* \"contracts/token/ERC20.sol\":6687:6696  _balances */\n      0x00\n        /* \"contracts/token/ERC20.sol\":6687:6704  _balances[sender] */\n      swap1\n      dup2\n      mstore\n      0x20\n      dup2\n      swap1\n      mstore\n      0x40\n      dup1\n      dup3\n      keccak256\n        /* \"contracts/token/ERC20.sol\":6707:6729  senderBalance - amount */\n      dup6\n      dup6\n      sub\n        /* \"contracts/token/ERC20.sol\":6687:6729  _balances[sender] = senderBalance - amount */\n      swap1\n      sstore\n        /* \"contracts/token/ERC20.sol\":6749:6769  _balances[recipient] */\n      swap2\n      dup6\n      and\n      dup2\n      mstore\n      swap1\n      dup2\n      keccak256\n        /* \"contracts/token/ERC20.sol\":6749:6779  _balances[recipient] += amount */\n      dup1\n      sload\n        /* \"contracts/token/ERC20.sol\":6723:6729  amount */\n      dup5\n      swap3\n        /* \"contracts/token/ERC20.sol\":6687:6696  _balances */\n      swap1\n        /* \"contracts/token/ERC20.sol\":6749:6779  _balances[recipient] += amount */\n      tag_225\n      swap1\n        /* \"contracts/token/ERC20.sol\":6723:6729  amount */\n      dup5\n      swap1\n        /* \"contracts/token/ERC20.sol\":6749:6779  _balances[recipient] += amount */\n      tag_164\n      jump\t// in\n    tag_225:\n      swap3\n      pop\n      pop\n      dup2\n      swap1\n      sstore\n      pop\n        /* \"contracts/token/ERC20.sol\":6812:6821  recipient */\n      dup3\n      sub(shl(0xa0, 0x01), 0x01)\n        /* \"contracts/token/ERC20.sol\":6795:6830  Transfer(sender, recipient, amount) */\n      and\n        /* \"contracts/token/ERC20.sol\":6804:6810  sender */\n      dup5\n      sub(shl(0xa0, 0x01), 0x01)\n        /* \"contracts/token/ERC20.sol\":6795:6830  Transfer(sender, recipient, amount) */\n      and\n      0x00\n      dup1\n      mload\n      0x20\n      data_ada389e1fc24a8587c776340efb91b36e675792ab631816100d55df0b5cf3cbc\n      dup4\n      codecopy\n      dup2\n      mload\n      swap2\n      mstore\n        /* \"contracts/token/ERC20.sol\":6823:6829  amount */\n      dup5\n        /* \"contracts/token/ERC20.sol\":6795:6830  Transfer(sender, recipient, amount) */\n      mload(0x40)\n      tag_226\n      swap2\n        /* \"#utility.yul\":1738:1763   */\n      dup2\n      mstore\n        /* \"#utility.yul\":1726:1728   */\n      0x20\n        /* \"#utility.yul\":1711:1729   */\n      add\n      swap1\n        /* \"#utility.yul\":1592:1769   */\n      jump\n        /* \"contracts/token/ERC20.sol\":6795:6830  Transfer(sender, recipient, amount) */\n    tag_226:\n      mload(0x40)\n      dup1\n      swap2\n      sub\n      swap1\n      log3\n        /* \"contracts/token/ERC20.sol\":6398:6894  {... */\n      pop\n        /* \"contracts/token/ERC20.sol\":6281:6894  function _transfer(... */\n      pop\n      pop\n      pop\n      jump\t// out\n        /* \"@openzeppelin/contracts/access/Ownable.sol\":1359:1489  function _checkOwner() internal view virtual {... */\n    tag_156:\n        /* \"@openzeppelin/contracts/access/Ownable.sol\":1273:1279  _owner */\n      and(sub(shl(0xa0, 0x01), 0x01), sload(0x05))\n        /* \"@openzeppelin/contracts/utils/Context.sol\":719:729  msg.sender */\n      caller\n        /* \"@openzeppelin/contracts/access/Ownable.sol\":1422:1445  owner() == _msgSender() */\n      eq\n        /* \"@openzeppelin/contracts/access/Ownable.sol\":1414:1482  require(owner() == _msgSender(), \"Ownable: caller is not the owner\") */\n      tag_169\n      jumpi\n      mload(0x40)\n      shl(0xe5, 0x461bcd)\n      dup2\n      mstore\n        /* \"#utility.yul\":5305:5307   */\n      0x20\n        /* \"@openzeppelin/contracts/access/Ownable.sol\":1414:1482  require(owner() == _msgSender(), \"Ownable: caller is not the owner\") */\n      0x04\n      dup3\n      add\n        /* \"#utility.yul\":5287:5308   */\n      dup2\n      swap1\n      mstore\n        /* \"#utility.yul\":5324:5342   */\n      0x24\n      dup3\n      add\n        /* \"#utility.yul\":5317:5347   */\n      mstore\n        /* \"#utility.yul\":5383:5417   */\n      0x4f776e61626c653a2063616c6c6572206973206e6f7420746865206f776e6572\n        /* \"#utility.yul\":5363:5381   */\n      0x44\n      dup3\n      add\n        /* \"#utility.yul\":5356:5418   */\n      mstore\n        /* \"#utility.yul\":5435:5453   */\n      0x64\n      add\n        /* \"@openzeppelin/contracts/access/Ownable.sol\":1414:1482  require(owner() == _msgSender(), \"Ownable: caller is not the owner\") */\n      tag_203\n        /* \"#utility.yul\":5103:5459   */\n      jump\n        /* \"contracts/token/ERC20.sol\":7844:8345  function _burn(address account, uint256 amount) internal virtual {... */\n    tag_159:\n      sub(shl(0xa0, 0x01), 0x01)\n        /* \"contracts/token/ERC20.sol\":7927:7948  account != address(0) */\n      dup3\n      and\n        /* \"contracts/token/ERC20.sol\":7919:7949  require(account != address(0)) */\n      tag_235\n      jumpi\n      0x00\n      dup1\n      revert\n    tag_235:\n      sub(shl(0xa0, 0x01), 0x01)\n        /* \"contracts/token/ERC20.sol\":8045:8063  _balances[account] */\n      dup3\n      and\n        /* \"contracts/token/ERC20.sol\":8020:8042  uint256 accountBalance */\n      0x00\n        /* \"contracts/token/ERC20.sol\":8045:8063  _balances[account] */\n      swap1\n      dup2\n      mstore\n      0x20\n      dup2\n      swap1\n      mstore\n      0x40\n      swap1\n      keccak256\n      sload\n        /* \"contracts/token/ERC20.sol\":8081:8105  accountBalance >= amount */\n      dup2\n      dup2\n      lt\n      iszero\n        /* \"contracts/token/ERC20.sol\":8073:8106  require(accountBalance >= amount) */\n      tag_237\n      jumpi\n      0x00\n      dup1\n      revert\n    tag_237:\n      sub(shl(0xa0, 0x01), 0x01)\n        /* \"contracts/token/ERC20.sol\":8140:8158  _balances[account] */\n      dup4\n      and\n        /* \"contracts/token/ERC20.sol\":8140:8149  _balances */\n      0x00\n        /* \"contracts/token/ERC20.sol\":8140:8158  _balances[account] */\n      swap1\n      dup2\n      mstore\n      0x20\n      dup2\n      swap1\n      mstore\n      0x40\n      dup2\n      keccak256\n        /* \"contracts/token/ERC20.sol\":8161:8184  accountBalance - amount */\n      dup4\n      dup4\n      sub\n        /* \"contracts/token/ERC20.sol\":8140:8184  _balances[account] = accountBalance - amount */\n      swap1\n      sstore\n        /* \"contracts/token/ERC20.sol\":8204:8216  _totalSupply */\n      0x02\n        /* \"contracts/token/ERC20.sol\":8204:8226  _totalSupply -= amount */\n      dup1\n      sload\n        /* \"contracts/token/ERC20.sol\":8178:8184  amount */\n      dup5\n      swap3\n        /* \"contracts/token/ERC20.sol\":8140:8149  _balances */\n      swap1\n        /* \"contracts/token/ERC20.sol\":8204:8226  _totalSupply -= amount */\n      tag_238\n      swap1\n        /* \"contracts/token/ERC20.sol\":8178:8184  amount */\n      dup5\n      swap1\n        /* \"contracts/token/ERC20.sol\":8204:8226  _totalSupply -= amount */\n      tag_239\n      jump\t// in\n    tag_238:\n      swap1\n      swap2\n      sstore\n      pop\n      pop\n        /* \"contracts/token/ERC20.sol\":8242:8279  Transfer(account, address(0), amount) */\n      mload(0x40)\n        /* \"#utility.yul\":1738:1763   */\n      dup3\n      dup2\n      mstore\n        /* \"contracts/token/ERC20.sol\":8268:8269  0 */\n      0x00\n      swap1\n      sub(shl(0xa0, 0x01), 0x01)\n        /* \"contracts/token/ERC20.sol\":8242:8279  Transfer(account, address(0), amount) */\n      dup6\n      and\n      swap1\n      0x00\n      dup1\n      mload\n      0x20\n      data_ada389e1fc24a8587c776340efb91b36e675792ab631816100d55df0b5cf3cbc\n      dup4\n      codecopy\n      dup2\n      mload\n      swap2\n      mstore\n      swap1\n        /* \"#utility.yul\":1726:1728   */\n      0x20\n        /* \"#utility.yul\":1711:1729   */\n      add\n        /* \"contracts/token/ERC20.sol\":8242:8279  Transfer(account, address(0), amount) */\n      mload(0x40)\n      dup1\n      swap2\n      sub\n      swap1\n      log3\n        /* \"contracts/utilities/iLock.sol\":5604:5845  {... */\n      pop\n        /* \"contracts/utilities/iLock.sol\":5535:5845  function Mint(address payable holder, uint256 supply) public virtual {... */\n      pop\n      pop\n      jump\t// out\n        /* \"@openzeppelin/contracts/access/Ownable.sol\":2433:2620  function _transferOwnership(address newOwner) internal virtual {... */\n    tag_170:\n        /* \"@openzeppelin/contracts/access/Ownable.sol\":2525:2531  _owner */\n      0x05\n      dup1\n      sload\n      sub(shl(0xa0, 0x01), 0x01)\n        /* \"@openzeppelin/contracts/access/Ownable.sol\":2541:2558  _owner = newOwner */\n      dup4\n      dup2\n      and\n      not(sub(shl(0xa0, 0x01), 0x01))\n      dup4\n      and\n      dup2\n      or\n      swap1\n      swap4\n      sstore\n        /* \"@openzeppelin/contracts/access/Ownable.sol\":2573:2613  OwnershipTransferred(oldOwner, newOwner) */\n      mload(0x40)\n        /* \"@openzeppelin/contracts/access/Ownable.sol\":2525:2531  _owner */\n      swap2\n      and\n      swap2\n        /* \"@openzeppelin/contracts/access/Ownable.sol\":2541:2558  _owner = newOwner */\n      swap1\n        /* \"@openzeppelin/contracts/access/Ownable.sol\":2525:2531  _owner */\n      dup3\n      swap1\n        /* \"@openzeppelin/contracts/access/Ownable.sol\":2573:2613  OwnershipTransferred(oldOwner, newOwner) */\n      0x8be0079c531659141344cd1fd0a4f28419497f9722a3daafe3b4186f6b6457e0\n      swap1\n        /* \"@openzeppelin/contracts/access/Ownable.sol\":2506:2522  address oldOwner */\n      0x00\n      swap1\n        /* \"@openzeppelin/contracts/access/Ownable.sol\":2573:2613  OwnershipTransferred(oldOwner, newOwner) */\n      log3\n        /* \"@openzeppelin/contracts/access/Ownable.sol\":2496:2620  {... */\n      pop\n        /* \"@openzeppelin/contracts/access/Ownable.sol\":2433:2620  function _transferOwnership(address newOwner) internal virtual {... */\n      pop\n      jump\t// out\n        /* \"#utility.yul\":14:611   */\n    tag_31:\n        /* \"#utility.yul\":126:130   */\n      0x00\n        /* \"#utility.yul\":155:157   */\n      0x20\n        /* \"#utility.yul\":184:186   */\n      dup1\n        /* \"#utility.yul\":173:182   */\n      dup4\n        /* \"#utility.yul\":166:187   */\n      mstore\n        /* \"#utility.yul\":216:222   */\n      dup4\n        /* \"#utility.yul\":210:223   */\n      mload\n        /* \"#utility.yul\":259:265   */\n      dup1\n        /* \"#utility.yul\":254:256   */\n      dup3\n        /* \"#utility.yul\":243:252   */\n      dup6\n        /* \"#utility.yul\":239:257   */\n      add\n        /* \"#utility.yul\":232:266   */\n      mstore\n        /* \"#utility.yul\":284:285   */\n      0x00\n        /* \"#utility.yul\":294:434   */\n    tag_249:\n        /* \"#utility.yul\":308:314   */\n      dup2\n        /* \"#utility.yul\":305:306   */\n      dup2\n        /* \"#utility.yul\":302:315   */\n      lt\n        /* \"#utility.yul\":294:434   */\n      iszero\n      tag_251\n      jumpi\n        /* \"#utility.yul\":403:417   */\n      dup6\n      dup2\n      add\n        /* \"#utility.yul\":399:422   */\n      dup4\n      add\n        /* \"#utility.yul\":393:423   */\n      mload\n        /* \"#utility.yul\":369:386   */\n      dup6\n      dup3\n      add\n        /* \"#utility.yul\":388:390   */\n      0x40\n        /* \"#utility.yul\":365:391   */\n      add\n        /* \"#utility.yul\":358:424   */\n      mstore\n        /* \"#utility.yul\":323:333   */\n      dup3\n      add\n        /* \"#utility.yul\":294:434   */\n      jump(tag_249)\n    tag_251:\n        /* \"#utility.yul\":452:458   */\n      dup2\n        /* \"#utility.yul\":449:450   */\n      dup2\n        /* \"#utility.yul\":446:459   */\n      gt\n        /* \"#utility.yul\":443:534   */\n      iszero\n      tag_252\n      jumpi\n        /* \"#utility.yul\":522:523   */\n      0x00\n        /* \"#utility.yul\":517:519   */\n      0x40\n        /* \"#utility.yul\":508:514   */\n      dup4\n        /* \"#utility.yul\":497:506   */\n      dup8\n        /* \"#utility.yul\":493:515   */\n      add\n        /* \"#utility.yul\":489:520   */\n      add\n        /* \"#utility.yul\":482:524   */\n      mstore\n        /* \"#utility.yul\":443:534   */\n    tag_252:\n      pop\n        /* \"#utility.yul\":595:597   */\n      0x1f\n        /* \"#utility.yul\":574:589   */\n      add\n      not(0x1f)\n        /* \"#utility.yul\":570:599   */\n      and\n        /* \"#utility.yul\":555:600   */\n      swap3\n      swap1\n      swap3\n      add\n        /* \"#utility.yul\":602:604   */\n      0x40\n        /* \"#utility.yul\":551:605   */\n      add\n      swap4\n        /* \"#utility.yul\":14:611   */\n      swap3\n      pop\n      pop\n      pop\n      jump\t// out\n        /* \"#utility.yul\":616:747   */\n    tag_245:\n      sub(shl(0xa0, 0x01), 0x01)\n        /* \"#utility.yul\":691:722   */\n      dup2\n      and\n        /* \"#utility.yul\":681:723   */\n      dup2\n      eq\n        /* \"#utility.yul\":671:741   */\n      tag_191\n      jumpi\n        /* \"#utility.yul\":737:738   */\n      0x00\n        /* \"#utility.yul\":734:735   */\n      dup1\n        /* \"#utility.yul\":727:739   */\n      revert\n        /* \"#utility.yul\":752:1067   */\n    tag_35:\n        /* \"#utility.yul\":820:826   */\n      0x00\n        /* \"#utility.yul\":828:834   */\n      dup1\n        /* \"#utility.yul\":881:883   */\n      0x40\n        /* \"#utility.yul\":869:878   */\n      dup4\n        /* \"#utility.yul\":860:867   */\n      dup6\n        /* \"#utility.yul\":856:879   */\n      sub\n        /* \"#utility.yul\":852:884   */\n      slt\n        /* \"#utility.yul\":849:901   */\n      iszero\n      tag_256\n      jumpi\n        /* \"#utility.yul\":897:898   */\n      0x00\n        /* \"#utility.yul\":894:895   */\n      dup1\n        /* \"#utility.yul\":887:899   */\n      revert\n        /* \"#utility.yul\":849:901   */\n    tag_256:\n        /* \"#utility.yul\":936:945   */\n      dup3\n        /* \"#utility.yul\":923:946   */\n      calldataload\n        /* \"#utility.yul\":955:986   */\n      tag_257\n        /* \"#utility.yul\":980:985   */\n      dup2\n        /* \"#utility.yul\":955:986   */\n      tag_245\n      jump\t// in\n    tag_257:\n        /* \"#utility.yul\":1005:1010   */\n      swap5\n        /* \"#utility.yul\":1057:1059   */\n      0x20\n        /* \"#utility.yul\":1042:1060   */\n      swap4\n      swap1\n      swap4\n      add\n        /* \"#utility.yul\":1029:1061   */\n      calldataload\n      swap4\n      pop\n      pop\n      pop\n        /* \"#utility.yul\":752:1067   */\n      jump\t// out\n        /* \"#utility.yul\":1774:2230   */\n    tag_52:\n        /* \"#utility.yul\":1851:1857   */\n      0x00\n        /* \"#utility.yul\":1859:1865   */\n      dup1\n        /* \"#utility.yul\":1867:1873   */\n      0x00\n        /* \"#utility.yul\":1920:1922   */\n      0x60\n        /* \"#utility.yul\":1908:1917   */\n      dup5\n        /* \"#utility.yul\":1899:1906   */\n      dup7\n        /* \"#utility.yul\":1895:1918   */\n      sub\n        /* \"#utility.yul\":1891:1923   */\n      slt\n        /* \"#utility.yul\":1888:1940   */\n      iszero\n      tag_264\n      jumpi\n        /* \"#utility.yul\":1936:1937   */\n      0x00\n        /* \"#utility.yul\":1933:1934   */\n      dup1\n        /* \"#utility.yul\":1926:1938   */\n      revert\n        /* \"#utility.yul\":1888:1940   */\n    tag_264:\n        /* \"#utility.yul\":1975:1984   */\n      dup4\n        /* \"#utility.yul\":1962:1985   */\n      calldataload\n        /* \"#utility.yul\":1994:2025   */\n      tag_265\n        /* \"#utility.yul\":2019:2024   */\n      dup2\n        /* \"#utility.yul\":1994:2025   */\n      tag_245\n      jump\t// in\n    tag_265:\n        /* \"#utility.yul\":2044:2049   */\n      swap3\n      pop\n        /* \"#utility.yul\":2101:2103   */\n      0x20\n        /* \"#utility.yul\":2086:2104   */\n      dup5\n      add\n        /* \"#utility.yul\":2073:2105   */\n      calldataload\n        /* \"#utility.yul\":2114:2147   */\n      tag_266\n        /* \"#utility.yul\":2073:2105   */\n      dup2\n        /* \"#utility.yul\":2114:2147   */\n      tag_245\n      jump\t// in\n    tag_266:\n        /* \"#utility.yul\":1774:2230   */\n      swap3\n      swap6\n        /* \"#utility.yul\":2166:2173   */\n      swap3\n      swap5\n      pop\n      pop\n      pop\n        /* \"#utility.yul\":2220:2222   */\n      0x40\n        /* \"#utility.yul\":2205:2223   */\n      swap2\n      swap1\n      swap2\n      add\n        /* \"#utility.yul\":2192:2224   */\n      calldataload\n      swap1\n        /* \"#utility.yul\":1774:2230   */\n      jump\t// out\n        /* \"#utility.yul\":2424:2671   */\n    tag_72:\n        /* \"#utility.yul\":2483:2489   */\n      0x00\n        /* \"#utility.yul\":2536:2538   */\n      0x20\n        /* \"#utility.yul\":2524:2533   */\n      dup3\n        /* \"#utility.yul\":2515:2522   */\n      dup5\n        /* \"#utility.yul\":2511:2534   */\n      sub\n        /* \"#utility.yul\":2507:2539   */\n      slt\n        /* \"#utility.yul\":2504:2556   */\n      iszero\n      tag_269\n      jumpi\n        /* \"#utility.yul\":2552:2553   */\n      0x00\n        /* \"#utility.yul\":2549:2550   */\n      dup1\n        /* \"#utility.yul\":2542:2554   */\n      revert\n        /* \"#utility.yul\":2504:2556   */\n    tag_269:\n        /* \"#utility.yul\":2591:2600   */\n      dup2\n        /* \"#utility.yul\":2578:2601   */\n      calldataload\n        /* \"#utility.yul\":2610:2641   */\n      tag_270\n        /* \"#utility.yul\":2635:2640   */\n      dup2\n        /* \"#utility.yul\":2610:2641   */\n      tag_245\n      jump\t// in\n    tag_270:\n        /* \"#utility.yul\":2660:2665   */\n      swap4\n        /* \"#utility.yul\":2424:2671   */\n      swap3\n      pop\n      pop\n      pop\n      jump\t// out\n        /* \"#utility.yul\":2676:2879   */\n    tag_82:\n      sub(shl(0xa0, 0x01), 0x01)\n        /* \"#utility.yul\":2840:2872   */\n      swap2\n      swap1\n      swap2\n      and\n        /* \"#utility.yul\":2822:2873   */\n      dup2\n      mstore\n        /* \"#utility.yul\":2810:2812   */\n      0x20\n        /* \"#utility.yul\":2795:2813   */\n      add\n      swap1\n        /* \"#utility.yul\":2676:2879   */\n      jump\t// out\n        /* \"#utility.yul\":2884:3064   */\n    tag_104:\n        /* \"#utility.yul\":2943:2949   */\n      0x00\n        /* \"#utility.yul\":2996:2998   */\n      0x20\n        /* \"#utility.yul\":2984:2993   */\n      dup3\n        /* \"#utility.yul\":2975:2982   */\n      dup5\n        /* \"#utility.yul\":2971:2994   */\n      sub\n        /* \"#utility.yul\":2967:2999   */\n      slt\n        /* \"#utility.yul\":2964:3016   */\n      iszero\n      tag_273\n      jumpi\n        /* \"#utility.yul\":3012:3013   */\n      0x00\n        /* \"#utility.yul\":3009:3010   */\n      dup1\n        /* \"#utility.yul\":3002:3014   */\n      revert\n        /* \"#utility.yul\":2964:3016   */\n    tag_273:\n      pop\n        /* \"#utility.yul\":3035:3058   */\n      calldataload\n      swap2\n        /* \"#utility.yul\":2884:3064   */\n      swap1\n      pop\n      jump\t// out\n        /* \"#utility.yul\":3069:3457   */\n    tag_113:\n        /* \"#utility.yul\":3137:3143   */\n      0x00\n        /* \"#utility.yul\":3145:3151   */\n      dup1\n        /* \"#utility.yul\":3198:3200   */\n      0x40\n        /* \"#utility.yul\":3186:3195   */\n      dup4\n        /* \"#utility.yul\":3177:3184   */\n      dup6\n        /* \"#utility.yul\":3173:3196   */\n      sub\n        /* \"#utility.yul\":3169:3201   */\n      slt\n        /* \"#utility.yul\":3166:3218   */\n      iszero\n      tag_275\n      jumpi\n        /* \"#utility.yul\":3214:3215   */\n      0x00\n        /* \"#utility.yul\":3211:3212   */\n      dup1\n        /* \"#utility.yul\":3204:3216   */\n      revert\n        /* \"#utility.yul\":3166:3218   */\n    tag_275:\n        /* \"#utility.yul\":3253:3262   */\n      dup3\n        /* \"#utility.yul\":3240:3263   */\n      calldataload\n        /* \"#utility.yul\":3272:3303   */\n      tag_276\n        /* \"#utility.yul\":3297:3302   */\n      dup2\n        /* \"#utility.yul\":3272:3303   */\n      tag_245\n      jump\t// in\n    tag_276:\n        /* \"#utility.yul\":3322:3327   */\n      swap2\n      pop\n        /* \"#utility.yul\":3379:3381   */\n      0x20\n        /* \"#utility.yul\":3364:3382   */\n      dup4\n      add\n        /* \"#utility.yul\":3351:3383   */\n      calldataload\n        /* \"#utility.yul\":3392:3425   */\n      tag_277\n        /* \"#utility.yul\":3351:3383   */\n      dup2\n        /* \"#utility.yul\":3392:3425   */\n      tag_245\n      jump\t// in\n    tag_277:\n        /* \"#utility.yul\":3444:3451   */\n      dup1\n        /* \"#utility.yul\":3434:3451   */\n      swap2\n      pop\n      pop\n        /* \"#utility.yul\":3069:3457   */\n      swap3\n      pop\n      swap3\n      swap1\n      pop\n      jump\t// out\n        /* \"#utility.yul\":3462:3842   */\n    tag_122:\n        /* \"#utility.yul\":3541:3542   */\n      0x01\n        /* \"#utility.yul\":3537:3549   */\n      dup2\n      dup2\n      shr\n      swap1\n        /* \"#utility.yul\":3584:3596   */\n      dup3\n      and\n      dup1\n        /* \"#utility.yul\":3605:3666   */\n      tag_279\n      jumpi\n        /* \"#utility.yul\":3659:3663   */\n      0x7f\n        /* \"#utility.yul\":3651:3657   */\n      dup3\n        /* \"#utility.yul\":3647:3664   */\n      and\n        /* \"#utility.yul\":3637:3664   */\n      swap2\n      pop\n        /* \"#utility.yul\":3605:3666   */\n    tag_279:\n        /* \"#utility.yul\":3712:3714   */\n      0x20\n        /* \"#utility.yul\":3704:3710   */\n      dup3\n        /* \"#utility.yul\":3701:3715   */\n      lt\n        /* \"#utility.yul\":3681:3699   */\n      dup2\n        /* \"#utility.yul\":3678:3716   */\n      sub\n        /* \"#utility.yul\":3675:3836   */\n      tag_280\n      jumpi\n        /* \"#utility.yul\":3758:3768   */\n      0x4e487b71\n        /* \"#utility.yul\":3753:3756   */\n      0xe0\n        /* \"#utility.yul\":3749:3769   */\n      shl\n        /* \"#utility.yul\":3746:3747   */\n      0x00\n        /* \"#utility.yul\":3739:3770   */\n      mstore\n        /* \"#utility.yul\":3793:3797   */\n      0x22\n        /* \"#utility.yul\":3790:3791   */\n      0x04\n        /* \"#utility.yul\":3783:3798   */\n      mstore\n        /* \"#utility.yul\":3821:3825   */\n      0x24\n        /* \"#utility.yul\":3818:3819   */\n      0x00\n        /* \"#utility.yul\":3811:3826   */\n      revert\n        /* \"#utility.yul\":3675:3836   */\n    tag_280:\n      pop\n        /* \"#utility.yul\":3462:3842   */\n      swap2\n      swap1\n      pop\n      jump\t// out\n        /* \"#utility.yul\":3847:4031   */\n    tag_134:\n        /* \"#utility.yul\":3917:3923   */\n      0x00\n        /* \"#utility.yul\":3970:3972   */\n      0x20\n        /* \"#utility.yul\":3958:3967   */\n      dup3\n        /* \"#utility.yul\":3949:3956   */\n      dup5\n        /* \"#utility.yul\":3945:3968   */\n      sub\n        /* \"#utility.yul\":3941:3973   */\n      slt\n        /* \"#utility.yul\":3938:3990   */\n      iszero\n      tag_282\n      jumpi\n        /* \"#utility.yul\":3986:3987   */\n      0x00\n        /* \"#utility.yul\":3983:3984   */\n      dup1\n        /* \"#utility.yul\":3976:3988   */\n      revert\n        /* \"#utility.yul\":3938:3990   */\n    tag_282:\n      pop\n        /* \"#utility.yul\":4009:4025   */\n      mload\n      swap2\n        /* \"#utility.yul\":3847:4031   */\n      swap1\n      pop\n      jump\t// out\n        /* \"#utility.yul\":4036:4163   */\n    tag_246:\n        /* \"#utility.yul\":4097:4107   */\n      0x4e487b71\n        /* \"#utility.yul\":4092:4095   */\n      0xe0\n        /* \"#utility.yul\":4088:4108   */\n      shl\n        /* \"#utility.yul\":4085:4086   */\n      0x00\n        /* \"#utility.yul\":4078:4109   */\n      mstore\n        /* \"#utility.yul\":4128:4132   */\n      0x11\n        /* \"#utility.yul\":4125:4126   */\n      0x04\n        /* \"#utility.yul\":4118:4133   */\n      mstore\n        /* \"#utility.yul\":4152:4156   */\n      0x24\n        /* \"#utility.yul\":4149:4150   */\n      0x00\n        /* \"#utility.yul\":4142:4157   */\n      revert\n        /* \"#utility.yul\":4168:4336   */\n    tag_136:\n        /* \"#utility.yul\":4208:4215   */\n      0x00\n        /* \"#utility.yul\":4274:4275   */\n      dup2\n        /* \"#utility.yul\":4270:4271   */\n      0x00\n        /* \"#utility.yul\":4266:4272   */\n      not\n        /* \"#utility.yul\":4262:4276   */\n      div\n        /* \"#utility.yul\":4259:4260   */\n      dup4\n        /* \"#utility.yul\":4256:4277   */\n      gt\n        /* \"#utility.yul\":4251:4252   */\n      dup3\n        /* \"#utility.yul\":4244:4253   */\n      iszero\n        /* \"#utility.yul\":4237:4254   */\n      iszero\n        /* \"#utility.yul\":4233:4278   */\n      and\n        /* \"#utility.yul\":4230:4301   */\n      iszero\n      tag_286\n      jumpi\n        /* \"#utility.yul\":4281:4299   */\n      tag_286\n      tag_246\n      jump\t// in\n    tag_286:\n      pop\n        /* \"#utility.yul\":4321:4330   */\n      mul\n      swap1\n        /* \"#utility.yul\":4168:4336   */\n      jump\t// out\n        /* \"#utility.yul\":4341:4558   */\n    tag_138:\n        /* \"#utility.yul\":4381:4382   */\n      0x00\n        /* \"#utility.yul\":4407:4408   */\n      dup3\n        /* \"#utility.yul\":4397:4529   */\n      tag_288\n      jumpi\n        /* \"#utility.yul\":4451:4461   */\n      0x4e487b71\n        /* \"#utility.yul\":4446:4449   */\n      0xe0\n        /* \"#utility.yul\":4442:4462   */\n      shl\n        /* \"#utility.yul\":4439:4440   */\n      0x00\n        /* \"#utility.yul\":4432:4463   */\n      mstore\n        /* \"#utility.yul\":4486:4490   */\n      0x12\n        /* \"#utility.yul\":4483:4484   */\n      0x04\n        /* \"#utility.yul\":4476:4491   */\n      mstore\n        /* \"#utility.yul\":4514:4518   */\n      0x24\n        /* \"#utility.yul\":4511:4512   */\n      0x00\n        /* \"#utility.yul\":4504:4519   */\n      revert\n        /* \"#utility.yul\":4397:4529   */\n    tag_288:\n      pop\n        /* \"#utility.yul\":4543:4552   */\n      div\n      swap1\n        /* \"#utility.yul\":4341:4558   */\n      jump\t// out\n        /* \"#utility.yul\":4563:4691   */\n    tag_164:\n        /* \"#utility.yul\":4603:4606   */\n      0x00\n        /* \"#utility.yul\":4634:4635   */\n      dup3\n        /* \"#utility.yul\":4630:4636   */\n      not\n        /* \"#utility.yul\":4627:4628   */\n      dup3\n        /* \"#utility.yul\":4624:4637   */\n      gt\n        /* \"#utility.yul\":4621:4660   */\n      iszero\n      tag_291\n      jumpi\n        /* \"#utility.yul\":4640:4658   */\n      tag_291\n      tag_246\n      jump\t// in\n    tag_291:\n      pop\n        /* \"#utility.yul\":4676:4685   */\n      add\n      swap1\n        /* \"#utility.yul\":4563:4691   */\n      jump\t// out\n        /* \"#utility.yul\":5464:5589   */\n    tag_239:\n        /* \"#utility.yul\":5504:5508   */\n      0x00\n        /* \"#utility.yul\":5532:5533   */\n      dup3\n        /* \"#utility.yul\":5529:5530   */\n      dup3\n        /* \"#utility.yul\":5526:5534   */\n      lt\n        /* \"#utility.yul\":5523:5557   */\n      iszero\n      tag_296\n      jumpi\n        /* \"#utility.yul\":5537:5555   */\n      tag_296\n      tag_246\n      jump\t// in\n    tag_296:\n      pop\n        /* \"#utility.yul\":5574:5583   */\n      sub\n      swap1\n        /* \"#utility.yul\":5464:5589   */\n      jump\t// out\n    stop\n    data_ada389e1fc24a8587c776340efb91b36e675792ab631816100d55df0b5cf3cbc ddf252ad1be2c89b69c2b068fc378daa952ba7f163c4a11628f55a4df523b3ef\n\n    auxdata: 0xa2646970667358221220ea1e7abb687341e967af24f4f770026cb07b97bd4c325dcef1d4cae7ede8786464736f6c634300080d0033\n}\n",
				"bytecode": {
					"linkReferences": {},
					"object": "60806040523480156200001157600080fd5b50604051620010bc380380620010bc833981016040819052620000349162000292565b8251839083906200004d9060039060208501906200011f565b508051620000639060049060208401906200011f565b505050620000806200007a620000da60201b60201c565b620000de565b8251620000959060039060208601906200011f565b508151620000ab9060049060208501906200011f565b506040516001600160a01b038216906000906000805160206200109c833981519152908290a35050506200035b565b3390565b600580546001600160a01b038381166001600160a01b0319831681179093556040519116919082906000805160206200109c83398151915290600090a35050565b8280546200012d906200031f565b90600052602060002090601f0160209004810192826200015157600085556200019c565b82601f106200016c57805160ff19168380011785556200019c565b828001600101855582156200019c579182015b828111156200019c5782518255916020019190600101906200017f565b50620001aa929150620001ae565b5090565b5b80821115620001aa5760008155600101620001af565b634e487b7160e01b600052604160045260246000fd5b600082601f830112620001ed57600080fd5b81516001600160401b03808211156200020a576200020a620001c5565b604051601f8301601f19908116603f01168101908282118183101715620002355762000235620001c5565b816040528381526020925086838588010111156200025257600080fd5b600091505b8382101562000276578582018301518183018401529082019062000257565b83821115620002885760008385830101525b9695505050505050565b600080600060608486031215620002a857600080fd5b83516001600160401b0380821115620002c057600080fd5b620002ce87838801620001db565b94506020860151915080821115620002e557600080fd5b50620002f486828701620001db565b604086015190935090506001600160a01b03811681146200031457600080fd5b809150509250925092565b600181811c908216806200033457607f821691505b6020821081036200035557634e487b7160e01b600052602260045260246000fd5b50919050565b610d31806200036b6000396000f3fe6080604052600436106100f25760003560e01c8063715018a61161008d578063715018a6146102475780638da5cb5b1461025c57806395d89b4114610282578063a457c2d714610297578063a9059cbb146102b7578063b09f1266146102d7578063b90306ad146102ec578063d28d88521461030c578063dd62ed3e14610321578063f2fde38b1461036757005b806306fdde03146100fb578063095ea7b3146101265780630f6798a51461015657806318160ddd1461017657806323b872dd1461019557806328e1a604146101b5578063313ce567146101d557806339509351146101f157806370a082311461021157005b366100f957005b005b34801561010757600080fd5b50610110610387565b60405161011d9190610aa1565b60405180910390f35b34801561013257600080fd5b50610146610141366004610b0b565b610419565b604051901515815260200161011d565b34801561016257600080fd5b506100f9610171366004610b0b565b61042f565b34801561018257600080fd5b506002545b60405190815260200161011d565b3480156101a157600080fd5b506101466101b0366004610b37565b61052d565b3480156101c157600080fd5b506100f96101d0366004610b0b565b610583565b3480156101e157600080fd5b506040516012815260200161011d565b3480156101fd57600080fd5b5061014661020c366004610b0b565b610599565b34801561021d57600080fd5b5061018761022c366004610b78565b6001600160a01b031660009081526020819052604090205490565b34801561025357600080fd5b506100f96105d5565b34801561026857600080fd5b506005546001600160a01b031660405161011d9190610b9c565b34801561028e57600080fd5b506101106105e9565b3480156102a357600080fd5b506101466102b2366004610b0b565b6105f8565b3480156102c357600080fd5b506101466102d2366004610b0b565b610640565b3480156102e357600080fd5b5061011061064d565b3480156102f857600080fd5b506100f9610307366004610bb0565b6106db565b34801561031857600080fd5b506101106106f0565b34801561032d57600080fd5b5061018761033c366004610bc9565b6001600160a01b03918216600090815260016020908152604080832093909416825291909152205490565b34801561037357600080fd5b506100f9610382366004610b78565b6106fd565b60606003805461039690610c02565b80601f01602080910402602001604051908101604052809291908181526020018280546103c290610c02565b801561040f5780601f106103e45761010080835404028352916020019161040f565b820191906000526020600020905b8154815290600101906020018083116103f257829003601f168201915b5050505050905090565b6000610426338484610778565b50600192915050565b6000612710306001600160a01b03166318160ddd6040518163ffffffff1660e01b8152600401602060405180830381865afa158015610472573d6000803e3d6000fd5b505050506040513d601f19601f820116820180604052508101906104969190610c3c565b6104a2906113ec610c6b565b6104ac9190610c8a565b6040516370a0823160e01b815230906370a08231906104cf903390600401610b9c565b602060405180830381865afa1580156104ec573d6000803e3d6000fd5b505050506040513d601f19601f820116820180604052508101906105109190610c3c565b101590508061051e57600080fd5b61052883836107ff565b505050565b600061053a848484610889565b6001600160a01b03841660009081526001602090815260408083203384529091529020548281101561056b57600080fd5b6105788533858403610778565b506001949350505050565b61058b610954565b61059582826109ae565b5050565b3360008181526001602090815260408083206001600160a01b038716845290915281205490916104269185906105d0908690610cac565b610778565b6105dd610954565b6105e76000610a4f565b565b60606004805461039690610c02565b3360009081526001602090815260408083206001600160a01b03861684529091528120548281101561062957600080fd5b6106363385858403610778565b5060019392505050565b6000610426338484610889565b6004805461065a90610c02565b80601f016020809104026020016040519081016040528092919081815260200182805461068690610c02565b80156106d35780601f106106a8576101008083540402835291602001916106d3565b820191906000526020600020905b8154815290600101906020018083116106b657829003601f168201915b505050505081565b6106e3610954565b6106ed33826109ae565b50565b6003805461065a90610c02565b610705610954565b6001600160a01b03811661076f5760405162461bcd60e51b815260206004820152602660248201527f4f776e61626c653a206e6577206f776e657220697320746865207a65726f206160448201526564647265737360d01b60648201526084015b60405180910390fd5b6106ed81610a4f565b6001600160a01b03831661078b57600080fd5b6001600160a01b03821661079e57600080fd5b6001600160a01b0383811660008181526001602090815260408083209487168084529482529182902085905590518481527f8c5be1e5ebec7d5bd14f71427d1e84f3dd0314c0f7b2291e5b200ac8c7c3b925910160405180910390a3505050565b6001600160a01b03821661081257600080fd5b80600260008282546108249190610cac565b90915550506001600160a01b03821660009081526020819052604081208054839290610851908490610cac565b90915550506040518181526001600160a01b03831690600090600080516020610cdc8339815191529060200160405180910390a35050565b6001600160a01b03831661089c57600080fd5b6001600160a01b0382166108af57600080fd5b6001600160a01b038316600090815260208190526040902054818110156108d557600080fd5b6001600160a01b0380851660009081526020819052604080822085850390559185168152908120805484929061090c908490610cac565b92505081905550826001600160a01b0316846001600160a01b0316600080516020610cdc8339815191528460405161094691815260200190565b60405180910390a350505050565b6005546001600160a01b031633146105e75760405162461bcd60e51b815260206004820181905260248201527f4f776e61626c653a2063616c6c6572206973206e6f7420746865206f776e65726044820152606401610766565b6001600160a01b0382166109c157600080fd5b6001600160a01b038216600090815260208190526040902054818110156109e757600080fd5b6001600160a01b0383166000908152602081905260408120838303905560028054849290610a16908490610cc4565b90915550506040518281526000906001600160a01b03851690600080516020610cdc8339815191529060200160405180910390a3505050565b600580546001600160a01b038381166001600160a01b0319831681179093556040519116919082907f8be0079c531659141344cd1fd0a4f28419497f9722a3daafe3b4186f6b6457e090600090a35050565b600060208083528351808285015260005b81811015610ace57858101830151858201604001528201610ab2565b81811115610ae0576000604083870101525b50601f01601f1916929092016040019392505050565b6001600160a01b03811681146106ed57600080fd5b60008060408385031215610b1e57600080fd5b8235610b2981610af6565b946020939093013593505050565b600080600060608486031215610b4c57600080fd5b8335610b5781610af6565b92506020840135610b6781610af6565b929592945050506040919091013590565b600060208284031215610b8a57600080fd5b8135610b9581610af6565b9392505050565b6001600160a01b0391909116815260200190565b600060208284031215610bc257600080fd5b5035919050565b60008060408385031215610bdc57600080fd5b8235610be781610af6565b91506020830135610bf781610af6565b809150509250929050565b600181811c90821680610c1657607f821691505b602082108103610c3657634e487b7160e01b600052602260045260246000fd5b50919050565b600060208284031215610c4e57600080fd5b5051919050565b634e487b7160e01b600052601160045260246000fd5b6000816000190483118215151615610c8557610c85610c55565b500290565b600082610ca757634e487b7160e01b600052601260045260246000fd5b500490565b60008219821115610cbf57610cbf610c55565b500190565b600082821015610cd657610cd6610c55565b50039056feddf252ad1be2c89b69c2b068fc378daa952ba7f163c4a11628f55a4df523b3efa2646970667358221220ea1e7abb687341e967af24f4f770026cb07b97bd4c325dcef1d4cae7ede8786464736f6c634300080d00338be0079c531659141344cd1fd0a4f28419497f9722a3daafe3b4186f6b6457e0",
					"opcodes": "PUSH1 0x80 PUSH1 0x40 MSTORE CALLVALUE DUP1 ISZERO PUSH3 0x11 JUMPI PUSH1 0x0 DUP1 REVERT JUMPDEST POP PUSH1 0x40 MLOAD PUSH3 0x10BC CODESIZE SUB DUP1 PUSH3 0x10BC DUP4 CODECOPY DUP2 ADD PUSH1 0x40 DUP2 SWAP1 MSTORE PUSH3 0x34 SWAP2 PUSH3 0x292 JUMP JUMPDEST DUP3 MLOAD DUP4 SWAP1 DUP4 SWAP1 PUSH3 0x4D SWAP1 PUSH1 0x3 SWAP1 PUSH1 0x20 DUP6 ADD SWAP1 PUSH3 0x11F JUMP JUMPDEST POP DUP1 MLOAD PUSH3 0x63 SWAP1 PUSH1 0x4 SWAP1 PUSH1 0x20 DUP5 ADD SWAP1 PUSH3 0x11F JUMP JUMPDEST POP POP POP PUSH3 0x80 PUSH3 0x7A PUSH3 0xDA PUSH1 0x20 SHL PUSH1 0x20 SHR JUMP JUMPDEST PUSH3 0xDE JUMP JUMPDEST DUP3 MLOAD PUSH3 0x95 SWAP1 PUSH1 0x3 SWAP1 PUSH1 0x20 DUP7 ADD SWAP1 PUSH3 0x11F JUMP JUMPDEST POP DUP2 MLOAD PUSH3 0xAB SWAP1 PUSH1 0x4 SWAP1 PUSH1 0x20 DUP6 ADD SWAP1 PUSH3 0x11F JUMP JUMPDEST POP PUSH1 0x40 MLOAD PUSH1 0x1 PUSH1 0x1 PUSH1 0xA0 SHL SUB DUP3 AND SWAP1 PUSH1 0x0 SWAP1 PUSH1 0x0 DUP1 MLOAD PUSH1 0x20 PUSH3 0x109C DUP4 CODECOPY DUP2 MLOAD SWAP2 MSTORE SWAP1 DUP3 SWAP1 LOG3 POP POP POP PUSH3 0x35B JUMP JUMPDEST CALLER SWAP1 JUMP JUMPDEST PUSH1 0x5 DUP1 SLOAD PUSH1 0x1 PUSH1 0x1 PUSH1 0xA0 SHL SUB DUP4 DUP2 AND PUSH1 0x1 PUSH1 0x1 PUSH1 0xA0 SHL SUB NOT DUP4 AND DUP2 OR SWAP1 SWAP4 SSTORE PUSH1 0x40 MLOAD SWAP2 AND SWAP2 SWAP1 DUP3 SWAP1 PUSH1 0x0 DUP1 MLOAD PUSH1 0x20 PUSH3 0x109C DUP4 CODECOPY DUP2 MLOAD SWAP2 MSTORE SWAP1 PUSH1 0x0 SWAP1 LOG3 POP POP JUMP JUMPDEST DUP3 DUP1 SLOAD PUSH3 0x12D SWAP1 PUSH3 0x31F JUMP JUMPDEST SWAP1 PUSH1 0x0 MSTORE PUSH1 0x20 PUSH1 0x0 KECCAK256 SWAP1 PUSH1 0x1F ADD PUSH1 0x20 SWAP1 DIV DUP2 ADD SWAP3 DUP3 PUSH3 0x151 JUMPI PUSH1 0x0 DUP6 SSTORE PUSH3 0x19C JUMP JUMPDEST DUP3 PUSH1 0x1F LT PUSH3 0x16C JUMPI DUP1 MLOAD PUSH1 0xFF NOT AND DUP4 DUP1 ADD OR DUP6 SSTORE PUSH3 0x19C JUMP JUMPDEST DUP3 DUP1 ADD PUSH1 0x1 ADD DUP6 SSTORE DUP3 ISZERO PUSH3 0x19C JUMPI SWAP2 DUP3 ADD JUMPDEST DUP3 DUP2 GT ISZERO PUSH3 0x19C JUMPI DUP3 MLOAD DUP3 SSTORE SWAP2 PUSH1 0x20 ADD SWAP2 SWAP1 PUSH1 0x1 ADD SWAP1 PUSH3 0x17F JUMP JUMPDEST POP PUSH3 0x1AA SWAP3 SWAP2 POP PUSH3 0x1AE JUMP JUMPDEST POP SWAP1 JUMP JUMPDEST JUMPDEST DUP1 DUP3 GT ISZERO PUSH3 0x1AA JUMPI PUSH1 0x0 DUP2 SSTORE PUSH1 0x1 ADD PUSH3 0x1AF JUMP JUMPDEST PUSH4 0x4E487B71 PUSH1 0xE0 SHL PUSH1 0x0 MSTORE PUSH1 0x41 PUSH1 0x4 MSTORE PUSH1 0x24 PUSH1 0x0 REVERT JUMPDEST PUSH1 0x0 DUP3 PUSH1 0x1F DUP4 ADD SLT PUSH3 0x1ED JUMPI PUSH1 0x0 DUP1 REVERT JUMPDEST DUP2 MLOAD PUSH1 0x1 PUSH1 0x1 PUSH1 0x40 SHL SUB DUP1 DUP3 GT ISZERO PUSH3 0x20A JUMPI PUSH3 0x20A PUSH3 0x1C5 JUMP JUMPDEST PUSH1 0x40 MLOAD PUSH1 0x1F DUP4 ADD PUSH1 0x1F NOT SWAP1 DUP2 AND PUSH1 0x3F ADD AND DUP2 ADD SWAP1 DUP3 DUP3 GT DUP2 DUP4 LT OR ISZERO PUSH3 0x235 JUMPI PUSH3 0x235 PUSH3 0x1C5 JUMP JUMPDEST DUP2 PUSH1 0x40 MSTORE DUP4 DUP2 MSTORE PUSH1 0x20 SWAP3 POP DUP7 DUP4 DUP6 DUP9 ADD ADD GT ISZERO PUSH3 0x252 JUMPI PUSH1 0x0 DUP1 REVERT JUMPDEST PUSH1 0x0 SWAP2 POP JUMPDEST DUP4 DUP3 LT ISZERO PUSH3 0x276 JUMPI DUP6 DUP3 ADD DUP4 ADD MLOAD DUP2 DUP4 ADD DUP5 ADD MSTORE SWAP1 DUP3 ADD SWAP1 PUSH3 0x257 JUMP JUMPDEST DUP4 DUP3 GT ISZERO PUSH3 0x288 JUMPI PUSH1 0x0 DUP4 DUP6 DUP4 ADD ADD MSTORE JUMPDEST SWAP7 SWAP6 POP POP POP POP POP POP JUMP JUMPDEST PUSH1 0x0 DUP1 PUSH1 0x0 PUSH1 0x60 DUP5 DUP7 SUB SLT ISZERO PUSH3 0x2A8 JUMPI PUSH1 0x0 DUP1 REVERT JUMPDEST DUP4 MLOAD PUSH1 0x1 PUSH1 0x1 PUSH1 0x40 SHL SUB DUP1 DUP3 GT ISZERO PUSH3 0x2C0 JUMPI PUSH1 0x0 DUP1 REVERT JUMPDEST PUSH3 0x2CE DUP8 DUP4 DUP9 ADD PUSH3 0x1DB JUMP JUMPDEST SWAP5 POP PUSH1 0x20 DUP7 ADD MLOAD SWAP2 POP DUP1 DUP3 GT ISZERO PUSH3 0x2E5 JUMPI PUSH1 0x0 DUP1 REVERT JUMPDEST POP PUSH3 0x2F4 DUP7 DUP3 DUP8 ADD PUSH3 0x1DB JUMP JUMPDEST PUSH1 0x40 DUP7 ADD MLOAD SWAP1 SWAP4 POP SWAP1 POP PUSH1 0x1 PUSH1 0x1 PUSH1 0xA0 SHL SUB DUP2 AND DUP2 EQ PUSH3 0x314 JUMPI PUSH1 0x0 DUP1 REVERT JUMPDEST DUP1 SWAP2 POP POP SWAP3 POP SWAP3 POP SWAP3 JUMP JUMPDEST PUSH1 0x1 DUP2 DUP2 SHR SWAP1 DUP3 AND DUP1 PUSH3 0x334 JUMPI PUSH1 0x7F DUP3 AND SWAP2 POP JUMPDEST PUSH1 0x20 DUP3 LT DUP2 SUB PUSH3 0x355 JUMPI PUSH4 0x4E487B71 PUSH1 0xE0 SHL PUSH1 0x0 MSTORE PUSH1 0x22 PUSH1 0x4 MSTORE PUSH1 0x24 PUSH1 0x0 REVERT JUMPDEST POP SWAP2 SWAP1 POP JUMP JUMPDEST PUSH2 0xD31 DUP1 PUSH3 0x36B PUSH1 0x0 CODECOPY PUSH1 0x0 RETURN INVALID PUSH1 0x80 PUSH1 0x40 MSTORE PUSH1 0x4 CALLDATASIZE LT PUSH2 0xF2 JUMPI PUSH1 0x0 CALLDATALOAD PUSH1 0xE0 SHR DUP1 PUSH4 0x715018A6 GT PUSH2 0x8D JUMPI DUP1 PUSH4 0x715018A6 EQ PUSH2 0x247 JUMPI DUP1 PUSH4 0x8DA5CB5B EQ PUSH2 0x25C JUMPI DUP1 PUSH4 0x95D89B41 EQ PUSH2 0x282 JUMPI DUP1 PUSH4 0xA457C2D7 EQ PUSH2 0x297 JUMPI DUP1 PUSH4 0xA9059CBB EQ PUSH2 0x2B7 JUMPI DUP1 PUSH4 0xB09F1266 EQ PUSH2 0x2D7 JUMPI DUP1 PUSH4 0xB90306AD EQ PUSH2 0x2EC JUMPI DUP1 PUSH4 0xD28D8852 EQ PUSH2 0x30C JUMPI DUP1 PUSH4 0xDD62ED3E EQ PUSH2 0x321 JUMPI DUP1 PUSH4 0xF2FDE38B EQ PUSH2 0x367 JUMPI STOP JUMPDEST DUP1 PUSH4 0x6FDDE03 EQ PUSH2 0xFB JUMPI DUP1 PUSH4 0x95EA7B3 EQ PUSH2 0x126 JUMPI DUP1 PUSH4 0xF6798A5 EQ PUSH2 0x156 JUMPI DUP1 PUSH4 0x18160DDD EQ PUSH2 0x176 JUMPI DUP1 PUSH4 0x23B872DD EQ PUSH2 0x195 JUMPI DUP1 PUSH4 0x28E1A604 EQ PUSH2 0x1B5 JUMPI DUP1 PUSH4 0x313CE567 EQ PUSH2 0x1D5 JUMPI DUP1 PUSH4 0x39509351 EQ PUSH2 0x1F1 JUMPI DUP1 PUSH4 0x70A08231 EQ PUSH2 0x211 JUMPI STOP JUMPDEST CALLDATASIZE PUSH2 0xF9 JUMPI STOP JUMPDEST STOP JUMPDEST CALLVALUE DUP1 ISZERO PUSH2 0x107 JUMPI PUSH1 0x0 DUP1 REVERT JUMPDEST POP PUSH2 0x110 PUSH2 0x387 JUMP JUMPDEST PUSH1 0x40 MLOAD PUSH2 0x11D SWAP2 SWAP1 PUSH2 0xAA1 JUMP JUMPDEST PUSH1 0x40 MLOAD DUP1 SWAP2 SUB SWAP1 RETURN JUMPDEST CALLVALUE DUP1 ISZERO PUSH2 0x132 JUMPI PUSH1 0x0 DUP1 REVERT JUMPDEST POP PUSH2 0x146 PUSH2 0x141 CALLDATASIZE PUSH1 0x4 PUSH2 0xB0B JUMP JUMPDEST PUSH2 0x419 JUMP JUMPDEST PUSH1 0x40 MLOAD SWAP1 ISZERO ISZERO DUP2 MSTORE PUSH1 0x20 ADD PUSH2 0x11D JUMP JUMPDEST CALLVALUE DUP1 ISZERO PUSH2 0x162 JUMPI PUSH1 0x0 DUP1 REVERT JUMPDEST POP PUSH2 0xF9 PUSH2 0x171 CALLDATASIZE PUSH1 0x4 PUSH2 0xB0B JUMP JUMPDEST PUSH2 0x42F JUMP JUMPDEST CALLVALUE DUP1 ISZERO PUSH2 0x182 JUMPI PUSH1 0x0 DUP1 REVERT JUMPDEST POP PUSH1 0x2 SLOAD JUMPDEST PUSH1 0x40 MLOAD SWAP1 DUP2 MSTORE PUSH1 0x20 ADD PUSH2 0x11D JUMP JUMPDEST CALLVALUE DUP1 ISZERO PUSH2 0x1A1 JUMPI PUSH1 0x0 DUP1 REVERT JUMPDEST POP PUSH2 0x146 PUSH2 0x1B0 CALLDATASIZE PUSH1 0x4 PUSH2 0xB37 JUMP JUMPDEST PUSH2 0x52D JUMP JUMPDEST CALLVALUE DUP1 ISZERO PUSH2 0x1C1 JUMPI PUSH1 0x0 DUP1 REVERT JUMPDEST POP PUSH2 0xF9 PUSH2 0x1D0 CALLDATASIZE PUSH1 0x4 PUSH2 0xB0B JUMP JUMPDEST PUSH2 0x583 JUMP JUMPDEST CALLVALUE DUP1 ISZERO PUSH2 0x1E1 JUMPI PUSH1 0x0 DUP1 REVERT JUMPDEST POP PUSH1 0x40 MLOAD PUSH1 0x12 DUP2 MSTORE PUSH1 0x20 ADD PUSH2 0x11D JUMP JUMPDEST CALLVALUE DUP1 ISZERO PUSH2 0x1FD JUMPI PUSH1 0x0 DUP1 REVERT JUMPDEST POP PUSH2 0x146 PUSH2 0x20C CALLDATASIZE PUSH1 0x4 PUSH2 0xB0B JUMP JUMPDEST PUSH2 0x599 JUMP JUMPDEST CALLVALUE DUP1 ISZERO PUSH2 0x21D JUMPI PUSH1 0x0 DUP1 REVERT JUMPDEST POP PUSH2 0x187 PUSH2 0x22C CALLDATASIZE PUSH1 0x4 PUSH2 0xB78 JUMP JUMPDEST PUSH1 0x1 PUSH1 0x1 PUSH1 0xA0 SHL SUB AND PUSH1 0x0 SWAP1 DUP2 MSTORE PUSH1 0x20 DUP2 SWAP1 MSTORE PUSH1 0x40 SWAP1 KECCAK256 SLOAD SWAP1 JUMP JUMPDEST CALLVALUE DUP1 ISZERO PUSH2 0x253 JUMPI PUSH1 0x0 DUP1 REVERT JUMPDEST POP PUSH2 0xF9 PUSH2 0x5D5 JUMP JUMPDEST CALLVALUE DUP1 ISZERO PUSH2 0x268 JUMPI PUSH1 0x0 DUP1 REVERT JUMPDEST POP PUSH1 0x5 SLOAD PUSH1 0x1 PUSH1 0x1 PUSH1 0xA0 SHL SUB AND PUSH1 0x40 MLOAD PUSH2 0x11D SWAP2 SWAP1 PUSH2 0xB9C JUMP JUMPDEST CALLVALUE DUP1 ISZERO PUSH2 0x28E JUMPI PUSH1 0x0 DUP1 REVERT JUMPDEST POP PUSH2 0x110 PUSH2 0x5E9 JUMP JUMPDEST CALLVALUE DUP1 ISZERO PUSH2 0x2A3 JUMPI PUSH1 0x0 DUP1 REVERT JUMPDEST POP PUSH2 0x146 PUSH2 0x2B2 CALLDATASIZE PUSH1 0x4 PUSH2 0xB0B JUMP JUMPDEST PUSH2 0x5F8 JUMP JUMPDEST CALLVALUE DUP1 ISZERO PUSH2 0x2C3 JUMPI PUSH1 0x0 DUP1 REVERT JUMPDEST POP PUSH2 0x146 PUSH2 0x2D2 CALLDATASIZE PUSH1 0x4 PUSH2 0xB0B JUMP JUMPDEST PUSH2 0x640 JUMP JUMPDEST CALLVALUE DUP1 ISZERO PUSH2 0x2E3 JUMPI PUSH1 0x0 DUP1 REVERT JUMPDEST POP PUSH2 0x110 PUSH2 0x64D JUMP JUMPDEST CALLVALUE DUP1 ISZERO PUSH2 0x2F8 JUMPI PUSH1 0x0 DUP1 REVERT JUMPDEST POP PUSH2 0xF9 PUSH2 0x307 CALLDATASIZE PUSH1 0x4 PUSH2 0xBB0 JUMP JUMPDEST PUSH2 0x6DB JUMP JUMPDEST CALLVALUE DUP1 ISZERO PUSH2 0x318 JUMPI PUSH1 0x0 DUP1 REVERT JUMPDEST POP PUSH2 0x110 PUSH2 0x6F0 JUMP JUMPDEST CALLVALUE DUP1 ISZERO PUSH2 0x32D JUMPI PUSH1 0x0 DUP1 REVERT JUMPDEST POP PUSH2 0x187 PUSH2 0x33C CALLDATASIZE PUSH1 0x4 PUSH2 0xBC9 JUMP JUMPDEST PUSH1 0x1 PUSH1 0x1 PUSH1 0xA0 SHL SUB SWAP2 DUP3 AND PUSH1 0x0 SWAP1 DUP2 MSTORE PUSH1 0x1 PUSH1 0x20 SWAP1 DUP2 MSTORE PUSH1 0x40 DUP1 DUP4 KECCAK256 SWAP4 SWAP1 SWAP5 AND DUP3 MSTORE SWAP2 SWAP1 SWAP2 MSTORE KECCAK256 SLOAD SWAP1 JUMP JUMPDEST CALLVALUE DUP1 ISZERO PUSH2 0x373 JUMPI PUSH1 0x0 DUP1 REVERT JUMPDEST POP PUSH2 0xF9 PUSH2 0x382 CALLDATASIZE PUSH1 0x4 PUSH2 0xB78 JUMP JUMPDEST PUSH2 0x6FD JUMP JUMPDEST PUSH1 0x60 PUSH1 0x3 DUP1 SLOAD PUSH2 0x396 SWAP1 PUSH2 0xC02 JUMP JUMPDEST DUP1 PUSH1 0x1F ADD PUSH1 0x20 DUP1 SWAP2 DIV MUL PUSH1 0x20 ADD PUSH1 0x40 MLOAD SWAP1 DUP2 ADD PUSH1 0x40 MSTORE DUP1 SWAP3 SWAP2 SWAP1 DUP2 DUP2 MSTORE PUSH1 0x20 ADD DUP3 DUP1 SLOAD PUSH2 0x3C2 SWAP1 PUSH2 0xC02 JUMP JUMPDEST DUP1 ISZERO PUSH2 0x40F JUMPI DUP1 PUSH1 0x1F LT PUSH2 0x3E4 JUMPI PUSH2 0x100 DUP1 DUP4 SLOAD DIV MUL DUP4 MSTORE SWAP2 PUSH1 0x20 ADD SWAP2 PUSH2 0x40F JUMP JUMPDEST DUP3 ADD SWAP2 SWAP1 PUSH1 0x0 MSTORE PUSH1 0x20 PUSH1 0x0 KECCAK256 SWAP1 JUMPDEST DUP2 SLOAD DUP2 MSTORE SWAP1 PUSH1 0x1 ADD SWAP1 PUSH1 0x20 ADD DUP1 DUP4 GT PUSH2 0x3F2 JUMPI DUP3 SWAP1 SUB PUSH1 0x1F AND DUP3 ADD SWAP2 JUMPDEST POP POP POP POP POP SWAP1 POP SWAP1 JUMP JUMPDEST PUSH1 0x0 PUSH2 0x426 CALLER DUP5 DUP5 PUSH2 0x778 JUMP JUMPDEST POP PUSH1 0x1 SWAP3 SWAP2 POP POP JUMP JUMPDEST PUSH1 0x0 PUSH2 0x2710 ADDRESS PUSH1 0x1 PUSH1 0x1 PUSH1 0xA0 SHL SUB AND PUSH4 0x18160DDD PUSH1 0x40 MLOAD DUP2 PUSH4 0xFFFFFFFF AND PUSH1 0xE0 SHL DUP2 MSTORE PUSH1 0x4 ADD PUSH1 0x20 PUSH1 0x40 MLOAD DUP1 DUP4 SUB DUP2 DUP7 GAS STATICCALL ISZERO DUP1 ISZERO PUSH2 0x472 JUMPI RETURNDATASIZE PUSH1 0x0 DUP1 RETURNDATACOPY RETURNDATASIZE PUSH1 0x0 REVERT JUMPDEST POP POP POP POP PUSH1 0x40 MLOAD RETURNDATASIZE PUSH1 0x1F NOT PUSH1 0x1F DUP3 ADD AND DUP3 ADD DUP1 PUSH1 0x40 MSTORE POP DUP2 ADD SWAP1 PUSH2 0x496 SWAP2 SWAP1 PUSH2 0xC3C JUMP JUMPDEST PUSH2 0x4A2 SWAP1 PUSH2 0x13EC PUSH2 0xC6B JUMP JUMPDEST PUSH2 0x4AC SWAP2 SWAP1 PUSH2 0xC8A JUMP JUMPDEST PUSH1 0x40 MLOAD PUSH4 0x70A08231 PUSH1 0xE0 SHL DUP2 MSTORE ADDRESS SWAP1 PUSH4 0x70A08231 SWAP1 PUSH2 0x4CF SWAP1 CALLER SWAP1 PUSH1 0x4 ADD PUSH2 0xB9C JUMP JUMPDEST PUSH1 0x20 PUSH1 0x40 MLOAD DUP1 DUP4 SUB DUP2 DUP7 GAS STATICCALL ISZERO DUP1 ISZERO PUSH2 0x4EC JUMPI RETURNDATASIZE PUSH1 0x0 DUP1 RETURNDATACOPY RETURNDATASIZE PUSH1 0x0 REVERT JUMPDEST POP POP POP POP PUSH1 0x40 MLOAD RETURNDATASIZE PUSH1 0x1F NOT PUSH1 0x1F DUP3 ADD AND DUP3 ADD DUP1 PUSH1 0x40 MSTORE POP DUP2 ADD SWAP1 PUSH2 0x510 SWAP2 SWAP1 PUSH2 0xC3C JUMP JUMPDEST LT ISZERO SWAP1 POP DUP1 PUSH2 0x51E JUMPI PUSH1 0x0 DUP1 REVERT JUMPDEST PUSH2 0x528 DUP4 DUP4 PUSH2 0x7FF JUMP JUMPDEST POP POP POP JUMP JUMPDEST PUSH1 0x0 PUSH2 0x53A DUP5 DUP5 DUP5 PUSH2 0x889 JUMP JUMPDEST PUSH1 0x1 PUSH1 0x1 PUSH1 0xA0 SHL SUB DUP5 AND PUSH1 0x0 SWAP1 DUP2 MSTORE PUSH1 0x1 PUSH1 0x20 SWAP1 DUP2 MSTORE PUSH1 0x40 DUP1 DUP4 KECCAK256 CALLER DUP5 MSTORE SWAP1 SWAP2 MSTORE SWAP1 KECCAK256 SLOAD DUP3 DUP2 LT ISZERO PUSH2 0x56B JUMPI PUSH1 0x0 DUP1 REVERT JUMPDEST PUSH2 0x578 DUP6 CALLER DUP6 DUP5 SUB PUSH2 0x778 JUMP JUMPDEST POP PUSH1 0x1 SWAP5 SWAP4 POP POP POP POP JUMP JUMPDEST PUSH2 0x58B PUSH2 0x954 JUMP JUMPDEST PUSH2 0x595 DUP3 DUP3 PUSH2 0x9AE JUMP JUMPDEST POP POP JUMP JUMPDEST CALLER PUSH1 0x0 DUP2 DUP2 MSTORE PUSH1 0x1 PUSH1 0x20 SWAP1 DUP2 MSTORE PUSH1 0x40 DUP1 DUP4 KECCAK256 PUSH1 0x1 PUSH1 0x1 PUSH1 0xA0 SHL SUB DUP8 AND DUP5 MSTORE SWAP1 SWAP2 MSTORE DUP2 KECCAK256 SLOAD SWAP1 SWAP2 PUSH2 0x426 SWAP2 DUP6 SWAP1 PUSH2 0x5D0 SWAP1 DUP7 SWAP1 PUSH2 0xCAC JUMP JUMPDEST PUSH2 0x778 JUMP JUMPDEST PUSH2 0x5DD PUSH2 0x954 JUMP JUMPDEST PUSH2 0x5E7 PUSH1 0x0 PUSH2 0xA4F JUMP JUMPDEST JUMP JUMPDEST PUSH1 0x60 PUSH1 0x4 DUP1 SLOAD PUSH2 0x396 SWAP1 PUSH2 0xC02 JUMP JUMPDEST CALLER PUSH1 0x0 SWAP1 DUP2 MSTORE PUSH1 0x1 PUSH1 0x20 SWAP1 DUP2 MSTORE PUSH1 0x40 DUP1 DUP4 KECCAK256 PUSH1 0x1 PUSH1 0x1 PUSH1 0xA0 SHL SUB DUP7 AND DUP5 MSTORE SWAP1 SWAP2 MSTORE DUP2 KECCAK256 SLOAD DUP3 DUP2 LT ISZERO PUSH2 0x629 JUMPI PUSH1 0x0 DUP1 REVERT JUMPDEST PUSH2 0x636 CALLER DUP6 DUP6 DUP5 SUB PUSH2 0x778 JUMP JUMPDEST POP PUSH1 0x1 SWAP4 SWAP3 POP POP POP JUMP JUMPDEST PUSH1 0x0 PUSH2 0x426 CALLER DUP5 DUP5 PUSH2 0x889 JUMP JUMPDEST PUSH1 0x4 DUP1 SLOAD PUSH2 0x65A SWAP1 PUSH2 0xC02 JUMP JUMPDEST DUP1 PUSH1 0x1F ADD PUSH1 0x20 DUP1 SWAP2 DIV MUL PUSH1 0x20 ADD PUSH1 0x40 MLOAD SWAP1 DUP2 ADD PUSH1 0x40 MSTORE DUP1 SWAP3 SWAP2 SWAP1 DUP2 DUP2 MSTORE PUSH1 0x20 ADD DUP3 DUP1 SLOAD PUSH2 0x686 SWAP1 PUSH2 0xC02 JUMP JUMPDEST DUP1 ISZERO PUSH2 0x6D3 JUMPI DUP1 PUSH1 0x1F LT PUSH2 0x6A8 JUMPI PUSH2 0x100 DUP1 DUP4 SLOAD DIV MUL DUP4 MSTORE SWAP2 PUSH1 0x20 ADD SWAP2 PUSH2 0x6D3 JUMP JUMPDEST DUP3 ADD SWAP2 SWAP1 PUSH1 0x0 MSTORE PUSH1 0x20 PUSH1 0x0 KECCAK256 SWAP1 JUMPDEST DUP2 SLOAD DUP2 MSTORE SWAP1 PUSH1 0x1 ADD SWAP1 PUSH1 0x20 ADD DUP1 DUP4 GT PUSH2 0x6B6 JUMPI DUP3 SWAP1 SUB PUSH1 0x1F AND DUP3 ADD SWAP2 JUMPDEST POP POP POP POP POP DUP2 JUMP JUMPDEST PUSH2 0x6E3 PUSH2 0x954 JUMP JUMPDEST PUSH2 0x6ED CALLER DUP3 PUSH2 0x9AE JUMP JUMPDEST POP JUMP JUMPDEST PUSH1 0x3 DUP1 SLOAD PUSH2 0x65A SWAP1 PUSH2 0xC02 JUMP JUMPDEST PUSH2 0x705 PUSH2 0x954 JUMP JUMPDEST PUSH1 0x1 PUSH1 0x1 PUSH1 0xA0 SHL SUB DUP2 AND PUSH2 0x76F JUMPI PUSH1 0x40 MLOAD PUSH3 0x461BCD PUSH1 0xE5 SHL DUP2 MSTORE PUSH1 0x20 PUSH1 0x4 DUP3 ADD MSTORE PUSH1 0x26 PUSH1 0x24 DUP3 ADD MSTORE PUSH32 0x4F776E61626C653A206E6577206F776E657220697320746865207A65726F2061 PUSH1 0x44 DUP3 ADD MSTORE PUSH6 0x646472657373 PUSH1 0xD0 SHL PUSH1 0x64 DUP3 ADD MSTORE PUSH1 0x84 ADD JUMPDEST PUSH1 0x40 MLOAD DUP1 SWAP2 SUB SWAP1 REVERT JUMPDEST PUSH2 0x6ED DUP2 PUSH2 0xA4F JUMP JUMPDEST PUSH1 0x1 PUSH1 0x1 PUSH1 0xA0 SHL SUB DUP4 AND PUSH2 0x78B JUMPI PUSH1 0x0 DUP1 REVERT JUMPDEST PUSH1 0x1 PUSH1 0x1 PUSH1 0xA0 SHL SUB DUP3 AND PUSH2 0x79E JUMPI PUSH1 0x0 DUP1 REVERT JUMPDEST PUSH1 0x1 PUSH1 0x1 PUSH1 0xA0 SHL SUB DUP4 DUP2 AND PUSH1 0x0 DUP2 DUP2 MSTORE PUSH1 0x1 PUSH1 0x20 SWAP1 DUP2 MSTORE PUSH1 0x40 DUP1 DUP4 KECCAK256 SWAP5 DUP8 AND DUP1 DUP5 MSTORE SWAP5 DUP3 MSTORE SWAP2 DUP3 SWAP1 KECCAK256 DUP6 SWAP1 SSTORE SWAP1 MLOAD DUP5 DUP2 MSTORE PUSH32 0x8C5BE1E5EBEC7D5BD14F71427D1E84F3DD0314C0F7B2291E5B200AC8C7C3B925 SWAP2 ADD PUSH1 0x40 MLOAD DUP1 SWAP2 SUB SWAP1 LOG3 POP POP POP JUMP JUMPDEST PUSH1 0x1 PUSH1 0x1 PUSH1 0xA0 SHL SUB DUP3 AND PUSH2 0x812 JUMPI PUSH1 0x0 DUP1 REVERT JUMPDEST DUP1 PUSH1 0x2 PUSH1 0x0 DUP3 DUP3 SLOAD PUSH2 0x824 SWAP2 SWAP1 PUSH2 0xCAC JUMP JUMPDEST SWAP1 SWAP2 SSTORE POP POP PUSH1 0x1 PUSH1 0x1 PUSH1 0xA0 SHL SUB DUP3 AND PUSH1 0x0 SWAP1 DUP2 MSTORE PUSH1 0x20 DUP2 SWAP1 MSTORE PUSH1 0x40 DUP2 KECCAK256 DUP1 SLOAD DUP4 SWAP3 SWAP1 PUSH2 0x851 SWAP1 DUP5 SWAP1 PUSH2 0xCAC JUMP JUMPDEST SWAP1 SWAP2 SSTORE POP POP PUSH1 0x40 MLOAD DUP2 DUP2 MSTORE PUSH1 0x1 PUSH1 0x1 PUSH1 0xA0 SHL SUB DUP4 AND SWAP1 PUSH1 0x0 SWAP1 PUSH1 0x0 DUP1 MLOAD PUSH1 0x20 PUSH2 0xCDC DUP4 CODECOPY DUP2 MLOAD SWAP2 MSTORE SWAP1 PUSH1 0x20 ADD PUSH1 0x40 MLOAD DUP1 SWAP2 SUB SWAP1 LOG3 POP POP JUMP JUMPDEST PUSH1 0x1 PUSH1 0x1 PUSH1 0xA0 SHL SUB DUP4 AND PUSH2 0x89C JUMPI PUSH1 0x0 DUP1 REVERT JUMPDEST PUSH1 0x1 PUSH1 0x1 PUSH1 0xA0 SHL SUB DUP3 AND PUSH2 0x8AF JUMPI PUSH1 0x0 DUP1 REVERT JUMPDEST PUSH1 0x1 PUSH1 0x1 PUSH1 0xA0 SHL SUB DUP4 AND PUSH1 0x0 SWAP1 DUP2 MSTORE PUSH1 0x20 DUP2 SWAP1 MSTORE PUSH1 0x40 SWAP1 KECCAK256 SLOAD DUP2 DUP2 LT ISZERO PUSH2 0x8D5 JUMPI PUSH1 0x0 DUP1 REVERT JUMPDEST PUSH1 0x1 PUSH1 0x1 PUSH1 0xA0 SHL SUB DUP1 DUP6 AND PUSH1 0x0 SWAP1 DUP2 MSTORE PUSH1 0x20 DUP2 SWAP1 MSTORE PUSH1 0x40 DUP1 DUP3 KECCAK256 DUP6 DUP6 SUB SWAP1 SSTORE SWAP2 DUP6 AND DUP2 MSTORE SWAP1 DUP2 KECCAK256 DUP1 SLOAD DUP5 SWAP3 SWAP1 PUSH2 0x90C SWAP1 DUP5 SWAP1 PUSH2 0xCAC JUMP JUMPDEST SWAP3 POP POP DUP2 SWAP1 SSTORE POP DUP3 PUSH1 0x1 PUSH1 0x1 PUSH1 0xA0 SHL SUB AND DUP5 PUSH1 0x1 PUSH1 0x1 PUSH1 0xA0 SHL SUB AND PUSH1 0x0 DUP1 MLOAD PUSH1 0x20 PUSH2 0xCDC DUP4 CODECOPY DUP2 MLOAD SWAP2 MSTORE DUP5 PUSH1 0x40 MLOAD PUSH2 0x946 SWAP2 DUP2 MSTORE PUSH1 0x20 ADD SWAP1 JUMP JUMPDEST PUSH1 0x40 MLOAD DUP1 SWAP2 SUB SWAP1 LOG3 POP POP POP POP JUMP JUMPDEST PUSH1 0x5 SLOAD PUSH1 0x1 PUSH1 0x1 PUSH1 0xA0 SHL SUB AND CALLER EQ PUSH2 0x5E7 JUMPI PUSH1 0x40 MLOAD PUSH3 0x461BCD PUSH1 0xE5 SHL DUP2 MSTORE PUSH1 0x20 PUSH1 0x4 DUP3 ADD DUP2 SWAP1 MSTORE PUSH1 0x24 DUP3 ADD MSTORE PUSH32 0x4F776E61626C653A2063616C6C6572206973206E6F7420746865206F776E6572 PUSH1 0x44 DUP3 ADD MSTORE PUSH1 0x64 ADD PUSH2 0x766 JUMP JUMPDEST PUSH1 0x1 PUSH1 0x1 PUSH1 0xA0 SHL SUB DUP3 AND PUSH2 0x9C1 JUMPI PUSH1 0x0 DUP1 REVERT JUMPDEST PUSH1 0x1 PUSH1 0x1 PUSH1 0xA0 SHL SUB DUP3 AND PUSH1 0x0 SWAP1 DUP2 MSTORE PUSH1 0x20 DUP2 SWAP1 MSTORE PUSH1 0x40 SWAP1 KECCAK256 SLOAD DUP2 DUP2 LT ISZERO PUSH2 0x9E7 JUMPI PUSH1 0x0 DUP1 REVERT JUMPDEST PUSH1 0x1 PUSH1 0x1 PUSH1 0xA0 SHL SUB DUP4 AND PUSH1 0x0 SWAP1 DUP2 MSTORE PUSH1 0x20 DUP2 SWAP1 MSTORE PUSH1 0x40 DUP2 KECCAK256 DUP4 DUP4 SUB SWAP1 SSTORE PUSH1 0x2 DUP1 SLOAD DUP5 SWAP3 SWAP1 PUSH2 0xA16 SWAP1 DUP5 SWAP1 PUSH2 0xCC4 JUMP JUMPDEST SWAP1 SWAP2 SSTORE POP POP PUSH1 0x40 MLOAD DUP3 DUP2 MSTORE PUSH1 0x0 SWAP1 PUSH1 0x1 PUSH1 0x1 PUSH1 0xA0 SHL SUB DUP6 AND SWAP1 PUSH1 0x0 DUP1 MLOAD PUSH1 0x20 PUSH2 0xCDC DUP4 CODECOPY DUP2 MLOAD SWAP2 MSTORE SWAP1 PUSH1 0x20 ADD PUSH1 0x40 MLOAD DUP1 SWAP2 SUB SWAP1 LOG3 POP POP POP JUMP JUMPDEST PUSH1 0x5 DUP1 SLOAD PUSH1 0x1 PUSH1 0x1 PUSH1 0xA0 SHL SUB DUP4 DUP2 AND PUSH1 0x1 PUSH1 0x1 PUSH1 0xA0 SHL SUB NOT DUP4 AND DUP2 OR SWAP1 SWAP4 SSTORE PUSH1 0x40 MLOAD SWAP2 AND SWAP2 SWAP1 DUP3 SWAP1 PUSH32 0x8BE0079C531659141344CD1FD0A4F28419497F9722A3DAAFE3B4186F6B6457E0 SWAP1 PUSH1 0x0 SWAP1 LOG3 POP POP JUMP JUMPDEST PUSH1 0x0 PUSH1 0x20 DUP1 DUP4 MSTORE DUP4 MLOAD DUP1 DUP3 DUP6 ADD MSTORE PUSH1 0x0 JUMPDEST DUP2 DUP2 LT ISZERO PUSH2 0xACE JUMPI DUP6 DUP2 ADD DUP4 ADD MLOAD DUP6 DUP3 ADD PUSH1 0x40 ADD MSTORE DUP3 ADD PUSH2 0xAB2 JUMP JUMPDEST DUP2 DUP2 GT ISZERO PUSH2 0xAE0 JUMPI PUSH1 0x0 PUSH1 0x40 DUP4 DUP8 ADD ADD MSTORE JUMPDEST POP PUSH1 0x1F ADD PUSH1 0x1F NOT AND SWAP3 SWAP1 SWAP3 ADD PUSH1 0x40 ADD SWAP4 SWAP3 POP POP POP JUMP JUMPDEST PUSH1 0x1 PUSH1 0x1 PUSH1 0xA0 SHL SUB DUP2 AND DUP2 EQ PUSH2 0x6ED JUMPI PUSH1 0x0 DUP1 REVERT JUMPDEST PUSH1 0x0 DUP1 PUSH1 0x40 DUP4 DUP6 SUB SLT ISZERO PUSH2 0xB1E JUMPI PUSH1 0x0 DUP1 REVERT JUMPDEST DUP3 CALLDATALOAD PUSH2 0xB29 DUP2 PUSH2 0xAF6 JUMP JUMPDEST SWAP5 PUSH1 0x20 SWAP4 SWAP1 SWAP4 ADD CALLDATALOAD SWAP4 POP POP POP JUMP JUMPDEST PUSH1 0x0 DUP1 PUSH1 0x0 PUSH1 0x60 DUP5 DUP7 SUB SLT ISZERO PUSH2 0xB4C JUMPI PUSH1 0x0 DUP1 REVERT JUMPDEST DUP4 CALLDATALOAD PUSH2 0xB57 DUP2 PUSH2 0xAF6 JUMP JUMPDEST SWAP3 POP PUSH1 0x20 DUP5 ADD CALLDATALOAD PUSH2 0xB67 DUP2 PUSH2 0xAF6 JUMP JUMPDEST SWAP3 SWAP6 SWAP3 SWAP5 POP POP POP PUSH1 0x40 SWAP2 SWAP1 SWAP2 ADD CALLDATALOAD SWAP1 JUMP JUMPDEST PUSH1 0x0 PUSH1 0x20 DUP3 DUP5 SUB SLT ISZERO PUSH2 0xB8A JUMPI PUSH1 0x0 DUP1 REVERT JUMPDEST DUP2 CALLDATALOAD PUSH2 0xB95 DUP2 PUSH2 0xAF6 JUMP JUMPDEST SWAP4 SWAP3 POP POP POP JUMP JUMPDEST PUSH1 0x1 PUSH1 0x1 PUSH1 0xA0 SHL SUB SWAP2 SWAP1 SWAP2 AND DUP2 MSTORE PUSH1 0x20 ADD SWAP1 JUMP JUMPDEST PUSH1 0x0 PUSH1 0x20 DUP3 DUP5 SUB SLT ISZERO PUSH2 0xBC2 JUMPI PUSH1 0x0 DUP1 REVERT JUMPDEST POP CALLDATALOAD SWAP2 SWAP1 POP JUMP JUMPDEST PUSH1 0x0 DUP1 PUSH1 0x40 DUP4 DUP6 SUB SLT ISZERO PUSH2 0xBDC JUMPI PUSH1 0x0 DUP1 REVERT JUMPDEST DUP3 CALLDATALOAD PUSH2 0xBE7 DUP2 PUSH2 0xAF6 JUMP JUMPDEST SWAP2 POP PUSH1 0x20 DUP4 ADD CALLDATALOAD PUSH2 0xBF7 DUP2 PUSH2 0xAF6 JUMP JUMPDEST DUP1 SWAP2 POP POP SWAP3 POP SWAP3 SWAP1 POP JUMP JUMPDEST PUSH1 0x1 DUP2 DUP2 SHR SWAP1 DUP3 AND DUP1 PUSH2 0xC16 JUMPI PUSH1 0x7F DUP3 AND SWAP2 POP JUMPDEST PUSH1 0x20 DUP3 LT DUP2 SUB PUSH2 0xC36 JUMPI PUSH4 0x4E487B71 PUSH1 0xE0 SHL PUSH1 0x0 MSTORE PUSH1 0x22 PUSH1 0x4 MSTORE PUSH1 0x24 PUSH1 0x0 REVERT JUMPDEST POP SWAP2 SWAP1 POP JUMP JUMPDEST PUSH1 0x0 PUSH1 0x20 DUP3 DUP5 SUB SLT ISZERO PUSH2 0xC4E JUMPI PUSH1 0x0 DUP1 REVERT JUMPDEST POP MLOAD SWAP2 SWAP1 POP JUMP JUMPDEST PUSH4 0x4E487B71 PUSH1 0xE0 SHL PUSH1 0x0 MSTORE PUSH1 0x11 PUSH1 0x4 MSTORE PUSH1 0x24 PUSH1 0x0 REVERT JUMPDEST PUSH1 0x0 DUP2 PUSH1 0x0 NOT DIV DUP4 GT DUP3 ISZERO ISZERO AND ISZERO PUSH2 0xC85 JUMPI PUSH2 0xC85 PUSH2 0xC55 JUMP JUMPDEST POP MUL SWAP1 JUMP JUMPDEST PUSH1 0x0 DUP3 PUSH2 0xCA7 JUMPI PUSH4 0x4E487B71 PUSH1 0xE0 SHL PUSH1 0x0 MSTORE PUSH1 0x12 PUSH1 0x4 MSTORE PUSH1 0x24 PUSH1 0x0 REVERT JUMPDEST POP DIV SWAP1 JUMP JUMPDEST PUSH1 0x0 DUP3 NOT DUP3 GT ISZERO PUSH2 0xCBF JUMPI PUSH2 0xCBF PUSH2 0xC55 JUMP JUMPDEST POP ADD SWAP1 JUMP JUMPDEST PUSH1 0x0 DUP3 DUP3 LT ISZERO PUSH2 0xCD6 JUMPI PUSH2 0xCD6 PUSH2 0xC55 JUMP JUMPDEST POP SUB SWAP1 JUMP INVALID 0xDD CALLCODE MSTORE 0xAD SHL 0xE2 0xC8 SWAP12 PUSH10 0xC2B068FC378DAA952BA7 CALL PUSH4 0xC4A11628 CREATE2 GAS 0x4D CREATE2 0x23 0xB3 0xEF LOG2 PUSH5 0x6970667358 0x22 SLT KECCAK256 0xEA 0x1E PUSH27 0xBB687341E967AF24F4F770026CB07B97BD4C325DCEF1D4CAE7EDE8 PUSH25 0x6464736F6C634300080D00338BE0079C531659141344CD1FD0 LOG4 CALLCODE DUP5 NOT 0x49 PUSH32 0x9722A3DAAFE3B4186F6B6457E000000000000000000000000000000000000000 "
				},
				"gasEstimates": {
					"creation": {
						"codeDepositCost": "675400",
						"executionCost": "infinite",
						"totalCost": "infinite"
					},
					"external": {
						"": "272",
						"Burn(uint256)": "infinite",
						"BurnFrom(address,uint256)": "infinite",
						"Mint(address,uint256)": "infinite",
						"_name()": "infinite",
						"_symbol()": "infinite",
						"allowance(address,address)": "infinite",
						"approve(address,uint256)": "24613",
						"balanceOf(address)": "2711",
						"decimals()": "310",
						"decreaseAllowance(address,uint256)": "26948",
						"increaseAllowance(address,uint256)": "27083",
						"name()": "infinite",
						"owner()": "2365",
						"renounceOwnership()": "infinite",
						"symbol()": "infinite",
						"totalSupply()": "2348",
						"transfer(address,uint256)": "infinite",
						"transferFrom(address,address,uint256)": "infinite",
						"transferOwnership(address)": "infinite"
					}
				},
				"methodIdentifiers": {
					"Burn(uint256)": "b90306ad",
					"BurnFrom(address,uint256)": "28e1a604",
					"Mint(address,uint256)": "0f6798a5",
					"_name()": "d28d8852",
					"_symbol()": "b09f1266",
					"allowance(address,address)": "dd62ed3e",
					"approve(address,uint256)": "095ea7b3",
					"balanceOf(address)": "70a08231",
					"decimals()": "313ce567",
					"decreaseAllowance(address,uint256)": "a457c2d7",
					"increaseAllowance(address,uint256)": "39509351",
					"name()": "06fdde03",
					"owner()": "8da5cb5b",
					"renounceOwnership()": "715018a6",
					"symbol()": "95d89b41",
					"totalSupply()": "18160ddd",
					"transfer(address,uint256)": "a9059cbb",
					"transferFrom(address,address,uint256)": "23b872dd",
					"transferOwnership(address)": "f2fde38b"
				}
			},
			"storageLayout": {
				"storage": [
					{
						"astId": 902,
						"contract": "contracts/utilities/iLock.sol:iLock",
						"label": "_balances",
						"offset": 0,
						"slot": "0",
						"type": "t_mapping(t_address,t_uint256)"
					},
					{
						"astId": 908,
						"contract": "contracts/utilities/iLock.sol:iLock",
						"label": "_allowances",
						"offset": 0,
						"slot": "1",
						"type": "t_mapping(t_address,t_mapping(t_address,t_uint256))"
					},
					{
						"astId": 910,
						"contract": "contracts/utilities/iLock.sol:iLock",
						"label": "_totalSupply",
						"offset": 0,
						"slot": "2",
						"type": "t_uint256"
					},
					{
						"astId": 912,
						"contract": "contracts/utilities/iLock.sol:iLock",
						"label": "_name",
						"offset": 0,
						"slot": "3",
						"type": "t_string_storage"
					},
					{
						"astId": 914,
						"contract": "contracts/utilities/iLock.sol:iLock",
						"label": "_symbol",
						"offset": 0,
						"slot": "4",
						"type": "t_string_storage"
					},
					{
						"astId": 7,
						"contract": "contracts/utilities/iLock.sol:iLock",
						"label": "_owner",
						"offset": 0,
						"slot": "5",
						"type": "t_address"
					}
				],
				"types": {
					"t_address": {
						"encoding": "inplace",
						"label": "address",
						"numberOfBytes": "20"
					},
					"t_mapping(t_address,t_mapping(t_address,t_uint256))": {
						"encoding": "mapping",
						"key": "t_address",
						"label": "mapping(address => mapping(address => uint256))",
						"numberOfBytes": "32",
						"value": "t_mapping(t_address,t_uint256)"
					},
					"t_mapping(t_address,t_uint256)": {
						"encoding": "mapping",
						"key": "t_address",
						"label": "mapping(address => uint256)",
						"numberOfBytes": "32",
						"value": "t_uint256"
					},
					"t_string_storage": {
						"encoding": "bytes",
						"label": "string",
						"numberOfBytes": "32"
					},
					"t_uint256": {
						"encoding": "inplace",
						"label": "uint256",
						"numberOfBytes": "32"
					}
				}
			},
			"userdoc": {
				"kind": "user",
				"methods": {},
				"notice": "▪  ▄.▄.▄▄▄▄.▪▄▄▄▄.▄▄▄ ▄▄▄· ▄▄.·▄ ▄▄▄▄· ▪  ▄  ▄·▄▄▄▄ .·▄▄▄▄ ██ •█▌█▌•██ ·▀▀▄. ▀▄▄█·▐█ ▌▪██▪▐█ █▀▀█ ██ •█▌▐█ ▀▀▄▪ ▐█▪ ██ ▐█·▐█▐▐▌ ▐█.▪▐▀▀▪▄▐▀▀▄ ██ ▄▄██▀▐█ █▀▀█·▐█·▐█▐▐▌▐▀▀▪▄·▐█· ██ ▐█·██▐█▌ ▐█▌·▐█▄▄▌▐█•█▌▐███▌██ ▐█ █▪ █·▐█ ██▐█▌▐█▄▄▌·▐█. ██ █▪ ▀▪▀ •▀▀▀ .▀▀▀▀·▀ ▀• ▀▀▀· ▀ •▀ ▀• ▀  █▪ ▀ ▀ •▀▀▀▀  ▀▀▀▀▀Community FOSS R&D supported by Kekchain, FrenChain, Electronero Network, Crystaleum",
				"version": 1
			}
		}
	}
}