{
	"contracts/test/Locker_Rewards.sol": {
		"UniswapV2Locker": {
			"abi": [
				{
					"inputs": [
						{
							"internalType": "contract IUniFactory",
							"name": "_uniswapFactory",
							"type": "address"
						}
					],
					"stateMutability": "nonpayable",
					"type": "constructor"
				},
				{
					"anonymous": false,
					"inputs": [
						{
							"indexed": true,
							"internalType": "address",
							"name": "previousOwner",
							"type": "address"
						},
						{
							"indexed": true,
							"internalType": "address",
							"name": "newOwner",
							"type": "address"
						}
					],
					"name": "OwnershipTransferred",
					"type": "event"
				},
				{
					"anonymous": false,
					"inputs": [
						{
							"indexed": false,
							"internalType": "address",
							"name": "lpToken",
							"type": "address"
						},
						{
							"indexed": false,
							"internalType": "address",
							"name": "user",
							"type": "address"
						},
						{
							"indexed": false,
							"internalType": "uint256",
							"name": "amount",
							"type": "uint256"
						},
						{
							"indexed": false,
							"internalType": "uint256",
							"name": "lockDate",
							"type": "uint256"
						},
						{
							"indexed": false,
							"internalType": "uint256",
							"name": "unlockDate",
							"type": "uint256"
						}
					],
					"name": "onDeposit",
					"type": "event"
				},
				{
					"anonymous": false,
					"inputs": [
						{
							"indexed": false,
							"internalType": "address",
							"name": "lpToken",
							"type": "address"
						},
						{
							"indexed": false,
							"internalType": "uint256",
							"name": "amount",
							"type": "uint256"
						}
					],
					"name": "onWithdraw",
					"type": "event"
				},
				{
					"inputs": [
						{
							"internalType": "address payable",
							"name": "wallet",
							"type": "address"
						}
					],
					"name": "BlocklistStatus",
					"outputs": [
						{
							"internalType": "bool",
							"name": "",
							"type": "bool"
						}
					],
					"stateMutability": "view",
					"type": "function"
				},
				{
					"inputs": [
						{
							"internalType": "address payable",
							"name": "wallet",
							"type": "address"
						}
					],
					"name": "WhitelistStatus",
					"outputs": [
						{
							"internalType": "bool",
							"name": "",
							"type": "bool"
						}
					],
					"stateMutability": "view",
					"type": "function"
				},
				{
					"inputs": [
						{
							"internalType": "address payable",
							"name": "_user",
							"type": "address"
						},
						{
							"internalType": "bool",
							"name": "_add",
							"type": "bool"
						}
					],
					"name": "blocklistAccount",
					"outputs": [],
					"stateMutability": "nonpayable",
					"type": "function"
				},
				{
					"inputs": [],
					"name": "gFees",
					"outputs": [
						{
							"internalType": "uint256",
							"name": "ethFee",
							"type": "uint256"
						},
						{
							"internalType": "contract IERCBurn",
							"name": "secondaryFeeToken",
							"type": "address"
						},
						{
							"internalType": "uint256",
							"name": "secondaryTokenFee",
							"type": "uint256"
						},
						{
							"internalType": "uint256",
							"name": "secondaryTokenDiscount",
							"type": "uint256"
						},
						{
							"internalType": "uint256",
							"name": "liquidityFee",
							"type": "uint256"
						},
						{
							"internalType": "uint256",
							"name": "referralPercent",
							"type": "uint256"
						},
						{
							"internalType": "contract IERCBurn",
							"name": "referralToken",
							"type": "address"
						},
						{
							"internalType": "uint256",
							"name": "referralHold",
							"type": "uint256"
						},
						{
							"internalType": "uint256",
							"name": "referralDiscount",
							"type": "uint256"
						}
					],
					"stateMutability": "view",
					"type": "function"
				},
				{
					"inputs": [
						{
							"internalType": "address",
							"name": "_user",
							"type": "address"
						},
						{
							"internalType": "uint256",
							"name": "_index",
							"type": "uint256"
						}
					],
					"name": "getLockedTokenAtIndex",
					"outputs": [
						{
							"internalType": "address payable",
							"name": "",
							"type": "address"
						}
					],
					"stateMutability": "view",
					"type": "function"
				},
				{
					"inputs": [],
					"name": "getNumLockedTokens",
					"outputs": [
						{
							"internalType": "uint256",
							"name": "",
							"type": "uint256"
						}
					],
					"stateMutability": "view",
					"type": "function"
				},
				{
					"inputs": [
						{
							"internalType": "address",
							"name": "_lpToken",
							"type": "address"
						}
					],
					"name": "getNumLocksForToken",
					"outputs": [
						{
							"internalType": "uint256",
							"name": "",
							"type": "uint256"
						}
					],
					"stateMutability": "view",
					"type": "function"
				},
				{
					"inputs": [
						{
							"internalType": "address",
							"name": "_user",
							"type": "address"
						},
						{
							"internalType": "address",
							"name": "_lpToken",
							"type": "address"
						},
						{
							"internalType": "uint256",
							"name": "_index",
							"type": "uint256"
						}
					],
					"name": "getUserLockForTokenAtIndex",
					"outputs": [
						{
							"internalType": "uint256",
							"name": "",
							"type": "uint256"
						},
						{
							"internalType": "uint256",
							"name": "",
							"type": "uint256"
						},
						{
							"internalType": "uint256",
							"name": "",
							"type": "uint256"
						},
						{
							"internalType": "uint256",
							"name": "",
							"type": "uint256"
						},
						{
							"internalType": "uint256",
							"name": "",
							"type": "uint256"
						},
						{
							"internalType": "address",
							"name": "",
							"type": "address"
						}
					],
					"stateMutability": "view",
					"type": "function"
				},
				{
					"inputs": [
						{
							"internalType": "address",
							"name": "_user",
							"type": "address"
						},
						{
							"internalType": "uint256",
							"name": "_index",
							"type": "uint256"
						}
					],
					"name": "getUserLockedTokenAtIndex",
					"outputs": [
						{
							"internalType": "address",
							"name": "",
							"type": "address"
						}
					],
					"stateMutability": "view",
					"type": "function"
				},
				{
					"inputs": [
						{
							"internalType": "address",
							"name": "_user",
							"type": "address"
						}
					],
					"name": "getUserNumLockedTokens",
					"outputs": [
						{
							"internalType": "uint256",
							"name": "",
							"type": "uint256"
						}
					],
					"stateMutability": "view",
					"type": "function"
				},
				{
					"inputs": [
						{
							"internalType": "address",
							"name": "_user",
							"type": "address"
						},
						{
							"internalType": "address",
							"name": "_lpToken",
							"type": "address"
						}
					],
					"name": "getUserNumLocksForToken",
					"outputs": [
						{
							"internalType": "uint256",
							"name": "",
							"type": "uint256"
						}
					],
					"stateMutability": "view",
					"type": "function"
				},
				{
					"inputs": [
						{
							"internalType": "address",
							"name": "_lpToken",
							"type": "address"
						},
						{
							"internalType": "uint256",
							"name": "_index",
							"type": "uint256"
						},
						{
							"internalType": "uint256",
							"name": "_lockID",
							"type": "uint256"
						},
						{
							"internalType": "uint256",
							"name": "_amount",
							"type": "uint256"
						}
					],
					"name": "incrementLock",
					"outputs": [],
					"stateMutability": "nonpayable",
					"type": "function"
				},
				{
					"inputs": [
						{
							"internalType": "address payable",
							"name": "_lpToken",
							"type": "address"
						},
						{
							"internalType": "uint256",
							"name": "_amount",
							"type": "uint256"
						},
						{
							"internalType": "uint256",
							"name": "_unlock_date",
							"type": "uint256"
						},
						{
							"internalType": "address payable",
							"name": "_referral",
							"type": "address"
						},
						{
							"internalType": "bool",
							"name": "_fee_in_eth",
							"type": "bool"
						},
						{
							"internalType": "address payable",
							"name": "_withdrawer",
							"type": "address"
						}
					],
					"name": "lockLPToken",
					"outputs": [],
					"stateMutability": "payable",
					"type": "function"
				},
				{
					"inputs": [
						{
							"internalType": "address",
							"name": "_lpToken",
							"type": "address"
						},
						{
							"internalType": "uint256",
							"name": "_index",
							"type": "uint256"
						},
						{
							"internalType": "uint256",
							"name": "_lockID",
							"type": "uint256"
						},
						{
							"internalType": "uint256",
							"name": "_amount",
							"type": "uint256"
						}
					],
					"name": "migrate",
					"outputs": [],
					"stateMutability": "nonpayable",
					"type": "function"
				},
				{
					"inputs": [],
					"name": "owner",
					"outputs": [
						{
							"internalType": "address",
							"name": "",
							"type": "address"
						}
					],
					"stateMutability": "view",
					"type": "function"
				},
				{
					"inputs": [
						{
							"internalType": "address payable",
							"name": "_lpToken",
							"type": "address"
						},
						{
							"internalType": "uint256",
							"name": "_index",
							"type": "uint256"
						},
						{
							"internalType": "uint256",
							"name": "_lockID",
							"type": "uint256"
						},
						{
							"internalType": "uint256",
							"name": "_unlock_date",
							"type": "uint256"
						}
					],
					"name": "relock",
					"outputs": [],
					"stateMutability": "nonpayable",
					"type": "function"
				},
				{
					"inputs": [],
					"name": "renounceOwnership",
					"outputs": [],
					"stateMutability": "nonpayable",
					"type": "function"
				},
				{
					"inputs": [
						{
							"internalType": "uint256",
							"name": "_referralPercent",
							"type": "uint256"
						},
						{
							"internalType": "uint256",
							"name": "_referralDiscount",
							"type": "uint256"
						},
						{
							"internalType": "uint256",
							"name": "_ethFee",
							"type": "uint256"
						},
						{
							"internalType": "uint256",
							"name": "_secondaryTokenFee",
							"type": "uint256"
						},
						{
							"internalType": "uint256",
							"name": "_secondaryTokenDiscount",
							"type": "uint256"
						},
						{
							"internalType": "uint256",
							"name": "_liquidityFee",
							"type": "uint256"
						}
					],
					"name": "setFees",
					"outputs": [],
					"stateMutability": "nonpayable",
					"type": "function"
				},
				{
					"inputs": [
						{
							"internalType": "contract IMigrator",
							"name": "_migrator",
							"type": "address"
						}
					],
					"name": "setMigrator",
					"outputs": [],
					"stateMutability": "nonpayable",
					"type": "function"
				},
				{
					"inputs": [
						{
							"internalType": "address payable",
							"name": "_opsaddr",
							"type": "address"
						}
					],
					"name": "setOps",
					"outputs": [],
					"stateMutability": "nonpayable",
					"type": "function"
				},
				{
					"inputs": [
						{
							"internalType": "contract IERCBurn",
							"name": "_referralToken",
							"type": "address"
						},
						{
							"internalType": "uint256",
							"name": "_hold",
							"type": "uint256"
						}
					],
					"name": "setReferralTokenAndHold",
					"outputs": [],
					"stateMutability": "nonpayable",
					"type": "function"
				},
				{
					"inputs": [
						{
							"internalType": "address",
							"name": "_secondaryFeeToken",
							"type": "address"
						}
					],
					"name": "setSecondaryFeeToken",
					"outputs": [],
					"stateMutability": "nonpayable",
					"type": "function"
				},
				{
					"inputs": [
						{
							"internalType": "address",
							"name": "_lpToken",
							"type": "address"
						},
						{
							"internalType": "uint256",
							"name": "_index",
							"type": "uint256"
						},
						{
							"internalType": "uint256",
							"name": "_lockID",
							"type": "uint256"
						},
						{
							"internalType": "uint256",
							"name": "_amount",
							"type": "uint256"
						}
					],
					"name": "splitLock",
					"outputs": [],
					"stateMutability": "payable",
					"type": "function"
				},
				{
					"inputs": [
						{
							"internalType": "address",
							"name": "",
							"type": "address"
						},
						{
							"internalType": "uint256",
							"name": "",
							"type": "uint256"
						}
					],
					"name": "tokenLocks",
					"outputs": [
						{
							"internalType": "uint256",
							"name": "lockDate",
							"type": "uint256"
						},
						{
							"internalType": "uint256",
							"name": "amount",
							"type": "uint256"
						},
						{
							"internalType": "uint256",
							"name": "initialAmount",
							"type": "uint256"
						},
						{
							"internalType": "uint256",
							"name": "unlockDate",
							"type": "uint256"
						},
						{
							"internalType": "uint256",
							"name": "lockID",
							"type": "uint256"
						},
						{
							"internalType": "address",
							"name": "owner",
							"type": "address"
						}
					],
					"stateMutability": "view",
					"type": "function"
				},
				{
					"inputs": [
						{
							"internalType": "address payable",
							"name": "_lpToken",
							"type": "address"
						},
						{
							"internalType": "uint256",
							"name": "_index",
							"type": "uint256"
						},
						{
							"internalType": "uint256",
							"name": "_lockID",
							"type": "uint256"
						},
						{
							"internalType": "address payable",
							"name": "_newOwner",
							"type": "address"
						}
					],
					"name": "transferLockOwnership",
					"outputs": [],
					"stateMutability": "nonpayable",
					"type": "function"
				},
				{
					"inputs": [
						{
							"internalType": "address",
							"name": "newOwner",
							"type": "address"
						}
					],
					"name": "transferOwnership",
					"outputs": [],
					"stateMutability": "nonpayable",
					"type": "function"
				},
				{
					"inputs": [],
					"name": "uniswapFactory",
					"outputs": [
						{
							"internalType": "contract IUniFactory",
							"name": "",
							"type": "address"
						}
					],
					"stateMutability": "view",
					"type": "function"
				},
				{
					"inputs": [
						{
							"internalType": "address payable",
							"name": "_user",
							"type": "address"
						},
						{
							"internalType": "bool",
							"name": "_add",
							"type": "bool"
						}
					],
					"name": "whitelistFeeAccount",
					"outputs": [],
					"stateMutability": "nonpayable",
					"type": "function"
				},
				{
					"inputs": [
						{
							"internalType": "address payable",
							"name": "_lpToken",
							"type": "address"
						},
						{
							"internalType": "uint256",
							"name": "_index",
							"type": "uint256"
						},
						{
							"internalType": "uint256",
							"name": "_lockID",
							"type": "uint256"
						},
						{
							"internalType": "uint256",
							"name": "_amount",
							"type": "uint256"
						}
					],
					"name": "withdraw",
					"outputs": [],
					"stateMutability": "nonpayable",
					"type": "function"
				}
			],
			"devdoc": {
				"kind": "dev",
				"methods": {
					"lockLPToken(address,uint256,uint256,address,bool,address)": {
						"params": {
							"_amount": "amount of LP tokens to lock",
							"_fee_in_eth": "fees can be paid in eth or in a secondary token such as UNCX with a discount on univ2 tokens",
							"_lpToken": "the univ2 token address",
							"_referral": "the referrer address if any or address(0) for none",
							"_unlock_date": "the unix timestamp (in seconds) until unlock",
							"_withdrawer": "the user who can withdraw liquidity once the lock expires."
						}
					},
					"owner()": {
						"details": "Returns the address of the current owner."
					},
					"renounceOwnership()": {
						"details": "Leaves the contract without owner. It will not be possible to call `onlyOwner` functions anymore. Can only be called by the current owner. NOTE: Renouncing ownership will leave the contract without an owner, thereby removing any functionality that is only available to the owner."
					},
					"transferOwnership(address)": {
						"details": "Transfers ownership of the contract to a new account (`newOwner`). Can only be called by the current owner."
					}
				},
				"version": 1
			},
			"evm": {
				"assembly": "    /* \"contracts/test/Locker_Rewards.sol\":13693:36357  contract UniswapV2Locker is Ownable, ReentrancyGuard {... */\n  mstore(0x40, 0x80)\n    /* \"contracts/test/Locker_Rewards.sol\":15760:16175  constructor(IUniFactory _uniswapFactory) {... */\n  callvalue\n  dup1\n  iszero\n  tag_1\n  jumpi\n  0x00\n  dup1\n  revert\ntag_1:\n  pop\n  mload(0x40)\n  sub(codesize, bytecodeSize)\n  dup1\n  bytecodeSize\n  dup4\n  codecopy\n  dup2\n  add\n  0x40\n  dup2\n  swap1\n  mstore\n  tag_2\n  swap2\n  tag_3\n  jump\t// in\ntag_2:\n    /* \"contracts/test/Locker_Rewards.sol\":2021:2038  address msgSender */\n  0x00\n    /* \"contracts/test/Locker_Rewards.sol\":2064:2082  _owner = msgSender */\n  dup1\n  sload\n  not(sub(shl(0xa0, 0x01), 0x01))\n  and\n    /* \"contracts/test/Locker_Rewards.sol\":931:941  msg.sender */\n  caller\n    /* \"contracts/test/Locker_Rewards.sol\":2064:2082  _owner = msgSender */\n  swap1\n  dup2\n  or\n  dup3\n  sstore\n    /* \"contracts/test/Locker_Rewards.sol\":2098:2141  OwnershipTransferred(address(0), msgSender) */\n  mload(0x40)\n    /* \"contracts/test/Locker_Rewards.sol\":931:941  msg.sender */\n  swap1\n  swap2\n  dup3\n  swap2\n    /* \"contracts/test/Locker_Rewards.sol\":2098:2141  OwnershipTransferred(address(0), msgSender) */\n  0x8be0079c531659141344cd1fd0a4f28419497f9722a3daafe3b4186f6b6457e0\n  swap1\n    /* \"contracts/test/Locker_Rewards.sol\":2021:2038  address msgSender */\n  dup3\n  swap1\n    /* \"contracts/test/Locker_Rewards.sol\":2098:2141  OwnershipTransferred(address(0), msgSender) */\n  log3\n  pop\n    /* \"contracts/test/Locker_Rewards.sol\":6431:6432  1 */\n  0x01\n    /* \"contracts/test/Locker_Rewards.sol\":6542:6564  _status = _NOT_ENTERED */\n  dup1\n  sstore\n    /* \"contracts/test/Locker_Rewards.sol\":15812:15815  ops */\n  0x11\n    /* \"contracts/test/Locker_Rewards.sol\":15812:15837  ops = payable(msg.sender) */\n  dup1\n  sload\n    /* \"contracts/test/Locker_Rewards.sol\":15826:15836  msg.sender */\n  caller\n  not(sub(shl(0xa0, 0x01), 0x01))\n    /* \"contracts/test/Locker_Rewards.sol\":15812:15837  ops = payable(msg.sender) */\n  swap2\n  dup3\n  and\n  or\n  swap1\n  swap2\n  sstore\n    /* \"contracts/test/Locker_Rewards.sol\":15872:15874  50 */\n  0x32\n    /* \"contracts/test/Locker_Rewards.sol\":15848:15869  gFees.referralPercent */\n  0x0a\n    /* \"contracts/test/Locker_Rewards.sol\":15848:15874  gFees.referralPercent = 50 */\n  dup2\n  swap1\n  sstore\n    /* \"contracts/test/Locker_Rewards.sol\":15906:15910  1e19 */\n  0x8ac7230489e80000\n    /* \"contracts/test/Locker_Rewards.sol\":15848:15853  gFees */\n  0x05\n    /* \"contracts/test/Locker_Rewards.sol\":15891:15910  gFees.ethFee = 1e19 */\n  dup2\n  swap1\n  sstore\n  0x07\n    /* \"contracts/test/Locker_Rewards.sol\":15921:15951  gFees.secondaryTokenFee = 1e19 */\n  sstore\n    /* \"contracts/test/Locker_Rewards.sol\":15962:15990  gFees.secondaryTokenDiscount */\n  0x08\n    /* \"contracts/test/Locker_Rewards.sol\":15962:15995  gFees.secondaryTokenDiscount = 50 */\n  dup2\n  swap1\n  sstore\n    /* \"contracts/test/Locker_Rewards.sol\":16033:16036  100 */\n  0x64\n  0x09\n    /* \"contracts/test/Locker_Rewards.sol\":16012:16036  gFees.liquidityFee = 100 */\n  sstore\n    /* \"contracts/test/Locker_Rewards.sol\":16075:16080  10e17 */\n  0x0de0b6b3a7640000\n  0x0c\n    /* \"contracts/test/Locker_Rewards.sol\":16054:16080  gFees.referralHold = 10e17 */\n  sstore\n    /* \"contracts/test/Locker_Rewards.sol\":16091:16113  gFees.referralDiscount */\n  0x0d\n    /* \"contracts/test/Locker_Rewards.sol\":16091:16118  gFees.referralDiscount = 50 */\n  sstore\n  0x02\n    /* \"contracts/test/Locker_Rewards.sol\":16135:16167  uniswapFactory = _uniswapFactory */\n  dup1\n  sload\n  swap1\n  swap2\n  and\n  sub(shl(0xa0, 0x01), 0x01)\n  swap3\n  swap1\n  swap3\n  and\n  swap2\n  swap1\n  swap2\n  or\n  swap1\n  sstore\n    /* \"contracts/test/Locker_Rewards.sol\":13693:36357  contract UniswapV2Locker is Ownable, ReentrancyGuard {... */\n  jump(tag_14)\n    /* \"#utility.yul\":14:323   */\ntag_3:\n    /* \"#utility.yul\":103:109   */\n  0x00\n    /* \"#utility.yul\":156:158   */\n  0x20\n    /* \"#utility.yul\":144:153   */\n  dup3\n    /* \"#utility.yul\":135:142   */\n  dup5\n    /* \"#utility.yul\":131:154   */\n  sub\n    /* \"#utility.yul\":127:159   */\n  slt\n    /* \"#utility.yul\":124:176   */\n  iszero\n  tag_16\n  jumpi\n    /* \"#utility.yul\":172:173   */\n  0x00\n    /* \"#utility.yul\":169:170   */\n  dup1\n    /* \"#utility.yul\":162:174   */\n  revert\n    /* \"#utility.yul\":124:176   */\ntag_16:\n    /* \"#utility.yul\":198:214   */\n  dup2\n  mload\n  sub(shl(0xa0, 0x01), 0x01)\n    /* \"#utility.yul\":243:274   */\n  dup2\n  and\n    /* \"#utility.yul\":233:275   */\n  dup2\n  eq\n    /* \"#utility.yul\":223:293   */\n  tag_17\n  jumpi\n    /* \"#utility.yul\":289:290   */\n  0x00\n    /* \"#utility.yul\":286:287   */\n  dup1\n    /* \"#utility.yul\":279:291   */\n  revert\n    /* \"#utility.yul\":223:293   */\ntag_17:\n    /* \"#utility.yul\":312:317   */\n  swap4\n    /* \"#utility.yul\":14:323   */\n  swap3\n  pop\n  pop\n  pop\n  jump\t// out\ntag_14:\n    /* \"contracts/test/Locker_Rewards.sol\":13693:36357  contract UniswapV2Locker is Ownable, ReentrancyGuard {... */\n  dataSize(sub_0)\n  dup1\n  dataOffset(sub_0)\n  0x00\n  codecopy\n  0x00\n  return\nstop\n\nsub_0: assembly {\n        /* \"contracts/test/Locker_Rewards.sol\":13693:36357  contract UniswapV2Locker is Ownable, ReentrancyGuard {... */\n      mstore(0x40, 0x80)\n      jumpi(tag_1, lt(calldatasize, 0x04))\n      shr(0xe0, calldataload(0x00))\n      dup1\n      0x8bdb2afa\n      gt\n      tag_31\n      jumpi\n      dup1\n      0x8bdb2afa\n      eq\n      tag_16\n      jumpi\n      dup1\n      0x8da5cb5b\n      eq\n      tag_17\n      jumpi\n      dup1\n      0x903df806\n      eq\n      tag_18\n      jumpi\n      dup1\n      0x90e1a003\n      eq\n      tag_19\n      jumpi\n      dup1\n      0x91ff1eb1\n      eq\n      tag_20\n      jumpi\n      dup1\n      0xa3969815\n      eq\n      tag_21\n      jumpi\n      dup1\n      0xa69d9c4f\n      eq\n      tag_22\n      jumpi\n      dup1\n      0xa9b07cea\n      eq\n      tag_23\n      jumpi\n      dup1\n      0xb1cb89a3\n      eq\n      tag_20\n      jumpi\n      dup1\n      0xbef497fd\n      eq\n      tag_25\n      jumpi\n      dup1\n      0xccebfa3f\n      eq\n      tag_26\n      jumpi\n      dup1\n      0xd4ff493f\n      eq\n      tag_27\n      jumpi\n      dup1\n      0xee424278\n      eq\n      tag_28\n      jumpi\n      dup1\n      0xf02c2643\n      eq\n      tag_29\n      jumpi\n      dup1\n      0xf2fde38b\n      eq\n      tag_30\n      jumpi\n      0x00\n      dup1\n      revert\n    tag_31:\n      dup1\n      0x1f0b8a0d\n      eq\n      tag_2\n      jumpi\n      dup1\n      0x1f2a1d2f\n      eq\n      tag_3\n      jumpi\n      dup1\n      0x23cf3118\n      eq\n      tag_4\n      jumpi\n      dup1\n      0x34ddbfe9\n      eq\n      tag_5\n      jumpi\n      dup1\n      0x4532d776\n      eq\n      tag_6\n      jumpi\n      dup1\n      0x582d5adc\n      eq\n      tag_7\n      jumpi\n      dup1\n      0x5a4ddd17\n      eq\n      tag_5\n      jumpi\n      dup1\n      0x5c7e9db8\n      eq\n      tag_9\n      jumpi\n      dup1\n      0x60491d24\n      eq\n      tag_10\n      jumpi\n      dup1\n      0x715018a6\n      eq\n      tag_11\n      jumpi\n      dup1\n      0x783451e8\n      eq\n      tag_12\n      jumpi\n      dup1\n      0x86f6c3c1\n      eq\n      tag_13\n      jumpi\n      dup1\n      0x8931a4be\n      eq\n      tag_14\n      jumpi\n      dup1\n      0x8af416f6\n      eq\n      tag_15\n      jumpi\n    tag_1:\n      0x00\n      dup1\n      revert\n        /* \"contracts/test/Locker_Rewards.sol\":34291:34523  function getLockedTokenAtIndex(address _user, uint256 _index)... */\n    tag_2:\n      callvalue\n      dup1\n      iszero\n      tag_32\n      jumpi\n      0x00\n      dup1\n      revert\n    tag_32:\n      pop\n      tag_33\n      tag_34\n      calldatasize\n      0x04\n      tag_35\n      jump\t// in\n    tag_34:\n      tag_36\n      jump\t// in\n    tag_33:\n      mload(0x40)\n      tag_37\n      swap2\n      swap1\n      tag_38\n      jump\t// in\n    tag_37:\n      mload(0x40)\n      dup1\n      swap2\n      sub\n      swap1\n      return\n        /* \"contracts/test/Locker_Rewards.sol\":33938:34102  function getNumLocksForToken(address _lpToken)... */\n    tag_3:\n      callvalue\n      dup1\n      iszero\n      tag_39\n      jumpi\n      0x00\n      dup1\n      revert\n    tag_39:\n      pop\n      tag_40\n      tag_41\n      calldatasize\n      0x04\n      tag_42\n      jump\t// in\n    tag_41:\n      sub(shl(0xa0, 0x01), 0x01)\n        /* \"contracts/test/Locker_Rewards.sol\":34067:34087  tokenLocks[_lpToken] */\n      and\n        /* \"contracts/test/Locker_Rewards.sol\":34035:34042  uint256 */\n      0x00\n        /* \"contracts/test/Locker_Rewards.sol\":34067:34087  tokenLocks[_lpToken] */\n      swap1\n      dup2\n      mstore\n        /* \"contracts/test/Locker_Rewards.sol\":34067:34077  tokenLocks */\n      0x04\n        /* \"contracts/test/Locker_Rewards.sol\":34067:34087  tokenLocks[_lpToken] */\n      0x20\n      mstore\n      0x40\n      swap1\n      keccak256\n        /* \"contracts/test/Locker_Rewards.sol\":34067:34094  tokenLocks[_lpToken].length */\n      sload\n      swap1\n        /* \"contracts/test/Locker_Rewards.sol\":33938:34102  function getNumLocksForToken(address _lpToken)... */\n      jump\n    tag_40:\n      mload(0x40)\n        /* \"#utility.yul\":1092:1117   */\n      swap1\n      dup2\n      mstore\n        /* \"#utility.yul\":1080:1082   */\n      0x20\n        /* \"#utility.yul\":1065:1083   */\n      add\n        /* \"contracts/test/Locker_Rewards.sol\":33938:34102  function getNumLocksForToken(address _lpToken)... */\n      tag_37\n        /* \"#utility.yul\":946:1123   */\n      jump\n        /* \"contracts/test/Locker_Rewards.sol\":16402:16500  function setMigrator(IMigrator _migrator) public onlyOwner {... */\n    tag_4:\n      callvalue\n      dup1\n      iszero\n      tag_46\n      jumpi\n      0x00\n      dup1\n      revert\n    tag_46:\n      pop\n      tag_47\n      tag_48\n      calldatasize\n      0x04\n      tag_42\n      jump\t// in\n    tag_48:\n      tag_50\n      jump\t// in\n    tag_47:\n      stop\n        /* \"contracts/test/Locker_Rewards.sol\":36034:36190  function WhitelistStatus(address payable wallet)... */\n    tag_5:\n      callvalue\n      dup1\n      iszero\n      tag_51\n      jumpi\n      0x00\n      dup1\n      revert\n    tag_51:\n      pop\n      tag_52\n      tag_53\n      calldatasize\n      0x04\n      tag_42\n      jump\t// in\n    tag_53:\n      sub(shl(0xa0, 0x01), 0x01)\n        /* \"contracts/test/Locker_Rewards.sol\":36162:36182  feeWhitelist[wallet] */\n      and\n        /* \"contracts/test/Locker_Rewards.sol\":36133:36137  bool */\n      0x00\n        /* \"contracts/test/Locker_Rewards.sol\":36162:36182  feeWhitelist[wallet] */\n      swap1\n      dup2\n      mstore\n        /* \"contracts/test/Locker_Rewards.sol\":36162:36174  feeWhitelist */\n      0x0e\n        /* \"contracts/test/Locker_Rewards.sol\":36162:36182  feeWhitelist[wallet] */\n      0x20\n      mstore\n      0x40\n      swap1\n      keccak256\n      sload\n      0xff\n      and\n      swap1\n        /* \"contracts/test/Locker_Rewards.sol\":36034:36190  function WhitelistStatus(address payable wallet)... */\n      jump\n    tag_52:\n      mload(0x40)\n        /* \"#utility.yul\":1822:1836   */\n      swap1\n      iszero\n        /* \"#utility.yul\":1815:1837   */\n      iszero\n        /* \"#utility.yul\":1797:1838   */\n      dup2\n      mstore\n        /* \"#utility.yul\":1785:1787   */\n      0x20\n        /* \"#utility.yul\":1770:1788   */\n      add\n        /* \"contracts/test/Locker_Rewards.sol\":36034:36190  function WhitelistStatus(address payable wallet)... */\n      tag_37\n        /* \"#utility.yul\":1657:1844   */\n      jump\n        /* \"contracts/test/Locker_Rewards.sol\":26809:28323  function withdraw(... */\n    tag_6:\n      callvalue\n      dup1\n      iszero\n      tag_58\n      jumpi\n      0x00\n      dup1\n      revert\n    tag_58:\n      pop\n      tag_47\n      tag_60\n      calldatasize\n      0x04\n      tag_61\n      jump\t// in\n    tag_60:\n      tag_62\n      jump\t// in\n        /* \"contracts/test/Locker_Rewards.sol\":29924:31284  function splitLock(... */\n    tag_7:\n      tag_47\n      tag_64\n      calldatasize\n      0x04\n      tag_61\n      jump\t// in\n    tag_64:\n      tag_66\n      jump\t// in\n        /* \"contracts/test/Locker_Rewards.sol\":16183:16275  function setOps(address payable _opsaddr) public onlyOwner {... */\n    tag_9:\n      callvalue\n      dup1\n      iszero\n      tag_72\n      jumpi\n      0x00\n      dup1\n      revert\n    tag_72:\n      pop\n      tag_47\n      tag_74\n      calldatasize\n      0x04\n      tag_42\n      jump\t// in\n    tag_74:\n      tag_75\n      jump\t// in\n        /* \"contracts/test/Locker_Rewards.sol\":25301:26567  function relock(... */\n    tag_10:\n      callvalue\n      dup1\n      iszero\n      tag_76\n      jumpi\n      0x00\n      dup1\n      revert\n    tag_76:\n      pop\n      tag_47\n      tag_78\n      calldatasize\n      0x04\n      tag_61\n      jump\t// in\n    tag_78:\n      tag_79\n      jump\t// in\n        /* \"contracts/test/Locker_Rewards.sol\":2872:3020  function renounceOwnership() public virtual onlyOwner {... */\n    tag_11:\n      callvalue\n      dup1\n      iszero\n      tag_80\n      jumpi\n      0x00\n      dup1\n      revert\n    tag_80:\n      pop\n      tag_47\n      tag_82\n      jump\t// in\n        /* \"contracts/test/Locker_Rewards.sol\":34110:34283  function getNumLockedTokens() external view returns (uint256) {... */\n    tag_12:\n      callvalue\n      dup1\n      iszero\n      tag_83\n      jumpi\n      0x00\n      dup1\n      revert\n    tag_83:\n      pop\n        /* \"contracts/test/Locker_Rewards.sol\":34221:34231  msg.sender */\n      caller\n        /* \"contracts/test/Locker_Rewards.sol\":34163:34170  uint256 */\n      0x00\n        /* \"contracts/test/Locker_Rewards.sol\":34207:34233  users[payable(msg.sender)] */\n      swap1\n      dup2\n      mstore\n        /* \"contracts/test/Locker_Rewards.sol\":34207:34212  users */\n      0x03\n        /* \"contracts/test/Locker_Rewards.sol\":34207:34233  users[payable(msg.sender)] */\n      0x20\n      mstore\n      0x40\n      swap1\n      keccak256\n        /* \"contracts/test/Locker_Rewards.sol\":34251:34275  user.lockedTokens.length */\n      sload\n        /* \"contracts/test/Locker_Rewards.sol\":34110:34283  function getNumLockedTokens() external view returns (uint256) {... */\n      jump(tag_40)\n        /* \"contracts/test/Locker_Rewards.sol\":17003:17562  function setFees(... */\n    tag_13:\n      callvalue\n      dup1\n      iszero\n      tag_87\n      jumpi\n      0x00\n      dup1\n      revert\n    tag_87:\n      pop\n      tag_47\n      tag_89\n      calldatasize\n      0x04\n      tag_90\n      jump\t// in\n    tag_89:\n      tag_91\n      jump\t// in\n        /* \"contracts/test/Locker_Rewards.sol\":16508:16656  function setSecondaryFeeToken(address _secondaryFeeToken) public onlyOwner {... */\n    tag_14:\n      callvalue\n      dup1\n      iszero\n      tag_92\n      jumpi\n      0x00\n      dup1\n      revert\n    tag_92:\n      pop\n      tag_47\n      tag_94\n      calldatasize\n      0x04\n      tag_42\n      jump\t// in\n    tag_94:\n      tag_95\n      jump\t// in\n        /* \"contracts/test/Locker_Rewards.sol\":18541:25062  function lockLPToken(... */\n    tag_15:\n      tag_47\n      tag_97\n      calldatasize\n      0x04\n      tag_98\n      jump\t// in\n    tag_97:\n      tag_99\n      jump\t// in\n        /* \"contracts/test/Locker_Rewards.sol\":13788:13821  IUniFactory public uniswapFactory */\n    tag_16:\n      callvalue\n      dup1\n      iszero\n      tag_100\n      jumpi\n      0x00\n      dup1\n      revert\n    tag_100:\n      pop\n      sload(0x02)\n      tag_33\n      swap1\n      sub(shl(0xa0, 0x01), 0x01)\n      and\n      dup2\n      jump\n        /* \"contracts/test/Locker_Rewards.sol\":2230:2309  function owner() public view returns (address) {... */\n    tag_17:\n      callvalue\n      dup1\n      iszero\n      tag_105\n      jumpi\n      0x00\n      dup1\n      revert\n    tag_105:\n      pop\n        /* \"contracts/test/Locker_Rewards.sol\":2268:2275  address */\n      0x00\n        /* \"contracts/test/Locker_Rewards.sol\":2295:2301  _owner */\n      sload\n      sub(shl(0xa0, 0x01), 0x01)\n      and\n        /* \"contracts/test/Locker_Rewards.sol\":2230:2309  function owner() public view returns (address) {... */\n      jump(tag_33)\n        /* \"contracts/test/Locker_Rewards.sol\":34770:35079  function getUserLockedTokenAtIndex(address _user, uint256 _index)... */\n    tag_18:\n      callvalue\n      dup1\n      iszero\n      tag_110\n      jumpi\n      0x00\n      dup1\n      revert\n    tag_110:\n      pop\n      tag_33\n      tag_112\n      calldatasize\n      0x04\n      tag_35\n      jump\t// in\n    tag_112:\n      tag_113\n      jump\t// in\n        /* \"contracts/test/Locker_Rewards.sol\":15299:15321  FeeStruct public gFees */\n    tag_19:\n      callvalue\n      dup1\n      iszero\n      tag_115\n      jumpi\n      0x00\n      dup1\n      revert\n    tag_115:\n      pop\n      sload(0x05)\n      sload(0x06)\n      sload(0x07)\n      sload(0x08)\n      sload(0x09)\n      sload(0x0a)\n      sload(0x0b)\n      sload(0x0c)\n      sload(0x0d)\n      tag_116\n      swap9\n      swap8\n      sub(shl(0xa0, 0x01), 0x01)\n      swap1\n      dup2\n      and\n      swap8\n      swap7\n      swap6\n      swap5\n      swap4\n      and\n      swap2\n      swap1\n      dup10\n      jump\n    tag_116:\n      0x40\n      dup1\n      mload\n        /* \"#utility.yul\":5092:5117   */\n      swap10\n      dup11\n      mstore\n      sub(shl(0xa0, 0x01), 0x01)\n        /* \"#utility.yul\":5191:5206   */\n      swap9\n      dup10\n      and\n        /* \"#utility.yul\":5186:5188   */\n      0x20\n        /* \"#utility.yul\":5171:5189   */\n      dup12\n      add\n        /* \"#utility.yul\":5164:5207   */\n      mstore\n        /* \"#utility.yul\":5223:5241   */\n      dup10\n      add\n        /* \"#utility.yul\":5216:5250   */\n      swap7\n      swap1\n      swap7\n      mstore\n        /* \"#utility.yul\":5281:5283   */\n      0x60\n        /* \"#utility.yul\":5266:5284   */\n      dup9\n      add\n        /* \"#utility.yul\":5259:5293   */\n      swap5\n      swap1\n      swap5\n      mstore\n        /* \"#utility.yul\":5324:5327   */\n      0x80\n        /* \"#utility.yul\":5309:5328   */\n      dup8\n      add\n        /* \"#utility.yul\":5302:5337   */\n      swap3\n      swap1\n      swap3\n      mstore\n        /* \"#utility.yul\":5144:5147   */\n      0xa0\n        /* \"#utility.yul\":5353:5372   */\n      dup7\n      add\n        /* \"#utility.yul\":5346:5381   */\n      mstore\n        /* \"#utility.yul\":5418:5433   */\n      swap1\n      swap3\n      and\n        /* \"#utility.yul\":5412:5415   */\n      0xc0\n        /* \"#utility.yul\":5397:5416   */\n      dup5\n      add\n        /* \"#utility.yul\":5390:5434   */\n      mstore\n        /* \"#utility.yul\":5465:5468   */\n      0xe0\n        /* \"#utility.yul\":5450:5469   */\n      dup4\n      add\n        /* \"#utility.yul\":5443:5478   */\n      swap2\n      swap1\n      swap2\n      mstore\n        /* \"#utility.yul\":5509:5512   */\n      0x0100\n        /* \"#utility.yul\":5494:5513   */\n      dup3\n      add\n        /* \"#utility.yul\":5487:5522   */\n      mstore\n        /* \"#utility.yul\":5079:5082   */\n      0x0120\n        /* \"#utility.yul\":5064:5083   */\n      add\n        /* \"contracts/test/Locker_Rewards.sol\":15299:15321  FeeStruct public gFees */\n      tag_37\n        /* \"#utility.yul\":4689:5528   */\n      jump\n        /* \"contracts/test/Locker_Rewards.sol\":17659:17807  function whitelistFeeAccount(address payable _user, bool _add)... */\n    tag_20:\n      callvalue\n      dup1\n      iszero\n      tag_120\n      jumpi\n      0x00\n      dup1\n      revert\n    tag_120:\n      pop\n      tag_47\n      tag_122\n      calldatasize\n      0x04\n      tag_123\n      jump\t// in\n    tag_122:\n      tag_124\n      jump\t// in\n        /* \"contracts/test/Locker_Rewards.sol\":34554:34762  function getUserNumLockedTokens(address _user)... */\n    tag_21:\n      callvalue\n      dup1\n      iszero\n      tag_125\n      jumpi\n      0x00\n      dup1\n      revert\n    tag_125:\n      pop\n      tag_40\n      tag_127\n      calldatasize\n      0x04\n      tag_42\n      jump\t// in\n    tag_127:\n      sub(shl(0xa0, 0x01), 0x01)\n        /* \"contracts/test/Locker_Rewards.sol\":34700:34712  users[_user] */\n      and\n        /* \"contracts/test/Locker_Rewards.sol\":34651:34658  uint256 */\n      0x00\n        /* \"contracts/test/Locker_Rewards.sol\":34700:34712  users[_user] */\n      swap1\n      dup2\n      mstore\n        /* \"contracts/test/Locker_Rewards.sol\":34700:34705  users */\n      0x03\n        /* \"contracts/test/Locker_Rewards.sol\":34700:34712  users[_user] */\n      0x20\n      mstore\n      0x40\n      swap1\n      keccak256\n        /* \"contracts/test/Locker_Rewards.sol\":34730:34754  user.lockedTokens.length */\n      sload\n      swap1\n        /* \"contracts/test/Locker_Rewards.sol\":34554:34762  function getUserNumLockedTokens(address _user)... */\n      jump\n        /* \"contracts/test/Locker_Rewards.sol\":35087:35325  function getUserNumLocksForToken(address _user, address _lpToken)... */\n    tag_22:\n      callvalue\n      dup1\n      iszero\n      tag_130\n      jumpi\n      0x00\n      dup1\n      revert\n    tag_130:\n      pop\n      tag_40\n      tag_132\n      calldatasize\n      0x04\n      tag_133\n      jump\t// in\n    tag_132:\n      sub(shl(0xa0, 0x01), 0x01)\n        /* \"contracts/test/Locker_Rewards.sol\":35252:35264  users[_user] */\n      swap2\n      dup3\n      and\n        /* \"contracts/test/Locker_Rewards.sol\":35203:35210  uint256 */\n      0x00\n        /* \"contracts/test/Locker_Rewards.sol\":35252:35264  users[_user] */\n      swap1\n      dup2\n      mstore\n        /* \"contracts/test/Locker_Rewards.sol\":35252:35257  users */\n      0x03\n        /* \"contracts/test/Locker_Rewards.sol\":35252:35264  users[_user] */\n      0x20\n      swap1\n      dup2\n      mstore\n      0x40\n      dup1\n      dup4\n      keccak256\n        /* \"contracts/test/Locker_Rewards.sol\":35282:35310  user.locksForToken[_lpToken] */\n      swap4\n      swap1\n      swap5\n      and\n      dup3\n      mstore\n        /* \"contracts/test/Locker_Rewards.sol\":35282:35300  user.locksForToken */\n      0x01\n      swap1\n      swap3\n      add\n        /* \"contracts/test/Locker_Rewards.sol\":35282:35310  user.locksForToken[_lpToken] */\n      swap1\n      swap2\n      mstore\n      keccak256\n        /* \"contracts/test/Locker_Rewards.sol\":35282:35317  user.locksForToken[_lpToken].length */\n      sload\n      swap1\n        /* \"contracts/test/Locker_Rewards.sol\":35087:35325  function getUserNumLocksForToken(address _user, address _lpToken)... */\n      jump\n        /* \"contracts/test/Locker_Rewards.sol\":28516:29733  function incrementLock(... */\n    tag_23:\n      callvalue\n      dup1\n      iszero\n      tag_136\n      jumpi\n      0x00\n      dup1\n      revert\n    tag_136:\n      pop\n      tag_47\n      tag_138\n      calldatasize\n      0x04\n      tag_61\n      jump\t// in\n    tag_138:\n      tag_139\n      jump\t// in\n        /* \"contracts/test/Locker_Rewards.sol\":31396:32614  function transferLockOwnership(... */\n    tag_25:\n      callvalue\n      dup1\n      iszero\n      tag_144\n      jumpi\n      0x00\n      dup1\n      revert\n    tag_144:\n      pop\n      tag_47\n      tag_146\n      calldatasize\n      0x04\n      tag_147\n      jump\t// in\n    tag_146:\n      tag_148\n      jump\t// in\n        /* \"contracts/test/Locker_Rewards.sol\":14490:14539  mapping(address => TokenLock[]) public tokenLocks */\n    tag_26:\n      callvalue\n      dup1\n      iszero\n      tag_149\n      jumpi\n      0x00\n      dup1\n      revert\n    tag_149:\n      pop\n      tag_150\n      tag_151\n      calldatasize\n      0x04\n      tag_35\n      jump\t// in\n    tag_151:\n      tag_152\n      jump\t// in\n    tag_150:\n      0x40\n      dup1\n      mload\n        /* \"#utility.yul\":7154:7179   */\n      swap7\n      dup8\n      mstore\n        /* \"#utility.yul\":7210:7212   */\n      0x20\n        /* \"#utility.yul\":7195:7213   */\n      dup8\n      add\n        /* \"#utility.yul\":7188:7222   */\n      swap6\n      swap1\n      swap6\n      mstore\n        /* \"#utility.yul\":7238:7256   */\n      swap4\n      dup6\n      add\n        /* \"#utility.yul\":7231:7265   */\n      swap3\n      swap1\n      swap3\n      mstore\n        /* \"#utility.yul\":7296:7298   */\n      0x60\n        /* \"#utility.yul\":7281:7299   */\n      dup5\n      add\n        /* \"#utility.yul\":7274:7308   */\n      mstore\n        /* \"#utility.yul\":7339:7342   */\n      0x80\n        /* \"#utility.yul\":7324:7343   */\n      dup4\n      add\n        /* \"#utility.yul\":7317:7352   */\n      mstore\n      sub(shl(0xa0, 0x01), 0x01)\n        /* \"#utility.yul\":7389:7421   */\n      and\n        /* \"#utility.yul\":7409:7412   */\n      0xa0\n        /* \"#utility.yul\":7368:7387   */\n      dup3\n      add\n        /* \"#utility.yul\":7361:7422   */\n      mstore\n        /* \"#utility.yul\":7141:7144   */\n      0xc0\n        /* \"#utility.yul\":7126:7145   */\n      add\n        /* \"contracts/test/Locker_Rewards.sol\":14490:14539  mapping(address => TokenLock[]) public tokenLocks */\n      tag_37\n        /* \"#utility.yul\":6867:7428   */\n      jump\n        /* \"contracts/test/Locker_Rewards.sol\":35333:36026  function getUserLockForTokenAtIndex(... */\n    tag_27:\n      callvalue\n      dup1\n      iszero\n      tag_155\n      jumpi\n      0x00\n      dup1\n      revert\n    tag_155:\n      pop\n      tag_150\n      tag_157\n      calldatasize\n      0x04\n      tag_158\n      jump\t// in\n    tag_157:\n      tag_159\n      jump\t// in\n        /* \"contracts/test/Locker_Rewards.sol\":32689:33930  function migrate(... */\n    tag_28:\n      callvalue\n      dup1\n      iszero\n      tag_161\n      jumpi\n      0x00\n      dup1\n      revert\n    tag_161:\n      pop\n      tag_47\n      tag_163\n      calldatasize\n      0x04\n      tag_61\n      jump\t// in\n    tag_163:\n      tag_164\n      jump\t// in\n        /* \"contracts/test/Locker_Rewards.sol\":16790:16995  function setReferralTokenAndHold(IERCBurn _referralToken, uint256 _hold)... */\n    tag_29:\n      callvalue\n      dup1\n      iszero\n      tag_165\n      jumpi\n      0x00\n      dup1\n      revert\n    tag_165:\n      pop\n      tag_47\n      tag_167\n      calldatasize\n      0x04\n      tag_35\n      jump\t// in\n    tag_167:\n      tag_169\n      jump\t// in\n        /* \"contracts/test/Locker_Rewards.sol\":3175:3456  function transferOwnership(address newOwner) public virtual onlyOwner {... */\n    tag_30:\n      callvalue\n      dup1\n      iszero\n      tag_170\n      jumpi\n      0x00\n      dup1\n      revert\n    tag_170:\n      pop\n      tag_47\n      tag_172\n      calldatasize\n      0x04\n      tag_42\n      jump\t// in\n    tag_172:\n      tag_173\n      jump\t// in\n        /* \"contracts/test/Locker_Rewards.sol\":34291:34523  function getLockedTokenAtIndex(address _user, uint256 _index)... */\n    tag_36:\n      sub(shl(0xa0, 0x01), 0x01)\n        /* \"contracts/test/Locker_Rewards.sol\":34460:34472  users[_user] */\n      dup3\n      and\n        /* \"contracts/test/Locker_Rewards.sol\":34403:34418  address payable */\n      0x00\n        /* \"contracts/test/Locker_Rewards.sol\":34460:34472  users[_user] */\n      swap1\n      dup2\n      mstore\n        /* \"contracts/test/Locker_Rewards.sol\":34460:34465  users */\n      0x03\n        /* \"contracts/test/Locker_Rewards.sol\":34460:34472  users[_user] */\n      0x20\n      mstore\n      0x40\n      dup2\n      keccak256\n        /* \"contracts/test/Locker_Rewards.sol\":34490:34515  user.lockedTokens[_index] */\n      dup1\n      sload\n        /* \"contracts/test/Locker_Rewards.sol\":34460:34472  users[_user] */\n      dup2\n      swap1\n        /* \"contracts/test/Locker_Rewards.sol\":34508:34514  _index */\n      dup5\n      swap1\n        /* \"contracts/test/Locker_Rewards.sol\":34490:34515  user.lockedTokens[_index] */\n      dup2\n      lt\n      tag_176\n      jumpi\n      tag_176\n      tag_177\n      jump\t// in\n    tag_176:\n      0x00\n      swap2\n      dup3\n      mstore\n      0x20\n      swap1\n      swap2\n      keccak256\n      add\n      sload\n      sub(shl(0xa0, 0x01), 0x01)\n      and\n      swap2\n      pop\n      pop\n        /* \"contracts/test/Locker_Rewards.sol\":34291:34523  function getLockedTokenAtIndex(address _user, uint256 _index)... */\n    tag_174:\n      swap3\n      swap2\n      pop\n      pop\n      jump\t// out\n        /* \"contracts/test/Locker_Rewards.sol\":16402:16500  function setMigrator(IMigrator _migrator) public onlyOwner {... */\n    tag_50:\n        /* \"contracts/test/Locker_Rewards.sol\":2442:2448  _owner */\n      and(sub(shl(0xa0, 0x01), 0x01), sload(0x00))\n        /* \"contracts/test/Locker_Rewards.sol\":931:941  msg.sender */\n      caller\n        /* \"contracts/test/Locker_Rewards.sol\":2442:2464  _owner == _msgSender() */\n      eq\n        /* \"contracts/test/Locker_Rewards.sol\":2434:2501  require(_owner == _msgSender(), \"Ownable: caller is not the owner\") */\n      tag_183\n      jumpi\n      mload(0x40)\n      shl(0xe5, 0x461bcd)\n      dup2\n      mstore\n      0x04\n      add\n      tag_184\n      swap1\n      tag_185\n      jump\t// in\n    tag_184:\n      mload(0x40)\n      dup1\n      swap2\n      sub\n      swap1\n      revert\n    tag_183:\n        /* \"contracts/test/Locker_Rewards.sol\":16472:16480  migrator */\n      0x12\n        /* \"contracts/test/Locker_Rewards.sol\":16472:16492  migrator = _migrator */\n      dup1\n      sload\n      not(sub(shl(0xa0, 0x01), 0x01))\n      and\n      sub(shl(0xa0, 0x01), 0x01)\n      swap3\n      swap1\n      swap3\n      and\n      swap2\n      swap1\n      swap2\n      or\n      swap1\n      sstore\n        /* \"contracts/test/Locker_Rewards.sol\":16402:16500  function setMigrator(IMigrator _migrator) public onlyOwner {... */\n      jump\t// out\n        /* \"contracts/test/Locker_Rewards.sol\":26809:28323  function withdraw(... */\n    tag_62:\n        /* \"contracts/test/Locker_Rewards.sol\":6475:6476  2 */\n      0x02\n        /* \"contracts/test/Locker_Rewards.sol\":7071:7078  _status */\n      sload(0x01)\n        /* \"contracts/test/Locker_Rewards.sol\":7071:7090  _status != _ENTERED */\n      sub\n        /* \"contracts/test/Locker_Rewards.sol\":7063:7126  require(_status != _ENTERED, \"ReentrancyGuard: reentrant call\") */\n      tag_189\n      jumpi\n      mload(0x40)\n      shl(0xe5, 0x461bcd)\n      dup2\n      mstore\n      0x04\n      add\n      tag_184\n      swap1\n      tag_191\n      jump\t// in\n    tag_189:\n        /* \"contracts/test/Locker_Rewards.sol\":6475:6476  2 */\n      0x02\n        /* \"contracts/test/Locker_Rewards.sol\":7204:7211  _status */\n      0x01\n        /* \"contracts/test/Locker_Rewards.sol\":7204:7222  _status = _ENTERED */\n      sstore\n        /* \"contracts/test/Locker_Rewards.sol\":26987:26998  _amount > 0 */\n      dup1\n        /* \"contracts/test/Locker_Rewards.sol\":26979:27017  require(_amount > 0, \"ZERO WITHDRAWL\") */\n      tag_193\n      jumpi\n      mload(0x40)\n      shl(0xe5, 0x461bcd)\n      dup2\n      mstore\n        /* \"#utility.yul\":9285:9287   */\n      0x20\n        /* \"contracts/test/Locker_Rewards.sol\":26979:27017  require(_amount > 0, \"ZERO WITHDRAWL\") */\n      0x04\n      dup3\n      add\n        /* \"#utility.yul\":9267:9288   */\n      mstore\n        /* \"#utility.yul\":9324:9326   */\n      0x0e\n        /* \"#utility.yul\":9304:9322   */\n      0x24\n      dup3\n      add\n        /* \"#utility.yul\":9297:9327   */\n      mstore\n      shl(0x92, 0x16915493c815d2551211149055d3)\n        /* \"#utility.yul\":9343:9361   */\n      0x44\n      dup3\n      add\n        /* \"#utility.yul\":9336:9380   */\n      mstore\n        /* \"#utility.yul\":9397:9415   */\n      0x64\n      add\n        /* \"contracts/test/Locker_Rewards.sol\":26979:27017  require(_amount > 0, \"ZERO WITHDRAWL\") */\n      tag_184\n        /* \"#utility.yul\":9083:9421   */\n      jump\n        /* \"contracts/test/Locker_Rewards.sol\":26979:27017  require(_amount > 0, \"ZERO WITHDRAWL\") */\n    tag_193:\n        /* \"contracts/test/Locker_Rewards.sol\":27051:27061  msg.sender */\n      caller\n        /* \"contracts/test/Locker_Rewards.sol\":27028:27042  uint256 lockID */\n      0x00\n        /* \"contracts/test/Locker_Rewards.sol\":27045:27062  users[msg.sender] */\n      swap1\n      dup2\n      mstore\n        /* \"contracts/test/Locker_Rewards.sol\":27045:27050  users */\n      0x03\n        /* \"contracts/test/Locker_Rewards.sol\":27045:27062  users[msg.sender] */\n      0x20\n      swap1\n      dup2\n      mstore\n      0x40\n      dup1\n      dup4\n      keccak256\n      sub(shl(0xa0, 0x01), 0x01)\n        /* \"contracts/test/Locker_Rewards.sol\":27045:27086  users[msg.sender].locksForToken[_lpToken] */\n      dup9\n      and\n      dup5\n      mstore\n        /* \"contracts/test/Locker_Rewards.sol\":27045:27076  users[msg.sender].locksForToken */\n      0x01\n      add\n        /* \"contracts/test/Locker_Rewards.sol\":27045:27086  users[msg.sender].locksForToken[_lpToken] */\n      swap1\n      swap2\n      mstore\n      dup2\n      keccak256\n        /* \"contracts/test/Locker_Rewards.sol\":27045:27094  users[msg.sender].locksForToken[_lpToken][_index] */\n      dup1\n      sload\n        /* \"contracts/test/Locker_Rewards.sol\":27087:27093  _index */\n      dup6\n      swap1\n        /* \"contracts/test/Locker_Rewards.sol\":27045:27094  users[msg.sender].locksForToken[_lpToken][_index] */\n      dup2\n      lt\n      tag_197\n      jumpi\n      tag_197\n      tag_177\n      jump\t// in\n    tag_197:\n      swap1\n      0x00\n      mstore\n      keccak256(0x00, 0x20)\n      add\n      sload\n        /* \"contracts/test/Locker_Rewards.sol\":27028:27094  uint256 lockID = users[msg.sender].locksForToken[_lpToken][_index] */\n      swap1\n      pop\n        /* \"contracts/test/Locker_Rewards.sol\":27105:27131  TokenLock storage userLock */\n      0x00\n        /* \"contracts/test/Locker_Rewards.sol\":27134:27144  tokenLocks */\n      0x04\n        /* \"contracts/test/Locker_Rewards.sol\":27134:27154  tokenLocks[_lpToken] */\n      0x00\n        /* \"contracts/test/Locker_Rewards.sol\":27145:27153  _lpToken */\n      dup8\n      sub(shl(0xa0, 0x01), 0x01)\n        /* \"contracts/test/Locker_Rewards.sol\":27134:27154  tokenLocks[_lpToken] */\n      and\n      sub(shl(0xa0, 0x01), 0x01)\n      and\n      dup2\n      mstore\n      0x20\n      add\n      swap1\n      dup2\n      mstore\n      0x20\n      add\n      0x00\n      keccak256\n        /* \"contracts/test/Locker_Rewards.sol\":27155:27161  lockID */\n      dup3\n        /* \"contracts/test/Locker_Rewards.sol\":27134:27162  tokenLocks[_lpToken][lockID] */\n      dup2\n      sload\n      dup2\n      lt\n      tag_200\n      jumpi\n      tag_200\n      tag_177\n      jump\t// in\n    tag_200:\n      swap1\n      0x00\n      mstore\n      keccak256(0x00, 0x20)\n      swap1\n      0x06\n      mul\n      add\n        /* \"contracts/test/Locker_Rewards.sol\":27105:27162  TokenLock storage userLock = tokenLocks[_lpToken][lockID] */\n      swap1\n      pop\n        /* \"contracts/test/Locker_Rewards.sol\":27205:27212  _lockID */\n      dup4\n        /* \"contracts/test/Locker_Rewards.sol\":27195:27201  lockID */\n      dup3\n        /* \"contracts/test/Locker_Rewards.sol\":27195:27212  lockID == _lockID */\n      eq\n        /* \"contracts/test/Locker_Rewards.sol\":27195:27244  lockID == _lockID && userLock.owner == msg.sender */\n      dup1\n      iszero\n      tag_202\n      jumpi\n      pop\n        /* \"contracts/test/Locker_Rewards.sol\":27216:27230  userLock.owner */\n      0x05\n      dup2\n      add\n      sload\n      sub(shl(0xa0, 0x01), 0x01)\n      and\n        /* \"contracts/test/Locker_Rewards.sol\":27234:27244  msg.sender */\n      caller\n        /* \"contracts/test/Locker_Rewards.sol\":27216:27244  userLock.owner == msg.sender */\n      eq\n        /* \"contracts/test/Locker_Rewards.sol\":27195:27244  lockID == _lockID && userLock.owner == msg.sender */\n    tag_202:\n        /* \"contracts/test/Locker_Rewards.sol\":27173:27285  require(... */\n      tag_203\n      jumpi\n      mload(0x40)\n      shl(0xe5, 0x461bcd)\n      dup2\n      mstore\n      0x04\n      add\n      tag_184\n      swap1\n      tag_205\n      jump\t// in\n    tag_203:\n        /* \"contracts/test/Locker_Rewards.sol\":27362:27377  block.timestamp */\n      timestamp\n        /* \"contracts/test/Locker_Rewards.sol\":27340:27348  userLock */\n      dup2\n        /* \"contracts/test/Locker_Rewards.sol\":27340:27359  userLock.unlockDate */\n      0x03\n      add\n      sload\n        /* \"contracts/test/Locker_Rewards.sol\":27340:27377  userLock.unlockDate < block.timestamp */\n      lt\n        /* \"contracts/test/Locker_Rewards.sol\":27332:27389  require(userLock.unlockDate < block.timestamp, \"NOT YET\") */\n      tag_206\n      jumpi\n      mload(0x40)\n      shl(0xe5, 0x461bcd)\n      dup2\n      mstore\n        /* \"#utility.yul\":9970:9972   */\n      0x20\n        /* \"contracts/test/Locker_Rewards.sol\":27332:27389  require(userLock.unlockDate < block.timestamp, \"NOT YET\") */\n      0x04\n      dup3\n      add\n        /* \"#utility.yul\":9952:9973   */\n      mstore\n        /* \"#utility.yul\":10009:10010   */\n      0x07\n        /* \"#utility.yul\":9989:10007   */\n      0x24\n      dup3\n      add\n        /* \"#utility.yul\":9982:10011   */\n      mstore\n      shl(0xca, 0x1393d508165155)\n        /* \"#utility.yul\":10027:10045   */\n      0x44\n      dup3\n      add\n        /* \"#utility.yul\":10020:10057   */\n      mstore\n        /* \"#utility.yul\":10074:10092   */\n      0x64\n      add\n        /* \"contracts/test/Locker_Rewards.sol\":27332:27389  require(userLock.unlockDate < block.timestamp, \"NOT YET\") */\n      tag_184\n        /* \"#utility.yul\":9768:10098   */\n      jump\n        /* \"contracts/test/Locker_Rewards.sol\":27332:27389  require(userLock.unlockDate < block.timestamp, \"NOT YET\") */\n    tag_206:\n        /* \"contracts/test/Locker_Rewards.sol\":27418:27433  userLock.amount */\n      0x01\n      dup2\n      add\n      sload\n        /* \"contracts/test/Locker_Rewards.sol\":27418:27446  userLock.amount.sub(_amount) */\n      tag_209\n      swap1\n        /* \"contracts/test/Locker_Rewards.sol\":27438:27445  _amount */\n      dup5\n        /* \"contracts/test/Locker_Rewards.sol\":27418:27437  userLock.amount.sub */\n      tag_210\n        /* \"contracts/test/Locker_Rewards.sol\":27418:27446  userLock.amount.sub(_amount) */\n      jump\t// in\n    tag_209:\n        /* \"contracts/test/Locker_Rewards.sol\":27400:27415  userLock.amount */\n      0x01\n      dup3\n      add\n        /* \"contracts/test/Locker_Rewards.sol\":27400:27446  userLock.amount = userLock.amount.sub(_amount) */\n      dup2\n      swap1\n      sstore\n        /* \"contracts/test/Locker_Rewards.sol\":27513:27514  0 */\n      0x00\n        /* \"contracts/test/Locker_Rewards.sol\":27494:27514  userLock.amount == 0 */\n      sub\n        /* \"contracts/test/Locker_Rewards.sol\":27490:28316  if (userLock.amount == 0) {... */\n      tag_211\n      jumpi\n        /* \"contracts/test/Locker_Rewards.sol\":27567:27577  msg.sender */\n      caller\n        /* \"contracts/test/Locker_Rewards.sol\":27531:27558  uint256[] storage userLocks */\n      0x00\n        /* \"contracts/test/Locker_Rewards.sol\":27561:27578  users[msg.sender] */\n      swap1\n      dup2\n      mstore\n        /* \"contracts/test/Locker_Rewards.sol\":27561:27566  users */\n      0x03\n        /* \"contracts/test/Locker_Rewards.sol\":27561:27578  users[msg.sender] */\n      0x20\n      swap1\n      dup2\n      mstore\n      0x40\n      dup1\n      dup4\n      keccak256\n      sub(shl(0xa0, 0x01), 0x01)\n        /* \"contracts/test/Locker_Rewards.sol\":27561:27634  users[msg.sender].locksForToken[... */\n      dup11\n      and\n      dup5\n      mstore\n        /* \"contracts/test/Locker_Rewards.sol\":27561:27592  users[msg.sender].locksForToken */\n      0x01\n      swap1\n      dup2\n      add\n        /* \"contracts/test/Locker_Rewards.sol\":27561:27634  users[msg.sender].locksForToken[... */\n      swap1\n      swap3\n      mstore\n      swap1\n      swap2\n      keccak256\n        /* \"contracts/test/Locker_Rewards.sol\":27679:27695  userLocks.length */\n      dup1\n      sload\n        /* \"contracts/test/Locker_Rewards.sol\":27561:27634  users[msg.sender].locksForToken[... */\n      swap1\n      swap2\n      dup3\n      swap2\n        /* \"contracts/test/Locker_Rewards.sol\":27679:27699  userLocks.length - 1 */\n      tag_212\n      swap2\n        /* \"contracts/test/Locker_Rewards.sol\":27561:27592  users[msg.sender].locksForToken */\n      swap1\n        /* \"contracts/test/Locker_Rewards.sol\":27679:27699  userLocks.length - 1 */\n      tag_213\n      jump\t// in\n    tag_212:\n        /* \"contracts/test/Locker_Rewards.sol\":27669:27700  userLocks[userLocks.length - 1] */\n      dup2\n      sload\n      dup2\n      lt\n      tag_215\n      jumpi\n      tag_215\n      tag_177\n      jump\t// in\n    tag_215:\n      swap1\n      0x00\n      mstore\n      keccak256(0x00, 0x20)\n      add\n      sload\n        /* \"contracts/test/Locker_Rewards.sol\":27649:27658  userLocks */\n      dup2\n        /* \"contracts/test/Locker_Rewards.sol\":27659:27665  _index */\n      dup8\n        /* \"contracts/test/Locker_Rewards.sol\":27649:27666  userLocks[_index] */\n      dup2\n      sload\n      dup2\n      lt\n      tag_218\n      jumpi\n      tag_218\n      tag_177\n      jump\t// in\n    tag_218:\n      swap1\n      0x00\n      mstore\n      keccak256(0x00, 0x20)\n      add\n        /* \"contracts/test/Locker_Rewards.sol\":27649:27700  userLocks[_index] = userLocks[userLocks.length - 1] */\n      dup2\n      swap1\n      sstore\n      pop\n        /* \"contracts/test/Locker_Rewards.sol\":27715:27724  userLocks */\n      dup1\n        /* \"contracts/test/Locker_Rewards.sol\":27715:27730  userLocks.pop() */\n      dup1\n      sload\n      dup1\n      tag_221\n      jumpi\n      tag_221\n      tag_222\n      jump\t// in\n    tag_221:\n      0x01\n      swap1\n      sub\n      dup2\n      dup2\n      swap1\n      0x00\n      mstore\n      keccak256(0x00, 0x20)\n      add\n      0x00\n      swap1\n      sstore\n      swap1\n      sstore\n        /* \"contracts/test/Locker_Rewards.sol\":27749:27758  userLocks */\n      dup1\n        /* \"contracts/test/Locker_Rewards.sol\":27749:27765  userLocks.length */\n      dup1\n      sload\n      swap1\n      pop\n        /* \"contracts/test/Locker_Rewards.sol\":27769:27770  0 */\n      0x00\n        /* \"contracts/test/Locker_Rewards.sol\":27749:27770  userLocks.length == 0 */\n      sub\n        /* \"contracts/test/Locker_Rewards.sol\":27745:27836  if (userLocks.length == 0) {... */\n      tag_224\n      jumpi\n      sub(shl(0xa0, 0x01), 0x01)\n        /* \"contracts/test/Locker_Rewards.sol\":27791:27813  user_removed[_lpToken] */\n      dup8\n      and\n      0x00\n      swap1\n      dup2\n      mstore\n        /* \"contracts/test/Locker_Rewards.sol\":27791:27803  user_removed */\n      0x10\n        /* \"contracts/test/Locker_Rewards.sol\":27791:27813  user_removed[_lpToken] */\n      0x20\n      mstore\n      0x40\n      swap1\n      keccak256\n        /* \"contracts/test/Locker_Rewards.sol\":27791:27820  user_removed[_lpToken] = true */\n      dup1\n      sload\n      not(0xff)\n      and\n        /* \"contracts/test/Locker_Rewards.sol\":27816:27820  true */\n      0x01\n        /* \"contracts/test/Locker_Rewards.sol\":27791:27820  user_removed[_lpToken] = true */\n      or\n      swap1\n      sstore\n        /* \"contracts/test/Locker_Rewards.sol\":27745:27836  if (userLocks.length == 0) {... */\n    tag_224:\n        /* \"contracts/test/Locker_Rewards.sol\":27516:27847  {... */\n      pop\n        /* \"contracts/test/Locker_Rewards.sol\":27490:28316  if (userLock.amount == 0) {... */\n      jump(tag_231)\n    tag_211:\n        /* \"contracts/test/Locker_Rewards.sol\":27884:27894  msg.sender */\n      caller\n        /* \"contracts/test/Locker_Rewards.sol\":27871:27895  feeBlocklist[msg.sender] */\n      0x00\n      swap1\n      dup2\n      mstore\n        /* \"contracts/test/Locker_Rewards.sol\":27871:27883  feeBlocklist */\n      0x0f\n        /* \"contracts/test/Locker_Rewards.sol\":27871:27895  feeBlocklist[msg.sender] */\n      0x20\n      mstore\n      0x40\n      swap1\n      keccak256\n      sload\n      0xff\n      and\n        /* \"contracts/test/Locker_Rewards.sol\":27871:27903  feeBlocklist[msg.sender] == true */\n      iszero\n      iszero\n        /* \"contracts/test/Locker_Rewards.sol\":27871:27895  feeBlocklist[msg.sender] */\n      0x01\n        /* \"contracts/test/Locker_Rewards.sol\":27871:27903  feeBlocklist[msg.sender] == true */\n      sub\n        /* \"contracts/test/Locker_Rewards.sol\":27868:28305  if(feeBlocklist[msg.sender] == true){... */\n      tag_226\n      jumpi\n        /* \"contracts/test/Locker_Rewards.sol\":28012:28015  ops */\n      sload(0x11)\n        /* \"contracts/test/Locker_Rewards.sol\":27923:28064  TransferHelper.safeApprove(... */\n      tag_227\n      swap1\n        /* \"contracts/test/Locker_Rewards.sol\":27980:27988  _lpToken */\n      dup8\n      swap1\n      sub(shl(0xa0, 0x01), 0x01)\n        /* \"contracts/test/Locker_Rewards.sol\":28012:28015  ops */\n      and\n        /* \"contracts/test/Locker_Rewards.sol\":28038:28045  _amount */\n      dup6\n        /* \"contracts/test/Locker_Rewards.sol\":27923:27949  TransferHelper.safeApprove */\n      tag_228\n        /* \"contracts/test/Locker_Rewards.sol\":27923:28064  TransferHelper.safeApprove(... */\n      jump\t// in\n    tag_227:\n        /* \"contracts/test/Locker_Rewards.sol\":28121:28124  ops */\n      sload(0x11)\n        /* \"contracts/test/Locker_Rewards.sol\":28083:28134  TransferHelper.safeTransfer(_lpToken, ops, _amount) */\n      tag_229\n      swap1\n        /* \"contracts/test/Locker_Rewards.sol\":28111:28119  _lpToken */\n      dup8\n      swap1\n      sub(shl(0xa0, 0x01), 0x01)\n        /* \"contracts/test/Locker_Rewards.sol\":28121:28124  ops */\n      and\n        /* \"contracts/test/Locker_Rewards.sol\":28126:28133  _amount */\n      dup6\n        /* \"contracts/test/Locker_Rewards.sol\":28083:28110  TransferHelper.safeTransfer */\n      tag_230\n        /* \"contracts/test/Locker_Rewards.sol\":28083:28134  TransferHelper.safeTransfer(_lpToken, ops, _amount) */\n      jump\t// in\n    tag_229:\n        /* \"contracts/test/Locker_Rewards.sol\":27868:28305  if(feeBlocklist[msg.sender] == true){... */\n      jump(tag_231)\n    tag_226:\n        /* \"contracts/test/Locker_Rewards.sol\":28178:28236  TransferHelper.safeTransfer(_lpToken, msg.sender, _amount) */\n      tag_232\n        /* \"contracts/test/Locker_Rewards.sol\":28206:28214  _lpToken */\n      dup7\n        /* \"contracts/test/Locker_Rewards.sol\":28216:28226  msg.sender */\n      caller\n        /* \"contracts/test/Locker_Rewards.sol\":28228:28235  _amount */\n      dup6\n        /* \"contracts/test/Locker_Rewards.sol\":28178:28205  TransferHelper.safeTransfer */\n      tag_230\n        /* \"contracts/test/Locker_Rewards.sol\":28178:28236  TransferHelper.safeTransfer(_lpToken, msg.sender, _amount) */\n      jump\t// in\n    tag_232:\n        /* \"contracts/test/Locker_Rewards.sol\":28260:28289  onWithdraw(_lpToken, _amount) */\n      0xccad973dcd043c7d680389db4378bd6b9775db7124092e9e0422c9e46d7985dc\n        /* \"contracts/test/Locker_Rewards.sol\":28271:28279  _lpToken */\n      dup7\n        /* \"contracts/test/Locker_Rewards.sol\":28281:28288  _amount */\n      dup5\n        /* \"contracts/test/Locker_Rewards.sol\":28260:28289  onWithdraw(_lpToken, _amount) */\n      mload(0x40)\n      tag_233\n      swap3\n      swap2\n      swap1\n      tag_234\n      jump\t// in\n    tag_233:\n      mload(0x40)\n      dup1\n      swap2\n      sub\n      swap1\n      log1\n        /* \"contracts/test/Locker_Rewards.sol\":27868:28305  if(feeBlocklist[msg.sender] == true){... */\n    tag_231:\n      pop\n      pop\n        /* \"contracts/test/Locker_Rewards.sol\":6431:6432  1 */\n      0x01\n        /* \"contracts/test/Locker_Rewards.sol\":7383:7405  _status = _NOT_ENTERED */\n      dup1\n      sstore\n      pop\n      pop\n      pop\n      pop\n        /* \"contracts/test/Locker_Rewards.sol\":26809:28323  function withdraw(... */\n      jump\t// out\n        /* \"contracts/test/Locker_Rewards.sol\":29924:31284  function splitLock(... */\n    tag_66:\n        /* \"contracts/test/Locker_Rewards.sol\":6475:6476  2 */\n      0x02\n        /* \"contracts/test/Locker_Rewards.sol\":7071:7078  _status */\n      sload(0x01)\n        /* \"contracts/test/Locker_Rewards.sol\":7071:7090  _status != _ENTERED */\n      sub\n        /* \"contracts/test/Locker_Rewards.sol\":7063:7126  require(_status != _ENTERED, \"ReentrancyGuard: reentrant call\") */\n      tag_236\n      jumpi\n      mload(0x40)\n      shl(0xe5, 0x461bcd)\n      dup2\n      mstore\n      0x04\n      add\n      tag_184\n      swap1\n      tag_191\n      jump\t// in\n    tag_236:\n        /* \"contracts/test/Locker_Rewards.sol\":6475:6476  2 */\n      0x02\n        /* \"contracts/test/Locker_Rewards.sol\":7204:7211  _status */\n      0x01\n        /* \"contracts/test/Locker_Rewards.sol\":7204:7222  _status = _ENTERED */\n      sstore\n        /* \"contracts/test/Locker_Rewards.sol\":30116:30126  msg.sender */\n      caller\n        /* \"contracts/test/Locker_Rewards.sol\":30103:30127  feeBlocklist[msg.sender] */\n      0x00\n      swap1\n      dup2\n      mstore\n        /* \"contracts/test/Locker_Rewards.sol\":30103:30115  feeBlocklist */\n      0x0f\n        /* \"contracts/test/Locker_Rewards.sol\":30103:30127  feeBlocklist[msg.sender] */\n      0x20\n      mstore\n      0x40\n      swap1\n      keccak256\n      sload\n      0xff\n      and\n        /* \"contracts/test/Locker_Rewards.sol\":30103:30136  feeBlocklist[msg.sender] == false */\n      iszero\n        /* \"contracts/test/Locker_Rewards.sol\":30095:30137  require(feeBlocklist[msg.sender] == false) */\n      tag_239\n      jumpi\n      0x00\n      dup1\n      revert\n    tag_239:\n        /* \"contracts/test/Locker_Rewards.sol\":30166:30167  0 */\n      0x00\n        /* \"contracts/test/Locker_Rewards.sol\":30156:30163  _amount */\n      dup2\n        /* \"contracts/test/Locker_Rewards.sol\":30156:30167  _amount > 0 */\n      gt\n        /* \"contracts/test/Locker_Rewards.sol\":30148:30183  require(_amount > 0, \"ZERO AMOUNT\") */\n      tag_240\n      jumpi\n      mload(0x40)\n      shl(0xe5, 0x461bcd)\n      dup2\n      mstore\n      0x04\n      add\n      tag_184\n      swap1\n      tag_242\n      jump\t// in\n    tag_240:\n        /* \"contracts/test/Locker_Rewards.sol\":30217:30227  msg.sender */\n      caller\n        /* \"contracts/test/Locker_Rewards.sol\":30194:30208  uint256 lockID */\n      0x00\n        /* \"contracts/test/Locker_Rewards.sol\":30211:30228  users[msg.sender] */\n      swap1\n      dup2\n      mstore\n        /* \"contracts/test/Locker_Rewards.sol\":30211:30216  users */\n      0x03\n        /* \"contracts/test/Locker_Rewards.sol\":30211:30228  users[msg.sender] */\n      0x20\n      swap1\n      dup2\n      mstore\n      0x40\n      dup1\n      dup4\n      keccak256\n      sub(shl(0xa0, 0x01), 0x01)\n        /* \"contracts/test/Locker_Rewards.sol\":30211:30252  users[msg.sender].locksForToken[_lpToken] */\n      dup9\n      and\n      dup5\n      mstore\n        /* \"contracts/test/Locker_Rewards.sol\":30211:30242  users[msg.sender].locksForToken */\n      0x01\n      add\n        /* \"contracts/test/Locker_Rewards.sol\":30211:30252  users[msg.sender].locksForToken[_lpToken] */\n      swap1\n      swap2\n      mstore\n      dup2\n      keccak256\n        /* \"contracts/test/Locker_Rewards.sol\":30211:30260  users[msg.sender].locksForToken[_lpToken][_index] */\n      dup1\n      sload\n        /* \"contracts/test/Locker_Rewards.sol\":30253:30259  _index */\n      dup6\n      swap1\n        /* \"contracts/test/Locker_Rewards.sol\":30211:30260  users[msg.sender].locksForToken[_lpToken][_index] */\n      dup2\n      lt\n      tag_244\n      jumpi\n      tag_244\n      tag_177\n      jump\t// in\n    tag_244:\n      swap1\n      0x00\n      mstore\n      keccak256(0x00, 0x20)\n      add\n      sload\n        /* \"contracts/test/Locker_Rewards.sol\":30194:30260  uint256 lockID = users[msg.sender].locksForToken[_lpToken][_index] */\n      swap1\n      pop\n        /* \"contracts/test/Locker_Rewards.sol\":30271:30297  TokenLock storage userLock */\n      0x00\n        /* \"contracts/test/Locker_Rewards.sol\":30300:30310  tokenLocks */\n      0x04\n        /* \"contracts/test/Locker_Rewards.sol\":30300:30320  tokenLocks[_lpToken] */\n      0x00\n        /* \"contracts/test/Locker_Rewards.sol\":30311:30319  _lpToken */\n      dup8\n      sub(shl(0xa0, 0x01), 0x01)\n        /* \"contracts/test/Locker_Rewards.sol\":30300:30320  tokenLocks[_lpToken] */\n      and\n      sub(shl(0xa0, 0x01), 0x01)\n      and\n      dup2\n      mstore\n      0x20\n      add\n      swap1\n      dup2\n      mstore\n      0x20\n      add\n      0x00\n      keccak256\n        /* \"contracts/test/Locker_Rewards.sol\":30321:30327  lockID */\n      dup3\n        /* \"contracts/test/Locker_Rewards.sol\":30300:30328  tokenLocks[_lpToken][lockID] */\n      dup2\n      sload\n      dup2\n      lt\n      tag_247\n      jumpi\n      tag_247\n      tag_177\n      jump\t// in\n    tag_247:\n      swap1\n      0x00\n      mstore\n      keccak256(0x00, 0x20)\n      swap1\n      0x06\n      mul\n      add\n        /* \"contracts/test/Locker_Rewards.sol\":30271:30328  TokenLock storage userLock = tokenLocks[_lpToken][lockID] */\n      swap1\n      pop\n        /* \"contracts/test/Locker_Rewards.sol\":30371:30378  _lockID */\n      dup4\n        /* \"contracts/test/Locker_Rewards.sol\":30361:30367  lockID */\n      dup3\n        /* \"contracts/test/Locker_Rewards.sol\":30361:30378  lockID == _lockID */\n      eq\n        /* \"contracts/test/Locker_Rewards.sol\":30361:30410  lockID == _lockID && userLock.owner == msg.sender */\n      dup1\n      iszero\n      tag_249\n      jumpi\n      pop\n        /* \"contracts/test/Locker_Rewards.sol\":30382:30396  userLock.owner */\n      0x05\n      dup2\n      add\n      sload\n      sub(shl(0xa0, 0x01), 0x01)\n      and\n        /* \"contracts/test/Locker_Rewards.sol\":30400:30410  msg.sender */\n      caller\n        /* \"contracts/test/Locker_Rewards.sol\":30382:30410  userLock.owner == msg.sender */\n      eq\n        /* \"contracts/test/Locker_Rewards.sol\":30361:30410  lockID == _lockID && userLock.owner == msg.sender */\n    tag_249:\n        /* \"contracts/test/Locker_Rewards.sol\":30339:30451  require(... */\n      tag_250\n      jumpi\n      mload(0x40)\n      shl(0xe5, 0x461bcd)\n      dup2\n      mstore\n      0x04\n      add\n      tag_184\n      swap1\n      tag_205\n      jump\t// in\n    tag_250:\n        /* \"contracts/test/Locker_Rewards.sol\":30521:30526  gFees */\n      0x05\n        /* \"contracts/test/Locker_Rewards.sol\":30521:30533  gFees.ethFee */\n      sload\n        /* \"contracts/test/Locker_Rewards.sol\":30508:30517  msg.value */\n      callvalue\n        /* \"contracts/test/Locker_Rewards.sol\":30508:30533  msg.value == gFees.ethFee */\n      eq\n        /* \"contracts/test/Locker_Rewards.sol\":30500:30549  require(msg.value == gFees.ethFee, \"FEE NOT MET\") */\n      tag_252\n      jumpi\n      mload(0x40)\n      shl(0xe5, 0x461bcd)\n      dup2\n      mstore\n      0x04\n      add\n      tag_184\n      swap1\n      tag_254\n      jump\t// in\n    tag_252:\n        /* \"contracts/test/Locker_Rewards.sol\":30560:30563  ops */\n      sload(0x11)\n        /* \"contracts/test/Locker_Rewards.sol\":30573:30578  gFees */\n      0x05\n        /* \"contracts/test/Locker_Rewards.sol\":30573:30585  gFees.ethFee */\n      sload\n        /* \"contracts/test/Locker_Rewards.sol\":30560:30586  ops.transfer(gFees.ethFee) */\n      mload(0x40)\n      sub(shl(0xa0, 0x01), 0x01)\n        /* \"contracts/test/Locker_Rewards.sol\":30560:30563  ops */\n      swap1\n      swap3\n      and\n      swap2\n        /* \"contracts/test/Locker_Rewards.sol\":30560:30586  ops.transfer(gFees.ethFee) */\n      dup2\n      iszero\n      0x08fc\n      mul\n      swap2\n        /* \"contracts/test/Locker_Rewards.sol\":30573:30585  gFees.ethFee */\n      swap1\n        /* \"contracts/test/Locker_Rewards.sol\":30560:30563  ops */\n      0x00\n        /* \"contracts/test/Locker_Rewards.sol\":30560:30586  ops.transfer(gFees.ethFee) */\n      dup2\n        /* \"contracts/test/Locker_Rewards.sol\":30560:30563  ops */\n      dup2\n        /* \"contracts/test/Locker_Rewards.sol\":30560:30586  ops.transfer(gFees.ethFee) */\n      dup2\n        /* \"contracts/test/Locker_Rewards.sol\":30573:30585  gFees.ethFee */\n      dup6\n        /* \"contracts/test/Locker_Rewards.sol\":30560:30563  ops */\n      dup9\n        /* \"contracts/test/Locker_Rewards.sol\":30560:30586  ops.transfer(gFees.ethFee) */\n      dup9\n      call\n      swap4\n      pop\n      pop\n      pop\n      pop\n      iszero\n      dup1\n      iszero\n      tag_256\n      jumpi\n      returndatasize\n      0x00\n      dup1\n      returndatacopy\n      revert(0x00, returndatasize)\n    tag_256:\n      pop\n        /* \"contracts/test/Locker_Rewards.sol\":30617:30632  userLock.amount */\n      0x01\n      dup2\n      add\n      sload\n        /* \"contracts/test/Locker_Rewards.sol\":30617:30645  userLock.amount.sub(_amount) */\n      tag_257\n      swap1\n        /* \"contracts/test/Locker_Rewards.sol\":30637:30644  _amount */\n      dup5\n        /* \"contracts/test/Locker_Rewards.sol\":30617:30636  userLock.amount.sub */\n      tag_210\n        /* \"contracts/test/Locker_Rewards.sol\":30617:30645  userLock.amount.sub(_amount) */\n      jump\t// in\n    tag_257:\n        /* \"contracts/test/Locker_Rewards.sol\":30599:30614  userLock.amount */\n      0x01\n      dup3\n      add\n        /* \"contracts/test/Locker_Rewards.sol\":30599:30645  userLock.amount = userLock.amount.sub(_amount) */\n      sstore\n        /* \"contracts/test/Locker_Rewards.sol\":30658:30685  TokenLock memory token_lock */\n      tag_258\n      tag_259\n      jump\t// in\n    tag_258:\n        /* \"contracts/test/Locker_Rewards.sol\":30718:30735  userLock.lockDate */\n      dup2\n      sload\n        /* \"contracts/test/Locker_Rewards.sol\":30696:30735  token_lock.lockDate = userLock.lockDate */\n      dup2\n      mstore\n        /* \"contracts/test/Locker_Rewards.sol\":30746:30763  token_lock.amount */\n      0x20\n      dup1\n      dup3\n      add\n        /* \"contracts/test/Locker_Rewards.sol\":30746:30773  token_lock.amount = _amount */\n      dup6\n      dup2\n      mstore\n        /* \"contracts/test/Locker_Rewards.sol\":30784:30808  token_lock.initialAmount */\n      0x40\n      dup1\n      dup5\n      add\n        /* \"contracts/test/Locker_Rewards.sol\":30784:30818  token_lock.initialAmount = _amount */\n      swap7\n      dup8\n      mstore\n        /* \"contracts/test/Locker_Rewards.sol\":30853:30872  userLock.unlockDate */\n      0x03\n      swap5\n      dup6\n      add\n      sload\n        /* \"contracts/test/Locker_Rewards.sol\":30829:30850  token_lock.unlockDate */\n      0x60\n      dup6\n      add\n        /* \"contracts/test/Locker_Rewards.sol\":30829:30872  token_lock.unlockDate = userLock.unlockDate */\n      swap1\n      dup2\n      mstore\n      sub(shl(0xa0, 0x01), 0x01)\n        /* \"contracts/test/Locker_Rewards.sol\":30903:30923  tokenLocks[_lpToken] */\n      swap11\n      dup12\n      and\n      0x00\n      dup2\n      dup2\n      mstore\n        /* \"contracts/test/Locker_Rewards.sol\":30903:30913  tokenLocks */\n      0x04\n        /* \"contracts/test/Locker_Rewards.sol\":30903:30923  tokenLocks[_lpToken] */\n      dup1\n      dup8\n      mstore\n      dup5\n      dup3\n      keccak256\n        /* \"contracts/test/Locker_Rewards.sol\":30903:30930  tokenLocks[_lpToken].length */\n      dup1\n      sload\n        /* \"contracts/test/Locker_Rewards.sol\":30883:30900  token_lock.lockID */\n      0x80\n      dup11\n      add\n        /* \"contracts/test/Locker_Rewards.sol\":30883:30930  token_lock.lockID = tokenLocks[_lpToken].length */\n      dup2\n      dup2\n      mstore\n        /* \"contracts/test/Locker_Rewards.sol\":30960:30970  msg.sender */\n      caller\n        /* \"contracts/test/Locker_Rewards.sol\":30941:30957  token_lock.owner */\n      0xa0\n      dup13\n      add\n        /* \"contracts/test/Locker_Rewards.sol\":30941:30970  token_lock.owner = msg.sender */\n      dup2\n      dup2\n      mstore\n        /* \"contracts/test/Locker_Rewards.sol\":31029:31049  tokenLocks[_lpToken] */\n      dup6\n      dup13\n      mstore\n        /* \"contracts/test/Locker_Rewards.sol\":31029:31066  tokenLocks[_lpToken].push(token_lock) */\n      0x01\n      dup1\n      dup6\n      add\n      dup7\n      sstore\n      swap5\n      dup8\n      mstore\n      dup12\n      dup8\n      keccak256\n      swap13\n      mload\n      0x06\n      swap1\n      swap5\n      mul\n      swap1\n      swap13\n      add\n      swap3\n      dup4\n      sstore\n      swap9\n      mload\n      dup3\n      dup5\n      add\n      sstore\n      swap13\n      mload\n      0x02\n      dup3\n      add\n      sstore\n      swap5\n      mload\n      dup6\n      dup12\n      add\n      sstore\n      dup12\n      mload\n      swap2\n      dup6\n      add\n      swap2\n      swap1\n      swap2\n      sstore\n      swap7\n      mload\n      0x05\n      swap1\n      swap4\n      add\n      dup1\n      sload\n      not(sub(shl(0xa0, 0x01), 0x01))\n      and\n      swap4\n      swap1\n      swap14\n      and\n      swap3\n      swap1\n      swap3\n      or\n      swap1\n      swap12\n      sstore\n        /* \"contracts/test/Locker_Rewards.sol\":31144:31161  users[msg.sender] */\n      swap2\n      dup3\n      mstore\n      swap4\n      dup3\n      mstore\n      dup4\n      dup2\n      keccak256\n        /* \"contracts/test/Locker_Rewards.sol\":31203:31231  user.locksForToken[_lpToken] */\n      swap9\n      dup2\n      mstore\n        /* \"contracts/test/Locker_Rewards.sol\":31203:31221  user.locksForToken */\n      swap8\n      dup3\n      add\n        /* \"contracts/test/Locker_Rewards.sol\":31203:31231  user.locksForToken[_lpToken] */\n      dup2\n      mstore\n      swap2\n      dup8\n      keccak256\n        /* \"contracts/test/Locker_Rewards.sol\":31258:31275  token_lock.lockID */\n      swap4\n      mload\n        /* \"contracts/test/Locker_Rewards.sol\":31242:31276  user_locks.push(token_lock.lockID) */\n      dup5\n      sload\n      dup1\n      dup4\n      add\n      dup7\n      sstore\n      swap5\n      dup9\n      mstore\n      swap2\n      swap1\n      swap7\n      keccak256\n      swap1\n      swap3\n      add\n      swap2\n      swap1\n      swap2\n      sstore\n      pop\n      pop\n      pop\n        /* \"contracts/test/Locker_Rewards.sol\":7383:7405  _status = _NOT_ENTERED */\n      dup1\n      sstore\n        /* \"contracts/test/Locker_Rewards.sol\":29924:31284  function splitLock(... */\n      jump\t// out\n        /* \"contracts/test/Locker_Rewards.sol\":16183:16275  function setOps(address payable _opsaddr) public onlyOwner {... */\n    tag_75:\n        /* \"contracts/test/Locker_Rewards.sol\":2442:2448  _owner */\n      and(sub(shl(0xa0, 0x01), 0x01), sload(0x00))\n        /* \"contracts/test/Locker_Rewards.sol\":931:941  msg.sender */\n      caller\n        /* \"contracts/test/Locker_Rewards.sol\":2442:2464  _owner == _msgSender() */\n      eq\n        /* \"contracts/test/Locker_Rewards.sol\":2434:2501  require(_owner == _msgSender(), \"Ownable: caller is not the owner\") */\n      tag_265\n      jumpi\n      mload(0x40)\n      shl(0xe5, 0x461bcd)\n      dup2\n      mstore\n      0x04\n      add\n      tag_184\n      swap1\n      tag_185\n      jump\t// in\n    tag_265:\n        /* \"contracts/test/Locker_Rewards.sol\":16253:16256  ops */\n      0x11\n        /* \"contracts/test/Locker_Rewards.sol\":16253:16267  ops = _opsaddr */\n      dup1\n      sload\n      not(sub(shl(0xa0, 0x01), 0x01))\n      and\n      sub(shl(0xa0, 0x01), 0x01)\n      swap3\n      swap1\n      swap3\n      and\n      swap2\n      swap1\n      swap2\n      or\n      swap1\n      sstore\n        /* \"contracts/test/Locker_Rewards.sol\":16183:16275  function setOps(address payable _opsaddr) public onlyOwner {... */\n      jump\t// out\n        /* \"contracts/test/Locker_Rewards.sol\":25301:26567  function relock(... */\n    tag_79:\n        /* \"contracts/test/Locker_Rewards.sol\":6475:6476  2 */\n      0x02\n        /* \"contracts/test/Locker_Rewards.sol\":7071:7078  _status */\n      sload(0x01)\n        /* \"contracts/test/Locker_Rewards.sol\":7071:7090  _status != _ENTERED */\n      sub\n        /* \"contracts/test/Locker_Rewards.sol\":7063:7126  require(_status != _ENTERED, \"ReentrancyGuard: reentrant call\") */\n      tag_269\n      jumpi\n      mload(0x40)\n      shl(0xe5, 0x461bcd)\n      dup2\n      mstore\n      0x04\n      add\n      tag_184\n      swap1\n      tag_191\n      jump\t// in\n    tag_269:\n        /* \"contracts/test/Locker_Rewards.sol\":6475:6476  2 */\n      0x02\n        /* \"contracts/test/Locker_Rewards.sol\":7204:7211  _status */\n      0x01\n        /* \"contracts/test/Locker_Rewards.sol\":7204:7222  _status = _ENTERED */\n      sstore\n        /* \"contracts/test/Locker_Rewards.sol\":25497:25508  10000000000 */\n      0x02540be400\n        /* \"contracts/test/Locker_Rewards.sol\":25482:25508  _unlock_date < 10000000000 */\n      dup2\n      lt\n        /* \"contracts/test/Locker_Rewards.sol\":25474:25530  require(_unlock_date < 10000000000, \"TIMESTAMP INVALID\") */\n      tag_272\n      jumpi\n      mload(0x40)\n      shl(0xe5, 0x461bcd)\n      dup2\n      mstore\n      0x04\n      add\n      tag_184\n      swap1\n      tag_274\n      jump\t// in\n    tag_272:\n        /* \"contracts/test/Locker_Rewards.sol\":25622:25632  msg.sender */\n      caller\n        /* \"contracts/test/Locker_Rewards.sol\":25599:25613  uint256 lockID */\n      0x00\n        /* \"contracts/test/Locker_Rewards.sol\":25616:25633  users[msg.sender] */\n      swap1\n      dup2\n      mstore\n        /* \"contracts/test/Locker_Rewards.sol\":25616:25621  users */\n      0x03\n        /* \"contracts/test/Locker_Rewards.sol\":25616:25633  users[msg.sender] */\n      0x20\n      swap1\n      dup2\n      mstore\n      0x40\n      dup1\n      dup4\n      keccak256\n      sub(shl(0xa0, 0x01), 0x01)\n        /* \"contracts/test/Locker_Rewards.sol\":25616:25657  users[msg.sender].locksForToken[_lpToken] */\n      dup9\n      and\n      dup5\n      mstore\n        /* \"contracts/test/Locker_Rewards.sol\":25616:25647  users[msg.sender].locksForToken */\n      0x01\n      add\n        /* \"contracts/test/Locker_Rewards.sol\":25616:25657  users[msg.sender].locksForToken[_lpToken] */\n      swap1\n      swap2\n      mstore\n      dup2\n      keccak256\n        /* \"contracts/test/Locker_Rewards.sol\":25616:25665  users[msg.sender].locksForToken[_lpToken][_index] */\n      dup1\n      sload\n        /* \"contracts/test/Locker_Rewards.sol\":25658:25664  _index */\n      dup6\n      swap1\n        /* \"contracts/test/Locker_Rewards.sol\":25616:25665  users[msg.sender].locksForToken[_lpToken][_index] */\n      dup2\n      lt\n      tag_276\n      jumpi\n      tag_276\n      tag_177\n      jump\t// in\n    tag_276:\n      swap1\n      0x00\n      mstore\n      keccak256(0x00, 0x20)\n      add\n      sload\n        /* \"contracts/test/Locker_Rewards.sol\":25599:25665  uint256 lockID = users[msg.sender].locksForToken[_lpToken][_index] */\n      swap1\n      pop\n        /* \"contracts/test/Locker_Rewards.sol\":25676:25702  TokenLock storage userLock */\n      0x00\n        /* \"contracts/test/Locker_Rewards.sol\":25705:25715  tokenLocks */\n      0x04\n        /* \"contracts/test/Locker_Rewards.sol\":25705:25725  tokenLocks[_lpToken] */\n      0x00\n        /* \"contracts/test/Locker_Rewards.sol\":25716:25724  _lpToken */\n      dup8\n      sub(shl(0xa0, 0x01), 0x01)\n        /* \"contracts/test/Locker_Rewards.sol\":25705:25725  tokenLocks[_lpToken] */\n      and\n      sub(shl(0xa0, 0x01), 0x01)\n      and\n      dup2\n      mstore\n      0x20\n      add\n      swap1\n      dup2\n      mstore\n      0x20\n      add\n      0x00\n      keccak256\n        /* \"contracts/test/Locker_Rewards.sol\":25726:25732  lockID */\n      dup3\n        /* \"contracts/test/Locker_Rewards.sol\":25705:25733  tokenLocks[_lpToken][lockID] */\n      dup2\n      sload\n      dup2\n      lt\n      tag_279\n      jumpi\n      tag_279\n      tag_177\n      jump\t// in\n    tag_279:\n      swap1\n      0x00\n      mstore\n      keccak256(0x00, 0x20)\n      swap1\n      0x06\n      mul\n      add\n        /* \"contracts/test/Locker_Rewards.sol\":25676:25733  TokenLock storage userLock = tokenLocks[_lpToken][lockID] */\n      swap1\n      pop\n        /* \"contracts/test/Locker_Rewards.sol\":25776:25783  _lockID */\n      dup4\n        /* \"contracts/test/Locker_Rewards.sol\":25766:25772  lockID */\n      dup3\n        /* \"contracts/test/Locker_Rewards.sol\":25766:25783  lockID == _lockID */\n      eq\n        /* \"contracts/test/Locker_Rewards.sol\":25766:25815  lockID == _lockID && userLock.owner == msg.sender */\n      dup1\n      iszero\n      tag_281\n      jumpi\n      pop\n        /* \"contracts/test/Locker_Rewards.sol\":25787:25801  userLock.owner */\n      0x05\n      dup2\n      add\n      sload\n      sub(shl(0xa0, 0x01), 0x01)\n      and\n        /* \"contracts/test/Locker_Rewards.sol\":25805:25815  msg.sender */\n      caller\n        /* \"contracts/test/Locker_Rewards.sol\":25787:25815  userLock.owner == msg.sender */\n      eq\n        /* \"contracts/test/Locker_Rewards.sol\":25766:25815  lockID == _lockID && userLock.owner == msg.sender */\n    tag_281:\n        /* \"contracts/test/Locker_Rewards.sol\":25744:25856  require(... */\n      tag_282\n      jumpi\n      mload(0x40)\n      shl(0xe5, 0x461bcd)\n      dup2\n      mstore\n      0x04\n      add\n      tag_184\n      swap1\n      tag_205\n      jump\t// in\n    tag_282:\n        /* \"contracts/test/Locker_Rewards.sol\":25933:25945  _unlock_date */\n      dup3\n        /* \"contracts/test/Locker_Rewards.sol\":25911:25919  userLock */\n      dup2\n        /* \"contracts/test/Locker_Rewards.sol\":25911:25930  userLock.unlockDate */\n      0x03\n      add\n      sload\n        /* \"contracts/test/Locker_Rewards.sol\":25911:25945  userLock.unlockDate < _unlock_date */\n      lt\n        /* \"contracts/test/Locker_Rewards.sol\":25903:25963  require(userLock.unlockDate < _unlock_date, \"UNLOCK BEFORE\") */\n      tag_284\n      jumpi\n      mload(0x40)\n      shl(0xe5, 0x461bcd)\n      dup2\n      mstore\n        /* \"#utility.yul\":12012:12014   */\n      0x20\n        /* \"contracts/test/Locker_Rewards.sol\":25903:25963  require(userLock.unlockDate < _unlock_date, \"UNLOCK BEFORE\") */\n      0x04\n      dup3\n      add\n        /* \"#utility.yul\":11994:12015   */\n      mstore\n        /* \"#utility.yul\":12051:12053   */\n      0x0d\n        /* \"#utility.yul\":12031:12049   */\n      0x24\n      dup3\n      add\n        /* \"#utility.yul\":12024:12054   */\n      mstore\n      shl(0x98, 0x554e4c4f434b204245464f5245)\n        /* \"#utility.yul\":12070:12088   */\n      0x44\n      dup3\n      add\n        /* \"#utility.yul\":12063:12106   */\n      mstore\n        /* \"#utility.yul\":12123:12141   */\n      0x64\n      add\n        /* \"contracts/test/Locker_Rewards.sol\":25903:25963  require(userLock.unlockDate < _unlock_date, \"UNLOCK BEFORE\") */\n      tag_184\n        /* \"#utility.yul\":11810:12147   */\n      jump\n        /* \"contracts/test/Locker_Rewards.sol\":25903:25963  require(userLock.unlockDate < _unlock_date, \"UNLOCK BEFORE\") */\n    tag_284:\n        /* \"contracts/test/Locker_Rewards.sol\":26018:26036  gFees.liquidityFee */\n      sload(0x09)\n        /* \"contracts/test/Locker_Rewards.sol\":26063:26073  msg.sender */\n      caller\n        /* \"contracts/test/Locker_Rewards.sol\":25974:25994  uint256 liquidityFee */\n      0x00\n        /* \"contracts/test/Locker_Rewards.sol\":26050:26074  feeBlocklist[msg.sender] */\n      swap1\n      dup2\n      mstore\n        /* \"contracts/test/Locker_Rewards.sol\":26050:26062  feeBlocklist */\n      0x0f\n        /* \"contracts/test/Locker_Rewards.sol\":26050:26074  feeBlocklist[msg.sender] */\n      0x20\n      mstore\n      0x40\n      dup2\n      keccak256\n      sload\n        /* \"contracts/test/Locker_Rewards.sol\":25974:25994  uint256 liquidityFee */\n      swap1\n      swap2\n        /* \"contracts/test/Locker_Rewards.sol\":26018:26036  gFees.liquidityFee */\n      swap1\n        /* \"contracts/test/Locker_Rewards.sol\":26050:26074  feeBlocklist[msg.sender] */\n      0xff\n      and\n        /* \"contracts/test/Locker_Rewards.sol\":26050:26082  feeBlocklist[msg.sender] == true */\n      iszero\n      iszero\n        /* \"contracts/test/Locker_Rewards.sol\":26050:26074  feeBlocklist[msg.sender] */\n      0x01\n        /* \"contracts/test/Locker_Rewards.sol\":26050:26082  feeBlocklist[msg.sender] == true */\n      sub\n        /* \"contracts/test/Locker_Rewards.sol\":26047:26294  if(feeBlocklist[msg.sender] == true){... */\n      tag_287\n      jumpi\n        /* \"contracts/test/Locker_Rewards.sol\":26106:26124  gFees.liquidityFee */\n      sload(0x09)\n        /* \"contracts/test/Locker_Rewards.sol\":26106:26132  gFees.liquidityFee.mul(10) */\n      tag_288\n      swap1\n        /* \"contracts/test/Locker_Rewards.sol\":26129:26131  10 */\n      0x0a\n        /* \"contracts/test/Locker_Rewards.sol\":26106:26128  gFees.liquidityFee.mul */\n      tag_289\n        /* \"contracts/test/Locker_Rewards.sol\":26106:26132  gFees.liquidityFee.mul(10) */\n      jump\t// in\n    tag_288:\n        /* \"contracts/test/Locker_Rewards.sol\":26098:26132  glFee = gFees.liquidityFee.mul(10) */\n      swap1\n      pop\n        /* \"contracts/test/Locker_Rewards.sol\":26162:26198  userLock.amount.mul(glFee).div(1000) */\n      tag_290\n        /* \"contracts/test/Locker_Rewards.sol\":26193:26197  1000 */\n      0x03e8\n        /* \"contracts/test/Locker_Rewards.sol\":26162:26188  userLock.amount.mul(glFee) */\n      tag_291\n        /* \"contracts/test/Locker_Rewards.sol\":26182:26187  glFee */\n      dup4\n        /* \"contracts/test/Locker_Rewards.sol\":26162:26170  userLock */\n      dup7\n        /* \"contracts/test/Locker_Rewards.sol\":26162:26177  userLock.amount */\n      0x01\n      add\n      sload\n        /* \"contracts/test/Locker_Rewards.sol\":26162:26181  userLock.amount.mul */\n      tag_289\n      swap1\n        /* \"contracts/test/Locker_Rewards.sol\":26162:26188  userLock.amount.mul(glFee) */\n      swap2\n      swap1\n      0xffffffff\n      and\n      jump\t// in\n    tag_291:\n        /* \"contracts/test/Locker_Rewards.sol\":26162:26192  userLock.amount.mul(glFee).div */\n      swap1\n      tag_292\n        /* \"contracts/test/Locker_Rewards.sol\":26162:26198  userLock.amount.mul(glFee).div(1000) */\n      jump\t// in\n    tag_290:\n        /* \"contracts/test/Locker_Rewards.sol\":26147:26198  liquidityFee = userLock.amount.mul(glFee).div(1000) */\n      swap2\n      pop\n        /* \"contracts/test/Locker_Rewards.sol\":26047:26294  if(feeBlocklist[msg.sender] == true){... */\n      jump(tag_293)\n    tag_287:\n        /* \"contracts/test/Locker_Rewards.sol\":26246:26282  userLock.amount.mul(glFee).div(1000) */\n      tag_294\n        /* \"contracts/test/Locker_Rewards.sol\":26277:26281  1000 */\n      0x03e8\n        /* \"contracts/test/Locker_Rewards.sol\":26246:26272  userLock.amount.mul(glFee) */\n      tag_291\n        /* \"contracts/test/Locker_Rewards.sol\":26266:26271  glFee */\n      dup4\n        /* \"contracts/test/Locker_Rewards.sol\":26246:26254  userLock */\n      dup7\n        /* \"contracts/test/Locker_Rewards.sol\":26246:26261  userLock.amount */\n      0x01\n      add\n      sload\n        /* \"contracts/test/Locker_Rewards.sol\":26246:26265  userLock.amount.mul */\n      tag_289\n      swap1\n        /* \"contracts/test/Locker_Rewards.sol\":26246:26272  userLock.amount.mul(glFee) */\n      swap2\n      swap1\n      0xffffffff\n      and\n      jump\t// in\n        /* \"contracts/test/Locker_Rewards.sol\":26246:26282  userLock.amount.mul(glFee).div(1000) */\n    tag_294:\n        /* \"contracts/test/Locker_Rewards.sol\":26231:26282  liquidityFee = userLock.amount.mul(glFee).div(1000) */\n      swap2\n      pop\n        /* \"contracts/test/Locker_Rewards.sol\":26047:26294  if(feeBlocklist[msg.sender] == true){... */\n    tag_293:\n        /* \"contracts/test/Locker_Rewards.sol\":26327:26342  userLock.amount */\n      0x01\n      dup4\n      add\n      sload\n        /* \"contracts/test/Locker_Rewards.sol\":26304:26324  uint256 amountLocked */\n      0x00\n      swap1\n        /* \"contracts/test/Locker_Rewards.sol\":26327:26360  userLock.amount.sub(liquidityFee) */\n      tag_296\n      swap1\n        /* \"contracts/test/Locker_Rewards.sol\":26347:26359  liquidityFee */\n      dup5\n        /* \"contracts/test/Locker_Rewards.sol\":26327:26346  userLock.amount.sub */\n      tag_210\n        /* \"contracts/test/Locker_Rewards.sol\":26327:26360  userLock.amount.sub(liquidityFee) */\n      jump\t// in\n    tag_296:\n        /* \"contracts/test/Locker_Rewards.sol\":26373:26388  userLock.amount */\n      0x01\n      dup6\n      add\n        /* \"contracts/test/Locker_Rewards.sol\":26373:26403  userLock.amount = amountLocked */\n      dup2\n      swap1\n      sstore\n        /* \"contracts/test/Locker_Rewards.sol\":26414:26433  userLock.unlockDate */\n      0x03\n      dup6\n      add\n        /* \"contracts/test/Locker_Rewards.sol\":26414:26448  userLock.unlockDate = _unlock_date */\n      dup8\n      swap1\n      sstore\n        /* \"contracts/test/Locker_Rewards.sol\":26541:26544  ops */\n      sload(0x11)\n        /* \"contracts/test/Locker_Rewards.sol\":26304:26360  uint256 amountLocked = userLock.amount.sub(liquidityFee) */\n      swap1\n      swap2\n      pop\n        /* \"contracts/test/Locker_Rewards.sol\":26503:26559  TransferHelper.safeTransfer(_lpToken, ops, liquidityFee) */\n      tag_297\n      swap1\n        /* \"contracts/test/Locker_Rewards.sol\":26531:26539  _lpToken */\n      dup11\n      swap1\n      sub(shl(0xa0, 0x01), 0x01)\n        /* \"contracts/test/Locker_Rewards.sol\":26541:26544  ops */\n      and\n        /* \"contracts/test/Locker_Rewards.sol\":26546:26558  liquidityFee */\n      dup6\n        /* \"contracts/test/Locker_Rewards.sol\":26503:26530  TransferHelper.safeTransfer */\n      tag_230\n        /* \"contracts/test/Locker_Rewards.sol\":26503:26559  TransferHelper.safeTransfer(_lpToken, ops, liquidityFee) */\n      jump\t// in\n    tag_297:\n      pop\n      pop\n        /* \"contracts/test/Locker_Rewards.sol\":6431:6432  1 */\n      0x01\n        /* \"contracts/test/Locker_Rewards.sol\":7383:7405  _status = _NOT_ENTERED */\n      dup1\n      sstore\n      pop\n      pop\n      pop\n      pop\n      pop\n      pop\n      pop\n        /* \"contracts/test/Locker_Rewards.sol\":25301:26567  function relock(... */\n      jump\t// out\n        /* \"contracts/test/Locker_Rewards.sol\":2872:3020  function renounceOwnership() public virtual onlyOwner {... */\n    tag_82:\n        /* \"contracts/test/Locker_Rewards.sol\":2442:2448  _owner */\n      and(sub(shl(0xa0, 0x01), 0x01), sload(0x00))\n        /* \"contracts/test/Locker_Rewards.sol\":931:941  msg.sender */\n      caller\n        /* \"contracts/test/Locker_Rewards.sol\":2442:2464  _owner == _msgSender() */\n      eq\n        /* \"contracts/test/Locker_Rewards.sol\":2434:2501  require(_owner == _msgSender(), \"Ownable: caller is not the owner\") */\n      tag_300\n      jumpi\n      mload(0x40)\n      shl(0xe5, 0x461bcd)\n      dup2\n      mstore\n      0x04\n      add\n      tag_184\n      swap1\n      tag_185\n      jump\t// in\n    tag_300:\n        /* \"contracts/test/Locker_Rewards.sol\":2979:2980  0 */\n      0x00\n        /* \"contracts/test/Locker_Rewards.sol\":2963:2969  _owner */\n      dup1\n      sload\n        /* \"contracts/test/Locker_Rewards.sol\":2942:2982  OwnershipTransferred(_owner, address(0)) */\n      mload(0x40)\n      sub(shl(0xa0, 0x01), 0x01)\n        /* \"contracts/test/Locker_Rewards.sol\":2963:2969  _owner */\n      swap1\n      swap2\n      and\n      swap1\n        /* \"contracts/test/Locker_Rewards.sol\":2942:2982  OwnershipTransferred(_owner, address(0)) */\n      0x8be0079c531659141344cd1fd0a4f28419497f9722a3daafe3b4186f6b6457e0\n      swap1\n        /* \"contracts/test/Locker_Rewards.sol\":2979:2980  0 */\n      dup4\n      swap1\n        /* \"contracts/test/Locker_Rewards.sol\":2942:2982  OwnershipTransferred(_owner, address(0)) */\n      log3\n        /* \"contracts/test/Locker_Rewards.sol\":3010:3011  0 */\n      0x00\n        /* \"contracts/test/Locker_Rewards.sol\":2993:3012  _owner = address(0) */\n      dup1\n      sload\n      not(sub(shl(0xa0, 0x01), 0x01))\n      and\n      swap1\n      sstore\n        /* \"contracts/test/Locker_Rewards.sol\":2872:3020  function renounceOwnership() public virtual onlyOwner {... */\n      jump\t// out\n        /* \"contracts/test/Locker_Rewards.sol\":17003:17562  function setFees(... */\n    tag_91:\n        /* \"contracts/test/Locker_Rewards.sol\":2442:2448  _owner */\n      and(sub(shl(0xa0, 0x01), 0x01), sload(0x00))\n        /* \"contracts/test/Locker_Rewards.sol\":931:941  msg.sender */\n      caller\n        /* \"contracts/test/Locker_Rewards.sol\":2442:2464  _owner == _msgSender() */\n      eq\n        /* \"contracts/test/Locker_Rewards.sol\":2434:2501  require(_owner == _msgSender(), \"Ownable: caller is not the owner\") */\n      tag_306\n      jumpi\n      mload(0x40)\n      shl(0xe5, 0x461bcd)\n      dup2\n      mstore\n      0x04\n      add\n      tag_184\n      swap1\n      tag_185\n      jump\t// in\n    tag_306:\n        /* \"contracts/test/Locker_Rewards.sol\":17263:17284  gFees.referralPercent */\n      0x0a\n        /* \"contracts/test/Locker_Rewards.sol\":17263:17303  gFees.referralPercent = _referralPercent */\n      swap6\n      swap1\n      swap6\n      sstore\n        /* \"contracts/test/Locker_Rewards.sol\":17314:17336  gFees.referralDiscount */\n      0x0d\n        /* \"contracts/test/Locker_Rewards.sol\":17314:17356  gFees.referralDiscount = _referralDiscount */\n      swap4\n      swap1\n      swap4\n      sstore\n        /* \"contracts/test/Locker_Rewards.sol\":17263:17268  gFees */\n      0x05\n        /* \"contracts/test/Locker_Rewards.sol\":17367:17389  gFees.ethFee = _ethFee */\n      swap2\n      swap1\n      swap2\n      sstore\n        /* \"contracts/test/Locker_Rewards.sol\":17400:17423  gFees.secondaryTokenFee */\n      0x07\n        /* \"contracts/test/Locker_Rewards.sol\":17400:17444  gFees.secondaryTokenFee = _secondaryTokenFee */\n      sstore\n        /* \"contracts/test/Locker_Rewards.sol\":17314:17336  gFees.referralDiscount */\n      0x08\n        /* \"contracts/test/Locker_Rewards.sol\":17455:17509  gFees.secondaryTokenDiscount = _secondaryTokenDiscount */\n      sstore\n        /* \"contracts/test/Locker_Rewards.sol\":17520:17538  gFees.liquidityFee */\n      0x09\n        /* \"contracts/test/Locker_Rewards.sol\":17520:17554  gFees.liquidityFee = _liquidityFee */\n      sstore\n        /* \"contracts/test/Locker_Rewards.sol\":17003:17562  function setFees(... */\n      jump\t// out\n        /* \"contracts/test/Locker_Rewards.sol\":16508:16656  function setSecondaryFeeToken(address _secondaryFeeToken) public onlyOwner {... */\n    tag_95:\n        /* \"contracts/test/Locker_Rewards.sol\":2442:2448  _owner */\n      and(sub(shl(0xa0, 0x01), 0x01), sload(0x00))\n        /* \"contracts/test/Locker_Rewards.sol\":931:941  msg.sender */\n      caller\n        /* \"contracts/test/Locker_Rewards.sol\":2442:2464  _owner == _msgSender() */\n      eq\n        /* \"contracts/test/Locker_Rewards.sol\":2434:2501  require(_owner == _msgSender(), \"Ownable: caller is not the owner\") */\n      tag_311\n      jumpi\n      mload(0x40)\n      shl(0xe5, 0x461bcd)\n      dup2\n      mstore\n      0x04\n      add\n      tag_184\n      swap1\n      tag_185\n      jump\t// in\n    tag_311:\n        /* \"contracts/test/Locker_Rewards.sol\":16594:16617  gFees.secondaryFeeToken */\n      0x06\n        /* \"contracts/test/Locker_Rewards.sol\":16594:16648  gFees.secondaryFeeToken = IERCBurn(_secondaryFeeToken) */\n      dup1\n      sload\n      not(sub(shl(0xa0, 0x01), 0x01))\n      and\n      sub(shl(0xa0, 0x01), 0x01)\n      swap3\n      swap1\n      swap3\n      and\n      swap2\n      swap1\n      swap2\n      or\n      swap1\n      sstore\n        /* \"contracts/test/Locker_Rewards.sol\":16508:16656  function setSecondaryFeeToken(address _secondaryFeeToken) public onlyOwner {... */\n      jump\t// out\n        /* \"contracts/test/Locker_Rewards.sol\":18541:25062  function lockLPToken(... */\n    tag_99:\n        /* \"contracts/test/Locker_Rewards.sol\":6475:6476  2 */\n      0x02\n        /* \"contracts/test/Locker_Rewards.sol\":7071:7078  _status */\n      sload(0x01)\n        /* \"contracts/test/Locker_Rewards.sol\":7071:7090  _status != _ENTERED */\n      sub\n        /* \"contracts/test/Locker_Rewards.sol\":7063:7126  require(_status != _ENTERED, \"ReentrancyGuard: reentrant call\") */\n      tag_315\n      jumpi\n      mload(0x40)\n      shl(0xe5, 0x461bcd)\n      dup2\n      mstore\n      0x04\n      add\n      tag_184\n      swap1\n      tag_191\n      jump\t// in\n    tag_315:\n        /* \"contracts/test/Locker_Rewards.sol\":6475:6476  2 */\n      0x02\n        /* \"contracts/test/Locker_Rewards.sol\":7204:7211  _status */\n      0x01\n        /* \"contracts/test/Locker_Rewards.sol\":7204:7222  _status = _ENTERED */\n      sstore\n        /* \"contracts/test/Locker_Rewards.sol\":18826:18837  10000000000 */\n      0x02540be400\n        /* \"contracts/test/Locker_Rewards.sol\":18811:18837  _unlock_date < 10000000000 */\n      dup5\n      lt\n        /* \"contracts/test/Locker_Rewards.sol\":18803:18859  require(_unlock_date < 10000000000, \"TIMESTAMP INVALID\") */\n      tag_318\n      jumpi\n      mload(0x40)\n      shl(0xe5, 0x461bcd)\n      dup2\n      mstore\n      0x04\n      add\n      tag_184\n      swap1\n      tag_274\n      jump\t// in\n    tag_318:\n        /* \"contracts/test/Locker_Rewards.sol\":18946:18947  0 */\n      0x00\n        /* \"contracts/test/Locker_Rewards.sol\":18936:18943  _amount */\n      dup6\n        /* \"contracts/test/Locker_Rewards.sol\":18936:18947  _amount > 0 */\n      gt\n        /* \"contracts/test/Locker_Rewards.sol\":18928:18964  require(_amount > 0, \"INSUFFICIENT\") */\n      tag_320\n      jumpi\n      mload(0x40)\n      shl(0xe5, 0x461bcd)\n      dup2\n      mstore\n        /* \"#utility.yul\":12354:12356   */\n      0x20\n        /* \"contracts/test/Locker_Rewards.sol\":18928:18964  require(_amount > 0, \"INSUFFICIENT\") */\n      0x04\n      dup3\n      add\n        /* \"#utility.yul\":12336:12357   */\n      mstore\n        /* \"#utility.yul\":12393:12395   */\n      0x0c\n        /* \"#utility.yul\":12373:12391   */\n      0x24\n      dup3\n      add\n        /* \"#utility.yul\":12366:12396   */\n      mstore\n      shl(0xa2, 0x125394d551919250d2515395)\n        /* \"#utility.yul\":12412:12430   */\n      0x44\n      dup3\n      add\n        /* \"#utility.yul\":12405:12447   */\n      mstore\n        /* \"#utility.yul\":12464:12482   */\n      0x64\n      add\n        /* \"contracts/test/Locker_Rewards.sol\":18928:18964  require(_amount > 0, \"INSUFFICIENT\") */\n      tag_184\n        /* \"#utility.yul\":12152:12488   */\n      jump\n        /* \"contracts/test/Locker_Rewards.sol\":18928:18964  require(_amount > 0, \"INSUFFICIENT\") */\n    tag_320:\n        /* \"contracts/test/Locker_Rewards.sol\":19142:19156  uniswapFactory */\n      sload(0x02)\n        /* \"contracts/test/Locker_Rewards.sol\":19179:19193  lpair.token0() */\n      0x40\n      dup1\n      mload\n      shl(0xe0, 0x0dfe1681)\n      dup2\n      mstore\n      swap1\n      mload\n        /* \"contracts/test/Locker_Rewards.sol\":19092:19100  _lpToken */\n      dup9\n      swap3\n        /* \"contracts/test/Locker_Rewards.sol\":19046:19066  IUniswapV2Pair lpair */\n      0x00\n      swap3\n      sub(shl(0xa0, 0x01), 0x01)\n        /* \"contracts/test/Locker_Rewards.sol\":19142:19156  uniswapFactory */\n      swap2\n      dup3\n      and\n      swap3\n        /* \"contracts/test/Locker_Rewards.sol\":19142:19164  uniswapFactory.getPair */\n      0xe6a43905\n      swap3\n        /* \"contracts/test/Locker_Rewards.sol\":19179:19191  lpair.token0 */\n      dup7\n      and\n      swap2\n      0x0dfe1681\n      swap2\n        /* \"contracts/test/Locker_Rewards.sol\":19179:19193  lpair.token0() */\n      0x04\n      dup1\n      dup4\n      add\n      swap3\n      0x20\n      swap3\n      swap2\n      swap1\n      dup3\n      swap1\n      sub\n      add\n      dup2\n        /* \"contracts/test/Locker_Rewards.sol\":19179:19191  lpair.token0 */\n      dup7\n        /* \"contracts/test/Locker_Rewards.sol\":19179:19193  lpair.token0() */\n      gas\n      staticcall\n      iszero\n      dup1\n      iszero\n      tag_324\n      jumpi\n      returndatasize\n      0x00\n      dup1\n      returndatacopy\n      revert(0x00, returndatasize)\n    tag_324:\n      pop\n      pop\n      pop\n      pop\n      mload(0x40)\n      returndatasize\n      not(0x1f)\n      0x1f\n      dup3\n      add\n      and\n      dup3\n      add\n      dup1\n      0x40\n      mstore\n      pop\n      dup2\n      add\n      swap1\n      tag_325\n      swap2\n      swap1\n      tag_326\n      jump\t// in\n    tag_325:\n        /* \"contracts/test/Locker_Rewards.sol\":19208:19213  lpair */\n      dup5\n      sub(shl(0xa0, 0x01), 0x01)\n        /* \"contracts/test/Locker_Rewards.sol\":19208:19220  lpair.token1 */\n      and\n      0xd21220a7\n        /* \"contracts/test/Locker_Rewards.sol\":19208:19222  lpair.token1() */\n      mload(0x40)\n      dup2\n      0xffffffff\n      and\n      0xe0\n      shl\n      dup2\n      mstore\n      0x04\n      add\n      0x20\n      mload(0x40)\n      dup1\n      dup4\n      sub\n      dup2\n      dup7\n      gas\n      staticcall\n      iszero\n      dup1\n      iszero\n      tag_328\n      jumpi\n      returndatasize\n      0x00\n      dup1\n      returndatacopy\n      revert(0x00, returndatasize)\n    tag_328:\n      pop\n      pop\n      pop\n      pop\n      mload(0x40)\n      returndatasize\n      not(0x1f)\n      0x1f\n      dup3\n      add\n      and\n      dup3\n      add\n      dup1\n      0x40\n      mstore\n      pop\n      dup2\n      add\n      swap1\n      tag_329\n      swap2\n      swap1\n      tag_326\n      jump\t// in\n    tag_329:\n        /* \"contracts/test/Locker_Rewards.sol\":19142:19233  uniswapFactory.getPair(... */\n      mload(0x40)\n      not(sub(shl(0xe0, 0x01), 0x01))\n      0xe0\n      dup6\n      swap1\n      shl\n      and\n      dup2\n      mstore\n      sub(shl(0xa0, 0x01), 0x01)\n        /* \"#utility.yul\":12979:12994   */\n      swap3\n      dup4\n      and\n        /* \"contracts/test/Locker_Rewards.sol\":19142:19233  uniswapFactory.getPair(... */\n      0x04\n      dup3\n      add\n        /* \"#utility.yul\":12961:12995   */\n      mstore\n        /* \"#utility.yul\":13031:13046   */\n      swap2\n      and\n        /* \"#utility.yul\":13011:13029   */\n      0x24\n      dup3\n      add\n        /* \"#utility.yul\":13004:13047   */\n      mstore\n        /* \"#utility.yul\":12896:12914   */\n      0x44\n      add\n        /* \"contracts/test/Locker_Rewards.sol\":19142:19233  uniswapFactory.getPair(... */\n      0x20\n      mload(0x40)\n      dup1\n      dup4\n      sub\n      dup2\n      dup7\n      gas\n      staticcall\n      iszero\n      dup1\n      iszero\n      tag_333\n      jumpi\n      returndatasize\n      0x00\n      dup1\n      returndatacopy\n      revert(0x00, returndatasize)\n    tag_333:\n      pop\n      pop\n      pop\n      pop\n      mload(0x40)\n      returndatasize\n      not(0x1f)\n      0x1f\n      dup3\n      add\n      and\n      dup3\n      add\n      dup1\n      0x40\n      mstore\n      pop\n      dup2\n      add\n      swap1\n      tag_334\n      swap2\n      swap1\n      tag_326\n      jump\t// in\n    tag_334:\n        /* \"contracts/test/Locker_Rewards.sol\":19113:19233  address factoryPairAddress = uniswapFactory.getPair(... */\n      swap1\n      pop\n        /* \"contracts/test/Locker_Rewards.sol\":19282:19290  _lpToken */\n      dup8\n      sub(shl(0xa0, 0x01), 0x01)\n        /* \"contracts/test/Locker_Rewards.sol\":19252:19291  factoryPairAddress == address(_lpToken) */\n      and\n        /* \"contracts/test/Locker_Rewards.sol\":19252:19270  factoryPairAddress */\n      dup2\n      sub(shl(0xa0, 0x01), 0x01)\n        /* \"contracts/test/Locker_Rewards.sol\":19252:19291  factoryPairAddress == address(_lpToken) */\n      and\n      eq\n        /* \"contracts/test/Locker_Rewards.sol\":19244:19305  require(factoryPairAddress == address(_lpToken), \"NOT UNIV2\") */\n      tag_335\n      jumpi\n      mload(0x40)\n      shl(0xe5, 0x461bcd)\n      dup2\n      mstore\n        /* \"#utility.yul\":13260:13262   */\n      0x20\n        /* \"contracts/test/Locker_Rewards.sol\":19244:19305  require(factoryPairAddress == address(_lpToken), \"NOT UNIV2\") */\n      0x04\n      dup3\n      add\n        /* \"#utility.yul\":13242:13263   */\n      mstore\n        /* \"#utility.yul\":13299:13300   */\n      0x09\n        /* \"#utility.yul\":13279:13297   */\n      0x24\n      dup3\n      add\n        /* \"#utility.yul\":13272:13301   */\n      mstore\n      shl(0xb9, 0x2727aa102aa724ab19)\n        /* \"#utility.yul\":13317:13335   */\n      0x44\n      dup3\n      add\n        /* \"#utility.yul\":13310:13349   */\n      mstore\n        /* \"#utility.yul\":13366:13384   */\n      0x64\n      add\n        /* \"contracts/test/Locker_Rewards.sol\":19244:19305  require(factoryPairAddress == address(_lpToken), \"NOT UNIV2\") */\n      tag_184\n        /* \"#utility.yul\":13058:13390   */\n      jump\n        /* \"contracts/test/Locker_Rewards.sol\":19244:19305  require(factoryPairAddress == address(_lpToken), \"NOT UNIV2\") */\n    tag_335:\n        /* \"contracts/test/Locker_Rewards.sol\":19318:19478  TransferHelper.safeTransferFrom(... */\n      tag_338\n        /* \"contracts/test/Locker_Rewards.sol\":19364:19372  _lpToken */\n      dup9\n        /* \"contracts/test/Locker_Rewards.sol\":19395:19405  msg.sender */\n      caller\n        /* \"contracts/test/Locker_Rewards.sol\":19438:19442  this */\n      address\n        /* \"contracts/test/Locker_Rewards.sol\":19460:19467  _amount */\n      dup11\n        /* \"contracts/test/Locker_Rewards.sol\":19318:19349  TransferHelper.safeTransferFrom */\n      tag_339\n        /* \"contracts/test/Locker_Rewards.sol\":19318:19478  TransferHelper.safeTransferFrom(... */\n      jump\t// in\n    tag_338:\n      sub(shl(0xa0, 0x01), 0x01)\n        /* \"contracts/test/Locker_Rewards.sol\":19509:19532  _referral != address(0) */\n      dup6\n      and\n      iszero\n      dup1\n      iszero\n      swap1\n        /* \"contracts/test/Locker_Rewards.sol\":19509:19591  _referral != address(0) &&... */\n      tag_340\n      jumpi\n      pop\n        /* \"contracts/test/Locker_Rewards.sol\":19557:19576  gFees.referralToken */\n      and(sub(shl(0xa0, 0x01), 0x01), sload(0x0b))\n        /* \"contracts/test/Locker_Rewards.sol\":19549:19591  address(gFees.referralToken) != address(0) */\n      iszero\n      iszero\n        /* \"contracts/test/Locker_Rewards.sol\":19509:19591  _referral != address(0) &&... */\n    tag_340:\n        /* \"contracts/test/Locker_Rewards.sol\":19491:19772  if (... */\n      iszero\n      tag_348\n      jumpi\n        /* \"contracts/test/Locker_Rewards.sol\":19688:19706  gFees.referralHold */\n      sload(0x0c)\n        /* \"contracts/test/Locker_Rewards.sol\":19644:19663  gFees.referralToken */\n      sload(0x0b)\n        /* \"contracts/test/Locker_Rewards.sol\":19644:19684  gFees.referralToken.balanceOf(_referral) */\n      mload(0x40)\n      shl(0xe0, 0x70a08231)\n      dup2\n      mstore\n      sub(shl(0xa0, 0x01), 0x01)\n        /* \"contracts/test/Locker_Rewards.sol\":19644:19663  gFees.referralToken */\n      swap1\n      swap2\n      and\n      swap1\n        /* \"contracts/test/Locker_Rewards.sol\":19644:19673  gFees.referralToken.balanceOf */\n      0x70a08231\n      swap1\n        /* \"contracts/test/Locker_Rewards.sol\":19644:19684  gFees.referralToken.balanceOf(_referral) */\n      tag_342\n      swap1\n        /* \"contracts/test/Locker_Rewards.sol\":19674:19683  _referral */\n      dup10\n      swap1\n        /* \"contracts/test/Locker_Rewards.sol\":19644:19684  gFees.referralToken.balanceOf(_referral) */\n      0x04\n      add\n      tag_38\n      jump\t// in\n    tag_342:\n      0x20\n      mload(0x40)\n      dup1\n      dup4\n      sub\n      dup2\n      dup7\n      gas\n      staticcall\n      iszero\n      dup1\n      iszero\n      tag_345\n      jumpi\n      returndatasize\n      0x00\n      dup1\n      returndatacopy\n      revert(0x00, returndatasize)\n    tag_345:\n      pop\n      pop\n      pop\n      pop\n      mload(0x40)\n      returndatasize\n      not(0x1f)\n      0x1f\n      dup3\n      add\n      and\n      dup3\n      add\n      dup1\n      0x40\n      mstore\n      pop\n      dup2\n      add\n      swap1\n      tag_346\n      swap2\n      swap1\n      tag_347\n      jump\t// in\n    tag_346:\n        /* \"contracts/test/Locker_Rewards.sol\":19644:19706  gFees.referralToken.balanceOf(_referral) >= gFees.referralHold */\n      lt\n      iszero\n        /* \"contracts/test/Locker_Rewards.sol\":19618:19760  require(... */\n      tag_348\n      jumpi\n      mload(0x40)\n      shl(0xe5, 0x461bcd)\n      dup2\n      mstore\n        /* \"#utility.yul\":14002:14004   */\n      0x20\n        /* \"contracts/test/Locker_Rewards.sol\":19618:19760  require(... */\n      0x04\n      dup3\n      add\n        /* \"#utility.yul\":13984:14005   */\n      mstore\n        /* \"#utility.yul\":14041:14043   */\n      0x12\n        /* \"#utility.yul\":14021:14039   */\n      0x24\n      dup3\n      add\n        /* \"#utility.yul\":14014:14044   */\n      mstore\n      shl(0x70, 0x494e41444551554154452042414c414e4345)\n        /* \"#utility.yul\":14060:14078   */\n      0x44\n      dup3\n      add\n        /* \"#utility.yul\":14053:14101   */\n      mstore\n        /* \"#utility.yul\":14118:14136   */\n      0x64\n      add\n        /* \"contracts/test/Locker_Rewards.sol\":19618:19760  require(... */\n      tag_184\n        /* \"#utility.yul\":13800:14142   */\n      jump\n        /* \"contracts/test/Locker_Rewards.sol\":19618:19760  require(... */\n    tag_348:\n        /* \"contracts/test/Locker_Rewards.sol\":19826:19836  msg.sender */\n      caller\n        /* \"contracts/test/Locker_Rewards.sol\":19813:19837  feeWhitelist[msg.sender] */\n      0x00\n      swap1\n      dup2\n      mstore\n        /* \"contracts/test/Locker_Rewards.sol\":19813:19825  feeWhitelist */\n      0x0e\n        /* \"contracts/test/Locker_Rewards.sol\":19813:19837  feeWhitelist[msg.sender] */\n      0x20\n      mstore\n      0x40\n      swap1\n      keccak256\n      sload\n      0xff\n      and\n        /* \"contracts/test/Locker_Rewards.sol\":19808:23223  if (!feeWhitelist[msg.sender]) {... */\n      tag_351\n      jumpi\n        /* \"contracts/test/Locker_Rewards.sol\":19858:19869  _fee_in_eth */\n      dup4\n        /* \"contracts/test/Locker_Rewards.sol\":19854:22834  if (_fee_in_eth) {... */\n      iszero\n      tag_352\n      jumpi\n        /* \"contracts/test/Locker_Rewards.sol\":19945:19950  gFees */\n      0x05\n        /* \"contracts/test/Locker_Rewards.sol\":19945:19957  gFees.ethFee */\n      sload\n      sub(shl(0xa0, 0x01), 0x01)\n        /* \"contracts/test/Locker_Rewards.sol\":19980:20003  _referral != address(0) */\n      dup7\n      and\n      iszero\n        /* \"contracts/test/Locker_Rewards.sol\":19976:20156  if (_referral != address(0)) {... */\n      tag_353\n      jumpi\n        /* \"contracts/test/Locker_Rewards.sol\":20037:20136  ethFee.mul(1000 - gFees.referralDiscount).div(... */\n      tag_354\n        /* \"contracts/test/Locker_Rewards.sol\":20109:20113  1000 */\n      0x03e8\n        /* \"contracts/test/Locker_Rewards.sol\":20037:20078  ethFee.mul(1000 - gFees.referralDiscount) */\n      tag_291\n        /* \"contracts/test/Locker_Rewards.sol\":20055:20060  gFees */\n      0x05\n        /* \"contracts/test/Locker_Rewards.sol\":20055:20077  gFees.referralDiscount */\n      0x08\n      add\n      sload\n        /* \"contracts/test/Locker_Rewards.sol\":20048:20052  1000 */\n      0x03e8\n        /* \"contracts/test/Locker_Rewards.sol\":20048:20077  1000 - gFees.referralDiscount */\n      tag_356\n      swap2\n      swap1\n      tag_213\n      jump\t// in\n    tag_356:\n        /* \"contracts/test/Locker_Rewards.sol\":20037:20043  ethFee */\n      dup5\n      swap1\n        /* \"contracts/test/Locker_Rewards.sol\":20037:20047  ethFee.mul */\n      tag_289\n        /* \"contracts/test/Locker_Rewards.sol\":20037:20078  ethFee.mul(1000 - gFees.referralDiscount) */\n      jump\t// in\n        /* \"contracts/test/Locker_Rewards.sol\":20037:20136  ethFee.mul(1000 - gFees.referralDiscount).div(... */\n    tag_354:\n        /* \"contracts/test/Locker_Rewards.sol\":20028:20136  ethFee = ethFee.mul(1000 - gFees.referralDiscount).div(... */\n      swap1\n      pop\n        /* \"contracts/test/Locker_Rewards.sol\":19976:20156  if (_referral != address(0)) {... */\n    tag_353:\n        /* \"contracts/test/Locker_Rewards.sol\":20195:20201  ethFee */\n      dup1\n        /* \"contracts/test/Locker_Rewards.sol\":20182:20191  msg.value */\n      callvalue\n        /* \"contracts/test/Locker_Rewards.sol\":20182:20201  msg.value == ethFee */\n      eq\n        /* \"contracts/test/Locker_Rewards.sol\":20174:20217  require(msg.value == ethFee, \"FEE NOT MET\") */\n      tag_357\n      jumpi\n      mload(0x40)\n      shl(0xe5, 0x461bcd)\n      dup2\n      mstore\n      0x04\n      add\n      tag_184\n      swap1\n      tag_254\n      jump\t// in\n    tag_357:\n        /* \"contracts/test/Locker_Rewards.sol\":20312:20322  msg.sender */\n      caller\n        /* \"contracts/test/Locker_Rewards.sol\":20236:20250  uint256 devFee */\n      0x00\n        /* \"contracts/test/Locker_Rewards.sol\":20299:20323  feeBlocklist[msg.sender] */\n      swap1\n      dup2\n      mstore\n        /* \"contracts/test/Locker_Rewards.sol\":20299:20311  feeBlocklist */\n      0x0f\n        /* \"contracts/test/Locker_Rewards.sol\":20299:20323  feeBlocklist[msg.sender] */\n      0x20\n      mstore\n      0x40\n      swap1\n      keccak256\n      sload\n        /* \"contracts/test/Locker_Rewards.sol\":20253:20259  ethFee */\n      dup2\n      swap1\n        /* \"contracts/test/Locker_Rewards.sol\":20299:20323  feeBlocklist[msg.sender] */\n      0xff\n      and\n        /* \"contracts/test/Locker_Rewards.sol\":20299:20331  feeBlocklist[msg.sender] == true */\n      iszero\n      iszero\n        /* \"contracts/test/Locker_Rewards.sol\":20299:20323  feeBlocklist[msg.sender] */\n      0x01\n        /* \"contracts/test/Locker_Rewards.sol\":20299:20331  feeBlocklist[msg.sender] == true */\n      sub\n        /* \"contracts/test/Locker_Rewards.sol\":20296:20867  if(feeBlocklist[msg.sender] == true){... */\n      tag_359\n      jumpi\n        /* \"contracts/test/Locker_Rewards.sol\":20355:20358  ops */\n      sload(0x11)\n        /* \"contracts/test/Locker_Rewards.sol\":20355:20378  ops.transfer(msg.value) */\n      mload(0x40)\n      sub(shl(0xa0, 0x01), 0x01)\n        /* \"contracts/test/Locker_Rewards.sol\":20355:20358  ops */\n      swap1\n      swap2\n      and\n      swap1\n        /* \"contracts/test/Locker_Rewards.sol\":20368:20377  msg.value */\n      callvalue\n        /* \"contracts/test/Locker_Rewards.sol\":20355:20378  ops.transfer(msg.value) */\n      dup1\n      iszero\n      0x08fc\n      mul\n      swap2\n        /* \"contracts/test/Locker_Rewards.sol\":20355:20358  ops */\n      0x00\n        /* \"contracts/test/Locker_Rewards.sol\":20355:20378  ops.transfer(msg.value) */\n      dup2\n        /* \"contracts/test/Locker_Rewards.sol\":20355:20358  ops */\n      dup2\n        /* \"contracts/test/Locker_Rewards.sol\":20355:20378  ops.transfer(msg.value) */\n      dup2\n        /* \"contracts/test/Locker_Rewards.sol\":20368:20377  msg.value */\n      dup6\n        /* \"contracts/test/Locker_Rewards.sol\":20355:20358  ops */\n      dup9\n        /* \"contracts/test/Locker_Rewards.sol\":20355:20378  ops.transfer(msg.value) */\n      dup9\n      call\n      swap4\n      pop\n      pop\n      pop\n      pop\n      iszero\n      dup1\n      iszero\n      tag_361\n      jumpi\n      returndatasize\n      0x00\n      dup1\n      returndatacopy\n      revert(0x00, returndatasize)\n    tag_361:\n      pop\n        /* \"contracts/test/Locker_Rewards.sol\":20296:20867  if(feeBlocklist[msg.sender] == true){... */\n      jump(tag_364)\n    tag_359:\n        /* \"contracts/test/Locker_Rewards.sol\":20431:20442  ethFee != 0 */\n      dup2\n      iszero\n      dup1\n      iszero\n      swap1\n        /* \"contracts/test/Locker_Rewards.sol\":20431:20469  ethFee != 0 && _referral != address(0) */\n      tag_363\n      jumpi\n      pop\n      sub(shl(0xa0, 0x01), 0x01)\n        /* \"contracts/test/Locker_Rewards.sol\":20446:20469  _referral != address(0) */\n      dup8\n      and\n      iszero\n      iszero\n        /* \"contracts/test/Locker_Rewards.sol\":20431:20469  ethFee != 0 && _referral != address(0) */\n    tag_363:\n        /* \"contracts/test/Locker_Rewards.sol\":20427:20848  if (ethFee != 0 && _referral != address(0)) {... */\n      iszero\n      tag_364\n      jumpi\n        /* \"contracts/test/Locker_Rewards.sol\":20539:20558  uint256 referralFee */\n      0x00\n        /* \"contracts/test/Locker_Rewards.sol\":20561:20660  devFee.mul(gFees.referralPercent).div(... */\n      tag_365\n        /* \"contracts/test/Locker_Rewards.sol\":20629:20633  1000 */\n      0x03e8\n        /* \"contracts/test/Locker_Rewards.sol\":20561:20594  devFee.mul(gFees.referralPercent) */\n      tag_291\n        /* \"contracts/test/Locker_Rewards.sol\":20572:20577  gFees */\n      0x05\n        /* \"contracts/test/Locker_Rewards.sol\":20572:20593  gFees.referralPercent */\n      dup1\n      add\n      sload\n        /* \"contracts/test/Locker_Rewards.sol\":20561:20567  devFee */\n      dup6\n        /* \"contracts/test/Locker_Rewards.sol\":20561:20571  devFee.mul */\n      tag_289\n      swap1\n        /* \"contracts/test/Locker_Rewards.sol\":20561:20594  devFee.mul(gFees.referralPercent) */\n      swap2\n      swap1\n      0xffffffff\n      and\n      jump\t// in\n        /* \"contracts/test/Locker_Rewards.sol\":20561:20660  devFee.mul(gFees.referralPercent).div(... */\n    tag_365:\n        /* \"contracts/test/Locker_Rewards.sol\":20687:20718  _referral.transfer(referralFee) */\n      mload(0x40)\n        /* \"contracts/test/Locker_Rewards.sol\":20539:20660  uint256 referralFee = devFee.mul(gFees.referralPercent).div(... */\n      swap1\n      swap2\n      pop\n      sub(shl(0xa0, 0x01), 0x01)\n        /* \"contracts/test/Locker_Rewards.sol\":20687:20705  _referral.transfer */\n      dup10\n      and\n      swap1\n        /* \"contracts/test/Locker_Rewards.sol\":20687:20718  _referral.transfer(referralFee) */\n      dup3\n      iszero\n      0x08fc\n      mul\n      swap1\n        /* \"contracts/test/Locker_Rewards.sol\":20539:20660  uint256 referralFee = devFee.mul(gFees.referralPercent).div(... */\n      dup4\n      swap1\n        /* \"contracts/test/Locker_Rewards.sol\":20687:20718  _referral.transfer(referralFee) */\n      0x00\n      dup2\n      dup2\n      dup2\n        /* \"contracts/test/Locker_Rewards.sol\":20539:20660  uint256 referralFee = devFee.mul(gFees.referralPercent).div(... */\n      dup6\n        /* \"contracts/test/Locker_Rewards.sol\":20687:20705  _referral.transfer */\n      dup9\n        /* \"contracts/test/Locker_Rewards.sol\":20687:20718  _referral.transfer(referralFee) */\n      dup9\n      call\n      swap4\n      pop\n      pop\n      pop\n      pop\n      iszero\n      dup1\n      iszero\n      tag_368\n      jumpi\n      returndatasize\n      0x00\n      dup1\n      returndatacopy\n      revert(0x00, returndatasize)\n    tag_368:\n      pop\n        /* \"contracts/test/Locker_Rewards.sol\":20754:20777  devFee.sub(referralFee) */\n      tag_369\n        /* \"contracts/test/Locker_Rewards.sol\":20754:20760  devFee */\n      dup3\n        /* \"contracts/test/Locker_Rewards.sol\":20765:20776  referralFee */\n      dup3\n        /* \"contracts/test/Locker_Rewards.sol\":20754:20764  devFee.sub */\n      tag_210\n        /* \"contracts/test/Locker_Rewards.sol\":20754:20777  devFee.sub(referralFee) */\n      jump\t// in\n    tag_369:\n        /* \"contracts/test/Locker_Rewards.sol\":20804:20807  ops */\n      sload(0x11)\n        /* \"contracts/test/Locker_Rewards.sol\":20804:20824  ops.transfer(devFee) */\n      mload(0x40)\n        /* \"contracts/test/Locker_Rewards.sol\":20745:20777  devFee = devFee.sub(referralFee) */\n      swap2\n      swap4\n      pop\n      sub(shl(0xa0, 0x01), 0x01)\n        /* \"contracts/test/Locker_Rewards.sol\":20804:20807  ops */\n      and\n      swap1\n        /* \"contracts/test/Locker_Rewards.sol\":20804:20824  ops.transfer(devFee) */\n      dup4\n      iszero\n      0x08fc\n      mul\n      swap1\n        /* \"contracts/test/Locker_Rewards.sol\":20745:20777  devFee = devFee.sub(referralFee) */\n      dup5\n      swap1\n        /* \"contracts/test/Locker_Rewards.sol\":20804:20807  ops */\n      0x00\n        /* \"contracts/test/Locker_Rewards.sol\":20804:20824  ops.transfer(devFee) */\n      dup2\n        /* \"contracts/test/Locker_Rewards.sol\":20804:20807  ops */\n      dup2\n        /* \"contracts/test/Locker_Rewards.sol\":20804:20824  ops.transfer(devFee) */\n      dup2\n        /* \"contracts/test/Locker_Rewards.sol\":20745:20777  devFee = devFee.sub(referralFee) */\n      dup6\n        /* \"contracts/test/Locker_Rewards.sol\":20804:20807  ops */\n      dup9\n        /* \"contracts/test/Locker_Rewards.sol\":20804:20824  ops.transfer(devFee) */\n      dup9\n      call\n      swap4\n      pop\n      pop\n      pop\n      pop\n      iszero\n      dup1\n      iszero\n      tag_371\n      jumpi\n      returndatasize\n      0x00\n      dup1\n      returndatacopy\n      revert(0x00, returndatasize)\n    tag_371:\n      pop\n        /* \"contracts/test/Locker_Rewards.sol\":20471:20848  {... */\n      pop\n        /* \"contracts/test/Locker_Rewards.sol\":20427:20848  if (ethFee != 0 && _referral != address(0)) {... */\n    tag_364:\n        /* \"contracts/test/Locker_Rewards.sol\":19871:20882  {... */\n      pop\n      pop\n        /* \"contracts/test/Locker_Rewards.sol\":19808:23223  if (!feeWhitelist[msg.sender]) {... */\n      jump(tag_399)\n        /* \"contracts/test/Locker_Rewards.sol\":19854:22834  if (_fee_in_eth) {... */\n    tag_352:\n        /* \"contracts/test/Locker_Rewards.sol\":20965:20988  gFees.secondaryTokenFee */\n      sload(0x07)\n      sub(shl(0xa0, 0x01), 0x01)\n        /* \"contracts/test/Locker_Rewards.sol\":21011:21034  _referral != address(0) */\n      dup7\n      and\n      iszero\n        /* \"contracts/test/Locker_Rewards.sol\":21007:21189  if (_referral != address(0)) {... */\n      tag_373\n      jumpi\n        /* \"contracts/test/Locker_Rewards.sol\":21069:21169  burnFee.mul(1000 - gFees.referralDiscount).div(... */\n      tag_374\n        /* \"contracts/test/Locker_Rewards.sol\":21142:21146  1000 */\n      0x03e8\n        /* \"contracts/test/Locker_Rewards.sol\":21069:21111  burnFee.mul(1000 - gFees.referralDiscount) */\n      tag_291\n        /* \"contracts/test/Locker_Rewards.sol\":21088:21093  gFees */\n      0x05\n        /* \"contracts/test/Locker_Rewards.sol\":21088:21110  gFees.referralDiscount */\n      0x08\n      add\n      sload\n        /* \"contracts/test/Locker_Rewards.sol\":21081:21085  1000 */\n      0x03e8\n        /* \"contracts/test/Locker_Rewards.sol\":21081:21110  1000 - gFees.referralDiscount */\n      tag_356\n      swap2\n      swap1\n      tag_213\n      jump\t// in\n        /* \"contracts/test/Locker_Rewards.sol\":21069:21169  burnFee.mul(1000 - gFees.referralDiscount).div(... */\n    tag_374:\n        /* \"contracts/test/Locker_Rewards.sol\":21059:21169  burnFee = burnFee.mul(1000 - gFees.referralDiscount).div(... */\n      swap1\n      pop\n        /* \"contracts/test/Locker_Rewards.sol\":21007:21189  if (_referral != address(0)) {... */\n    tag_373:\n        /* \"contracts/test/Locker_Rewards.sol\":21269:21292  gFees.secondaryFeeToken */\n      sload(0x06)\n        /* \"contracts/test/Locker_Rewards.sol\":21207:21420  TransferHelper.safeTransferFrom(... */\n      tag_377\n      swap1\n      sub(shl(0xa0, 0x01), 0x01)\n        /* \"contracts/test/Locker_Rewards.sol\":21269:21292  gFees.secondaryFeeToken */\n      and\n        /* \"contracts/test/Locker_Rewards.sol\":21324:21334  msg.sender */\n      caller\n        /* \"contracts/test/Locker_Rewards.sol\":21366:21370  this */\n      address\n        /* \"contracts/test/Locker_Rewards.sol\":21394:21401  burnFee */\n      dup5\n        /* \"contracts/test/Locker_Rewards.sol\":21207:21238  TransferHelper.safeTransferFrom */\n      tag_339\n        /* \"contracts/test/Locker_Rewards.sol\":21207:21420  TransferHelper.safeTransferFrom(... */\n      jump\t// in\n    tag_377:\n        /* \"contracts/test/Locker_Rewards.sol\":21455:21465  msg.sender */\n      caller\n        /* \"contracts/test/Locker_Rewards.sol\":21442:21466  feeBlocklist[msg.sender] */\n      0x00\n      swap1\n      dup2\n      mstore\n        /* \"contracts/test/Locker_Rewards.sol\":21442:21454  feeBlocklist */\n      0x0f\n        /* \"contracts/test/Locker_Rewards.sol\":21442:21466  feeBlocklist[msg.sender] */\n      0x20\n      mstore\n      0x40\n      swap1\n      keccak256\n      sload\n      0xff\n      and\n        /* \"contracts/test/Locker_Rewards.sol\":21442:21474  feeBlocklist[msg.sender] == true */\n      iszero\n      iszero\n        /* \"contracts/test/Locker_Rewards.sol\":21442:21466  feeBlocklist[msg.sender] */\n      0x01\n        /* \"contracts/test/Locker_Rewards.sol\":21442:21474  feeBlocklist[msg.sender] == true */\n      sub\n        /* \"contracts/test/Locker_Rewards.sol\":21439:22763  if(feeBlocklist[msg.sender] == true){... */\n      tag_378\n      jumpi\n        /* \"contracts/test/Locker_Rewards.sol\":21567:21590  gFees.secondaryFeeToken */\n      sload(0x06)\n        /* \"contracts/test/Locker_Rewards.sol\":21622:21625  ops */\n      sload(0x11)\n        /* \"contracts/test/Locker_Rewards.sol\":21502:21690  TransferHelper.safeApprove(... */\n      tag_379\n      swap2\n      sub(shl(0xa0, 0x01), 0x01)\n        /* \"contracts/test/Locker_Rewards.sol\":21567:21590  gFees.secondaryFeeToken */\n      swap1\n      dup2\n      and\n      swap2\n        /* \"contracts/test/Locker_Rewards.sol\":21622:21625  ops */\n      and\n        /* \"contracts/test/Locker_Rewards.sol\":21656:21663  burnFee */\n      dup4\n        /* \"contracts/test/Locker_Rewards.sol\":21502:21528  TransferHelper.safeApprove */\n      tag_228\n        /* \"contracts/test/Locker_Rewards.sol\":21502:21690  TransferHelper.safeApprove(... */\n      jump\t// in\n    tag_379:\n        /* \"contracts/test/Locker_Rewards.sol\":21783:21806  gFees.secondaryFeeToken */\n      sload(0x06)\n        /* \"contracts/test/Locker_Rewards.sol\":21838:21841  ops */\n      sload(0x11)\n        /* \"contracts/test/Locker_Rewards.sol\":21717:21906  TransferHelper.safeTransfer(... */\n      tag_380\n      swap2\n      sub(shl(0xa0, 0x01), 0x01)\n        /* \"contracts/test/Locker_Rewards.sol\":21783:21806  gFees.secondaryFeeToken */\n      swap1\n      dup2\n      and\n      swap2\n        /* \"contracts/test/Locker_Rewards.sol\":21838:21841  ops */\n      and\n        /* \"contracts/test/Locker_Rewards.sol\":21872:21879  burnFee */\n      dup4\n        /* \"contracts/test/Locker_Rewards.sol\":21717:21744  TransferHelper.safeTransfer */\n      tag_230\n        /* \"contracts/test/Locker_Rewards.sol\":21717:21906  TransferHelper.safeTransfer(... */\n      jump\t// in\n    tag_380:\n        /* \"contracts/test/Locker_Rewards.sol\":21439:22763  if(feeBlocklist[msg.sender] == true){... */\n      jump(tag_383)\n    tag_378:\n        /* \"contracts/test/Locker_Rewards.sol\":21959:21980  gFees.referralPercent */\n      sload(0x0a)\n        /* \"contracts/test/Locker_Rewards.sol\":21959:21985  gFees.referralPercent != 0 */\n      iszero\n      dup1\n      iszero\n      swap1\n        /* \"contracts/test/Locker_Rewards.sol\":21959:22012  gFees.referralPercent != 0 && _referral != address(0) */\n      tag_382\n      jumpi\n      pop\n      sub(shl(0xa0, 0x01), 0x01)\n        /* \"contracts/test/Locker_Rewards.sol\":21989:22012  _referral != address(0) */\n      dup7\n      and\n      iszero\n      iszero\n        /* \"contracts/test/Locker_Rewards.sol\":21959:22012  gFees.referralPercent != 0 && _referral != address(0) */\n    tag_382:\n        /* \"contracts/test/Locker_Rewards.sol\":21955:22744  if (gFees.referralPercent != 0 && _referral != address(0)) {... */\n      iszero\n      tag_383\n      jumpi\n        /* \"contracts/test/Locker_Rewards.sol\":22082:22101  uint256 referralFee */\n      0x00\n        /* \"contracts/test/Locker_Rewards.sol\":22104:22208  burnFee... */\n      tag_384\n        /* \"contracts/test/Locker_Rewards.sol\":22203:22207  1000 */\n      0x03e8\n        /* \"contracts/test/Locker_Rewards.sol\":22104:22168  burnFee... */\n      tag_291\n        /* \"contracts/test/Locker_Rewards.sol\":22146:22151  gFees */\n      0x05\n        /* \"contracts/test/Locker_Rewards.sol\":22146:22167  gFees.referralPercent */\n      dup1\n      add\n      sload\n        /* \"contracts/test/Locker_Rewards.sol\":22104:22111  burnFee */\n      dup6\n        /* \"contracts/test/Locker_Rewards.sol\":22104:22145  burnFee... */\n      tag_289\n      swap1\n        /* \"contracts/test/Locker_Rewards.sol\":22104:22168  burnFee... */\n      swap2\n      swap1\n      0xffffffff\n      and\n      jump\t// in\n        /* \"contracts/test/Locker_Rewards.sol\":22104:22208  burnFee... */\n    tag_384:\n        /* \"contracts/test/Locker_Rewards.sol\":22300:22323  gFees.secondaryFeeToken */\n      sload(0x06)\n        /* \"contracts/test/Locker_Rewards.sol\":22082:22208  uint256 referralFee = burnFee... */\n      swap1\n      swap2\n      pop\n        /* \"contracts/test/Locker_Rewards.sol\":22235:22433  TransferHelper.safeApprove(... */\n      tag_386\n      swap1\n      sub(shl(0xa0, 0x01), 0x01)\n        /* \"contracts/test/Locker_Rewards.sol\":22300:22323  gFees.secondaryFeeToken */\n      and\n        /* \"contracts/test/Locker_Rewards.sol\":22355:22364  _referral */\n      dup9\n        /* \"contracts/test/Locker_Rewards.sol\":22082:22208  uint256 referralFee = burnFee... */\n      dup4\n        /* \"contracts/test/Locker_Rewards.sol\":22235:22261  TransferHelper.safeApprove */\n      tag_228\n        /* \"contracts/test/Locker_Rewards.sol\":22235:22433  TransferHelper.safeApprove(... */\n      jump\t// in\n    tag_386:\n        /* \"contracts/test/Locker_Rewards.sol\":22526:22549  gFees.secondaryFeeToken */\n      sload(0x06)\n        /* \"contracts/test/Locker_Rewards.sol\":22460:22659  TransferHelper.safeTransfer(... */\n      tag_387\n      swap1\n      sub(shl(0xa0, 0x01), 0x01)\n        /* \"contracts/test/Locker_Rewards.sol\":22526:22549  gFees.secondaryFeeToken */\n      and\n        /* \"contracts/test/Locker_Rewards.sol\":22581:22590  _referral */\n      dup9\n        /* \"contracts/test/Locker_Rewards.sol\":22621:22632  referralFee */\n      dup4\n        /* \"contracts/test/Locker_Rewards.sol\":22460:22487  TransferHelper.safeTransfer */\n      tag_230\n        /* \"contracts/test/Locker_Rewards.sol\":22460:22659  TransferHelper.safeTransfer(... */\n      jump\t// in\n    tag_387:\n        /* \"contracts/test/Locker_Rewards.sol\":22696:22720  burnFee.sub(referralFee) */\n      tag_388\n        /* \"contracts/test/Locker_Rewards.sol\":22696:22703  burnFee */\n      dup3\n        /* \"contracts/test/Locker_Rewards.sol\":22708:22719  referralFee */\n      dup3\n        /* \"contracts/test/Locker_Rewards.sol\":22696:22707  burnFee.sub */\n      tag_210\n        /* \"contracts/test/Locker_Rewards.sol\":22696:22720  burnFee.sub(referralFee) */\n      jump\t// in\n    tag_388:\n        /* \"contracts/test/Locker_Rewards.sol\":22686:22720  burnFee = burnFee.sub(referralFee) */\n      swap2\n      pop\n        /* \"contracts/test/Locker_Rewards.sol\":22014:22744  {... */\n      pop\n        /* \"contracts/test/Locker_Rewards.sol\":21955:22744  if (gFees.referralPercent != 0 && _referral != address(0)) {... */\n    tag_383:\n        /* \"contracts/test/Locker_Rewards.sol\":22781:22804  gFees.secondaryFeeToken */\n      sload(0x06)\n        /* \"contracts/test/Locker_Rewards.sol\":22781:22818  gFees.secondaryFeeToken.burn(burnFee) */\n      mload(0x40)\n      shl(0xe3, 0x0852cd8d)\n      dup2\n      mstore\n      0x04\n      dup2\n      add\n        /* \"#utility.yul\":1092:1117   */\n      dup4\n      swap1\n      mstore\n      sub(shl(0xa0, 0x01), 0x01)\n        /* \"contracts/test/Locker_Rewards.sol\":22781:22804  gFees.secondaryFeeToken */\n      swap1\n      swap2\n      and\n      swap1\n        /* \"contracts/test/Locker_Rewards.sol\":22781:22809  gFees.secondaryFeeToken.burn */\n      0x42966c68\n      swap1\n        /* \"#utility.yul\":1065:1083   */\n      0x24\n      add\n        /* \"contracts/test/Locker_Rewards.sol\":22781:22818  gFees.secondaryFeeToken.burn(burnFee) */\n      0x00\n      mload(0x40)\n      dup1\n      dup4\n      sub\n      dup2\n      0x00\n      dup8\n      dup1\n      extcodesize\n      iszero\n      dup1\n      iszero\n      tag_390\n      jumpi\n      0x00\n      dup1\n      revert\n    tag_390:\n      pop\n      gas\n      call\n      iszero\n      dup1\n      iszero\n      tag_392\n      jumpi\n      returndatasize\n      0x00\n      dup1\n      returndatacopy\n      revert(0x00, returndatasize)\n    tag_392:\n      pop\n      pop\n      pop\n      pop\n        /* \"contracts/test/Locker_Rewards.sol\":20888:22834  {... */\n      pop\n        /* \"contracts/test/Locker_Rewards.sol\":19808:23223  if (!feeWhitelist[msg.sender]) {... */\n      jump(tag_399)\n    tag_351:\n        /* \"contracts/test/Locker_Rewards.sol\":22882:22892  msg.sender */\n      caller\n        /* \"contracts/test/Locker_Rewards.sol\":22869:22893  feeWhitelist[msg.sender] */\n      0x00\n      swap1\n      dup2\n      mstore\n        /* \"contracts/test/Locker_Rewards.sol\":22869:22881  feeWhitelist */\n      0x0e\n        /* \"contracts/test/Locker_Rewards.sol\":22869:22893  feeWhitelist[msg.sender] */\n      0x20\n      mstore\n      0x40\n      swap1\n      keccak256\n      sload\n      0xff\n      and\n        /* \"contracts/test/Locker_Rewards.sol\":22869:22901  feeWhitelist[msg.sender] == true */\n      iszero\n      iszero\n        /* \"contracts/test/Locker_Rewards.sol\":22869:22893  feeWhitelist[msg.sender] */\n      0x01\n        /* \"contracts/test/Locker_Rewards.sol\":22869:22901  feeWhitelist[msg.sender] == true */\n      eq\n        /* \"contracts/test/Locker_Rewards.sol\":22869:22936  feeWhitelist[msg.sender] == true && uint256(msg.value) > uint256(0) */\n      dup1\n      iszero\n      tag_394\n      jumpi\n      pop\n        /* \"contracts/test/Locker_Rewards.sol\":22934:22935  0 */\n      0x00\n        /* \"contracts/test/Locker_Rewards.sol\":22913:22922  msg.value */\n      callvalue\n        /* \"contracts/test/Locker_Rewards.sol\":22905:22936  uint256(msg.value) > uint256(0) */\n      gt\n        /* \"contracts/test/Locker_Rewards.sol\":22869:22936  feeWhitelist[msg.sender] == true && uint256(msg.value) > uint256(0) */\n    tag_394:\n        /* \"contracts/test/Locker_Rewards.sol\":22851:23223  if (... */\n      iszero\n      tag_399\n      jumpi\n        /* \"contracts/test/Locker_Rewards.sol\":22979:22989  msg.sender */\n      caller\n        /* \"contracts/test/Locker_Rewards.sol\":22966:22990  feeBlocklist[msg.sender] */\n      0x00\n      swap1\n      dup2\n      mstore\n        /* \"contracts/test/Locker_Rewards.sol\":22966:22978  feeBlocklist */\n      0x0f\n        /* \"contracts/test/Locker_Rewards.sol\":22966:22990  feeBlocklist[msg.sender] */\n      0x20\n      mstore\n      0x40\n      dup2\n      keccak256\n      sload\n      0xff\n      and\n        /* \"contracts/test/Locker_Rewards.sol\":22966:22999  feeBlocklist[msg.sender] == false */\n      iszero\n      iszero\n      swap1\n      sub\n        /* \"contracts/test/Locker_Rewards.sol\":22963:23212  if(feeBlocklist[msg.sender] == false){... */\n      tag_396\n      jumpi\n        /* \"contracts/test/Locker_Rewards.sol\":23093:23132  payable(msg.sender).transfer(msg.value) */\n      mload(0x40)\n        /* \"contracts/test/Locker_Rewards.sol\":23101:23111  msg.sender */\n      caller\n      swap1\n        /* \"contracts/test/Locker_Rewards.sol\":23122:23131  msg.value */\n      callvalue\n        /* \"contracts/test/Locker_Rewards.sol\":23093:23132  payable(msg.sender).transfer(msg.value) */\n      dup1\n      iszero\n      0x08fc\n      mul\n      swap2\n      0x00\n      dup2\n      dup2\n      dup2\n        /* \"contracts/test/Locker_Rewards.sol\":23122:23131  msg.value */\n      dup6\n        /* \"contracts/test/Locker_Rewards.sol\":23101:23111  msg.sender */\n      dup9\n        /* \"contracts/test/Locker_Rewards.sol\":23093:23132  payable(msg.sender).transfer(msg.value) */\n      dup9\n      call\n      swap4\n      pop\n      pop\n      pop\n      pop\n      iszero\n      dup1\n      iszero\n      tag_398\n      jumpi\n      returndatasize\n      0x00\n      dup1\n      returndatacopy\n      revert(0x00, returndatasize)\n    tag_398:\n      pop\n        /* \"contracts/test/Locker_Rewards.sol\":22963:23212  if(feeBlocklist[msg.sender] == false){... */\n      jump(tag_399)\n    tag_396:\n        /* \"contracts/test/Locker_Rewards.sol\":23173:23176  ops */\n      sload(0x11)\n        /* \"contracts/test/Locker_Rewards.sol\":23173:23196  ops.transfer(msg.value) */\n      mload(0x40)\n      sub(shl(0xa0, 0x01), 0x01)\n        /* \"contracts/test/Locker_Rewards.sol\":23173:23176  ops */\n      swap1\n      swap2\n      and\n      swap1\n        /* \"contracts/test/Locker_Rewards.sol\":23186:23195  msg.value */\n      callvalue\n        /* \"contracts/test/Locker_Rewards.sol\":23173:23196  ops.transfer(msg.value) */\n      dup1\n      iszero\n      0x08fc\n      mul\n      swap2\n        /* \"contracts/test/Locker_Rewards.sol\":23173:23176  ops */\n      0x00\n        /* \"contracts/test/Locker_Rewards.sol\":23173:23196  ops.transfer(msg.value) */\n      dup2\n        /* \"contracts/test/Locker_Rewards.sol\":23173:23176  ops */\n      dup2\n        /* \"contracts/test/Locker_Rewards.sol\":23173:23196  ops.transfer(msg.value) */\n      dup2\n        /* \"contracts/test/Locker_Rewards.sol\":23186:23195  msg.value */\n      dup6\n        /* \"contracts/test/Locker_Rewards.sol\":23173:23176  ops */\n      dup9\n        /* \"contracts/test/Locker_Rewards.sol\":23173:23196  ops.transfer(msg.value) */\n      dup9\n      call\n      swap4\n      pop\n      pop\n      pop\n      pop\n      iszero\n      dup1\n      iszero\n      tag_401\n      jumpi\n      returndatasize\n      0x00\n      dup1\n      returndatacopy\n      revert(0x00, returndatasize)\n    tag_401:\n      pop\n        /* \"contracts/test/Locker_Rewards.sol\":22963:23212  if(feeBlocklist[msg.sender] == false){... */\n    tag_399:\n        /* \"contracts/test/Locker_Rewards.sol\":23251:23261  msg.sender */\n      caller\n        /* \"contracts/test/Locker_Rewards.sol\":23238:23262  feeBlocklist[msg.sender] */\n      0x00\n      swap1\n      dup2\n      mstore\n        /* \"contracts/test/Locker_Rewards.sol\":23238:23250  feeBlocklist */\n      0x0f\n        /* \"contracts/test/Locker_Rewards.sol\":23238:23262  feeBlocklist[msg.sender] */\n      0x20\n      mstore\n      0x40\n      swap1\n      keccak256\n      sload\n      0xff\n      and\n        /* \"contracts/test/Locker_Rewards.sol\":23238:23270  feeBlocklist[msg.sender] == true */\n      iszero\n      iszero\n        /* \"contracts/test/Locker_Rewards.sol\":23238:23262  feeBlocklist[msg.sender] */\n      0x01\n        /* \"contracts/test/Locker_Rewards.sol\":23238:23270  feeBlocklist[msg.sender] == true */\n      sub\n        /* \"contracts/test/Locker_Rewards.sol\":23235:25055  if(feeBlocklist[msg.sender] == true){... */\n      tag_402\n      jumpi\n        /* \"contracts/test/Locker_Rewards.sol\":23367:23370  ops */\n      sload(0x11)\n        /* \"contracts/test/Locker_Rewards.sol\":23286:23411  TransferHelper.safeApprove(... */\n      tag_403\n      swap1\n        /* \"contracts/test/Locker_Rewards.sol\":23339:23347  _lpToken */\n      dup10\n      swap1\n      sub(shl(0xa0, 0x01), 0x01)\n        /* \"contracts/test/Locker_Rewards.sol\":23367:23370  ops */\n      and\n        /* \"contracts/test/Locker_Rewards.sol\":23389:23396  _amount */\n      dup10\n        /* \"contracts/test/Locker_Rewards.sol\":23286:23312  TransferHelper.safeApprove */\n      tag_228\n        /* \"contracts/test/Locker_Rewards.sol\":23286:23411  TransferHelper.safeApprove(... */\n      jump\t// in\n    tag_403:\n        /* \"contracts/test/Locker_Rewards.sol\":23508:23511  ops */\n      sload(0x11)\n        /* \"contracts/test/Locker_Rewards.sol\":23426:23552  TransferHelper.safeTransfer(... */\n      tag_404\n      swap1\n        /* \"contracts/test/Locker_Rewards.sol\":23480:23488  _lpToken */\n      dup10\n      swap1\n      sub(shl(0xa0, 0x01), 0x01)\n        /* \"contracts/test/Locker_Rewards.sol\":23508:23511  ops */\n      and\n        /* \"contracts/test/Locker_Rewards.sol\":23530:23537  _amount */\n      dup10\n        /* \"contracts/test/Locker_Rewards.sol\":23426:23453  TransferHelper.safeTransfer */\n      tag_230\n        /* \"contracts/test/Locker_Rewards.sol\":23426:23552  TransferHelper.safeTransfer(... */\n      jump\t// in\n    tag_404:\n        /* \"contracts/test/Locker_Rewards.sol\":23235:25055  if(feeBlocklist[msg.sender] == true){... */\n      jump(tag_405)\n    tag_402:\n        /* \"contracts/test/Locker_Rewards.sol\":23613:23633  uint256 liquidityFee */\n      0x00\n        /* \"contracts/test/Locker_Rewards.sol\":23636:23677  _amount.mul(gFees.liquidityFee).div(1000) */\n      tag_406\n        /* \"contracts/test/Locker_Rewards.sol\":23672:23676  1000 */\n      0x03e8\n        /* \"contracts/test/Locker_Rewards.sol\":23636:23667  _amount.mul(gFees.liquidityFee) */\n      tag_291\n        /* \"contracts/test/Locker_Rewards.sol\":23648:23653  gFees */\n      0x05\n        /* \"contracts/test/Locker_Rewards.sol\":23648:23666  gFees.liquidityFee */\n      0x04\n      add\n      sload\n        /* \"contracts/test/Locker_Rewards.sol\":23636:23643  _amount */\n      dup12\n        /* \"contracts/test/Locker_Rewards.sol\":23636:23647  _amount.mul */\n      tag_289\n      swap1\n        /* \"contracts/test/Locker_Rewards.sol\":23636:23667  _amount.mul(gFees.liquidityFee) */\n      swap2\n      swap1\n      0xffffffff\n      and\n      jump\t// in\n        /* \"contracts/test/Locker_Rewards.sol\":23636:23677  _amount.mul(gFees.liquidityFee).div(1000) */\n    tag_406:\n        /* \"contracts/test/Locker_Rewards.sol\":23613:23677  uint256 liquidityFee = _amount.mul(gFees.liquidityFee).div(1000) */\n      swap1\n      pop\n        /* \"contracts/test/Locker_Rewards.sol\":23697:23708  _fee_in_eth */\n      dup5\n        /* \"contracts/test/Locker_Rewards.sol\":23696:23708  !_fee_in_eth */\n      iszero\n        /* \"contracts/test/Locker_Rewards.sol\":23696:23737  !_fee_in_eth && !feeWhitelist[msg.sender] */\n      dup1\n      iszero\n      tag_408\n      jumpi\n      pop\n        /* \"contracts/test/Locker_Rewards.sol\":23726:23736  msg.sender */\n      caller\n        /* \"contracts/test/Locker_Rewards.sol\":23713:23737  feeWhitelist[msg.sender] */\n      0x00\n      swap1\n      dup2\n      mstore\n        /* \"contracts/test/Locker_Rewards.sol\":23713:23725  feeWhitelist */\n      0x0e\n        /* \"contracts/test/Locker_Rewards.sol\":23713:23737  feeWhitelist[msg.sender] */\n      0x20\n      mstore\n      0x40\n      swap1\n      keccak256\n      sload\n      0xff\n      and\n        /* \"contracts/test/Locker_Rewards.sol\":23712:23737  !feeWhitelist[msg.sender] */\n      iszero\n        /* \"contracts/test/Locker_Rewards.sol\":23696:23737  !_fee_in_eth && !feeWhitelist[msg.sender] */\n    tag_408:\n        /* \"contracts/test/Locker_Rewards.sol\":23692:23969  if (!_fee_in_eth && !feeWhitelist[msg.sender]) {... */\n      iszero\n      tag_409\n      jumpi\n        /* \"contracts/test/Locker_Rewards.sol\":23846:23953  liquidityFee... */\n      tag_410\n        /* \"contracts/test/Locker_Rewards.sol\":23948:23952  1000 */\n      0x03e8\n        /* \"contracts/test/Locker_Rewards.sol\":23846:23921  liquidityFee... */\n      tag_291\n        /* \"contracts/test/Locker_Rewards.sol\":23892:23897  gFees */\n      0x05\n        /* \"contracts/test/Locker_Rewards.sol\":23892:23920  gFees.secondaryTokenDiscount */\n      0x03\n      add\n      sload\n        /* \"contracts/test/Locker_Rewards.sol\":23885:23889  1000 */\n      0x03e8\n        /* \"contracts/test/Locker_Rewards.sol\":23885:23920  1000 - gFees.secondaryTokenDiscount */\n      tag_356\n      swap2\n      swap1\n      tag_213\n      jump\t// in\n        /* \"contracts/test/Locker_Rewards.sol\":23846:23953  liquidityFee... */\n    tag_410:\n        /* \"contracts/test/Locker_Rewards.sol\":23831:23953  liquidityFee = liquidityFee... */\n      swap1\n      pop\n        /* \"contracts/test/Locker_Rewards.sol\":23692:23969  if (!_fee_in_eth && !feeWhitelist[msg.sender]) {... */\n    tag_409:\n        /* \"contracts/test/Locker_Rewards.sol\":24021:24024  ops */\n      sload(0x11)\n        /* \"contracts/test/Locker_Rewards.sol\":23983:24039  TransferHelper.safeTransfer(_lpToken, ops, liquidityFee) */\n      tag_413\n      swap1\n        /* \"contracts/test/Locker_Rewards.sol\":24011:24019  _lpToken */\n      dup11\n      swap1\n      sub(shl(0xa0, 0x01), 0x01)\n        /* \"contracts/test/Locker_Rewards.sol\":24021:24024  ops */\n      and\n        /* \"contracts/test/Locker_Rewards.sol\":24026:24038  liquidityFee */\n      dup4\n        /* \"contracts/test/Locker_Rewards.sol\":23983:24010  TransferHelper.safeTransfer */\n      tag_230\n        /* \"contracts/test/Locker_Rewards.sol\":23983:24039  TransferHelper.safeTransfer(_lpToken, ops, liquidityFee) */\n      jump\t// in\n    tag_413:\n        /* \"contracts/test/Locker_Rewards.sol\":24054:24074  uint256 amountLocked */\n      0x00\n        /* \"contracts/test/Locker_Rewards.sol\":24077:24102  _amount.sub(liquidityFee) */\n      tag_414\n        /* \"contracts/test/Locker_Rewards.sol\":24077:24084  _amount */\n      dup10\n        /* \"contracts/test/Locker_Rewards.sol\":24089:24101  liquidityFee */\n      dup4\n        /* \"contracts/test/Locker_Rewards.sol\":24077:24088  _amount.sub */\n      tag_210\n        /* \"contracts/test/Locker_Rewards.sol\":24077:24102  _amount.sub(liquidityFee) */\n      jump\t// in\n    tag_414:\n        /* \"contracts/test/Locker_Rewards.sol\":24054:24102  uint256 amountLocked = _amount.sub(liquidityFee) */\n      swap1\n      pop\n        /* \"contracts/test/Locker_Rewards.sol\":24117:24144  TokenLock memory token_lock */\n      tag_415\n      tag_259\n      jump\t// in\n    tag_415:\n        /* \"contracts/test/Locker_Rewards.sol\":24181:24196  block.timestamp */\n      timestamp\n        /* \"contracts/test/Locker_Rewards.sol\":24159:24169  token_lock */\n      dup2\n        /* \"contracts/test/Locker_Rewards.sol\":24159:24178  token_lock.lockDate */\n      0x00\n      add\n        /* \"contracts/test/Locker_Rewards.sol\":24159:24196  token_lock.lockDate = block.timestamp */\n      dup2\n      dup2\n      mstore\n      pop\n      pop\n        /* \"contracts/test/Locker_Rewards.sol\":24231:24243  amountLocked */\n      dup2\n        /* \"contracts/test/Locker_Rewards.sol\":24211:24221  token_lock */\n      dup2\n        /* \"contracts/test/Locker_Rewards.sol\":24211:24228  token_lock.amount */\n      0x20\n      add\n        /* \"contracts/test/Locker_Rewards.sol\":24211:24243  token_lock.amount = amountLocked */\n      dup2\n      dup2\n      mstore\n      pop\n      pop\n        /* \"contracts/test/Locker_Rewards.sol\":24285:24297  amountLocked */\n      dup2\n        /* \"contracts/test/Locker_Rewards.sol\":24258:24268  token_lock */\n      dup2\n        /* \"contracts/test/Locker_Rewards.sol\":24258:24282  token_lock.initialAmount */\n      0x40\n      add\n        /* \"contracts/test/Locker_Rewards.sol\":24258:24297  token_lock.initialAmount = amountLocked */\n      dup2\n      dup2\n      mstore\n      pop\n      pop\n        /* \"contracts/test/Locker_Rewards.sol\":24336:24348  _unlock_date */\n      dup9\n        /* \"contracts/test/Locker_Rewards.sol\":24312:24322  token_lock */\n      dup2\n        /* \"contracts/test/Locker_Rewards.sol\":24312:24333  token_lock.unlockDate */\n      0x60\n      add\n        /* \"contracts/test/Locker_Rewards.sol\":24312:24348  token_lock.unlockDate = _unlock_date */\n      dup2\n      dup2\n      mstore\n      pop\n      pop\n        /* \"contracts/test/Locker_Rewards.sol\":24383:24393  tokenLocks */\n      0x04\n        /* \"contracts/test/Locker_Rewards.sol\":24383:24403  tokenLocks[_lpToken] */\n      0x00\n        /* \"contracts/test/Locker_Rewards.sol\":24394:24402  _lpToken */\n      dup13\n      sub(shl(0xa0, 0x01), 0x01)\n        /* \"contracts/test/Locker_Rewards.sol\":24383:24403  tokenLocks[_lpToken] */\n      and\n      sub(shl(0xa0, 0x01), 0x01)\n      and\n      dup2\n      mstore\n      0x20\n      add\n      swap1\n      dup2\n      mstore\n      0x20\n      add\n      0x00\n      keccak256\n        /* \"contracts/test/Locker_Rewards.sol\":24383:24410  tokenLocks[_lpToken].length */\n      dup1\n      sload\n      swap1\n      pop\n        /* \"contracts/test/Locker_Rewards.sol\":24363:24373  token_lock */\n      dup2\n        /* \"contracts/test/Locker_Rewards.sol\":24363:24380  token_lock.lockID */\n      0x80\n      add\n        /* \"contracts/test/Locker_Rewards.sol\":24363:24410  token_lock.lockID = tokenLocks[_lpToken].length */\n      dup2\n      dup2\n      mstore\n      pop\n      pop\n        /* \"contracts/test/Locker_Rewards.sol\":24444:24455  _withdrawer */\n      dup6\n        /* \"contracts/test/Locker_Rewards.sol\":24425:24435  token_lock */\n      dup2\n        /* \"contracts/test/Locker_Rewards.sol\":24425:24441  token_lock.owner */\n      0xa0\n      add\n        /* \"contracts/test/Locker_Rewards.sol\":24425:24455  token_lock.owner = _withdrawer */\n      swap1\n      sub(shl(0xa0, 0x01), 0x01)\n      and\n      swap1\n      dup2\n      sub(shl(0xa0, 0x01), 0x01)\n      and\n      dup2\n      mstore\n      pop\n      pop\n        /* \"contracts/test/Locker_Rewards.sol\":24520:24530  tokenLocks */\n      0x04\n        /* \"contracts/test/Locker_Rewards.sol\":24520:24540  tokenLocks[_lpToken] */\n      0x00\n        /* \"contracts/test/Locker_Rewards.sol\":24531:24539  _lpToken */\n      dup13\n      sub(shl(0xa0, 0x01), 0x01)\n        /* \"contracts/test/Locker_Rewards.sol\":24520:24540  tokenLocks[_lpToken] */\n      and\n      sub(shl(0xa0, 0x01), 0x01)\n      and\n      dup2\n      mstore\n      0x20\n      add\n      swap1\n      dup2\n      mstore\n      0x20\n      add\n      0x00\n      keccak256\n        /* \"contracts/test/Locker_Rewards.sol\":24546:24556  token_lock */\n      dup2\n        /* \"contracts/test/Locker_Rewards.sol\":24520:24557  tokenLocks[_lpToken].push(token_lock) */\n      swap1\n      dup1\n      0x01\n      dup2\n      sload\n      add\n      dup1\n      dup3\n      sstore\n      dup1\n      swap2\n      pop\n      pop\n      0x01\n      swap1\n      sub\n      swap1\n      0x00\n      mstore\n      keccak256(0x00, 0x20)\n      swap1\n      0x06\n      mul\n      add\n      0x00\n      swap1\n      swap2\n      swap1\n      swap2\n      swap1\n      swap2\n      pop\n      0x00\n      dup3\n      add\n      mload\n      dup2\n      0x00\n      add\n      sstore\n      0x20\n      dup3\n      add\n      mload\n      dup2\n      0x01\n      add\n      sstore\n      0x40\n      dup3\n      add\n      mload\n      dup2\n      0x02\n      add\n      sstore\n      0x60\n      dup3\n      add\n      mload\n      dup2\n      0x03\n      add\n      sstore\n      0x80\n      dup3\n      add\n      mload\n      dup2\n      0x04\n      add\n      sstore\n      0xa0\n      dup3\n      add\n      mload\n      dup2\n      0x05\n      add\n      exp(0x0100, 0x00)\n      dup2\n      sload\n      dup2\n      sub(shl(0xa0, 0x01), 0x01)\n      mul\n      not\n      and\n      swap1\n      dup4\n      sub(shl(0xa0, 0x01), 0x01)\n      and\n      mul\n      or\n      swap1\n      sstore\n      pop\n      pop\n      pop\n        /* \"contracts/test/Locker_Rewards.sol\":24617:24638  UserInfo storage user */\n      0x00\n        /* \"contracts/test/Locker_Rewards.sol\":24641:24646  users */\n      0x03\n        /* \"contracts/test/Locker_Rewards.sol\":24641:24659  users[_withdrawer] */\n      0x00\n        /* \"contracts/test/Locker_Rewards.sol\":24647:24658  _withdrawer */\n      dup9\n      sub(shl(0xa0, 0x01), 0x01)\n        /* \"contracts/test/Locker_Rewards.sol\":24641:24659  users[_withdrawer] */\n      and\n      sub(shl(0xa0, 0x01), 0x01)\n      and\n      dup2\n      mstore\n      0x20\n      add\n      swap1\n      dup2\n      mstore\n      0x20\n      add\n      0x00\n      keccak256\n        /* \"contracts/test/Locker_Rewards.sol\":24617:24659  UserInfo storage user = users[_withdrawer] */\n      swap1\n      pop\n        /* \"contracts/test/Locker_Rewards.sol\":24674:24678  user */\n      dup1\n        /* \"contracts/test/Locker_Rewards.sol\":24674:24691  user.lockedTokens */\n      0x00\n      add\n        /* \"contracts/test/Locker_Rewards.sol\":24697:24705  _lpToken */\n      dup13\n        /* \"contracts/test/Locker_Rewards.sol\":24674:24706  user.lockedTokens.push(_lpToken) */\n      swap1\n      dup1\n      0x01\n      dup2\n      sload\n      add\n      dup1\n      dup3\n      sstore\n      dup1\n      swap2\n      pop\n      pop\n      0x01\n      swap1\n      sub\n      swap1\n      0x00\n      mstore\n      keccak256(0x00, 0x20)\n      add\n      0x00\n      swap1\n      swap2\n      swap1\n      swap2\n      swap1\n      swap2\n      0x0100\n      exp\n      dup2\n      sload\n      dup2\n      sub(shl(0xa0, 0x01), 0x01)\n      mul\n      not\n      and\n      swap1\n      dup4\n      sub(shl(0xa0, 0x01), 0x01)\n      and\n      mul\n      or\n      swap1\n      sstore\n      pop\n        /* \"contracts/test/Locker_Rewards.sol\":24721:24749  uint256[] storage user_locks */\n      0x00\n        /* \"contracts/test/Locker_Rewards.sol\":24752:24756  user */\n      dup2\n        /* \"contracts/test/Locker_Rewards.sol\":24752:24770  user.locksForToken */\n      0x01\n      add\n        /* \"contracts/test/Locker_Rewards.sol\":24752:24780  user.locksForToken[_lpToken] */\n      0x00\n        /* \"contracts/test/Locker_Rewards.sol\":24771:24779  _lpToken */\n      dup15\n      sub(shl(0xa0, 0x01), 0x01)\n        /* \"contracts/test/Locker_Rewards.sol\":24752:24780  user.locksForToken[_lpToken] */\n      and\n      sub(shl(0xa0, 0x01), 0x01)\n      and\n      dup2\n      mstore\n      0x20\n      add\n      swap1\n      dup2\n      mstore\n      0x20\n      add\n      0x00\n      keccak256\n        /* \"contracts/test/Locker_Rewards.sol\":24721:24780  uint256[] storage user_locks = user.locksForToken[_lpToken] */\n      swap1\n      pop\n        /* \"contracts/test/Locker_Rewards.sol\":24795:24805  user_locks */\n      dup1\n        /* \"contracts/test/Locker_Rewards.sol\":24811:24821  token_lock */\n      dup4\n        /* \"contracts/test/Locker_Rewards.sol\":24811:24828  token_lock.lockID */\n      0x80\n      add\n      mload\n        /* \"contracts/test/Locker_Rewards.sol\":24795:24829  user_locks.push(token_lock.lockID) */\n      swap1\n      dup1\n      0x01\n      dup2\n      sload\n      add\n      dup1\n      dup3\n      sstore\n      dup1\n      swap2\n      pop\n      pop\n      0x01\n      swap1\n      sub\n      swap1\n      0x00\n      mstore\n      keccak256(0x00, 0x20)\n      add\n      0x00\n      swap1\n      swap2\n      swap1\n      swap2\n      swap1\n      swap2\n      pop\n      sstore\n        /* \"contracts/test/Locker_Rewards.sol\":24849:25043  onDeposit(... */\n      0x830357565da6ecfc26d8d9f69df488ed6f70361af9a07e570544aeb5c5e765e5\n        /* \"contracts/test/Locker_Rewards.sol\":24877:24885  _lpToken */\n      dup14\n        /* \"contracts/test/Locker_Rewards.sol\":24904:24914  msg.sender */\n      caller\n        /* \"contracts/test/Locker_Rewards.sol\":24933:24943  token_lock */\n      dup6\n        /* \"contracts/test/Locker_Rewards.sol\":24933:24950  token_lock.amount */\n      0x20\n      add\n      mload\n        /* \"contracts/test/Locker_Rewards.sol\":24969:24979  token_lock */\n      dup7\n        /* \"contracts/test/Locker_Rewards.sol\":24969:24988  token_lock.lockDate */\n      0x00\n      add\n      mload\n        /* \"contracts/test/Locker_Rewards.sol\":25007:25017  token_lock */\n      dup8\n        /* \"contracts/test/Locker_Rewards.sol\":25007:25028  token_lock.unlockDate */\n      0x60\n      add\n      mload\n        /* \"contracts/test/Locker_Rewards.sol\":24849:25043  onDeposit(... */\n      mload(0x40)\n      tag_419\n      swap6\n      swap5\n      swap4\n      swap3\n      swap2\n      swap1\n      tag_420\n      jump\t// in\n    tag_419:\n      mload(0x40)\n      dup1\n      swap2\n      sub\n      swap1\n      log1\n        /* \"contracts/test/Locker_Rewards.sol\":23570:25055  {... */\n      pop\n      pop\n      pop\n      pop\n      pop\n        /* \"contracts/test/Locker_Rewards.sol\":23235:25055  if(feeBlocklist[msg.sender] == true){... */\n    tag_405:\n      pop\n      pop\n        /* \"contracts/test/Locker_Rewards.sol\":6431:6432  1 */\n      0x01\n        /* \"contracts/test/Locker_Rewards.sol\":7383:7405  _status = _NOT_ENTERED */\n      dup1\n      sstore\n      pop\n      pop\n      pop\n      pop\n      pop\n      pop\n        /* \"contracts/test/Locker_Rewards.sol\":18541:25062  function lockLPToken(... */\n      jump\t// out\n        /* \"contracts/test/Locker_Rewards.sol\":34770:35079  function getUserLockedTokenAtIndex(address _user, uint256 _index)... */\n    tag_113:\n      sub(shl(0xa0, 0x01), 0x01)\n        /* \"contracts/test/Locker_Rewards.sol\":34935:34947  users[_user] */\n      dup3\n      and\n        /* \"contracts/test/Locker_Rewards.sol\":34886:34893  address */\n      0x00\n        /* \"contracts/test/Locker_Rewards.sol\":34935:34947  users[_user] */\n      swap1\n      dup2\n      mstore\n        /* \"contracts/test/Locker_Rewards.sol\":34935:34940  users */\n      0x03\n        /* \"contracts/test/Locker_Rewards.sol\":34935:34947  users[_user] */\n      0x20\n      mstore\n      0x40\n      dup2\n      keccak256\n        /* \"contracts/test/Locker_Rewards.sol\":34980:35005  user.lockedTokens[_index] */\n      dup1\n      sload\n        /* \"contracts/test/Locker_Rewards.sol\":34967:34979  user_removed */\n      0x10\n      swap1\n        /* \"contracts/test/Locker_Rewards.sol\":34886:34893  address */\n      dup4\n      swap1\n        /* \"contracts/test/Locker_Rewards.sol\":34935:34947  users[_user] */\n      dup4\n      swap1\n        /* \"contracts/test/Locker_Rewards.sol\":34998:35004  _index */\n      dup7\n      swap1\n        /* \"contracts/test/Locker_Rewards.sol\":34980:35005  user.lockedTokens[_index] */\n      dup2\n      lt\n      tag_424\n      jumpi\n      tag_424\n      tag_177\n      jump\t// in\n    tag_424:\n      0x00\n      swap2\n      dup3\n      mstore\n      0x20\n      dup1\n      dup4\n      keccak256\n      swap1\n      swap2\n      add\n      sload\n      sub(shl(0xa0, 0x01), 0x01)\n      and\n        /* \"contracts/test/Locker_Rewards.sol\":34967:35006  user_removed[user.lockedTokens[_index]] */\n      dup4\n      mstore\n      dup3\n      add\n      swap3\n      swap1\n      swap3\n      mstore\n      0x40\n      add\n      swap1\n      keccak256\n      sload\n      0xff\n      and\n        /* \"contracts/test/Locker_Rewards.sol\":34967:35015  user_removed[user.lockedTokens[_index]] == false */\n      iszero\n        /* \"contracts/test/Locker_Rewards.sol\":34958:35028  require((user_removed[user.lockedTokens[_index]] == false), \"Removed\") */\n      tag_426\n      jumpi\n      mload(0x40)\n      shl(0xe5, 0x461bcd)\n      dup2\n      mstore\n        /* \"#utility.yul\":14881:14883   */\n      0x20\n        /* \"contracts/test/Locker_Rewards.sol\":34958:35028  require((user_removed[user.lockedTokens[_index]] == false), \"Removed\") */\n      0x04\n      dup3\n      add\n        /* \"#utility.yul\":14863:14884   */\n      mstore\n        /* \"#utility.yul\":14920:14921   */\n      0x07\n        /* \"#utility.yul\":14900:14918   */\n      0x24\n      dup3\n      add\n        /* \"#utility.yul\":14893:14922   */\n      mstore\n      shl(0xca, 0x14995b5bdd9959)\n        /* \"#utility.yul\":14938:14956   */\n      0x44\n      dup3\n      add\n        /* \"#utility.yul\":14931:14968   */\n      mstore\n        /* \"#utility.yul\":14985:15003   */\n      0x64\n      add\n        /* \"contracts/test/Locker_Rewards.sol\":34958:35028  require((user_removed[user.lockedTokens[_index]] == false), \"Removed\") */\n      tag_184\n        /* \"#utility.yul\":14679:15009   */\n      jump\n        /* \"contracts/test/Locker_Rewards.sol\":34958:35028  require((user_removed[user.lockedTokens[_index]] == false), \"Removed\") */\n    tag_426:\n        /* \"contracts/test/Locker_Rewards.sol\":35046:35050  user */\n      dup1\n        /* \"contracts/test/Locker_Rewards.sol\":35046:35063  user.lockedTokens */\n      0x00\n      add\n        /* \"contracts/test/Locker_Rewards.sol\":35064:35070  _index */\n      dup4\n        /* \"contracts/test/Locker_Rewards.sol\":35046:35071  user.lockedTokens[_index] */\n      dup2\n      sload\n      dup2\n      lt\n      tag_176\n      jumpi\n      tag_176\n      tag_177\n      jump\t// in\n        /* \"contracts/test/Locker_Rewards.sol\":17659:17807  function whitelistFeeAccount(address payable _user, bool _add)... */\n    tag_124:\n        /* \"contracts/test/Locker_Rewards.sol\":2442:2448  _owner */\n      and(sub(shl(0xa0, 0x01), 0x01), sload(0x00))\n        /* \"contracts/test/Locker_Rewards.sol\":931:941  msg.sender */\n      caller\n        /* \"contracts/test/Locker_Rewards.sol\":2442:2464  _owner == _msgSender() */\n      eq\n        /* \"contracts/test/Locker_Rewards.sol\":2434:2501  require(_owner == _msgSender(), \"Ownable: caller is not the owner\") */\n      tag_434\n      jumpi\n      mload(0x40)\n      shl(0xe5, 0x461bcd)\n      dup2\n      mstore\n      0x04\n      add\n      tag_184\n      swap1\n      tag_185\n      jump\t// in\n    tag_434:\n      sub(shl(0xa0, 0x01), 0x01)\n        /* \"contracts/test/Locker_Rewards.sol\":17773:17792  feeWhitelist[_user] */\n      swap2\n      swap1\n      swap2\n      and\n      0x00\n      swap1\n      dup2\n      mstore\n        /* \"contracts/test/Locker_Rewards.sol\":17773:17785  feeWhitelist */\n      0x0e\n        /* \"contracts/test/Locker_Rewards.sol\":17773:17792  feeWhitelist[_user] */\n      0x20\n      mstore\n      0x40\n      swap1\n      keccak256\n        /* \"contracts/test/Locker_Rewards.sol\":17773:17799  feeWhitelist[_user] = _add */\n      dup1\n      sload\n      not(0xff)\n      and\n      swap2\n      iszero\n      iszero\n      swap2\n      swap1\n      swap2\n      or\n      swap1\n      sstore\n        /* \"contracts/test/Locker_Rewards.sol\":17659:17807  function whitelistFeeAccount(address payable _user, bool _add)... */\n      jump\t// out\n        /* \"contracts/test/Locker_Rewards.sol\":28516:29733  function incrementLock(... */\n    tag_139:\n        /* \"contracts/test/Locker_Rewards.sol\":6475:6476  2 */\n      0x02\n        /* \"contracts/test/Locker_Rewards.sol\":7071:7078  _status */\n      sload(0x01)\n        /* \"contracts/test/Locker_Rewards.sol\":7071:7090  _status != _ENTERED */\n      sub\n        /* \"contracts/test/Locker_Rewards.sol\":7063:7126  require(_status != _ENTERED, \"ReentrancyGuard: reentrant call\") */\n      tag_440\n      jumpi\n      mload(0x40)\n      shl(0xe5, 0x461bcd)\n      dup2\n      mstore\n      0x04\n      add\n      tag_184\n      swap1\n      tag_191\n      jump\t// in\n    tag_440:\n        /* \"contracts/test/Locker_Rewards.sol\":6475:6476  2 */\n      0x02\n        /* \"contracts/test/Locker_Rewards.sol\":7204:7211  _status */\n      0x01\n        /* \"contracts/test/Locker_Rewards.sol\":7204:7222  _status = _ENTERED */\n      sstore\n        /* \"contracts/test/Locker_Rewards.sol\":28704:28714  msg.sender */\n      caller\n        /* \"contracts/test/Locker_Rewards.sol\":28691:28715  feeBlocklist[msg.sender] */\n      0x00\n      swap1\n      dup2\n      mstore\n        /* \"contracts/test/Locker_Rewards.sol\":28691:28703  feeBlocklist */\n      0x0f\n        /* \"contracts/test/Locker_Rewards.sol\":28691:28715  feeBlocklist[msg.sender] */\n      0x20\n      mstore\n      0x40\n      swap1\n      keccak256\n      sload\n      0xff\n      and\n        /* \"contracts/test/Locker_Rewards.sol\":28691:28724  feeBlocklist[msg.sender] == false */\n      iszero\n        /* \"contracts/test/Locker_Rewards.sol\":28683:28725  require(feeBlocklist[msg.sender] == false) */\n      tag_443\n      jumpi\n      0x00\n      dup1\n      revert\n    tag_443:\n        /* \"contracts/test/Locker_Rewards.sol\":28754:28755  0 */\n      0x00\n        /* \"contracts/test/Locker_Rewards.sol\":28744:28751  _amount */\n      dup2\n        /* \"contracts/test/Locker_Rewards.sol\":28744:28755  _amount > 0 */\n      gt\n        /* \"contracts/test/Locker_Rewards.sol\":28736:28771  require(_amount > 0, \"ZERO AMOUNT\") */\n      tag_444\n      jumpi\n      mload(0x40)\n      shl(0xe5, 0x461bcd)\n      dup2\n      mstore\n      0x04\n      add\n      tag_184\n      swap1\n      tag_242\n      jump\t// in\n    tag_444:\n        /* \"contracts/test/Locker_Rewards.sol\":28805:28815  msg.sender */\n      caller\n        /* \"contracts/test/Locker_Rewards.sol\":28782:28796  uint256 lockID */\n      0x00\n        /* \"contracts/test/Locker_Rewards.sol\":28799:28816  users[msg.sender] */\n      swap1\n      dup2\n      mstore\n        /* \"contracts/test/Locker_Rewards.sol\":28799:28804  users */\n      0x03\n        /* \"contracts/test/Locker_Rewards.sol\":28799:28816  users[msg.sender] */\n      0x20\n      swap1\n      dup2\n      mstore\n      0x40\n      dup1\n      dup4\n      keccak256\n      sub(shl(0xa0, 0x01), 0x01)\n        /* \"contracts/test/Locker_Rewards.sol\":28799:28840  users[msg.sender].locksForToken[_lpToken] */\n      dup9\n      and\n      dup5\n      mstore\n        /* \"contracts/test/Locker_Rewards.sol\":28799:28830  users[msg.sender].locksForToken */\n      0x01\n      add\n        /* \"contracts/test/Locker_Rewards.sol\":28799:28840  users[msg.sender].locksForToken[_lpToken] */\n      swap1\n      swap2\n      mstore\n      dup2\n      keccak256\n        /* \"contracts/test/Locker_Rewards.sol\":28799:28848  users[msg.sender].locksForToken[_lpToken][_index] */\n      dup1\n      sload\n        /* \"contracts/test/Locker_Rewards.sol\":28841:28847  _index */\n      dup6\n      swap1\n        /* \"contracts/test/Locker_Rewards.sol\":28799:28848  users[msg.sender].locksForToken[_lpToken][_index] */\n      dup2\n      lt\n      tag_447\n      jumpi\n      tag_447\n      tag_177\n      jump\t// in\n    tag_447:\n      swap1\n      0x00\n      mstore\n      keccak256(0x00, 0x20)\n      add\n      sload\n        /* \"contracts/test/Locker_Rewards.sol\":28782:28848  uint256 lockID = users[msg.sender].locksForToken[_lpToken][_index] */\n      swap1\n      pop\n        /* \"contracts/test/Locker_Rewards.sol\":28859:28885  TokenLock storage userLock */\n      0x00\n        /* \"contracts/test/Locker_Rewards.sol\":28888:28898  tokenLocks */\n      0x04\n        /* \"contracts/test/Locker_Rewards.sol\":28888:28908  tokenLocks[_lpToken] */\n      0x00\n        /* \"contracts/test/Locker_Rewards.sol\":28899:28907  _lpToken */\n      dup8\n      sub(shl(0xa0, 0x01), 0x01)\n        /* \"contracts/test/Locker_Rewards.sol\":28888:28908  tokenLocks[_lpToken] */\n      and\n      sub(shl(0xa0, 0x01), 0x01)\n      and\n      dup2\n      mstore\n      0x20\n      add\n      swap1\n      dup2\n      mstore\n      0x20\n      add\n      0x00\n      keccak256\n        /* \"contracts/test/Locker_Rewards.sol\":28909:28915  lockID */\n      dup3\n        /* \"contracts/test/Locker_Rewards.sol\":28888:28916  tokenLocks[_lpToken][lockID] */\n      dup2\n      sload\n      dup2\n      lt\n      tag_450\n      jumpi\n      tag_450\n      tag_177\n      jump\t// in\n    tag_450:\n      swap1\n      0x00\n      mstore\n      keccak256(0x00, 0x20)\n      swap1\n      0x06\n      mul\n      add\n        /* \"contracts/test/Locker_Rewards.sol\":28859:28916  TokenLock storage userLock = tokenLocks[_lpToken][lockID] */\n      swap1\n      pop\n        /* \"contracts/test/Locker_Rewards.sol\":28959:28966  _lockID */\n      dup4\n        /* \"contracts/test/Locker_Rewards.sol\":28949:28955  lockID */\n      dup3\n        /* \"contracts/test/Locker_Rewards.sol\":28949:28966  lockID == _lockID */\n      eq\n        /* \"contracts/test/Locker_Rewards.sol\":28949:28998  lockID == _lockID && userLock.owner == msg.sender */\n      dup1\n      iszero\n      tag_452\n      jumpi\n      pop\n        /* \"contracts/test/Locker_Rewards.sol\":28970:28984  userLock.owner */\n      0x05\n      dup2\n      add\n      sload\n      sub(shl(0xa0, 0x01), 0x01)\n      and\n        /* \"contracts/test/Locker_Rewards.sol\":28988:28998  msg.sender */\n      caller\n        /* \"contracts/test/Locker_Rewards.sol\":28970:28998  userLock.owner == msg.sender */\n      eq\n        /* \"contracts/test/Locker_Rewards.sol\":28949:28998  lockID == _lockID && userLock.owner == msg.sender */\n    tag_452:\n        /* \"contracts/test/Locker_Rewards.sol\":28927:29039  require(... */\n      tag_453\n      jumpi\n      mload(0x40)\n      shl(0xe5, 0x461bcd)\n      dup2\n      mstore\n      0x04\n      add\n      tag_184\n      swap1\n      tag_205\n      jump\t// in\n    tag_453:\n        /* \"contracts/test/Locker_Rewards.sol\":29088:29237  TransferHelper.safeTransferFrom(... */\n      tag_455\n        /* \"contracts/test/Locker_Rewards.sol\":29134:29142  _lpToken */\n      dup7\n        /* \"contracts/test/Locker_Rewards.sol\":29165:29175  msg.sender */\n      caller\n        /* \"contracts/test/Locker_Rewards.sol\":29199:29203  this */\n      address\n        /* \"contracts/test/Locker_Rewards.sol\":29219:29226  _amount */\n      dup7\n        /* \"contracts/test/Locker_Rewards.sol\":29088:29119  TransferHelper.safeTransferFrom */\n      tag_339\n        /* \"contracts/test/Locker_Rewards.sol\":29088:29237  TransferHelper.safeTransferFrom(... */\n      jump\t// in\n    tag_455:\n        /* \"contracts/test/Locker_Rewards.sol\":29292:29312  uint256 liquidityFee */\n      0x00\n        /* \"contracts/test/Locker_Rewards.sol\":29315:29356  _amount.mul(gFees.liquidityFee).div(1000) */\n      tag_456\n        /* \"contracts/test/Locker_Rewards.sol\":29351:29355  1000 */\n      0x03e8\n        /* \"contracts/test/Locker_Rewards.sol\":29315:29346  _amount.mul(gFees.liquidityFee) */\n      tag_291\n        /* \"contracts/test/Locker_Rewards.sol\":29327:29332  gFees */\n      0x05\n        /* \"contracts/test/Locker_Rewards.sol\":29327:29345  gFees.liquidityFee */\n      0x04\n      add\n      sload\n        /* \"contracts/test/Locker_Rewards.sol\":29315:29322  _amount */\n      dup8\n        /* \"contracts/test/Locker_Rewards.sol\":29315:29326  _amount.mul */\n      tag_289\n      swap1\n        /* \"contracts/test/Locker_Rewards.sol\":29315:29346  _amount.mul(gFees.liquidityFee) */\n      swap2\n      swap1\n      0xffffffff\n      and\n      jump\t// in\n        /* \"contracts/test/Locker_Rewards.sol\":29315:29356  _amount.mul(gFees.liquidityFee).div(1000) */\n    tag_456:\n        /* \"contracts/test/Locker_Rewards.sol\":29405:29408  ops */\n      sload(0x11)\n        /* \"contracts/test/Locker_Rewards.sol\":29292:29356  uint256 liquidityFee = _amount.mul(gFees.liquidityFee).div(1000) */\n      swap1\n      swap2\n      pop\n        /* \"contracts/test/Locker_Rewards.sol\":29367:29423  TransferHelper.safeTransfer(_lpToken, ops, liquidityFee) */\n      tag_458\n      swap1\n        /* \"contracts/test/Locker_Rewards.sol\":29395:29403  _lpToken */\n      dup9\n      swap1\n      sub(shl(0xa0, 0x01), 0x01)\n        /* \"contracts/test/Locker_Rewards.sol\":29405:29408  ops */\n      and\n        /* \"contracts/test/Locker_Rewards.sol\":29292:29356  uint256 liquidityFee = _amount.mul(gFees.liquidityFee).div(1000) */\n      dup4\n        /* \"contracts/test/Locker_Rewards.sol\":29367:29394  TransferHelper.safeTransfer */\n      tag_230\n        /* \"contracts/test/Locker_Rewards.sol\":29367:29423  TransferHelper.safeTransfer(_lpToken, ops, liquidityFee) */\n      jump\t// in\n    tag_458:\n        /* \"contracts/test/Locker_Rewards.sol\":29434:29454  uint256 amountLocked */\n      0x00\n        /* \"contracts/test/Locker_Rewards.sol\":29457:29482  _amount.sub(liquidityFee) */\n      tag_459\n        /* \"contracts/test/Locker_Rewards.sol\":29457:29464  _amount */\n      dup6\n        /* \"contracts/test/Locker_Rewards.sol\":29469:29481  liquidityFee */\n      dup4\n        /* \"contracts/test/Locker_Rewards.sol\":29457:29468  _amount.sub */\n      tag_210\n        /* \"contracts/test/Locker_Rewards.sol\":29457:29482  _amount.sub(liquidityFee) */\n      jump\t// in\n    tag_459:\n        /* \"contracts/test/Locker_Rewards.sol\":29513:29528  userLock.amount */\n      0x01\n      dup5\n      add\n      sload\n        /* \"contracts/test/Locker_Rewards.sol\":29434:29482  uint256 amountLocked = _amount.sub(liquidityFee) */\n      swap1\n      swap2\n      pop\n        /* \"contracts/test/Locker_Rewards.sol\":29513:29546  userLock.amount.add(amountLocked) */\n      tag_460\n      swap1\n        /* \"contracts/test/Locker_Rewards.sol\":29434:29482  uint256 amountLocked = _amount.sub(liquidityFee) */\n      dup3\n        /* \"contracts/test/Locker_Rewards.sol\":29513:29532  userLock.amount.add */\n      tag_461\n        /* \"contracts/test/Locker_Rewards.sol\":29513:29546  userLock.amount.add(amountLocked) */\n      jump\t// in\n    tag_460:\n        /* \"contracts/test/Locker_Rewards.sol\":29495:29510  userLock.amount */\n      0x01\n      dup5\n      add\n        /* \"contracts/test/Locker_Rewards.sol\":29495:29546  userLock.amount = userLock.amount.add(amountLocked) */\n      sstore\n        /* \"contracts/test/Locker_Rewards.sol\":29663:29680  userLock.lockDate */\n      dup3\n      sload\n        /* \"contracts/test/Locker_Rewards.sol\":29695:29714  userLock.unlockDate */\n      0x03\n      dup5\n      add\n      sload\n        /* \"contracts/test/Locker_Rewards.sol\":29564:29725  onDeposit(... */\n      mload(0x40)\n      0x830357565da6ecfc26d8d9f69df488ed6f70361af9a07e570544aeb5c5e765e5\n      swap3\n      tag_462\n      swap3\n        /* \"contracts/test/Locker_Rewards.sol\":29588:29596  _lpToken */\n      dup13\n      swap3\n        /* \"contracts/test/Locker_Rewards.sol\":29611:29621  msg.sender */\n      caller\n      swap3\n        /* \"contracts/test/Locker_Rewards.sol\":29636:29648  amountLocked */\n      dup8\n      swap3\n        /* \"contracts/test/Locker_Rewards.sol\":29663:29680  userLock.lockDate */\n      swap1\n      swap2\n        /* \"contracts/test/Locker_Rewards.sol\":29564:29725  onDeposit(... */\n      tag_420\n      jump\t// in\n    tag_462:\n      mload(0x40)\n      dup1\n      swap2\n      sub\n      swap1\n      log1\n      pop\n      pop\n        /* \"contracts/test/Locker_Rewards.sol\":6431:6432  1 */\n      0x01\n        /* \"contracts/test/Locker_Rewards.sol\":7383:7405  _status = _NOT_ENTERED */\n      dup1\n      sstore\n      pop\n      pop\n      pop\n      pop\n      pop\n      pop\n        /* \"contracts/test/Locker_Rewards.sol\":28516:29733  function incrementLock(... */\n      jump\t// out\n        /* \"contracts/test/Locker_Rewards.sol\":31396:32614  function transferLockOwnership(... */\n    tag_148:\n        /* \"contracts/test/Locker_Rewards.sol\":31597:31607  msg.sender */\n      caller\n        /* \"contracts/test/Locker_Rewards.sol\":31584:31608  feeBlocklist[msg.sender] */\n      0x00\n      swap1\n      dup2\n      mstore\n        /* \"contracts/test/Locker_Rewards.sol\":31584:31596  feeBlocklist */\n      0x0f\n        /* \"contracts/test/Locker_Rewards.sol\":31584:31608  feeBlocklist[msg.sender] */\n      0x20\n      mstore\n      0x40\n      swap1\n      keccak256\n      sload\n      0xff\n      and\n        /* \"contracts/test/Locker_Rewards.sol\":31584:31617  feeBlocklist[msg.sender] == false */\n      iszero\n        /* \"contracts/test/Locker_Rewards.sol\":31576:31618  require(feeBlocklist[msg.sender] == false) */\n      tag_470\n      jumpi\n      0x00\n      dup1\n      revert\n    tag_470:\n      sub(shl(0xa0, 0x01), 0x01)\n        /* \"contracts/test/Locker_Rewards.sol\":31637:31660  msg.sender != _newOwner */\n      dup2\n      and\n        /* \"contracts/test/Locker_Rewards.sol\":31637:31647  msg.sender */\n      caller\n        /* \"contracts/test/Locker_Rewards.sol\":31637:31660  msg.sender != _newOwner */\n      sub\n        /* \"contracts/test/Locker_Rewards.sol\":31629:31670  require(msg.sender != _newOwner, \"OWNER\") */\n      tag_471\n      jumpi\n      mload(0x40)\n      shl(0xe5, 0x461bcd)\n      dup2\n      mstore\n        /* \"#utility.yul\":15740:15742   */\n      0x20\n        /* \"contracts/test/Locker_Rewards.sol\":31629:31670  require(msg.sender != _newOwner, \"OWNER\") */\n      0x04\n      dup3\n      add\n        /* \"#utility.yul\":15722:15743   */\n      mstore\n        /* \"#utility.yul\":15779:15780   */\n      0x05\n        /* \"#utility.yul\":15759:15777   */\n      0x24\n      dup3\n      add\n        /* \"#utility.yul\":15752:15781   */\n      mstore\n      shl(0xd9, 0x27aba722a9)\n        /* \"#utility.yul\":15797:15815   */\n      0x44\n      dup3\n      add\n        /* \"#utility.yul\":15790:15825   */\n      mstore\n        /* \"#utility.yul\":15842:15860   */\n      0x64\n      add\n        /* \"contracts/test/Locker_Rewards.sol\":31629:31670  require(msg.sender != _newOwner, \"OWNER\") */\n      tag_184\n        /* \"#utility.yul\":15538:15866   */\n      jump\n        /* \"contracts/test/Locker_Rewards.sol\":31629:31670  require(msg.sender != _newOwner, \"OWNER\") */\n    tag_471:\n        /* \"contracts/test/Locker_Rewards.sol\":31704:31714  msg.sender */\n      caller\n        /* \"contracts/test/Locker_Rewards.sol\":31681:31695  uint256 lockID */\n      0x00\n        /* \"contracts/test/Locker_Rewards.sol\":31698:31715  users[msg.sender] */\n      swap1\n      dup2\n      mstore\n        /* \"contracts/test/Locker_Rewards.sol\":31698:31703  users */\n      0x03\n        /* \"contracts/test/Locker_Rewards.sol\":31698:31715  users[msg.sender] */\n      0x20\n      swap1\n      dup2\n      mstore\n      0x40\n      dup1\n      dup4\n      keccak256\n      sub(shl(0xa0, 0x01), 0x01)\n        /* \"contracts/test/Locker_Rewards.sol\":31698:31739  users[msg.sender].locksForToken[_lpToken] */\n      dup9\n      and\n      dup5\n      mstore\n        /* \"contracts/test/Locker_Rewards.sol\":31698:31729  users[msg.sender].locksForToken */\n      0x01\n      add\n        /* \"contracts/test/Locker_Rewards.sol\":31698:31739  users[msg.sender].locksForToken[_lpToken] */\n      swap1\n      swap2\n      mstore\n      dup2\n      keccak256\n        /* \"contracts/test/Locker_Rewards.sol\":31698:31747  users[msg.sender].locksForToken[_lpToken][_index] */\n      dup1\n      sload\n        /* \"contracts/test/Locker_Rewards.sol\":31740:31746  _index */\n      dup6\n      swap1\n        /* \"contracts/test/Locker_Rewards.sol\":31698:31747  users[msg.sender].locksForToken[_lpToken][_index] */\n      dup2\n      lt\n      tag_475\n      jumpi\n      tag_475\n      tag_177\n      jump\t// in\n    tag_475:\n      swap1\n      0x00\n      mstore\n      keccak256(0x00, 0x20)\n      add\n      sload\n        /* \"contracts/test/Locker_Rewards.sol\":31681:31747  uint256 lockID = users[msg.sender].locksForToken[_lpToken][_index] */\n      swap1\n      pop\n        /* \"contracts/test/Locker_Rewards.sol\":31758:31791  TokenLock storage transferredLock */\n      0x00\n        /* \"contracts/test/Locker_Rewards.sol\":31794:31804  tokenLocks */\n      0x04\n        /* \"contracts/test/Locker_Rewards.sol\":31794:31814  tokenLocks[_lpToken] */\n      0x00\n        /* \"contracts/test/Locker_Rewards.sol\":31805:31813  _lpToken */\n      dup8\n      sub(shl(0xa0, 0x01), 0x01)\n        /* \"contracts/test/Locker_Rewards.sol\":31794:31814  tokenLocks[_lpToken] */\n      and\n      sub(shl(0xa0, 0x01), 0x01)\n      and\n      dup2\n      mstore\n      0x20\n      add\n      swap1\n      dup2\n      mstore\n      0x20\n      add\n      0x00\n      keccak256\n        /* \"contracts/test/Locker_Rewards.sol\":31815:31821  lockID */\n      dup3\n        /* \"contracts/test/Locker_Rewards.sol\":31794:31822  tokenLocks[_lpToken][lockID] */\n      dup2\n      sload\n      dup2\n      lt\n      tag_478\n      jumpi\n      tag_478\n      tag_177\n      jump\t// in\n    tag_478:\n      swap1\n      0x00\n      mstore\n      keccak256(0x00, 0x20)\n      swap1\n      0x06\n      mul\n      add\n        /* \"contracts/test/Locker_Rewards.sol\":31758:31822  TokenLock storage transferredLock = tokenLocks[_lpToken][lockID] */\n      swap1\n      pop\n        /* \"contracts/test/Locker_Rewards.sol\":31865:31872  _lockID */\n      dup4\n        /* \"contracts/test/Locker_Rewards.sol\":31855:31861  lockID */\n      dup3\n        /* \"contracts/test/Locker_Rewards.sol\":31855:31872  lockID == _lockID */\n      eq\n        /* \"contracts/test/Locker_Rewards.sol\":31855:31911  lockID == _lockID && transferredLock.owner == msg.sender */\n      dup1\n      iszero\n      tag_480\n      jumpi\n      pop\n        /* \"contracts/test/Locker_Rewards.sol\":31876:31897  transferredLock.owner */\n      0x05\n      dup2\n      add\n      sload\n      sub(shl(0xa0, 0x01), 0x01)\n      and\n        /* \"contracts/test/Locker_Rewards.sol\":31901:31911  msg.sender */\n      caller\n        /* \"contracts/test/Locker_Rewards.sol\":31876:31911  transferredLock.owner == msg.sender */\n      eq\n        /* \"contracts/test/Locker_Rewards.sol\":31855:31911  lockID == _lockID && transferredLock.owner == msg.sender */\n    tag_480:\n        /* \"contracts/test/Locker_Rewards.sol\":31833:31952  require(... */\n      tag_481\n      jumpi\n      mload(0x40)\n      shl(0xe5, 0x461bcd)\n      dup2\n      mstore\n      0x04\n      add\n      tag_184\n      swap1\n      tag_205\n      jump\t// in\n    tag_481:\n      sub(shl(0xa0, 0x01), 0x01)\n        /* \"contracts/test/Locker_Rewards.sol\":32071:32087  users[_newOwner] */\n      dup4\n      dup2\n      and\n        /* \"contracts/test/Locker_Rewards.sol\":32047:32068  UserInfo storage user */\n      0x00\n        /* \"contracts/test/Locker_Rewards.sol\":32071:32087  users[_newOwner] */\n      swap1\n      dup2\n      mstore\n        /* \"contracts/test/Locker_Rewards.sol\":32071:32076  users */\n      0x03\n        /* \"contracts/test/Locker_Rewards.sol\":32071:32087  users[_newOwner] */\n      0x20\n      dup2\n      dup2\n      mstore\n      0x40\n      dup1\n      dup5\n      keccak256\n        /* \"contracts/test/Locker_Rewards.sol\":32098:32130  user.lockedTokens.push(_lpToken) */\n      dup1\n      sload\n      0x01\n      dup1\n      dup3\n      add\n      dup4\n      sstore\n      dup3\n      dup8\n      mstore\n      dup5\n      dup8\n      keccak256\n      swap1\n      swap2\n      add\n      dup1\n      sload\n      not(sub(shl(0xa0, 0x01), 0x01))\n      and\n      swap8\n      dup15\n      and\n      swap8\n      dup9\n      or\n      swap1\n      sstore\n        /* \"contracts/test/Locker_Rewards.sol\":32172:32200  user.locksForToken[_lpToken] */\n      dup7\n      dup7\n      mstore\n        /* \"contracts/test/Locker_Rewards.sol\":32172:32190  user.locksForToken */\n      dup1\n      dup3\n      add\n        /* \"contracts/test/Locker_Rewards.sol\":32172:32200  user.locksForToken[_lpToken] */\n      dup5\n      mstore\n      dup3\n      dup7\n      keccak256\n        /* \"contracts/test/Locker_Rewards.sol\":32227:32249  transferredLock.lockID */\n      0x04\n      dup10\n      add\n      sload\n        /* \"contracts/test/Locker_Rewards.sol\":32211:32250  user_locks.push(transferredLock.lockID) */\n      dup2\n      sload\n      dup1\n      dup5\n      add\n      dup4\n      sstore\n      dup3\n      dup10\n      mstore\n      dup7\n      dup10\n      keccak256\n      add\n      sstore\n        /* \"contracts/test/Locker_Rewards.sol\":32346:32356  msg.sender */\n      caller\n        /* \"contracts/test/Locker_Rewards.sol\":32340:32357  users[msg.sender] */\n      dup8\n      mstore\n      swap5\n      dup5\n      mstore\n      dup3\n      dup7\n      keccak256\n        /* \"contracts/test/Locker_Rewards.sol\":32340:32381  users[msg.sender].locksForToken[_lpToken] */\n      swap7\n      dup7\n      mstore\n        /* \"contracts/test/Locker_Rewards.sol\":32340:32371  users[msg.sender].locksForToken */\n      swap6\n      dup7\n      add\n        /* \"contracts/test/Locker_Rewards.sol\":32340:32381  users[msg.sender].locksForToken[_lpToken] */\n      swap1\n      swap3\n      mstore\n      swap1\n      swap3\n      keccak256\n        /* \"contracts/test/Locker_Rewards.sol\":32422:32438  userLocks.length */\n      dup1\n      sload\n        /* \"contracts/test/Locker_Rewards.sol\":32071:32087  users[_newOwner] */\n      swap3\n      swap4\n        /* \"contracts/test/Locker_Rewards.sol\":32172:32200  user.locksForToken[_lpToken] */\n      swap2\n      swap3\n        /* \"contracts/test/Locker_Rewards.sol\":32340:32381  users[msg.sender].locksForToken[_lpToken] */\n      swap1\n      swap2\n      dup3\n      swap2\n        /* \"contracts/test/Locker_Rewards.sol\":32422:32442  userLocks.length - 1 */\n      tag_485\n      swap2\n        /* \"contracts/test/Locker_Rewards.sol\":32098:32130  user.lockedTokens.push(_lpToken) */\n      swap1\n        /* \"contracts/test/Locker_Rewards.sol\":32422:32442  userLocks.length - 1 */\n      tag_213\n      jump\t// in\n    tag_485:\n        /* \"contracts/test/Locker_Rewards.sol\":32412:32443  userLocks[userLocks.length - 1] */\n      dup2\n      sload\n      dup2\n      lt\n      tag_487\n      jumpi\n      tag_487\n      tag_177\n      jump\t// in\n    tag_487:\n      swap1\n      0x00\n      mstore\n      keccak256(0x00, 0x20)\n      add\n      sload\n        /* \"contracts/test/Locker_Rewards.sol\":32392:32401  userLocks */\n      dup2\n        /* \"contracts/test/Locker_Rewards.sol\":32402:32408  _index */\n      dup10\n        /* \"contracts/test/Locker_Rewards.sol\":32392:32409  userLocks[_index] */\n      dup2\n      sload\n      dup2\n      lt\n      tag_490\n      jumpi\n      tag_490\n      tag_177\n      jump\t// in\n    tag_490:\n      swap1\n      0x00\n      mstore\n      keccak256(0x00, 0x20)\n      add\n        /* \"contracts/test/Locker_Rewards.sol\":32392:32443  userLocks[_index] = userLocks[userLocks.length - 1] */\n      dup2\n      swap1\n      sstore\n      pop\n        /* \"contracts/test/Locker_Rewards.sol\":32454:32463  userLocks */\n      dup1\n        /* \"contracts/test/Locker_Rewards.sol\":32454:32469  userLocks.pop() */\n      dup1\n      sload\n      dup1\n      tag_493\n      jumpi\n      tag_493\n      tag_222\n      jump\t// in\n    tag_493:\n      0x01\n      swap1\n      sub\n      dup2\n      dup2\n      swap1\n      0x00\n      mstore\n      keccak256(0x00, 0x20)\n      add\n      0x00\n      swap1\n      sstore\n      swap1\n      sstore\n        /* \"contracts/test/Locker_Rewards.sol\":32484:32493  userLocks */\n      dup1\n        /* \"contracts/test/Locker_Rewards.sol\":32484:32500  userLocks.length */\n      dup1\n      sload\n      swap1\n      pop\n        /* \"contracts/test/Locker_Rewards.sol\":32504:32505  0 */\n      0x00\n        /* \"contracts/test/Locker_Rewards.sol\":32484:32505  userLocks.length == 0 */\n      sub\n        /* \"contracts/test/Locker_Rewards.sol\":32480:32563  if (userLocks.length == 0) {... */\n      tag_495\n      jumpi\n      sub(shl(0xa0, 0x01), 0x01)\n        /* \"contracts/test/Locker_Rewards.sol\":32522:32544  user_removed[_lpToken] */\n      dup10\n      and\n      0x00\n      swap1\n      dup2\n      mstore\n        /* \"contracts/test/Locker_Rewards.sol\":32522:32534  user_removed */\n      0x10\n        /* \"contracts/test/Locker_Rewards.sol\":32522:32544  user_removed[_lpToken] */\n      0x20\n      mstore\n      0x40\n      swap1\n      keccak256\n        /* \"contracts/test/Locker_Rewards.sol\":32522:32551  user_removed[_lpToken] = true */\n      dup1\n      sload\n      not(0xff)\n      and\n        /* \"contracts/test/Locker_Rewards.sol\":32547:32551  true */\n      0x01\n        /* \"contracts/test/Locker_Rewards.sol\":32522:32551  user_removed[_lpToken] = true */\n      or\n      swap1\n      sstore\n        /* \"contracts/test/Locker_Rewards.sol\":32480:32563  if (userLocks.length == 0) {... */\n    tag_495:\n      pop\n      pop\n      pop\n        /* \"contracts/test/Locker_Rewards.sol\":32573:32594  transferredLock.owner */\n      0x05\n      add\n        /* \"contracts/test/Locker_Rewards.sol\":32573:32606  transferredLock.owner = _newOwner */\n      dup1\n      sload\n      not(sub(shl(0xa0, 0x01), 0x01))\n      and\n      sub(shl(0xa0, 0x01), 0x01)\n      swap4\n      swap1\n      swap4\n      and\n      swap3\n      swap1\n      swap3\n      or\n      swap1\n      swap2\n      sstore\n      pop\n      pop\n      pop\n      pop\n        /* \"contracts/test/Locker_Rewards.sol\":31396:32614  function transferLockOwnership(... */\n      jump\t// out\n        /* \"contracts/test/Locker_Rewards.sol\":14490:14539  mapping(address => TokenLock[]) public tokenLocks */\n    tag_152:\n      mstore(0x20, 0x04)\n      dup2\n      0x00\n      mstore\n      keccak256(0x00, 0x40)\n      dup2\n      dup2\n      sload\n      dup2\n      lt\n      tag_496\n      jumpi\n      0x00\n      dup1\n      revert\n    tag_496:\n      0x00\n      swap2\n      dup3\n      mstore\n      0x20\n      swap1\n      swap2\n      keccak256\n      0x06\n      swap1\n      swap2\n      mul\n      add\n      dup1\n      sload\n      0x01\n      dup3\n      add\n      sload\n      0x02\n      dup4\n      add\n      sload\n      0x03\n      dup5\n      add\n      sload\n      0x04\n      dup6\n      add\n      sload\n      0x05\n      swap1\n      swap6\n      add\n      sload\n      swap4\n      swap7\n      pop\n      swap2\n      swap5\n      pop\n      swap3\n      swap1\n      swap2\n      sub(shl(0xa0, 0x01), 0x01)\n      and\n      dup7\n      jump\t// out\n        /* \"contracts/test/Locker_Rewards.sol\":35333:36026  function getUserLockForTokenAtIndex(... */\n    tag_159:\n        /* \"contracts/test/Locker_Rewards.sol\":35516:35523  uint256 */\n      0x00\n        /* \"contracts/test/Locker_Rewards.sol\":35538:35545  uint256 */\n      dup1\n        /* \"contracts/test/Locker_Rewards.sol\":35560:35567  uint256 */\n      0x00\n        /* \"contracts/test/Locker_Rewards.sol\":35582:35589  uint256 */\n      dup1\n        /* \"contracts/test/Locker_Rewards.sol\":35604:35611  uint256 */\n      0x00\n        /* \"contracts/test/Locker_Rewards.sol\":35626:35633  address */\n      dup1\n        /* \"contracts/test/Locker_Rewards.sol\":35661:35675  uint256 lockID */\n      0x00\n        /* \"contracts/test/Locker_Rewards.sol\":35678:35683  users */\n      0x03\n        /* \"contracts/test/Locker_Rewards.sol\":35678:35690  users[_user] */\n      0x00\n        /* \"contracts/test/Locker_Rewards.sol\":35684:35689  _user */\n      dup12\n      sub(shl(0xa0, 0x01), 0x01)\n        /* \"contracts/test/Locker_Rewards.sol\":35678:35690  users[_user] */\n      and\n      sub(shl(0xa0, 0x01), 0x01)\n      and\n      dup2\n      mstore\n      0x20\n      add\n      swap1\n      dup2\n      mstore\n      0x20\n      add\n      0x00\n      keccak256\n        /* \"contracts/test/Locker_Rewards.sol\":35678:35704  users[_user].locksForToken */\n      0x01\n      add\n        /* \"contracts/test/Locker_Rewards.sol\":35678:35714  users[_user].locksForToken[_lpToken] */\n      0x00\n        /* \"contracts/test/Locker_Rewards.sol\":35705:35713  _lpToken */\n      dup11\n      sub(shl(0xa0, 0x01), 0x01)\n        /* \"contracts/test/Locker_Rewards.sol\":35678:35714  users[_user].locksForToken[_lpToken] */\n      and\n      sub(shl(0xa0, 0x01), 0x01)\n      and\n      dup2\n      mstore\n      0x20\n      add\n      swap1\n      dup2\n      mstore\n      0x20\n      add\n      0x00\n      keccak256\n        /* \"contracts/test/Locker_Rewards.sol\":35715:35721  _index */\n      dup9\n        /* \"contracts/test/Locker_Rewards.sol\":35678:35722  users[_user].locksForToken[_lpToken][_index] */\n      dup2\n      sload\n      dup2\n      lt\n      tag_500\n      jumpi\n      tag_500\n      tag_177\n      jump\t// in\n    tag_500:\n      swap1\n      0x00\n      mstore\n      keccak256(0x00, 0x20)\n      add\n      sload\n        /* \"contracts/test/Locker_Rewards.sol\":35661:35722  uint256 lockID = users[_user].locksForToken[_lpToken][_index] */\n      swap1\n      pop\n        /* \"contracts/test/Locker_Rewards.sol\":35733:35760  TokenLock storage tokenLock */\n      0x00\n        /* \"contracts/test/Locker_Rewards.sol\":35763:35773  tokenLocks */\n      0x04\n        /* \"contracts/test/Locker_Rewards.sol\":35763:35783  tokenLocks[_lpToken] */\n      0x00\n        /* \"contracts/test/Locker_Rewards.sol\":35774:35782  _lpToken */\n      dup12\n      sub(shl(0xa0, 0x01), 0x01)\n        /* \"contracts/test/Locker_Rewards.sol\":35763:35783  tokenLocks[_lpToken] */\n      and\n      sub(shl(0xa0, 0x01), 0x01)\n      and\n      dup2\n      mstore\n      0x20\n      add\n      swap1\n      dup2\n      mstore\n      0x20\n      add\n      0x00\n      keccak256\n        /* \"contracts/test/Locker_Rewards.sol\":35784:35790  lockID */\n      dup3\n        /* \"contracts/test/Locker_Rewards.sol\":35763:35791  tokenLocks[_lpToken][lockID] */\n      dup2\n      sload\n      dup2\n      lt\n      tag_503\n      jumpi\n      tag_503\n      tag_177\n      jump\t// in\n    tag_503:\n      0x00\n      swap2\n      dup3\n      mstore\n      0x20\n      swap1\n      swap2\n      keccak256\n      0x06\n      swap1\n      swap2\n      mul\n      add\n        /* \"contracts/test/Locker_Rewards.sol\":35824:35842  tokenLock.lockDate */\n      dup1\n      sload\n        /* \"contracts/test/Locker_Rewards.sol\":35857:35873  tokenLock.amount */\n      0x01\n      dup3\n      add\n      sload\n        /* \"contracts/test/Locker_Rewards.sol\":35888:35911  tokenLock.initialAmount */\n      0x02\n      dup4\n      add\n      sload\n        /* \"contracts/test/Locker_Rewards.sol\":35926:35946  tokenLock.unlockDate */\n      0x03\n      dup5\n      add\n      sload\n        /* \"contracts/test/Locker_Rewards.sol\":35961:35977  tokenLock.lockID */\n      0x04\n      dup6\n      add\n      sload\n        /* \"contracts/test/Locker_Rewards.sol\":35992:36007  tokenLock.owner */\n      0x05\n      swap1\n      swap6\n      add\n      sload\n        /* \"contracts/test/Locker_Rewards.sol\":35824:35842  tokenLock.lockDate */\n      swap4\n      swap13\n      pop\n        /* \"contracts/test/Locker_Rewards.sol\":35857:35873  tokenLock.amount */\n      swap2\n      swap11\n      pop\n        /* \"contracts/test/Locker_Rewards.sol\":35888:35911  tokenLock.initialAmount */\n      swap9\n      pop\n        /* \"contracts/test/Locker_Rewards.sol\":35926:35946  tokenLock.unlockDate */\n      swap7\n      pop\n        /* \"contracts/test/Locker_Rewards.sol\":35961:35977  tokenLock.lockID */\n      swap1\n      swap5\n      pop\n      sub(shl(0xa0, 0x01), 0x01)\n        /* \"contracts/test/Locker_Rewards.sol\":35992:36007  tokenLock.owner */\n      and\n      swap3\n      pop\n      pop\n      pop\n        /* \"contracts/test/Locker_Rewards.sol\":35333:36026  function getUserLockForTokenAtIndex(... */\n      swap4\n      swap8\n      pop\n      swap4\n      swap8\n      swap2\n      swap6\n      pop\n      swap4\n      pop\n      jump\t// out\n        /* \"contracts/test/Locker_Rewards.sol\":32689:33930  function migrate(... */\n    tag_164:\n        /* \"contracts/test/Locker_Rewards.sol\":6475:6476  2 */\n      0x02\n        /* \"contracts/test/Locker_Rewards.sol\":7071:7078  _status */\n      sload(0x01)\n        /* \"contracts/test/Locker_Rewards.sol\":7071:7090  _status != _ENTERED */\n      sub\n        /* \"contracts/test/Locker_Rewards.sol\":7063:7126  require(_status != _ENTERED, \"ReentrancyGuard: reentrant call\") */\n      tag_506\n      jumpi\n      mload(0x40)\n      shl(0xe5, 0x461bcd)\n      dup2\n      mstore\n      0x04\n      add\n      tag_184\n      swap1\n      tag_191\n      jump\t// in\n    tag_506:\n        /* \"contracts/test/Locker_Rewards.sol\":6475:6476  2 */\n      0x02\n        /* \"contracts/test/Locker_Rewards.sol\":7204:7211  _status */\n      0x01\n        /* \"contracts/test/Locker_Rewards.sol\":7204:7222  _status = _ENTERED */\n      sstore\n        /* \"contracts/test/Locker_Rewards.sol\":32866:32874  migrator */\n      and(sub(shl(0xa0, 0x01), 0x01), sload(0x12))\n        /* \"contracts/test/Locker_Rewards.sol\":32850:32901  require(address(migrator) != address(0), \"NOT SET\") */\n      tag_509\n      jumpi\n      mload(0x40)\n      shl(0xe5, 0x461bcd)\n      dup2\n      mstore\n        /* \"#utility.yul\":16073:16075   */\n      0x20\n        /* \"contracts/test/Locker_Rewards.sol\":32850:32901  require(address(migrator) != address(0), \"NOT SET\") */\n      0x04\n      dup3\n      add\n        /* \"#utility.yul\":16055:16076   */\n      mstore\n        /* \"#utility.yul\":16112:16113   */\n      0x07\n        /* \"#utility.yul\":16092:16110   */\n      0x24\n      dup3\n      add\n        /* \"#utility.yul\":16085:16114   */\n      mstore\n      shl(0xca, 0x1393d50814d155)\n        /* \"#utility.yul\":16130:16148   */\n      0x44\n      dup3\n      add\n        /* \"#utility.yul\":16123:16160   */\n      mstore\n        /* \"#utility.yul\":16177:16195   */\n      0x64\n      add\n        /* \"contracts/test/Locker_Rewards.sol\":32850:32901  require(address(migrator) != address(0), \"NOT SET\") */\n      tag_184\n        /* \"#utility.yul\":15871:16201   */\n      jump\n        /* \"contracts/test/Locker_Rewards.sol\":32850:32901  require(address(migrator) != address(0), \"NOT SET\") */\n    tag_509:\n        /* \"contracts/test/Locker_Rewards.sol\":32930:32931  0 */\n      0x00\n        /* \"contracts/test/Locker_Rewards.sol\":32920:32927  _amount */\n      dup2\n        /* \"contracts/test/Locker_Rewards.sol\":32920:32931  _amount > 0 */\n      gt\n        /* \"contracts/test/Locker_Rewards.sol\":32912:32950  require(_amount > 0, \"ZERO MIGRATION\") */\n      tag_512\n      jumpi\n      mload(0x40)\n      shl(0xe5, 0x461bcd)\n      dup2\n      mstore\n        /* \"#utility.yul\":16408:16410   */\n      0x20\n        /* \"contracts/test/Locker_Rewards.sol\":32912:32950  require(_amount > 0, \"ZERO MIGRATION\") */\n      0x04\n      dup3\n      add\n        /* \"#utility.yul\":16390:16411   */\n      mstore\n        /* \"#utility.yul\":16447:16449   */\n      0x0e\n        /* \"#utility.yul\":16427:16445   */\n      0x24\n      dup3\n      add\n        /* \"#utility.yul\":16420:16450   */\n      mstore\n      shl(0x91, 0x2d22a9279026a4a3a920aa24a7a7)\n        /* \"#utility.yul\":16466:16484   */\n      0x44\n      dup3\n      add\n        /* \"#utility.yul\":16459:16503   */\n      mstore\n        /* \"#utility.yul\":16520:16538   */\n      0x64\n      add\n        /* \"contracts/test/Locker_Rewards.sol\":32912:32950  require(_amount > 0, \"ZERO MIGRATION\") */\n      tag_184\n        /* \"#utility.yul\":16206:16544   */\n      jump\n        /* \"contracts/test/Locker_Rewards.sol\":32912:32950  require(_amount > 0, \"ZERO MIGRATION\") */\n    tag_512:\n        /* \"contracts/test/Locker_Rewards.sol\":32982:32992  msg.sender */\n      caller\n        /* \"contracts/test/Locker_Rewards.sol\":32969:32993  feeBlocklist[msg.sender] */\n      0x00\n      swap1\n      dup2\n      mstore\n        /* \"contracts/test/Locker_Rewards.sol\":32969:32981  feeBlocklist */\n      0x0f\n        /* \"contracts/test/Locker_Rewards.sol\":32969:32993  feeBlocklist[msg.sender] */\n      0x20\n      mstore\n      0x40\n      swap1\n      keccak256\n      sload\n      0xff\n      and\n        /* \"contracts/test/Locker_Rewards.sol\":32969:33002  feeBlocklist[msg.sender] == false */\n      iszero\n        /* \"contracts/test/Locker_Rewards.sol\":32961:33003  require(feeBlocklist[msg.sender] == false) */\n      tag_515\n      jumpi\n      0x00\n      dup1\n      revert\n    tag_515:\n        /* \"contracts/test/Locker_Rewards.sol\":33039:33049  msg.sender */\n      caller\n        /* \"contracts/test/Locker_Rewards.sol\":33016:33030  uint256 lockID */\n      0x00\n        /* \"contracts/test/Locker_Rewards.sol\":33033:33050  users[msg.sender] */\n      swap1\n      dup2\n      mstore\n        /* \"contracts/test/Locker_Rewards.sol\":33033:33038  users */\n      0x03\n        /* \"contracts/test/Locker_Rewards.sol\":33033:33050  users[msg.sender] */\n      0x20\n      swap1\n      dup2\n      mstore\n      0x40\n      dup1\n      dup4\n      keccak256\n      sub(shl(0xa0, 0x01), 0x01)\n        /* \"contracts/test/Locker_Rewards.sol\":33033:33074  users[msg.sender].locksForToken[_lpToken] */\n      dup9\n      and\n      dup5\n      mstore\n        /* \"contracts/test/Locker_Rewards.sol\":33033:33064  users[msg.sender].locksForToken */\n      0x01\n      add\n        /* \"contracts/test/Locker_Rewards.sol\":33033:33074  users[msg.sender].locksForToken[_lpToken] */\n      swap1\n      swap2\n      mstore\n      dup2\n      keccak256\n        /* \"contracts/test/Locker_Rewards.sol\":33033:33082  users[msg.sender].locksForToken[_lpToken][_index] */\n      dup1\n      sload\n        /* \"contracts/test/Locker_Rewards.sol\":33075:33081  _index */\n      dup6\n      swap1\n        /* \"contracts/test/Locker_Rewards.sol\":33033:33082  users[msg.sender].locksForToken[_lpToken][_index] */\n      dup2\n      lt\n      tag_517\n      jumpi\n      tag_517\n      tag_177\n      jump\t// in\n    tag_517:\n      swap1\n      0x00\n      mstore\n      keccak256(0x00, 0x20)\n      add\n      sload\n        /* \"contracts/test/Locker_Rewards.sol\":33016:33082  uint256 lockID = users[msg.sender].locksForToken[_lpToken][_index] */\n      swap1\n      pop\n        /* \"contracts/test/Locker_Rewards.sol\":33093:33119  TokenLock storage userLock */\n      0x00\n        /* \"contracts/test/Locker_Rewards.sol\":33122:33132  tokenLocks */\n      0x04\n        /* \"contracts/test/Locker_Rewards.sol\":33122:33142  tokenLocks[_lpToken] */\n      0x00\n        /* \"contracts/test/Locker_Rewards.sol\":33133:33141  _lpToken */\n      dup8\n      sub(shl(0xa0, 0x01), 0x01)\n        /* \"contracts/test/Locker_Rewards.sol\":33122:33142  tokenLocks[_lpToken] */\n      and\n      sub(shl(0xa0, 0x01), 0x01)\n      and\n      dup2\n      mstore\n      0x20\n      add\n      swap1\n      dup2\n      mstore\n      0x20\n      add\n      0x00\n      keccak256\n        /* \"contracts/test/Locker_Rewards.sol\":33143:33149  lockID */\n      dup3\n        /* \"contracts/test/Locker_Rewards.sol\":33122:33150  tokenLocks[_lpToken][lockID] */\n      dup2\n      sload\n      dup2\n      lt\n      tag_520\n      jumpi\n      tag_520\n      tag_177\n      jump\t// in\n    tag_520:\n      swap1\n      0x00\n      mstore\n      keccak256(0x00, 0x20)\n      swap1\n      0x06\n      mul\n      add\n        /* \"contracts/test/Locker_Rewards.sol\":33093:33150  TokenLock storage userLock = tokenLocks[_lpToken][lockID] */\n      swap1\n      pop\n        /* \"contracts/test/Locker_Rewards.sol\":33193:33200  _lockID */\n      dup4\n        /* \"contracts/test/Locker_Rewards.sol\":33183:33189  lockID */\n      dup3\n        /* \"contracts/test/Locker_Rewards.sol\":33183:33200  lockID == _lockID */\n      eq\n        /* \"contracts/test/Locker_Rewards.sol\":33183:33232  lockID == _lockID && userLock.owner == msg.sender */\n      dup1\n      iszero\n      tag_522\n      jumpi\n      pop\n        /* \"contracts/test/Locker_Rewards.sol\":33204:33218  userLock.owner */\n      0x05\n      dup2\n      add\n      sload\n      sub(shl(0xa0, 0x01), 0x01)\n      and\n        /* \"contracts/test/Locker_Rewards.sol\":33222:33232  msg.sender */\n      caller\n        /* \"contracts/test/Locker_Rewards.sol\":33204:33232  userLock.owner == msg.sender */\n      eq\n        /* \"contracts/test/Locker_Rewards.sol\":33183:33232  lockID == _lockID && userLock.owner == msg.sender */\n    tag_522:\n        /* \"contracts/test/Locker_Rewards.sol\":33161:33273  require(... */\n      tag_523\n      jumpi\n      mload(0x40)\n      shl(0xe5, 0x461bcd)\n      dup2\n      mstore\n      0x04\n      add\n      tag_184\n      swap1\n      tag_205\n      jump\t// in\n    tag_523:\n        /* \"contracts/test/Locker_Rewards.sol\":33338:33353  userLock.amount */\n      0x01\n      dup2\n      add\n      sload\n        /* \"contracts/test/Locker_Rewards.sol\":33338:33366  userLock.amount.sub(_amount) */\n      tag_525\n      swap1\n        /* \"contracts/test/Locker_Rewards.sol\":33358:33365  _amount */\n      dup5\n        /* \"contracts/test/Locker_Rewards.sol\":33338:33357  userLock.amount.sub */\n      tag_210\n        /* \"contracts/test/Locker_Rewards.sol\":33338:33366  userLock.amount.sub(_amount) */\n      jump\t// in\n    tag_525:\n        /* \"contracts/test/Locker_Rewards.sol\":33320:33335  userLock.amount */\n      0x01\n      dup3\n      add\n        /* \"contracts/test/Locker_Rewards.sol\":33320:33366  userLock.amount = userLock.amount.sub(_amount) */\n      dup2\n      swap1\n      sstore\n        /* \"contracts/test/Locker_Rewards.sol\":33433:33434  0 */\n      0x00\n        /* \"contracts/test/Locker_Rewards.sol\":33414:33434  userLock.amount == 0 */\n      sub\n        /* \"contracts/test/Locker_Rewards.sol\":33410:33767  if (userLock.amount == 0) {... */\n      tag_526\n      jumpi\n        /* \"contracts/test/Locker_Rewards.sol\":33487:33497  msg.sender */\n      caller\n        /* \"contracts/test/Locker_Rewards.sol\":33451:33478  uint256[] storage userLocks */\n      0x00\n        /* \"contracts/test/Locker_Rewards.sol\":33481:33498  users[msg.sender] */\n      swap1\n      dup2\n      mstore\n        /* \"contracts/test/Locker_Rewards.sol\":33481:33486  users */\n      0x03\n        /* \"contracts/test/Locker_Rewards.sol\":33481:33498  users[msg.sender] */\n      0x20\n      swap1\n      dup2\n      mstore\n      0x40\n      dup1\n      dup4\n      keccak256\n      sub(shl(0xa0, 0x01), 0x01)\n        /* \"contracts/test/Locker_Rewards.sol\":33481:33554  users[msg.sender].locksForToken[... */\n      dup11\n      and\n      dup5\n      mstore\n        /* \"contracts/test/Locker_Rewards.sol\":33481:33512  users[msg.sender].locksForToken */\n      0x01\n      swap1\n      dup2\n      add\n        /* \"contracts/test/Locker_Rewards.sol\":33481:33554  users[msg.sender].locksForToken[... */\n      swap1\n      swap3\n      mstore\n      swap1\n      swap2\n      keccak256\n        /* \"contracts/test/Locker_Rewards.sol\":33599:33615  userLocks.length */\n      dup1\n      sload\n        /* \"contracts/test/Locker_Rewards.sol\":33481:33554  users[msg.sender].locksForToken[... */\n      swap1\n      swap2\n      dup3\n      swap2\n        /* \"contracts/test/Locker_Rewards.sol\":33599:33619  userLocks.length - 1 */\n      tag_527\n      swap2\n        /* \"contracts/test/Locker_Rewards.sol\":33481:33512  users[msg.sender].locksForToken */\n      swap1\n        /* \"contracts/test/Locker_Rewards.sol\":33599:33619  userLocks.length - 1 */\n      tag_213\n      jump\t// in\n    tag_527:\n        /* \"contracts/test/Locker_Rewards.sol\":33589:33620  userLocks[userLocks.length - 1] */\n      dup2\n      sload\n      dup2\n      lt\n      tag_529\n      jumpi\n      tag_529\n      tag_177\n      jump\t// in\n    tag_529:\n      swap1\n      0x00\n      mstore\n      keccak256(0x00, 0x20)\n      add\n      sload\n        /* \"contracts/test/Locker_Rewards.sol\":33569:33578  userLocks */\n      dup2\n        /* \"contracts/test/Locker_Rewards.sol\":33579:33585  _index */\n      dup8\n        /* \"contracts/test/Locker_Rewards.sol\":33569:33586  userLocks[_index] */\n      dup2\n      sload\n      dup2\n      lt\n      tag_532\n      jumpi\n      tag_532\n      tag_177\n      jump\t// in\n    tag_532:\n      swap1\n      0x00\n      mstore\n      keccak256(0x00, 0x20)\n      add\n        /* \"contracts/test/Locker_Rewards.sol\":33569:33620  userLocks[_index] = userLocks[userLocks.length - 1] */\n      dup2\n      swap1\n      sstore\n      pop\n        /* \"contracts/test/Locker_Rewards.sol\":33635:33644  userLocks */\n      dup1\n        /* \"contracts/test/Locker_Rewards.sol\":33635:33650  userLocks.pop() */\n      dup1\n      sload\n      dup1\n      tag_535\n      jumpi\n      tag_535\n      tag_222\n      jump\t// in\n    tag_535:\n      0x01\n      swap1\n      sub\n      dup2\n      dup2\n      swap1\n      0x00\n      mstore\n      keccak256(0x00, 0x20)\n      add\n      0x00\n      swap1\n      sstore\n      swap1\n      sstore\n        /* \"contracts/test/Locker_Rewards.sol\":33669:33678  userLocks */\n      dup1\n        /* \"contracts/test/Locker_Rewards.sol\":33669:33685  userLocks.length */\n      dup1\n      sload\n      swap1\n      pop\n        /* \"contracts/test/Locker_Rewards.sol\":33689:33690  0 */\n      0x00\n        /* \"contracts/test/Locker_Rewards.sol\":33669:33690  userLocks.length == 0 */\n      sub\n        /* \"contracts/test/Locker_Rewards.sol\":33665:33756  if (userLocks.length == 0) {... */\n      tag_537\n      jumpi\n      sub(shl(0xa0, 0x01), 0x01)\n        /* \"contracts/test/Locker_Rewards.sol\":33711:33733  user_removed[_lpToken] */\n      dup8\n      and\n      0x00\n      swap1\n      dup2\n      mstore\n        /* \"contracts/test/Locker_Rewards.sol\":33711:33723  user_removed */\n      0x10\n        /* \"contracts/test/Locker_Rewards.sol\":33711:33733  user_removed[_lpToken] */\n      0x20\n      mstore\n      0x40\n      swap1\n      keccak256\n        /* \"contracts/test/Locker_Rewards.sol\":33711:33740  user_removed[_lpToken] = true */\n      dup1\n      sload\n      not(0xff)\n      and\n        /* \"contracts/test/Locker_Rewards.sol\":33736:33740  true */\n      0x01\n        /* \"contracts/test/Locker_Rewards.sol\":33711:33740  user_removed[_lpToken] = true */\n      or\n      swap1\n      sstore\n        /* \"contracts/test/Locker_Rewards.sol\":33665:33756  if (userLocks.length == 0) {... */\n    tag_537:\n        /* \"contracts/test/Locker_Rewards.sol\":33436:33767  {... */\n      pop\n        /* \"contracts/test/Locker_Rewards.sol\":33410:33767  if (userLock.amount == 0) {... */\n    tag_526:\n        /* \"contracts/test/Locker_Rewards.sol\":33824:33832  migrator */\n      sload(0x12)\n        /* \"contracts/test/Locker_Rewards.sol\":33779:33843  TransferHelper.safeApprove(_lpToken, address(migrator), _amount) */\n      tag_538\n      swap1\n        /* \"contracts/test/Locker_Rewards.sol\":33806:33814  _lpToken */\n      dup8\n      swap1\n      sub(shl(0xa0, 0x01), 0x01)\n        /* \"contracts/test/Locker_Rewards.sol\":33824:33832  migrator */\n      and\n        /* \"contracts/test/Locker_Rewards.sol\":33835:33842  _amount */\n      dup6\n        /* \"contracts/test/Locker_Rewards.sol\":33779:33805  TransferHelper.safeApprove */\n      tag_228\n        /* \"contracts/test/Locker_Rewards.sol\":33779:33843  TransferHelper.safeApprove(_lpToken, address(migrator), _amount) */\n      jump\t// in\n    tag_538:\n        /* \"contracts/test/Locker_Rewards.sol\":33854:33862  migrator */\n      sload(0x12)\n        /* \"contracts/test/Locker_Rewards.sol\":33890:33909  userLock.unlockDate */\n      0x03\n      dup3\n      add\n      sload\n        /* \"contracts/test/Locker_Rewards.sol\":33854:33922  migrator.migrate(_lpToken, _amount, userLock.unlockDate, msg.sender) */\n      mload(0x40)\n      shl(0xe0, 0xdb5ecd3f)\n      dup2\n      mstore\n      sub(shl(0xa0, 0x01), 0x01)\n        /* \"#utility.yul\":16836:16851   */\n      dup10\n      dup2\n      and\n        /* \"contracts/test/Locker_Rewards.sol\":33854:33922  migrator.migrate(_lpToken, _amount, userLock.unlockDate, msg.sender) */\n      0x04\n      dup4\n      add\n        /* \"#utility.yul\":16818:16852   */\n      mstore\n        /* \"#utility.yul\":16868:16886   */\n      0x24\n      dup3\n      add\n        /* \"#utility.yul\":16861:16895   */\n      dup8\n      swap1\n      mstore\n        /* \"#utility.yul\":16911:16929   */\n      0x44\n      dup3\n      add\n        /* \"#utility.yul\":16904:16938   */\n      swap3\n      swap1\n      swap3\n      mstore\n        /* \"contracts/test/Locker_Rewards.sol\":33911:33921  msg.sender */\n      caller\n        /* \"#utility.yul\":16954:16972   */\n      0x64\n      dup3\n      add\n        /* \"#utility.yul\":16947:16990   */\n      mstore\n        /* \"contracts/test/Locker_Rewards.sol\":33854:33862  migrator */\n      swap2\n      and\n      swap1\n        /* \"contracts/test/Locker_Rewards.sol\":33854:33870  migrator.migrate */\n      0xdb5ecd3f\n      swap1\n        /* \"#utility.yul\":16752:16771   */\n      0x84\n      add\n        /* \"contracts/test/Locker_Rewards.sol\":33854:33922  migrator.migrate(_lpToken, _amount, userLock.unlockDate, msg.sender) */\n      0x20\n      mload(0x40)\n      dup1\n      dup4\n      sub\n      dup2\n      0x00\n      dup8\n      gas\n      call\n      iszero\n      dup1\n      iszero\n      tag_542\n      jumpi\n      returndatasize\n      0x00\n      dup1\n      returndatacopy\n      revert(0x00, returndatasize)\n    tag_542:\n      pop\n      pop\n      pop\n      pop\n      mload(0x40)\n      returndatasize\n      not(0x1f)\n      0x1f\n      dup3\n      add\n      and\n      dup3\n      add\n      dup1\n      0x40\n      mstore\n      pop\n      dup2\n      add\n      swap1\n      tag_543\n      swap2\n      swap1\n      tag_544\n      jump\t// in\n    tag_543:\n      pop\n      pop\n        /* \"contracts/test/Locker_Rewards.sol\":6431:6432  1 */\n      0x01\n        /* \"contracts/test/Locker_Rewards.sol\":7383:7405  _status = _NOT_ENTERED */\n      dup1\n      sstore\n      pop\n      pop\n      pop\n      pop\n      pop\n        /* \"contracts/test/Locker_Rewards.sol\":32689:33930  function migrate(... */\n      jump\t// out\n        /* \"contracts/test/Locker_Rewards.sol\":16790:16995  function setReferralTokenAndHold(IERCBurn _referralToken, uint256 _hold)... */\n    tag_169:\n        /* \"contracts/test/Locker_Rewards.sol\":2442:2448  _owner */\n      and(sub(shl(0xa0, 0x01), 0x01), sload(0x00))\n        /* \"contracts/test/Locker_Rewards.sol\":931:941  msg.sender */\n      caller\n        /* \"contracts/test/Locker_Rewards.sol\":2442:2464  _owner == _msgSender() */\n      eq\n        /* \"contracts/test/Locker_Rewards.sol\":2434:2501  require(_owner == _msgSender(), \"Ownable: caller is not the owner\") */\n      tag_547\n      jumpi\n      mload(0x40)\n      shl(0xe5, 0x461bcd)\n      dup2\n      mstore\n      0x04\n      add\n      tag_184\n      swap1\n      tag_185\n      jump\t// in\n    tag_547:\n        /* \"contracts/test/Locker_Rewards.sol\":16914:16933  gFees.referralToken */\n      0x0b\n        /* \"contracts/test/Locker_Rewards.sol\":16914:16950  gFees.referralToken = _referralToken */\n      dup1\n      sload\n      not(sub(shl(0xa0, 0x01), 0x01))\n      and\n      sub(shl(0xa0, 0x01), 0x01)\n      swap4\n      swap1\n      swap4\n      and\n      swap3\n      swap1\n      swap3\n      or\n      swap1\n      swap2\n      sstore\n        /* \"contracts/test/Locker_Rewards.sol\":16961:16979  gFees.referralHold */\n      0x0c\n        /* \"contracts/test/Locker_Rewards.sol\":16961:16987  gFees.referralHold = _hold */\n      sstore\n        /* \"contracts/test/Locker_Rewards.sol\":16790:16995  function setReferralTokenAndHold(IERCBurn _referralToken, uint256 _hold)... */\n      jump\t// out\n        /* \"contracts/test/Locker_Rewards.sol\":3175:3456  function transferOwnership(address newOwner) public virtual onlyOwner {... */\n    tag_173:\n        /* \"contracts/test/Locker_Rewards.sol\":2442:2448  _owner */\n      and(sub(shl(0xa0, 0x01), 0x01), sload(0x00))\n        /* \"contracts/test/Locker_Rewards.sol\":931:941  msg.sender */\n      caller\n        /* \"contracts/test/Locker_Rewards.sol\":2442:2464  _owner == _msgSender() */\n      eq\n        /* \"contracts/test/Locker_Rewards.sol\":2434:2501  require(_owner == _msgSender(), \"Ownable: caller is not the owner\") */\n      tag_552\n      jumpi\n      mload(0x40)\n      shl(0xe5, 0x461bcd)\n      dup2\n      mstore\n      0x04\n      add\n      tag_184\n      swap1\n      tag_185\n      jump\t// in\n    tag_552:\n      sub(shl(0xa0, 0x01), 0x01)\n        /* \"contracts/test/Locker_Rewards.sol\":3278:3300  newOwner != address(0) */\n      dup2\n      and\n        /* \"contracts/test/Locker_Rewards.sol\":3256:3366  require(... */\n      tag_555\n      jumpi\n      mload(0x40)\n      shl(0xe5, 0x461bcd)\n      dup2\n      mstore\n        /* \"#utility.yul\":17453:17455   */\n      0x20\n        /* \"contracts/test/Locker_Rewards.sol\":3256:3366  require(... */\n      0x04\n      dup3\n      add\n        /* \"#utility.yul\":17435:17456   */\n      mstore\n        /* \"#utility.yul\":17492:17494   */\n      0x26\n        /* \"#utility.yul\":17472:17490   */\n      0x24\n      dup3\n      add\n        /* \"#utility.yul\":17465:17495   */\n      mstore\n        /* \"#utility.yul\":17531:17565   */\n      0x4f776e61626c653a206e6577206f776e657220697320746865207a65726f2061\n        /* \"#utility.yul\":17511:17529   */\n      0x44\n      dup3\n      add\n        /* \"#utility.yul\":17504:17566   */\n      mstore\n      shl(0xd0, 0x646472657373)\n        /* \"#utility.yul\":17582:17600   */\n      0x64\n      dup3\n      add\n        /* \"#utility.yul\":17575:17611   */\n      mstore\n        /* \"#utility.yul\":17628:17647   */\n      0x84\n      add\n        /* \"contracts/test/Locker_Rewards.sol\":3256:3366  require(... */\n      tag_184\n        /* \"#utility.yul\":17251:17653   */\n      jump\n        /* \"contracts/test/Locker_Rewards.sol\":3256:3366  require(... */\n    tag_555:\n        /* \"contracts/test/Locker_Rewards.sol\":3403:3409  _owner */\n      0x00\n      dup1\n      sload\n        /* \"contracts/test/Locker_Rewards.sol\":3382:3420  OwnershipTransferred(_owner, newOwner) */\n      mload(0x40)\n      sub(shl(0xa0, 0x01), 0x01)\n      dup1\n      dup6\n      and\n      swap4\n        /* \"contracts/test/Locker_Rewards.sol\":3403:3409  _owner */\n      swap3\n      and\n      swap2\n        /* \"contracts/test/Locker_Rewards.sol\":3382:3420  OwnershipTransferred(_owner, newOwner) */\n      0x8be0079c531659141344cd1fd0a4f28419497f9722a3daafe3b4186f6b6457e0\n      swap2\n      log3\n        /* \"contracts/test/Locker_Rewards.sol\":3431:3437  _owner */\n      0x00\n        /* \"contracts/test/Locker_Rewards.sol\":3431:3448  _owner = newOwner */\n      dup1\n      sload\n      not(sub(shl(0xa0, 0x01), 0x01))\n      and\n      sub(shl(0xa0, 0x01), 0x01)\n      swap3\n      swap1\n      swap3\n      and\n      swap2\n      swap1\n      swap2\n      or\n      swap1\n      sstore\n        /* \"contracts/test/Locker_Rewards.sol\":3175:3456  function transferOwnership(address newOwner) public virtual onlyOwner {... */\n      jump\t// out\n        /* \"contracts/test/Locker_Rewards.sol\":8724:8860  function sub(uint256 a, uint256 b) internal pure returns (uint256) {... */\n    tag_210:\n        /* \"contracts/test/Locker_Rewards.sol\":8782:8789  uint256 */\n      0x00\n        /* \"contracts/test/Locker_Rewards.sol\":8809:8852  sub(a, b, \"SafeMath: subtraction overflow\") */\n      tag_560\n        /* \"contracts/test/Locker_Rewards.sol\":8813:8814  a */\n      dup4\n        /* \"contracts/test/Locker_Rewards.sol\":8816:8817  b */\n      dup4\n        /* \"contracts/test/Locker_Rewards.sol\":8809:8852  sub(a, b, \"SafeMath: subtraction overflow\") */\n      mload(0x40)\n      dup1\n      0x40\n      add\n      0x40\n      mstore\n      dup1\n      0x1e\n      dup2\n      mstore\n      0x20\n      add\n      0x536166654d6174683a207375627472616374696f6e206f766572666c6f770000\n      dup2\n      mstore\n      pop\n        /* \"contracts/test/Locker_Rewards.sol\":8809:8812  sub */\n      tag_561\n        /* \"contracts/test/Locker_Rewards.sol\":8809:8852  sub(a, b, \"SafeMath: subtraction overflow\") */\n      jump\t// in\n    tag_560:\n        /* \"contracts/test/Locker_Rewards.sol\":8802:8852  return sub(a, b, \"SafeMath: subtraction overflow\") */\n      swap4\n        /* \"contracts/test/Locker_Rewards.sol\":8724:8860  function sub(uint256 a, uint256 b) internal pure returns (uint256) {... */\n      swap3\n      pop\n      pop\n      pop\n      jump\t// out\n        /* \"contracts/test/Locker_Rewards.sol\":3589:3979  function safeApprove(... */\n    tag_228:\n        /* \"contracts/test/Locker_Rewards.sol\":3707:3719  bool success */\n      0x00\n        /* \"contracts/test/Locker_Rewards.sol\":3721:3738  bytes memory data */\n      dup1\n        /* \"contracts/test/Locker_Rewards.sol\":3742:3747  token */\n      dup5\n      sub(shl(0xa0, 0x01), 0x01)\n        /* \"contracts/test/Locker_Rewards.sol\":3742:3752  token.call */\n      and\n        /* \"contracts/test/Locker_Rewards.sol\":3790:3800  0x095ea7b3 */\n      0x095ea7b3\n        /* \"contracts/test/Locker_Rewards.sol\":3802:3804  to */\n      dup6\n        /* \"contracts/test/Locker_Rewards.sol\":3806:3811  value */\n      dup6\n        /* \"contracts/test/Locker_Rewards.sol\":3767:3812  abi.encodeWithSelector(0x095ea7b3, to, value) */\n      add(0x24, mload(0x40))\n      tag_563\n      swap3\n      swap2\n      swap1\n      tag_234\n      jump\t// in\n    tag_563:\n      mload(0x40)\n      0x20\n      dup2\n      dup4\n      sub\n      sub\n      dup2\n      mstore\n      swap1\n      0x40\n      mstore\n      swap1\n      0xe0\n      shl\n      0x20\n      dup3\n      add\n      dup1\n      mload\n      sub(shl(0xe0, 0x01), 0x01)\n      dup4\n      dup2\n      dup4\n      and\n      or\n      dup4\n      mstore\n      pop\n      pop\n      pop\n      pop\n        /* \"contracts/test/Locker_Rewards.sol\":3742:3823  token.call(... */\n      mload(0x40)\n      tag_565\n      swap2\n      swap1\n      tag_566\n      jump\t// in\n    tag_565:\n      0x00\n      mload(0x40)\n      dup1\n      dup4\n      sub\n      dup2\n      0x00\n      dup7\n      gas\n      call\n      swap2\n      pop\n      pop\n      returndatasize\n      dup1\n      0x00\n      dup2\n      eq\n      tag_569\n      jumpi\n      mload(0x40)\n      swap2\n      pop\n      and(add(returndatasize, 0x3f), not(0x1f))\n      dup3\n      add\n      0x40\n      mstore\n      returndatasize\n      dup3\n      mstore\n      returndatasize\n      0x00\n      0x20\n      dup5\n      add\n      returndatacopy\n      jump(tag_568)\n    tag_569:\n      0x60\n      swap2\n      pop\n    tag_568:\n      pop\n        /* \"contracts/test/Locker_Rewards.sol\":3706:3823  (bool success, bytes memory data) = token.call(... */\n      swap2\n      pop\n      swap2\n      pop\n        /* \"contracts/test/Locker_Rewards.sol\":3856:3863  success */\n      dup2\n        /* \"contracts/test/Locker_Rewards.sol\":3856:3913  success && (data.length == 0 || abi.decode(data, (bool))) */\n      dup1\n      iszero\n      tag_572\n      jumpi\n      pop\n        /* \"contracts/test/Locker_Rewards.sol\":3868:3879  data.length */\n      dup1\n      mload\n        /* \"contracts/test/Locker_Rewards.sol\":3868:3884  data.length == 0 */\n      iszero\n      dup1\n        /* \"contracts/test/Locker_Rewards.sol\":3868:3912  data.length == 0 || abi.decode(data, (bool)) */\n      tag_572\n      jumpi\n      pop\n        /* \"contracts/test/Locker_Rewards.sol\":3899:3903  data */\n      dup1\n        /* \"contracts/test/Locker_Rewards.sol\":3888:3912  abi.decode(data, (bool)) */\n      dup1\n      0x20\n      add\n      swap1\n      mload\n      dup2\n      add\n      swap1\n      tag_572\n      swap2\n      swap1\n      tag_544\n      jump\t// in\n    tag_572:\n        /* \"contracts/test/Locker_Rewards.sol\":3834:3971  require(... */\n      tag_573\n      jumpi\n      mload(0x40)\n      shl(0xe5, 0x461bcd)\n      dup2\n      mstore\n        /* \"#utility.yul\":18681:18683   */\n      0x20\n        /* \"contracts/test/Locker_Rewards.sol\":3834:3971  require(... */\n      0x04\n      dup3\n      add\n        /* \"#utility.yul\":18663:18684   */\n      mstore\n        /* \"#utility.yul\":18720:18722   */\n      0x1e\n        /* \"#utility.yul\":18700:18718   */\n      0x24\n      dup3\n      add\n        /* \"#utility.yul\":18693:18723   */\n      mstore\n        /* \"#utility.yul\":18759:18791   */\n      0x5472616e7366657248656c7065723a20415050524f56455f4641494c45440000\n        /* \"#utility.yul\":18739:18757   */\n      0x44\n      dup3\n      add\n        /* \"#utility.yul\":18732:18792   */\n      mstore\n        /* \"#utility.yul\":18809:18827   */\n      0x64\n      add\n        /* \"contracts/test/Locker_Rewards.sol\":3834:3971  require(... */\n      tag_184\n        /* \"#utility.yul\":18479:18833   */\n      jump\n        /* \"contracts/test/Locker_Rewards.sol\":3834:3971  require(... */\n    tag_573:\n        /* \"contracts/test/Locker_Rewards.sol\":3695:3979  {... */\n      pop\n      pop\n        /* \"contracts/test/Locker_Rewards.sol\":3589:3979  function safeApprove(... */\n      pop\n      pop\n      pop\n      jump\t// out\n        /* \"contracts/test/Locker_Rewards.sol\":3987:4379  function safeTransfer(... */\n    tag_230:\n        /* \"contracts/test/Locker_Rewards.sol\":4106:4118  bool success */\n      0x00\n        /* \"contracts/test/Locker_Rewards.sol\":4120:4137  bytes memory data */\n      dup1\n        /* \"contracts/test/Locker_Rewards.sol\":4141:4146  token */\n      dup5\n      sub(shl(0xa0, 0x01), 0x01)\n        /* \"contracts/test/Locker_Rewards.sol\":4141:4151  token.call */\n      and\n        /* \"contracts/test/Locker_Rewards.sol\":4189:4199  0xa9059cbb */\n      0xa9059cbb\n        /* \"contracts/test/Locker_Rewards.sol\":4201:4203  to */\n      dup6\n        /* \"contracts/test/Locker_Rewards.sol\":4205:4210  value */\n      dup6\n        /* \"contracts/test/Locker_Rewards.sol\":4166:4211  abi.encodeWithSelector(0xa9059cbb, to, value) */\n      add(0x24, mload(0x40))\n      tag_577\n      swap3\n      swap2\n      swap1\n      tag_234\n      jump\t// in\n    tag_577:\n      mload(0x40)\n      0x20\n      dup2\n      dup4\n      sub\n      sub\n      dup2\n      mstore\n      swap1\n      0x40\n      mstore\n      swap1\n      0xe0\n      shl\n      0x20\n      dup3\n      add\n      dup1\n      mload\n      sub(shl(0xe0, 0x01), 0x01)\n      dup4\n      dup2\n      dup4\n      and\n      or\n      dup4\n      mstore\n      pop\n      pop\n      pop\n      pop\n        /* \"contracts/test/Locker_Rewards.sol\":4141:4222  token.call(... */\n      mload(0x40)\n      tag_578\n      swap2\n      swap1\n      tag_566\n      jump\t// in\n    tag_578:\n      0x00\n      mload(0x40)\n      dup1\n      dup4\n      sub\n      dup2\n      0x00\n      dup7\n      gas\n      call\n      swap2\n      pop\n      pop\n      returndatasize\n      dup1\n      0x00\n      dup2\n      eq\n      tag_581\n      jumpi\n      mload(0x40)\n      swap2\n      pop\n      and(add(returndatasize, 0x3f), not(0x1f))\n      dup3\n      add\n      0x40\n      mstore\n      returndatasize\n      dup3\n      mstore\n      returndatasize\n      0x00\n      0x20\n      dup5\n      add\n      returndatacopy\n      jump(tag_580)\n    tag_581:\n      0x60\n      swap2\n      pop\n    tag_580:\n      pop\n        /* \"contracts/test/Locker_Rewards.sol\":4105:4222  (bool success, bytes memory data) = token.call(... */\n      swap2\n      pop\n      swap2\n      pop\n        /* \"contracts/test/Locker_Rewards.sol\":4255:4262  success */\n      dup2\n        /* \"contracts/test/Locker_Rewards.sol\":4255:4312  success && (data.length == 0 || abi.decode(data, (bool))) */\n      dup1\n      iszero\n      tag_584\n      jumpi\n      pop\n        /* \"contracts/test/Locker_Rewards.sol\":4267:4278  data.length */\n      dup1\n      mload\n        /* \"contracts/test/Locker_Rewards.sol\":4267:4283  data.length == 0 */\n      iszero\n      dup1\n        /* \"contracts/test/Locker_Rewards.sol\":4267:4311  data.length == 0 || abi.decode(data, (bool)) */\n      tag_584\n      jumpi\n      pop\n        /* \"contracts/test/Locker_Rewards.sol\":4298:4302  data */\n      dup1\n        /* \"contracts/test/Locker_Rewards.sol\":4287:4311  abi.decode(data, (bool)) */\n      dup1\n      0x20\n      add\n      swap1\n      mload\n      dup2\n      add\n      swap1\n      tag_584\n      swap2\n      swap1\n      tag_544\n      jump\t// in\n    tag_584:\n        /* \"contracts/test/Locker_Rewards.sol\":4233:4371  require(... */\n      tag_573\n      jumpi\n      mload(0x40)\n      shl(0xe5, 0x461bcd)\n      dup2\n      mstore\n        /* \"#utility.yul\":19040:19042   */\n      0x20\n        /* \"contracts/test/Locker_Rewards.sol\":4233:4371  require(... */\n      0x04\n      dup3\n      add\n        /* \"#utility.yul\":19022:19043   */\n      mstore\n        /* \"#utility.yul\":19079:19081   */\n      0x1f\n        /* \"#utility.yul\":19059:19077   */\n      0x24\n      dup3\n      add\n        /* \"#utility.yul\":19052:19082   */\n      mstore\n        /* \"#utility.yul\":19118:19151   */\n      0x5472616e7366657248656c7065723a205452414e534645525f4641494c454400\n        /* \"#utility.yul\":19098:19116   */\n      0x44\n      dup3\n      add\n        /* \"#utility.yul\":19091:19152   */\n      mstore\n        /* \"#utility.yul\":19169:19187   */\n      0x64\n      add\n        /* \"contracts/test/Locker_Rewards.sol\":4233:4371  require(... */\n      tag_184\n        /* \"#utility.yul\":18838:19193   */\n      jump\n        /* \"contracts/test/Locker_Rewards.sol\":9648:10119  function mul(uint256 a, uint256 b) internal pure returns (uint256) {... */\n    tag_289:\n        /* \"contracts/test/Locker_Rewards.sol\":9706:9713  uint256 */\n      0x00\n        /* \"contracts/test/Locker_Rewards.sol\":9951:9952  a */\n      dup3\n        /* \"contracts/test/Locker_Rewards.sol\":9956:9957  0 */\n      0x00\n        /* \"contracts/test/Locker_Rewards.sol\":9951:9957  a == 0 */\n      sub\n        /* \"contracts/test/Locker_Rewards.sol\":9947:9994  if (a == 0) {... */\n      tag_589\n      jumpi\n      pop\n        /* \"contracts/test/Locker_Rewards.sol\":9981:9982  0 */\n      0x00\n        /* \"contracts/test/Locker_Rewards.sol\":9974:9982  return 0 */\n      jump(tag_174)\n        /* \"contracts/test/Locker_Rewards.sol\":9947:9994  if (a == 0) {... */\n    tag_589:\n        /* \"contracts/test/Locker_Rewards.sol\":10006:10015  uint256 c */\n      0x00\n        /* \"contracts/test/Locker_Rewards.sol\":10018:10023  a * b */\n      tag_590\n        /* \"contracts/test/Locker_Rewards.sol\":10022:10023  b */\n      dup4\n        /* \"contracts/test/Locker_Rewards.sol\":10018:10019  a */\n      dup6\n        /* \"contracts/test/Locker_Rewards.sol\":10018:10023  a * b */\n      tag_591\n      jump\t// in\n    tag_590:\n        /* \"contracts/test/Locker_Rewards.sol\":10006:10023  uint256 c = a * b */\n      swap1\n      pop\n        /* \"contracts/test/Locker_Rewards.sol\":10051:10052  b */\n      dup3\n        /* \"contracts/test/Locker_Rewards.sol\":10042:10047  c / a */\n      tag_592\n        /* \"contracts/test/Locker_Rewards.sol\":10046:10047  a */\n      dup6\n        /* \"contracts/test/Locker_Rewards.sol\":10006:10023  uint256 c = a * b */\n      dup4\n        /* \"contracts/test/Locker_Rewards.sol\":10042:10047  c / a */\n      tag_593\n      jump\t// in\n    tag_592:\n        /* \"contracts/test/Locker_Rewards.sol\":10042:10052  c / a == b */\n      eq\n        /* \"contracts/test/Locker_Rewards.sol\":10034:10090  require(c / a == b, \"SafeMath: multiplication overflow\") */\n      tag_560\n      jumpi\n      mload(0x40)\n      shl(0xe5, 0x461bcd)\n      dup2\n      mstore\n        /* \"#utility.yul\":19795:19797   */\n      0x20\n        /* \"contracts/test/Locker_Rewards.sol\":10034:10090  require(c / a == b, \"SafeMath: multiplication overflow\") */\n      0x04\n      dup3\n      add\n        /* \"#utility.yul\":19777:19798   */\n      mstore\n        /* \"#utility.yul\":19834:19836   */\n      0x21\n        /* \"#utility.yul\":19814:19832   */\n      0x24\n      dup3\n      add\n        /* \"#utility.yul\":19807:19837   */\n      mstore\n        /* \"#utility.yul\":19873:19907   */\n      0x536166654d6174683a206d756c7469706c69636174696f6e206f766572666c6f\n        /* \"#utility.yul\":19853:19871   */\n      0x44\n      dup3\n      add\n        /* \"#utility.yul\":19846:19908   */\n      mstore\n      shl(0xf8, 0x77)\n        /* \"#utility.yul\":19924:19942   */\n      0x64\n      dup3\n      add\n        /* \"#utility.yul\":19917:19948   */\n      mstore\n        /* \"#utility.yul\":19965:19984   */\n      0x84\n      add\n        /* \"contracts/test/Locker_Rewards.sol\":10034:10090  require(c / a == b, \"SafeMath: multiplication overflow\") */\n      tag_184\n        /* \"#utility.yul\":19593:19990   */\n      jump\n        /* \"contracts/test/Locker_Rewards.sol\":10595:10727  function div(uint256 a, uint256 b) internal pure returns (uint256) {... */\n    tag_292:\n        /* \"contracts/test/Locker_Rewards.sol\":10653:10660  uint256 */\n      0x00\n        /* \"contracts/test/Locker_Rewards.sol\":10680:10719  div(a, b, \"SafeMath: division by zero\") */\n      tag_560\n        /* \"contracts/test/Locker_Rewards.sol\":10684:10685  a */\n      dup4\n        /* \"contracts/test/Locker_Rewards.sol\":10687:10688  b */\n      dup4\n        /* \"contracts/test/Locker_Rewards.sol\":10680:10719  div(a, b, \"SafeMath: division by zero\") */\n      mload(0x40)\n      dup1\n      0x40\n      add\n      0x40\n      mstore\n      dup1\n      0x1a\n      dup2\n      mstore\n      0x20\n      add\n      shl(0x30, 0x536166654d6174683a206469766973696f6e206279207a65726f)\n      dup2\n      mstore\n      pop\n        /* \"contracts/test/Locker_Rewards.sol\":10680:10683  div */\n      tag_599\n        /* \"contracts/test/Locker_Rewards.sol\":10680:10719  div(a, b, \"SafeMath: division by zero\") */\n      jump\t// in\n        /* \"contracts/test/Locker_Rewards.sol\":4387:4817  function safeTransferFrom(... */\n    tag_339:\n        /* \"contracts/test/Locker_Rewards.sol\":4593:4644  abi.encodeWithSelector(0x23b872dd, from, to, value) */\n      0x40\n      dup1\n      mload\n      sub(shl(0xa0, 0x01), 0x01)\n        /* \"#utility.yul\":20253:20268   */\n      dup6\n      dup2\n      and\n        /* \"contracts/test/Locker_Rewards.sol\":4593:4644  abi.encodeWithSelector(0x23b872dd, from, to, value) */\n      0x24\n      dup4\n      add\n        /* \"#utility.yul\":20235:20269   */\n      mstore\n        /* \"#utility.yul\":20305:20320   */\n      dup5\n      dup2\n      and\n        /* \"#utility.yul\":20285:20303   */\n      0x44\n      dup4\n      add\n        /* \"#utility.yul\":20278:20321   */\n      mstore\n        /* \"#utility.yul\":20337:20355   */\n      0x64\n      dup1\n      dup4\n      add\n        /* \"#utility.yul\":20330:20364   */\n      dup6\n      swap1\n      mstore\n        /* \"contracts/test/Locker_Rewards.sol\":4593:4644  abi.encodeWithSelector(0x23b872dd, from, to, value) */\n      dup4\n      mload\n      dup1\n      dup5\n      sub\n      swap1\n      swap2\n      add\n      dup2\n      mstore\n        /* \"#utility.yul\":20170:20188   */\n      0x84\n      swap1\n      swap3\n      add\n        /* \"contracts/test/Locker_Rewards.sol\":4593:4644  abi.encodeWithSelector(0x23b872dd, from, to, value) */\n      dup4\n      mstore\n      0x20\n      dup3\n      add\n      dup1\n      mload\n      sub(shl(0xe0, 0x01), 0x01)\n      and\n      shl(0xe0, 0x23b872dd)\n      or\n      swap1\n      mstore\n        /* \"contracts/test/Locker_Rewards.sol\":4568:4655  token.call(... */\n      swap2\n      mload\n      0x00\n      swap3\n      dup4\n      swap3\n        /* \"contracts/test/Locker_Rewards.sol\":4568:4578  token.call */\n      swap1\n      dup9\n      and\n      swap2\n        /* \"contracts/test/Locker_Rewards.sol\":4568:4655  token.call(... */\n      tag_603\n      swap2\n        /* \"contracts/test/Locker_Rewards.sol\":4593:4644  abi.encodeWithSelector(0x23b872dd, from, to, value) */\n      swap1\n        /* \"contracts/test/Locker_Rewards.sol\":4568:4655  token.call(... */\n      tag_566\n      jump\t// in\n    tag_603:\n      0x00\n      mload(0x40)\n      dup1\n      dup4\n      sub\n      dup2\n      0x00\n      dup7\n      gas\n      call\n      swap2\n      pop\n      pop\n      returndatasize\n      dup1\n      0x00\n      dup2\n      eq\n      tag_606\n      jumpi\n      mload(0x40)\n      swap2\n      pop\n      and(add(returndatasize, 0x3f), not(0x1f))\n      dup3\n      add\n      0x40\n      mstore\n      returndatasize\n      dup3\n      mstore\n      returndatasize\n      0x00\n      0x20\n      dup5\n      add\n      returndatacopy\n      jump(tag_605)\n    tag_606:\n      0x60\n      swap2\n      pop\n    tag_605:\n      pop\n        /* \"contracts/test/Locker_Rewards.sol\":4532:4655  (bool success, bytes memory data) = token.call(... */\n      swap2\n      pop\n      swap2\n      pop\n        /* \"contracts/test/Locker_Rewards.sol\":4688:4695  success */\n      dup2\n        /* \"contracts/test/Locker_Rewards.sol\":4688:4745  success && (data.length == 0 || abi.decode(data, (bool))) */\n      dup1\n      iszero\n      tag_609\n      jumpi\n      pop\n        /* \"contracts/test/Locker_Rewards.sol\":4700:4711  data.length */\n      dup1\n      mload\n        /* \"contracts/test/Locker_Rewards.sol\":4700:4716  data.length == 0 */\n      iszero\n      dup1\n        /* \"contracts/test/Locker_Rewards.sol\":4700:4744  data.length == 0 || abi.decode(data, (bool)) */\n      tag_609\n      jumpi\n      pop\n        /* \"contracts/test/Locker_Rewards.sol\":4731:4735  data */\n      dup1\n        /* \"contracts/test/Locker_Rewards.sol\":4720:4744  abi.decode(data, (bool)) */\n      dup1\n      0x20\n      add\n      swap1\n      mload\n      dup2\n      add\n      swap1\n      tag_609\n      swap2\n      swap1\n      tag_544\n      jump\t// in\n    tag_609:\n        /* \"contracts/test/Locker_Rewards.sol\":4666:4809  require(... */\n      tag_610\n      jumpi\n      mload(0x40)\n      shl(0xe5, 0x461bcd)\n      dup2\n      mstore\n        /* \"#utility.yul\":20577:20579   */\n      0x20\n        /* \"contracts/test/Locker_Rewards.sol\":4666:4809  require(... */\n      0x04\n      dup3\n      add\n        /* \"#utility.yul\":20559:20580   */\n      mstore\n        /* \"#utility.yul\":20616:20618   */\n      0x24\n        /* \"#utility.yul\":20596:20614   */\n      dup1\n      dup3\n      add\n        /* \"#utility.yul\":20589:20619   */\n      mstore\n        /* \"#utility.yul\":20655:20689   */\n      0x5472616e7366657248656c7065723a205452414e534645525f46524f4d5f4641\n        /* \"#utility.yul\":20635:20653   */\n      0x44\n      dup3\n      add\n        /* \"#utility.yul\":20628:20690   */\n      mstore\n      shl(0xe2, 0x12531151)\n        /* \"#utility.yul\":20706:20724   */\n      0x64\n      dup3\n      add\n        /* \"#utility.yul\":20699:20733   */\n      mstore\n        /* \"#utility.yul\":20750:20769   */\n      0x84\n      add\n        /* \"contracts/test/Locker_Rewards.sol\":4666:4809  require(... */\n      tag_184\n        /* \"#utility.yul\":20375:20775   */\n      jump\n        /* \"contracts/test/Locker_Rewards.sol\":4666:4809  require(... */\n    tag_610:\n        /* \"contracts/test/Locker_Rewards.sol\":4521:4817  {... */\n      pop\n      pop\n        /* \"contracts/test/Locker_Rewards.sol\":4387:4817  function safeTransferFrom(... */\n      pop\n      pop\n      pop\n      pop\n      jump\t// out\n        /* \"contracts/test/Locker_Rewards.sol\":8260:8441  function add(uint256 a, uint256 b) internal pure returns (uint256) {... */\n    tag_461:\n        /* \"contracts/test/Locker_Rewards.sol\":8318:8325  uint256 */\n      0x00\n      dup1\n        /* \"contracts/test/Locker_Rewards.sol\":8350:8355  a + b */\n      tag_614\n        /* \"contracts/test/Locker_Rewards.sol\":8354:8355  b */\n      dup4\n        /* \"contracts/test/Locker_Rewards.sol\":8350:8351  a */\n      dup6\n        /* \"contracts/test/Locker_Rewards.sol\":8350:8355  a + b */\n      tag_615\n      jump\t// in\n    tag_614:\n        /* \"contracts/test/Locker_Rewards.sol\":8338:8355  uint256 c = a + b */\n      swap1\n      pop\n        /* \"contracts/test/Locker_Rewards.sol\":8379:8380  a */\n      dup4\n        /* \"contracts/test/Locker_Rewards.sol\":8374:8375  c */\n      dup2\n        /* \"contracts/test/Locker_Rewards.sol\":8374:8380  c >= a */\n      lt\n      iszero\n        /* \"contracts/test/Locker_Rewards.sol\":8366:8412  require(c >= a, \"SafeMath: addition overflow\") */\n      tag_560\n      jumpi\n      mload(0x40)\n      shl(0xe5, 0x461bcd)\n      dup2\n      mstore\n        /* \"#utility.yul\":21115:21117   */\n      0x20\n        /* \"contracts/test/Locker_Rewards.sol\":8366:8412  require(c >= a, \"SafeMath: addition overflow\") */\n      0x04\n      dup3\n      add\n        /* \"#utility.yul\":21097:21118   */\n      mstore\n        /* \"#utility.yul\":21154:21156   */\n      0x1b\n        /* \"#utility.yul\":21134:21152   */\n      0x24\n      dup3\n      add\n        /* \"#utility.yul\":21127:21157   */\n      mstore\n      shl(0x28, 0x536166654d6174683a206164646974696f6e206f766572666c6f77)\n        /* \"#utility.yul\":21173:21191   */\n      0x44\n      dup3\n      add\n        /* \"#utility.yul\":21166:21223   */\n      mstore\n        /* \"#utility.yul\":21240:21258   */\n      0x64\n      add\n        /* \"contracts/test/Locker_Rewards.sol\":8366:8412  require(c >= a, \"SafeMath: addition overflow\") */\n      tag_184\n        /* \"#utility.yul\":20913:21264   */\n      jump\n        /* \"contracts/test/Locker_Rewards.sol\":9163:9389  function sub(... */\n    tag_561:\n        /* \"contracts/test/Locker_Rewards.sol\":9283:9290  uint256 */\n      0x00\n        /* \"contracts/test/Locker_Rewards.sol\":9319:9331  errorMessage */\n      dup2\n        /* \"contracts/test/Locker_Rewards.sol\":9311:9317  b <= a */\n      dup5\n      dup5\n      gt\n      iszero\n        /* \"contracts/test/Locker_Rewards.sol\":9303:9332  require(b <= a, errorMessage) */\n      tag_620\n      jumpi\n      mload(0x40)\n      shl(0xe5, 0x461bcd)\n      dup2\n      mstore\n      0x04\n      add\n      tag_184\n      swap2\n      swap1\n      tag_622\n      jump\t// in\n    tag_620:\n      pop\n        /* \"contracts/test/Locker_Rewards.sol\":9343:9352  uint256 c */\n      0x00\n        /* \"contracts/test/Locker_Rewards.sol\":9355:9360  a - b */\n      tag_623\n        /* \"contracts/test/Locker_Rewards.sol\":9359:9360  b */\n      dup5\n        /* \"contracts/test/Locker_Rewards.sol\":9355:9356  a */\n      dup7\n        /* \"contracts/test/Locker_Rewards.sol\":9355:9360  a - b */\n      tag_213\n      jump\t// in\n    tag_623:\n        /* \"contracts/test/Locker_Rewards.sol\":9343:9360  uint256 c = a - b */\n      swap6\n        /* \"contracts/test/Locker_Rewards.sol\":9163:9389  function sub(... */\n      swap5\n      pop\n      pop\n      pop\n      pop\n      pop\n      jump\t// out\n        /* \"contracts/test/Locker_Rewards.sol\":11223:11535  function div(... */\n    tag_599:\n        /* \"contracts/test/Locker_Rewards.sol\":11343:11350  uint256 */\n      0x00\n        /* \"contracts/test/Locker_Rewards.sol\":11378:11390  errorMessage */\n      dup2\n        /* \"contracts/test/Locker_Rewards.sol\":11371:11376  b > 0 */\n      dup4\n        /* \"contracts/test/Locker_Rewards.sol\":11363:11391  require(b > 0, errorMessage) */\n      tag_625\n      jumpi\n      mload(0x40)\n      shl(0xe5, 0x461bcd)\n      dup2\n      mstore\n      0x04\n      add\n      tag_184\n      swap2\n      swap1\n      tag_622\n      jump\t// in\n    tag_625:\n      pop\n        /* \"contracts/test/Locker_Rewards.sol\":11402:11411  uint256 c */\n      0x00\n        /* \"contracts/test/Locker_Rewards.sol\":11414:11419  a / b */\n      tag_623\n        /* \"contracts/test/Locker_Rewards.sol\":11418:11419  b */\n      dup5\n        /* \"contracts/test/Locker_Rewards.sol\":11414:11415  a */\n      dup7\n        /* \"contracts/test/Locker_Rewards.sol\":11414:11419  a / b */\n      tag_593\n      jump\t// in\n    tag_259:\n      mload(0x40)\n      dup1\n      0xc0\n      add\n      0x40\n      mstore\n      dup1\n      0x00\n      dup2\n      mstore\n      0x20\n      add\n      0x00\n      dup2\n      mstore\n      0x20\n      add\n      0x00\n      dup2\n      mstore\n      0x20\n      add\n      0x00\n      dup2\n      mstore\n      0x20\n      add\n      0x00\n      dup2\n      mstore\n      0x20\n      add\n      and(sub(shl(0xa0, 0x01), 0x01), 0x00)\n      dup2\n      mstore\n      pop\n      swap1\n      jump\t// out\n        /* \"#utility.yul\":14:145   */\n    tag_628:\n      sub(shl(0xa0, 0x01), 0x01)\n        /* \"#utility.yul\":89:120   */\n      dup2\n      and\n        /* \"#utility.yul\":79:121   */\n      dup2\n      eq\n        /* \"#utility.yul\":69:139   */\n      tag_634\n      jumpi\n        /* \"#utility.yul\":135:136   */\n      0x00\n        /* \"#utility.yul\":132:133   */\n      dup1\n        /* \"#utility.yul\":125:137   */\n      revert\n        /* \"#utility.yul\":69:139   */\n    tag_634:\n        /* \"#utility.yul\":14:145   */\n      pop\n      jump\t// out\n        /* \"#utility.yul\":150:465   */\n    tag_35:\n        /* \"#utility.yul\":218:224   */\n      0x00\n        /* \"#utility.yul\":226:232   */\n      dup1\n        /* \"#utility.yul\":279:281   */\n      0x40\n        /* \"#utility.yul\":267:276   */\n      dup4\n        /* \"#utility.yul\":258:265   */\n      dup6\n        /* \"#utility.yul\":254:277   */\n      sub\n        /* \"#utility.yul\":250:282   */\n      slt\n        /* \"#utility.yul\":247:299   */\n      iszero\n      tag_636\n      jumpi\n        /* \"#utility.yul\":295:296   */\n      0x00\n        /* \"#utility.yul\":292:293   */\n      dup1\n        /* \"#utility.yul\":285:297   */\n      revert\n        /* \"#utility.yul\":247:299   */\n    tag_636:\n        /* \"#utility.yul\":334:343   */\n      dup3\n        /* \"#utility.yul\":321:344   */\n      calldataload\n        /* \"#utility.yul\":353:384   */\n      tag_637\n        /* \"#utility.yul\":378:383   */\n      dup2\n        /* \"#utility.yul\":353:384   */\n      tag_628\n      jump\t// in\n    tag_637:\n        /* \"#utility.yul\":403:408   */\n      swap5\n        /* \"#utility.yul\":455:457   */\n      0x20\n        /* \"#utility.yul\":440:458   */\n      swap4\n      swap1\n      swap4\n      add\n        /* \"#utility.yul\":427:459   */\n      calldataload\n      swap4\n      pop\n      pop\n      pop\n        /* \"#utility.yul\":150:465   */\n      jump\t// out\n        /* \"#utility.yul\":470:689   */\n    tag_38:\n      sub(shl(0xa0, 0x01), 0x01)\n        /* \"#utility.yul\":650:682   */\n      swap2\n      swap1\n      swap2\n      and\n        /* \"#utility.yul\":632:683   */\n      dup2\n      mstore\n        /* \"#utility.yul\":620:622   */\n      0x20\n        /* \"#utility.yul\":605:623   */\n      add\n      swap1\n        /* \"#utility.yul\":470:689   */\n      jump\t// out\n        /* \"#utility.yul\":694:941   */\n    tag_42:\n        /* \"#utility.yul\":753:759   */\n      0x00\n        /* \"#utility.yul\":806:808   */\n      0x20\n        /* \"#utility.yul\":794:803   */\n      dup3\n        /* \"#utility.yul\":785:792   */\n      dup5\n        /* \"#utility.yul\":781:804   */\n      sub\n        /* \"#utility.yul\":777:809   */\n      slt\n        /* \"#utility.yul\":774:826   */\n      iszero\n      tag_640\n      jumpi\n        /* \"#utility.yul\":822:823   */\n      0x00\n        /* \"#utility.yul\":819:820   */\n      dup1\n        /* \"#utility.yul\":812:824   */\n      revert\n        /* \"#utility.yul\":774:826   */\n    tag_640:\n        /* \"#utility.yul\":861:870   */\n      dup2\n        /* \"#utility.yul\":848:871   */\n      calldataload\n        /* \"#utility.yul\":880:911   */\n      tag_560\n        /* \"#utility.yul\":905:910   */\n      dup2\n        /* \"#utility.yul\":880:911   */\n      tag_628\n      jump\t// in\n        /* \"#utility.yul\":1849:2309   */\n    tag_61:\n        /* \"#utility.yul\":1943:1949   */\n      0x00\n        /* \"#utility.yul\":1951:1957   */\n      dup1\n        /* \"#utility.yul\":1959:1965   */\n      0x00\n        /* \"#utility.yul\":1967:1973   */\n      dup1\n        /* \"#utility.yul\":2020:2023   */\n      0x80\n        /* \"#utility.yul\":2008:2017   */\n      dup6\n        /* \"#utility.yul\":1999:2006   */\n      dup8\n        /* \"#utility.yul\":1995:2018   */\n      sub\n        /* \"#utility.yul\":1991:2024   */\n      slt\n        /* \"#utility.yul\":1988:2041   */\n      iszero\n      tag_651\n      jumpi\n        /* \"#utility.yul\":2037:2038   */\n      0x00\n        /* \"#utility.yul\":2034:2035   */\n      dup1\n        /* \"#utility.yul\":2027:2039   */\n      revert\n        /* \"#utility.yul\":1988:2041   */\n    tag_651:\n        /* \"#utility.yul\":2076:2085   */\n      dup5\n        /* \"#utility.yul\":2063:2086   */\n      calldataload\n        /* \"#utility.yul\":2095:2126   */\n      tag_652\n        /* \"#utility.yul\":2120:2125   */\n      dup2\n        /* \"#utility.yul\":2095:2126   */\n      tag_628\n      jump\t// in\n    tag_652:\n        /* \"#utility.yul\":2145:2150   */\n      swap7\n        /* \"#utility.yul\":2197:2199   */\n      0x20\n        /* \"#utility.yul\":2182:2200   */\n      dup7\n      add\n        /* \"#utility.yul\":2169:2201   */\n      calldataload\n      swap7\n      pop\n        /* \"#utility.yul\":2248:2250   */\n      0x40\n        /* \"#utility.yul\":2233:2251   */\n      dup7\n      add\n        /* \"#utility.yul\":2220:2252   */\n      calldataload\n      swap6\n        /* \"#utility.yul\":2299:2301   */\n      0x60\n        /* \"#utility.yul\":2284:2302   */\n      add\n        /* \"#utility.yul\":2271:2303   */\n      calldataload\n      swap5\n      pop\n        /* \"#utility.yul\":1849:2309   */\n      swap3\n      pop\n      pop\n      pop\n      jump\t// out\n        /* \"#utility.yul\":2771:3294   */\n    tag_90:\n        /* \"#utility.yul\":2875:2881   */\n      0x00\n        /* \"#utility.yul\":2883:2889   */\n      dup1\n        /* \"#utility.yul\":2891:2897   */\n      0x00\n        /* \"#utility.yul\":2899:2905   */\n      dup1\n        /* \"#utility.yul\":2907:2913   */\n      0x00\n        /* \"#utility.yul\":2915:2921   */\n      dup1\n        /* \"#utility.yul\":2968:2971   */\n      0xc0\n        /* \"#utility.yul\":2956:2965   */\n      dup8\n        /* \"#utility.yul\":2947:2954   */\n      dup10\n        /* \"#utility.yul\":2943:2966   */\n      sub\n        /* \"#utility.yul\":2939:2972   */\n      slt\n        /* \"#utility.yul\":2936:2989   */\n      iszero\n      tag_657\n      jumpi\n        /* \"#utility.yul\":2985:2986   */\n      0x00\n        /* \"#utility.yul\":2982:2983   */\n      dup1\n        /* \"#utility.yul\":2975:2987   */\n      revert\n        /* \"#utility.yul\":2936:2989   */\n    tag_657:\n      pop\n      pop\n        /* \"#utility.yul\":3008:3031   */\n      dup5\n      calldataload\n      swap7\n        /* \"#utility.yul\":3078:3080   */\n      0x20\n        /* \"#utility.yul\":3063:3081   */\n      dup7\n      add\n        /* \"#utility.yul\":3050:3082   */\n      calldataload\n      swap7\n      pop\n        /* \"#utility.yul\":3129:3131   */\n      0x40\n        /* \"#utility.yul\":3114:3132   */\n      dup7\n      add\n        /* \"#utility.yul\":3101:3133   */\n      calldataload\n      swap6\n        /* \"#utility.yul\":3180:3182   */\n      0x60\n        /* \"#utility.yul\":3165:3183   */\n      dup2\n      add\n        /* \"#utility.yul\":3152:3184   */\n      calldataload\n      swap6\n      pop\n        /* \"#utility.yul\":3231:3234   */\n      0x80\n        /* \"#utility.yul\":3216:3235   */\n      dup2\n      add\n        /* \"#utility.yul\":3203:3236   */\n      calldataload\n      swap5\n      pop\n        /* \"#utility.yul\":3283:3286   */\n      0xa0\n        /* \"#utility.yul\":3268:3287   */\n      add\n        /* \"#utility.yul\":3255:3288   */\n      calldataload\n      swap3\n      pop\n        /* \"#utility.yul\":2771:3294   */\n      swap1\n      pop\n      jump\t// out\n        /* \"#utility.yul\":3299:3417   */\n    tag_629:\n        /* \"#utility.yul\":3385:3390   */\n      dup1\n        /* \"#utility.yul\":3378:3391   */\n      iszero\n        /* \"#utility.yul\":3371:3392   */\n      iszero\n        /* \"#utility.yul\":3364:3369   */\n      dup2\n        /* \"#utility.yul\":3361:3393   */\n      eq\n        /* \"#utility.yul\":3351:3411   */\n      tag_634\n      jumpi\n        /* \"#utility.yul\":3407:3408   */\n      0x00\n        /* \"#utility.yul\":3404:3405   */\n      dup1\n        /* \"#utility.yul\":3397:3409   */\n      revert\n        /* \"#utility.yul\":3422:4249   */\n    tag_98:\n        /* \"#utility.yul\":3547:3553   */\n      0x00\n        /* \"#utility.yul\":3555:3561   */\n      dup1\n        /* \"#utility.yul\":3563:3569   */\n      0x00\n        /* \"#utility.yul\":3571:3577   */\n      dup1\n        /* \"#utility.yul\":3579:3585   */\n      0x00\n        /* \"#utility.yul\":3587:3593   */\n      dup1\n        /* \"#utility.yul\":3640:3643   */\n      0xc0\n        /* \"#utility.yul\":3628:3637   */\n      dup8\n        /* \"#utility.yul\":3619:3626   */\n      dup10\n        /* \"#utility.yul\":3615:3638   */\n      sub\n        /* \"#utility.yul\":3611:3644   */\n      slt\n        /* \"#utility.yul\":3608:3661   */\n      iszero\n      tag_661\n      jumpi\n        /* \"#utility.yul\":3657:3658   */\n      0x00\n        /* \"#utility.yul\":3654:3655   */\n      dup1\n        /* \"#utility.yul\":3647:3659   */\n      revert\n        /* \"#utility.yul\":3608:3661   */\n    tag_661:\n        /* \"#utility.yul\":3696:3705   */\n      dup7\n        /* \"#utility.yul\":3683:3706   */\n      calldataload\n        /* \"#utility.yul\":3715:3746   */\n      tag_662\n        /* \"#utility.yul\":3740:3745   */\n      dup2\n        /* \"#utility.yul\":3715:3746   */\n      tag_628\n      jump\t// in\n    tag_662:\n        /* \"#utility.yul\":3765:3770   */\n      swap6\n      pop\n        /* \"#utility.yul\":3817:3819   */\n      0x20\n        /* \"#utility.yul\":3802:3820   */\n      dup8\n      add\n        /* \"#utility.yul\":3789:3821   */\n      calldataload\n      swap5\n      pop\n        /* \"#utility.yul\":3868:3870   */\n      0x40\n        /* \"#utility.yul\":3853:3871   */\n      dup8\n      add\n        /* \"#utility.yul\":3840:3872   */\n      calldataload\n      swap4\n      pop\n        /* \"#utility.yul\":3924:3926   */\n      0x60\n        /* \"#utility.yul\":3909:3927   */\n      dup8\n      add\n        /* \"#utility.yul\":3896:3928   */\n      calldataload\n        /* \"#utility.yul\":3937:3970   */\n      tag_663\n        /* \"#utility.yul\":3896:3928   */\n      dup2\n        /* \"#utility.yul\":3937:3970   */\n      tag_628\n      jump\t// in\n    tag_663:\n        /* \"#utility.yul\":3989:3996   */\n      swap3\n      pop\n        /* \"#utility.yul\":4048:4051   */\n      0x80\n        /* \"#utility.yul\":4033:4052   */\n      dup8\n      add\n        /* \"#utility.yul\":4020:4053   */\n      calldataload\n        /* \"#utility.yul\":4062:4092   */\n      tag_664\n        /* \"#utility.yul\":4020:4053   */\n      dup2\n        /* \"#utility.yul\":4062:4092   */\n      tag_629\n      jump\t// in\n    tag_664:\n        /* \"#utility.yul\":4111:4118   */\n      swap2\n      pop\n        /* \"#utility.yul\":4170:4173   */\n      0xa0\n        /* \"#utility.yul\":4155:4174   */\n      dup8\n      add\n        /* \"#utility.yul\":4142:4175   */\n      calldataload\n        /* \"#utility.yul\":4184:4217   */\n      tag_665\n        /* \"#utility.yul\":4142:4175   */\n      dup2\n        /* \"#utility.yul\":4184:4217   */\n      tag_628\n      jump\t// in\n    tag_665:\n        /* \"#utility.yul\":4236:4243   */\n      dup1\n        /* \"#utility.yul\":4226:4243   */\n      swap2\n      pop\n      pop\n        /* \"#utility.yul\":3422:4249   */\n      swap3\n      swap6\n      pop\n      swap3\n      swap6\n      pop\n      swap3\n      swap6\n      jump\t// out\n        /* \"#utility.yul\":5533:5923   */\n    tag_123:\n        /* \"#utility.yul\":5606:5612   */\n      0x00\n        /* \"#utility.yul\":5614:5620   */\n      dup1\n        /* \"#utility.yul\":5667:5669   */\n      0x40\n        /* \"#utility.yul\":5655:5664   */\n      dup4\n        /* \"#utility.yul\":5646:5653   */\n      dup6\n        /* \"#utility.yul\":5642:5665   */\n      sub\n        /* \"#utility.yul\":5638:5670   */\n      slt\n        /* \"#utility.yul\":5635:5687   */\n      iszero\n      tag_670\n      jumpi\n        /* \"#utility.yul\":5683:5684   */\n      0x00\n        /* \"#utility.yul\":5680:5681   */\n      dup1\n        /* \"#utility.yul\":5673:5685   */\n      revert\n        /* \"#utility.yul\":5635:5687   */\n    tag_670:\n        /* \"#utility.yul\":5722:5731   */\n      dup3\n        /* \"#utility.yul\":5709:5732   */\n      calldataload\n        /* \"#utility.yul\":5741:5772   */\n      tag_671\n        /* \"#utility.yul\":5766:5771   */\n      dup2\n        /* \"#utility.yul\":5741:5772   */\n      tag_628\n      jump\t// in\n    tag_671:\n        /* \"#utility.yul\":5791:5796   */\n      swap2\n      pop\n        /* \"#utility.yul\":5848:5850   */\n      0x20\n        /* \"#utility.yul\":5833:5851   */\n      dup4\n      add\n        /* \"#utility.yul\":5820:5852   */\n      calldataload\n        /* \"#utility.yul\":5861:5891   */\n      tag_672\n        /* \"#utility.yul\":5820:5852   */\n      dup2\n        /* \"#utility.yul\":5861:5891   */\n      tag_629\n      jump\t// in\n    tag_672:\n        /* \"#utility.yul\":5910:5917   */\n      dup1\n        /* \"#utility.yul\":5900:5917   */\n      swap2\n      pop\n      pop\n        /* \"#utility.yul\":5533:5923   */\n      swap3\n      pop\n      swap3\n      swap1\n      pop\n      jump\t// out\n        /* \"#utility.yul\":5928:6316   */\n    tag_133:\n        /* \"#utility.yul\":5996:6002   */\n      0x00\n        /* \"#utility.yul\":6004:6010   */\n      dup1\n        /* \"#utility.yul\":6057:6059   */\n      0x40\n        /* \"#utility.yul\":6045:6054   */\n      dup4\n        /* \"#utility.yul\":6036:6043   */\n      dup6\n        /* \"#utility.yul\":6032:6055   */\n      sub\n        /* \"#utility.yul\":6028:6060   */\n      slt\n        /* \"#utility.yul\":6025:6077   */\n      iszero\n      tag_674\n      jumpi\n        /* \"#utility.yul\":6073:6074   */\n      0x00\n        /* \"#utility.yul\":6070:6071   */\n      dup1\n        /* \"#utility.yul\":6063:6075   */\n      revert\n        /* \"#utility.yul\":6025:6077   */\n    tag_674:\n        /* \"#utility.yul\":6112:6121   */\n      dup3\n        /* \"#utility.yul\":6099:6122   */\n      calldataload\n        /* \"#utility.yul\":6131:6162   */\n      tag_675\n        /* \"#utility.yul\":6156:6161   */\n      dup2\n        /* \"#utility.yul\":6131:6162   */\n      tag_628\n      jump\t// in\n    tag_675:\n        /* \"#utility.yul\":6181:6186   */\n      swap2\n      pop\n        /* \"#utility.yul\":6238:6240   */\n      0x20\n        /* \"#utility.yul\":6223:6241   */\n      dup4\n      add\n        /* \"#utility.yul\":6210:6242   */\n      calldataload\n        /* \"#utility.yul\":6251:6284   */\n      tag_672\n        /* \"#utility.yul\":6210:6242   */\n      dup2\n        /* \"#utility.yul\":6251:6284   */\n      tag_628\n      jump\t// in\n        /* \"#utility.yul\":6321:6862   */\n    tag_147:\n        /* \"#utility.yul\":6423:6429   */\n      0x00\n        /* \"#utility.yul\":6431:6437   */\n      dup1\n        /* \"#utility.yul\":6439:6445   */\n      0x00\n        /* \"#utility.yul\":6447:6453   */\n      dup1\n        /* \"#utility.yul\":6500:6503   */\n      0x80\n        /* \"#utility.yul\":6488:6497   */\n      dup6\n        /* \"#utility.yul\":6479:6486   */\n      dup8\n        /* \"#utility.yul\":6475:6498   */\n      sub\n        /* \"#utility.yul\":6471:6504   */\n      slt\n        /* \"#utility.yul\":6468:6521   */\n      iszero\n      tag_678\n      jumpi\n        /* \"#utility.yul\":6517:6518   */\n      0x00\n        /* \"#utility.yul\":6514:6515   */\n      dup1\n        /* \"#utility.yul\":6507:6519   */\n      revert\n        /* \"#utility.yul\":6468:6521   */\n    tag_678:\n        /* \"#utility.yul\":6556:6565   */\n      dup5\n        /* \"#utility.yul\":6543:6566   */\n      calldataload\n        /* \"#utility.yul\":6575:6606   */\n      tag_679\n        /* \"#utility.yul\":6600:6605   */\n      dup2\n        /* \"#utility.yul\":6575:6606   */\n      tag_628\n      jump\t// in\n    tag_679:\n        /* \"#utility.yul\":6625:6630   */\n      swap4\n      pop\n        /* \"#utility.yul\":6677:6679   */\n      0x20\n        /* \"#utility.yul\":6662:6680   */\n      dup6\n      add\n        /* \"#utility.yul\":6649:6681   */\n      calldataload\n      swap3\n      pop\n        /* \"#utility.yul\":6728:6730   */\n      0x40\n        /* \"#utility.yul\":6713:6731   */\n      dup6\n      add\n        /* \"#utility.yul\":6700:6732   */\n      calldataload\n      swap2\n      pop\n        /* \"#utility.yul\":6784:6786   */\n      0x60\n        /* \"#utility.yul\":6769:6787   */\n      dup6\n      add\n        /* \"#utility.yul\":6756:6788   */\n      calldataload\n        /* \"#utility.yul\":6797:6830   */\n      tag_680\n        /* \"#utility.yul\":6756:6788   */\n      dup2\n        /* \"#utility.yul\":6797:6830   */\n      tag_628\n      jump\t// in\n    tag_680:\n        /* \"#utility.yul\":6321:6862   */\n      swap4\n      swap7\n      swap3\n      swap6\n      pop\n      swap1\n      swap4\n      pop\n      pop\n      jump\t// out\n        /* \"#utility.yul\":7433:7889   */\n    tag_158:\n        /* \"#utility.yul\":7510:7516   */\n      0x00\n        /* \"#utility.yul\":7518:7524   */\n      dup1\n        /* \"#utility.yul\":7526:7532   */\n      0x00\n        /* \"#utility.yul\":7579:7581   */\n      0x60\n        /* \"#utility.yul\":7567:7576   */\n      dup5\n        /* \"#utility.yul\":7558:7565   */\n      dup7\n        /* \"#utility.yul\":7554:7577   */\n      sub\n        /* \"#utility.yul\":7550:7582   */\n      slt\n        /* \"#utility.yul\":7547:7599   */\n      iszero\n      tag_683\n      jumpi\n        /* \"#utility.yul\":7595:7596   */\n      0x00\n        /* \"#utility.yul\":7592:7593   */\n      dup1\n        /* \"#utility.yul\":7585:7597   */\n      revert\n        /* \"#utility.yul\":7547:7599   */\n    tag_683:\n        /* \"#utility.yul\":7634:7643   */\n      dup4\n        /* \"#utility.yul\":7621:7644   */\n      calldataload\n        /* \"#utility.yul\":7653:7684   */\n      tag_684\n        /* \"#utility.yul\":7678:7683   */\n      dup2\n        /* \"#utility.yul\":7653:7684   */\n      tag_628\n      jump\t// in\n    tag_684:\n        /* \"#utility.yul\":7703:7708   */\n      swap3\n      pop\n        /* \"#utility.yul\":7760:7762   */\n      0x20\n        /* \"#utility.yul\":7745:7763   */\n      dup5\n      add\n        /* \"#utility.yul\":7732:7764   */\n      calldataload\n        /* \"#utility.yul\":7773:7806   */\n      tag_685\n        /* \"#utility.yul\":7732:7764   */\n      dup2\n        /* \"#utility.yul\":7773:7806   */\n      tag_628\n      jump\t// in\n    tag_685:\n        /* \"#utility.yul\":7433:7889   */\n      swap3\n      swap6\n        /* \"#utility.yul\":7825:7832   */\n      swap3\n      swap5\n      pop\n      pop\n      pop\n        /* \"#utility.yul\":7879:7881   */\n      0x40\n        /* \"#utility.yul\":7864:7882   */\n      swap2\n      swap1\n      swap2\n      add\n        /* \"#utility.yul\":7851:7883   */\n      calldataload\n      swap1\n        /* \"#utility.yul\":7433:7889   */\n      jump\t// out\n        /* \"#utility.yul\":8230:8357   */\n    tag_177:\n        /* \"#utility.yul\":8291:8301   */\n      0x4e487b71\n        /* \"#utility.yul\":8286:8289   */\n      0xe0\n        /* \"#utility.yul\":8282:8302   */\n      shl\n        /* \"#utility.yul\":8279:8280   */\n      0x00\n        /* \"#utility.yul\":8272:8303   */\n      mstore\n        /* \"#utility.yul\":8322:8326   */\n      0x32\n        /* \"#utility.yul\":8319:8320   */\n      0x04\n        /* \"#utility.yul\":8312:8327   */\n      mstore\n        /* \"#utility.yul\":8346:8350   */\n      0x24\n        /* \"#utility.yul\":8343:8344   */\n      0x00\n        /* \"#utility.yul\":8336:8351   */\n      revert\n        /* \"#utility.yul\":8362:8718   */\n    tag_185:\n        /* \"#utility.yul\":8564:8566   */\n      0x20\n        /* \"#utility.yul\":8546:8567   */\n      dup1\n      dup3\n      mstore\n        /* \"#utility.yul\":8583:8601   */\n      dup2\n      dup2\n      add\n        /* \"#utility.yul\":8576:8606   */\n      mstore\n        /* \"#utility.yul\":8642:8676   */\n      0x4f776e61626c653a2063616c6c6572206973206e6f7420746865206f776e6572\n        /* \"#utility.yul\":8637:8639   */\n      0x40\n        /* \"#utility.yul\":8622:8640   */\n      dup3\n      add\n        /* \"#utility.yul\":8615:8677   */\n      mstore\n        /* \"#utility.yul\":8709:8711   */\n      0x60\n        /* \"#utility.yul\":8694:8712   */\n      add\n      swap1\n        /* \"#utility.yul\":8362:8718   */\n      jump\t// out\n        /* \"#utility.yul\":8723:9078   */\n    tag_191:\n        /* \"#utility.yul\":8925:8927   */\n      0x20\n        /* \"#utility.yul\":8907:8928   */\n      dup1\n      dup3\n      mstore\n        /* \"#utility.yul\":8964:8966   */\n      0x1f\n        /* \"#utility.yul\":8944:8962   */\n      swap1\n      dup3\n      add\n        /* \"#utility.yul\":8937:8967   */\n      mstore\n        /* \"#utility.yul\":9003:9036   */\n      0x5265656e7472616e637947756172643a207265656e7472616e742063616c6c00\n        /* \"#utility.yul\":8998:9000   */\n      0x40\n        /* \"#utility.yul\":8983:9001   */\n      dup3\n      add\n        /* \"#utility.yul\":8976:9037   */\n      mstore\n        /* \"#utility.yul\":9069:9071   */\n      0x60\n        /* \"#utility.yul\":9054:9072   */\n      add\n      swap1\n        /* \"#utility.yul\":8723:9078   */\n      jump\t// out\n        /* \"#utility.yul\":9426:9763   */\n    tag_205:\n        /* \"#utility.yul\":9628:9630   */\n      0x20\n        /* \"#utility.yul\":9610:9631   */\n      dup1\n      dup3\n      mstore\n        /* \"#utility.yul\":9667:9669   */\n      0x0d\n        /* \"#utility.yul\":9647:9665   */\n      swap1\n      dup3\n      add\n        /* \"#utility.yul\":9640:9670   */\n      mstore\n      shl(0x9b, 0x0989e8696409a92a69a82a8869)\n        /* \"#utility.yul\":9701:9703   */\n      0x40\n        /* \"#utility.yul\":9686:9704   */\n      dup3\n      add\n        /* \"#utility.yul\":9679:9722   */\n      mstore\n        /* \"#utility.yul\":9754:9756   */\n      0x60\n        /* \"#utility.yul\":9739:9757   */\n      add\n      swap1\n        /* \"#utility.yul\":9426:9763   */\n      jump\t// out\n        /* \"#utility.yul\":10103:10230   */\n    tag_630:\n        /* \"#utility.yul\":10164:10174   */\n      0x4e487b71\n        /* \"#utility.yul\":10159:10162   */\n      0xe0\n        /* \"#utility.yul\":10155:10175   */\n      shl\n        /* \"#utility.yul\":10152:10153   */\n      0x00\n        /* \"#utility.yul\":10145:10176   */\n      mstore\n        /* \"#utility.yul\":10195:10199   */\n      0x11\n        /* \"#utility.yul\":10192:10193   */\n      0x04\n        /* \"#utility.yul\":10185:10200   */\n      mstore\n        /* \"#utility.yul\":10219:10223   */\n      0x24\n        /* \"#utility.yul\":10216:10217   */\n      0x00\n        /* \"#utility.yul\":10209:10224   */\n      revert\n        /* \"#utility.yul\":10235:10360   */\n    tag_213:\n        /* \"#utility.yul\":10275:10279   */\n      0x00\n        /* \"#utility.yul\":10303:10304   */\n      dup3\n        /* \"#utility.yul\":10300:10301   */\n      dup3\n        /* \"#utility.yul\":10297:10305   */\n      lt\n        /* \"#utility.yul\":10294:10328   */\n      iszero\n      tag_698\n      jumpi\n        /* \"#utility.yul\":10308:10326   */\n      tag_698\n      tag_630\n      jump\t// in\n    tag_698:\n      pop\n        /* \"#utility.yul\":10345:10354   */\n      sub\n      swap1\n        /* \"#utility.yul\":10235:10360   */\n      jump\t// out\n        /* \"#utility.yul\":10365:10492   */\n    tag_222:\n        /* \"#utility.yul\":10426:10436   */\n      0x4e487b71\n        /* \"#utility.yul\":10421:10424   */\n      0xe0\n        /* \"#utility.yul\":10417:10437   */\n      shl\n        /* \"#utility.yul\":10414:10415   */\n      0x00\n        /* \"#utility.yul\":10407:10438   */\n      mstore\n        /* \"#utility.yul\":10457:10461   */\n      0x31\n        /* \"#utility.yul\":10454:10455   */\n      0x04\n        /* \"#utility.yul\":10447:10462   */\n      mstore\n        /* \"#utility.yul\":10481:10485   */\n      0x24\n        /* \"#utility.yul\":10478:10479   */\n      0x00\n        /* \"#utility.yul\":10471:10486   */\n      revert\n        /* \"#utility.yul\":10497:10779   */\n    tag_234:\n      sub(shl(0xa0, 0x01), 0x01)\n        /* \"#utility.yul\":10697:10729   */\n      swap3\n      swap1\n      swap3\n      and\n        /* \"#utility.yul\":10679:10730   */\n      dup3\n      mstore\n        /* \"#utility.yul\":10761:10763   */\n      0x20\n        /* \"#utility.yul\":10746:10764   */\n      dup3\n      add\n        /* \"#utility.yul\":10739:10773   */\n      mstore\n        /* \"#utility.yul\":10667:10669   */\n      0x40\n        /* \"#utility.yul\":10652:10670   */\n      add\n      swap1\n        /* \"#utility.yul\":10497:10779   */\n      jump\t// out\n        /* \"#utility.yul\":10784:11119   */\n    tag_242:\n        /* \"#utility.yul\":10986:10988   */\n      0x20\n        /* \"#utility.yul\":10968:10989   */\n      dup1\n      dup3\n      mstore\n        /* \"#utility.yul\":11025:11027   */\n      0x0b\n        /* \"#utility.yul\":11005:11023   */\n      swap1\n      dup3\n      add\n        /* \"#utility.yul\":10998:11028   */\n      mstore\n      shl(0xaa, 0x16915493c8105353d55395)\n        /* \"#utility.yul\":11059:11061   */\n      0x40\n        /* \"#utility.yul\":11044:11062   */\n      dup3\n      add\n        /* \"#utility.yul\":11037:11078   */\n      mstore\n        /* \"#utility.yul\":11110:11112   */\n      0x60\n        /* \"#utility.yul\":11095:11113   */\n      add\n      swap1\n        /* \"#utility.yul\":10784:11119   */\n      jump\t// out\n        /* \"#utility.yul\":11124:11459   */\n    tag_254:\n        /* \"#utility.yul\":11326:11328   */\n      0x20\n        /* \"#utility.yul\":11308:11329   */\n      dup1\n      dup3\n      mstore\n        /* \"#utility.yul\":11365:11367   */\n      0x0b\n        /* \"#utility.yul\":11345:11363   */\n      swap1\n      dup3\n      add\n        /* \"#utility.yul\":11338:11368   */\n      mstore\n      shl(0xaa, 0x119151481393d508135155)\n        /* \"#utility.yul\":11399:11401   */\n      0x40\n        /* \"#utility.yul\":11384:11402   */\n      dup3\n      add\n        /* \"#utility.yul\":11377:11418   */\n      mstore\n        /* \"#utility.yul\":11450:11452   */\n      0x60\n        /* \"#utility.yul\":11435:11453   */\n      add\n      swap1\n        /* \"#utility.yul\":11124:11459   */\n      jump\t// out\n        /* \"#utility.yul\":11464:11805   */\n    tag_274:\n        /* \"#utility.yul\":11666:11668   */\n      0x20\n        /* \"#utility.yul\":11648:11669   */\n      dup1\n      dup3\n      mstore\n        /* \"#utility.yul\":11705:11707   */\n      0x11\n        /* \"#utility.yul\":11685:11703   */\n      swap1\n      dup3\n      add\n        /* \"#utility.yul\":11678:11708   */\n      mstore\n      shl(0x7a, 0x1512535154d51053540812539590531251)\n        /* \"#utility.yul\":11739:11741   */\n      0x40\n        /* \"#utility.yul\":11724:11742   */\n      dup3\n      add\n        /* \"#utility.yul\":11717:11764   */\n      mstore\n        /* \"#utility.yul\":11796:11798   */\n      0x60\n        /* \"#utility.yul\":11781:11799   */\n      add\n      swap1\n        /* \"#utility.yul\":11464:11805   */\n      jump\t// out\n        /* \"#utility.yul\":12493:12744   */\n    tag_326:\n        /* \"#utility.yul\":12563:12569   */\n      0x00\n        /* \"#utility.yul\":12616:12618   */\n      0x20\n        /* \"#utility.yul\":12604:12613   */\n      dup3\n        /* \"#utility.yul\":12595:12602   */\n      dup5\n        /* \"#utility.yul\":12591:12614   */\n      sub\n        /* \"#utility.yul\":12587:12619   */\n      slt\n        /* \"#utility.yul\":12584:12636   */\n      iszero\n      tag_707\n      jumpi\n        /* \"#utility.yul\":12632:12633   */\n      0x00\n        /* \"#utility.yul\":12629:12630   */\n      dup1\n        /* \"#utility.yul\":12622:12634   */\n      revert\n        /* \"#utility.yul\":12584:12636   */\n    tag_707:\n        /* \"#utility.yul\":12664:12673   */\n      dup2\n        /* \"#utility.yul\":12658:12674   */\n      mload\n        /* \"#utility.yul\":12683:12714   */\n      tag_560\n        /* \"#utility.yul\":12708:12713   */\n      dup2\n        /* \"#utility.yul\":12683:12714   */\n      tag_628\n      jump\t// in\n        /* \"#utility.yul\":13611:13795   */\n    tag_347:\n        /* \"#utility.yul\":13681:13687   */\n      0x00\n        /* \"#utility.yul\":13734:13736   */\n      0x20\n        /* \"#utility.yul\":13722:13731   */\n      dup3\n        /* \"#utility.yul\":13713:13720   */\n      dup5\n        /* \"#utility.yul\":13709:13732   */\n      sub\n        /* \"#utility.yul\":13705:13737   */\n      slt\n        /* \"#utility.yul\":13702:13754   */\n      iszero\n      tag_713\n      jumpi\n        /* \"#utility.yul\":13750:13751   */\n      0x00\n        /* \"#utility.yul\":13747:13748   */\n      dup1\n        /* \"#utility.yul\":13740:13752   */\n      revert\n        /* \"#utility.yul\":13702:13754   */\n    tag_713:\n      pop\n        /* \"#utility.yul\":13773:13789   */\n      mload\n      swap2\n        /* \"#utility.yul\":13611:13795   */\n      swap1\n      pop\n      jump\t// out\n        /* \"#utility.yul\":14147:14674   */\n    tag_420:\n      sub(shl(0xa0, 0x01), 0x01)\n        /* \"#utility.yul\":14470:14485   */\n      swap6\n      dup7\n      and\n        /* \"#utility.yul\":14452:14486   */\n      dup2\n      mstore\n        /* \"#utility.yul\":14522:14537   */\n      swap4\n      swap1\n      swap5\n      and\n        /* \"#utility.yul\":14517:14519   */\n      0x20\n        /* \"#utility.yul\":14502:14520   */\n      dup5\n      add\n        /* \"#utility.yul\":14495:14538   */\n      mstore\n        /* \"#utility.yul\":14569:14571   */\n      0x40\n        /* \"#utility.yul\":14554:14572   */\n      dup4\n      add\n        /* \"#utility.yul\":14547:14581   */\n      swap2\n      swap1\n      swap2\n      mstore\n        /* \"#utility.yul\":14612:14614   */\n      0x60\n        /* \"#utility.yul\":14597:14615   */\n      dup3\n      add\n        /* \"#utility.yul\":14590:14624   */\n      mstore\n        /* \"#utility.yul\":14655:14658   */\n      0x80\n        /* \"#utility.yul\":14640:14659   */\n      dup2\n      add\n        /* \"#utility.yul\":14633:14668   */\n      swap2\n      swap1\n      swap2\n      mstore\n        /* \"#utility.yul\":14401:14404   */\n      0xa0\n        /* \"#utility.yul\":14386:14405   */\n      add\n      swap1\n        /* \"#utility.yul\":14147:14674   */\n      jump\t// out\n        /* \"#utility.yul\":17001:17246   */\n    tag_544:\n        /* \"#utility.yul\":17068:17074   */\n      0x00\n        /* \"#utility.yul\":17121:17123   */\n      0x20\n        /* \"#utility.yul\":17109:17118   */\n      dup3\n        /* \"#utility.yul\":17100:17107   */\n      dup5\n        /* \"#utility.yul\":17096:17119   */\n      sub\n        /* \"#utility.yul\":17092:17124   */\n      slt\n        /* \"#utility.yul\":17089:17141   */\n      iszero\n      tag_723\n      jumpi\n        /* \"#utility.yul\":17137:17138   */\n      0x00\n        /* \"#utility.yul\":17134:17135   */\n      dup1\n        /* \"#utility.yul\":17127:17139   */\n      revert\n        /* \"#utility.yul\":17089:17141   */\n    tag_723:\n        /* \"#utility.yul\":17169:17178   */\n      dup2\n        /* \"#utility.yul\":17163:17179   */\n      mload\n        /* \"#utility.yul\":17188:17216   */\n      tag_560\n        /* \"#utility.yul\":17210:17215   */\n      dup2\n        /* \"#utility.yul\":17188:17216   */\n      tag_629\n      jump\t// in\n        /* \"#utility.yul\":17937:18195   */\n    tag_631:\n        /* \"#utility.yul\":18009:18010   */\n      0x00\n        /* \"#utility.yul\":18019:18132   */\n    tag_728:\n        /* \"#utility.yul\":18033:18039   */\n      dup4\n        /* \"#utility.yul\":18030:18031   */\n      dup2\n        /* \"#utility.yul\":18027:18040   */\n      lt\n        /* \"#utility.yul\":18019:18132   */\n      iszero\n      tag_730\n      jumpi\n        /* \"#utility.yul\":18109:18120   */\n      dup2\n      dup2\n      add\n        /* \"#utility.yul\":18103:18121   */\n      mload\n        /* \"#utility.yul\":18090:18101   */\n      dup4\n      dup3\n      add\n        /* \"#utility.yul\":18083:18122   */\n      mstore\n        /* \"#utility.yul\":18055:18057   */\n      0x20\n        /* \"#utility.yul\":18048:18058   */\n      add\n        /* \"#utility.yul\":18019:18132   */\n      jump(tag_728)\n    tag_730:\n        /* \"#utility.yul\":18150:18156   */\n      dup4\n        /* \"#utility.yul\":18147:18148   */\n      dup2\n        /* \"#utility.yul\":18144:18157   */\n      gt\n        /* \"#utility.yul\":18141:18189   */\n      iszero\n      tag_731\n      jumpi\n        /* \"#utility.yul\":18185:18186   */\n      0x00\n        /* \"#utility.yul\":18176:18182   */\n      dup5\n        /* \"#utility.yul\":18171:18174   */\n      dup5\n        /* \"#utility.yul\":18167:18183   */\n      add\n        /* \"#utility.yul\":18160:18187   */\n      mstore\n        /* \"#utility.yul\":18141:18189   */\n    tag_731:\n      pop\n        /* \"#utility.yul\":17937:18195   */\n      pop\n      pop\n      pop\n      jump\t// out\n        /* \"#utility.yul\":18200:18474   */\n    tag_566:\n        /* \"#utility.yul\":18329:18332   */\n      0x00\n        /* \"#utility.yul\":18367:18373   */\n      dup3\n        /* \"#utility.yul\":18361:18374   */\n      mload\n        /* \"#utility.yul\":18383:18436   */\n      tag_733\n        /* \"#utility.yul\":18429:18435   */\n      dup2\n        /* \"#utility.yul\":18424:18427   */\n      dup5\n        /* \"#utility.yul\":18417:18421   */\n      0x20\n        /* \"#utility.yul\":18409:18415   */\n      dup8\n        /* \"#utility.yul\":18405:18422   */\n      add\n        /* \"#utility.yul\":18383:18436   */\n      tag_631\n      jump\t// in\n    tag_733:\n        /* \"#utility.yul\":18452:18468   */\n      swap2\n      swap1\n      swap2\n      add\n      swap3\n        /* \"#utility.yul\":18200:18474   */\n      swap2\n      pop\n      pop\n      jump\t// out\n        /* \"#utility.yul\":19198:19366   */\n    tag_591:\n        /* \"#utility.yul\":19238:19245   */\n      0x00\n        /* \"#utility.yul\":19304:19305   */\n      dup2\n        /* \"#utility.yul\":19300:19301   */\n      0x00\n        /* \"#utility.yul\":19296:19302   */\n      not\n        /* \"#utility.yul\":19292:19306   */\n      div\n        /* \"#utility.yul\":19289:19290   */\n      dup4\n        /* \"#utility.yul\":19286:19307   */\n      gt\n        /* \"#utility.yul\":19281:19282   */\n      dup3\n        /* \"#utility.yul\":19274:19283   */\n      iszero\n        /* \"#utility.yul\":19267:19284   */\n      iszero\n        /* \"#utility.yul\":19263:19308   */\n      and\n        /* \"#utility.yul\":19260:19331   */\n      iszero\n      tag_738\n      jumpi\n        /* \"#utility.yul\":19311:19329   */\n      tag_738\n      tag_630\n      jump\t// in\n    tag_738:\n      pop\n        /* \"#utility.yul\":19351:19360   */\n      mul\n      swap1\n        /* \"#utility.yul\":19198:19366   */\n      jump\t// out\n        /* \"#utility.yul\":19371:19588   */\n    tag_593:\n        /* \"#utility.yul\":19411:19412   */\n      0x00\n        /* \"#utility.yul\":19437:19438   */\n      dup3\n        /* \"#utility.yul\":19427:19559   */\n      tag_740\n      jumpi\n        /* \"#utility.yul\":19481:19491   */\n      0x4e487b71\n        /* \"#utility.yul\":19476:19479   */\n      0xe0\n        /* \"#utility.yul\":19472:19492   */\n      shl\n        /* \"#utility.yul\":19469:19470   */\n      0x00\n        /* \"#utility.yul\":19462:19493   */\n      mstore\n        /* \"#utility.yul\":19516:19520   */\n      0x12\n        /* \"#utility.yul\":19513:19514   */\n      0x04\n        /* \"#utility.yul\":19506:19521   */\n      mstore\n        /* \"#utility.yul\":19544:19548   */\n      0x24\n        /* \"#utility.yul\":19541:19542   */\n      0x00\n        /* \"#utility.yul\":19534:19549   */\n      revert\n        /* \"#utility.yul\":19427:19559   */\n    tag_740:\n      pop\n        /* \"#utility.yul\":19573:19582   */\n      div\n      swap1\n        /* \"#utility.yul\":19371:19588   */\n      jump\t// out\n        /* \"#utility.yul\":20780:20908   */\n    tag_615:\n        /* \"#utility.yul\":20820:20823   */\n      0x00\n        /* \"#utility.yul\":20851:20852   */\n      dup3\n        /* \"#utility.yul\":20847:20853   */\n      not\n        /* \"#utility.yul\":20844:20845   */\n      dup3\n        /* \"#utility.yul\":20841:20854   */\n      gt\n        /* \"#utility.yul\":20838:20877   */\n      iszero\n      tag_746\n      jumpi\n        /* \"#utility.yul\":20857:20875   */\n      tag_746\n      tag_630\n      jump\t// in\n    tag_746:\n      pop\n        /* \"#utility.yul\":20893:20902   */\n      add\n      swap1\n        /* \"#utility.yul\":20780:20908   */\n      jump\t// out\n        /* \"#utility.yul\":21269:21652   */\n    tag_622:\n        /* \"#utility.yul\":21418:21420   */\n      0x20\n        /* \"#utility.yul\":21407:21416   */\n      dup2\n        /* \"#utility.yul\":21400:21421   */\n      mstore\n        /* \"#utility.yul\":21381:21385   */\n      0x00\n        /* \"#utility.yul\":21450:21456   */\n      dup3\n        /* \"#utility.yul\":21444:21457   */\n      mload\n        /* \"#utility.yul\":21493:21499   */\n      dup1\n        /* \"#utility.yul\":21488:21490   */\n      0x20\n        /* \"#utility.yul\":21477:21486   */\n      dup5\n        /* \"#utility.yul\":21473:21491   */\n      add\n        /* \"#utility.yul\":21466:21500   */\n      mstore\n        /* \"#utility.yul\":21509:21575   */\n      tag_749\n        /* \"#utility.yul\":21568:21574   */\n      dup2\n        /* \"#utility.yul\":21563:21565   */\n      0x40\n        /* \"#utility.yul\":21552:21561   */\n      dup6\n        /* \"#utility.yul\":21548:21566   */\n      add\n        /* \"#utility.yul\":21543:21545   */\n      0x20\n        /* \"#utility.yul\":21535:21541   */\n      dup8\n        /* \"#utility.yul\":21531:21546   */\n      add\n        /* \"#utility.yul\":21509:21575   */\n      tag_631\n      jump\t// in\n    tag_749:\n        /* \"#utility.yul\":21636:21638   */\n      0x1f\n        /* \"#utility.yul\":21615:21630   */\n      add\n      not(0x1f)\n        /* \"#utility.yul\":21611:21640   */\n      and\n        /* \"#utility.yul\":21596:21641   */\n      swap2\n      swap1\n      swap2\n      add\n        /* \"#utility.yul\":21643:21645   */\n      0x40\n        /* \"#utility.yul\":21592:21646   */\n      add\n      swap3\n        /* \"#utility.yul\":21269:21652   */\n      swap2\n      pop\n      pop\n      jump\t// out\n\n    auxdata: 0xa2646970667358221220158121fc3fd0db4c8c546615e771e97dcf50c4eeaa7c503e170b5d44f378020f64736f6c634300080d0033\n}\n",
				"bytecode": {
					"linkReferences": {},
					"object": "60806040523480156200001157600080fd5b5060405162003071380380620030718339810160408190526200003491620000de565b600080546001600160a01b031916339081178255604051909182917f8be0079c531659141344cd1fd0a4f28419497f9722a3daafe3b4186f6b6457e0908290a3506001805560118054336001600160a01b0319918216179091556032600a819055678ac7230489e80000600581905560075560088190556064600955670de0b6b3a7640000600c55600d55600280549091166001600160a01b039290921691909117905562000110565b600060208284031215620000f157600080fd5b81516001600160a01b03811681146200010957600080fd5b9392505050565b612f5180620001206000396000f3fe6080604052600436106101625760003560e01c80638bdb2afa116100c75780638bdb2afa146103495780638da5cb5b14610369578063903df8061461038757806390e1a003146103a757806391ff1eb11461043b578063a39698151461045b578063a69d9c4f14610491578063a9b07cea146104db578063b1cb89a31461043b578063bef497fd146104fb578063ccebfa3f1461051b578063d4ff493f14610571578063ee42427814610591578063f02c2643146105b1578063f2fde38b146105d157600080fd5b80631f0b8a0d146101675780631f2a1d2f1461019d57806323cf3118146101e157806334ddbfe9146102035780634532d7761461024c578063582d5adc1461026c5780635a4ddd17146102035780635c7e9db81461027f57806360491d241461029f578063715018a6146102bf578063783451e8146102d457806386f6c3c1146102f65780638931a4be146103165780638af416f614610336575b600080fd5b34801561017357600080fd5b506101876101823660046129fa565b6105f1565b6040516101949190612a26565b60405180910390f35b3480156101a957600080fd5b506101d36101b8366004612a3a565b6001600160a01b031660009081526004602052604090205490565b604051908152602001610194565b3480156101ed57600080fd5b506102016101fc366004612a3a565b61063c565b005b34801561020f57600080fd5b5061023c61021e366004612a3a565b6001600160a01b03166000908152600e602052604090205460ff1690565b6040519015158152602001610194565b34801561025857600080fd5b50610201610267366004612a57565b610691565b61020161027a366004612a57565b610986565b34801561028b57600080fd5b5061020161029a366004612a3a565b610bfb565b3480156102ab57600080fd5b506102016102ba366004612a57565b610c47565b3480156102cb57600080fd5b50610201610e5f565b3480156102e057600080fd5b50336000908152600360205260409020546101d3565b34801561030257600080fd5b50610201610311366004612a92565b610ed3565b34801561032257600080fd5b50610201610331366004612a3a565b610f1a565b610201610344366004612ae3565b610f66565b34801561035557600080fd5b50600254610187906001600160a01b031681565b34801561037557600080fd5b506000546001600160a01b0316610187565b34801561039357600080fd5b506101876103a23660046129fa565b611974565b3480156103b357600080fd5b50600554600654600754600854600954600a54600b54600c54600d546103ea98976001600160a01b03908116979695949316919089565b60408051998a526001600160a01b0398891660208b01528901969096526060880194909452608087019290925260a086015290921660c084015260e083019190915261010082015261012001610194565b34801561044757600080fd5b50610201610456366004612b53565b611a19565b34801561046757600080fd5b506101d3610476366004612a3a565b6001600160a01b031660009081526003602052604090205490565b34801561049d57600080fd5b506101d36104ac366004612b8c565b6001600160a01b0391821660009081526003602090815260408083209390941682526001909201909152205490565b3480156104e757600080fd5b506102016104f6366004612a57565b611a6e565b34801561050757600080fd5b50610201610516366004612bba565b611c53565b34801561052757600080fd5b5061053b6105363660046129fa565b611eba565b60408051968752602087019590955293850192909252606084015260808301526001600160a01b031660a082015260c001610194565b34801561057d57600080fd5b5061053b61058c366004612c04565b611f17565b34801561059d57600080fd5b506102016105ac366004612a57565b612015565b3480156105bd57600080fd5b506102016105cc3660046129fa565b612337565b3480156105dd57600080fd5b506102016105ec366004612a3a565b612387565b6001600160a01b0382166000908152600360205260408120805481908490811061061d5761061d612c45565b6000918252602090912001546001600160a01b03169150505b92915050565b6000546001600160a01b0316331461066f5760405162461bcd60e51b815260040161066690612c5b565b60405180910390fd5b601280546001600160a01b0319166001600160a01b0392909216919091179055565b6002600154036106b35760405162461bcd60e51b815260040161066690612c90565b6002600155806106f65760405162461bcd60e51b815260206004820152600e60248201526d16915493c815d2551211149055d360921b6044820152606401610666565b3360009081526003602090815260408083206001600160a01b0388168452600101909152812080548590811061072e5761072e612c45565b90600052602060002001549050600060046000876001600160a01b03166001600160a01b03168152602001908152602001600020828154811061077357610773612c45565b90600052602060002090600602019050838214801561079e575060058101546001600160a01b031633145b6107ba5760405162461bcd60e51b815260040161066690612cc7565b428160030154106107f75760405162461bcd60e51b81526020600482015260076024820152661393d50816515560ca1b6044820152606401610666565b60018101546108069084612471565b600182018190556000036108e4573360009081526003602090815260408083206001600160a01b038a168452600190810190925290912080549091829161084d9190612d04565b8154811061085d5761085d612c45565b906000526020600020015481878154811061087a5761087a612c45565b90600052602060002001819055508080548061089857610898612d1b565b6001900381819060005260206000200160009055905580805490506000036108de576001600160a01b0387166000908152601060205260409020805460ff191660011790555b5061097a565b336000908152600f602052604090205460ff161515600103610935576011546109189087906001600160a01b0316856124ba565b6011546109309087906001600160a01b0316856125d7565b61097a565b6109408633856125d7565b7fccad973dcd043c7d680389db4378bd6b9775db7124092e9e0422c9e46d7985dc8684604051610971929190612d31565b60405180910390a15b50506001805550505050565b6002600154036109a85760405162461bcd60e51b815260040161066690612c90565b6002600155336000908152600f602052604090205460ff16156109ca57600080fd5b600081116109ea5760405162461bcd60e51b815260040161066690612d4a565b3360009081526003602090815260408083206001600160a01b03881684526001019091528120805485908110610a2257610a22612c45565b90600052602060002001549050600060046000876001600160a01b03166001600160a01b031681526020019081526020016000208281548110610a6757610a67612c45565b906000526020600020906006020190508382148015610a92575060058101546001600160a01b031633145b610aae5760405162461bcd60e51b815260040161066690612cc7565b6005543414610acf5760405162461bcd60e51b815260040161066690612d6f565b6011546005546040516001600160a01b039092169181156108fc0291906000818181858888f19350505050158015610b0b573d6000803e3d6000fd5b506001810154610b1b9084612471565b6001820155610b286129a3565b8154815260208082018581526040808401968752600394850154606085019081526001600160a01b039a8b1660008181526004808752848220805460808a018181523360a08c01818152858c52600180850186559487528b87209c516006909402909c019283559851828401559c5160028201559451858b01558b51918501919091559651600590930180546001600160a01b03191693909d1692909217909b55918252938252838120988152978201815291872093518454808301865594885291909620909201919091555050508055565b6000546001600160a01b03163314610c255760405162461bcd60e51b815260040161066690612c5b565b601180546001600160a01b0319166001600160a01b0392909216919091179055565b600260015403610c695760405162461bcd60e51b815260040161066690612c90565b60026001556402540be4008110610c925760405162461bcd60e51b815260040161066690612d94565b3360009081526003602090815260408083206001600160a01b03881684526001019091528120805485908110610cca57610cca612c45565b90600052602060002001549050600060046000876001600160a01b03166001600160a01b031681526020019081526020016000208281548110610d0f57610d0f612c45565b906000526020600020906006020190508382148015610d3a575060058101546001600160a01b031633145b610d565760405162461bcd60e51b815260040161066690612cc7565b82816003015410610d995760405162461bcd60e51b815260206004820152600d60248201526c554e4c4f434b204245464f524560981b6044820152606401610666565b600954336000908152600f602052604081205490919060ff161515600103610df557600954610dc990600a6126ed565b9050610dee6103e8610de88386600101546126ed90919063ffffffff16565b9061276f565b9150610e15565b610e126103e8610de88386600101546126ed90919063ffffffff16565b91505b6001830154600090610e279084612471565b6001850181905560038501879055601154909150610e50908a906001600160a01b0316856125d7565b50506001805550505050505050565b6000546001600160a01b03163314610e895760405162461bcd60e51b815260040161066690612c5b565b600080546040516001600160a01b03909116907f8be0079c531659141344cd1fd0a4f28419497f9722a3daafe3b4186f6b6457e0908390a3600080546001600160a01b0319169055565b6000546001600160a01b03163314610efd5760405162461bcd60e51b815260040161066690612c5b565b600a95909555600d93909355600591909155600755600855600955565b6000546001600160a01b03163314610f445760405162461bcd60e51b815260040161066690612c5b565b600680546001600160a01b0319166001600160a01b0392909216919091179055565b600260015403610f885760405162461bcd60e51b815260040161066690612c90565b60026001556402540be4008410610fb15760405162461bcd60e51b815260040161066690612d94565b60008511610ff05760405162461bcd60e51b815260206004820152600c60248201526b125394d551919250d251539560a21b6044820152606401610666565b60025460408051630dfe168160e01b8152905188926000926001600160a01b039182169263e6a4390592861691630dfe16819160048083019260209291908290030181865afa158015611047573d6000803e3d6000fd5b505050506040513d601f19601f8201168201806040525081019061106b9190612dbf565b846001600160a01b031663d21220a76040518163ffffffff1660e01b8152600401602060405180830381865afa1580156110a9573d6000803e3d6000fd5b505050506040513d601f19601f820116820180604052508101906110cd9190612dbf565b6040516001600160e01b031960e085901b1681526001600160a01b03928316600482015291166024820152604401602060405180830381865afa158015611118573d6000803e3d6000fd5b505050506040513d601f19601f8201168201806040525081019061113c9190612dbf565b9050876001600160a01b0316816001600160a01b03161461118b5760405162461bcd60e51b81526020600482015260096024820152682727aa102aa724ab1960b91b6044820152606401610666565b6111978833308a6127ae565b6001600160a01b038516158015906111b95750600b546001600160a01b031615155b1561127557600c54600b546040516370a0823160e01b81526001600160a01b03909116906370a08231906111f1908990600401612a26565b602060405180830381865afa15801561120e573d6000803e3d6000fd5b505050506040513d601f19601f820116820180604052508101906112329190612ddc565b10156112755760405162461bcd60e51b8152602060048201526012602482015271494e41444551554154452042414c414e434560701b6044820152606401610666565b336000908152600e602052604090205460ff1661158e57831561140a576005546001600160a01b038616156112ca576112c76103e8610de86005600801546103e86112c09190612d04565b84906126ed565b90505b8034146112e95760405162461bcd60e51b815260040161066690612d6f565b336000908152600f6020526040902054819060ff161515600103611346576011546040516001600160a01b03909116903480156108fc02916000818181858888f19350505050158015611340573d6000803e3d6000fd5b50611403565b811580159061135d57506001600160a01b03871615155b156114035760006113816103e8610de86005800154856126ed90919063ffffffff16565b6040519091506001600160a01b0389169082156108fc029083906000818181858888f193505050501580156113ba573d6000803e3d6000fd5b506113c58282612471565b6011546040519193506001600160a01b03169083156108fc029084906000818181858888f19350505050158015611400573d6000803e3d6000fd5b50505b505061163f565b6007546001600160a01b0386161561143b576114386103e8610de86005600801546103e86112c09190612d04565b90505b600654611453906001600160a01b03163330846127ae565b336000908152600f602052604090205460ff1615156001036114ae5760065460115461148c916001600160a01b039081169116836124ba565b6006546011546114a9916001600160a01b039081169116836125d7565b61152a565b600a54158015906114c757506001600160a01b03861615155b1561152a5760006114eb6103e8610de86005800154856126ed90919063ffffffff16565b600654909150611505906001600160a01b031688836124ba565b60065461151c906001600160a01b031688836125d7565b6115268282612471565b9150505b600654604051630852cd8d60e31b8152600481018390526001600160a01b03909116906342966c6890602401600060405180830381600087803b15801561157057600080fd5b505af1158015611584573d6000803e3d6000fd5b505050505061163f565b336000908152600e602052604090205460ff16151560011480156115b25750600034115b1561163f57336000908152600f602052604081205460ff16151590036116045760405133903480156108fc02916000818181858888f193505050501580156115fe573d6000803e3d6000fd5b5061163f565b6011546040516001600160a01b03909116903480156108fc02916000818181858888f1935050505015801561163d573d6000803e3d6000fd5b505b336000908152600f602052604090205460ff161515600103611690576011546116739089906001600160a01b0316896124ba565b60115461168b9089906001600160a01b0316896125d7565b611966565b60006116b06103e8610de86005600401548b6126ed90919063ffffffff16565b9050841580156116d05750336000908152600e602052604090205460ff16155b156116f4576116f16103e8610de86005600301546103e86112c09190612d04565b90505b60115461170c908a906001600160a01b0316836125d7565b60006117188983612471565b90506117226129a3565b42816000018181525050818160200181815250508181604001818152505088816060018181525050600460008c6001600160a01b03166001600160a01b0316815260200190815260200160002080549050816080018181525050858160a001906001600160a01b031690816001600160a01b031681525050600460008c6001600160a01b03166001600160a01b03168152602001908152602001600020819080600181540180825580915050600190039060005260206000209060060201600090919091909150600082015181600001556020820151816001015560408201518160020155606082015181600301556080820151816004015560a08201518160050160006101000a8154816001600160a01b0302191690836001600160a01b031602179055505050600060036000886001600160a01b03166001600160a01b031681526020019081526020016000209050806000018c9080600181540180825580915050600190039060005260206000200160009091909190916101000a8154816001600160a01b0302191690836001600160a01b0316021790555060008160010160008e6001600160a01b03166001600160a01b03168152602001908152602001600020905080836080015190806001815401808255809150506001900390600052602060002001600090919091909150557f830357565da6ecfc26d8d9f69df488ed6f70361af9a07e570544aeb5c5e765e58d33856020015186600001518760600151604051611958959493929190612df5565b60405180910390a150505050505b505060018055505050505050565b6001600160a01b0382166000908152600360205260408120805460109083908390869081106119a5576119a5612c45565b60009182526020808320909101546001600160a01b0316835282019290925260400190205460ff1615611a045760405162461bcd60e51b815260206004820152600760248201526614995b5bdd995960ca1b6044820152606401610666565b80600001838154811061061d5761061d612c45565b6000546001600160a01b03163314611a435760405162461bcd60e51b815260040161066690612c5b565b6001600160a01b03919091166000908152600e60205260409020805460ff1916911515919091179055565b600260015403611a905760405162461bcd60e51b815260040161066690612c90565b6002600155336000908152600f602052604090205460ff1615611ab257600080fd5b60008111611ad25760405162461bcd60e51b815260040161066690612d4a565b3360009081526003602090815260408083206001600160a01b03881684526001019091528120805485908110611b0a57611b0a612c45565b90600052602060002001549050600060046000876001600160a01b03166001600160a01b031681526020019081526020016000208281548110611b4f57611b4f612c45565b906000526020600020906006020190508382148015611b7a575060058101546001600160a01b031633145b611b965760405162461bcd60e51b815260040161066690612cc7565b611ba2863330866127ae565b6000611bc26103e8610de8600560040154876126ed90919063ffffffff16565b601154909150611bdd9088906001600160a01b0316836125d7565b6000611be98583612471565b6001840154909150611bfb90826128de565b6001840155825460038401546040517f830357565da6ecfc26d8d9f69df488ed6f70361af9a07e570544aeb5c5e765e592611c3d928c92339287929091612df5565b60405180910390a1505060018055505050505050565b336000908152600f602052604090205460ff1615611c7057600080fd5b6001600160a01b0381163303611cb05760405162461bcd60e51b815260206004820152600560248201526427aba722a960d91b6044820152606401610666565b3360009081526003602090815260408083206001600160a01b03881684526001019091528120805485908110611ce857611ce8612c45565b90600052602060002001549050600060046000876001600160a01b03166001600160a01b031681526020019081526020016000208281548110611d2d57611d2d612c45565b906000526020600020906006020190508382148015611d58575060058101546001600160a01b031633145b611d745760405162461bcd60e51b815260040161066690612cc7565b6001600160a01b03838116600090815260036020818152604080842080546001808201835582875284872090910180546001600160a01b031916978e1697881790558686528082018452828620600489015481548084018355828952868920015533875294845282862096865295860190925290922080549293919290918291611dfe9190612d04565b81548110611e0e57611e0e612c45565b9060005260206000200154818981548110611e2b57611e2b612c45565b906000526020600020018190555080805480611e4957611e49612d1b565b600190038181906000526020600020016000905590558080549050600003611e8f576001600160a01b0389166000908152601060205260409020805460ff191660011790555b50505060050180546001600160a01b0319166001600160a01b03939093169290921790915550505050565b60046020528160005260406000208181548110611ed657600080fd5b60009182526020909120600690910201805460018201546002830154600384015460048501546005909501549396509194509290916001600160a01b031686565b6000806000806000806000600360008b6001600160a01b03166001600160a01b0316815260200190815260200160002060010160008a6001600160a01b03166001600160a01b031681526020019081526020016000208881548110611f7e57611f7e612c45565b906000526020600020015490506000600460008b6001600160a01b03166001600160a01b031681526020019081526020016000208281548110611fc357611fc3612c45565b6000918252602090912060069091020180546001820154600283015460038401546004850154600590950154939c50919a50985096509094506001600160a01b03169250505093975093979195509350565b6002600154036120375760405162461bcd60e51b815260040161066690612c90565b60026001556012546001600160a01b031661207e5760405162461bcd60e51b81526020600482015260076024820152661393d50814d15560ca1b6044820152606401610666565b600081116120bf5760405162461bcd60e51b815260206004820152600e60248201526d2d22a9279026a4a3a920aa24a7a760911b6044820152606401610666565b336000908152600f602052604090205460ff16156120dc57600080fd5b3360009081526003602090815260408083206001600160a01b0388168452600101909152812080548590811061211457612114612c45565b90600052602060002001549050600060046000876001600160a01b03166001600160a01b03168152602001908152602001600020828154811061215957612159612c45565b906000526020600020906006020190508382148015612184575060058101546001600160a01b031633145b6121a05760405162461bcd60e51b815260040161066690612cc7565b60018101546121af9084612471565b60018201819055600003612289573360009081526003602090815260408083206001600160a01b038a16845260019081019092529091208054909182916121f69190612d04565b8154811061220657612206612c45565b906000526020600020015481878154811061222357612223612c45565b90600052602060002001819055508080548061224157612241612d1b565b600190038181906000526020600020016000905590558080549050600003612287576001600160a01b0387166000908152601060205260409020805460ff191660011790555b505b6012546122a19087906001600160a01b0316856124ba565b601254600382015460405163db5ecd3f60e01b81526001600160a01b03898116600483015260248201879052604482019290925233606482015291169063db5ecd3f906084016020604051808303816000875af1158015612306573d6000803e3d6000fd5b505050506040513d601f19601f8201168201806040525081019061232a9190612e26565b5050600180555050505050565b6000546001600160a01b031633146123615760405162461bcd60e51b815260040161066690612c5b565b600b80546001600160a01b0319166001600160a01b039390931692909217909155600c55565b6000546001600160a01b031633146123b15760405162461bcd60e51b815260040161066690612c5b565b6001600160a01b0381166124165760405162461bcd60e51b815260206004820152602660248201527f4f776e61626c653a206e6577206f776e657220697320746865207a65726f206160448201526564647265737360d01b6064820152608401610666565b600080546040516001600160a01b03808516939216917f8be0079c531659141344cd1fd0a4f28419497f9722a3daafe3b4186f6b6457e091a3600080546001600160a01b0319166001600160a01b0392909216919091179055565b60006124b383836040518060400160405280601e81526020017f536166654d6174683a207375627472616374696f6e206f766572666c6f77000081525061293b565b9392505050565b600080846001600160a01b031663095ea7b385856040516024016124df929190612d31565b6040516020818303038152906040529060e01b6020820180516001600160e01b0383818316178352505050506040516125189190612e73565b6000604051808303816000865af19150503d8060008114612555576040519150601f19603f3d011682016040523d82523d6000602084013e61255a565b606091505b50915091508180156125845750805115806125845750808060200190518101906125849190612e26565b6125d05760405162461bcd60e51b815260206004820152601e60248201527f5472616e7366657248656c7065723a20415050524f56455f4641494c454400006044820152606401610666565b5050505050565b600080846001600160a01b031663a9059cbb85856040516024016125fc929190612d31565b6040516020818303038152906040529060e01b6020820180516001600160e01b0383818316178352505050506040516126359190612e73565b6000604051808303816000865af19150503d8060008114612672576040519150601f19603f3d011682016040523d82523d6000602084013e612677565b606091505b50915091508180156126a15750805115806126a15750808060200190518101906126a19190612e26565b6125d05760405162461bcd60e51b815260206004820152601f60248201527f5472616e7366657248656c7065723a205452414e534645525f4641494c4544006044820152606401610666565b6000826000036126ff57506000610636565b600061270b8385612e8f565b9050826127188583612eae565b146124b35760405162461bcd60e51b815260206004820152602160248201527f536166654d6174683a206d756c7469706c69636174696f6e206f766572666c6f6044820152607760f81b6064820152608401610666565b60006124b383836040518060400160405280601a815260200179536166654d6174683a206469766973696f6e206279207a65726f60301b815250612975565b604080516001600160a01b0385811660248301528481166044830152606480830185905283518084039091018152608490920183526020820180516001600160e01b03166323b872dd60e01b17905291516000928392908816916128129190612e73565b6000604051808303816000865af19150503d806000811461284f576040519150601f19603f3d011682016040523d82523d6000602084013e612854565b606091505b509150915081801561287e57508051158061287e57508080602001905181019061287e9190612e26565b6128d65760405162461bcd60e51b8152602060048201526024808201527f5472616e7366657248656c7065723a205452414e534645525f46524f4d5f46416044820152631253115160e21b6064820152608401610666565b505050505050565b6000806128eb8385612ed0565b9050838110156124b35760405162461bcd60e51b815260206004820152601b60248201527a536166654d6174683a206164646974696f6e206f766572666c6f7760281b6044820152606401610666565b6000818484111561295f5760405162461bcd60e51b81526004016106669190612ee8565b50600061296c8486612d04565b95945050505050565b600081836129965760405162461bcd60e51b81526004016106669190612ee8565b50600061296c8486612eae565b6040518060c00160405280600081526020016000815260200160008152602001600081526020016000815260200160006001600160a01b031681525090565b6001600160a01b03811681146129f757600080fd5b50565b60008060408385031215612a0d57600080fd5b8235612a18816129e2565b946020939093013593505050565b6001600160a01b0391909116815260200190565b600060208284031215612a4c57600080fd5b81356124b3816129e2565b60008060008060808587031215612a6d57600080fd5b8435612a78816129e2565b966020860135965060408601359560600135945092505050565b60008060008060008060c08789031215612aab57600080fd5b505084359660208601359650604086013595606081013595506080810135945060a0013592509050565b80151581146129f757600080fd5b60008060008060008060c08789031215612afc57600080fd5b8635612b07816129e2565b955060208701359450604087013593506060870135612b25816129e2565b92506080870135612b3581612ad5565b915060a0870135612b45816129e2565b809150509295509295509295565b60008060408385031215612b6657600080fd5b8235612b71816129e2565b91506020830135612b8181612ad5565b809150509250929050565b60008060408385031215612b9f57600080fd5b8235612baa816129e2565b91506020830135612b81816129e2565b60008060008060808587031215612bd057600080fd5b8435612bdb816129e2565b935060208501359250604085013591506060850135612bf9816129e2565b939692955090935050565b600080600060608486031215612c1957600080fd5b8335612c24816129e2565b92506020840135612c34816129e2565b929592945050506040919091013590565b634e487b7160e01b600052603260045260246000fd5b6020808252818101527f4f776e61626c653a2063616c6c6572206973206e6f7420746865206f776e6572604082015260600190565b6020808252601f908201527f5265656e7472616e637947756172643a207265656e7472616e742063616c6c00604082015260600190565b6020808252600d908201526c0989e8696409a92a69a82a8869609b1b604082015260600190565b634e487b7160e01b600052601160045260246000fd5b600082821015612d1657612d16612cee565b500390565b634e487b7160e01b600052603160045260246000fd5b6001600160a01b03929092168252602082015260400190565b6020808252600b908201526a16915493c8105353d5539560aa1b604082015260600190565b6020808252600b908201526a119151481393d50813515560aa1b604082015260600190565b6020808252601190820152701512535154d51053540812539590531251607a1b604082015260600190565b600060208284031215612dd157600080fd5b81516124b3816129e2565b600060208284031215612dee57600080fd5b5051919050565b6001600160a01b03958616815293909416602084015260408301919091526060820152608081019190915260a00190565b600060208284031215612e3857600080fd5b81516124b381612ad5565b60005b83811015612e5e578181015183820152602001612e46565b83811115612e6d576000848401525b50505050565b60008251612e85818460208701612e43565b9190910192915050565b6000816000190483118215151615612ea957612ea9612cee565b500290565b600082612ecb57634e487b7160e01b600052601260045260246000fd5b500490565b60008219821115612ee357612ee3612cee565b500190565b6020815260008251806020840152612f07816040850160208701612e43565b601f01601f1916919091016040019291505056fea2646970667358221220158121fc3fd0db4c8c546615e771e97dcf50c4eeaa7c503e170b5d44f378020f64736f6c634300080d0033",
					"opcodes": "PUSH1 0x80 PUSH1 0x40 MSTORE CALLVALUE DUP1 ISZERO PUSH3 0x11 JUMPI PUSH1 0x0 DUP1 REVERT JUMPDEST POP PUSH1 0x40 MLOAD PUSH3 0x3071 CODESIZE SUB DUP1 PUSH3 0x3071 DUP4 CODECOPY DUP2 ADD PUSH1 0x40 DUP2 SWAP1 MSTORE PUSH3 0x34 SWAP2 PUSH3 0xDE JUMP JUMPDEST PUSH1 0x0 DUP1 SLOAD PUSH1 0x1 PUSH1 0x1 PUSH1 0xA0 SHL SUB NOT AND CALLER SWAP1 DUP2 OR DUP3 SSTORE PUSH1 0x40 MLOAD SWAP1 SWAP2 DUP3 SWAP2 PUSH32 0x8BE0079C531659141344CD1FD0A4F28419497F9722A3DAAFE3B4186F6B6457E0 SWAP1 DUP3 SWAP1 LOG3 POP PUSH1 0x1 DUP1 SSTORE PUSH1 0x11 DUP1 SLOAD CALLER PUSH1 0x1 PUSH1 0x1 PUSH1 0xA0 SHL SUB NOT SWAP2 DUP3 AND OR SWAP1 SWAP2 SSTORE PUSH1 0x32 PUSH1 0xA DUP2 SWAP1 SSTORE PUSH8 0x8AC7230489E80000 PUSH1 0x5 DUP2 SWAP1 SSTORE PUSH1 0x7 SSTORE PUSH1 0x8 DUP2 SWAP1 SSTORE PUSH1 0x64 PUSH1 0x9 SSTORE PUSH8 0xDE0B6B3A7640000 PUSH1 0xC SSTORE PUSH1 0xD SSTORE PUSH1 0x2 DUP1 SLOAD SWAP1 SWAP2 AND PUSH1 0x1 PUSH1 0x1 PUSH1 0xA0 SHL SUB SWAP3 SWAP1 SWAP3 AND SWAP2 SWAP1 SWAP2 OR SWAP1 SSTORE PUSH3 0x110 JUMP JUMPDEST PUSH1 0x0 PUSH1 0x20 DUP3 DUP5 SUB SLT ISZERO PUSH3 0xF1 JUMPI PUSH1 0x0 DUP1 REVERT JUMPDEST DUP2 MLOAD PUSH1 0x1 PUSH1 0x1 PUSH1 0xA0 SHL SUB DUP2 AND DUP2 EQ PUSH3 0x109 JUMPI PUSH1 0x0 DUP1 REVERT JUMPDEST SWAP4 SWAP3 POP POP POP JUMP JUMPDEST PUSH2 0x2F51 DUP1 PUSH3 0x120 PUSH1 0x0 CODECOPY PUSH1 0x0 RETURN INVALID PUSH1 0x80 PUSH1 0x40 MSTORE PUSH1 0x4 CALLDATASIZE LT PUSH2 0x162 JUMPI PUSH1 0x0 CALLDATALOAD PUSH1 0xE0 SHR DUP1 PUSH4 0x8BDB2AFA GT PUSH2 0xC7 JUMPI DUP1 PUSH4 0x8BDB2AFA EQ PUSH2 0x349 JUMPI DUP1 PUSH4 0x8DA5CB5B EQ PUSH2 0x369 JUMPI DUP1 PUSH4 0x903DF806 EQ PUSH2 0x387 JUMPI DUP1 PUSH4 0x90E1A003 EQ PUSH2 0x3A7 JUMPI DUP1 PUSH4 0x91FF1EB1 EQ PUSH2 0x43B JUMPI DUP1 PUSH4 0xA3969815 EQ PUSH2 0x45B JUMPI DUP1 PUSH4 0xA69D9C4F EQ PUSH2 0x491 JUMPI DUP1 PUSH4 0xA9B07CEA EQ PUSH2 0x4DB JUMPI DUP1 PUSH4 0xB1CB89A3 EQ PUSH2 0x43B JUMPI DUP1 PUSH4 0xBEF497FD EQ PUSH2 0x4FB JUMPI DUP1 PUSH4 0xCCEBFA3F EQ PUSH2 0x51B JUMPI DUP1 PUSH4 0xD4FF493F EQ PUSH2 0x571 JUMPI DUP1 PUSH4 0xEE424278 EQ PUSH2 0x591 JUMPI DUP1 PUSH4 0xF02C2643 EQ PUSH2 0x5B1 JUMPI DUP1 PUSH4 0xF2FDE38B EQ PUSH2 0x5D1 JUMPI PUSH1 0x0 DUP1 REVERT JUMPDEST DUP1 PUSH4 0x1F0B8A0D EQ PUSH2 0x167 JUMPI DUP1 PUSH4 0x1F2A1D2F EQ PUSH2 0x19D JUMPI DUP1 PUSH4 0x23CF3118 EQ PUSH2 0x1E1 JUMPI DUP1 PUSH4 0x34DDBFE9 EQ PUSH2 0x203 JUMPI DUP1 PUSH4 0x4532D776 EQ PUSH2 0x24C JUMPI DUP1 PUSH4 0x582D5ADC EQ PUSH2 0x26C JUMPI DUP1 PUSH4 0x5A4DDD17 EQ PUSH2 0x203 JUMPI DUP1 PUSH4 0x5C7E9DB8 EQ PUSH2 0x27F JUMPI DUP1 PUSH4 0x60491D24 EQ PUSH2 0x29F JUMPI DUP1 PUSH4 0x715018A6 EQ PUSH2 0x2BF JUMPI DUP1 PUSH4 0x783451E8 EQ PUSH2 0x2D4 JUMPI DUP1 PUSH4 0x86F6C3C1 EQ PUSH2 0x2F6 JUMPI DUP1 PUSH4 0x8931A4BE EQ PUSH2 0x316 JUMPI DUP1 PUSH4 0x8AF416F6 EQ PUSH2 0x336 JUMPI JUMPDEST PUSH1 0x0 DUP1 REVERT JUMPDEST CALLVALUE DUP1 ISZERO PUSH2 0x173 JUMPI PUSH1 0x0 DUP1 REVERT JUMPDEST POP PUSH2 0x187 PUSH2 0x182 CALLDATASIZE PUSH1 0x4 PUSH2 0x29FA JUMP JUMPDEST PUSH2 0x5F1 JUMP JUMPDEST PUSH1 0x40 MLOAD PUSH2 0x194 SWAP2 SWAP1 PUSH2 0x2A26 JUMP JUMPDEST PUSH1 0x40 MLOAD DUP1 SWAP2 SUB SWAP1 RETURN JUMPDEST CALLVALUE DUP1 ISZERO PUSH2 0x1A9 JUMPI PUSH1 0x0 DUP1 REVERT JUMPDEST POP PUSH2 0x1D3 PUSH2 0x1B8 CALLDATASIZE PUSH1 0x4 PUSH2 0x2A3A JUMP JUMPDEST PUSH1 0x1 PUSH1 0x1 PUSH1 0xA0 SHL SUB AND PUSH1 0x0 SWAP1 DUP2 MSTORE PUSH1 0x4 PUSH1 0x20 MSTORE PUSH1 0x40 SWAP1 KECCAK256 SLOAD SWAP1 JUMP JUMPDEST PUSH1 0x40 MLOAD SWAP1 DUP2 MSTORE PUSH1 0x20 ADD PUSH2 0x194 JUMP JUMPDEST CALLVALUE DUP1 ISZERO PUSH2 0x1ED JUMPI PUSH1 0x0 DUP1 REVERT JUMPDEST POP PUSH2 0x201 PUSH2 0x1FC CALLDATASIZE PUSH1 0x4 PUSH2 0x2A3A JUMP JUMPDEST PUSH2 0x63C JUMP JUMPDEST STOP JUMPDEST CALLVALUE DUP1 ISZERO PUSH2 0x20F JUMPI PUSH1 0x0 DUP1 REVERT JUMPDEST POP PUSH2 0x23C PUSH2 0x21E CALLDATASIZE PUSH1 0x4 PUSH2 0x2A3A JUMP JUMPDEST PUSH1 0x1 PUSH1 0x1 PUSH1 0xA0 SHL SUB AND PUSH1 0x0 SWAP1 DUP2 MSTORE PUSH1 0xE PUSH1 0x20 MSTORE PUSH1 0x40 SWAP1 KECCAK256 SLOAD PUSH1 0xFF AND SWAP1 JUMP JUMPDEST PUSH1 0x40 MLOAD SWAP1 ISZERO ISZERO DUP2 MSTORE PUSH1 0x20 ADD PUSH2 0x194 JUMP JUMPDEST CALLVALUE DUP1 ISZERO PUSH2 0x258 JUMPI PUSH1 0x0 DUP1 REVERT JUMPDEST POP PUSH2 0x201 PUSH2 0x267 CALLDATASIZE PUSH1 0x4 PUSH2 0x2A57 JUMP JUMPDEST PUSH2 0x691 JUMP JUMPDEST PUSH2 0x201 PUSH2 0x27A CALLDATASIZE PUSH1 0x4 PUSH2 0x2A57 JUMP JUMPDEST PUSH2 0x986 JUMP JUMPDEST CALLVALUE DUP1 ISZERO PUSH2 0x28B JUMPI PUSH1 0x0 DUP1 REVERT JUMPDEST POP PUSH2 0x201 PUSH2 0x29A CALLDATASIZE PUSH1 0x4 PUSH2 0x2A3A JUMP JUMPDEST PUSH2 0xBFB JUMP JUMPDEST CALLVALUE DUP1 ISZERO PUSH2 0x2AB JUMPI PUSH1 0x0 DUP1 REVERT JUMPDEST POP PUSH2 0x201 PUSH2 0x2BA CALLDATASIZE PUSH1 0x4 PUSH2 0x2A57 JUMP JUMPDEST PUSH2 0xC47 JUMP JUMPDEST CALLVALUE DUP1 ISZERO PUSH2 0x2CB JUMPI PUSH1 0x0 DUP1 REVERT JUMPDEST POP PUSH2 0x201 PUSH2 0xE5F JUMP JUMPDEST CALLVALUE DUP1 ISZERO PUSH2 0x2E0 JUMPI PUSH1 0x0 DUP1 REVERT JUMPDEST POP CALLER PUSH1 0x0 SWAP1 DUP2 MSTORE PUSH1 0x3 PUSH1 0x20 MSTORE PUSH1 0x40 SWAP1 KECCAK256 SLOAD PUSH2 0x1D3 JUMP JUMPDEST CALLVALUE DUP1 ISZERO PUSH2 0x302 JUMPI PUSH1 0x0 DUP1 REVERT JUMPDEST POP PUSH2 0x201 PUSH2 0x311 CALLDATASIZE PUSH1 0x4 PUSH2 0x2A92 JUMP JUMPDEST PUSH2 0xED3 JUMP JUMPDEST CALLVALUE DUP1 ISZERO PUSH2 0x322 JUMPI PUSH1 0x0 DUP1 REVERT JUMPDEST POP PUSH2 0x201 PUSH2 0x331 CALLDATASIZE PUSH1 0x4 PUSH2 0x2A3A JUMP JUMPDEST PUSH2 0xF1A JUMP JUMPDEST PUSH2 0x201 PUSH2 0x344 CALLDATASIZE PUSH1 0x4 PUSH2 0x2AE3 JUMP JUMPDEST PUSH2 0xF66 JUMP JUMPDEST CALLVALUE DUP1 ISZERO PUSH2 0x355 JUMPI PUSH1 0x0 DUP1 REVERT JUMPDEST POP PUSH1 0x2 SLOAD PUSH2 0x187 SWAP1 PUSH1 0x1 PUSH1 0x1 PUSH1 0xA0 SHL SUB AND DUP2 JUMP JUMPDEST CALLVALUE DUP1 ISZERO PUSH2 0x375 JUMPI PUSH1 0x0 DUP1 REVERT JUMPDEST POP PUSH1 0x0 SLOAD PUSH1 0x1 PUSH1 0x1 PUSH1 0xA0 SHL SUB AND PUSH2 0x187 JUMP JUMPDEST CALLVALUE DUP1 ISZERO PUSH2 0x393 JUMPI PUSH1 0x0 DUP1 REVERT JUMPDEST POP PUSH2 0x187 PUSH2 0x3A2 CALLDATASIZE PUSH1 0x4 PUSH2 0x29FA JUMP JUMPDEST PUSH2 0x1974 JUMP JUMPDEST CALLVALUE DUP1 ISZERO PUSH2 0x3B3 JUMPI PUSH1 0x0 DUP1 REVERT JUMPDEST POP PUSH1 0x5 SLOAD PUSH1 0x6 SLOAD PUSH1 0x7 SLOAD PUSH1 0x8 SLOAD PUSH1 0x9 SLOAD PUSH1 0xA SLOAD PUSH1 0xB SLOAD PUSH1 0xC SLOAD PUSH1 0xD SLOAD PUSH2 0x3EA SWAP9 SWAP8 PUSH1 0x1 PUSH1 0x1 PUSH1 0xA0 SHL SUB SWAP1 DUP2 AND SWAP8 SWAP7 SWAP6 SWAP5 SWAP4 AND SWAP2 SWAP1 DUP10 JUMP JUMPDEST PUSH1 0x40 DUP1 MLOAD SWAP10 DUP11 MSTORE PUSH1 0x1 PUSH1 0x1 PUSH1 0xA0 SHL SUB SWAP9 DUP10 AND PUSH1 0x20 DUP12 ADD MSTORE DUP10 ADD SWAP7 SWAP1 SWAP7 MSTORE PUSH1 0x60 DUP9 ADD SWAP5 SWAP1 SWAP5 MSTORE PUSH1 0x80 DUP8 ADD SWAP3 SWAP1 SWAP3 MSTORE PUSH1 0xA0 DUP7 ADD MSTORE SWAP1 SWAP3 AND PUSH1 0xC0 DUP5 ADD MSTORE PUSH1 0xE0 DUP4 ADD SWAP2 SWAP1 SWAP2 MSTORE PUSH2 0x100 DUP3 ADD MSTORE PUSH2 0x120 ADD PUSH2 0x194 JUMP JUMPDEST CALLVALUE DUP1 ISZERO PUSH2 0x447 JUMPI PUSH1 0x0 DUP1 REVERT JUMPDEST POP PUSH2 0x201 PUSH2 0x456 CALLDATASIZE PUSH1 0x4 PUSH2 0x2B53 JUMP JUMPDEST PUSH2 0x1A19 JUMP JUMPDEST CALLVALUE DUP1 ISZERO PUSH2 0x467 JUMPI PUSH1 0x0 DUP1 REVERT JUMPDEST POP PUSH2 0x1D3 PUSH2 0x476 CALLDATASIZE PUSH1 0x4 PUSH2 0x2A3A JUMP JUMPDEST PUSH1 0x1 PUSH1 0x1 PUSH1 0xA0 SHL SUB AND PUSH1 0x0 SWAP1 DUP2 MSTORE PUSH1 0x3 PUSH1 0x20 MSTORE PUSH1 0x40 SWAP1 KECCAK256 SLOAD SWAP1 JUMP JUMPDEST CALLVALUE DUP1 ISZERO PUSH2 0x49D JUMPI PUSH1 0x0 DUP1 REVERT JUMPDEST POP PUSH2 0x1D3 PUSH2 0x4AC CALLDATASIZE PUSH1 0x4 PUSH2 0x2B8C JUMP JUMPDEST PUSH1 0x1 PUSH1 0x1 PUSH1 0xA0 SHL SUB SWAP2 DUP3 AND PUSH1 0x0 SWAP1 DUP2 MSTORE PUSH1 0x3 PUSH1 0x20 SWAP1 DUP2 MSTORE PUSH1 0x40 DUP1 DUP4 KECCAK256 SWAP4 SWAP1 SWAP5 AND DUP3 MSTORE PUSH1 0x1 SWAP1 SWAP3 ADD SWAP1 SWAP2 MSTORE KECCAK256 SLOAD SWAP1 JUMP JUMPDEST CALLVALUE DUP1 ISZERO PUSH2 0x4E7 JUMPI PUSH1 0x0 DUP1 REVERT JUMPDEST POP PUSH2 0x201 PUSH2 0x4F6 CALLDATASIZE PUSH1 0x4 PUSH2 0x2A57 JUMP JUMPDEST PUSH2 0x1A6E JUMP JUMPDEST CALLVALUE DUP1 ISZERO PUSH2 0x507 JUMPI PUSH1 0x0 DUP1 REVERT JUMPDEST POP PUSH2 0x201 PUSH2 0x516 CALLDATASIZE PUSH1 0x4 PUSH2 0x2BBA JUMP JUMPDEST PUSH2 0x1C53 JUMP JUMPDEST CALLVALUE DUP1 ISZERO PUSH2 0x527 JUMPI PUSH1 0x0 DUP1 REVERT JUMPDEST POP PUSH2 0x53B PUSH2 0x536 CALLDATASIZE PUSH1 0x4 PUSH2 0x29FA JUMP JUMPDEST PUSH2 0x1EBA JUMP JUMPDEST PUSH1 0x40 DUP1 MLOAD SWAP7 DUP8 MSTORE PUSH1 0x20 DUP8 ADD SWAP6 SWAP1 SWAP6 MSTORE SWAP4 DUP6 ADD SWAP3 SWAP1 SWAP3 MSTORE PUSH1 0x60 DUP5 ADD MSTORE PUSH1 0x80 DUP4 ADD MSTORE PUSH1 0x1 PUSH1 0x1 PUSH1 0xA0 SHL SUB AND PUSH1 0xA0 DUP3 ADD MSTORE PUSH1 0xC0 ADD PUSH2 0x194 JUMP JUMPDEST CALLVALUE DUP1 ISZERO PUSH2 0x57D JUMPI PUSH1 0x0 DUP1 REVERT JUMPDEST POP PUSH2 0x53B PUSH2 0x58C CALLDATASIZE PUSH1 0x4 PUSH2 0x2C04 JUMP JUMPDEST PUSH2 0x1F17 JUMP JUMPDEST CALLVALUE DUP1 ISZERO PUSH2 0x59D JUMPI PUSH1 0x0 DUP1 REVERT JUMPDEST POP PUSH2 0x201 PUSH2 0x5AC CALLDATASIZE PUSH1 0x4 PUSH2 0x2A57 JUMP JUMPDEST PUSH2 0x2015 JUMP JUMPDEST CALLVALUE DUP1 ISZERO PUSH2 0x5BD JUMPI PUSH1 0x0 DUP1 REVERT JUMPDEST POP PUSH2 0x201 PUSH2 0x5CC CALLDATASIZE PUSH1 0x4 PUSH2 0x29FA JUMP JUMPDEST PUSH2 0x2337 JUMP JUMPDEST CALLVALUE DUP1 ISZERO PUSH2 0x5DD JUMPI PUSH1 0x0 DUP1 REVERT JUMPDEST POP PUSH2 0x201 PUSH2 0x5EC CALLDATASIZE PUSH1 0x4 PUSH2 0x2A3A JUMP JUMPDEST PUSH2 0x2387 JUMP JUMPDEST PUSH1 0x1 PUSH1 0x1 PUSH1 0xA0 SHL SUB DUP3 AND PUSH1 0x0 SWAP1 DUP2 MSTORE PUSH1 0x3 PUSH1 0x20 MSTORE PUSH1 0x40 DUP2 KECCAK256 DUP1 SLOAD DUP2 SWAP1 DUP5 SWAP1 DUP2 LT PUSH2 0x61D JUMPI PUSH2 0x61D PUSH2 0x2C45 JUMP JUMPDEST PUSH1 0x0 SWAP2 DUP3 MSTORE PUSH1 0x20 SWAP1 SWAP2 KECCAK256 ADD SLOAD PUSH1 0x1 PUSH1 0x1 PUSH1 0xA0 SHL SUB AND SWAP2 POP POP JUMPDEST SWAP3 SWAP2 POP POP JUMP JUMPDEST PUSH1 0x0 SLOAD PUSH1 0x1 PUSH1 0x1 PUSH1 0xA0 SHL SUB AND CALLER EQ PUSH2 0x66F JUMPI PUSH1 0x40 MLOAD PUSH3 0x461BCD PUSH1 0xE5 SHL DUP2 MSTORE PUSH1 0x4 ADD PUSH2 0x666 SWAP1 PUSH2 0x2C5B JUMP JUMPDEST PUSH1 0x40 MLOAD DUP1 SWAP2 SUB SWAP1 REVERT JUMPDEST PUSH1 0x12 DUP1 SLOAD PUSH1 0x1 PUSH1 0x1 PUSH1 0xA0 SHL SUB NOT AND PUSH1 0x1 PUSH1 0x1 PUSH1 0xA0 SHL SUB SWAP3 SWAP1 SWAP3 AND SWAP2 SWAP1 SWAP2 OR SWAP1 SSTORE JUMP JUMPDEST PUSH1 0x2 PUSH1 0x1 SLOAD SUB PUSH2 0x6B3 JUMPI PUSH1 0x40 MLOAD PUSH3 0x461BCD PUSH1 0xE5 SHL DUP2 MSTORE PUSH1 0x4 ADD PUSH2 0x666 SWAP1 PUSH2 0x2C90 JUMP JUMPDEST PUSH1 0x2 PUSH1 0x1 SSTORE DUP1 PUSH2 0x6F6 JUMPI PUSH1 0x40 MLOAD PUSH3 0x461BCD PUSH1 0xE5 SHL DUP2 MSTORE PUSH1 0x20 PUSH1 0x4 DUP3 ADD MSTORE PUSH1 0xE PUSH1 0x24 DUP3 ADD MSTORE PUSH14 0x16915493C815D2551211149055D3 PUSH1 0x92 SHL PUSH1 0x44 DUP3 ADD MSTORE PUSH1 0x64 ADD PUSH2 0x666 JUMP JUMPDEST CALLER PUSH1 0x0 SWAP1 DUP2 MSTORE PUSH1 0x3 PUSH1 0x20 SWAP1 DUP2 MSTORE PUSH1 0x40 DUP1 DUP4 KECCAK256 PUSH1 0x1 PUSH1 0x1 PUSH1 0xA0 SHL SUB DUP9 AND DUP5 MSTORE PUSH1 0x1 ADD SWAP1 SWAP2 MSTORE DUP2 KECCAK256 DUP1 SLOAD DUP6 SWAP1 DUP2 LT PUSH2 0x72E JUMPI PUSH2 0x72E PUSH2 0x2C45 JUMP JUMPDEST SWAP1 PUSH1 0x0 MSTORE PUSH1 0x20 PUSH1 0x0 KECCAK256 ADD SLOAD SWAP1 POP PUSH1 0x0 PUSH1 0x4 PUSH1 0x0 DUP8 PUSH1 0x1 PUSH1 0x1 PUSH1 0xA0 SHL SUB AND PUSH1 0x1 PUSH1 0x1 PUSH1 0xA0 SHL SUB AND DUP2 MSTORE PUSH1 0x20 ADD SWAP1 DUP2 MSTORE PUSH1 0x20 ADD PUSH1 0x0 KECCAK256 DUP3 DUP2 SLOAD DUP2 LT PUSH2 0x773 JUMPI PUSH2 0x773 PUSH2 0x2C45 JUMP JUMPDEST SWAP1 PUSH1 0x0 MSTORE PUSH1 0x20 PUSH1 0x0 KECCAK256 SWAP1 PUSH1 0x6 MUL ADD SWAP1 POP DUP4 DUP3 EQ DUP1 ISZERO PUSH2 0x79E JUMPI POP PUSH1 0x5 DUP2 ADD SLOAD PUSH1 0x1 PUSH1 0x1 PUSH1 0xA0 SHL SUB AND CALLER EQ JUMPDEST PUSH2 0x7BA JUMPI PUSH1 0x40 MLOAD PUSH3 0x461BCD PUSH1 0xE5 SHL DUP2 MSTORE PUSH1 0x4 ADD PUSH2 0x666 SWAP1 PUSH2 0x2CC7 JUMP JUMPDEST TIMESTAMP DUP2 PUSH1 0x3 ADD SLOAD LT PUSH2 0x7F7 JUMPI PUSH1 0x40 MLOAD PUSH3 0x461BCD PUSH1 0xE5 SHL DUP2 MSTORE PUSH1 0x20 PUSH1 0x4 DUP3 ADD MSTORE PUSH1 0x7 PUSH1 0x24 DUP3 ADD MSTORE PUSH7 0x1393D508165155 PUSH1 0xCA SHL PUSH1 0x44 DUP3 ADD MSTORE PUSH1 0x64 ADD PUSH2 0x666 JUMP JUMPDEST PUSH1 0x1 DUP2 ADD SLOAD PUSH2 0x806 SWAP1 DUP5 PUSH2 0x2471 JUMP JUMPDEST PUSH1 0x1 DUP3 ADD DUP2 SWAP1 SSTORE PUSH1 0x0 SUB PUSH2 0x8E4 JUMPI CALLER PUSH1 0x0 SWAP1 DUP2 MSTORE PUSH1 0x3 PUSH1 0x20 SWAP1 DUP2 MSTORE PUSH1 0x40 DUP1 DUP4 KECCAK256 PUSH1 0x1 PUSH1 0x1 PUSH1 0xA0 SHL SUB DUP11 AND DUP5 MSTORE PUSH1 0x1 SWAP1 DUP2 ADD SWAP1 SWAP3 MSTORE SWAP1 SWAP2 KECCAK256 DUP1 SLOAD SWAP1 SWAP2 DUP3 SWAP2 PUSH2 0x84D SWAP2 SWAP1 PUSH2 0x2D04 JUMP JUMPDEST DUP2 SLOAD DUP2 LT PUSH2 0x85D JUMPI PUSH2 0x85D PUSH2 0x2C45 JUMP JUMPDEST SWAP1 PUSH1 0x0 MSTORE PUSH1 0x20 PUSH1 0x0 KECCAK256 ADD SLOAD DUP2 DUP8 DUP2 SLOAD DUP2 LT PUSH2 0x87A JUMPI PUSH2 0x87A PUSH2 0x2C45 JUMP JUMPDEST SWAP1 PUSH1 0x0 MSTORE PUSH1 0x20 PUSH1 0x0 KECCAK256 ADD DUP2 SWAP1 SSTORE POP DUP1 DUP1 SLOAD DUP1 PUSH2 0x898 JUMPI PUSH2 0x898 PUSH2 0x2D1B JUMP JUMPDEST PUSH1 0x1 SWAP1 SUB DUP2 DUP2 SWAP1 PUSH1 0x0 MSTORE PUSH1 0x20 PUSH1 0x0 KECCAK256 ADD PUSH1 0x0 SWAP1 SSTORE SWAP1 SSTORE DUP1 DUP1 SLOAD SWAP1 POP PUSH1 0x0 SUB PUSH2 0x8DE JUMPI PUSH1 0x1 PUSH1 0x1 PUSH1 0xA0 SHL SUB DUP8 AND PUSH1 0x0 SWAP1 DUP2 MSTORE PUSH1 0x10 PUSH1 0x20 MSTORE PUSH1 0x40 SWAP1 KECCAK256 DUP1 SLOAD PUSH1 0xFF NOT AND PUSH1 0x1 OR SWAP1 SSTORE JUMPDEST POP PUSH2 0x97A JUMP JUMPDEST CALLER PUSH1 0x0 SWAP1 DUP2 MSTORE PUSH1 0xF PUSH1 0x20 MSTORE PUSH1 0x40 SWAP1 KECCAK256 SLOAD PUSH1 0xFF AND ISZERO ISZERO PUSH1 0x1 SUB PUSH2 0x935 JUMPI PUSH1 0x11 SLOAD PUSH2 0x918 SWAP1 DUP8 SWAP1 PUSH1 0x1 PUSH1 0x1 PUSH1 0xA0 SHL SUB AND DUP6 PUSH2 0x24BA JUMP JUMPDEST PUSH1 0x11 SLOAD PUSH2 0x930 SWAP1 DUP8 SWAP1 PUSH1 0x1 PUSH1 0x1 PUSH1 0xA0 SHL SUB AND DUP6 PUSH2 0x25D7 JUMP JUMPDEST PUSH2 0x97A JUMP JUMPDEST PUSH2 0x940 DUP7 CALLER DUP6 PUSH2 0x25D7 JUMP JUMPDEST PUSH32 0xCCAD973DCD043C7D680389DB4378BD6B9775DB7124092E9E0422C9E46D7985DC DUP7 DUP5 PUSH1 0x40 MLOAD PUSH2 0x971 SWAP3 SWAP2 SWAP1 PUSH2 0x2D31 JUMP JUMPDEST PUSH1 0x40 MLOAD DUP1 SWAP2 SUB SWAP1 LOG1 JUMPDEST POP POP PUSH1 0x1 DUP1 SSTORE POP POP POP POP JUMP JUMPDEST PUSH1 0x2 PUSH1 0x1 SLOAD SUB PUSH2 0x9A8 JUMPI PUSH1 0x40 MLOAD PUSH3 0x461BCD PUSH1 0xE5 SHL DUP2 MSTORE PUSH1 0x4 ADD PUSH2 0x666 SWAP1 PUSH2 0x2C90 JUMP JUMPDEST PUSH1 0x2 PUSH1 0x1 SSTORE CALLER PUSH1 0x0 SWAP1 DUP2 MSTORE PUSH1 0xF PUSH1 0x20 MSTORE PUSH1 0x40 SWAP1 KECCAK256 SLOAD PUSH1 0xFF AND ISZERO PUSH2 0x9CA JUMPI PUSH1 0x0 DUP1 REVERT JUMPDEST PUSH1 0x0 DUP2 GT PUSH2 0x9EA JUMPI PUSH1 0x40 MLOAD PUSH3 0x461BCD PUSH1 0xE5 SHL DUP2 MSTORE PUSH1 0x4 ADD PUSH2 0x666 SWAP1 PUSH2 0x2D4A JUMP JUMPDEST CALLER PUSH1 0x0 SWAP1 DUP2 MSTORE PUSH1 0x3 PUSH1 0x20 SWAP1 DUP2 MSTORE PUSH1 0x40 DUP1 DUP4 KECCAK256 PUSH1 0x1 PUSH1 0x1 PUSH1 0xA0 SHL SUB DUP9 AND DUP5 MSTORE PUSH1 0x1 ADD SWAP1 SWAP2 MSTORE DUP2 KECCAK256 DUP1 SLOAD DUP6 SWAP1 DUP2 LT PUSH2 0xA22 JUMPI PUSH2 0xA22 PUSH2 0x2C45 JUMP JUMPDEST SWAP1 PUSH1 0x0 MSTORE PUSH1 0x20 PUSH1 0x0 KECCAK256 ADD SLOAD SWAP1 POP PUSH1 0x0 PUSH1 0x4 PUSH1 0x0 DUP8 PUSH1 0x1 PUSH1 0x1 PUSH1 0xA0 SHL SUB AND PUSH1 0x1 PUSH1 0x1 PUSH1 0xA0 SHL SUB AND DUP2 MSTORE PUSH1 0x20 ADD SWAP1 DUP2 MSTORE PUSH1 0x20 ADD PUSH1 0x0 KECCAK256 DUP3 DUP2 SLOAD DUP2 LT PUSH2 0xA67 JUMPI PUSH2 0xA67 PUSH2 0x2C45 JUMP JUMPDEST SWAP1 PUSH1 0x0 MSTORE PUSH1 0x20 PUSH1 0x0 KECCAK256 SWAP1 PUSH1 0x6 MUL ADD SWAP1 POP DUP4 DUP3 EQ DUP1 ISZERO PUSH2 0xA92 JUMPI POP PUSH1 0x5 DUP2 ADD SLOAD PUSH1 0x1 PUSH1 0x1 PUSH1 0xA0 SHL SUB AND CALLER EQ JUMPDEST PUSH2 0xAAE JUMPI PUSH1 0x40 MLOAD PUSH3 0x461BCD PUSH1 0xE5 SHL DUP2 MSTORE PUSH1 0x4 ADD PUSH2 0x666 SWAP1 PUSH2 0x2CC7 JUMP JUMPDEST PUSH1 0x5 SLOAD CALLVALUE EQ PUSH2 0xACF JUMPI PUSH1 0x40 MLOAD PUSH3 0x461BCD PUSH1 0xE5 SHL DUP2 MSTORE PUSH1 0x4 ADD PUSH2 0x666 SWAP1 PUSH2 0x2D6F JUMP JUMPDEST PUSH1 0x11 SLOAD PUSH1 0x5 SLOAD PUSH1 0x40 MLOAD PUSH1 0x1 PUSH1 0x1 PUSH1 0xA0 SHL SUB SWAP1 SWAP3 AND SWAP2 DUP2 ISZERO PUSH2 0x8FC MUL SWAP2 SWAP1 PUSH1 0x0 DUP2 DUP2 DUP2 DUP6 DUP9 DUP9 CALL SWAP4 POP POP POP POP ISZERO DUP1 ISZERO PUSH2 0xB0B JUMPI RETURNDATASIZE PUSH1 0x0 DUP1 RETURNDATACOPY RETURNDATASIZE PUSH1 0x0 REVERT JUMPDEST POP PUSH1 0x1 DUP2 ADD SLOAD PUSH2 0xB1B SWAP1 DUP5 PUSH2 0x2471 JUMP JUMPDEST PUSH1 0x1 DUP3 ADD SSTORE PUSH2 0xB28 PUSH2 0x29A3 JUMP JUMPDEST DUP2 SLOAD DUP2 MSTORE PUSH1 0x20 DUP1 DUP3 ADD DUP6 DUP2 MSTORE PUSH1 0x40 DUP1 DUP5 ADD SWAP7 DUP8 MSTORE PUSH1 0x3 SWAP5 DUP6 ADD SLOAD PUSH1 0x60 DUP6 ADD SWAP1 DUP2 MSTORE PUSH1 0x1 PUSH1 0x1 PUSH1 0xA0 SHL SUB SWAP11 DUP12 AND PUSH1 0x0 DUP2 DUP2 MSTORE PUSH1 0x4 DUP1 DUP8 MSTORE DUP5 DUP3 KECCAK256 DUP1 SLOAD PUSH1 0x80 DUP11 ADD DUP2 DUP2 MSTORE CALLER PUSH1 0xA0 DUP13 ADD DUP2 DUP2 MSTORE DUP6 DUP13 MSTORE PUSH1 0x1 DUP1 DUP6 ADD DUP7 SSTORE SWAP5 DUP8 MSTORE DUP12 DUP8 KECCAK256 SWAP13 MLOAD PUSH1 0x6 SWAP1 SWAP5 MUL SWAP1 SWAP13 ADD SWAP3 DUP4 SSTORE SWAP9 MLOAD DUP3 DUP5 ADD SSTORE SWAP13 MLOAD PUSH1 0x2 DUP3 ADD SSTORE SWAP5 MLOAD DUP6 DUP12 ADD SSTORE DUP12 MLOAD SWAP2 DUP6 ADD SWAP2 SWAP1 SWAP2 SSTORE SWAP7 MLOAD PUSH1 0x5 SWAP1 SWAP4 ADD DUP1 SLOAD PUSH1 0x1 PUSH1 0x1 PUSH1 0xA0 SHL SUB NOT AND SWAP4 SWAP1 SWAP14 AND SWAP3 SWAP1 SWAP3 OR SWAP1 SWAP12 SSTORE SWAP2 DUP3 MSTORE SWAP4 DUP3 MSTORE DUP4 DUP2 KECCAK256 SWAP9 DUP2 MSTORE SWAP8 DUP3 ADD DUP2 MSTORE SWAP2 DUP8 KECCAK256 SWAP4 MLOAD DUP5 SLOAD DUP1 DUP4 ADD DUP7 SSTORE SWAP5 DUP9 MSTORE SWAP2 SWAP1 SWAP7 KECCAK256 SWAP1 SWAP3 ADD SWAP2 SWAP1 SWAP2 SSTORE POP POP POP DUP1 SSTORE JUMP JUMPDEST PUSH1 0x0 SLOAD PUSH1 0x1 PUSH1 0x1 PUSH1 0xA0 SHL SUB AND CALLER EQ PUSH2 0xC25 JUMPI PUSH1 0x40 MLOAD PUSH3 0x461BCD PUSH1 0xE5 SHL DUP2 MSTORE PUSH1 0x4 ADD PUSH2 0x666 SWAP1 PUSH2 0x2C5B JUMP JUMPDEST PUSH1 0x11 DUP1 SLOAD PUSH1 0x1 PUSH1 0x1 PUSH1 0xA0 SHL SUB NOT AND PUSH1 0x1 PUSH1 0x1 PUSH1 0xA0 SHL SUB SWAP3 SWAP1 SWAP3 AND SWAP2 SWAP1 SWAP2 OR SWAP1 SSTORE JUMP JUMPDEST PUSH1 0x2 PUSH1 0x1 SLOAD SUB PUSH2 0xC69 JUMPI PUSH1 0x40 MLOAD PUSH3 0x461BCD PUSH1 0xE5 SHL DUP2 MSTORE PUSH1 0x4 ADD PUSH2 0x666 SWAP1 PUSH2 0x2C90 JUMP JUMPDEST PUSH1 0x2 PUSH1 0x1 SSTORE PUSH5 0x2540BE400 DUP2 LT PUSH2 0xC92 JUMPI PUSH1 0x40 MLOAD PUSH3 0x461BCD PUSH1 0xE5 SHL DUP2 MSTORE PUSH1 0x4 ADD PUSH2 0x666 SWAP1 PUSH2 0x2D94 JUMP JUMPDEST CALLER PUSH1 0x0 SWAP1 DUP2 MSTORE PUSH1 0x3 PUSH1 0x20 SWAP1 DUP2 MSTORE PUSH1 0x40 DUP1 DUP4 KECCAK256 PUSH1 0x1 PUSH1 0x1 PUSH1 0xA0 SHL SUB DUP9 AND DUP5 MSTORE PUSH1 0x1 ADD SWAP1 SWAP2 MSTORE DUP2 KECCAK256 DUP1 SLOAD DUP6 SWAP1 DUP2 LT PUSH2 0xCCA JUMPI PUSH2 0xCCA PUSH2 0x2C45 JUMP JUMPDEST SWAP1 PUSH1 0x0 MSTORE PUSH1 0x20 PUSH1 0x0 KECCAK256 ADD SLOAD SWAP1 POP PUSH1 0x0 PUSH1 0x4 PUSH1 0x0 DUP8 PUSH1 0x1 PUSH1 0x1 PUSH1 0xA0 SHL SUB AND PUSH1 0x1 PUSH1 0x1 PUSH1 0xA0 SHL SUB AND DUP2 MSTORE PUSH1 0x20 ADD SWAP1 DUP2 MSTORE PUSH1 0x20 ADD PUSH1 0x0 KECCAK256 DUP3 DUP2 SLOAD DUP2 LT PUSH2 0xD0F JUMPI PUSH2 0xD0F PUSH2 0x2C45 JUMP JUMPDEST SWAP1 PUSH1 0x0 MSTORE PUSH1 0x20 PUSH1 0x0 KECCAK256 SWAP1 PUSH1 0x6 MUL ADD SWAP1 POP DUP4 DUP3 EQ DUP1 ISZERO PUSH2 0xD3A JUMPI POP PUSH1 0x5 DUP2 ADD SLOAD PUSH1 0x1 PUSH1 0x1 PUSH1 0xA0 SHL SUB AND CALLER EQ JUMPDEST PUSH2 0xD56 JUMPI PUSH1 0x40 MLOAD PUSH3 0x461BCD PUSH1 0xE5 SHL DUP2 MSTORE PUSH1 0x4 ADD PUSH2 0x666 SWAP1 PUSH2 0x2CC7 JUMP JUMPDEST DUP3 DUP2 PUSH1 0x3 ADD SLOAD LT PUSH2 0xD99 JUMPI PUSH1 0x40 MLOAD PUSH3 0x461BCD PUSH1 0xE5 SHL DUP2 MSTORE PUSH1 0x20 PUSH1 0x4 DUP3 ADD MSTORE PUSH1 0xD PUSH1 0x24 DUP3 ADD MSTORE PUSH13 0x554E4C4F434B204245464F5245 PUSH1 0x98 SHL PUSH1 0x44 DUP3 ADD MSTORE PUSH1 0x64 ADD PUSH2 0x666 JUMP JUMPDEST PUSH1 0x9 SLOAD CALLER PUSH1 0x0 SWAP1 DUP2 MSTORE PUSH1 0xF PUSH1 0x20 MSTORE PUSH1 0x40 DUP2 KECCAK256 SLOAD SWAP1 SWAP2 SWAP1 PUSH1 0xFF AND ISZERO ISZERO PUSH1 0x1 SUB PUSH2 0xDF5 JUMPI PUSH1 0x9 SLOAD PUSH2 0xDC9 SWAP1 PUSH1 0xA PUSH2 0x26ED JUMP JUMPDEST SWAP1 POP PUSH2 0xDEE PUSH2 0x3E8 PUSH2 0xDE8 DUP4 DUP7 PUSH1 0x1 ADD SLOAD PUSH2 0x26ED SWAP1 SWAP2 SWAP1 PUSH4 0xFFFFFFFF AND JUMP JUMPDEST SWAP1 PUSH2 0x276F JUMP JUMPDEST SWAP2 POP PUSH2 0xE15 JUMP JUMPDEST PUSH2 0xE12 PUSH2 0x3E8 PUSH2 0xDE8 DUP4 DUP7 PUSH1 0x1 ADD SLOAD PUSH2 0x26ED SWAP1 SWAP2 SWAP1 PUSH4 0xFFFFFFFF AND JUMP JUMPDEST SWAP2 POP JUMPDEST PUSH1 0x1 DUP4 ADD SLOAD PUSH1 0x0 SWAP1 PUSH2 0xE27 SWAP1 DUP5 PUSH2 0x2471 JUMP JUMPDEST PUSH1 0x1 DUP6 ADD DUP2 SWAP1 SSTORE PUSH1 0x3 DUP6 ADD DUP8 SWAP1 SSTORE PUSH1 0x11 SLOAD SWAP1 SWAP2 POP PUSH2 0xE50 SWAP1 DUP11 SWAP1 PUSH1 0x1 PUSH1 0x1 PUSH1 0xA0 SHL SUB AND DUP6 PUSH2 0x25D7 JUMP JUMPDEST POP POP PUSH1 0x1 DUP1 SSTORE POP POP POP POP POP POP POP JUMP JUMPDEST PUSH1 0x0 SLOAD PUSH1 0x1 PUSH1 0x1 PUSH1 0xA0 SHL SUB AND CALLER EQ PUSH2 0xE89 JUMPI PUSH1 0x40 MLOAD PUSH3 0x461BCD PUSH1 0xE5 SHL DUP2 MSTORE PUSH1 0x4 ADD PUSH2 0x666 SWAP1 PUSH2 0x2C5B JUMP JUMPDEST PUSH1 0x0 DUP1 SLOAD PUSH1 0x40 MLOAD PUSH1 0x1 PUSH1 0x1 PUSH1 0xA0 SHL SUB SWAP1 SWAP2 AND SWAP1 PUSH32 0x8BE0079C531659141344CD1FD0A4F28419497F9722A3DAAFE3B4186F6B6457E0 SWAP1 DUP4 SWAP1 LOG3 PUSH1 0x0 DUP1 SLOAD PUSH1 0x1 PUSH1 0x1 PUSH1 0xA0 SHL SUB NOT AND SWAP1 SSTORE JUMP JUMPDEST PUSH1 0x0 SLOAD PUSH1 0x1 PUSH1 0x1 PUSH1 0xA0 SHL SUB AND CALLER EQ PUSH2 0xEFD JUMPI PUSH1 0x40 MLOAD PUSH3 0x461BCD PUSH1 0xE5 SHL DUP2 MSTORE PUSH1 0x4 ADD PUSH2 0x666 SWAP1 PUSH2 0x2C5B JUMP JUMPDEST PUSH1 0xA SWAP6 SWAP1 SWAP6 SSTORE PUSH1 0xD SWAP4 SWAP1 SWAP4 SSTORE PUSH1 0x5 SWAP2 SWAP1 SWAP2 SSTORE PUSH1 0x7 SSTORE PUSH1 0x8 SSTORE PUSH1 0x9 SSTORE JUMP JUMPDEST PUSH1 0x0 SLOAD PUSH1 0x1 PUSH1 0x1 PUSH1 0xA0 SHL SUB AND CALLER EQ PUSH2 0xF44 JUMPI PUSH1 0x40 MLOAD PUSH3 0x461BCD PUSH1 0xE5 SHL DUP2 MSTORE PUSH1 0x4 ADD PUSH2 0x666 SWAP1 PUSH2 0x2C5B JUMP JUMPDEST PUSH1 0x6 DUP1 SLOAD PUSH1 0x1 PUSH1 0x1 PUSH1 0xA0 SHL SUB NOT AND PUSH1 0x1 PUSH1 0x1 PUSH1 0xA0 SHL SUB SWAP3 SWAP1 SWAP3 AND SWAP2 SWAP1 SWAP2 OR SWAP1 SSTORE JUMP JUMPDEST PUSH1 0x2 PUSH1 0x1 SLOAD SUB PUSH2 0xF88 JUMPI PUSH1 0x40 MLOAD PUSH3 0x461BCD PUSH1 0xE5 SHL DUP2 MSTORE PUSH1 0x4 ADD PUSH2 0x666 SWAP1 PUSH2 0x2C90 JUMP JUMPDEST PUSH1 0x2 PUSH1 0x1 SSTORE PUSH5 0x2540BE400 DUP5 LT PUSH2 0xFB1 JUMPI PUSH1 0x40 MLOAD PUSH3 0x461BCD PUSH1 0xE5 SHL DUP2 MSTORE PUSH1 0x4 ADD PUSH2 0x666 SWAP1 PUSH2 0x2D94 JUMP JUMPDEST PUSH1 0x0 DUP6 GT PUSH2 0xFF0 JUMPI PUSH1 0x40 MLOAD PUSH3 0x461BCD PUSH1 0xE5 SHL DUP2 MSTORE PUSH1 0x20 PUSH1 0x4 DUP3 ADD MSTORE PUSH1 0xC PUSH1 0x24 DUP3 ADD MSTORE PUSH12 0x125394D551919250D2515395 PUSH1 0xA2 SHL PUSH1 0x44 DUP3 ADD MSTORE PUSH1 0x64 ADD PUSH2 0x666 JUMP JUMPDEST PUSH1 0x2 SLOAD PUSH1 0x40 DUP1 MLOAD PUSH4 0xDFE1681 PUSH1 0xE0 SHL DUP2 MSTORE SWAP1 MLOAD DUP9 SWAP3 PUSH1 0x0 SWAP3 PUSH1 0x1 PUSH1 0x1 PUSH1 0xA0 SHL SUB SWAP2 DUP3 AND SWAP3 PUSH4 0xE6A43905 SWAP3 DUP7 AND SWAP2 PUSH4 0xDFE1681 SWAP2 PUSH1 0x4 DUP1 DUP4 ADD SWAP3 PUSH1 0x20 SWAP3 SWAP2 SWAP1 DUP3 SWAP1 SUB ADD DUP2 DUP7 GAS STATICCALL ISZERO DUP1 ISZERO PUSH2 0x1047 JUMPI RETURNDATASIZE PUSH1 0x0 DUP1 RETURNDATACOPY RETURNDATASIZE PUSH1 0x0 REVERT JUMPDEST POP POP POP POP PUSH1 0x40 MLOAD RETURNDATASIZE PUSH1 0x1F NOT PUSH1 0x1F DUP3 ADD AND DUP3 ADD DUP1 PUSH1 0x40 MSTORE POP DUP2 ADD SWAP1 PUSH2 0x106B SWAP2 SWAP1 PUSH2 0x2DBF JUMP JUMPDEST DUP5 PUSH1 0x1 PUSH1 0x1 PUSH1 0xA0 SHL SUB AND PUSH4 0xD21220A7 PUSH1 0x40 MLOAD DUP2 PUSH4 0xFFFFFFFF AND PUSH1 0xE0 SHL DUP2 MSTORE PUSH1 0x4 ADD PUSH1 0x20 PUSH1 0x40 MLOAD DUP1 DUP4 SUB DUP2 DUP7 GAS STATICCALL ISZERO DUP1 ISZERO PUSH2 0x10A9 JUMPI RETURNDATASIZE PUSH1 0x0 DUP1 RETURNDATACOPY RETURNDATASIZE PUSH1 0x0 REVERT JUMPDEST POP POP POP POP PUSH1 0x40 MLOAD RETURNDATASIZE PUSH1 0x1F NOT PUSH1 0x1F DUP3 ADD AND DUP3 ADD DUP1 PUSH1 0x40 MSTORE POP DUP2 ADD SWAP1 PUSH2 0x10CD SWAP2 SWAP1 PUSH2 0x2DBF JUMP JUMPDEST PUSH1 0x40 MLOAD PUSH1 0x1 PUSH1 0x1 PUSH1 0xE0 SHL SUB NOT PUSH1 0xE0 DUP6 SWAP1 SHL AND DUP2 MSTORE PUSH1 0x1 PUSH1 0x1 PUSH1 0xA0 SHL SUB SWAP3 DUP4 AND PUSH1 0x4 DUP3 ADD MSTORE SWAP2 AND PUSH1 0x24 DUP3 ADD MSTORE PUSH1 0x44 ADD PUSH1 0x20 PUSH1 0x40 MLOAD DUP1 DUP4 SUB DUP2 DUP7 GAS STATICCALL ISZERO DUP1 ISZERO PUSH2 0x1118 JUMPI RETURNDATASIZE PUSH1 0x0 DUP1 RETURNDATACOPY RETURNDATASIZE PUSH1 0x0 REVERT JUMPDEST POP POP POP POP PUSH1 0x40 MLOAD RETURNDATASIZE PUSH1 0x1F NOT PUSH1 0x1F DUP3 ADD AND DUP3 ADD DUP1 PUSH1 0x40 MSTORE POP DUP2 ADD SWAP1 PUSH2 0x113C SWAP2 SWAP1 PUSH2 0x2DBF JUMP JUMPDEST SWAP1 POP DUP8 PUSH1 0x1 PUSH1 0x1 PUSH1 0xA0 SHL SUB AND DUP2 PUSH1 0x1 PUSH1 0x1 PUSH1 0xA0 SHL SUB AND EQ PUSH2 0x118B JUMPI PUSH1 0x40 MLOAD PUSH3 0x461BCD PUSH1 0xE5 SHL DUP2 MSTORE PUSH1 0x20 PUSH1 0x4 DUP3 ADD MSTORE PUSH1 0x9 PUSH1 0x24 DUP3 ADD MSTORE PUSH9 0x2727AA102AA724AB19 PUSH1 0xB9 SHL PUSH1 0x44 DUP3 ADD MSTORE PUSH1 0x64 ADD PUSH2 0x666 JUMP JUMPDEST PUSH2 0x1197 DUP9 CALLER ADDRESS DUP11 PUSH2 0x27AE JUMP JUMPDEST PUSH1 0x1 PUSH1 0x1 PUSH1 0xA0 SHL SUB DUP6 AND ISZERO DUP1 ISZERO SWAP1 PUSH2 0x11B9 JUMPI POP PUSH1 0xB SLOAD PUSH1 0x1 PUSH1 0x1 PUSH1 0xA0 SHL SUB AND ISZERO ISZERO JUMPDEST ISZERO PUSH2 0x1275 JUMPI PUSH1 0xC SLOAD PUSH1 0xB SLOAD PUSH1 0x40 MLOAD PUSH4 0x70A08231 PUSH1 0xE0 SHL DUP2 MSTORE PUSH1 0x1 PUSH1 0x1 PUSH1 0xA0 SHL SUB SWAP1 SWAP2 AND SWAP1 PUSH4 0x70A08231 SWAP1 PUSH2 0x11F1 SWAP1 DUP10 SWAP1 PUSH1 0x4 ADD PUSH2 0x2A26 JUMP JUMPDEST PUSH1 0x20 PUSH1 0x40 MLOAD DUP1 DUP4 SUB DUP2 DUP7 GAS STATICCALL ISZERO DUP1 ISZERO PUSH2 0x120E JUMPI RETURNDATASIZE PUSH1 0x0 DUP1 RETURNDATACOPY RETURNDATASIZE PUSH1 0x0 REVERT JUMPDEST POP POP POP POP PUSH1 0x40 MLOAD RETURNDATASIZE PUSH1 0x1F NOT PUSH1 0x1F DUP3 ADD AND DUP3 ADD DUP1 PUSH1 0x40 MSTORE POP DUP2 ADD SWAP1 PUSH2 0x1232 SWAP2 SWAP1 PUSH2 0x2DDC JUMP JUMPDEST LT ISZERO PUSH2 0x1275 JUMPI PUSH1 0x40 MLOAD PUSH3 0x461BCD PUSH1 0xE5 SHL DUP2 MSTORE PUSH1 0x20 PUSH1 0x4 DUP3 ADD MSTORE PUSH1 0x12 PUSH1 0x24 DUP3 ADD MSTORE PUSH18 0x494E41444551554154452042414C414E4345 PUSH1 0x70 SHL PUSH1 0x44 DUP3 ADD MSTORE PUSH1 0x64 ADD PUSH2 0x666 JUMP JUMPDEST CALLER PUSH1 0x0 SWAP1 DUP2 MSTORE PUSH1 0xE PUSH1 0x20 MSTORE PUSH1 0x40 SWAP1 KECCAK256 SLOAD PUSH1 0xFF AND PUSH2 0x158E JUMPI DUP4 ISZERO PUSH2 0x140A JUMPI PUSH1 0x5 SLOAD PUSH1 0x1 PUSH1 0x1 PUSH1 0xA0 SHL SUB DUP7 AND ISZERO PUSH2 0x12CA JUMPI PUSH2 0x12C7 PUSH2 0x3E8 PUSH2 0xDE8 PUSH1 0x5 PUSH1 0x8 ADD SLOAD PUSH2 0x3E8 PUSH2 0x12C0 SWAP2 SWAP1 PUSH2 0x2D04 JUMP JUMPDEST DUP5 SWAP1 PUSH2 0x26ED JUMP JUMPDEST SWAP1 POP JUMPDEST DUP1 CALLVALUE EQ PUSH2 0x12E9 JUMPI PUSH1 0x40 MLOAD PUSH3 0x461BCD PUSH1 0xE5 SHL DUP2 MSTORE PUSH1 0x4 ADD PUSH2 0x666 SWAP1 PUSH2 0x2D6F JUMP JUMPDEST CALLER PUSH1 0x0 SWAP1 DUP2 MSTORE PUSH1 0xF PUSH1 0x20 MSTORE PUSH1 0x40 SWAP1 KECCAK256 SLOAD DUP2 SWAP1 PUSH1 0xFF AND ISZERO ISZERO PUSH1 0x1 SUB PUSH2 0x1346 JUMPI PUSH1 0x11 SLOAD PUSH1 0x40 MLOAD PUSH1 0x1 PUSH1 0x1 PUSH1 0xA0 SHL SUB SWAP1 SWAP2 AND SWAP1 CALLVALUE DUP1 ISZERO PUSH2 0x8FC MUL SWAP2 PUSH1 0x0 DUP2 DUP2 DUP2 DUP6 DUP9 DUP9 CALL SWAP4 POP POP POP POP ISZERO DUP1 ISZERO PUSH2 0x1340 JUMPI RETURNDATASIZE PUSH1 0x0 DUP1 RETURNDATACOPY RETURNDATASIZE PUSH1 0x0 REVERT JUMPDEST POP PUSH2 0x1403 JUMP JUMPDEST DUP2 ISZERO DUP1 ISZERO SWAP1 PUSH2 0x135D JUMPI POP PUSH1 0x1 PUSH1 0x1 PUSH1 0xA0 SHL SUB DUP8 AND ISZERO ISZERO JUMPDEST ISZERO PUSH2 0x1403 JUMPI PUSH1 0x0 PUSH2 0x1381 PUSH2 0x3E8 PUSH2 0xDE8 PUSH1 0x5 DUP1 ADD SLOAD DUP6 PUSH2 0x26ED SWAP1 SWAP2 SWAP1 PUSH4 0xFFFFFFFF AND JUMP JUMPDEST PUSH1 0x40 MLOAD SWAP1 SWAP2 POP PUSH1 0x1 PUSH1 0x1 PUSH1 0xA0 SHL SUB DUP10 AND SWAP1 DUP3 ISZERO PUSH2 0x8FC MUL SWAP1 DUP4 SWAP1 PUSH1 0x0 DUP2 DUP2 DUP2 DUP6 DUP9 DUP9 CALL SWAP4 POP POP POP POP ISZERO DUP1 ISZERO PUSH2 0x13BA JUMPI RETURNDATASIZE PUSH1 0x0 DUP1 RETURNDATACOPY RETURNDATASIZE PUSH1 0x0 REVERT JUMPDEST POP PUSH2 0x13C5 DUP3 DUP3 PUSH2 0x2471 JUMP JUMPDEST PUSH1 0x11 SLOAD PUSH1 0x40 MLOAD SWAP2 SWAP4 POP PUSH1 0x1 PUSH1 0x1 PUSH1 0xA0 SHL SUB AND SWAP1 DUP4 ISZERO PUSH2 0x8FC MUL SWAP1 DUP5 SWAP1 PUSH1 0x0 DUP2 DUP2 DUP2 DUP6 DUP9 DUP9 CALL SWAP4 POP POP POP POP ISZERO DUP1 ISZERO PUSH2 0x1400 JUMPI RETURNDATASIZE PUSH1 0x0 DUP1 RETURNDATACOPY RETURNDATASIZE PUSH1 0x0 REVERT JUMPDEST POP POP JUMPDEST POP POP PUSH2 0x163F JUMP JUMPDEST PUSH1 0x7 SLOAD PUSH1 0x1 PUSH1 0x1 PUSH1 0xA0 SHL SUB DUP7 AND ISZERO PUSH2 0x143B JUMPI PUSH2 0x1438 PUSH2 0x3E8 PUSH2 0xDE8 PUSH1 0x5 PUSH1 0x8 ADD SLOAD PUSH2 0x3E8 PUSH2 0x12C0 SWAP2 SWAP1 PUSH2 0x2D04 JUMP JUMPDEST SWAP1 POP JUMPDEST PUSH1 0x6 SLOAD PUSH2 0x1453 SWAP1 PUSH1 0x1 PUSH1 0x1 PUSH1 0xA0 SHL SUB AND CALLER ADDRESS DUP5 PUSH2 0x27AE JUMP JUMPDEST CALLER PUSH1 0x0 SWAP1 DUP2 MSTORE PUSH1 0xF PUSH1 0x20 MSTORE PUSH1 0x40 SWAP1 KECCAK256 SLOAD PUSH1 0xFF AND ISZERO ISZERO PUSH1 0x1 SUB PUSH2 0x14AE JUMPI PUSH1 0x6 SLOAD PUSH1 0x11 SLOAD PUSH2 0x148C SWAP2 PUSH1 0x1 PUSH1 0x1 PUSH1 0xA0 SHL SUB SWAP1 DUP2 AND SWAP2 AND DUP4 PUSH2 0x24BA JUMP JUMPDEST PUSH1 0x6 SLOAD PUSH1 0x11 SLOAD PUSH2 0x14A9 SWAP2 PUSH1 0x1 PUSH1 0x1 PUSH1 0xA0 SHL SUB SWAP1 DUP2 AND SWAP2 AND DUP4 PUSH2 0x25D7 JUMP JUMPDEST PUSH2 0x152A JUMP JUMPDEST PUSH1 0xA SLOAD ISZERO DUP1 ISZERO SWAP1 PUSH2 0x14C7 JUMPI POP PUSH1 0x1 PUSH1 0x1 PUSH1 0xA0 SHL SUB DUP7 AND ISZERO ISZERO JUMPDEST ISZERO PUSH2 0x152A JUMPI PUSH1 0x0 PUSH2 0x14EB PUSH2 0x3E8 PUSH2 0xDE8 PUSH1 0x5 DUP1 ADD SLOAD DUP6 PUSH2 0x26ED SWAP1 SWAP2 SWAP1 PUSH4 0xFFFFFFFF AND JUMP JUMPDEST PUSH1 0x6 SLOAD SWAP1 SWAP2 POP PUSH2 0x1505 SWAP1 PUSH1 0x1 PUSH1 0x1 PUSH1 0xA0 SHL SUB AND DUP9 DUP4 PUSH2 0x24BA JUMP JUMPDEST PUSH1 0x6 SLOAD PUSH2 0x151C SWAP1 PUSH1 0x1 PUSH1 0x1 PUSH1 0xA0 SHL SUB AND DUP9 DUP4 PUSH2 0x25D7 JUMP JUMPDEST PUSH2 0x1526 DUP3 DUP3 PUSH2 0x2471 JUMP JUMPDEST SWAP2 POP POP JUMPDEST PUSH1 0x6 SLOAD PUSH1 0x40 MLOAD PUSH4 0x852CD8D PUSH1 0xE3 SHL DUP2 MSTORE PUSH1 0x4 DUP2 ADD DUP4 SWAP1 MSTORE PUSH1 0x1 PUSH1 0x1 PUSH1 0xA0 SHL SUB SWAP1 SWAP2 AND SWAP1 PUSH4 0x42966C68 SWAP1 PUSH1 0x24 ADD PUSH1 0x0 PUSH1 0x40 MLOAD DUP1 DUP4 SUB DUP2 PUSH1 0x0 DUP8 DUP1 EXTCODESIZE ISZERO DUP1 ISZERO PUSH2 0x1570 JUMPI PUSH1 0x0 DUP1 REVERT JUMPDEST POP GAS CALL ISZERO DUP1 ISZERO PUSH2 0x1584 JUMPI RETURNDATASIZE PUSH1 0x0 DUP1 RETURNDATACOPY RETURNDATASIZE PUSH1 0x0 REVERT JUMPDEST POP POP POP POP POP PUSH2 0x163F JUMP JUMPDEST CALLER PUSH1 0x0 SWAP1 DUP2 MSTORE PUSH1 0xE PUSH1 0x20 MSTORE PUSH1 0x40 SWAP1 KECCAK256 SLOAD PUSH1 0xFF AND ISZERO ISZERO PUSH1 0x1 EQ DUP1 ISZERO PUSH2 0x15B2 JUMPI POP PUSH1 0x0 CALLVALUE GT JUMPDEST ISZERO PUSH2 0x163F JUMPI CALLER PUSH1 0x0 SWAP1 DUP2 MSTORE PUSH1 0xF PUSH1 0x20 MSTORE PUSH1 0x40 DUP2 KECCAK256 SLOAD PUSH1 0xFF AND ISZERO ISZERO SWAP1 SUB PUSH2 0x1604 JUMPI PUSH1 0x40 MLOAD CALLER SWAP1 CALLVALUE DUP1 ISZERO PUSH2 0x8FC MUL SWAP2 PUSH1 0x0 DUP2 DUP2 DUP2 DUP6 DUP9 DUP9 CALL SWAP4 POP POP POP POP ISZERO DUP1 ISZERO PUSH2 0x15FE JUMPI RETURNDATASIZE PUSH1 0x0 DUP1 RETURNDATACOPY RETURNDATASIZE PUSH1 0x0 REVERT JUMPDEST POP PUSH2 0x163F JUMP JUMPDEST PUSH1 0x11 SLOAD PUSH1 0x40 MLOAD PUSH1 0x1 PUSH1 0x1 PUSH1 0xA0 SHL SUB SWAP1 SWAP2 AND SWAP1 CALLVALUE DUP1 ISZERO PUSH2 0x8FC MUL SWAP2 PUSH1 0x0 DUP2 DUP2 DUP2 DUP6 DUP9 DUP9 CALL SWAP4 POP POP POP POP ISZERO DUP1 ISZERO PUSH2 0x163D JUMPI RETURNDATASIZE PUSH1 0x0 DUP1 RETURNDATACOPY RETURNDATASIZE PUSH1 0x0 REVERT JUMPDEST POP JUMPDEST CALLER PUSH1 0x0 SWAP1 DUP2 MSTORE PUSH1 0xF PUSH1 0x20 MSTORE PUSH1 0x40 SWAP1 KECCAK256 SLOAD PUSH1 0xFF AND ISZERO ISZERO PUSH1 0x1 SUB PUSH2 0x1690 JUMPI PUSH1 0x11 SLOAD PUSH2 0x1673 SWAP1 DUP10 SWAP1 PUSH1 0x1 PUSH1 0x1 PUSH1 0xA0 SHL SUB AND DUP10 PUSH2 0x24BA JUMP JUMPDEST PUSH1 0x11 SLOAD PUSH2 0x168B SWAP1 DUP10 SWAP1 PUSH1 0x1 PUSH1 0x1 PUSH1 0xA0 SHL SUB AND DUP10 PUSH2 0x25D7 JUMP JUMPDEST PUSH2 0x1966 JUMP JUMPDEST PUSH1 0x0 PUSH2 0x16B0 PUSH2 0x3E8 PUSH2 0xDE8 PUSH1 0x5 PUSH1 0x4 ADD SLOAD DUP12 PUSH2 0x26ED SWAP1 SWAP2 SWAP1 PUSH4 0xFFFFFFFF AND JUMP JUMPDEST SWAP1 POP DUP5 ISZERO DUP1 ISZERO PUSH2 0x16D0 JUMPI POP CALLER PUSH1 0x0 SWAP1 DUP2 MSTORE PUSH1 0xE PUSH1 0x20 MSTORE PUSH1 0x40 SWAP1 KECCAK256 SLOAD PUSH1 0xFF AND ISZERO JUMPDEST ISZERO PUSH2 0x16F4 JUMPI PUSH2 0x16F1 PUSH2 0x3E8 PUSH2 0xDE8 PUSH1 0x5 PUSH1 0x3 ADD SLOAD PUSH2 0x3E8 PUSH2 0x12C0 SWAP2 SWAP1 PUSH2 0x2D04 JUMP JUMPDEST SWAP1 POP JUMPDEST PUSH1 0x11 SLOAD PUSH2 0x170C SWAP1 DUP11 SWAP1 PUSH1 0x1 PUSH1 0x1 PUSH1 0xA0 SHL SUB AND DUP4 PUSH2 0x25D7 JUMP JUMPDEST PUSH1 0x0 PUSH2 0x1718 DUP10 DUP4 PUSH2 0x2471 JUMP JUMPDEST SWAP1 POP PUSH2 0x1722 PUSH2 0x29A3 JUMP JUMPDEST TIMESTAMP DUP2 PUSH1 0x0 ADD DUP2 DUP2 MSTORE POP POP DUP2 DUP2 PUSH1 0x20 ADD DUP2 DUP2 MSTORE POP POP DUP2 DUP2 PUSH1 0x40 ADD DUP2 DUP2 MSTORE POP POP DUP9 DUP2 PUSH1 0x60 ADD DUP2 DUP2 MSTORE POP POP PUSH1 0x4 PUSH1 0x0 DUP13 PUSH1 0x1 PUSH1 0x1 PUSH1 0xA0 SHL SUB AND PUSH1 0x1 PUSH1 0x1 PUSH1 0xA0 SHL SUB AND DUP2 MSTORE PUSH1 0x20 ADD SWAP1 DUP2 MSTORE PUSH1 0x20 ADD PUSH1 0x0 KECCAK256 DUP1 SLOAD SWAP1 POP DUP2 PUSH1 0x80 ADD DUP2 DUP2 MSTORE POP POP DUP6 DUP2 PUSH1 0xA0 ADD SWAP1 PUSH1 0x1 PUSH1 0x1 PUSH1 0xA0 SHL SUB AND SWAP1 DUP2 PUSH1 0x1 PUSH1 0x1 PUSH1 0xA0 SHL SUB AND DUP2 MSTORE POP POP PUSH1 0x4 PUSH1 0x0 DUP13 PUSH1 0x1 PUSH1 0x1 PUSH1 0xA0 SHL SUB AND PUSH1 0x1 PUSH1 0x1 PUSH1 0xA0 SHL SUB AND DUP2 MSTORE PUSH1 0x20 ADD SWAP1 DUP2 MSTORE PUSH1 0x20 ADD PUSH1 0x0 KECCAK256 DUP2 SWAP1 DUP1 PUSH1 0x1 DUP2 SLOAD ADD DUP1 DUP3 SSTORE DUP1 SWAP2 POP POP PUSH1 0x1 SWAP1 SUB SWAP1 PUSH1 0x0 MSTORE PUSH1 0x20 PUSH1 0x0 KECCAK256 SWAP1 PUSH1 0x6 MUL ADD PUSH1 0x0 SWAP1 SWAP2 SWAP1 SWAP2 SWAP1 SWAP2 POP PUSH1 0x0 DUP3 ADD MLOAD DUP2 PUSH1 0x0 ADD SSTORE PUSH1 0x20 DUP3 ADD MLOAD DUP2 PUSH1 0x1 ADD SSTORE PUSH1 0x40 DUP3 ADD MLOAD DUP2 PUSH1 0x2 ADD SSTORE PUSH1 0x60 DUP3 ADD MLOAD DUP2 PUSH1 0x3 ADD SSTORE PUSH1 0x80 DUP3 ADD MLOAD DUP2 PUSH1 0x4 ADD SSTORE PUSH1 0xA0 DUP3 ADD MLOAD DUP2 PUSH1 0x5 ADD PUSH1 0x0 PUSH2 0x100 EXP DUP2 SLOAD DUP2 PUSH1 0x1 PUSH1 0x1 PUSH1 0xA0 SHL SUB MUL NOT AND SWAP1 DUP4 PUSH1 0x1 PUSH1 0x1 PUSH1 0xA0 SHL SUB AND MUL OR SWAP1 SSTORE POP POP POP PUSH1 0x0 PUSH1 0x3 PUSH1 0x0 DUP9 PUSH1 0x1 PUSH1 0x1 PUSH1 0xA0 SHL SUB AND PUSH1 0x1 PUSH1 0x1 PUSH1 0xA0 SHL SUB AND DUP2 MSTORE PUSH1 0x20 ADD SWAP1 DUP2 MSTORE PUSH1 0x20 ADD PUSH1 0x0 KECCAK256 SWAP1 POP DUP1 PUSH1 0x0 ADD DUP13 SWAP1 DUP1 PUSH1 0x1 DUP2 SLOAD ADD DUP1 DUP3 SSTORE DUP1 SWAP2 POP POP PUSH1 0x1 SWAP1 SUB SWAP1 PUSH1 0x0 MSTORE PUSH1 0x20 PUSH1 0x0 KECCAK256 ADD PUSH1 0x0 SWAP1 SWAP2 SWAP1 SWAP2 SWAP1 SWAP2 PUSH2 0x100 EXP DUP2 SLOAD DUP2 PUSH1 0x1 PUSH1 0x1 PUSH1 0xA0 SHL SUB MUL NOT AND SWAP1 DUP4 PUSH1 0x1 PUSH1 0x1 PUSH1 0xA0 SHL SUB AND MUL OR SWAP1 SSTORE POP PUSH1 0x0 DUP2 PUSH1 0x1 ADD PUSH1 0x0 DUP15 PUSH1 0x1 PUSH1 0x1 PUSH1 0xA0 SHL SUB AND PUSH1 0x1 PUSH1 0x1 PUSH1 0xA0 SHL SUB AND DUP2 MSTORE PUSH1 0x20 ADD SWAP1 DUP2 MSTORE PUSH1 0x20 ADD PUSH1 0x0 KECCAK256 SWAP1 POP DUP1 DUP4 PUSH1 0x80 ADD MLOAD SWAP1 DUP1 PUSH1 0x1 DUP2 SLOAD ADD DUP1 DUP3 SSTORE DUP1 SWAP2 POP POP PUSH1 0x1 SWAP1 SUB SWAP1 PUSH1 0x0 MSTORE PUSH1 0x20 PUSH1 0x0 KECCAK256 ADD PUSH1 0x0 SWAP1 SWAP2 SWAP1 SWAP2 SWAP1 SWAP2 POP SSTORE PUSH32 0x830357565DA6ECFC26D8D9F69DF488ED6F70361AF9A07E570544AEB5C5E765E5 DUP14 CALLER DUP6 PUSH1 0x20 ADD MLOAD DUP7 PUSH1 0x0 ADD MLOAD DUP8 PUSH1 0x60 ADD MLOAD PUSH1 0x40 MLOAD PUSH2 0x1958 SWAP6 SWAP5 SWAP4 SWAP3 SWAP2 SWAP1 PUSH2 0x2DF5 JUMP JUMPDEST PUSH1 0x40 MLOAD DUP1 SWAP2 SUB SWAP1 LOG1 POP POP POP POP POP JUMPDEST POP POP PUSH1 0x1 DUP1 SSTORE POP POP POP POP POP POP JUMP JUMPDEST PUSH1 0x1 PUSH1 0x1 PUSH1 0xA0 SHL SUB DUP3 AND PUSH1 0x0 SWAP1 DUP2 MSTORE PUSH1 0x3 PUSH1 0x20 MSTORE PUSH1 0x40 DUP2 KECCAK256 DUP1 SLOAD PUSH1 0x10 SWAP1 DUP4 SWAP1 DUP4 SWAP1 DUP7 SWAP1 DUP2 LT PUSH2 0x19A5 JUMPI PUSH2 0x19A5 PUSH2 0x2C45 JUMP JUMPDEST PUSH1 0x0 SWAP2 DUP3 MSTORE PUSH1 0x20 DUP1 DUP4 KECCAK256 SWAP1 SWAP2 ADD SLOAD PUSH1 0x1 PUSH1 0x1 PUSH1 0xA0 SHL SUB AND DUP4 MSTORE DUP3 ADD SWAP3 SWAP1 SWAP3 MSTORE PUSH1 0x40 ADD SWAP1 KECCAK256 SLOAD PUSH1 0xFF AND ISZERO PUSH2 0x1A04 JUMPI PUSH1 0x40 MLOAD PUSH3 0x461BCD PUSH1 0xE5 SHL DUP2 MSTORE PUSH1 0x20 PUSH1 0x4 DUP3 ADD MSTORE PUSH1 0x7 PUSH1 0x24 DUP3 ADD MSTORE PUSH7 0x14995B5BDD9959 PUSH1 0xCA SHL PUSH1 0x44 DUP3 ADD MSTORE PUSH1 0x64 ADD PUSH2 0x666 JUMP JUMPDEST DUP1 PUSH1 0x0 ADD DUP4 DUP2 SLOAD DUP2 LT PUSH2 0x61D JUMPI PUSH2 0x61D PUSH2 0x2C45 JUMP JUMPDEST PUSH1 0x0 SLOAD PUSH1 0x1 PUSH1 0x1 PUSH1 0xA0 SHL SUB AND CALLER EQ PUSH2 0x1A43 JUMPI PUSH1 0x40 MLOAD PUSH3 0x461BCD PUSH1 0xE5 SHL DUP2 MSTORE PUSH1 0x4 ADD PUSH2 0x666 SWAP1 PUSH2 0x2C5B JUMP JUMPDEST PUSH1 0x1 PUSH1 0x1 PUSH1 0xA0 SHL SUB SWAP2 SWAP1 SWAP2 AND PUSH1 0x0 SWAP1 DUP2 MSTORE PUSH1 0xE PUSH1 0x20 MSTORE PUSH1 0x40 SWAP1 KECCAK256 DUP1 SLOAD PUSH1 0xFF NOT AND SWAP2 ISZERO ISZERO SWAP2 SWAP1 SWAP2 OR SWAP1 SSTORE JUMP JUMPDEST PUSH1 0x2 PUSH1 0x1 SLOAD SUB PUSH2 0x1A90 JUMPI PUSH1 0x40 MLOAD PUSH3 0x461BCD PUSH1 0xE5 SHL DUP2 MSTORE PUSH1 0x4 ADD PUSH2 0x666 SWAP1 PUSH2 0x2C90 JUMP JUMPDEST PUSH1 0x2 PUSH1 0x1 SSTORE CALLER PUSH1 0x0 SWAP1 DUP2 MSTORE PUSH1 0xF PUSH1 0x20 MSTORE PUSH1 0x40 SWAP1 KECCAK256 SLOAD PUSH1 0xFF AND ISZERO PUSH2 0x1AB2 JUMPI PUSH1 0x0 DUP1 REVERT JUMPDEST PUSH1 0x0 DUP2 GT PUSH2 0x1AD2 JUMPI PUSH1 0x40 MLOAD PUSH3 0x461BCD PUSH1 0xE5 SHL DUP2 MSTORE PUSH1 0x4 ADD PUSH2 0x666 SWAP1 PUSH2 0x2D4A JUMP JUMPDEST CALLER PUSH1 0x0 SWAP1 DUP2 MSTORE PUSH1 0x3 PUSH1 0x20 SWAP1 DUP2 MSTORE PUSH1 0x40 DUP1 DUP4 KECCAK256 PUSH1 0x1 PUSH1 0x1 PUSH1 0xA0 SHL SUB DUP9 AND DUP5 MSTORE PUSH1 0x1 ADD SWAP1 SWAP2 MSTORE DUP2 KECCAK256 DUP1 SLOAD DUP6 SWAP1 DUP2 LT PUSH2 0x1B0A JUMPI PUSH2 0x1B0A PUSH2 0x2C45 JUMP JUMPDEST SWAP1 PUSH1 0x0 MSTORE PUSH1 0x20 PUSH1 0x0 KECCAK256 ADD SLOAD SWAP1 POP PUSH1 0x0 PUSH1 0x4 PUSH1 0x0 DUP8 PUSH1 0x1 PUSH1 0x1 PUSH1 0xA0 SHL SUB AND PUSH1 0x1 PUSH1 0x1 PUSH1 0xA0 SHL SUB AND DUP2 MSTORE PUSH1 0x20 ADD SWAP1 DUP2 MSTORE PUSH1 0x20 ADD PUSH1 0x0 KECCAK256 DUP3 DUP2 SLOAD DUP2 LT PUSH2 0x1B4F JUMPI PUSH2 0x1B4F PUSH2 0x2C45 JUMP JUMPDEST SWAP1 PUSH1 0x0 MSTORE PUSH1 0x20 PUSH1 0x0 KECCAK256 SWAP1 PUSH1 0x6 MUL ADD SWAP1 POP DUP4 DUP3 EQ DUP1 ISZERO PUSH2 0x1B7A JUMPI POP PUSH1 0x5 DUP2 ADD SLOAD PUSH1 0x1 PUSH1 0x1 PUSH1 0xA0 SHL SUB AND CALLER EQ JUMPDEST PUSH2 0x1B96 JUMPI PUSH1 0x40 MLOAD PUSH3 0x461BCD PUSH1 0xE5 SHL DUP2 MSTORE PUSH1 0x4 ADD PUSH2 0x666 SWAP1 PUSH2 0x2CC7 JUMP JUMPDEST PUSH2 0x1BA2 DUP7 CALLER ADDRESS DUP7 PUSH2 0x27AE JUMP JUMPDEST PUSH1 0x0 PUSH2 0x1BC2 PUSH2 0x3E8 PUSH2 0xDE8 PUSH1 0x5 PUSH1 0x4 ADD SLOAD DUP8 PUSH2 0x26ED SWAP1 SWAP2 SWAP1 PUSH4 0xFFFFFFFF AND JUMP JUMPDEST PUSH1 0x11 SLOAD SWAP1 SWAP2 POP PUSH2 0x1BDD SWAP1 DUP9 SWAP1 PUSH1 0x1 PUSH1 0x1 PUSH1 0xA0 SHL SUB AND DUP4 PUSH2 0x25D7 JUMP JUMPDEST PUSH1 0x0 PUSH2 0x1BE9 DUP6 DUP4 PUSH2 0x2471 JUMP JUMPDEST PUSH1 0x1 DUP5 ADD SLOAD SWAP1 SWAP2 POP PUSH2 0x1BFB SWAP1 DUP3 PUSH2 0x28DE JUMP JUMPDEST PUSH1 0x1 DUP5 ADD SSTORE DUP3 SLOAD PUSH1 0x3 DUP5 ADD SLOAD PUSH1 0x40 MLOAD PUSH32 0x830357565DA6ECFC26D8D9F69DF488ED6F70361AF9A07E570544AEB5C5E765E5 SWAP3 PUSH2 0x1C3D SWAP3 DUP13 SWAP3 CALLER SWAP3 DUP8 SWAP3 SWAP1 SWAP2 PUSH2 0x2DF5 JUMP JUMPDEST PUSH1 0x40 MLOAD DUP1 SWAP2 SUB SWAP1 LOG1 POP POP PUSH1 0x1 DUP1 SSTORE POP POP POP POP POP POP JUMP JUMPDEST CALLER PUSH1 0x0 SWAP1 DUP2 MSTORE PUSH1 0xF PUSH1 0x20 MSTORE PUSH1 0x40 SWAP1 KECCAK256 SLOAD PUSH1 0xFF AND ISZERO PUSH2 0x1C70 JUMPI PUSH1 0x0 DUP1 REVERT JUMPDEST PUSH1 0x1 PUSH1 0x1 PUSH1 0xA0 SHL SUB DUP2 AND CALLER SUB PUSH2 0x1CB0 JUMPI PUSH1 0x40 MLOAD PUSH3 0x461BCD PUSH1 0xE5 SHL DUP2 MSTORE PUSH1 0x20 PUSH1 0x4 DUP3 ADD MSTORE PUSH1 0x5 PUSH1 0x24 DUP3 ADD MSTORE PUSH5 0x27ABA722A9 PUSH1 0xD9 SHL PUSH1 0x44 DUP3 ADD MSTORE PUSH1 0x64 ADD PUSH2 0x666 JUMP JUMPDEST CALLER PUSH1 0x0 SWAP1 DUP2 MSTORE PUSH1 0x3 PUSH1 0x20 SWAP1 DUP2 MSTORE PUSH1 0x40 DUP1 DUP4 KECCAK256 PUSH1 0x1 PUSH1 0x1 PUSH1 0xA0 SHL SUB DUP9 AND DUP5 MSTORE PUSH1 0x1 ADD SWAP1 SWAP2 MSTORE DUP2 KECCAK256 DUP1 SLOAD DUP6 SWAP1 DUP2 LT PUSH2 0x1CE8 JUMPI PUSH2 0x1CE8 PUSH2 0x2C45 JUMP JUMPDEST SWAP1 PUSH1 0x0 MSTORE PUSH1 0x20 PUSH1 0x0 KECCAK256 ADD SLOAD SWAP1 POP PUSH1 0x0 PUSH1 0x4 PUSH1 0x0 DUP8 PUSH1 0x1 PUSH1 0x1 PUSH1 0xA0 SHL SUB AND PUSH1 0x1 PUSH1 0x1 PUSH1 0xA0 SHL SUB AND DUP2 MSTORE PUSH1 0x20 ADD SWAP1 DUP2 MSTORE PUSH1 0x20 ADD PUSH1 0x0 KECCAK256 DUP3 DUP2 SLOAD DUP2 LT PUSH2 0x1D2D JUMPI PUSH2 0x1D2D PUSH2 0x2C45 JUMP JUMPDEST SWAP1 PUSH1 0x0 MSTORE PUSH1 0x20 PUSH1 0x0 KECCAK256 SWAP1 PUSH1 0x6 MUL ADD SWAP1 POP DUP4 DUP3 EQ DUP1 ISZERO PUSH2 0x1D58 JUMPI POP PUSH1 0x5 DUP2 ADD SLOAD PUSH1 0x1 PUSH1 0x1 PUSH1 0xA0 SHL SUB AND CALLER EQ JUMPDEST PUSH2 0x1D74 JUMPI PUSH1 0x40 MLOAD PUSH3 0x461BCD PUSH1 0xE5 SHL DUP2 MSTORE PUSH1 0x4 ADD PUSH2 0x666 SWAP1 PUSH2 0x2CC7 JUMP JUMPDEST PUSH1 0x1 PUSH1 0x1 PUSH1 0xA0 SHL SUB DUP4 DUP2 AND PUSH1 0x0 SWAP1 DUP2 MSTORE PUSH1 0x3 PUSH1 0x20 DUP2 DUP2 MSTORE PUSH1 0x40 DUP1 DUP5 KECCAK256 DUP1 SLOAD PUSH1 0x1 DUP1 DUP3 ADD DUP4 SSTORE DUP3 DUP8 MSTORE DUP5 DUP8 KECCAK256 SWAP1 SWAP2 ADD DUP1 SLOAD PUSH1 0x1 PUSH1 0x1 PUSH1 0xA0 SHL SUB NOT AND SWAP8 DUP15 AND SWAP8 DUP9 OR SWAP1 SSTORE DUP7 DUP7 MSTORE DUP1 DUP3 ADD DUP5 MSTORE DUP3 DUP7 KECCAK256 PUSH1 0x4 DUP10 ADD SLOAD DUP2 SLOAD DUP1 DUP5 ADD DUP4 SSTORE DUP3 DUP10 MSTORE DUP7 DUP10 KECCAK256 ADD SSTORE CALLER DUP8 MSTORE SWAP5 DUP5 MSTORE DUP3 DUP7 KECCAK256 SWAP7 DUP7 MSTORE SWAP6 DUP7 ADD SWAP1 SWAP3 MSTORE SWAP1 SWAP3 KECCAK256 DUP1 SLOAD SWAP3 SWAP4 SWAP2 SWAP3 SWAP1 SWAP2 DUP3 SWAP2 PUSH2 0x1DFE SWAP2 SWAP1 PUSH2 0x2D04 JUMP JUMPDEST DUP2 SLOAD DUP2 LT PUSH2 0x1E0E JUMPI PUSH2 0x1E0E PUSH2 0x2C45 JUMP JUMPDEST SWAP1 PUSH1 0x0 MSTORE PUSH1 0x20 PUSH1 0x0 KECCAK256 ADD SLOAD DUP2 DUP10 DUP2 SLOAD DUP2 LT PUSH2 0x1E2B JUMPI PUSH2 0x1E2B PUSH2 0x2C45 JUMP JUMPDEST SWAP1 PUSH1 0x0 MSTORE PUSH1 0x20 PUSH1 0x0 KECCAK256 ADD DUP2 SWAP1 SSTORE POP DUP1 DUP1 SLOAD DUP1 PUSH2 0x1E49 JUMPI PUSH2 0x1E49 PUSH2 0x2D1B JUMP JUMPDEST PUSH1 0x1 SWAP1 SUB DUP2 DUP2 SWAP1 PUSH1 0x0 MSTORE PUSH1 0x20 PUSH1 0x0 KECCAK256 ADD PUSH1 0x0 SWAP1 SSTORE SWAP1 SSTORE DUP1 DUP1 SLOAD SWAP1 POP PUSH1 0x0 SUB PUSH2 0x1E8F JUMPI PUSH1 0x1 PUSH1 0x1 PUSH1 0xA0 SHL SUB DUP10 AND PUSH1 0x0 SWAP1 DUP2 MSTORE PUSH1 0x10 PUSH1 0x20 MSTORE PUSH1 0x40 SWAP1 KECCAK256 DUP1 SLOAD PUSH1 0xFF NOT AND PUSH1 0x1 OR SWAP1 SSTORE JUMPDEST POP POP POP PUSH1 0x5 ADD DUP1 SLOAD PUSH1 0x1 PUSH1 0x1 PUSH1 0xA0 SHL SUB NOT AND PUSH1 0x1 PUSH1 0x1 PUSH1 0xA0 SHL SUB SWAP4 SWAP1 SWAP4 AND SWAP3 SWAP1 SWAP3 OR SWAP1 SWAP2 SSTORE POP POP POP POP JUMP JUMPDEST PUSH1 0x4 PUSH1 0x20 MSTORE DUP2 PUSH1 0x0 MSTORE PUSH1 0x40 PUSH1 0x0 KECCAK256 DUP2 DUP2 SLOAD DUP2 LT PUSH2 0x1ED6 JUMPI PUSH1 0x0 DUP1 REVERT JUMPDEST PUSH1 0x0 SWAP2 DUP3 MSTORE PUSH1 0x20 SWAP1 SWAP2 KECCAK256 PUSH1 0x6 SWAP1 SWAP2 MUL ADD DUP1 SLOAD PUSH1 0x1 DUP3 ADD SLOAD PUSH1 0x2 DUP4 ADD SLOAD PUSH1 0x3 DUP5 ADD SLOAD PUSH1 0x4 DUP6 ADD SLOAD PUSH1 0x5 SWAP1 SWAP6 ADD SLOAD SWAP4 SWAP7 POP SWAP2 SWAP5 POP SWAP3 SWAP1 SWAP2 PUSH1 0x1 PUSH1 0x1 PUSH1 0xA0 SHL SUB AND DUP7 JUMP JUMPDEST PUSH1 0x0 DUP1 PUSH1 0x0 DUP1 PUSH1 0x0 DUP1 PUSH1 0x0 PUSH1 0x3 PUSH1 0x0 DUP12 PUSH1 0x1 PUSH1 0x1 PUSH1 0xA0 SHL SUB AND PUSH1 0x1 PUSH1 0x1 PUSH1 0xA0 SHL SUB AND DUP2 MSTORE PUSH1 0x20 ADD SWAP1 DUP2 MSTORE PUSH1 0x20 ADD PUSH1 0x0 KECCAK256 PUSH1 0x1 ADD PUSH1 0x0 DUP11 PUSH1 0x1 PUSH1 0x1 PUSH1 0xA0 SHL SUB AND PUSH1 0x1 PUSH1 0x1 PUSH1 0xA0 SHL SUB AND DUP2 MSTORE PUSH1 0x20 ADD SWAP1 DUP2 MSTORE PUSH1 0x20 ADD PUSH1 0x0 KECCAK256 DUP9 DUP2 SLOAD DUP2 LT PUSH2 0x1F7E JUMPI PUSH2 0x1F7E PUSH2 0x2C45 JUMP JUMPDEST SWAP1 PUSH1 0x0 MSTORE PUSH1 0x20 PUSH1 0x0 KECCAK256 ADD SLOAD SWAP1 POP PUSH1 0x0 PUSH1 0x4 PUSH1 0x0 DUP12 PUSH1 0x1 PUSH1 0x1 PUSH1 0xA0 SHL SUB AND PUSH1 0x1 PUSH1 0x1 PUSH1 0xA0 SHL SUB AND DUP2 MSTORE PUSH1 0x20 ADD SWAP1 DUP2 MSTORE PUSH1 0x20 ADD PUSH1 0x0 KECCAK256 DUP3 DUP2 SLOAD DUP2 LT PUSH2 0x1FC3 JUMPI PUSH2 0x1FC3 PUSH2 0x2C45 JUMP JUMPDEST PUSH1 0x0 SWAP2 DUP3 MSTORE PUSH1 0x20 SWAP1 SWAP2 KECCAK256 PUSH1 0x6 SWAP1 SWAP2 MUL ADD DUP1 SLOAD PUSH1 0x1 DUP3 ADD SLOAD PUSH1 0x2 DUP4 ADD SLOAD PUSH1 0x3 DUP5 ADD SLOAD PUSH1 0x4 DUP6 ADD SLOAD PUSH1 0x5 SWAP1 SWAP6 ADD SLOAD SWAP4 SWAP13 POP SWAP2 SWAP11 POP SWAP9 POP SWAP7 POP SWAP1 SWAP5 POP PUSH1 0x1 PUSH1 0x1 PUSH1 0xA0 SHL SUB AND SWAP3 POP POP POP SWAP4 SWAP8 POP SWAP4 SWAP8 SWAP2 SWAP6 POP SWAP4 POP JUMP JUMPDEST PUSH1 0x2 PUSH1 0x1 SLOAD SUB PUSH2 0x2037 JUMPI PUSH1 0x40 MLOAD PUSH3 0x461BCD PUSH1 0xE5 SHL DUP2 MSTORE PUSH1 0x4 ADD PUSH2 0x666 SWAP1 PUSH2 0x2C90 JUMP JUMPDEST PUSH1 0x2 PUSH1 0x1 SSTORE PUSH1 0x12 SLOAD PUSH1 0x1 PUSH1 0x1 PUSH1 0xA0 SHL SUB AND PUSH2 0x207E JUMPI PUSH1 0x40 MLOAD PUSH3 0x461BCD PUSH1 0xE5 SHL DUP2 MSTORE PUSH1 0x20 PUSH1 0x4 DUP3 ADD MSTORE PUSH1 0x7 PUSH1 0x24 DUP3 ADD MSTORE PUSH7 0x1393D50814D155 PUSH1 0xCA SHL PUSH1 0x44 DUP3 ADD MSTORE PUSH1 0x64 ADD PUSH2 0x666 JUMP JUMPDEST PUSH1 0x0 DUP2 GT PUSH2 0x20BF JUMPI PUSH1 0x40 MLOAD PUSH3 0x461BCD PUSH1 0xE5 SHL DUP2 MSTORE PUSH1 0x20 PUSH1 0x4 DUP3 ADD MSTORE PUSH1 0xE PUSH1 0x24 DUP3 ADD MSTORE PUSH14 0x2D22A9279026A4A3A920AA24A7A7 PUSH1 0x91 SHL PUSH1 0x44 DUP3 ADD MSTORE PUSH1 0x64 ADD PUSH2 0x666 JUMP JUMPDEST CALLER PUSH1 0x0 SWAP1 DUP2 MSTORE PUSH1 0xF PUSH1 0x20 MSTORE PUSH1 0x40 SWAP1 KECCAK256 SLOAD PUSH1 0xFF AND ISZERO PUSH2 0x20DC JUMPI PUSH1 0x0 DUP1 REVERT JUMPDEST CALLER PUSH1 0x0 SWAP1 DUP2 MSTORE PUSH1 0x3 PUSH1 0x20 SWAP1 DUP2 MSTORE PUSH1 0x40 DUP1 DUP4 KECCAK256 PUSH1 0x1 PUSH1 0x1 PUSH1 0xA0 SHL SUB DUP9 AND DUP5 MSTORE PUSH1 0x1 ADD SWAP1 SWAP2 MSTORE DUP2 KECCAK256 DUP1 SLOAD DUP6 SWAP1 DUP2 LT PUSH2 0x2114 JUMPI PUSH2 0x2114 PUSH2 0x2C45 JUMP JUMPDEST SWAP1 PUSH1 0x0 MSTORE PUSH1 0x20 PUSH1 0x0 KECCAK256 ADD SLOAD SWAP1 POP PUSH1 0x0 PUSH1 0x4 PUSH1 0x0 DUP8 PUSH1 0x1 PUSH1 0x1 PUSH1 0xA0 SHL SUB AND PUSH1 0x1 PUSH1 0x1 PUSH1 0xA0 SHL SUB AND DUP2 MSTORE PUSH1 0x20 ADD SWAP1 DUP2 MSTORE PUSH1 0x20 ADD PUSH1 0x0 KECCAK256 DUP3 DUP2 SLOAD DUP2 LT PUSH2 0x2159 JUMPI PUSH2 0x2159 PUSH2 0x2C45 JUMP JUMPDEST SWAP1 PUSH1 0x0 MSTORE PUSH1 0x20 PUSH1 0x0 KECCAK256 SWAP1 PUSH1 0x6 MUL ADD SWAP1 POP DUP4 DUP3 EQ DUP1 ISZERO PUSH2 0x2184 JUMPI POP PUSH1 0x5 DUP2 ADD SLOAD PUSH1 0x1 PUSH1 0x1 PUSH1 0xA0 SHL SUB AND CALLER EQ JUMPDEST PUSH2 0x21A0 JUMPI PUSH1 0x40 MLOAD PUSH3 0x461BCD PUSH1 0xE5 SHL DUP2 MSTORE PUSH1 0x4 ADD PUSH2 0x666 SWAP1 PUSH2 0x2CC7 JUMP JUMPDEST PUSH1 0x1 DUP2 ADD SLOAD PUSH2 0x21AF SWAP1 DUP5 PUSH2 0x2471 JUMP JUMPDEST PUSH1 0x1 DUP3 ADD DUP2 SWAP1 SSTORE PUSH1 0x0 SUB PUSH2 0x2289 JUMPI CALLER PUSH1 0x0 SWAP1 DUP2 MSTORE PUSH1 0x3 PUSH1 0x20 SWAP1 DUP2 MSTORE PUSH1 0x40 DUP1 DUP4 KECCAK256 PUSH1 0x1 PUSH1 0x1 PUSH1 0xA0 SHL SUB DUP11 AND DUP5 MSTORE PUSH1 0x1 SWAP1 DUP2 ADD SWAP1 SWAP3 MSTORE SWAP1 SWAP2 KECCAK256 DUP1 SLOAD SWAP1 SWAP2 DUP3 SWAP2 PUSH2 0x21F6 SWAP2 SWAP1 PUSH2 0x2D04 JUMP JUMPDEST DUP2 SLOAD DUP2 LT PUSH2 0x2206 JUMPI PUSH2 0x2206 PUSH2 0x2C45 JUMP JUMPDEST SWAP1 PUSH1 0x0 MSTORE PUSH1 0x20 PUSH1 0x0 KECCAK256 ADD SLOAD DUP2 DUP8 DUP2 SLOAD DUP2 LT PUSH2 0x2223 JUMPI PUSH2 0x2223 PUSH2 0x2C45 JUMP JUMPDEST SWAP1 PUSH1 0x0 MSTORE PUSH1 0x20 PUSH1 0x0 KECCAK256 ADD DUP2 SWAP1 SSTORE POP DUP1 DUP1 SLOAD DUP1 PUSH2 0x2241 JUMPI PUSH2 0x2241 PUSH2 0x2D1B JUMP JUMPDEST PUSH1 0x1 SWAP1 SUB DUP2 DUP2 SWAP1 PUSH1 0x0 MSTORE PUSH1 0x20 PUSH1 0x0 KECCAK256 ADD PUSH1 0x0 SWAP1 SSTORE SWAP1 SSTORE DUP1 DUP1 SLOAD SWAP1 POP PUSH1 0x0 SUB PUSH2 0x2287 JUMPI PUSH1 0x1 PUSH1 0x1 PUSH1 0xA0 SHL SUB DUP8 AND PUSH1 0x0 SWAP1 DUP2 MSTORE PUSH1 0x10 PUSH1 0x20 MSTORE PUSH1 0x40 SWAP1 KECCAK256 DUP1 SLOAD PUSH1 0xFF NOT AND PUSH1 0x1 OR SWAP1 SSTORE JUMPDEST POP JUMPDEST PUSH1 0x12 SLOAD PUSH2 0x22A1 SWAP1 DUP8 SWAP1 PUSH1 0x1 PUSH1 0x1 PUSH1 0xA0 SHL SUB AND DUP6 PUSH2 0x24BA JUMP JUMPDEST PUSH1 0x12 SLOAD PUSH1 0x3 DUP3 ADD SLOAD PUSH1 0x40 MLOAD PUSH4 0xDB5ECD3F PUSH1 0xE0 SHL DUP2 MSTORE PUSH1 0x1 PUSH1 0x1 PUSH1 0xA0 SHL SUB DUP10 DUP2 AND PUSH1 0x4 DUP4 ADD MSTORE PUSH1 0x24 DUP3 ADD DUP8 SWAP1 MSTORE PUSH1 0x44 DUP3 ADD SWAP3 SWAP1 SWAP3 MSTORE CALLER PUSH1 0x64 DUP3 ADD MSTORE SWAP2 AND SWAP1 PUSH4 0xDB5ECD3F SWAP1 PUSH1 0x84 ADD PUSH1 0x20 PUSH1 0x40 MLOAD DUP1 DUP4 SUB DUP2 PUSH1 0x0 DUP8 GAS CALL ISZERO DUP1 ISZERO PUSH2 0x2306 JUMPI RETURNDATASIZE PUSH1 0x0 DUP1 RETURNDATACOPY RETURNDATASIZE PUSH1 0x0 REVERT JUMPDEST POP POP POP POP PUSH1 0x40 MLOAD RETURNDATASIZE PUSH1 0x1F NOT PUSH1 0x1F DUP3 ADD AND DUP3 ADD DUP1 PUSH1 0x40 MSTORE POP DUP2 ADD SWAP1 PUSH2 0x232A SWAP2 SWAP1 PUSH2 0x2E26 JUMP JUMPDEST POP POP PUSH1 0x1 DUP1 SSTORE POP POP POP POP POP JUMP JUMPDEST PUSH1 0x0 SLOAD PUSH1 0x1 PUSH1 0x1 PUSH1 0xA0 SHL SUB AND CALLER EQ PUSH2 0x2361 JUMPI PUSH1 0x40 MLOAD PUSH3 0x461BCD PUSH1 0xE5 SHL DUP2 MSTORE PUSH1 0x4 ADD PUSH2 0x666 SWAP1 PUSH2 0x2C5B JUMP JUMPDEST PUSH1 0xB DUP1 SLOAD PUSH1 0x1 PUSH1 0x1 PUSH1 0xA0 SHL SUB NOT AND PUSH1 0x1 PUSH1 0x1 PUSH1 0xA0 SHL SUB SWAP4 SWAP1 SWAP4 AND SWAP3 SWAP1 SWAP3 OR SWAP1 SWAP2 SSTORE PUSH1 0xC SSTORE JUMP JUMPDEST PUSH1 0x0 SLOAD PUSH1 0x1 PUSH1 0x1 PUSH1 0xA0 SHL SUB AND CALLER EQ PUSH2 0x23B1 JUMPI PUSH1 0x40 MLOAD PUSH3 0x461BCD PUSH1 0xE5 SHL DUP2 MSTORE PUSH1 0x4 ADD PUSH2 0x666 SWAP1 PUSH2 0x2C5B JUMP JUMPDEST PUSH1 0x1 PUSH1 0x1 PUSH1 0xA0 SHL SUB DUP2 AND PUSH2 0x2416 JUMPI PUSH1 0x40 MLOAD PUSH3 0x461BCD PUSH1 0xE5 SHL DUP2 MSTORE PUSH1 0x20 PUSH1 0x4 DUP3 ADD MSTORE PUSH1 0x26 PUSH1 0x24 DUP3 ADD MSTORE PUSH32 0x4F776E61626C653A206E6577206F776E657220697320746865207A65726F2061 PUSH1 0x44 DUP3 ADD MSTORE PUSH6 0x646472657373 PUSH1 0xD0 SHL PUSH1 0x64 DUP3 ADD MSTORE PUSH1 0x84 ADD PUSH2 0x666 JUMP JUMPDEST PUSH1 0x0 DUP1 SLOAD PUSH1 0x40 MLOAD PUSH1 0x1 PUSH1 0x1 PUSH1 0xA0 SHL SUB DUP1 DUP6 AND SWAP4 SWAP3 AND SWAP2 PUSH32 0x8BE0079C531659141344CD1FD0A4F28419497F9722A3DAAFE3B4186F6B6457E0 SWAP2 LOG3 PUSH1 0x0 DUP1 SLOAD PUSH1 0x1 PUSH1 0x1 PUSH1 0xA0 SHL SUB NOT AND PUSH1 0x1 PUSH1 0x1 PUSH1 0xA0 SHL SUB SWAP3 SWAP1 SWAP3 AND SWAP2 SWAP1 SWAP2 OR SWAP1 SSTORE JUMP JUMPDEST PUSH1 0x0 PUSH2 0x24B3 DUP4 DUP4 PUSH1 0x40 MLOAD DUP1 PUSH1 0x40 ADD PUSH1 0x40 MSTORE DUP1 PUSH1 0x1E DUP2 MSTORE PUSH1 0x20 ADD PUSH32 0x536166654D6174683A207375627472616374696F6E206F766572666C6F770000 DUP2 MSTORE POP PUSH2 0x293B JUMP JUMPDEST SWAP4 SWAP3 POP POP POP JUMP JUMPDEST PUSH1 0x0 DUP1 DUP5 PUSH1 0x1 PUSH1 0x1 PUSH1 0xA0 SHL SUB AND PUSH4 0x95EA7B3 DUP6 DUP6 PUSH1 0x40 MLOAD PUSH1 0x24 ADD PUSH2 0x24DF SWAP3 SWAP2 SWAP1 PUSH2 0x2D31 JUMP JUMPDEST PUSH1 0x40 MLOAD PUSH1 0x20 DUP2 DUP4 SUB SUB DUP2 MSTORE SWAP1 PUSH1 0x40 MSTORE SWAP1 PUSH1 0xE0 SHL PUSH1 0x20 DUP3 ADD DUP1 MLOAD PUSH1 0x1 PUSH1 0x1 PUSH1 0xE0 SHL SUB DUP4 DUP2 DUP4 AND OR DUP4 MSTORE POP POP POP POP PUSH1 0x40 MLOAD PUSH2 0x2518 SWAP2 SWAP1 PUSH2 0x2E73 JUMP JUMPDEST PUSH1 0x0 PUSH1 0x40 MLOAD DUP1 DUP4 SUB DUP2 PUSH1 0x0 DUP7 GAS CALL SWAP2 POP POP RETURNDATASIZE DUP1 PUSH1 0x0 DUP2 EQ PUSH2 0x2555 JUMPI PUSH1 0x40 MLOAD SWAP2 POP PUSH1 0x1F NOT PUSH1 0x3F RETURNDATASIZE ADD AND DUP3 ADD PUSH1 0x40 MSTORE RETURNDATASIZE DUP3 MSTORE RETURNDATASIZE PUSH1 0x0 PUSH1 0x20 DUP5 ADD RETURNDATACOPY PUSH2 0x255A JUMP JUMPDEST PUSH1 0x60 SWAP2 POP JUMPDEST POP SWAP2 POP SWAP2 POP DUP2 DUP1 ISZERO PUSH2 0x2584 JUMPI POP DUP1 MLOAD ISZERO DUP1 PUSH2 0x2584 JUMPI POP DUP1 DUP1 PUSH1 0x20 ADD SWAP1 MLOAD DUP2 ADD SWAP1 PUSH2 0x2584 SWAP2 SWAP1 PUSH2 0x2E26 JUMP JUMPDEST PUSH2 0x25D0 JUMPI PUSH1 0x40 MLOAD PUSH3 0x461BCD PUSH1 0xE5 SHL DUP2 MSTORE PUSH1 0x20 PUSH1 0x4 DUP3 ADD MSTORE PUSH1 0x1E PUSH1 0x24 DUP3 ADD MSTORE PUSH32 0x5472616E7366657248656C7065723A20415050524F56455F4641494C45440000 PUSH1 0x44 DUP3 ADD MSTORE PUSH1 0x64 ADD PUSH2 0x666 JUMP JUMPDEST POP POP POP POP POP JUMP JUMPDEST PUSH1 0x0 DUP1 DUP5 PUSH1 0x1 PUSH1 0x1 PUSH1 0xA0 SHL SUB AND PUSH4 0xA9059CBB DUP6 DUP6 PUSH1 0x40 MLOAD PUSH1 0x24 ADD PUSH2 0x25FC SWAP3 SWAP2 SWAP1 PUSH2 0x2D31 JUMP JUMPDEST PUSH1 0x40 MLOAD PUSH1 0x20 DUP2 DUP4 SUB SUB DUP2 MSTORE SWAP1 PUSH1 0x40 MSTORE SWAP1 PUSH1 0xE0 SHL PUSH1 0x20 DUP3 ADD DUP1 MLOAD PUSH1 0x1 PUSH1 0x1 PUSH1 0xE0 SHL SUB DUP4 DUP2 DUP4 AND OR DUP4 MSTORE POP POP POP POP PUSH1 0x40 MLOAD PUSH2 0x2635 SWAP2 SWAP1 PUSH2 0x2E73 JUMP JUMPDEST PUSH1 0x0 PUSH1 0x40 MLOAD DUP1 DUP4 SUB DUP2 PUSH1 0x0 DUP7 GAS CALL SWAP2 POP POP RETURNDATASIZE DUP1 PUSH1 0x0 DUP2 EQ PUSH2 0x2672 JUMPI PUSH1 0x40 MLOAD SWAP2 POP PUSH1 0x1F NOT PUSH1 0x3F RETURNDATASIZE ADD AND DUP3 ADD PUSH1 0x40 MSTORE RETURNDATASIZE DUP3 MSTORE RETURNDATASIZE PUSH1 0x0 PUSH1 0x20 DUP5 ADD RETURNDATACOPY PUSH2 0x2677 JUMP JUMPDEST PUSH1 0x60 SWAP2 POP JUMPDEST POP SWAP2 POP SWAP2 POP DUP2 DUP1 ISZERO PUSH2 0x26A1 JUMPI POP DUP1 MLOAD ISZERO DUP1 PUSH2 0x26A1 JUMPI POP DUP1 DUP1 PUSH1 0x20 ADD SWAP1 MLOAD DUP2 ADD SWAP1 PUSH2 0x26A1 SWAP2 SWAP1 PUSH2 0x2E26 JUMP JUMPDEST PUSH2 0x25D0 JUMPI PUSH1 0x40 MLOAD PUSH3 0x461BCD PUSH1 0xE5 SHL DUP2 MSTORE PUSH1 0x20 PUSH1 0x4 DUP3 ADD MSTORE PUSH1 0x1F PUSH1 0x24 DUP3 ADD MSTORE PUSH32 0x5472616E7366657248656C7065723A205452414E534645525F4641494C454400 PUSH1 0x44 DUP3 ADD MSTORE PUSH1 0x64 ADD PUSH2 0x666 JUMP JUMPDEST PUSH1 0x0 DUP3 PUSH1 0x0 SUB PUSH2 0x26FF JUMPI POP PUSH1 0x0 PUSH2 0x636 JUMP JUMPDEST PUSH1 0x0 PUSH2 0x270B DUP4 DUP6 PUSH2 0x2E8F JUMP JUMPDEST SWAP1 POP DUP3 PUSH2 0x2718 DUP6 DUP4 PUSH2 0x2EAE JUMP JUMPDEST EQ PUSH2 0x24B3 JUMPI PUSH1 0x40 MLOAD PUSH3 0x461BCD PUSH1 0xE5 SHL DUP2 MSTORE PUSH1 0x20 PUSH1 0x4 DUP3 ADD MSTORE PUSH1 0x21 PUSH1 0x24 DUP3 ADD MSTORE PUSH32 0x536166654D6174683A206D756C7469706C69636174696F6E206F766572666C6F PUSH1 0x44 DUP3 ADD MSTORE PUSH1 0x77 PUSH1 0xF8 SHL PUSH1 0x64 DUP3 ADD MSTORE PUSH1 0x84 ADD PUSH2 0x666 JUMP JUMPDEST PUSH1 0x0 PUSH2 0x24B3 DUP4 DUP4 PUSH1 0x40 MLOAD DUP1 PUSH1 0x40 ADD PUSH1 0x40 MSTORE DUP1 PUSH1 0x1A DUP2 MSTORE PUSH1 0x20 ADD PUSH26 0x536166654D6174683A206469766973696F6E206279207A65726F PUSH1 0x30 SHL DUP2 MSTORE POP PUSH2 0x2975 JUMP JUMPDEST PUSH1 0x40 DUP1 MLOAD PUSH1 0x1 PUSH1 0x1 PUSH1 0xA0 SHL SUB DUP6 DUP2 AND PUSH1 0x24 DUP4 ADD MSTORE DUP5 DUP2 AND PUSH1 0x44 DUP4 ADD MSTORE PUSH1 0x64 DUP1 DUP4 ADD DUP6 SWAP1 MSTORE DUP4 MLOAD DUP1 DUP5 SUB SWAP1 SWAP2 ADD DUP2 MSTORE PUSH1 0x84 SWAP1 SWAP3 ADD DUP4 MSTORE PUSH1 0x20 DUP3 ADD DUP1 MLOAD PUSH1 0x1 PUSH1 0x1 PUSH1 0xE0 SHL SUB AND PUSH4 0x23B872DD PUSH1 0xE0 SHL OR SWAP1 MSTORE SWAP2 MLOAD PUSH1 0x0 SWAP3 DUP4 SWAP3 SWAP1 DUP9 AND SWAP2 PUSH2 0x2812 SWAP2 SWAP1 PUSH2 0x2E73 JUMP JUMPDEST PUSH1 0x0 PUSH1 0x40 MLOAD DUP1 DUP4 SUB DUP2 PUSH1 0x0 DUP7 GAS CALL SWAP2 POP POP RETURNDATASIZE DUP1 PUSH1 0x0 DUP2 EQ PUSH2 0x284F JUMPI PUSH1 0x40 MLOAD SWAP2 POP PUSH1 0x1F NOT PUSH1 0x3F RETURNDATASIZE ADD AND DUP3 ADD PUSH1 0x40 MSTORE RETURNDATASIZE DUP3 MSTORE RETURNDATASIZE PUSH1 0x0 PUSH1 0x20 DUP5 ADD RETURNDATACOPY PUSH2 0x2854 JUMP JUMPDEST PUSH1 0x60 SWAP2 POP JUMPDEST POP SWAP2 POP SWAP2 POP DUP2 DUP1 ISZERO PUSH2 0x287E JUMPI POP DUP1 MLOAD ISZERO DUP1 PUSH2 0x287E JUMPI POP DUP1 DUP1 PUSH1 0x20 ADD SWAP1 MLOAD DUP2 ADD SWAP1 PUSH2 0x287E SWAP2 SWAP1 PUSH2 0x2E26 JUMP JUMPDEST PUSH2 0x28D6 JUMPI PUSH1 0x40 MLOAD PUSH3 0x461BCD PUSH1 0xE5 SHL DUP2 MSTORE PUSH1 0x20 PUSH1 0x4 DUP3 ADD MSTORE PUSH1 0x24 DUP1 DUP3 ADD MSTORE PUSH32 0x5472616E7366657248656C7065723A205452414E534645525F46524F4D5F4641 PUSH1 0x44 DUP3 ADD MSTORE PUSH4 0x12531151 PUSH1 0xE2 SHL PUSH1 0x64 DUP3 ADD MSTORE PUSH1 0x84 ADD PUSH2 0x666 JUMP JUMPDEST POP POP POP POP POP POP JUMP JUMPDEST PUSH1 0x0 DUP1 PUSH2 0x28EB DUP4 DUP6 PUSH2 0x2ED0 JUMP JUMPDEST SWAP1 POP DUP4 DUP2 LT ISZERO PUSH2 0x24B3 JUMPI PUSH1 0x40 MLOAD PUSH3 0x461BCD PUSH1 0xE5 SHL DUP2 MSTORE PUSH1 0x20 PUSH1 0x4 DUP3 ADD MSTORE PUSH1 0x1B PUSH1 0x24 DUP3 ADD MSTORE PUSH27 0x536166654D6174683A206164646974696F6E206F766572666C6F77 PUSH1 0x28 SHL PUSH1 0x44 DUP3 ADD MSTORE PUSH1 0x64 ADD PUSH2 0x666 JUMP JUMPDEST PUSH1 0x0 DUP2 DUP5 DUP5 GT ISZERO PUSH2 0x295F JUMPI PUSH1 0x40 MLOAD PUSH3 0x461BCD PUSH1 0xE5 SHL DUP2 MSTORE PUSH1 0x4 ADD PUSH2 0x666 SWAP2 SWAP1 PUSH2 0x2EE8 JUMP JUMPDEST POP PUSH1 0x0 PUSH2 0x296C DUP5 DUP7 PUSH2 0x2D04 JUMP JUMPDEST SWAP6 SWAP5 POP POP POP POP POP JUMP JUMPDEST PUSH1 0x0 DUP2 DUP4 PUSH2 0x2996 JUMPI PUSH1 0x40 MLOAD PUSH3 0x461BCD PUSH1 0xE5 SHL DUP2 MSTORE PUSH1 0x4 ADD PUSH2 0x666 SWAP2 SWAP1 PUSH2 0x2EE8 JUMP JUMPDEST POP PUSH1 0x0 PUSH2 0x296C DUP5 DUP7 PUSH2 0x2EAE JUMP JUMPDEST PUSH1 0x40 MLOAD DUP1 PUSH1 0xC0 ADD PUSH1 0x40 MSTORE DUP1 PUSH1 0x0 DUP2 MSTORE PUSH1 0x20 ADD PUSH1 0x0 DUP2 MSTORE PUSH1 0x20 ADD PUSH1 0x0 DUP2 MSTORE PUSH1 0x20 ADD PUSH1 0x0 DUP2 MSTORE PUSH1 0x20 ADD PUSH1 0x0 DUP2 MSTORE PUSH1 0x20 ADD PUSH1 0x0 PUSH1 0x1 PUSH1 0x1 PUSH1 0xA0 SHL SUB AND DUP2 MSTORE POP SWAP1 JUMP JUMPDEST PUSH1 0x1 PUSH1 0x1 PUSH1 0xA0 SHL SUB DUP2 AND DUP2 EQ PUSH2 0x29F7 JUMPI PUSH1 0x0 DUP1 REVERT JUMPDEST POP JUMP JUMPDEST PUSH1 0x0 DUP1 PUSH1 0x40 DUP4 DUP6 SUB SLT ISZERO PUSH2 0x2A0D JUMPI PUSH1 0x0 DUP1 REVERT JUMPDEST DUP3 CALLDATALOAD PUSH2 0x2A18 DUP2 PUSH2 0x29E2 JUMP JUMPDEST SWAP5 PUSH1 0x20 SWAP4 SWAP1 SWAP4 ADD CALLDATALOAD SWAP4 POP POP POP JUMP JUMPDEST PUSH1 0x1 PUSH1 0x1 PUSH1 0xA0 SHL SUB SWAP2 SWAP1 SWAP2 AND DUP2 MSTORE PUSH1 0x20 ADD SWAP1 JUMP JUMPDEST PUSH1 0x0 PUSH1 0x20 DUP3 DUP5 SUB SLT ISZERO PUSH2 0x2A4C JUMPI PUSH1 0x0 DUP1 REVERT JUMPDEST DUP2 CALLDATALOAD PUSH2 0x24B3 DUP2 PUSH2 0x29E2 JUMP JUMPDEST PUSH1 0x0 DUP1 PUSH1 0x0 DUP1 PUSH1 0x80 DUP6 DUP8 SUB SLT ISZERO PUSH2 0x2A6D JUMPI PUSH1 0x0 DUP1 REVERT JUMPDEST DUP5 CALLDATALOAD PUSH2 0x2A78 DUP2 PUSH2 0x29E2 JUMP JUMPDEST SWAP7 PUSH1 0x20 DUP7 ADD CALLDATALOAD SWAP7 POP PUSH1 0x40 DUP7 ADD CALLDATALOAD SWAP6 PUSH1 0x60 ADD CALLDATALOAD SWAP5 POP SWAP3 POP POP POP JUMP JUMPDEST PUSH1 0x0 DUP1 PUSH1 0x0 DUP1 PUSH1 0x0 DUP1 PUSH1 0xC0 DUP8 DUP10 SUB SLT ISZERO PUSH2 0x2AAB JUMPI PUSH1 0x0 DUP1 REVERT JUMPDEST POP POP DUP5 CALLDATALOAD SWAP7 PUSH1 0x20 DUP7 ADD CALLDATALOAD SWAP7 POP PUSH1 0x40 DUP7 ADD CALLDATALOAD SWAP6 PUSH1 0x60 DUP2 ADD CALLDATALOAD SWAP6 POP PUSH1 0x80 DUP2 ADD CALLDATALOAD SWAP5 POP PUSH1 0xA0 ADD CALLDATALOAD SWAP3 POP SWAP1 POP JUMP JUMPDEST DUP1 ISZERO ISZERO DUP2 EQ PUSH2 0x29F7 JUMPI PUSH1 0x0 DUP1 REVERT JUMPDEST PUSH1 0x0 DUP1 PUSH1 0x0 DUP1 PUSH1 0x0 DUP1 PUSH1 0xC0 DUP8 DUP10 SUB SLT ISZERO PUSH2 0x2AFC JUMPI PUSH1 0x0 DUP1 REVERT JUMPDEST DUP7 CALLDATALOAD PUSH2 0x2B07 DUP2 PUSH2 0x29E2 JUMP JUMPDEST SWAP6 POP PUSH1 0x20 DUP8 ADD CALLDATALOAD SWAP5 POP PUSH1 0x40 DUP8 ADD CALLDATALOAD SWAP4 POP PUSH1 0x60 DUP8 ADD CALLDATALOAD PUSH2 0x2B25 DUP2 PUSH2 0x29E2 JUMP JUMPDEST SWAP3 POP PUSH1 0x80 DUP8 ADD CALLDATALOAD PUSH2 0x2B35 DUP2 PUSH2 0x2AD5 JUMP JUMPDEST SWAP2 POP PUSH1 0xA0 DUP8 ADD CALLDATALOAD PUSH2 0x2B45 DUP2 PUSH2 0x29E2 JUMP JUMPDEST DUP1 SWAP2 POP POP SWAP3 SWAP6 POP SWAP3 SWAP6 POP SWAP3 SWAP6 JUMP JUMPDEST PUSH1 0x0 DUP1 PUSH1 0x40 DUP4 DUP6 SUB SLT ISZERO PUSH2 0x2B66 JUMPI PUSH1 0x0 DUP1 REVERT JUMPDEST DUP3 CALLDATALOAD PUSH2 0x2B71 DUP2 PUSH2 0x29E2 JUMP JUMPDEST SWAP2 POP PUSH1 0x20 DUP4 ADD CALLDATALOAD PUSH2 0x2B81 DUP2 PUSH2 0x2AD5 JUMP JUMPDEST DUP1 SWAP2 POP POP SWAP3 POP SWAP3 SWAP1 POP JUMP JUMPDEST PUSH1 0x0 DUP1 PUSH1 0x40 DUP4 DUP6 SUB SLT ISZERO PUSH2 0x2B9F JUMPI PUSH1 0x0 DUP1 REVERT JUMPDEST DUP3 CALLDATALOAD PUSH2 0x2BAA DUP2 PUSH2 0x29E2 JUMP JUMPDEST SWAP2 POP PUSH1 0x20 DUP4 ADD CALLDATALOAD PUSH2 0x2B81 DUP2 PUSH2 0x29E2 JUMP JUMPDEST PUSH1 0x0 DUP1 PUSH1 0x0 DUP1 PUSH1 0x80 DUP6 DUP8 SUB SLT ISZERO PUSH2 0x2BD0 JUMPI PUSH1 0x0 DUP1 REVERT JUMPDEST DUP5 CALLDATALOAD PUSH2 0x2BDB DUP2 PUSH2 0x29E2 JUMP JUMPDEST SWAP4 POP PUSH1 0x20 DUP6 ADD CALLDATALOAD SWAP3 POP PUSH1 0x40 DUP6 ADD CALLDATALOAD SWAP2 POP PUSH1 0x60 DUP6 ADD CALLDATALOAD PUSH2 0x2BF9 DUP2 PUSH2 0x29E2 JUMP JUMPDEST SWAP4 SWAP7 SWAP3 SWAP6 POP SWAP1 SWAP4 POP POP JUMP JUMPDEST PUSH1 0x0 DUP1 PUSH1 0x0 PUSH1 0x60 DUP5 DUP7 SUB SLT ISZERO PUSH2 0x2C19 JUMPI PUSH1 0x0 DUP1 REVERT JUMPDEST DUP4 CALLDATALOAD PUSH2 0x2C24 DUP2 PUSH2 0x29E2 JUMP JUMPDEST SWAP3 POP PUSH1 0x20 DUP5 ADD CALLDATALOAD PUSH2 0x2C34 DUP2 PUSH2 0x29E2 JUMP JUMPDEST SWAP3 SWAP6 SWAP3 SWAP5 POP POP POP PUSH1 0x40 SWAP2 SWAP1 SWAP2 ADD CALLDATALOAD SWAP1 JUMP JUMPDEST PUSH4 0x4E487B71 PUSH1 0xE0 SHL PUSH1 0x0 MSTORE PUSH1 0x32 PUSH1 0x4 MSTORE PUSH1 0x24 PUSH1 0x0 REVERT JUMPDEST PUSH1 0x20 DUP1 DUP3 MSTORE DUP2 DUP2 ADD MSTORE PUSH32 0x4F776E61626C653A2063616C6C6572206973206E6F7420746865206F776E6572 PUSH1 0x40 DUP3 ADD MSTORE PUSH1 0x60 ADD SWAP1 JUMP JUMPDEST PUSH1 0x20 DUP1 DUP3 MSTORE PUSH1 0x1F SWAP1 DUP3 ADD MSTORE PUSH32 0x5265656E7472616E637947756172643A207265656E7472616E742063616C6C00 PUSH1 0x40 DUP3 ADD MSTORE PUSH1 0x60 ADD SWAP1 JUMP JUMPDEST PUSH1 0x20 DUP1 DUP3 MSTORE PUSH1 0xD SWAP1 DUP3 ADD MSTORE PUSH13 0x989E8696409A92A69A82A8869 PUSH1 0x9B SHL PUSH1 0x40 DUP3 ADD MSTORE PUSH1 0x60 ADD SWAP1 JUMP JUMPDEST PUSH4 0x4E487B71 PUSH1 0xE0 SHL PUSH1 0x0 MSTORE PUSH1 0x11 PUSH1 0x4 MSTORE PUSH1 0x24 PUSH1 0x0 REVERT JUMPDEST PUSH1 0x0 DUP3 DUP3 LT ISZERO PUSH2 0x2D16 JUMPI PUSH2 0x2D16 PUSH2 0x2CEE JUMP JUMPDEST POP SUB SWAP1 JUMP JUMPDEST PUSH4 0x4E487B71 PUSH1 0xE0 SHL PUSH1 0x0 MSTORE PUSH1 0x31 PUSH1 0x4 MSTORE PUSH1 0x24 PUSH1 0x0 REVERT JUMPDEST PUSH1 0x1 PUSH1 0x1 PUSH1 0xA0 SHL SUB SWAP3 SWAP1 SWAP3 AND DUP3 MSTORE PUSH1 0x20 DUP3 ADD MSTORE PUSH1 0x40 ADD SWAP1 JUMP JUMPDEST PUSH1 0x20 DUP1 DUP3 MSTORE PUSH1 0xB SWAP1 DUP3 ADD MSTORE PUSH11 0x16915493C8105353D55395 PUSH1 0xAA SHL PUSH1 0x40 DUP3 ADD MSTORE PUSH1 0x60 ADD SWAP1 JUMP JUMPDEST PUSH1 0x20 DUP1 DUP3 MSTORE PUSH1 0xB SWAP1 DUP3 ADD MSTORE PUSH11 0x119151481393D508135155 PUSH1 0xAA SHL PUSH1 0x40 DUP3 ADD MSTORE PUSH1 0x60 ADD SWAP1 JUMP JUMPDEST PUSH1 0x20 DUP1 DUP3 MSTORE PUSH1 0x11 SWAP1 DUP3 ADD MSTORE PUSH17 0x1512535154D51053540812539590531251 PUSH1 0x7A SHL PUSH1 0x40 DUP3 ADD MSTORE PUSH1 0x60 ADD SWAP1 JUMP JUMPDEST PUSH1 0x0 PUSH1 0x20 DUP3 DUP5 SUB SLT ISZERO PUSH2 0x2DD1 JUMPI PUSH1 0x0 DUP1 REVERT JUMPDEST DUP2 MLOAD PUSH2 0x24B3 DUP2 PUSH2 0x29E2 JUMP JUMPDEST PUSH1 0x0 PUSH1 0x20 DUP3 DUP5 SUB SLT ISZERO PUSH2 0x2DEE JUMPI PUSH1 0x0 DUP1 REVERT JUMPDEST POP MLOAD SWAP2 SWAP1 POP JUMP JUMPDEST PUSH1 0x1 PUSH1 0x1 PUSH1 0xA0 SHL SUB SWAP6 DUP7 AND DUP2 MSTORE SWAP4 SWAP1 SWAP5 AND PUSH1 0x20 DUP5 ADD MSTORE PUSH1 0x40 DUP4 ADD SWAP2 SWAP1 SWAP2 MSTORE PUSH1 0x60 DUP3 ADD MSTORE PUSH1 0x80 DUP2 ADD SWAP2 SWAP1 SWAP2 MSTORE PUSH1 0xA0 ADD SWAP1 JUMP JUMPDEST PUSH1 0x0 PUSH1 0x20 DUP3 DUP5 SUB SLT ISZERO PUSH2 0x2E38 JUMPI PUSH1 0x0 DUP1 REVERT JUMPDEST DUP2 MLOAD PUSH2 0x24B3 DUP2 PUSH2 0x2AD5 JUMP JUMPDEST PUSH1 0x0 JUMPDEST DUP4 DUP2 LT ISZERO PUSH2 0x2E5E JUMPI DUP2 DUP2 ADD MLOAD DUP4 DUP3 ADD MSTORE PUSH1 0x20 ADD PUSH2 0x2E46 JUMP JUMPDEST DUP4 DUP2 GT ISZERO PUSH2 0x2E6D JUMPI PUSH1 0x0 DUP5 DUP5 ADD MSTORE JUMPDEST POP POP POP POP JUMP JUMPDEST PUSH1 0x0 DUP3 MLOAD PUSH2 0x2E85 DUP2 DUP5 PUSH1 0x20 DUP8 ADD PUSH2 0x2E43 JUMP JUMPDEST SWAP2 SWAP1 SWAP2 ADD SWAP3 SWAP2 POP POP JUMP JUMPDEST PUSH1 0x0 DUP2 PUSH1 0x0 NOT DIV DUP4 GT DUP3 ISZERO ISZERO AND ISZERO PUSH2 0x2EA9 JUMPI PUSH2 0x2EA9 PUSH2 0x2CEE JUMP JUMPDEST POP MUL SWAP1 JUMP JUMPDEST PUSH1 0x0 DUP3 PUSH2 0x2ECB JUMPI PUSH4 0x4E487B71 PUSH1 0xE0 SHL PUSH1 0x0 MSTORE PUSH1 0x12 PUSH1 0x4 MSTORE PUSH1 0x24 PUSH1 0x0 REVERT JUMPDEST POP DIV SWAP1 JUMP JUMPDEST PUSH1 0x0 DUP3 NOT DUP3 GT ISZERO PUSH2 0x2EE3 JUMPI PUSH2 0x2EE3 PUSH2 0x2CEE JUMP JUMPDEST POP ADD SWAP1 JUMP JUMPDEST PUSH1 0x20 DUP2 MSTORE PUSH1 0x0 DUP3 MLOAD DUP1 PUSH1 0x20 DUP5 ADD MSTORE PUSH2 0x2F07 DUP2 PUSH1 0x40 DUP6 ADD PUSH1 0x20 DUP8 ADD PUSH2 0x2E43 JUMP JUMPDEST PUSH1 0x1F ADD PUSH1 0x1F NOT AND SWAP2 SWAP1 SWAP2 ADD PUSH1 0x40 ADD SWAP3 SWAP2 POP POP JUMP INVALID LOG2 PUSH5 0x6970667358 0x22 SLT KECCAK256 ISZERO DUP2 0x21 0xFC EXTCODEHASH 0xD0 0xDB 0x4C DUP13 SLOAD PUSH7 0x15E771E97DCF50 0xC4 0xEE 0xAA PUSH29 0x503E170B5D44F378020F64736F6C634300080D00330000000000000000 "
				},
				"gasEstimates": {
					"creation": {
						"codeDepositCost": "2422600",
						"executionCost": "infinite",
						"totalCost": "infinite"
					},
					"external": {
						"BlocklistStatus(address)": "2676",
						"WhitelistStatus(address)": "2610",
						"blocklistAccount(address,bool)": "infinite",
						"gFees()": "19428",
						"getLockedTokenAtIndex(address,uint256)": "4841",
						"getNumLockedTokens()": "2581",
						"getNumLocksForToken(address)": "2554",
						"getUserLockForTokenAtIndex(address,address,uint256)": "infinite",
						"getUserLockedTokenAtIndex(address,uint256)": "11413",
						"getUserNumLockedTokens(address)": "2641",
						"getUserNumLocksForToken(address,address)": "infinite",
						"incrementLock(address,uint256,uint256,uint256)": "infinite",
						"lockLPToken(address,uint256,uint256,address,bool,address)": "infinite",
						"migrate(address,uint256,uint256,uint256)": "infinite",
						"owner()": "2377",
						"relock(address,uint256,uint256,uint256)": "infinite",
						"renounceOwnership()": "30364",
						"setFees(uint256,uint256,uint256,uint256,uint256,uint256)": "135349",
						"setMigrator(address)": "26750",
						"setOps(address)": "26860",
						"setReferralTokenAndHold(address,uint256)": "49118",
						"setSecondaryFeeToken(address)": "26970",
						"splitLock(address,uint256,uint256,uint256)": "infinite",
						"tokenLocks(address,uint256)": "15671",
						"transferLockOwnership(address,uint256,uint256,address)": "infinite",
						"transferOwnership(address)": "30702",
						"uniswapFactory()": "2361",
						"whitelistFeeAccount(address,bool)": "infinite",
						"withdraw(address,uint256,uint256,uint256)": "infinite"
					}
				},
				"methodIdentifiers": {
					"BlocklistStatus(address)": "5a4ddd17",
					"WhitelistStatus(address)": "34ddbfe9",
					"blocklistAccount(address,bool)": "b1cb89a3",
					"gFees()": "90e1a003",
					"getLockedTokenAtIndex(address,uint256)": "1f0b8a0d",
					"getNumLockedTokens()": "783451e8",
					"getNumLocksForToken(address)": "1f2a1d2f",
					"getUserLockForTokenAtIndex(address,address,uint256)": "d4ff493f",
					"getUserLockedTokenAtIndex(address,uint256)": "903df806",
					"getUserNumLockedTokens(address)": "a3969815",
					"getUserNumLocksForToken(address,address)": "a69d9c4f",
					"incrementLock(address,uint256,uint256,uint256)": "a9b07cea",
					"lockLPToken(address,uint256,uint256,address,bool,address)": "8af416f6",
					"migrate(address,uint256,uint256,uint256)": "ee424278",
					"owner()": "8da5cb5b",
					"relock(address,uint256,uint256,uint256)": "60491d24",
					"renounceOwnership()": "715018a6",
					"setFees(uint256,uint256,uint256,uint256,uint256,uint256)": "86f6c3c1",
					"setMigrator(address)": "23cf3118",
					"setOps(address)": "5c7e9db8",
					"setReferralTokenAndHold(address,uint256)": "f02c2643",
					"setSecondaryFeeToken(address)": "8931a4be",
					"splitLock(address,uint256,uint256,uint256)": "582d5adc",
					"tokenLocks(address,uint256)": "ccebfa3f",
					"transferLockOwnership(address,uint256,uint256,address)": "bef497fd",
					"transferOwnership(address)": "f2fde38b",
					"uniswapFactory()": "8bdb2afa",
					"whitelistFeeAccount(address,bool)": "91ff1eb1",
					"withdraw(address,uint256,uint256,uint256)": "4532d776"
				}
			},
			"storageLayout": {
				"storage": [
					{
						"astId": 30,
						"contract": "contracts/test/Locker_Rewards.sol:UniswapV2Locker",
						"label": "_owner",
						"offset": 0,
						"slot": "0",
						"type": "t_address"
					},
					{
						"astId": 273,
						"contract": "contracts/test/Locker_Rewards.sol:UniswapV2Locker",
						"label": "_status",
						"offset": 0,
						"slot": "1",
						"type": "t_uint256"
					},
					{
						"astId": 577,
						"contract": "contracts/test/Locker_Rewards.sol:UniswapV2Locker",
						"label": "uniswapFactory",
						"offset": 0,
						"slot": "2",
						"type": "t_contract(IUniFactory)553"
					},
					{
						"astId": 604,
						"contract": "contracts/test/Locker_Rewards.sol:UniswapV2Locker",
						"label": "users",
						"offset": 0,
						"slot": "3",
						"type": "t_mapping(t_address,t_struct(UserInfo)586_storage)"
					},
					{
						"astId": 610,
						"contract": "contracts/test/Locker_Rewards.sol:UniswapV2Locker",
						"label": "tokenLocks",
						"offset": 0,
						"slot": "4",
						"type": "t_mapping(t_address,t_array(t_struct(TokenLock)599_storage)dyn_storage)"
					},
					{
						"astId": 634,
						"contract": "contracts/test/Locker_Rewards.sol:UniswapV2Locker",
						"label": "gFees",
						"offset": 0,
						"slot": "5",
						"type": "t_struct(FeeStruct)631_storage"
					},
					{
						"astId": 638,
						"contract": "contracts/test/Locker_Rewards.sol:UniswapV2Locker",
						"label": "feeWhitelist",
						"offset": 0,
						"slot": "14",
						"type": "t_mapping(t_address,t_bool)"
					},
					{
						"astId": 642,
						"contract": "contracts/test/Locker_Rewards.sol:UniswapV2Locker",
						"label": "feeBlocklist",
						"offset": 0,
						"slot": "15",
						"type": "t_mapping(t_address,t_bool)"
					},
					{
						"astId": 646,
						"contract": "contracts/test/Locker_Rewards.sol:UniswapV2Locker",
						"label": "user_removed",
						"offset": 0,
						"slot": "16",
						"type": "t_mapping(t_address,t_bool)"
					},
					{
						"astId": 648,
						"contract": "contracts/test/Locker_Rewards.sol:UniswapV2Locker",
						"label": "ops",
						"offset": 0,
						"slot": "17",
						"type": "t_address_payable"
					},
					{
						"astId": 651,
						"contract": "contracts/test/Locker_Rewards.sol:UniswapV2Locker",
						"label": "migrator",
						"offset": 0,
						"slot": "18",
						"type": "t_contract(IMigrator)567"
					}
				],
				"types": {
					"t_address": {
						"encoding": "inplace",
						"label": "address",
						"numberOfBytes": "20"
					},
					"t_address_payable": {
						"encoding": "inplace",
						"label": "address payable",
						"numberOfBytes": "20"
					},
					"t_array(t_address_payable)dyn_storage": {
						"base": "t_address_payable",
						"encoding": "dynamic_array",
						"label": "address payable[]",
						"numberOfBytes": "32"
					},
					"t_array(t_struct(TokenLock)599_storage)dyn_storage": {
						"base": "t_struct(TokenLock)599_storage",
						"encoding": "dynamic_array",
						"label": "struct UniswapV2Locker.TokenLock[]",
						"numberOfBytes": "32"
					},
					"t_array(t_uint256)dyn_storage": {
						"base": "t_uint256",
						"encoding": "dynamic_array",
						"label": "uint256[]",
						"numberOfBytes": "32"
					},
					"t_bool": {
						"encoding": "inplace",
						"label": "bool",
						"numberOfBytes": "1"
					},
					"t_contract(IERCBurn)543": {
						"encoding": "inplace",
						"label": "contract IERCBurn",
						"numberOfBytes": "20"
					},
					"t_contract(IMigrator)567": {
						"encoding": "inplace",
						"label": "contract IMigrator",
						"numberOfBytes": "20"
					},
					"t_contract(IUniFactory)553": {
						"encoding": "inplace",
						"label": "contract IUniFactory",
						"numberOfBytes": "20"
					},
					"t_mapping(t_address,t_array(t_struct(TokenLock)599_storage)dyn_storage)": {
						"encoding": "mapping",
						"key": "t_address",
						"label": "mapping(address => struct UniswapV2Locker.TokenLock[])",
						"numberOfBytes": "32",
						"value": "t_array(t_struct(TokenLock)599_storage)dyn_storage"
					},
					"t_mapping(t_address,t_array(t_uint256)dyn_storage)": {
						"encoding": "mapping",
						"key": "t_address",
						"label": "mapping(address => uint256[])",
						"numberOfBytes": "32",
						"value": "t_array(t_uint256)dyn_storage"
					},
					"t_mapping(t_address,t_bool)": {
						"encoding": "mapping",
						"key": "t_address",
						"label": "mapping(address => bool)",
						"numberOfBytes": "32",
						"value": "t_bool"
					},
					"t_mapping(t_address,t_struct(UserInfo)586_storage)": {
						"encoding": "mapping",
						"key": "t_address",
						"label": "mapping(address => struct UniswapV2Locker.UserInfo)",
						"numberOfBytes": "32",
						"value": "t_struct(UserInfo)586_storage"
					},
					"t_struct(FeeStruct)631_storage": {
						"encoding": "inplace",
						"label": "struct UniswapV2Locker.FeeStruct",
						"members": [
							{
								"astId": 612,
								"contract": "contracts/test/Locker_Rewards.sol:UniswapV2Locker",
								"label": "ethFee",
								"offset": 0,
								"slot": "0",
								"type": "t_uint256"
							},
							{
								"astId": 615,
								"contract": "contracts/test/Locker_Rewards.sol:UniswapV2Locker",
								"label": "secondaryFeeToken",
								"offset": 0,
								"slot": "1",
								"type": "t_contract(IERCBurn)543"
							},
							{
								"astId": 617,
								"contract": "contracts/test/Locker_Rewards.sol:UniswapV2Locker",
								"label": "secondaryTokenFee",
								"offset": 0,
								"slot": "2",
								"type": "t_uint256"
							},
							{
								"astId": 619,
								"contract": "contracts/test/Locker_Rewards.sol:UniswapV2Locker",
								"label": "secondaryTokenDiscount",
								"offset": 0,
								"slot": "3",
								"type": "t_uint256"
							},
							{
								"astId": 621,
								"contract": "contracts/test/Locker_Rewards.sol:UniswapV2Locker",
								"label": "liquidityFee",
								"offset": 0,
								"slot": "4",
								"type": "t_uint256"
							},
							{
								"astId": 623,
								"contract": "contracts/test/Locker_Rewards.sol:UniswapV2Locker",
								"label": "referralPercent",
								"offset": 0,
								"slot": "5",
								"type": "t_uint256"
							},
							{
								"astId": 626,
								"contract": "contracts/test/Locker_Rewards.sol:UniswapV2Locker",
								"label": "referralToken",
								"offset": 0,
								"slot": "6",
								"type": "t_contract(IERCBurn)543"
							},
							{
								"astId": 628,
								"contract": "contracts/test/Locker_Rewards.sol:UniswapV2Locker",
								"label": "referralHold",
								"offset": 0,
								"slot": "7",
								"type": "t_uint256"
							},
							{
								"astId": 630,
								"contract": "contracts/test/Locker_Rewards.sol:UniswapV2Locker",
								"label": "referralDiscount",
								"offset": 0,
								"slot": "8",
								"type": "t_uint256"
							}
						],
						"numberOfBytes": "288"
					},
					"t_struct(TokenLock)599_storage": {
						"encoding": "inplace",
						"label": "struct UniswapV2Locker.TokenLock",
						"members": [
							{
								"astId": 588,
								"contract": "contracts/test/Locker_Rewards.sol:UniswapV2Locker",
								"label": "lockDate",
								"offset": 0,
								"slot": "0",
								"type": "t_uint256"
							},
							{
								"astId": 590,
								"contract": "contracts/test/Locker_Rewards.sol:UniswapV2Locker",
								"label": "amount",
								"offset": 0,
								"slot": "1",
								"type": "t_uint256"
							},
							{
								"astId": 592,
								"contract": "contracts/test/Locker_Rewards.sol:UniswapV2Locker",
								"label": "initialAmount",
								"offset": 0,
								"slot": "2",
								"type": "t_uint256"
							},
							{
								"astId": 594,
								"contract": "contracts/test/Locker_Rewards.sol:UniswapV2Locker",
								"label": "unlockDate",
								"offset": 0,
								"slot": "3",
								"type": "t_uint256"
							},
							{
								"astId": 596,
								"contract": "contracts/test/Locker_Rewards.sol:UniswapV2Locker",
								"label": "lockID",
								"offset": 0,
								"slot": "4",
								"type": "t_uint256"
							},
							{
								"astId": 598,
								"contract": "contracts/test/Locker_Rewards.sol:UniswapV2Locker",
								"label": "owner",
								"offset": 0,
								"slot": "5",
								"type": "t_address"
							}
						],
						"numberOfBytes": "192"
					},
					"t_struct(UserInfo)586_storage": {
						"encoding": "inplace",
						"label": "struct UniswapV2Locker.UserInfo",
						"members": [
							{
								"astId": 580,
								"contract": "contracts/test/Locker_Rewards.sol:UniswapV2Locker",
								"label": "lockedTokens",
								"offset": 0,
								"slot": "0",
								"type": "t_array(t_address_payable)dyn_storage"
							},
							{
								"astId": 585,
								"contract": "contracts/test/Locker_Rewards.sol:UniswapV2Locker",
								"label": "locksForToken",
								"offset": 0,
								"slot": "1",
								"type": "t_mapping(t_address,t_array(t_uint256)dyn_storage)"
							}
						],
						"numberOfBytes": "64"
					},
					"t_uint256": {
						"encoding": "inplace",
						"label": "uint256",
						"numberOfBytes": "32"
					}
				}
			},
			"userdoc": {
				"kind": "user",
				"methods": {
					"blocklistAccount(address,bool)": {
						"notice": "blocklisted accounts are banned"
					},
					"incrementLock(address,uint256,uint256,uint256)": {
						"notice": "increase the amount of tokens per a specific lock, this is preferable to creating a new lock, less fees, and faster loading on our live block explorer"
					},
					"lockLPToken(address,uint256,uint256,address,bool,address)": {
						"notice": "Creates a new lock"
					},
					"migrate(address,uint256,uint256,uint256)": {
						"notice": "migrates liquidity to uniswap v3"
					},
					"relock(address,uint256,uint256,uint256)": {
						"notice": "extend a lock with a new unlock date, _index and _lockID ensure the correct lock is changed this prevents errors when a user performs multiple tx per block possibly with varying gas prices"
					},
					"setMigrator(address)": {
						"notice": "set the migrator contract which allows locked lp tokens to be migrated to uniswap v3"
					},
					"setReferralTokenAndHold(address,uint256)": {
						"notice": "referrers need to hold the specified token and hold amount to be elegible for referral fees"
					},
					"splitLock(address,uint256,uint256,uint256)": {
						"notice": "split a lock into two seperate locks, useful when a lock is about to expire and youd like to relock a portion and withdraw a smaller portion"
					},
					"transferLockOwnership(address,uint256,uint256,address)": {
						"notice": "transfer a lock to a new owner, e.g. presale project -> project owner"
					},
					"whitelistFeeAccount(address,bool)": {
						"notice": "whitelisted accounts dont pay flatrate fees on locking"
					},
					"withdraw(address,uint256,uint256,uint256)": {
						"notice": "withdraw a specified amount from a lock. _index and _lockID ensure the correct lock is changed this prevents errors when a user performs multiple tx per block possibly with varying gas prices"
					}
				},
				"version": 1
			}
		}
	}
}