{
	"data": {
		"bytecode": {
			"linkReferences": {},
			"object": "6080604052600580546001600160a01b031916301790553480156200002357600080fd5b5060405162002ec838038062002ec8833981016040819052620000469162000283565b81816200006d60405180606001604052806038815260200162002e906038913933620001f4565b604080518082019091526008815267027bbb732b9399d160c51b6020820152620000989083620001f4565b60408051808201909152600c81526b027b832b930ba34b7b7399d160a51b6020820152620000c79082620001f4565b60008054610100600160a81b0319166101006001600160a01b03858116820292909217808455600180546001600160a01b03191686851617905560405191900490911691907f342827c97908e5e2f71151c08502a66d44b6f758e3ac2f1de95f02eb95f0a735908290a36001546040516001600160a01b03909116906000907f870f2e08a87d4b82c740aaf93f14b864c9151455c6c17e3a2fc9467df9ec3154908290a350506200019260405180606001604052806038815260200162002e906038913933620001f4565b604080518082019091526008815267027bbb732b9399d160c51b6020820152620001bd9083620001f4565b60408051808201909152600c81526b027b832b930ba34b7b7399d160a51b6020820152620001ec9082620001f4565b50506200031d565b6200024182826040516024016200020d929190620002bb565b60408051601f198184030181529190526020810180516001600160e01b0390811663319af33360e01b179091526200024516565b5050565b80516a636f6e736f6c652e6c6f67602083016000808483855afa5050505050565b80516001600160a01b03811681146200027e57600080fd5b919050565b600080604083850312156200029757600080fd5b620002a28362000266565b9150620002b26020840162000266565b90509250929050565b604081526000835180604084015260005b81811015620002eb5760208187018101516060868401015201620002cc565b50600060608285018101919091526001600160a01b03949094166020840152601f01601f191690910190910192915050565b612b63806200032d6000396000f3fe60806040523480156200001157600080fd5b5060043610620000ca5760003560e01c806306394c9b14620000cf5780630adbde6c14620000e85780632d9090b5146200011757806332c15078146200012157806335a063b4146200013a57806335e7cc52146200014457806369652fcf146200015b578063780b00eb14620001655780637c6f75b314620001785780638716452c1462000181578063893d20e81462000198578063a1bd00bb14620001c3578063a6f9dae114620001da578063e7f43c6814620001f1575b600080fd5b620000e6620000e03660046200209d565b62000203565b005b620000ff620000f9366004620020c4565b62000285565b6040516200010e919062002240565b60405180910390f35b620000ff6200094a565b6200012b62000ffa565b6040516200010e9190620023c2565b620000e66200105d565b620000e6620001553660046200209d565b620010c9565b620000e66200111c565b6004545b6040519081526020016200010e565b60035462000169565b620000e662000192366004620020c4565b6200119a565b60005461010090046001600160a01b03165b6040516001600160a01b0390911681526020016200010e565b620000ff620001d4366004620023fc565b6200124e565b620000e6620001eb3660046200209d565b6200191d565b6001546001600160a01b0316620001aa565b6001546001600160a01b03163314620002395760405162461bcd60e51b815260040162000230906200242b565b60405180910390fd5b600180546001600160a01b0319166001600160a01b03831690811790915560405181907f870f2e08a87d4b82c740aaf93f14b864c9151455c6c17e3a2fc9467df9ec315490600090a350565b3360009081526016602090815260408083208484528252808320805482518185028101850190935280835260609492939192909184015b828210156200093f57600084815260208082206040805160a0810182526005870290920180548352815160018201805460608188028401810186529483018181529597939688810196939592948694918501938693859392859288015b828210156200056057600084815260208082206040805191860180548085028401830183529383018481529294909385939285929085015b8282101562000548576000848152602080822060408051918601805460608186028501810184529284018181529395919486949085019386938593859290919088015b828210156200052d5760008481526020908190206040805160a08101825260048602909201805483830190815260018201546001600160a01b03166060850152600282018054845181880281018801909552808552949592948694929386936080870193909290918301828280156200043757602002820191906000526020600020905b81546001600160a01b0316815260019091019060200180831162000418575b505050505081525050815260200160038201805480602002602001604051908101604052809291908181526020016000905b828210156200051557600084815260209081902060408051606081018252600386029092018054835260018101546001600160a01b0316838501526002810180548351818702810187018552818152949592949386019392830182828015620004fc57602002820191906000526020600020905b81546001600160a01b03168152600190910190602001808311620004dd575b5050505050815250508152602001906001019062000469565b50505050815250508152602001906001019062000394565b50505091525050905250815260019091019060200162000351565b50505050815250508152602001906001019062000319565b5050509152505090525081526040805160028401805460208181028401850185528381018281529501949293919284929091849160009085015b82821015620007335760008481526020908190206040805160a08101825260048602909201805483830190815260018201546001600160a01b03166060850152600282018054845181880281018801909552808552949592948694929386936080870193909290918301828280156200063d57602002820191906000526020600020905b81546001600160a01b031681526001909101906020018083116200061e575b505050505081525050815260200160038201805480602002602001604051908101604052809291908181526020016000905b828210156200071b57600084815260209081902060408051606081018252600386029092018054835260018101546001600160a01b03168385015260028101805483518187028101870185528181529495929493860193928301828280156200070257602002820191906000526020600020905b81546001600160a01b03168152600190910190602001808311620006e3575b505050505081525050815260200190600101906200066f565b5050505081525050815260200190600101906200059a565b5050509152505081526040805160038401805460606020828102850182018652948401828152958501959394929385938401928592849291849160009088015b828210156200090c5760008481526020908190206040805160a08101825260048602909201805483830190815260018201546001600160a01b03166060850152600282018054845181880281018801909552808552949592948694929386936080870193909290918301828280156200081657602002820191906000526020600020905b81546001600160a01b03168152600190910190602001808311620007f7575b505050505081525050815260200160038201805480602002602001604051908101604052809291908181526020016000905b82821015620008f457600084815260209081902060408051606081018252600386029092018054835260018101546001600160a01b0316838501526002810180548351818702810187018552818152949592949386019392830182828015620008db57602002820191906000526020600020905b81546001600160a01b03168152600190910190602001808311620008bc575b5050505050815250508152602001906001019062000848565b50505050815250508152602001906001019062000773565b505050915250509052508152600491909101546001600160a01b03166020918201529082526001929092019101620002bc565b505050509050919050565b60606010805480602002602001604051908101604052809291908181526020016000905b8282101562000ff157600084815260208082206040805160a0810182526005870290920180548352815160018201805460608188028401810186529483018181529597939688810196939592948694918501938693859392859288015b8282101562000c1257600084815260208082206040805191860180548085028401830183529383018481529294909385939285929085015b8282101562000bfa576000848152602080822060408051918601805460608186028501810184529284018181529395919486949085019386938593859290919088015b8282101562000bdf5760008481526020908190206040805160a08101825260048602909201805483830190815260018201546001600160a01b031660608501526002820180548451818802810188019095528085529495929486949293869360808701939092909183018282801562000ae957602002820191906000526020600020905b81546001600160a01b0316815260019091019060200180831162000aca575b505050505081525050815260200160038201805480602002602001604051908101604052809291908181526020016000905b8282101562000bc757600084815260209081902060408051606081018252600386029092018054835260018101546001600160a01b031683850152600281018054835181870281018701855281815294959294938601939283018282801562000bae57602002820191906000526020600020905b81546001600160a01b0316815260019091019060200180831162000b8f575b5050505050815250508152602001906001019062000b1b565b50505050815250508152602001906001019062000a46565b50505091525050905250815260019091019060200162000a03565b505050508152505081526020019060010190620009cb565b5050509152505090525081526040805160028401805460208181028401850185528381018281529501949293919284929091849160009085015b8282101562000de55760008481526020908190206040805160a08101825260048602909201805483830190815260018201546001600160a01b031660608501526002820180548451818802810188019095528085529495929486949293869360808701939092909183018282801562000cef57602002820191906000526020600020905b81546001600160a01b0316815260019091019060200180831162000cd0575b505050505081525050815260200160038201805480602002602001604051908101604052809291908181526020016000905b8282101562000dcd57600084815260209081902060408051606081018252600386029092018054835260018101546001600160a01b031683850152600281018054835181870281018701855281815294959294938601939283018282801562000db457602002820191906000526020600020905b81546001600160a01b0316815260019091019060200180831162000d95575b5050505050815250508152602001906001019062000d21565b50505050815250508152602001906001019062000c4c565b5050509152505081526040805160038401805460606020828102850182018652948401828152958501959394929385938401928592849291849160009088015b8282101562000fbe5760008481526020908190206040805160a08101825260048602909201805483830190815260018201546001600160a01b031660608501526002820180548451818802810188019095528085529495929486949293869360808701939092909183018282801562000ec857602002820191906000526020600020905b81546001600160a01b0316815260019091019060200180831162000ea9575b505050505081525050815260200160038201805480602002602001604051908101604052809291908181526020016000905b8282101562000fa657600084815260209081902060408051606081018252600386029092018054835260018101546001600160a01b031683850152600281018054835181870281018701855281815294959294938601939283018282801562000f8d57602002820191906000526020600020905b81546001600160a01b0316815260019091019060200180831162000f6e575b5050505050815250508152602001906001019062000efa565b50505050815250508152602001906001019062000e25565b505050915250509052508152600491909101546001600160a01b031660209182015290825260019290920191016200096e565b50505050905090565b336000908152601760209081526040918290208054835181840281018401909452808452606093928301828280156200105357602002820191906000526020600020905b8154815260200190600101908083116200103e575b5050505050905090565b6001546001600160a01b031633146200108a5760405162461bcd60e51b815260040162000230906200242b565b600180546001600160a01b031916905560405160009081907f870f2e08a87d4b82c740aaf93f14b864c9151455c6c17e3a2fc9467df9ec3154908290a3565b60005461010090046001600160a01b03163314620010fb5760405162461bcd60e51b815260040162000230906200245b565b6001600160a01b03166000908152601560205260409020805460ff19169055565b60005461010090046001600160a01b031633146200114e5760405162461bcd60e51b815260040162000230906200245b565b60008054610100600160a81b0319168082556040516101009091046001600160a01b0316907f342827c97908e5e2f71151c08502a66d44b6f758e3ac2f1de95f02eb95f0a735908390a3565b60005b818110156200124a57620011b36001836200249e565b81106200124a573360009081526013602052604090205460ff161515600114620011f157620011f16003546001620011ec9190620024ba565b600355565b6200120b6004546001620012069190620024ba565b600455565b600554600090620012279033906001600160a01b0316620019a7565b90506200123481620019f5565b816200124081620024d0565b925050506200119d565b5050565b6001600160a01b03821660009081526016602090815260408083208484528252808320805482518185028101850190935280835260609492939192909184015b828210156200191157600084815260208082206040805160a0810182526005870290920180548352815160018201805460608188028401810186529483018181529597939688810196939592948694918501938693859392859288015b828210156200153257600084815260208082206040805191860180548085028401830183529383018481529294909385939285929085015b828210156200151a576000848152602080822060408051918601805460608186028501810184529284018181529395919486949085019386938593859290919088015b82821015620014ff5760008481526020908190206040805160a08101825260048602909201805483830190815260018201546001600160a01b03166060850152600282018054845181880281018801909552808552949592948694929386936080870193909290918301828280156200140957602002820191906000526020600020905b81546001600160a01b03168152600190910190602001808311620013ea575b505050505081525050815260200160038201805480602002602001604051908101604052809291908181526020016000905b82821015620014e757600084815260209081902060408051606081018252600386029092018054835260018101546001600160a01b0316838501526002810180548351818702810187018552818152949592949386019392830182828015620014ce57602002820191906000526020600020905b81546001600160a01b03168152600190910190602001808311620014af575b505050505081525050815260200190600101906200143b565b50505050815250508152602001906001019062001366565b50505091525050905250815260019091019060200162001323565b505050508152505081526020019060010190620012eb565b5050509152505090525081526040805160028401805460208181028401850185528381018281529501949293919284929091849160009085015b82821015620017055760008481526020908190206040805160a08101825260048602909201805483830190815260018201546001600160a01b03166060850152600282018054845181880281018801909552808552949592948694929386936080870193909290918301828280156200160f57602002820191906000526020600020905b81546001600160a01b03168152600190910190602001808311620015f0575b505050505081525050815260200160038201805480602002602001604051908101604052809291908181526020016000905b82821015620016ed57600084815260209081902060408051606081018252600386029092018054835260018101546001600160a01b0316838501526002810180548351818702810187018552818152949592949386019392830182828015620016d457602002820191906000526020600020905b81546001600160a01b03168152600190910190602001808311620016b5575b5050505050815250508152602001906001019062001641565b5050505081525050815260200190600101906200156c565b5050509152505081526040805160038401805460606020828102850182018652948401828152958501959394929385938401928592849291849160009088015b82821015620018de5760008481526020908190206040805160a08101825260048602909201805483830190815260018201546001600160a01b0316606085015260028201805484518188028101880190955280855294959294869492938693608087019390929091830182828015620017e857602002820191906000526020600020905b81546001600160a01b03168152600190910190602001808311620017c9575b505050505081525050815260200160038201805480602002602001604051908101604052809291908181526020016000905b82821015620018c657600084815260209081902060408051606081018252600386029092018054835260018101546001600160a01b0316838501526002810180548351818702810187018552818152949592949386019392830182828015620018ad57602002820191906000526020600020905b81546001600160a01b031681526001909101906020018083116200188e575b505050505081525050815260200190600101906200181a565b50505050815250508152602001906001019062001745565b505050915250509052508152600491909101546001600160a01b031660209182015290825260019290920191016200128e565b50505050905092915050565b60005461010090046001600160a01b031633146200194f5760405162461bcd60e51b815260040162000230906200245b565b60008054610100600160a81b0319166101006001600160a01b0384811682810293909317808555604051939492900416917f342827c97908e5e2f71151c08502a66d44b6f758e3ac2f1de95f02eb95f0a7359190a350565b60008282604051620019b99062001c76565b6001600160a01b03928316815291166020820152604001604051809103906000f080158015620019ed573d6000803e3d6000fd5b509392505050565b6000600454600162001a089190620024ba565b905062001a1481600455565b6001600160a01b03821660008181526017602090815260408083208054600181810183559185528385200186905585845260148352818420805460ff191682179055600b868155600f80546001600160a01b0319168717905594845260168352818420868552835290832080548083018255908452919092208354600590920201908155600c805491929091908301908290829062001ab7908290849062001c84565b50505050600283810180549092509083019062001ad8908290849062001ced565b5050506003828101805490918301908290829062001afa908290849062001ced565b505050506004928301549190920180546001600160a01b0319166001600160a01b039092169190911790555060108054600181018255600091909152600b805460059092027f1b6847dc741a1b0cd08d278845f9d819d87b734759afb55fe2de5cb82a9ae6728101928355600c805492939290917f1b6847dc741a1b0cd08d278845f9d819d87b734759afb55fe2de5cb82a9ae67301908290829062001ba4908290849062001c84565b50505050600283810180549092509083019062001bc5908290849062001ced565b5050506003828101805490918301908290829062001be7908290849062001ced565b505050506004928301549190920180546001600160a01b0319166001600160a01b03909216919091179055506000600b81815590600c81818162001c2c828262001da4565b505050600283019050600062001c43828262001dc7565b5050600382016000818162001c59828262001dc7565b5050505060049190910180546001600160a01b0319169055505050565b61064180620024ed83390190565b82805482825590600052602060002090810192821562001cdb5760005260206000209182015b8281111562001cdb5782548390839062001cc8908290849062001dea565b5050509160010191906001019062001caa565b5062001ce992915062001e55565b5090565b82805482825590600052602060002090600402810192821562001d965760005260206000209160040282015b8281111562001d96578254825560018084015490830180546001600160a01b0319166001600160a01b0390921691909117905560028084018054859285928492849262001d6a929084019162001e76565b5050506003828101805462001d83928401919062001ec7565b5050509160040191906004019062001d19565b5062001ce992915062001f61565b508054600082559060005260206000209081019062001dc4919062001e55565b50565b508054600082556004029060005260206000209081019062001dc4919062001f61565b82805482825590600052602060002090810192821562001e475760005260206000209182015b8281111562001e47578254839083908290829062001e32908290849062001ced565b50505050509160010191906001019062001e10565b5062001ce992915062001faf565b8082111562001ce957600062001e6c828262001fd4565b5060010162001e55565b82805482825590600052602060002090810192821562001eb95760005260206000209182015b8281111562001eb957825482559160010191906001019062001e9c565b5062001ce992915062001ff4565b82805482825590600052602060002090600302810192821562001f535760005260206000209160030282015b8281111562001f53578254825560018084015490830180546001600160a01b0319166001600160a01b03909216919091179055600280840180548592859262001f40929184019162001e76565b5050509160030191906003019062001ef3565b5062001ce99291506200200b565b8082111562001ce95760008082556001820180546001600160a01b0319169055818162001f92600283018262002044565b5062001fa5905060038301600062002064565b5060040162001f61565b8082111562001ce9576000818162001fc8828262001dc7565b50505060010162001faf565b508054600082559060005260206000209081019062001dc4919062001faf565b5b8082111562001ce9576000815560010162001ff5565b8082111562001ce95760008082556001820180546001600160a01b03191690556200203a600283018262002044565b506003016200200b565b508054600082559060005260206000209081019062001dc4919062001ff4565b508054600082556003029060005260206000209081019062001dc491906200200b565b6001600160a01b038116811462001dc457600080fd5b600060208284031215620020b057600080fd5b8135620020bd8162002087565b9392505050565b600060208284031215620020d757600080fd5b5035919050565b805182526020808201516001600160a01b03908116828501526040808401516060918601829052805191860182905260009390810192909184919060808801905b8084101562002143578551831682529484019460019390930192908401906200211f565b50979650505050505050565b8051602080845281518482018190526000926040919083019082870190600581811b8901850187805b8481101562002211578b8303603f19018652865180518985526200219f8a860182620020de565b918b0151858303868d01528051808452908c019291508b82019080881b83018d01865b82811015620021f457601f19858303018452620021e1828751620020de565b958f0195938f01939150600101620021c2565b509a8d019a998d0199965050506001929092019150620021789050565b50909a9950505050505050505050565b60008151602084526200223860208501826200214f565b949350505050565b60208152600060208201835180825260408401915060408160051b8501016020860160005b83811015620023b657868303603f1901855281518051845260208082015160a082870181905290519086018290525160c08601829052805160e087018190529101906101008087019190600582901b88010160005b82811015620023445788820360ff190184528451516020808452815181850181905291019060408085019190600582901b86010160005b828110156200232657603f198783030184526200231082865162002221565b60209586019594909401939150600101620022f1565b506020988901989790970196945050506001919091019050620022ba565b506040850151935087810360408901526200236081856200214f565b9350505050606082015185820360608701526200237e828262002221565b915050608082015191506200239e60808601836001600160a01b03169052565b60209687019690945092909201915060010162002265565b50909695505050505050565b6020808252825182820181905260009190848201906040850190845b81811015620023b657835183529284019291840191600101620023de565b600080604083850312156200241057600080fd5b82356200241d8162002087565b946020939093013593505050565b60208082526016908201527521b0b63632b91034b9903737ba1037b832b930ba37b960511b604082015260600190565b60208082526013908201527221b0b63632b91034b9903737ba1037bbb732b960691b604082015260600190565b634e487b7160e01b600052601160045260246000fd5b81810381811115620024b457620024b462002488565b92915050565b80820180821115620024b457620024b462002488565b600060018201620024e557620024e562002488565b506001019056fe608060405234801561001057600080fd5b5060405161064138038061064183398101604081905261002f916101dc565b6100516040518060600160405280603881526020016106096038913933610152565b604080518082019091526008815267027bbb732b9399d160c51b602082015261007a9083610152565b60408051808201909152600c81526b027b832b930ba34b7b7399d160a51b60208201526100a79082610152565b60008054610100600160a81b0319166101006001600160a01b03858116820292909217808455600180546001600160a01b03191686851617905560405191900490911691907f342827c97908e5e2f71151c08502a66d44b6f758e3ac2f1de95f02eb95f0a735908290a36001546040516001600160a01b03909116906000907f870f2e08a87d4b82c740aaf93f14b864c9151455c6c17e3a2fc9467df9ec3154908290a3505061026f565b61019b828260405160240161016892919061020f565b60408051601f198184030181529190526020810180516001600160e01b0390811663319af33360e01b1790915261019f16565b5050565b80516a636f6e736f6c652e6c6f67602083016000808483855afa5050505050565b80516001600160a01b03811681146101d757600080fd5b919050565b600080604083850312156101ef57600080fd5b6101f8836101c0565b9150610206602084016101c0565b90509250929050565b604081526000835180604084015260005b8181101561023d5760208187018101516060868401015201610220565b50600060608285018101919091526001600160a01b03949094166020840152601f01601f191690910190910192915050565b61038b8061027e6000396000f3fe608060405234801561001057600080fd5b50600436106100625760003560e01c806306394c9b1461006757806335a063b41461007c57806369652fcf14610084578063893d20e81461008c578063a6f9dae1146100ba578063e7f43c68146100cd575b600080fd5b61007a6100753660046102c8565b6100de565b005b61007a61015d565b61007a6101c6565b60005461010090046001600160a01b03165b6040516001600160a01b03909116815260200160405180910390f35b61007a6100c83660046102c8565b610241565b6001546001600160a01b031661009e565b6001546001600160a01b031633146101115760405162461bcd60e51b8152600401610108906102f8565b60405180910390fd5b600180546001600160a01b0319166001600160a01b03831690811790915560405181907f870f2e08a87d4b82c740aaf93f14b864c9151455c6c17e3a2fc9467df9ec315490600090a350565b6001546001600160a01b031633146101875760405162461bcd60e51b8152600401610108906102f8565b600180546001600160a01b031916905560405160009081907f870f2e08a87d4b82c740aaf93f14b864c9151455c6c17e3a2fc9467df9ec3154908290a3565b60005461010090046001600160a01b031633146101f55760405162461bcd60e51b815260040161010890610328565b60008054610100600160a81b0319168082556040516101009091046001600160a01b0316907f342827c97908e5e2f71151c08502a66d44b6f758e3ac2f1de95f02eb95f0a735908390a3565b60005461010090046001600160a01b031633146102705760405162461bcd60e51b815260040161010890610328565b60008054610100600160a81b0319166101006001600160a01b0384811682810293909317808555604051939492900416917f342827c97908e5e2f71151c08502a66d44b6f758e3ac2f1de95f02eb95f0a7359190a350565b6000602082840312156102da57600080fd5b81356001600160a01b03811681146102f157600080fd5b9392505050565b60208082526016908201527521b0b63632b91034b9903737ba1037b832b930ba37b960511b604082015260600190565b60208082526013908201527221b0b63632b91034b9903737ba1037bbb732b960691b60408201526060019056fea2646970667358221220d15eda0c81d79ad40f4ded8b45c75721a3c1ff9a0cc8fed57814ecf63b26093464736f6c634300081300337b454f413a205b204f776e6572732c204f70657261746f7273205d7d20536d61727420436f6e7472616374206465706c6f7965642062793aa264697066735822122038805deaec648376a19b09a561ea011fb14448c4641c1665221b17fb29df34f864736f6c634300081300337b454f413a205b204f776e6572732c204f70657261746f7273205d7d20536d61727420436f6e7472616374206465706c6f7965642062793a",
			"opcodes": "PUSH1 0x80 PUSH1 0x40 MSTORE PUSH1 0x5 DUP1 SLOAD PUSH1 0x1 PUSH1 0x1 PUSH1 0xA0 SHL SUB NOT AND ADDRESS OR SWAP1 SSTORE CALLVALUE DUP1 ISZERO PUSH3 0x23 JUMPI PUSH1 0x0 DUP1 REVERT JUMPDEST POP PUSH1 0x40 MLOAD PUSH3 0x2EC8 CODESIZE SUB DUP1 PUSH3 0x2EC8 DUP4 CODECOPY DUP2 ADD PUSH1 0x40 DUP2 SWAP1 MSTORE PUSH3 0x46 SWAP2 PUSH3 0x283 JUMP JUMPDEST DUP2 DUP2 PUSH3 0x6D PUSH1 0x40 MLOAD DUP1 PUSH1 0x60 ADD PUSH1 0x40 MSTORE DUP1 PUSH1 0x38 DUP2 MSTORE PUSH1 0x20 ADD PUSH3 0x2E90 PUSH1 0x38 SWAP2 CODECOPY CALLER PUSH3 0x1F4 JUMP JUMPDEST PUSH1 0x40 DUP1 MLOAD DUP1 DUP3 ADD SWAP1 SWAP2 MSTORE PUSH1 0x8 DUP2 MSTORE PUSH8 0x27BBB732B9399D1 PUSH1 0xC5 SHL PUSH1 0x20 DUP3 ADD MSTORE PUSH3 0x98 SWAP1 DUP4 PUSH3 0x1F4 JUMP JUMPDEST PUSH1 0x40 DUP1 MLOAD DUP1 DUP3 ADD SWAP1 SWAP2 MSTORE PUSH1 0xC DUP2 MSTORE PUSH12 0x27B832B930BA34B7B7399D1 PUSH1 0xA5 SHL PUSH1 0x20 DUP3 ADD MSTORE PUSH3 0xC7 SWAP1 DUP3 PUSH3 0x1F4 JUMP JUMPDEST PUSH1 0x0 DUP1 SLOAD PUSH2 0x100 PUSH1 0x1 PUSH1 0xA8 SHL SUB NOT AND PUSH2 0x100 PUSH1 0x1 PUSH1 0x1 PUSH1 0xA0 SHL SUB DUP6 DUP2 AND DUP3 MUL SWAP3 SWAP1 SWAP3 OR DUP1 DUP5 SSTORE PUSH1 0x1 DUP1 SLOAD PUSH1 0x1 PUSH1 0x1 PUSH1 0xA0 SHL SUB NOT AND DUP7 DUP6 AND OR SWAP1 SSTORE PUSH1 0x40 MLOAD SWAP2 SWAP1 DIV SWAP1 SWAP2 AND SWAP2 SWAP1 PUSH32 0x342827C97908E5E2F71151C08502A66D44B6F758E3AC2F1DE95F02EB95F0A735 SWAP1 DUP3 SWAP1 LOG3 PUSH1 0x1 SLOAD PUSH1 0x40 MLOAD PUSH1 0x1 PUSH1 0x1 PUSH1 0xA0 SHL SUB SWAP1 SWAP2 AND SWAP1 PUSH1 0x0 SWAP1 PUSH32 0x870F2E08A87D4B82C740AAF93F14B864C9151455C6C17E3A2FC9467DF9EC3154 SWAP1 DUP3 SWAP1 LOG3 POP POP PUSH3 0x192 PUSH1 0x40 MLOAD DUP1 PUSH1 0x60 ADD PUSH1 0x40 MSTORE DUP1 PUSH1 0x38 DUP2 MSTORE PUSH1 0x20 ADD PUSH3 0x2E90 PUSH1 0x38 SWAP2 CODECOPY CALLER PUSH3 0x1F4 JUMP JUMPDEST PUSH1 0x40 DUP1 MLOAD DUP1 DUP3 ADD SWAP1 SWAP2 MSTORE PUSH1 0x8 DUP2 MSTORE PUSH8 0x27BBB732B9399D1 PUSH1 0xC5 SHL PUSH1 0x20 DUP3 ADD MSTORE PUSH3 0x1BD SWAP1 DUP4 PUSH3 0x1F4 JUMP JUMPDEST PUSH1 0x40 DUP1 MLOAD DUP1 DUP3 ADD SWAP1 SWAP2 MSTORE PUSH1 0xC DUP2 MSTORE PUSH12 0x27B832B930BA34B7B7399D1 PUSH1 0xA5 SHL PUSH1 0x20 DUP3 ADD MSTORE PUSH3 0x1EC SWAP1 DUP3 PUSH3 0x1F4 JUMP JUMPDEST POP POP PUSH3 0x31D JUMP JUMPDEST PUSH3 0x241 DUP3 DUP3 PUSH1 0x40 MLOAD PUSH1 0x24 ADD PUSH3 0x20D SWAP3 SWAP2 SWAP1 PUSH3 0x2BB JUMP JUMPDEST PUSH1 0x40 DUP1 MLOAD PUSH1 0x1F NOT DUP2 DUP5 SUB ADD DUP2 MSTORE SWAP2 SWAP1 MSTORE PUSH1 0x20 DUP2 ADD DUP1 MLOAD PUSH1 0x1 PUSH1 0x1 PUSH1 0xE0 SHL SUB SWAP1 DUP2 AND PUSH4 0x319AF333 PUSH1 0xE0 SHL OR SWAP1 SWAP2 MSTORE PUSH3 0x245 AND JUMP JUMPDEST POP POP JUMP JUMPDEST DUP1 MLOAD PUSH11 0x636F6E736F6C652E6C6F67 PUSH1 0x20 DUP4 ADD PUSH1 0x0 DUP1 DUP5 DUP4 DUP6 GAS STATICCALL POP POP POP POP POP JUMP JUMPDEST DUP1 MLOAD PUSH1 0x1 PUSH1 0x1 PUSH1 0xA0 SHL SUB DUP2 AND DUP2 EQ PUSH3 0x27E JUMPI PUSH1 0x0 DUP1 REVERT JUMPDEST SWAP2 SWAP1 POP JUMP JUMPDEST PUSH1 0x0 DUP1 PUSH1 0x40 DUP4 DUP6 SUB SLT ISZERO PUSH3 0x297 JUMPI PUSH1 0x0 DUP1 REVERT JUMPDEST PUSH3 0x2A2 DUP4 PUSH3 0x266 JUMP JUMPDEST SWAP2 POP PUSH3 0x2B2 PUSH1 0x20 DUP5 ADD PUSH3 0x266 JUMP JUMPDEST SWAP1 POP SWAP3 POP SWAP3 SWAP1 POP JUMP JUMPDEST PUSH1 0x40 DUP2 MSTORE PUSH1 0x0 DUP4 MLOAD DUP1 PUSH1 0x40 DUP5 ADD MSTORE PUSH1 0x0 JUMPDEST DUP2 DUP2 LT ISZERO PUSH3 0x2EB JUMPI PUSH1 0x20 DUP2 DUP8 ADD DUP2 ADD MLOAD PUSH1 0x60 DUP7 DUP5 ADD ADD MSTORE ADD PUSH3 0x2CC JUMP JUMPDEST POP PUSH1 0x0 PUSH1 0x60 DUP3 DUP6 ADD DUP2 ADD SWAP2 SWAP1 SWAP2 MSTORE PUSH1 0x1 PUSH1 0x1 PUSH1 0xA0 SHL SUB SWAP5 SWAP1 SWAP5 AND PUSH1 0x20 DUP5 ADD MSTORE PUSH1 0x1F ADD PUSH1 0x1F NOT AND SWAP1 SWAP2 ADD SWAP1 SWAP2 ADD SWAP3 SWAP2 POP POP JUMP JUMPDEST PUSH2 0x2B63 DUP1 PUSH3 0x32D PUSH1 0x0 CODECOPY PUSH1 0x0 RETURN INVALID PUSH1 0x80 PUSH1 0x40 MSTORE CALLVALUE DUP1 ISZERO PUSH3 0x11 JUMPI PUSH1 0x0 DUP1 REVERT JUMPDEST POP PUSH1 0x4 CALLDATASIZE LT PUSH3 0xCA JUMPI PUSH1 0x0 CALLDATALOAD PUSH1 0xE0 SHR DUP1 PUSH4 0x6394C9B EQ PUSH3 0xCF JUMPI DUP1 PUSH4 0xADBDE6C EQ PUSH3 0xE8 JUMPI DUP1 PUSH4 0x2D9090B5 EQ PUSH3 0x117 JUMPI DUP1 PUSH4 0x32C15078 EQ PUSH3 0x121 JUMPI DUP1 PUSH4 0x35A063B4 EQ PUSH3 0x13A JUMPI DUP1 PUSH4 0x35E7CC52 EQ PUSH3 0x144 JUMPI DUP1 PUSH4 0x69652FCF EQ PUSH3 0x15B JUMPI DUP1 PUSH4 0x780B00EB EQ PUSH3 0x165 JUMPI DUP1 PUSH4 0x7C6F75B3 EQ PUSH3 0x178 JUMPI DUP1 PUSH4 0x8716452C EQ PUSH3 0x181 JUMPI DUP1 PUSH4 0x893D20E8 EQ PUSH3 0x198 JUMPI DUP1 PUSH4 0xA1BD00BB EQ PUSH3 0x1C3 JUMPI DUP1 PUSH4 0xA6F9DAE1 EQ PUSH3 0x1DA JUMPI DUP1 PUSH4 0xE7F43C68 EQ PUSH3 0x1F1 JUMPI JUMPDEST PUSH1 0x0 DUP1 REVERT JUMPDEST PUSH3 0xE6 PUSH3 0xE0 CALLDATASIZE PUSH1 0x4 PUSH3 0x209D JUMP JUMPDEST PUSH3 0x203 JUMP JUMPDEST STOP JUMPDEST PUSH3 0xFF PUSH3 0xF9 CALLDATASIZE PUSH1 0x4 PUSH3 0x20C4 JUMP JUMPDEST PUSH3 0x285 JUMP JUMPDEST PUSH1 0x40 MLOAD PUSH3 0x10E SWAP2 SWAP1 PUSH3 0x2240 JUMP JUMPDEST PUSH1 0x40 MLOAD DUP1 SWAP2 SUB SWAP1 RETURN JUMPDEST PUSH3 0xFF PUSH3 0x94A JUMP JUMPDEST PUSH3 0x12B PUSH3 0xFFA JUMP JUMPDEST PUSH1 0x40 MLOAD PUSH3 0x10E SWAP2 SWAP1 PUSH3 0x23C2 JUMP JUMPDEST PUSH3 0xE6 PUSH3 0x105D JUMP JUMPDEST PUSH3 0xE6 PUSH3 0x155 CALLDATASIZE PUSH1 0x4 PUSH3 0x209D JUMP JUMPDEST PUSH3 0x10C9 JUMP JUMPDEST PUSH3 0xE6 PUSH3 0x111C JUMP JUMPDEST PUSH1 0x4 SLOAD JUMPDEST PUSH1 0x40 MLOAD SWAP1 DUP2 MSTORE PUSH1 0x20 ADD PUSH3 0x10E JUMP JUMPDEST PUSH1 0x3 SLOAD PUSH3 0x169 JUMP JUMPDEST PUSH3 0xE6 PUSH3 0x192 CALLDATASIZE PUSH1 0x4 PUSH3 0x20C4 JUMP JUMPDEST PUSH3 0x119A JUMP JUMPDEST PUSH1 0x0 SLOAD PUSH2 0x100 SWAP1 DIV PUSH1 0x1 PUSH1 0x1 PUSH1 0xA0 SHL SUB AND JUMPDEST PUSH1 0x40 MLOAD PUSH1 0x1 PUSH1 0x1 PUSH1 0xA0 SHL SUB SWAP1 SWAP2 AND DUP2 MSTORE PUSH1 0x20 ADD PUSH3 0x10E JUMP JUMPDEST PUSH3 0xFF PUSH3 0x1D4 CALLDATASIZE PUSH1 0x4 PUSH3 0x23FC JUMP JUMPDEST PUSH3 0x124E JUMP JUMPDEST PUSH3 0xE6 PUSH3 0x1EB CALLDATASIZE PUSH1 0x4 PUSH3 0x209D JUMP JUMPDEST PUSH3 0x191D JUMP JUMPDEST PUSH1 0x1 SLOAD PUSH1 0x1 PUSH1 0x1 PUSH1 0xA0 SHL SUB AND PUSH3 0x1AA JUMP JUMPDEST PUSH1 0x1 SLOAD PUSH1 0x1 PUSH1 0x1 PUSH1 0xA0 SHL SUB AND CALLER EQ PUSH3 0x239 JUMPI PUSH1 0x40 MLOAD PUSH3 0x461BCD PUSH1 0xE5 SHL DUP2 MSTORE PUSH1 0x4 ADD PUSH3 0x230 SWAP1 PUSH3 0x242B JUMP JUMPDEST PUSH1 0x40 MLOAD DUP1 SWAP2 SUB SWAP1 REVERT JUMPDEST PUSH1 0x1 DUP1 SLOAD PUSH1 0x1 PUSH1 0x1 PUSH1 0xA0 SHL SUB NOT AND PUSH1 0x1 PUSH1 0x1 PUSH1 0xA0 SHL SUB DUP4 AND SWAP1 DUP2 OR SWAP1 SWAP2 SSTORE PUSH1 0x40 MLOAD DUP2 SWAP1 PUSH32 0x870F2E08A87D4B82C740AAF93F14B864C9151455C6C17E3A2FC9467DF9EC3154 SWAP1 PUSH1 0x0 SWAP1 LOG3 POP JUMP JUMPDEST CALLER PUSH1 0x0 SWAP1 DUP2 MSTORE PUSH1 0x16 PUSH1 0x20 SWAP1 DUP2 MSTORE PUSH1 0x40 DUP1 DUP4 KECCAK256 DUP5 DUP5 MSTORE DUP3 MSTORE DUP1 DUP4 KECCAK256 DUP1 SLOAD DUP3 MLOAD DUP2 DUP6 MUL DUP2 ADD DUP6 ADD SWAP1 SWAP4 MSTORE DUP1 DUP4 MSTORE PUSH1 0x60 SWAP5 SWAP3 SWAP4 SWAP2 SWAP3 SWAP1 SWAP2 DUP5 ADD JUMPDEST DUP3 DUP3 LT ISZERO PUSH3 0x93F JUMPI PUSH1 0x0 DUP5 DUP2 MSTORE PUSH1 0x20 DUP1 DUP3 KECCAK256 PUSH1 0x40 DUP1 MLOAD PUSH1 0xA0 DUP2 ADD DUP3 MSTORE PUSH1 0x5 DUP8 MUL SWAP1 SWAP3 ADD DUP1 SLOAD DUP4 MSTORE DUP2 MLOAD PUSH1 0x1 DUP3 ADD DUP1 SLOAD PUSH1 0x60 DUP2 DUP9 MUL DUP5 ADD DUP2 ADD DUP7 MSTORE SWAP5 DUP4 ADD DUP2 DUP2 MSTORE SWAP6 SWAP8 SWAP4 SWAP7 DUP9 DUP2 ADD SWAP7 SWAP4 SWAP6 SWAP3 SWAP5 DUP7 SWAP5 SWAP2 DUP6 ADD SWAP4 DUP7 SWAP4 DUP6 SWAP4 SWAP3 DUP6 SWAP3 DUP9 ADD JUMPDEST DUP3 DUP3 LT ISZERO PUSH3 0x560 JUMPI PUSH1 0x0 DUP5 DUP2 MSTORE PUSH1 0x20 DUP1 DUP3 KECCAK256 PUSH1 0x40 DUP1 MLOAD SWAP2 DUP7 ADD DUP1 SLOAD DUP1 DUP6 MUL DUP5 ADD DUP4 ADD DUP4 MSTORE SWAP4 DUP4 ADD DUP5 DUP2 MSTORE SWAP3 SWAP5 SWAP1 SWAP4 DUP6 SWAP4 SWAP3 DUP6 SWAP3 SWAP1 DUP6 ADD JUMPDEST DUP3 DUP3 LT ISZERO PUSH3 0x548 JUMPI PUSH1 0x0 DUP5 DUP2 MSTORE PUSH1 0x20 DUP1 DUP3 KECCAK256 PUSH1 0x40 DUP1 MLOAD SWAP2 DUP7 ADD DUP1 SLOAD PUSH1 0x60 DUP2 DUP7 MUL DUP6 ADD DUP2 ADD DUP5 MSTORE SWAP3 DUP5 ADD DUP2 DUP2 MSTORE SWAP4 SWAP6 SWAP2 SWAP5 DUP7 SWAP5 SWAP1 DUP6 ADD SWAP4 DUP7 SWAP4 DUP6 SWAP4 DUP6 SWAP3 SWAP1 SWAP2 SWAP1 DUP9 ADD JUMPDEST DUP3 DUP3 LT ISZERO PUSH3 0x52D JUMPI PUSH1 0x0 DUP5 DUP2 MSTORE PUSH1 0x20 SWAP1 DUP2 SWAP1 KECCAK256 PUSH1 0x40 DUP1 MLOAD PUSH1 0xA0 DUP2 ADD DUP3 MSTORE PUSH1 0x4 DUP7 MUL SWAP1 SWAP3 ADD DUP1 SLOAD DUP4 DUP4 ADD SWAP1 DUP2 MSTORE PUSH1 0x1 DUP3 ADD SLOAD PUSH1 0x1 PUSH1 0x1 PUSH1 0xA0 SHL SUB AND PUSH1 0x60 DUP6 ADD MSTORE PUSH1 0x2 DUP3 ADD DUP1 SLOAD DUP5 MLOAD DUP2 DUP9 MUL DUP2 ADD DUP9 ADD SWAP1 SWAP6 MSTORE DUP1 DUP6 MSTORE SWAP5 SWAP6 SWAP3 SWAP5 DUP7 SWAP5 SWAP3 SWAP4 DUP7 SWAP4 PUSH1 0x80 DUP8 ADD SWAP4 SWAP1 SWAP3 SWAP1 SWAP2 DUP4 ADD DUP3 DUP3 DUP1 ISZERO PUSH3 0x437 JUMPI PUSH1 0x20 MUL DUP3 ADD SWAP2 SWAP1 PUSH1 0x0 MSTORE PUSH1 0x20 PUSH1 0x0 KECCAK256 SWAP1 JUMPDEST DUP2 SLOAD PUSH1 0x1 PUSH1 0x1 PUSH1 0xA0 SHL SUB AND DUP2 MSTORE PUSH1 0x1 SWAP1 SWAP2 ADD SWAP1 PUSH1 0x20 ADD DUP1 DUP4 GT PUSH3 0x418 JUMPI JUMPDEST POP POP POP POP POP DUP2 MSTORE POP POP DUP2 MSTORE PUSH1 0x20 ADD PUSH1 0x3 DUP3 ADD DUP1 SLOAD DUP1 PUSH1 0x20 MUL PUSH1 0x20 ADD PUSH1 0x40 MLOAD SWAP1 DUP2 ADD PUSH1 0x40 MSTORE DUP1 SWAP3 SWAP2 SWAP1 DUP2 DUP2 MSTORE PUSH1 0x20 ADD PUSH1 0x0 SWAP1 JUMPDEST DUP3 DUP3 LT ISZERO PUSH3 0x515 JUMPI PUSH1 0x0 DUP5 DUP2 MSTORE PUSH1 0x20 SWAP1 DUP2 SWAP1 KECCAK256 PUSH1 0x40 DUP1 MLOAD PUSH1 0x60 DUP2 ADD DUP3 MSTORE PUSH1 0x3 DUP7 MUL SWAP1 SWAP3 ADD DUP1 SLOAD DUP4 MSTORE PUSH1 0x1 DUP2 ADD SLOAD PUSH1 0x1 PUSH1 0x1 PUSH1 0xA0 SHL SUB AND DUP4 DUP6 ADD MSTORE PUSH1 0x2 DUP2 ADD DUP1 SLOAD DUP4 MLOAD DUP2 DUP8 MUL DUP2 ADD DUP8 ADD DUP6 MSTORE DUP2 DUP2 MSTORE SWAP5 SWAP6 SWAP3 SWAP5 SWAP4 DUP7 ADD SWAP4 SWAP3 DUP4 ADD DUP3 DUP3 DUP1 ISZERO PUSH3 0x4FC JUMPI PUSH1 0x20 MUL DUP3 ADD SWAP2 SWAP1 PUSH1 0x0 MSTORE PUSH1 0x20 PUSH1 0x0 KECCAK256 SWAP1 JUMPDEST DUP2 SLOAD PUSH1 0x1 PUSH1 0x1 PUSH1 0xA0 SHL SUB AND DUP2 MSTORE PUSH1 0x1 SWAP1 SWAP2 ADD SWAP1 PUSH1 0x20 ADD DUP1 DUP4 GT PUSH3 0x4DD JUMPI JUMPDEST POP POP POP POP POP DUP2 MSTORE POP POP DUP2 MSTORE PUSH1 0x20 ADD SWAP1 PUSH1 0x1 ADD SWAP1 PUSH3 0x469 JUMP JUMPDEST POP POP POP POP DUP2 MSTORE POP POP DUP2 MSTORE PUSH1 0x20 ADD SWAP1 PUSH1 0x1 ADD SWAP1 PUSH3 0x394 JUMP JUMPDEST POP POP POP SWAP2 MSTORE POP POP SWAP1 MSTORE POP DUP2 MSTORE PUSH1 0x1 SWAP1 SWAP2 ADD SWAP1 PUSH1 0x20 ADD PUSH3 0x351 JUMP JUMPDEST POP POP POP POP DUP2 MSTORE POP POP DUP2 MSTORE PUSH1 0x20 ADD SWAP1 PUSH1 0x1 ADD SWAP1 PUSH3 0x319 JUMP JUMPDEST POP POP POP SWAP2 MSTORE POP POP SWAP1 MSTORE POP DUP2 MSTORE PUSH1 0x40 DUP1 MLOAD PUSH1 0x2 DUP5 ADD DUP1 SLOAD PUSH1 0x20 DUP2 DUP2 MUL DUP5 ADD DUP6 ADD DUP6 MSTORE DUP4 DUP2 ADD DUP3 DUP2 MSTORE SWAP6 ADD SWAP5 SWAP3 SWAP4 SWAP2 SWAP3 DUP5 SWAP3 SWAP1 SWAP2 DUP5 SWAP2 PUSH1 0x0 SWAP1 DUP6 ADD JUMPDEST DUP3 DUP3 LT ISZERO PUSH3 0x733 JUMPI PUSH1 0x0 DUP5 DUP2 MSTORE PUSH1 0x20 SWAP1 DUP2 SWAP1 KECCAK256 PUSH1 0x40 DUP1 MLOAD PUSH1 0xA0 DUP2 ADD DUP3 MSTORE PUSH1 0x4 DUP7 MUL SWAP1 SWAP3 ADD DUP1 SLOAD DUP4 DUP4 ADD SWAP1 DUP2 MSTORE PUSH1 0x1 DUP3 ADD SLOAD PUSH1 0x1 PUSH1 0x1 PUSH1 0xA0 SHL SUB AND PUSH1 0x60 DUP6 ADD MSTORE PUSH1 0x2 DUP3 ADD DUP1 SLOAD DUP5 MLOAD DUP2 DUP9 MUL DUP2 ADD DUP9 ADD SWAP1 SWAP6 MSTORE DUP1 DUP6 MSTORE SWAP5 SWAP6 SWAP3 SWAP5 DUP7 SWAP5 SWAP3 SWAP4 DUP7 SWAP4 PUSH1 0x80 DUP8 ADD SWAP4 SWAP1 SWAP3 SWAP1 SWAP2 DUP4 ADD DUP3 DUP3 DUP1 ISZERO PUSH3 0x63D JUMPI PUSH1 0x20 MUL DUP3 ADD SWAP2 SWAP1 PUSH1 0x0 MSTORE PUSH1 0x20 PUSH1 0x0 KECCAK256 SWAP1 JUMPDEST DUP2 SLOAD PUSH1 0x1 PUSH1 0x1 PUSH1 0xA0 SHL SUB AND DUP2 MSTORE PUSH1 0x1 SWAP1 SWAP2 ADD SWAP1 PUSH1 0x20 ADD DUP1 DUP4 GT PUSH3 0x61E JUMPI JUMPDEST POP POP POP POP POP DUP2 MSTORE POP POP DUP2 MSTORE PUSH1 0x20 ADD PUSH1 0x3 DUP3 ADD DUP1 SLOAD DUP1 PUSH1 0x20 MUL PUSH1 0x20 ADD PUSH1 0x40 MLOAD SWAP1 DUP2 ADD PUSH1 0x40 MSTORE DUP1 SWAP3 SWAP2 SWAP1 DUP2 DUP2 MSTORE PUSH1 0x20 ADD PUSH1 0x0 SWAP1 JUMPDEST DUP3 DUP3 LT ISZERO PUSH3 0x71B JUMPI PUSH1 0x0 DUP5 DUP2 MSTORE PUSH1 0x20 SWAP1 DUP2 SWAP1 KECCAK256 PUSH1 0x40 DUP1 MLOAD PUSH1 0x60 DUP2 ADD DUP3 MSTORE PUSH1 0x3 DUP7 MUL SWAP1 SWAP3 ADD DUP1 SLOAD DUP4 MSTORE PUSH1 0x1 DUP2 ADD SLOAD PUSH1 0x1 PUSH1 0x1 PUSH1 0xA0 SHL SUB AND DUP4 DUP6 ADD MSTORE PUSH1 0x2 DUP2 ADD DUP1 SLOAD DUP4 MLOAD DUP2 DUP8 MUL DUP2 ADD DUP8 ADD DUP6 MSTORE DUP2 DUP2 MSTORE SWAP5 SWAP6 SWAP3 SWAP5 SWAP4 DUP7 ADD SWAP4 SWAP3 DUP4 ADD DUP3 DUP3 DUP1 ISZERO PUSH3 0x702 JUMPI PUSH1 0x20 MUL DUP3 ADD SWAP2 SWAP1 PUSH1 0x0 MSTORE PUSH1 0x20 PUSH1 0x0 KECCAK256 SWAP1 JUMPDEST DUP2 SLOAD PUSH1 0x1 PUSH1 0x1 PUSH1 0xA0 SHL SUB AND DUP2 MSTORE PUSH1 0x1 SWAP1 SWAP2 ADD SWAP1 PUSH1 0x20 ADD DUP1 DUP4 GT PUSH3 0x6E3 JUMPI JUMPDEST POP POP POP POP POP DUP2 MSTORE POP POP DUP2 MSTORE PUSH1 0x20 ADD SWAP1 PUSH1 0x1 ADD SWAP1 PUSH3 0x66F JUMP JUMPDEST POP POP POP POP DUP2 MSTORE POP POP DUP2 MSTORE PUSH1 0x20 ADD SWAP1 PUSH1 0x1 ADD SWAP1 PUSH3 0x59A JUMP JUMPDEST POP POP POP SWAP2 MSTORE POP POP DUP2 MSTORE PUSH1 0x40 DUP1 MLOAD PUSH1 0x3 DUP5 ADD DUP1 SLOAD PUSH1 0x60 PUSH1 0x20 DUP3 DUP2 MUL DUP6 ADD DUP3 ADD DUP7 MSTORE SWAP5 DUP5 ADD DUP3 DUP2 MSTORE SWAP6 DUP6 ADD SWAP6 SWAP4 SWAP5 SWAP3 SWAP4 DUP6 SWAP4 DUP5 ADD SWAP3 DUP6 SWAP3 DUP5 SWAP3 SWAP2 DUP5 SWAP2 PUSH1 0x0 SWAP1 DUP9 ADD JUMPDEST DUP3 DUP3 LT ISZERO PUSH3 0x90C JUMPI PUSH1 0x0 DUP5 DUP2 MSTORE PUSH1 0x20 SWAP1 DUP2 SWAP1 KECCAK256 PUSH1 0x40 DUP1 MLOAD PUSH1 0xA0 DUP2 ADD DUP3 MSTORE PUSH1 0x4 DUP7 MUL SWAP1 SWAP3 ADD DUP1 SLOAD DUP4 DUP4 ADD SWAP1 DUP2 MSTORE PUSH1 0x1 DUP3 ADD SLOAD PUSH1 0x1 PUSH1 0x1 PUSH1 0xA0 SHL SUB AND PUSH1 0x60 DUP6 ADD MSTORE PUSH1 0x2 DUP3 ADD DUP1 SLOAD DUP5 MLOAD DUP2 DUP9 MUL DUP2 ADD DUP9 ADD SWAP1 SWAP6 MSTORE DUP1 DUP6 MSTORE SWAP5 SWAP6 SWAP3 SWAP5 DUP7 SWAP5 SWAP3 SWAP4 DUP7 SWAP4 PUSH1 0x80 DUP8 ADD SWAP4 SWAP1 SWAP3 SWAP1 SWAP2 DUP4 ADD DUP3 DUP3 DUP1 ISZERO PUSH3 0x816 JUMPI PUSH1 0x20 MUL DUP3 ADD SWAP2 SWAP1 PUSH1 0x0 MSTORE PUSH1 0x20 PUSH1 0x0 KECCAK256 SWAP1 JUMPDEST DUP2 SLOAD PUSH1 0x1 PUSH1 0x1 PUSH1 0xA0 SHL SUB AND DUP2 MSTORE PUSH1 0x1 SWAP1 SWAP2 ADD SWAP1 PUSH1 0x20 ADD DUP1 DUP4 GT PUSH3 0x7F7 JUMPI JUMPDEST POP POP POP POP POP DUP2 MSTORE POP POP DUP2 MSTORE PUSH1 0x20 ADD PUSH1 0x3 DUP3 ADD DUP1 SLOAD DUP1 PUSH1 0x20 MUL PUSH1 0x20 ADD PUSH1 0x40 MLOAD SWAP1 DUP2 ADD PUSH1 0x40 MSTORE DUP1 SWAP3 SWAP2 SWAP1 DUP2 DUP2 MSTORE PUSH1 0x20 ADD PUSH1 0x0 SWAP1 JUMPDEST DUP3 DUP3 LT ISZERO PUSH3 0x8F4 JUMPI PUSH1 0x0 DUP5 DUP2 MSTORE PUSH1 0x20 SWAP1 DUP2 SWAP1 KECCAK256 PUSH1 0x40 DUP1 MLOAD PUSH1 0x60 DUP2 ADD DUP3 MSTORE PUSH1 0x3 DUP7 MUL SWAP1 SWAP3 ADD DUP1 SLOAD DUP4 MSTORE PUSH1 0x1 DUP2 ADD SLOAD PUSH1 0x1 PUSH1 0x1 PUSH1 0xA0 SHL SUB AND DUP4 DUP6 ADD MSTORE PUSH1 0x2 DUP2 ADD DUP1 SLOAD DUP4 MLOAD DUP2 DUP8 MUL DUP2 ADD DUP8 ADD DUP6 MSTORE DUP2 DUP2 MSTORE SWAP5 SWAP6 SWAP3 SWAP5 SWAP4 DUP7 ADD SWAP4 SWAP3 DUP4 ADD DUP3 DUP3 DUP1 ISZERO PUSH3 0x8DB JUMPI PUSH1 0x20 MUL DUP3 ADD SWAP2 SWAP1 PUSH1 0x0 MSTORE PUSH1 0x20 PUSH1 0x0 KECCAK256 SWAP1 JUMPDEST DUP2 SLOAD PUSH1 0x1 PUSH1 0x1 PUSH1 0xA0 SHL SUB AND DUP2 MSTORE PUSH1 0x1 SWAP1 SWAP2 ADD SWAP1 PUSH1 0x20 ADD DUP1 DUP4 GT PUSH3 0x8BC JUMPI JUMPDEST POP POP POP POP POP DUP2 MSTORE POP POP DUP2 MSTORE PUSH1 0x20 ADD SWAP1 PUSH1 0x1 ADD SWAP1 PUSH3 0x848 JUMP JUMPDEST POP POP POP POP DUP2 MSTORE POP POP DUP2 MSTORE PUSH1 0x20 ADD SWAP1 PUSH1 0x1 ADD SWAP1 PUSH3 0x773 JUMP JUMPDEST POP POP POP SWAP2 MSTORE POP POP SWAP1 MSTORE POP DUP2 MSTORE PUSH1 0x4 SWAP2 SWAP1 SWAP2 ADD SLOAD PUSH1 0x1 PUSH1 0x1 PUSH1 0xA0 SHL SUB AND PUSH1 0x20 SWAP2 DUP3 ADD MSTORE SWAP1 DUP3 MSTORE PUSH1 0x1 SWAP3 SWAP1 SWAP3 ADD SWAP2 ADD PUSH3 0x2BC JUMP JUMPDEST POP POP POP POP SWAP1 POP SWAP2 SWAP1 POP JUMP JUMPDEST PUSH1 0x60 PUSH1 0x10 DUP1 SLOAD DUP1 PUSH1 0x20 MUL PUSH1 0x20 ADD PUSH1 0x40 MLOAD SWAP1 DUP2 ADD PUSH1 0x40 MSTORE DUP1 SWAP3 SWAP2 SWAP1 DUP2 DUP2 MSTORE PUSH1 0x20 ADD PUSH1 0x0 SWAP1 JUMPDEST DUP3 DUP3 LT ISZERO PUSH3 0xFF1 JUMPI PUSH1 0x0 DUP5 DUP2 MSTORE PUSH1 0x20 DUP1 DUP3 KECCAK256 PUSH1 0x40 DUP1 MLOAD PUSH1 0xA0 DUP2 ADD DUP3 MSTORE PUSH1 0x5 DUP8 MUL SWAP1 SWAP3 ADD DUP1 SLOAD DUP4 MSTORE DUP2 MLOAD PUSH1 0x1 DUP3 ADD DUP1 SLOAD PUSH1 0x60 DUP2 DUP9 MUL DUP5 ADD DUP2 ADD DUP7 MSTORE SWAP5 DUP4 ADD DUP2 DUP2 MSTORE SWAP6 SWAP8 SWAP4 SWAP7 DUP9 DUP2 ADD SWAP7 SWAP4 SWAP6 SWAP3 SWAP5 DUP7 SWAP5 SWAP2 DUP6 ADD SWAP4 DUP7 SWAP4 DUP6 SWAP4 SWAP3 DUP6 SWAP3 DUP9 ADD JUMPDEST DUP3 DUP3 LT ISZERO PUSH3 0xC12 JUMPI PUSH1 0x0 DUP5 DUP2 MSTORE PUSH1 0x20 DUP1 DUP3 KECCAK256 PUSH1 0x40 DUP1 MLOAD SWAP2 DUP7 ADD DUP1 SLOAD DUP1 DUP6 MUL DUP5 ADD DUP4 ADD DUP4 MSTORE SWAP4 DUP4 ADD DUP5 DUP2 MSTORE SWAP3 SWAP5 SWAP1 SWAP4 DUP6 SWAP4 SWAP3 DUP6 SWAP3 SWAP1 DUP6 ADD JUMPDEST DUP3 DUP3 LT ISZERO PUSH3 0xBFA JUMPI PUSH1 0x0 DUP5 DUP2 MSTORE PUSH1 0x20 DUP1 DUP3 KECCAK256 PUSH1 0x40 DUP1 MLOAD SWAP2 DUP7 ADD DUP1 SLOAD PUSH1 0x60 DUP2 DUP7 MUL DUP6 ADD DUP2 ADD DUP5 MSTORE SWAP3 DUP5 ADD DUP2 DUP2 MSTORE SWAP4 SWAP6 SWAP2 SWAP5 DUP7 SWAP5 SWAP1 DUP6 ADD SWAP4 DUP7 SWAP4 DUP6 SWAP4 DUP6 SWAP3 SWAP1 SWAP2 SWAP1 DUP9 ADD JUMPDEST DUP3 DUP3 LT ISZERO PUSH3 0xBDF JUMPI PUSH1 0x0 DUP5 DUP2 MSTORE PUSH1 0x20 SWAP1 DUP2 SWAP1 KECCAK256 PUSH1 0x40 DUP1 MLOAD PUSH1 0xA0 DUP2 ADD DUP3 MSTORE PUSH1 0x4 DUP7 MUL SWAP1 SWAP3 ADD DUP1 SLOAD DUP4 DUP4 ADD SWAP1 DUP2 MSTORE PUSH1 0x1 DUP3 ADD SLOAD PUSH1 0x1 PUSH1 0x1 PUSH1 0xA0 SHL SUB AND PUSH1 0x60 DUP6 ADD MSTORE PUSH1 0x2 DUP3 ADD DUP1 SLOAD DUP5 MLOAD DUP2 DUP9 MUL DUP2 ADD DUP9 ADD SWAP1 SWAP6 MSTORE DUP1 DUP6 MSTORE SWAP5 SWAP6 SWAP3 SWAP5 DUP7 SWAP5 SWAP3 SWAP4 DUP7 SWAP4 PUSH1 0x80 DUP8 ADD SWAP4 SWAP1 SWAP3 SWAP1 SWAP2 DUP4 ADD DUP3 DUP3 DUP1 ISZERO PUSH3 0xAE9 JUMPI PUSH1 0x20 MUL DUP3 ADD SWAP2 SWAP1 PUSH1 0x0 MSTORE PUSH1 0x20 PUSH1 0x0 KECCAK256 SWAP1 JUMPDEST DUP2 SLOAD PUSH1 0x1 PUSH1 0x1 PUSH1 0xA0 SHL SUB AND DUP2 MSTORE PUSH1 0x1 SWAP1 SWAP2 ADD SWAP1 PUSH1 0x20 ADD DUP1 DUP4 GT PUSH3 0xACA JUMPI JUMPDEST POP POP POP POP POP DUP2 MSTORE POP POP DUP2 MSTORE PUSH1 0x20 ADD PUSH1 0x3 DUP3 ADD DUP1 SLOAD DUP1 PUSH1 0x20 MUL PUSH1 0x20 ADD PUSH1 0x40 MLOAD SWAP1 DUP2 ADD PUSH1 0x40 MSTORE DUP1 SWAP3 SWAP2 SWAP1 DUP2 DUP2 MSTORE PUSH1 0x20 ADD PUSH1 0x0 SWAP1 JUMPDEST DUP3 DUP3 LT ISZERO PUSH3 0xBC7 JUMPI PUSH1 0x0 DUP5 DUP2 MSTORE PUSH1 0x20 SWAP1 DUP2 SWAP1 KECCAK256 PUSH1 0x40 DUP1 MLOAD PUSH1 0x60 DUP2 ADD DUP3 MSTORE PUSH1 0x3 DUP7 MUL SWAP1 SWAP3 ADD DUP1 SLOAD DUP4 MSTORE PUSH1 0x1 DUP2 ADD SLOAD PUSH1 0x1 PUSH1 0x1 PUSH1 0xA0 SHL SUB AND DUP4 DUP6 ADD MSTORE PUSH1 0x2 DUP2 ADD DUP1 SLOAD DUP4 MLOAD DUP2 DUP8 MUL DUP2 ADD DUP8 ADD DUP6 MSTORE DUP2 DUP2 MSTORE SWAP5 SWAP6 SWAP3 SWAP5 SWAP4 DUP7 ADD SWAP4 SWAP3 DUP4 ADD DUP3 DUP3 DUP1 ISZERO PUSH3 0xBAE JUMPI PUSH1 0x20 MUL DUP3 ADD SWAP2 SWAP1 PUSH1 0x0 MSTORE PUSH1 0x20 PUSH1 0x0 KECCAK256 SWAP1 JUMPDEST DUP2 SLOAD PUSH1 0x1 PUSH1 0x1 PUSH1 0xA0 SHL SUB AND DUP2 MSTORE PUSH1 0x1 SWAP1 SWAP2 ADD SWAP1 PUSH1 0x20 ADD DUP1 DUP4 GT PUSH3 0xB8F JUMPI JUMPDEST POP POP POP POP POP DUP2 MSTORE POP POP DUP2 MSTORE PUSH1 0x20 ADD SWAP1 PUSH1 0x1 ADD SWAP1 PUSH3 0xB1B JUMP JUMPDEST POP POP POP POP DUP2 MSTORE POP POP DUP2 MSTORE PUSH1 0x20 ADD SWAP1 PUSH1 0x1 ADD SWAP1 PUSH3 0xA46 JUMP JUMPDEST POP POP POP SWAP2 MSTORE POP POP SWAP1 MSTORE POP DUP2 MSTORE PUSH1 0x1 SWAP1 SWAP2 ADD SWAP1 PUSH1 0x20 ADD PUSH3 0xA03 JUMP JUMPDEST POP POP POP POP DUP2 MSTORE POP POP DUP2 MSTORE PUSH1 0x20 ADD SWAP1 PUSH1 0x1 ADD SWAP1 PUSH3 0x9CB JUMP JUMPDEST POP POP POP SWAP2 MSTORE POP POP SWAP1 MSTORE POP DUP2 MSTORE PUSH1 0x40 DUP1 MLOAD PUSH1 0x2 DUP5 ADD DUP1 SLOAD PUSH1 0x20 DUP2 DUP2 MUL DUP5 ADD DUP6 ADD DUP6 MSTORE DUP4 DUP2 ADD DUP3 DUP2 MSTORE SWAP6 ADD SWAP5 SWAP3 SWAP4 SWAP2 SWAP3 DUP5 SWAP3 SWAP1 SWAP2 DUP5 SWAP2 PUSH1 0x0 SWAP1 DUP6 ADD JUMPDEST DUP3 DUP3 LT ISZERO PUSH3 0xDE5 JUMPI PUSH1 0x0 DUP5 DUP2 MSTORE PUSH1 0x20 SWAP1 DUP2 SWAP1 KECCAK256 PUSH1 0x40 DUP1 MLOAD PUSH1 0xA0 DUP2 ADD DUP3 MSTORE PUSH1 0x4 DUP7 MUL SWAP1 SWAP3 ADD DUP1 SLOAD DUP4 DUP4 ADD SWAP1 DUP2 MSTORE PUSH1 0x1 DUP3 ADD SLOAD PUSH1 0x1 PUSH1 0x1 PUSH1 0xA0 SHL SUB AND PUSH1 0x60 DUP6 ADD MSTORE PUSH1 0x2 DUP3 ADD DUP1 SLOAD DUP5 MLOAD DUP2 DUP9 MUL DUP2 ADD DUP9 ADD SWAP1 SWAP6 MSTORE DUP1 DUP6 MSTORE SWAP5 SWAP6 SWAP3 SWAP5 DUP7 SWAP5 SWAP3 SWAP4 DUP7 SWAP4 PUSH1 0x80 DUP8 ADD SWAP4 SWAP1 SWAP3 SWAP1 SWAP2 DUP4 ADD DUP3 DUP3 DUP1 ISZERO PUSH3 0xCEF JUMPI PUSH1 0x20 MUL DUP3 ADD SWAP2 SWAP1 PUSH1 0x0 MSTORE PUSH1 0x20 PUSH1 0x0 KECCAK256 SWAP1 JUMPDEST DUP2 SLOAD PUSH1 0x1 PUSH1 0x1 PUSH1 0xA0 SHL SUB AND DUP2 MSTORE PUSH1 0x1 SWAP1 SWAP2 ADD SWAP1 PUSH1 0x20 ADD DUP1 DUP4 GT PUSH3 0xCD0 JUMPI JUMPDEST POP POP POP POP POP DUP2 MSTORE POP POP DUP2 MSTORE PUSH1 0x20 ADD PUSH1 0x3 DUP3 ADD DUP1 SLOAD DUP1 PUSH1 0x20 MUL PUSH1 0x20 ADD PUSH1 0x40 MLOAD SWAP1 DUP2 ADD PUSH1 0x40 MSTORE DUP1 SWAP3 SWAP2 SWAP1 DUP2 DUP2 MSTORE PUSH1 0x20 ADD PUSH1 0x0 SWAP1 JUMPDEST DUP3 DUP3 LT ISZERO PUSH3 0xDCD JUMPI PUSH1 0x0 DUP5 DUP2 MSTORE PUSH1 0x20 SWAP1 DUP2 SWAP1 KECCAK256 PUSH1 0x40 DUP1 MLOAD PUSH1 0x60 DUP2 ADD DUP3 MSTORE PUSH1 0x3 DUP7 MUL SWAP1 SWAP3 ADD DUP1 SLOAD DUP4 MSTORE PUSH1 0x1 DUP2 ADD SLOAD PUSH1 0x1 PUSH1 0x1 PUSH1 0xA0 SHL SUB AND DUP4 DUP6 ADD MSTORE PUSH1 0x2 DUP2 ADD DUP1 SLOAD DUP4 MLOAD DUP2 DUP8 MUL DUP2 ADD DUP8 ADD DUP6 MSTORE DUP2 DUP2 MSTORE SWAP5 SWAP6 SWAP3 SWAP5 SWAP4 DUP7 ADD SWAP4 SWAP3 DUP4 ADD DUP3 DUP3 DUP1 ISZERO PUSH3 0xDB4 JUMPI PUSH1 0x20 MUL DUP3 ADD SWAP2 SWAP1 PUSH1 0x0 MSTORE PUSH1 0x20 PUSH1 0x0 KECCAK256 SWAP1 JUMPDEST DUP2 SLOAD PUSH1 0x1 PUSH1 0x1 PUSH1 0xA0 SHL SUB AND DUP2 MSTORE PUSH1 0x1 SWAP1 SWAP2 ADD SWAP1 PUSH1 0x20 ADD DUP1 DUP4 GT PUSH3 0xD95 JUMPI JUMPDEST POP POP POP POP POP DUP2 MSTORE POP POP DUP2 MSTORE PUSH1 0x20 ADD SWAP1 PUSH1 0x1 ADD SWAP1 PUSH3 0xD21 JUMP JUMPDEST POP POP POP POP DUP2 MSTORE POP POP DUP2 MSTORE PUSH1 0x20 ADD SWAP1 PUSH1 0x1 ADD SWAP1 PUSH3 0xC4C JUMP JUMPDEST POP POP POP SWAP2 MSTORE POP POP DUP2 MSTORE PUSH1 0x40 DUP1 MLOAD PUSH1 0x3 DUP5 ADD DUP1 SLOAD PUSH1 0x60 PUSH1 0x20 DUP3 DUP2 MUL DUP6 ADD DUP3 ADD DUP7 MSTORE SWAP5 DUP5 ADD DUP3 DUP2 MSTORE SWAP6 DUP6 ADD SWAP6 SWAP4 SWAP5 SWAP3 SWAP4 DUP6 SWAP4 DUP5 ADD SWAP3 DUP6 SWAP3 DUP5 SWAP3 SWAP2 DUP5 SWAP2 PUSH1 0x0 SWAP1 DUP9 ADD JUMPDEST DUP3 DUP3 LT ISZERO PUSH3 0xFBE JUMPI PUSH1 0x0 DUP5 DUP2 MSTORE PUSH1 0x20 SWAP1 DUP2 SWAP1 KECCAK256 PUSH1 0x40 DUP1 MLOAD PUSH1 0xA0 DUP2 ADD DUP3 MSTORE PUSH1 0x4 DUP7 MUL SWAP1 SWAP3 ADD DUP1 SLOAD DUP4 DUP4 ADD SWAP1 DUP2 MSTORE PUSH1 0x1 DUP3 ADD SLOAD PUSH1 0x1 PUSH1 0x1 PUSH1 0xA0 SHL SUB AND PUSH1 0x60 DUP6 ADD MSTORE PUSH1 0x2 DUP3 ADD DUP1 SLOAD DUP5 MLOAD DUP2 DUP9 MUL DUP2 ADD DUP9 ADD SWAP1 SWAP6 MSTORE DUP1 DUP6 MSTORE SWAP5 SWAP6 SWAP3 SWAP5 DUP7 SWAP5 SWAP3 SWAP4 DUP7 SWAP4 PUSH1 0x80 DUP8 ADD SWAP4 SWAP1 SWAP3 SWAP1 SWAP2 DUP4 ADD DUP3 DUP3 DUP1 ISZERO PUSH3 0xEC8 JUMPI PUSH1 0x20 MUL DUP3 ADD SWAP2 SWAP1 PUSH1 0x0 MSTORE PUSH1 0x20 PUSH1 0x0 KECCAK256 SWAP1 JUMPDEST DUP2 SLOAD PUSH1 0x1 PUSH1 0x1 PUSH1 0xA0 SHL SUB AND DUP2 MSTORE PUSH1 0x1 SWAP1 SWAP2 ADD SWAP1 PUSH1 0x20 ADD DUP1 DUP4 GT PUSH3 0xEA9 JUMPI JUMPDEST POP POP POP POP POP DUP2 MSTORE POP POP DUP2 MSTORE PUSH1 0x20 ADD PUSH1 0x3 DUP3 ADD DUP1 SLOAD DUP1 PUSH1 0x20 MUL PUSH1 0x20 ADD PUSH1 0x40 MLOAD SWAP1 DUP2 ADD PUSH1 0x40 MSTORE DUP1 SWAP3 SWAP2 SWAP1 DUP2 DUP2 MSTORE PUSH1 0x20 ADD PUSH1 0x0 SWAP1 JUMPDEST DUP3 DUP3 LT ISZERO PUSH3 0xFA6 JUMPI PUSH1 0x0 DUP5 DUP2 MSTORE PUSH1 0x20 SWAP1 DUP2 SWAP1 KECCAK256 PUSH1 0x40 DUP1 MLOAD PUSH1 0x60 DUP2 ADD DUP3 MSTORE PUSH1 0x3 DUP7 MUL SWAP1 SWAP3 ADD DUP1 SLOAD DUP4 MSTORE PUSH1 0x1 DUP2 ADD SLOAD PUSH1 0x1 PUSH1 0x1 PUSH1 0xA0 SHL SUB AND DUP4 DUP6 ADD MSTORE PUSH1 0x2 DUP2 ADD DUP1 SLOAD DUP4 MLOAD DUP2 DUP8 MUL DUP2 ADD DUP8 ADD DUP6 MSTORE DUP2 DUP2 MSTORE SWAP5 SWAP6 SWAP3 SWAP5 SWAP4 DUP7 ADD SWAP4 SWAP3 DUP4 ADD DUP3 DUP3 DUP1 ISZERO PUSH3 0xF8D JUMPI PUSH1 0x20 MUL DUP3 ADD SWAP2 SWAP1 PUSH1 0x0 MSTORE PUSH1 0x20 PUSH1 0x0 KECCAK256 SWAP1 JUMPDEST DUP2 SLOAD PUSH1 0x1 PUSH1 0x1 PUSH1 0xA0 SHL SUB AND DUP2 MSTORE PUSH1 0x1 SWAP1 SWAP2 ADD SWAP1 PUSH1 0x20 ADD DUP1 DUP4 GT PUSH3 0xF6E JUMPI JUMPDEST POP POP POP POP POP DUP2 MSTORE POP POP DUP2 MSTORE PUSH1 0x20 ADD SWAP1 PUSH1 0x1 ADD SWAP1 PUSH3 0xEFA JUMP JUMPDEST POP POP POP POP DUP2 MSTORE POP POP DUP2 MSTORE PUSH1 0x20 ADD SWAP1 PUSH1 0x1 ADD SWAP1 PUSH3 0xE25 JUMP JUMPDEST POP POP POP SWAP2 MSTORE POP POP SWAP1 MSTORE POP DUP2 MSTORE PUSH1 0x4 SWAP2 SWAP1 SWAP2 ADD SLOAD PUSH1 0x1 PUSH1 0x1 PUSH1 0xA0 SHL SUB AND PUSH1 0x20 SWAP2 DUP3 ADD MSTORE SWAP1 DUP3 MSTORE PUSH1 0x1 SWAP3 SWAP1 SWAP3 ADD SWAP2 ADD PUSH3 0x96E JUMP JUMPDEST POP POP POP POP SWAP1 POP SWAP1 JUMP JUMPDEST CALLER PUSH1 0x0 SWAP1 DUP2 MSTORE PUSH1 0x17 PUSH1 0x20 SWAP1 DUP2 MSTORE PUSH1 0x40 SWAP2 DUP3 SWAP1 KECCAK256 DUP1 SLOAD DUP4 MLOAD DUP2 DUP5 MUL DUP2 ADD DUP5 ADD SWAP1 SWAP5 MSTORE DUP1 DUP5 MSTORE PUSH1 0x60 SWAP4 SWAP3 DUP4 ADD DUP3 DUP3 DUP1 ISZERO PUSH3 0x1053 JUMPI PUSH1 0x20 MUL DUP3 ADD SWAP2 SWAP1 PUSH1 0x0 MSTORE PUSH1 0x20 PUSH1 0x0 KECCAK256 SWAP1 JUMPDEST DUP2 SLOAD DUP2 MSTORE PUSH1 0x20 ADD SWAP1 PUSH1 0x1 ADD SWAP1 DUP1 DUP4 GT PUSH3 0x103E JUMPI JUMPDEST POP POP POP POP POP SWAP1 POP SWAP1 JUMP JUMPDEST PUSH1 0x1 SLOAD PUSH1 0x1 PUSH1 0x1 PUSH1 0xA0 SHL SUB AND CALLER EQ PUSH3 0x108A JUMPI PUSH1 0x40 MLOAD PUSH3 0x461BCD PUSH1 0xE5 SHL DUP2 MSTORE PUSH1 0x4 ADD PUSH3 0x230 SWAP1 PUSH3 0x242B JUMP JUMPDEST PUSH1 0x1 DUP1 SLOAD PUSH1 0x1 PUSH1 0x1 PUSH1 0xA0 SHL SUB NOT AND SWAP1 SSTORE PUSH1 0x40 MLOAD PUSH1 0x0 SWAP1 DUP2 SWAP1 PUSH32 0x870F2E08A87D4B82C740AAF93F14B864C9151455C6C17E3A2FC9467DF9EC3154 SWAP1 DUP3 SWAP1 LOG3 JUMP JUMPDEST PUSH1 0x0 SLOAD PUSH2 0x100 SWAP1 DIV PUSH1 0x1 PUSH1 0x1 PUSH1 0xA0 SHL SUB AND CALLER EQ PUSH3 0x10FB JUMPI PUSH1 0x40 MLOAD PUSH3 0x461BCD PUSH1 0xE5 SHL DUP2 MSTORE PUSH1 0x4 ADD PUSH3 0x230 SWAP1 PUSH3 0x245B JUMP JUMPDEST PUSH1 0x1 PUSH1 0x1 PUSH1 0xA0 SHL SUB AND PUSH1 0x0 SWAP1 DUP2 MSTORE PUSH1 0x15 PUSH1 0x20 MSTORE PUSH1 0x40 SWAP1 KECCAK256 DUP1 SLOAD PUSH1 0xFF NOT AND SWAP1 SSTORE JUMP JUMPDEST PUSH1 0x0 SLOAD PUSH2 0x100 SWAP1 DIV PUSH1 0x1 PUSH1 0x1 PUSH1 0xA0 SHL SUB AND CALLER EQ PUSH3 0x114E JUMPI PUSH1 0x40 MLOAD PUSH3 0x461BCD PUSH1 0xE5 SHL DUP2 MSTORE PUSH1 0x4 ADD PUSH3 0x230 SWAP1 PUSH3 0x245B JUMP JUMPDEST PUSH1 0x0 DUP1 SLOAD PUSH2 0x100 PUSH1 0x1 PUSH1 0xA8 SHL SUB NOT AND DUP1 DUP3 SSTORE PUSH1 0x40 MLOAD PUSH2 0x100 SWAP1 SWAP2 DIV PUSH1 0x1 PUSH1 0x1 PUSH1 0xA0 SHL SUB AND SWAP1 PUSH32 0x342827C97908E5E2F71151C08502A66D44B6F758E3AC2F1DE95F02EB95F0A735 SWAP1 DUP4 SWAP1 LOG3 JUMP JUMPDEST PUSH1 0x0 JUMPDEST DUP2 DUP2 LT ISZERO PUSH3 0x124A JUMPI PUSH3 0x11B3 PUSH1 0x1 DUP4 PUSH3 0x249E JUMP JUMPDEST DUP2 LT PUSH3 0x124A JUMPI CALLER PUSH1 0x0 SWAP1 DUP2 MSTORE PUSH1 0x13 PUSH1 0x20 MSTORE PUSH1 0x40 SWAP1 KECCAK256 SLOAD PUSH1 0xFF AND ISZERO ISZERO PUSH1 0x1 EQ PUSH3 0x11F1 JUMPI PUSH3 0x11F1 PUSH1 0x3 SLOAD PUSH1 0x1 PUSH3 0x11EC SWAP2 SWAP1 PUSH3 0x24BA JUMP JUMPDEST PUSH1 0x3 SSTORE JUMP JUMPDEST PUSH3 0x120B PUSH1 0x4 SLOAD PUSH1 0x1 PUSH3 0x1206 SWAP2 SWAP1 PUSH3 0x24BA JUMP JUMPDEST PUSH1 0x4 SSTORE JUMP JUMPDEST PUSH1 0x5 SLOAD PUSH1 0x0 SWAP1 PUSH3 0x1227 SWAP1 CALLER SWAP1 PUSH1 0x1 PUSH1 0x1 PUSH1 0xA0 SHL SUB AND PUSH3 0x19A7 JUMP JUMPDEST SWAP1 POP PUSH3 0x1234 DUP2 PUSH3 0x19F5 JUMP JUMPDEST DUP2 PUSH3 0x1240 DUP2 PUSH3 0x24D0 JUMP JUMPDEST SWAP3 POP POP POP PUSH3 0x119D JUMP JUMPDEST POP POP JUMP JUMPDEST PUSH1 0x1 PUSH1 0x1 PUSH1 0xA0 SHL SUB DUP3 AND PUSH1 0x0 SWAP1 DUP2 MSTORE PUSH1 0x16 PUSH1 0x20 SWAP1 DUP2 MSTORE PUSH1 0x40 DUP1 DUP4 KECCAK256 DUP5 DUP5 MSTORE DUP3 MSTORE DUP1 DUP4 KECCAK256 DUP1 SLOAD DUP3 MLOAD DUP2 DUP6 MUL DUP2 ADD DUP6 ADD SWAP1 SWAP4 MSTORE DUP1 DUP4 MSTORE PUSH1 0x60 SWAP5 SWAP3 SWAP4 SWAP2 SWAP3 SWAP1 SWAP2 DUP5 ADD JUMPDEST DUP3 DUP3 LT ISZERO PUSH3 0x1911 JUMPI PUSH1 0x0 DUP5 DUP2 MSTORE PUSH1 0x20 DUP1 DUP3 KECCAK256 PUSH1 0x40 DUP1 MLOAD PUSH1 0xA0 DUP2 ADD DUP3 MSTORE PUSH1 0x5 DUP8 MUL SWAP1 SWAP3 ADD DUP1 SLOAD DUP4 MSTORE DUP2 MLOAD PUSH1 0x1 DUP3 ADD DUP1 SLOAD PUSH1 0x60 DUP2 DUP9 MUL DUP5 ADD DUP2 ADD DUP7 MSTORE SWAP5 DUP4 ADD DUP2 DUP2 MSTORE SWAP6 SWAP8 SWAP4 SWAP7 DUP9 DUP2 ADD SWAP7 SWAP4 SWAP6 SWAP3 SWAP5 DUP7 SWAP5 SWAP2 DUP6 ADD SWAP4 DUP7 SWAP4 DUP6 SWAP4 SWAP3 DUP6 SWAP3 DUP9 ADD JUMPDEST DUP3 DUP3 LT ISZERO PUSH3 0x1532 JUMPI PUSH1 0x0 DUP5 DUP2 MSTORE PUSH1 0x20 DUP1 DUP3 KECCAK256 PUSH1 0x40 DUP1 MLOAD SWAP2 DUP7 ADD DUP1 SLOAD DUP1 DUP6 MUL DUP5 ADD DUP4 ADD DUP4 MSTORE SWAP4 DUP4 ADD DUP5 DUP2 MSTORE SWAP3 SWAP5 SWAP1 SWAP4 DUP6 SWAP4 SWAP3 DUP6 SWAP3 SWAP1 DUP6 ADD JUMPDEST DUP3 DUP3 LT ISZERO PUSH3 0x151A JUMPI PUSH1 0x0 DUP5 DUP2 MSTORE PUSH1 0x20 DUP1 DUP3 KECCAK256 PUSH1 0x40 DUP1 MLOAD SWAP2 DUP7 ADD DUP1 SLOAD PUSH1 0x60 DUP2 DUP7 MUL DUP6 ADD DUP2 ADD DUP5 MSTORE SWAP3 DUP5 ADD DUP2 DUP2 MSTORE SWAP4 SWAP6 SWAP2 SWAP5 DUP7 SWAP5 SWAP1 DUP6 ADD SWAP4 DUP7 SWAP4 DUP6 SWAP4 DUP6 SWAP3 SWAP1 SWAP2 SWAP1 DUP9 ADD JUMPDEST DUP3 DUP3 LT ISZERO PUSH3 0x14FF JUMPI PUSH1 0x0 DUP5 DUP2 MSTORE PUSH1 0x20 SWAP1 DUP2 SWAP1 KECCAK256 PUSH1 0x40 DUP1 MLOAD PUSH1 0xA0 DUP2 ADD DUP3 MSTORE PUSH1 0x4 DUP7 MUL SWAP1 SWAP3 ADD DUP1 SLOAD DUP4 DUP4 ADD SWAP1 DUP2 MSTORE PUSH1 0x1 DUP3 ADD SLOAD PUSH1 0x1 PUSH1 0x1 PUSH1 0xA0 SHL SUB AND PUSH1 0x60 DUP6 ADD MSTORE PUSH1 0x2 DUP3 ADD DUP1 SLOAD DUP5 MLOAD DUP2 DUP9 MUL DUP2 ADD DUP9 ADD SWAP1 SWAP6 MSTORE DUP1 DUP6 MSTORE SWAP5 SWAP6 SWAP3 SWAP5 DUP7 SWAP5 SWAP3 SWAP4 DUP7 SWAP4 PUSH1 0x80 DUP8 ADD SWAP4 SWAP1 SWAP3 SWAP1 SWAP2 DUP4 ADD DUP3 DUP3 DUP1 ISZERO PUSH3 0x1409 JUMPI PUSH1 0x20 MUL DUP3 ADD SWAP2 SWAP1 PUSH1 0x0 MSTORE PUSH1 0x20 PUSH1 0x0 KECCAK256 SWAP1 JUMPDEST DUP2 SLOAD PUSH1 0x1 PUSH1 0x1 PUSH1 0xA0 SHL SUB AND DUP2 MSTORE PUSH1 0x1 SWAP1 SWAP2 ADD SWAP1 PUSH1 0x20 ADD DUP1 DUP4 GT PUSH3 0x13EA JUMPI JUMPDEST POP POP POP POP POP DUP2 MSTORE POP POP DUP2 MSTORE PUSH1 0x20 ADD PUSH1 0x3 DUP3 ADD DUP1 SLOAD DUP1 PUSH1 0x20 MUL PUSH1 0x20 ADD PUSH1 0x40 MLOAD SWAP1 DUP2 ADD PUSH1 0x40 MSTORE DUP1 SWAP3 SWAP2 SWAP1 DUP2 DUP2 MSTORE PUSH1 0x20 ADD PUSH1 0x0 SWAP1 JUMPDEST DUP3 DUP3 LT ISZERO PUSH3 0x14E7 JUMPI PUSH1 0x0 DUP5 DUP2 MSTORE PUSH1 0x20 SWAP1 DUP2 SWAP1 KECCAK256 PUSH1 0x40 DUP1 MLOAD PUSH1 0x60 DUP2 ADD DUP3 MSTORE PUSH1 0x3 DUP7 MUL SWAP1 SWAP3 ADD DUP1 SLOAD DUP4 MSTORE PUSH1 0x1 DUP2 ADD SLOAD PUSH1 0x1 PUSH1 0x1 PUSH1 0xA0 SHL SUB AND DUP4 DUP6 ADD MSTORE PUSH1 0x2 DUP2 ADD DUP1 SLOAD DUP4 MLOAD DUP2 DUP8 MUL DUP2 ADD DUP8 ADD DUP6 MSTORE DUP2 DUP2 MSTORE SWAP5 SWAP6 SWAP3 SWAP5 SWAP4 DUP7 ADD SWAP4 SWAP3 DUP4 ADD DUP3 DUP3 DUP1 ISZERO PUSH3 0x14CE JUMPI PUSH1 0x20 MUL DUP3 ADD SWAP2 SWAP1 PUSH1 0x0 MSTORE PUSH1 0x20 PUSH1 0x0 KECCAK256 SWAP1 JUMPDEST DUP2 SLOAD PUSH1 0x1 PUSH1 0x1 PUSH1 0xA0 SHL SUB AND DUP2 MSTORE PUSH1 0x1 SWAP1 SWAP2 ADD SWAP1 PUSH1 0x20 ADD DUP1 DUP4 GT PUSH3 0x14AF JUMPI JUMPDEST POP POP POP POP POP DUP2 MSTORE POP POP DUP2 MSTORE PUSH1 0x20 ADD SWAP1 PUSH1 0x1 ADD SWAP1 PUSH3 0x143B JUMP JUMPDEST POP POP POP POP DUP2 MSTORE POP POP DUP2 MSTORE PUSH1 0x20 ADD SWAP1 PUSH1 0x1 ADD SWAP1 PUSH3 0x1366 JUMP JUMPDEST POP POP POP SWAP2 MSTORE POP POP SWAP1 MSTORE POP DUP2 MSTORE PUSH1 0x1 SWAP1 SWAP2 ADD SWAP1 PUSH1 0x20 ADD PUSH3 0x1323 JUMP JUMPDEST POP POP POP POP DUP2 MSTORE POP POP DUP2 MSTORE PUSH1 0x20 ADD SWAP1 PUSH1 0x1 ADD SWAP1 PUSH3 0x12EB JUMP JUMPDEST POP POP POP SWAP2 MSTORE POP POP SWAP1 MSTORE POP DUP2 MSTORE PUSH1 0x40 DUP1 MLOAD PUSH1 0x2 DUP5 ADD DUP1 SLOAD PUSH1 0x20 DUP2 DUP2 MUL DUP5 ADD DUP6 ADD DUP6 MSTORE DUP4 DUP2 ADD DUP3 DUP2 MSTORE SWAP6 ADD SWAP5 SWAP3 SWAP4 SWAP2 SWAP3 DUP5 SWAP3 SWAP1 SWAP2 DUP5 SWAP2 PUSH1 0x0 SWAP1 DUP6 ADD JUMPDEST DUP3 DUP3 LT ISZERO PUSH3 0x1705 JUMPI PUSH1 0x0 DUP5 DUP2 MSTORE PUSH1 0x20 SWAP1 DUP2 SWAP1 KECCAK256 PUSH1 0x40 DUP1 MLOAD PUSH1 0xA0 DUP2 ADD DUP3 MSTORE PUSH1 0x4 DUP7 MUL SWAP1 SWAP3 ADD DUP1 SLOAD DUP4 DUP4 ADD SWAP1 DUP2 MSTORE PUSH1 0x1 DUP3 ADD SLOAD PUSH1 0x1 PUSH1 0x1 PUSH1 0xA0 SHL SUB AND PUSH1 0x60 DUP6 ADD MSTORE PUSH1 0x2 DUP3 ADD DUP1 SLOAD DUP5 MLOAD DUP2 DUP9 MUL DUP2 ADD DUP9 ADD SWAP1 SWAP6 MSTORE DUP1 DUP6 MSTORE SWAP5 SWAP6 SWAP3 SWAP5 DUP7 SWAP5 SWAP3 SWAP4 DUP7 SWAP4 PUSH1 0x80 DUP8 ADD SWAP4 SWAP1 SWAP3 SWAP1 SWAP2 DUP4 ADD DUP3 DUP3 DUP1 ISZERO PUSH3 0x160F JUMPI PUSH1 0x20 MUL DUP3 ADD SWAP2 SWAP1 PUSH1 0x0 MSTORE PUSH1 0x20 PUSH1 0x0 KECCAK256 SWAP1 JUMPDEST DUP2 SLOAD PUSH1 0x1 PUSH1 0x1 PUSH1 0xA0 SHL SUB AND DUP2 MSTORE PUSH1 0x1 SWAP1 SWAP2 ADD SWAP1 PUSH1 0x20 ADD DUP1 DUP4 GT PUSH3 0x15F0 JUMPI JUMPDEST POP POP POP POP POP DUP2 MSTORE POP POP DUP2 MSTORE PUSH1 0x20 ADD PUSH1 0x3 DUP3 ADD DUP1 SLOAD DUP1 PUSH1 0x20 MUL PUSH1 0x20 ADD PUSH1 0x40 MLOAD SWAP1 DUP2 ADD PUSH1 0x40 MSTORE DUP1 SWAP3 SWAP2 SWAP1 DUP2 DUP2 MSTORE PUSH1 0x20 ADD PUSH1 0x0 SWAP1 JUMPDEST DUP3 DUP3 LT ISZERO PUSH3 0x16ED JUMPI PUSH1 0x0 DUP5 DUP2 MSTORE PUSH1 0x20 SWAP1 DUP2 SWAP1 KECCAK256 PUSH1 0x40 DUP1 MLOAD PUSH1 0x60 DUP2 ADD DUP3 MSTORE PUSH1 0x3 DUP7 MUL SWAP1 SWAP3 ADD DUP1 SLOAD DUP4 MSTORE PUSH1 0x1 DUP2 ADD SLOAD PUSH1 0x1 PUSH1 0x1 PUSH1 0xA0 SHL SUB AND DUP4 DUP6 ADD MSTORE PUSH1 0x2 DUP2 ADD DUP1 SLOAD DUP4 MLOAD DUP2 DUP8 MUL DUP2 ADD DUP8 ADD DUP6 MSTORE DUP2 DUP2 MSTORE SWAP5 SWAP6 SWAP3 SWAP5 SWAP4 DUP7 ADD SWAP4 SWAP3 DUP4 ADD DUP3 DUP3 DUP1 ISZERO PUSH3 0x16D4 JUMPI PUSH1 0x20 MUL DUP3 ADD SWAP2 SWAP1 PUSH1 0x0 MSTORE PUSH1 0x20 PUSH1 0x0 KECCAK256 SWAP1 JUMPDEST DUP2 SLOAD PUSH1 0x1 PUSH1 0x1 PUSH1 0xA0 SHL SUB AND DUP2 MSTORE PUSH1 0x1 SWAP1 SWAP2 ADD SWAP1 PUSH1 0x20 ADD DUP1 DUP4 GT PUSH3 0x16B5 JUMPI JUMPDEST POP POP POP POP POP DUP2 MSTORE POP POP DUP2 MSTORE PUSH1 0x20 ADD SWAP1 PUSH1 0x1 ADD SWAP1 PUSH3 0x1641 JUMP JUMPDEST POP POP POP POP DUP2 MSTORE POP POP DUP2 MSTORE PUSH1 0x20 ADD SWAP1 PUSH1 0x1 ADD SWAP1 PUSH3 0x156C JUMP JUMPDEST POP POP POP SWAP2 MSTORE POP POP DUP2 MSTORE PUSH1 0x40 DUP1 MLOAD PUSH1 0x3 DUP5 ADD DUP1 SLOAD PUSH1 0x60 PUSH1 0x20 DUP3 DUP2 MUL DUP6 ADD DUP3 ADD DUP7 MSTORE SWAP5 DUP5 ADD DUP3 DUP2 MSTORE SWAP6 DUP6 ADD SWAP6 SWAP4 SWAP5 SWAP3 SWAP4 DUP6 SWAP4 DUP5 ADD SWAP3 DUP6 SWAP3 DUP5 SWAP3 SWAP2 DUP5 SWAP2 PUSH1 0x0 SWAP1 DUP9 ADD JUMPDEST DUP3 DUP3 LT ISZERO PUSH3 0x18DE JUMPI PUSH1 0x0 DUP5 DUP2 MSTORE PUSH1 0x20 SWAP1 DUP2 SWAP1 KECCAK256 PUSH1 0x40 DUP1 MLOAD PUSH1 0xA0 DUP2 ADD DUP3 MSTORE PUSH1 0x4 DUP7 MUL SWAP1 SWAP3 ADD DUP1 SLOAD DUP4 DUP4 ADD SWAP1 DUP2 MSTORE PUSH1 0x1 DUP3 ADD SLOAD PUSH1 0x1 PUSH1 0x1 PUSH1 0xA0 SHL SUB AND PUSH1 0x60 DUP6 ADD MSTORE PUSH1 0x2 DUP3 ADD DUP1 SLOAD DUP5 MLOAD DUP2 DUP9 MUL DUP2 ADD DUP9 ADD SWAP1 SWAP6 MSTORE DUP1 DUP6 MSTORE SWAP5 SWAP6 SWAP3 SWAP5 DUP7 SWAP5 SWAP3 SWAP4 DUP7 SWAP4 PUSH1 0x80 DUP8 ADD SWAP4 SWAP1 SWAP3 SWAP1 SWAP2 DUP4 ADD DUP3 DUP3 DUP1 ISZERO PUSH3 0x17E8 JUMPI PUSH1 0x20 MUL DUP3 ADD SWAP2 SWAP1 PUSH1 0x0 MSTORE PUSH1 0x20 PUSH1 0x0 KECCAK256 SWAP1 JUMPDEST DUP2 SLOAD PUSH1 0x1 PUSH1 0x1 PUSH1 0xA0 SHL SUB AND DUP2 MSTORE PUSH1 0x1 SWAP1 SWAP2 ADD SWAP1 PUSH1 0x20 ADD DUP1 DUP4 GT PUSH3 0x17C9 JUMPI JUMPDEST POP POP POP POP POP DUP2 MSTORE POP POP DUP2 MSTORE PUSH1 0x20 ADD PUSH1 0x3 DUP3 ADD DUP1 SLOAD DUP1 PUSH1 0x20 MUL PUSH1 0x20 ADD PUSH1 0x40 MLOAD SWAP1 DUP2 ADD PUSH1 0x40 MSTORE DUP1 SWAP3 SWAP2 SWAP1 DUP2 DUP2 MSTORE PUSH1 0x20 ADD PUSH1 0x0 SWAP1 JUMPDEST DUP3 DUP3 LT ISZERO PUSH3 0x18C6 JUMPI PUSH1 0x0 DUP5 DUP2 MSTORE PUSH1 0x20 SWAP1 DUP2 SWAP1 KECCAK256 PUSH1 0x40 DUP1 MLOAD PUSH1 0x60 DUP2 ADD DUP3 MSTORE PUSH1 0x3 DUP7 MUL SWAP1 SWAP3 ADD DUP1 SLOAD DUP4 MSTORE PUSH1 0x1 DUP2 ADD SLOAD PUSH1 0x1 PUSH1 0x1 PUSH1 0xA0 SHL SUB AND DUP4 DUP6 ADD MSTORE PUSH1 0x2 DUP2 ADD DUP1 SLOAD DUP4 MLOAD DUP2 DUP8 MUL DUP2 ADD DUP8 ADD DUP6 MSTORE DUP2 DUP2 MSTORE SWAP5 SWAP6 SWAP3 SWAP5 SWAP4 DUP7 ADD SWAP4 SWAP3 DUP4 ADD DUP3 DUP3 DUP1 ISZERO PUSH3 0x18AD JUMPI PUSH1 0x20 MUL DUP3 ADD SWAP2 SWAP1 PUSH1 0x0 MSTORE PUSH1 0x20 PUSH1 0x0 KECCAK256 SWAP1 JUMPDEST DUP2 SLOAD PUSH1 0x1 PUSH1 0x1 PUSH1 0xA0 SHL SUB AND DUP2 MSTORE PUSH1 0x1 SWAP1 SWAP2 ADD SWAP1 PUSH1 0x20 ADD DUP1 DUP4 GT PUSH3 0x188E JUMPI JUMPDEST POP POP POP POP POP DUP2 MSTORE POP POP DUP2 MSTORE PUSH1 0x20 ADD SWAP1 PUSH1 0x1 ADD SWAP1 PUSH3 0x181A JUMP JUMPDEST POP POP POP POP DUP2 MSTORE POP POP DUP2 MSTORE PUSH1 0x20 ADD SWAP1 PUSH1 0x1 ADD SWAP1 PUSH3 0x1745 JUMP JUMPDEST POP POP POP SWAP2 MSTORE POP POP SWAP1 MSTORE POP DUP2 MSTORE PUSH1 0x4 SWAP2 SWAP1 SWAP2 ADD SLOAD PUSH1 0x1 PUSH1 0x1 PUSH1 0xA0 SHL SUB AND PUSH1 0x20 SWAP2 DUP3 ADD MSTORE SWAP1 DUP3 MSTORE PUSH1 0x1 SWAP3 SWAP1 SWAP3 ADD SWAP2 ADD PUSH3 0x128E JUMP JUMPDEST POP POP POP POP SWAP1 POP SWAP3 SWAP2 POP POP JUMP JUMPDEST PUSH1 0x0 SLOAD PUSH2 0x100 SWAP1 DIV PUSH1 0x1 PUSH1 0x1 PUSH1 0xA0 SHL SUB AND CALLER EQ PUSH3 0x194F JUMPI PUSH1 0x40 MLOAD PUSH3 0x461BCD PUSH1 0xE5 SHL DUP2 MSTORE PUSH1 0x4 ADD PUSH3 0x230 SWAP1 PUSH3 0x245B JUMP JUMPDEST PUSH1 0x0 DUP1 SLOAD PUSH2 0x100 PUSH1 0x1 PUSH1 0xA8 SHL SUB NOT AND PUSH2 0x100 PUSH1 0x1 PUSH1 0x1 PUSH1 0xA0 SHL SUB DUP5 DUP2 AND DUP3 DUP2 MUL SWAP4 SWAP1 SWAP4 OR DUP1 DUP6 SSTORE PUSH1 0x40 MLOAD SWAP4 SWAP5 SWAP3 SWAP1 DIV AND SWAP2 PUSH32 0x342827C97908E5E2F71151C08502A66D44B6F758E3AC2F1DE95F02EB95F0A735 SWAP2 SWAP1 LOG3 POP JUMP JUMPDEST PUSH1 0x0 DUP3 DUP3 PUSH1 0x40 MLOAD PUSH3 0x19B9 SWAP1 PUSH3 0x1C76 JUMP JUMPDEST PUSH1 0x1 PUSH1 0x1 PUSH1 0xA0 SHL SUB SWAP3 DUP4 AND DUP2 MSTORE SWAP2 AND PUSH1 0x20 DUP3 ADD MSTORE PUSH1 0x40 ADD PUSH1 0x40 MLOAD DUP1 SWAP2 SUB SWAP1 PUSH1 0x0 CREATE DUP1 ISZERO DUP1 ISZERO PUSH3 0x19ED JUMPI RETURNDATASIZE PUSH1 0x0 DUP1 RETURNDATACOPY RETURNDATASIZE PUSH1 0x0 REVERT JUMPDEST POP SWAP4 SWAP3 POP POP POP JUMP JUMPDEST PUSH1 0x0 PUSH1 0x4 SLOAD PUSH1 0x1 PUSH3 0x1A08 SWAP2 SWAP1 PUSH3 0x24BA JUMP JUMPDEST SWAP1 POP PUSH3 0x1A14 DUP2 PUSH1 0x4 SSTORE JUMP JUMPDEST PUSH1 0x1 PUSH1 0x1 PUSH1 0xA0 SHL SUB DUP3 AND PUSH1 0x0 DUP2 DUP2 MSTORE PUSH1 0x17 PUSH1 0x20 SWAP1 DUP2 MSTORE PUSH1 0x40 DUP1 DUP4 KECCAK256 DUP1 SLOAD PUSH1 0x1 DUP2 DUP2 ADD DUP4 SSTORE SWAP2 DUP6 MSTORE DUP4 DUP6 KECCAK256 ADD DUP7 SWAP1 SSTORE DUP6 DUP5 MSTORE PUSH1 0x14 DUP4 MSTORE DUP2 DUP5 KECCAK256 DUP1 SLOAD PUSH1 0xFF NOT AND DUP3 OR SWAP1 SSTORE PUSH1 0xB DUP7 DUP2 SSTORE PUSH1 0xF DUP1 SLOAD PUSH1 0x1 PUSH1 0x1 PUSH1 0xA0 SHL SUB NOT AND DUP8 OR SWAP1 SSTORE SWAP5 DUP5 MSTORE PUSH1 0x16 DUP4 MSTORE DUP2 DUP5 KECCAK256 DUP7 DUP6 MSTORE DUP4 MSTORE SWAP1 DUP4 KECCAK256 DUP1 SLOAD DUP1 DUP4 ADD DUP3 SSTORE SWAP1 DUP5 MSTORE SWAP2 SWAP1 SWAP3 KECCAK256 DUP4 SLOAD PUSH1 0x5 SWAP1 SWAP3 MUL ADD SWAP1 DUP2 SSTORE PUSH1 0xC DUP1 SLOAD SWAP2 SWAP3 SWAP1 SWAP2 SWAP1 DUP4 ADD SWAP1 DUP3 SWAP1 DUP3 SWAP1 PUSH3 0x1AB7 SWAP1 DUP3 SWAP1 DUP5 SWAP1 PUSH3 0x1C84 JUMP JUMPDEST POP POP POP POP PUSH1 0x2 DUP4 DUP2 ADD DUP1 SLOAD SWAP1 SWAP3 POP SWAP1 DUP4 ADD SWAP1 PUSH3 0x1AD8 SWAP1 DUP3 SWAP1 DUP5 SWAP1 PUSH3 0x1CED JUMP JUMPDEST POP POP POP PUSH1 0x3 DUP3 DUP2 ADD DUP1 SLOAD SWAP1 SWAP2 DUP4 ADD SWAP1 DUP3 SWAP1 DUP3 SWAP1 PUSH3 0x1AFA SWAP1 DUP3 SWAP1 DUP5 SWAP1 PUSH3 0x1CED JUMP JUMPDEST POP POP POP POP PUSH1 0x4 SWAP3 DUP4 ADD SLOAD SWAP2 SWAP1 SWAP3 ADD DUP1 SLOAD PUSH1 0x1 PUSH1 0x1 PUSH1 0xA0 SHL SUB NOT AND PUSH1 0x1 PUSH1 0x1 PUSH1 0xA0 SHL SUB SWAP1 SWAP3 AND SWAP2 SWAP1 SWAP2 OR SWAP1 SSTORE POP PUSH1 0x10 DUP1 SLOAD PUSH1 0x1 DUP2 ADD DUP3 SSTORE PUSH1 0x0 SWAP2 SWAP1 SWAP2 MSTORE PUSH1 0xB DUP1 SLOAD PUSH1 0x5 SWAP1 SWAP3 MUL PUSH32 0x1B6847DC741A1B0CD08D278845F9D819D87B734759AFB55FE2DE5CB82A9AE672 DUP2 ADD SWAP3 DUP4 SSTORE PUSH1 0xC DUP1 SLOAD SWAP3 SWAP4 SWAP3 SWAP1 SWAP2 PUSH32 0x1B6847DC741A1B0CD08D278845F9D819D87B734759AFB55FE2DE5CB82A9AE673 ADD SWAP1 DUP3 SWAP1 DUP3 SWAP1 PUSH3 0x1BA4 SWAP1 DUP3 SWAP1 DUP5 SWAP1 PUSH3 0x1C84 JUMP JUMPDEST POP POP POP POP PUSH1 0x2 DUP4 DUP2 ADD DUP1 SLOAD SWAP1 SWAP3 POP SWAP1 DUP4 ADD SWAP1 PUSH3 0x1BC5 SWAP1 DUP3 SWAP1 DUP5 SWAP1 PUSH3 0x1CED JUMP JUMPDEST POP POP POP PUSH1 0x3 DUP3 DUP2 ADD DUP1 SLOAD SWAP1 SWAP2 DUP4 ADD SWAP1 DUP3 SWAP1 DUP3 SWAP1 PUSH3 0x1BE7 SWAP1 DUP3 SWAP1 DUP5 SWAP1 PUSH3 0x1CED JUMP JUMPDEST POP POP POP POP PUSH1 0x4 SWAP3 DUP4 ADD SLOAD SWAP2 SWAP1 SWAP3 ADD DUP1 SLOAD PUSH1 0x1 PUSH1 0x1 PUSH1 0xA0 SHL SUB NOT AND PUSH1 0x1 PUSH1 0x1 PUSH1 0xA0 SHL SUB SWAP1 SWAP3 AND SWAP2 SWAP1 SWAP2 OR SWAP1 SSTORE POP PUSH1 0x0 PUSH1 0xB DUP2 DUP2 SSTORE SWAP1 PUSH1 0xC DUP2 DUP2 DUP2 PUSH3 0x1C2C DUP3 DUP3 PUSH3 0x1DA4 JUMP JUMPDEST POP POP POP PUSH1 0x2 DUP4 ADD SWAP1 POP PUSH1 0x0 PUSH3 0x1C43 DUP3 DUP3 PUSH3 0x1DC7 JUMP JUMPDEST POP POP PUSH1 0x3 DUP3 ADD PUSH1 0x0 DUP2 DUP2 PUSH3 0x1C59 DUP3 DUP3 PUSH3 0x1DC7 JUMP JUMPDEST POP POP POP POP PUSH1 0x4 SWAP2 SWAP1 SWAP2 ADD DUP1 SLOAD PUSH1 0x1 PUSH1 0x1 PUSH1 0xA0 SHL SUB NOT AND SWAP1 SSTORE POP POP POP JUMP JUMPDEST PUSH2 0x641 DUP1 PUSH3 0x24ED DUP4 CODECOPY ADD SWAP1 JUMP JUMPDEST DUP3 DUP1 SLOAD DUP3 DUP3 SSTORE SWAP1 PUSH1 0x0 MSTORE PUSH1 0x20 PUSH1 0x0 KECCAK256 SWAP1 DUP2 ADD SWAP3 DUP3 ISZERO PUSH3 0x1CDB JUMPI PUSH1 0x0 MSTORE PUSH1 0x20 PUSH1 0x0 KECCAK256 SWAP2 DUP3 ADD JUMPDEST DUP3 DUP2 GT ISZERO PUSH3 0x1CDB JUMPI DUP3 SLOAD DUP4 SWAP1 DUP4 SWAP1 PUSH3 0x1CC8 SWAP1 DUP3 SWAP1 DUP5 SWAP1 PUSH3 0x1DEA JUMP JUMPDEST POP POP POP SWAP2 PUSH1 0x1 ADD SWAP2 SWAP1 PUSH1 0x1 ADD SWAP1 PUSH3 0x1CAA JUMP JUMPDEST POP PUSH3 0x1CE9 SWAP3 SWAP2 POP PUSH3 0x1E55 JUMP JUMPDEST POP SWAP1 JUMP JUMPDEST DUP3 DUP1 SLOAD DUP3 DUP3 SSTORE SWAP1 PUSH1 0x0 MSTORE PUSH1 0x20 PUSH1 0x0 KECCAK256 SWAP1 PUSH1 0x4 MUL DUP2 ADD SWAP3 DUP3 ISZERO PUSH3 0x1D96 JUMPI PUSH1 0x0 MSTORE PUSH1 0x20 PUSH1 0x0 KECCAK256 SWAP2 PUSH1 0x4 MUL DUP3 ADD JUMPDEST DUP3 DUP2 GT ISZERO PUSH3 0x1D96 JUMPI DUP3 SLOAD DUP3 SSTORE PUSH1 0x1 DUP1 DUP5 ADD SLOAD SWAP1 DUP4 ADD DUP1 SLOAD PUSH1 0x1 PUSH1 0x1 PUSH1 0xA0 SHL SUB NOT AND PUSH1 0x1 PUSH1 0x1 PUSH1 0xA0 SHL SUB SWAP1 SWAP3 AND SWAP2 SWAP1 SWAP2 OR SWAP1 SSTORE PUSH1 0x2 DUP1 DUP5 ADD DUP1 SLOAD DUP6 SWAP3 DUP6 SWAP3 DUP5 SWAP3 DUP5 SWAP3 PUSH3 0x1D6A SWAP3 SWAP1 DUP5 ADD SWAP2 PUSH3 0x1E76 JUMP JUMPDEST POP POP POP PUSH1 0x3 DUP3 DUP2 ADD DUP1 SLOAD PUSH3 0x1D83 SWAP3 DUP5 ADD SWAP2 SWAP1 PUSH3 0x1EC7 JUMP JUMPDEST POP POP POP SWAP2 PUSH1 0x4 ADD SWAP2 SWAP1 PUSH1 0x4 ADD SWAP1 PUSH3 0x1D19 JUMP JUMPDEST POP PUSH3 0x1CE9 SWAP3 SWAP2 POP PUSH3 0x1F61 JUMP JUMPDEST POP DUP1 SLOAD PUSH1 0x0 DUP3 SSTORE SWAP1 PUSH1 0x0 MSTORE PUSH1 0x20 PUSH1 0x0 KECCAK256 SWAP1 DUP2 ADD SWAP1 PUSH3 0x1DC4 SWAP2 SWAP1 PUSH3 0x1E55 JUMP JUMPDEST POP JUMP JUMPDEST POP DUP1 SLOAD PUSH1 0x0 DUP3 SSTORE PUSH1 0x4 MUL SWAP1 PUSH1 0x0 MSTORE PUSH1 0x20 PUSH1 0x0 KECCAK256 SWAP1 DUP2 ADD SWAP1 PUSH3 0x1DC4 SWAP2 SWAP1 PUSH3 0x1F61 JUMP JUMPDEST DUP3 DUP1 SLOAD DUP3 DUP3 SSTORE SWAP1 PUSH1 0x0 MSTORE PUSH1 0x20 PUSH1 0x0 KECCAK256 SWAP1 DUP2 ADD SWAP3 DUP3 ISZERO PUSH3 0x1E47 JUMPI PUSH1 0x0 MSTORE PUSH1 0x20 PUSH1 0x0 KECCAK256 SWAP2 DUP3 ADD JUMPDEST DUP3 DUP2 GT ISZERO PUSH3 0x1E47 JUMPI DUP3 SLOAD DUP4 SWAP1 DUP4 SWAP1 DUP3 SWAP1 DUP3 SWAP1 PUSH3 0x1E32 SWAP1 DUP3 SWAP1 DUP5 SWAP1 PUSH3 0x1CED JUMP JUMPDEST POP POP POP POP POP SWAP2 PUSH1 0x1 ADD SWAP2 SWAP1 PUSH1 0x1 ADD SWAP1 PUSH3 0x1E10 JUMP JUMPDEST POP PUSH3 0x1CE9 SWAP3 SWAP2 POP PUSH3 0x1FAF JUMP JUMPDEST DUP1 DUP3 GT ISZERO PUSH3 0x1CE9 JUMPI PUSH1 0x0 PUSH3 0x1E6C DUP3 DUP3 PUSH3 0x1FD4 JUMP JUMPDEST POP PUSH1 0x1 ADD PUSH3 0x1E55 JUMP JUMPDEST DUP3 DUP1 SLOAD DUP3 DUP3 SSTORE SWAP1 PUSH1 0x0 MSTORE PUSH1 0x20 PUSH1 0x0 KECCAK256 SWAP1 DUP2 ADD SWAP3 DUP3 ISZERO PUSH3 0x1EB9 JUMPI PUSH1 0x0 MSTORE PUSH1 0x20 PUSH1 0x0 KECCAK256 SWAP2 DUP3 ADD JUMPDEST DUP3 DUP2 GT ISZERO PUSH3 0x1EB9 JUMPI DUP3 SLOAD DUP3 SSTORE SWAP2 PUSH1 0x1 ADD SWAP2 SWAP1 PUSH1 0x1 ADD SWAP1 PUSH3 0x1E9C JUMP JUMPDEST POP PUSH3 0x1CE9 SWAP3 SWAP2 POP PUSH3 0x1FF4 JUMP JUMPDEST DUP3 DUP1 SLOAD DUP3 DUP3 SSTORE SWAP1 PUSH1 0x0 MSTORE PUSH1 0x20 PUSH1 0x0 KECCAK256 SWAP1 PUSH1 0x3 MUL DUP2 ADD SWAP3 DUP3 ISZERO PUSH3 0x1F53 JUMPI PUSH1 0x0 MSTORE PUSH1 0x20 PUSH1 0x0 KECCAK256 SWAP2 PUSH1 0x3 MUL DUP3 ADD JUMPDEST DUP3 DUP2 GT ISZERO PUSH3 0x1F53 JUMPI DUP3 SLOAD DUP3 SSTORE PUSH1 0x1 DUP1 DUP5 ADD SLOAD SWAP1 DUP4 ADD DUP1 SLOAD PUSH1 0x1 PUSH1 0x1 PUSH1 0xA0 SHL SUB NOT AND PUSH1 0x1 PUSH1 0x1 PUSH1 0xA0 SHL SUB SWAP1 SWAP3 AND SWAP2 SWAP1 SWAP2 OR SWAP1 SSTORE PUSH1 0x2 DUP1 DUP5 ADD DUP1 SLOAD DUP6 SWAP3 DUP6 SWAP3 PUSH3 0x1F40 SWAP3 SWAP2 DUP5 ADD SWAP2 PUSH3 0x1E76 JUMP JUMPDEST POP POP POP SWAP2 PUSH1 0x3 ADD SWAP2 SWAP1 PUSH1 0x3 ADD SWAP1 PUSH3 0x1EF3 JUMP JUMPDEST POP PUSH3 0x1CE9 SWAP3 SWAP2 POP PUSH3 0x200B JUMP JUMPDEST DUP1 DUP3 GT ISZERO PUSH3 0x1CE9 JUMPI PUSH1 0x0 DUP1 DUP3 SSTORE PUSH1 0x1 DUP3 ADD DUP1 SLOAD PUSH1 0x1 PUSH1 0x1 PUSH1 0xA0 SHL SUB NOT AND SWAP1 SSTORE DUP2 DUP2 PUSH3 0x1F92 PUSH1 0x2 DUP4 ADD DUP3 PUSH3 0x2044 JUMP JUMPDEST POP PUSH3 0x1FA5 SWAP1 POP PUSH1 0x3 DUP4 ADD PUSH1 0x0 PUSH3 0x2064 JUMP JUMPDEST POP PUSH1 0x4 ADD PUSH3 0x1F61 JUMP JUMPDEST DUP1 DUP3 GT ISZERO PUSH3 0x1CE9 JUMPI PUSH1 0x0 DUP2 DUP2 PUSH3 0x1FC8 DUP3 DUP3 PUSH3 0x1DC7 JUMP JUMPDEST POP POP POP PUSH1 0x1 ADD PUSH3 0x1FAF JUMP JUMPDEST POP DUP1 SLOAD PUSH1 0x0 DUP3 SSTORE SWAP1 PUSH1 0x0 MSTORE PUSH1 0x20 PUSH1 0x0 KECCAK256 SWAP1 DUP2 ADD SWAP1 PUSH3 0x1DC4 SWAP2 SWAP1 PUSH3 0x1FAF JUMP JUMPDEST JUMPDEST DUP1 DUP3 GT ISZERO PUSH3 0x1CE9 JUMPI PUSH1 0x0 DUP2 SSTORE PUSH1 0x1 ADD PUSH3 0x1FF5 JUMP JUMPDEST DUP1 DUP3 GT ISZERO PUSH3 0x1CE9 JUMPI PUSH1 0x0 DUP1 DUP3 SSTORE PUSH1 0x1 DUP3 ADD DUP1 SLOAD PUSH1 0x1 PUSH1 0x1 PUSH1 0xA0 SHL SUB NOT AND SWAP1 SSTORE PUSH3 0x203A PUSH1 0x2 DUP4 ADD DUP3 PUSH3 0x2044 JUMP JUMPDEST POP PUSH1 0x3 ADD PUSH3 0x200B JUMP JUMPDEST POP DUP1 SLOAD PUSH1 0x0 DUP3 SSTORE SWAP1 PUSH1 0x0 MSTORE PUSH1 0x20 PUSH1 0x0 KECCAK256 SWAP1 DUP2 ADD SWAP1 PUSH3 0x1DC4 SWAP2 SWAP1 PUSH3 0x1FF4 JUMP JUMPDEST POP DUP1 SLOAD PUSH1 0x0 DUP3 SSTORE PUSH1 0x3 MUL SWAP1 PUSH1 0x0 MSTORE PUSH1 0x20 PUSH1 0x0 KECCAK256 SWAP1 DUP2 ADD SWAP1 PUSH3 0x1DC4 SWAP2 SWAP1 PUSH3 0x200B JUMP JUMPDEST PUSH1 0x1 PUSH1 0x1 PUSH1 0xA0 SHL SUB DUP2 AND DUP2 EQ PUSH3 0x1DC4 JUMPI PUSH1 0x0 DUP1 REVERT JUMPDEST PUSH1 0x0 PUSH1 0x20 DUP3 DUP5 SUB SLT ISZERO PUSH3 0x20B0 JUMPI PUSH1 0x0 DUP1 REVERT JUMPDEST DUP2 CALLDATALOAD PUSH3 0x20BD DUP2 PUSH3 0x2087 JUMP JUMPDEST SWAP4 SWAP3 POP POP POP JUMP JUMPDEST PUSH1 0x0 PUSH1 0x20 DUP3 DUP5 SUB SLT ISZERO PUSH3 0x20D7 JUMPI PUSH1 0x0 DUP1 REVERT JUMPDEST POP CALLDATALOAD SWAP2 SWAP1 POP JUMP JUMPDEST DUP1 MLOAD DUP3 MSTORE PUSH1 0x20 DUP1 DUP3 ADD MLOAD PUSH1 0x1 PUSH1 0x1 PUSH1 0xA0 SHL SUB SWAP1 DUP2 AND DUP3 DUP6 ADD MSTORE PUSH1 0x40 DUP1 DUP5 ADD MLOAD PUSH1 0x60 SWAP2 DUP7 ADD DUP3 SWAP1 MSTORE DUP1 MLOAD SWAP2 DUP7 ADD DUP3 SWAP1 MSTORE PUSH1 0x0 SWAP4 SWAP1 DUP2 ADD SWAP3 SWAP1 SWAP2 DUP5 SWAP2 SWAP1 PUSH1 0x80 DUP9 ADD SWAP1 JUMPDEST DUP1 DUP5 LT ISZERO PUSH3 0x2143 JUMPI DUP6 MLOAD DUP4 AND DUP3 MSTORE SWAP5 DUP5 ADD SWAP5 PUSH1 0x1 SWAP4 SWAP1 SWAP4 ADD SWAP3 SWAP1 DUP5 ADD SWAP1 PUSH3 0x211F JUMP JUMPDEST POP SWAP8 SWAP7 POP POP POP POP POP POP POP JUMP JUMPDEST DUP1 MLOAD PUSH1 0x20 DUP1 DUP5 MSTORE DUP2 MLOAD DUP5 DUP3 ADD DUP2 SWAP1 MSTORE PUSH1 0x0 SWAP3 PUSH1 0x40 SWAP2 SWAP1 DUP4 ADD SWAP1 DUP3 DUP8 ADD SWAP1 PUSH1 0x5 DUP2 DUP2 SHL DUP10 ADD DUP6 ADD DUP8 DUP1 JUMPDEST DUP5 DUP2 LT ISZERO PUSH3 0x2211 JUMPI DUP12 DUP4 SUB PUSH1 0x3F NOT ADD DUP7 MSTORE DUP7 MLOAD DUP1 MLOAD DUP10 DUP6 MSTORE PUSH3 0x219F DUP11 DUP7 ADD DUP3 PUSH3 0x20DE JUMP JUMPDEST SWAP2 DUP12 ADD MLOAD DUP6 DUP4 SUB DUP7 DUP14 ADD MSTORE DUP1 MLOAD DUP1 DUP5 MSTORE SWAP1 DUP13 ADD SWAP3 SWAP2 POP DUP12 DUP3 ADD SWAP1 DUP1 DUP9 SHL DUP4 ADD DUP14 ADD DUP7 JUMPDEST DUP3 DUP2 LT ISZERO PUSH3 0x21F4 JUMPI PUSH1 0x1F NOT DUP6 DUP4 SUB ADD DUP5 MSTORE PUSH3 0x21E1 DUP3 DUP8 MLOAD PUSH3 0x20DE JUMP JUMPDEST SWAP6 DUP16 ADD SWAP6 SWAP4 DUP16 ADD SWAP4 SWAP2 POP PUSH1 0x1 ADD PUSH3 0x21C2 JUMP JUMPDEST POP SWAP11 DUP14 ADD SWAP11 SWAP10 DUP14 ADD SWAP10 SWAP7 POP POP POP PUSH1 0x1 SWAP3 SWAP1 SWAP3 ADD SWAP2 POP PUSH3 0x2178 SWAP1 POP JUMP JUMPDEST POP SWAP1 SWAP11 SWAP10 POP POP POP POP POP POP POP POP POP POP JUMP JUMPDEST PUSH1 0x0 DUP2 MLOAD PUSH1 0x20 DUP5 MSTORE PUSH3 0x2238 PUSH1 0x20 DUP6 ADD DUP3 PUSH3 0x214F JUMP JUMPDEST SWAP5 SWAP4 POP POP POP POP JUMP JUMPDEST PUSH1 0x20 DUP2 MSTORE PUSH1 0x0 PUSH1 0x20 DUP3 ADD DUP4 MLOAD DUP1 DUP3 MSTORE PUSH1 0x40 DUP5 ADD SWAP2 POP PUSH1 0x40 DUP2 PUSH1 0x5 SHL DUP6 ADD ADD PUSH1 0x20 DUP7 ADD PUSH1 0x0 JUMPDEST DUP4 DUP2 LT ISZERO PUSH3 0x23B6 JUMPI DUP7 DUP4 SUB PUSH1 0x3F NOT ADD DUP6 MSTORE DUP2 MLOAD DUP1 MLOAD DUP5 MSTORE PUSH1 0x20 DUP1 DUP3 ADD MLOAD PUSH1 0xA0 DUP3 DUP8 ADD DUP2 SWAP1 MSTORE SWAP1 MLOAD SWAP1 DUP7 ADD DUP3 SWAP1 MSTORE MLOAD PUSH1 0xC0 DUP7 ADD DUP3 SWAP1 MSTORE DUP1 MLOAD PUSH1 0xE0 DUP8 ADD DUP2 SWAP1 MSTORE SWAP2 ADD SWAP1 PUSH2 0x100 DUP1 DUP8 ADD SWAP2 SWAP1 PUSH1 0x5 DUP3 SWAP1 SHL DUP9 ADD ADD PUSH1 0x0 JUMPDEST DUP3 DUP2 LT ISZERO PUSH3 0x2344 JUMPI DUP9 DUP3 SUB PUSH1 0xFF NOT ADD DUP5 MSTORE DUP5 MLOAD MLOAD PUSH1 0x20 DUP1 DUP5 MSTORE DUP2 MLOAD DUP2 DUP6 ADD DUP2 SWAP1 MSTORE SWAP2 ADD SWAP1 PUSH1 0x40 DUP1 DUP6 ADD SWAP2 SWAP1 PUSH1 0x5 DUP3 SWAP1 SHL DUP7 ADD ADD PUSH1 0x0 JUMPDEST DUP3 DUP2 LT ISZERO PUSH3 0x2326 JUMPI PUSH1 0x3F NOT DUP8 DUP4 SUB ADD DUP5 MSTORE PUSH3 0x2310 DUP3 DUP7 MLOAD PUSH3 0x2221 JUMP JUMPDEST PUSH1 0x20 SWAP6 DUP7 ADD SWAP6 SWAP5 SWAP1 SWAP5 ADD SWAP4 SWAP2 POP PUSH1 0x1 ADD PUSH3 0x22F1 JUMP JUMPDEST POP PUSH1 0x20 SWAP9 DUP10 ADD SWAP9 SWAP8 SWAP1 SWAP8 ADD SWAP7 SWAP5 POP POP POP PUSH1 0x1 SWAP2 SWAP1 SWAP2 ADD SWAP1 POP PUSH3 0x22BA JUMP JUMPDEST POP PUSH1 0x40 DUP6 ADD MLOAD SWAP4 POP DUP8 DUP2 SUB PUSH1 0x40 DUP10 ADD MSTORE PUSH3 0x2360 DUP2 DUP6 PUSH3 0x214F JUMP JUMPDEST SWAP4 POP POP POP POP PUSH1 0x60 DUP3 ADD MLOAD DUP6 DUP3 SUB PUSH1 0x60 DUP8 ADD MSTORE PUSH3 0x237E DUP3 DUP3 PUSH3 0x2221 JUMP JUMPDEST SWAP2 POP POP PUSH1 0x80 DUP3 ADD MLOAD SWAP2 POP PUSH3 0x239E PUSH1 0x80 DUP7 ADD DUP4 PUSH1 0x1 PUSH1 0x1 PUSH1 0xA0 SHL SUB AND SWAP1 MSTORE JUMP JUMPDEST PUSH1 0x20 SWAP7 DUP8 ADD SWAP7 SWAP1 SWAP5 POP SWAP3 SWAP1 SWAP3 ADD SWAP2 POP PUSH1 0x1 ADD PUSH3 0x2265 JUMP JUMPDEST POP SWAP1 SWAP7 SWAP6 POP POP POP POP POP POP JUMP JUMPDEST PUSH1 0x20 DUP1 DUP3 MSTORE DUP3 MLOAD DUP3 DUP3 ADD DUP2 SWAP1 MSTORE PUSH1 0x0 SWAP2 SWAP1 DUP5 DUP3 ADD SWAP1 PUSH1 0x40 DUP6 ADD SWAP1 DUP5 JUMPDEST DUP2 DUP2 LT ISZERO PUSH3 0x23B6 JUMPI DUP4 MLOAD DUP4 MSTORE SWAP3 DUP5 ADD SWAP3 SWAP2 DUP5 ADD SWAP2 PUSH1 0x1 ADD PUSH3 0x23DE JUMP JUMPDEST PUSH1 0x0 DUP1 PUSH1 0x40 DUP4 DUP6 SUB SLT ISZERO PUSH3 0x2410 JUMPI PUSH1 0x0 DUP1 REVERT JUMPDEST DUP3 CALLDATALOAD PUSH3 0x241D DUP2 PUSH3 0x2087 JUMP JUMPDEST SWAP5 PUSH1 0x20 SWAP4 SWAP1 SWAP4 ADD CALLDATALOAD SWAP4 POP POP POP JUMP JUMPDEST PUSH1 0x20 DUP1 DUP3 MSTORE PUSH1 0x16 SWAP1 DUP3 ADD MSTORE PUSH22 0x21B0B63632B91034B9903737BA1037B832B930BA37B9 PUSH1 0x51 SHL PUSH1 0x40 DUP3 ADD MSTORE PUSH1 0x60 ADD SWAP1 JUMP JUMPDEST PUSH1 0x20 DUP1 DUP3 MSTORE PUSH1 0x13 SWAP1 DUP3 ADD MSTORE PUSH19 0x21B0B63632B91034B9903737BA1037BBB732B9 PUSH1 0x69 SHL PUSH1 0x40 DUP3 ADD MSTORE PUSH1 0x60 ADD SWAP1 JUMP JUMPDEST PUSH4 0x4E487B71 PUSH1 0xE0 SHL PUSH1 0x0 MSTORE PUSH1 0x11 PUSH1 0x4 MSTORE PUSH1 0x24 PUSH1 0x0 REVERT JUMPDEST DUP2 DUP2 SUB DUP2 DUP2 GT ISZERO PUSH3 0x24B4 JUMPI PUSH3 0x24B4 PUSH3 0x2488 JUMP JUMPDEST SWAP3 SWAP2 POP POP JUMP JUMPDEST DUP1 DUP3 ADD DUP1 DUP3 GT ISZERO PUSH3 0x24B4 JUMPI PUSH3 0x24B4 PUSH3 0x2488 JUMP JUMPDEST PUSH1 0x0 PUSH1 0x1 DUP3 ADD PUSH3 0x24E5 JUMPI PUSH3 0x24E5 PUSH3 0x2488 JUMP JUMPDEST POP PUSH1 0x1 ADD SWAP1 JUMP INVALID PUSH1 0x80 PUSH1 0x40 MSTORE CALLVALUE DUP1 ISZERO PUSH2 0x10 JUMPI PUSH1 0x0 DUP1 REVERT JUMPDEST POP PUSH1 0x40 MLOAD PUSH2 0x641 CODESIZE SUB DUP1 PUSH2 0x641 DUP4 CODECOPY DUP2 ADD PUSH1 0x40 DUP2 SWAP1 MSTORE PUSH2 0x2F SWAP2 PUSH2 0x1DC JUMP JUMPDEST PUSH2 0x51 PUSH1 0x40 MLOAD DUP1 PUSH1 0x60 ADD PUSH1 0x40 MSTORE DUP1 PUSH1 0x38 DUP2 MSTORE PUSH1 0x20 ADD PUSH2 0x609 PUSH1 0x38 SWAP2 CODECOPY CALLER PUSH2 0x152 JUMP JUMPDEST PUSH1 0x40 DUP1 MLOAD DUP1 DUP3 ADD SWAP1 SWAP2 MSTORE PUSH1 0x8 DUP2 MSTORE PUSH8 0x27BBB732B9399D1 PUSH1 0xC5 SHL PUSH1 0x20 DUP3 ADD MSTORE PUSH2 0x7A SWAP1 DUP4 PUSH2 0x152 JUMP JUMPDEST PUSH1 0x40 DUP1 MLOAD DUP1 DUP3 ADD SWAP1 SWAP2 MSTORE PUSH1 0xC DUP2 MSTORE PUSH12 0x27B832B930BA34B7B7399D1 PUSH1 0xA5 SHL PUSH1 0x20 DUP3 ADD MSTORE PUSH2 0xA7 SWAP1 DUP3 PUSH2 0x152 JUMP JUMPDEST PUSH1 0x0 DUP1 SLOAD PUSH2 0x100 PUSH1 0x1 PUSH1 0xA8 SHL SUB NOT AND PUSH2 0x100 PUSH1 0x1 PUSH1 0x1 PUSH1 0xA0 SHL SUB DUP6 DUP2 AND DUP3 MUL SWAP3 SWAP1 SWAP3 OR DUP1 DUP5 SSTORE PUSH1 0x1 DUP1 SLOAD PUSH1 0x1 PUSH1 0x1 PUSH1 0xA0 SHL SUB NOT AND DUP7 DUP6 AND OR SWAP1 SSTORE PUSH1 0x40 MLOAD SWAP2 SWAP1 DIV SWAP1 SWAP2 AND SWAP2 SWAP1 PUSH32 0x342827C97908E5E2F71151C08502A66D44B6F758E3AC2F1DE95F02EB95F0A735 SWAP1 DUP3 SWAP1 LOG3 PUSH1 0x1 SLOAD PUSH1 0x40 MLOAD PUSH1 0x1 PUSH1 0x1 PUSH1 0xA0 SHL SUB SWAP1 SWAP2 AND SWAP1 PUSH1 0x0 SWAP1 PUSH32 0x870F2E08A87D4B82C740AAF93F14B864C9151455C6C17E3A2FC9467DF9EC3154 SWAP1 DUP3 SWAP1 LOG3 POP POP PUSH2 0x26F JUMP JUMPDEST PUSH2 0x19B DUP3 DUP3 PUSH1 0x40 MLOAD PUSH1 0x24 ADD PUSH2 0x168 SWAP3 SWAP2 SWAP1 PUSH2 0x20F JUMP JUMPDEST PUSH1 0x40 DUP1 MLOAD PUSH1 0x1F NOT DUP2 DUP5 SUB ADD DUP2 MSTORE SWAP2 SWAP1 MSTORE PUSH1 0x20 DUP2 ADD DUP1 MLOAD PUSH1 0x1 PUSH1 0x1 PUSH1 0xE0 SHL SUB SWAP1 DUP2 AND PUSH4 0x319AF333 PUSH1 0xE0 SHL OR SWAP1 SWAP2 MSTORE PUSH2 0x19F AND JUMP JUMPDEST POP POP JUMP JUMPDEST DUP1 MLOAD PUSH11 0x636F6E736F6C652E6C6F67 PUSH1 0x20 DUP4 ADD PUSH1 0x0 DUP1 DUP5 DUP4 DUP6 GAS STATICCALL POP POP POP POP POP JUMP JUMPDEST DUP1 MLOAD PUSH1 0x1 PUSH1 0x1 PUSH1 0xA0 SHL SUB DUP2 AND DUP2 EQ PUSH2 0x1D7 JUMPI PUSH1 0x0 DUP1 REVERT JUMPDEST SWAP2 SWAP1 POP JUMP JUMPDEST PUSH1 0x0 DUP1 PUSH1 0x40 DUP4 DUP6 SUB SLT ISZERO PUSH2 0x1EF JUMPI PUSH1 0x0 DUP1 REVERT JUMPDEST PUSH2 0x1F8 DUP4 PUSH2 0x1C0 JUMP JUMPDEST SWAP2 POP PUSH2 0x206 PUSH1 0x20 DUP5 ADD PUSH2 0x1C0 JUMP JUMPDEST SWAP1 POP SWAP3 POP SWAP3 SWAP1 POP JUMP JUMPDEST PUSH1 0x40 DUP2 MSTORE PUSH1 0x0 DUP4 MLOAD DUP1 PUSH1 0x40 DUP5 ADD MSTORE PUSH1 0x0 JUMPDEST DUP2 DUP2 LT ISZERO PUSH2 0x23D JUMPI PUSH1 0x20 DUP2 DUP8 ADD DUP2 ADD MLOAD PUSH1 0x60 DUP7 DUP5 ADD ADD MSTORE ADD PUSH2 0x220 JUMP JUMPDEST POP PUSH1 0x0 PUSH1 0x60 DUP3 DUP6 ADD DUP2 ADD SWAP2 SWAP1 SWAP2 MSTORE PUSH1 0x1 PUSH1 0x1 PUSH1 0xA0 SHL SUB SWAP5 SWAP1 SWAP5 AND PUSH1 0x20 DUP5 ADD MSTORE PUSH1 0x1F ADD PUSH1 0x1F NOT AND SWAP1 SWAP2 ADD SWAP1 SWAP2 ADD SWAP3 SWAP2 POP POP JUMP JUMPDEST PUSH2 0x38B DUP1 PUSH2 0x27E PUSH1 0x0 CODECOPY PUSH1 0x0 RETURN INVALID PUSH1 0x80 PUSH1 0x40 MSTORE CALLVALUE DUP1 ISZERO PUSH2 0x10 JUMPI PUSH1 0x0 DUP1 REVERT JUMPDEST POP PUSH1 0x4 CALLDATASIZE LT PUSH2 0x62 JUMPI PUSH1 0x0 CALLDATALOAD PUSH1 0xE0 SHR DUP1 PUSH4 0x6394C9B EQ PUSH2 0x67 JUMPI DUP1 PUSH4 0x35A063B4 EQ PUSH2 0x7C JUMPI DUP1 PUSH4 0x69652FCF EQ PUSH2 0x84 JUMPI DUP1 PUSH4 0x893D20E8 EQ PUSH2 0x8C JUMPI DUP1 PUSH4 0xA6F9DAE1 EQ PUSH2 0xBA JUMPI DUP1 PUSH4 0xE7F43C68 EQ PUSH2 0xCD JUMPI JUMPDEST PUSH1 0x0 DUP1 REVERT JUMPDEST PUSH2 0x7A PUSH2 0x75 CALLDATASIZE PUSH1 0x4 PUSH2 0x2C8 JUMP JUMPDEST PUSH2 0xDE JUMP JUMPDEST STOP JUMPDEST PUSH2 0x7A PUSH2 0x15D JUMP JUMPDEST PUSH2 0x7A PUSH2 0x1C6 JUMP JUMPDEST PUSH1 0x0 SLOAD PUSH2 0x100 SWAP1 DIV PUSH1 0x1 PUSH1 0x1 PUSH1 0xA0 SHL SUB AND JUMPDEST PUSH1 0x40 MLOAD PUSH1 0x1 PUSH1 0x1 PUSH1 0xA0 SHL SUB SWAP1 SWAP2 AND DUP2 MSTORE PUSH1 0x20 ADD PUSH1 0x40 MLOAD DUP1 SWAP2 SUB SWAP1 RETURN JUMPDEST PUSH2 0x7A PUSH2 0xC8 CALLDATASIZE PUSH1 0x4 PUSH2 0x2C8 JUMP JUMPDEST PUSH2 0x241 JUMP JUMPDEST PUSH1 0x1 SLOAD PUSH1 0x1 PUSH1 0x1 PUSH1 0xA0 SHL SUB AND PUSH2 0x9E JUMP JUMPDEST PUSH1 0x1 SLOAD PUSH1 0x1 PUSH1 0x1 PUSH1 0xA0 SHL SUB AND CALLER EQ PUSH2 0x111 JUMPI PUSH1 0x40 MLOAD PUSH3 0x461BCD PUSH1 0xE5 SHL DUP2 MSTORE PUSH1 0x4 ADD PUSH2 0x108 SWAP1 PUSH2 0x2F8 JUMP JUMPDEST PUSH1 0x40 MLOAD DUP1 SWAP2 SUB SWAP1 REVERT JUMPDEST PUSH1 0x1 DUP1 SLOAD PUSH1 0x1 PUSH1 0x1 PUSH1 0xA0 SHL SUB NOT AND PUSH1 0x1 PUSH1 0x1 PUSH1 0xA0 SHL SUB DUP4 AND SWAP1 DUP2 OR SWAP1 SWAP2 SSTORE PUSH1 0x40 MLOAD DUP2 SWAP1 PUSH32 0x870F2E08A87D4B82C740AAF93F14B864C9151455C6C17E3A2FC9467DF9EC3154 SWAP1 PUSH1 0x0 SWAP1 LOG3 POP JUMP JUMPDEST PUSH1 0x1 SLOAD PUSH1 0x1 PUSH1 0x1 PUSH1 0xA0 SHL SUB AND CALLER EQ PUSH2 0x187 JUMPI PUSH1 0x40 MLOAD PUSH3 0x461BCD PUSH1 0xE5 SHL DUP2 MSTORE PUSH1 0x4 ADD PUSH2 0x108 SWAP1 PUSH2 0x2F8 JUMP JUMPDEST PUSH1 0x1 DUP1 SLOAD PUSH1 0x1 PUSH1 0x1 PUSH1 0xA0 SHL SUB NOT AND SWAP1 SSTORE PUSH1 0x40 MLOAD PUSH1 0x0 SWAP1 DUP2 SWAP1 PUSH32 0x870F2E08A87D4B82C740AAF93F14B864C9151455C6C17E3A2FC9467DF9EC3154 SWAP1 DUP3 SWAP1 LOG3 JUMP JUMPDEST PUSH1 0x0 SLOAD PUSH2 0x100 SWAP1 DIV PUSH1 0x1 PUSH1 0x1 PUSH1 0xA0 SHL SUB AND CALLER EQ PUSH2 0x1F5 JUMPI PUSH1 0x40 MLOAD PUSH3 0x461BCD PUSH1 0xE5 SHL DUP2 MSTORE PUSH1 0x4 ADD PUSH2 0x108 SWAP1 PUSH2 0x328 JUMP JUMPDEST PUSH1 0x0 DUP1 SLOAD PUSH2 0x100 PUSH1 0x1 PUSH1 0xA8 SHL SUB NOT AND DUP1 DUP3 SSTORE PUSH1 0x40 MLOAD PUSH2 0x100 SWAP1 SWAP2 DIV PUSH1 0x1 PUSH1 0x1 PUSH1 0xA0 SHL SUB AND SWAP1 PUSH32 0x342827C97908E5E2F71151C08502A66D44B6F758E3AC2F1DE95F02EB95F0A735 SWAP1 DUP4 SWAP1 LOG3 JUMP JUMPDEST PUSH1 0x0 SLOAD PUSH2 0x100 SWAP1 DIV PUSH1 0x1 PUSH1 0x1 PUSH1 0xA0 SHL SUB AND CALLER EQ PUSH2 0x270 JUMPI PUSH1 0x40 MLOAD PUSH3 0x461BCD PUSH1 0xE5 SHL DUP2 MSTORE PUSH1 0x4 ADD PUSH2 0x108 SWAP1 PUSH2 0x328 JUMP JUMPDEST PUSH1 0x0 DUP1 SLOAD PUSH2 0x100 PUSH1 0x1 PUSH1 0xA8 SHL SUB NOT AND PUSH2 0x100 PUSH1 0x1 PUSH1 0x1 PUSH1 0xA0 SHL SUB DUP5 DUP2 AND DUP3 DUP2 MUL SWAP4 SWAP1 SWAP4 OR DUP1 DUP6 SSTORE PUSH1 0x40 MLOAD SWAP4 SWAP5 SWAP3 SWAP1 DIV AND SWAP2 PUSH32 0x342827C97908E5E2F71151C08502A66D44B6F758E3AC2F1DE95F02EB95F0A735 SWAP2 SWAP1 LOG3 POP JUMP JUMPDEST PUSH1 0x0 PUSH1 0x20 DUP3 DUP5 SUB SLT ISZERO PUSH2 0x2DA JUMPI PUSH1 0x0 DUP1 REVERT JUMPDEST DUP2 CALLDATALOAD PUSH1 0x1 PUSH1 0x1 PUSH1 0xA0 SHL SUB DUP2 AND DUP2 EQ PUSH2 0x2F1 JUMPI PUSH1 0x0 DUP1 REVERT JUMPDEST SWAP4 SWAP3 POP POP POP JUMP JUMPDEST PUSH1 0x20 DUP1 DUP3 MSTORE PUSH1 0x16 SWAP1 DUP3 ADD MSTORE PUSH22 0x21B0B63632B91034B9903737BA1037B832B930BA37B9 PUSH1 0x51 SHL PUSH1 0x40 DUP3 ADD MSTORE PUSH1 0x60 ADD SWAP1 JUMP JUMPDEST PUSH1 0x20 DUP1 DUP3 MSTORE PUSH1 0x13 SWAP1 DUP3 ADD MSTORE PUSH19 0x21B0B63632B91034B9903737BA1037BBB732B9 PUSH1 0x69 SHL PUSH1 0x40 DUP3 ADD MSTORE PUSH1 0x60 ADD SWAP1 JUMP INVALID LOG2 PUSH5 0x6970667358 0x22 SLT KECCAK256 0xD1 0x5E 0xDA 0xC DUP2 0xD7 SWAP11 0xD4 0xF 0x4D 0xED DUP12 GASLIMIT 0xC7 JUMPI 0x21 LOG3 0xC1 SELFDESTRUCT SWAP11 0xC 0xC8 INVALID 0xD5 PUSH25 0x14ECF63B26093464736F6C634300081300337B454F413A205B KECCAK256 0x4F PUSH24 0x6E6572732C204F70657261746F7273205D7D20536D617274 KECCAK256 NUMBER PUSH16 0x6E7472616374206465706C6F79656420 PUSH3 0x793AA2 PUSH5 0x6970667358 0x22 SLT KECCAK256 CODESIZE DUP1 0x5D 0xEA 0xEC PUSH5 0x8376A19B09 0xA5 PUSH2 0xEA01 0x1F 0xB1 PREVRANDAO BASEFEE 0xC4 PUSH5 0x1C1665221B OR 0xFB 0x29 0xDF CALLVALUE 0xF8 PUSH5 0x736F6C6343 STOP ADDMOD SGT STOP CALLER PUSH28 0x454F413A205B204F776E6572732C204F70657261746F7273205D7D20 MSTORE8 PUSH14 0x61727420436F6E74726163742064 PUSH6 0x706C6F796564 KECCAK256 PUSH3 0x793A00 "
		},
		"gasEstimates": {
			"creation": {
				"codeDepositCost": "2221400",
				"executionCost": "infinite",
				"totalCost": "infinite"
			},
			"external": {
				"Accounts(address,uint256)": "infinite",
				"All_Accounts()": "infinite",
				"MyAccount(uint256)": "infinite",
				"_myAccount_Ids()": "infinite",
				"abort()": "28110",
				"ban_member(address)": "26837",
				"changeOperator(address)": "28203",
				"changeOwner(address)": "28512",
				"deploy_EOA(uint256)": "infinite",
				"getOperator()": "2595",
				"getOwner()": "2529",
				"resign()": "28191",
				"retrieve_accounts()": "2413",
				"retrieve_members()": "2446"
			},
			"internal": {
				"_deploy(address payable,address payable)": "infinite",
				"new_account(address payable)": "infinite",
				"new_member(address payable)": "infinite",
				"store_accounts(uint256)": "infinite",
				"store_members(uint256)": "infinite"
			}
		},
		"methodIdentifiers": {
			"Accounts(address,uint256)": "a1bd00bb",
			"All_Accounts()": "2d9090b5",
			"MyAccount(uint256)": "0adbde6c",
			"_myAccount_Ids()": "32c15078",
			"abort()": "35a063b4",
			"ban_member(address)": "35e7cc52",
			"changeOperator(address)": "06394c9b",
			"changeOwner(address)": "a6f9dae1",
			"deploy_EOA(uint256)": "8716452c",
			"getOperator()": "e7f43c68",
			"getOwner()": "893d20e8",
			"resign()": "69652fcf",
			"retrieve_accounts()": "780b00eb",
			"retrieve_members()": "7c6f75b3"
		}
	},
	"abi": [
		{
			"inputs": [
				{
					"internalType": "address payable",
					"name": "mgmt",
					"type": "address"
				},
				{
					"internalType": "address payable",
					"name": "ops",
					"type": "address"
				}
			],
			"stateMutability": "nonpayable",
			"type": "constructor"
		},
		{
			"anonymous": false,
			"inputs": [
				{
					"indexed": true,
					"internalType": "address",
					"name": "oldOps",
					"type": "address"
				},
				{
					"indexed": true,
					"internalType": "address",
					"name": "newOps",
					"type": "address"
				}
			],
			"name": "OperationsSet",
			"type": "event"
		},
		{
			"anonymous": false,
			"inputs": [
				{
					"indexed": true,
					"internalType": "address",
					"name": "oldOwner",
					"type": "address"
				},
				{
					"indexed": true,
					"internalType": "address",
					"name": "newOwner",
					"type": "address"
				}
			],
			"name": "OwnerSet",
			"type": "event"
		},
		{
			"inputs": [
				{
					"internalType": "address",
					"name": "mgmt",
					"type": "address"
				},
				{
					"internalType": "uint256",
					"name": "account",
					"type": "uint256"
				}
			],
			"name": "Accounts",
			"outputs": [
				{
					"components": [
						{
							"internalType": "uint256",
							"name": "id",
							"type": "uint256"
						},
						{
							"components": [
								{
									"components": [
										{
											"components": [
												{
													"components": [
														{
															"components": [
																{
																	"components": [
																		{
																			"components": [
																				{
																					"internalType": "uint256",
																					"name": "id",
																					"type": "uint256"
																				},
																				{
																					"internalType": "address payable",
																					"name": "eoa",
																					"type": "address"
																				},
																				{
																					"internalType": "address payable[]",
																					"name": "vaults",
																					"type": "address[]"
																				}
																			],
																			"internalType": "struct ISWAP.Account",
																			"name": "primary",
																			"type": "tuple"
																		},
																		{
																			"components": [
																				{
																					"internalType": "uint256",
																					"name": "id",
																					"type": "uint256"
																				},
																				{
																					"internalType": "address payable",
																					"name": "eoa",
																					"type": "address"
																				},
																				{
																					"internalType": "address payable[]",
																					"name": "vaults",
																					"type": "address[]"
																				}
																			],
																			"internalType": "struct ISWAP.Account[]",
																			"name": "remote",
																			"type": "tuple[]"
																		}
																	],
																	"internalType": "struct ISWAP.Asset[]",
																	"name": "accounts",
																	"type": "tuple[]"
																}
															],
															"internalType": "struct ISWAP.Assets",
															"name": "assets",
															"type": "tuple"
														}
													],
													"internalType": "struct ISWAP.Pairs[]",
													"name": "pairs",
													"type": "tuple[]"
												}
											],
											"internalType": "struct ISWAP.Pools[]",
											"name": "pools",
											"type": "tuple[]"
										}
									],
									"internalType": "struct ISWAP.Markets",
									"name": "markets",
									"type": "tuple"
								}
							],
							"internalType": "struct ISWAP.Swaps",
							"name": "swaps",
							"type": "tuple"
						},
						{
							"components": [
								{
									"components": [
										{
											"components": [
												{
													"internalType": "uint256",
													"name": "id",
													"type": "uint256"
												},
												{
													"internalType": "address payable",
													"name": "eoa",
													"type": "address"
												},
												{
													"internalType": "address payable[]",
													"name": "vaults",
													"type": "address[]"
												}
											],
											"internalType": "struct ISWAP.Account",
											"name": "primary",
											"type": "tuple"
										},
										{
											"components": [
												{
													"internalType": "uint256",
													"name": "id",
													"type": "uint256"
												},
												{
													"internalType": "address payable",
													"name": "eoa",
													"type": "address"
												},
												{
													"internalType": "address payable[]",
													"name": "vaults",
													"type": "address[]"
												}
											],
											"internalType": "struct ISWAP.Account[]",
											"name": "remote",
											"type": "tuple[]"
										}
									],
									"internalType": "struct ISWAP.Asset[]",
									"name": "accounts",
									"type": "tuple[]"
								}
							],
							"internalType": "struct ISWAP.Assets",
							"name": "accounts",
							"type": "tuple"
						},
						{
							"components": [
								{
									"components": [
										{
											"components": [
												{
													"components": [
														{
															"internalType": "uint256",
															"name": "id",
															"type": "uint256"
														},
														{
															"internalType": "address payable",
															"name": "eoa",
															"type": "address"
														},
														{
															"internalType": "address payable[]",
															"name": "vaults",
															"type": "address[]"
														}
													],
													"internalType": "struct ISWAP.Account",
													"name": "primary",
													"type": "tuple"
												},
												{
													"components": [
														{
															"internalType": "uint256",
															"name": "id",
															"type": "uint256"
														},
														{
															"internalType": "address payable",
															"name": "eoa",
															"type": "address"
														},
														{
															"internalType": "address payable[]",
															"name": "vaults",
															"type": "address[]"
														}
													],
													"internalType": "struct ISWAP.Account[]",
													"name": "remote",
													"type": "tuple[]"
												}
											],
											"internalType": "struct ISWAP.Asset[]",
											"name": "accounts",
											"type": "tuple[]"
										}
									],
									"internalType": "struct ISWAP.Assets",
									"name": "holdings",
									"type": "tuple"
								}
							],
							"internalType": "struct ISWAP.Liquidity",
							"name": "liquidity",
							"type": "tuple"
						},
						{
							"internalType": "address payable",
							"name": "eoa",
							"type": "address"
						}
					],
					"internalType": "struct ISWAP.Member[]",
					"name": "__member",
					"type": "tuple[]"
				}
			],
			"stateMutability": "nonpayable",
			"type": "function"
		},
		{
			"inputs": [],
			"name": "All_Accounts",
			"outputs": [
				{
					"components": [
						{
							"internalType": "uint256",
							"name": "id",
							"type": "uint256"
						},
						{
							"components": [
								{
									"components": [
										{
											"components": [
												{
													"components": [
														{
															"components": [
																{
																	"components": [
																		{
																			"components": [
																				{
																					"internalType": "uint256",
																					"name": "id",
																					"type": "uint256"
																				},
																				{
																					"internalType": "address payable",
																					"name": "eoa",
																					"type": "address"
																				},
																				{
																					"internalType": "address payable[]",
																					"name": "vaults",
																					"type": "address[]"
																				}
																			],
																			"internalType": "struct ISWAP.Account",
																			"name": "primary",
																			"type": "tuple"
																		},
																		{
																			"components": [
																				{
																					"internalType": "uint256",
																					"name": "id",
																					"type": "uint256"
																				},
																				{
																					"internalType": "address payable",
																					"name": "eoa",
																					"type": "address"
																				},
																				{
																					"internalType": "address payable[]",
																					"name": "vaults",
																					"type": "address[]"
																				}
																			],
																			"internalType": "struct ISWAP.Account[]",
																			"name": "remote",
																			"type": "tuple[]"
																		}
																	],
																	"internalType": "struct ISWAP.Asset[]",
																	"name": "accounts",
																	"type": "tuple[]"
																}
															],
															"internalType": "struct ISWAP.Assets",
															"name": "assets",
															"type": "tuple"
														}
													],
													"internalType": "struct ISWAP.Pairs[]",
													"name": "pairs",
													"type": "tuple[]"
												}
											],
											"internalType": "struct ISWAP.Pools[]",
											"name": "pools",
											"type": "tuple[]"
										}
									],
									"internalType": "struct ISWAP.Markets",
									"name": "markets",
									"type": "tuple"
								}
							],
							"internalType": "struct ISWAP.Swaps",
							"name": "swaps",
							"type": "tuple"
						},
						{
							"components": [
								{
									"components": [
										{
											"components": [
												{
													"internalType": "uint256",
													"name": "id",
													"type": "uint256"
												},
												{
													"internalType": "address payable",
													"name": "eoa",
													"type": "address"
												},
												{
													"internalType": "address payable[]",
													"name": "vaults",
													"type": "address[]"
												}
											],
											"internalType": "struct ISWAP.Account",
											"name": "primary",
											"type": "tuple"
										},
										{
											"components": [
												{
													"internalType": "uint256",
													"name": "id",
													"type": "uint256"
												},
												{
													"internalType": "address payable",
													"name": "eoa",
													"type": "address"
												},
												{
													"internalType": "address payable[]",
													"name": "vaults",
													"type": "address[]"
												}
											],
											"internalType": "struct ISWAP.Account[]",
											"name": "remote",
											"type": "tuple[]"
										}
									],
									"internalType": "struct ISWAP.Asset[]",
									"name": "accounts",
									"type": "tuple[]"
								}
							],
							"internalType": "struct ISWAP.Assets",
							"name": "accounts",
							"type": "tuple"
						},
						{
							"components": [
								{
									"components": [
										{
											"components": [
												{
													"components": [
														{
															"internalType": "uint256",
															"name": "id",
															"type": "uint256"
														},
														{
															"internalType": "address payable",
															"name": "eoa",
															"type": "address"
														},
														{
															"internalType": "address payable[]",
															"name": "vaults",
															"type": "address[]"
														}
													],
													"internalType": "struct ISWAP.Account",
													"name": "primary",
													"type": "tuple"
												},
												{
													"components": [
														{
															"internalType": "uint256",
															"name": "id",
															"type": "uint256"
														},
														{
															"internalType": "address payable",
															"name": "eoa",
															"type": "address"
														},
														{
															"internalType": "address payable[]",
															"name": "vaults",
															"type": "address[]"
														}
													],
													"internalType": "struct ISWAP.Account[]",
													"name": "remote",
													"type": "tuple[]"
												}
											],
											"internalType": "struct ISWAP.Asset[]",
											"name": "accounts",
											"type": "tuple[]"
										}
									],
									"internalType": "struct ISWAP.Assets",
									"name": "holdings",
									"type": "tuple"
								}
							],
							"internalType": "struct ISWAP.Liquidity",
							"name": "liquidity",
							"type": "tuple"
						},
						{
							"internalType": "address payable",
							"name": "eoa",
							"type": "address"
						}
					],
					"internalType": "struct ISWAP.Member[]",
					"name": "__member",
					"type": "tuple[]"
				}
			],
			"stateMutability": "nonpayable",
			"type": "function"
		},
		{
			"inputs": [
				{
					"internalType": "uint256",
					"name": "account",
					"type": "uint256"
				}
			],
			"name": "MyAccount",
			"outputs": [
				{
					"components": [
						{
							"internalType": "uint256",
							"name": "id",
							"type": "uint256"
						},
						{
							"components": [
								{
									"components": [
										{
											"components": [
												{
													"components": [
														{
															"components": [
																{
																	"components": [
																		{
																			"components": [
																				{
																					"internalType": "uint256",
																					"name": "id",
																					"type": "uint256"
																				},
																				{
																					"internalType": "address payable",
																					"name": "eoa",
																					"type": "address"
																				},
																				{
																					"internalType": "address payable[]",
																					"name": "vaults",
																					"type": "address[]"
																				}
																			],
																			"internalType": "struct ISWAP.Account",
																			"name": "primary",
																			"type": "tuple"
																		},
																		{
																			"components": [
																				{
																					"internalType": "uint256",
																					"name": "id",
																					"type": "uint256"
																				},
																				{
																					"internalType": "address payable",
																					"name": "eoa",
																					"type": "address"
																				},
																				{
																					"internalType": "address payable[]",
																					"name": "vaults",
																					"type": "address[]"
																				}
																			],
																			"internalType": "struct ISWAP.Account[]",
																			"name": "remote",
																			"type": "tuple[]"
																		}
																	],
																	"internalType": "struct ISWAP.Asset[]",
																	"name": "accounts",
																	"type": "tuple[]"
																}
															],
															"internalType": "struct ISWAP.Assets",
															"name": "assets",
															"type": "tuple"
														}
													],
													"internalType": "struct ISWAP.Pairs[]",
													"name": "pairs",
													"type": "tuple[]"
												}
											],
											"internalType": "struct ISWAP.Pools[]",
											"name": "pools",
											"type": "tuple[]"
										}
									],
									"internalType": "struct ISWAP.Markets",
									"name": "markets",
									"type": "tuple"
								}
							],
							"internalType": "struct ISWAP.Swaps",
							"name": "swaps",
							"type": "tuple"
						},
						{
							"components": [
								{
									"components": [
										{
											"components": [
												{
													"internalType": "uint256",
													"name": "id",
													"type": "uint256"
												},
												{
													"internalType": "address payable",
													"name": "eoa",
													"type": "address"
												},
												{
													"internalType": "address payable[]",
													"name": "vaults",
													"type": "address[]"
												}
											],
											"internalType": "struct ISWAP.Account",
											"name": "primary",
											"type": "tuple"
										},
										{
											"components": [
												{
													"internalType": "uint256",
													"name": "id",
													"type": "uint256"
												},
												{
													"internalType": "address payable",
													"name": "eoa",
													"type": "address"
												},
												{
													"internalType": "address payable[]",
													"name": "vaults",
													"type": "address[]"
												}
											],
											"internalType": "struct ISWAP.Account[]",
											"name": "remote",
											"type": "tuple[]"
										}
									],
									"internalType": "struct ISWAP.Asset[]",
									"name": "accounts",
									"type": "tuple[]"
								}
							],
							"internalType": "struct ISWAP.Assets",
							"name": "accounts",
							"type": "tuple"
						},
						{
							"components": [
								{
									"components": [
										{
											"components": [
												{
													"components": [
														{
															"internalType": "uint256",
															"name": "id",
															"type": "uint256"
														},
														{
															"internalType": "address payable",
															"name": "eoa",
															"type": "address"
														},
														{
															"internalType": "address payable[]",
															"name": "vaults",
															"type": "address[]"
														}
													],
													"internalType": "struct ISWAP.Account",
													"name": "primary",
													"type": "tuple"
												},
												{
													"components": [
														{
															"internalType": "uint256",
															"name": "id",
															"type": "uint256"
														},
														{
															"internalType": "address payable",
															"name": "eoa",
															"type": "address"
														},
														{
															"internalType": "address payable[]",
															"name": "vaults",
															"type": "address[]"
														}
													],
													"internalType": "struct ISWAP.Account[]",
													"name": "remote",
													"type": "tuple[]"
												}
											],
											"internalType": "struct ISWAP.Asset[]",
											"name": "accounts",
											"type": "tuple[]"
										}
									],
									"internalType": "struct ISWAP.Assets",
									"name": "holdings",
									"type": "tuple"
								}
							],
							"internalType": "struct ISWAP.Liquidity",
							"name": "liquidity",
							"type": "tuple"
						},
						{
							"internalType": "address payable",
							"name": "eoa",
							"type": "address"
						}
					],
					"internalType": "struct ISWAP.Member[]",
					"name": "__member",
					"type": "tuple[]"
				}
			],
			"stateMutability": "nonpayable",
			"type": "function"
		},
		{
			"inputs": [],
			"name": "_myAccount_Ids",
			"outputs": [
				{
					"internalType": "uint256[]",
					"name": "__accounts",
					"type": "uint256[]"
				}
			],
			"stateMutability": "nonpayable",
			"type": "function"
		},
		{
			"inputs": [],
			"name": "abort",
			"outputs": [],
			"stateMutability": "nonpayable",
			"type": "function"
		},
		{
			"inputs": [
				{
					"internalType": "address payable",
					"name": "nominee",
					"type": "address"
				}
			],
			"name": "ban_member",
			"outputs": [],
			"stateMutability": "nonpayable",
			"type": "function"
		},
		{
			"inputs": [
				{
					"internalType": "address payable",
					"name": "newOperator",
					"type": "address"
				}
			],
			"name": "changeOperator",
			"outputs": [],
			"stateMutability": "nonpayable",
			"type": "function"
		},
		{
			"inputs": [
				{
					"internalType": "address payable",
					"name": "newOwner",
					"type": "address"
				}
			],
			"name": "changeOwner",
			"outputs": [],
			"stateMutability": "nonpayable",
			"type": "function"
		},
		{
			"inputs": [
				{
					"internalType": "uint256",
					"name": "num",
					"type": "uint256"
				}
			],
			"name": "deploy_EOA",
			"outputs": [],
			"stateMutability": "nonpayable",
			"type": "function"
		},
		{
			"inputs": [],
			"name": "getOperator",
			"outputs": [
				{
					"internalType": "address payable",
					"name": "",
					"type": "address"
				}
			],
			"stateMutability": "view",
			"type": "function"
		},
		{
			"inputs": [],
			"name": "getOwner",
			"outputs": [
				{
					"internalType": "address payable",
					"name": "",
					"type": "address"
				}
			],
			"stateMutability": "view",
			"type": "function"
		},
		{
			"inputs": [],
			"name": "resign",
			"outputs": [],
			"stateMutability": "nonpayable",
			"type": "function"
		},
		{
			"inputs": [],
			"name": "retrieve_accounts",
			"outputs": [
				{
					"internalType": "uint256",
					"name": "",
					"type": "uint256"
				}
			],
			"stateMutability": "view",
			"type": "function"
		},
		{
			"inputs": [],
			"name": "retrieve_members",
			"outputs": [
				{
					"internalType": "uint256",
					"name": "",
					"type": "uint256"
				}
			],
			"stateMutability": "view",
			"type": "function"
		}
	]
}