{
	"data": {
		"bytecode": {
			"linkReferences": {},
			"object": "608060405260006005556040516200d9813803806200d981833981016040819052610029916101ec565b600080546001600160a01b0319163390811782558152600160208190526040808320805460ff1990811684179091556001600160a01b03851684529083208054821683179055734362eed9fd20fa25251d040b0489a784d91ec8b583527f3e2aa3a84e598fddf6de69da6e7dab9f82fcfd61a352c36d1f70844b04281fe58054909116821790556100b9906100e1565b600480546001600160a01b0319166001600160a01b03929092169190911790555061025c9050565b600080805b8382116101d757816100f78161022b565b92505030604051610107906101de565b6001600160a01b039091168152602001604051809103906000f080158015610133573d6000803e3d6000fd5b5060026000846005546101469190610244565b815260200190815260200160002060006101000a8154816001600160a01b0302191690836001600160a01b031602179055508382036101d25760026000856005546101919190610244565b815260200190815260200160002060009054906101000a90046001600160a01b0316905083600560008282546101c79190610244565b909155506101d79050565b6100e6565b9392505050565b616822806200715f83390190565b6000602082840312156101fe57600080fd5b81516001600160a01b03811681146101d757600080fd5b634e487b7160e01b600052601160045260246000fd5b60006001820161023d5761023d610215565b5060010190565b6000821982111561025757610257610215565b500190565b616ef3806200026c6000396000f3fe608060405260043610620000755760003560e01c8063284fce07146200007f5780638cd0acc314620000ae578063975d920514620000e4578063b5f1d3eb1462000118578063b6a5d7de146200013d578063dc92f8f01462000162578063f0b37c04146200017a578063f2a04e98146200019f57005b366200007d57005b005b620000966200009036600462000533565b620001d9565b604051620000a591906200054d565b60405180910390f35b348015620000bb57600080fd5b50620000d3620000cd36600462000577565b620002e1565b6040519015158152602001620000a5565b348015620000f157600080fd5b506200010962000103366004620005b5565b62000330565b604051908152602001620000a5565b3480156200012557600080fd5b506200007d62000137366004620005d5565b62000379565b3480156200014a57600080fd5b506200007d6200015c366004620005b5565b6200042f565b3480156200016f57600080fd5b506200007d6200046b565b3480156200018757600080fd5b506200007d62000199366004620005b5565b620004d1565b348015620001ac57600080fd5b5062000096620001be36600462000533565b6000908152600260205260409020546001600160a01b031690565b600080805b838211620002da5781620001f28162000664565b92505030604051620002049062000525565b6200021091906200054d565b604051809103906000f0801580156200022d573d6000803e3d6000fd5b50600260008460055462000242919062000680565b815260200190815260200160002060006101000a8154816001600160a01b0302191690836001600160a01b03160217905550838203620002d457600260008560055462000290919062000680565b815260200190815260200160002060009054906101000a90046001600160a01b031690508360056000828254620002c8919062000680565b90915550620002da9050565b620001de565b9392505050565b6000620002ee3362000507565b620002f857600080fd5b6001600160a01b03831633146200030e57600080fd5b60006200031b836200042f565b6200032684620004d1565b5060019392505050565b6000805b60055481116200037357806200034a8162000664565b6000818152600260205260409020549092506001600160a01b0385811691161415905062000334575b92915050565b620003843362000507565b6200038e57600080fd5b6004805460405163d9a06dbd60e01b81526001600160a01b038a8116938201939093528883166024820152611f40604482015287151560648201526084810187905260a4810186905260c4810185905260e4810184905291169063d9a06dbd9061010401600060405180830381600087803b1580156200040d57600080fd5b505af115801562000422573d6000803e3d6000fd5b5050505050505050505050565b6200043a3362000507565b6200044457600080fd5b6001600160a01b03166000908152600160208190526040909120805460ff19169091179055565b6004546040516000916001600160a01b03169047908381818185875af1925050503d8060008114620004ba576040519150601f19603f3d011682016040523d82523d6000602084013e620004bf565b606091505b5050905080620004ce57600080fd5b50565b620004dc3362000507565b620004e657600080fd5b6001600160a01b03166000908152600160205260409020805460ff19169055565b6001600160a01b031660009081526001602052604090205460ff1690565b616822806200069c83390190565b6000602082840312156200054657600080fd5b5035919050565b6001600160a01b0391909116815260200190565b6001600160a01b0381168114620004ce57600080fd5b600080604083850312156200058b57600080fd5b8235620005988162000561565b91506020830135620005aa8162000561565b809150509250929050565b600060208284031215620005c857600080fd5b8135620002da8162000561565b600080600080600080600060e0888a031215620005f157600080fd5b8735620005fe8162000561565b96506020880135620006108162000561565b9550604088013580151581146200062657600080fd5b969995985095966060810135965060808101359560a0820135955060c0909101359350915050565b634e487b7160e01b600052601160045260246000fd5b6000600182016200067957620006796200064e565b5060010190565b600082198211156200069657620006966200064e565b50019056fe60e0604052600460a081905263784fca4960e11b60c090815262000027916008919062000239565b5060408051808201909152600480825263f09f949160e01b6020909201918252620000559160099162000239565b50600a80546001600160a01b031990811673050134fd4ea6547846ede4c4bf46a334b7e87ccd17909155600b8054821673d166df9dfb917c3b960673e2f420f928d45c9be1179055611388600c556127106080819052600d80549092167367954768e721fad0f0f21e33e874497c73ed6a82179091556010556102ee60115560006012819055601355660d8014722580006014556934f086f3b33b6840000060155569d3c21bcecceda10000006016556017805460ff1916905560405162006822388190039081908339810160408190526200013191620002ed565b600a54600b54600080546001600160a01b0319163390811782558152600160208190526040808320805460ff1990811684179091556001600160a01b0395861684528184208054821684179055949093168252919020805490921617905580620001983390565b604080518082018252600381526208aa8960eb1b60208201529051620001be90620002c8565b620001cc939291906200031f565b604051809103906000f080158015620001e9573d6000803e3d6000fd5b506000805260046020527f17ef568e3e12ab5b9c7254a8d58478811de00f9e6eb34345acd53bf8fd09d3ec80546001600160a01b0319166001600160a01b039290921691909117905550620003cf565b828054620002479062000393565b90600052602060002090601f0160209004810192826200026b5760008555620002b6565b82601f106200028657805160ff1916838001178555620002b6565b82800160010185558215620002b6579182015b82811115620002b657825182559160200191906001019062000299565b50620002c4929150620002d6565b5090565b61201e806200480483390190565b5b80821115620002c45760008155600101620002d7565b6000602082840312156200030057600080fd5b81516001600160a01b03811681146200031857600080fd5b9392505050565b600060018060a01b038086168352602081861681850152606060408501528451915081606085015260005b8281101562000368578581018201518582016080015281016200034a565b828111156200037b576000608084870101525b5050601f01601f191691909101608001949350505050565b600181811c90821680620003a857607f821691505b602082108103620003c957634e487b7160e01b600052602260045260246000fd5b50919050565b60805161440b620003f960003960008181610cbd015281816111520152611694015261440b6000f3fe6080604052600436106200012b5760003560e01c80638cd0acc311620000a55780638cd0acc314620002b457806395d89b4114620002d9578063b20b119c14620002f1578063b6a5d7de1462000309578063c6eceb10146200032e578063c79d43911462000346578063d9a06dbd146200036b578063db236d961462000390578063dbba0f0114620003e9578063dd457d76146200040e578063f0b37c04146200043357005b806306fdde0314620001355780630cba52f914620001655780633ccfd60b146200018d5780634360201714620001a5578063528856f414620001ca578063560d999514620001ef578063570e9f7014620002065780636532d899146200022d5780637d21bbe21462000252578063841ba87d146200027757806389476069146200028f57005b366200013357005b005b3480156200014257600080fd5b506200014d62000458565b6040516200015c919062001d00565b60405180910390f35b6200017c6200017636600462001e7a565b620004ee565b60405190151581526020016200015c565b3480156200019a57600080fd5b506200013362000679565b348015620001b257600080fd5b5062000133620001c436600462001ee4565b6200079d565b348015620001d757600080fd5b506200017c620001e936600462001f04565b620007c0565b6200017c6200020036600462001f6b565b62000903565b3480156200021357600080fd5b506200021e60115481565b6040519081526020016200015c565b3480156200023a57600080fd5b506200017c6200024c36600462001fa7565b62000b9d565b3480156200025f57600080fd5b506200017c6200027136600462001fe3565b62000c2d565b3480156200028457600080fd5b506200021e60135481565b3480156200029c57600080fd5b5062000133620002ae36600462001ee4565b62000dfd565b348015620002c157600080fd5b506200017c620002d336600462002058565b62001015565b348015620002e657600080fd5b506200014d62001064565b348015620002fe57600080fd5b506200021e60125481565b3480156200031657600080fd5b50620001336200032836600462001ee4565b62001073565b3480156200033b57600080fd5b506200021e60145481565b3480156200035357600080fd5b506200017c6200036536600462001fe3565b620010af565b3480156200037857600080fd5b50620001336200038a36600462002096565b62001293565b3480156200039d57600080fd5b50620003da620003af36600462001ee4565b6001600160a01b03908116600090815260076020908152604080832054835260049091529020541690565b6040516200015c919062002114565b348015620003f657600080fd5b506200017c6200040836600462001fa7565b6200132b565b3480156200041b57600080fd5b506200017c6200042d36600462001fe3565b620014a8565b3480156200044057600080fd5b50620001336200045236600462001ee4565b62001625565b60088054620004679062002128565b80601f0160208091040260200160405190810160405280929190818152602001828054620004959062002128565b8015620004e65780601f10620004ba57610100808354040283529160200191620004e6565b820191906000526020600020905b815481529060010190602001808311620004c857829003601f168201915b505050505081565b6000620004fb336200165b565b6200050557600080fd5b6000805b83518110156200065c5760006001600160a01b031684828151811062000533576200053362002164565b60200260200101516001600160a01b0316146200064257600080805260046020527f17ef568e3e12ab5b9c7254a8d58478811de00f9e6eb34345acd53bf8fd09d3ec5485516001600160a01b039091169190829062e7337890889086908110620005a157620005a162002164565b6020026020010151898681518110620005be57620005be62002164565b60200260200101516040518363ffffffff1660e01b8152600401620005e59291906200217a565b6020604051808303816000875af115801562000605573d6000803e3d6000fd5b505050506040513d601f19601f820116820180604052508101906200062b919062002193565b9050806200063857600080fd5b9250620006479050565b600091505b806200065381620021c9565b91505062000509565b50600181151514620006725762000672620021e5565b9392505050565b4760008080620006898462001679565b9194509250905060008215620006f457600b546040516000916001600160a01b03169085908381818185875af1925050503d8060008114620006e8576040519150601f19603f3d011682016040523d82523d6000602084013e620006ed565b606091505b5090925050505b81156200075657600a546040516000916001600160a01b03169084908381818185875af1925050503d80600081146200074a576040519150601f19603f3d011682016040523d82523d6000602084013e6200074f565b606091505b5090925050505b806200076157600080fd5b60405184815230907f7fcf532c15f0a6db0bd6d0e038bea71d30d808c7d98cb3bf7268a95bf5081b659060200160405180910390a25050505050565b620007a8336200165b565b620007b257600080fd5b620007bd8162001073565b50565b6000620007cd336200165b565b620007d757600080fd5b600d80546001600160a01b038087166001600160a01b0319928316179092556000848152600560205260409020805492881692909116919091179055826200081c3390565b866001600160a01b03166395d89b416040518163ffffffff1660e01b8152600401600060405180830381865afa1580156200085b573d6000803e3d6000fd5b505050506040513d6000823e601f3d908101601f19168201604052620008859190810190620021fb565b604051620008939062001c95565b620008a19392919062002299565b604051809103906000f080158015620008be573d6000803e3d6000fd5b50600083815260046020908152604080832080546001600160a01b0319166001600160a01b03958616179055600590915290205486821691161490505b949350505050565b6000828152600560205260408120546001600160a01b0316806200092657600080fd5b600a546001600160a01b0316336001600160a01b0316141580156200095f5750600b546001600160a01b0316336001600160a01b031614155b1562000b625760175460ff1662000a8c578262000a7e57604051636eb1769f60e11b815285906001600160a01b0383169063dd62ed3e90620009a89033903090600401620022c7565b602060405180830381865afa158015620009c6573d6000803e3d6000fd5b505050506040513d601f19601f82011682018060405250810190620009ec9190620022e1565b1015620009f857600080fd5b846001600160a01b0382166370a08231335b6040518263ffffffff1660e01b815260040162000a28919062002114565b602060405180830381865afa15801562000a46573d6000803e3d6000fd5b505050506040513d601f19601f8201168201806040525081019062000a6c9190620022e1565b101562000a7857600080fd5b62000b62565b8434101562000a7857600080fd5b8262000b465760115462000aa19086620022fb565b604051636eb1769f60e11b81526001600160a01b0383169063dd62ed3e9062000ad19033903090600401620022c7565b602060405180830381865afa15801562000aef573d6000803e3d6000fd5b505050506040513d601f19601f8201168201806040525081019062000b159190620022e1565b101562000b2157600080fd5b60115462000b309086620022fb565b6001600160a01b0382166370a082313362000a0a565b60145462000b559086620022fb565b34101562000b6257600080fd5b60155485111562000b7257600080fd5b600062000b82338388876200170e565b905060018115151462000b9457600080fd5b95945050505050565b600062000baa336200165b565b62000bb457600080fd5b6001600160a01b03821662000bcd5762000bcd620021e5565b62000be36001600160a01b0385168385620019fc565b6001600160a01b0380851660008181526007602090815260408083205480845260059092529091205490921690819062000c209082878962001a5b565b5060019695505050505050565b600062000c3a336200165b565b62000c4457600080fd5b600a54600090819081906001600160a01b0316336001600160a01b03161462000c6c57600192505b60005b865181101562000ddd5760006001600160a01b031687828151811062000c995762000c9962002164565b60200260200101516001600160a01b03161462000dc35783151560010362000d61577f0000000000000000000000000000000000000000000000000000000000000000600c5489838151811062000cf45762000cf462002164565b602002602001015162000d08919062002316565b62000d14919062002338565b91508188828151811062000d2c5762000d2c62002164565b6020026020010181815162000d4291906200235b565b905250600a5462000d61906001600160a01b03888116911684620019fc565b62000db987828151811062000d7a5762000d7a62002164565b602002602001015189838151811062000d975762000d9762002164565b6020026020010151886001600160a01b0316620019fc9092919063ffffffff16565b6001925062000dc8565b600092505b8062000dd481620021c9565b91505062000c6f565b5060018215151462000df35762000df3620021e5565b5095945050505050565b62000e08336200165b565b62000e1257600080fd5b6040516370a0823160e01b81526000906001600160a01b038316906370a082319062000e4390309060040162002114565b602060405180830381865afa15801562000e61573d6000803e3d6000fd5b505050506040513d601f19601f8201168201806040525081019062000e879190620022e1565b6001600160a01b03808416600090815260076020908152604080832054808452600590925282205493945092909116908062000ec38562001679565b9250925050826001600160a01b0316866001600160a01b03161462000f535760008211801562000ef35750600081115b1562000f3757600b5462000f15906001600160a01b03888116911684620019fc565b600a5462000f31906001600160a01b03888116911683620019fc565b62000fcd565b600a5462000f31906001600160a01b03888116911687620019fc565b826001600160a01b0316866001600160a01b031614801562000f7c575060175460ff1615156001145b1562000fb15760008211801562000ef35750801562000f3757600b5462000f15906001600160a01b03888116911684620019fc565b600b5462000fcd906001600160a01b03888116911687620019fc565b6040518581526001600160a01b0387169030907f037238854fe57fbf51f09946f854fc3916fe83938d6521f09bd05463839f13049060200160405180910390a3505050505050565b600062001022336200165b565b6200102c57600080fd5b6001600160a01b03831633146200104257600080fd5b60006200104f8362001073565b6200105a8462001625565b5060019392505050565b60098054620004679062002128565b6200107e336200165b565b6200108857600080fd5b6001600160a01b03166000908152600160208190526040909120805460ff19169091179055565b6000620010bc336200165b565b620010c657600080fd5b6000339050600080600080600c54612710620010e391906200235b565b600a549091506001600160a01b038681169116146200110157600192505b60005b8851811015620012705760006001600160a01b03168982815181106200112e576200112e62002164565b60200260200101516001600160a01b0316146200125657831515600103620011f4577f0000000000000000000000000000000000000000000000000000000000000000828b838151811062001187576200118762002164565b60200260200101516200119b919062002316565b620011a7919062002338565b9250828a8281518110620011bf57620011bf62002164565b60200260200101818151620011d591906200235b565b905250600a54620011f4906001600160a01b038a8116911685620019fc565b6200124c8982815181106200120d576200120d62002164565b60200260200101518b83815181106200122a576200122a62002164565b60200260200101518a6001600160a01b0316620019fc9092919063ffffffff16565b600194506200125b565b600094505b806200126781620021c9565b91505062001104565b50600184151514620012865762001286620021e5565b5091979650505050505050565b6200129e336200165b565b620012a857600080fd5b611f40861115620012b857600080fd5b600c95909555600085815260056020908152604080832080546001600160a01b03199081166001600160a01b039c8d169081179092559084526007909252909120959095556015556017805460ff191693151593909317909255600d805490931693909416929092179055601155601455565b600062001338336200165b565b6200134257600080fd5b600a54600b546001600160a01b0391821691908116908416620013695762001369620021e5565b600a546001600160a01b038088169116036200138857839150620013ab565b600b546001600160a01b03808816911603620013a6575082620013ab565b600080fd5b600080620013b98762001679565b92509250506000808311156200142f576000846001600160a01b03168460405160006040518083038185875af1925050503d806000811462001418576040519150601f19603f3d011682016040523d82523d6000602084013e6200141d565b606091505b50509050806200142c57600080fd5b90505b81156200149c576000856001600160a01b03168360405160006040518083038185875af1925050503d806000811462001485576040519150601f19603f3d011682016040523d82523d6000602084013e6200148a565b606091505b50509050806200149957600080fd5b90505b98975050505050505050565b6000620014b5336200165b565b620014bf57600080fd5b6000805b84518110156200160f5760006001600160a01b0316858281518110620014ed57620014ed62002164565b60200260200101516001600160a01b031614620015f5576001600160a01b03808516600090815260076020908152604080832054808452600490925282205488519193169190829063a5f2a1529089908b908890811062001552576200155262002164565b60200260200101518c88815181106200156f576200156f62002164565b60200260200101516040518463ffffffff1660e01b8152600401620015979392919062002375565b6020604051808303816000875af1158015620015b7573d6000803e3d6000fd5b505050506040513d601f19601f82011682018060405250810190620015dd919062002193565b905080620015ea57600080fd5b9350620015fa915050565b600091505b806200160681620021c9565b915050620014c3565b50600181151514620008fb57620008fb620021e5565b62001630336200165b565b6200163a57600080fd5b6001600160a01b03166000908152600160205260409020805460ff19169055565b6001600160a01b031660009081526001602052604090205460ff1690565b6000806000808411620016905762001690620021e5565b60007f0000000000000000000000000000000000000000000000000000000000000000600c5486620016c3919062002316565b620016cf919062002338565b90506000620016df82876200235b565b90506000620016ef8284620022fb565b9050868114620017035762001703620021e5565b969195509350915050565b600082818362001870576001600160a01b03808716600081815260076020908152604080832054808452600590925290912054909216908190819003620013a6576000838152600460205260409020546001600160a01b0316806200177257600080fd5b600084815260066020526040812080549160019190620017938385620022fb565b9091555050600085815260066020526040902054620017b4600183620022fb565b8114620017c057600080fd5b8a60126000828254620017d49190620022fb565b925050819055503460136000828254620017ef9190620022fb565b909155506200180c90506001600160a01b0385168e858e62001a5b565b60408051898152602081018490526001918101919091526001600160a01b0380851691908f16907f1be148ffc14c73233fd9d869986611f77abcfd08494685a6552399ce5f948a209060600160405180910390a360019650505050505050620019f2565b6000805260046020527f17ef568e3e12ab5b9c7254a8d58478811de00f9e6eb34345acd53bf8fd09d3ec546001600160a01b031680620018af57600080fd5b600080805260066020527f54cdd369e4e8a8515e52ca72ec816c2101831ad1f18bf44102ed171459c9b4f880549160019190620018ed8385620022fb565b90915550506000805260066020527f54cdd369e4e8a8515e52ca72ec816c2101831ad1f18bf44102ed171459c9b4f8546200192a600183620022fb565b81146200193657600080fd5b6000836001600160a01b03168960405160006040518083038185875af1925050503d806000811462001985576040519150601f19603f3d011682016040523d82523d6000602084013e6200198a565b606091505b50509050806200199957600080fd5b604080518781526020810185905260008183015290516001600160a01b0386811692908e16917f1be148ffc14c73233fd9d869986611f77abcfd08494685a6552399ce5f948a209181900360600190a360019450505050505b9695505050505050565b62001a568363a9059cbb60e01b848460405160240162001a1e9291906200217a565b60408051601f198184030181529190526020810180516001600160e01b03166001600160e01b03199093169290921790915262001a85565b505050565b62001a7f846323b872dd60e01b85858560405160240162001a1e9392919062002375565b50505050565b600062001adc826040518060400160405280602081526020017f5361666545524332303a206c6f772d6c6576656c2063616c6c206661696c6564815250856001600160a01b031662001b629092919063ffffffff16565b80519091501562001a56578080602001905181019062001afd919062002193565b62001a565760405162461bcd60e51b815260206004820152602a60248201527f5361666545524332303a204552433230206f7065726174696f6e20646964206e6044820152691bdd081cdd58d8d9595960b21b60648201526084015b60405180910390fd5b6060620008fb848460008585600080866001600160a01b0316858760405162001b8c919062002399565b60006040518083038185875af1925050503d806000811462001bcb576040519150601f19603f3d011682016040523d82523d6000602084013e62001bd0565b606091505b509150915062001be38783838762001bee565b979650505050505050565b6060831562001c6257825160000362001c5a576001600160a01b0385163b62001c5a5760405162461bcd60e51b815260206004820152601d60248201527f416464726573733a2063616c6c20746f206e6f6e2d636f6e7472616374000000604482015260640162001b59565b5081620008fb565b620008fb838381511562001c795781518083602001fd5b8060405162461bcd60e51b815260040162001b59919062001d00565b61201e80620023b883390190565b60005b8381101562001cc057818101518382015260200162001ca6565b8381111562001a7f5750506000910152565b6000815180845262001cec81602086016020860162001ca3565b601f01601f19169290920160200192915050565b60208152600062000672602083018462001cd2565b634e487b7160e01b600052604160045260246000fd5b604051601f8201601f191681016001600160401b038111828210171562001d565762001d5662001d15565b604052919050565b60006001600160401b0382111562001d7a5762001d7a62001d15565b5060051b60200190565b600082601f83011262001d9657600080fd5b8135602062001daf62001da98362001d5e565b62001d2b565b82815260059290921b8401810191818101908684111562001dcf57600080fd5b8286015b8481101562001dec578035835291830191830162001dd3565b509695505050505050565b6001600160a01b0381168114620007bd57600080fd5b600082601f83011262001e1f57600080fd5b8135602062001e3262001da98362001d5e565b82815260059290921b8401810191818101908684111562001e5257600080fd5b8286015b8481101562001dec57803562001e6c8162001df7565b835291830191830162001e56565b6000806040838503121562001e8e57600080fd5b82356001600160401b038082111562001ea657600080fd5b62001eb48683870162001d84565b9350602085013591508082111562001ecb57600080fd5b5062001eda8582860162001e0d565b9150509250929050565b60006020828403121562001ef757600080fd5b8135620006728162001df7565b6000806000806080858703121562001f1b57600080fd5b843562001f288162001df7565b9350602085013562001f3a8162001df7565b9250604085013562001f4c8162001df7565b9396929550929360600135925050565b8015158114620007bd57600080fd5b60008060006060848603121562001f8157600080fd5b8335925060208401359150604084013562001f9c8162001f5c565b809150509250925092565b60008060006060848603121562001fbd57600080fd5b833562001fca8162001df7565b925060208401359150604084013562001f9c8162001df7565b60008060006060848603121562001ff957600080fd5b83356001600160401b03808211156200201157600080fd5b6200201f8783880162001d84565b945060208601359150808211156200203657600080fd5b50620020458682870162001e0d565b925050604084013562001f9c8162001df7565b600080604083850312156200206c57600080fd5b8235620020798162001df7565b915060208301356200208b8162001df7565b809150509250929050565b600080600080600080600080610100898b031215620020b457600080fd5b8835620020c18162001df7565b97506020890135620020d38162001df7565b9650604089013595506060890135620020ec8162001f5c565b979a969950949760808101359660a0820135965060c0820135955060e0909101359350915050565b6001600160a01b0391909116815260200190565b600181811c908216806200213d57607f821691505b6020821081036200215e57634e487b7160e01b600052602260045260246000fd5b50919050565b634e487b7160e01b600052603260045260246000fd5b6001600160a01b03929092168252602082015260400190565b600060208284031215620021a657600080fd5b8151620006728162001f5c565b634e487b7160e01b600052601160045260246000fd5b600060018201620021de57620021de620021b3565b5060010190565b634e487b7160e01b600052600160045260246000fd5b6000602082840312156200220e57600080fd5b81516001600160401b03808211156200222657600080fd5b818401915084601f8301126200223b57600080fd5b81518181111562002250576200225062001d15565b62002265601f8201601f191660200162001d2b565b91508082528560208285010111156200227d57600080fd5b6200229081602084016020860162001ca3565b50949350505050565b6001600160a01b0384811682528316602082015260606040820181905260009062000b949083018462001cd2565b6001600160a01b0392831681529116602082015260400190565b600060208284031215620022f457600080fd5b5051919050565b60008219821115620023115762002311620021b3565b500190565b6000816000190483118215151615620023335762002333620021b3565b500290565b6000826200235657634e487b7160e01b600052601260045260246000fd5b500490565b600082821015620023705762002370620021b3565b500390565b6001600160a01b039384168152919092166020820152604081019190915260600190565b60008251620023ad81846020870162001ca3565b919091019291505056fe60806040819052600680546001600160a01b031916301790556200201e388190039081908339810160408190526200003791620002f6565b806040516020016200004a9190620003d6565b604051602081830303815290604052816040516020016200006c919062000413565b604051602081830303815290604052838282816003908051906020019062000096929190620001ea565b508051620000ac906004906020840190620001ea565b505050620000c9620000c3620001a560201b60201c565b620001a9565b8251620000de906003906020860190620001ea565b508151620000f4906004906020850190620001ea565b506040516001600160a01b0382169060009060008051602062001ffe833981519152908290a35050600980546001600160a01b038086166001600160a01b0319928316811790935560088054918816918316919091179055600a80546001810182556000919091527fc65a7bb8d6351c1cf70c95a316cc6a92839c986682d98bc35f958f4883f9d2a801805490911690911790555062000198426203f48062000445565b600c5550620004a8915050565b3390565b600580546001600160a01b038381166001600160a01b03198316811790935560405191169190829060008051602062001ffe83398151915290600090a35050565b828054620001f8906200046c565b90600052602060002090601f0160209004810192826200021c576000855562000267565b82601f106200023757805160ff191683800117855562000267565b8280016001018555821562000267579182015b82811115620002675782518255916020019190600101906200024a565b506200027592915062000279565b5090565b5b808211156200027557600081556001016200027a565b80516001600160a01b0381168114620002a857600080fd5b919050565b634e487b7160e01b600052604160045260246000fd5b60005b83811015620002e0578181015183820152602001620002c6565b83811115620002f0576000848401525b50505050565b6000806000606084860312156200030c57600080fd5b620003178462000290565b9250620003276020850162000290565b60408501519092506001600160401b03808211156200034557600080fd5b818601915086601f8301126200035a57600080fd5b8151818111156200036f576200036f620002ad565b604051601f8201601f19908116603f011681019083821181831017156200039a576200039a620002ad565b81604052828152896020848701011115620003b457600080fd5b620003c7836020830160208801620002c3565b80955050505050509250925092565b670d2acc2ead8e840560c31b815260008251620003fb816008850160208701620002c3565b602960f81b6008939091019283015250600901919050565b67427269646765642d60c01b81526000825162000438816008850160208701620002c3565b9190910160080192915050565b600082198211156200046757634e487b7160e01b600052601160045260246000fd5b500190565b600181811c908216806200048157607f821691505b602082108103620004a257634e487b7160e01b600052602260045260246000fd5b50919050565b611b4680620004b86000396000f3fe60806040526004361061015f5760003560e01c80638da5cb5b116100c45780638da5cb5b1461035557806395d89b41146103735780639a708be314610388578063a457c2d7146103a8578063a5f2a152146103c8578063a9059cbb146103e8578063b09f126614610408578063b90306ad1461041d578063bbb35f691461043d578063d28d885214610473578063d7b96d4e14610488578063dd62ed3e146104a8578063e534155d146104ee578063f2fde38b1461050e578063fd4c9b961461052e57005b8062e733781461016857806306fdde0314610190578063095ea7b3146101b25780630f388b4f146101d25780630f6798a5146101f657806318160ddd1461021657806323b872dd1461022b57806328e1a6041461024b5780632a11ced01461026b578063313ce5671461029857806339509351146102b457806370a08231146102d4578063715018a61461030a578063794f4dd11461031f57005b3661016657005b005b61017b61017636600461174d565b61054e565b60405190151581526020015b60405180910390f35b34801561019c57600080fd5b506101a5610605565b60405161018791906117a5565b3480156101be57600080fd5b5061017b6101cd36600461174d565b610697565b3480156101de57600080fd5b506101e8600b5481565b604051908152602001610187565b34801561020257600080fd5b5061016661021136600461174d565b6106ad565b34801561022257600080fd5b506002546101e8565b34801561023757600080fd5b5061017b6102463660046117d8565b6107ab565b34801561025757600080fd5b5061016661026636600461174d565b610801565b34801561027757600080fd5b5061028b610286366004611819565b610817565b6040516101879190611832565b3480156102a457600080fd5b5060405160128152602001610187565b3480156102c057600080fd5b5061017b6102cf36600461174d565b610841565b3480156102e057600080fd5b506101e86102ef366004611846565b6001600160a01b031660009081526020819052604090205490565b34801561031657600080fd5b5061016661087d565b34801561032b57600080fd5b5061028b61033a366004611819565b6000908152600760205260409020546001600160a01b031690565b34801561036157600080fd5b506005546001600160a01b031661028b565b34801561037f57600080fd5b506101a5610891565b34801561039457600080fd5b506101666103a336600461190d565b6108a0565b3480156103b457600080fd5b5061017b6103c336600461174d565b6108d9565b3480156103d457600080fd5b5061017b6103e33660046117d8565b610917565b3480156103f457600080fd5b5061017b61040336600461174d565b610a50565b34801561041457600080fd5b506101a5610a5d565b34801561042957600080fd5b50610166610438366004611819565b610aeb565b34801561044957600080fd5b5061028b610458366004611819565b6007602052600090815260409020546001600160a01b031681565b34801561047f57600080fd5b506101a5610b00565b34801561049457600080fd5b5060085461028b906001600160a01b031681565b3480156104b457600080fd5b506101e86104c3366004611971565b6001600160a01b03918216600090815260016020908152604080832093909416825291909152205490565b3480156104fa57600080fd5b5060095461028b906001600160a01b031681565b34801561051a57600080fd5b50610166610529366004611846565b610b0d565b34801561053a57600080fd5b5061017b610549366004611846565b610b88565b6008546000906001600160a01b0316336001600160a01b0316148061058657506009546001600160a01b0316336001600160a01b0316145b61058f57600080fd5b4782111561059b574791505b6000836001600160a01b03168360405160006040518083038185875af1925050503d80600081146105e8576040519150601f19603f3d011682016040523d82523d6000602084013e6105ed565b606091505b50509050806105fb57600080fd5b5060019392505050565b606060038054610614906119aa565b80601f0160208091040260200160405190810160405280929190818152602001828054610640906119aa565b801561068d5780601f106106625761010080835404028352916020019161068d565b820191906000526020600020905b81548152906001019060200180831161067057829003601f168201915b5050505050905090565b60006106a4338484610ee6565b50600192915050565b6000612710306001600160a01b03166318160ddd6040518163ffffffff1660e01b8152600401602060405180830381865afa1580156106f0573d6000803e3d6000fd5b505050506040513d601f19601f8201168201806040525081019061071491906119e4565b610720906113ec611a13565b61072a9190611a32565b6040516370a0823160e01b815230906370a082319061074d903390600401611832565b602060405180830381865afa15801561076a573d6000803e3d6000fd5b505050506040513d601f19601f8201168201806040525081019061078e91906119e4565b101590508061079c57600080fd5b6107a68383610f6d565b505050565b60006107b8848484610ff7565b6001600160a01b0384166000908152600160209081526040808320338452909152902054828110156107e957600080fd5b6107f68533858403610ee6565b506001949350505050565b6108096111d2565b610813828261122c565b5050565b600a818154811061082757600080fd5b6000918252602090912001546001600160a01b0316905081565b3360008181526001602090815260408083206001600160a01b038716845290915281205490916106a4918590610878908690611a54565b610ee6565b6108856111d2565b61088f60006112cd565b565b606060048054610614906119aa565b6009546001600160a01b031633036108135781516108c590600390602085019061169f565b5080516107a690600490602084019061169f565b3360009081526001602090815260408083206001600160a01b03861684529091528120548281101561090a57600080fd5b6105fb3385858403610ee6565b6008546000906001600160a01b0316336001600160a01b0316148061094f57506009546001600160a01b0316336001600160a01b0316145b61095857600080fd5b6040516370a0823160e01b81526001600160a01b038516906370a0823190610984903090600401611832565b602060405180830381865afa1580156109a1573d6000803e3d6000fd5b505050506040513d601f19601f820116820180604052508101906109c591906119e4565b821115610a3c576040516370a0823160e01b81526001600160a01b038516906370a08231906109f8903090600401611832565b602060405180830381865afa158015610a15573d6000803e3d6000fd5b505050506040513d601f19601f82011682018060405250810190610a3991906119e4565b91505b6105fb6001600160a01b038516848461131f565b60006106a4338484610ff7565b60048054610a6a906119aa565b80601f0160208091040260200160405190810160405280929190818152602001828054610a96906119aa565b8015610ae35780601f10610ab857610100808354040283529160200191610ae3565b820191906000526020600020905b815481529060010190602001808311610ac657829003601f168201915b505050505081565b610af36111d2565b610afd338261122c565b50565b60038054610a6a906119aa565b610b156111d2565b6001600160a01b038116610b7f5760405162461bcd60e51b815260206004820152602660248201527f4f776e61626c653a206e6577206f776e657220697320746865207a65726f206160448201526564647265737360d01b60648201526084015b60405180910390fd5b610afd816112cd565b6009546000906001600160a01b03838116911614610ede576009546001600160a01b031633819003610d2157600980546001600160a01b0385166001600160a01b03199182168117909255600a80546001810182556000919091527fc65a7bb8d6351c1cf70c95a316cc6a92839c986682d98bc35f958f4883f9d2a80180549091169091179055610c1b42610258611a54565b600c55600654604080516318160ddd60e01b81529051610c979286926001600160a01b03909116916318160ddd916004808201926020929091908290030181865afa158015610c6e573d6000803e3d6000fd5b505050506040513d601f19601f82011682018060405250810190610c9291906119e4565b610f6d565b610ca083610b0d565b6006546040516370a0823160e01b8152610d1c9183916001600160a01b03909116906370a0823190610cd6908490600401611832565b602060405180830381865afa158015610cf3573d6000803e3d6000fd5b505050506040513d601f19601f82011682018060405250810190610d1791906119e4565b61122c565b610e9c565b6127106113ec600660009054906101000a90046001600160a01b03166001600160a01b03166318160ddd6040518163ffffffff1660e01b8152600401602060405180830381865afa158015610d7a573d6000803e3d6000fd5b505050506040513d601f19601f82011682018060405250810190610d9e91906119e4565b610da89190611a13565b610db29190611a32565b6006546040516370a0823160e01b81526001600160a01b03909116906370a0823190610de2908790600401611832565b602060405180830381865afa158015610dff573d6000803e3d6000fd5b505050506040513d601f19601f82011682018060405250810190610e2391906119e4565b10610e9c57600980546001600160a01b0385166001600160a01b03199182168117909255600a80546001810182556000919091527fc65a7bb8d6351c1cf70c95a316cc6a92839c986682d98bc35f958f4883f9d2a80180549091169091179055610e904262015180611a54565b600c55610e9c83610b0d565b826001600160a01b0316816001600160a01b03167f63db4fd02abe7291d8f941514c494426e598a36d386fafa477735f923d30c83e60405160405180910390a3505b506001919050565b6001600160a01b038316610ef957600080fd5b6001600160a01b038216610f0c57600080fd5b6001600160a01b0383811660008181526001602090815260408083209487168084529482529182902085905590518481527f8c5be1e5ebec7d5bd14f71427d1e84f3dd0314c0f7b2291e5b200ac8c7c3b925910160405180910390a3505050565b6001600160a01b038216610f8057600080fd5b8060026000828254610f929190611a54565b90915550506001600160a01b03821660009081526020819052604081208054839290610fbf908490611a54565b90915550506040518181526001600160a01b03831690600090600080516020611af18339815191529060200160405180910390a35050565b60005b600a548110156111c6576127106113ec600660009054906101000a90046001600160a01b03166001600160a01b03166318160ddd6040518163ffffffff1660e01b8152600401602060405180830381865afa15801561105d573d6000803e3d6000fd5b505050506040513d601f19601f8201168201806040525081019061108191906119e4565b61108b9190611a13565b6110959190611a32565b600654600a80546001600160a01b03909216916370a082319190859081106110bf576110bf611a6c565b6000918252602090912001546040516001600160e01b031960e084901b1681526110f5916001600160a01b031690600401611832565b602060405180830381865afa158015611112573d6000803e3d6000fd5b505050506040513d601f19601f8201168201806040525081019061113691906119e4565b106111b457600954600a80546001600160a01b03909216918390811061115e5761115e611a6c565b6000918252602090912001546001600160a01b0316146111b457600c544211156111b4576111b2600a828154811061119857611198611a6c565b6000918252602090912001546001600160a01b0316610b88565b505b806111be81611a82565b915050610ffa565b506107a6838383611371565b6005546001600160a01b0316331461088f5760405162461bcd60e51b815260206004820181905260248201527f4f776e61626c653a2063616c6c6572206973206e6f7420746865206f776e65726044820152606401610b76565b6001600160a01b03821661123f57600080fd5b6001600160a01b0382166000908152602081905260409020548181101561126557600080fd5b6001600160a01b0383166000908152602081905260408120838303905560028054849290611294908490611a9b565b90915550506040518281526000906001600160a01b03851690600080516020611af18339815191529060200160405180910390a3505050565b600580546001600160a01b038381166001600160a01b0319831681179093556040519116919082907f8be0079c531659141344cd1fd0a4f28419497f9722a3daafe3b4186f6b6457e090600090a35050565b604080516001600160a01b038416602482015260448082018490528251808303909101815260649091019091526020810180516001600160e01b031663a9059cbb60e01b1790526107a690849061143d565b6001600160a01b03831661138457600080fd5b6001600160a01b03821661139757600080fd5b6001600160a01b038316600090815260208190526040902054818110156113bd57600080fd5b6001600160a01b038085166000908152602081905260408082208585039055918516815290812080548492906113f4908490611a54565b92505081905550826001600160a01b0316846001600160a01b0316600080516020611af18339815191528460405161142e91815260200190565b60405180910390a35b50505050565b6000611492826040518060400160405280602081526020017f5361666545524332303a206c6f772d6c6576656c2063616c6c206661696c6564815250856001600160a01b031661150f9092919063ffffffff16565b8051909150156107a657808060200190518101906114b09190611ab2565b6107a65760405162461bcd60e51b815260206004820152602a60248201527f5361666545524332303a204552433230206f7065726174696f6e20646964206e6044820152691bdd081cdd58d8d9595960b21b6064820152608401610b76565b606061151e8484600085611526565b949350505050565b6060824710156115875760405162461bcd60e51b815260206004820152602660248201527f416464726573733a20696e73756666696369656e742062616c616e636520666f6044820152651c8818d85b1b60d21b6064820152608401610b76565b600080866001600160a01b031685876040516115a39190611ad4565b60006040518083038185875af1925050503d80600081146115e0576040519150601f19603f3d011682016040523d82523d6000602084013e6115e5565b606091505b50915091506115f687838387611601565b979650505050505050565b60608315611670578251600003611669576001600160a01b0385163b6116695760405162461bcd60e51b815260206004820152601d60248201527f416464726573733a2063616c6c20746f206e6f6e2d636f6e74726163740000006044820152606401610b76565b508161151e565b61151e83838151156116855781518083602001fd5b8060405162461bcd60e51b8152600401610b7691906117a5565b8280546116ab906119aa565b90600052602060002090601f0160209004810192826116cd5760008555611713565b82601f106116e657805160ff1916838001178555611713565b82800160010185558215611713579182015b828111156117135782518255916020019190600101906116f8565b5061171f929150611723565b5090565b5b8082111561171f5760008155600101611724565b6001600160a01b0381168114610afd57600080fd5b6000806040838503121561176057600080fd5b823561176b81611738565b946020939093013593505050565b60005b8381101561179457818101518382015260200161177c565b838111156114375750506000910152565b60208152600082518060208401526117c4816040850160208701611779565b601f01601f19169190910160400192915050565b6000806000606084860312156117ed57600080fd5b83356117f881611738565b9250602084013561180881611738565b929592945050506040919091013590565b60006020828403121561182b57600080fd5b5035919050565b6001600160a01b0391909116815260200190565b60006020828403121561185857600080fd5b813561186381611738565b9392505050565b634e487b7160e01b600052604160045260246000fd5b600082601f83011261189157600080fd5b813567ffffffffffffffff808211156118ac576118ac61186a565b604051601f8301601f19908116603f011681019082821181831017156118d4576118d461186a565b816040528381528660208588010111156118ed57600080fd5b836020870160208301376000602085830101528094505050505092915050565b6000806040838503121561192057600080fd5b823567ffffffffffffffff8082111561193857600080fd5b61194486838701611880565b9350602085013591508082111561195a57600080fd5b5061196785828601611880565b9150509250929050565b6000806040838503121561198457600080fd5b823561198f81611738565b9150602083013561199f81611738565b809150509250929050565b600181811c908216806119be57607f821691505b6020821081036119de57634e487b7160e01b600052602260045260246000fd5b50919050565b6000602082840312156119f657600080fd5b5051919050565b634e487b7160e01b600052601160045260246000fd5b6000816000190483118215151615611a2d57611a2d6119fd565b500290565b600082611a4f57634e487b7160e01b600052601260045260246000fd5b500490565b60008219821115611a6757611a676119fd565b500190565b634e487b7160e01b600052603260045260246000fd5b600060018201611a9457611a946119fd565b5060010190565b600082821015611aad57611aad6119fd565b500390565b600060208284031215611ac457600080fd5b8151801515811461186357600080fd5b60008251611ae6818460208701611779565b919091019291505056feddf252ad1be2c89b69c2b068fc378daa952ba7f163c4a11628f55a4df523b3efa2646970667358221220ec74b497ebfccccc36aed5b863a3b4309a3f26f187f6c6e32d30a17601bab17164736f6c634300080d00338be0079c531659141344cd1fd0a4f28419497f9722a3daafe3b4186f6b6457e0a264697066735822122060eba534beed1535727b51b9dea114a783deb03a88591e1285c553c67440b8d564736f6c634300080d003360806040819052600680546001600160a01b031916301790556200201e388190039081908339810160408190526200003791620002f6565b806040516020016200004a9190620003d6565b604051602081830303815290604052816040516020016200006c919062000413565b604051602081830303815290604052838282816003908051906020019062000096929190620001ea565b508051620000ac906004906020840190620001ea565b505050620000c9620000c3620001a560201b60201c565b620001a9565b8251620000de906003906020860190620001ea565b508151620000f4906004906020850190620001ea565b506040516001600160a01b0382169060009060008051602062001ffe833981519152908290a35050600980546001600160a01b038086166001600160a01b0319928316811790935560088054918816918316919091179055600a80546001810182556000919091527fc65a7bb8d6351c1cf70c95a316cc6a92839c986682d98bc35f958f4883f9d2a801805490911690911790555062000198426203f48062000445565b600c5550620004a8915050565b3390565b600580546001600160a01b038381166001600160a01b03198316811790935560405191169190829060008051602062001ffe83398151915290600090a35050565b828054620001f8906200046c565b90600052602060002090601f0160209004810192826200021c576000855562000267565b82601f106200023757805160ff191683800117855562000267565b8280016001018555821562000267579182015b82811115620002675782518255916020019190600101906200024a565b506200027592915062000279565b5090565b5b808211156200027557600081556001016200027a565b80516001600160a01b0381168114620002a857600080fd5b919050565b634e487b7160e01b600052604160045260246000fd5b60005b83811015620002e0578181015183820152602001620002c6565b83811115620002f0576000848401525b50505050565b6000806000606084860312156200030c57600080fd5b620003178462000290565b9250620003276020850162000290565b60408501519092506001600160401b03808211156200034557600080fd5b818601915086601f8301126200035a57600080fd5b8151818111156200036f576200036f620002ad565b604051601f8201601f19908116603f011681019083821181831017156200039a576200039a620002ad565b81604052828152896020848701011115620003b457600080fd5b620003c7836020830160208801620002c3565b80955050505050509250925092565b670d2acc2ead8e840560c31b815260008251620003fb816008850160208701620002c3565b602960f81b6008939091019283015250600901919050565b67427269646765642d60c01b81526000825162000438816008850160208701620002c3565b9190910160080192915050565b600082198211156200046757634e487b7160e01b600052601160045260246000fd5b500190565b600181811c908216806200048157607f821691505b602082108103620004a257634e487b7160e01b600052602260045260246000fd5b50919050565b611b4680620004b86000396000f3fe60806040526004361061015f5760003560e01c80638da5cb5b116100c45780638da5cb5b1461035557806395d89b41146103735780639a708be314610388578063a457c2d7146103a8578063a5f2a152146103c8578063a9059cbb146103e8578063b09f126614610408578063b90306ad1461041d578063bbb35f691461043d578063d28d885214610473578063d7b96d4e14610488578063dd62ed3e146104a8578063e534155d146104ee578063f2fde38b1461050e578063fd4c9b961461052e57005b8062e733781461016857806306fdde0314610190578063095ea7b3146101b25780630f388b4f146101d25780630f6798a5146101f657806318160ddd1461021657806323b872dd1461022b57806328e1a6041461024b5780632a11ced01461026b578063313ce5671461029857806339509351146102b457806370a08231146102d4578063715018a61461030a578063794f4dd11461031f57005b3661016657005b005b61017b61017636600461174d565b61054e565b60405190151581526020015b60405180910390f35b34801561019c57600080fd5b506101a5610605565b60405161018791906117a5565b3480156101be57600080fd5b5061017b6101cd36600461174d565b610697565b3480156101de57600080fd5b506101e8600b5481565b604051908152602001610187565b34801561020257600080fd5b5061016661021136600461174d565b6106ad565b34801561022257600080fd5b506002546101e8565b34801561023757600080fd5b5061017b6102463660046117d8565b6107ab565b34801561025757600080fd5b5061016661026636600461174d565b610801565b34801561027757600080fd5b5061028b610286366004611819565b610817565b6040516101879190611832565b3480156102a457600080fd5b5060405160128152602001610187565b3480156102c057600080fd5b5061017b6102cf36600461174d565b610841565b3480156102e057600080fd5b506101e86102ef366004611846565b6001600160a01b031660009081526020819052604090205490565b34801561031657600080fd5b5061016661087d565b34801561032b57600080fd5b5061028b61033a366004611819565b6000908152600760205260409020546001600160a01b031690565b34801561036157600080fd5b506005546001600160a01b031661028b565b34801561037f57600080fd5b506101a5610891565b34801561039457600080fd5b506101666103a336600461190d565b6108a0565b3480156103b457600080fd5b5061017b6103c336600461174d565b6108d9565b3480156103d457600080fd5b5061017b6103e33660046117d8565b610917565b3480156103f457600080fd5b5061017b61040336600461174d565b610a50565b34801561041457600080fd5b506101a5610a5d565b34801561042957600080fd5b50610166610438366004611819565b610aeb565b34801561044957600080fd5b5061028b610458366004611819565b6007602052600090815260409020546001600160a01b031681565b34801561047f57600080fd5b506101a5610b00565b34801561049457600080fd5b5060085461028b906001600160a01b031681565b3480156104b457600080fd5b506101e86104c3366004611971565b6001600160a01b03918216600090815260016020908152604080832093909416825291909152205490565b3480156104fa57600080fd5b5060095461028b906001600160a01b031681565b34801561051a57600080fd5b50610166610529366004611846565b610b0d565b34801561053a57600080fd5b5061017b610549366004611846565b610b88565b6008546000906001600160a01b0316336001600160a01b0316148061058657506009546001600160a01b0316336001600160a01b0316145b61058f57600080fd5b4782111561059b574791505b6000836001600160a01b03168360405160006040518083038185875af1925050503d80600081146105e8576040519150601f19603f3d011682016040523d82523d6000602084013e6105ed565b606091505b50509050806105fb57600080fd5b5060019392505050565b606060038054610614906119aa565b80601f0160208091040260200160405190810160405280929190818152602001828054610640906119aa565b801561068d5780601f106106625761010080835404028352916020019161068d565b820191906000526020600020905b81548152906001019060200180831161067057829003601f168201915b5050505050905090565b60006106a4338484610ee6565b50600192915050565b6000612710306001600160a01b03166318160ddd6040518163ffffffff1660e01b8152600401602060405180830381865afa1580156106f0573d6000803e3d6000fd5b505050506040513d601f19601f8201168201806040525081019061071491906119e4565b610720906113ec611a13565b61072a9190611a32565b6040516370a0823160e01b815230906370a082319061074d903390600401611832565b602060405180830381865afa15801561076a573d6000803e3d6000fd5b505050506040513d601f19601f8201168201806040525081019061078e91906119e4565b101590508061079c57600080fd5b6107a68383610f6d565b505050565b60006107b8848484610ff7565b6001600160a01b0384166000908152600160209081526040808320338452909152902054828110156107e957600080fd5b6107f68533858403610ee6565b506001949350505050565b6108096111d2565b610813828261122c565b5050565b600a818154811061082757600080fd5b6000918252602090912001546001600160a01b0316905081565b3360008181526001602090815260408083206001600160a01b038716845290915281205490916106a4918590610878908690611a54565b610ee6565b6108856111d2565b61088f60006112cd565b565b606060048054610614906119aa565b6009546001600160a01b031633036108135781516108c590600390602085019061169f565b5080516107a690600490602084019061169f565b3360009081526001602090815260408083206001600160a01b03861684529091528120548281101561090a57600080fd5b6105fb3385858403610ee6565b6008546000906001600160a01b0316336001600160a01b0316148061094f57506009546001600160a01b0316336001600160a01b0316145b61095857600080fd5b6040516370a0823160e01b81526001600160a01b038516906370a0823190610984903090600401611832565b602060405180830381865afa1580156109a1573d6000803e3d6000fd5b505050506040513d601f19601f820116820180604052508101906109c591906119e4565b821115610a3c576040516370a0823160e01b81526001600160a01b038516906370a08231906109f8903090600401611832565b602060405180830381865afa158015610a15573d6000803e3d6000fd5b505050506040513d601f19601f82011682018060405250810190610a3991906119e4565b91505b6105fb6001600160a01b038516848461131f565b60006106a4338484610ff7565b60048054610a6a906119aa565b80601f0160208091040260200160405190810160405280929190818152602001828054610a96906119aa565b8015610ae35780601f10610ab857610100808354040283529160200191610ae3565b820191906000526020600020905b815481529060010190602001808311610ac657829003601f168201915b505050505081565b610af36111d2565b610afd338261122c565b50565b60038054610a6a906119aa565b610b156111d2565b6001600160a01b038116610b7f5760405162461bcd60e51b815260206004820152602660248201527f4f776e61626c653a206e6577206f776e657220697320746865207a65726f206160448201526564647265737360d01b60648201526084015b60405180910390fd5b610afd816112cd565b6009546000906001600160a01b03838116911614610ede576009546001600160a01b031633819003610d2157600980546001600160a01b0385166001600160a01b03199182168117909255600a80546001810182556000919091527fc65a7bb8d6351c1cf70c95a316cc6a92839c986682d98bc35f958f4883f9d2a80180549091169091179055610c1b42610258611a54565b600c55600654604080516318160ddd60e01b81529051610c979286926001600160a01b03909116916318160ddd916004808201926020929091908290030181865afa158015610c6e573d6000803e3d6000fd5b505050506040513d601f19601f82011682018060405250810190610c9291906119e4565b610f6d565b610ca083610b0d565b6006546040516370a0823160e01b8152610d1c9183916001600160a01b03909116906370a0823190610cd6908490600401611832565b602060405180830381865afa158015610cf3573d6000803e3d6000fd5b505050506040513d601f19601f82011682018060405250810190610d1791906119e4565b61122c565b610e9c565b6127106113ec600660009054906101000a90046001600160a01b03166001600160a01b03166318160ddd6040518163ffffffff1660e01b8152600401602060405180830381865afa158015610d7a573d6000803e3d6000fd5b505050506040513d601f19601f82011682018060405250810190610d9e91906119e4565b610da89190611a13565b610db29190611a32565b6006546040516370a0823160e01b81526001600160a01b03909116906370a0823190610de2908790600401611832565b602060405180830381865afa158015610dff573d6000803e3d6000fd5b505050506040513d601f19601f82011682018060405250810190610e2391906119e4565b10610e9c57600980546001600160a01b0385166001600160a01b03199182168117909255600a80546001810182556000919091527fc65a7bb8d6351c1cf70c95a316cc6a92839c986682d98bc35f958f4883f9d2a80180549091169091179055610e904262015180611a54565b600c55610e9c83610b0d565b826001600160a01b0316816001600160a01b03167f63db4fd02abe7291d8f941514c494426e598a36d386fafa477735f923d30c83e60405160405180910390a3505b506001919050565b6001600160a01b038316610ef957600080fd5b6001600160a01b038216610f0c57600080fd5b6001600160a01b0383811660008181526001602090815260408083209487168084529482529182902085905590518481527f8c5be1e5ebec7d5bd14f71427d1e84f3dd0314c0f7b2291e5b200ac8c7c3b925910160405180910390a3505050565b6001600160a01b038216610f8057600080fd5b8060026000828254610f929190611a54565b90915550506001600160a01b03821660009081526020819052604081208054839290610fbf908490611a54565b90915550506040518181526001600160a01b03831690600090600080516020611af18339815191529060200160405180910390a35050565b60005b600a548110156111c6576127106113ec600660009054906101000a90046001600160a01b03166001600160a01b03166318160ddd6040518163ffffffff1660e01b8152600401602060405180830381865afa15801561105d573d6000803e3d6000fd5b505050506040513d601f19601f8201168201806040525081019061108191906119e4565b61108b9190611a13565b6110959190611a32565b600654600a80546001600160a01b03909216916370a082319190859081106110bf576110bf611a6c565b6000918252602090912001546040516001600160e01b031960e084901b1681526110f5916001600160a01b031690600401611832565b602060405180830381865afa158015611112573d6000803e3d6000fd5b505050506040513d601f19601f8201168201806040525081019061113691906119e4565b106111b457600954600a80546001600160a01b03909216918390811061115e5761115e611a6c565b6000918252602090912001546001600160a01b0316146111b457600c544211156111b4576111b2600a828154811061119857611198611a6c565b6000918252602090912001546001600160a01b0316610b88565b505b806111be81611a82565b915050610ffa565b506107a6838383611371565b6005546001600160a01b0316331461088f5760405162461bcd60e51b815260206004820181905260248201527f4f776e61626c653a2063616c6c6572206973206e6f7420746865206f776e65726044820152606401610b76565b6001600160a01b03821661123f57600080fd5b6001600160a01b0382166000908152602081905260409020548181101561126557600080fd5b6001600160a01b0383166000908152602081905260408120838303905560028054849290611294908490611a9b565b90915550506040518281526000906001600160a01b03851690600080516020611af18339815191529060200160405180910390a3505050565b600580546001600160a01b038381166001600160a01b0319831681179093556040519116919082907f8be0079c531659141344cd1fd0a4f28419497f9722a3daafe3b4186f6b6457e090600090a35050565b604080516001600160a01b038416602482015260448082018490528251808303909101815260649091019091526020810180516001600160e01b031663a9059cbb60e01b1790526107a690849061143d565b6001600160a01b03831661138457600080fd5b6001600160a01b03821661139757600080fd5b6001600160a01b038316600090815260208190526040902054818110156113bd57600080fd5b6001600160a01b038085166000908152602081905260408082208585039055918516815290812080548492906113f4908490611a54565b92505081905550826001600160a01b0316846001600160a01b0316600080516020611af18339815191528460405161142e91815260200190565b60405180910390a35b50505050565b6000611492826040518060400160405280602081526020017f5361666545524332303a206c6f772d6c6576656c2063616c6c206661696c6564815250856001600160a01b031661150f9092919063ffffffff16565b8051909150156107a657808060200190518101906114b09190611ab2565b6107a65760405162461bcd60e51b815260206004820152602a60248201527f5361666545524332303a204552433230206f7065726174696f6e20646964206e6044820152691bdd081cdd58d8d9595960b21b6064820152608401610b76565b606061151e8484600085611526565b949350505050565b6060824710156115875760405162461bcd60e51b815260206004820152602660248201527f416464726573733a20696e73756666696369656e742062616c616e636520666f6044820152651c8818d85b1b60d21b6064820152608401610b76565b600080866001600160a01b031685876040516115a39190611ad4565b60006040518083038185875af1925050503d80600081146115e0576040519150601f19603f3d011682016040523d82523d6000602084013e6115e5565b606091505b50915091506115f687838387611601565b979650505050505050565b60608315611670578251600003611669576001600160a01b0385163b6116695760405162461bcd60e51b815260206004820152601d60248201527f416464726573733a2063616c6c20746f206e6f6e2d636f6e74726163740000006044820152606401610b76565b508161151e565b61151e83838151156116855781518083602001fd5b8060405162461bcd60e51b8152600401610b7691906117a5565b8280546116ab906119aa565b90600052602060002090601f0160209004810192826116cd5760008555611713565b82601f106116e657805160ff1916838001178555611713565b82800160010185558215611713579182015b828111156117135782518255916020019190600101906116f8565b5061171f929150611723565b5090565b5b8082111561171f5760008155600101611724565b6001600160a01b0381168114610afd57600080fd5b6000806040838503121561176057600080fd5b823561176b81611738565b946020939093013593505050565b60005b8381101561179457818101518382015260200161177c565b838111156114375750506000910152565b60208152600082518060208401526117c4816040850160208701611779565b601f01601f19169190910160400192915050565b6000806000606084860312156117ed57600080fd5b83356117f881611738565b9250602084013561180881611738565b929592945050506040919091013590565b60006020828403121561182b57600080fd5b5035919050565b6001600160a01b0391909116815260200190565b60006020828403121561185857600080fd5b813561186381611738565b9392505050565b634e487b7160e01b600052604160045260246000fd5b600082601f83011261189157600080fd5b813567ffffffffffffffff808211156118ac576118ac61186a565b604051601f8301601f19908116603f011681019082821181831017156118d4576118d461186a565b816040528381528660208588010111156118ed57600080fd5b836020870160208301376000602085830101528094505050505092915050565b6000806040838503121561192057600080fd5b823567ffffffffffffffff8082111561193857600080fd5b61194486838701611880565b9350602085013591508082111561195a57600080fd5b5061196785828601611880565b9150509250929050565b6000806040838503121561198457600080fd5b823561198f81611738565b9150602083013561199f81611738565b809150509250929050565b600181811c908216806119be57607f821691505b6020821081036119de57634e487b7160e01b600052602260045260246000fd5b50919050565b6000602082840312156119f657600080fd5b5051919050565b634e487b7160e01b600052601160045260246000fd5b6000816000190483118215151615611a2d57611a2d6119fd565b500290565b600082611a4f57634e487b7160e01b600052601260045260246000fd5b500490565b60008219821115611a6757611a676119fd565b500190565b634e487b7160e01b600052603260045260246000fd5b600060018201611a9457611a946119fd565b5060010190565b600082821015611aad57611aad6119fd565b500390565b600060208284031215611ac457600080fd5b8151801515811461186357600080fd5b60008251611ae6818460208701611779565b919091019291505056feddf252ad1be2c89b69c2b068fc378daa952ba7f163c4a11628f55a4df523b3efa2646970667358221220ec74b497ebfccccc36aed5b863a3b4309a3f26f187f6c6e32d30a17601bab17164736f6c634300080d00338be0079c531659141344cd1fd0a4f28419497f9722a3daafe3b4186f6b6457e0a2646970667358221220564aceabee024600c28ce88c4f660233cb3c635c6a9be1d2e3330a38e7fd023664736f6c634300080d003360e0604052600460a081905263784fca4960e11b60c090815262000027916008919062000239565b5060408051808201909152600480825263f09f949160e01b6020909201918252620000559160099162000239565b50600a80546001600160a01b031990811673050134fd4ea6547846ede4c4bf46a334b7e87ccd17909155600b8054821673d166df9dfb917c3b960673e2f420f928d45c9be1179055611388600c556127106080819052600d80549092167367954768e721fad0f0f21e33e874497c73ed6a82179091556010556102ee60115560006012819055601355660d8014722580006014556934f086f3b33b6840000060155569d3c21bcecceda10000006016556017805460ff1916905560405162006822388190039081908339810160408190526200013191620002ed565b600a54600b54600080546001600160a01b0319163390811782558152600160208190526040808320805460ff1990811684179091556001600160a01b0395861684528184208054821684179055949093168252919020805490921617905580620001983390565b604080518082018252600381526208aa8960eb1b60208201529051620001be90620002c8565b620001cc939291906200031f565b604051809103906000f080158015620001e9573d6000803e3d6000fd5b506000805260046020527f17ef568e3e12ab5b9c7254a8d58478811de00f9e6eb34345acd53bf8fd09d3ec80546001600160a01b0319166001600160a01b039290921691909117905550620003cf565b828054620002479062000393565b90600052602060002090601f0160209004810192826200026b5760008555620002b6565b82601f106200028657805160ff1916838001178555620002b6565b82800160010185558215620002b6579182015b82811115620002b657825182559160200191906001019062000299565b50620002c4929150620002d6565b5090565b61201e806200480483390190565b5b80821115620002c45760008155600101620002d7565b6000602082840312156200030057600080fd5b81516001600160a01b03811681146200031857600080fd5b9392505050565b600060018060a01b038086168352602081861681850152606060408501528451915081606085015260005b8281101562000368578581018201518582016080015281016200034a565b828111156200037b576000608084870101525b5050601f01601f191691909101608001949350505050565b600181811c90821680620003a857607f821691505b602082108103620003c957634e487b7160e01b600052602260045260246000fd5b50919050565b60805161440b620003f960003960008181610cbd015281816111520152611694015261440b6000f3fe6080604052600436106200012b5760003560e01c80638cd0acc311620000a55780638cd0acc314620002b457806395d89b4114620002d9578063b20b119c14620002f1578063b6a5d7de1462000309578063c6eceb10146200032e578063c79d43911462000346578063d9a06dbd146200036b578063db236d961462000390578063dbba0f0114620003e9578063dd457d76146200040e578063f0b37c04146200043357005b806306fdde0314620001355780630cba52f914620001655780633ccfd60b146200018d5780634360201714620001a5578063528856f414620001ca578063560d999514620001ef578063570e9f7014620002065780636532d899146200022d5780637d21bbe21462000252578063841ba87d146200027757806389476069146200028f57005b366200013357005b005b3480156200014257600080fd5b506200014d62000458565b6040516200015c919062001d00565b60405180910390f35b6200017c6200017636600462001e7a565b620004ee565b60405190151581526020016200015c565b3480156200019a57600080fd5b506200013362000679565b348015620001b257600080fd5b5062000133620001c436600462001ee4565b6200079d565b348015620001d757600080fd5b506200017c620001e936600462001f04565b620007c0565b6200017c6200020036600462001f6b565b62000903565b3480156200021357600080fd5b506200021e60115481565b6040519081526020016200015c565b3480156200023a57600080fd5b506200017c6200024c36600462001fa7565b62000b9d565b3480156200025f57600080fd5b506200017c6200027136600462001fe3565b62000c2d565b3480156200028457600080fd5b506200021e60135481565b3480156200029c57600080fd5b5062000133620002ae36600462001ee4565b62000dfd565b348015620002c157600080fd5b506200017c620002d336600462002058565b62001015565b348015620002e657600080fd5b506200014d62001064565b348015620002fe57600080fd5b506200021e60125481565b3480156200031657600080fd5b50620001336200032836600462001ee4565b62001073565b3480156200033b57600080fd5b506200021e60145481565b3480156200035357600080fd5b506200017c6200036536600462001fe3565b620010af565b3480156200037857600080fd5b50620001336200038a36600462002096565b62001293565b3480156200039d57600080fd5b50620003da620003af36600462001ee4565b6001600160a01b03908116600090815260076020908152604080832054835260049091529020541690565b6040516200015c919062002114565b348015620003f657600080fd5b506200017c6200040836600462001fa7565b6200132b565b3480156200041b57600080fd5b506200017c6200042d36600462001fe3565b620014a8565b3480156200044057600080fd5b50620001336200045236600462001ee4565b62001625565b60088054620004679062002128565b80601f0160208091040260200160405190810160405280929190818152602001828054620004959062002128565b8015620004e65780601f10620004ba57610100808354040283529160200191620004e6565b820191906000526020600020905b815481529060010190602001808311620004c857829003601f168201915b505050505081565b6000620004fb336200165b565b6200050557600080fd5b6000805b83518110156200065c5760006001600160a01b031684828151811062000533576200053362002164565b60200260200101516001600160a01b0316146200064257600080805260046020527f17ef568e3e12ab5b9c7254a8d58478811de00f9e6eb34345acd53bf8fd09d3ec5485516001600160a01b039091169190829062e7337890889086908110620005a157620005a162002164565b6020026020010151898681518110620005be57620005be62002164565b60200260200101516040518363ffffffff1660e01b8152600401620005e59291906200217a565b6020604051808303816000875af115801562000605573d6000803e3d6000fd5b505050506040513d601f19601f820116820180604052508101906200062b919062002193565b9050806200063857600080fd5b9250620006479050565b600091505b806200065381620021c9565b91505062000509565b50600181151514620006725762000672620021e5565b9392505050565b4760008080620006898462001679565b9194509250905060008215620006f457600b546040516000916001600160a01b03169085908381818185875af1925050503d8060008114620006e8576040519150601f19603f3d011682016040523d82523d6000602084013e620006ed565b606091505b5090925050505b81156200075657600a546040516000916001600160a01b03169084908381818185875af1925050503d80600081146200074a576040519150601f19603f3d011682016040523d82523d6000602084013e6200074f565b606091505b5090925050505b806200076157600080fd5b60405184815230907f7fcf532c15f0a6db0bd6d0e038bea71d30d808c7d98cb3bf7268a95bf5081b659060200160405180910390a25050505050565b620007a8336200165b565b620007b257600080fd5b620007bd8162001073565b50565b6000620007cd336200165b565b620007d757600080fd5b600d80546001600160a01b038087166001600160a01b0319928316179092556000848152600560205260409020805492881692909116919091179055826200081c3390565b866001600160a01b03166395d89b416040518163ffffffff1660e01b8152600401600060405180830381865afa1580156200085b573d6000803e3d6000fd5b505050506040513d6000823e601f3d908101601f19168201604052620008859190810190620021fb565b604051620008939062001c95565b620008a19392919062002299565b604051809103906000f080158015620008be573d6000803e3d6000fd5b50600083815260046020908152604080832080546001600160a01b0319166001600160a01b03958616179055600590915290205486821691161490505b949350505050565b6000828152600560205260408120546001600160a01b0316806200092657600080fd5b600a546001600160a01b0316336001600160a01b0316141580156200095f5750600b546001600160a01b0316336001600160a01b031614155b1562000b625760175460ff1662000a8c578262000a7e57604051636eb1769f60e11b815285906001600160a01b0383169063dd62ed3e90620009a89033903090600401620022c7565b602060405180830381865afa158015620009c6573d6000803e3d6000fd5b505050506040513d601f19601f82011682018060405250810190620009ec9190620022e1565b1015620009f857600080fd5b846001600160a01b0382166370a08231335b6040518263ffffffff1660e01b815260040162000a28919062002114565b602060405180830381865afa15801562000a46573d6000803e3d6000fd5b505050506040513d601f19601f8201168201806040525081019062000a6c9190620022e1565b101562000a7857600080fd5b62000b62565b8434101562000a7857600080fd5b8262000b465760115462000aa19086620022fb565b604051636eb1769f60e11b81526001600160a01b0383169063dd62ed3e9062000ad19033903090600401620022c7565b602060405180830381865afa15801562000aef573d6000803e3d6000fd5b505050506040513d601f19601f8201168201806040525081019062000b159190620022e1565b101562000b2157600080fd5b60115462000b309086620022fb565b6001600160a01b0382166370a082313362000a0a565b60145462000b559086620022fb565b34101562000b6257600080fd5b60155485111562000b7257600080fd5b600062000b82338388876200170e565b905060018115151462000b9457600080fd5b95945050505050565b600062000baa336200165b565b62000bb457600080fd5b6001600160a01b03821662000bcd5762000bcd620021e5565b62000be36001600160a01b0385168385620019fc565b6001600160a01b0380851660008181526007602090815260408083205480845260059092529091205490921690819062000c209082878962001a5b565b5060019695505050505050565b600062000c3a336200165b565b62000c4457600080fd5b600a54600090819081906001600160a01b0316336001600160a01b03161462000c6c57600192505b60005b865181101562000ddd5760006001600160a01b031687828151811062000c995762000c9962002164565b60200260200101516001600160a01b03161462000dc35783151560010362000d61577f0000000000000000000000000000000000000000000000000000000000000000600c5489838151811062000cf45762000cf462002164565b602002602001015162000d08919062002316565b62000d14919062002338565b91508188828151811062000d2c5762000d2c62002164565b6020026020010181815162000d4291906200235b565b905250600a5462000d61906001600160a01b03888116911684620019fc565b62000db987828151811062000d7a5762000d7a62002164565b602002602001015189838151811062000d975762000d9762002164565b6020026020010151886001600160a01b0316620019fc9092919063ffffffff16565b6001925062000dc8565b600092505b8062000dd481620021c9565b91505062000c6f565b5060018215151462000df35762000df3620021e5565b5095945050505050565b62000e08336200165b565b62000e1257600080fd5b6040516370a0823160e01b81526000906001600160a01b038316906370a082319062000e4390309060040162002114565b602060405180830381865afa15801562000e61573d6000803e3d6000fd5b505050506040513d601f19601f8201168201806040525081019062000e879190620022e1565b6001600160a01b03808416600090815260076020908152604080832054808452600590925282205493945092909116908062000ec38562001679565b9250925050826001600160a01b0316866001600160a01b03161462000f535760008211801562000ef35750600081115b1562000f3757600b5462000f15906001600160a01b03888116911684620019fc565b600a5462000f31906001600160a01b03888116911683620019fc565b62000fcd565b600a5462000f31906001600160a01b03888116911687620019fc565b826001600160a01b0316866001600160a01b031614801562000f7c575060175460ff1615156001145b1562000fb15760008211801562000ef35750801562000f3757600b5462000f15906001600160a01b03888116911684620019fc565b600b5462000fcd906001600160a01b03888116911687620019fc565b6040518581526001600160a01b0387169030907f037238854fe57fbf51f09946f854fc3916fe83938d6521f09bd05463839f13049060200160405180910390a3505050505050565b600062001022336200165b565b6200102c57600080fd5b6001600160a01b03831633146200104257600080fd5b60006200104f8362001073565b6200105a8462001625565b5060019392505050565b60098054620004679062002128565b6200107e336200165b565b6200108857600080fd5b6001600160a01b03166000908152600160208190526040909120805460ff19169091179055565b6000620010bc336200165b565b620010c657600080fd5b6000339050600080600080600c54612710620010e391906200235b565b600a549091506001600160a01b038681169116146200110157600192505b60005b8851811015620012705760006001600160a01b03168982815181106200112e576200112e62002164565b60200260200101516001600160a01b0316146200125657831515600103620011f4577f0000000000000000000000000000000000000000000000000000000000000000828b838151811062001187576200118762002164565b60200260200101516200119b919062002316565b620011a7919062002338565b9250828a8281518110620011bf57620011bf62002164565b60200260200101818151620011d591906200235b565b905250600a54620011f4906001600160a01b038a8116911685620019fc565b6200124c8982815181106200120d576200120d62002164565b60200260200101518b83815181106200122a576200122a62002164565b60200260200101518a6001600160a01b0316620019fc9092919063ffffffff16565b600194506200125b565b600094505b806200126781620021c9565b91505062001104565b50600184151514620012865762001286620021e5565b5091979650505050505050565b6200129e336200165b565b620012a857600080fd5b611f40861115620012b857600080fd5b600c95909555600085815260056020908152604080832080546001600160a01b03199081166001600160a01b039c8d169081179092559084526007909252909120959095556015556017805460ff191693151593909317909255600d805490931693909416929092179055601155601455565b600062001338336200165b565b6200134257600080fd5b600a54600b546001600160a01b0391821691908116908416620013695762001369620021e5565b600a546001600160a01b038088169116036200138857839150620013ab565b600b546001600160a01b03808816911603620013a6575082620013ab565b600080fd5b600080620013b98762001679565b92509250506000808311156200142f576000846001600160a01b03168460405160006040518083038185875af1925050503d806000811462001418576040519150601f19603f3d011682016040523d82523d6000602084013e6200141d565b606091505b50509050806200142c57600080fd5b90505b81156200149c576000856001600160a01b03168360405160006040518083038185875af1925050503d806000811462001485576040519150601f19603f3d011682016040523d82523d6000602084013e6200148a565b606091505b50509050806200149957600080fd5b90505b98975050505050505050565b6000620014b5336200165b565b620014bf57600080fd5b6000805b84518110156200160f5760006001600160a01b0316858281518110620014ed57620014ed62002164565b60200260200101516001600160a01b031614620015f5576001600160a01b03808516600090815260076020908152604080832054808452600490925282205488519193169190829063a5f2a1529089908b908890811062001552576200155262002164565b60200260200101518c88815181106200156f576200156f62002164565b60200260200101516040518463ffffffff1660e01b8152600401620015979392919062002375565b6020604051808303816000875af1158015620015b7573d6000803e3d6000fd5b505050506040513d601f19601f82011682018060405250810190620015dd919062002193565b905080620015ea57600080fd5b9350620015fa915050565b600091505b806200160681620021c9565b915050620014c3565b50600181151514620008fb57620008fb620021e5565b62001630336200165b565b6200163a57600080fd5b6001600160a01b03166000908152600160205260409020805460ff19169055565b6001600160a01b031660009081526001602052604090205460ff1690565b6000806000808411620016905762001690620021e5565b60007f0000000000000000000000000000000000000000000000000000000000000000600c5486620016c3919062002316565b620016cf919062002338565b90506000620016df82876200235b565b90506000620016ef8284620022fb565b9050868114620017035762001703620021e5565b969195509350915050565b600082818362001870576001600160a01b03808716600081815260076020908152604080832054808452600590925290912054909216908190819003620013a6576000838152600460205260409020546001600160a01b0316806200177257600080fd5b600084815260066020526040812080549160019190620017938385620022fb565b9091555050600085815260066020526040902054620017b4600183620022fb565b8114620017c057600080fd5b8a60126000828254620017d49190620022fb565b925050819055503460136000828254620017ef9190620022fb565b909155506200180c90506001600160a01b0385168e858e62001a5b565b60408051898152602081018490526001918101919091526001600160a01b0380851691908f16907f1be148ffc14c73233fd9d869986611f77abcfd08494685a6552399ce5f948a209060600160405180910390a360019650505050505050620019f2565b6000805260046020527f17ef568e3e12ab5b9c7254a8d58478811de00f9e6eb34345acd53bf8fd09d3ec546001600160a01b031680620018af57600080fd5b600080805260066020527f54cdd369e4e8a8515e52ca72ec816c2101831ad1f18bf44102ed171459c9b4f880549160019190620018ed8385620022fb565b90915550506000805260066020527f54cdd369e4e8a8515e52ca72ec816c2101831ad1f18bf44102ed171459c9b4f8546200192a600183620022fb565b81146200193657600080fd5b6000836001600160a01b03168960405160006040518083038185875af1925050503d806000811462001985576040519150601f19603f3d011682016040523d82523d6000602084013e6200198a565b606091505b50509050806200199957600080fd5b604080518781526020810185905260008183015290516001600160a01b0386811692908e16917f1be148ffc14c73233fd9d869986611f77abcfd08494685a6552399ce5f948a209181900360600190a360019450505050505b9695505050505050565b62001a568363a9059cbb60e01b848460405160240162001a1e9291906200217a565b60408051601f198184030181529190526020810180516001600160e01b03166001600160e01b03199093169290921790915262001a85565b505050565b62001a7f846323b872dd60e01b85858560405160240162001a1e9392919062002375565b50505050565b600062001adc826040518060400160405280602081526020017f5361666545524332303a206c6f772d6c6576656c2063616c6c206661696c6564815250856001600160a01b031662001b629092919063ffffffff16565b80519091501562001a56578080602001905181019062001afd919062002193565b62001a565760405162461bcd60e51b815260206004820152602a60248201527f5361666545524332303a204552433230206f7065726174696f6e20646964206e6044820152691bdd081cdd58d8d9595960b21b60648201526084015b60405180910390fd5b6060620008fb848460008585600080866001600160a01b0316858760405162001b8c919062002399565b60006040518083038185875af1925050503d806000811462001bcb576040519150601f19603f3d011682016040523d82523d6000602084013e62001bd0565b606091505b509150915062001be38783838762001bee565b979650505050505050565b6060831562001c6257825160000362001c5a576001600160a01b0385163b62001c5a5760405162461bcd60e51b815260206004820152601d60248201527f416464726573733a2063616c6c20746f206e6f6e2d636f6e7472616374000000604482015260640162001b59565b5081620008fb565b620008fb838381511562001c795781518083602001fd5b8060405162461bcd60e51b815260040162001b59919062001d00565b61201e80620023b883390190565b60005b8381101562001cc057818101518382015260200162001ca6565b8381111562001a7f5750506000910152565b6000815180845262001cec81602086016020860162001ca3565b601f01601f19169290920160200192915050565b60208152600062000672602083018462001cd2565b634e487b7160e01b600052604160045260246000fd5b604051601f8201601f191681016001600160401b038111828210171562001d565762001d5662001d15565b604052919050565b60006001600160401b0382111562001d7a5762001d7a62001d15565b5060051b60200190565b600082601f83011262001d9657600080fd5b8135602062001daf62001da98362001d5e565b62001d2b565b82815260059290921b8401810191818101908684111562001dcf57600080fd5b8286015b8481101562001dec578035835291830191830162001dd3565b509695505050505050565b6001600160a01b0381168114620007bd57600080fd5b600082601f83011262001e1f57600080fd5b8135602062001e3262001da98362001d5e565b82815260059290921b8401810191818101908684111562001e5257600080fd5b8286015b8481101562001dec57803562001e6c8162001df7565b835291830191830162001e56565b6000806040838503121562001e8e57600080fd5b82356001600160401b038082111562001ea657600080fd5b62001eb48683870162001d84565b9350602085013591508082111562001ecb57600080fd5b5062001eda8582860162001e0d565b9150509250929050565b60006020828403121562001ef757600080fd5b8135620006728162001df7565b6000806000806080858703121562001f1b57600080fd5b843562001f288162001df7565b9350602085013562001f3a8162001df7565b9250604085013562001f4c8162001df7565b9396929550929360600135925050565b8015158114620007bd57600080fd5b60008060006060848603121562001f8157600080fd5b8335925060208401359150604084013562001f9c8162001f5c565b809150509250925092565b60008060006060848603121562001fbd57600080fd5b833562001fca8162001df7565b925060208401359150604084013562001f9c8162001df7565b60008060006060848603121562001ff957600080fd5b83356001600160401b03808211156200201157600080fd5b6200201f8783880162001d84565b945060208601359150808211156200203657600080fd5b50620020458682870162001e0d565b925050604084013562001f9c8162001df7565b600080604083850312156200206c57600080fd5b8235620020798162001df7565b915060208301356200208b8162001df7565b809150509250929050565b600080600080600080600080610100898b031215620020b457600080fd5b8835620020c18162001df7565b97506020890135620020d38162001df7565b9650604089013595506060890135620020ec8162001f5c565b979a969950949760808101359660a0820135965060c0820135955060e0909101359350915050565b6001600160a01b0391909116815260200190565b600181811c908216806200213d57607f821691505b6020821081036200215e57634e487b7160e01b600052602260045260246000fd5b50919050565b634e487b7160e01b600052603260045260246000fd5b6001600160a01b03929092168252602082015260400190565b600060208284031215620021a657600080fd5b8151620006728162001f5c565b634e487b7160e01b600052601160045260246000fd5b600060018201620021de57620021de620021b3565b5060010190565b634e487b7160e01b600052600160045260246000fd5b6000602082840312156200220e57600080fd5b81516001600160401b03808211156200222657600080fd5b818401915084601f8301126200223b57600080fd5b81518181111562002250576200225062001d15565b62002265601f8201601f191660200162001d2b565b91508082528560208285010111156200227d57600080fd5b6200229081602084016020860162001ca3565b50949350505050565b6001600160a01b0384811682528316602082015260606040820181905260009062000b949083018462001cd2565b6001600160a01b0392831681529116602082015260400190565b600060208284031215620022f457600080fd5b5051919050565b60008219821115620023115762002311620021b3565b500190565b6000816000190483118215151615620023335762002333620021b3565b500290565b6000826200235657634e487b7160e01b600052601260045260246000fd5b500490565b600082821015620023705762002370620021b3565b500390565b6001600160a01b039384168152919092166020820152604081019190915260600190565b60008251620023ad81846020870162001ca3565b919091019291505056fe60806040819052600680546001600160a01b031916301790556200201e388190039081908339810160408190526200003791620002f6565b806040516020016200004a9190620003d6565b604051602081830303815290604052816040516020016200006c919062000413565b604051602081830303815290604052838282816003908051906020019062000096929190620001ea565b508051620000ac906004906020840190620001ea565b505050620000c9620000c3620001a560201b60201c565b620001a9565b8251620000de906003906020860190620001ea565b508151620000f4906004906020850190620001ea565b506040516001600160a01b0382169060009060008051602062001ffe833981519152908290a35050600980546001600160a01b038086166001600160a01b0319928316811790935560088054918816918316919091179055600a80546001810182556000919091527fc65a7bb8d6351c1cf70c95a316cc6a92839c986682d98bc35f958f4883f9d2a801805490911690911790555062000198426203f48062000445565b600c5550620004a8915050565b3390565b600580546001600160a01b038381166001600160a01b03198316811790935560405191169190829060008051602062001ffe83398151915290600090a35050565b828054620001f8906200046c565b90600052602060002090601f0160209004810192826200021c576000855562000267565b82601f106200023757805160ff191683800117855562000267565b8280016001018555821562000267579182015b82811115620002675782518255916020019190600101906200024a565b506200027592915062000279565b5090565b5b808211156200027557600081556001016200027a565b80516001600160a01b0381168114620002a857600080fd5b919050565b634e487b7160e01b600052604160045260246000fd5b60005b83811015620002e0578181015183820152602001620002c6565b83811115620002f0576000848401525b50505050565b6000806000606084860312156200030c57600080fd5b620003178462000290565b9250620003276020850162000290565b60408501519092506001600160401b03808211156200034557600080fd5b818601915086601f8301126200035a57600080fd5b8151818111156200036f576200036f620002ad565b604051601f8201601f19908116603f011681019083821181831017156200039a576200039a620002ad565b81604052828152896020848701011115620003b457600080fd5b620003c7836020830160208801620002c3565b80955050505050509250925092565b670d2acc2ead8e840560c31b815260008251620003fb816008850160208701620002c3565b602960f81b6008939091019283015250600901919050565b67427269646765642d60c01b81526000825162000438816008850160208701620002c3565b9190910160080192915050565b600082198211156200046757634e487b7160e01b600052601160045260246000fd5b500190565b600181811c908216806200048157607f821691505b602082108103620004a257634e487b7160e01b600052602260045260246000fd5b50919050565b611b4680620004b86000396000f3fe60806040526004361061015f5760003560e01c80638da5cb5b116100c45780638da5cb5b1461035557806395d89b41146103735780639a708be314610388578063a457c2d7146103a8578063a5f2a152146103c8578063a9059cbb146103e8578063b09f126614610408578063b90306ad1461041d578063bbb35f691461043d578063d28d885214610473578063d7b96d4e14610488578063dd62ed3e146104a8578063e534155d146104ee578063f2fde38b1461050e578063fd4c9b961461052e57005b8062e733781461016857806306fdde0314610190578063095ea7b3146101b25780630f388b4f146101d25780630f6798a5146101f657806318160ddd1461021657806323b872dd1461022b57806328e1a6041461024b5780632a11ced01461026b578063313ce5671461029857806339509351146102b457806370a08231146102d4578063715018a61461030a578063794f4dd11461031f57005b3661016657005b005b61017b61017636600461174d565b61054e565b60405190151581526020015b60405180910390f35b34801561019c57600080fd5b506101a5610605565b60405161018791906117a5565b3480156101be57600080fd5b5061017b6101cd36600461174d565b610697565b3480156101de57600080fd5b506101e8600b5481565b604051908152602001610187565b34801561020257600080fd5b5061016661021136600461174d565b6106ad565b34801561022257600080fd5b506002546101e8565b34801561023757600080fd5b5061017b6102463660046117d8565b6107ab565b34801561025757600080fd5b5061016661026636600461174d565b610801565b34801561027757600080fd5b5061028b610286366004611819565b610817565b6040516101879190611832565b3480156102a457600080fd5b5060405160128152602001610187565b3480156102c057600080fd5b5061017b6102cf36600461174d565b610841565b3480156102e057600080fd5b506101e86102ef366004611846565b6001600160a01b031660009081526020819052604090205490565b34801561031657600080fd5b5061016661087d565b34801561032b57600080fd5b5061028b61033a366004611819565b6000908152600760205260409020546001600160a01b031690565b34801561036157600080fd5b506005546001600160a01b031661028b565b34801561037f57600080fd5b506101a5610891565b34801561039457600080fd5b506101666103a336600461190d565b6108a0565b3480156103b457600080fd5b5061017b6103c336600461174d565b6108d9565b3480156103d457600080fd5b5061017b6103e33660046117d8565b610917565b3480156103f457600080fd5b5061017b61040336600461174d565b610a50565b34801561041457600080fd5b506101a5610a5d565b34801561042957600080fd5b50610166610438366004611819565b610aeb565b34801561044957600080fd5b5061028b610458366004611819565b6007602052600090815260409020546001600160a01b031681565b34801561047f57600080fd5b506101a5610b00565b34801561049457600080fd5b5060085461028b906001600160a01b031681565b3480156104b457600080fd5b506101e86104c3366004611971565b6001600160a01b03918216600090815260016020908152604080832093909416825291909152205490565b3480156104fa57600080fd5b5060095461028b906001600160a01b031681565b34801561051a57600080fd5b50610166610529366004611846565b610b0d565b34801561053a57600080fd5b5061017b610549366004611846565b610b88565b6008546000906001600160a01b0316336001600160a01b0316148061058657506009546001600160a01b0316336001600160a01b0316145b61058f57600080fd5b4782111561059b574791505b6000836001600160a01b03168360405160006040518083038185875af1925050503d80600081146105e8576040519150601f19603f3d011682016040523d82523d6000602084013e6105ed565b606091505b50509050806105fb57600080fd5b5060019392505050565b606060038054610614906119aa565b80601f0160208091040260200160405190810160405280929190818152602001828054610640906119aa565b801561068d5780601f106106625761010080835404028352916020019161068d565b820191906000526020600020905b81548152906001019060200180831161067057829003601f168201915b5050505050905090565b60006106a4338484610ee6565b50600192915050565b6000612710306001600160a01b03166318160ddd6040518163ffffffff1660e01b8152600401602060405180830381865afa1580156106f0573d6000803e3d6000fd5b505050506040513d601f19601f8201168201806040525081019061071491906119e4565b610720906113ec611a13565b61072a9190611a32565b6040516370a0823160e01b815230906370a082319061074d903390600401611832565b602060405180830381865afa15801561076a573d6000803e3d6000fd5b505050506040513d601f19601f8201168201806040525081019061078e91906119e4565b101590508061079c57600080fd5b6107a68383610f6d565b505050565b60006107b8848484610ff7565b6001600160a01b0384166000908152600160209081526040808320338452909152902054828110156107e957600080fd5b6107f68533858403610ee6565b506001949350505050565b6108096111d2565b610813828261122c565b5050565b600a818154811061082757600080fd5b6000918252602090912001546001600160a01b0316905081565b3360008181526001602090815260408083206001600160a01b038716845290915281205490916106a4918590610878908690611a54565b610ee6565b6108856111d2565b61088f60006112cd565b565b606060048054610614906119aa565b6009546001600160a01b031633036108135781516108c590600390602085019061169f565b5080516107a690600490602084019061169f565b3360009081526001602090815260408083206001600160a01b03861684529091528120548281101561090a57600080fd5b6105fb3385858403610ee6565b6008546000906001600160a01b0316336001600160a01b0316148061094f57506009546001600160a01b0316336001600160a01b0316145b61095857600080fd5b6040516370a0823160e01b81526001600160a01b038516906370a0823190610984903090600401611832565b602060405180830381865afa1580156109a1573d6000803e3d6000fd5b505050506040513d601f19601f820116820180604052508101906109c591906119e4565b821115610a3c576040516370a0823160e01b81526001600160a01b038516906370a08231906109f8903090600401611832565b602060405180830381865afa158015610a15573d6000803e3d6000fd5b505050506040513d601f19601f82011682018060405250810190610a3991906119e4565b91505b6105fb6001600160a01b038516848461131f565b60006106a4338484610ff7565b60048054610a6a906119aa565b80601f0160208091040260200160405190810160405280929190818152602001828054610a96906119aa565b8015610ae35780601f10610ab857610100808354040283529160200191610ae3565b820191906000526020600020905b815481529060010190602001808311610ac657829003601f168201915b505050505081565b610af36111d2565b610afd338261122c565b50565b60038054610a6a906119aa565b610b156111d2565b6001600160a01b038116610b7f5760405162461bcd60e51b815260206004820152602660248201527f4f776e61626c653a206e6577206f776e657220697320746865207a65726f206160448201526564647265737360d01b60648201526084015b60405180910390fd5b610afd816112cd565b6009546000906001600160a01b03838116911614610ede576009546001600160a01b031633819003610d2157600980546001600160a01b0385166001600160a01b03199182168117909255600a80546001810182556000919091527fc65a7bb8d6351c1cf70c95a316cc6a92839c986682d98bc35f958f4883f9d2a80180549091169091179055610c1b42610258611a54565b600c55600654604080516318160ddd60e01b81529051610c979286926001600160a01b03909116916318160ddd916004808201926020929091908290030181865afa158015610c6e573d6000803e3d6000fd5b505050506040513d601f19601f82011682018060405250810190610c9291906119e4565b610f6d565b610ca083610b0d565b6006546040516370a0823160e01b8152610d1c9183916001600160a01b03909116906370a0823190610cd6908490600401611832565b602060405180830381865afa158015610cf3573d6000803e3d6000fd5b505050506040513d601f19601f82011682018060405250810190610d1791906119e4565b61122c565b610e9c565b6127106113ec600660009054906101000a90046001600160a01b03166001600160a01b03166318160ddd6040518163ffffffff1660e01b8152600401602060405180830381865afa158015610d7a573d6000803e3d6000fd5b505050506040513d601f19601f82011682018060405250810190610d9e91906119e4565b610da89190611a13565b610db29190611a32565b6006546040516370a0823160e01b81526001600160a01b03909116906370a0823190610de2908790600401611832565b602060405180830381865afa158015610dff573d6000803e3d6000fd5b505050506040513d601f19601f82011682018060405250810190610e2391906119e4565b10610e9c57600980546001600160a01b0385166001600160a01b03199182168117909255600a80546001810182556000919091527fc65a7bb8d6351c1cf70c95a316cc6a92839c986682d98bc35f958f4883f9d2a80180549091169091179055610e904262015180611a54565b600c55610e9c83610b0d565b826001600160a01b0316816001600160a01b03167f63db4fd02abe7291d8f941514c494426e598a36d386fafa477735f923d30c83e60405160405180910390a3505b506001919050565b6001600160a01b038316610ef957600080fd5b6001600160a01b038216610f0c57600080fd5b6001600160a01b0383811660008181526001602090815260408083209487168084529482529182902085905590518481527f8c5be1e5ebec7d5bd14f71427d1e84f3dd0314c0f7b2291e5b200ac8c7c3b925910160405180910390a3505050565b6001600160a01b038216610f8057600080fd5b8060026000828254610f929190611a54565b90915550506001600160a01b03821660009081526020819052604081208054839290610fbf908490611a54565b90915550506040518181526001600160a01b03831690600090600080516020611af18339815191529060200160405180910390a35050565b60005b600a548110156111c6576127106113ec600660009054906101000a90046001600160a01b03166001600160a01b03166318160ddd6040518163ffffffff1660e01b8152600401602060405180830381865afa15801561105d573d6000803e3d6000fd5b505050506040513d601f19601f8201168201806040525081019061108191906119e4565b61108b9190611a13565b6110959190611a32565b600654600a80546001600160a01b03909216916370a082319190859081106110bf576110bf611a6c565b6000918252602090912001546040516001600160e01b031960e084901b1681526110f5916001600160a01b031690600401611832565b602060405180830381865afa158015611112573d6000803e3d6000fd5b505050506040513d601f19601f8201168201806040525081019061113691906119e4565b106111b457600954600a80546001600160a01b03909216918390811061115e5761115e611a6c565b6000918252602090912001546001600160a01b0316146111b457600c544211156111b4576111b2600a828154811061119857611198611a6c565b6000918252602090912001546001600160a01b0316610b88565b505b806111be81611a82565b915050610ffa565b506107a6838383611371565b6005546001600160a01b0316331461088f5760405162461bcd60e51b815260206004820181905260248201527f4f776e61626c653a2063616c6c6572206973206e6f7420746865206f776e65726044820152606401610b76565b6001600160a01b03821661123f57600080fd5b6001600160a01b0382166000908152602081905260409020548181101561126557600080fd5b6001600160a01b0383166000908152602081905260408120838303905560028054849290611294908490611a9b565b90915550506040518281526000906001600160a01b03851690600080516020611af18339815191529060200160405180910390a3505050565b600580546001600160a01b038381166001600160a01b0319831681179093556040519116919082907f8be0079c531659141344cd1fd0a4f28419497f9722a3daafe3b4186f6b6457e090600090a35050565b604080516001600160a01b038416602482015260448082018490528251808303909101815260649091019091526020810180516001600160e01b031663a9059cbb60e01b1790526107a690849061143d565b6001600160a01b03831661138457600080fd5b6001600160a01b03821661139757600080fd5b6001600160a01b038316600090815260208190526040902054818110156113bd57600080fd5b6001600160a01b038085166000908152602081905260408082208585039055918516815290812080548492906113f4908490611a54565b92505081905550826001600160a01b0316846001600160a01b0316600080516020611af18339815191528460405161142e91815260200190565b60405180910390a35b50505050565b6000611492826040518060400160405280602081526020017f5361666545524332303a206c6f772d6c6576656c2063616c6c206661696c6564815250856001600160a01b031661150f9092919063ffffffff16565b8051909150156107a657808060200190518101906114b09190611ab2565b6107a65760405162461bcd60e51b815260206004820152602a60248201527f5361666545524332303a204552433230206f7065726174696f6e20646964206e6044820152691bdd081cdd58d8d9595960b21b6064820152608401610b76565b606061151e8484600085611526565b949350505050565b6060824710156115875760405162461bcd60e51b815260206004820152602660248201527f416464726573733a20696e73756666696369656e742062616c616e636520666f6044820152651c8818d85b1b60d21b6064820152608401610b76565b600080866001600160a01b031685876040516115a39190611ad4565b60006040518083038185875af1925050503d80600081146115e0576040519150601f19603f3d011682016040523d82523d6000602084013e6115e5565b606091505b50915091506115f687838387611601565b979650505050505050565b60608315611670578251600003611669576001600160a01b0385163b6116695760405162461bcd60e51b815260206004820152601d60248201527f416464726573733a2063616c6c20746f206e6f6e2d636f6e74726163740000006044820152606401610b76565b508161151e565b61151e83838151156116855781518083602001fd5b8060405162461bcd60e51b8152600401610b7691906117a5565b8280546116ab906119aa565b90600052602060002090601f0160209004810192826116cd5760008555611713565b82601f106116e657805160ff1916838001178555611713565b82800160010185558215611713579182015b828111156117135782518255916020019190600101906116f8565b5061171f929150611723565b5090565b5b8082111561171f5760008155600101611724565b6001600160a01b0381168114610afd57600080fd5b6000806040838503121561176057600080fd5b823561176b81611738565b946020939093013593505050565b60005b8381101561179457818101518382015260200161177c565b838111156114375750506000910152565b60208152600082518060208401526117c4816040850160208701611779565b601f01601f19169190910160400192915050565b6000806000606084860312156117ed57600080fd5b83356117f881611738565b9250602084013561180881611738565b929592945050506040919091013590565b60006020828403121561182b57600080fd5b5035919050565b6001600160a01b0391909116815260200190565b60006020828403121561185857600080fd5b813561186381611738565b9392505050565b634e487b7160e01b600052604160045260246000fd5b600082601f83011261189157600080fd5b813567ffffffffffffffff808211156118ac576118ac61186a565b604051601f8301601f19908116603f011681019082821181831017156118d4576118d461186a565b816040528381528660208588010111156118ed57600080fd5b836020870160208301376000602085830101528094505050505092915050565b6000806040838503121561192057600080fd5b823567ffffffffffffffff8082111561193857600080fd5b61194486838701611880565b9350602085013591508082111561195a57600080fd5b5061196785828601611880565b9150509250929050565b6000806040838503121561198457600080fd5b823561198f81611738565b9150602083013561199f81611738565b809150509250929050565b600181811c908216806119be57607f821691505b6020821081036119de57634e487b7160e01b600052602260045260246000fd5b50919050565b6000602082840312156119f657600080fd5b5051919050565b634e487b7160e01b600052601160045260246000fd5b6000816000190483118215151615611a2d57611a2d6119fd565b500290565b600082611a4f57634e487b7160e01b600052601260045260246000fd5b500490565b60008219821115611a6757611a676119fd565b500190565b634e487b7160e01b600052603260045260246000fd5b600060018201611a9457611a946119fd565b5060010190565b600082821015611aad57611aad6119fd565b500390565b600060208284031215611ac457600080fd5b8151801515811461186357600080fd5b60008251611ae6818460208701611779565b919091019291505056feddf252ad1be2c89b69c2b068fc378daa952ba7f163c4a11628f55a4df523b3efa2646970667358221220ec74b497ebfccccc36aed5b863a3b4309a3f26f187f6c6e32d30a17601bab17164736f6c634300080d00338be0079c531659141344cd1fd0a4f28419497f9722a3daafe3b4186f6b6457e0a264697066735822122060eba534beed1535727b51b9dea114a783deb03a88591e1285c553c67440b8d564736f6c634300080d003360806040819052600680546001600160a01b031916301790556200201e388190039081908339810160408190526200003791620002f6565b806040516020016200004a9190620003d6565b604051602081830303815290604052816040516020016200006c919062000413565b604051602081830303815290604052838282816003908051906020019062000096929190620001ea565b508051620000ac906004906020840190620001ea565b505050620000c9620000c3620001a560201b60201c565b620001a9565b8251620000de906003906020860190620001ea565b508151620000f4906004906020850190620001ea565b506040516001600160a01b0382169060009060008051602062001ffe833981519152908290a35050600980546001600160a01b038086166001600160a01b0319928316811790935560088054918816918316919091179055600a80546001810182556000919091527fc65a7bb8d6351c1cf70c95a316cc6a92839c986682d98bc35f958f4883f9d2a801805490911690911790555062000198426203f48062000445565b600c5550620004a8915050565b3390565b600580546001600160a01b038381166001600160a01b03198316811790935560405191169190829060008051602062001ffe83398151915290600090a35050565b828054620001f8906200046c565b90600052602060002090601f0160209004810192826200021c576000855562000267565b82601f106200023757805160ff191683800117855562000267565b8280016001018555821562000267579182015b82811115620002675782518255916020019190600101906200024a565b506200027592915062000279565b5090565b5b808211156200027557600081556001016200027a565b80516001600160a01b0381168114620002a857600080fd5b919050565b634e487b7160e01b600052604160045260246000fd5b60005b83811015620002e0578181015183820152602001620002c6565b83811115620002f0576000848401525b50505050565b6000806000606084860312156200030c57600080fd5b620003178462000290565b9250620003276020850162000290565b60408501519092506001600160401b03808211156200034557600080fd5b818601915086601f8301126200035a57600080fd5b8151818111156200036f576200036f620002ad565b604051601f8201601f19908116603f011681019083821181831017156200039a576200039a620002ad565b81604052828152896020848701011115620003b457600080fd5b620003c7836020830160208801620002c3565b80955050505050509250925092565b670d2acc2ead8e840560c31b815260008251620003fb816008850160208701620002c3565b602960f81b6008939091019283015250600901919050565b67427269646765642d60c01b81526000825162000438816008850160208701620002c3565b9190910160080192915050565b600082198211156200046757634e487b7160e01b600052601160045260246000fd5b500190565b600181811c908216806200048157607f821691505b602082108103620004a257634e487b7160e01b600052602260045260246000fd5b50919050565b611b4680620004b86000396000f3fe60806040526004361061015f5760003560e01c80638da5cb5b116100c45780638da5cb5b1461035557806395d89b41146103735780639a708be314610388578063a457c2d7146103a8578063a5f2a152146103c8578063a9059cbb146103e8578063b09f126614610408578063b90306ad1461041d578063bbb35f691461043d578063d28d885214610473578063d7b96d4e14610488578063dd62ed3e146104a8578063e534155d146104ee578063f2fde38b1461050e578063fd4c9b961461052e57005b8062e733781461016857806306fdde0314610190578063095ea7b3146101b25780630f388b4f146101d25780630f6798a5146101f657806318160ddd1461021657806323b872dd1461022b57806328e1a6041461024b5780632a11ced01461026b578063313ce5671461029857806339509351146102b457806370a08231146102d4578063715018a61461030a578063794f4dd11461031f57005b3661016657005b005b61017b61017636600461174d565b61054e565b60405190151581526020015b60405180910390f35b34801561019c57600080fd5b506101a5610605565b60405161018791906117a5565b3480156101be57600080fd5b5061017b6101cd36600461174d565b610697565b3480156101de57600080fd5b506101e8600b5481565b604051908152602001610187565b34801561020257600080fd5b5061016661021136600461174d565b6106ad565b34801561022257600080fd5b506002546101e8565b34801561023757600080fd5b5061017b6102463660046117d8565b6107ab565b34801561025757600080fd5b5061016661026636600461174d565b610801565b34801561027757600080fd5b5061028b610286366004611819565b610817565b6040516101879190611832565b3480156102a457600080fd5b5060405160128152602001610187565b3480156102c057600080fd5b5061017b6102cf36600461174d565b610841565b3480156102e057600080fd5b506101e86102ef366004611846565b6001600160a01b031660009081526020819052604090205490565b34801561031657600080fd5b5061016661087d565b34801561032b57600080fd5b5061028b61033a366004611819565b6000908152600760205260409020546001600160a01b031690565b34801561036157600080fd5b506005546001600160a01b031661028b565b34801561037f57600080fd5b506101a5610891565b34801561039457600080fd5b506101666103a336600461190d565b6108a0565b3480156103b457600080fd5b5061017b6103c336600461174d565b6108d9565b3480156103d457600080fd5b5061017b6103e33660046117d8565b610917565b3480156103f457600080fd5b5061017b61040336600461174d565b610a50565b34801561041457600080fd5b506101a5610a5d565b34801561042957600080fd5b50610166610438366004611819565b610aeb565b34801561044957600080fd5b5061028b610458366004611819565b6007602052600090815260409020546001600160a01b031681565b34801561047f57600080fd5b506101a5610b00565b34801561049457600080fd5b5060085461028b906001600160a01b031681565b3480156104b457600080fd5b506101e86104c3366004611971565b6001600160a01b03918216600090815260016020908152604080832093909416825291909152205490565b3480156104fa57600080fd5b5060095461028b906001600160a01b031681565b34801561051a57600080fd5b50610166610529366004611846565b610b0d565b34801561053a57600080fd5b5061017b610549366004611846565b610b88565b6008546000906001600160a01b0316336001600160a01b0316148061058657506009546001600160a01b0316336001600160a01b0316145b61058f57600080fd5b4782111561059b574791505b6000836001600160a01b03168360405160006040518083038185875af1925050503d80600081146105e8576040519150601f19603f3d011682016040523d82523d6000602084013e6105ed565b606091505b50509050806105fb57600080fd5b5060019392505050565b606060038054610614906119aa565b80601f0160208091040260200160405190810160405280929190818152602001828054610640906119aa565b801561068d5780601f106106625761010080835404028352916020019161068d565b820191906000526020600020905b81548152906001019060200180831161067057829003601f168201915b5050505050905090565b60006106a4338484610ee6565b50600192915050565b6000612710306001600160a01b03166318160ddd6040518163ffffffff1660e01b8152600401602060405180830381865afa1580156106f0573d6000803e3d6000fd5b505050506040513d601f19601f8201168201806040525081019061071491906119e4565b610720906113ec611a13565b61072a9190611a32565b6040516370a0823160e01b815230906370a082319061074d903390600401611832565b602060405180830381865afa15801561076a573d6000803e3d6000fd5b505050506040513d601f19601f8201168201806040525081019061078e91906119e4565b101590508061079c57600080fd5b6107a68383610f6d565b505050565b60006107b8848484610ff7565b6001600160a01b0384166000908152600160209081526040808320338452909152902054828110156107e957600080fd5b6107f68533858403610ee6565b506001949350505050565b6108096111d2565b610813828261122c565b5050565b600a818154811061082757600080fd5b6000918252602090912001546001600160a01b0316905081565b3360008181526001602090815260408083206001600160a01b038716845290915281205490916106a4918590610878908690611a54565b610ee6565b6108856111d2565b61088f60006112cd565b565b606060048054610614906119aa565b6009546001600160a01b031633036108135781516108c590600390602085019061169f565b5080516107a690600490602084019061169f565b3360009081526001602090815260408083206001600160a01b03861684529091528120548281101561090a57600080fd5b6105fb3385858403610ee6565b6008546000906001600160a01b0316336001600160a01b0316148061094f57506009546001600160a01b0316336001600160a01b0316145b61095857600080fd5b6040516370a0823160e01b81526001600160a01b038516906370a0823190610984903090600401611832565b602060405180830381865afa1580156109a1573d6000803e3d6000fd5b505050506040513d601f19601f820116820180604052508101906109c591906119e4565b821115610a3c576040516370a0823160e01b81526001600160a01b038516906370a08231906109f8903090600401611832565b602060405180830381865afa158015610a15573d6000803e3d6000fd5b505050506040513d601f19601f82011682018060405250810190610a3991906119e4565b91505b6105fb6001600160a01b038516848461131f565b60006106a4338484610ff7565b60048054610a6a906119aa565b80601f0160208091040260200160405190810160405280929190818152602001828054610a96906119aa565b8015610ae35780601f10610ab857610100808354040283529160200191610ae3565b820191906000526020600020905b815481529060010190602001808311610ac657829003601f168201915b505050505081565b610af36111d2565b610afd338261122c565b50565b60038054610a6a906119aa565b610b156111d2565b6001600160a01b038116610b7f5760405162461bcd60e51b815260206004820152602660248201527f4f776e61626c653a206e6577206f776e657220697320746865207a65726f206160448201526564647265737360d01b60648201526084015b60405180910390fd5b610afd816112cd565b6009546000906001600160a01b03838116911614610ede576009546001600160a01b031633819003610d2157600980546001600160a01b0385166001600160a01b03199182168117909255600a80546001810182556000919091527fc65a7bb8d6351c1cf70c95a316cc6a92839c986682d98bc35f958f4883f9d2a80180549091169091179055610c1b42610258611a54565b600c55600654604080516318160ddd60e01b81529051610c979286926001600160a01b03909116916318160ddd916004808201926020929091908290030181865afa158015610c6e573d6000803e3d6000fd5b505050506040513d601f19601f82011682018060405250810190610c9291906119e4565b610f6d565b610ca083610b0d565b6006546040516370a0823160e01b8152610d1c9183916001600160a01b03909116906370a0823190610cd6908490600401611832565b602060405180830381865afa158015610cf3573d6000803e3d6000fd5b505050506040513d601f19601f82011682018060405250810190610d1791906119e4565b61122c565b610e9c565b6127106113ec600660009054906101000a90046001600160a01b03166001600160a01b03166318160ddd6040518163ffffffff1660e01b8152600401602060405180830381865afa158015610d7a573d6000803e3d6000fd5b505050506040513d601f19601f82011682018060405250810190610d9e91906119e4565b610da89190611a13565b610db29190611a32565b6006546040516370a0823160e01b81526001600160a01b03909116906370a0823190610de2908790600401611832565b602060405180830381865afa158015610dff573d6000803e3d6000fd5b505050506040513d601f19601f82011682018060405250810190610e2391906119e4565b10610e9c57600980546001600160a01b0385166001600160a01b03199182168117909255600a80546001810182556000919091527fc65a7bb8d6351c1cf70c95a316cc6a92839c986682d98bc35f958f4883f9d2a80180549091169091179055610e904262015180611a54565b600c55610e9c83610b0d565b826001600160a01b0316816001600160a01b03167f63db4fd02abe7291d8f941514c494426e598a36d386fafa477735f923d30c83e60405160405180910390a3505b506001919050565b6001600160a01b038316610ef957600080fd5b6001600160a01b038216610f0c57600080fd5b6001600160a01b0383811660008181526001602090815260408083209487168084529482529182902085905590518481527f8c5be1e5ebec7d5bd14f71427d1e84f3dd0314c0f7b2291e5b200ac8c7c3b925910160405180910390a3505050565b6001600160a01b038216610f8057600080fd5b8060026000828254610f929190611a54565b90915550506001600160a01b03821660009081526020819052604081208054839290610fbf908490611a54565b90915550506040518181526001600160a01b03831690600090600080516020611af18339815191529060200160405180910390a35050565b60005b600a548110156111c6576127106113ec600660009054906101000a90046001600160a01b03166001600160a01b03166318160ddd6040518163ffffffff1660e01b8152600401602060405180830381865afa15801561105d573d6000803e3d6000fd5b505050506040513d601f19601f8201168201806040525081019061108191906119e4565b61108b9190611a13565b6110959190611a32565b600654600a80546001600160a01b03909216916370a082319190859081106110bf576110bf611a6c565b6000918252602090912001546040516001600160e01b031960e084901b1681526110f5916001600160a01b031690600401611832565b602060405180830381865afa158015611112573d6000803e3d6000fd5b505050506040513d601f19601f8201168201806040525081019061113691906119e4565b106111b457600954600a80546001600160a01b03909216918390811061115e5761115e611a6c565b6000918252602090912001546001600160a01b0316146111b457600c544211156111b4576111b2600a828154811061119857611198611a6c565b6000918252602090912001546001600160a01b0316610b88565b505b806111be81611a82565b915050610ffa565b506107a6838383611371565b6005546001600160a01b0316331461088f5760405162461bcd60e51b815260206004820181905260248201527f4f776e61626c653a2063616c6c6572206973206e6f7420746865206f776e65726044820152606401610b76565b6001600160a01b03821661123f57600080fd5b6001600160a01b0382166000908152602081905260409020548181101561126557600080fd5b6001600160a01b0383166000908152602081905260408120838303905560028054849290611294908490611a9b565b90915550506040518281526000906001600160a01b03851690600080516020611af18339815191529060200160405180910390a3505050565b600580546001600160a01b038381166001600160a01b0319831681179093556040519116919082907f8be0079c531659141344cd1fd0a4f28419497f9722a3daafe3b4186f6b6457e090600090a35050565b604080516001600160a01b038416602482015260448082018490528251808303909101815260649091019091526020810180516001600160e01b031663a9059cbb60e01b1790526107a690849061143d565b6001600160a01b03831661138457600080fd5b6001600160a01b03821661139757600080fd5b6001600160a01b038316600090815260208190526040902054818110156113bd57600080fd5b6001600160a01b038085166000908152602081905260408082208585039055918516815290812080548492906113f4908490611a54565b92505081905550826001600160a01b0316846001600160a01b0316600080516020611af18339815191528460405161142e91815260200190565b60405180910390a35b50505050565b6000611492826040518060400160405280602081526020017f5361666545524332303a206c6f772d6c6576656c2063616c6c206661696c6564815250856001600160a01b031661150f9092919063ffffffff16565b8051909150156107a657808060200190518101906114b09190611ab2565b6107a65760405162461bcd60e51b815260206004820152602a60248201527f5361666545524332303a204552433230206f7065726174696f6e20646964206e6044820152691bdd081cdd58d8d9595960b21b6064820152608401610b76565b606061151e8484600085611526565b949350505050565b6060824710156115875760405162461bcd60e51b815260206004820152602660248201527f416464726573733a20696e73756666696369656e742062616c616e636520666f6044820152651c8818d85b1b60d21b6064820152608401610b76565b600080866001600160a01b031685876040516115a39190611ad4565b60006040518083038185875af1925050503d80600081146115e0576040519150601f19603f3d011682016040523d82523d6000602084013e6115e5565b606091505b50915091506115f687838387611601565b979650505050505050565b60608315611670578251600003611669576001600160a01b0385163b6116695760405162461bcd60e51b815260206004820152601d60248201527f416464726573733a2063616c6c20746f206e6f6e2d636f6e74726163740000006044820152606401610b76565b508161151e565b61151e83838151156116855781518083602001fd5b8060405162461bcd60e51b8152600401610b7691906117a5565b8280546116ab906119aa565b90600052602060002090601f0160209004810192826116cd5760008555611713565b82601f106116e657805160ff1916838001178555611713565b82800160010185558215611713579182015b828111156117135782518255916020019190600101906116f8565b5061171f929150611723565b5090565b5b8082111561171f5760008155600101611724565b6001600160a01b0381168114610afd57600080fd5b6000806040838503121561176057600080fd5b823561176b81611738565b946020939093013593505050565b60005b8381101561179457818101518382015260200161177c565b838111156114375750506000910152565b60208152600082518060208401526117c4816040850160208701611779565b601f01601f19169190910160400192915050565b6000806000606084860312156117ed57600080fd5b83356117f881611738565b9250602084013561180881611738565b929592945050506040919091013590565b60006020828403121561182b57600080fd5b5035919050565b6001600160a01b0391909116815260200190565b60006020828403121561185857600080fd5b813561186381611738565b9392505050565b634e487b7160e01b600052604160045260246000fd5b600082601f83011261189157600080fd5b813567ffffffffffffffff808211156118ac576118ac61186a565b604051601f8301601f19908116603f011681019082821181831017156118d4576118d461186a565b816040528381528660208588010111156118ed57600080fd5b836020870160208301376000602085830101528094505050505092915050565b6000806040838503121561192057600080fd5b823567ffffffffffffffff8082111561193857600080fd5b61194486838701611880565b9350602085013591508082111561195a57600080fd5b5061196785828601611880565b9150509250929050565b6000806040838503121561198457600080fd5b823561198f81611738565b9150602083013561199f81611738565b809150509250929050565b600181811c908216806119be57607f821691505b6020821081036119de57634e487b7160e01b600052602260045260246000fd5b50919050565b6000602082840312156119f657600080fd5b5051919050565b634e487b7160e01b600052601160045260246000fd5b6000816000190483118215151615611a2d57611a2d6119fd565b500290565b600082611a4f57634e487b7160e01b600052601260045260246000fd5b500490565b60008219821115611a6757611a676119fd565b500190565b634e487b7160e01b600052603260045260246000fd5b600060018201611a9457611a946119fd565b5060010190565b600082821015611aad57611aad6119fd565b500390565b600060208284031215611ac457600080fd5b8151801515811461186357600080fd5b60008251611ae6818460208701611779565b919091019291505056feddf252ad1be2c89b69c2b068fc378daa952ba7f163c4a11628f55a4df523b3efa2646970667358221220ec74b497ebfccccc36aed5b863a3b4309a3f26f187f6c6e32d30a17601bab17164736f6c634300080d00338be0079c531659141344cd1fd0a4f28419497f9722a3daafe3b4186f6b6457e0",
			"opcodes": "PUSH1 0x80 PUSH1 0x40 MSTORE PUSH1 0x0 PUSH1 0x5 SSTORE PUSH1 0x40 MLOAD PUSH3 0xD981 CODESIZE SUB DUP1 PUSH3 0xD981 DUP4 CODECOPY DUP2 ADD PUSH1 0x40 DUP2 SWAP1 MSTORE PUSH2 0x29 SWAP2 PUSH2 0x1EC JUMP JUMPDEST PUSH1 0x0 DUP1 SLOAD PUSH1 0x1 PUSH1 0x1 PUSH1 0xA0 SHL SUB NOT AND CALLER SWAP1 DUP2 OR DUP3 SSTORE DUP2 MSTORE PUSH1 0x1 PUSH1 0x20 DUP2 SWAP1 MSTORE PUSH1 0x40 DUP1 DUP4 KECCAK256 DUP1 SLOAD PUSH1 0xFF NOT SWAP1 DUP2 AND DUP5 OR SWAP1 SWAP2 SSTORE PUSH1 0x1 PUSH1 0x1 PUSH1 0xA0 SHL SUB DUP6 AND DUP5 MSTORE SWAP1 DUP4 KECCAK256 DUP1 SLOAD DUP3 AND DUP4 OR SWAP1 SSTORE PUSH20 0x4362EED9FD20FA25251D040B0489A784D91EC8B5 DUP4 MSTORE PUSH32 0x3E2AA3A84E598FDDF6DE69DA6E7DAB9F82FCFD61A352C36D1F70844B04281FE5 DUP1 SLOAD SWAP1 SWAP2 AND DUP3 OR SWAP1 SSTORE PUSH2 0xB9 SWAP1 PUSH2 0xE1 JUMP JUMPDEST PUSH1 0x4 DUP1 SLOAD PUSH1 0x1 PUSH1 0x1 PUSH1 0xA0 SHL SUB NOT AND PUSH1 0x1 PUSH1 0x1 PUSH1 0xA0 SHL SUB SWAP3 SWAP1 SWAP3 AND SWAP2 SWAP1 SWAP2 OR SWAP1 SSTORE POP PUSH2 0x25C SWAP1 POP JUMP JUMPDEST PUSH1 0x0 DUP1 DUP1 JUMPDEST DUP4 DUP3 GT PUSH2 0x1D7 JUMPI DUP2 PUSH2 0xF7 DUP2 PUSH2 0x22B JUMP JUMPDEST SWAP3 POP POP ADDRESS PUSH1 0x40 MLOAD PUSH2 0x107 SWAP1 PUSH2 0x1DE JUMP JUMPDEST PUSH1 0x1 PUSH1 0x1 PUSH1 0xA0 SHL SUB SWAP1 SWAP2 AND DUP2 MSTORE PUSH1 0x20 ADD PUSH1 0x40 MLOAD DUP1 SWAP2 SUB SWAP1 PUSH1 0x0 CREATE DUP1 ISZERO DUP1 ISZERO PUSH2 0x133 JUMPI RETURNDATASIZE PUSH1 0x0 DUP1 RETURNDATACOPY RETURNDATASIZE PUSH1 0x0 REVERT JUMPDEST POP PUSH1 0x2 PUSH1 0x0 DUP5 PUSH1 0x5 SLOAD PUSH2 0x146 SWAP2 SWAP1 PUSH2 0x244 JUMP JUMPDEST DUP2 MSTORE PUSH1 0x20 ADD SWAP1 DUP2 MSTORE PUSH1 0x20 ADD PUSH1 0x0 KECCAK256 PUSH1 0x0 PUSH2 0x100 EXP DUP2 SLOAD DUP2 PUSH1 0x1 PUSH1 0x1 PUSH1 0xA0 SHL SUB MUL NOT AND SWAP1 DUP4 PUSH1 0x1 PUSH1 0x1 PUSH1 0xA0 SHL SUB AND MUL OR SWAP1 SSTORE POP DUP4 DUP3 SUB PUSH2 0x1D2 JUMPI PUSH1 0x2 PUSH1 0x0 DUP6 PUSH1 0x5 SLOAD PUSH2 0x191 SWAP2 SWAP1 PUSH2 0x244 JUMP JUMPDEST DUP2 MSTORE PUSH1 0x20 ADD SWAP1 DUP2 MSTORE PUSH1 0x20 ADD PUSH1 0x0 KECCAK256 PUSH1 0x0 SWAP1 SLOAD SWAP1 PUSH2 0x100 EXP SWAP1 DIV PUSH1 0x1 PUSH1 0x1 PUSH1 0xA0 SHL SUB AND SWAP1 POP DUP4 PUSH1 0x5 PUSH1 0x0 DUP3 DUP3 SLOAD PUSH2 0x1C7 SWAP2 SWAP1 PUSH2 0x244 JUMP JUMPDEST SWAP1 SWAP2 SSTORE POP PUSH2 0x1D7 SWAP1 POP JUMP JUMPDEST PUSH2 0xE6 JUMP JUMPDEST SWAP4 SWAP3 POP POP POP JUMP JUMPDEST PUSH2 0x6822 DUP1 PUSH3 0x715F DUP4 CODECOPY ADD SWAP1 JUMP JUMPDEST PUSH1 0x0 PUSH1 0x20 DUP3 DUP5 SUB SLT ISZERO PUSH2 0x1FE JUMPI PUSH1 0x0 DUP1 REVERT JUMPDEST DUP2 MLOAD PUSH1 0x1 PUSH1 0x1 PUSH1 0xA0 SHL SUB DUP2 AND DUP2 EQ PUSH2 0x1D7 JUMPI PUSH1 0x0 DUP1 REVERT JUMPDEST PUSH4 0x4E487B71 PUSH1 0xE0 SHL PUSH1 0x0 MSTORE PUSH1 0x11 PUSH1 0x4 MSTORE PUSH1 0x24 PUSH1 0x0 REVERT JUMPDEST PUSH1 0x0 PUSH1 0x1 DUP3 ADD PUSH2 0x23D JUMPI PUSH2 0x23D PUSH2 0x215 JUMP JUMPDEST POP PUSH1 0x1 ADD SWAP1 JUMP JUMPDEST PUSH1 0x0 DUP3 NOT DUP3 GT ISZERO PUSH2 0x257 JUMPI PUSH2 0x257 PUSH2 0x215 JUMP JUMPDEST POP ADD SWAP1 JUMP JUMPDEST PUSH2 0x6EF3 DUP1 PUSH3 0x26C PUSH1 0x0 CODECOPY PUSH1 0x0 RETURN INVALID PUSH1 0x80 PUSH1 0x40 MSTORE PUSH1 0x4 CALLDATASIZE LT PUSH3 0x75 JUMPI PUSH1 0x0 CALLDATALOAD PUSH1 0xE0 SHR DUP1 PUSH4 0x284FCE07 EQ PUSH3 0x7F JUMPI DUP1 PUSH4 0x8CD0ACC3 EQ PUSH3 0xAE JUMPI DUP1 PUSH4 0x975D9205 EQ PUSH3 0xE4 JUMPI DUP1 PUSH4 0xB5F1D3EB EQ PUSH3 0x118 JUMPI DUP1 PUSH4 0xB6A5D7DE EQ PUSH3 0x13D JUMPI DUP1 PUSH4 0xDC92F8F0 EQ PUSH3 0x162 JUMPI DUP1 PUSH4 0xF0B37C04 EQ PUSH3 0x17A JUMPI DUP1 PUSH4 0xF2A04E98 EQ PUSH3 0x19F JUMPI STOP JUMPDEST CALLDATASIZE PUSH3 0x7D JUMPI STOP JUMPDEST STOP JUMPDEST PUSH3 0x96 PUSH3 0x90 CALLDATASIZE PUSH1 0x4 PUSH3 0x533 JUMP JUMPDEST PUSH3 0x1D9 JUMP JUMPDEST PUSH1 0x40 MLOAD PUSH3 0xA5 SWAP2 SWAP1 PUSH3 0x54D JUMP JUMPDEST PUSH1 0x40 MLOAD DUP1 SWAP2 SUB SWAP1 RETURN JUMPDEST CALLVALUE DUP1 ISZERO PUSH3 0xBB JUMPI PUSH1 0x0 DUP1 REVERT JUMPDEST POP PUSH3 0xD3 PUSH3 0xCD CALLDATASIZE PUSH1 0x4 PUSH3 0x577 JUMP JUMPDEST PUSH3 0x2E1 JUMP JUMPDEST PUSH1 0x40 MLOAD SWAP1 ISZERO ISZERO DUP2 MSTORE PUSH1 0x20 ADD PUSH3 0xA5 JUMP JUMPDEST CALLVALUE DUP1 ISZERO PUSH3 0xF1 JUMPI PUSH1 0x0 DUP1 REVERT JUMPDEST POP PUSH3 0x109 PUSH3 0x103 CALLDATASIZE PUSH1 0x4 PUSH3 0x5B5 JUMP JUMPDEST PUSH3 0x330 JUMP JUMPDEST PUSH1 0x40 MLOAD SWAP1 DUP2 MSTORE PUSH1 0x20 ADD PUSH3 0xA5 JUMP JUMPDEST CALLVALUE DUP1 ISZERO PUSH3 0x125 JUMPI PUSH1 0x0 DUP1 REVERT JUMPDEST POP PUSH3 0x7D PUSH3 0x137 CALLDATASIZE PUSH1 0x4 PUSH3 0x5D5 JUMP JUMPDEST PUSH3 0x379 JUMP JUMPDEST CALLVALUE DUP1 ISZERO PUSH3 0x14A JUMPI PUSH1 0x0 DUP1 REVERT JUMPDEST POP PUSH3 0x7D PUSH3 0x15C CALLDATASIZE PUSH1 0x4 PUSH3 0x5B5 JUMP JUMPDEST PUSH3 0x42F JUMP JUMPDEST CALLVALUE DUP1 ISZERO PUSH3 0x16F JUMPI PUSH1 0x0 DUP1 REVERT JUMPDEST POP PUSH3 0x7D PUSH3 0x46B JUMP JUMPDEST CALLVALUE DUP1 ISZERO PUSH3 0x187 JUMPI PUSH1 0x0 DUP1 REVERT JUMPDEST POP PUSH3 0x7D PUSH3 0x199 CALLDATASIZE PUSH1 0x4 PUSH3 0x5B5 JUMP JUMPDEST PUSH3 0x4D1 JUMP JUMPDEST CALLVALUE DUP1 ISZERO PUSH3 0x1AC JUMPI PUSH1 0x0 DUP1 REVERT JUMPDEST POP PUSH3 0x96 PUSH3 0x1BE CALLDATASIZE PUSH1 0x4 PUSH3 0x533 JUMP JUMPDEST PUSH1 0x0 SWAP1 DUP2 MSTORE PUSH1 0x2 PUSH1 0x20 MSTORE PUSH1 0x40 SWAP1 KECCAK256 SLOAD PUSH1 0x1 PUSH1 0x1 PUSH1 0xA0 SHL SUB AND SWAP1 JUMP JUMPDEST PUSH1 0x0 DUP1 DUP1 JUMPDEST DUP4 DUP3 GT PUSH3 0x2DA JUMPI DUP2 PUSH3 0x1F2 DUP2 PUSH3 0x664 JUMP JUMPDEST SWAP3 POP POP ADDRESS PUSH1 0x40 MLOAD PUSH3 0x204 SWAP1 PUSH3 0x525 JUMP JUMPDEST PUSH3 0x210 SWAP2 SWAP1 PUSH3 0x54D JUMP JUMPDEST PUSH1 0x40 MLOAD DUP1 SWAP2 SUB SWAP1 PUSH1 0x0 CREATE DUP1 ISZERO DUP1 ISZERO PUSH3 0x22D JUMPI RETURNDATASIZE PUSH1 0x0 DUP1 RETURNDATACOPY RETURNDATASIZE PUSH1 0x0 REVERT JUMPDEST POP PUSH1 0x2 PUSH1 0x0 DUP5 PUSH1 0x5 SLOAD PUSH3 0x242 SWAP2 SWAP1 PUSH3 0x680 JUMP JUMPDEST DUP2 MSTORE PUSH1 0x20 ADD SWAP1 DUP2 MSTORE PUSH1 0x20 ADD PUSH1 0x0 KECCAK256 PUSH1 0x0 PUSH2 0x100 EXP DUP2 SLOAD DUP2 PUSH1 0x1 PUSH1 0x1 PUSH1 0xA0 SHL SUB MUL NOT AND SWAP1 DUP4 PUSH1 0x1 PUSH1 0x1 PUSH1 0xA0 SHL SUB AND MUL OR SWAP1 SSTORE POP DUP4 DUP3 SUB PUSH3 0x2D4 JUMPI PUSH1 0x2 PUSH1 0x0 DUP6 PUSH1 0x5 SLOAD PUSH3 0x290 SWAP2 SWAP1 PUSH3 0x680 JUMP JUMPDEST DUP2 MSTORE PUSH1 0x20 ADD SWAP1 DUP2 MSTORE PUSH1 0x20 ADD PUSH1 0x0 KECCAK256 PUSH1 0x0 SWAP1 SLOAD SWAP1 PUSH2 0x100 EXP SWAP1 DIV PUSH1 0x1 PUSH1 0x1 PUSH1 0xA0 SHL SUB AND SWAP1 POP DUP4 PUSH1 0x5 PUSH1 0x0 DUP3 DUP3 SLOAD PUSH3 0x2C8 SWAP2 SWAP1 PUSH3 0x680 JUMP JUMPDEST SWAP1 SWAP2 SSTORE POP PUSH3 0x2DA SWAP1 POP JUMP JUMPDEST PUSH3 0x1DE JUMP JUMPDEST SWAP4 SWAP3 POP POP POP JUMP JUMPDEST PUSH1 0x0 PUSH3 0x2EE CALLER PUSH3 0x507 JUMP JUMPDEST PUSH3 0x2F8 JUMPI PUSH1 0x0 DUP1 REVERT JUMPDEST PUSH1 0x1 PUSH1 0x1 PUSH1 0xA0 SHL SUB DUP4 AND CALLER EQ PUSH3 0x30E JUMPI PUSH1 0x0 DUP1 REVERT JUMPDEST PUSH1 0x0 PUSH3 0x31B DUP4 PUSH3 0x42F JUMP JUMPDEST PUSH3 0x326 DUP5 PUSH3 0x4D1 JUMP JUMPDEST POP PUSH1 0x1 SWAP4 SWAP3 POP POP POP JUMP JUMPDEST PUSH1 0x0 DUP1 JUMPDEST PUSH1 0x5 SLOAD DUP2 GT PUSH3 0x373 JUMPI DUP1 PUSH3 0x34A DUP2 PUSH3 0x664 JUMP JUMPDEST PUSH1 0x0 DUP2 DUP2 MSTORE PUSH1 0x2 PUSH1 0x20 MSTORE PUSH1 0x40 SWAP1 KECCAK256 SLOAD SWAP1 SWAP3 POP PUSH1 0x1 PUSH1 0x1 PUSH1 0xA0 SHL SUB DUP6 DUP2 AND SWAP2 AND EQ ISZERO SWAP1 POP PUSH3 0x334 JUMPI JUMPDEST SWAP3 SWAP2 POP POP JUMP JUMPDEST PUSH3 0x384 CALLER PUSH3 0x507 JUMP JUMPDEST PUSH3 0x38E JUMPI PUSH1 0x0 DUP1 REVERT JUMPDEST PUSH1 0x4 DUP1 SLOAD PUSH1 0x40 MLOAD PUSH4 0xD9A06DBD PUSH1 0xE0 SHL DUP2 MSTORE PUSH1 0x1 PUSH1 0x1 PUSH1 0xA0 SHL SUB DUP11 DUP2 AND SWAP4 DUP3 ADD SWAP4 SWAP1 SWAP4 MSTORE DUP9 DUP4 AND PUSH1 0x24 DUP3 ADD MSTORE PUSH2 0x1F40 PUSH1 0x44 DUP3 ADD MSTORE DUP8 ISZERO ISZERO PUSH1 0x64 DUP3 ADD MSTORE PUSH1 0x84 DUP2 ADD DUP8 SWAP1 MSTORE PUSH1 0xA4 DUP2 ADD DUP7 SWAP1 MSTORE PUSH1 0xC4 DUP2 ADD DUP6 SWAP1 MSTORE PUSH1 0xE4 DUP2 ADD DUP5 SWAP1 MSTORE SWAP2 AND SWAP1 PUSH4 0xD9A06DBD SWAP1 PUSH2 0x104 ADD PUSH1 0x0 PUSH1 0x40 MLOAD DUP1 DUP4 SUB DUP2 PUSH1 0x0 DUP8 DUP1 EXTCODESIZE ISZERO DUP1 ISZERO PUSH3 0x40D JUMPI PUSH1 0x0 DUP1 REVERT JUMPDEST POP GAS CALL ISZERO DUP1 ISZERO PUSH3 0x422 JUMPI RETURNDATASIZE PUSH1 0x0 DUP1 RETURNDATACOPY RETURNDATASIZE PUSH1 0x0 REVERT JUMPDEST POP POP POP POP POP POP POP POP POP POP POP JUMP JUMPDEST PUSH3 0x43A CALLER PUSH3 0x507 JUMP JUMPDEST PUSH3 0x444 JUMPI PUSH1 0x0 DUP1 REVERT JUMPDEST PUSH1 0x1 PUSH1 0x1 PUSH1 0xA0 SHL SUB AND PUSH1 0x0 SWAP1 DUP2 MSTORE PUSH1 0x1 PUSH1 0x20 DUP2 SWAP1 MSTORE PUSH1 0x40 SWAP1 SWAP2 KECCAK256 DUP1 SLOAD PUSH1 0xFF NOT AND SWAP1 SWAP2 OR SWAP1 SSTORE JUMP JUMPDEST PUSH1 0x4 SLOAD PUSH1 0x40 MLOAD PUSH1 0x0 SWAP2 PUSH1 0x1 PUSH1 0x1 PUSH1 0xA0 SHL SUB AND SWAP1 SELFBALANCE SWAP1 DUP4 DUP2 DUP2 DUP2 DUP6 DUP8 GAS CALL SWAP3 POP POP POP RETURNDATASIZE DUP1 PUSH1 0x0 DUP2 EQ PUSH3 0x4BA JUMPI PUSH1 0x40 MLOAD SWAP2 POP PUSH1 0x1F NOT PUSH1 0x3F RETURNDATASIZE ADD AND DUP3 ADD PUSH1 0x40 MSTORE RETURNDATASIZE DUP3 MSTORE RETURNDATASIZE PUSH1 0x0 PUSH1 0x20 DUP5 ADD RETURNDATACOPY PUSH3 0x4BF JUMP JUMPDEST PUSH1 0x60 SWAP2 POP JUMPDEST POP POP SWAP1 POP DUP1 PUSH3 0x4CE JUMPI PUSH1 0x0 DUP1 REVERT JUMPDEST POP JUMP JUMPDEST PUSH3 0x4DC CALLER PUSH3 0x507 JUMP JUMPDEST PUSH3 0x4E6 JUMPI PUSH1 0x0 DUP1 REVERT JUMPDEST PUSH1 0x1 PUSH1 0x1 PUSH1 0xA0 SHL SUB AND PUSH1 0x0 SWAP1 DUP2 MSTORE PUSH1 0x1 PUSH1 0x20 MSTORE PUSH1 0x40 SWAP1 KECCAK256 DUP1 SLOAD PUSH1 0xFF NOT AND SWAP1 SSTORE JUMP JUMPDEST PUSH1 0x1 PUSH1 0x1 PUSH1 0xA0 SHL SUB AND PUSH1 0x0 SWAP1 DUP2 MSTORE PUSH1 0x1 PUSH1 0x20 MSTORE PUSH1 0x40 SWAP1 KECCAK256 SLOAD PUSH1 0xFF AND SWAP1 JUMP JUMPDEST PUSH2 0x6822 DUP1 PUSH3 0x69C DUP4 CODECOPY ADD SWAP1 JUMP JUMPDEST PUSH1 0x0 PUSH1 0x20 DUP3 DUP5 SUB SLT ISZERO PUSH3 0x546 JUMPI PUSH1 0x0 DUP1 REVERT JUMPDEST POP CALLDATALOAD SWAP2 SWAP1 POP JUMP JUMPDEST PUSH1 0x1 PUSH1 0x1 PUSH1 0xA0 SHL SUB SWAP2 SWAP1 SWAP2 AND DUP2 MSTORE PUSH1 0x20 ADD SWAP1 JUMP JUMPDEST PUSH1 0x1 PUSH1 0x1 PUSH1 0xA0 SHL SUB DUP2 AND DUP2 EQ PUSH3 0x4CE JUMPI PUSH1 0x0 DUP1 REVERT JUMPDEST PUSH1 0x0 DUP1 PUSH1 0x40 DUP4 DUP6 SUB SLT ISZERO PUSH3 0x58B JUMPI PUSH1 0x0 DUP1 REVERT JUMPDEST DUP3 CALLDATALOAD PUSH3 0x598 DUP2 PUSH3 0x561 JUMP JUMPDEST SWAP2 POP PUSH1 0x20 DUP4 ADD CALLDATALOAD PUSH3 0x5AA DUP2 PUSH3 0x561 JUMP JUMPDEST DUP1 SWAP2 POP POP SWAP3 POP SWAP3 SWAP1 POP JUMP JUMPDEST PUSH1 0x0 PUSH1 0x20 DUP3 DUP5 SUB SLT ISZERO PUSH3 0x5C8 JUMPI PUSH1 0x0 DUP1 REVERT JUMPDEST DUP2 CALLDATALOAD PUSH3 0x2DA DUP2 PUSH3 0x561 JUMP JUMPDEST PUSH1 0x0 DUP1 PUSH1 0x0 DUP1 PUSH1 0x0 DUP1 PUSH1 0x0 PUSH1 0xE0 DUP9 DUP11 SUB SLT ISZERO PUSH3 0x5F1 JUMPI PUSH1 0x0 DUP1 REVERT JUMPDEST DUP8 CALLDATALOAD PUSH3 0x5FE DUP2 PUSH3 0x561 JUMP JUMPDEST SWAP7 POP PUSH1 0x20 DUP9 ADD CALLDATALOAD PUSH3 0x610 DUP2 PUSH3 0x561 JUMP JUMPDEST SWAP6 POP PUSH1 0x40 DUP9 ADD CALLDATALOAD DUP1 ISZERO ISZERO DUP2 EQ PUSH3 0x626 JUMPI PUSH1 0x0 DUP1 REVERT JUMPDEST SWAP7 SWAP10 SWAP6 SWAP9 POP SWAP6 SWAP7 PUSH1 0x60 DUP2 ADD CALLDATALOAD SWAP7 POP PUSH1 0x80 DUP2 ADD CALLDATALOAD SWAP6 PUSH1 0xA0 DUP3 ADD CALLDATALOAD SWAP6 POP PUSH1 0xC0 SWAP1 SWAP2 ADD CALLDATALOAD SWAP4 POP SWAP2 POP POP JUMP JUMPDEST PUSH4 0x4E487B71 PUSH1 0xE0 SHL PUSH1 0x0 MSTORE PUSH1 0x11 PUSH1 0x4 MSTORE PUSH1 0x24 PUSH1 0x0 REVERT JUMPDEST PUSH1 0x0 PUSH1 0x1 DUP3 ADD PUSH3 0x679 JUMPI PUSH3 0x679 PUSH3 0x64E JUMP JUMPDEST POP PUSH1 0x1 ADD SWAP1 JUMP JUMPDEST PUSH1 0x0 DUP3 NOT DUP3 GT ISZERO PUSH3 0x696 JUMPI PUSH3 0x696 PUSH3 0x64E JUMP JUMPDEST POP ADD SWAP1 JUMP INVALID PUSH1 0xE0 PUSH1 0x40 MSTORE PUSH1 0x4 PUSH1 0xA0 DUP2 SWAP1 MSTORE PUSH4 0x784FCA49 PUSH1 0xE1 SHL PUSH1 0xC0 SWAP1 DUP2 MSTORE PUSH3 0x27 SWAP2 PUSH1 0x8 SWAP2 SWAP1 PUSH3 0x239 JUMP JUMPDEST POP PUSH1 0x40 DUP1 MLOAD DUP1 DUP3 ADD SWAP1 SWAP2 MSTORE PUSH1 0x4 DUP1 DUP3 MSTORE PUSH4 0xF09F9491 PUSH1 0xE0 SHL PUSH1 0x20 SWAP1 SWAP3 ADD SWAP2 DUP3 MSTORE PUSH3 0x55 SWAP2 PUSH1 0x9 SWAP2 PUSH3 0x239 JUMP JUMPDEST POP PUSH1 0xA DUP1 SLOAD PUSH1 0x1 PUSH1 0x1 PUSH1 0xA0 SHL SUB NOT SWAP1 DUP2 AND PUSH20 0x50134FD4EA6547846EDE4C4BF46A334B7E87CCD OR SWAP1 SWAP2 SSTORE PUSH1 0xB DUP1 SLOAD DUP3 AND PUSH20 0xD166DF9DFB917C3B960673E2F420F928D45C9BE1 OR SWAP1 SSTORE PUSH2 0x1388 PUSH1 0xC SSTORE PUSH2 0x2710 PUSH1 0x80 DUP2 SWAP1 MSTORE PUSH1 0xD DUP1 SLOAD SWAP1 SWAP3 AND PUSH20 0x67954768E721FAD0F0F21E33E874497C73ED6A82 OR SWAP1 SWAP2 SSTORE PUSH1 0x10 SSTORE PUSH2 0x2EE PUSH1 0x11 SSTORE PUSH1 0x0 PUSH1 0x12 DUP2 SWAP1 SSTORE PUSH1 0x13 SSTORE PUSH7 0xD801472258000 PUSH1 0x14 SSTORE PUSH10 0x34F086F3B33B68400000 PUSH1 0x15 SSTORE PUSH10 0xD3C21BCECCEDA1000000 PUSH1 0x16 SSTORE PUSH1 0x17 DUP1 SLOAD PUSH1 0xFF NOT AND SWAP1 SSTORE PUSH1 0x40 MLOAD PUSH3 0x6822 CODESIZE DUP2 SWAP1 SUB SWAP1 DUP2 SWAP1 DUP4 CODECOPY DUP2 ADD PUSH1 0x40 DUP2 SWAP1 MSTORE PUSH3 0x131 SWAP2 PUSH3 0x2ED JUMP JUMPDEST PUSH1 0xA SLOAD PUSH1 0xB SLOAD PUSH1 0x0 DUP1 SLOAD PUSH1 0x1 PUSH1 0x1 PUSH1 0xA0 SHL SUB NOT AND CALLER SWAP1 DUP2 OR DUP3 SSTORE DUP2 MSTORE PUSH1 0x1 PUSH1 0x20 DUP2 SWAP1 MSTORE PUSH1 0x40 DUP1 DUP4 KECCAK256 DUP1 SLOAD PUSH1 0xFF NOT SWAP1 DUP2 AND DUP5 OR SWAP1 SWAP2 SSTORE PUSH1 0x1 PUSH1 0x1 PUSH1 0xA0 SHL SUB SWAP6 DUP7 AND DUP5 MSTORE DUP2 DUP5 KECCAK256 DUP1 SLOAD DUP3 AND DUP5 OR SWAP1 SSTORE SWAP5 SWAP1 SWAP4 AND DUP3 MSTORE SWAP2 SWAP1 KECCAK256 DUP1 SLOAD SWAP1 SWAP3 AND OR SWAP1 SSTORE DUP1 PUSH3 0x198 CALLER SWAP1 JUMP JUMPDEST PUSH1 0x40 DUP1 MLOAD DUP1 DUP3 ADD DUP3 MSTORE PUSH1 0x3 DUP2 MSTORE PUSH3 0x8AA89 PUSH1 0xEB SHL PUSH1 0x20 DUP3 ADD MSTORE SWAP1 MLOAD PUSH3 0x1BE SWAP1 PUSH3 0x2C8 JUMP JUMPDEST PUSH3 0x1CC SWAP4 SWAP3 SWAP2 SWAP1 PUSH3 0x31F JUMP JUMPDEST PUSH1 0x40 MLOAD DUP1 SWAP2 SUB SWAP1 PUSH1 0x0 CREATE DUP1 ISZERO DUP1 ISZERO PUSH3 0x1E9 JUMPI RETURNDATASIZE PUSH1 0x0 DUP1 RETURNDATACOPY RETURNDATASIZE PUSH1 0x0 REVERT JUMPDEST POP PUSH1 0x0 DUP1 MSTORE PUSH1 0x4 PUSH1 0x20 MSTORE PUSH32 0x17EF568E3E12AB5B9C7254A8D58478811DE00F9E6EB34345ACD53BF8FD09D3EC DUP1 SLOAD PUSH1 0x1 PUSH1 0x1 PUSH1 0xA0 SHL SUB NOT AND PUSH1 0x1 PUSH1 0x1 PUSH1 0xA0 SHL SUB SWAP3 SWAP1 SWAP3 AND SWAP2 SWAP1 SWAP2 OR SWAP1 SSTORE POP PUSH3 0x3CF JUMP JUMPDEST DUP3 DUP1 SLOAD PUSH3 0x247 SWAP1 PUSH3 0x393 JUMP JUMPDEST SWAP1 PUSH1 0x0 MSTORE PUSH1 0x20 PUSH1 0x0 KECCAK256 SWAP1 PUSH1 0x1F ADD PUSH1 0x20 SWAP1 DIV DUP2 ADD SWAP3 DUP3 PUSH3 0x26B JUMPI PUSH1 0x0 DUP6 SSTORE PUSH3 0x2B6 JUMP JUMPDEST DUP3 PUSH1 0x1F LT PUSH3 0x286 JUMPI DUP1 MLOAD PUSH1 0xFF NOT AND DUP4 DUP1 ADD OR DUP6 SSTORE PUSH3 0x2B6 JUMP JUMPDEST DUP3 DUP1 ADD PUSH1 0x1 ADD DUP6 SSTORE DUP3 ISZERO PUSH3 0x2B6 JUMPI SWAP2 DUP3 ADD JUMPDEST DUP3 DUP2 GT ISZERO PUSH3 0x2B6 JUMPI DUP3 MLOAD DUP3 SSTORE SWAP2 PUSH1 0x20 ADD SWAP2 SWAP1 PUSH1 0x1 ADD SWAP1 PUSH3 0x299 JUMP JUMPDEST POP PUSH3 0x2C4 SWAP3 SWAP2 POP PUSH3 0x2D6 JUMP JUMPDEST POP SWAP1 JUMP JUMPDEST PUSH2 0x201E DUP1 PUSH3 0x4804 DUP4 CODECOPY ADD SWAP1 JUMP JUMPDEST JUMPDEST DUP1 DUP3 GT ISZERO PUSH3 0x2C4 JUMPI PUSH1 0x0 DUP2 SSTORE PUSH1 0x1 ADD PUSH3 0x2D7 JUMP JUMPDEST PUSH1 0x0 PUSH1 0x20 DUP3 DUP5 SUB SLT ISZERO PUSH3 0x300 JUMPI PUSH1 0x0 DUP1 REVERT JUMPDEST DUP2 MLOAD PUSH1 0x1 PUSH1 0x1 PUSH1 0xA0 SHL SUB DUP2 AND DUP2 EQ PUSH3 0x318 JUMPI PUSH1 0x0 DUP1 REVERT JUMPDEST SWAP4 SWAP3 POP POP POP JUMP JUMPDEST PUSH1 0x0 PUSH1 0x1 DUP1 PUSH1 0xA0 SHL SUB DUP1 DUP7 AND DUP4 MSTORE PUSH1 0x20 DUP2 DUP7 AND DUP2 DUP6 ADD MSTORE PUSH1 0x60 PUSH1 0x40 DUP6 ADD MSTORE DUP5 MLOAD SWAP2 POP DUP2 PUSH1 0x60 DUP6 ADD MSTORE PUSH1 0x0 JUMPDEST DUP3 DUP2 LT ISZERO PUSH3 0x368 JUMPI DUP6 DUP2 ADD DUP3 ADD MLOAD DUP6 DUP3 ADD PUSH1 0x80 ADD MSTORE DUP2 ADD PUSH3 0x34A JUMP JUMPDEST DUP3 DUP2 GT ISZERO PUSH3 0x37B JUMPI PUSH1 0x0 PUSH1 0x80 DUP5 DUP8 ADD ADD MSTORE JUMPDEST POP POP PUSH1 0x1F ADD PUSH1 0x1F NOT AND SWAP2 SWAP1 SWAP2 ADD PUSH1 0x80 ADD SWAP5 SWAP4 POP POP POP POP JUMP JUMPDEST PUSH1 0x1 DUP2 DUP2 SHR SWAP1 DUP3 AND DUP1 PUSH3 0x3A8 JUMPI PUSH1 0x7F DUP3 AND SWAP2 POP JUMPDEST PUSH1 0x20 DUP3 LT DUP2 SUB PUSH3 0x3C9 JUMPI PUSH4 0x4E487B71 PUSH1 0xE0 SHL PUSH1 0x0 MSTORE PUSH1 0x22 PUSH1 0x4 MSTORE PUSH1 0x24 PUSH1 0x0 REVERT JUMPDEST POP SWAP2 SWAP1 POP JUMP JUMPDEST PUSH1 0x80 MLOAD PUSH2 0x440B PUSH3 0x3F9 PUSH1 0x0 CODECOPY PUSH1 0x0 DUP2 DUP2 PUSH2 0xCBD ADD MSTORE DUP2 DUP2 PUSH2 0x1152 ADD MSTORE PUSH2 0x1694 ADD MSTORE PUSH2 0x440B PUSH1 0x0 RETURN INVALID PUSH1 0x80 PUSH1 0x40 MSTORE PUSH1 0x4 CALLDATASIZE LT PUSH3 0x12B JUMPI PUSH1 0x0 CALLDATALOAD PUSH1 0xE0 SHR DUP1 PUSH4 0x8CD0ACC3 GT PUSH3 0xA5 JUMPI DUP1 PUSH4 0x8CD0ACC3 EQ PUSH3 0x2B4 JUMPI DUP1 PUSH4 0x95D89B41 EQ PUSH3 0x2D9 JUMPI DUP1 PUSH4 0xB20B119C EQ PUSH3 0x2F1 JUMPI DUP1 PUSH4 0xB6A5D7DE EQ PUSH3 0x309 JUMPI DUP1 PUSH4 0xC6ECEB10 EQ PUSH3 0x32E JUMPI DUP1 PUSH4 0xC79D4391 EQ PUSH3 0x346 JUMPI DUP1 PUSH4 0xD9A06DBD EQ PUSH3 0x36B JUMPI DUP1 PUSH4 0xDB236D96 EQ PUSH3 0x390 JUMPI DUP1 PUSH4 0xDBBA0F01 EQ PUSH3 0x3E9 JUMPI DUP1 PUSH4 0xDD457D76 EQ PUSH3 0x40E JUMPI DUP1 PUSH4 0xF0B37C04 EQ PUSH3 0x433 JUMPI STOP JUMPDEST DUP1 PUSH4 0x6FDDE03 EQ PUSH3 0x135 JUMPI DUP1 PUSH4 0xCBA52F9 EQ PUSH3 0x165 JUMPI DUP1 PUSH4 0x3CCFD60B EQ PUSH3 0x18D JUMPI DUP1 PUSH4 0x43602017 EQ PUSH3 0x1A5 JUMPI DUP1 PUSH4 0x528856F4 EQ PUSH3 0x1CA JUMPI DUP1 PUSH4 0x560D9995 EQ PUSH3 0x1EF JUMPI DUP1 PUSH4 0x570E9F70 EQ PUSH3 0x206 JUMPI DUP1 PUSH4 0x6532D899 EQ PUSH3 0x22D JUMPI DUP1 PUSH4 0x7D21BBE2 EQ PUSH3 0x252 JUMPI DUP1 PUSH4 0x841BA87D EQ PUSH3 0x277 JUMPI DUP1 PUSH4 0x89476069 EQ PUSH3 0x28F JUMPI STOP JUMPDEST CALLDATASIZE PUSH3 0x133 JUMPI STOP JUMPDEST STOP JUMPDEST CALLVALUE DUP1 ISZERO PUSH3 0x142 JUMPI PUSH1 0x0 DUP1 REVERT JUMPDEST POP PUSH3 0x14D PUSH3 0x458 JUMP JUMPDEST PUSH1 0x40 MLOAD PUSH3 0x15C SWAP2 SWAP1 PUSH3 0x1D00 JUMP JUMPDEST PUSH1 0x40 MLOAD DUP1 SWAP2 SUB SWAP1 RETURN JUMPDEST PUSH3 0x17C PUSH3 0x176 CALLDATASIZE PUSH1 0x4 PUSH3 0x1E7A JUMP JUMPDEST PUSH3 0x4EE JUMP JUMPDEST PUSH1 0x40 MLOAD SWAP1 ISZERO ISZERO DUP2 MSTORE PUSH1 0x20 ADD PUSH3 0x15C JUMP JUMPDEST CALLVALUE DUP1 ISZERO PUSH3 0x19A JUMPI PUSH1 0x0 DUP1 REVERT JUMPDEST POP PUSH3 0x133 PUSH3 0x679 JUMP JUMPDEST CALLVALUE DUP1 ISZERO PUSH3 0x1B2 JUMPI PUSH1 0x0 DUP1 REVERT JUMPDEST POP PUSH3 0x133 PUSH3 0x1C4 CALLDATASIZE PUSH1 0x4 PUSH3 0x1EE4 JUMP JUMPDEST PUSH3 0x79D JUMP JUMPDEST CALLVALUE DUP1 ISZERO PUSH3 0x1D7 JUMPI PUSH1 0x0 DUP1 REVERT JUMPDEST POP PUSH3 0x17C PUSH3 0x1E9 CALLDATASIZE PUSH1 0x4 PUSH3 0x1F04 JUMP JUMPDEST PUSH3 0x7C0 JUMP JUMPDEST PUSH3 0x17C PUSH3 0x200 CALLDATASIZE PUSH1 0x4 PUSH3 0x1F6B JUMP JUMPDEST PUSH3 0x903 JUMP JUMPDEST CALLVALUE DUP1 ISZERO PUSH3 0x213 JUMPI PUSH1 0x0 DUP1 REVERT JUMPDEST POP PUSH3 0x21E PUSH1 0x11 SLOAD DUP2 JUMP JUMPDEST PUSH1 0x40 MLOAD SWAP1 DUP2 MSTORE PUSH1 0x20 ADD PUSH3 0x15C JUMP JUMPDEST CALLVALUE DUP1 ISZERO PUSH3 0x23A JUMPI PUSH1 0x0 DUP1 REVERT JUMPDEST POP PUSH3 0x17C PUSH3 0x24C CALLDATASIZE PUSH1 0x4 PUSH3 0x1FA7 JUMP JUMPDEST PUSH3 0xB9D JUMP JUMPDEST CALLVALUE DUP1 ISZERO PUSH3 0x25F JUMPI PUSH1 0x0 DUP1 REVERT JUMPDEST POP PUSH3 0x17C PUSH3 0x271 CALLDATASIZE PUSH1 0x4 PUSH3 0x1FE3 JUMP JUMPDEST PUSH3 0xC2D JUMP JUMPDEST CALLVALUE DUP1 ISZERO PUSH3 0x284 JUMPI PUSH1 0x0 DUP1 REVERT JUMPDEST POP PUSH3 0x21E PUSH1 0x13 SLOAD DUP2 JUMP JUMPDEST CALLVALUE DUP1 ISZERO PUSH3 0x29C JUMPI PUSH1 0x0 DUP1 REVERT JUMPDEST POP PUSH3 0x133 PUSH3 0x2AE CALLDATASIZE PUSH1 0x4 PUSH3 0x1EE4 JUMP JUMPDEST PUSH3 0xDFD JUMP JUMPDEST CALLVALUE DUP1 ISZERO PUSH3 0x2C1 JUMPI PUSH1 0x0 DUP1 REVERT JUMPDEST POP PUSH3 0x17C PUSH3 0x2D3 CALLDATASIZE PUSH1 0x4 PUSH3 0x2058 JUMP JUMPDEST PUSH3 0x1015 JUMP JUMPDEST CALLVALUE DUP1 ISZERO PUSH3 0x2E6 JUMPI PUSH1 0x0 DUP1 REVERT JUMPDEST POP PUSH3 0x14D PUSH3 0x1064 JUMP JUMPDEST CALLVALUE DUP1 ISZERO PUSH3 0x2FE JUMPI PUSH1 0x0 DUP1 REVERT JUMPDEST POP PUSH3 0x21E PUSH1 0x12 SLOAD DUP2 JUMP JUMPDEST CALLVALUE DUP1 ISZERO PUSH3 0x316 JUMPI PUSH1 0x0 DUP1 REVERT JUMPDEST POP PUSH3 0x133 PUSH3 0x328 CALLDATASIZE PUSH1 0x4 PUSH3 0x1EE4 JUMP JUMPDEST PUSH3 0x1073 JUMP JUMPDEST CALLVALUE DUP1 ISZERO PUSH3 0x33B JUMPI PUSH1 0x0 DUP1 REVERT JUMPDEST POP PUSH3 0x21E PUSH1 0x14 SLOAD DUP2 JUMP JUMPDEST CALLVALUE DUP1 ISZERO PUSH3 0x353 JUMPI PUSH1 0x0 DUP1 REVERT JUMPDEST POP PUSH3 0x17C PUSH3 0x365 CALLDATASIZE PUSH1 0x4 PUSH3 0x1FE3 JUMP JUMPDEST PUSH3 0x10AF JUMP JUMPDEST CALLVALUE DUP1 ISZERO PUSH3 0x378 JUMPI PUSH1 0x0 DUP1 REVERT JUMPDEST POP PUSH3 0x133 PUSH3 0x38A CALLDATASIZE PUSH1 0x4 PUSH3 0x2096 JUMP JUMPDEST PUSH3 0x1293 JUMP JUMPDEST CALLVALUE DUP1 ISZERO PUSH3 0x39D JUMPI PUSH1 0x0 DUP1 REVERT JUMPDEST POP PUSH3 0x3DA PUSH3 0x3AF CALLDATASIZE PUSH1 0x4 PUSH3 0x1EE4 JUMP JUMPDEST PUSH1 0x1 PUSH1 0x1 PUSH1 0xA0 SHL SUB SWAP1 DUP2 AND PUSH1 0x0 SWAP1 DUP2 MSTORE PUSH1 0x7 PUSH1 0x20 SWAP1 DUP2 MSTORE PUSH1 0x40 DUP1 DUP4 KECCAK256 SLOAD DUP4 MSTORE PUSH1 0x4 SWAP1 SWAP2 MSTORE SWAP1 KECCAK256 SLOAD AND SWAP1 JUMP JUMPDEST PUSH1 0x40 MLOAD PUSH3 0x15C SWAP2 SWAP1 PUSH3 0x2114 JUMP JUMPDEST CALLVALUE DUP1 ISZERO PUSH3 0x3F6 JUMPI PUSH1 0x0 DUP1 REVERT JUMPDEST POP PUSH3 0x17C PUSH3 0x408 CALLDATASIZE PUSH1 0x4 PUSH3 0x1FA7 JUMP JUMPDEST PUSH3 0x132B JUMP JUMPDEST CALLVALUE DUP1 ISZERO PUSH3 0x41B JUMPI PUSH1 0x0 DUP1 REVERT JUMPDEST POP PUSH3 0x17C PUSH3 0x42D CALLDATASIZE PUSH1 0x4 PUSH3 0x1FE3 JUMP JUMPDEST PUSH3 0x14A8 JUMP JUMPDEST CALLVALUE DUP1 ISZERO PUSH3 0x440 JUMPI PUSH1 0x0 DUP1 REVERT JUMPDEST POP PUSH3 0x133 PUSH3 0x452 CALLDATASIZE PUSH1 0x4 PUSH3 0x1EE4 JUMP JUMPDEST PUSH3 0x1625 JUMP JUMPDEST PUSH1 0x8 DUP1 SLOAD PUSH3 0x467 SWAP1 PUSH3 0x2128 JUMP JUMPDEST DUP1 PUSH1 0x1F ADD PUSH1 0x20 DUP1 SWAP2 DIV MUL PUSH1 0x20 ADD PUSH1 0x40 MLOAD SWAP1 DUP2 ADD PUSH1 0x40 MSTORE DUP1 SWAP3 SWAP2 SWAP1 DUP2 DUP2 MSTORE PUSH1 0x20 ADD DUP3 DUP1 SLOAD PUSH3 0x495 SWAP1 PUSH3 0x2128 JUMP JUMPDEST DUP1 ISZERO PUSH3 0x4E6 JUMPI DUP1 PUSH1 0x1F LT PUSH3 0x4BA JUMPI PUSH2 0x100 DUP1 DUP4 SLOAD DIV MUL DUP4 MSTORE SWAP2 PUSH1 0x20 ADD SWAP2 PUSH3 0x4E6 JUMP JUMPDEST DUP3 ADD SWAP2 SWAP1 PUSH1 0x0 MSTORE PUSH1 0x20 PUSH1 0x0 KECCAK256 SWAP1 JUMPDEST DUP2 SLOAD DUP2 MSTORE SWAP1 PUSH1 0x1 ADD SWAP1 PUSH1 0x20 ADD DUP1 DUP4 GT PUSH3 0x4C8 JUMPI DUP3 SWAP1 SUB PUSH1 0x1F AND DUP3 ADD SWAP2 JUMPDEST POP POP POP POP POP DUP2 JUMP JUMPDEST PUSH1 0x0 PUSH3 0x4FB CALLER PUSH3 0x165B JUMP JUMPDEST PUSH3 0x505 JUMPI PUSH1 0x0 DUP1 REVERT JUMPDEST PUSH1 0x0 DUP1 JUMPDEST DUP4 MLOAD DUP2 LT ISZERO PUSH3 0x65C JUMPI PUSH1 0x0 PUSH1 0x1 PUSH1 0x1 PUSH1 0xA0 SHL SUB AND DUP5 DUP3 DUP2 MLOAD DUP2 LT PUSH3 0x533 JUMPI PUSH3 0x533 PUSH3 0x2164 JUMP JUMPDEST PUSH1 0x20 MUL PUSH1 0x20 ADD ADD MLOAD PUSH1 0x1 PUSH1 0x1 PUSH1 0xA0 SHL SUB AND EQ PUSH3 0x642 JUMPI PUSH1 0x0 DUP1 DUP1 MSTORE PUSH1 0x4 PUSH1 0x20 MSTORE PUSH32 0x17EF568E3E12AB5B9C7254A8D58478811DE00F9E6EB34345ACD53BF8FD09D3EC SLOAD DUP6 MLOAD PUSH1 0x1 PUSH1 0x1 PUSH1 0xA0 SHL SUB SWAP1 SWAP2 AND SWAP2 SWAP1 DUP3 SWAP1 PUSH3 0xE73378 SWAP1 DUP9 SWAP1 DUP7 SWAP1 DUP2 LT PUSH3 0x5A1 JUMPI PUSH3 0x5A1 PUSH3 0x2164 JUMP JUMPDEST PUSH1 0x20 MUL PUSH1 0x20 ADD ADD MLOAD DUP10 DUP7 DUP2 MLOAD DUP2 LT PUSH3 0x5BE JUMPI PUSH3 0x5BE PUSH3 0x2164 JUMP JUMPDEST PUSH1 0x20 MUL PUSH1 0x20 ADD ADD MLOAD PUSH1 0x40 MLOAD DUP4 PUSH4 0xFFFFFFFF AND PUSH1 0xE0 SHL DUP2 MSTORE PUSH1 0x4 ADD PUSH3 0x5E5 SWAP3 SWAP2 SWAP1 PUSH3 0x217A JUMP JUMPDEST PUSH1 0x20 PUSH1 0x40 MLOAD DUP1 DUP4 SUB DUP2 PUSH1 0x0 DUP8 GAS CALL ISZERO DUP1 ISZERO PUSH3 0x605 JUMPI RETURNDATASIZE PUSH1 0x0 DUP1 RETURNDATACOPY RETURNDATASIZE PUSH1 0x0 REVERT JUMPDEST POP POP POP POP PUSH1 0x40 MLOAD RETURNDATASIZE PUSH1 0x1F NOT PUSH1 0x1F DUP3 ADD AND DUP3 ADD DUP1 PUSH1 0x40 MSTORE POP DUP2 ADD SWAP1 PUSH3 0x62B SWAP2 SWAP1 PUSH3 0x2193 JUMP JUMPDEST SWAP1 POP DUP1 PUSH3 0x638 JUMPI PUSH1 0x0 DUP1 REVERT JUMPDEST SWAP3 POP PUSH3 0x647 SWAP1 POP JUMP JUMPDEST PUSH1 0x0 SWAP2 POP JUMPDEST DUP1 PUSH3 0x653 DUP2 PUSH3 0x21C9 JUMP JUMPDEST SWAP2 POP POP PUSH3 0x509 JUMP JUMPDEST POP PUSH1 0x1 DUP2 ISZERO ISZERO EQ PUSH3 0x672 JUMPI PUSH3 0x672 PUSH3 0x21E5 JUMP JUMPDEST SWAP4 SWAP3 POP POP POP JUMP JUMPDEST SELFBALANCE PUSH1 0x0 DUP1 DUP1 PUSH3 0x689 DUP5 PUSH3 0x1679 JUMP JUMPDEST SWAP2 SWAP5 POP SWAP3 POP SWAP1 POP PUSH1 0x0 DUP3 ISZERO PUSH3 0x6F4 JUMPI PUSH1 0xB SLOAD PUSH1 0x40 MLOAD PUSH1 0x0 SWAP2 PUSH1 0x1 PUSH1 0x1 PUSH1 0xA0 SHL SUB AND SWAP1 DUP6 SWAP1 DUP4 DUP2 DUP2 DUP2 DUP6 DUP8 GAS CALL SWAP3 POP POP POP RETURNDATASIZE DUP1 PUSH1 0x0 DUP2 EQ PUSH3 0x6E8 JUMPI PUSH1 0x40 MLOAD SWAP2 POP PUSH1 0x1F NOT PUSH1 0x3F RETURNDATASIZE ADD AND DUP3 ADD PUSH1 0x40 MSTORE RETURNDATASIZE DUP3 MSTORE RETURNDATASIZE PUSH1 0x0 PUSH1 0x20 DUP5 ADD RETURNDATACOPY PUSH3 0x6ED JUMP JUMPDEST PUSH1 0x60 SWAP2 POP JUMPDEST POP SWAP1 SWAP3 POP POP POP JUMPDEST DUP2 ISZERO PUSH3 0x756 JUMPI PUSH1 0xA SLOAD PUSH1 0x40 MLOAD PUSH1 0x0 SWAP2 PUSH1 0x1 PUSH1 0x1 PUSH1 0xA0 SHL SUB AND SWAP1 DUP5 SWAP1 DUP4 DUP2 DUP2 DUP2 DUP6 DUP8 GAS CALL SWAP3 POP POP POP RETURNDATASIZE DUP1 PUSH1 0x0 DUP2 EQ PUSH3 0x74A JUMPI PUSH1 0x40 MLOAD SWAP2 POP PUSH1 0x1F NOT PUSH1 0x3F RETURNDATASIZE ADD AND DUP3 ADD PUSH1 0x40 MSTORE RETURNDATASIZE DUP3 MSTORE RETURNDATASIZE PUSH1 0x0 PUSH1 0x20 DUP5 ADD RETURNDATACOPY PUSH3 0x74F JUMP JUMPDEST PUSH1 0x60 SWAP2 POP JUMPDEST POP SWAP1 SWAP3 POP POP POP JUMPDEST DUP1 PUSH3 0x761 JUMPI PUSH1 0x0 DUP1 REVERT JUMPDEST PUSH1 0x40 MLOAD DUP5 DUP2 MSTORE ADDRESS SWAP1 PUSH32 0x7FCF532C15F0A6DB0BD6D0E038BEA71D30D808C7D98CB3BF7268A95BF5081B65 SWAP1 PUSH1 0x20 ADD PUSH1 0x40 MLOAD DUP1 SWAP2 SUB SWAP1 LOG2 POP POP POP POP POP JUMP JUMPDEST PUSH3 0x7A8 CALLER PUSH3 0x165B JUMP JUMPDEST PUSH3 0x7B2 JUMPI PUSH1 0x0 DUP1 REVERT JUMPDEST PUSH3 0x7BD DUP2 PUSH3 0x1073 JUMP JUMPDEST POP JUMP JUMPDEST PUSH1 0x0 PUSH3 0x7CD CALLER PUSH3 0x165B JUMP JUMPDEST PUSH3 0x7D7 JUMPI PUSH1 0x0 DUP1 REVERT JUMPDEST PUSH1 0xD DUP1 SLOAD PUSH1 0x1 PUSH1 0x1 PUSH1 0xA0 SHL SUB DUP1 DUP8 AND PUSH1 0x1 PUSH1 0x1 PUSH1 0xA0 SHL SUB NOT SWAP3 DUP4 AND OR SWAP1 SWAP3 SSTORE PUSH1 0x0 DUP5 DUP2 MSTORE PUSH1 0x5 PUSH1 0x20 MSTORE PUSH1 0x40 SWAP1 KECCAK256 DUP1 SLOAD SWAP3 DUP9 AND SWAP3 SWAP1 SWAP2 AND SWAP2 SWAP1 SWAP2 OR SWAP1 SSTORE DUP3 PUSH3 0x81C CALLER SWAP1 JUMP JUMPDEST DUP7 PUSH1 0x1 PUSH1 0x1 PUSH1 0xA0 SHL SUB AND PUSH4 0x95D89B41 PUSH1 0x40 MLOAD DUP2 PUSH4 0xFFFFFFFF AND PUSH1 0xE0 SHL DUP2 MSTORE PUSH1 0x4 ADD PUSH1 0x0 PUSH1 0x40 MLOAD DUP1 DUP4 SUB DUP2 DUP7 GAS STATICCALL ISZERO DUP1 ISZERO PUSH3 0x85B JUMPI RETURNDATASIZE PUSH1 0x0 DUP1 RETURNDATACOPY RETURNDATASIZE PUSH1 0x0 REVERT JUMPDEST POP POP POP POP PUSH1 0x40 MLOAD RETURNDATASIZE PUSH1 0x0 DUP3 RETURNDATACOPY PUSH1 0x1F RETURNDATASIZE SWAP1 DUP2 ADD PUSH1 0x1F NOT AND DUP3 ADD PUSH1 0x40 MSTORE PUSH3 0x885 SWAP2 SWAP1 DUP2 ADD SWAP1 PUSH3 0x21FB JUMP JUMPDEST PUSH1 0x40 MLOAD PUSH3 0x893 SWAP1 PUSH3 0x1C95 JUMP JUMPDEST PUSH3 0x8A1 SWAP4 SWAP3 SWAP2 SWAP1 PUSH3 0x2299 JUMP JUMPDEST PUSH1 0x40 MLOAD DUP1 SWAP2 SUB SWAP1 PUSH1 0x0 CREATE DUP1 ISZERO DUP1 ISZERO PUSH3 0x8BE JUMPI RETURNDATASIZE PUSH1 0x0 DUP1 RETURNDATACOPY RETURNDATASIZE PUSH1 0x0 REVERT JUMPDEST POP PUSH1 0x0 DUP4 DUP2 MSTORE PUSH1 0x4 PUSH1 0x20 SWAP1 DUP2 MSTORE PUSH1 0x40 DUP1 DUP4 KECCAK256 DUP1 SLOAD PUSH1 0x1 PUSH1 0x1 PUSH1 0xA0 SHL SUB NOT AND PUSH1 0x1 PUSH1 0x1 PUSH1 0xA0 SHL SUB SWAP6 DUP7 AND OR SWAP1 SSTORE PUSH1 0x5 SWAP1 SWAP2 MSTORE SWAP1 KECCAK256 SLOAD DUP7 DUP3 AND SWAP2 AND EQ SWAP1 POP JUMPDEST SWAP5 SWAP4 POP POP POP POP JUMP JUMPDEST PUSH1 0x0 DUP3 DUP2 MSTORE PUSH1 0x5 PUSH1 0x20 MSTORE PUSH1 0x40 DUP2 KECCAK256 SLOAD PUSH1 0x1 PUSH1 0x1 PUSH1 0xA0 SHL SUB AND DUP1 PUSH3 0x926 JUMPI PUSH1 0x0 DUP1 REVERT JUMPDEST PUSH1 0xA SLOAD PUSH1 0x1 PUSH1 0x1 PUSH1 0xA0 SHL SUB AND CALLER PUSH1 0x1 PUSH1 0x1 PUSH1 0xA0 SHL SUB AND EQ ISZERO DUP1 ISZERO PUSH3 0x95F JUMPI POP PUSH1 0xB SLOAD PUSH1 0x1 PUSH1 0x1 PUSH1 0xA0 SHL SUB AND CALLER PUSH1 0x1 PUSH1 0x1 PUSH1 0xA0 SHL SUB AND EQ ISZERO JUMPDEST ISZERO PUSH3 0xB62 JUMPI PUSH1 0x17 SLOAD PUSH1 0xFF AND PUSH3 0xA8C JUMPI DUP3 PUSH3 0xA7E JUMPI PUSH1 0x40 MLOAD PUSH4 0x6EB1769F PUSH1 0xE1 SHL DUP2 MSTORE DUP6 SWAP1 PUSH1 0x1 PUSH1 0x1 PUSH1 0xA0 SHL SUB DUP4 AND SWAP1 PUSH4 0xDD62ED3E SWAP1 PUSH3 0x9A8 SWAP1 CALLER SWAP1 ADDRESS SWAP1 PUSH1 0x4 ADD PUSH3 0x22C7 JUMP JUMPDEST PUSH1 0x20 PUSH1 0x40 MLOAD DUP1 DUP4 SUB DUP2 DUP7 GAS STATICCALL ISZERO DUP1 ISZERO PUSH3 0x9C6 JUMPI RETURNDATASIZE PUSH1 0x0 DUP1 RETURNDATACOPY RETURNDATASIZE PUSH1 0x0 REVERT JUMPDEST POP POP POP POP PUSH1 0x40 MLOAD RETURNDATASIZE PUSH1 0x1F NOT PUSH1 0x1F DUP3 ADD AND DUP3 ADD DUP1 PUSH1 0x40 MSTORE POP DUP2 ADD SWAP1 PUSH3 0x9EC SWAP2 SWAP1 PUSH3 0x22E1 JUMP JUMPDEST LT ISZERO PUSH3 0x9F8 JUMPI PUSH1 0x0 DUP1 REVERT JUMPDEST DUP5 PUSH1 0x1 PUSH1 0x1 PUSH1 0xA0 SHL SUB DUP3 AND PUSH4 0x70A08231 CALLER JUMPDEST PUSH1 0x40 MLOAD DUP3 PUSH4 0xFFFFFFFF AND PUSH1 0xE0 SHL DUP2 MSTORE PUSH1 0x4 ADD PUSH3 0xA28 SWAP2 SWAP1 PUSH3 0x2114 JUMP JUMPDEST PUSH1 0x20 PUSH1 0x40 MLOAD DUP1 DUP4 SUB DUP2 DUP7 GAS STATICCALL ISZERO DUP1 ISZERO PUSH3 0xA46 JUMPI RETURNDATASIZE PUSH1 0x0 DUP1 RETURNDATACOPY RETURNDATASIZE PUSH1 0x0 REVERT JUMPDEST POP POP POP POP PUSH1 0x40 MLOAD RETURNDATASIZE PUSH1 0x1F NOT PUSH1 0x1F DUP3 ADD AND DUP3 ADD DUP1 PUSH1 0x40 MSTORE POP DUP2 ADD SWAP1 PUSH3 0xA6C SWAP2 SWAP1 PUSH3 0x22E1 JUMP JUMPDEST LT ISZERO PUSH3 0xA78 JUMPI PUSH1 0x0 DUP1 REVERT JUMPDEST PUSH3 0xB62 JUMP JUMPDEST DUP5 CALLVALUE LT ISZERO PUSH3 0xA78 JUMPI PUSH1 0x0 DUP1 REVERT JUMPDEST DUP3 PUSH3 0xB46 JUMPI PUSH1 0x11 SLOAD PUSH3 0xAA1 SWAP1 DUP7 PUSH3 0x22FB JUMP JUMPDEST PUSH1 0x40 MLOAD PUSH4 0x6EB1769F PUSH1 0xE1 SHL DUP2 MSTORE PUSH1 0x1 PUSH1 0x1 PUSH1 0xA0 SHL SUB DUP4 AND SWAP1 PUSH4 0xDD62ED3E SWAP1 PUSH3 0xAD1 SWAP1 CALLER SWAP1 ADDRESS SWAP1 PUSH1 0x4 ADD PUSH3 0x22C7 JUMP JUMPDEST PUSH1 0x20 PUSH1 0x40 MLOAD DUP1 DUP4 SUB DUP2 DUP7 GAS STATICCALL ISZERO DUP1 ISZERO PUSH3 0xAEF JUMPI RETURNDATASIZE PUSH1 0x0 DUP1 RETURNDATACOPY RETURNDATASIZE PUSH1 0x0 REVERT JUMPDEST POP POP POP POP PUSH1 0x40 MLOAD RETURNDATASIZE PUSH1 0x1F NOT PUSH1 0x1F DUP3 ADD AND DUP3 ADD DUP1 PUSH1 0x40 MSTORE POP DUP2 ADD SWAP1 PUSH3 0xB15 SWAP2 SWAP1 PUSH3 0x22E1 JUMP JUMPDEST LT ISZERO PUSH3 0xB21 JUMPI PUSH1 0x0 DUP1 REVERT JUMPDEST PUSH1 0x11 SLOAD PUSH3 0xB30 SWAP1 DUP7 PUSH3 0x22FB JUMP JUMPDEST PUSH1 0x1 PUSH1 0x1 PUSH1 0xA0 SHL SUB DUP3 AND PUSH4 0x70A08231 CALLER PUSH3 0xA0A JUMP JUMPDEST PUSH1 0x14 SLOAD PUSH3 0xB55 SWAP1 DUP7 PUSH3 0x22FB JUMP JUMPDEST CALLVALUE LT ISZERO PUSH3 0xB62 JUMPI PUSH1 0x0 DUP1 REVERT JUMPDEST PUSH1 0x15 SLOAD DUP6 GT ISZERO PUSH3 0xB72 JUMPI PUSH1 0x0 DUP1 REVERT JUMPDEST PUSH1 0x0 PUSH3 0xB82 CALLER DUP4 DUP9 DUP8 PUSH3 0x170E JUMP JUMPDEST SWAP1 POP PUSH1 0x1 DUP2 ISZERO ISZERO EQ PUSH3 0xB94 JUMPI PUSH1 0x0 DUP1 REVERT JUMPDEST SWAP6 SWAP5 POP POP POP POP POP JUMP JUMPDEST PUSH1 0x0 PUSH3 0xBAA CALLER PUSH3 0x165B JUMP JUMPDEST PUSH3 0xBB4 JUMPI PUSH1 0x0 DUP1 REVERT JUMPDEST PUSH1 0x1 PUSH1 0x1 PUSH1 0xA0 SHL SUB DUP3 AND PUSH3 0xBCD JUMPI PUSH3 0xBCD PUSH3 0x21E5 JUMP JUMPDEST PUSH3 0xBE3 PUSH1 0x1 PUSH1 0x1 PUSH1 0xA0 SHL SUB DUP6 AND DUP4 DUP6 PUSH3 0x19FC JUMP JUMPDEST PUSH1 0x1 PUSH1 0x1 PUSH1 0xA0 SHL SUB DUP1 DUP6 AND PUSH1 0x0 DUP2 DUP2 MSTORE PUSH1 0x7 PUSH1 0x20 SWAP1 DUP2 MSTORE PUSH1 0x40 DUP1 DUP4 KECCAK256 SLOAD DUP1 DUP5 MSTORE PUSH1 0x5 SWAP1 SWAP3 MSTORE SWAP1 SWAP2 KECCAK256 SLOAD SWAP1 SWAP3 AND SWAP1 DUP2 SWAP1 PUSH3 0xC20 SWAP1 DUP3 DUP8 DUP10 PUSH3 0x1A5B JUMP JUMPDEST POP PUSH1 0x1 SWAP7 SWAP6 POP POP POP POP POP POP JUMP JUMPDEST PUSH1 0x0 PUSH3 0xC3A CALLER PUSH3 0x165B JUMP JUMPDEST PUSH3 0xC44 JUMPI PUSH1 0x0 DUP1 REVERT JUMPDEST PUSH1 0xA SLOAD PUSH1 0x0 SWAP1 DUP2 SWAP1 DUP2 SWAP1 PUSH1 0x1 PUSH1 0x1 PUSH1 0xA0 SHL SUB AND CALLER PUSH1 0x1 PUSH1 0x1 PUSH1 0xA0 SHL SUB AND EQ PUSH3 0xC6C JUMPI PUSH1 0x1 SWAP3 POP JUMPDEST PUSH1 0x0 JUMPDEST DUP7 MLOAD DUP2 LT ISZERO PUSH3 0xDDD JUMPI PUSH1 0x0 PUSH1 0x1 PUSH1 0x1 PUSH1 0xA0 SHL SUB AND DUP8 DUP3 DUP2 MLOAD DUP2 LT PUSH3 0xC99 JUMPI PUSH3 0xC99 PUSH3 0x2164 JUMP JUMPDEST PUSH1 0x20 MUL PUSH1 0x20 ADD ADD MLOAD PUSH1 0x1 PUSH1 0x1 PUSH1 0xA0 SHL SUB AND EQ PUSH3 0xDC3 JUMPI DUP4 ISZERO ISZERO PUSH1 0x1 SUB PUSH3 0xD61 JUMPI PUSH32 0x0 PUSH1 0xC SLOAD DUP10 DUP4 DUP2 MLOAD DUP2 LT PUSH3 0xCF4 JUMPI PUSH3 0xCF4 PUSH3 0x2164 JUMP JUMPDEST PUSH1 0x20 MUL PUSH1 0x20 ADD ADD MLOAD PUSH3 0xD08 SWAP2 SWAP1 PUSH3 0x2316 JUMP JUMPDEST PUSH3 0xD14 SWAP2 SWAP1 PUSH3 0x2338 JUMP JUMPDEST SWAP2 POP DUP2 DUP9 DUP3 DUP2 MLOAD DUP2 LT PUSH3 0xD2C JUMPI PUSH3 0xD2C PUSH3 0x2164 JUMP JUMPDEST PUSH1 0x20 MUL PUSH1 0x20 ADD ADD DUP2 DUP2 MLOAD PUSH3 0xD42 SWAP2 SWAP1 PUSH3 0x235B JUMP JUMPDEST SWAP1 MSTORE POP PUSH1 0xA SLOAD PUSH3 0xD61 SWAP1 PUSH1 0x1 PUSH1 0x1 PUSH1 0xA0 SHL SUB DUP9 DUP2 AND SWAP2 AND DUP5 PUSH3 0x19FC JUMP JUMPDEST PUSH3 0xDB9 DUP8 DUP3 DUP2 MLOAD DUP2 LT PUSH3 0xD7A JUMPI PUSH3 0xD7A PUSH3 0x2164 JUMP JUMPDEST PUSH1 0x20 MUL PUSH1 0x20 ADD ADD MLOAD DUP10 DUP4 DUP2 MLOAD DUP2 LT PUSH3 0xD97 JUMPI PUSH3 0xD97 PUSH3 0x2164 JUMP JUMPDEST PUSH1 0x20 MUL PUSH1 0x20 ADD ADD MLOAD DUP9 PUSH1 0x1 PUSH1 0x1 PUSH1 0xA0 SHL SUB AND PUSH3 0x19FC SWAP1 SWAP3 SWAP2 SWAP1 PUSH4 0xFFFFFFFF AND JUMP JUMPDEST PUSH1 0x1 SWAP3 POP PUSH3 0xDC8 JUMP JUMPDEST PUSH1 0x0 SWAP3 POP JUMPDEST DUP1 PUSH3 0xDD4 DUP2 PUSH3 0x21C9 JUMP JUMPDEST SWAP2 POP POP PUSH3 0xC6F JUMP JUMPDEST POP PUSH1 0x1 DUP3 ISZERO ISZERO EQ PUSH3 0xDF3 JUMPI PUSH3 0xDF3 PUSH3 0x21E5 JUMP JUMPDEST POP SWAP6 SWAP5 POP POP POP POP POP JUMP JUMPDEST PUSH3 0xE08 CALLER PUSH3 0x165B JUMP JUMPDEST PUSH3 0xE12 JUMPI PUSH1 0x0 DUP1 REVERT JUMPDEST PUSH1 0x40 MLOAD PUSH4 0x70A08231 PUSH1 0xE0 SHL DUP2 MSTORE PUSH1 0x0 SWAP1 PUSH1 0x1 PUSH1 0x1 PUSH1 0xA0 SHL SUB DUP4 AND SWAP1 PUSH4 0x70A08231 SWAP1 PUSH3 0xE43 SWAP1 ADDRESS SWAP1 PUSH1 0x4 ADD PUSH3 0x2114 JUMP JUMPDEST PUSH1 0x20 PUSH1 0x40 MLOAD DUP1 DUP4 SUB DUP2 DUP7 GAS STATICCALL ISZERO DUP1 ISZERO PUSH3 0xE61 JUMPI RETURNDATASIZE PUSH1 0x0 DUP1 RETURNDATACOPY RETURNDATASIZE PUSH1 0x0 REVERT JUMPDEST POP POP POP POP PUSH1 0x40 MLOAD RETURNDATASIZE PUSH1 0x1F NOT PUSH1 0x1F DUP3 ADD AND DUP3 ADD DUP1 PUSH1 0x40 MSTORE POP DUP2 ADD SWAP1 PUSH3 0xE87 SWAP2 SWAP1 PUSH3 0x22E1 JUMP JUMPDEST PUSH1 0x1 PUSH1 0x1 PUSH1 0xA0 SHL SUB DUP1 DUP5 AND PUSH1 0x0 SWAP1 DUP2 MSTORE PUSH1 0x7 PUSH1 0x20 SWAP1 DUP2 MSTORE PUSH1 0x40 DUP1 DUP4 KECCAK256 SLOAD DUP1 DUP5 MSTORE PUSH1 0x5 SWAP1 SWAP3 MSTORE DUP3 KECCAK256 SLOAD SWAP4 SWAP5 POP SWAP3 SWAP1 SWAP2 AND SWAP1 DUP1 PUSH3 0xEC3 DUP6 PUSH3 0x1679 JUMP JUMPDEST SWAP3 POP SWAP3 POP POP DUP3 PUSH1 0x1 PUSH1 0x1 PUSH1 0xA0 SHL SUB AND DUP7 PUSH1 0x1 PUSH1 0x1 PUSH1 0xA0 SHL SUB AND EQ PUSH3 0xF53 JUMPI PUSH1 0x0 DUP3 GT DUP1 ISZERO PUSH3 0xEF3 JUMPI POP PUSH1 0x0 DUP2 GT JUMPDEST ISZERO PUSH3 0xF37 JUMPI PUSH1 0xB SLOAD PUSH3 0xF15 SWAP1 PUSH1 0x1 PUSH1 0x1 PUSH1 0xA0 SHL SUB DUP9 DUP2 AND SWAP2 AND DUP5 PUSH3 0x19FC JUMP JUMPDEST PUSH1 0xA SLOAD PUSH3 0xF31 SWAP1 PUSH1 0x1 PUSH1 0x1 PUSH1 0xA0 SHL SUB DUP9 DUP2 AND SWAP2 AND DUP4 PUSH3 0x19FC JUMP JUMPDEST PUSH3 0xFCD JUMP JUMPDEST PUSH1 0xA SLOAD PUSH3 0xF31 SWAP1 PUSH1 0x1 PUSH1 0x1 PUSH1 0xA0 SHL SUB DUP9 DUP2 AND SWAP2 AND DUP8 PUSH3 0x19FC JUMP JUMPDEST DUP3 PUSH1 0x1 PUSH1 0x1 PUSH1 0xA0 SHL SUB AND DUP7 PUSH1 0x1 PUSH1 0x1 PUSH1 0xA0 SHL SUB AND EQ DUP1 ISZERO PUSH3 0xF7C JUMPI POP PUSH1 0x17 SLOAD PUSH1 0xFF AND ISZERO ISZERO PUSH1 0x1 EQ JUMPDEST ISZERO PUSH3 0xFB1 JUMPI PUSH1 0x0 DUP3 GT DUP1 ISZERO PUSH3 0xEF3 JUMPI POP DUP1 ISZERO PUSH3 0xF37 JUMPI PUSH1 0xB SLOAD PUSH3 0xF15 SWAP1 PUSH1 0x1 PUSH1 0x1 PUSH1 0xA0 SHL SUB DUP9 DUP2 AND SWAP2 AND DUP5 PUSH3 0x19FC JUMP JUMPDEST PUSH1 0xB SLOAD PUSH3 0xFCD SWAP1 PUSH1 0x1 PUSH1 0x1 PUSH1 0xA0 SHL SUB DUP9 DUP2 AND SWAP2 AND DUP8 PUSH3 0x19FC JUMP JUMPDEST PUSH1 0x40 MLOAD DUP6 DUP2 MSTORE PUSH1 0x1 PUSH1 0x1 PUSH1 0xA0 SHL SUB DUP8 AND SWAP1 ADDRESS SWAP1 PUSH32 0x37238854FE57FBF51F09946F854FC3916FE83938D6521F09BD05463839F1304 SWAP1 PUSH1 0x20 ADD PUSH1 0x40 MLOAD DUP1 SWAP2 SUB SWAP1 LOG3 POP POP POP POP POP POP JUMP JUMPDEST PUSH1 0x0 PUSH3 0x1022 CALLER PUSH3 0x165B JUMP JUMPDEST PUSH3 0x102C JUMPI PUSH1 0x0 DUP1 REVERT JUMPDEST PUSH1 0x1 PUSH1 0x1 PUSH1 0xA0 SHL SUB DUP4 AND CALLER EQ PUSH3 0x1042 JUMPI PUSH1 0x0 DUP1 REVERT JUMPDEST PUSH1 0x0 PUSH3 0x104F DUP4 PUSH3 0x1073 JUMP JUMPDEST PUSH3 0x105A DUP5 PUSH3 0x1625 JUMP JUMPDEST POP PUSH1 0x1 SWAP4 SWAP3 POP POP POP JUMP JUMPDEST PUSH1 0x9 DUP1 SLOAD PUSH3 0x467 SWAP1 PUSH3 0x2128 JUMP JUMPDEST PUSH3 0x107E CALLER PUSH3 0x165B JUMP JUMPDEST PUSH3 0x1088 JUMPI PUSH1 0x0 DUP1 REVERT JUMPDEST PUSH1 0x1 PUSH1 0x1 PUSH1 0xA0 SHL SUB AND PUSH1 0x0 SWAP1 DUP2 MSTORE PUSH1 0x1 PUSH1 0x20 DUP2 SWAP1 MSTORE PUSH1 0x40 SWAP1 SWAP2 KECCAK256 DUP1 SLOAD PUSH1 0xFF NOT AND SWAP1 SWAP2 OR SWAP1 SSTORE JUMP JUMPDEST PUSH1 0x0 PUSH3 0x10BC CALLER PUSH3 0x165B JUMP JUMPDEST PUSH3 0x10C6 JUMPI PUSH1 0x0 DUP1 REVERT JUMPDEST PUSH1 0x0 CALLER SWAP1 POP PUSH1 0x0 DUP1 PUSH1 0x0 DUP1 PUSH1 0xC SLOAD PUSH2 0x2710 PUSH3 0x10E3 SWAP2 SWAP1 PUSH3 0x235B JUMP JUMPDEST PUSH1 0xA SLOAD SWAP1 SWAP2 POP PUSH1 0x1 PUSH1 0x1 PUSH1 0xA0 SHL SUB DUP7 DUP2 AND SWAP2 AND EQ PUSH3 0x1101 JUMPI PUSH1 0x1 SWAP3 POP JUMPDEST PUSH1 0x0 JUMPDEST DUP9 MLOAD DUP2 LT ISZERO PUSH3 0x1270 JUMPI PUSH1 0x0 PUSH1 0x1 PUSH1 0x1 PUSH1 0xA0 SHL SUB AND DUP10 DUP3 DUP2 MLOAD DUP2 LT PUSH3 0x112E JUMPI PUSH3 0x112E PUSH3 0x2164 JUMP JUMPDEST PUSH1 0x20 MUL PUSH1 0x20 ADD ADD MLOAD PUSH1 0x1 PUSH1 0x1 PUSH1 0xA0 SHL SUB AND EQ PUSH3 0x1256 JUMPI DUP4 ISZERO ISZERO PUSH1 0x1 SUB PUSH3 0x11F4 JUMPI PUSH32 0x0 DUP3 DUP12 DUP4 DUP2 MLOAD DUP2 LT PUSH3 0x1187 JUMPI PUSH3 0x1187 PUSH3 0x2164 JUMP JUMPDEST PUSH1 0x20 MUL PUSH1 0x20 ADD ADD MLOAD PUSH3 0x119B SWAP2 SWAP1 PUSH3 0x2316 JUMP JUMPDEST PUSH3 0x11A7 SWAP2 SWAP1 PUSH3 0x2338 JUMP JUMPDEST SWAP3 POP DUP3 DUP11 DUP3 DUP2 MLOAD DUP2 LT PUSH3 0x11BF JUMPI PUSH3 0x11BF PUSH3 0x2164 JUMP JUMPDEST PUSH1 0x20 MUL PUSH1 0x20 ADD ADD DUP2 DUP2 MLOAD PUSH3 0x11D5 SWAP2 SWAP1 PUSH3 0x235B JUMP JUMPDEST SWAP1 MSTORE POP PUSH1 0xA SLOAD PUSH3 0x11F4 SWAP1 PUSH1 0x1 PUSH1 0x1 PUSH1 0xA0 SHL SUB DUP11 DUP2 AND SWAP2 AND DUP6 PUSH3 0x19FC JUMP JUMPDEST PUSH3 0x124C DUP10 DUP3 DUP2 MLOAD DUP2 LT PUSH3 0x120D JUMPI PUSH3 0x120D PUSH3 0x2164 JUMP JUMPDEST PUSH1 0x20 MUL PUSH1 0x20 ADD ADD MLOAD DUP12 DUP4 DUP2 MLOAD DUP2 LT PUSH3 0x122A JUMPI PUSH3 0x122A PUSH3 0x2164 JUMP JUMPDEST PUSH1 0x20 MUL PUSH1 0x20 ADD ADD MLOAD DUP11 PUSH1 0x1 PUSH1 0x1 PUSH1 0xA0 SHL SUB AND PUSH3 0x19FC SWAP1 SWAP3 SWAP2 SWAP1 PUSH4 0xFFFFFFFF AND JUMP JUMPDEST PUSH1 0x1 SWAP5 POP PUSH3 0x125B JUMP JUMPDEST PUSH1 0x0 SWAP5 POP JUMPDEST DUP1 PUSH3 0x1267 DUP2 PUSH3 0x21C9 JUMP JUMPDEST SWAP2 POP POP PUSH3 0x1104 JUMP JUMPDEST POP PUSH1 0x1 DUP5 ISZERO ISZERO EQ PUSH3 0x1286 JUMPI PUSH3 0x1286 PUSH3 0x21E5 JUMP JUMPDEST POP SWAP2 SWAP8 SWAP7 POP POP POP POP POP POP POP JUMP JUMPDEST PUSH3 0x129E CALLER PUSH3 0x165B JUMP JUMPDEST PUSH3 0x12A8 JUMPI PUSH1 0x0 DUP1 REVERT JUMPDEST PUSH2 0x1F40 DUP7 GT ISZERO PUSH3 0x12B8 JUMPI PUSH1 0x0 DUP1 REVERT JUMPDEST PUSH1 0xC SWAP6 SWAP1 SWAP6 SSTORE PUSH1 0x0 DUP6 DUP2 MSTORE PUSH1 0x5 PUSH1 0x20 SWAP1 DUP2 MSTORE PUSH1 0x40 DUP1 DUP4 KECCAK256 DUP1 SLOAD PUSH1 0x1 PUSH1 0x1 PUSH1 0xA0 SHL SUB NOT SWAP1 DUP2 AND PUSH1 0x1 PUSH1 0x1 PUSH1 0xA0 SHL SUB SWAP13 DUP14 AND SWAP1 DUP2 OR SWAP1 SWAP3 SSTORE SWAP1 DUP5 MSTORE PUSH1 0x7 SWAP1 SWAP3 MSTORE SWAP1 SWAP2 KECCAK256 SWAP6 SWAP1 SWAP6 SSTORE PUSH1 0x15 SSTORE PUSH1 0x17 DUP1 SLOAD PUSH1 0xFF NOT AND SWAP4 ISZERO ISZERO SWAP4 SWAP1 SWAP4 OR SWAP1 SWAP3 SSTORE PUSH1 0xD DUP1 SLOAD SWAP1 SWAP4 AND SWAP4 SWAP1 SWAP5 AND SWAP3 SWAP1 SWAP3 OR SWAP1 SSTORE PUSH1 0x11 SSTORE PUSH1 0x14 SSTORE JUMP JUMPDEST PUSH1 0x0 PUSH3 0x1338 CALLER PUSH3 0x165B JUMP JUMPDEST PUSH3 0x1342 JUMPI PUSH1 0x0 DUP1 REVERT JUMPDEST PUSH1 0xA SLOAD PUSH1 0xB SLOAD PUSH1 0x1 PUSH1 0x1 PUSH1 0xA0 SHL SUB SWAP2 DUP3 AND SWAP2 SWAP1 DUP2 AND SWAP1 DUP5 AND PUSH3 0x1369 JUMPI PUSH3 0x1369 PUSH3 0x21E5 JUMP JUMPDEST PUSH1 0xA SLOAD PUSH1 0x1 PUSH1 0x1 PUSH1 0xA0 SHL SUB DUP1 DUP9 AND SWAP2 AND SUB PUSH3 0x1388 JUMPI DUP4 SWAP2 POP PUSH3 0x13AB JUMP JUMPDEST PUSH1 0xB SLOAD PUSH1 0x1 PUSH1 0x1 PUSH1 0xA0 SHL SUB DUP1 DUP9 AND SWAP2 AND SUB PUSH3 0x13A6 JUMPI POP DUP3 PUSH3 0x13AB JUMP JUMPDEST PUSH1 0x0 DUP1 REVERT JUMPDEST PUSH1 0x0 DUP1 PUSH3 0x13B9 DUP8 PUSH3 0x1679 JUMP JUMPDEST SWAP3 POP SWAP3 POP POP PUSH1 0x0 DUP1 DUP4 GT ISZERO PUSH3 0x142F JUMPI PUSH1 0x0 DUP5 PUSH1 0x1 PUSH1 0x1 PUSH1 0xA0 SHL SUB AND DUP5 PUSH1 0x40 MLOAD PUSH1 0x0 PUSH1 0x40 MLOAD DUP1 DUP4 SUB DUP2 DUP6 DUP8 GAS CALL SWAP3 POP POP POP RETURNDATASIZE DUP1 PUSH1 0x0 DUP2 EQ PUSH3 0x1418 JUMPI PUSH1 0x40 MLOAD SWAP2 POP PUSH1 0x1F NOT PUSH1 0x3F RETURNDATASIZE ADD AND DUP3 ADD PUSH1 0x40 MSTORE RETURNDATASIZE DUP3 MSTORE RETURNDATASIZE PUSH1 0x0 PUSH1 0x20 DUP5 ADD RETURNDATACOPY PUSH3 0x141D JUMP JUMPDEST PUSH1 0x60 SWAP2 POP JUMPDEST POP POP SWAP1 POP DUP1 PUSH3 0x142C JUMPI PUSH1 0x0 DUP1 REVERT JUMPDEST SWAP1 POP JUMPDEST DUP2 ISZERO PUSH3 0x149C JUMPI PUSH1 0x0 DUP6 PUSH1 0x1 PUSH1 0x1 PUSH1 0xA0 SHL SUB AND DUP4 PUSH1 0x40 MLOAD PUSH1 0x0 PUSH1 0x40 MLOAD DUP1 DUP4 SUB DUP2 DUP6 DUP8 GAS CALL SWAP3 POP POP POP RETURNDATASIZE DUP1 PUSH1 0x0 DUP2 EQ PUSH3 0x1485 JUMPI PUSH1 0x40 MLOAD SWAP2 POP PUSH1 0x1F NOT PUSH1 0x3F RETURNDATASIZE ADD AND DUP3 ADD PUSH1 0x40 MSTORE RETURNDATASIZE DUP3 MSTORE RETURNDATASIZE PUSH1 0x0 PUSH1 0x20 DUP5 ADD RETURNDATACOPY PUSH3 0x148A JUMP JUMPDEST PUSH1 0x60 SWAP2 POP JUMPDEST POP POP SWAP1 POP DUP1 PUSH3 0x1499 JUMPI PUSH1 0x0 DUP1 REVERT JUMPDEST SWAP1 POP JUMPDEST SWAP9 SWAP8 POP POP POP POP POP POP POP POP JUMP JUMPDEST PUSH1 0x0 PUSH3 0x14B5 CALLER PUSH3 0x165B JUMP JUMPDEST PUSH3 0x14BF JUMPI PUSH1 0x0 DUP1 REVERT JUMPDEST PUSH1 0x0 DUP1 JUMPDEST DUP5 MLOAD DUP2 LT ISZERO PUSH3 0x160F JUMPI PUSH1 0x0 PUSH1 0x1 PUSH1 0x1 PUSH1 0xA0 SHL SUB AND DUP6 DUP3 DUP2 MLOAD DUP2 LT PUSH3 0x14ED JUMPI PUSH3 0x14ED PUSH3 0x2164 JUMP JUMPDEST PUSH1 0x20 MUL PUSH1 0x20 ADD ADD MLOAD PUSH1 0x1 PUSH1 0x1 PUSH1 0xA0 SHL SUB AND EQ PUSH3 0x15F5 JUMPI PUSH1 0x1 PUSH1 0x1 PUSH1 0xA0 SHL SUB DUP1 DUP6 AND PUSH1 0x0 SWAP1 DUP2 MSTORE PUSH1 0x7 PUSH1 0x20 SWAP1 DUP2 MSTORE PUSH1 0x40 DUP1 DUP4 KECCAK256 SLOAD DUP1 DUP5 MSTORE PUSH1 0x4 SWAP1 SWAP3 MSTORE DUP3 KECCAK256 SLOAD DUP9 MLOAD SWAP2 SWAP4 AND SWAP2 SWAP1 DUP3 SWAP1 PUSH4 0xA5F2A152 SWAP1 DUP10 SWAP1 DUP12 SWAP1 DUP9 SWAP1 DUP2 LT PUSH3 0x1552 JUMPI PUSH3 0x1552 PUSH3 0x2164 JUMP JUMPDEST PUSH1 0x20 MUL PUSH1 0x20 ADD ADD MLOAD DUP13 DUP9 DUP2 MLOAD DUP2 LT PUSH3 0x156F JUMPI PUSH3 0x156F PUSH3 0x2164 JUMP JUMPDEST PUSH1 0x20 MUL PUSH1 0x20 ADD ADD MLOAD PUSH1 0x40 MLOAD DUP5 PUSH4 0xFFFFFFFF AND PUSH1 0xE0 SHL DUP2 MSTORE PUSH1 0x4 ADD PUSH3 0x1597 SWAP4 SWAP3 SWAP2 SWAP1 PUSH3 0x2375 JUMP JUMPDEST PUSH1 0x20 PUSH1 0x40 MLOAD DUP1 DUP4 SUB DUP2 PUSH1 0x0 DUP8 GAS CALL ISZERO DUP1 ISZERO PUSH3 0x15B7 JUMPI RETURNDATASIZE PUSH1 0x0 DUP1 RETURNDATACOPY RETURNDATASIZE PUSH1 0x0 REVERT JUMPDEST POP POP POP POP PUSH1 0x40 MLOAD RETURNDATASIZE PUSH1 0x1F NOT PUSH1 0x1F DUP3 ADD AND DUP3 ADD DUP1 PUSH1 0x40 MSTORE POP DUP2 ADD SWAP1 PUSH3 0x15DD SWAP2 SWAP1 PUSH3 0x2193 JUMP JUMPDEST SWAP1 POP DUP1 PUSH3 0x15EA JUMPI PUSH1 0x0 DUP1 REVERT JUMPDEST SWAP4 POP PUSH3 0x15FA SWAP2 POP POP JUMP JUMPDEST PUSH1 0x0 SWAP2 POP JUMPDEST DUP1 PUSH3 0x1606 DUP2 PUSH3 0x21C9 JUMP JUMPDEST SWAP2 POP POP PUSH3 0x14C3 JUMP JUMPDEST POP PUSH1 0x1 DUP2 ISZERO ISZERO EQ PUSH3 0x8FB JUMPI PUSH3 0x8FB PUSH3 0x21E5 JUMP JUMPDEST PUSH3 0x1630 CALLER PUSH3 0x165B JUMP JUMPDEST PUSH3 0x163A JUMPI PUSH1 0x0 DUP1 REVERT JUMPDEST PUSH1 0x1 PUSH1 0x1 PUSH1 0xA0 SHL SUB AND PUSH1 0x0 SWAP1 DUP2 MSTORE PUSH1 0x1 PUSH1 0x20 MSTORE PUSH1 0x40 SWAP1 KECCAK256 DUP1 SLOAD PUSH1 0xFF NOT AND SWAP1 SSTORE JUMP JUMPDEST PUSH1 0x1 PUSH1 0x1 PUSH1 0xA0 SHL SUB AND PUSH1 0x0 SWAP1 DUP2 MSTORE PUSH1 0x1 PUSH1 0x20 MSTORE PUSH1 0x40 SWAP1 KECCAK256 SLOAD PUSH1 0xFF AND SWAP1 JUMP JUMPDEST PUSH1 0x0 DUP1 PUSH1 0x0 DUP1 DUP5 GT PUSH3 0x1690 JUMPI PUSH3 0x1690 PUSH3 0x21E5 JUMP JUMPDEST PUSH1 0x0 PUSH32 0x0 PUSH1 0xC SLOAD DUP7 PUSH3 0x16C3 SWAP2 SWAP1 PUSH3 0x2316 JUMP JUMPDEST PUSH3 0x16CF SWAP2 SWAP1 PUSH3 0x2338 JUMP JUMPDEST SWAP1 POP PUSH1 0x0 PUSH3 0x16DF DUP3 DUP8 PUSH3 0x235B JUMP JUMPDEST SWAP1 POP PUSH1 0x0 PUSH3 0x16EF DUP3 DUP5 PUSH3 0x22FB JUMP JUMPDEST SWAP1 POP DUP7 DUP2 EQ PUSH3 0x1703 JUMPI PUSH3 0x1703 PUSH3 0x21E5 JUMP JUMPDEST SWAP7 SWAP2 SWAP6 POP SWAP4 POP SWAP2 POP POP JUMP JUMPDEST PUSH1 0x0 DUP3 DUP2 DUP4 PUSH3 0x1870 JUMPI PUSH1 0x1 PUSH1 0x1 PUSH1 0xA0 SHL SUB DUP1 DUP8 AND PUSH1 0x0 DUP2 DUP2 MSTORE PUSH1 0x7 PUSH1 0x20 SWAP1 DUP2 MSTORE PUSH1 0x40 DUP1 DUP4 KECCAK256 SLOAD DUP1 DUP5 MSTORE PUSH1 0x5 SWAP1 SWAP3 MSTORE SWAP1 SWAP2 KECCAK256 SLOAD SWAP1 SWAP3 AND SWAP1 DUP2 SWAP1 DUP2 SWAP1 SUB PUSH3 0x13A6 JUMPI PUSH1 0x0 DUP4 DUP2 MSTORE PUSH1 0x4 PUSH1 0x20 MSTORE PUSH1 0x40 SWAP1 KECCAK256 SLOAD PUSH1 0x1 PUSH1 0x1 PUSH1 0xA0 SHL SUB AND DUP1 PUSH3 0x1772 JUMPI PUSH1 0x0 DUP1 REVERT JUMPDEST PUSH1 0x0 DUP5 DUP2 MSTORE PUSH1 0x6 PUSH1 0x20 MSTORE PUSH1 0x40 DUP2 KECCAK256 DUP1 SLOAD SWAP2 PUSH1 0x1 SWAP2 SWAP1 PUSH3 0x1793 DUP4 DUP6 PUSH3 0x22FB JUMP JUMPDEST SWAP1 SWAP2 SSTORE POP POP PUSH1 0x0 DUP6 DUP2 MSTORE PUSH1 0x6 PUSH1 0x20 MSTORE PUSH1 0x40 SWAP1 KECCAK256 SLOAD PUSH3 0x17B4 PUSH1 0x1 DUP4 PUSH3 0x22FB JUMP JUMPDEST DUP2 EQ PUSH3 0x17C0 JUMPI PUSH1 0x0 DUP1 REVERT JUMPDEST DUP11 PUSH1 0x12 PUSH1 0x0 DUP3 DUP3 SLOAD PUSH3 0x17D4 SWAP2 SWAP1 PUSH3 0x22FB JUMP JUMPDEST SWAP3 POP POP DUP2 SWAP1 SSTORE POP CALLVALUE PUSH1 0x13 PUSH1 0x0 DUP3 DUP3 SLOAD PUSH3 0x17EF SWAP2 SWAP1 PUSH3 0x22FB JUMP JUMPDEST SWAP1 SWAP2 SSTORE POP PUSH3 0x180C SWAP1 POP PUSH1 0x1 PUSH1 0x1 PUSH1 0xA0 SHL SUB DUP6 AND DUP15 DUP6 DUP15 PUSH3 0x1A5B JUMP JUMPDEST PUSH1 0x40 DUP1 MLOAD DUP10 DUP2 MSTORE PUSH1 0x20 DUP2 ADD DUP5 SWAP1 MSTORE PUSH1 0x1 SWAP2 DUP2 ADD SWAP2 SWAP1 SWAP2 MSTORE PUSH1 0x1 PUSH1 0x1 PUSH1 0xA0 SHL SUB DUP1 DUP6 AND SWAP2 SWAP1 DUP16 AND SWAP1 PUSH32 0x1BE148FFC14C73233FD9D869986611F77ABCFD08494685A6552399CE5F948A20 SWAP1 PUSH1 0x60 ADD PUSH1 0x40 MLOAD DUP1 SWAP2 SUB SWAP1 LOG3 PUSH1 0x1 SWAP7 POP POP POP POP POP POP POP PUSH3 0x19F2 JUMP JUMPDEST PUSH1 0x0 DUP1 MSTORE PUSH1 0x4 PUSH1 0x20 MSTORE PUSH32 0x17EF568E3E12AB5B9C7254A8D58478811DE00F9E6EB34345ACD53BF8FD09D3EC SLOAD PUSH1 0x1 PUSH1 0x1 PUSH1 0xA0 SHL SUB AND DUP1 PUSH3 0x18AF JUMPI PUSH1 0x0 DUP1 REVERT JUMPDEST PUSH1 0x0 DUP1 DUP1 MSTORE PUSH1 0x6 PUSH1 0x20 MSTORE PUSH32 0x54CDD369E4E8A8515E52CA72EC816C2101831AD1F18BF44102ED171459C9B4F8 DUP1 SLOAD SWAP2 PUSH1 0x1 SWAP2 SWAP1 PUSH3 0x18ED DUP4 DUP6 PUSH3 0x22FB JUMP JUMPDEST SWAP1 SWAP2 SSTORE POP POP PUSH1 0x0 DUP1 MSTORE PUSH1 0x6 PUSH1 0x20 MSTORE PUSH32 0x54CDD369E4E8A8515E52CA72EC816C2101831AD1F18BF44102ED171459C9B4F8 SLOAD PUSH3 0x192A PUSH1 0x1 DUP4 PUSH3 0x22FB JUMP JUMPDEST DUP2 EQ PUSH3 0x1936 JUMPI PUSH1 0x0 DUP1 REVERT JUMPDEST PUSH1 0x0 DUP4 PUSH1 0x1 PUSH1 0x1 PUSH1 0xA0 SHL SUB AND DUP10 PUSH1 0x40 MLOAD PUSH1 0x0 PUSH1 0x40 MLOAD DUP1 DUP4 SUB DUP2 DUP6 DUP8 GAS CALL SWAP3 POP POP POP RETURNDATASIZE DUP1 PUSH1 0x0 DUP2 EQ PUSH3 0x1985 JUMPI PUSH1 0x40 MLOAD SWAP2 POP PUSH1 0x1F NOT PUSH1 0x3F RETURNDATASIZE ADD AND DUP3 ADD PUSH1 0x40 MSTORE RETURNDATASIZE DUP3 MSTORE RETURNDATASIZE PUSH1 0x0 PUSH1 0x20 DUP5 ADD RETURNDATACOPY PUSH3 0x198A JUMP JUMPDEST PUSH1 0x60 SWAP2 POP JUMPDEST POP POP SWAP1 POP DUP1 PUSH3 0x1999 JUMPI PUSH1 0x0 DUP1 REVERT JUMPDEST PUSH1 0x40 DUP1 MLOAD DUP8 DUP2 MSTORE PUSH1 0x20 DUP2 ADD DUP6 SWAP1 MSTORE PUSH1 0x0 DUP2 DUP4 ADD MSTORE SWAP1 MLOAD PUSH1 0x1 PUSH1 0x1 PUSH1 0xA0 SHL SUB DUP7 DUP2 AND SWAP3 SWAP1 DUP15 AND SWAP2 PUSH32 0x1BE148FFC14C73233FD9D869986611F77ABCFD08494685A6552399CE5F948A20 SWAP2 DUP2 SWAP1 SUB PUSH1 0x60 ADD SWAP1 LOG3 PUSH1 0x1 SWAP5 POP POP POP POP POP JUMPDEST SWAP7 SWAP6 POP POP POP POP POP POP JUMP JUMPDEST PUSH3 0x1A56 DUP4 PUSH4 0xA9059CBB PUSH1 0xE0 SHL DUP5 DUP5 PUSH1 0x40 MLOAD PUSH1 0x24 ADD PUSH3 0x1A1E SWAP3 SWAP2 SWAP1 PUSH3 0x217A JUMP JUMPDEST PUSH1 0x40 DUP1 MLOAD PUSH1 0x1F NOT DUP2 DUP5 SUB ADD DUP2 MSTORE SWAP2 SWAP1 MSTORE PUSH1 0x20 DUP2 ADD DUP1 MLOAD PUSH1 0x1 PUSH1 0x1 PUSH1 0xE0 SHL SUB AND PUSH1 0x1 PUSH1 0x1 PUSH1 0xE0 SHL SUB NOT SWAP1 SWAP4 AND SWAP3 SWAP1 SWAP3 OR SWAP1 SWAP2 MSTORE PUSH3 0x1A85 JUMP JUMPDEST POP POP POP JUMP JUMPDEST PUSH3 0x1A7F DUP5 PUSH4 0x23B872DD PUSH1 0xE0 SHL DUP6 DUP6 DUP6 PUSH1 0x40 MLOAD PUSH1 0x24 ADD PUSH3 0x1A1E SWAP4 SWAP3 SWAP2 SWAP1 PUSH3 0x2375 JUMP JUMPDEST POP POP POP POP JUMP JUMPDEST PUSH1 0x0 PUSH3 0x1ADC DUP3 PUSH1 0x40 MLOAD DUP1 PUSH1 0x40 ADD PUSH1 0x40 MSTORE DUP1 PUSH1 0x20 DUP2 MSTORE PUSH1 0x20 ADD PUSH32 0x5361666545524332303A206C6F772D6C6576656C2063616C6C206661696C6564 DUP2 MSTORE POP DUP6 PUSH1 0x1 PUSH1 0x1 PUSH1 0xA0 SHL SUB AND PUSH3 0x1B62 SWAP1 SWAP3 SWAP2 SWAP1 PUSH4 0xFFFFFFFF AND JUMP JUMPDEST DUP1 MLOAD SWAP1 SWAP2 POP ISZERO PUSH3 0x1A56 JUMPI DUP1 DUP1 PUSH1 0x20 ADD SWAP1 MLOAD DUP2 ADD SWAP1 PUSH3 0x1AFD SWAP2 SWAP1 PUSH3 0x2193 JUMP JUMPDEST PUSH3 0x1A56 JUMPI PUSH1 0x40 MLOAD PUSH3 0x461BCD PUSH1 0xE5 SHL DUP2 MSTORE PUSH1 0x20 PUSH1 0x4 DUP3 ADD MSTORE PUSH1 0x2A PUSH1 0x24 DUP3 ADD MSTORE PUSH32 0x5361666545524332303A204552433230206F7065726174696F6E20646964206E PUSH1 0x44 DUP3 ADD MSTORE PUSH10 0x1BDD081CDD58D8D95959 PUSH1 0xB2 SHL PUSH1 0x64 DUP3 ADD MSTORE PUSH1 0x84 ADD JUMPDEST PUSH1 0x40 MLOAD DUP1 SWAP2 SUB SWAP1 REVERT JUMPDEST PUSH1 0x60 PUSH3 0x8FB DUP5 DUP5 PUSH1 0x0 DUP6 DUP6 PUSH1 0x0 DUP1 DUP7 PUSH1 0x1 PUSH1 0x1 PUSH1 0xA0 SHL SUB AND DUP6 DUP8 PUSH1 0x40 MLOAD PUSH3 0x1B8C SWAP2 SWAP1 PUSH3 0x2399 JUMP JUMPDEST PUSH1 0x0 PUSH1 0x40 MLOAD DUP1 DUP4 SUB DUP2 DUP6 DUP8 GAS CALL SWAP3 POP POP POP RETURNDATASIZE DUP1 PUSH1 0x0 DUP2 EQ PUSH3 0x1BCB JUMPI PUSH1 0x40 MLOAD SWAP2 POP PUSH1 0x1F NOT PUSH1 0x3F RETURNDATASIZE ADD AND DUP3 ADD PUSH1 0x40 MSTORE RETURNDATASIZE DUP3 MSTORE RETURNDATASIZE PUSH1 0x0 PUSH1 0x20 DUP5 ADD RETURNDATACOPY PUSH3 0x1BD0 JUMP JUMPDEST PUSH1 0x60 SWAP2 POP JUMPDEST POP SWAP2 POP SWAP2 POP PUSH3 0x1BE3 DUP8 DUP4 DUP4 DUP8 PUSH3 0x1BEE JUMP JUMPDEST SWAP8 SWAP7 POP POP POP POP POP POP POP JUMP JUMPDEST PUSH1 0x60 DUP4 ISZERO PUSH3 0x1C62 JUMPI DUP3 MLOAD PUSH1 0x0 SUB PUSH3 0x1C5A JUMPI PUSH1 0x1 PUSH1 0x1 PUSH1 0xA0 SHL SUB DUP6 AND EXTCODESIZE PUSH3 0x1C5A JUMPI PUSH1 0x40 MLOAD PUSH3 0x461BCD PUSH1 0xE5 SHL DUP2 MSTORE PUSH1 0x20 PUSH1 0x4 DUP3 ADD MSTORE PUSH1 0x1D PUSH1 0x24 DUP3 ADD MSTORE PUSH32 0x416464726573733A2063616C6C20746F206E6F6E2D636F6E7472616374000000 PUSH1 0x44 DUP3 ADD MSTORE PUSH1 0x64 ADD PUSH3 0x1B59 JUMP JUMPDEST POP DUP2 PUSH3 0x8FB JUMP JUMPDEST PUSH3 0x8FB DUP4 DUP4 DUP2 MLOAD ISZERO PUSH3 0x1C79 JUMPI DUP2 MLOAD DUP1 DUP4 PUSH1 0x20 ADD REVERT JUMPDEST DUP1 PUSH1 0x40 MLOAD PUSH3 0x461BCD PUSH1 0xE5 SHL DUP2 MSTORE PUSH1 0x4 ADD PUSH3 0x1B59 SWAP2 SWAP1 PUSH3 0x1D00 JUMP JUMPDEST PUSH2 0x201E DUP1 PUSH3 0x23B8 DUP4 CODECOPY ADD SWAP1 JUMP JUMPDEST PUSH1 0x0 JUMPDEST DUP4 DUP2 LT ISZERO PUSH3 0x1CC0 JUMPI DUP2 DUP2 ADD MLOAD DUP4 DUP3 ADD MSTORE PUSH1 0x20 ADD PUSH3 0x1CA6 JUMP JUMPDEST DUP4 DUP2 GT ISZERO PUSH3 0x1A7F JUMPI POP POP PUSH1 0x0 SWAP2 ADD MSTORE JUMP JUMPDEST PUSH1 0x0 DUP2 MLOAD DUP1 DUP5 MSTORE PUSH3 0x1CEC DUP2 PUSH1 0x20 DUP7 ADD PUSH1 0x20 DUP7 ADD PUSH3 0x1CA3 JUMP JUMPDEST PUSH1 0x1F ADD PUSH1 0x1F NOT AND SWAP3 SWAP1 SWAP3 ADD PUSH1 0x20 ADD SWAP3 SWAP2 POP POP JUMP JUMPDEST PUSH1 0x20 DUP2 MSTORE PUSH1 0x0 PUSH3 0x672 PUSH1 0x20 DUP4 ADD DUP5 PUSH3 0x1CD2 JUMP JUMPDEST PUSH4 0x4E487B71 PUSH1 0xE0 SHL PUSH1 0x0 MSTORE PUSH1 0x41 PUSH1 0x4 MSTORE PUSH1 0x24 PUSH1 0x0 REVERT JUMPDEST PUSH1 0x40 MLOAD PUSH1 0x1F DUP3 ADD PUSH1 0x1F NOT AND DUP2 ADD PUSH1 0x1 PUSH1 0x1 PUSH1 0x40 SHL SUB DUP2 GT DUP3 DUP3 LT OR ISZERO PUSH3 0x1D56 JUMPI PUSH3 0x1D56 PUSH3 0x1D15 JUMP JUMPDEST PUSH1 0x40 MSTORE SWAP2 SWAP1 POP JUMP JUMPDEST PUSH1 0x0 PUSH1 0x1 PUSH1 0x1 PUSH1 0x40 SHL SUB DUP3 GT ISZERO PUSH3 0x1D7A JUMPI PUSH3 0x1D7A PUSH3 0x1D15 JUMP JUMPDEST POP PUSH1 0x5 SHL PUSH1 0x20 ADD SWAP1 JUMP JUMPDEST PUSH1 0x0 DUP3 PUSH1 0x1F DUP4 ADD SLT PUSH3 0x1D96 JUMPI PUSH1 0x0 DUP1 REVERT JUMPDEST DUP2 CALLDATALOAD PUSH1 0x20 PUSH3 0x1DAF PUSH3 0x1DA9 DUP4 PUSH3 0x1D5E JUMP JUMPDEST PUSH3 0x1D2B JUMP JUMPDEST DUP3 DUP2 MSTORE PUSH1 0x5 SWAP3 SWAP1 SWAP3 SHL DUP5 ADD DUP2 ADD SWAP2 DUP2 DUP2 ADD SWAP1 DUP7 DUP5 GT ISZERO PUSH3 0x1DCF JUMPI PUSH1 0x0 DUP1 REVERT JUMPDEST DUP3 DUP7 ADD JUMPDEST DUP5 DUP2 LT ISZERO PUSH3 0x1DEC JUMPI DUP1 CALLDATALOAD DUP4 MSTORE SWAP2 DUP4 ADD SWAP2 DUP4 ADD PUSH3 0x1DD3 JUMP JUMPDEST POP SWAP7 SWAP6 POP POP POP POP POP POP JUMP JUMPDEST PUSH1 0x1 PUSH1 0x1 PUSH1 0xA0 SHL SUB DUP2 AND DUP2 EQ PUSH3 0x7BD JUMPI PUSH1 0x0 DUP1 REVERT JUMPDEST PUSH1 0x0 DUP3 PUSH1 0x1F DUP4 ADD SLT PUSH3 0x1E1F JUMPI PUSH1 0x0 DUP1 REVERT JUMPDEST DUP2 CALLDATALOAD PUSH1 0x20 PUSH3 0x1E32 PUSH3 0x1DA9 DUP4 PUSH3 0x1D5E JUMP JUMPDEST DUP3 DUP2 MSTORE PUSH1 0x5 SWAP3 SWAP1 SWAP3 SHL DUP5 ADD DUP2 ADD SWAP2 DUP2 DUP2 ADD SWAP1 DUP7 DUP5 GT ISZERO PUSH3 0x1E52 JUMPI PUSH1 0x0 DUP1 REVERT JUMPDEST DUP3 DUP7 ADD JUMPDEST DUP5 DUP2 LT ISZERO PUSH3 0x1DEC JUMPI DUP1 CALLDATALOAD PUSH3 0x1E6C DUP2 PUSH3 0x1DF7 JUMP JUMPDEST DUP4 MSTORE SWAP2 DUP4 ADD SWAP2 DUP4 ADD PUSH3 0x1E56 JUMP JUMPDEST PUSH1 0x0 DUP1 PUSH1 0x40 DUP4 DUP6 SUB SLT ISZERO PUSH3 0x1E8E JUMPI PUSH1 0x0 DUP1 REVERT JUMPDEST DUP3 CALLDATALOAD PUSH1 0x1 PUSH1 0x1 PUSH1 0x40 SHL SUB DUP1 DUP3 GT ISZERO PUSH3 0x1EA6 JUMPI PUSH1 0x0 DUP1 REVERT JUMPDEST PUSH3 0x1EB4 DUP7 DUP4 DUP8 ADD PUSH3 0x1D84 JUMP JUMPDEST SWAP4 POP PUSH1 0x20 DUP6 ADD CALLDATALOAD SWAP2 POP DUP1 DUP3 GT ISZERO PUSH3 0x1ECB JUMPI PUSH1 0x0 DUP1 REVERT JUMPDEST POP PUSH3 0x1EDA DUP6 DUP3 DUP7 ADD PUSH3 0x1E0D JUMP JUMPDEST SWAP2 POP POP SWAP3 POP SWAP3 SWAP1 POP JUMP JUMPDEST PUSH1 0x0 PUSH1 0x20 DUP3 DUP5 SUB SLT ISZERO PUSH3 0x1EF7 JUMPI PUSH1 0x0 DUP1 REVERT JUMPDEST DUP2 CALLDATALOAD PUSH3 0x672 DUP2 PUSH3 0x1DF7 JUMP JUMPDEST PUSH1 0x0 DUP1 PUSH1 0x0 DUP1 PUSH1 0x80 DUP6 DUP8 SUB SLT ISZERO PUSH3 0x1F1B JUMPI PUSH1 0x0 DUP1 REVERT JUMPDEST DUP5 CALLDATALOAD PUSH3 0x1F28 DUP2 PUSH3 0x1DF7 JUMP JUMPDEST SWAP4 POP PUSH1 0x20 DUP6 ADD CALLDATALOAD PUSH3 0x1F3A DUP2 PUSH3 0x1DF7 JUMP JUMPDEST SWAP3 POP PUSH1 0x40 DUP6 ADD CALLDATALOAD PUSH3 0x1F4C DUP2 PUSH3 0x1DF7 JUMP JUMPDEST SWAP4 SWAP7 SWAP3 SWAP6 POP SWAP3 SWAP4 PUSH1 0x60 ADD CALLDATALOAD SWAP3 POP POP JUMP JUMPDEST DUP1 ISZERO ISZERO DUP2 EQ PUSH3 0x7BD JUMPI PUSH1 0x0 DUP1 REVERT JUMPDEST PUSH1 0x0 DUP1 PUSH1 0x0 PUSH1 0x60 DUP5 DUP7 SUB SLT ISZERO PUSH3 0x1F81 JUMPI PUSH1 0x0 DUP1 REVERT JUMPDEST DUP4 CALLDATALOAD SWAP3 POP PUSH1 0x20 DUP5 ADD CALLDATALOAD SWAP2 POP PUSH1 0x40 DUP5 ADD CALLDATALOAD PUSH3 0x1F9C DUP2 PUSH3 0x1F5C JUMP JUMPDEST DUP1 SWAP2 POP POP SWAP3 POP SWAP3 POP SWAP3 JUMP JUMPDEST PUSH1 0x0 DUP1 PUSH1 0x0 PUSH1 0x60 DUP5 DUP7 SUB SLT ISZERO PUSH3 0x1FBD JUMPI PUSH1 0x0 DUP1 REVERT JUMPDEST DUP4 CALLDATALOAD PUSH3 0x1FCA DUP2 PUSH3 0x1DF7 JUMP JUMPDEST SWAP3 POP PUSH1 0x20 DUP5 ADD CALLDATALOAD SWAP2 POP PUSH1 0x40 DUP5 ADD CALLDATALOAD PUSH3 0x1F9C DUP2 PUSH3 0x1DF7 JUMP JUMPDEST PUSH1 0x0 DUP1 PUSH1 0x0 PUSH1 0x60 DUP5 DUP7 SUB SLT ISZERO PUSH3 0x1FF9 JUMPI PUSH1 0x0 DUP1 REVERT JUMPDEST DUP4 CALLDATALOAD PUSH1 0x1 PUSH1 0x1 PUSH1 0x40 SHL SUB DUP1 DUP3 GT ISZERO PUSH3 0x2011 JUMPI PUSH1 0x0 DUP1 REVERT JUMPDEST PUSH3 0x201F DUP8 DUP4 DUP9 ADD PUSH3 0x1D84 JUMP JUMPDEST SWAP5 POP PUSH1 0x20 DUP7 ADD CALLDATALOAD SWAP2 POP DUP1 DUP3 GT ISZERO PUSH3 0x2036 JUMPI PUSH1 0x0 DUP1 REVERT JUMPDEST POP PUSH3 0x2045 DUP7 DUP3 DUP8 ADD PUSH3 0x1E0D JUMP JUMPDEST SWAP3 POP POP PUSH1 0x40 DUP5 ADD CALLDATALOAD PUSH3 0x1F9C DUP2 PUSH3 0x1DF7 JUMP JUMPDEST PUSH1 0x0 DUP1 PUSH1 0x40 DUP4 DUP6 SUB SLT ISZERO PUSH3 0x206C JUMPI PUSH1 0x0 DUP1 REVERT JUMPDEST DUP3 CALLDATALOAD PUSH3 0x2079 DUP2 PUSH3 0x1DF7 JUMP JUMPDEST SWAP2 POP PUSH1 0x20 DUP4 ADD CALLDATALOAD PUSH3 0x208B DUP2 PUSH3 0x1DF7 JUMP JUMPDEST DUP1 SWAP2 POP POP SWAP3 POP SWAP3 SWAP1 POP JUMP JUMPDEST PUSH1 0x0 DUP1 PUSH1 0x0 DUP1 PUSH1 0x0 DUP1 PUSH1 0x0 DUP1 PUSH2 0x100 DUP10 DUP12 SUB SLT ISZERO PUSH3 0x20B4 JUMPI PUSH1 0x0 DUP1 REVERT JUMPDEST DUP9 CALLDATALOAD PUSH3 0x20C1 DUP2 PUSH3 0x1DF7 JUMP JUMPDEST SWAP8 POP PUSH1 0x20 DUP10 ADD CALLDATALOAD PUSH3 0x20D3 DUP2 PUSH3 0x1DF7 JUMP JUMPDEST SWAP7 POP PUSH1 0x40 DUP10 ADD CALLDATALOAD SWAP6 POP PUSH1 0x60 DUP10 ADD CALLDATALOAD PUSH3 0x20EC DUP2 PUSH3 0x1F5C JUMP JUMPDEST SWAP8 SWAP11 SWAP7 SWAP10 POP SWAP5 SWAP8 PUSH1 0x80 DUP2 ADD CALLDATALOAD SWAP7 PUSH1 0xA0 DUP3 ADD CALLDATALOAD SWAP7 POP PUSH1 0xC0 DUP3 ADD CALLDATALOAD SWAP6 POP PUSH1 0xE0 SWAP1 SWAP2 ADD CALLDATALOAD SWAP4 POP SWAP2 POP POP JUMP JUMPDEST PUSH1 0x1 PUSH1 0x1 PUSH1 0xA0 SHL SUB SWAP2 SWAP1 SWAP2 AND DUP2 MSTORE PUSH1 0x20 ADD SWAP1 JUMP JUMPDEST PUSH1 0x1 DUP2 DUP2 SHR SWAP1 DUP3 AND DUP1 PUSH3 0x213D JUMPI PUSH1 0x7F DUP3 AND SWAP2 POP JUMPDEST PUSH1 0x20 DUP3 LT DUP2 SUB PUSH3 0x215E JUMPI PUSH4 0x4E487B71 PUSH1 0xE0 SHL PUSH1 0x0 MSTORE PUSH1 0x22 PUSH1 0x4 MSTORE PUSH1 0x24 PUSH1 0x0 REVERT JUMPDEST POP SWAP2 SWAP1 POP JUMP JUMPDEST PUSH4 0x4E487B71 PUSH1 0xE0 SHL PUSH1 0x0 MSTORE PUSH1 0x32 PUSH1 0x4 MSTORE PUSH1 0x24 PUSH1 0x0 REVERT JUMPDEST PUSH1 0x1 PUSH1 0x1 PUSH1 0xA0 SHL SUB SWAP3 SWAP1 SWAP3 AND DUP3 MSTORE PUSH1 0x20 DUP3 ADD MSTORE PUSH1 0x40 ADD SWAP1 JUMP JUMPDEST PUSH1 0x0 PUSH1 0x20 DUP3 DUP5 SUB SLT ISZERO PUSH3 0x21A6 JUMPI PUSH1 0x0 DUP1 REVERT JUMPDEST DUP2 MLOAD PUSH3 0x672 DUP2 PUSH3 0x1F5C JUMP JUMPDEST PUSH4 0x4E487B71 PUSH1 0xE0 SHL PUSH1 0x0 MSTORE PUSH1 0x11 PUSH1 0x4 MSTORE PUSH1 0x24 PUSH1 0x0 REVERT JUMPDEST PUSH1 0x0 PUSH1 0x1 DUP3 ADD PUSH3 0x21DE JUMPI PUSH3 0x21DE PUSH3 0x21B3 JUMP JUMPDEST POP PUSH1 0x1 ADD SWAP1 JUMP JUMPDEST PUSH4 0x4E487B71 PUSH1 0xE0 SHL PUSH1 0x0 MSTORE PUSH1 0x1 PUSH1 0x4 MSTORE PUSH1 0x24 PUSH1 0x0 REVERT JUMPDEST PUSH1 0x0 PUSH1 0x20 DUP3 DUP5 SUB SLT ISZERO PUSH3 0x220E JUMPI PUSH1 0x0 DUP1 REVERT JUMPDEST DUP2 MLOAD PUSH1 0x1 PUSH1 0x1 PUSH1 0x40 SHL SUB DUP1 DUP3 GT ISZERO PUSH3 0x2226 JUMPI PUSH1 0x0 DUP1 REVERT JUMPDEST DUP2 DUP5 ADD SWAP2 POP DUP5 PUSH1 0x1F DUP4 ADD SLT PUSH3 0x223B JUMPI PUSH1 0x0 DUP1 REVERT JUMPDEST DUP2 MLOAD DUP2 DUP2 GT ISZERO PUSH3 0x2250 JUMPI PUSH3 0x2250 PUSH3 0x1D15 JUMP JUMPDEST PUSH3 0x2265 PUSH1 0x1F DUP3 ADD PUSH1 0x1F NOT AND PUSH1 0x20 ADD PUSH3 0x1D2B JUMP JUMPDEST SWAP2 POP DUP1 DUP3 MSTORE DUP6 PUSH1 0x20 DUP3 DUP6 ADD ADD GT ISZERO PUSH3 0x227D JUMPI PUSH1 0x0 DUP1 REVERT JUMPDEST PUSH3 0x2290 DUP2 PUSH1 0x20 DUP5 ADD PUSH1 0x20 DUP7 ADD PUSH3 0x1CA3 JUMP JUMPDEST POP SWAP5 SWAP4 POP POP POP POP JUMP JUMPDEST PUSH1 0x1 PUSH1 0x1 PUSH1 0xA0 SHL SUB DUP5 DUP2 AND DUP3 MSTORE DUP4 AND PUSH1 0x20 DUP3 ADD MSTORE PUSH1 0x60 PUSH1 0x40 DUP3 ADD DUP2 SWAP1 MSTORE PUSH1 0x0 SWAP1 PUSH3 0xB94 SWAP1 DUP4 ADD DUP5 PUSH3 0x1CD2 JUMP JUMPDEST PUSH1 0x1 PUSH1 0x1 PUSH1 0xA0 SHL SUB SWAP3 DUP4 AND DUP2 MSTORE SWAP2 AND PUSH1 0x20 DUP3 ADD MSTORE PUSH1 0x40 ADD SWAP1 JUMP JUMPDEST PUSH1 0x0 PUSH1 0x20 DUP3 DUP5 SUB SLT ISZERO PUSH3 0x22F4 JUMPI PUSH1 0x0 DUP1 REVERT JUMPDEST POP MLOAD SWAP2 SWAP1 POP JUMP JUMPDEST PUSH1 0x0 DUP3 NOT DUP3 GT ISZERO PUSH3 0x2311 JUMPI PUSH3 0x2311 PUSH3 0x21B3 JUMP JUMPDEST POP ADD SWAP1 JUMP JUMPDEST PUSH1 0x0 DUP2 PUSH1 0x0 NOT DIV DUP4 GT DUP3 ISZERO ISZERO AND ISZERO PUSH3 0x2333 JUMPI PUSH3 0x2333 PUSH3 0x21B3 JUMP JUMPDEST POP MUL SWAP1 JUMP JUMPDEST PUSH1 0x0 DUP3 PUSH3 0x2356 JUMPI PUSH4 0x4E487B71 PUSH1 0xE0 SHL PUSH1 0x0 MSTORE PUSH1 0x12 PUSH1 0x4 MSTORE PUSH1 0x24 PUSH1 0x0 REVERT JUMPDEST POP DIV SWAP1 JUMP JUMPDEST PUSH1 0x0 DUP3 DUP3 LT ISZERO PUSH3 0x2370 JUMPI PUSH3 0x2370 PUSH3 0x21B3 JUMP JUMPDEST POP SUB SWAP1 JUMP JUMPDEST PUSH1 0x1 PUSH1 0x1 PUSH1 0xA0 SHL SUB SWAP4 DUP5 AND DUP2 MSTORE SWAP2 SWAP1 SWAP3 AND PUSH1 0x20 DUP3 ADD MSTORE PUSH1 0x40 DUP2 ADD SWAP2 SWAP1 SWAP2 MSTORE PUSH1 0x60 ADD SWAP1 JUMP JUMPDEST PUSH1 0x0 DUP3 MLOAD PUSH3 0x23AD DUP2 DUP5 PUSH1 0x20 DUP8 ADD PUSH3 0x1CA3 JUMP JUMPDEST SWAP2 SWAP1 SWAP2 ADD SWAP3 SWAP2 POP POP JUMP INVALID PUSH1 0x80 PUSH1 0x40 DUP2 SWAP1 MSTORE PUSH1 0x6 DUP1 SLOAD PUSH1 0x1 PUSH1 0x1 PUSH1 0xA0 SHL SUB NOT AND ADDRESS OR SWAP1 SSTORE PUSH3 0x201E CODESIZE DUP2 SWAP1 SUB SWAP1 DUP2 SWAP1 DUP4 CODECOPY DUP2 ADD PUSH1 0x40 DUP2 SWAP1 MSTORE PUSH3 0x37 SWAP2 PUSH3 0x2F6 JUMP JUMPDEST DUP1 PUSH1 0x40 MLOAD PUSH1 0x20 ADD PUSH3 0x4A SWAP2 SWAP1 PUSH3 0x3D6 JUMP JUMPDEST PUSH1 0x40 MLOAD PUSH1 0x20 DUP2 DUP4 SUB SUB DUP2 MSTORE SWAP1 PUSH1 0x40 MSTORE DUP2 PUSH1 0x40 MLOAD PUSH1 0x20 ADD PUSH3 0x6C SWAP2 SWAP1 PUSH3 0x413 JUMP JUMPDEST PUSH1 0x40 MLOAD PUSH1 0x20 DUP2 DUP4 SUB SUB DUP2 MSTORE SWAP1 PUSH1 0x40 MSTORE DUP4 DUP3 DUP3 DUP2 PUSH1 0x3 SWAP1 DUP1 MLOAD SWAP1 PUSH1 0x20 ADD SWAP1 PUSH3 0x96 SWAP3 SWAP2 SWAP1 PUSH3 0x1EA JUMP JUMPDEST POP DUP1 MLOAD PUSH3 0xAC SWAP1 PUSH1 0x4 SWAP1 PUSH1 0x20 DUP5 ADD SWAP1 PUSH3 0x1EA JUMP JUMPDEST POP POP POP PUSH3 0xC9 PUSH3 0xC3 PUSH3 0x1A5 PUSH1 0x20 SHL PUSH1 0x20 SHR JUMP JUMPDEST PUSH3 0x1A9 JUMP JUMPDEST DUP3 MLOAD PUSH3 0xDE SWAP1 PUSH1 0x3 SWAP1 PUSH1 0x20 DUP7 ADD SWAP1 PUSH3 0x1EA JUMP JUMPDEST POP DUP2 MLOAD PUSH3 0xF4 SWAP1 PUSH1 0x4 SWAP1 PUSH1 0x20 DUP6 ADD SWAP1 PUSH3 0x1EA JUMP JUMPDEST POP PUSH1 0x40 MLOAD PUSH1 0x1 PUSH1 0x1 PUSH1 0xA0 SHL SUB DUP3 AND SWAP1 PUSH1 0x0 SWAP1 PUSH1 0x0 DUP1 MLOAD PUSH1 0x20 PUSH3 0x1FFE DUP4 CODECOPY DUP2 MLOAD SWAP2 MSTORE SWAP1 DUP3 SWAP1 LOG3 POP POP PUSH1 0x9 DUP1 SLOAD PUSH1 0x1 PUSH1 0x1 PUSH1 0xA0 SHL SUB DUP1 DUP7 AND PUSH1 0x1 PUSH1 0x1 PUSH1 0xA0 SHL SUB NOT SWAP3 DUP4 AND DUP2 OR SWAP1 SWAP4 SSTORE PUSH1 0x8 DUP1 SLOAD SWAP2 DUP9 AND SWAP2 DUP4 AND SWAP2 SWAP1 SWAP2 OR SWAP1 SSTORE PUSH1 0xA DUP1 SLOAD PUSH1 0x1 DUP2 ADD DUP3 SSTORE PUSH1 0x0 SWAP2 SWAP1 SWAP2 MSTORE PUSH32 0xC65A7BB8D6351C1CF70C95A316CC6A92839C986682D98BC35F958F4883F9D2A8 ADD DUP1 SLOAD SWAP1 SWAP2 AND SWAP1 SWAP2 OR SWAP1 SSTORE POP PUSH3 0x198 TIMESTAMP PUSH3 0x3F480 PUSH3 0x445 JUMP JUMPDEST PUSH1 0xC SSTORE POP PUSH3 0x4A8 SWAP2 POP POP JUMP JUMPDEST CALLER SWAP1 JUMP JUMPDEST PUSH1 0x5 DUP1 SLOAD PUSH1 0x1 PUSH1 0x1 PUSH1 0xA0 SHL SUB DUP4 DUP2 AND PUSH1 0x1 PUSH1 0x1 PUSH1 0xA0 SHL SUB NOT DUP4 AND DUP2 OR SWAP1 SWAP4 SSTORE PUSH1 0x40 MLOAD SWAP2 AND SWAP2 SWAP1 DUP3 SWAP1 PUSH1 0x0 DUP1 MLOAD PUSH1 0x20 PUSH3 0x1FFE DUP4 CODECOPY DUP2 MLOAD SWAP2 MSTORE SWAP1 PUSH1 0x0 SWAP1 LOG3 POP POP JUMP JUMPDEST DUP3 DUP1 SLOAD PUSH3 0x1F8 SWAP1 PUSH3 0x46C JUMP JUMPDEST SWAP1 PUSH1 0x0 MSTORE PUSH1 0x20 PUSH1 0x0 KECCAK256 SWAP1 PUSH1 0x1F ADD PUSH1 0x20 SWAP1 DIV DUP2 ADD SWAP3 DUP3 PUSH3 0x21C JUMPI PUSH1 0x0 DUP6 SSTORE PUSH3 0x267 JUMP JUMPDEST DUP3 PUSH1 0x1F LT PUSH3 0x237 JUMPI DUP1 MLOAD PUSH1 0xFF NOT AND DUP4 DUP1 ADD OR DUP6 SSTORE PUSH3 0x267 JUMP JUMPDEST DUP3 DUP1 ADD PUSH1 0x1 ADD DUP6 SSTORE DUP3 ISZERO PUSH3 0x267 JUMPI SWAP2 DUP3 ADD JUMPDEST DUP3 DUP2 GT ISZERO PUSH3 0x267 JUMPI DUP3 MLOAD DUP3 SSTORE SWAP2 PUSH1 0x20 ADD SWAP2 SWAP1 PUSH1 0x1 ADD SWAP1 PUSH3 0x24A JUMP JUMPDEST POP PUSH3 0x275 SWAP3 SWAP2 POP PUSH3 0x279 JUMP JUMPDEST POP SWAP1 JUMP JUMPDEST JUMPDEST DUP1 DUP3 GT ISZERO PUSH3 0x275 JUMPI PUSH1 0x0 DUP2 SSTORE PUSH1 0x1 ADD PUSH3 0x27A JUMP JUMPDEST DUP1 MLOAD PUSH1 0x1 PUSH1 0x1 PUSH1 0xA0 SHL SUB DUP2 AND DUP2 EQ PUSH3 0x2A8 JUMPI PUSH1 0x0 DUP1 REVERT JUMPDEST SWAP2 SWAP1 POP JUMP JUMPDEST PUSH4 0x4E487B71 PUSH1 0xE0 SHL PUSH1 0x0 MSTORE PUSH1 0x41 PUSH1 0x4 MSTORE PUSH1 0x24 PUSH1 0x0 REVERT JUMPDEST PUSH1 0x0 JUMPDEST DUP4 DUP2 LT ISZERO PUSH3 0x2E0 JUMPI DUP2 DUP2 ADD MLOAD DUP4 DUP3 ADD MSTORE PUSH1 0x20 ADD PUSH3 0x2C6 JUMP JUMPDEST DUP4 DUP2 GT ISZERO PUSH3 0x2F0 JUMPI PUSH1 0x0 DUP5 DUP5 ADD MSTORE JUMPDEST POP POP POP POP JUMP JUMPDEST PUSH1 0x0 DUP1 PUSH1 0x0 PUSH1 0x60 DUP5 DUP7 SUB SLT ISZERO PUSH3 0x30C JUMPI PUSH1 0x0 DUP1 REVERT JUMPDEST PUSH3 0x317 DUP5 PUSH3 0x290 JUMP JUMPDEST SWAP3 POP PUSH3 0x327 PUSH1 0x20 DUP6 ADD PUSH3 0x290 JUMP JUMPDEST PUSH1 0x40 DUP6 ADD MLOAD SWAP1 SWAP3 POP PUSH1 0x1 PUSH1 0x1 PUSH1 0x40 SHL SUB DUP1 DUP3 GT ISZERO PUSH3 0x345 JUMPI PUSH1 0x0 DUP1 REVERT JUMPDEST DUP2 DUP7 ADD SWAP2 POP DUP7 PUSH1 0x1F DUP4 ADD SLT PUSH3 0x35A JUMPI PUSH1 0x0 DUP1 REVERT JUMPDEST DUP2 MLOAD DUP2 DUP2 GT ISZERO PUSH3 0x36F JUMPI PUSH3 0x36F PUSH3 0x2AD JUMP JUMPDEST PUSH1 0x40 MLOAD PUSH1 0x1F DUP3 ADD PUSH1 0x1F NOT SWAP1 DUP2 AND PUSH1 0x3F ADD AND DUP2 ADD SWAP1 DUP4 DUP3 GT DUP2 DUP4 LT OR ISZERO PUSH3 0x39A JUMPI PUSH3 0x39A PUSH3 0x2AD JUMP JUMPDEST DUP2 PUSH1 0x40 MSTORE DUP3 DUP2 MSTORE DUP10 PUSH1 0x20 DUP5 DUP8 ADD ADD GT ISZERO PUSH3 0x3B4 JUMPI PUSH1 0x0 DUP1 REVERT JUMPDEST PUSH3 0x3C7 DUP4 PUSH1 0x20 DUP4 ADD PUSH1 0x20 DUP9 ADD PUSH3 0x2C3 JUMP JUMPDEST DUP1 SWAP6 POP POP POP POP POP POP SWAP3 POP SWAP3 POP SWAP3 JUMP JUMPDEST PUSH8 0xD2ACC2EAD8E8405 PUSH1 0xC3 SHL DUP2 MSTORE PUSH1 0x0 DUP3 MLOAD PUSH3 0x3FB DUP2 PUSH1 0x8 DUP6 ADD PUSH1 0x20 DUP8 ADD PUSH3 0x2C3 JUMP JUMPDEST PUSH1 0x29 PUSH1 0xF8 SHL PUSH1 0x8 SWAP4 SWAP1 SWAP2 ADD SWAP3 DUP4 ADD MSTORE POP PUSH1 0x9 ADD SWAP2 SWAP1 POP JUMP JUMPDEST PUSH8 0x427269646765642D PUSH1 0xC0 SHL DUP2 MSTORE PUSH1 0x0 DUP3 MLOAD PUSH3 0x438 DUP2 PUSH1 0x8 DUP6 ADD PUSH1 0x20 DUP8 ADD PUSH3 0x2C3 JUMP JUMPDEST SWAP2 SWAP1 SWAP2 ADD PUSH1 0x8 ADD SWAP3 SWAP2 POP POP JUMP JUMPDEST PUSH1 0x0 DUP3 NOT DUP3 GT ISZERO PUSH3 0x467 JUMPI PUSH4 0x4E487B71 PUSH1 0xE0 SHL PUSH1 0x0 MSTORE PUSH1 0x11 PUSH1 0x4 MSTORE PUSH1 0x24 PUSH1 0x0 REVERT JUMPDEST POP ADD SWAP1 JUMP JUMPDEST PUSH1 0x1 DUP2 DUP2 SHR SWAP1 DUP3 AND DUP1 PUSH3 0x481 JUMPI PUSH1 0x7F DUP3 AND SWAP2 POP JUMPDEST PUSH1 0x20 DUP3 LT DUP2 SUB PUSH3 0x4A2 JUMPI PUSH4 0x4E487B71 PUSH1 0xE0 SHL PUSH1 0x0 MSTORE PUSH1 0x22 PUSH1 0x4 MSTORE PUSH1 0x24 PUSH1 0x0 REVERT JUMPDEST POP SWAP2 SWAP1 POP JUMP JUMPDEST PUSH2 0x1B46 DUP1 PUSH3 0x4B8 PUSH1 0x0 CODECOPY PUSH1 0x0 RETURN INVALID PUSH1 0x80 PUSH1 0x40 MSTORE PUSH1 0x4 CALLDATASIZE LT PUSH2 0x15F JUMPI PUSH1 0x0 CALLDATALOAD PUSH1 0xE0 SHR DUP1 PUSH4 0x8DA5CB5B GT PUSH2 0xC4 JUMPI DUP1 PUSH4 0x8DA5CB5B EQ PUSH2 0x355 JUMPI DUP1 PUSH4 0x95D89B41 EQ PUSH2 0x373 JUMPI DUP1 PUSH4 0x9A708BE3 EQ PUSH2 0x388 JUMPI DUP1 PUSH4 0xA457C2D7 EQ PUSH2 0x3A8 JUMPI DUP1 PUSH4 0xA5F2A152 EQ PUSH2 0x3C8 JUMPI DUP1 PUSH4 0xA9059CBB EQ PUSH2 0x3E8 JUMPI DUP1 PUSH4 0xB09F1266 EQ PUSH2 0x408 JUMPI DUP1 PUSH4 0xB90306AD EQ PUSH2 0x41D JUMPI DUP1 PUSH4 0xBBB35F69 EQ PUSH2 0x43D JUMPI DUP1 PUSH4 0xD28D8852 EQ PUSH2 0x473 JUMPI DUP1 PUSH4 0xD7B96D4E EQ PUSH2 0x488 JUMPI DUP1 PUSH4 0xDD62ED3E EQ PUSH2 0x4A8 JUMPI DUP1 PUSH4 0xE534155D EQ PUSH2 0x4EE JUMPI DUP1 PUSH4 0xF2FDE38B EQ PUSH2 0x50E JUMPI DUP1 PUSH4 0xFD4C9B96 EQ PUSH2 0x52E JUMPI STOP JUMPDEST DUP1 PUSH3 0xE73378 EQ PUSH2 0x168 JUMPI DUP1 PUSH4 0x6FDDE03 EQ PUSH2 0x190 JUMPI DUP1 PUSH4 0x95EA7B3 EQ PUSH2 0x1B2 JUMPI DUP1 PUSH4 0xF388B4F EQ PUSH2 0x1D2 JUMPI DUP1 PUSH4 0xF6798A5 EQ PUSH2 0x1F6 JUMPI DUP1 PUSH4 0x18160DDD EQ PUSH2 0x216 JUMPI DUP1 PUSH4 0x23B872DD EQ PUSH2 0x22B JUMPI DUP1 PUSH4 0x28E1A604 EQ PUSH2 0x24B JUMPI DUP1 PUSH4 0x2A11CED0 EQ PUSH2 0x26B JUMPI DUP1 PUSH4 0x313CE567 EQ PUSH2 0x298 JUMPI DUP1 PUSH4 0x39509351 EQ PUSH2 0x2B4 JUMPI DUP1 PUSH4 0x70A08231 EQ PUSH2 0x2D4 JUMPI DUP1 PUSH4 0x715018A6 EQ PUSH2 0x30A JUMPI DUP1 PUSH4 0x794F4DD1 EQ PUSH2 0x31F JUMPI STOP JUMPDEST CALLDATASIZE PUSH2 0x166 JUMPI STOP JUMPDEST STOP JUMPDEST PUSH2 0x17B PUSH2 0x176 CALLDATASIZE PUSH1 0x4 PUSH2 0x174D JUMP JUMPDEST PUSH2 0x54E JUMP JUMPDEST PUSH1 0x40 MLOAD SWAP1 ISZERO ISZERO DUP2 MSTORE PUSH1 0x20 ADD JUMPDEST PUSH1 0x40 MLOAD DUP1 SWAP2 SUB SWAP1 RETURN JUMPDEST CALLVALUE DUP1 ISZERO PUSH2 0x19C JUMPI PUSH1 0x0 DUP1 REVERT JUMPDEST POP PUSH2 0x1A5 PUSH2 0x605 JUMP JUMPDEST PUSH1 0x40 MLOAD PUSH2 0x187 SWAP2 SWAP1 PUSH2 0x17A5 JUMP JUMPDEST CALLVALUE DUP1 ISZERO PUSH2 0x1BE JUMPI PUSH1 0x0 DUP1 REVERT JUMPDEST POP PUSH2 0x17B PUSH2 0x1CD CALLDATASIZE PUSH1 0x4 PUSH2 0x174D JUMP JUMPDEST PUSH2 0x697 JUMP JUMPDEST CALLVALUE DUP1 ISZERO PUSH2 0x1DE JUMPI PUSH1 0x0 DUP1 REVERT JUMPDEST POP PUSH2 0x1E8 PUSH1 0xB SLOAD DUP2 JUMP JUMPDEST PUSH1 0x40 MLOAD SWAP1 DUP2 MSTORE PUSH1 0x20 ADD PUSH2 0x187 JUMP JUMPDEST CALLVALUE DUP1 ISZERO PUSH2 0x202 JUMPI PUSH1 0x0 DUP1 REVERT JUMPDEST POP PUSH2 0x166 PUSH2 0x211 CALLDATASIZE PUSH1 0x4 PUSH2 0x174D JUMP JUMPDEST PUSH2 0x6AD JUMP JUMPDEST CALLVALUE DUP1 ISZERO PUSH2 0x222 JUMPI PUSH1 0x0 DUP1 REVERT JUMPDEST POP PUSH1 0x2 SLOAD PUSH2 0x1E8 JUMP JUMPDEST CALLVALUE DUP1 ISZERO PUSH2 0x237 JUMPI PUSH1 0x0 DUP1 REVERT JUMPDEST POP PUSH2 0x17B PUSH2 0x246 CALLDATASIZE PUSH1 0x4 PUSH2 0x17D8 JUMP JUMPDEST PUSH2 0x7AB JUMP JUMPDEST CALLVALUE DUP1 ISZERO PUSH2 0x257 JUMPI PUSH1 0x0 DUP1 REVERT JUMPDEST POP PUSH2 0x166 PUSH2 0x266 CALLDATASIZE PUSH1 0x4 PUSH2 0x174D JUMP JUMPDEST PUSH2 0x801 JUMP JUMPDEST CALLVALUE DUP1 ISZERO PUSH2 0x277 JUMPI PUSH1 0x0 DUP1 REVERT JUMPDEST POP PUSH2 0x28B PUSH2 0x286 CALLDATASIZE PUSH1 0x4 PUSH2 0x1819 JUMP JUMPDEST PUSH2 0x817 JUMP JUMPDEST PUSH1 0x40 MLOAD PUSH2 0x187 SWAP2 SWAP1 PUSH2 0x1832 JUMP JUMPDEST CALLVALUE DUP1 ISZERO PUSH2 0x2A4 JUMPI PUSH1 0x0 DUP1 REVERT JUMPDEST POP PUSH1 0x40 MLOAD PUSH1 0x12 DUP2 MSTORE PUSH1 0x20 ADD PUSH2 0x187 JUMP JUMPDEST CALLVALUE DUP1 ISZERO PUSH2 0x2C0 JUMPI PUSH1 0x0 DUP1 REVERT JUMPDEST POP PUSH2 0x17B PUSH2 0x2CF CALLDATASIZE PUSH1 0x4 PUSH2 0x174D JUMP JUMPDEST PUSH2 0x841 JUMP JUMPDEST CALLVALUE DUP1 ISZERO PUSH2 0x2E0 JUMPI PUSH1 0x0 DUP1 REVERT JUMPDEST POP PUSH2 0x1E8 PUSH2 0x2EF CALLDATASIZE PUSH1 0x4 PUSH2 0x1846 JUMP JUMPDEST PUSH1 0x1 PUSH1 0x1 PUSH1 0xA0 SHL SUB AND PUSH1 0x0 SWAP1 DUP2 MSTORE PUSH1 0x20 DUP2 SWAP1 MSTORE PUSH1 0x40 SWAP1 KECCAK256 SLOAD SWAP1 JUMP JUMPDEST CALLVALUE DUP1 ISZERO PUSH2 0x316 JUMPI PUSH1 0x0 DUP1 REVERT JUMPDEST POP PUSH2 0x166 PUSH2 0x87D JUMP JUMPDEST CALLVALUE DUP1 ISZERO PUSH2 0x32B JUMPI PUSH1 0x0 DUP1 REVERT JUMPDEST POP PUSH2 0x28B PUSH2 0x33A CALLDATASIZE PUSH1 0x4 PUSH2 0x1819 JUMP JUMPDEST PUSH1 0x0 SWAP1 DUP2 MSTORE PUSH1 0x7 PUSH1 0x20 MSTORE PUSH1 0x40 SWAP1 KECCAK256 SLOAD PUSH1 0x1 PUSH1 0x1 PUSH1 0xA0 SHL SUB AND SWAP1 JUMP JUMPDEST CALLVALUE DUP1 ISZERO PUSH2 0x361 JUMPI PUSH1 0x0 DUP1 REVERT JUMPDEST POP PUSH1 0x5 SLOAD PUSH1 0x1 PUSH1 0x1 PUSH1 0xA0 SHL SUB AND PUSH2 0x28B JUMP JUMPDEST CALLVALUE DUP1 ISZERO PUSH2 0x37F JUMPI PUSH1 0x0 DUP1 REVERT JUMPDEST POP PUSH2 0x1A5 PUSH2 0x891 JUMP JUMPDEST CALLVALUE DUP1 ISZERO PUSH2 0x394 JUMPI PUSH1 0x0 DUP1 REVERT JUMPDEST POP PUSH2 0x166 PUSH2 0x3A3 CALLDATASIZE PUSH1 0x4 PUSH2 0x190D JUMP JUMPDEST PUSH2 0x8A0 JUMP JUMPDEST CALLVALUE DUP1 ISZERO PUSH2 0x3B4 JUMPI PUSH1 0x0 DUP1 REVERT JUMPDEST POP PUSH2 0x17B PUSH2 0x3C3 CALLDATASIZE PUSH1 0x4 PUSH2 0x174D JUMP JUMPDEST PUSH2 0x8D9 JUMP JUMPDEST CALLVALUE DUP1 ISZERO PUSH2 0x3D4 JUMPI PUSH1 0x0 DUP1 REVERT JUMPDEST POP PUSH2 0x17B PUSH2 0x3E3 CALLDATASIZE PUSH1 0x4 PUSH2 0x17D8 JUMP JUMPDEST PUSH2 0x917 JUMP JUMPDEST CALLVALUE DUP1 ISZERO PUSH2 0x3F4 JUMPI PUSH1 0x0 DUP1 REVERT JUMPDEST POP PUSH2 0x17B PUSH2 0x403 CALLDATASIZE PUSH1 0x4 PUSH2 0x174D JUMP JUMPDEST PUSH2 0xA50 JUMP JUMPDEST CALLVALUE DUP1 ISZERO PUSH2 0x414 JUMPI PUSH1 0x0 DUP1 REVERT JUMPDEST POP PUSH2 0x1A5 PUSH2 0xA5D JUMP JUMPDEST CALLVALUE DUP1 ISZERO PUSH2 0x429 JUMPI PUSH1 0x0 DUP1 REVERT JUMPDEST POP PUSH2 0x166 PUSH2 0x438 CALLDATASIZE PUSH1 0x4 PUSH2 0x1819 JUMP JUMPDEST PUSH2 0xAEB JUMP JUMPDEST CALLVALUE DUP1 ISZERO PUSH2 0x449 JUMPI PUSH1 0x0 DUP1 REVERT JUMPDEST POP PUSH2 0x28B PUSH2 0x458 CALLDATASIZE PUSH1 0x4 PUSH2 0x1819 JUMP JUMPDEST PUSH1 0x7 PUSH1 0x20 MSTORE PUSH1 0x0 SWAP1 DUP2 MSTORE PUSH1 0x40 SWAP1 KECCAK256 SLOAD PUSH1 0x1 PUSH1 0x1 PUSH1 0xA0 SHL SUB AND DUP2 JUMP JUMPDEST CALLVALUE DUP1 ISZERO PUSH2 0x47F JUMPI PUSH1 0x0 DUP1 REVERT JUMPDEST POP PUSH2 0x1A5 PUSH2 0xB00 JUMP JUMPDEST CALLVALUE DUP1 ISZERO PUSH2 0x494 JUMPI PUSH1 0x0 DUP1 REVERT JUMPDEST POP PUSH1 0x8 SLOAD PUSH2 0x28B SWAP1 PUSH1 0x1 PUSH1 0x1 PUSH1 0xA0 SHL SUB AND DUP2 JUMP JUMPDEST CALLVALUE DUP1 ISZERO PUSH2 0x4B4 JUMPI PUSH1 0x0 DUP1 REVERT JUMPDEST POP PUSH2 0x1E8 PUSH2 0x4C3 CALLDATASIZE PUSH1 0x4 PUSH2 0x1971 JUMP JUMPDEST PUSH1 0x1 PUSH1 0x1 PUSH1 0xA0 SHL SUB SWAP2 DUP3 AND PUSH1 0x0 SWAP1 DUP2 MSTORE PUSH1 0x1 PUSH1 0x20 SWAP1 DUP2 MSTORE PUSH1 0x40 DUP1 DUP4 KECCAK256 SWAP4 SWAP1 SWAP5 AND DUP3 MSTORE SWAP2 SWAP1 SWAP2 MSTORE KECCAK256 SLOAD SWAP1 JUMP JUMPDEST CALLVALUE DUP1 ISZERO PUSH2 0x4FA JUMPI PUSH1 0x0 DUP1 REVERT JUMPDEST POP PUSH1 0x9 SLOAD PUSH2 0x28B SWAP1 PUSH1 0x1 PUSH1 0x1 PUSH1 0xA0 SHL SUB AND DUP2 JUMP JUMPDEST CALLVALUE DUP1 ISZERO PUSH2 0x51A JUMPI PUSH1 0x0 DUP1 REVERT JUMPDEST POP PUSH2 0x166 PUSH2 0x529 CALLDATASIZE PUSH1 0x4 PUSH2 0x1846 JUMP JUMPDEST PUSH2 0xB0D JUMP JUMPDEST CALLVALUE DUP1 ISZERO PUSH2 0x53A JUMPI PUSH1 0x0 DUP1 REVERT JUMPDEST POP PUSH2 0x17B PUSH2 0x549 CALLDATASIZE PUSH1 0x4 PUSH2 0x1846 JUMP JUMPDEST PUSH2 0xB88 JUMP JUMPDEST PUSH1 0x8 SLOAD PUSH1 0x0 SWAP1 PUSH1 0x1 PUSH1 0x1 PUSH1 0xA0 SHL SUB AND CALLER PUSH1 0x1 PUSH1 0x1 PUSH1 0xA0 SHL SUB AND EQ DUP1 PUSH2 0x586 JUMPI POP PUSH1 0x9 SLOAD PUSH1 0x1 PUSH1 0x1 PUSH1 0xA0 SHL SUB AND CALLER PUSH1 0x1 PUSH1 0x1 PUSH1 0xA0 SHL SUB AND EQ JUMPDEST PUSH2 0x58F JUMPI PUSH1 0x0 DUP1 REVERT JUMPDEST SELFBALANCE DUP3 GT ISZERO PUSH2 0x59B JUMPI SELFBALANCE SWAP2 POP JUMPDEST PUSH1 0x0 DUP4 PUSH1 0x1 PUSH1 0x1 PUSH1 0xA0 SHL SUB AND DUP4 PUSH1 0x40 MLOAD PUSH1 0x0 PUSH1 0x40 MLOAD DUP1 DUP4 SUB DUP2 DUP6 DUP8 GAS CALL SWAP3 POP POP POP RETURNDATASIZE DUP1 PUSH1 0x0 DUP2 EQ PUSH2 0x5E8 JUMPI PUSH1 0x40 MLOAD SWAP2 POP PUSH1 0x1F NOT PUSH1 0x3F RETURNDATASIZE ADD AND DUP3 ADD PUSH1 0x40 MSTORE RETURNDATASIZE DUP3 MSTORE RETURNDATASIZE PUSH1 0x0 PUSH1 0x20 DUP5 ADD RETURNDATACOPY PUSH2 0x5ED JUMP JUMPDEST PUSH1 0x60 SWAP2 POP JUMPDEST POP POP SWAP1 POP DUP1 PUSH2 0x5FB JUMPI PUSH1 0x0 DUP1 REVERT JUMPDEST POP PUSH1 0x1 SWAP4 SWAP3 POP POP POP JUMP JUMPDEST PUSH1 0x60 PUSH1 0x3 DUP1 SLOAD PUSH2 0x614 SWAP1 PUSH2 0x19AA JUMP JUMPDEST DUP1 PUSH1 0x1F ADD PUSH1 0x20 DUP1 SWAP2 DIV MUL PUSH1 0x20 ADD PUSH1 0x40 MLOAD SWAP1 DUP2 ADD PUSH1 0x40 MSTORE DUP1 SWAP3 SWAP2 SWAP1 DUP2 DUP2 MSTORE PUSH1 0x20 ADD DUP3 DUP1 SLOAD PUSH2 0x640 SWAP1 PUSH2 0x19AA JUMP JUMPDEST DUP1 ISZERO PUSH2 0x68D JUMPI DUP1 PUSH1 0x1F LT PUSH2 0x662 JUMPI PUSH2 0x100 DUP1 DUP4 SLOAD DIV MUL DUP4 MSTORE SWAP2 PUSH1 0x20 ADD SWAP2 PUSH2 0x68D JUMP JUMPDEST DUP3 ADD SWAP2 SWAP1 PUSH1 0x0 MSTORE PUSH1 0x20 PUSH1 0x0 KECCAK256 SWAP1 JUMPDEST DUP2 SLOAD DUP2 MSTORE SWAP1 PUSH1 0x1 ADD SWAP1 PUSH1 0x20 ADD DUP1 DUP4 GT PUSH2 0x670 JUMPI DUP3 SWAP1 SUB PUSH1 0x1F AND DUP3 ADD SWAP2 JUMPDEST POP POP POP POP POP SWAP1 POP SWAP1 JUMP JUMPDEST PUSH1 0x0 PUSH2 0x6A4 CALLER DUP5 DUP5 PUSH2 0xEE6 JUMP JUMPDEST POP PUSH1 0x1 SWAP3 SWAP2 POP POP JUMP JUMPDEST PUSH1 0x0 PUSH2 0x2710 ADDRESS PUSH1 0x1 PUSH1 0x1 PUSH1 0xA0 SHL SUB AND PUSH4 0x18160DDD PUSH1 0x40 MLOAD DUP2 PUSH4 0xFFFFFFFF AND PUSH1 0xE0 SHL DUP2 MSTORE PUSH1 0x4 ADD PUSH1 0x20 PUSH1 0x40 MLOAD DUP1 DUP4 SUB DUP2 DUP7 GAS STATICCALL ISZERO DUP1 ISZERO PUSH2 0x6F0 JUMPI RETURNDATASIZE PUSH1 0x0 DUP1 RETURNDATACOPY RETURNDATASIZE PUSH1 0x0 REVERT JUMPDEST POP POP POP POP PUSH1 0x40 MLOAD RETURNDATASIZE PUSH1 0x1F NOT PUSH1 0x1F DUP3 ADD AND DUP3 ADD DUP1 PUSH1 0x40 MSTORE POP DUP2 ADD SWAP1 PUSH2 0x714 SWAP2 SWAP1 PUSH2 0x19E4 JUMP JUMPDEST PUSH2 0x720 SWAP1 PUSH2 0x13EC PUSH2 0x1A13 JUMP JUMPDEST PUSH2 0x72A SWAP2 SWAP1 PUSH2 0x1A32 JUMP JUMPDEST PUSH1 0x40 MLOAD PUSH4 0x70A08231 PUSH1 0xE0 SHL DUP2 MSTORE ADDRESS SWAP1 PUSH4 0x70A08231 SWAP1 PUSH2 0x74D SWAP1 CALLER SWAP1 PUSH1 0x4 ADD PUSH2 0x1832 JUMP JUMPDEST PUSH1 0x20 PUSH1 0x40 MLOAD DUP1 DUP4 SUB DUP2 DUP7 GAS STATICCALL ISZERO DUP1 ISZERO PUSH2 0x76A JUMPI RETURNDATASIZE PUSH1 0x0 DUP1 RETURNDATACOPY RETURNDATASIZE PUSH1 0x0 REVERT JUMPDEST POP POP POP POP PUSH1 0x40 MLOAD RETURNDATASIZE PUSH1 0x1F NOT PUSH1 0x1F DUP3 ADD AND DUP3 ADD DUP1 PUSH1 0x40 MSTORE POP DUP2 ADD SWAP1 PUSH2 0x78E SWAP2 SWAP1 PUSH2 0x19E4 JUMP JUMPDEST LT ISZERO SWAP1 POP DUP1 PUSH2 0x79C JUMPI PUSH1 0x0 DUP1 REVERT JUMPDEST PUSH2 0x7A6 DUP4 DUP4 PUSH2 0xF6D JUMP JUMPDEST POP POP POP JUMP JUMPDEST PUSH1 0x0 PUSH2 0x7B8 DUP5 DUP5 DUP5 PUSH2 0xFF7 JUMP JUMPDEST PUSH1 0x1 PUSH1 0x1 PUSH1 0xA0 SHL SUB DUP5 AND PUSH1 0x0 SWAP1 DUP2 MSTORE PUSH1 0x1 PUSH1 0x20 SWAP1 DUP2 MSTORE PUSH1 0x40 DUP1 DUP4 KECCAK256 CALLER DUP5 MSTORE SWAP1 SWAP2 MSTORE SWAP1 KECCAK256 SLOAD DUP3 DUP2 LT ISZERO PUSH2 0x7E9 JUMPI PUSH1 0x0 DUP1 REVERT JUMPDEST PUSH2 0x7F6 DUP6 CALLER DUP6 DUP5 SUB PUSH2 0xEE6 JUMP JUMPDEST POP PUSH1 0x1 SWAP5 SWAP4 POP POP POP POP JUMP JUMPDEST PUSH2 0x809 PUSH2 0x11D2 JUMP JUMPDEST PUSH2 0x813 DUP3 DUP3 PUSH2 0x122C JUMP JUMPDEST POP POP JUMP JUMPDEST PUSH1 0xA DUP2 DUP2 SLOAD DUP2 LT PUSH2 0x827 JUMPI PUSH1 0x0 DUP1 REVERT JUMPDEST PUSH1 0x0 SWAP2 DUP3 MSTORE PUSH1 0x20 SWAP1 SWAP2 KECCAK256 ADD SLOAD PUSH1 0x1 PUSH1 0x1 PUSH1 0xA0 SHL SUB AND SWAP1 POP DUP2 JUMP JUMPDEST CALLER PUSH1 0x0 DUP2 DUP2 MSTORE PUSH1 0x1 PUSH1 0x20 SWAP1 DUP2 MSTORE PUSH1 0x40 DUP1 DUP4 KECCAK256 PUSH1 0x1 PUSH1 0x1 PUSH1 0xA0 SHL SUB DUP8 AND DUP5 MSTORE SWAP1 SWAP2 MSTORE DUP2 KECCAK256 SLOAD SWAP1 SWAP2 PUSH2 0x6A4 SWAP2 DUP6 SWAP1 PUSH2 0x878 SWAP1 DUP7 SWAP1 PUSH2 0x1A54 JUMP JUMPDEST PUSH2 0xEE6 JUMP JUMPDEST PUSH2 0x885 PUSH2 0x11D2 JUMP JUMPDEST PUSH2 0x88F PUSH1 0x0 PUSH2 0x12CD JUMP JUMPDEST JUMP JUMPDEST PUSH1 0x60 PUSH1 0x4 DUP1 SLOAD PUSH2 0x614 SWAP1 PUSH2 0x19AA JUMP JUMPDEST PUSH1 0x9 SLOAD PUSH1 0x1 PUSH1 0x1 PUSH1 0xA0 SHL SUB AND CALLER SUB PUSH2 0x813 JUMPI DUP2 MLOAD PUSH2 0x8C5 SWAP1 PUSH1 0x3 SWAP1 PUSH1 0x20 DUP6 ADD SWAP1 PUSH2 0x169F JUMP JUMPDEST POP DUP1 MLOAD PUSH2 0x7A6 SWAP1 PUSH1 0x4 SWAP1 PUSH1 0x20 DUP5 ADD SWAP1 PUSH2 0x169F JUMP JUMPDEST CALLER PUSH1 0x0 SWAP1 DUP2 MSTORE PUSH1 0x1 PUSH1 0x20 SWAP1 DUP2 MSTORE PUSH1 0x40 DUP1 DUP4 KECCAK256 PUSH1 0x1 PUSH1 0x1 PUSH1 0xA0 SHL SUB DUP7 AND DUP5 MSTORE SWAP1 SWAP2 MSTORE DUP2 KECCAK256 SLOAD DUP3 DUP2 LT ISZERO PUSH2 0x90A JUMPI PUSH1 0x0 DUP1 REVERT JUMPDEST PUSH2 0x5FB CALLER DUP6 DUP6 DUP5 SUB PUSH2 0xEE6 JUMP JUMPDEST PUSH1 0x8 SLOAD PUSH1 0x0 SWAP1 PUSH1 0x1 PUSH1 0x1 PUSH1 0xA0 SHL SUB AND CALLER PUSH1 0x1 PUSH1 0x1 PUSH1 0xA0 SHL SUB AND EQ DUP1 PUSH2 0x94F JUMPI POP PUSH1 0x9 SLOAD PUSH1 0x1 PUSH1 0x1 PUSH1 0xA0 SHL SUB AND CALLER PUSH1 0x1 PUSH1 0x1 PUSH1 0xA0 SHL SUB AND EQ JUMPDEST PUSH2 0x958 JUMPI PUSH1 0x0 DUP1 REVERT JUMPDEST PUSH1 0x40 MLOAD PUSH4 0x70A08231 PUSH1 0xE0 SHL DUP2 MSTORE PUSH1 0x1 PUSH1 0x1 PUSH1 0xA0 SHL SUB DUP6 AND SWAP1 PUSH4 0x70A08231 SWAP1 PUSH2 0x984 SWAP1 ADDRESS SWAP1 PUSH1 0x4 ADD PUSH2 0x1832 JUMP JUMPDEST PUSH1 0x20 PUSH1 0x40 MLOAD DUP1 DUP4 SUB DUP2 DUP7 GAS STATICCALL ISZERO DUP1 ISZERO PUSH2 0x9A1 JUMPI RETURNDATASIZE PUSH1 0x0 DUP1 RETURNDATACOPY RETURNDATASIZE PUSH1 0x0 REVERT JUMPDEST POP POP POP POP PUSH1 0x40 MLOAD RETURNDATASIZE PUSH1 0x1F NOT PUSH1 0x1F DUP3 ADD AND DUP3 ADD DUP1 PUSH1 0x40 MSTORE POP DUP2 ADD SWAP1 PUSH2 0x9C5 SWAP2 SWAP1 PUSH2 0x19E4 JUMP JUMPDEST DUP3 GT ISZERO PUSH2 0xA3C JUMPI PUSH1 0x40 MLOAD PUSH4 0x70A08231 PUSH1 0xE0 SHL DUP2 MSTORE PUSH1 0x1 PUSH1 0x1 PUSH1 0xA0 SHL SUB DUP6 AND SWAP1 PUSH4 0x70A08231 SWAP1 PUSH2 0x9F8 SWAP1 ADDRESS SWAP1 PUSH1 0x4 ADD PUSH2 0x1832 JUMP JUMPDEST PUSH1 0x20 PUSH1 0x40 MLOAD DUP1 DUP4 SUB DUP2 DUP7 GAS STATICCALL ISZERO DUP1 ISZERO PUSH2 0xA15 JUMPI RETURNDATASIZE PUSH1 0x0 DUP1 RETURNDATACOPY RETURNDATASIZE PUSH1 0x0 REVERT JUMPDEST POP POP POP POP PUSH1 0x40 MLOAD RETURNDATASIZE PUSH1 0x1F NOT PUSH1 0x1F DUP3 ADD AND DUP3 ADD DUP1 PUSH1 0x40 MSTORE POP DUP2 ADD SWAP1 PUSH2 0xA39 SWAP2 SWAP1 PUSH2 0x19E4 JUMP JUMPDEST SWAP2 POP JUMPDEST PUSH2 0x5FB PUSH1 0x1 PUSH1 0x1 PUSH1 0xA0 SHL SUB DUP6 AND DUP5 DUP5 PUSH2 0x131F JUMP JUMPDEST PUSH1 0x0 PUSH2 0x6A4 CALLER DUP5 DUP5 PUSH2 0xFF7 JUMP JUMPDEST PUSH1 0x4 DUP1 SLOAD PUSH2 0xA6A SWAP1 PUSH2 0x19AA JUMP JUMPDEST DUP1 PUSH1 0x1F ADD PUSH1 0x20 DUP1 SWAP2 DIV MUL PUSH1 0x20 ADD PUSH1 0x40 MLOAD SWAP1 DUP2 ADD PUSH1 0x40 MSTORE DUP1 SWAP3 SWAP2 SWAP1 DUP2 DUP2 MSTORE PUSH1 0x20 ADD DUP3 DUP1 SLOAD PUSH2 0xA96 SWAP1 PUSH2 0x19AA JUMP JUMPDEST DUP1 ISZERO PUSH2 0xAE3 JUMPI DUP1 PUSH1 0x1F LT PUSH2 0xAB8 JUMPI PUSH2 0x100 DUP1 DUP4 SLOAD DIV MUL DUP4 MSTORE SWAP2 PUSH1 0x20 ADD SWAP2 PUSH2 0xAE3 JUMP JUMPDEST DUP3 ADD SWAP2 SWAP1 PUSH1 0x0 MSTORE PUSH1 0x20 PUSH1 0x0 KECCAK256 SWAP1 JUMPDEST DUP2 SLOAD DUP2 MSTORE SWAP1 PUSH1 0x1 ADD SWAP1 PUSH1 0x20 ADD DUP1 DUP4 GT PUSH2 0xAC6 JUMPI DUP3 SWAP1 SUB PUSH1 0x1F AND DUP3 ADD SWAP2 JUMPDEST POP POP POP POP POP DUP2 JUMP JUMPDEST PUSH2 0xAF3 PUSH2 0x11D2 JUMP JUMPDEST PUSH2 0xAFD CALLER DUP3 PUSH2 0x122C JUMP JUMPDEST POP JUMP JUMPDEST PUSH1 0x3 DUP1 SLOAD PUSH2 0xA6A SWAP1 PUSH2 0x19AA JUMP JUMPDEST PUSH2 0xB15 PUSH2 0x11D2 JUMP JUMPDEST PUSH1 0x1 PUSH1 0x1 PUSH1 0xA0 SHL SUB DUP2 AND PUSH2 0xB7F JUMPI PUSH1 0x40 MLOAD PUSH3 0x461BCD PUSH1 0xE5 SHL DUP2 MSTORE PUSH1 0x20 PUSH1 0x4 DUP3 ADD MSTORE PUSH1 0x26 PUSH1 0x24 DUP3 ADD MSTORE PUSH32 0x4F776E61626C653A206E6577206F776E657220697320746865207A65726F2061 PUSH1 0x44 DUP3 ADD MSTORE PUSH6 0x646472657373 PUSH1 0xD0 SHL PUSH1 0x64 DUP3 ADD MSTORE PUSH1 0x84 ADD JUMPDEST PUSH1 0x40 MLOAD DUP1 SWAP2 SUB SWAP1 REVERT JUMPDEST PUSH2 0xAFD DUP2 PUSH2 0x12CD JUMP JUMPDEST PUSH1 0x9 SLOAD PUSH1 0x0 SWAP1 PUSH1 0x1 PUSH1 0x1 PUSH1 0xA0 SHL SUB DUP4 DUP2 AND SWAP2 AND EQ PUSH2 0xEDE JUMPI PUSH1 0x9 SLOAD PUSH1 0x1 PUSH1 0x1 PUSH1 0xA0 SHL SUB AND CALLER DUP2 SWAP1 SUB PUSH2 0xD21 JUMPI PUSH1 0x9 DUP1 SLOAD PUSH1 0x1 PUSH1 0x1 PUSH1 0xA0 SHL SUB DUP6 AND PUSH1 0x1 PUSH1 0x1 PUSH1 0xA0 SHL SUB NOT SWAP2 DUP3 AND DUP2 OR SWAP1 SWAP3 SSTORE PUSH1 0xA DUP1 SLOAD PUSH1 0x1 DUP2 ADD DUP3 SSTORE PUSH1 0x0 SWAP2 SWAP1 SWAP2 MSTORE PUSH32 0xC65A7BB8D6351C1CF70C95A316CC6A92839C986682D98BC35F958F4883F9D2A8 ADD DUP1 SLOAD SWAP1 SWAP2 AND SWAP1 SWAP2 OR SWAP1 SSTORE PUSH2 0xC1B TIMESTAMP PUSH2 0x258 PUSH2 0x1A54 JUMP JUMPDEST PUSH1 0xC SSTORE PUSH1 0x6 SLOAD PUSH1 0x40 DUP1 MLOAD PUSH4 0x18160DDD PUSH1 0xE0 SHL DUP2 MSTORE SWAP1 MLOAD PUSH2 0xC97 SWAP3 DUP7 SWAP3 PUSH1 0x1 PUSH1 0x1 PUSH1 0xA0 SHL SUB SWAP1 SWAP2 AND SWAP2 PUSH4 0x18160DDD SWAP2 PUSH1 0x4 DUP1 DUP3 ADD SWAP3 PUSH1 0x20 SWAP3 SWAP1 SWAP2 SWAP1 DUP3 SWAP1 SUB ADD DUP2 DUP7 GAS STATICCALL ISZERO DUP1 ISZERO PUSH2 0xC6E JUMPI RETURNDATASIZE PUSH1 0x0 DUP1 RETURNDATACOPY RETURNDATASIZE PUSH1 0x0 REVERT JUMPDEST POP POP POP POP PUSH1 0x40 MLOAD RETURNDATASIZE PUSH1 0x1F NOT PUSH1 0x1F DUP3 ADD AND DUP3 ADD DUP1 PUSH1 0x40 MSTORE POP DUP2 ADD SWAP1 PUSH2 0xC92 SWAP2 SWAP1 PUSH2 0x19E4 JUMP JUMPDEST PUSH2 0xF6D JUMP JUMPDEST PUSH2 0xCA0 DUP4 PUSH2 0xB0D JUMP JUMPDEST PUSH1 0x6 SLOAD PUSH1 0x40 MLOAD PUSH4 0x70A08231 PUSH1 0xE0 SHL DUP2 MSTORE PUSH2 0xD1C SWAP2 DUP4 SWAP2 PUSH1 0x1 PUSH1 0x1 PUSH1 0xA0 SHL SUB SWAP1 SWAP2 AND SWAP1 PUSH4 0x70A08231 SWAP1 PUSH2 0xCD6 SWAP1 DUP5 SWAP1 PUSH1 0x4 ADD PUSH2 0x1832 JUMP JUMPDEST PUSH1 0x20 PUSH1 0x40 MLOAD DUP1 DUP4 SUB DUP2 DUP7 GAS STATICCALL ISZERO DUP1 ISZERO PUSH2 0xCF3 JUMPI RETURNDATASIZE PUSH1 0x0 DUP1 RETURNDATACOPY RETURNDATASIZE PUSH1 0x0 REVERT JUMPDEST POP POP POP POP PUSH1 0x40 MLOAD RETURNDATASIZE PUSH1 0x1F NOT PUSH1 0x1F DUP3 ADD AND DUP3 ADD DUP1 PUSH1 0x40 MSTORE POP DUP2 ADD SWAP1 PUSH2 0xD17 SWAP2 SWAP1 PUSH2 0x19E4 JUMP JUMPDEST PUSH2 0x122C JUMP JUMPDEST PUSH2 0xE9C JUMP JUMPDEST PUSH2 0x2710 PUSH2 0x13EC PUSH1 0x6 PUSH1 0x0 SWAP1 SLOAD SWAP1 PUSH2 0x100 EXP SWAP1 DIV PUSH1 0x1 PUSH1 0x1 PUSH1 0xA0 SHL SUB AND PUSH1 0x1 PUSH1 0x1 PUSH1 0xA0 SHL SUB AND PUSH4 0x18160DDD PUSH1 0x40 MLOAD DUP2 PUSH4 0xFFFFFFFF AND PUSH1 0xE0 SHL DUP2 MSTORE PUSH1 0x4 ADD PUSH1 0x20 PUSH1 0x40 MLOAD DUP1 DUP4 SUB DUP2 DUP7 GAS STATICCALL ISZERO DUP1 ISZERO PUSH2 0xD7A JUMPI RETURNDATASIZE PUSH1 0x0 DUP1 RETURNDATACOPY RETURNDATASIZE PUSH1 0x0 REVERT JUMPDEST POP POP POP POP PUSH1 0x40 MLOAD RETURNDATASIZE PUSH1 0x1F NOT PUSH1 0x1F DUP3 ADD AND DUP3 ADD DUP1 PUSH1 0x40 MSTORE POP DUP2 ADD SWAP1 PUSH2 0xD9E SWAP2 SWAP1 PUSH2 0x19E4 JUMP JUMPDEST PUSH2 0xDA8 SWAP2 SWAP1 PUSH2 0x1A13 JUMP JUMPDEST PUSH2 0xDB2 SWAP2 SWAP1 PUSH2 0x1A32 JUMP JUMPDEST PUSH1 0x6 SLOAD PUSH1 0x40 MLOAD PUSH4 0x70A08231 PUSH1 0xE0 SHL DUP2 MSTORE PUSH1 0x1 PUSH1 0x1 PUSH1 0xA0 SHL SUB SWAP1 SWAP2 AND SWAP1 PUSH4 0x70A08231 SWAP1 PUSH2 0xDE2 SWAP1 DUP8 SWAP1 PUSH1 0x4 ADD PUSH2 0x1832 JUMP JUMPDEST PUSH1 0x20 PUSH1 0x40 MLOAD DUP1 DUP4 SUB DUP2 DUP7 GAS STATICCALL ISZERO DUP1 ISZERO PUSH2 0xDFF JUMPI RETURNDATASIZE PUSH1 0x0 DUP1 RETURNDATACOPY RETURNDATASIZE PUSH1 0x0 REVERT JUMPDEST POP POP POP POP PUSH1 0x40 MLOAD RETURNDATASIZE PUSH1 0x1F NOT PUSH1 0x1F DUP3 ADD AND DUP3 ADD DUP1 PUSH1 0x40 MSTORE POP DUP2 ADD SWAP1 PUSH2 0xE23 SWAP2 SWAP1 PUSH2 0x19E4 JUMP JUMPDEST LT PUSH2 0xE9C JUMPI PUSH1 0x9 DUP1 SLOAD PUSH1 0x1 PUSH1 0x1 PUSH1 0xA0 SHL SUB DUP6 AND PUSH1 0x1 PUSH1 0x1 PUSH1 0xA0 SHL SUB NOT SWAP2 DUP3 AND DUP2 OR SWAP1 SWAP3 SSTORE PUSH1 0xA DUP1 SLOAD PUSH1 0x1 DUP2 ADD DUP3 SSTORE PUSH1 0x0 SWAP2 SWAP1 SWAP2 MSTORE PUSH32 0xC65A7BB8D6351C1CF70C95A316CC6A92839C986682D98BC35F958F4883F9D2A8 ADD DUP1 SLOAD SWAP1 SWAP2 AND SWAP1 SWAP2 OR SWAP1 SSTORE PUSH2 0xE90 TIMESTAMP PUSH3 0x15180 PUSH2 0x1A54 JUMP JUMPDEST PUSH1 0xC SSTORE PUSH2 0xE9C DUP4 PUSH2 0xB0D JUMP JUMPDEST DUP3 PUSH1 0x1 PUSH1 0x1 PUSH1 0xA0 SHL SUB AND DUP2 PUSH1 0x1 PUSH1 0x1 PUSH1 0xA0 SHL SUB AND PUSH32 0x63DB4FD02ABE7291D8F941514C494426E598A36D386FAFA477735F923D30C83E PUSH1 0x40 MLOAD PUSH1 0x40 MLOAD DUP1 SWAP2 SUB SWAP1 LOG3 POP JUMPDEST POP PUSH1 0x1 SWAP2 SWAP1 POP JUMP JUMPDEST PUSH1 0x1 PUSH1 0x1 PUSH1 0xA0 SHL SUB DUP4 AND PUSH2 0xEF9 JUMPI PUSH1 0x0 DUP1 REVERT JUMPDEST PUSH1 0x1 PUSH1 0x1 PUSH1 0xA0 SHL SUB DUP3 AND PUSH2 0xF0C JUMPI PUSH1 0x0 DUP1 REVERT JUMPDEST PUSH1 0x1 PUSH1 0x1 PUSH1 0xA0 SHL SUB DUP4 DUP2 AND PUSH1 0x0 DUP2 DUP2 MSTORE PUSH1 0x1 PUSH1 0x20 SWAP1 DUP2 MSTORE PUSH1 0x40 DUP1 DUP4 KECCAK256 SWAP5 DUP8 AND DUP1 DUP5 MSTORE SWAP5 DUP3 MSTORE SWAP2 DUP3 SWAP1 KECCAK256 DUP6 SWAP1 SSTORE SWAP1 MLOAD DUP5 DUP2 MSTORE PUSH32 0x8C5BE1E5EBEC7D5BD14F71427D1E84F3DD0314C0F7B2291E5B200AC8C7C3B925 SWAP2 ADD PUSH1 0x40 MLOAD DUP1 SWAP2 SUB SWAP1 LOG3 POP POP POP JUMP JUMPDEST PUSH1 0x1 PUSH1 0x1 PUSH1 0xA0 SHL SUB DUP3 AND PUSH2 0xF80 JUMPI PUSH1 0x0 DUP1 REVERT JUMPDEST DUP1 PUSH1 0x2 PUSH1 0x0 DUP3 DUP3 SLOAD PUSH2 0xF92 SWAP2 SWAP1 PUSH2 0x1A54 JUMP JUMPDEST SWAP1 SWAP2 SSTORE POP POP PUSH1 0x1 PUSH1 0x1 PUSH1 0xA0 SHL SUB DUP3 AND PUSH1 0x0 SWAP1 DUP2 MSTORE PUSH1 0x20 DUP2 SWAP1 MSTORE PUSH1 0x40 DUP2 KECCAK256 DUP1 SLOAD DUP4 SWAP3 SWAP1 PUSH2 0xFBF SWAP1 DUP5 SWAP1 PUSH2 0x1A54 JUMP JUMPDEST SWAP1 SWAP2 SSTORE POP POP PUSH1 0x40 MLOAD DUP2 DUP2 MSTORE PUSH1 0x1 PUSH1 0x1 PUSH1 0xA0 SHL SUB DUP4 AND SWAP1 PUSH1 0x0 SWAP1 PUSH1 0x0 DUP1 MLOAD PUSH1 0x20 PUSH2 0x1AF1 DUP4 CODECOPY DUP2 MLOAD SWAP2 MSTORE SWAP1 PUSH1 0x20 ADD PUSH1 0x40 MLOAD DUP1 SWAP2 SUB SWAP1 LOG3 POP POP JUMP JUMPDEST PUSH1 0x0 JUMPDEST PUSH1 0xA SLOAD DUP2 LT ISZERO PUSH2 0x11C6 JUMPI PUSH2 0x2710 PUSH2 0x13EC PUSH1 0x6 PUSH1 0x0 SWAP1 SLOAD SWAP1 PUSH2 0x100 EXP SWAP1 DIV PUSH1 0x1 PUSH1 0x1 PUSH1 0xA0 SHL SUB AND PUSH1 0x1 PUSH1 0x1 PUSH1 0xA0 SHL SUB AND PUSH4 0x18160DDD PUSH1 0x40 MLOAD DUP2 PUSH4 0xFFFFFFFF AND PUSH1 0xE0 SHL DUP2 MSTORE PUSH1 0x4 ADD PUSH1 0x20 PUSH1 0x40 MLOAD DUP1 DUP4 SUB DUP2 DUP7 GAS STATICCALL ISZERO DUP1 ISZERO PUSH2 0x105D JUMPI RETURNDATASIZE PUSH1 0x0 DUP1 RETURNDATACOPY RETURNDATASIZE PUSH1 0x0 REVERT JUMPDEST POP POP POP POP PUSH1 0x40 MLOAD RETURNDATASIZE PUSH1 0x1F NOT PUSH1 0x1F DUP3 ADD AND DUP3 ADD DUP1 PUSH1 0x40 MSTORE POP DUP2 ADD SWAP1 PUSH2 0x1081 SWAP2 SWAP1 PUSH2 0x19E4 JUMP JUMPDEST PUSH2 0x108B SWAP2 SWAP1 PUSH2 0x1A13 JUMP JUMPDEST PUSH2 0x1095 SWAP2 SWAP1 PUSH2 0x1A32 JUMP JUMPDEST PUSH1 0x6 SLOAD PUSH1 0xA DUP1 SLOAD PUSH1 0x1 PUSH1 0x1 PUSH1 0xA0 SHL SUB SWAP1 SWAP3 AND SWAP2 PUSH4 0x70A08231 SWAP2 SWAP1 DUP6 SWAP1 DUP2 LT PUSH2 0x10BF JUMPI PUSH2 0x10BF PUSH2 0x1A6C JUMP JUMPDEST PUSH1 0x0 SWAP2 DUP3 MSTORE PUSH1 0x20 SWAP1 SWAP2 KECCAK256 ADD SLOAD PUSH1 0x40 MLOAD PUSH1 0x1 PUSH1 0x1 PUSH1 0xE0 SHL SUB NOT PUSH1 0xE0 DUP5 SWAP1 SHL AND DUP2 MSTORE PUSH2 0x10F5 SWAP2 PUSH1 0x1 PUSH1 0x1 PUSH1 0xA0 SHL SUB AND SWAP1 PUSH1 0x4 ADD PUSH2 0x1832 JUMP JUMPDEST PUSH1 0x20 PUSH1 0x40 MLOAD DUP1 DUP4 SUB DUP2 DUP7 GAS STATICCALL ISZERO DUP1 ISZERO PUSH2 0x1112 JUMPI RETURNDATASIZE PUSH1 0x0 DUP1 RETURNDATACOPY RETURNDATASIZE PUSH1 0x0 REVERT JUMPDEST POP POP POP POP PUSH1 0x40 MLOAD RETURNDATASIZE PUSH1 0x1F NOT PUSH1 0x1F DUP3 ADD AND DUP3 ADD DUP1 PUSH1 0x40 MSTORE POP DUP2 ADD SWAP1 PUSH2 0x1136 SWAP2 SWAP1 PUSH2 0x19E4 JUMP JUMPDEST LT PUSH2 0x11B4 JUMPI PUSH1 0x9 SLOAD PUSH1 0xA DUP1 SLOAD PUSH1 0x1 PUSH1 0x1 PUSH1 0xA0 SHL SUB SWAP1 SWAP3 AND SWAP2 DUP4 SWAP1 DUP2 LT PUSH2 0x115E JUMPI PUSH2 0x115E PUSH2 0x1A6C JUMP JUMPDEST PUSH1 0x0 SWAP2 DUP3 MSTORE PUSH1 0x20 SWAP1 SWAP2 KECCAK256 ADD SLOAD PUSH1 0x1 PUSH1 0x1 PUSH1 0xA0 SHL SUB AND EQ PUSH2 0x11B4 JUMPI PUSH1 0xC SLOAD TIMESTAMP GT ISZERO PUSH2 0x11B4 JUMPI PUSH2 0x11B2 PUSH1 0xA DUP3 DUP2 SLOAD DUP2 LT PUSH2 0x1198 JUMPI PUSH2 0x1198 PUSH2 0x1A6C JUMP JUMPDEST PUSH1 0x0 SWAP2 DUP3 MSTORE PUSH1 0x20 SWAP1 SWAP2 KECCAK256 ADD SLOAD PUSH1 0x1 PUSH1 0x1 PUSH1 0xA0 SHL SUB AND PUSH2 0xB88 JUMP JUMPDEST POP JUMPDEST DUP1 PUSH2 0x11BE DUP2 PUSH2 0x1A82 JUMP JUMPDEST SWAP2 POP POP PUSH2 0xFFA JUMP JUMPDEST POP PUSH2 0x7A6 DUP4 DUP4 DUP4 PUSH2 0x1371 JUMP JUMPDEST PUSH1 0x5 SLOAD PUSH1 0x1 PUSH1 0x1 PUSH1 0xA0 SHL SUB AND CALLER EQ PUSH2 0x88F JUMPI PUSH1 0x40 MLOAD PUSH3 0x461BCD PUSH1 0xE5 SHL DUP2 MSTORE PUSH1 0x20 PUSH1 0x4 DUP3 ADD DUP2 SWAP1 MSTORE PUSH1 0x24 DUP3 ADD MSTORE PUSH32 0x4F776E61626C653A2063616C6C6572206973206E6F7420746865206F776E6572 PUSH1 0x44 DUP3 ADD MSTORE PUSH1 0x64 ADD PUSH2 0xB76 JUMP JUMPDEST PUSH1 0x1 PUSH1 0x1 PUSH1 0xA0 SHL SUB DUP3 AND PUSH2 0x123F JUMPI PUSH1 0x0 DUP1 REVERT JUMPDEST PUSH1 0x1 PUSH1 0x1 PUSH1 0xA0 SHL SUB DUP3 AND PUSH1 0x0 SWAP1 DUP2 MSTORE PUSH1 0x20 DUP2 SWAP1 MSTORE PUSH1 0x40 SWAP1 KECCAK256 SLOAD DUP2 DUP2 LT ISZERO PUSH2 0x1265 JUMPI PUSH1 0x0 DUP1 REVERT JUMPDEST PUSH1 0x1 PUSH1 0x1 PUSH1 0xA0 SHL SUB DUP4 AND PUSH1 0x0 SWAP1 DUP2 MSTORE PUSH1 0x20 DUP2 SWAP1 MSTORE PUSH1 0x40 DUP2 KECCAK256 DUP4 DUP4 SUB SWAP1 SSTORE PUSH1 0x2 DUP1 SLOAD DUP5 SWAP3 SWAP1 PUSH2 0x1294 SWAP1 DUP5 SWAP1 PUSH2 0x1A9B JUMP JUMPDEST SWAP1 SWAP2 SSTORE POP POP PUSH1 0x40 MLOAD DUP3 DUP2 MSTORE PUSH1 0x0 SWAP1 PUSH1 0x1 PUSH1 0x1 PUSH1 0xA0 SHL SUB DUP6 AND SWAP1 PUSH1 0x0 DUP1 MLOAD PUSH1 0x20 PUSH2 0x1AF1 DUP4 CODECOPY DUP2 MLOAD SWAP2 MSTORE SWAP1 PUSH1 0x20 ADD PUSH1 0x40 MLOAD DUP1 SWAP2 SUB SWAP1 LOG3 POP POP POP JUMP JUMPDEST PUSH1 0x5 DUP1 SLOAD PUSH1 0x1 PUSH1 0x1 PUSH1 0xA0 SHL SUB DUP4 DUP2 AND PUSH1 0x1 PUSH1 0x1 PUSH1 0xA0 SHL SUB NOT DUP4 AND DUP2 OR SWAP1 SWAP4 SSTORE PUSH1 0x40 MLOAD SWAP2 AND SWAP2 SWAP1 DUP3 SWAP1 PUSH32 0x8BE0079C531659141344CD1FD0A4F28419497F9722A3DAAFE3B4186F6B6457E0 SWAP1 PUSH1 0x0 SWAP1 LOG3 POP POP JUMP JUMPDEST PUSH1 0x40 DUP1 MLOAD PUSH1 0x1 PUSH1 0x1 PUSH1 0xA0 SHL SUB DUP5 AND PUSH1 0x24 DUP3 ADD MSTORE PUSH1 0x44 DUP1 DUP3 ADD DUP5 SWAP1 MSTORE DUP3 MLOAD DUP1 DUP4 SUB SWAP1 SWAP2 ADD DUP2 MSTORE PUSH1 0x64 SWAP1 SWAP2 ADD SWAP1 SWAP2 MSTORE PUSH1 0x20 DUP2 ADD DUP1 MLOAD PUSH1 0x1 PUSH1 0x1 PUSH1 0xE0 SHL SUB AND PUSH4 0xA9059CBB PUSH1 0xE0 SHL OR SWAP1 MSTORE PUSH2 0x7A6 SWAP1 DUP5 SWAP1 PUSH2 0x143D JUMP JUMPDEST PUSH1 0x1 PUSH1 0x1 PUSH1 0xA0 SHL SUB DUP4 AND PUSH2 0x1384 JUMPI PUSH1 0x0 DUP1 REVERT JUMPDEST PUSH1 0x1 PUSH1 0x1 PUSH1 0xA0 SHL SUB DUP3 AND PUSH2 0x1397 JUMPI PUSH1 0x0 DUP1 REVERT JUMPDEST PUSH1 0x1 PUSH1 0x1 PUSH1 0xA0 SHL SUB DUP4 AND PUSH1 0x0 SWAP1 DUP2 MSTORE PUSH1 0x20 DUP2 SWAP1 MSTORE PUSH1 0x40 SWAP1 KECCAK256 SLOAD DUP2 DUP2 LT ISZERO PUSH2 0x13BD JUMPI PUSH1 0x0 DUP1 REVERT JUMPDEST PUSH1 0x1 PUSH1 0x1 PUSH1 0xA0 SHL SUB DUP1 DUP6 AND PUSH1 0x0 SWAP1 DUP2 MSTORE PUSH1 0x20 DUP2 SWAP1 MSTORE PUSH1 0x40 DUP1 DUP3 KECCAK256 DUP6 DUP6 SUB SWAP1 SSTORE SWAP2 DUP6 AND DUP2 MSTORE SWAP1 DUP2 KECCAK256 DUP1 SLOAD DUP5 SWAP3 SWAP1 PUSH2 0x13F4 SWAP1 DUP5 SWAP1 PUSH2 0x1A54 JUMP JUMPDEST SWAP3 POP POP DUP2 SWAP1 SSTORE POP DUP3 PUSH1 0x1 PUSH1 0x1 PUSH1 0xA0 SHL SUB AND DUP5 PUSH1 0x1 PUSH1 0x1 PUSH1 0xA0 SHL SUB AND PUSH1 0x0 DUP1 MLOAD PUSH1 0x20 PUSH2 0x1AF1 DUP4 CODECOPY DUP2 MLOAD SWAP2 MSTORE DUP5 PUSH1 0x40 MLOAD PUSH2 0x142E SWAP2 DUP2 MSTORE PUSH1 0x20 ADD SWAP1 JUMP JUMPDEST PUSH1 0x40 MLOAD DUP1 SWAP2 SUB SWAP1 LOG3 JUMPDEST POP POP POP POP JUMP JUMPDEST PUSH1 0x0 PUSH2 0x1492 DUP3 PUSH1 0x40 MLOAD DUP1 PUSH1 0x40 ADD PUSH1 0x40 MSTORE DUP1 PUSH1 0x20 DUP2 MSTORE PUSH1 0x20 ADD PUSH32 0x5361666545524332303A206C6F772D6C6576656C2063616C6C206661696C6564 DUP2 MSTORE POP DUP6 PUSH1 0x1 PUSH1 0x1 PUSH1 0xA0 SHL SUB AND PUSH2 0x150F SWAP1 SWAP3 SWAP2 SWAP1 PUSH4 0xFFFFFFFF AND JUMP JUMPDEST DUP1 MLOAD SWAP1 SWAP2 POP ISZERO PUSH2 0x7A6 JUMPI DUP1 DUP1 PUSH1 0x20 ADD SWAP1 MLOAD DUP2 ADD SWAP1 PUSH2 0x14B0 SWAP2 SWAP1 PUSH2 0x1AB2 JUMP JUMPDEST PUSH2 0x7A6 JUMPI PUSH1 0x40 MLOAD PUSH3 0x461BCD PUSH1 0xE5 SHL DUP2 MSTORE PUSH1 0x20 PUSH1 0x4 DUP3 ADD MSTORE PUSH1 0x2A PUSH1 0x24 DUP3 ADD MSTORE PUSH32 0x5361666545524332303A204552433230206F7065726174696F6E20646964206E PUSH1 0x44 DUP3 ADD MSTORE PUSH10 0x1BDD081CDD58D8D95959 PUSH1 0xB2 SHL PUSH1 0x64 DUP3 ADD MSTORE PUSH1 0x84 ADD PUSH2 0xB76 JUMP JUMPDEST PUSH1 0x60 PUSH2 0x151E DUP5 DUP5 PUSH1 0x0 DUP6 PUSH2 0x1526 JUMP JUMPDEST SWAP5 SWAP4 POP POP POP POP JUMP JUMPDEST PUSH1 0x60 DUP3 SELFBALANCE LT ISZERO PUSH2 0x1587 JUMPI PUSH1 0x40 MLOAD PUSH3 0x461BCD PUSH1 0xE5 SHL DUP2 MSTORE PUSH1 0x20 PUSH1 0x4 DUP3 ADD MSTORE PUSH1 0x26 PUSH1 0x24 DUP3 ADD MSTORE PUSH32 0x416464726573733A20696E73756666696369656E742062616C616E636520666F PUSH1 0x44 DUP3 ADD MSTORE PUSH6 0x1C8818D85B1B PUSH1 0xD2 SHL PUSH1 0x64 DUP3 ADD MSTORE PUSH1 0x84 ADD PUSH2 0xB76 JUMP JUMPDEST PUSH1 0x0 DUP1 DUP7 PUSH1 0x1 PUSH1 0x1 PUSH1 0xA0 SHL SUB AND DUP6 DUP8 PUSH1 0x40 MLOAD PUSH2 0x15A3 SWAP2 SWAP1 PUSH2 0x1AD4 JUMP JUMPDEST PUSH1 0x0 PUSH1 0x40 MLOAD DUP1 DUP4 SUB DUP2 DUP6 DUP8 GAS CALL SWAP3 POP POP POP RETURNDATASIZE DUP1 PUSH1 0x0 DUP2 EQ PUSH2 0x15E0 JUMPI PUSH1 0x40 MLOAD SWAP2 POP PUSH1 0x1F NOT PUSH1 0x3F RETURNDATASIZE ADD AND DUP3 ADD PUSH1 0x40 MSTORE RETURNDATASIZE DUP3 MSTORE RETURNDATASIZE PUSH1 0x0 PUSH1 0x20 DUP5 ADD RETURNDATACOPY PUSH2 0x15E5 JUMP JUMPDEST PUSH1 0x60 SWAP2 POP JUMPDEST POP SWAP2 POP SWAP2 POP PUSH2 0x15F6 DUP8 DUP4 DUP4 DUP8 PUSH2 0x1601 JUMP JUMPDEST SWAP8 SWAP7 POP POP POP POP POP POP POP JUMP JUMPDEST PUSH1 0x60 DUP4 ISZERO PUSH2 0x1670 JUMPI DUP3 MLOAD PUSH1 0x0 SUB PUSH2 0x1669 JUMPI PUSH1 0x1 PUSH1 0x1 PUSH1 0xA0 SHL SUB DUP6 AND EXTCODESIZE PUSH2 0x1669 JUMPI PUSH1 0x40 MLOAD PUSH3 0x461BCD PUSH1 0xE5 SHL DUP2 MSTORE PUSH1 0x20 PUSH1 0x4 DUP3 ADD MSTORE PUSH1 0x1D PUSH1 0x24 DUP3 ADD MSTORE PUSH32 0x416464726573733A2063616C6C20746F206E6F6E2D636F6E7472616374000000 PUSH1 0x44 DUP3 ADD MSTORE PUSH1 0x64 ADD PUSH2 0xB76 JUMP JUMPDEST POP DUP2 PUSH2 0x151E JUMP JUMPDEST PUSH2 0x151E DUP4 DUP4 DUP2 MLOAD ISZERO PUSH2 0x1685 JUMPI DUP2 MLOAD DUP1 DUP4 PUSH1 0x20 ADD REVERT JUMPDEST DUP1 PUSH1 0x40 MLOAD PUSH3 0x461BCD PUSH1 0xE5 SHL DUP2 MSTORE PUSH1 0x4 ADD PUSH2 0xB76 SWAP2 SWAP1 PUSH2 0x17A5 JUMP JUMPDEST DUP3 DUP1 SLOAD PUSH2 0x16AB SWAP1 PUSH2 0x19AA JUMP JUMPDEST SWAP1 PUSH1 0x0 MSTORE PUSH1 0x20 PUSH1 0x0 KECCAK256 SWAP1 PUSH1 0x1F ADD PUSH1 0x20 SWAP1 DIV DUP2 ADD SWAP3 DUP3 PUSH2 0x16CD JUMPI PUSH1 0x0 DUP6 SSTORE PUSH2 0x1713 JUMP JUMPDEST DUP3 PUSH1 0x1F LT PUSH2 0x16E6 JUMPI DUP1 MLOAD PUSH1 0xFF NOT AND DUP4 DUP1 ADD OR DUP6 SSTORE PUSH2 0x1713 JUMP JUMPDEST DUP3 DUP1 ADD PUSH1 0x1 ADD DUP6 SSTORE DUP3 ISZERO PUSH2 0x1713 JUMPI SWAP2 DUP3 ADD JUMPDEST DUP3 DUP2 GT ISZERO PUSH2 0x1713 JUMPI DUP3 MLOAD DUP3 SSTORE SWAP2 PUSH1 0x20 ADD SWAP2 SWAP1 PUSH1 0x1 ADD SWAP1 PUSH2 0x16F8 JUMP JUMPDEST POP PUSH2 0x171F SWAP3 SWAP2 POP PUSH2 0x1723 JUMP JUMPDEST POP SWAP1 JUMP JUMPDEST JUMPDEST DUP1 DUP3 GT ISZERO PUSH2 0x171F JUMPI PUSH1 0x0 DUP2 SSTORE PUSH1 0x1 ADD PUSH2 0x1724 JUMP JUMPDEST PUSH1 0x1 PUSH1 0x1 PUSH1 0xA0 SHL SUB DUP2 AND DUP2 EQ PUSH2 0xAFD JUMPI PUSH1 0x0 DUP1 REVERT JUMPDEST PUSH1 0x0 DUP1 PUSH1 0x40 DUP4 DUP6 SUB SLT ISZERO PUSH2 0x1760 JUMPI PUSH1 0x0 DUP1 REVERT JUMPDEST DUP3 CALLDATALOAD PUSH2 0x176B DUP2 PUSH2 0x1738 JUMP JUMPDEST SWAP5 PUSH1 0x20 SWAP4 SWAP1 SWAP4 ADD CALLDATALOAD SWAP4 POP POP POP JUMP JUMPDEST PUSH1 0x0 JUMPDEST DUP4 DUP2 LT ISZERO PUSH2 0x1794 JUMPI DUP2 DUP2 ADD MLOAD DUP4 DUP3 ADD MSTORE PUSH1 0x20 ADD PUSH2 0x177C JUMP JUMPDEST DUP4 DUP2 GT ISZERO PUSH2 0x1437 JUMPI POP POP PUSH1 0x0 SWAP2 ADD MSTORE JUMP JUMPDEST PUSH1 0x20 DUP2 MSTORE PUSH1 0x0 DUP3 MLOAD DUP1 PUSH1 0x20 DUP5 ADD MSTORE PUSH2 0x17C4 DUP2 PUSH1 0x40 DUP6 ADD PUSH1 0x20 DUP8 ADD PUSH2 0x1779 JUMP JUMPDEST PUSH1 0x1F ADD PUSH1 0x1F NOT AND SWAP2 SWAP1 SWAP2 ADD PUSH1 0x40 ADD SWAP3 SWAP2 POP POP JUMP JUMPDEST PUSH1 0x0 DUP1 PUSH1 0x0 PUSH1 0x60 DUP5 DUP7 SUB SLT ISZERO PUSH2 0x17ED JUMPI PUSH1 0x0 DUP1 REVERT JUMPDEST DUP4 CALLDATALOAD PUSH2 0x17F8 DUP2 PUSH2 0x1738 JUMP JUMPDEST SWAP3 POP PUSH1 0x20 DUP5 ADD CALLDATALOAD PUSH2 0x1808 DUP2 PUSH2 0x1738 JUMP JUMPDEST SWAP3 SWAP6 SWAP3 SWAP5 POP POP POP PUSH1 0x40 SWAP2 SWAP1 SWAP2 ADD CALLDATALOAD SWAP1 JUMP JUMPDEST PUSH1 0x0 PUSH1 0x20 DUP3 DUP5 SUB SLT ISZERO PUSH2 0x182B JUMPI PUSH1 0x0 DUP1 REVERT JUMPDEST POP CALLDATALOAD SWAP2 SWAP1 POP JUMP JUMPDEST PUSH1 0x1 PUSH1 0x1 PUSH1 0xA0 SHL SUB SWAP2 SWAP1 SWAP2 AND DUP2 MSTORE PUSH1 0x20 ADD SWAP1 JUMP JUMPDEST PUSH1 0x0 PUSH1 0x20 DUP3 DUP5 SUB SLT ISZERO PUSH2 0x1858 JUMPI PUSH1 0x0 DUP1 REVERT JUMPDEST DUP2 CALLDATALOAD PUSH2 0x1863 DUP2 PUSH2 0x1738 JUMP JUMPDEST SWAP4 SWAP3 POP POP POP JUMP JUMPDEST PUSH4 0x4E487B71 PUSH1 0xE0 SHL PUSH1 0x0 MSTORE PUSH1 0x41 PUSH1 0x4 MSTORE PUSH1 0x24 PUSH1 0x0 REVERT JUMPDEST PUSH1 0x0 DUP3 PUSH1 0x1F DUP4 ADD SLT PUSH2 0x1891 JUMPI PUSH1 0x0 DUP1 REVERT JUMPDEST DUP2 CALLDATALOAD PUSH8 0xFFFFFFFFFFFFFFFF DUP1 DUP3 GT ISZERO PUSH2 0x18AC JUMPI PUSH2 0x18AC PUSH2 0x186A JUMP JUMPDEST PUSH1 0x40 MLOAD PUSH1 0x1F DUP4 ADD PUSH1 0x1F NOT SWAP1 DUP2 AND PUSH1 0x3F ADD AND DUP2 ADD SWAP1 DUP3 DUP3 GT DUP2 DUP4 LT OR ISZERO PUSH2 0x18D4 JUMPI PUSH2 0x18D4 PUSH2 0x186A JUMP JUMPDEST DUP2 PUSH1 0x40 MSTORE DUP4 DUP2 MSTORE DUP7 PUSH1 0x20 DUP6 DUP9 ADD ADD GT ISZERO PUSH2 0x18ED JUMPI PUSH1 0x0 DUP1 REVERT JUMPDEST DUP4 PUSH1 0x20 DUP8 ADD PUSH1 0x20 DUP4 ADD CALLDATACOPY PUSH1 0x0 PUSH1 0x20 DUP6 DUP4 ADD ADD MSTORE DUP1 SWAP5 POP POP POP POP POP SWAP3 SWAP2 POP POP JUMP JUMPDEST PUSH1 0x0 DUP1 PUSH1 0x40 DUP4 DUP6 SUB SLT ISZERO PUSH2 0x1920 JUMPI PUSH1 0x0 DUP1 REVERT JUMPDEST DUP3 CALLDATALOAD PUSH8 0xFFFFFFFFFFFFFFFF DUP1 DUP3 GT ISZERO PUSH2 0x1938 JUMPI PUSH1 0x0 DUP1 REVERT JUMPDEST PUSH2 0x1944 DUP7 DUP4 DUP8 ADD PUSH2 0x1880 JUMP JUMPDEST SWAP4 POP PUSH1 0x20 DUP6 ADD CALLDATALOAD SWAP2 POP DUP1 DUP3 GT ISZERO PUSH2 0x195A JUMPI PUSH1 0x0 DUP1 REVERT JUMPDEST POP PUSH2 0x1967 DUP6 DUP3 DUP7 ADD PUSH2 0x1880 JUMP JUMPDEST SWAP2 POP POP SWAP3 POP SWAP3 SWAP1 POP JUMP JUMPDEST PUSH1 0x0 DUP1 PUSH1 0x40 DUP4 DUP6 SUB SLT ISZERO PUSH2 0x1984 JUMPI PUSH1 0x0 DUP1 REVERT JUMPDEST DUP3 CALLDATALOAD PUSH2 0x198F DUP2 PUSH2 0x1738 JUMP JUMPDEST SWAP2 POP PUSH1 0x20 DUP4 ADD CALLDATALOAD PUSH2 0x199F DUP2 PUSH2 0x1738 JUMP JUMPDEST DUP1 SWAP2 POP POP SWAP3 POP SWAP3 SWAP1 POP JUMP JUMPDEST PUSH1 0x1 DUP2 DUP2 SHR SWAP1 DUP3 AND DUP1 PUSH2 0x19BE JUMPI PUSH1 0x7F DUP3 AND SWAP2 POP JUMPDEST PUSH1 0x20 DUP3 LT DUP2 SUB PUSH2 0x19DE JUMPI PUSH4 0x4E487B71 PUSH1 0xE0 SHL PUSH1 0x0 MSTORE PUSH1 0x22 PUSH1 0x4 MSTORE PUSH1 0x24 PUSH1 0x0 REVERT JUMPDEST POP SWAP2 SWAP1 POP JUMP JUMPDEST PUSH1 0x0 PUSH1 0x20 DUP3 DUP5 SUB SLT ISZERO PUSH2 0x19F6 JUMPI PUSH1 0x0 DUP1 REVERT JUMPDEST POP MLOAD SWAP2 SWAP1 POP JUMP JUMPDEST PUSH4 0x4E487B71 PUSH1 0xE0 SHL PUSH1 0x0 MSTORE PUSH1 0x11 PUSH1 0x4 MSTORE PUSH1 0x24 PUSH1 0x0 REVERT JUMPDEST PUSH1 0x0 DUP2 PUSH1 0x0 NOT DIV DUP4 GT DUP3 ISZERO ISZERO AND ISZERO PUSH2 0x1A2D JUMPI PUSH2 0x1A2D PUSH2 0x19FD JUMP JUMPDEST POP MUL SWAP1 JUMP JUMPDEST PUSH1 0x0 DUP3 PUSH2 0x1A4F JUMPI PUSH4 0x4E487B71 PUSH1 0xE0 SHL PUSH1 0x0 MSTORE PUSH1 0x12 PUSH1 0x4 MSTORE PUSH1 0x24 PUSH1 0x0 REVERT JUMPDEST POP DIV SWAP1 JUMP JUMPDEST PUSH1 0x0 DUP3 NOT DUP3 GT ISZERO PUSH2 0x1A67 JUMPI PUSH2 0x1A67 PUSH2 0x19FD JUMP JUMPDEST POP ADD SWAP1 JUMP JUMPDEST PUSH4 0x4E487B71 PUSH1 0xE0 SHL PUSH1 0x0 MSTORE PUSH1 0x32 PUSH1 0x4 MSTORE PUSH1 0x24 PUSH1 0x0 REVERT JUMPDEST PUSH1 0x0 PUSH1 0x1 DUP3 ADD PUSH2 0x1A94 JUMPI PUSH2 0x1A94 PUSH2 0x19FD JUMP JUMPDEST POP PUSH1 0x1 ADD SWAP1 JUMP JUMPDEST PUSH1 0x0 DUP3 DUP3 LT ISZERO PUSH2 0x1AAD JUMPI PUSH2 0x1AAD PUSH2 0x19FD JUMP JUMPDEST POP SUB SWAP1 JUMP JUMPDEST PUSH1 0x0 PUSH1 0x20 DUP3 DUP5 SUB SLT ISZERO PUSH2 0x1AC4 JUMPI PUSH1 0x0 DUP1 REVERT JUMPDEST DUP2 MLOAD DUP1 ISZERO ISZERO DUP2 EQ PUSH2 0x1863 JUMPI PUSH1 0x0 DUP1 REVERT JUMPDEST PUSH1 0x0 DUP3 MLOAD PUSH2 0x1AE6 DUP2 DUP5 PUSH1 0x20 DUP8 ADD PUSH2 0x1779 JUMP JUMPDEST SWAP2 SWAP1 SWAP2 ADD SWAP3 SWAP2 POP POP JUMP INVALID 0xDD CALLCODE MSTORE 0xAD SHL 0xE2 0xC8 SWAP12 PUSH10 0xC2B068FC378DAA952BA7 CALL PUSH4 0xC4A11628 CREATE2 GAS 0x4D CREATE2 0x23 0xB3 0xEF LOG2 PUSH5 0x6970667358 0x22 SLT KECCAK256 0xEC PUSH21 0xB497EBFCCCCC36AED5B863A3B4309A3F26F187F6C6 0xE3 0x2D ADDRESS LOG1 PUSH23 0x1BAB17164736F6C634300080D00338BE0079C53165914 SGT DIFFICULTY 0xCD 0x1F 0xD0 LOG4 CALLCODE DUP5 NOT 0x49 PUSH32 0x9722A3DAAFE3B4186F6B6457E0A264697066735822122060EBA534BEED153572 PUSH28 0x51B9DEA114A783DEB03A88591E1285C553C67440B8D564736F6C6343 STOP ADDMOD 0xD STOP CALLER PUSH1 0x80 PUSH1 0x40 DUP2 SWAP1 MSTORE PUSH1 0x6 DUP1 SLOAD PUSH1 0x1 PUSH1 0x1 PUSH1 0xA0 SHL SUB NOT AND ADDRESS OR SWAP1 SSTORE PUSH3 0x201E CODESIZE DUP2 SWAP1 SUB SWAP1 DUP2 SWAP1 DUP4 CODECOPY DUP2 ADD PUSH1 0x40 DUP2 SWAP1 MSTORE PUSH3 0x37 SWAP2 PUSH3 0x2F6 JUMP JUMPDEST DUP1 PUSH1 0x40 MLOAD PUSH1 0x20 ADD PUSH3 0x4A SWAP2 SWAP1 PUSH3 0x3D6 JUMP JUMPDEST PUSH1 0x40 MLOAD PUSH1 0x20 DUP2 DUP4 SUB SUB DUP2 MSTORE SWAP1 PUSH1 0x40 MSTORE DUP2 PUSH1 0x40 MLOAD PUSH1 0x20 ADD PUSH3 0x6C SWAP2 SWAP1 PUSH3 0x413 JUMP JUMPDEST PUSH1 0x40 MLOAD PUSH1 0x20 DUP2 DUP4 SUB SUB DUP2 MSTORE SWAP1 PUSH1 0x40 MSTORE DUP4 DUP3 DUP3 DUP2 PUSH1 0x3 SWAP1 DUP1 MLOAD SWAP1 PUSH1 0x20 ADD SWAP1 PUSH3 0x96 SWAP3 SWAP2 SWAP1 PUSH3 0x1EA JUMP JUMPDEST POP DUP1 MLOAD PUSH3 0xAC SWAP1 PUSH1 0x4 SWAP1 PUSH1 0x20 DUP5 ADD SWAP1 PUSH3 0x1EA JUMP JUMPDEST POP POP POP PUSH3 0xC9 PUSH3 0xC3 PUSH3 0x1A5 PUSH1 0x20 SHL PUSH1 0x20 SHR JUMP JUMPDEST PUSH3 0x1A9 JUMP JUMPDEST DUP3 MLOAD PUSH3 0xDE SWAP1 PUSH1 0x3 SWAP1 PUSH1 0x20 DUP7 ADD SWAP1 PUSH3 0x1EA JUMP JUMPDEST POP DUP2 MLOAD PUSH3 0xF4 SWAP1 PUSH1 0x4 SWAP1 PUSH1 0x20 DUP6 ADD SWAP1 PUSH3 0x1EA JUMP JUMPDEST POP PUSH1 0x40 MLOAD PUSH1 0x1 PUSH1 0x1 PUSH1 0xA0 SHL SUB DUP3 AND SWAP1 PUSH1 0x0 SWAP1 PUSH1 0x0 DUP1 MLOAD PUSH1 0x20 PUSH3 0x1FFE DUP4 CODECOPY DUP2 MLOAD SWAP2 MSTORE SWAP1 DUP3 SWAP1 LOG3 POP POP PUSH1 0x9 DUP1 SLOAD PUSH1 0x1 PUSH1 0x1 PUSH1 0xA0 SHL SUB DUP1 DUP7 AND PUSH1 0x1 PUSH1 0x1 PUSH1 0xA0 SHL SUB NOT SWAP3 DUP4 AND DUP2 OR SWAP1 SWAP4 SSTORE PUSH1 0x8 DUP1 SLOAD SWAP2 DUP9 AND SWAP2 DUP4 AND SWAP2 SWAP1 SWAP2 OR SWAP1 SSTORE PUSH1 0xA DUP1 SLOAD PUSH1 0x1 DUP2 ADD DUP3 SSTORE PUSH1 0x0 SWAP2 SWAP1 SWAP2 MSTORE PUSH32 0xC65A7BB8D6351C1CF70C95A316CC6A92839C986682D98BC35F958F4883F9D2A8 ADD DUP1 SLOAD SWAP1 SWAP2 AND SWAP1 SWAP2 OR SWAP1 SSTORE POP PUSH3 0x198 TIMESTAMP PUSH3 0x3F480 PUSH3 0x445 JUMP JUMPDEST PUSH1 0xC SSTORE POP PUSH3 0x4A8 SWAP2 POP POP JUMP JUMPDEST CALLER SWAP1 JUMP JUMPDEST PUSH1 0x5 DUP1 SLOAD PUSH1 0x1 PUSH1 0x1 PUSH1 0xA0 SHL SUB DUP4 DUP2 AND PUSH1 0x1 PUSH1 0x1 PUSH1 0xA0 SHL SUB NOT DUP4 AND DUP2 OR SWAP1 SWAP4 SSTORE PUSH1 0x40 MLOAD SWAP2 AND SWAP2 SWAP1 DUP3 SWAP1 PUSH1 0x0 DUP1 MLOAD PUSH1 0x20 PUSH3 0x1FFE DUP4 CODECOPY DUP2 MLOAD SWAP2 MSTORE SWAP1 PUSH1 0x0 SWAP1 LOG3 POP POP JUMP JUMPDEST DUP3 DUP1 SLOAD PUSH3 0x1F8 SWAP1 PUSH3 0x46C JUMP JUMPDEST SWAP1 PUSH1 0x0 MSTORE PUSH1 0x20 PUSH1 0x0 KECCAK256 SWAP1 PUSH1 0x1F ADD PUSH1 0x20 SWAP1 DIV DUP2 ADD SWAP3 DUP3 PUSH3 0x21C JUMPI PUSH1 0x0 DUP6 SSTORE PUSH3 0x267 JUMP JUMPDEST DUP3 PUSH1 0x1F LT PUSH3 0x237 JUMPI DUP1 MLOAD PUSH1 0xFF NOT AND DUP4 DUP1 ADD OR DUP6 SSTORE PUSH3 0x267 JUMP JUMPDEST DUP3 DUP1 ADD PUSH1 0x1 ADD DUP6 SSTORE DUP3 ISZERO PUSH3 0x267 JUMPI SWAP2 DUP3 ADD JUMPDEST DUP3 DUP2 GT ISZERO PUSH3 0x267 JUMPI DUP3 MLOAD DUP3 SSTORE SWAP2 PUSH1 0x20 ADD SWAP2 SWAP1 PUSH1 0x1 ADD SWAP1 PUSH3 0x24A JUMP JUMPDEST POP PUSH3 0x275 SWAP3 SWAP2 POP PUSH3 0x279 JUMP JUMPDEST POP SWAP1 JUMP JUMPDEST JUMPDEST DUP1 DUP3 GT ISZERO PUSH3 0x275 JUMPI PUSH1 0x0 DUP2 SSTORE PUSH1 0x1 ADD PUSH3 0x27A JUMP JUMPDEST DUP1 MLOAD PUSH1 0x1 PUSH1 0x1 PUSH1 0xA0 SHL SUB DUP2 AND DUP2 EQ PUSH3 0x2A8 JUMPI PUSH1 0x0 DUP1 REVERT JUMPDEST SWAP2 SWAP1 POP JUMP JUMPDEST PUSH4 0x4E487B71 PUSH1 0xE0 SHL PUSH1 0x0 MSTORE PUSH1 0x41 PUSH1 0x4 MSTORE PUSH1 0x24 PUSH1 0x0 REVERT JUMPDEST PUSH1 0x0 JUMPDEST DUP4 DUP2 LT ISZERO PUSH3 0x2E0 JUMPI DUP2 DUP2 ADD MLOAD DUP4 DUP3 ADD MSTORE PUSH1 0x20 ADD PUSH3 0x2C6 JUMP JUMPDEST DUP4 DUP2 GT ISZERO PUSH3 0x2F0 JUMPI PUSH1 0x0 DUP5 DUP5 ADD MSTORE JUMPDEST POP POP POP POP JUMP JUMPDEST PUSH1 0x0 DUP1 PUSH1 0x0 PUSH1 0x60 DUP5 DUP7 SUB SLT ISZERO PUSH3 0x30C JUMPI PUSH1 0x0 DUP1 REVERT JUMPDEST PUSH3 0x317 DUP5 PUSH3 0x290 JUMP JUMPDEST SWAP3 POP PUSH3 0x327 PUSH1 0x20 DUP6 ADD PUSH3 0x290 JUMP JUMPDEST PUSH1 0x40 DUP6 ADD MLOAD SWAP1 SWAP3 POP PUSH1 0x1 PUSH1 0x1 PUSH1 0x40 SHL SUB DUP1 DUP3 GT ISZERO PUSH3 0x345 JUMPI PUSH1 0x0 DUP1 REVERT JUMPDEST DUP2 DUP7 ADD SWAP2 POP DUP7 PUSH1 0x1F DUP4 ADD SLT PUSH3 0x35A JUMPI PUSH1 0x0 DUP1 REVERT JUMPDEST DUP2 MLOAD DUP2 DUP2 GT ISZERO PUSH3 0x36F JUMPI PUSH3 0x36F PUSH3 0x2AD JUMP JUMPDEST PUSH1 0x40 MLOAD PUSH1 0x1F DUP3 ADD PUSH1 0x1F NOT SWAP1 DUP2 AND PUSH1 0x3F ADD AND DUP2 ADD SWAP1 DUP4 DUP3 GT DUP2 DUP4 LT OR ISZERO PUSH3 0x39A JUMPI PUSH3 0x39A PUSH3 0x2AD JUMP JUMPDEST DUP2 PUSH1 0x40 MSTORE DUP3 DUP2 MSTORE DUP10 PUSH1 0x20 DUP5 DUP8 ADD ADD GT ISZERO PUSH3 0x3B4 JUMPI PUSH1 0x0 DUP1 REVERT JUMPDEST PUSH3 0x3C7 DUP4 PUSH1 0x20 DUP4 ADD PUSH1 0x20 DUP9 ADD PUSH3 0x2C3 JUMP JUMPDEST DUP1 SWAP6 POP POP POP POP POP POP SWAP3 POP SWAP3 POP SWAP3 JUMP JUMPDEST PUSH8 0xD2ACC2EAD8E8405 PUSH1 0xC3 SHL DUP2 MSTORE PUSH1 0x0 DUP3 MLOAD PUSH3 0x3FB DUP2 PUSH1 0x8 DUP6 ADD PUSH1 0x20 DUP8 ADD PUSH3 0x2C3 JUMP JUMPDEST PUSH1 0x29 PUSH1 0xF8 SHL PUSH1 0x8 SWAP4 SWAP1 SWAP2 ADD SWAP3 DUP4 ADD MSTORE POP PUSH1 0x9 ADD SWAP2 SWAP1 POP JUMP JUMPDEST PUSH8 0x427269646765642D PUSH1 0xC0 SHL DUP2 MSTORE PUSH1 0x0 DUP3 MLOAD PUSH3 0x438 DUP2 PUSH1 0x8 DUP6 ADD PUSH1 0x20 DUP8 ADD PUSH3 0x2C3 JUMP JUMPDEST SWAP2 SWAP1 SWAP2 ADD PUSH1 0x8 ADD SWAP3 SWAP2 POP POP JUMP JUMPDEST PUSH1 0x0 DUP3 NOT DUP3 GT ISZERO PUSH3 0x467 JUMPI PUSH4 0x4E487B71 PUSH1 0xE0 SHL PUSH1 0x0 MSTORE PUSH1 0x11 PUSH1 0x4 MSTORE PUSH1 0x24 PUSH1 0x0 REVERT JUMPDEST POP ADD SWAP1 JUMP JUMPDEST PUSH1 0x1 DUP2 DUP2 SHR SWAP1 DUP3 AND DUP1 PUSH3 0x481 JUMPI PUSH1 0x7F DUP3 AND SWAP2 POP JUMPDEST PUSH1 0x20 DUP3 LT DUP2 SUB PUSH3 0x4A2 JUMPI PUSH4 0x4E487B71 PUSH1 0xE0 SHL PUSH1 0x0 MSTORE PUSH1 0x22 PUSH1 0x4 MSTORE PUSH1 0x24 PUSH1 0x0 REVERT JUMPDEST POP SWAP2 SWAP1 POP JUMP JUMPDEST PUSH2 0x1B46 DUP1 PUSH3 0x4B8 PUSH1 0x0 CODECOPY PUSH1 0x0 RETURN INVALID PUSH1 0x80 PUSH1 0x40 MSTORE PUSH1 0x4 CALLDATASIZE LT PUSH2 0x15F JUMPI PUSH1 0x0 CALLDATALOAD PUSH1 0xE0 SHR DUP1 PUSH4 0x8DA5CB5B GT PUSH2 0xC4 JUMPI DUP1 PUSH4 0x8DA5CB5B EQ PUSH2 0x355 JUMPI DUP1 PUSH4 0x95D89B41 EQ PUSH2 0x373 JUMPI DUP1 PUSH4 0x9A708BE3 EQ PUSH2 0x388 JUMPI DUP1 PUSH4 0xA457C2D7 EQ PUSH2 0x3A8 JUMPI DUP1 PUSH4 0xA5F2A152 EQ PUSH2 0x3C8 JUMPI DUP1 PUSH4 0xA9059CBB EQ PUSH2 0x3E8 JUMPI DUP1 PUSH4 0xB09F1266 EQ PUSH2 0x408 JUMPI DUP1 PUSH4 0xB90306AD EQ PUSH2 0x41D JUMPI DUP1 PUSH4 0xBBB35F69 EQ PUSH2 0x43D JUMPI DUP1 PUSH4 0xD28D8852 EQ PUSH2 0x473 JUMPI DUP1 PUSH4 0xD7B96D4E EQ PUSH2 0x488 JUMPI DUP1 PUSH4 0xDD62ED3E EQ PUSH2 0x4A8 JUMPI DUP1 PUSH4 0xE534155D EQ PUSH2 0x4EE JUMPI DUP1 PUSH4 0xF2FDE38B EQ PUSH2 0x50E JUMPI DUP1 PUSH4 0xFD4C9B96 EQ PUSH2 0x52E JUMPI STOP JUMPDEST DUP1 PUSH3 0xE73378 EQ PUSH2 0x168 JUMPI DUP1 PUSH4 0x6FDDE03 EQ PUSH2 0x190 JUMPI DUP1 PUSH4 0x95EA7B3 EQ PUSH2 0x1B2 JUMPI DUP1 PUSH4 0xF388B4F EQ PUSH2 0x1D2 JUMPI DUP1 PUSH4 0xF6798A5 EQ PUSH2 0x1F6 JUMPI DUP1 PUSH4 0x18160DDD EQ PUSH2 0x216 JUMPI DUP1 PUSH4 0x23B872DD EQ PUSH2 0x22B JUMPI DUP1 PUSH4 0x28E1A604 EQ PUSH2 0x24B JUMPI DUP1 PUSH4 0x2A11CED0 EQ PUSH2 0x26B JUMPI DUP1 PUSH4 0x313CE567 EQ PUSH2 0x298 JUMPI DUP1 PUSH4 0x39509351 EQ PUSH2 0x2B4 JUMPI DUP1 PUSH4 0x70A08231 EQ PUSH2 0x2D4 JUMPI DUP1 PUSH4 0x715018A6 EQ PUSH2 0x30A JUMPI DUP1 PUSH4 0x794F4DD1 EQ PUSH2 0x31F JUMPI STOP JUMPDEST CALLDATASIZE PUSH2 0x166 JUMPI STOP JUMPDEST STOP JUMPDEST PUSH2 0x17B PUSH2 0x176 CALLDATASIZE PUSH1 0x4 PUSH2 0x174D JUMP JUMPDEST PUSH2 0x54E JUMP JUMPDEST PUSH1 0x40 MLOAD SWAP1 ISZERO ISZERO DUP2 MSTORE PUSH1 0x20 ADD JUMPDEST PUSH1 0x40 MLOAD DUP1 SWAP2 SUB SWAP1 RETURN JUMPDEST CALLVALUE DUP1 ISZERO PUSH2 0x19C JUMPI PUSH1 0x0 DUP1 REVERT JUMPDEST POP PUSH2 0x1A5 PUSH2 0x605 JUMP JUMPDEST PUSH1 0x40 MLOAD PUSH2 0x187 SWAP2 SWAP1 PUSH2 0x17A5 JUMP JUMPDEST CALLVALUE DUP1 ISZERO PUSH2 0x1BE JUMPI PUSH1 0x0 DUP1 REVERT JUMPDEST POP PUSH2 0x17B PUSH2 0x1CD CALLDATASIZE PUSH1 0x4 PUSH2 0x174D JUMP JUMPDEST PUSH2 0x697 JUMP JUMPDEST CALLVALUE DUP1 ISZERO PUSH2 0x1DE JUMPI PUSH1 0x0 DUP1 REVERT JUMPDEST POP PUSH2 0x1E8 PUSH1 0xB SLOAD DUP2 JUMP JUMPDEST PUSH1 0x40 MLOAD SWAP1 DUP2 MSTORE PUSH1 0x20 ADD PUSH2 0x187 JUMP JUMPDEST CALLVALUE DUP1 ISZERO PUSH2 0x202 JUMPI PUSH1 0x0 DUP1 REVERT JUMPDEST POP PUSH2 0x166 PUSH2 0x211 CALLDATASIZE PUSH1 0x4 PUSH2 0x174D JUMP JUMPDEST PUSH2 0x6AD JUMP JUMPDEST CALLVALUE DUP1 ISZERO PUSH2 0x222 JUMPI PUSH1 0x0 DUP1 REVERT JUMPDEST POP PUSH1 0x2 SLOAD PUSH2 0x1E8 JUMP JUMPDEST CALLVALUE DUP1 ISZERO PUSH2 0x237 JUMPI PUSH1 0x0 DUP1 REVERT JUMPDEST POP PUSH2 0x17B PUSH2 0x246 CALLDATASIZE PUSH1 0x4 PUSH2 0x17D8 JUMP JUMPDEST PUSH2 0x7AB JUMP JUMPDEST CALLVALUE DUP1 ISZERO PUSH2 0x257 JUMPI PUSH1 0x0 DUP1 REVERT JUMPDEST POP PUSH2 0x166 PUSH2 0x266 CALLDATASIZE PUSH1 0x4 PUSH2 0x174D JUMP JUMPDEST PUSH2 0x801 JUMP JUMPDEST CALLVALUE DUP1 ISZERO PUSH2 0x277 JUMPI PUSH1 0x0 DUP1 REVERT JUMPDEST POP PUSH2 0x28B PUSH2 0x286 CALLDATASIZE PUSH1 0x4 PUSH2 0x1819 JUMP JUMPDEST PUSH2 0x817 JUMP JUMPDEST PUSH1 0x40 MLOAD PUSH2 0x187 SWAP2 SWAP1 PUSH2 0x1832 JUMP JUMPDEST CALLVALUE DUP1 ISZERO PUSH2 0x2A4 JUMPI PUSH1 0x0 DUP1 REVERT JUMPDEST POP PUSH1 0x40 MLOAD PUSH1 0x12 DUP2 MSTORE PUSH1 0x20 ADD PUSH2 0x187 JUMP JUMPDEST CALLVALUE DUP1 ISZERO PUSH2 0x2C0 JUMPI PUSH1 0x0 DUP1 REVERT JUMPDEST POP PUSH2 0x17B PUSH2 0x2CF CALLDATASIZE PUSH1 0x4 PUSH2 0x174D JUMP JUMPDEST PUSH2 0x841 JUMP JUMPDEST CALLVALUE DUP1 ISZERO PUSH2 0x2E0 JUMPI PUSH1 0x0 DUP1 REVERT JUMPDEST POP PUSH2 0x1E8 PUSH2 0x2EF CALLDATASIZE PUSH1 0x4 PUSH2 0x1846 JUMP JUMPDEST PUSH1 0x1 PUSH1 0x1 PUSH1 0xA0 SHL SUB AND PUSH1 0x0 SWAP1 DUP2 MSTORE PUSH1 0x20 DUP2 SWAP1 MSTORE PUSH1 0x40 SWAP1 KECCAK256 SLOAD SWAP1 JUMP JUMPDEST CALLVALUE DUP1 ISZERO PUSH2 0x316 JUMPI PUSH1 0x0 DUP1 REVERT JUMPDEST POP PUSH2 0x166 PUSH2 0x87D JUMP JUMPDEST CALLVALUE DUP1 ISZERO PUSH2 0x32B JUMPI PUSH1 0x0 DUP1 REVERT JUMPDEST POP PUSH2 0x28B PUSH2 0x33A CALLDATASIZE PUSH1 0x4 PUSH2 0x1819 JUMP JUMPDEST PUSH1 0x0 SWAP1 DUP2 MSTORE PUSH1 0x7 PUSH1 0x20 MSTORE PUSH1 0x40 SWAP1 KECCAK256 SLOAD PUSH1 0x1 PUSH1 0x1 PUSH1 0xA0 SHL SUB AND SWAP1 JUMP JUMPDEST CALLVALUE DUP1 ISZERO PUSH2 0x361 JUMPI PUSH1 0x0 DUP1 REVERT JUMPDEST POP PUSH1 0x5 SLOAD PUSH1 0x1 PUSH1 0x1 PUSH1 0xA0 SHL SUB AND PUSH2 0x28B JUMP JUMPDEST CALLVALUE DUP1 ISZERO PUSH2 0x37F JUMPI PUSH1 0x0 DUP1 REVERT JUMPDEST POP PUSH2 0x1A5 PUSH2 0x891 JUMP JUMPDEST CALLVALUE DUP1 ISZERO PUSH2 0x394 JUMPI PUSH1 0x0 DUP1 REVERT JUMPDEST POP PUSH2 0x166 PUSH2 0x3A3 CALLDATASIZE PUSH1 0x4 PUSH2 0x190D JUMP JUMPDEST PUSH2 0x8A0 JUMP JUMPDEST CALLVALUE DUP1 ISZERO PUSH2 0x3B4 JUMPI PUSH1 0x0 DUP1 REVERT JUMPDEST POP PUSH2 0x17B PUSH2 0x3C3 CALLDATASIZE PUSH1 0x4 PUSH2 0x174D JUMP JUMPDEST PUSH2 0x8D9 JUMP JUMPDEST CALLVALUE DUP1 ISZERO PUSH2 0x3D4 JUMPI PUSH1 0x0 DUP1 REVERT JUMPDEST POP PUSH2 0x17B PUSH2 0x3E3 CALLDATASIZE PUSH1 0x4 PUSH2 0x17D8 JUMP JUMPDEST PUSH2 0x917 JUMP JUMPDEST CALLVALUE DUP1 ISZERO PUSH2 0x3F4 JUMPI PUSH1 0x0 DUP1 REVERT JUMPDEST POP PUSH2 0x17B PUSH2 0x403 CALLDATASIZE PUSH1 0x4 PUSH2 0x174D JUMP JUMPDEST PUSH2 0xA50 JUMP JUMPDEST CALLVALUE DUP1 ISZERO PUSH2 0x414 JUMPI PUSH1 0x0 DUP1 REVERT JUMPDEST POP PUSH2 0x1A5 PUSH2 0xA5D JUMP JUMPDEST CALLVALUE DUP1 ISZERO PUSH2 0x429 JUMPI PUSH1 0x0 DUP1 REVERT JUMPDEST POP PUSH2 0x166 PUSH2 0x438 CALLDATASIZE PUSH1 0x4 PUSH2 0x1819 JUMP JUMPDEST PUSH2 0xAEB JUMP JUMPDEST CALLVALUE DUP1 ISZERO PUSH2 0x449 JUMPI PUSH1 0x0 DUP1 REVERT JUMPDEST POP PUSH2 0x28B PUSH2 0x458 CALLDATASIZE PUSH1 0x4 PUSH2 0x1819 JUMP JUMPDEST PUSH1 0x7 PUSH1 0x20 MSTORE PUSH1 0x0 SWAP1 DUP2 MSTORE PUSH1 0x40 SWAP1 KECCAK256 SLOAD PUSH1 0x1 PUSH1 0x1 PUSH1 0xA0 SHL SUB AND DUP2 JUMP JUMPDEST CALLVALUE DUP1 ISZERO PUSH2 0x47F JUMPI PUSH1 0x0 DUP1 REVERT JUMPDEST POP PUSH2 0x1A5 PUSH2 0xB00 JUMP JUMPDEST CALLVALUE DUP1 ISZERO PUSH2 0x494 JUMPI PUSH1 0x0 DUP1 REVERT JUMPDEST POP PUSH1 0x8 SLOAD PUSH2 0x28B SWAP1 PUSH1 0x1 PUSH1 0x1 PUSH1 0xA0 SHL SUB AND DUP2 JUMP JUMPDEST CALLVALUE DUP1 ISZERO PUSH2 0x4B4 JUMPI PUSH1 0x0 DUP1 REVERT JUMPDEST POP PUSH2 0x1E8 PUSH2 0x4C3 CALLDATASIZE PUSH1 0x4 PUSH2 0x1971 JUMP JUMPDEST PUSH1 0x1 PUSH1 0x1 PUSH1 0xA0 SHL SUB SWAP2 DUP3 AND PUSH1 0x0 SWAP1 DUP2 MSTORE PUSH1 0x1 PUSH1 0x20 SWAP1 DUP2 MSTORE PUSH1 0x40 DUP1 DUP4 KECCAK256 SWAP4 SWAP1 SWAP5 AND DUP3 MSTORE SWAP2 SWAP1 SWAP2 MSTORE KECCAK256 SLOAD SWAP1 JUMP JUMPDEST CALLVALUE DUP1 ISZERO PUSH2 0x4FA JUMPI PUSH1 0x0 DUP1 REVERT JUMPDEST POP PUSH1 0x9 SLOAD PUSH2 0x28B SWAP1 PUSH1 0x1 PUSH1 0x1 PUSH1 0xA0 SHL SUB AND DUP2 JUMP JUMPDEST CALLVALUE DUP1 ISZERO PUSH2 0x51A JUMPI PUSH1 0x0 DUP1 REVERT JUMPDEST POP PUSH2 0x166 PUSH2 0x529 CALLDATASIZE PUSH1 0x4 PUSH2 0x1846 JUMP JUMPDEST PUSH2 0xB0D JUMP JUMPDEST CALLVALUE DUP1 ISZERO PUSH2 0x53A JUMPI PUSH1 0x0 DUP1 REVERT JUMPDEST POP PUSH2 0x17B PUSH2 0x549 CALLDATASIZE PUSH1 0x4 PUSH2 0x1846 JUMP JUMPDEST PUSH2 0xB88 JUMP JUMPDEST PUSH1 0x8 SLOAD PUSH1 0x0 SWAP1 PUSH1 0x1 PUSH1 0x1 PUSH1 0xA0 SHL SUB AND CALLER PUSH1 0x1 PUSH1 0x1 PUSH1 0xA0 SHL SUB AND EQ DUP1 PUSH2 0x586 JUMPI POP PUSH1 0x9 SLOAD PUSH1 0x1 PUSH1 0x1 PUSH1 0xA0 SHL SUB AND CALLER PUSH1 0x1 PUSH1 0x1 PUSH1 0xA0 SHL SUB AND EQ JUMPDEST PUSH2 0x58F JUMPI PUSH1 0x0 DUP1 REVERT JUMPDEST SELFBALANCE DUP3 GT ISZERO PUSH2 0x59B JUMPI SELFBALANCE SWAP2 POP JUMPDEST PUSH1 0x0 DUP4 PUSH1 0x1 PUSH1 0x1 PUSH1 0xA0 SHL SUB AND DUP4 PUSH1 0x40 MLOAD PUSH1 0x0 PUSH1 0x40 MLOAD DUP1 DUP4 SUB DUP2 DUP6 DUP8 GAS CALL SWAP3 POP POP POP RETURNDATASIZE DUP1 PUSH1 0x0 DUP2 EQ PUSH2 0x5E8 JUMPI PUSH1 0x40 MLOAD SWAP2 POP PUSH1 0x1F NOT PUSH1 0x3F RETURNDATASIZE ADD AND DUP3 ADD PUSH1 0x40 MSTORE RETURNDATASIZE DUP3 MSTORE RETURNDATASIZE PUSH1 0x0 PUSH1 0x20 DUP5 ADD RETURNDATACOPY PUSH2 0x5ED JUMP JUMPDEST PUSH1 0x60 SWAP2 POP JUMPDEST POP POP SWAP1 POP DUP1 PUSH2 0x5FB JUMPI PUSH1 0x0 DUP1 REVERT JUMPDEST POP PUSH1 0x1 SWAP4 SWAP3 POP POP POP JUMP JUMPDEST PUSH1 0x60 PUSH1 0x3 DUP1 SLOAD PUSH2 0x614 SWAP1 PUSH2 0x19AA JUMP JUMPDEST DUP1 PUSH1 0x1F ADD PUSH1 0x20 DUP1 SWAP2 DIV MUL PUSH1 0x20 ADD PUSH1 0x40 MLOAD SWAP1 DUP2 ADD PUSH1 0x40 MSTORE DUP1 SWAP3 SWAP2 SWAP1 DUP2 DUP2 MSTORE PUSH1 0x20 ADD DUP3 DUP1 SLOAD PUSH2 0x640 SWAP1 PUSH2 0x19AA JUMP JUMPDEST DUP1 ISZERO PUSH2 0x68D JUMPI DUP1 PUSH1 0x1F LT PUSH2 0x662 JUMPI PUSH2 0x100 DUP1 DUP4 SLOAD DIV MUL DUP4 MSTORE SWAP2 PUSH1 0x20 ADD SWAP2 PUSH2 0x68D JUMP JUMPDEST DUP3 ADD SWAP2 SWAP1 PUSH1 0x0 MSTORE PUSH1 0x20 PUSH1 0x0 KECCAK256 SWAP1 JUMPDEST DUP2 SLOAD DUP2 MSTORE SWAP1 PUSH1 0x1 ADD SWAP1 PUSH1 0x20 ADD DUP1 DUP4 GT PUSH2 0x670 JUMPI DUP3 SWAP1 SUB PUSH1 0x1F AND DUP3 ADD SWAP2 JUMPDEST POP POP POP POP POP SWAP1 POP SWAP1 JUMP JUMPDEST PUSH1 0x0 PUSH2 0x6A4 CALLER DUP5 DUP5 PUSH2 0xEE6 JUMP JUMPDEST POP PUSH1 0x1 SWAP3 SWAP2 POP POP JUMP JUMPDEST PUSH1 0x0 PUSH2 0x2710 ADDRESS PUSH1 0x1 PUSH1 0x1 PUSH1 0xA0 SHL SUB AND PUSH4 0x18160DDD PUSH1 0x40 MLOAD DUP2 PUSH4 0xFFFFFFFF AND PUSH1 0xE0 SHL DUP2 MSTORE PUSH1 0x4 ADD PUSH1 0x20 PUSH1 0x40 MLOAD DUP1 DUP4 SUB DUP2 DUP7 GAS STATICCALL ISZERO DUP1 ISZERO PUSH2 0x6F0 JUMPI RETURNDATASIZE PUSH1 0x0 DUP1 RETURNDATACOPY RETURNDATASIZE PUSH1 0x0 REVERT JUMPDEST POP POP POP POP PUSH1 0x40 MLOAD RETURNDATASIZE PUSH1 0x1F NOT PUSH1 0x1F DUP3 ADD AND DUP3 ADD DUP1 PUSH1 0x40 MSTORE POP DUP2 ADD SWAP1 PUSH2 0x714 SWAP2 SWAP1 PUSH2 0x19E4 JUMP JUMPDEST PUSH2 0x720 SWAP1 PUSH2 0x13EC PUSH2 0x1A13 JUMP JUMPDEST PUSH2 0x72A SWAP2 SWAP1 PUSH2 0x1A32 JUMP JUMPDEST PUSH1 0x40 MLOAD PUSH4 0x70A08231 PUSH1 0xE0 SHL DUP2 MSTORE ADDRESS SWAP1 PUSH4 0x70A08231 SWAP1 PUSH2 0x74D SWAP1 CALLER SWAP1 PUSH1 0x4 ADD PUSH2 0x1832 JUMP JUMPDEST PUSH1 0x20 PUSH1 0x40 MLOAD DUP1 DUP4 SUB DUP2 DUP7 GAS STATICCALL ISZERO DUP1 ISZERO PUSH2 0x76A JUMPI RETURNDATASIZE PUSH1 0x0 DUP1 RETURNDATACOPY RETURNDATASIZE PUSH1 0x0 REVERT JUMPDEST POP POP POP POP PUSH1 0x40 MLOAD RETURNDATASIZE PUSH1 0x1F NOT PUSH1 0x1F DUP3 ADD AND DUP3 ADD DUP1 PUSH1 0x40 MSTORE POP DUP2 ADD SWAP1 PUSH2 0x78E SWAP2 SWAP1 PUSH2 0x19E4 JUMP JUMPDEST LT ISZERO SWAP1 POP DUP1 PUSH2 0x79C JUMPI PUSH1 0x0 DUP1 REVERT JUMPDEST PUSH2 0x7A6 DUP4 DUP4 PUSH2 0xF6D JUMP JUMPDEST POP POP POP JUMP JUMPDEST PUSH1 0x0 PUSH2 0x7B8 DUP5 DUP5 DUP5 PUSH2 0xFF7 JUMP JUMPDEST PUSH1 0x1 PUSH1 0x1 PUSH1 0xA0 SHL SUB DUP5 AND PUSH1 0x0 SWAP1 DUP2 MSTORE PUSH1 0x1 PUSH1 0x20 SWAP1 DUP2 MSTORE PUSH1 0x40 DUP1 DUP4 KECCAK256 CALLER DUP5 MSTORE SWAP1 SWAP2 MSTORE SWAP1 KECCAK256 SLOAD DUP3 DUP2 LT ISZERO PUSH2 0x7E9 JUMPI PUSH1 0x0 DUP1 REVERT JUMPDEST PUSH2 0x7F6 DUP6 CALLER DUP6 DUP5 SUB PUSH2 0xEE6 JUMP JUMPDEST POP PUSH1 0x1 SWAP5 SWAP4 POP POP POP POP JUMP JUMPDEST PUSH2 0x809 PUSH2 0x11D2 JUMP JUMPDEST PUSH2 0x813 DUP3 DUP3 PUSH2 0x122C JUMP JUMPDEST POP POP JUMP JUMPDEST PUSH1 0xA DUP2 DUP2 SLOAD DUP2 LT PUSH2 0x827 JUMPI PUSH1 0x0 DUP1 REVERT JUMPDEST PUSH1 0x0 SWAP2 DUP3 MSTORE PUSH1 0x20 SWAP1 SWAP2 KECCAK256 ADD SLOAD PUSH1 0x1 PUSH1 0x1 PUSH1 0xA0 SHL SUB AND SWAP1 POP DUP2 JUMP JUMPDEST CALLER PUSH1 0x0 DUP2 DUP2 MSTORE PUSH1 0x1 PUSH1 0x20 SWAP1 DUP2 MSTORE PUSH1 0x40 DUP1 DUP4 KECCAK256 PUSH1 0x1 PUSH1 0x1 PUSH1 0xA0 SHL SUB DUP8 AND DUP5 MSTORE SWAP1 SWAP2 MSTORE DUP2 KECCAK256 SLOAD SWAP1 SWAP2 PUSH2 0x6A4 SWAP2 DUP6 SWAP1 PUSH2 0x878 SWAP1 DUP7 SWAP1 PUSH2 0x1A54 JUMP JUMPDEST PUSH2 0xEE6 JUMP JUMPDEST PUSH2 0x885 PUSH2 0x11D2 JUMP JUMPDEST PUSH2 0x88F PUSH1 0x0 PUSH2 0x12CD JUMP JUMPDEST JUMP JUMPDEST PUSH1 0x60 PUSH1 0x4 DUP1 SLOAD PUSH2 0x614 SWAP1 PUSH2 0x19AA JUMP JUMPDEST PUSH1 0x9 SLOAD PUSH1 0x1 PUSH1 0x1 PUSH1 0xA0 SHL SUB AND CALLER SUB PUSH2 0x813 JUMPI DUP2 MLOAD PUSH2 0x8C5 SWAP1 PUSH1 0x3 SWAP1 PUSH1 0x20 DUP6 ADD SWAP1 PUSH2 0x169F JUMP JUMPDEST POP DUP1 MLOAD PUSH2 0x7A6 SWAP1 PUSH1 0x4 SWAP1 PUSH1 0x20 DUP5 ADD SWAP1 PUSH2 0x169F JUMP JUMPDEST CALLER PUSH1 0x0 SWAP1 DUP2 MSTORE PUSH1 0x1 PUSH1 0x20 SWAP1 DUP2 MSTORE PUSH1 0x40 DUP1 DUP4 KECCAK256 PUSH1 0x1 PUSH1 0x1 PUSH1 0xA0 SHL SUB DUP7 AND DUP5 MSTORE SWAP1 SWAP2 MSTORE DUP2 KECCAK256 SLOAD DUP3 DUP2 LT ISZERO PUSH2 0x90A JUMPI PUSH1 0x0 DUP1 REVERT JUMPDEST PUSH2 0x5FB CALLER DUP6 DUP6 DUP5 SUB PUSH2 0xEE6 JUMP JUMPDEST PUSH1 0x8 SLOAD PUSH1 0x0 SWAP1 PUSH1 0x1 PUSH1 0x1 PUSH1 0xA0 SHL SUB AND CALLER PUSH1 0x1 PUSH1 0x1 PUSH1 0xA0 SHL SUB AND EQ DUP1 PUSH2 0x94F JUMPI POP PUSH1 0x9 SLOAD PUSH1 0x1 PUSH1 0x1 PUSH1 0xA0 SHL SUB AND CALLER PUSH1 0x1 PUSH1 0x1 PUSH1 0xA0 SHL SUB AND EQ JUMPDEST PUSH2 0x958 JUMPI PUSH1 0x0 DUP1 REVERT JUMPDEST PUSH1 0x40 MLOAD PUSH4 0x70A08231 PUSH1 0xE0 SHL DUP2 MSTORE PUSH1 0x1 PUSH1 0x1 PUSH1 0xA0 SHL SUB DUP6 AND SWAP1 PUSH4 0x70A08231 SWAP1 PUSH2 0x984 SWAP1 ADDRESS SWAP1 PUSH1 0x4 ADD PUSH2 0x1832 JUMP JUMPDEST PUSH1 0x20 PUSH1 0x40 MLOAD DUP1 DUP4 SUB DUP2 DUP7 GAS STATICCALL ISZERO DUP1 ISZERO PUSH2 0x9A1 JUMPI RETURNDATASIZE PUSH1 0x0 DUP1 RETURNDATACOPY RETURNDATASIZE PUSH1 0x0 REVERT JUMPDEST POP POP POP POP PUSH1 0x40 MLOAD RETURNDATASIZE PUSH1 0x1F NOT PUSH1 0x1F DUP3 ADD AND DUP3 ADD DUP1 PUSH1 0x40 MSTORE POP DUP2 ADD SWAP1 PUSH2 0x9C5 SWAP2 SWAP1 PUSH2 0x19E4 JUMP JUMPDEST DUP3 GT ISZERO PUSH2 0xA3C JUMPI PUSH1 0x40 MLOAD PUSH4 0x70A08231 PUSH1 0xE0 SHL DUP2 MSTORE PUSH1 0x1 PUSH1 0x1 PUSH1 0xA0 SHL SUB DUP6 AND SWAP1 PUSH4 0x70A08231 SWAP1 PUSH2 0x9F8 SWAP1 ADDRESS SWAP1 PUSH1 0x4 ADD PUSH2 0x1832 JUMP JUMPDEST PUSH1 0x20 PUSH1 0x40 MLOAD DUP1 DUP4 SUB DUP2 DUP7 GAS STATICCALL ISZERO DUP1 ISZERO PUSH2 0xA15 JUMPI RETURNDATASIZE PUSH1 0x0 DUP1 RETURNDATACOPY RETURNDATASIZE PUSH1 0x0 REVERT JUMPDEST POP POP POP POP PUSH1 0x40 MLOAD RETURNDATASIZE PUSH1 0x1F NOT PUSH1 0x1F DUP3 ADD AND DUP3 ADD DUP1 PUSH1 0x40 MSTORE POP DUP2 ADD SWAP1 PUSH2 0xA39 SWAP2 SWAP1 PUSH2 0x19E4 JUMP JUMPDEST SWAP2 POP JUMPDEST PUSH2 0x5FB PUSH1 0x1 PUSH1 0x1 PUSH1 0xA0 SHL SUB DUP6 AND DUP5 DUP5 PUSH2 0x131F JUMP JUMPDEST PUSH1 0x0 PUSH2 0x6A4 CALLER DUP5 DUP5 PUSH2 0xFF7 JUMP JUMPDEST PUSH1 0x4 DUP1 SLOAD PUSH2 0xA6A SWAP1 PUSH2 0x19AA JUMP JUMPDEST DUP1 PUSH1 0x1F ADD PUSH1 0x20 DUP1 SWAP2 DIV MUL PUSH1 0x20 ADD PUSH1 0x40 MLOAD SWAP1 DUP2 ADD PUSH1 0x40 MSTORE DUP1 SWAP3 SWAP2 SWAP1 DUP2 DUP2 MSTORE PUSH1 0x20 ADD DUP3 DUP1 SLOAD PUSH2 0xA96 SWAP1 PUSH2 0x19AA JUMP JUMPDEST DUP1 ISZERO PUSH2 0xAE3 JUMPI DUP1 PUSH1 0x1F LT PUSH2 0xAB8 JUMPI PUSH2 0x100 DUP1 DUP4 SLOAD DIV MUL DUP4 MSTORE SWAP2 PUSH1 0x20 ADD SWAP2 PUSH2 0xAE3 JUMP JUMPDEST DUP3 ADD SWAP2 SWAP1 PUSH1 0x0 MSTORE PUSH1 0x20 PUSH1 0x0 KECCAK256 SWAP1 JUMPDEST DUP2 SLOAD DUP2 MSTORE SWAP1 PUSH1 0x1 ADD SWAP1 PUSH1 0x20 ADD DUP1 DUP4 GT PUSH2 0xAC6 JUMPI DUP3 SWAP1 SUB PUSH1 0x1F AND DUP3 ADD SWAP2 JUMPDEST POP POP POP POP POP DUP2 JUMP JUMPDEST PUSH2 0xAF3 PUSH2 0x11D2 JUMP JUMPDEST PUSH2 0xAFD CALLER DUP3 PUSH2 0x122C JUMP JUMPDEST POP JUMP JUMPDEST PUSH1 0x3 DUP1 SLOAD PUSH2 0xA6A SWAP1 PUSH2 0x19AA JUMP JUMPDEST PUSH2 0xB15 PUSH2 0x11D2 JUMP JUMPDEST PUSH1 0x1 PUSH1 0x1 PUSH1 0xA0 SHL SUB DUP2 AND PUSH2 0xB7F JUMPI PUSH1 0x40 MLOAD PUSH3 0x461BCD PUSH1 0xE5 SHL DUP2 MSTORE PUSH1 0x20 PUSH1 0x4 DUP3 ADD MSTORE PUSH1 0x26 PUSH1 0x24 DUP3 ADD MSTORE PUSH32 0x4F776E61626C653A206E6577206F776E657220697320746865207A65726F2061 PUSH1 0x44 DUP3 ADD MSTORE PUSH6 0x646472657373 PUSH1 0xD0 SHL PUSH1 0x64 DUP3 ADD MSTORE PUSH1 0x84 ADD JUMPDEST PUSH1 0x40 MLOAD DUP1 SWAP2 SUB SWAP1 REVERT JUMPDEST PUSH2 0xAFD DUP2 PUSH2 0x12CD JUMP JUMPDEST PUSH1 0x9 SLOAD PUSH1 0x0 SWAP1 PUSH1 0x1 PUSH1 0x1 PUSH1 0xA0 SHL SUB DUP4 DUP2 AND SWAP2 AND EQ PUSH2 0xEDE JUMPI PUSH1 0x9 SLOAD PUSH1 0x1 PUSH1 0x1 PUSH1 0xA0 SHL SUB AND CALLER DUP2 SWAP1 SUB PUSH2 0xD21 JUMPI PUSH1 0x9 DUP1 SLOAD PUSH1 0x1 PUSH1 0x1 PUSH1 0xA0 SHL SUB DUP6 AND PUSH1 0x1 PUSH1 0x1 PUSH1 0xA0 SHL SUB NOT SWAP2 DUP3 AND DUP2 OR SWAP1 SWAP3 SSTORE PUSH1 0xA DUP1 SLOAD PUSH1 0x1 DUP2 ADD DUP3 SSTORE PUSH1 0x0 SWAP2 SWAP1 SWAP2 MSTORE PUSH32 0xC65A7BB8D6351C1CF70C95A316CC6A92839C986682D98BC35F958F4883F9D2A8 ADD DUP1 SLOAD SWAP1 SWAP2 AND SWAP1 SWAP2 OR SWAP1 SSTORE PUSH2 0xC1B TIMESTAMP PUSH2 0x258 PUSH2 0x1A54 JUMP JUMPDEST PUSH1 0xC SSTORE PUSH1 0x6 SLOAD PUSH1 0x40 DUP1 MLOAD PUSH4 0x18160DDD PUSH1 0xE0 SHL DUP2 MSTORE SWAP1 MLOAD PUSH2 0xC97 SWAP3 DUP7 SWAP3 PUSH1 0x1 PUSH1 0x1 PUSH1 0xA0 SHL SUB SWAP1 SWAP2 AND SWAP2 PUSH4 0x18160DDD SWAP2 PUSH1 0x4 DUP1 DUP3 ADD SWAP3 PUSH1 0x20 SWAP3 SWAP1 SWAP2 SWAP1 DUP3 SWAP1 SUB ADD DUP2 DUP7 GAS STATICCALL ISZERO DUP1 ISZERO PUSH2 0xC6E JUMPI RETURNDATASIZE PUSH1 0x0 DUP1 RETURNDATACOPY RETURNDATASIZE PUSH1 0x0 REVERT JUMPDEST POP POP POP POP PUSH1 0x40 MLOAD RETURNDATASIZE PUSH1 0x1F NOT PUSH1 0x1F DUP3 ADD AND DUP3 ADD DUP1 PUSH1 0x40 MSTORE POP DUP2 ADD SWAP1 PUSH2 0xC92 SWAP2 SWAP1 PUSH2 0x19E4 JUMP JUMPDEST PUSH2 0xF6D JUMP JUMPDEST PUSH2 0xCA0 DUP4 PUSH2 0xB0D JUMP JUMPDEST PUSH1 0x6 SLOAD PUSH1 0x40 MLOAD PUSH4 0x70A08231 PUSH1 0xE0 SHL DUP2 MSTORE PUSH2 0xD1C SWAP2 DUP4 SWAP2 PUSH1 0x1 PUSH1 0x1 PUSH1 0xA0 SHL SUB SWAP1 SWAP2 AND SWAP1 PUSH4 0x70A08231 SWAP1 PUSH2 0xCD6 SWAP1 DUP5 SWAP1 PUSH1 0x4 ADD PUSH2 0x1832 JUMP JUMPDEST PUSH1 0x20 PUSH1 0x40 MLOAD DUP1 DUP4 SUB DUP2 DUP7 GAS STATICCALL ISZERO DUP1 ISZERO PUSH2 0xCF3 JUMPI RETURNDATASIZE PUSH1 0x0 DUP1 RETURNDATACOPY RETURNDATASIZE PUSH1 0x0 REVERT JUMPDEST POP POP POP POP PUSH1 0x40 MLOAD RETURNDATASIZE PUSH1 0x1F NOT PUSH1 0x1F DUP3 ADD AND DUP3 ADD DUP1 PUSH1 0x40 MSTORE POP DUP2 ADD SWAP1 PUSH2 0xD17 SWAP2 SWAP1 PUSH2 0x19E4 JUMP JUMPDEST PUSH2 0x122C JUMP JUMPDEST PUSH2 0xE9C JUMP JUMPDEST PUSH2 0x2710 PUSH2 0x13EC PUSH1 0x6 PUSH1 0x0 SWAP1 SLOAD SWAP1 PUSH2 0x100 EXP SWAP1 DIV PUSH1 0x1 PUSH1 0x1 PUSH1 0xA0 SHL SUB AND PUSH1 0x1 PUSH1 0x1 PUSH1 0xA0 SHL SUB AND PUSH4 0x18160DDD PUSH1 0x40 MLOAD DUP2 PUSH4 0xFFFFFFFF AND PUSH1 0xE0 SHL DUP2 MSTORE PUSH1 0x4 ADD PUSH1 0x20 PUSH1 0x40 MLOAD DUP1 DUP4 SUB DUP2 DUP7 GAS STATICCALL ISZERO DUP1 ISZERO PUSH2 0xD7A JUMPI RETURNDATASIZE PUSH1 0x0 DUP1 RETURNDATACOPY RETURNDATASIZE PUSH1 0x0 REVERT JUMPDEST POP POP POP POP PUSH1 0x40 MLOAD RETURNDATASIZE PUSH1 0x1F NOT PUSH1 0x1F DUP3 ADD AND DUP3 ADD DUP1 PUSH1 0x40 MSTORE POP DUP2 ADD SWAP1 PUSH2 0xD9E SWAP2 SWAP1 PUSH2 0x19E4 JUMP JUMPDEST PUSH2 0xDA8 SWAP2 SWAP1 PUSH2 0x1A13 JUMP JUMPDEST PUSH2 0xDB2 SWAP2 SWAP1 PUSH2 0x1A32 JUMP JUMPDEST PUSH1 0x6 SLOAD PUSH1 0x40 MLOAD PUSH4 0x70A08231 PUSH1 0xE0 SHL DUP2 MSTORE PUSH1 0x1 PUSH1 0x1 PUSH1 0xA0 SHL SUB SWAP1 SWAP2 AND SWAP1 PUSH4 0x70A08231 SWAP1 PUSH2 0xDE2 SWAP1 DUP8 SWAP1 PUSH1 0x4 ADD PUSH2 0x1832 JUMP JUMPDEST PUSH1 0x20 PUSH1 0x40 MLOAD DUP1 DUP4 SUB DUP2 DUP7 GAS STATICCALL ISZERO DUP1 ISZERO PUSH2 0xDFF JUMPI RETURNDATASIZE PUSH1 0x0 DUP1 RETURNDATACOPY RETURNDATASIZE PUSH1 0x0 REVERT JUMPDEST POP POP POP POP PUSH1 0x40 MLOAD RETURNDATASIZE PUSH1 0x1F NOT PUSH1 0x1F DUP3 ADD AND DUP3 ADD DUP1 PUSH1 0x40 MSTORE POP DUP2 ADD SWAP1 PUSH2 0xE23 SWAP2 SWAP1 PUSH2 0x19E4 JUMP JUMPDEST LT PUSH2 0xE9C JUMPI PUSH1 0x9 DUP1 SLOAD PUSH1 0x1 PUSH1 0x1 PUSH1 0xA0 SHL SUB DUP6 AND PUSH1 0x1 PUSH1 0x1 PUSH1 0xA0 SHL SUB NOT SWAP2 DUP3 AND DUP2 OR SWAP1 SWAP3 SSTORE PUSH1 0xA DUP1 SLOAD PUSH1 0x1 DUP2 ADD DUP3 SSTORE PUSH1 0x0 SWAP2 SWAP1 SWAP2 MSTORE PUSH32 0xC65A7BB8D6351C1CF70C95A316CC6A92839C986682D98BC35F958F4883F9D2A8 ADD DUP1 SLOAD SWAP1 SWAP2 AND SWAP1 SWAP2 OR SWAP1 SSTORE PUSH2 0xE90 TIMESTAMP PUSH3 0x15180 PUSH2 0x1A54 JUMP JUMPDEST PUSH1 0xC SSTORE PUSH2 0xE9C DUP4 PUSH2 0xB0D JUMP JUMPDEST DUP3 PUSH1 0x1 PUSH1 0x1 PUSH1 0xA0 SHL SUB AND DUP2 PUSH1 0x1 PUSH1 0x1 PUSH1 0xA0 SHL SUB AND PUSH32 0x63DB4FD02ABE7291D8F941514C494426E598A36D386FAFA477735F923D30C83E PUSH1 0x40 MLOAD PUSH1 0x40 MLOAD DUP1 SWAP2 SUB SWAP1 LOG3 POP JUMPDEST POP PUSH1 0x1 SWAP2 SWAP1 POP JUMP JUMPDEST PUSH1 0x1 PUSH1 0x1 PUSH1 0xA0 SHL SUB DUP4 AND PUSH2 0xEF9 JUMPI PUSH1 0x0 DUP1 REVERT JUMPDEST PUSH1 0x1 PUSH1 0x1 PUSH1 0xA0 SHL SUB DUP3 AND PUSH2 0xF0C JUMPI PUSH1 0x0 DUP1 REVERT JUMPDEST PUSH1 0x1 PUSH1 0x1 PUSH1 0xA0 SHL SUB DUP4 DUP2 AND PUSH1 0x0 DUP2 DUP2 MSTORE PUSH1 0x1 PUSH1 0x20 SWAP1 DUP2 MSTORE PUSH1 0x40 DUP1 DUP4 KECCAK256 SWAP5 DUP8 AND DUP1 DUP5 MSTORE SWAP5 DUP3 MSTORE SWAP2 DUP3 SWAP1 KECCAK256 DUP6 SWAP1 SSTORE SWAP1 MLOAD DUP5 DUP2 MSTORE PUSH32 0x8C5BE1E5EBEC7D5BD14F71427D1E84F3DD0314C0F7B2291E5B200AC8C7C3B925 SWAP2 ADD PUSH1 0x40 MLOAD DUP1 SWAP2 SUB SWAP1 LOG3 POP POP POP JUMP JUMPDEST PUSH1 0x1 PUSH1 0x1 PUSH1 0xA0 SHL SUB DUP3 AND PUSH2 0xF80 JUMPI PUSH1 0x0 DUP1 REVERT JUMPDEST DUP1 PUSH1 0x2 PUSH1 0x0 DUP3 DUP3 SLOAD PUSH2 0xF92 SWAP2 SWAP1 PUSH2 0x1A54 JUMP JUMPDEST SWAP1 SWAP2 SSTORE POP POP PUSH1 0x1 PUSH1 0x1 PUSH1 0xA0 SHL SUB DUP3 AND PUSH1 0x0 SWAP1 DUP2 MSTORE PUSH1 0x20 DUP2 SWAP1 MSTORE PUSH1 0x40 DUP2 KECCAK256 DUP1 SLOAD DUP4 SWAP3 SWAP1 PUSH2 0xFBF SWAP1 DUP5 SWAP1 PUSH2 0x1A54 JUMP JUMPDEST SWAP1 SWAP2 SSTORE POP POP PUSH1 0x40 MLOAD DUP2 DUP2 MSTORE PUSH1 0x1 PUSH1 0x1 PUSH1 0xA0 SHL SUB DUP4 AND SWAP1 PUSH1 0x0 SWAP1 PUSH1 0x0 DUP1 MLOAD PUSH1 0x20 PUSH2 0x1AF1 DUP4 CODECOPY DUP2 MLOAD SWAP2 MSTORE SWAP1 PUSH1 0x20 ADD PUSH1 0x40 MLOAD DUP1 SWAP2 SUB SWAP1 LOG3 POP POP JUMP JUMPDEST PUSH1 0x0 JUMPDEST PUSH1 0xA SLOAD DUP2 LT ISZERO PUSH2 0x11C6 JUMPI PUSH2 0x2710 PUSH2 0x13EC PUSH1 0x6 PUSH1 0x0 SWAP1 SLOAD SWAP1 PUSH2 0x100 EXP SWAP1 DIV PUSH1 0x1 PUSH1 0x1 PUSH1 0xA0 SHL SUB AND PUSH1 0x1 PUSH1 0x1 PUSH1 0xA0 SHL SUB AND PUSH4 0x18160DDD PUSH1 0x40 MLOAD DUP2 PUSH4 0xFFFFFFFF AND PUSH1 0xE0 SHL DUP2 MSTORE PUSH1 0x4 ADD PUSH1 0x20 PUSH1 0x40 MLOAD DUP1 DUP4 SUB DUP2 DUP7 GAS STATICCALL ISZERO DUP1 ISZERO PUSH2 0x105D JUMPI RETURNDATASIZE PUSH1 0x0 DUP1 RETURNDATACOPY RETURNDATASIZE PUSH1 0x0 REVERT JUMPDEST POP POP POP POP PUSH1 0x40 MLOAD RETURNDATASIZE PUSH1 0x1F NOT PUSH1 0x1F DUP3 ADD AND DUP3 ADD DUP1 PUSH1 0x40 MSTORE POP DUP2 ADD SWAP1 PUSH2 0x1081 SWAP2 SWAP1 PUSH2 0x19E4 JUMP JUMPDEST PUSH2 0x108B SWAP2 SWAP1 PUSH2 0x1A13 JUMP JUMPDEST PUSH2 0x1095 SWAP2 SWAP1 PUSH2 0x1A32 JUMP JUMPDEST PUSH1 0x6 SLOAD PUSH1 0xA DUP1 SLOAD PUSH1 0x1 PUSH1 0x1 PUSH1 0xA0 SHL SUB SWAP1 SWAP3 AND SWAP2 PUSH4 0x70A08231 SWAP2 SWAP1 DUP6 SWAP1 DUP2 LT PUSH2 0x10BF JUMPI PUSH2 0x10BF PUSH2 0x1A6C JUMP JUMPDEST PUSH1 0x0 SWAP2 DUP3 MSTORE PUSH1 0x20 SWAP1 SWAP2 KECCAK256 ADD SLOAD PUSH1 0x40 MLOAD PUSH1 0x1 PUSH1 0x1 PUSH1 0xE0 SHL SUB NOT PUSH1 0xE0 DUP5 SWAP1 SHL AND DUP2 MSTORE PUSH2 0x10F5 SWAP2 PUSH1 0x1 PUSH1 0x1 PUSH1 0xA0 SHL SUB AND SWAP1 PUSH1 0x4 ADD PUSH2 0x1832 JUMP JUMPDEST PUSH1 0x20 PUSH1 0x40 MLOAD DUP1 DUP4 SUB DUP2 DUP7 GAS STATICCALL ISZERO DUP1 ISZERO PUSH2 0x1112 JUMPI RETURNDATASIZE PUSH1 0x0 DUP1 RETURNDATACOPY RETURNDATASIZE PUSH1 0x0 REVERT JUMPDEST POP POP POP POP PUSH1 0x40 MLOAD RETURNDATASIZE PUSH1 0x1F NOT PUSH1 0x1F DUP3 ADD AND DUP3 ADD DUP1 PUSH1 0x40 MSTORE POP DUP2 ADD SWAP1 PUSH2 0x1136 SWAP2 SWAP1 PUSH2 0x19E4 JUMP JUMPDEST LT PUSH2 0x11B4 JUMPI PUSH1 0x9 SLOAD PUSH1 0xA DUP1 SLOAD PUSH1 0x1 PUSH1 0x1 PUSH1 0xA0 SHL SUB SWAP1 SWAP3 AND SWAP2 DUP4 SWAP1 DUP2 LT PUSH2 0x115E JUMPI PUSH2 0x115E PUSH2 0x1A6C JUMP JUMPDEST PUSH1 0x0 SWAP2 DUP3 MSTORE PUSH1 0x20 SWAP1 SWAP2 KECCAK256 ADD SLOAD PUSH1 0x1 PUSH1 0x1 PUSH1 0xA0 SHL SUB AND EQ PUSH2 0x11B4 JUMPI PUSH1 0xC SLOAD TIMESTAMP GT ISZERO PUSH2 0x11B4 JUMPI PUSH2 0x11B2 PUSH1 0xA DUP3 DUP2 SLOAD DUP2 LT PUSH2 0x1198 JUMPI PUSH2 0x1198 PUSH2 0x1A6C JUMP JUMPDEST PUSH1 0x0 SWAP2 DUP3 MSTORE PUSH1 0x20 SWAP1 SWAP2 KECCAK256 ADD SLOAD PUSH1 0x1 PUSH1 0x1 PUSH1 0xA0 SHL SUB AND PUSH2 0xB88 JUMP JUMPDEST POP JUMPDEST DUP1 PUSH2 0x11BE DUP2 PUSH2 0x1A82 JUMP JUMPDEST SWAP2 POP POP PUSH2 0xFFA JUMP JUMPDEST POP PUSH2 0x7A6 DUP4 DUP4 DUP4 PUSH2 0x1371 JUMP JUMPDEST PUSH1 0x5 SLOAD PUSH1 0x1 PUSH1 0x1 PUSH1 0xA0 SHL SUB AND CALLER EQ PUSH2 0x88F JUMPI PUSH1 0x40 MLOAD PUSH3 0x461BCD PUSH1 0xE5 SHL DUP2 MSTORE PUSH1 0x20 PUSH1 0x4 DUP3 ADD DUP2 SWAP1 MSTORE PUSH1 0x24 DUP3 ADD MSTORE PUSH32 0x4F776E61626C653A2063616C6C6572206973206E6F7420746865206F776E6572 PUSH1 0x44 DUP3 ADD MSTORE PUSH1 0x64 ADD PUSH2 0xB76 JUMP JUMPDEST PUSH1 0x1 PUSH1 0x1 PUSH1 0xA0 SHL SUB DUP3 AND PUSH2 0x123F JUMPI PUSH1 0x0 DUP1 REVERT JUMPDEST PUSH1 0x1 PUSH1 0x1 PUSH1 0xA0 SHL SUB DUP3 AND PUSH1 0x0 SWAP1 DUP2 MSTORE PUSH1 0x20 DUP2 SWAP1 MSTORE PUSH1 0x40 SWAP1 KECCAK256 SLOAD DUP2 DUP2 LT ISZERO PUSH2 0x1265 JUMPI PUSH1 0x0 DUP1 REVERT JUMPDEST PUSH1 0x1 PUSH1 0x1 PUSH1 0xA0 SHL SUB DUP4 AND PUSH1 0x0 SWAP1 DUP2 MSTORE PUSH1 0x20 DUP2 SWAP1 MSTORE PUSH1 0x40 DUP2 KECCAK256 DUP4 DUP4 SUB SWAP1 SSTORE PUSH1 0x2 DUP1 SLOAD DUP5 SWAP3 SWAP1 PUSH2 0x1294 SWAP1 DUP5 SWAP1 PUSH2 0x1A9B JUMP JUMPDEST SWAP1 SWAP2 SSTORE POP POP PUSH1 0x40 MLOAD DUP3 DUP2 MSTORE PUSH1 0x0 SWAP1 PUSH1 0x1 PUSH1 0x1 PUSH1 0xA0 SHL SUB DUP6 AND SWAP1 PUSH1 0x0 DUP1 MLOAD PUSH1 0x20 PUSH2 0x1AF1 DUP4 CODECOPY DUP2 MLOAD SWAP2 MSTORE SWAP1 PUSH1 0x20 ADD PUSH1 0x40 MLOAD DUP1 SWAP2 SUB SWAP1 LOG3 POP POP POP JUMP JUMPDEST PUSH1 0x5 DUP1 SLOAD PUSH1 0x1 PUSH1 0x1 PUSH1 0xA0 SHL SUB DUP4 DUP2 AND PUSH1 0x1 PUSH1 0x1 PUSH1 0xA0 SHL SUB NOT DUP4 AND DUP2 OR SWAP1 SWAP4 SSTORE PUSH1 0x40 MLOAD SWAP2 AND SWAP2 SWAP1 DUP3 SWAP1 PUSH32 0x8BE0079C531659141344CD1FD0A4F28419497F9722A3DAAFE3B4186F6B6457E0 SWAP1 PUSH1 0x0 SWAP1 LOG3 POP POP JUMP JUMPDEST PUSH1 0x40 DUP1 MLOAD PUSH1 0x1 PUSH1 0x1 PUSH1 0xA0 SHL SUB DUP5 AND PUSH1 0x24 DUP3 ADD MSTORE PUSH1 0x44 DUP1 DUP3 ADD DUP5 SWAP1 MSTORE DUP3 MLOAD DUP1 DUP4 SUB SWAP1 SWAP2 ADD DUP2 MSTORE PUSH1 0x64 SWAP1 SWAP2 ADD SWAP1 SWAP2 MSTORE PUSH1 0x20 DUP2 ADD DUP1 MLOAD PUSH1 0x1 PUSH1 0x1 PUSH1 0xE0 SHL SUB AND PUSH4 0xA9059CBB PUSH1 0xE0 SHL OR SWAP1 MSTORE PUSH2 0x7A6 SWAP1 DUP5 SWAP1 PUSH2 0x143D JUMP JUMPDEST PUSH1 0x1 PUSH1 0x1 PUSH1 0xA0 SHL SUB DUP4 AND PUSH2 0x1384 JUMPI PUSH1 0x0 DUP1 REVERT JUMPDEST PUSH1 0x1 PUSH1 0x1 PUSH1 0xA0 SHL SUB DUP3 AND PUSH2 0x1397 JUMPI PUSH1 0x0 DUP1 REVERT JUMPDEST PUSH1 0x1 PUSH1 0x1 PUSH1 0xA0 SHL SUB DUP4 AND PUSH1 0x0 SWAP1 DUP2 MSTORE PUSH1 0x20 DUP2 SWAP1 MSTORE PUSH1 0x40 SWAP1 KECCAK256 SLOAD DUP2 DUP2 LT ISZERO PUSH2 0x13BD JUMPI PUSH1 0x0 DUP1 REVERT JUMPDEST PUSH1 0x1 PUSH1 0x1 PUSH1 0xA0 SHL SUB DUP1 DUP6 AND PUSH1 0x0 SWAP1 DUP2 MSTORE PUSH1 0x20 DUP2 SWAP1 MSTORE PUSH1 0x40 DUP1 DUP3 KECCAK256 DUP6 DUP6 SUB SWAP1 SSTORE SWAP2 DUP6 AND DUP2 MSTORE SWAP1 DUP2 KECCAK256 DUP1 SLOAD DUP5 SWAP3 SWAP1 PUSH2 0x13F4 SWAP1 DUP5 SWAP1 PUSH2 0x1A54 JUMP JUMPDEST SWAP3 POP POP DUP2 SWAP1 SSTORE POP DUP3 PUSH1 0x1 PUSH1 0x1 PUSH1 0xA0 SHL SUB AND DUP5 PUSH1 0x1 PUSH1 0x1 PUSH1 0xA0 SHL SUB AND PUSH1 0x0 DUP1 MLOAD PUSH1 0x20 PUSH2 0x1AF1 DUP4 CODECOPY DUP2 MLOAD SWAP2 MSTORE DUP5 PUSH1 0x40 MLOAD PUSH2 0x142E SWAP2 DUP2 MSTORE PUSH1 0x20 ADD SWAP1 JUMP JUMPDEST PUSH1 0x40 MLOAD DUP1 SWAP2 SUB SWAP1 LOG3 JUMPDEST POP POP POP POP JUMP JUMPDEST PUSH1 0x0 PUSH2 0x1492 DUP3 PUSH1 0x40 MLOAD DUP1 PUSH1 0x40 ADD PUSH1 0x40 MSTORE DUP1 PUSH1 0x20 DUP2 MSTORE PUSH1 0x20 ADD PUSH32 0x5361666545524332303A206C6F772D6C6576656C2063616C6C206661696C6564 DUP2 MSTORE POP DUP6 PUSH1 0x1 PUSH1 0x1 PUSH1 0xA0 SHL SUB AND PUSH2 0x150F SWAP1 SWAP3 SWAP2 SWAP1 PUSH4 0xFFFFFFFF AND JUMP JUMPDEST DUP1 MLOAD SWAP1 SWAP2 POP ISZERO PUSH2 0x7A6 JUMPI DUP1 DUP1 PUSH1 0x20 ADD SWAP1 MLOAD DUP2 ADD SWAP1 PUSH2 0x14B0 SWAP2 SWAP1 PUSH2 0x1AB2 JUMP JUMPDEST PUSH2 0x7A6 JUMPI PUSH1 0x40 MLOAD PUSH3 0x461BCD PUSH1 0xE5 SHL DUP2 MSTORE PUSH1 0x20 PUSH1 0x4 DUP3 ADD MSTORE PUSH1 0x2A PUSH1 0x24 DUP3 ADD MSTORE PUSH32 0x5361666545524332303A204552433230206F7065726174696F6E20646964206E PUSH1 0x44 DUP3 ADD MSTORE PUSH10 0x1BDD081CDD58D8D95959 PUSH1 0xB2 SHL PUSH1 0x64 DUP3 ADD MSTORE PUSH1 0x84 ADD PUSH2 0xB76 JUMP JUMPDEST PUSH1 0x60 PUSH2 0x151E DUP5 DUP5 PUSH1 0x0 DUP6 PUSH2 0x1526 JUMP JUMPDEST SWAP5 SWAP4 POP POP POP POP JUMP JUMPDEST PUSH1 0x60 DUP3 SELFBALANCE LT ISZERO PUSH2 0x1587 JUMPI PUSH1 0x40 MLOAD PUSH3 0x461BCD PUSH1 0xE5 SHL DUP2 MSTORE PUSH1 0x20 PUSH1 0x4 DUP3 ADD MSTORE PUSH1 0x26 PUSH1 0x24 DUP3 ADD MSTORE PUSH32 0x416464726573733A20696E73756666696369656E742062616C616E636520666F PUSH1 0x44 DUP3 ADD MSTORE PUSH6 0x1C8818D85B1B PUSH1 0xD2 SHL PUSH1 0x64 DUP3 ADD MSTORE PUSH1 0x84 ADD PUSH2 0xB76 JUMP JUMPDEST PUSH1 0x0 DUP1 DUP7 PUSH1 0x1 PUSH1 0x1 PUSH1 0xA0 SHL SUB AND DUP6 DUP8 PUSH1 0x40 MLOAD PUSH2 0x15A3 SWAP2 SWAP1 PUSH2 0x1AD4 JUMP JUMPDEST PUSH1 0x0 PUSH1 0x40 MLOAD DUP1 DUP4 SUB DUP2 DUP6 DUP8 GAS CALL SWAP3 POP POP POP RETURNDATASIZE DUP1 PUSH1 0x0 DUP2 EQ PUSH2 0x15E0 JUMPI PUSH1 0x40 MLOAD SWAP2 POP PUSH1 0x1F NOT PUSH1 0x3F RETURNDATASIZE ADD AND DUP3 ADD PUSH1 0x40 MSTORE RETURNDATASIZE DUP3 MSTORE RETURNDATASIZE PUSH1 0x0 PUSH1 0x20 DUP5 ADD RETURNDATACOPY PUSH2 0x15E5 JUMP JUMPDEST PUSH1 0x60 SWAP2 POP JUMPDEST POP SWAP2 POP SWAP2 POP PUSH2 0x15F6 DUP8 DUP4 DUP4 DUP8 PUSH2 0x1601 JUMP JUMPDEST SWAP8 SWAP7 POP POP POP POP POP POP POP JUMP JUMPDEST PUSH1 0x60 DUP4 ISZERO PUSH2 0x1670 JUMPI DUP3 MLOAD PUSH1 0x0 SUB PUSH2 0x1669 JUMPI PUSH1 0x1 PUSH1 0x1 PUSH1 0xA0 SHL SUB DUP6 AND EXTCODESIZE PUSH2 0x1669 JUMPI PUSH1 0x40 MLOAD PUSH3 0x461BCD PUSH1 0xE5 SHL DUP2 MSTORE PUSH1 0x20 PUSH1 0x4 DUP3 ADD MSTORE PUSH1 0x1D PUSH1 0x24 DUP3 ADD MSTORE PUSH32 0x416464726573733A2063616C6C20746F206E6F6E2D636F6E7472616374000000 PUSH1 0x44 DUP3 ADD MSTORE PUSH1 0x64 ADD PUSH2 0xB76 JUMP JUMPDEST POP DUP2 PUSH2 0x151E JUMP JUMPDEST PUSH2 0x151E DUP4 DUP4 DUP2 MLOAD ISZERO PUSH2 0x1685 JUMPI DUP2 MLOAD DUP1 DUP4 PUSH1 0x20 ADD REVERT JUMPDEST DUP1 PUSH1 0x40 MLOAD PUSH3 0x461BCD PUSH1 0xE5 SHL DUP2 MSTORE PUSH1 0x4 ADD PUSH2 0xB76 SWAP2 SWAP1 PUSH2 0x17A5 JUMP JUMPDEST DUP3 DUP1 SLOAD PUSH2 0x16AB SWAP1 PUSH2 0x19AA JUMP JUMPDEST SWAP1 PUSH1 0x0 MSTORE PUSH1 0x20 PUSH1 0x0 KECCAK256 SWAP1 PUSH1 0x1F ADD PUSH1 0x20 SWAP1 DIV DUP2 ADD SWAP3 DUP3 PUSH2 0x16CD JUMPI PUSH1 0x0 DUP6 SSTORE PUSH2 0x1713 JUMP JUMPDEST DUP3 PUSH1 0x1F LT PUSH2 0x16E6 JUMPI DUP1 MLOAD PUSH1 0xFF NOT AND DUP4 DUP1 ADD OR DUP6 SSTORE PUSH2 0x1713 JUMP JUMPDEST DUP3 DUP1 ADD PUSH1 0x1 ADD DUP6 SSTORE DUP3 ISZERO PUSH2 0x1713 JUMPI SWAP2 DUP3 ADD JUMPDEST DUP3 DUP2 GT ISZERO PUSH2 0x1713 JUMPI DUP3 MLOAD DUP3 SSTORE SWAP2 PUSH1 0x20 ADD SWAP2 SWAP1 PUSH1 0x1 ADD SWAP1 PUSH2 0x16F8 JUMP JUMPDEST POP PUSH2 0x171F SWAP3 SWAP2 POP PUSH2 0x1723 JUMP JUMPDEST POP SWAP1 JUMP JUMPDEST JUMPDEST DUP1 DUP3 GT ISZERO PUSH2 0x171F JUMPI PUSH1 0x0 DUP2 SSTORE PUSH1 0x1 ADD PUSH2 0x1724 JUMP JUMPDEST PUSH1 0x1 PUSH1 0x1 PUSH1 0xA0 SHL SUB DUP2 AND DUP2 EQ PUSH2 0xAFD JUMPI PUSH1 0x0 DUP1 REVERT JUMPDEST PUSH1 0x0 DUP1 PUSH1 0x40 DUP4 DUP6 SUB SLT ISZERO PUSH2 0x1760 JUMPI PUSH1 0x0 DUP1 REVERT JUMPDEST DUP3 CALLDATALOAD PUSH2 0x176B DUP2 PUSH2 0x1738 JUMP JUMPDEST SWAP5 PUSH1 0x20 SWAP4 SWAP1 SWAP4 ADD CALLDATALOAD SWAP4 POP POP POP JUMP JUMPDEST PUSH1 0x0 JUMPDEST DUP4 DUP2 LT ISZERO PUSH2 0x1794 JUMPI DUP2 DUP2 ADD MLOAD DUP4 DUP3 ADD MSTORE PUSH1 0x20 ADD PUSH2 0x177C JUMP JUMPDEST DUP4 DUP2 GT ISZERO PUSH2 0x1437 JUMPI POP POP PUSH1 0x0 SWAP2 ADD MSTORE JUMP JUMPDEST PUSH1 0x20 DUP2 MSTORE PUSH1 0x0 DUP3 MLOAD DUP1 PUSH1 0x20 DUP5 ADD MSTORE PUSH2 0x17C4 DUP2 PUSH1 0x40 DUP6 ADD PUSH1 0x20 DUP8 ADD PUSH2 0x1779 JUMP JUMPDEST PUSH1 0x1F ADD PUSH1 0x1F NOT AND SWAP2 SWAP1 SWAP2 ADD PUSH1 0x40 ADD SWAP3 SWAP2 POP POP JUMP JUMPDEST PUSH1 0x0 DUP1 PUSH1 0x0 PUSH1 0x60 DUP5 DUP7 SUB SLT ISZERO PUSH2 0x17ED JUMPI PUSH1 0x0 DUP1 REVERT JUMPDEST DUP4 CALLDATALOAD PUSH2 0x17F8 DUP2 PUSH2 0x1738 JUMP JUMPDEST SWAP3 POP PUSH1 0x20 DUP5 ADD CALLDATALOAD PUSH2 0x1808 DUP2 PUSH2 0x1738 JUMP JUMPDEST SWAP3 SWAP6 SWAP3 SWAP5 POP POP POP PUSH1 0x40 SWAP2 SWAP1 SWAP2 ADD CALLDATALOAD SWAP1 JUMP JUMPDEST PUSH1 0x0 PUSH1 0x20 DUP3 DUP5 SUB SLT ISZERO PUSH2 0x182B JUMPI PUSH1 0x0 DUP1 REVERT JUMPDEST POP CALLDATALOAD SWAP2 SWAP1 POP JUMP JUMPDEST PUSH1 0x1 PUSH1 0x1 PUSH1 0xA0 SHL SUB SWAP2 SWAP1 SWAP2 AND DUP2 MSTORE PUSH1 0x20 ADD SWAP1 JUMP JUMPDEST PUSH1 0x0 PUSH1 0x20 DUP3 DUP5 SUB SLT ISZERO PUSH2 0x1858 JUMPI PUSH1 0x0 DUP1 REVERT JUMPDEST DUP2 CALLDATALOAD PUSH2 0x1863 DUP2 PUSH2 0x1738 JUMP JUMPDEST SWAP4 SWAP3 POP POP POP JUMP JUMPDEST PUSH4 0x4E487B71 PUSH1 0xE0 SHL PUSH1 0x0 MSTORE PUSH1 0x41 PUSH1 0x4 MSTORE PUSH1 0x24 PUSH1 0x0 REVERT JUMPDEST PUSH1 0x0 DUP3 PUSH1 0x1F DUP4 ADD SLT PUSH2 0x1891 JUMPI PUSH1 0x0 DUP1 REVERT JUMPDEST DUP2 CALLDATALOAD PUSH8 0xFFFFFFFFFFFFFFFF DUP1 DUP3 GT ISZERO PUSH2 0x18AC JUMPI PUSH2 0x18AC PUSH2 0x186A JUMP JUMPDEST PUSH1 0x40 MLOAD PUSH1 0x1F DUP4 ADD PUSH1 0x1F NOT SWAP1 DUP2 AND PUSH1 0x3F ADD AND DUP2 ADD SWAP1 DUP3 DUP3 GT DUP2 DUP4 LT OR ISZERO PUSH2 0x18D4 JUMPI PUSH2 0x18D4 PUSH2 0x186A JUMP JUMPDEST DUP2 PUSH1 0x40 MSTORE DUP4 DUP2 MSTORE DUP7 PUSH1 0x20 DUP6 DUP9 ADD ADD GT ISZERO PUSH2 0x18ED JUMPI PUSH1 0x0 DUP1 REVERT JUMPDEST DUP4 PUSH1 0x20 DUP8 ADD PUSH1 0x20 DUP4 ADD CALLDATACOPY PUSH1 0x0 PUSH1 0x20 DUP6 DUP4 ADD ADD MSTORE DUP1 SWAP5 POP POP POP POP POP SWAP3 SWAP2 POP POP JUMP JUMPDEST PUSH1 0x0 DUP1 PUSH1 0x40 DUP4 DUP6 SUB SLT ISZERO PUSH2 0x1920 JUMPI PUSH1 0x0 DUP1 REVERT JUMPDEST DUP3 CALLDATALOAD PUSH8 0xFFFFFFFFFFFFFFFF DUP1 DUP3 GT ISZERO PUSH2 0x1938 JUMPI PUSH1 0x0 DUP1 REVERT JUMPDEST PUSH2 0x1944 DUP7 DUP4 DUP8 ADD PUSH2 0x1880 JUMP JUMPDEST SWAP4 POP PUSH1 0x20 DUP6 ADD CALLDATALOAD SWAP2 POP DUP1 DUP3 GT ISZERO PUSH2 0x195A JUMPI PUSH1 0x0 DUP1 REVERT JUMPDEST POP PUSH2 0x1967 DUP6 DUP3 DUP7 ADD PUSH2 0x1880 JUMP JUMPDEST SWAP2 POP POP SWAP3 POP SWAP3 SWAP1 POP JUMP JUMPDEST PUSH1 0x0 DUP1 PUSH1 0x40 DUP4 DUP6 SUB SLT ISZERO PUSH2 0x1984 JUMPI PUSH1 0x0 DUP1 REVERT JUMPDEST DUP3 CALLDATALOAD PUSH2 0x198F DUP2 PUSH2 0x1738 JUMP JUMPDEST SWAP2 POP PUSH1 0x20 DUP4 ADD CALLDATALOAD PUSH2 0x199F DUP2 PUSH2 0x1738 JUMP JUMPDEST DUP1 SWAP2 POP POP SWAP3 POP SWAP3 SWAP1 POP JUMP JUMPDEST PUSH1 0x1 DUP2 DUP2 SHR SWAP1 DUP3 AND DUP1 PUSH2 0x19BE JUMPI PUSH1 0x7F DUP3 AND SWAP2 POP JUMPDEST PUSH1 0x20 DUP3 LT DUP2 SUB PUSH2 0x19DE JUMPI PUSH4 0x4E487B71 PUSH1 0xE0 SHL PUSH1 0x0 MSTORE PUSH1 0x22 PUSH1 0x4 MSTORE PUSH1 0x24 PUSH1 0x0 REVERT JUMPDEST POP SWAP2 SWAP1 POP JUMP JUMPDEST PUSH1 0x0 PUSH1 0x20 DUP3 DUP5 SUB SLT ISZERO PUSH2 0x19F6 JUMPI PUSH1 0x0 DUP1 REVERT JUMPDEST POP MLOAD SWAP2 SWAP1 POP JUMP JUMPDEST PUSH4 0x4E487B71 PUSH1 0xE0 SHL PUSH1 0x0 MSTORE PUSH1 0x11 PUSH1 0x4 MSTORE PUSH1 0x24 PUSH1 0x0 REVERT JUMPDEST PUSH1 0x0 DUP2 PUSH1 0x0 NOT DIV DUP4 GT DUP3 ISZERO ISZERO AND ISZERO PUSH2 0x1A2D JUMPI PUSH2 0x1A2D PUSH2 0x19FD JUMP JUMPDEST POP MUL SWAP1 JUMP JUMPDEST PUSH1 0x0 DUP3 PUSH2 0x1A4F JUMPI PUSH4 0x4E487B71 PUSH1 0xE0 SHL PUSH1 0x0 MSTORE PUSH1 0x12 PUSH1 0x4 MSTORE PUSH1 0x24 PUSH1 0x0 REVERT JUMPDEST POP DIV SWAP1 JUMP JUMPDEST PUSH1 0x0 DUP3 NOT DUP3 GT ISZERO PUSH2 0x1A67 JUMPI PUSH2 0x1A67 PUSH2 0x19FD JUMP JUMPDEST POP ADD SWAP1 JUMP JUMPDEST PUSH4 0x4E487B71 PUSH1 0xE0 SHL PUSH1 0x0 MSTORE PUSH1 0x32 PUSH1 0x4 MSTORE PUSH1 0x24 PUSH1 0x0 REVERT JUMPDEST PUSH1 0x0 PUSH1 0x1 DUP3 ADD PUSH2 0x1A94 JUMPI PUSH2 0x1A94 PUSH2 0x19FD JUMP JUMPDEST POP PUSH1 0x1 ADD SWAP1 JUMP JUMPDEST PUSH1 0x0 DUP3 DUP3 LT ISZERO PUSH2 0x1AAD JUMPI PUSH2 0x1AAD PUSH2 0x19FD JUMP JUMPDEST POP SUB SWAP1 JUMP JUMPDEST PUSH1 0x0 PUSH1 0x20 DUP3 DUP5 SUB SLT ISZERO PUSH2 0x1AC4 JUMPI PUSH1 0x0 DUP1 REVERT JUMPDEST DUP2 MLOAD DUP1 ISZERO ISZERO DUP2 EQ PUSH2 0x1863 JUMPI PUSH1 0x0 DUP1 REVERT JUMPDEST PUSH1 0x0 DUP3 MLOAD PUSH2 0x1AE6 DUP2 DUP5 PUSH1 0x20 DUP8 ADD PUSH2 0x1779 JUMP JUMPDEST SWAP2 SWAP1 SWAP2 ADD SWAP3 SWAP2 POP POP JUMP INVALID 0xDD CALLCODE MSTORE 0xAD SHL 0xE2 0xC8 SWAP12 PUSH10 0xC2B068FC378DAA952BA7 CALL PUSH4 0xC4A11628 CREATE2 GAS 0x4D CREATE2 0x23 0xB3 0xEF LOG2 PUSH5 0x6970667358 0x22 SLT KECCAK256 0xEC PUSH21 0xB497EBFCCCCC36AED5B863A3B4309A3F26F187F6C6 0xE3 0x2D ADDRESS LOG1 PUSH23 0x1BAB17164736F6C634300080D00338BE0079C53165914 SGT DIFFICULTY 0xCD 0x1F 0xD0 LOG4 CALLCODE DUP5 NOT 0x49 PUSH32 0x9722A3DAAFE3B4186F6B6457E0A2646970667358221220564ACEABEE024600C2 DUP13 0xE8 DUP13 0x4F PUSH7 0x233CB3C635C6A SWAP12 0xE1 0xD2 0xE3 CALLER EXP CODESIZE 0xE7 REVERT MUL CALLDATASIZE PUSH5 0x736F6C6343 STOP ADDMOD 0xD STOP CALLER PUSH1 0xE0 PUSH1 0x40 MSTORE PUSH1 0x4 PUSH1 0xA0 DUP2 SWAP1 MSTORE PUSH4 0x784FCA49 PUSH1 0xE1 SHL PUSH1 0xC0 SWAP1 DUP2 MSTORE PUSH3 0x27 SWAP2 PUSH1 0x8 SWAP2 SWAP1 PUSH3 0x239 JUMP JUMPDEST POP PUSH1 0x40 DUP1 MLOAD DUP1 DUP3 ADD SWAP1 SWAP2 MSTORE PUSH1 0x4 DUP1 DUP3 MSTORE PUSH4 0xF09F9491 PUSH1 0xE0 SHL PUSH1 0x20 SWAP1 SWAP3 ADD SWAP2 DUP3 MSTORE PUSH3 0x55 SWAP2 PUSH1 0x9 SWAP2 PUSH3 0x239 JUMP JUMPDEST POP PUSH1 0xA DUP1 SLOAD PUSH1 0x1 PUSH1 0x1 PUSH1 0xA0 SHL SUB NOT SWAP1 DUP2 AND PUSH20 0x50134FD4EA6547846EDE4C4BF46A334B7E87CCD OR SWAP1 SWAP2 SSTORE PUSH1 0xB DUP1 SLOAD DUP3 AND PUSH20 0xD166DF9DFB917C3B960673E2F420F928D45C9BE1 OR SWAP1 SSTORE PUSH2 0x1388 PUSH1 0xC SSTORE PUSH2 0x2710 PUSH1 0x80 DUP2 SWAP1 MSTORE PUSH1 0xD DUP1 SLOAD SWAP1 SWAP3 AND PUSH20 0x67954768E721FAD0F0F21E33E874497C73ED6A82 OR SWAP1 SWAP2 SSTORE PUSH1 0x10 SSTORE PUSH2 0x2EE PUSH1 0x11 SSTORE PUSH1 0x0 PUSH1 0x12 DUP2 SWAP1 SSTORE PUSH1 0x13 SSTORE PUSH7 0xD801472258000 PUSH1 0x14 SSTORE PUSH10 0x34F086F3B33B68400000 PUSH1 0x15 SSTORE PUSH10 0xD3C21BCECCEDA1000000 PUSH1 0x16 SSTORE PUSH1 0x17 DUP1 SLOAD PUSH1 0xFF NOT AND SWAP1 SSTORE PUSH1 0x40 MLOAD PUSH3 0x6822 CODESIZE DUP2 SWAP1 SUB SWAP1 DUP2 SWAP1 DUP4 CODECOPY DUP2 ADD PUSH1 0x40 DUP2 SWAP1 MSTORE PUSH3 0x131 SWAP2 PUSH3 0x2ED JUMP JUMPDEST PUSH1 0xA SLOAD PUSH1 0xB SLOAD PUSH1 0x0 DUP1 SLOAD PUSH1 0x1 PUSH1 0x1 PUSH1 0xA0 SHL SUB NOT AND CALLER SWAP1 DUP2 OR DUP3 SSTORE DUP2 MSTORE PUSH1 0x1 PUSH1 0x20 DUP2 SWAP1 MSTORE PUSH1 0x40 DUP1 DUP4 KECCAK256 DUP1 SLOAD PUSH1 0xFF NOT SWAP1 DUP2 AND DUP5 OR SWAP1 SWAP2 SSTORE PUSH1 0x1 PUSH1 0x1 PUSH1 0xA0 SHL SUB SWAP6 DUP7 AND DUP5 MSTORE DUP2 DUP5 KECCAK256 DUP1 SLOAD DUP3 AND DUP5 OR SWAP1 SSTORE SWAP5 SWAP1 SWAP4 AND DUP3 MSTORE SWAP2 SWAP1 KECCAK256 DUP1 SLOAD SWAP1 SWAP3 AND OR SWAP1 SSTORE DUP1 PUSH3 0x198 CALLER SWAP1 JUMP JUMPDEST PUSH1 0x40 DUP1 MLOAD DUP1 DUP3 ADD DUP3 MSTORE PUSH1 0x3 DUP2 MSTORE PUSH3 0x8AA89 PUSH1 0xEB SHL PUSH1 0x20 DUP3 ADD MSTORE SWAP1 MLOAD PUSH3 0x1BE SWAP1 PUSH3 0x2C8 JUMP JUMPDEST PUSH3 0x1CC SWAP4 SWAP3 SWAP2 SWAP1 PUSH3 0x31F JUMP JUMPDEST PUSH1 0x40 MLOAD DUP1 SWAP2 SUB SWAP1 PUSH1 0x0 CREATE DUP1 ISZERO DUP1 ISZERO PUSH3 0x1E9 JUMPI RETURNDATASIZE PUSH1 0x0 DUP1 RETURNDATACOPY RETURNDATASIZE PUSH1 0x0 REVERT JUMPDEST POP PUSH1 0x0 DUP1 MSTORE PUSH1 0x4 PUSH1 0x20 MSTORE PUSH32 0x17EF568E3E12AB5B9C7254A8D58478811DE00F9E6EB34345ACD53BF8FD09D3EC DUP1 SLOAD PUSH1 0x1 PUSH1 0x1 PUSH1 0xA0 SHL SUB NOT AND PUSH1 0x1 PUSH1 0x1 PUSH1 0xA0 SHL SUB SWAP3 SWAP1 SWAP3 AND SWAP2 SWAP1 SWAP2 OR SWAP1 SSTORE POP PUSH3 0x3CF JUMP JUMPDEST DUP3 DUP1 SLOAD PUSH3 0x247 SWAP1 PUSH3 0x393 JUMP JUMPDEST SWAP1 PUSH1 0x0 MSTORE PUSH1 0x20 PUSH1 0x0 KECCAK256 SWAP1 PUSH1 0x1F ADD PUSH1 0x20 SWAP1 DIV DUP2 ADD SWAP3 DUP3 PUSH3 0x26B JUMPI PUSH1 0x0 DUP6 SSTORE PUSH3 0x2B6 JUMP JUMPDEST DUP3 PUSH1 0x1F LT PUSH3 0x286 JUMPI DUP1 MLOAD PUSH1 0xFF NOT AND DUP4 DUP1 ADD OR DUP6 SSTORE PUSH3 0x2B6 JUMP JUMPDEST DUP3 DUP1 ADD PUSH1 0x1 ADD DUP6 SSTORE DUP3 ISZERO PUSH3 0x2B6 JUMPI SWAP2 DUP3 ADD JUMPDEST DUP3 DUP2 GT ISZERO PUSH3 0x2B6 JUMPI DUP3 MLOAD DUP3 SSTORE SWAP2 PUSH1 0x20 ADD SWAP2 SWAP1 PUSH1 0x1 ADD SWAP1 PUSH3 0x299 JUMP JUMPDEST POP PUSH3 0x2C4 SWAP3 SWAP2 POP PUSH3 0x2D6 JUMP JUMPDEST POP SWAP1 JUMP JUMPDEST PUSH2 0x201E DUP1 PUSH3 0x4804 DUP4 CODECOPY ADD SWAP1 JUMP JUMPDEST JUMPDEST DUP1 DUP3 GT ISZERO PUSH3 0x2C4 JUMPI PUSH1 0x0 DUP2 SSTORE PUSH1 0x1 ADD PUSH3 0x2D7 JUMP JUMPDEST PUSH1 0x0 PUSH1 0x20 DUP3 DUP5 SUB SLT ISZERO PUSH3 0x300 JUMPI PUSH1 0x0 DUP1 REVERT JUMPDEST DUP2 MLOAD PUSH1 0x1 PUSH1 0x1 PUSH1 0xA0 SHL SUB DUP2 AND DUP2 EQ PUSH3 0x318 JUMPI PUSH1 0x0 DUP1 REVERT JUMPDEST SWAP4 SWAP3 POP POP POP JUMP JUMPDEST PUSH1 0x0 PUSH1 0x1 DUP1 PUSH1 0xA0 SHL SUB DUP1 DUP7 AND DUP4 MSTORE PUSH1 0x20 DUP2 DUP7 AND DUP2 DUP6 ADD MSTORE PUSH1 0x60 PUSH1 0x40 DUP6 ADD MSTORE DUP5 MLOAD SWAP2 POP DUP2 PUSH1 0x60 DUP6 ADD MSTORE PUSH1 0x0 JUMPDEST DUP3 DUP2 LT ISZERO PUSH3 0x368 JUMPI DUP6 DUP2 ADD DUP3 ADD MLOAD DUP6 DUP3 ADD PUSH1 0x80 ADD MSTORE DUP2 ADD PUSH3 0x34A JUMP JUMPDEST DUP3 DUP2 GT ISZERO PUSH3 0x37B JUMPI PUSH1 0x0 PUSH1 0x80 DUP5 DUP8 ADD ADD MSTORE JUMPDEST POP POP PUSH1 0x1F ADD PUSH1 0x1F NOT AND SWAP2 SWAP1 SWAP2 ADD PUSH1 0x80 ADD SWAP5 SWAP4 POP POP POP POP JUMP JUMPDEST PUSH1 0x1 DUP2 DUP2 SHR SWAP1 DUP3 AND DUP1 PUSH3 0x3A8 JUMPI PUSH1 0x7F DUP3 AND SWAP2 POP JUMPDEST PUSH1 0x20 DUP3 LT DUP2 SUB PUSH3 0x3C9 JUMPI PUSH4 0x4E487B71 PUSH1 0xE0 SHL PUSH1 0x0 MSTORE PUSH1 0x22 PUSH1 0x4 MSTORE PUSH1 0x24 PUSH1 0x0 REVERT JUMPDEST POP SWAP2 SWAP1 POP JUMP JUMPDEST PUSH1 0x80 MLOAD PUSH2 0x440B PUSH3 0x3F9 PUSH1 0x0 CODECOPY PUSH1 0x0 DUP2 DUP2 PUSH2 0xCBD ADD MSTORE DUP2 DUP2 PUSH2 0x1152 ADD MSTORE PUSH2 0x1694 ADD MSTORE PUSH2 0x440B PUSH1 0x0 RETURN INVALID PUSH1 0x80 PUSH1 0x40 MSTORE PUSH1 0x4 CALLDATASIZE LT PUSH3 0x12B JUMPI PUSH1 0x0 CALLDATALOAD PUSH1 0xE0 SHR DUP1 PUSH4 0x8CD0ACC3 GT PUSH3 0xA5 JUMPI DUP1 PUSH4 0x8CD0ACC3 EQ PUSH3 0x2B4 JUMPI DUP1 PUSH4 0x95D89B41 EQ PUSH3 0x2D9 JUMPI DUP1 PUSH4 0xB20B119C EQ PUSH3 0x2F1 JUMPI DUP1 PUSH4 0xB6A5D7DE EQ PUSH3 0x309 JUMPI DUP1 PUSH4 0xC6ECEB10 EQ PUSH3 0x32E JUMPI DUP1 PUSH4 0xC79D4391 EQ PUSH3 0x346 JUMPI DUP1 PUSH4 0xD9A06DBD EQ PUSH3 0x36B JUMPI DUP1 PUSH4 0xDB236D96 EQ PUSH3 0x390 JUMPI DUP1 PUSH4 0xDBBA0F01 EQ PUSH3 0x3E9 JUMPI DUP1 PUSH4 0xDD457D76 EQ PUSH3 0x40E JUMPI DUP1 PUSH4 0xF0B37C04 EQ PUSH3 0x433 JUMPI STOP JUMPDEST DUP1 PUSH4 0x6FDDE03 EQ PUSH3 0x135 JUMPI DUP1 PUSH4 0xCBA52F9 EQ PUSH3 0x165 JUMPI DUP1 PUSH4 0x3CCFD60B EQ PUSH3 0x18D JUMPI DUP1 PUSH4 0x43602017 EQ PUSH3 0x1A5 JUMPI DUP1 PUSH4 0x528856F4 EQ PUSH3 0x1CA JUMPI DUP1 PUSH4 0x560D9995 EQ PUSH3 0x1EF JUMPI DUP1 PUSH4 0x570E9F70 EQ PUSH3 0x206 JUMPI DUP1 PUSH4 0x6532D899 EQ PUSH3 0x22D JUMPI DUP1 PUSH4 0x7D21BBE2 EQ PUSH3 0x252 JUMPI DUP1 PUSH4 0x841BA87D EQ PUSH3 0x277 JUMPI DUP1 PUSH4 0x89476069 EQ PUSH3 0x28F JUMPI STOP JUMPDEST CALLDATASIZE PUSH3 0x133 JUMPI STOP JUMPDEST STOP JUMPDEST CALLVALUE DUP1 ISZERO PUSH3 0x142 JUMPI PUSH1 0x0 DUP1 REVERT JUMPDEST POP PUSH3 0x14D PUSH3 0x458 JUMP JUMPDEST PUSH1 0x40 MLOAD PUSH3 0x15C SWAP2 SWAP1 PUSH3 0x1D00 JUMP JUMPDEST PUSH1 0x40 MLOAD DUP1 SWAP2 SUB SWAP1 RETURN JUMPDEST PUSH3 0x17C PUSH3 0x176 CALLDATASIZE PUSH1 0x4 PUSH3 0x1E7A JUMP JUMPDEST PUSH3 0x4EE JUMP JUMPDEST PUSH1 0x40 MLOAD SWAP1 ISZERO ISZERO DUP2 MSTORE PUSH1 0x20 ADD PUSH3 0x15C JUMP JUMPDEST CALLVALUE DUP1 ISZERO PUSH3 0x19A JUMPI PUSH1 0x0 DUP1 REVERT JUMPDEST POP PUSH3 0x133 PUSH3 0x679 JUMP JUMPDEST CALLVALUE DUP1 ISZERO PUSH3 0x1B2 JUMPI PUSH1 0x0 DUP1 REVERT JUMPDEST POP PUSH3 0x133 PUSH3 0x1C4 CALLDATASIZE PUSH1 0x4 PUSH3 0x1EE4 JUMP JUMPDEST PUSH3 0x79D JUMP JUMPDEST CALLVALUE DUP1 ISZERO PUSH3 0x1D7 JUMPI PUSH1 0x0 DUP1 REVERT JUMPDEST POP PUSH3 0x17C PUSH3 0x1E9 CALLDATASIZE PUSH1 0x4 PUSH3 0x1F04 JUMP JUMPDEST PUSH3 0x7C0 JUMP JUMPDEST PUSH3 0x17C PUSH3 0x200 CALLDATASIZE PUSH1 0x4 PUSH3 0x1F6B JUMP JUMPDEST PUSH3 0x903 JUMP JUMPDEST CALLVALUE DUP1 ISZERO PUSH3 0x213 JUMPI PUSH1 0x0 DUP1 REVERT JUMPDEST POP PUSH3 0x21E PUSH1 0x11 SLOAD DUP2 JUMP JUMPDEST PUSH1 0x40 MLOAD SWAP1 DUP2 MSTORE PUSH1 0x20 ADD PUSH3 0x15C JUMP JUMPDEST CALLVALUE DUP1 ISZERO PUSH3 0x23A JUMPI PUSH1 0x0 DUP1 REVERT JUMPDEST POP PUSH3 0x17C PUSH3 0x24C CALLDATASIZE PUSH1 0x4 PUSH3 0x1FA7 JUMP JUMPDEST PUSH3 0xB9D JUMP JUMPDEST CALLVALUE DUP1 ISZERO PUSH3 0x25F JUMPI PUSH1 0x0 DUP1 REVERT JUMPDEST POP PUSH3 0x17C PUSH3 0x271 CALLDATASIZE PUSH1 0x4 PUSH3 0x1FE3 JUMP JUMPDEST PUSH3 0xC2D JUMP JUMPDEST CALLVALUE DUP1 ISZERO PUSH3 0x284 JUMPI PUSH1 0x0 DUP1 REVERT JUMPDEST POP PUSH3 0x21E PUSH1 0x13 SLOAD DUP2 JUMP JUMPDEST CALLVALUE DUP1 ISZERO PUSH3 0x29C JUMPI PUSH1 0x0 DUP1 REVERT JUMPDEST POP PUSH3 0x133 PUSH3 0x2AE CALLDATASIZE PUSH1 0x4 PUSH3 0x1EE4 JUMP JUMPDEST PUSH3 0xDFD JUMP JUMPDEST CALLVALUE DUP1 ISZERO PUSH3 0x2C1 JUMPI PUSH1 0x0 DUP1 REVERT JUMPDEST POP PUSH3 0x17C PUSH3 0x2D3 CALLDATASIZE PUSH1 0x4 PUSH3 0x2058 JUMP JUMPDEST PUSH3 0x1015 JUMP JUMPDEST CALLVALUE DUP1 ISZERO PUSH3 0x2E6 JUMPI PUSH1 0x0 DUP1 REVERT JUMPDEST POP PUSH3 0x14D PUSH3 0x1064 JUMP JUMPDEST CALLVALUE DUP1 ISZERO PUSH3 0x2FE JUMPI PUSH1 0x0 DUP1 REVERT JUMPDEST POP PUSH3 0x21E PUSH1 0x12 SLOAD DUP2 JUMP JUMPDEST CALLVALUE DUP1 ISZERO PUSH3 0x316 JUMPI PUSH1 0x0 DUP1 REVERT JUMPDEST POP PUSH3 0x133 PUSH3 0x328 CALLDATASIZE PUSH1 0x4 PUSH3 0x1EE4 JUMP JUMPDEST PUSH3 0x1073 JUMP JUMPDEST CALLVALUE DUP1 ISZERO PUSH3 0x33B JUMPI PUSH1 0x0 DUP1 REVERT JUMPDEST POP PUSH3 0x21E PUSH1 0x14 SLOAD DUP2 JUMP JUMPDEST CALLVALUE DUP1 ISZERO PUSH3 0x353 JUMPI PUSH1 0x0 DUP1 REVERT JUMPDEST POP PUSH3 0x17C PUSH3 0x365 CALLDATASIZE PUSH1 0x4 PUSH3 0x1FE3 JUMP JUMPDEST PUSH3 0x10AF JUMP JUMPDEST CALLVALUE DUP1 ISZERO PUSH3 0x378 JUMPI PUSH1 0x0 DUP1 REVERT JUMPDEST POP PUSH3 0x133 PUSH3 0x38A CALLDATASIZE PUSH1 0x4 PUSH3 0x2096 JUMP JUMPDEST PUSH3 0x1293 JUMP JUMPDEST CALLVALUE DUP1 ISZERO PUSH3 0x39D JUMPI PUSH1 0x0 DUP1 REVERT JUMPDEST POP PUSH3 0x3DA PUSH3 0x3AF CALLDATASIZE PUSH1 0x4 PUSH3 0x1EE4 JUMP JUMPDEST PUSH1 0x1 PUSH1 0x1 PUSH1 0xA0 SHL SUB SWAP1 DUP2 AND PUSH1 0x0 SWAP1 DUP2 MSTORE PUSH1 0x7 PUSH1 0x20 SWAP1 DUP2 MSTORE PUSH1 0x40 DUP1 DUP4 KECCAK256 SLOAD DUP4 MSTORE PUSH1 0x4 SWAP1 SWAP2 MSTORE SWAP1 KECCAK256 SLOAD AND SWAP1 JUMP JUMPDEST PUSH1 0x40 MLOAD PUSH3 0x15C SWAP2 SWAP1 PUSH3 0x2114 JUMP JUMPDEST CALLVALUE DUP1 ISZERO PUSH3 0x3F6 JUMPI PUSH1 0x0 DUP1 REVERT JUMPDEST POP PUSH3 0x17C PUSH3 0x408 CALLDATASIZE PUSH1 0x4 PUSH3 0x1FA7 JUMP JUMPDEST PUSH3 0x132B JUMP JUMPDEST CALLVALUE DUP1 ISZERO PUSH3 0x41B JUMPI PUSH1 0x0 DUP1 REVERT JUMPDEST POP PUSH3 0x17C PUSH3 0x42D CALLDATASIZE PUSH1 0x4 PUSH3 0x1FE3 JUMP JUMPDEST PUSH3 0x14A8 JUMP JUMPDEST CALLVALUE DUP1 ISZERO PUSH3 0x440 JUMPI PUSH1 0x0 DUP1 REVERT JUMPDEST POP PUSH3 0x133 PUSH3 0x452 CALLDATASIZE PUSH1 0x4 PUSH3 0x1EE4 JUMP JUMPDEST PUSH3 0x1625 JUMP JUMPDEST PUSH1 0x8 DUP1 SLOAD PUSH3 0x467 SWAP1 PUSH3 0x2128 JUMP JUMPDEST DUP1 PUSH1 0x1F ADD PUSH1 0x20 DUP1 SWAP2 DIV MUL PUSH1 0x20 ADD PUSH1 0x40 MLOAD SWAP1 DUP2 ADD PUSH1 0x40 MSTORE DUP1 SWAP3 SWAP2 SWAP1 DUP2 DUP2 MSTORE PUSH1 0x20 ADD DUP3 DUP1 SLOAD PUSH3 0x495 SWAP1 PUSH3 0x2128 JUMP JUMPDEST DUP1 ISZERO PUSH3 0x4E6 JUMPI DUP1 PUSH1 0x1F LT PUSH3 0x4BA JUMPI PUSH2 0x100 DUP1 DUP4 SLOAD DIV MUL DUP4 MSTORE SWAP2 PUSH1 0x20 ADD SWAP2 PUSH3 0x4E6 JUMP JUMPDEST DUP3 ADD SWAP2 SWAP1 PUSH1 0x0 MSTORE PUSH1 0x20 PUSH1 0x0 KECCAK256 SWAP1 JUMPDEST DUP2 SLOAD DUP2 MSTORE SWAP1 PUSH1 0x1 ADD SWAP1 PUSH1 0x20 ADD DUP1 DUP4 GT PUSH3 0x4C8 JUMPI DUP3 SWAP1 SUB PUSH1 0x1F AND DUP3 ADD SWAP2 JUMPDEST POP POP POP POP POP DUP2 JUMP JUMPDEST PUSH1 0x0 PUSH3 0x4FB CALLER PUSH3 0x165B JUMP JUMPDEST PUSH3 0x505 JUMPI PUSH1 0x0 DUP1 REVERT JUMPDEST PUSH1 0x0 DUP1 JUMPDEST DUP4 MLOAD DUP2 LT ISZERO PUSH3 0x65C JUMPI PUSH1 0x0 PUSH1 0x1 PUSH1 0x1 PUSH1 0xA0 SHL SUB AND DUP5 DUP3 DUP2 MLOAD DUP2 LT PUSH3 0x533 JUMPI PUSH3 0x533 PUSH3 0x2164 JUMP JUMPDEST PUSH1 0x20 MUL PUSH1 0x20 ADD ADD MLOAD PUSH1 0x1 PUSH1 0x1 PUSH1 0xA0 SHL SUB AND EQ PUSH3 0x642 JUMPI PUSH1 0x0 DUP1 DUP1 MSTORE PUSH1 0x4 PUSH1 0x20 MSTORE PUSH32 0x17EF568E3E12AB5B9C7254A8D58478811DE00F9E6EB34345ACD53BF8FD09D3EC SLOAD DUP6 MLOAD PUSH1 0x1 PUSH1 0x1 PUSH1 0xA0 SHL SUB SWAP1 SWAP2 AND SWAP2 SWAP1 DUP3 SWAP1 PUSH3 0xE73378 SWAP1 DUP9 SWAP1 DUP7 SWAP1 DUP2 LT PUSH3 0x5A1 JUMPI PUSH3 0x5A1 PUSH3 0x2164 JUMP JUMPDEST PUSH1 0x20 MUL PUSH1 0x20 ADD ADD MLOAD DUP10 DUP7 DUP2 MLOAD DUP2 LT PUSH3 0x5BE JUMPI PUSH3 0x5BE PUSH3 0x2164 JUMP JUMPDEST PUSH1 0x20 MUL PUSH1 0x20 ADD ADD MLOAD PUSH1 0x40 MLOAD DUP4 PUSH4 0xFFFFFFFF AND PUSH1 0xE0 SHL DUP2 MSTORE PUSH1 0x4 ADD PUSH3 0x5E5 SWAP3 SWAP2 SWAP1 PUSH3 0x217A JUMP JUMPDEST PUSH1 0x20 PUSH1 0x40 MLOAD DUP1 DUP4 SUB DUP2 PUSH1 0x0 DUP8 GAS CALL ISZERO DUP1 ISZERO PUSH3 0x605 JUMPI RETURNDATASIZE PUSH1 0x0 DUP1 RETURNDATACOPY RETURNDATASIZE PUSH1 0x0 REVERT JUMPDEST POP POP POP POP PUSH1 0x40 MLOAD RETURNDATASIZE PUSH1 0x1F NOT PUSH1 0x1F DUP3 ADD AND DUP3 ADD DUP1 PUSH1 0x40 MSTORE POP DUP2 ADD SWAP1 PUSH3 0x62B SWAP2 SWAP1 PUSH3 0x2193 JUMP JUMPDEST SWAP1 POP DUP1 PUSH3 0x638 JUMPI PUSH1 0x0 DUP1 REVERT JUMPDEST SWAP3 POP PUSH3 0x647 SWAP1 POP JUMP JUMPDEST PUSH1 0x0 SWAP2 POP JUMPDEST DUP1 PUSH3 0x653 DUP2 PUSH3 0x21C9 JUMP JUMPDEST SWAP2 POP POP PUSH3 0x509 JUMP JUMPDEST POP PUSH1 0x1 DUP2 ISZERO ISZERO EQ PUSH3 0x672 JUMPI PUSH3 0x672 PUSH3 0x21E5 JUMP JUMPDEST SWAP4 SWAP3 POP POP POP JUMP JUMPDEST SELFBALANCE PUSH1 0x0 DUP1 DUP1 PUSH3 0x689 DUP5 PUSH3 0x1679 JUMP JUMPDEST SWAP2 SWAP5 POP SWAP3 POP SWAP1 POP PUSH1 0x0 DUP3 ISZERO PUSH3 0x6F4 JUMPI PUSH1 0xB SLOAD PUSH1 0x40 MLOAD PUSH1 0x0 SWAP2 PUSH1 0x1 PUSH1 0x1 PUSH1 0xA0 SHL SUB AND SWAP1 DUP6 SWAP1 DUP4 DUP2 DUP2 DUP2 DUP6 DUP8 GAS CALL SWAP3 POP POP POP RETURNDATASIZE DUP1 PUSH1 0x0 DUP2 EQ PUSH3 0x6E8 JUMPI PUSH1 0x40 MLOAD SWAP2 POP PUSH1 0x1F NOT PUSH1 0x3F RETURNDATASIZE ADD AND DUP3 ADD PUSH1 0x40 MSTORE RETURNDATASIZE DUP3 MSTORE RETURNDATASIZE PUSH1 0x0 PUSH1 0x20 DUP5 ADD RETURNDATACOPY PUSH3 0x6ED JUMP JUMPDEST PUSH1 0x60 SWAP2 POP JUMPDEST POP SWAP1 SWAP3 POP POP POP JUMPDEST DUP2 ISZERO PUSH3 0x756 JUMPI PUSH1 0xA SLOAD PUSH1 0x40 MLOAD PUSH1 0x0 SWAP2 PUSH1 0x1 PUSH1 0x1 PUSH1 0xA0 SHL SUB AND SWAP1 DUP5 SWAP1 DUP4 DUP2 DUP2 DUP2 DUP6 DUP8 GAS CALL SWAP3 POP POP POP RETURNDATASIZE DUP1 PUSH1 0x0 DUP2 EQ PUSH3 0x74A JUMPI PUSH1 0x40 MLOAD SWAP2 POP PUSH1 0x1F NOT PUSH1 0x3F RETURNDATASIZE ADD AND DUP3 ADD PUSH1 0x40 MSTORE RETURNDATASIZE DUP3 MSTORE RETURNDATASIZE PUSH1 0x0 PUSH1 0x20 DUP5 ADD RETURNDATACOPY PUSH3 0x74F JUMP JUMPDEST PUSH1 0x60 SWAP2 POP JUMPDEST POP SWAP1 SWAP3 POP POP POP JUMPDEST DUP1 PUSH3 0x761 JUMPI PUSH1 0x0 DUP1 REVERT JUMPDEST PUSH1 0x40 MLOAD DUP5 DUP2 MSTORE ADDRESS SWAP1 PUSH32 0x7FCF532C15F0A6DB0BD6D0E038BEA71D30D808C7D98CB3BF7268A95BF5081B65 SWAP1 PUSH1 0x20 ADD PUSH1 0x40 MLOAD DUP1 SWAP2 SUB SWAP1 LOG2 POP POP POP POP POP JUMP JUMPDEST PUSH3 0x7A8 CALLER PUSH3 0x165B JUMP JUMPDEST PUSH3 0x7B2 JUMPI PUSH1 0x0 DUP1 REVERT JUMPDEST PUSH3 0x7BD DUP2 PUSH3 0x1073 JUMP JUMPDEST POP JUMP JUMPDEST PUSH1 0x0 PUSH3 0x7CD CALLER PUSH3 0x165B JUMP JUMPDEST PUSH3 0x7D7 JUMPI PUSH1 0x0 DUP1 REVERT JUMPDEST PUSH1 0xD DUP1 SLOAD PUSH1 0x1 PUSH1 0x1 PUSH1 0xA0 SHL SUB DUP1 DUP8 AND PUSH1 0x1 PUSH1 0x1 PUSH1 0xA0 SHL SUB NOT SWAP3 DUP4 AND OR SWAP1 SWAP3 SSTORE PUSH1 0x0 DUP5 DUP2 MSTORE PUSH1 0x5 PUSH1 0x20 MSTORE PUSH1 0x40 SWAP1 KECCAK256 DUP1 SLOAD SWAP3 DUP9 AND SWAP3 SWAP1 SWAP2 AND SWAP2 SWAP1 SWAP2 OR SWAP1 SSTORE DUP3 PUSH3 0x81C CALLER SWAP1 JUMP JUMPDEST DUP7 PUSH1 0x1 PUSH1 0x1 PUSH1 0xA0 SHL SUB AND PUSH4 0x95D89B41 PUSH1 0x40 MLOAD DUP2 PUSH4 0xFFFFFFFF AND PUSH1 0xE0 SHL DUP2 MSTORE PUSH1 0x4 ADD PUSH1 0x0 PUSH1 0x40 MLOAD DUP1 DUP4 SUB DUP2 DUP7 GAS STATICCALL ISZERO DUP1 ISZERO PUSH3 0x85B JUMPI RETURNDATASIZE PUSH1 0x0 DUP1 RETURNDATACOPY RETURNDATASIZE PUSH1 0x0 REVERT JUMPDEST POP POP POP POP PUSH1 0x40 MLOAD RETURNDATASIZE PUSH1 0x0 DUP3 RETURNDATACOPY PUSH1 0x1F RETURNDATASIZE SWAP1 DUP2 ADD PUSH1 0x1F NOT AND DUP3 ADD PUSH1 0x40 MSTORE PUSH3 0x885 SWAP2 SWAP1 DUP2 ADD SWAP1 PUSH3 0x21FB JUMP JUMPDEST PUSH1 0x40 MLOAD PUSH3 0x893 SWAP1 PUSH3 0x1C95 JUMP JUMPDEST PUSH3 0x8A1 SWAP4 SWAP3 SWAP2 SWAP1 PUSH3 0x2299 JUMP JUMPDEST PUSH1 0x40 MLOAD DUP1 SWAP2 SUB SWAP1 PUSH1 0x0 CREATE DUP1 ISZERO DUP1 ISZERO PUSH3 0x8BE JUMPI RETURNDATASIZE PUSH1 0x0 DUP1 RETURNDATACOPY RETURNDATASIZE PUSH1 0x0 REVERT JUMPDEST POP PUSH1 0x0 DUP4 DUP2 MSTORE PUSH1 0x4 PUSH1 0x20 SWAP1 DUP2 MSTORE PUSH1 0x40 DUP1 DUP4 KECCAK256 DUP1 SLOAD PUSH1 0x1 PUSH1 0x1 PUSH1 0xA0 SHL SUB NOT AND PUSH1 0x1 PUSH1 0x1 PUSH1 0xA0 SHL SUB SWAP6 DUP7 AND OR SWAP1 SSTORE PUSH1 0x5 SWAP1 SWAP2 MSTORE SWAP1 KECCAK256 SLOAD DUP7 DUP3 AND SWAP2 AND EQ SWAP1 POP JUMPDEST SWAP5 SWAP4 POP POP POP POP JUMP JUMPDEST PUSH1 0x0 DUP3 DUP2 MSTORE PUSH1 0x5 PUSH1 0x20 MSTORE PUSH1 0x40 DUP2 KECCAK256 SLOAD PUSH1 0x1 PUSH1 0x1 PUSH1 0xA0 SHL SUB AND DUP1 PUSH3 0x926 JUMPI PUSH1 0x0 DUP1 REVERT JUMPDEST PUSH1 0xA SLOAD PUSH1 0x1 PUSH1 0x1 PUSH1 0xA0 SHL SUB AND CALLER PUSH1 0x1 PUSH1 0x1 PUSH1 0xA0 SHL SUB AND EQ ISZERO DUP1 ISZERO PUSH3 0x95F JUMPI POP PUSH1 0xB SLOAD PUSH1 0x1 PUSH1 0x1 PUSH1 0xA0 SHL SUB AND CALLER PUSH1 0x1 PUSH1 0x1 PUSH1 0xA0 SHL SUB AND EQ ISZERO JUMPDEST ISZERO PUSH3 0xB62 JUMPI PUSH1 0x17 SLOAD PUSH1 0xFF AND PUSH3 0xA8C JUMPI DUP3 PUSH3 0xA7E JUMPI PUSH1 0x40 MLOAD PUSH4 0x6EB1769F PUSH1 0xE1 SHL DUP2 MSTORE DUP6 SWAP1 PUSH1 0x1 PUSH1 0x1 PUSH1 0xA0 SHL SUB DUP4 AND SWAP1 PUSH4 0xDD62ED3E SWAP1 PUSH3 0x9A8 SWAP1 CALLER SWAP1 ADDRESS SWAP1 PUSH1 0x4 ADD PUSH3 0x22C7 JUMP JUMPDEST PUSH1 0x20 PUSH1 0x40 MLOAD DUP1 DUP4 SUB DUP2 DUP7 GAS STATICCALL ISZERO DUP1 ISZERO PUSH3 0x9C6 JUMPI RETURNDATASIZE PUSH1 0x0 DUP1 RETURNDATACOPY RETURNDATASIZE PUSH1 0x0 REVERT JUMPDEST POP POP POP POP PUSH1 0x40 MLOAD RETURNDATASIZE PUSH1 0x1F NOT PUSH1 0x1F DUP3 ADD AND DUP3 ADD DUP1 PUSH1 0x40 MSTORE POP DUP2 ADD SWAP1 PUSH3 0x9EC SWAP2 SWAP1 PUSH3 0x22E1 JUMP JUMPDEST LT ISZERO PUSH3 0x9F8 JUMPI PUSH1 0x0 DUP1 REVERT JUMPDEST DUP5 PUSH1 0x1 PUSH1 0x1 PUSH1 0xA0 SHL SUB DUP3 AND PUSH4 0x70A08231 CALLER JUMPDEST PUSH1 0x40 MLOAD DUP3 PUSH4 0xFFFFFFFF AND PUSH1 0xE0 SHL DUP2 MSTORE PUSH1 0x4 ADD PUSH3 0xA28 SWAP2 SWAP1 PUSH3 0x2114 JUMP JUMPDEST PUSH1 0x20 PUSH1 0x40 MLOAD DUP1 DUP4 SUB DUP2 DUP7 GAS STATICCALL ISZERO DUP1 ISZERO PUSH3 0xA46 JUMPI RETURNDATASIZE PUSH1 0x0 DUP1 RETURNDATACOPY RETURNDATASIZE PUSH1 0x0 REVERT JUMPDEST POP POP POP POP PUSH1 0x40 MLOAD RETURNDATASIZE PUSH1 0x1F NOT PUSH1 0x1F DUP3 ADD AND DUP3 ADD DUP1 PUSH1 0x40 MSTORE POP DUP2 ADD SWAP1 PUSH3 0xA6C SWAP2 SWAP1 PUSH3 0x22E1 JUMP JUMPDEST LT ISZERO PUSH3 0xA78 JUMPI PUSH1 0x0 DUP1 REVERT JUMPDEST PUSH3 0xB62 JUMP JUMPDEST DUP5 CALLVALUE LT ISZERO PUSH3 0xA78 JUMPI PUSH1 0x0 DUP1 REVERT JUMPDEST DUP3 PUSH3 0xB46 JUMPI PUSH1 0x11 SLOAD PUSH3 0xAA1 SWAP1 DUP7 PUSH3 0x22FB JUMP JUMPDEST PUSH1 0x40 MLOAD PUSH4 0x6EB1769F PUSH1 0xE1 SHL DUP2 MSTORE PUSH1 0x1 PUSH1 0x1 PUSH1 0xA0 SHL SUB DUP4 AND SWAP1 PUSH4 0xDD62ED3E SWAP1 PUSH3 0xAD1 SWAP1 CALLER SWAP1 ADDRESS SWAP1 PUSH1 0x4 ADD PUSH3 0x22C7 JUMP JUMPDEST PUSH1 0x20 PUSH1 0x40 MLOAD DUP1 DUP4 SUB DUP2 DUP7 GAS STATICCALL ISZERO DUP1 ISZERO PUSH3 0xAEF JUMPI RETURNDATASIZE PUSH1 0x0 DUP1 RETURNDATACOPY RETURNDATASIZE PUSH1 0x0 REVERT JUMPDEST POP POP POP POP PUSH1 0x40 MLOAD RETURNDATASIZE PUSH1 0x1F NOT PUSH1 0x1F DUP3 ADD AND DUP3 ADD DUP1 PUSH1 0x40 MSTORE POP DUP2 ADD SWAP1 PUSH3 0xB15 SWAP2 SWAP1 PUSH3 0x22E1 JUMP JUMPDEST LT ISZERO PUSH3 0xB21 JUMPI PUSH1 0x0 DUP1 REVERT JUMPDEST PUSH1 0x11 SLOAD PUSH3 0xB30 SWAP1 DUP7 PUSH3 0x22FB JUMP JUMPDEST PUSH1 0x1 PUSH1 0x1 PUSH1 0xA0 SHL SUB DUP3 AND PUSH4 0x70A08231 CALLER PUSH3 0xA0A JUMP JUMPDEST PUSH1 0x14 SLOAD PUSH3 0xB55 SWAP1 DUP7 PUSH3 0x22FB JUMP JUMPDEST CALLVALUE LT ISZERO PUSH3 0xB62 JUMPI PUSH1 0x0 DUP1 REVERT JUMPDEST PUSH1 0x15 SLOAD DUP6 GT ISZERO PUSH3 0xB72 JUMPI PUSH1 0x0 DUP1 REVERT JUMPDEST PUSH1 0x0 PUSH3 0xB82 CALLER DUP4 DUP9 DUP8 PUSH3 0x170E JUMP JUMPDEST SWAP1 POP PUSH1 0x1 DUP2 ISZERO ISZERO EQ PUSH3 0xB94 JUMPI PUSH1 0x0 DUP1 REVERT JUMPDEST SWAP6 SWAP5 POP POP POP POP POP JUMP JUMPDEST PUSH1 0x0 PUSH3 0xBAA CALLER PUSH3 0x165B JUMP JUMPDEST PUSH3 0xBB4 JUMPI PUSH1 0x0 DUP1 REVERT JUMPDEST PUSH1 0x1 PUSH1 0x1 PUSH1 0xA0 SHL SUB DUP3 AND PUSH3 0xBCD JUMPI PUSH3 0xBCD PUSH3 0x21E5 JUMP JUMPDEST PUSH3 0xBE3 PUSH1 0x1 PUSH1 0x1 PUSH1 0xA0 SHL SUB DUP6 AND DUP4 DUP6 PUSH3 0x19FC JUMP JUMPDEST PUSH1 0x1 PUSH1 0x1 PUSH1 0xA0 SHL SUB DUP1 DUP6 AND PUSH1 0x0 DUP2 DUP2 MSTORE PUSH1 0x7 PUSH1 0x20 SWAP1 DUP2 MSTORE PUSH1 0x40 DUP1 DUP4 KECCAK256 SLOAD DUP1 DUP5 MSTORE PUSH1 0x5 SWAP1 SWAP3 MSTORE SWAP1 SWAP2 KECCAK256 SLOAD SWAP1 SWAP3 AND SWAP1 DUP2 SWAP1 PUSH3 0xC20 SWAP1 DUP3 DUP8 DUP10 PUSH3 0x1A5B JUMP JUMPDEST POP PUSH1 0x1 SWAP7 SWAP6 POP POP POP POP POP POP JUMP JUMPDEST PUSH1 0x0 PUSH3 0xC3A CALLER PUSH3 0x165B JUMP JUMPDEST PUSH3 0xC44 JUMPI PUSH1 0x0 DUP1 REVERT JUMPDEST PUSH1 0xA SLOAD PUSH1 0x0 SWAP1 DUP2 SWAP1 DUP2 SWAP1 PUSH1 0x1 PUSH1 0x1 PUSH1 0xA0 SHL SUB AND CALLER PUSH1 0x1 PUSH1 0x1 PUSH1 0xA0 SHL SUB AND EQ PUSH3 0xC6C JUMPI PUSH1 0x1 SWAP3 POP JUMPDEST PUSH1 0x0 JUMPDEST DUP7 MLOAD DUP2 LT ISZERO PUSH3 0xDDD JUMPI PUSH1 0x0 PUSH1 0x1 PUSH1 0x1 PUSH1 0xA0 SHL SUB AND DUP8 DUP3 DUP2 MLOAD DUP2 LT PUSH3 0xC99 JUMPI PUSH3 0xC99 PUSH3 0x2164 JUMP JUMPDEST PUSH1 0x20 MUL PUSH1 0x20 ADD ADD MLOAD PUSH1 0x1 PUSH1 0x1 PUSH1 0xA0 SHL SUB AND EQ PUSH3 0xDC3 JUMPI DUP4 ISZERO ISZERO PUSH1 0x1 SUB PUSH3 0xD61 JUMPI PUSH32 0x0 PUSH1 0xC SLOAD DUP10 DUP4 DUP2 MLOAD DUP2 LT PUSH3 0xCF4 JUMPI PUSH3 0xCF4 PUSH3 0x2164 JUMP JUMPDEST PUSH1 0x20 MUL PUSH1 0x20 ADD ADD MLOAD PUSH3 0xD08 SWAP2 SWAP1 PUSH3 0x2316 JUMP JUMPDEST PUSH3 0xD14 SWAP2 SWAP1 PUSH3 0x2338 JUMP JUMPDEST SWAP2 POP DUP2 DUP9 DUP3 DUP2 MLOAD DUP2 LT PUSH3 0xD2C JUMPI PUSH3 0xD2C PUSH3 0x2164 JUMP JUMPDEST PUSH1 0x20 MUL PUSH1 0x20 ADD ADD DUP2 DUP2 MLOAD PUSH3 0xD42 SWAP2 SWAP1 PUSH3 0x235B JUMP JUMPDEST SWAP1 MSTORE POP PUSH1 0xA SLOAD PUSH3 0xD61 SWAP1 PUSH1 0x1 PUSH1 0x1 PUSH1 0xA0 SHL SUB DUP9 DUP2 AND SWAP2 AND DUP5 PUSH3 0x19FC JUMP JUMPDEST PUSH3 0xDB9 DUP8 DUP3 DUP2 MLOAD DUP2 LT PUSH3 0xD7A JUMPI PUSH3 0xD7A PUSH3 0x2164 JUMP JUMPDEST PUSH1 0x20 MUL PUSH1 0x20 ADD ADD MLOAD DUP10 DUP4 DUP2 MLOAD DUP2 LT PUSH3 0xD97 JUMPI PUSH3 0xD97 PUSH3 0x2164 JUMP JUMPDEST PUSH1 0x20 MUL PUSH1 0x20 ADD ADD MLOAD DUP9 PUSH1 0x1 PUSH1 0x1 PUSH1 0xA0 SHL SUB AND PUSH3 0x19FC SWAP1 SWAP3 SWAP2 SWAP1 PUSH4 0xFFFFFFFF AND JUMP JUMPDEST PUSH1 0x1 SWAP3 POP PUSH3 0xDC8 JUMP JUMPDEST PUSH1 0x0 SWAP3 POP JUMPDEST DUP1 PUSH3 0xDD4 DUP2 PUSH3 0x21C9 JUMP JUMPDEST SWAP2 POP POP PUSH3 0xC6F JUMP JUMPDEST POP PUSH1 0x1 DUP3 ISZERO ISZERO EQ PUSH3 0xDF3 JUMPI PUSH3 0xDF3 PUSH3 0x21E5 JUMP JUMPDEST POP SWAP6 SWAP5 POP POP POP POP POP JUMP JUMPDEST PUSH3 0xE08 CALLER PUSH3 0x165B JUMP JUMPDEST PUSH3 0xE12 JUMPI PUSH1 0x0 DUP1 REVERT JUMPDEST PUSH1 0x40 MLOAD PUSH4 0x70A08231 PUSH1 0xE0 SHL DUP2 MSTORE PUSH1 0x0 SWAP1 PUSH1 0x1 PUSH1 0x1 PUSH1 0xA0 SHL SUB DUP4 AND SWAP1 PUSH4 0x70A08231 SWAP1 PUSH3 0xE43 SWAP1 ADDRESS SWAP1 PUSH1 0x4 ADD PUSH3 0x2114 JUMP JUMPDEST PUSH1 0x20 PUSH1 0x40 MLOAD DUP1 DUP4 SUB DUP2 DUP7 GAS STATICCALL ISZERO DUP1 ISZERO PUSH3 0xE61 JUMPI RETURNDATASIZE PUSH1 0x0 DUP1 RETURNDATACOPY RETURNDATASIZE PUSH1 0x0 REVERT JUMPDEST POP POP POP POP PUSH1 0x40 MLOAD RETURNDATASIZE PUSH1 0x1F NOT PUSH1 0x1F DUP3 ADD AND DUP3 ADD DUP1 PUSH1 0x40 MSTORE POP DUP2 ADD SWAP1 PUSH3 0xE87 SWAP2 SWAP1 PUSH3 0x22E1 JUMP JUMPDEST PUSH1 0x1 PUSH1 0x1 PUSH1 0xA0 SHL SUB DUP1 DUP5 AND PUSH1 0x0 SWAP1 DUP2 MSTORE PUSH1 0x7 PUSH1 0x20 SWAP1 DUP2 MSTORE PUSH1 0x40 DUP1 DUP4 KECCAK256 SLOAD DUP1 DUP5 MSTORE PUSH1 0x5 SWAP1 SWAP3 MSTORE DUP3 KECCAK256 SLOAD SWAP4 SWAP5 POP SWAP3 SWAP1 SWAP2 AND SWAP1 DUP1 PUSH3 0xEC3 DUP6 PUSH3 0x1679 JUMP JUMPDEST SWAP3 POP SWAP3 POP POP DUP3 PUSH1 0x1 PUSH1 0x1 PUSH1 0xA0 SHL SUB AND DUP7 PUSH1 0x1 PUSH1 0x1 PUSH1 0xA0 SHL SUB AND EQ PUSH3 0xF53 JUMPI PUSH1 0x0 DUP3 GT DUP1 ISZERO PUSH3 0xEF3 JUMPI POP PUSH1 0x0 DUP2 GT JUMPDEST ISZERO PUSH3 0xF37 JUMPI PUSH1 0xB SLOAD PUSH3 0xF15 SWAP1 PUSH1 0x1 PUSH1 0x1 PUSH1 0xA0 SHL SUB DUP9 DUP2 AND SWAP2 AND DUP5 PUSH3 0x19FC JUMP JUMPDEST PUSH1 0xA SLOAD PUSH3 0xF31 SWAP1 PUSH1 0x1 PUSH1 0x1 PUSH1 0xA0 SHL SUB DUP9 DUP2 AND SWAP2 AND DUP4 PUSH3 0x19FC JUMP JUMPDEST PUSH3 0xFCD JUMP JUMPDEST PUSH1 0xA SLOAD PUSH3 0xF31 SWAP1 PUSH1 0x1 PUSH1 0x1 PUSH1 0xA0 SHL SUB DUP9 DUP2 AND SWAP2 AND DUP8 PUSH3 0x19FC JUMP JUMPDEST DUP3 PUSH1 0x1 PUSH1 0x1 PUSH1 0xA0 SHL SUB AND DUP7 PUSH1 0x1 PUSH1 0x1 PUSH1 0xA0 SHL SUB AND EQ DUP1 ISZERO PUSH3 0xF7C JUMPI POP PUSH1 0x17 SLOAD PUSH1 0xFF AND ISZERO ISZERO PUSH1 0x1 EQ JUMPDEST ISZERO PUSH3 0xFB1 JUMPI PUSH1 0x0 DUP3 GT DUP1 ISZERO PUSH3 0xEF3 JUMPI POP DUP1 ISZERO PUSH3 0xF37 JUMPI PUSH1 0xB SLOAD PUSH3 0xF15 SWAP1 PUSH1 0x1 PUSH1 0x1 PUSH1 0xA0 SHL SUB DUP9 DUP2 AND SWAP2 AND DUP5 PUSH3 0x19FC JUMP JUMPDEST PUSH1 0xB SLOAD PUSH3 0xFCD SWAP1 PUSH1 0x1 PUSH1 0x1 PUSH1 0xA0 SHL SUB DUP9 DUP2 AND SWAP2 AND DUP8 PUSH3 0x19FC JUMP JUMPDEST PUSH1 0x40 MLOAD DUP6 DUP2 MSTORE PUSH1 0x1 PUSH1 0x1 PUSH1 0xA0 SHL SUB DUP8 AND SWAP1 ADDRESS SWAP1 PUSH32 0x37238854FE57FBF51F09946F854FC3916FE83938D6521F09BD05463839F1304 SWAP1 PUSH1 0x20 ADD PUSH1 0x40 MLOAD DUP1 SWAP2 SUB SWAP1 LOG3 POP POP POP POP POP POP JUMP JUMPDEST PUSH1 0x0 PUSH3 0x1022 CALLER PUSH3 0x165B JUMP JUMPDEST PUSH3 0x102C JUMPI PUSH1 0x0 DUP1 REVERT JUMPDEST PUSH1 0x1 PUSH1 0x1 PUSH1 0xA0 SHL SUB DUP4 AND CALLER EQ PUSH3 0x1042 JUMPI PUSH1 0x0 DUP1 REVERT JUMPDEST PUSH1 0x0 PUSH3 0x104F DUP4 PUSH3 0x1073 JUMP JUMPDEST PUSH3 0x105A DUP5 PUSH3 0x1625 JUMP JUMPDEST POP PUSH1 0x1 SWAP4 SWAP3 POP POP POP JUMP JUMPDEST PUSH1 0x9 DUP1 SLOAD PUSH3 0x467 SWAP1 PUSH3 0x2128 JUMP JUMPDEST PUSH3 0x107E CALLER PUSH3 0x165B JUMP JUMPDEST PUSH3 0x1088 JUMPI PUSH1 0x0 DUP1 REVERT JUMPDEST PUSH1 0x1 PUSH1 0x1 PUSH1 0xA0 SHL SUB AND PUSH1 0x0 SWAP1 DUP2 MSTORE PUSH1 0x1 PUSH1 0x20 DUP2 SWAP1 MSTORE PUSH1 0x40 SWAP1 SWAP2 KECCAK256 DUP1 SLOAD PUSH1 0xFF NOT AND SWAP1 SWAP2 OR SWAP1 SSTORE JUMP JUMPDEST PUSH1 0x0 PUSH3 0x10BC CALLER PUSH3 0x165B JUMP JUMPDEST PUSH3 0x10C6 JUMPI PUSH1 0x0 DUP1 REVERT JUMPDEST PUSH1 0x0 CALLER SWAP1 POP PUSH1 0x0 DUP1 PUSH1 0x0 DUP1 PUSH1 0xC SLOAD PUSH2 0x2710 PUSH3 0x10E3 SWAP2 SWAP1 PUSH3 0x235B JUMP JUMPDEST PUSH1 0xA SLOAD SWAP1 SWAP2 POP PUSH1 0x1 PUSH1 0x1 PUSH1 0xA0 SHL SUB DUP7 DUP2 AND SWAP2 AND EQ PUSH3 0x1101 JUMPI PUSH1 0x1 SWAP3 POP JUMPDEST PUSH1 0x0 JUMPDEST DUP9 MLOAD DUP2 LT ISZERO PUSH3 0x1270 JUMPI PUSH1 0x0 PUSH1 0x1 PUSH1 0x1 PUSH1 0xA0 SHL SUB AND DUP10 DUP3 DUP2 MLOAD DUP2 LT PUSH3 0x112E JUMPI PUSH3 0x112E PUSH3 0x2164 JUMP JUMPDEST PUSH1 0x20 MUL PUSH1 0x20 ADD ADD MLOAD PUSH1 0x1 PUSH1 0x1 PUSH1 0xA0 SHL SUB AND EQ PUSH3 0x1256 JUMPI DUP4 ISZERO ISZERO PUSH1 0x1 SUB PUSH3 0x11F4 JUMPI PUSH32 0x0 DUP3 DUP12 DUP4 DUP2 MLOAD DUP2 LT PUSH3 0x1187 JUMPI PUSH3 0x1187 PUSH3 0x2164 JUMP JUMPDEST PUSH1 0x20 MUL PUSH1 0x20 ADD ADD MLOAD PUSH3 0x119B SWAP2 SWAP1 PUSH3 0x2316 JUMP JUMPDEST PUSH3 0x11A7 SWAP2 SWAP1 PUSH3 0x2338 JUMP JUMPDEST SWAP3 POP DUP3 DUP11 DUP3 DUP2 MLOAD DUP2 LT PUSH3 0x11BF JUMPI PUSH3 0x11BF PUSH3 0x2164 JUMP JUMPDEST PUSH1 0x20 MUL PUSH1 0x20 ADD ADD DUP2 DUP2 MLOAD PUSH3 0x11D5 SWAP2 SWAP1 PUSH3 0x235B JUMP JUMPDEST SWAP1 MSTORE POP PUSH1 0xA SLOAD PUSH3 0x11F4 SWAP1 PUSH1 0x1 PUSH1 0x1 PUSH1 0xA0 SHL SUB DUP11 DUP2 AND SWAP2 AND DUP6 PUSH3 0x19FC JUMP JUMPDEST PUSH3 0x124C DUP10 DUP3 DUP2 MLOAD DUP2 LT PUSH3 0x120D JUMPI PUSH3 0x120D PUSH3 0x2164 JUMP JUMPDEST PUSH1 0x20 MUL PUSH1 0x20 ADD ADD MLOAD DUP12 DUP4 DUP2 MLOAD DUP2 LT PUSH3 0x122A JUMPI PUSH3 0x122A PUSH3 0x2164 JUMP JUMPDEST PUSH1 0x20 MUL PUSH1 0x20 ADD ADD MLOAD DUP11 PUSH1 0x1 PUSH1 0x1 PUSH1 0xA0 SHL SUB AND PUSH3 0x19FC SWAP1 SWAP3 SWAP2 SWAP1 PUSH4 0xFFFFFFFF AND JUMP JUMPDEST PUSH1 0x1 SWAP5 POP PUSH3 0x125B JUMP JUMPDEST PUSH1 0x0 SWAP5 POP JUMPDEST DUP1 PUSH3 0x1267 DUP2 PUSH3 0x21C9 JUMP JUMPDEST SWAP2 POP POP PUSH3 0x1104 JUMP JUMPDEST POP PUSH1 0x1 DUP5 ISZERO ISZERO EQ PUSH3 0x1286 JUMPI PUSH3 0x1286 PUSH3 0x21E5 JUMP JUMPDEST POP SWAP2 SWAP8 SWAP7 POP POP POP POP POP POP POP JUMP JUMPDEST PUSH3 0x129E CALLER PUSH3 0x165B JUMP JUMPDEST PUSH3 0x12A8 JUMPI PUSH1 0x0 DUP1 REVERT JUMPDEST PUSH2 0x1F40 DUP7 GT ISZERO PUSH3 0x12B8 JUMPI PUSH1 0x0 DUP1 REVERT JUMPDEST PUSH1 0xC SWAP6 SWAP1 SWAP6 SSTORE PUSH1 0x0 DUP6 DUP2 MSTORE PUSH1 0x5 PUSH1 0x20 SWAP1 DUP2 MSTORE PUSH1 0x40 DUP1 DUP4 KECCAK256 DUP1 SLOAD PUSH1 0x1 PUSH1 0x1 PUSH1 0xA0 SHL SUB NOT SWAP1 DUP2 AND PUSH1 0x1 PUSH1 0x1 PUSH1 0xA0 SHL SUB SWAP13 DUP14 AND SWAP1 DUP2 OR SWAP1 SWAP3 SSTORE SWAP1 DUP5 MSTORE PUSH1 0x7 SWAP1 SWAP3 MSTORE SWAP1 SWAP2 KECCAK256 SWAP6 SWAP1 SWAP6 SSTORE PUSH1 0x15 SSTORE PUSH1 0x17 DUP1 SLOAD PUSH1 0xFF NOT AND SWAP4 ISZERO ISZERO SWAP4 SWAP1 SWAP4 OR SWAP1 SWAP3 SSTORE PUSH1 0xD DUP1 SLOAD SWAP1 SWAP4 AND SWAP4 SWAP1 SWAP5 AND SWAP3 SWAP1 SWAP3 OR SWAP1 SSTORE PUSH1 0x11 SSTORE PUSH1 0x14 SSTORE JUMP JUMPDEST PUSH1 0x0 PUSH3 0x1338 CALLER PUSH3 0x165B JUMP JUMPDEST PUSH3 0x1342 JUMPI PUSH1 0x0 DUP1 REVERT JUMPDEST PUSH1 0xA SLOAD PUSH1 0xB SLOAD PUSH1 0x1 PUSH1 0x1 PUSH1 0xA0 SHL SUB SWAP2 DUP3 AND SWAP2 SWAP1 DUP2 AND SWAP1 DUP5 AND PUSH3 0x1369 JUMPI PUSH3 0x1369 PUSH3 0x21E5 JUMP JUMPDEST PUSH1 0xA SLOAD PUSH1 0x1 PUSH1 0x1 PUSH1 0xA0 SHL SUB DUP1 DUP9 AND SWAP2 AND SUB PUSH3 0x1388 JUMPI DUP4 SWAP2 POP PUSH3 0x13AB JUMP JUMPDEST PUSH1 0xB SLOAD PUSH1 0x1 PUSH1 0x1 PUSH1 0xA0 SHL SUB DUP1 DUP9 AND SWAP2 AND SUB PUSH3 0x13A6 JUMPI POP DUP3 PUSH3 0x13AB JUMP JUMPDEST PUSH1 0x0 DUP1 REVERT JUMPDEST PUSH1 0x0 DUP1 PUSH3 0x13B9 DUP8 PUSH3 0x1679 JUMP JUMPDEST SWAP3 POP SWAP3 POP POP PUSH1 0x0 DUP1 DUP4 GT ISZERO PUSH3 0x142F JUMPI PUSH1 0x0 DUP5 PUSH1 0x1 PUSH1 0x1 PUSH1 0xA0 SHL SUB AND DUP5 PUSH1 0x40 MLOAD PUSH1 0x0 PUSH1 0x40 MLOAD DUP1 DUP4 SUB DUP2 DUP6 DUP8 GAS CALL SWAP3 POP POP POP RETURNDATASIZE DUP1 PUSH1 0x0 DUP2 EQ PUSH3 0x1418 JUMPI PUSH1 0x40 MLOAD SWAP2 POP PUSH1 0x1F NOT PUSH1 0x3F RETURNDATASIZE ADD AND DUP3 ADD PUSH1 0x40 MSTORE RETURNDATASIZE DUP3 MSTORE RETURNDATASIZE PUSH1 0x0 PUSH1 0x20 DUP5 ADD RETURNDATACOPY PUSH3 0x141D JUMP JUMPDEST PUSH1 0x60 SWAP2 POP JUMPDEST POP POP SWAP1 POP DUP1 PUSH3 0x142C JUMPI PUSH1 0x0 DUP1 REVERT JUMPDEST SWAP1 POP JUMPDEST DUP2 ISZERO PUSH3 0x149C JUMPI PUSH1 0x0 DUP6 PUSH1 0x1 PUSH1 0x1 PUSH1 0xA0 SHL SUB AND DUP4 PUSH1 0x40 MLOAD PUSH1 0x0 PUSH1 0x40 MLOAD DUP1 DUP4 SUB DUP2 DUP6 DUP8 GAS CALL SWAP3 POP POP POP RETURNDATASIZE DUP1 PUSH1 0x0 DUP2 EQ PUSH3 0x1485 JUMPI PUSH1 0x40 MLOAD SWAP2 POP PUSH1 0x1F NOT PUSH1 0x3F RETURNDATASIZE ADD AND DUP3 ADD PUSH1 0x40 MSTORE RETURNDATASIZE DUP3 MSTORE RETURNDATASIZE PUSH1 0x0 PUSH1 0x20 DUP5 ADD RETURNDATACOPY PUSH3 0x148A JUMP JUMPDEST PUSH1 0x60 SWAP2 POP JUMPDEST POP POP SWAP1 POP DUP1 PUSH3 0x1499 JUMPI PUSH1 0x0 DUP1 REVERT JUMPDEST SWAP1 POP JUMPDEST SWAP9 SWAP8 POP POP POP POP POP POP POP POP JUMP JUMPDEST PUSH1 0x0 PUSH3 0x14B5 CALLER PUSH3 0x165B JUMP JUMPDEST PUSH3 0x14BF JUMPI PUSH1 0x0 DUP1 REVERT JUMPDEST PUSH1 0x0 DUP1 JUMPDEST DUP5 MLOAD DUP2 LT ISZERO PUSH3 0x160F JUMPI PUSH1 0x0 PUSH1 0x1 PUSH1 0x1 PUSH1 0xA0 SHL SUB AND DUP6 DUP3 DUP2 MLOAD DUP2 LT PUSH3 0x14ED JUMPI PUSH3 0x14ED PUSH3 0x2164 JUMP JUMPDEST PUSH1 0x20 MUL PUSH1 0x20 ADD ADD MLOAD PUSH1 0x1 PUSH1 0x1 PUSH1 0xA0 SHL SUB AND EQ PUSH3 0x15F5 JUMPI PUSH1 0x1 PUSH1 0x1 PUSH1 0xA0 SHL SUB DUP1 DUP6 AND PUSH1 0x0 SWAP1 DUP2 MSTORE PUSH1 0x7 PUSH1 0x20 SWAP1 DUP2 MSTORE PUSH1 0x40 DUP1 DUP4 KECCAK256 SLOAD DUP1 DUP5 MSTORE PUSH1 0x4 SWAP1 SWAP3 MSTORE DUP3 KECCAK256 SLOAD DUP9 MLOAD SWAP2 SWAP4 AND SWAP2 SWAP1 DUP3 SWAP1 PUSH4 0xA5F2A152 SWAP1 DUP10 SWAP1 DUP12 SWAP1 DUP9 SWAP1 DUP2 LT PUSH3 0x1552 JUMPI PUSH3 0x1552 PUSH3 0x2164 JUMP JUMPDEST PUSH1 0x20 MUL PUSH1 0x20 ADD ADD MLOAD DUP13 DUP9 DUP2 MLOAD DUP2 LT PUSH3 0x156F JUMPI PUSH3 0x156F PUSH3 0x2164 JUMP JUMPDEST PUSH1 0x20 MUL PUSH1 0x20 ADD ADD MLOAD PUSH1 0x40 MLOAD DUP5 PUSH4 0xFFFFFFFF AND PUSH1 0xE0 SHL DUP2 MSTORE PUSH1 0x4 ADD PUSH3 0x1597 SWAP4 SWAP3 SWAP2 SWAP1 PUSH3 0x2375 JUMP JUMPDEST PUSH1 0x20 PUSH1 0x40 MLOAD DUP1 DUP4 SUB DUP2 PUSH1 0x0 DUP8 GAS CALL ISZERO DUP1 ISZERO PUSH3 0x15B7 JUMPI RETURNDATASIZE PUSH1 0x0 DUP1 RETURNDATACOPY RETURNDATASIZE PUSH1 0x0 REVERT JUMPDEST POP POP POP POP PUSH1 0x40 MLOAD RETURNDATASIZE PUSH1 0x1F NOT PUSH1 0x1F DUP3 ADD AND DUP3 ADD DUP1 PUSH1 0x40 MSTORE POP DUP2 ADD SWAP1 PUSH3 0x15DD SWAP2 SWAP1 PUSH3 0x2193 JUMP JUMPDEST SWAP1 POP DUP1 PUSH3 0x15EA JUMPI PUSH1 0x0 DUP1 REVERT JUMPDEST SWAP4 POP PUSH3 0x15FA SWAP2 POP POP JUMP JUMPDEST PUSH1 0x0 SWAP2 POP JUMPDEST DUP1 PUSH3 0x1606 DUP2 PUSH3 0x21C9 JUMP JUMPDEST SWAP2 POP POP PUSH3 0x14C3 JUMP JUMPDEST POP PUSH1 0x1 DUP2 ISZERO ISZERO EQ PUSH3 0x8FB JUMPI PUSH3 0x8FB PUSH3 0x21E5 JUMP JUMPDEST PUSH3 0x1630 CALLER PUSH3 0x165B JUMP JUMPDEST PUSH3 0x163A JUMPI PUSH1 0x0 DUP1 REVERT JUMPDEST PUSH1 0x1 PUSH1 0x1 PUSH1 0xA0 SHL SUB AND PUSH1 0x0 SWAP1 DUP2 MSTORE PUSH1 0x1 PUSH1 0x20 MSTORE PUSH1 0x40 SWAP1 KECCAK256 DUP1 SLOAD PUSH1 0xFF NOT AND SWAP1 SSTORE JUMP JUMPDEST PUSH1 0x1 PUSH1 0x1 PUSH1 0xA0 SHL SUB AND PUSH1 0x0 SWAP1 DUP2 MSTORE PUSH1 0x1 PUSH1 0x20 MSTORE PUSH1 0x40 SWAP1 KECCAK256 SLOAD PUSH1 0xFF AND SWAP1 JUMP JUMPDEST PUSH1 0x0 DUP1 PUSH1 0x0 DUP1 DUP5 GT PUSH3 0x1690 JUMPI PUSH3 0x1690 PUSH3 0x21E5 JUMP JUMPDEST PUSH1 0x0 PUSH32 0x0 PUSH1 0xC SLOAD DUP7 PUSH3 0x16C3 SWAP2 SWAP1 PUSH3 0x2316 JUMP JUMPDEST PUSH3 0x16CF SWAP2 SWAP1 PUSH3 0x2338 JUMP JUMPDEST SWAP1 POP PUSH1 0x0 PUSH3 0x16DF DUP3 DUP8 PUSH3 0x235B JUMP JUMPDEST SWAP1 POP PUSH1 0x0 PUSH3 0x16EF DUP3 DUP5 PUSH3 0x22FB JUMP JUMPDEST SWAP1 POP DUP7 DUP2 EQ PUSH3 0x1703 JUMPI PUSH3 0x1703 PUSH3 0x21E5 JUMP JUMPDEST SWAP7 SWAP2 SWAP6 POP SWAP4 POP SWAP2 POP POP JUMP JUMPDEST PUSH1 0x0 DUP3 DUP2 DUP4 PUSH3 0x1870 JUMPI PUSH1 0x1 PUSH1 0x1 PUSH1 0xA0 SHL SUB DUP1 DUP8 AND PUSH1 0x0 DUP2 DUP2 MSTORE PUSH1 0x7 PUSH1 0x20 SWAP1 DUP2 MSTORE PUSH1 0x40 DUP1 DUP4 KECCAK256 SLOAD DUP1 DUP5 MSTORE PUSH1 0x5 SWAP1 SWAP3 MSTORE SWAP1 SWAP2 KECCAK256 SLOAD SWAP1 SWAP3 AND SWAP1 DUP2 SWAP1 DUP2 SWAP1 SUB PUSH3 0x13A6 JUMPI PUSH1 0x0 DUP4 DUP2 MSTORE PUSH1 0x4 PUSH1 0x20 MSTORE PUSH1 0x40 SWAP1 KECCAK256 SLOAD PUSH1 0x1 PUSH1 0x1 PUSH1 0xA0 SHL SUB AND DUP1 PUSH3 0x1772 JUMPI PUSH1 0x0 DUP1 REVERT JUMPDEST PUSH1 0x0 DUP5 DUP2 MSTORE PUSH1 0x6 PUSH1 0x20 MSTORE PUSH1 0x40 DUP2 KECCAK256 DUP1 SLOAD SWAP2 PUSH1 0x1 SWAP2 SWAP1 PUSH3 0x1793 DUP4 DUP6 PUSH3 0x22FB JUMP JUMPDEST SWAP1 SWAP2 SSTORE POP POP PUSH1 0x0 DUP6 DUP2 MSTORE PUSH1 0x6 PUSH1 0x20 MSTORE PUSH1 0x40 SWAP1 KECCAK256 SLOAD PUSH3 0x17B4 PUSH1 0x1 DUP4 PUSH3 0x22FB JUMP JUMPDEST DUP2 EQ PUSH3 0x17C0 JUMPI PUSH1 0x0 DUP1 REVERT JUMPDEST DUP11 PUSH1 0x12 PUSH1 0x0 DUP3 DUP3 SLOAD PUSH3 0x17D4 SWAP2 SWAP1 PUSH3 0x22FB JUMP JUMPDEST SWAP3 POP POP DUP2 SWAP1 SSTORE POP CALLVALUE PUSH1 0x13 PUSH1 0x0 DUP3 DUP3 SLOAD PUSH3 0x17EF SWAP2 SWAP1 PUSH3 0x22FB JUMP JUMPDEST SWAP1 SWAP2 SSTORE POP PUSH3 0x180C SWAP1 POP PUSH1 0x1 PUSH1 0x1 PUSH1 0xA0 SHL SUB DUP6 AND DUP15 DUP6 DUP15 PUSH3 0x1A5B JUMP JUMPDEST PUSH1 0x40 DUP1 MLOAD DUP10 DUP2 MSTORE PUSH1 0x20 DUP2 ADD DUP5 SWAP1 MSTORE PUSH1 0x1 SWAP2 DUP2 ADD SWAP2 SWAP1 SWAP2 MSTORE PUSH1 0x1 PUSH1 0x1 PUSH1 0xA0 SHL SUB DUP1 DUP6 AND SWAP2 SWAP1 DUP16 AND SWAP1 PUSH32 0x1BE148FFC14C73233FD9D869986611F77ABCFD08494685A6552399CE5F948A20 SWAP1 PUSH1 0x60 ADD PUSH1 0x40 MLOAD DUP1 SWAP2 SUB SWAP1 LOG3 PUSH1 0x1 SWAP7 POP POP POP POP POP POP POP PUSH3 0x19F2 JUMP JUMPDEST PUSH1 0x0 DUP1 MSTORE PUSH1 0x4 PUSH1 0x20 MSTORE PUSH32 0x17EF568E3E12AB5B9C7254A8D58478811DE00F9E6EB34345ACD53BF8FD09D3EC SLOAD PUSH1 0x1 PUSH1 0x1 PUSH1 0xA0 SHL SUB AND DUP1 PUSH3 0x18AF JUMPI PUSH1 0x0 DUP1 REVERT JUMPDEST PUSH1 0x0 DUP1 DUP1 MSTORE PUSH1 0x6 PUSH1 0x20 MSTORE PUSH32 0x54CDD369E4E8A8515E52CA72EC816C2101831AD1F18BF44102ED171459C9B4F8 DUP1 SLOAD SWAP2 PUSH1 0x1 SWAP2 SWAP1 PUSH3 0x18ED DUP4 DUP6 PUSH3 0x22FB JUMP JUMPDEST SWAP1 SWAP2 SSTORE POP POP PUSH1 0x0 DUP1 MSTORE PUSH1 0x6 PUSH1 0x20 MSTORE PUSH32 0x54CDD369E4E8A8515E52CA72EC816C2101831AD1F18BF44102ED171459C9B4F8 SLOAD PUSH3 0x192A PUSH1 0x1 DUP4 PUSH3 0x22FB JUMP JUMPDEST DUP2 EQ PUSH3 0x1936 JUMPI PUSH1 0x0 DUP1 REVERT JUMPDEST PUSH1 0x0 DUP4 PUSH1 0x1 PUSH1 0x1 PUSH1 0xA0 SHL SUB AND DUP10 PUSH1 0x40 MLOAD PUSH1 0x0 PUSH1 0x40 MLOAD DUP1 DUP4 SUB DUP2 DUP6 DUP8 GAS CALL SWAP3 POP POP POP RETURNDATASIZE DUP1 PUSH1 0x0 DUP2 EQ PUSH3 0x1985 JUMPI PUSH1 0x40 MLOAD SWAP2 POP PUSH1 0x1F NOT PUSH1 0x3F RETURNDATASIZE ADD AND DUP3 ADD PUSH1 0x40 MSTORE RETURNDATASIZE DUP3 MSTORE RETURNDATASIZE PUSH1 0x0 PUSH1 0x20 DUP5 ADD RETURNDATACOPY PUSH3 0x198A JUMP JUMPDEST PUSH1 0x60 SWAP2 POP JUMPDEST POP POP SWAP1 POP DUP1 PUSH3 0x1999 JUMPI PUSH1 0x0 DUP1 REVERT JUMPDEST PUSH1 0x40 DUP1 MLOAD DUP8 DUP2 MSTORE PUSH1 0x20 DUP2 ADD DUP6 SWAP1 MSTORE PUSH1 0x0 DUP2 DUP4 ADD MSTORE SWAP1 MLOAD PUSH1 0x1 PUSH1 0x1 PUSH1 0xA0 SHL SUB DUP7 DUP2 AND SWAP3 SWAP1 DUP15 AND SWAP2 PUSH32 0x1BE148FFC14C73233FD9D869986611F77ABCFD08494685A6552399CE5F948A20 SWAP2 DUP2 SWAP1 SUB PUSH1 0x60 ADD SWAP1 LOG3 PUSH1 0x1 SWAP5 POP POP POP POP POP JUMPDEST SWAP7 SWAP6 POP POP POP POP POP POP JUMP JUMPDEST PUSH3 0x1A56 DUP4 PUSH4 0xA9059CBB PUSH1 0xE0 SHL DUP5 DUP5 PUSH1 0x40 MLOAD PUSH1 0x24 ADD PUSH3 0x1A1E SWAP3 SWAP2 SWAP1 PUSH3 0x217A JUMP JUMPDEST PUSH1 0x40 DUP1 MLOAD PUSH1 0x1F NOT DUP2 DUP5 SUB ADD DUP2 MSTORE SWAP2 SWAP1 MSTORE PUSH1 0x20 DUP2 ADD DUP1 MLOAD PUSH1 0x1 PUSH1 0x1 PUSH1 0xE0 SHL SUB AND PUSH1 0x1 PUSH1 0x1 PUSH1 0xE0 SHL SUB NOT SWAP1 SWAP4 AND SWAP3 SWAP1 SWAP3 OR SWAP1 SWAP2 MSTORE PUSH3 0x1A85 JUMP JUMPDEST POP POP POP JUMP JUMPDEST PUSH3 0x1A7F DUP5 PUSH4 0x23B872DD PUSH1 0xE0 SHL DUP6 DUP6 DUP6 PUSH1 0x40 MLOAD PUSH1 0x24 ADD PUSH3 0x1A1E SWAP4 SWAP3 SWAP2 SWAP1 PUSH3 0x2375 JUMP JUMPDEST POP POP POP POP JUMP JUMPDEST PUSH1 0x0 PUSH3 0x1ADC DUP3 PUSH1 0x40 MLOAD DUP1 PUSH1 0x40 ADD PUSH1 0x40 MSTORE DUP1 PUSH1 0x20 DUP2 MSTORE PUSH1 0x20 ADD PUSH32 0x5361666545524332303A206C6F772D6C6576656C2063616C6C206661696C6564 DUP2 MSTORE POP DUP6 PUSH1 0x1 PUSH1 0x1 PUSH1 0xA0 SHL SUB AND PUSH3 0x1B62 SWAP1 SWAP3 SWAP2 SWAP1 PUSH4 0xFFFFFFFF AND JUMP JUMPDEST DUP1 MLOAD SWAP1 SWAP2 POP ISZERO PUSH3 0x1A56 JUMPI DUP1 DUP1 PUSH1 0x20 ADD SWAP1 MLOAD DUP2 ADD SWAP1 PUSH3 0x1AFD SWAP2 SWAP1 PUSH3 0x2193 JUMP JUMPDEST PUSH3 0x1A56 JUMPI PUSH1 0x40 MLOAD PUSH3 0x461BCD PUSH1 0xE5 SHL DUP2 MSTORE PUSH1 0x20 PUSH1 0x4 DUP3 ADD MSTORE PUSH1 0x2A PUSH1 0x24 DUP3 ADD MSTORE PUSH32 0x5361666545524332303A204552433230206F7065726174696F6E20646964206E PUSH1 0x44 DUP3 ADD MSTORE PUSH10 0x1BDD081CDD58D8D95959 PUSH1 0xB2 SHL PUSH1 0x64 DUP3 ADD MSTORE PUSH1 0x84 ADD JUMPDEST PUSH1 0x40 MLOAD DUP1 SWAP2 SUB SWAP1 REVERT JUMPDEST PUSH1 0x60 PUSH3 0x8FB DUP5 DUP5 PUSH1 0x0 DUP6 DUP6 PUSH1 0x0 DUP1 DUP7 PUSH1 0x1 PUSH1 0x1 PUSH1 0xA0 SHL SUB AND DUP6 DUP8 PUSH1 0x40 MLOAD PUSH3 0x1B8C SWAP2 SWAP1 PUSH3 0x2399 JUMP JUMPDEST PUSH1 0x0 PUSH1 0x40 MLOAD DUP1 DUP4 SUB DUP2 DUP6 DUP8 GAS CALL SWAP3 POP POP POP RETURNDATASIZE DUP1 PUSH1 0x0 DUP2 EQ PUSH3 0x1BCB JUMPI PUSH1 0x40 MLOAD SWAP2 POP PUSH1 0x1F NOT PUSH1 0x3F RETURNDATASIZE ADD AND DUP3 ADD PUSH1 0x40 MSTORE RETURNDATASIZE DUP3 MSTORE RETURNDATASIZE PUSH1 0x0 PUSH1 0x20 DUP5 ADD RETURNDATACOPY PUSH3 0x1BD0 JUMP JUMPDEST PUSH1 0x60 SWAP2 POP JUMPDEST POP SWAP2 POP SWAP2 POP PUSH3 0x1BE3 DUP8 DUP4 DUP4 DUP8 PUSH3 0x1BEE JUMP JUMPDEST SWAP8 SWAP7 POP POP POP POP POP POP POP JUMP JUMPDEST PUSH1 0x60 DUP4 ISZERO PUSH3 0x1C62 JUMPI DUP3 MLOAD PUSH1 0x0 SUB PUSH3 0x1C5A JUMPI PUSH1 0x1 PUSH1 0x1 PUSH1 0xA0 SHL SUB DUP6 AND EXTCODESIZE PUSH3 0x1C5A JUMPI PUSH1 0x40 MLOAD PUSH3 0x461BCD PUSH1 0xE5 SHL DUP2 MSTORE PUSH1 0x20 PUSH1 0x4 DUP3 ADD MSTORE PUSH1 0x1D PUSH1 0x24 DUP3 ADD MSTORE PUSH32 0x416464726573733A2063616C6C20746F206E6F6E2D636F6E7472616374000000 PUSH1 0x44 DUP3 ADD MSTORE PUSH1 0x64 ADD PUSH3 0x1B59 JUMP JUMPDEST POP DUP2 PUSH3 0x8FB JUMP JUMPDEST PUSH3 0x8FB DUP4 DUP4 DUP2 MLOAD ISZERO PUSH3 0x1C79 JUMPI DUP2 MLOAD DUP1 DUP4 PUSH1 0x20 ADD REVERT JUMPDEST DUP1 PUSH1 0x40 MLOAD PUSH3 0x461BCD PUSH1 0xE5 SHL DUP2 MSTORE PUSH1 0x4 ADD PUSH3 0x1B59 SWAP2 SWAP1 PUSH3 0x1D00 JUMP JUMPDEST PUSH2 0x201E DUP1 PUSH3 0x23B8 DUP4 CODECOPY ADD SWAP1 JUMP JUMPDEST PUSH1 0x0 JUMPDEST DUP4 DUP2 LT ISZERO PUSH3 0x1CC0 JUMPI DUP2 DUP2 ADD MLOAD DUP4 DUP3 ADD MSTORE PUSH1 0x20 ADD PUSH3 0x1CA6 JUMP JUMPDEST DUP4 DUP2 GT ISZERO PUSH3 0x1A7F JUMPI POP POP PUSH1 0x0 SWAP2 ADD MSTORE JUMP JUMPDEST PUSH1 0x0 DUP2 MLOAD DUP1 DUP5 MSTORE PUSH3 0x1CEC DUP2 PUSH1 0x20 DUP7 ADD PUSH1 0x20 DUP7 ADD PUSH3 0x1CA3 JUMP JUMPDEST PUSH1 0x1F ADD PUSH1 0x1F NOT AND SWAP3 SWAP1 SWAP3 ADD PUSH1 0x20 ADD SWAP3 SWAP2 POP POP JUMP JUMPDEST PUSH1 0x20 DUP2 MSTORE PUSH1 0x0 PUSH3 0x672 PUSH1 0x20 DUP4 ADD DUP5 PUSH3 0x1CD2 JUMP JUMPDEST PUSH4 0x4E487B71 PUSH1 0xE0 SHL PUSH1 0x0 MSTORE PUSH1 0x41 PUSH1 0x4 MSTORE PUSH1 0x24 PUSH1 0x0 REVERT JUMPDEST PUSH1 0x40 MLOAD PUSH1 0x1F DUP3 ADD PUSH1 0x1F NOT AND DUP2 ADD PUSH1 0x1 PUSH1 0x1 PUSH1 0x40 SHL SUB DUP2 GT DUP3 DUP3 LT OR ISZERO PUSH3 0x1D56 JUMPI PUSH3 0x1D56 PUSH3 0x1D15 JUMP JUMPDEST PUSH1 0x40 MSTORE SWAP2 SWAP1 POP JUMP JUMPDEST PUSH1 0x0 PUSH1 0x1 PUSH1 0x1 PUSH1 0x40 SHL SUB DUP3 GT ISZERO PUSH3 0x1D7A JUMPI PUSH3 0x1D7A PUSH3 0x1D15 JUMP JUMPDEST POP PUSH1 0x5 SHL PUSH1 0x20 ADD SWAP1 JUMP JUMPDEST PUSH1 0x0 DUP3 PUSH1 0x1F DUP4 ADD SLT PUSH3 0x1D96 JUMPI PUSH1 0x0 DUP1 REVERT JUMPDEST DUP2 CALLDATALOAD PUSH1 0x20 PUSH3 0x1DAF PUSH3 0x1DA9 DUP4 PUSH3 0x1D5E JUMP JUMPDEST PUSH3 0x1D2B JUMP JUMPDEST DUP3 DUP2 MSTORE PUSH1 0x5 SWAP3 SWAP1 SWAP3 SHL DUP5 ADD DUP2 ADD SWAP2 DUP2 DUP2 ADD SWAP1 DUP7 DUP5 GT ISZERO PUSH3 0x1DCF JUMPI PUSH1 0x0 DUP1 REVERT JUMPDEST DUP3 DUP7 ADD JUMPDEST DUP5 DUP2 LT ISZERO PUSH3 0x1DEC JUMPI DUP1 CALLDATALOAD DUP4 MSTORE SWAP2 DUP4 ADD SWAP2 DUP4 ADD PUSH3 0x1DD3 JUMP JUMPDEST POP SWAP7 SWAP6 POP POP POP POP POP POP JUMP JUMPDEST PUSH1 0x1 PUSH1 0x1 PUSH1 0xA0 SHL SUB DUP2 AND DUP2 EQ PUSH3 0x7BD JUMPI PUSH1 0x0 DUP1 REVERT JUMPDEST PUSH1 0x0 DUP3 PUSH1 0x1F DUP4 ADD SLT PUSH3 0x1E1F JUMPI PUSH1 0x0 DUP1 REVERT JUMPDEST DUP2 CALLDATALOAD PUSH1 0x20 PUSH3 0x1E32 PUSH3 0x1DA9 DUP4 PUSH3 0x1D5E JUMP JUMPDEST DUP3 DUP2 MSTORE PUSH1 0x5 SWAP3 SWAP1 SWAP3 SHL DUP5 ADD DUP2 ADD SWAP2 DUP2 DUP2 ADD SWAP1 DUP7 DUP5 GT ISZERO PUSH3 0x1E52 JUMPI PUSH1 0x0 DUP1 REVERT JUMPDEST DUP3 DUP7 ADD JUMPDEST DUP5 DUP2 LT ISZERO PUSH3 0x1DEC JUMPI DUP1 CALLDATALOAD PUSH3 0x1E6C DUP2 PUSH3 0x1DF7 JUMP JUMPDEST DUP4 MSTORE SWAP2 DUP4 ADD SWAP2 DUP4 ADD PUSH3 0x1E56 JUMP JUMPDEST PUSH1 0x0 DUP1 PUSH1 0x40 DUP4 DUP6 SUB SLT ISZERO PUSH3 0x1E8E JUMPI PUSH1 0x0 DUP1 REVERT JUMPDEST DUP3 CALLDATALOAD PUSH1 0x1 PUSH1 0x1 PUSH1 0x40 SHL SUB DUP1 DUP3 GT ISZERO PUSH3 0x1EA6 JUMPI PUSH1 0x0 DUP1 REVERT JUMPDEST PUSH3 0x1EB4 DUP7 DUP4 DUP8 ADD PUSH3 0x1D84 JUMP JUMPDEST SWAP4 POP PUSH1 0x20 DUP6 ADD CALLDATALOAD SWAP2 POP DUP1 DUP3 GT ISZERO PUSH3 0x1ECB JUMPI PUSH1 0x0 DUP1 REVERT JUMPDEST POP PUSH3 0x1EDA DUP6 DUP3 DUP7 ADD PUSH3 0x1E0D JUMP JUMPDEST SWAP2 POP POP SWAP3 POP SWAP3 SWAP1 POP JUMP JUMPDEST PUSH1 0x0 PUSH1 0x20 DUP3 DUP5 SUB SLT ISZERO PUSH3 0x1EF7 JUMPI PUSH1 0x0 DUP1 REVERT JUMPDEST DUP2 CALLDATALOAD PUSH3 0x672 DUP2 PUSH3 0x1DF7 JUMP JUMPDEST PUSH1 0x0 DUP1 PUSH1 0x0 DUP1 PUSH1 0x80 DUP6 DUP8 SUB SLT ISZERO PUSH3 0x1F1B JUMPI PUSH1 0x0 DUP1 REVERT JUMPDEST DUP5 CALLDATALOAD PUSH3 0x1F28 DUP2 PUSH3 0x1DF7 JUMP JUMPDEST SWAP4 POP PUSH1 0x20 DUP6 ADD CALLDATALOAD PUSH3 0x1F3A DUP2 PUSH3 0x1DF7 JUMP JUMPDEST SWAP3 POP PUSH1 0x40 DUP6 ADD CALLDATALOAD PUSH3 0x1F4C DUP2 PUSH3 0x1DF7 JUMP JUMPDEST SWAP4 SWAP7 SWAP3 SWAP6 POP SWAP3 SWAP4 PUSH1 0x60 ADD CALLDATALOAD SWAP3 POP POP JUMP JUMPDEST DUP1 ISZERO ISZERO DUP2 EQ PUSH3 0x7BD JUMPI PUSH1 0x0 DUP1 REVERT JUMPDEST PUSH1 0x0 DUP1 PUSH1 0x0 PUSH1 0x60 DUP5 DUP7 SUB SLT ISZERO PUSH3 0x1F81 JUMPI PUSH1 0x0 DUP1 REVERT JUMPDEST DUP4 CALLDATALOAD SWAP3 POP PUSH1 0x20 DUP5 ADD CALLDATALOAD SWAP2 POP PUSH1 0x40 DUP5 ADD CALLDATALOAD PUSH3 0x1F9C DUP2 PUSH3 0x1F5C JUMP JUMPDEST DUP1 SWAP2 POP POP SWAP3 POP SWAP3 POP SWAP3 JUMP JUMPDEST PUSH1 0x0 DUP1 PUSH1 0x0 PUSH1 0x60 DUP5 DUP7 SUB SLT ISZERO PUSH3 0x1FBD JUMPI PUSH1 0x0 DUP1 REVERT JUMPDEST DUP4 CALLDATALOAD PUSH3 0x1FCA DUP2 PUSH3 0x1DF7 JUMP JUMPDEST SWAP3 POP PUSH1 0x20 DUP5 ADD CALLDATALOAD SWAP2 POP PUSH1 0x40 DUP5 ADD CALLDATALOAD PUSH3 0x1F9C DUP2 PUSH3 0x1DF7 JUMP JUMPDEST PUSH1 0x0 DUP1 PUSH1 0x0 PUSH1 0x60 DUP5 DUP7 SUB SLT ISZERO PUSH3 0x1FF9 JUMPI PUSH1 0x0 DUP1 REVERT JUMPDEST DUP4 CALLDATALOAD PUSH1 0x1 PUSH1 0x1 PUSH1 0x40 SHL SUB DUP1 DUP3 GT ISZERO PUSH3 0x2011 JUMPI PUSH1 0x0 DUP1 REVERT JUMPDEST PUSH3 0x201F DUP8 DUP4 DUP9 ADD PUSH3 0x1D84 JUMP JUMPDEST SWAP5 POP PUSH1 0x20 DUP7 ADD CALLDATALOAD SWAP2 POP DUP1 DUP3 GT ISZERO PUSH3 0x2036 JUMPI PUSH1 0x0 DUP1 REVERT JUMPDEST POP PUSH3 0x2045 DUP7 DUP3 DUP8 ADD PUSH3 0x1E0D JUMP JUMPDEST SWAP3 POP POP PUSH1 0x40 DUP5 ADD CALLDATALOAD PUSH3 0x1F9C DUP2 PUSH3 0x1DF7 JUMP JUMPDEST PUSH1 0x0 DUP1 PUSH1 0x40 DUP4 DUP6 SUB SLT ISZERO PUSH3 0x206C JUMPI PUSH1 0x0 DUP1 REVERT JUMPDEST DUP3 CALLDATALOAD PUSH3 0x2079 DUP2 PUSH3 0x1DF7 JUMP JUMPDEST SWAP2 POP PUSH1 0x20 DUP4 ADD CALLDATALOAD PUSH3 0x208B DUP2 PUSH3 0x1DF7 JUMP JUMPDEST DUP1 SWAP2 POP POP SWAP3 POP SWAP3 SWAP1 POP JUMP JUMPDEST PUSH1 0x0 DUP1 PUSH1 0x0 DUP1 PUSH1 0x0 DUP1 PUSH1 0x0 DUP1 PUSH2 0x100 DUP10 DUP12 SUB SLT ISZERO PUSH3 0x20B4 JUMPI PUSH1 0x0 DUP1 REVERT JUMPDEST DUP9 CALLDATALOAD PUSH3 0x20C1 DUP2 PUSH3 0x1DF7 JUMP JUMPDEST SWAP8 POP PUSH1 0x20 DUP10 ADD CALLDATALOAD PUSH3 0x20D3 DUP2 PUSH3 0x1DF7 JUMP JUMPDEST SWAP7 POP PUSH1 0x40 DUP10 ADD CALLDATALOAD SWAP6 POP PUSH1 0x60 DUP10 ADD CALLDATALOAD PUSH3 0x20EC DUP2 PUSH3 0x1F5C JUMP JUMPDEST SWAP8 SWAP11 SWAP7 SWAP10 POP SWAP5 SWAP8 PUSH1 0x80 DUP2 ADD CALLDATALOAD SWAP7 PUSH1 0xA0 DUP3 ADD CALLDATALOAD SWAP7 POP PUSH1 0xC0 DUP3 ADD CALLDATALOAD SWAP6 POP PUSH1 0xE0 SWAP1 SWAP2 ADD CALLDATALOAD SWAP4 POP SWAP2 POP POP JUMP JUMPDEST PUSH1 0x1 PUSH1 0x1 PUSH1 0xA0 SHL SUB SWAP2 SWAP1 SWAP2 AND DUP2 MSTORE PUSH1 0x20 ADD SWAP1 JUMP JUMPDEST PUSH1 0x1 DUP2 DUP2 SHR SWAP1 DUP3 AND DUP1 PUSH3 0x213D JUMPI PUSH1 0x7F DUP3 AND SWAP2 POP JUMPDEST PUSH1 0x20 DUP3 LT DUP2 SUB PUSH3 0x215E JUMPI PUSH4 0x4E487B71 PUSH1 0xE0 SHL PUSH1 0x0 MSTORE PUSH1 0x22 PUSH1 0x4 MSTORE PUSH1 0x24 PUSH1 0x0 REVERT JUMPDEST POP SWAP2 SWAP1 POP JUMP JUMPDEST PUSH4 0x4E487B71 PUSH1 0xE0 SHL PUSH1 0x0 MSTORE PUSH1 0x32 PUSH1 0x4 MSTORE PUSH1 0x24 PUSH1 0x0 REVERT JUMPDEST PUSH1 0x1 PUSH1 0x1 PUSH1 0xA0 SHL SUB SWAP3 SWAP1 SWAP3 AND DUP3 MSTORE PUSH1 0x20 DUP3 ADD MSTORE PUSH1 0x40 ADD SWAP1 JUMP JUMPDEST PUSH1 0x0 PUSH1 0x20 DUP3 DUP5 SUB SLT ISZERO PUSH3 0x21A6 JUMPI PUSH1 0x0 DUP1 REVERT JUMPDEST DUP2 MLOAD PUSH3 0x672 DUP2 PUSH3 0x1F5C JUMP JUMPDEST PUSH4 0x4E487B71 PUSH1 0xE0 SHL PUSH1 0x0 MSTORE PUSH1 0x11 PUSH1 0x4 MSTORE PUSH1 0x24 PUSH1 0x0 REVERT JUMPDEST PUSH1 0x0 PUSH1 0x1 DUP3 ADD PUSH3 0x21DE JUMPI PUSH3 0x21DE PUSH3 0x21B3 JUMP JUMPDEST POP PUSH1 0x1 ADD SWAP1 JUMP JUMPDEST PUSH4 0x4E487B71 PUSH1 0xE0 SHL PUSH1 0x0 MSTORE PUSH1 0x1 PUSH1 0x4 MSTORE PUSH1 0x24 PUSH1 0x0 REVERT JUMPDEST PUSH1 0x0 PUSH1 0x20 DUP3 DUP5 SUB SLT ISZERO PUSH3 0x220E JUMPI PUSH1 0x0 DUP1 REVERT JUMPDEST DUP2 MLOAD PUSH1 0x1 PUSH1 0x1 PUSH1 0x40 SHL SUB DUP1 DUP3 GT ISZERO PUSH3 0x2226 JUMPI PUSH1 0x0 DUP1 REVERT JUMPDEST DUP2 DUP5 ADD SWAP2 POP DUP5 PUSH1 0x1F DUP4 ADD SLT PUSH3 0x223B JUMPI PUSH1 0x0 DUP1 REVERT JUMPDEST DUP2 MLOAD DUP2 DUP2 GT ISZERO PUSH3 0x2250 JUMPI PUSH3 0x2250 PUSH3 0x1D15 JUMP JUMPDEST PUSH3 0x2265 PUSH1 0x1F DUP3 ADD PUSH1 0x1F NOT AND PUSH1 0x20 ADD PUSH3 0x1D2B JUMP JUMPDEST SWAP2 POP DUP1 DUP3 MSTORE DUP6 PUSH1 0x20 DUP3 DUP6 ADD ADD GT ISZERO PUSH3 0x227D JUMPI PUSH1 0x0 DUP1 REVERT JUMPDEST PUSH3 0x2290 DUP2 PUSH1 0x20 DUP5 ADD PUSH1 0x20 DUP7 ADD PUSH3 0x1CA3 JUMP JUMPDEST POP SWAP5 SWAP4 POP POP POP POP JUMP JUMPDEST PUSH1 0x1 PUSH1 0x1 PUSH1 0xA0 SHL SUB DUP5 DUP2 AND DUP3 MSTORE DUP4 AND PUSH1 0x20 DUP3 ADD MSTORE PUSH1 0x60 PUSH1 0x40 DUP3 ADD DUP2 SWAP1 MSTORE PUSH1 0x0 SWAP1 PUSH3 0xB94 SWAP1 DUP4 ADD DUP5 PUSH3 0x1CD2 JUMP JUMPDEST PUSH1 0x1 PUSH1 0x1 PUSH1 0xA0 SHL SUB SWAP3 DUP4 AND DUP2 MSTORE SWAP2 AND PUSH1 0x20 DUP3 ADD MSTORE PUSH1 0x40 ADD SWAP1 JUMP JUMPDEST PUSH1 0x0 PUSH1 0x20 DUP3 DUP5 SUB SLT ISZERO PUSH3 0x22F4 JUMPI PUSH1 0x0 DUP1 REVERT JUMPDEST POP MLOAD SWAP2 SWAP1 POP JUMP JUMPDEST PUSH1 0x0 DUP3 NOT DUP3 GT ISZERO PUSH3 0x2311 JUMPI PUSH3 0x2311 PUSH3 0x21B3 JUMP JUMPDEST POP ADD SWAP1 JUMP JUMPDEST PUSH1 0x0 DUP2 PUSH1 0x0 NOT DIV DUP4 GT DUP3 ISZERO ISZERO AND ISZERO PUSH3 0x2333 JUMPI PUSH3 0x2333 PUSH3 0x21B3 JUMP JUMPDEST POP MUL SWAP1 JUMP JUMPDEST PUSH1 0x0 DUP3 PUSH3 0x2356 JUMPI PUSH4 0x4E487B71 PUSH1 0xE0 SHL PUSH1 0x0 MSTORE PUSH1 0x12 PUSH1 0x4 MSTORE PUSH1 0x24 PUSH1 0x0 REVERT JUMPDEST POP DIV SWAP1 JUMP JUMPDEST PUSH1 0x0 DUP3 DUP3 LT ISZERO PUSH3 0x2370 JUMPI PUSH3 0x2370 PUSH3 0x21B3 JUMP JUMPDEST POP SUB SWAP1 JUMP JUMPDEST PUSH1 0x1 PUSH1 0x1 PUSH1 0xA0 SHL SUB SWAP4 DUP5 AND DUP2 MSTORE SWAP2 SWAP1 SWAP3 AND PUSH1 0x20 DUP3 ADD MSTORE PUSH1 0x40 DUP2 ADD SWAP2 SWAP1 SWAP2 MSTORE PUSH1 0x60 ADD SWAP1 JUMP JUMPDEST PUSH1 0x0 DUP3 MLOAD PUSH3 0x23AD DUP2 DUP5 PUSH1 0x20 DUP8 ADD PUSH3 0x1CA3 JUMP JUMPDEST SWAP2 SWAP1 SWAP2 ADD SWAP3 SWAP2 POP POP JUMP INVALID PUSH1 0x80 PUSH1 0x40 DUP2 SWAP1 MSTORE PUSH1 0x6 DUP1 SLOAD PUSH1 0x1 PUSH1 0x1 PUSH1 0xA0 SHL SUB NOT AND ADDRESS OR SWAP1 SSTORE PUSH3 0x201E CODESIZE DUP2 SWAP1 SUB SWAP1 DUP2 SWAP1 DUP4 CODECOPY DUP2 ADD PUSH1 0x40 DUP2 SWAP1 MSTORE PUSH3 0x37 SWAP2 PUSH3 0x2F6 JUMP JUMPDEST DUP1 PUSH1 0x40 MLOAD PUSH1 0x20 ADD PUSH3 0x4A SWAP2 SWAP1 PUSH3 0x3D6 JUMP JUMPDEST PUSH1 0x40 MLOAD PUSH1 0x20 DUP2 DUP4 SUB SUB DUP2 MSTORE SWAP1 PUSH1 0x40 MSTORE DUP2 PUSH1 0x40 MLOAD PUSH1 0x20 ADD PUSH3 0x6C SWAP2 SWAP1 PUSH3 0x413 JUMP JUMPDEST PUSH1 0x40 MLOAD PUSH1 0x20 DUP2 DUP4 SUB SUB DUP2 MSTORE SWAP1 PUSH1 0x40 MSTORE DUP4 DUP3 DUP3 DUP2 PUSH1 0x3 SWAP1 DUP1 MLOAD SWAP1 PUSH1 0x20 ADD SWAP1 PUSH3 0x96 SWAP3 SWAP2 SWAP1 PUSH3 0x1EA JUMP JUMPDEST POP DUP1 MLOAD PUSH3 0xAC SWAP1 PUSH1 0x4 SWAP1 PUSH1 0x20 DUP5 ADD SWAP1 PUSH3 0x1EA JUMP JUMPDEST POP POP POP PUSH3 0xC9 PUSH3 0xC3 PUSH3 0x1A5 PUSH1 0x20 SHL PUSH1 0x20 SHR JUMP JUMPDEST PUSH3 0x1A9 JUMP JUMPDEST DUP3 MLOAD PUSH3 0xDE SWAP1 PUSH1 0x3 SWAP1 PUSH1 0x20 DUP7 ADD SWAP1 PUSH3 0x1EA JUMP JUMPDEST POP DUP2 MLOAD PUSH3 0xF4 SWAP1 PUSH1 0x4 SWAP1 PUSH1 0x20 DUP6 ADD SWAP1 PUSH3 0x1EA JUMP JUMPDEST POP PUSH1 0x40 MLOAD PUSH1 0x1 PUSH1 0x1 PUSH1 0xA0 SHL SUB DUP3 AND SWAP1 PUSH1 0x0 SWAP1 PUSH1 0x0 DUP1 MLOAD PUSH1 0x20 PUSH3 0x1FFE DUP4 CODECOPY DUP2 MLOAD SWAP2 MSTORE SWAP1 DUP3 SWAP1 LOG3 POP POP PUSH1 0x9 DUP1 SLOAD PUSH1 0x1 PUSH1 0x1 PUSH1 0xA0 SHL SUB DUP1 DUP7 AND PUSH1 0x1 PUSH1 0x1 PUSH1 0xA0 SHL SUB NOT SWAP3 DUP4 AND DUP2 OR SWAP1 SWAP4 SSTORE PUSH1 0x8 DUP1 SLOAD SWAP2 DUP9 AND SWAP2 DUP4 AND SWAP2 SWAP1 SWAP2 OR SWAP1 SSTORE PUSH1 0xA DUP1 SLOAD PUSH1 0x1 DUP2 ADD DUP3 SSTORE PUSH1 0x0 SWAP2 SWAP1 SWAP2 MSTORE PUSH32 0xC65A7BB8D6351C1CF70C95A316CC6A92839C986682D98BC35F958F4883F9D2A8 ADD DUP1 SLOAD SWAP1 SWAP2 AND SWAP1 SWAP2 OR SWAP1 SSTORE POP PUSH3 0x198 TIMESTAMP PUSH3 0x3F480 PUSH3 0x445 JUMP JUMPDEST PUSH1 0xC SSTORE POP PUSH3 0x4A8 SWAP2 POP POP JUMP JUMPDEST CALLER SWAP1 JUMP JUMPDEST PUSH1 0x5 DUP1 SLOAD PUSH1 0x1 PUSH1 0x1 PUSH1 0xA0 SHL SUB DUP4 DUP2 AND PUSH1 0x1 PUSH1 0x1 PUSH1 0xA0 SHL SUB NOT DUP4 AND DUP2 OR SWAP1 SWAP4 SSTORE PUSH1 0x40 MLOAD SWAP2 AND SWAP2 SWAP1 DUP3 SWAP1 PUSH1 0x0 DUP1 MLOAD PUSH1 0x20 PUSH3 0x1FFE DUP4 CODECOPY DUP2 MLOAD SWAP2 MSTORE SWAP1 PUSH1 0x0 SWAP1 LOG3 POP POP JUMP JUMPDEST DUP3 DUP1 SLOAD PUSH3 0x1F8 SWAP1 PUSH3 0x46C JUMP JUMPDEST SWAP1 PUSH1 0x0 MSTORE PUSH1 0x20 PUSH1 0x0 KECCAK256 SWAP1 PUSH1 0x1F ADD PUSH1 0x20 SWAP1 DIV DUP2 ADD SWAP3 DUP3 PUSH3 0x21C JUMPI PUSH1 0x0 DUP6 SSTORE PUSH3 0x267 JUMP JUMPDEST DUP3 PUSH1 0x1F LT PUSH3 0x237 JUMPI DUP1 MLOAD PUSH1 0xFF NOT AND DUP4 DUP1 ADD OR DUP6 SSTORE PUSH3 0x267 JUMP JUMPDEST DUP3 DUP1 ADD PUSH1 0x1 ADD DUP6 SSTORE DUP3 ISZERO PUSH3 0x267 JUMPI SWAP2 DUP3 ADD JUMPDEST DUP3 DUP2 GT ISZERO PUSH3 0x267 JUMPI DUP3 MLOAD DUP3 SSTORE SWAP2 PUSH1 0x20 ADD SWAP2 SWAP1 PUSH1 0x1 ADD SWAP1 PUSH3 0x24A JUMP JUMPDEST POP PUSH3 0x275 SWAP3 SWAP2 POP PUSH3 0x279 JUMP JUMPDEST POP SWAP1 JUMP JUMPDEST JUMPDEST DUP1 DUP3 GT ISZERO PUSH3 0x275 JUMPI PUSH1 0x0 DUP2 SSTORE PUSH1 0x1 ADD PUSH3 0x27A JUMP JUMPDEST DUP1 MLOAD PUSH1 0x1 PUSH1 0x1 PUSH1 0xA0 SHL SUB DUP2 AND DUP2 EQ PUSH3 0x2A8 JUMPI PUSH1 0x0 DUP1 REVERT JUMPDEST SWAP2 SWAP1 POP JUMP JUMPDEST PUSH4 0x4E487B71 PUSH1 0xE0 SHL PUSH1 0x0 MSTORE PUSH1 0x41 PUSH1 0x4 MSTORE PUSH1 0x24 PUSH1 0x0 REVERT JUMPDEST PUSH1 0x0 JUMPDEST DUP4 DUP2 LT ISZERO PUSH3 0x2E0 JUMPI DUP2 DUP2 ADD MLOAD DUP4 DUP3 ADD MSTORE PUSH1 0x20 ADD PUSH3 0x2C6 JUMP JUMPDEST DUP4 DUP2 GT ISZERO PUSH3 0x2F0 JUMPI PUSH1 0x0 DUP5 DUP5 ADD MSTORE JUMPDEST POP POP POP POP JUMP JUMPDEST PUSH1 0x0 DUP1 PUSH1 0x0 PUSH1 0x60 DUP5 DUP7 SUB SLT ISZERO PUSH3 0x30C JUMPI PUSH1 0x0 DUP1 REVERT JUMPDEST PUSH3 0x317 DUP5 PUSH3 0x290 JUMP JUMPDEST SWAP3 POP PUSH3 0x327 PUSH1 0x20 DUP6 ADD PUSH3 0x290 JUMP JUMPDEST PUSH1 0x40 DUP6 ADD MLOAD SWAP1 SWAP3 POP PUSH1 0x1 PUSH1 0x1 PUSH1 0x40 SHL SUB DUP1 DUP3 GT ISZERO PUSH3 0x345 JUMPI PUSH1 0x0 DUP1 REVERT JUMPDEST DUP2 DUP7 ADD SWAP2 POP DUP7 PUSH1 0x1F DUP4 ADD SLT PUSH3 0x35A JUMPI PUSH1 0x0 DUP1 REVERT JUMPDEST DUP2 MLOAD DUP2 DUP2 GT ISZERO PUSH3 0x36F JUMPI PUSH3 0x36F PUSH3 0x2AD JUMP JUMPDEST PUSH1 0x40 MLOAD PUSH1 0x1F DUP3 ADD PUSH1 0x1F NOT SWAP1 DUP2 AND PUSH1 0x3F ADD AND DUP2 ADD SWAP1 DUP4 DUP3 GT DUP2 DUP4 LT OR ISZERO PUSH3 0x39A JUMPI PUSH3 0x39A PUSH3 0x2AD JUMP JUMPDEST DUP2 PUSH1 0x40 MSTORE DUP3 DUP2 MSTORE DUP10 PUSH1 0x20 DUP5 DUP8 ADD ADD GT ISZERO PUSH3 0x3B4 JUMPI PUSH1 0x0 DUP1 REVERT JUMPDEST PUSH3 0x3C7 DUP4 PUSH1 0x20 DUP4 ADD PUSH1 0x20 DUP9 ADD PUSH3 0x2C3 JUMP JUMPDEST DUP1 SWAP6 POP POP POP POP POP POP SWAP3 POP SWAP3 POP SWAP3 JUMP JUMPDEST PUSH8 0xD2ACC2EAD8E8405 PUSH1 0xC3 SHL DUP2 MSTORE PUSH1 0x0 DUP3 MLOAD PUSH3 0x3FB DUP2 PUSH1 0x8 DUP6 ADD PUSH1 0x20 DUP8 ADD PUSH3 0x2C3 JUMP JUMPDEST PUSH1 0x29 PUSH1 0xF8 SHL PUSH1 0x8 SWAP4 SWAP1 SWAP2 ADD SWAP3 DUP4 ADD MSTORE POP PUSH1 0x9 ADD SWAP2 SWAP1 POP JUMP JUMPDEST PUSH8 0x427269646765642D PUSH1 0xC0 SHL DUP2 MSTORE PUSH1 0x0 DUP3 MLOAD PUSH3 0x438 DUP2 PUSH1 0x8 DUP6 ADD PUSH1 0x20 DUP8 ADD PUSH3 0x2C3 JUMP JUMPDEST SWAP2 SWAP1 SWAP2 ADD PUSH1 0x8 ADD SWAP3 SWAP2 POP POP JUMP JUMPDEST PUSH1 0x0 DUP3 NOT DUP3 GT ISZERO PUSH3 0x467 JUMPI PUSH4 0x4E487B71 PUSH1 0xE0 SHL PUSH1 0x0 MSTORE PUSH1 0x11 PUSH1 0x4 MSTORE PUSH1 0x24 PUSH1 0x0 REVERT JUMPDEST POP ADD SWAP1 JUMP JUMPDEST PUSH1 0x1 DUP2 DUP2 SHR SWAP1 DUP3 AND DUP1 PUSH3 0x481 JUMPI PUSH1 0x7F DUP3 AND SWAP2 POP JUMPDEST PUSH1 0x20 DUP3 LT DUP2 SUB PUSH3 0x4A2 JUMPI PUSH4 0x4E487B71 PUSH1 0xE0 SHL PUSH1 0x0 MSTORE PUSH1 0x22 PUSH1 0x4 MSTORE PUSH1 0x24 PUSH1 0x0 REVERT JUMPDEST POP SWAP2 SWAP1 POP JUMP JUMPDEST PUSH2 0x1B46 DUP1 PUSH3 0x4B8 PUSH1 0x0 CODECOPY PUSH1 0x0 RETURN INVALID PUSH1 0x80 PUSH1 0x40 MSTORE PUSH1 0x4 CALLDATASIZE LT PUSH2 0x15F JUMPI PUSH1 0x0 CALLDATALOAD PUSH1 0xE0 SHR DUP1 PUSH4 0x8DA5CB5B GT PUSH2 0xC4 JUMPI DUP1 PUSH4 0x8DA5CB5B EQ PUSH2 0x355 JUMPI DUP1 PUSH4 0x95D89B41 EQ PUSH2 0x373 JUMPI DUP1 PUSH4 0x9A708BE3 EQ PUSH2 0x388 JUMPI DUP1 PUSH4 0xA457C2D7 EQ PUSH2 0x3A8 JUMPI DUP1 PUSH4 0xA5F2A152 EQ PUSH2 0x3C8 JUMPI DUP1 PUSH4 0xA9059CBB EQ PUSH2 0x3E8 JUMPI DUP1 PUSH4 0xB09F1266 EQ PUSH2 0x408 JUMPI DUP1 PUSH4 0xB90306AD EQ PUSH2 0x41D JUMPI DUP1 PUSH4 0xBBB35F69 EQ PUSH2 0x43D JUMPI DUP1 PUSH4 0xD28D8852 EQ PUSH2 0x473 JUMPI DUP1 PUSH4 0xD7B96D4E EQ PUSH2 0x488 JUMPI DUP1 PUSH4 0xDD62ED3E EQ PUSH2 0x4A8 JUMPI DUP1 PUSH4 0xE534155D EQ PUSH2 0x4EE JUMPI DUP1 PUSH4 0xF2FDE38B EQ PUSH2 0x50E JUMPI DUP1 PUSH4 0xFD4C9B96 EQ PUSH2 0x52E JUMPI STOP JUMPDEST DUP1 PUSH3 0xE73378 EQ PUSH2 0x168 JUMPI DUP1 PUSH4 0x6FDDE03 EQ PUSH2 0x190 JUMPI DUP1 PUSH4 0x95EA7B3 EQ PUSH2 0x1B2 JUMPI DUP1 PUSH4 0xF388B4F EQ PUSH2 0x1D2 JUMPI DUP1 PUSH4 0xF6798A5 EQ PUSH2 0x1F6 JUMPI DUP1 PUSH4 0x18160DDD EQ PUSH2 0x216 JUMPI DUP1 PUSH4 0x23B872DD EQ PUSH2 0x22B JUMPI DUP1 PUSH4 0x28E1A604 EQ PUSH2 0x24B JUMPI DUP1 PUSH4 0x2A11CED0 EQ PUSH2 0x26B JUMPI DUP1 PUSH4 0x313CE567 EQ PUSH2 0x298 JUMPI DUP1 PUSH4 0x39509351 EQ PUSH2 0x2B4 JUMPI DUP1 PUSH4 0x70A08231 EQ PUSH2 0x2D4 JUMPI DUP1 PUSH4 0x715018A6 EQ PUSH2 0x30A JUMPI DUP1 PUSH4 0x794F4DD1 EQ PUSH2 0x31F JUMPI STOP JUMPDEST CALLDATASIZE PUSH2 0x166 JUMPI STOP JUMPDEST STOP JUMPDEST PUSH2 0x17B PUSH2 0x176 CALLDATASIZE PUSH1 0x4 PUSH2 0x174D JUMP JUMPDEST PUSH2 0x54E JUMP JUMPDEST PUSH1 0x40 MLOAD SWAP1 ISZERO ISZERO DUP2 MSTORE PUSH1 0x20 ADD JUMPDEST PUSH1 0x40 MLOAD DUP1 SWAP2 SUB SWAP1 RETURN JUMPDEST CALLVALUE DUP1 ISZERO PUSH2 0x19C JUMPI PUSH1 0x0 DUP1 REVERT JUMPDEST POP PUSH2 0x1A5 PUSH2 0x605 JUMP JUMPDEST PUSH1 0x40 MLOAD PUSH2 0x187 SWAP2 SWAP1 PUSH2 0x17A5 JUMP JUMPDEST CALLVALUE DUP1 ISZERO PUSH2 0x1BE JUMPI PUSH1 0x0 DUP1 REVERT JUMPDEST POP PUSH2 0x17B PUSH2 0x1CD CALLDATASIZE PUSH1 0x4 PUSH2 0x174D JUMP JUMPDEST PUSH2 0x697 JUMP JUMPDEST CALLVALUE DUP1 ISZERO PUSH2 0x1DE JUMPI PUSH1 0x0 DUP1 REVERT JUMPDEST POP PUSH2 0x1E8 PUSH1 0xB SLOAD DUP2 JUMP JUMPDEST PUSH1 0x40 MLOAD SWAP1 DUP2 MSTORE PUSH1 0x20 ADD PUSH2 0x187 JUMP JUMPDEST CALLVALUE DUP1 ISZERO PUSH2 0x202 JUMPI PUSH1 0x0 DUP1 REVERT JUMPDEST POP PUSH2 0x166 PUSH2 0x211 CALLDATASIZE PUSH1 0x4 PUSH2 0x174D JUMP JUMPDEST PUSH2 0x6AD JUMP JUMPDEST CALLVALUE DUP1 ISZERO PUSH2 0x222 JUMPI PUSH1 0x0 DUP1 REVERT JUMPDEST POP PUSH1 0x2 SLOAD PUSH2 0x1E8 JUMP JUMPDEST CALLVALUE DUP1 ISZERO PUSH2 0x237 JUMPI PUSH1 0x0 DUP1 REVERT JUMPDEST POP PUSH2 0x17B PUSH2 0x246 CALLDATASIZE PUSH1 0x4 PUSH2 0x17D8 JUMP JUMPDEST PUSH2 0x7AB JUMP JUMPDEST CALLVALUE DUP1 ISZERO PUSH2 0x257 JUMPI PUSH1 0x0 DUP1 REVERT JUMPDEST POP PUSH2 0x166 PUSH2 0x266 CALLDATASIZE PUSH1 0x4 PUSH2 0x174D JUMP JUMPDEST PUSH2 0x801 JUMP JUMPDEST CALLVALUE DUP1 ISZERO PUSH2 0x277 JUMPI PUSH1 0x0 DUP1 REVERT JUMPDEST POP PUSH2 0x28B PUSH2 0x286 CALLDATASIZE PUSH1 0x4 PUSH2 0x1819 JUMP JUMPDEST PUSH2 0x817 JUMP JUMPDEST PUSH1 0x40 MLOAD PUSH2 0x187 SWAP2 SWAP1 PUSH2 0x1832 JUMP JUMPDEST CALLVALUE DUP1 ISZERO PUSH2 0x2A4 JUMPI PUSH1 0x0 DUP1 REVERT JUMPDEST POP PUSH1 0x40 MLOAD PUSH1 0x12 DUP2 MSTORE PUSH1 0x20 ADD PUSH2 0x187 JUMP JUMPDEST CALLVALUE DUP1 ISZERO PUSH2 0x2C0 JUMPI PUSH1 0x0 DUP1 REVERT JUMPDEST POP PUSH2 0x17B PUSH2 0x2CF CALLDATASIZE PUSH1 0x4 PUSH2 0x174D JUMP JUMPDEST PUSH2 0x841 JUMP JUMPDEST CALLVALUE DUP1 ISZERO PUSH2 0x2E0 JUMPI PUSH1 0x0 DUP1 REVERT JUMPDEST POP PUSH2 0x1E8 PUSH2 0x2EF CALLDATASIZE PUSH1 0x4 PUSH2 0x1846 JUMP JUMPDEST PUSH1 0x1 PUSH1 0x1 PUSH1 0xA0 SHL SUB AND PUSH1 0x0 SWAP1 DUP2 MSTORE PUSH1 0x20 DUP2 SWAP1 MSTORE PUSH1 0x40 SWAP1 KECCAK256 SLOAD SWAP1 JUMP JUMPDEST CALLVALUE DUP1 ISZERO PUSH2 0x316 JUMPI PUSH1 0x0 DUP1 REVERT JUMPDEST POP PUSH2 0x166 PUSH2 0x87D JUMP JUMPDEST CALLVALUE DUP1 ISZERO PUSH2 0x32B JUMPI PUSH1 0x0 DUP1 REVERT JUMPDEST POP PUSH2 0x28B PUSH2 0x33A CALLDATASIZE PUSH1 0x4 PUSH2 0x1819 JUMP JUMPDEST PUSH1 0x0 SWAP1 DUP2 MSTORE PUSH1 0x7 PUSH1 0x20 MSTORE PUSH1 0x40 SWAP1 KECCAK256 SLOAD PUSH1 0x1 PUSH1 0x1 PUSH1 0xA0 SHL SUB AND SWAP1 JUMP JUMPDEST CALLVALUE DUP1 ISZERO PUSH2 0x361 JUMPI PUSH1 0x0 DUP1 REVERT JUMPDEST POP PUSH1 0x5 SLOAD PUSH1 0x1 PUSH1 0x1 PUSH1 0xA0 SHL SUB AND PUSH2 0x28B JUMP JUMPDEST CALLVALUE DUP1 ISZERO PUSH2 0x37F JUMPI PUSH1 0x0 DUP1 REVERT JUMPDEST POP PUSH2 0x1A5 PUSH2 0x891 JUMP JUMPDEST CALLVALUE DUP1 ISZERO PUSH2 0x394 JUMPI PUSH1 0x0 DUP1 REVERT JUMPDEST POP PUSH2 0x166 PUSH2 0x3A3 CALLDATASIZE PUSH1 0x4 PUSH2 0x190D JUMP JUMPDEST PUSH2 0x8A0 JUMP JUMPDEST CALLVALUE DUP1 ISZERO PUSH2 0x3B4 JUMPI PUSH1 0x0 DUP1 REVERT JUMPDEST POP PUSH2 0x17B PUSH2 0x3C3 CALLDATASIZE PUSH1 0x4 PUSH2 0x174D JUMP JUMPDEST PUSH2 0x8D9 JUMP JUMPDEST CALLVALUE DUP1 ISZERO PUSH2 0x3D4 JUMPI PUSH1 0x0 DUP1 REVERT JUMPDEST POP PUSH2 0x17B PUSH2 0x3E3 CALLDATASIZE PUSH1 0x4 PUSH2 0x17D8 JUMP JUMPDEST PUSH2 0x917 JUMP JUMPDEST CALLVALUE DUP1 ISZERO PUSH2 0x3F4 JUMPI PUSH1 0x0 DUP1 REVERT JUMPDEST POP PUSH2 0x17B PUSH2 0x403 CALLDATASIZE PUSH1 0x4 PUSH2 0x174D JUMP JUMPDEST PUSH2 0xA50 JUMP JUMPDEST CALLVALUE DUP1 ISZERO PUSH2 0x414 JUMPI PUSH1 0x0 DUP1 REVERT JUMPDEST POP PUSH2 0x1A5 PUSH2 0xA5D JUMP JUMPDEST CALLVALUE DUP1 ISZERO PUSH2 0x429 JUMPI PUSH1 0x0 DUP1 REVERT JUMPDEST POP PUSH2 0x166 PUSH2 0x438 CALLDATASIZE PUSH1 0x4 PUSH2 0x1819 JUMP JUMPDEST PUSH2 0xAEB JUMP JUMPDEST CALLVALUE DUP1 ISZERO PUSH2 0x449 JUMPI PUSH1 0x0 DUP1 REVERT JUMPDEST POP PUSH2 0x28B PUSH2 0x458 CALLDATASIZE PUSH1 0x4 PUSH2 0x1819 JUMP JUMPDEST PUSH1 0x7 PUSH1 0x20 MSTORE PUSH1 0x0 SWAP1 DUP2 MSTORE PUSH1 0x40 SWAP1 KECCAK256 SLOAD PUSH1 0x1 PUSH1 0x1 PUSH1 0xA0 SHL SUB AND DUP2 JUMP JUMPDEST CALLVALUE DUP1 ISZERO PUSH2 0x47F JUMPI PUSH1 0x0 DUP1 REVERT JUMPDEST POP PUSH2 0x1A5 PUSH2 0xB00 JUMP JUMPDEST CALLVALUE DUP1 ISZERO PUSH2 0x494 JUMPI PUSH1 0x0 DUP1 REVERT JUMPDEST POP PUSH1 0x8 SLOAD PUSH2 0x28B SWAP1 PUSH1 0x1 PUSH1 0x1 PUSH1 0xA0 SHL SUB AND DUP2 JUMP JUMPDEST CALLVALUE DUP1 ISZERO PUSH2 0x4B4 JUMPI PUSH1 0x0 DUP1 REVERT JUMPDEST POP PUSH2 0x1E8 PUSH2 0x4C3 CALLDATASIZE PUSH1 0x4 PUSH2 0x1971 JUMP JUMPDEST PUSH1 0x1 PUSH1 0x1 PUSH1 0xA0 SHL SUB SWAP2 DUP3 AND PUSH1 0x0 SWAP1 DUP2 MSTORE PUSH1 0x1 PUSH1 0x20 SWAP1 DUP2 MSTORE PUSH1 0x40 DUP1 DUP4 KECCAK256 SWAP4 SWAP1 SWAP5 AND DUP3 MSTORE SWAP2 SWAP1 SWAP2 MSTORE KECCAK256 SLOAD SWAP1 JUMP JUMPDEST CALLVALUE DUP1 ISZERO PUSH2 0x4FA JUMPI PUSH1 0x0 DUP1 REVERT JUMPDEST POP PUSH1 0x9 SLOAD PUSH2 0x28B SWAP1 PUSH1 0x1 PUSH1 0x1 PUSH1 0xA0 SHL SUB AND DUP2 JUMP JUMPDEST CALLVALUE DUP1 ISZERO PUSH2 0x51A JUMPI PUSH1 0x0 DUP1 REVERT JUMPDEST POP PUSH2 0x166 PUSH2 0x529 CALLDATASIZE PUSH1 0x4 PUSH2 0x1846 JUMP JUMPDEST PUSH2 0xB0D JUMP JUMPDEST CALLVALUE DUP1 ISZERO PUSH2 0x53A JUMPI PUSH1 0x0 DUP1 REVERT JUMPDEST POP PUSH2 0x17B PUSH2 0x549 CALLDATASIZE PUSH1 0x4 PUSH2 0x1846 JUMP JUMPDEST PUSH2 0xB88 JUMP JUMPDEST PUSH1 0x8 SLOAD PUSH1 0x0 SWAP1 PUSH1 0x1 PUSH1 0x1 PUSH1 0xA0 SHL SUB AND CALLER PUSH1 0x1 PUSH1 0x1 PUSH1 0xA0 SHL SUB AND EQ DUP1 PUSH2 0x586 JUMPI POP PUSH1 0x9 SLOAD PUSH1 0x1 PUSH1 0x1 PUSH1 0xA0 SHL SUB AND CALLER PUSH1 0x1 PUSH1 0x1 PUSH1 0xA0 SHL SUB AND EQ JUMPDEST PUSH2 0x58F JUMPI PUSH1 0x0 DUP1 REVERT JUMPDEST SELFBALANCE DUP3 GT ISZERO PUSH2 0x59B JUMPI SELFBALANCE SWAP2 POP JUMPDEST PUSH1 0x0 DUP4 PUSH1 0x1 PUSH1 0x1 PUSH1 0xA0 SHL SUB AND DUP4 PUSH1 0x40 MLOAD PUSH1 0x0 PUSH1 0x40 MLOAD DUP1 DUP4 SUB DUP2 DUP6 DUP8 GAS CALL SWAP3 POP POP POP RETURNDATASIZE DUP1 PUSH1 0x0 DUP2 EQ PUSH2 0x5E8 JUMPI PUSH1 0x40 MLOAD SWAP2 POP PUSH1 0x1F NOT PUSH1 0x3F RETURNDATASIZE ADD AND DUP3 ADD PUSH1 0x40 MSTORE RETURNDATASIZE DUP3 MSTORE RETURNDATASIZE PUSH1 0x0 PUSH1 0x20 DUP5 ADD RETURNDATACOPY PUSH2 0x5ED JUMP JUMPDEST PUSH1 0x60 SWAP2 POP JUMPDEST POP POP SWAP1 POP DUP1 PUSH2 0x5FB JUMPI PUSH1 0x0 DUP1 REVERT JUMPDEST POP PUSH1 0x1 SWAP4 SWAP3 POP POP POP JUMP JUMPDEST PUSH1 0x60 PUSH1 0x3 DUP1 SLOAD PUSH2 0x614 SWAP1 PUSH2 0x19AA JUMP JUMPDEST DUP1 PUSH1 0x1F ADD PUSH1 0x20 DUP1 SWAP2 DIV MUL PUSH1 0x20 ADD PUSH1 0x40 MLOAD SWAP1 DUP2 ADD PUSH1 0x40 MSTORE DUP1 SWAP3 SWAP2 SWAP1 DUP2 DUP2 MSTORE PUSH1 0x20 ADD DUP3 DUP1 SLOAD PUSH2 0x640 SWAP1 PUSH2 0x19AA JUMP JUMPDEST DUP1 ISZERO PUSH2 0x68D JUMPI DUP1 PUSH1 0x1F LT PUSH2 0x662 JUMPI PUSH2 0x100 DUP1 DUP4 SLOAD DIV MUL DUP4 MSTORE SWAP2 PUSH1 0x20 ADD SWAP2 PUSH2 0x68D JUMP JUMPDEST DUP3 ADD SWAP2 SWAP1 PUSH1 0x0 MSTORE PUSH1 0x20 PUSH1 0x0 KECCAK256 SWAP1 JUMPDEST DUP2 SLOAD DUP2 MSTORE SWAP1 PUSH1 0x1 ADD SWAP1 PUSH1 0x20 ADD DUP1 DUP4 GT PUSH2 0x670 JUMPI DUP3 SWAP1 SUB PUSH1 0x1F AND DUP3 ADD SWAP2 JUMPDEST POP POP POP POP POP SWAP1 POP SWAP1 JUMP JUMPDEST PUSH1 0x0 PUSH2 0x6A4 CALLER DUP5 DUP5 PUSH2 0xEE6 JUMP JUMPDEST POP PUSH1 0x1 SWAP3 SWAP2 POP POP JUMP JUMPDEST PUSH1 0x0 PUSH2 0x2710 ADDRESS PUSH1 0x1 PUSH1 0x1 PUSH1 0xA0 SHL SUB AND PUSH4 0x18160DDD PUSH1 0x40 MLOAD DUP2 PUSH4 0xFFFFFFFF AND PUSH1 0xE0 SHL DUP2 MSTORE PUSH1 0x4 ADD PUSH1 0x20 PUSH1 0x40 MLOAD DUP1 DUP4 SUB DUP2 DUP7 GAS STATICCALL ISZERO DUP1 ISZERO PUSH2 0x6F0 JUMPI RETURNDATASIZE PUSH1 0x0 DUP1 RETURNDATACOPY RETURNDATASIZE PUSH1 0x0 REVERT JUMPDEST POP POP POP POP PUSH1 0x40 MLOAD RETURNDATASIZE PUSH1 0x1F NOT PUSH1 0x1F DUP3 ADD AND DUP3 ADD DUP1 PUSH1 0x40 MSTORE POP DUP2 ADD SWAP1 PUSH2 0x714 SWAP2 SWAP1 PUSH2 0x19E4 JUMP JUMPDEST PUSH2 0x720 SWAP1 PUSH2 0x13EC PUSH2 0x1A13 JUMP JUMPDEST PUSH2 0x72A SWAP2 SWAP1 PUSH2 0x1A32 JUMP JUMPDEST PUSH1 0x40 MLOAD PUSH4 0x70A08231 PUSH1 0xE0 SHL DUP2 MSTORE ADDRESS SWAP1 PUSH4 0x70A08231 SWAP1 PUSH2 0x74D SWAP1 CALLER SWAP1 PUSH1 0x4 ADD PUSH2 0x1832 JUMP JUMPDEST PUSH1 0x20 PUSH1 0x40 MLOAD DUP1 DUP4 SUB DUP2 DUP7 GAS STATICCALL ISZERO DUP1 ISZERO PUSH2 0x76A JUMPI RETURNDATASIZE PUSH1 0x0 DUP1 RETURNDATACOPY RETURNDATASIZE PUSH1 0x0 REVERT JUMPDEST POP POP POP POP PUSH1 0x40 MLOAD RETURNDATASIZE PUSH1 0x1F NOT PUSH1 0x1F DUP3 ADD AND DUP3 ADD DUP1 PUSH1 0x40 MSTORE POP DUP2 ADD SWAP1 PUSH2 0x78E SWAP2 SWAP1 PUSH2 0x19E4 JUMP JUMPDEST LT ISZERO SWAP1 POP DUP1 PUSH2 0x79C JUMPI PUSH1 0x0 DUP1 REVERT JUMPDEST PUSH2 0x7A6 DUP4 DUP4 PUSH2 0xF6D JUMP JUMPDEST POP POP POP JUMP JUMPDEST PUSH1 0x0 PUSH2 0x7B8 DUP5 DUP5 DUP5 PUSH2 0xFF7 JUMP JUMPDEST PUSH1 0x1 PUSH1 0x1 PUSH1 0xA0 SHL SUB DUP5 AND PUSH1 0x0 SWAP1 DUP2 MSTORE PUSH1 0x1 PUSH1 0x20 SWAP1 DUP2 MSTORE PUSH1 0x40 DUP1 DUP4 KECCAK256 CALLER DUP5 MSTORE SWAP1 SWAP2 MSTORE SWAP1 KECCAK256 SLOAD DUP3 DUP2 LT ISZERO PUSH2 0x7E9 JUMPI PUSH1 0x0 DUP1 REVERT JUMPDEST PUSH2 0x7F6 DUP6 CALLER DUP6 DUP5 SUB PUSH2 0xEE6 JUMP JUMPDEST POP PUSH1 0x1 SWAP5 SWAP4 POP POP POP POP JUMP JUMPDEST PUSH2 0x809 PUSH2 0x11D2 JUMP JUMPDEST PUSH2 0x813 DUP3 DUP3 PUSH2 0x122C JUMP JUMPDEST POP POP JUMP JUMPDEST PUSH1 0xA DUP2 DUP2 SLOAD DUP2 LT PUSH2 0x827 JUMPI PUSH1 0x0 DUP1 REVERT JUMPDEST PUSH1 0x0 SWAP2 DUP3 MSTORE PUSH1 0x20 SWAP1 SWAP2 KECCAK256 ADD SLOAD PUSH1 0x1 PUSH1 0x1 PUSH1 0xA0 SHL SUB AND SWAP1 POP DUP2 JUMP JUMPDEST CALLER PUSH1 0x0 DUP2 DUP2 MSTORE PUSH1 0x1 PUSH1 0x20 SWAP1 DUP2 MSTORE PUSH1 0x40 DUP1 DUP4 KECCAK256 PUSH1 0x1 PUSH1 0x1 PUSH1 0xA0 SHL SUB DUP8 AND DUP5 MSTORE SWAP1 SWAP2 MSTORE DUP2 KECCAK256 SLOAD SWAP1 SWAP2 PUSH2 0x6A4 SWAP2 DUP6 SWAP1 PUSH2 0x878 SWAP1 DUP7 SWAP1 PUSH2 0x1A54 JUMP JUMPDEST PUSH2 0xEE6 JUMP JUMPDEST PUSH2 0x885 PUSH2 0x11D2 JUMP JUMPDEST PUSH2 0x88F PUSH1 0x0 PUSH2 0x12CD JUMP JUMPDEST JUMP JUMPDEST PUSH1 0x60 PUSH1 0x4 DUP1 SLOAD PUSH2 0x614 SWAP1 PUSH2 0x19AA JUMP JUMPDEST PUSH1 0x9 SLOAD PUSH1 0x1 PUSH1 0x1 PUSH1 0xA0 SHL SUB AND CALLER SUB PUSH2 0x813 JUMPI DUP2 MLOAD PUSH2 0x8C5 SWAP1 PUSH1 0x3 SWAP1 PUSH1 0x20 DUP6 ADD SWAP1 PUSH2 0x169F JUMP JUMPDEST POP DUP1 MLOAD PUSH2 0x7A6 SWAP1 PUSH1 0x4 SWAP1 PUSH1 0x20 DUP5 ADD SWAP1 PUSH2 0x169F JUMP JUMPDEST CALLER PUSH1 0x0 SWAP1 DUP2 MSTORE PUSH1 0x1 PUSH1 0x20 SWAP1 DUP2 MSTORE PUSH1 0x40 DUP1 DUP4 KECCAK256 PUSH1 0x1 PUSH1 0x1 PUSH1 0xA0 SHL SUB DUP7 AND DUP5 MSTORE SWAP1 SWAP2 MSTORE DUP2 KECCAK256 SLOAD DUP3 DUP2 LT ISZERO PUSH2 0x90A JUMPI PUSH1 0x0 DUP1 REVERT JUMPDEST PUSH2 0x5FB CALLER DUP6 DUP6 DUP5 SUB PUSH2 0xEE6 JUMP JUMPDEST PUSH1 0x8 SLOAD PUSH1 0x0 SWAP1 PUSH1 0x1 PUSH1 0x1 PUSH1 0xA0 SHL SUB AND CALLER PUSH1 0x1 PUSH1 0x1 PUSH1 0xA0 SHL SUB AND EQ DUP1 PUSH2 0x94F JUMPI POP PUSH1 0x9 SLOAD PUSH1 0x1 PUSH1 0x1 PUSH1 0xA0 SHL SUB AND CALLER PUSH1 0x1 PUSH1 0x1 PUSH1 0xA0 SHL SUB AND EQ JUMPDEST PUSH2 0x958 JUMPI PUSH1 0x0 DUP1 REVERT JUMPDEST PUSH1 0x40 MLOAD PUSH4 0x70A08231 PUSH1 0xE0 SHL DUP2 MSTORE PUSH1 0x1 PUSH1 0x1 PUSH1 0xA0 SHL SUB DUP6 AND SWAP1 PUSH4 0x70A08231 SWAP1 PUSH2 0x984 SWAP1 ADDRESS SWAP1 PUSH1 0x4 ADD PUSH2 0x1832 JUMP JUMPDEST PUSH1 0x20 PUSH1 0x40 MLOAD DUP1 DUP4 SUB DUP2 DUP7 GAS STATICCALL ISZERO DUP1 ISZERO PUSH2 0x9A1 JUMPI RETURNDATASIZE PUSH1 0x0 DUP1 RETURNDATACOPY RETURNDATASIZE PUSH1 0x0 REVERT JUMPDEST POP POP POP POP PUSH1 0x40 MLOAD RETURNDATASIZE PUSH1 0x1F NOT PUSH1 0x1F DUP3 ADD AND DUP3 ADD DUP1 PUSH1 0x40 MSTORE POP DUP2 ADD SWAP1 PUSH2 0x9C5 SWAP2 SWAP1 PUSH2 0x19E4 JUMP JUMPDEST DUP3 GT ISZERO PUSH2 0xA3C JUMPI PUSH1 0x40 MLOAD PUSH4 0x70A08231 PUSH1 0xE0 SHL DUP2 MSTORE PUSH1 0x1 PUSH1 0x1 PUSH1 0xA0 SHL SUB DUP6 AND SWAP1 PUSH4 0x70A08231 SWAP1 PUSH2 0x9F8 SWAP1 ADDRESS SWAP1 PUSH1 0x4 ADD PUSH2 0x1832 JUMP JUMPDEST PUSH1 0x20 PUSH1 0x40 MLOAD DUP1 DUP4 SUB DUP2 DUP7 GAS STATICCALL ISZERO DUP1 ISZERO PUSH2 0xA15 JUMPI RETURNDATASIZE PUSH1 0x0 DUP1 RETURNDATACOPY RETURNDATASIZE PUSH1 0x0 REVERT JUMPDEST POP POP POP POP PUSH1 0x40 MLOAD RETURNDATASIZE PUSH1 0x1F NOT PUSH1 0x1F DUP3 ADD AND DUP3 ADD DUP1 PUSH1 0x40 MSTORE POP DUP2 ADD SWAP1 PUSH2 0xA39 SWAP2 SWAP1 PUSH2 0x19E4 JUMP JUMPDEST SWAP2 POP JUMPDEST PUSH2 0x5FB PUSH1 0x1 PUSH1 0x1 PUSH1 0xA0 SHL SUB DUP6 AND DUP5 DUP5 PUSH2 0x131F JUMP JUMPDEST PUSH1 0x0 PUSH2 0x6A4 CALLER DUP5 DUP5 PUSH2 0xFF7 JUMP JUMPDEST PUSH1 0x4 DUP1 SLOAD PUSH2 0xA6A SWAP1 PUSH2 0x19AA JUMP JUMPDEST DUP1 PUSH1 0x1F ADD PUSH1 0x20 DUP1 SWAP2 DIV MUL PUSH1 0x20 ADD PUSH1 0x40 MLOAD SWAP1 DUP2 ADD PUSH1 0x40 MSTORE DUP1 SWAP3 SWAP2 SWAP1 DUP2 DUP2 MSTORE PUSH1 0x20 ADD DUP3 DUP1 SLOAD PUSH2 0xA96 SWAP1 PUSH2 0x19AA JUMP JUMPDEST DUP1 ISZERO PUSH2 0xAE3 JUMPI DUP1 PUSH1 0x1F LT PUSH2 0xAB8 JUMPI PUSH2 0x100 DUP1 DUP4 SLOAD DIV MUL DUP4 MSTORE SWAP2 PUSH1 0x20 ADD SWAP2 PUSH2 0xAE3 JUMP JUMPDEST DUP3 ADD SWAP2 SWAP1 PUSH1 0x0 MSTORE PUSH1 0x20 PUSH1 0x0 KECCAK256 SWAP1 JUMPDEST DUP2 SLOAD DUP2 MSTORE SWAP1 PUSH1 0x1 ADD SWAP1 PUSH1 0x20 ADD DUP1 DUP4 GT PUSH2 0xAC6 JUMPI DUP3 SWAP1 SUB PUSH1 0x1F AND DUP3 ADD SWAP2 JUMPDEST POP POP POP POP POP DUP2 JUMP JUMPDEST PUSH2 0xAF3 PUSH2 0x11D2 JUMP JUMPDEST PUSH2 0xAFD CALLER DUP3 PUSH2 0x122C JUMP JUMPDEST POP JUMP JUMPDEST PUSH1 0x3 DUP1 SLOAD PUSH2 0xA6A SWAP1 PUSH2 0x19AA JUMP JUMPDEST PUSH2 0xB15 PUSH2 0x11D2 JUMP JUMPDEST PUSH1 0x1 PUSH1 0x1 PUSH1 0xA0 SHL SUB DUP2 AND PUSH2 0xB7F JUMPI PUSH1 0x40 MLOAD PUSH3 0x461BCD PUSH1 0xE5 SHL DUP2 MSTORE PUSH1 0x20 PUSH1 0x4 DUP3 ADD MSTORE PUSH1 0x26 PUSH1 0x24 DUP3 ADD MSTORE PUSH32 0x4F776E61626C653A206E6577206F776E657220697320746865207A65726F2061 PUSH1 0x44 DUP3 ADD MSTORE PUSH6 0x646472657373 PUSH1 0xD0 SHL PUSH1 0x64 DUP3 ADD MSTORE PUSH1 0x84 ADD JUMPDEST PUSH1 0x40 MLOAD DUP1 SWAP2 SUB SWAP1 REVERT JUMPDEST PUSH2 0xAFD DUP2 PUSH2 0x12CD JUMP JUMPDEST PUSH1 0x9 SLOAD PUSH1 0x0 SWAP1 PUSH1 0x1 PUSH1 0x1 PUSH1 0xA0 SHL SUB DUP4 DUP2 AND SWAP2 AND EQ PUSH2 0xEDE JUMPI PUSH1 0x9 SLOAD PUSH1 0x1 PUSH1 0x1 PUSH1 0xA0 SHL SUB AND CALLER DUP2 SWAP1 SUB PUSH2 0xD21 JUMPI PUSH1 0x9 DUP1 SLOAD PUSH1 0x1 PUSH1 0x1 PUSH1 0xA0 SHL SUB DUP6 AND PUSH1 0x1 PUSH1 0x1 PUSH1 0xA0 SHL SUB NOT SWAP2 DUP3 AND DUP2 OR SWAP1 SWAP3 SSTORE PUSH1 0xA DUP1 SLOAD PUSH1 0x1 DUP2 ADD DUP3 SSTORE PUSH1 0x0 SWAP2 SWAP1 SWAP2 MSTORE PUSH32 0xC65A7BB8D6351C1CF70C95A316CC6A92839C986682D98BC35F958F4883F9D2A8 ADD DUP1 SLOAD SWAP1 SWAP2 AND SWAP1 SWAP2 OR SWAP1 SSTORE PUSH2 0xC1B TIMESTAMP PUSH2 0x258 PUSH2 0x1A54 JUMP JUMPDEST PUSH1 0xC SSTORE PUSH1 0x6 SLOAD PUSH1 0x40 DUP1 MLOAD PUSH4 0x18160DDD PUSH1 0xE0 SHL DUP2 MSTORE SWAP1 MLOAD PUSH2 0xC97 SWAP3 DUP7 SWAP3 PUSH1 0x1 PUSH1 0x1 PUSH1 0xA0 SHL SUB SWAP1 SWAP2 AND SWAP2 PUSH4 0x18160DDD SWAP2 PUSH1 0x4 DUP1 DUP3 ADD SWAP3 PUSH1 0x20 SWAP3 SWAP1 SWAP2 SWAP1 DUP3 SWAP1 SUB ADD DUP2 DUP7 GAS STATICCALL ISZERO DUP1 ISZERO PUSH2 0xC6E JUMPI RETURNDATASIZE PUSH1 0x0 DUP1 RETURNDATACOPY RETURNDATASIZE PUSH1 0x0 REVERT JUMPDEST POP POP POP POP PUSH1 0x40 MLOAD RETURNDATASIZE PUSH1 0x1F NOT PUSH1 0x1F DUP3 ADD AND DUP3 ADD DUP1 PUSH1 0x40 MSTORE POP DUP2 ADD SWAP1 PUSH2 0xC92 SWAP2 SWAP1 PUSH2 0x19E4 JUMP JUMPDEST PUSH2 0xF6D JUMP JUMPDEST PUSH2 0xCA0 DUP4 PUSH2 0xB0D JUMP JUMPDEST PUSH1 0x6 SLOAD PUSH1 0x40 MLOAD PUSH4 0x70A08231 PUSH1 0xE0 SHL DUP2 MSTORE PUSH2 0xD1C SWAP2 DUP4 SWAP2 PUSH1 0x1 PUSH1 0x1 PUSH1 0xA0 SHL SUB SWAP1 SWAP2 AND SWAP1 PUSH4 0x70A08231 SWAP1 PUSH2 0xCD6 SWAP1 DUP5 SWAP1 PUSH1 0x4 ADD PUSH2 0x1832 JUMP JUMPDEST PUSH1 0x20 PUSH1 0x40 MLOAD DUP1 DUP4 SUB DUP2 DUP7 GAS STATICCALL ISZERO DUP1 ISZERO PUSH2 0xCF3 JUMPI RETURNDATASIZE PUSH1 0x0 DUP1 RETURNDATACOPY RETURNDATASIZE PUSH1 0x0 REVERT JUMPDEST POP POP POP POP PUSH1 0x40 MLOAD RETURNDATASIZE PUSH1 0x1F NOT PUSH1 0x1F DUP3 ADD AND DUP3 ADD DUP1 PUSH1 0x40 MSTORE POP DUP2 ADD SWAP1 PUSH2 0xD17 SWAP2 SWAP1 PUSH2 0x19E4 JUMP JUMPDEST PUSH2 0x122C JUMP JUMPDEST PUSH2 0xE9C JUMP JUMPDEST PUSH2 0x2710 PUSH2 0x13EC PUSH1 0x6 PUSH1 0x0 SWAP1 SLOAD SWAP1 PUSH2 0x100 EXP SWAP1 DIV PUSH1 0x1 PUSH1 0x1 PUSH1 0xA0 SHL SUB AND PUSH1 0x1 PUSH1 0x1 PUSH1 0xA0 SHL SUB AND PUSH4 0x18160DDD PUSH1 0x40 MLOAD DUP2 PUSH4 0xFFFFFFFF AND PUSH1 0xE0 SHL DUP2 MSTORE PUSH1 0x4 ADD PUSH1 0x20 PUSH1 0x40 MLOAD DUP1 DUP4 SUB DUP2 DUP7 GAS STATICCALL ISZERO DUP1 ISZERO PUSH2 0xD7A JUMPI RETURNDATASIZE PUSH1 0x0 DUP1 RETURNDATACOPY RETURNDATASIZE PUSH1 0x0 REVERT JUMPDEST POP POP POP POP PUSH1 0x40 MLOAD RETURNDATASIZE PUSH1 0x1F NOT PUSH1 0x1F DUP3 ADD AND DUP3 ADD DUP1 PUSH1 0x40 MSTORE POP DUP2 ADD SWAP1 PUSH2 0xD9E SWAP2 SWAP1 PUSH2 0x19E4 JUMP JUMPDEST PUSH2 0xDA8 SWAP2 SWAP1 PUSH2 0x1A13 JUMP JUMPDEST PUSH2 0xDB2 SWAP2 SWAP1 PUSH2 0x1A32 JUMP JUMPDEST PUSH1 0x6 SLOAD PUSH1 0x40 MLOAD PUSH4 0x70A08231 PUSH1 0xE0 SHL DUP2 MSTORE PUSH1 0x1 PUSH1 0x1 PUSH1 0xA0 SHL SUB SWAP1 SWAP2 AND SWAP1 PUSH4 0x70A08231 SWAP1 PUSH2 0xDE2 SWAP1 DUP8 SWAP1 PUSH1 0x4 ADD PUSH2 0x1832 JUMP JUMPDEST PUSH1 0x20 PUSH1 0x40 MLOAD DUP1 DUP4 SUB DUP2 DUP7 GAS STATICCALL ISZERO DUP1 ISZERO PUSH2 0xDFF JUMPI RETURNDATASIZE PUSH1 0x0 DUP1 RETURNDATACOPY RETURNDATASIZE PUSH1 0x0 REVERT JUMPDEST POP POP POP POP PUSH1 0x40 MLOAD RETURNDATASIZE PUSH1 0x1F NOT PUSH1 0x1F DUP3 ADD AND DUP3 ADD DUP1 PUSH1 0x40 MSTORE POP DUP2 ADD SWAP1 PUSH2 0xE23 SWAP2 SWAP1 PUSH2 0x19E4 JUMP JUMPDEST LT PUSH2 0xE9C JUMPI PUSH1 0x9 DUP1 SLOAD PUSH1 0x1 PUSH1 0x1 PUSH1 0xA0 SHL SUB DUP6 AND PUSH1 0x1 PUSH1 0x1 PUSH1 0xA0 SHL SUB NOT SWAP2 DUP3 AND DUP2 OR SWAP1 SWAP3 SSTORE PUSH1 0xA DUP1 SLOAD PUSH1 0x1 DUP2 ADD DUP3 SSTORE PUSH1 0x0 SWAP2 SWAP1 SWAP2 MSTORE PUSH32 0xC65A7BB8D6351C1CF70C95A316CC6A92839C986682D98BC35F958F4883F9D2A8 ADD DUP1 SLOAD SWAP1 SWAP2 AND SWAP1 SWAP2 OR SWAP1 SSTORE PUSH2 0xE90 TIMESTAMP PUSH3 0x15180 PUSH2 0x1A54 JUMP JUMPDEST PUSH1 0xC SSTORE PUSH2 0xE9C DUP4 PUSH2 0xB0D JUMP JUMPDEST DUP3 PUSH1 0x1 PUSH1 0x1 PUSH1 0xA0 SHL SUB AND DUP2 PUSH1 0x1 PUSH1 0x1 PUSH1 0xA0 SHL SUB AND PUSH32 0x63DB4FD02ABE7291D8F941514C494426E598A36D386FAFA477735F923D30C83E PUSH1 0x40 MLOAD PUSH1 0x40 MLOAD DUP1 SWAP2 SUB SWAP1 LOG3 POP JUMPDEST POP PUSH1 0x1 SWAP2 SWAP1 POP JUMP JUMPDEST PUSH1 0x1 PUSH1 0x1 PUSH1 0xA0 SHL SUB DUP4 AND PUSH2 0xEF9 JUMPI PUSH1 0x0 DUP1 REVERT JUMPDEST PUSH1 0x1 PUSH1 0x1 PUSH1 0xA0 SHL SUB DUP3 AND PUSH2 0xF0C JUMPI PUSH1 0x0 DUP1 REVERT JUMPDEST PUSH1 0x1 PUSH1 0x1 PUSH1 0xA0 SHL SUB DUP4 DUP2 AND PUSH1 0x0 DUP2 DUP2 MSTORE PUSH1 0x1 PUSH1 0x20 SWAP1 DUP2 MSTORE PUSH1 0x40 DUP1 DUP4 KECCAK256 SWAP5 DUP8 AND DUP1 DUP5 MSTORE SWAP5 DUP3 MSTORE SWAP2 DUP3 SWAP1 KECCAK256 DUP6 SWAP1 SSTORE SWAP1 MLOAD DUP5 DUP2 MSTORE PUSH32 0x8C5BE1E5EBEC7D5BD14F71427D1E84F3DD0314C0F7B2291E5B200AC8C7C3B925 SWAP2 ADD PUSH1 0x40 MLOAD DUP1 SWAP2 SUB SWAP1 LOG3 POP POP POP JUMP JUMPDEST PUSH1 0x1 PUSH1 0x1 PUSH1 0xA0 SHL SUB DUP3 AND PUSH2 0xF80 JUMPI PUSH1 0x0 DUP1 REVERT JUMPDEST DUP1 PUSH1 0x2 PUSH1 0x0 DUP3 DUP3 SLOAD PUSH2 0xF92 SWAP2 SWAP1 PUSH2 0x1A54 JUMP JUMPDEST SWAP1 SWAP2 SSTORE POP POP PUSH1 0x1 PUSH1 0x1 PUSH1 0xA0 SHL SUB DUP3 AND PUSH1 0x0 SWAP1 DUP2 MSTORE PUSH1 0x20 DUP2 SWAP1 MSTORE PUSH1 0x40 DUP2 KECCAK256 DUP1 SLOAD DUP4 SWAP3 SWAP1 PUSH2 0xFBF SWAP1 DUP5 SWAP1 PUSH2 0x1A54 JUMP JUMPDEST SWAP1 SWAP2 SSTORE POP POP PUSH1 0x40 MLOAD DUP2 DUP2 MSTORE PUSH1 0x1 PUSH1 0x1 PUSH1 0xA0 SHL SUB DUP4 AND SWAP1 PUSH1 0x0 SWAP1 PUSH1 0x0 DUP1 MLOAD PUSH1 0x20 PUSH2 0x1AF1 DUP4 CODECOPY DUP2 MLOAD SWAP2 MSTORE SWAP1 PUSH1 0x20 ADD PUSH1 0x40 MLOAD DUP1 SWAP2 SUB SWAP1 LOG3 POP POP JUMP JUMPDEST PUSH1 0x0 JUMPDEST PUSH1 0xA SLOAD DUP2 LT ISZERO PUSH2 0x11C6 JUMPI PUSH2 0x2710 PUSH2 0x13EC PUSH1 0x6 PUSH1 0x0 SWAP1 SLOAD SWAP1 PUSH2 0x100 EXP SWAP1 DIV PUSH1 0x1 PUSH1 0x1 PUSH1 0xA0 SHL SUB AND PUSH1 0x1 PUSH1 0x1 PUSH1 0xA0 SHL SUB AND PUSH4 0x18160DDD PUSH1 0x40 MLOAD DUP2 PUSH4 0xFFFFFFFF AND PUSH1 0xE0 SHL DUP2 MSTORE PUSH1 0x4 ADD PUSH1 0x20 PUSH1 0x40 MLOAD DUP1 DUP4 SUB DUP2 DUP7 GAS STATICCALL ISZERO DUP1 ISZERO PUSH2 0x105D JUMPI RETURNDATASIZE PUSH1 0x0 DUP1 RETURNDATACOPY RETURNDATASIZE PUSH1 0x0 REVERT JUMPDEST POP POP POP POP PUSH1 0x40 MLOAD RETURNDATASIZE PUSH1 0x1F NOT PUSH1 0x1F DUP3 ADD AND DUP3 ADD DUP1 PUSH1 0x40 MSTORE POP DUP2 ADD SWAP1 PUSH2 0x1081 SWAP2 SWAP1 PUSH2 0x19E4 JUMP JUMPDEST PUSH2 0x108B SWAP2 SWAP1 PUSH2 0x1A13 JUMP JUMPDEST PUSH2 0x1095 SWAP2 SWAP1 PUSH2 0x1A32 JUMP JUMPDEST PUSH1 0x6 SLOAD PUSH1 0xA DUP1 SLOAD PUSH1 0x1 PUSH1 0x1 PUSH1 0xA0 SHL SUB SWAP1 SWAP3 AND SWAP2 PUSH4 0x70A08231 SWAP2 SWAP1 DUP6 SWAP1 DUP2 LT PUSH2 0x10BF JUMPI PUSH2 0x10BF PUSH2 0x1A6C JUMP JUMPDEST PUSH1 0x0 SWAP2 DUP3 MSTORE PUSH1 0x20 SWAP1 SWAP2 KECCAK256 ADD SLOAD PUSH1 0x40 MLOAD PUSH1 0x1 PUSH1 0x1 PUSH1 0xE0 SHL SUB NOT PUSH1 0xE0 DUP5 SWAP1 SHL AND DUP2 MSTORE PUSH2 0x10F5 SWAP2 PUSH1 0x1 PUSH1 0x1 PUSH1 0xA0 SHL SUB AND SWAP1 PUSH1 0x4 ADD PUSH2 0x1832 JUMP JUMPDEST PUSH1 0x20 PUSH1 0x40 MLOAD DUP1 DUP4 SUB DUP2 DUP7 GAS STATICCALL ISZERO DUP1 ISZERO PUSH2 0x1112 JUMPI RETURNDATASIZE PUSH1 0x0 DUP1 RETURNDATACOPY RETURNDATASIZE PUSH1 0x0 REVERT JUMPDEST POP POP POP POP PUSH1 0x40 MLOAD RETURNDATASIZE PUSH1 0x1F NOT PUSH1 0x1F DUP3 ADD AND DUP3 ADD DUP1 PUSH1 0x40 MSTORE POP DUP2 ADD SWAP1 PUSH2 0x1136 SWAP2 SWAP1 PUSH2 0x19E4 JUMP JUMPDEST LT PUSH2 0x11B4 JUMPI PUSH1 0x9 SLOAD PUSH1 0xA DUP1 SLOAD PUSH1 0x1 PUSH1 0x1 PUSH1 0xA0 SHL SUB SWAP1 SWAP3 AND SWAP2 DUP4 SWAP1 DUP2 LT PUSH2 0x115E JUMPI PUSH2 0x115E PUSH2 0x1A6C JUMP JUMPDEST PUSH1 0x0 SWAP2 DUP3 MSTORE PUSH1 0x20 SWAP1 SWAP2 KECCAK256 ADD SLOAD PUSH1 0x1 PUSH1 0x1 PUSH1 0xA0 SHL SUB AND EQ PUSH2 0x11B4 JUMPI PUSH1 0xC SLOAD TIMESTAMP GT ISZERO PUSH2 0x11B4 JUMPI PUSH2 0x11B2 PUSH1 0xA DUP3 DUP2 SLOAD DUP2 LT PUSH2 0x1198 JUMPI PUSH2 0x1198 PUSH2 0x1A6C JUMP JUMPDEST PUSH1 0x0 SWAP2 DUP3 MSTORE PUSH1 0x20 SWAP1 SWAP2 KECCAK256 ADD SLOAD PUSH1 0x1 PUSH1 0x1 PUSH1 0xA0 SHL SUB AND PUSH2 0xB88 JUMP JUMPDEST POP JUMPDEST DUP1 PUSH2 0x11BE DUP2 PUSH2 0x1A82 JUMP JUMPDEST SWAP2 POP POP PUSH2 0xFFA JUMP JUMPDEST POP PUSH2 0x7A6 DUP4 DUP4 DUP4 PUSH2 0x1371 JUMP JUMPDEST PUSH1 0x5 SLOAD PUSH1 0x1 PUSH1 0x1 PUSH1 0xA0 SHL SUB AND CALLER EQ PUSH2 0x88F JUMPI PUSH1 0x40 MLOAD PUSH3 0x461BCD PUSH1 0xE5 SHL DUP2 MSTORE PUSH1 0x20 PUSH1 0x4 DUP3 ADD DUP2 SWAP1 MSTORE PUSH1 0x24 DUP3 ADD MSTORE PUSH32 0x4F776E61626C653A2063616C6C6572206973206E6F7420746865206F776E6572 PUSH1 0x44 DUP3 ADD MSTORE PUSH1 0x64 ADD PUSH2 0xB76 JUMP JUMPDEST PUSH1 0x1 PUSH1 0x1 PUSH1 0xA0 SHL SUB DUP3 AND PUSH2 0x123F JUMPI PUSH1 0x0 DUP1 REVERT JUMPDEST PUSH1 0x1 PUSH1 0x1 PUSH1 0xA0 SHL SUB DUP3 AND PUSH1 0x0 SWAP1 DUP2 MSTORE PUSH1 0x20 DUP2 SWAP1 MSTORE PUSH1 0x40 SWAP1 KECCAK256 SLOAD DUP2 DUP2 LT ISZERO PUSH2 0x1265 JUMPI PUSH1 0x0 DUP1 REVERT JUMPDEST PUSH1 0x1 PUSH1 0x1 PUSH1 0xA0 SHL SUB DUP4 AND PUSH1 0x0 SWAP1 DUP2 MSTORE PUSH1 0x20 DUP2 SWAP1 MSTORE PUSH1 0x40 DUP2 KECCAK256 DUP4 DUP4 SUB SWAP1 SSTORE PUSH1 0x2 DUP1 SLOAD DUP5 SWAP3 SWAP1 PUSH2 0x1294 SWAP1 DUP5 SWAP1 PUSH2 0x1A9B JUMP JUMPDEST SWAP1 SWAP2 SSTORE POP POP PUSH1 0x40 MLOAD DUP3 DUP2 MSTORE PUSH1 0x0 SWAP1 PUSH1 0x1 PUSH1 0x1 PUSH1 0xA0 SHL SUB DUP6 AND SWAP1 PUSH1 0x0 DUP1 MLOAD PUSH1 0x20 PUSH2 0x1AF1 DUP4 CODECOPY DUP2 MLOAD SWAP2 MSTORE SWAP1 PUSH1 0x20 ADD PUSH1 0x40 MLOAD DUP1 SWAP2 SUB SWAP1 LOG3 POP POP POP JUMP JUMPDEST PUSH1 0x5 DUP1 SLOAD PUSH1 0x1 PUSH1 0x1 PUSH1 0xA0 SHL SUB DUP4 DUP2 AND PUSH1 0x1 PUSH1 0x1 PUSH1 0xA0 SHL SUB NOT DUP4 AND DUP2 OR SWAP1 SWAP4 SSTORE PUSH1 0x40 MLOAD SWAP2 AND SWAP2 SWAP1 DUP3 SWAP1 PUSH32 0x8BE0079C531659141344CD1FD0A4F28419497F9722A3DAAFE3B4186F6B6457E0 SWAP1 PUSH1 0x0 SWAP1 LOG3 POP POP JUMP JUMPDEST PUSH1 0x40 DUP1 MLOAD PUSH1 0x1 PUSH1 0x1 PUSH1 0xA0 SHL SUB DUP5 AND PUSH1 0x24 DUP3 ADD MSTORE PUSH1 0x44 DUP1 DUP3 ADD DUP5 SWAP1 MSTORE DUP3 MLOAD DUP1 DUP4 SUB SWAP1 SWAP2 ADD DUP2 MSTORE PUSH1 0x64 SWAP1 SWAP2 ADD SWAP1 SWAP2 MSTORE PUSH1 0x20 DUP2 ADD DUP1 MLOAD PUSH1 0x1 PUSH1 0x1 PUSH1 0xE0 SHL SUB AND PUSH4 0xA9059CBB PUSH1 0xE0 SHL OR SWAP1 MSTORE PUSH2 0x7A6 SWAP1 DUP5 SWAP1 PUSH2 0x143D JUMP JUMPDEST PUSH1 0x1 PUSH1 0x1 PUSH1 0xA0 SHL SUB DUP4 AND PUSH2 0x1384 JUMPI PUSH1 0x0 DUP1 REVERT JUMPDEST PUSH1 0x1 PUSH1 0x1 PUSH1 0xA0 SHL SUB DUP3 AND PUSH2 0x1397 JUMPI PUSH1 0x0 DUP1 REVERT JUMPDEST PUSH1 0x1 PUSH1 0x1 PUSH1 0xA0 SHL SUB DUP4 AND PUSH1 0x0 SWAP1 DUP2 MSTORE PUSH1 0x20 DUP2 SWAP1 MSTORE PUSH1 0x40 SWAP1 KECCAK256 SLOAD DUP2 DUP2 LT ISZERO PUSH2 0x13BD JUMPI PUSH1 0x0 DUP1 REVERT JUMPDEST PUSH1 0x1 PUSH1 0x1 PUSH1 0xA0 SHL SUB DUP1 DUP6 AND PUSH1 0x0 SWAP1 DUP2 MSTORE PUSH1 0x20 DUP2 SWAP1 MSTORE PUSH1 0x40 DUP1 DUP3 KECCAK256 DUP6 DUP6 SUB SWAP1 SSTORE SWAP2 DUP6 AND DUP2 MSTORE SWAP1 DUP2 KECCAK256 DUP1 SLOAD DUP5 SWAP3 SWAP1 PUSH2 0x13F4 SWAP1 DUP5 SWAP1 PUSH2 0x1A54 JUMP JUMPDEST SWAP3 POP POP DUP2 SWAP1 SSTORE POP DUP3 PUSH1 0x1 PUSH1 0x1 PUSH1 0xA0 SHL SUB AND DUP5 PUSH1 0x1 PUSH1 0x1 PUSH1 0xA0 SHL SUB AND PUSH1 0x0 DUP1 MLOAD PUSH1 0x20 PUSH2 0x1AF1 DUP4 CODECOPY DUP2 MLOAD SWAP2 MSTORE DUP5 PUSH1 0x40 MLOAD PUSH2 0x142E SWAP2 DUP2 MSTORE PUSH1 0x20 ADD SWAP1 JUMP JUMPDEST PUSH1 0x40 MLOAD DUP1 SWAP2 SUB SWAP1 LOG3 JUMPDEST POP POP POP POP JUMP JUMPDEST PUSH1 0x0 PUSH2 0x1492 DUP3 PUSH1 0x40 MLOAD DUP1 PUSH1 0x40 ADD PUSH1 0x40 MSTORE DUP1 PUSH1 0x20 DUP2 MSTORE PUSH1 0x20 ADD PUSH32 0x5361666545524332303A206C6F772D6C6576656C2063616C6C206661696C6564 DUP2 MSTORE POP DUP6 PUSH1 0x1 PUSH1 0x1 PUSH1 0xA0 SHL SUB AND PUSH2 0x150F SWAP1 SWAP3 SWAP2 SWAP1 PUSH4 0xFFFFFFFF AND JUMP JUMPDEST DUP1 MLOAD SWAP1 SWAP2 POP ISZERO PUSH2 0x7A6 JUMPI DUP1 DUP1 PUSH1 0x20 ADD SWAP1 MLOAD DUP2 ADD SWAP1 PUSH2 0x14B0 SWAP2 SWAP1 PUSH2 0x1AB2 JUMP JUMPDEST PUSH2 0x7A6 JUMPI PUSH1 0x40 MLOAD PUSH3 0x461BCD PUSH1 0xE5 SHL DUP2 MSTORE PUSH1 0x20 PUSH1 0x4 DUP3 ADD MSTORE PUSH1 0x2A PUSH1 0x24 DUP3 ADD MSTORE PUSH32 0x5361666545524332303A204552433230206F7065726174696F6E20646964206E PUSH1 0x44 DUP3 ADD MSTORE PUSH10 0x1BDD081CDD58D8D95959 PUSH1 0xB2 SHL PUSH1 0x64 DUP3 ADD MSTORE PUSH1 0x84 ADD PUSH2 0xB76 JUMP JUMPDEST PUSH1 0x60 PUSH2 0x151E DUP5 DUP5 PUSH1 0x0 DUP6 PUSH2 0x1526 JUMP JUMPDEST SWAP5 SWAP4 POP POP POP POP JUMP JUMPDEST PUSH1 0x60 DUP3 SELFBALANCE LT ISZERO PUSH2 0x1587 JUMPI PUSH1 0x40 MLOAD PUSH3 0x461BCD PUSH1 0xE5 SHL DUP2 MSTORE PUSH1 0x20 PUSH1 0x4 DUP3 ADD MSTORE PUSH1 0x26 PUSH1 0x24 DUP3 ADD MSTORE PUSH32 0x416464726573733A20696E73756666696369656E742062616C616E636520666F PUSH1 0x44 DUP3 ADD MSTORE PUSH6 0x1C8818D85B1B PUSH1 0xD2 SHL PUSH1 0x64 DUP3 ADD MSTORE PUSH1 0x84 ADD PUSH2 0xB76 JUMP JUMPDEST PUSH1 0x0 DUP1 DUP7 PUSH1 0x1 PUSH1 0x1 PUSH1 0xA0 SHL SUB AND DUP6 DUP8 PUSH1 0x40 MLOAD PUSH2 0x15A3 SWAP2 SWAP1 PUSH2 0x1AD4 JUMP JUMPDEST PUSH1 0x0 PUSH1 0x40 MLOAD DUP1 DUP4 SUB DUP2 DUP6 DUP8 GAS CALL SWAP3 POP POP POP RETURNDATASIZE DUP1 PUSH1 0x0 DUP2 EQ PUSH2 0x15E0 JUMPI PUSH1 0x40 MLOAD SWAP2 POP PUSH1 0x1F NOT PUSH1 0x3F RETURNDATASIZE ADD AND DUP3 ADD PUSH1 0x40 MSTORE RETURNDATASIZE DUP3 MSTORE RETURNDATASIZE PUSH1 0x0 PUSH1 0x20 DUP5 ADD RETURNDATACOPY PUSH2 0x15E5 JUMP JUMPDEST PUSH1 0x60 SWAP2 POP JUMPDEST POP SWAP2 POP SWAP2 POP PUSH2 0x15F6 DUP8 DUP4 DUP4 DUP8 PUSH2 0x1601 JUMP JUMPDEST SWAP8 SWAP7 POP POP POP POP POP POP POP JUMP JUMPDEST PUSH1 0x60 DUP4 ISZERO PUSH2 0x1670 JUMPI DUP3 MLOAD PUSH1 0x0 SUB PUSH2 0x1669 JUMPI PUSH1 0x1 PUSH1 0x1 PUSH1 0xA0 SHL SUB DUP6 AND EXTCODESIZE PUSH2 0x1669 JUMPI PUSH1 0x40 MLOAD PUSH3 0x461BCD PUSH1 0xE5 SHL DUP2 MSTORE PUSH1 0x20 PUSH1 0x4 DUP3 ADD MSTORE PUSH1 0x1D PUSH1 0x24 DUP3 ADD MSTORE PUSH32 0x416464726573733A2063616C6C20746F206E6F6E2D636F6E7472616374000000 PUSH1 0x44 DUP3 ADD MSTORE PUSH1 0x64 ADD PUSH2 0xB76 JUMP JUMPDEST POP DUP2 PUSH2 0x151E JUMP JUMPDEST PUSH2 0x151E DUP4 DUP4 DUP2 MLOAD ISZERO PUSH2 0x1685 JUMPI DUP2 MLOAD DUP1 DUP4 PUSH1 0x20 ADD REVERT JUMPDEST DUP1 PUSH1 0x40 MLOAD PUSH3 0x461BCD PUSH1 0xE5 SHL DUP2 MSTORE PUSH1 0x4 ADD PUSH2 0xB76 SWAP2 SWAP1 PUSH2 0x17A5 JUMP JUMPDEST DUP3 DUP1 SLOAD PUSH2 0x16AB SWAP1 PUSH2 0x19AA JUMP JUMPDEST SWAP1 PUSH1 0x0 MSTORE PUSH1 0x20 PUSH1 0x0 KECCAK256 SWAP1 PUSH1 0x1F ADD PUSH1 0x20 SWAP1 DIV DUP2 ADD SWAP3 DUP3 PUSH2 0x16CD JUMPI PUSH1 0x0 DUP6 SSTORE PUSH2 0x1713 JUMP JUMPDEST DUP3 PUSH1 0x1F LT PUSH2 0x16E6 JUMPI DUP1 MLOAD PUSH1 0xFF NOT AND DUP4 DUP1 ADD OR DUP6 SSTORE PUSH2 0x1713 JUMP JUMPDEST DUP3 DUP1 ADD PUSH1 0x1 ADD DUP6 SSTORE DUP3 ISZERO PUSH2 0x1713 JUMPI SWAP2 DUP3 ADD JUMPDEST DUP3 DUP2 GT ISZERO PUSH2 0x1713 JUMPI DUP3 MLOAD DUP3 SSTORE SWAP2 PUSH1 0x20 ADD SWAP2 SWAP1 PUSH1 0x1 ADD SWAP1 PUSH2 0x16F8 JUMP JUMPDEST POP PUSH2 0x171F SWAP3 SWAP2 POP PUSH2 0x1723 JUMP JUMPDEST POP SWAP1 JUMP JUMPDEST JUMPDEST DUP1 DUP3 GT ISZERO PUSH2 0x171F JUMPI PUSH1 0x0 DUP2 SSTORE PUSH1 0x1 ADD PUSH2 0x1724 JUMP JUMPDEST PUSH1 0x1 PUSH1 0x1 PUSH1 0xA0 SHL SUB DUP2 AND DUP2 EQ PUSH2 0xAFD JUMPI PUSH1 0x0 DUP1 REVERT JUMPDEST PUSH1 0x0 DUP1 PUSH1 0x40 DUP4 DUP6 SUB SLT ISZERO PUSH2 0x1760 JUMPI PUSH1 0x0 DUP1 REVERT JUMPDEST DUP3 CALLDATALOAD PUSH2 0x176B DUP2 PUSH2 0x1738 JUMP JUMPDEST SWAP5 PUSH1 0x20 SWAP4 SWAP1 SWAP4 ADD CALLDATALOAD SWAP4 POP POP POP JUMP JUMPDEST PUSH1 0x0 JUMPDEST DUP4 DUP2 LT ISZERO PUSH2 0x1794 JUMPI DUP2 DUP2 ADD MLOAD DUP4 DUP3 ADD MSTORE PUSH1 0x20 ADD PUSH2 0x177C JUMP JUMPDEST DUP4 DUP2 GT ISZERO PUSH2 0x1437 JUMPI POP POP PUSH1 0x0 SWAP2 ADD MSTORE JUMP JUMPDEST PUSH1 0x20 DUP2 MSTORE PUSH1 0x0 DUP3 MLOAD DUP1 PUSH1 0x20 DUP5 ADD MSTORE PUSH2 0x17C4 DUP2 PUSH1 0x40 DUP6 ADD PUSH1 0x20 DUP8 ADD PUSH2 0x1779 JUMP JUMPDEST PUSH1 0x1F ADD PUSH1 0x1F NOT AND SWAP2 SWAP1 SWAP2 ADD PUSH1 0x40 ADD SWAP3 SWAP2 POP POP JUMP JUMPDEST PUSH1 0x0 DUP1 PUSH1 0x0 PUSH1 0x60 DUP5 DUP7 SUB SLT ISZERO PUSH2 0x17ED JUMPI PUSH1 0x0 DUP1 REVERT JUMPDEST DUP4 CALLDATALOAD PUSH2 0x17F8 DUP2 PUSH2 0x1738 JUMP JUMPDEST SWAP3 POP PUSH1 0x20 DUP5 ADD CALLDATALOAD PUSH2 0x1808 DUP2 PUSH2 0x1738 JUMP JUMPDEST SWAP3 SWAP6 SWAP3 SWAP5 POP POP POP PUSH1 0x40 SWAP2 SWAP1 SWAP2 ADD CALLDATALOAD SWAP1 JUMP JUMPDEST PUSH1 0x0 PUSH1 0x20 DUP3 DUP5 SUB SLT ISZERO PUSH2 0x182B JUMPI PUSH1 0x0 DUP1 REVERT JUMPDEST POP CALLDATALOAD SWAP2 SWAP1 POP JUMP JUMPDEST PUSH1 0x1 PUSH1 0x1 PUSH1 0xA0 SHL SUB SWAP2 SWAP1 SWAP2 AND DUP2 MSTORE PUSH1 0x20 ADD SWAP1 JUMP JUMPDEST PUSH1 0x0 PUSH1 0x20 DUP3 DUP5 SUB SLT ISZERO PUSH2 0x1858 JUMPI PUSH1 0x0 DUP1 REVERT JUMPDEST DUP2 CALLDATALOAD PUSH2 0x1863 DUP2 PUSH2 0x1738 JUMP JUMPDEST SWAP4 SWAP3 POP POP POP JUMP JUMPDEST PUSH4 0x4E487B71 PUSH1 0xE0 SHL PUSH1 0x0 MSTORE PUSH1 0x41 PUSH1 0x4 MSTORE PUSH1 0x24 PUSH1 0x0 REVERT JUMPDEST PUSH1 0x0 DUP3 PUSH1 0x1F DUP4 ADD SLT PUSH2 0x1891 JUMPI PUSH1 0x0 DUP1 REVERT JUMPDEST DUP2 CALLDATALOAD PUSH8 0xFFFFFFFFFFFFFFFF DUP1 DUP3 GT ISZERO PUSH2 0x18AC JUMPI PUSH2 0x18AC PUSH2 0x186A JUMP JUMPDEST PUSH1 0x40 MLOAD PUSH1 0x1F DUP4 ADD PUSH1 0x1F NOT SWAP1 DUP2 AND PUSH1 0x3F ADD AND DUP2 ADD SWAP1 DUP3 DUP3 GT DUP2 DUP4 LT OR ISZERO PUSH2 0x18D4 JUMPI PUSH2 0x18D4 PUSH2 0x186A JUMP JUMPDEST DUP2 PUSH1 0x40 MSTORE DUP4 DUP2 MSTORE DUP7 PUSH1 0x20 DUP6 DUP9 ADD ADD GT ISZERO PUSH2 0x18ED JUMPI PUSH1 0x0 DUP1 REVERT JUMPDEST DUP4 PUSH1 0x20 DUP8 ADD PUSH1 0x20 DUP4 ADD CALLDATACOPY PUSH1 0x0 PUSH1 0x20 DUP6 DUP4 ADD ADD MSTORE DUP1 SWAP5 POP POP POP POP POP SWAP3 SWAP2 POP POP JUMP JUMPDEST PUSH1 0x0 DUP1 PUSH1 0x40 DUP4 DUP6 SUB SLT ISZERO PUSH2 0x1920 JUMPI PUSH1 0x0 DUP1 REVERT JUMPDEST DUP3 CALLDATALOAD PUSH8 0xFFFFFFFFFFFFFFFF DUP1 DUP3 GT ISZERO PUSH2 0x1938 JUMPI PUSH1 0x0 DUP1 REVERT JUMPDEST PUSH2 0x1944 DUP7 DUP4 DUP8 ADD PUSH2 0x1880 JUMP JUMPDEST SWAP4 POP PUSH1 0x20 DUP6 ADD CALLDATALOAD SWAP2 POP DUP1 DUP3 GT ISZERO PUSH2 0x195A JUMPI PUSH1 0x0 DUP1 REVERT JUMPDEST POP PUSH2 0x1967 DUP6 DUP3 DUP7 ADD PUSH2 0x1880 JUMP JUMPDEST SWAP2 POP POP SWAP3 POP SWAP3 SWAP1 POP JUMP JUMPDEST PUSH1 0x0 DUP1 PUSH1 0x40 DUP4 DUP6 SUB SLT ISZERO PUSH2 0x1984 JUMPI PUSH1 0x0 DUP1 REVERT JUMPDEST DUP3 CALLDATALOAD PUSH2 0x198F DUP2 PUSH2 0x1738 JUMP JUMPDEST SWAP2 POP PUSH1 0x20 DUP4 ADD CALLDATALOAD PUSH2 0x199F DUP2 PUSH2 0x1738 JUMP JUMPDEST DUP1 SWAP2 POP POP SWAP3 POP SWAP3 SWAP1 POP JUMP JUMPDEST PUSH1 0x1 DUP2 DUP2 SHR SWAP1 DUP3 AND DUP1 PUSH2 0x19BE JUMPI PUSH1 0x7F DUP3 AND SWAP2 POP JUMPDEST PUSH1 0x20 DUP3 LT DUP2 SUB PUSH2 0x19DE JUMPI PUSH4 0x4E487B71 PUSH1 0xE0 SHL PUSH1 0x0 MSTORE PUSH1 0x22 PUSH1 0x4 MSTORE PUSH1 0x24 PUSH1 0x0 REVERT JUMPDEST POP SWAP2 SWAP1 POP JUMP JUMPDEST PUSH1 0x0 PUSH1 0x20 DUP3 DUP5 SUB SLT ISZERO PUSH2 0x19F6 JUMPI PUSH1 0x0 DUP1 REVERT JUMPDEST POP MLOAD SWAP2 SWAP1 POP JUMP JUMPDEST PUSH4 0x4E487B71 PUSH1 0xE0 SHL PUSH1 0x0 MSTORE PUSH1 0x11 PUSH1 0x4 MSTORE PUSH1 0x24 PUSH1 0x0 REVERT JUMPDEST PUSH1 0x0 DUP2 PUSH1 0x0 NOT DIV DUP4 GT DUP3 ISZERO ISZERO AND ISZERO PUSH2 0x1A2D JUMPI PUSH2 0x1A2D PUSH2 0x19FD JUMP JUMPDEST POP MUL SWAP1 JUMP JUMPDEST PUSH1 0x0 DUP3 PUSH2 0x1A4F JUMPI PUSH4 0x4E487B71 PUSH1 0xE0 SHL PUSH1 0x0 MSTORE PUSH1 0x12 PUSH1 0x4 MSTORE PUSH1 0x24 PUSH1 0x0 REVERT JUMPDEST POP DIV SWAP1 JUMP JUMPDEST PUSH1 0x0 DUP3 NOT DUP3 GT ISZERO PUSH2 0x1A67 JUMPI PUSH2 0x1A67 PUSH2 0x19FD JUMP JUMPDEST POP ADD SWAP1 JUMP JUMPDEST PUSH4 0x4E487B71 PUSH1 0xE0 SHL PUSH1 0x0 MSTORE PUSH1 0x32 PUSH1 0x4 MSTORE PUSH1 0x24 PUSH1 0x0 REVERT JUMPDEST PUSH1 0x0 PUSH1 0x1 DUP3 ADD PUSH2 0x1A94 JUMPI PUSH2 0x1A94 PUSH2 0x19FD JUMP JUMPDEST POP PUSH1 0x1 ADD SWAP1 JUMP JUMPDEST PUSH1 0x0 DUP3 DUP3 LT ISZERO PUSH2 0x1AAD JUMPI PUSH2 0x1AAD PUSH2 0x19FD JUMP JUMPDEST POP SUB SWAP1 JUMP JUMPDEST PUSH1 0x0 PUSH1 0x20 DUP3 DUP5 SUB SLT ISZERO PUSH2 0x1AC4 JUMPI PUSH1 0x0 DUP1 REVERT JUMPDEST DUP2 MLOAD DUP1 ISZERO ISZERO DUP2 EQ PUSH2 0x1863 JUMPI PUSH1 0x0 DUP1 REVERT JUMPDEST PUSH1 0x0 DUP3 MLOAD PUSH2 0x1AE6 DUP2 DUP5 PUSH1 0x20 DUP8 ADD PUSH2 0x1779 JUMP JUMPDEST SWAP2 SWAP1 SWAP2 ADD SWAP3 SWAP2 POP POP JUMP INVALID 0xDD CALLCODE MSTORE 0xAD SHL 0xE2 0xC8 SWAP12 PUSH10 0xC2B068FC378DAA952BA7 CALL PUSH4 0xC4A11628 CREATE2 GAS 0x4D CREATE2 0x23 0xB3 0xEF LOG2 PUSH5 0x6970667358 0x22 SLT KECCAK256 0xEC PUSH21 0xB497EBFCCCCC36AED5B863A3B4309A3F26F187F6C6 0xE3 0x2D ADDRESS LOG1 PUSH23 0x1BAB17164736F6C634300080D00338BE0079C53165914 SGT DIFFICULTY 0xCD 0x1F 0xD0 LOG4 CALLCODE DUP5 NOT 0x49 PUSH32 0x9722A3DAAFE3B4186F6B6457E0A264697066735822122060EBA534BEED153572 PUSH28 0x51B9DEA114A783DEB03A88591E1285C553C67440B8D564736F6C6343 STOP ADDMOD 0xD STOP CALLER PUSH1 0x80 PUSH1 0x40 DUP2 SWAP1 MSTORE PUSH1 0x6 DUP1 SLOAD PUSH1 0x1 PUSH1 0x1 PUSH1 0xA0 SHL SUB NOT AND ADDRESS OR SWAP1 SSTORE PUSH3 0x201E CODESIZE DUP2 SWAP1 SUB SWAP1 DUP2 SWAP1 DUP4 CODECOPY DUP2 ADD PUSH1 0x40 DUP2 SWAP1 MSTORE PUSH3 0x37 SWAP2 PUSH3 0x2F6 JUMP JUMPDEST DUP1 PUSH1 0x40 MLOAD PUSH1 0x20 ADD PUSH3 0x4A SWAP2 SWAP1 PUSH3 0x3D6 JUMP JUMPDEST PUSH1 0x40 MLOAD PUSH1 0x20 DUP2 DUP4 SUB SUB DUP2 MSTORE SWAP1 PUSH1 0x40 MSTORE DUP2 PUSH1 0x40 MLOAD PUSH1 0x20 ADD PUSH3 0x6C SWAP2 SWAP1 PUSH3 0x413 JUMP JUMPDEST PUSH1 0x40 MLOAD PUSH1 0x20 DUP2 DUP4 SUB SUB DUP2 MSTORE SWAP1 PUSH1 0x40 MSTORE DUP4 DUP3 DUP3 DUP2 PUSH1 0x3 SWAP1 DUP1 MLOAD SWAP1 PUSH1 0x20 ADD SWAP1 PUSH3 0x96 SWAP3 SWAP2 SWAP1 PUSH3 0x1EA JUMP JUMPDEST POP DUP1 MLOAD PUSH3 0xAC SWAP1 PUSH1 0x4 SWAP1 PUSH1 0x20 DUP5 ADD SWAP1 PUSH3 0x1EA JUMP JUMPDEST POP POP POP PUSH3 0xC9 PUSH3 0xC3 PUSH3 0x1A5 PUSH1 0x20 SHL PUSH1 0x20 SHR JUMP JUMPDEST PUSH3 0x1A9 JUMP JUMPDEST DUP3 MLOAD PUSH3 0xDE SWAP1 PUSH1 0x3 SWAP1 PUSH1 0x20 DUP7 ADD SWAP1 PUSH3 0x1EA JUMP JUMPDEST POP DUP2 MLOAD PUSH3 0xF4 SWAP1 PUSH1 0x4 SWAP1 PUSH1 0x20 DUP6 ADD SWAP1 PUSH3 0x1EA JUMP JUMPDEST POP PUSH1 0x40 MLOAD PUSH1 0x1 PUSH1 0x1 PUSH1 0xA0 SHL SUB DUP3 AND SWAP1 PUSH1 0x0 SWAP1 PUSH1 0x0 DUP1 MLOAD PUSH1 0x20 PUSH3 0x1FFE DUP4 CODECOPY DUP2 MLOAD SWAP2 MSTORE SWAP1 DUP3 SWAP1 LOG3 POP POP PUSH1 0x9 DUP1 SLOAD PUSH1 0x1 PUSH1 0x1 PUSH1 0xA0 SHL SUB DUP1 DUP7 AND PUSH1 0x1 PUSH1 0x1 PUSH1 0xA0 SHL SUB NOT SWAP3 DUP4 AND DUP2 OR SWAP1 SWAP4 SSTORE PUSH1 0x8 DUP1 SLOAD SWAP2 DUP9 AND SWAP2 DUP4 AND SWAP2 SWAP1 SWAP2 OR SWAP1 SSTORE PUSH1 0xA DUP1 SLOAD PUSH1 0x1 DUP2 ADD DUP3 SSTORE PUSH1 0x0 SWAP2 SWAP1 SWAP2 MSTORE PUSH32 0xC65A7BB8D6351C1CF70C95A316CC6A92839C986682D98BC35F958F4883F9D2A8 ADD DUP1 SLOAD SWAP1 SWAP2 AND SWAP1 SWAP2 OR SWAP1 SSTORE POP PUSH3 0x198 TIMESTAMP PUSH3 0x3F480 PUSH3 0x445 JUMP JUMPDEST PUSH1 0xC SSTORE POP PUSH3 0x4A8 SWAP2 POP POP JUMP JUMPDEST CALLER SWAP1 JUMP JUMPDEST PUSH1 0x5 DUP1 SLOAD PUSH1 0x1 PUSH1 0x1 PUSH1 0xA0 SHL SUB DUP4 DUP2 AND PUSH1 0x1 PUSH1 0x1 PUSH1 0xA0 SHL SUB NOT DUP4 AND DUP2 OR SWAP1 SWAP4 SSTORE PUSH1 0x40 MLOAD SWAP2 AND SWAP2 SWAP1 DUP3 SWAP1 PUSH1 0x0 DUP1 MLOAD PUSH1 0x20 PUSH3 0x1FFE DUP4 CODECOPY DUP2 MLOAD SWAP2 MSTORE SWAP1 PUSH1 0x0 SWAP1 LOG3 POP POP JUMP JUMPDEST DUP3 DUP1 SLOAD PUSH3 0x1F8 SWAP1 PUSH3 0x46C JUMP JUMPDEST SWAP1 PUSH1 0x0 MSTORE PUSH1 0x20 PUSH1 0x0 KECCAK256 SWAP1 PUSH1 0x1F ADD PUSH1 0x20 SWAP1 DIV DUP2 ADD SWAP3 DUP3 PUSH3 0x21C JUMPI PUSH1 0x0 DUP6 SSTORE PUSH3 0x267 JUMP JUMPDEST DUP3 PUSH1 0x1F LT PUSH3 0x237 JUMPI DUP1 MLOAD PUSH1 0xFF NOT AND DUP4 DUP1 ADD OR DUP6 SSTORE PUSH3 0x267 JUMP JUMPDEST DUP3 DUP1 ADD PUSH1 0x1 ADD DUP6 SSTORE DUP3 ISZERO PUSH3 0x267 JUMPI SWAP2 DUP3 ADD JUMPDEST DUP3 DUP2 GT ISZERO PUSH3 0x267 JUMPI DUP3 MLOAD DUP3 SSTORE SWAP2 PUSH1 0x20 ADD SWAP2 SWAP1 PUSH1 0x1 ADD SWAP1 PUSH3 0x24A JUMP JUMPDEST POP PUSH3 0x275 SWAP3 SWAP2 POP PUSH3 0x279 JUMP JUMPDEST POP SWAP1 JUMP JUMPDEST JUMPDEST DUP1 DUP3 GT ISZERO PUSH3 0x275 JUMPI PUSH1 0x0 DUP2 SSTORE PUSH1 0x1 ADD PUSH3 0x27A JUMP JUMPDEST DUP1 MLOAD PUSH1 0x1 PUSH1 0x1 PUSH1 0xA0 SHL SUB DUP2 AND DUP2 EQ PUSH3 0x2A8 JUMPI PUSH1 0x0 DUP1 REVERT JUMPDEST SWAP2 SWAP1 POP JUMP JUMPDEST PUSH4 0x4E487B71 PUSH1 0xE0 SHL PUSH1 0x0 MSTORE PUSH1 0x41 PUSH1 0x4 MSTORE PUSH1 0x24 PUSH1 0x0 REVERT JUMPDEST PUSH1 0x0 JUMPDEST DUP4 DUP2 LT ISZERO PUSH3 0x2E0 JUMPI DUP2 DUP2 ADD MLOAD DUP4 DUP3 ADD MSTORE PUSH1 0x20 ADD PUSH3 0x2C6 JUMP JUMPDEST DUP4 DUP2 GT ISZERO PUSH3 0x2F0 JUMPI PUSH1 0x0 DUP5 DUP5 ADD MSTORE JUMPDEST POP POP POP POP JUMP JUMPDEST PUSH1 0x0 DUP1 PUSH1 0x0 PUSH1 0x60 DUP5 DUP7 SUB SLT ISZERO PUSH3 0x30C JUMPI PUSH1 0x0 DUP1 REVERT JUMPDEST PUSH3 0x317 DUP5 PUSH3 0x290 JUMP JUMPDEST SWAP3 POP PUSH3 0x327 PUSH1 0x20 DUP6 ADD PUSH3 0x290 JUMP JUMPDEST PUSH1 0x40 DUP6 ADD MLOAD SWAP1 SWAP3 POP PUSH1 0x1 PUSH1 0x1 PUSH1 0x40 SHL SUB DUP1 DUP3 GT ISZERO PUSH3 0x345 JUMPI PUSH1 0x0 DUP1 REVERT JUMPDEST DUP2 DUP7 ADD SWAP2 POP DUP7 PUSH1 0x1F DUP4 ADD SLT PUSH3 0x35A JUMPI PUSH1 0x0 DUP1 REVERT JUMPDEST DUP2 MLOAD DUP2 DUP2 GT ISZERO PUSH3 0x36F JUMPI PUSH3 0x36F PUSH3 0x2AD JUMP JUMPDEST PUSH1 0x40 MLOAD PUSH1 0x1F DUP3 ADD PUSH1 0x1F NOT SWAP1 DUP2 AND PUSH1 0x3F ADD AND DUP2 ADD SWAP1 DUP4 DUP3 GT DUP2 DUP4 LT OR ISZERO PUSH3 0x39A JUMPI PUSH3 0x39A PUSH3 0x2AD JUMP JUMPDEST DUP2 PUSH1 0x40 MSTORE DUP3 DUP2 MSTORE DUP10 PUSH1 0x20 DUP5 DUP8 ADD ADD GT ISZERO PUSH3 0x3B4 JUMPI PUSH1 0x0 DUP1 REVERT JUMPDEST PUSH3 0x3C7 DUP4 PUSH1 0x20 DUP4 ADD PUSH1 0x20 DUP9 ADD PUSH3 0x2C3 JUMP JUMPDEST DUP1 SWAP6 POP POP POP POP POP POP SWAP3 POP SWAP3 POP SWAP3 JUMP JUMPDEST PUSH8 0xD2ACC2EAD8E8405 PUSH1 0xC3 SHL DUP2 MSTORE PUSH1 0x0 DUP3 MLOAD PUSH3 0x3FB DUP2 PUSH1 0x8 DUP6 ADD PUSH1 0x20 DUP8 ADD PUSH3 0x2C3 JUMP JUMPDEST PUSH1 0x29 PUSH1 0xF8 SHL PUSH1 0x8 SWAP4 SWAP1 SWAP2 ADD SWAP3 DUP4 ADD MSTORE POP PUSH1 0x9 ADD SWAP2 SWAP1 POP JUMP JUMPDEST PUSH8 0x427269646765642D PUSH1 0xC0 SHL DUP2 MSTORE PUSH1 0x0 DUP3 MLOAD PUSH3 0x438 DUP2 PUSH1 0x8 DUP6 ADD PUSH1 0x20 DUP8 ADD PUSH3 0x2C3 JUMP JUMPDEST SWAP2 SWAP1 SWAP2 ADD PUSH1 0x8 ADD SWAP3 SWAP2 POP POP JUMP JUMPDEST PUSH1 0x0 DUP3 NOT DUP3 GT ISZERO PUSH3 0x467 JUMPI PUSH4 0x4E487B71 PUSH1 0xE0 SHL PUSH1 0x0 MSTORE PUSH1 0x11 PUSH1 0x4 MSTORE PUSH1 0x24 PUSH1 0x0 REVERT JUMPDEST POP ADD SWAP1 JUMP JUMPDEST PUSH1 0x1 DUP2 DUP2 SHR SWAP1 DUP3 AND DUP1 PUSH3 0x481 JUMPI PUSH1 0x7F DUP3 AND SWAP2 POP JUMPDEST PUSH1 0x20 DUP3 LT DUP2 SUB PUSH3 0x4A2 JUMPI PUSH4 0x4E487B71 PUSH1 0xE0 SHL PUSH1 0x0 MSTORE PUSH1 0x22 PUSH1 0x4 MSTORE PUSH1 0x24 PUSH1 0x0 REVERT JUMPDEST POP SWAP2 SWAP1 POP JUMP JUMPDEST PUSH2 0x1B46 DUP1 PUSH3 0x4B8 PUSH1 0x0 CODECOPY PUSH1 0x0 RETURN INVALID PUSH1 0x80 PUSH1 0x40 MSTORE PUSH1 0x4 CALLDATASIZE LT PUSH2 0x15F JUMPI PUSH1 0x0 CALLDATALOAD PUSH1 0xE0 SHR DUP1 PUSH4 0x8DA5CB5B GT PUSH2 0xC4 JUMPI DUP1 PUSH4 0x8DA5CB5B EQ PUSH2 0x355 JUMPI DUP1 PUSH4 0x95D89B41 EQ PUSH2 0x373 JUMPI DUP1 PUSH4 0x9A708BE3 EQ PUSH2 0x388 JUMPI DUP1 PUSH4 0xA457C2D7 EQ PUSH2 0x3A8 JUMPI DUP1 PUSH4 0xA5F2A152 EQ PUSH2 0x3C8 JUMPI DUP1 PUSH4 0xA9059CBB EQ PUSH2 0x3E8 JUMPI DUP1 PUSH4 0xB09F1266 EQ PUSH2 0x408 JUMPI DUP1 PUSH4 0xB90306AD EQ PUSH2 0x41D JUMPI DUP1 PUSH4 0xBBB35F69 EQ PUSH2 0x43D JUMPI DUP1 PUSH4 0xD28D8852 EQ PUSH2 0x473 JUMPI DUP1 PUSH4 0xD7B96D4E EQ PUSH2 0x488 JUMPI DUP1 PUSH4 0xDD62ED3E EQ PUSH2 0x4A8 JUMPI DUP1 PUSH4 0xE534155D EQ PUSH2 0x4EE JUMPI DUP1 PUSH4 0xF2FDE38B EQ PUSH2 0x50E JUMPI DUP1 PUSH4 0xFD4C9B96 EQ PUSH2 0x52E JUMPI STOP JUMPDEST DUP1 PUSH3 0xE73378 EQ PUSH2 0x168 JUMPI DUP1 PUSH4 0x6FDDE03 EQ PUSH2 0x190 JUMPI DUP1 PUSH4 0x95EA7B3 EQ PUSH2 0x1B2 JUMPI DUP1 PUSH4 0xF388B4F EQ PUSH2 0x1D2 JUMPI DUP1 PUSH4 0xF6798A5 EQ PUSH2 0x1F6 JUMPI DUP1 PUSH4 0x18160DDD EQ PUSH2 0x216 JUMPI DUP1 PUSH4 0x23B872DD EQ PUSH2 0x22B JUMPI DUP1 PUSH4 0x28E1A604 EQ PUSH2 0x24B JUMPI DUP1 PUSH4 0x2A11CED0 EQ PUSH2 0x26B JUMPI DUP1 PUSH4 0x313CE567 EQ PUSH2 0x298 JUMPI DUP1 PUSH4 0x39509351 EQ PUSH2 0x2B4 JUMPI DUP1 PUSH4 0x70A08231 EQ PUSH2 0x2D4 JUMPI DUP1 PUSH4 0x715018A6 EQ PUSH2 0x30A JUMPI DUP1 PUSH4 0x794F4DD1 EQ PUSH2 0x31F JUMPI STOP JUMPDEST CALLDATASIZE PUSH2 0x166 JUMPI STOP JUMPDEST STOP JUMPDEST PUSH2 0x17B PUSH2 0x176 CALLDATASIZE PUSH1 0x4 PUSH2 0x174D JUMP JUMPDEST PUSH2 0x54E JUMP JUMPDEST PUSH1 0x40 MLOAD SWAP1 ISZERO ISZERO DUP2 MSTORE PUSH1 0x20 ADD JUMPDEST PUSH1 0x40 MLOAD DUP1 SWAP2 SUB SWAP1 RETURN JUMPDEST CALLVALUE DUP1 ISZERO PUSH2 0x19C JUMPI PUSH1 0x0 DUP1 REVERT JUMPDEST POP PUSH2 0x1A5 PUSH2 0x605 JUMP JUMPDEST PUSH1 0x40 MLOAD PUSH2 0x187 SWAP2 SWAP1 PUSH2 0x17A5 JUMP JUMPDEST CALLVALUE DUP1 ISZERO PUSH2 0x1BE JUMPI PUSH1 0x0 DUP1 REVERT JUMPDEST POP PUSH2 0x17B PUSH2 0x1CD CALLDATASIZE PUSH1 0x4 PUSH2 0x174D JUMP JUMPDEST PUSH2 0x697 JUMP JUMPDEST CALLVALUE DUP1 ISZERO PUSH2 0x1DE JUMPI PUSH1 0x0 DUP1 REVERT JUMPDEST POP PUSH2 0x1E8 PUSH1 0xB SLOAD DUP2 JUMP JUMPDEST PUSH1 0x40 MLOAD SWAP1 DUP2 MSTORE PUSH1 0x20 ADD PUSH2 0x187 JUMP JUMPDEST CALLVALUE DUP1 ISZERO PUSH2 0x202 JUMPI PUSH1 0x0 DUP1 REVERT JUMPDEST POP PUSH2 0x166 PUSH2 0x211 CALLDATASIZE PUSH1 0x4 PUSH2 0x174D JUMP JUMPDEST PUSH2 0x6AD JUMP JUMPDEST CALLVALUE DUP1 ISZERO PUSH2 0x222 JUMPI PUSH1 0x0 DUP1 REVERT JUMPDEST POP PUSH1 0x2 SLOAD PUSH2 0x1E8 JUMP JUMPDEST CALLVALUE DUP1 ISZERO PUSH2 0x237 JUMPI PUSH1 0x0 DUP1 REVERT JUMPDEST POP PUSH2 0x17B PUSH2 0x246 CALLDATASIZE PUSH1 0x4 PUSH2 0x17D8 JUMP JUMPDEST PUSH2 0x7AB JUMP JUMPDEST CALLVALUE DUP1 ISZERO PUSH2 0x257 JUMPI PUSH1 0x0 DUP1 REVERT JUMPDEST POP PUSH2 0x166 PUSH2 0x266 CALLDATASIZE PUSH1 0x4 PUSH2 0x174D JUMP JUMPDEST PUSH2 0x801 JUMP JUMPDEST CALLVALUE DUP1 ISZERO PUSH2 0x277 JUMPI PUSH1 0x0 DUP1 REVERT JUMPDEST POP PUSH2 0x28B PUSH2 0x286 CALLDATASIZE PUSH1 0x4 PUSH2 0x1819 JUMP JUMPDEST PUSH2 0x817 JUMP JUMPDEST PUSH1 0x40 MLOAD PUSH2 0x187 SWAP2 SWAP1 PUSH2 0x1832 JUMP JUMPDEST CALLVALUE DUP1 ISZERO PUSH2 0x2A4 JUMPI PUSH1 0x0 DUP1 REVERT JUMPDEST POP PUSH1 0x40 MLOAD PUSH1 0x12 DUP2 MSTORE PUSH1 0x20 ADD PUSH2 0x187 JUMP JUMPDEST CALLVALUE DUP1 ISZERO PUSH2 0x2C0 JUMPI PUSH1 0x0 DUP1 REVERT JUMPDEST POP PUSH2 0x17B PUSH2 0x2CF CALLDATASIZE PUSH1 0x4 PUSH2 0x174D JUMP JUMPDEST PUSH2 0x841 JUMP JUMPDEST CALLVALUE DUP1 ISZERO PUSH2 0x2E0 JUMPI PUSH1 0x0 DUP1 REVERT JUMPDEST POP PUSH2 0x1E8 PUSH2 0x2EF CALLDATASIZE PUSH1 0x4 PUSH2 0x1846 JUMP JUMPDEST PUSH1 0x1 PUSH1 0x1 PUSH1 0xA0 SHL SUB AND PUSH1 0x0 SWAP1 DUP2 MSTORE PUSH1 0x20 DUP2 SWAP1 MSTORE PUSH1 0x40 SWAP1 KECCAK256 SLOAD SWAP1 JUMP JUMPDEST CALLVALUE DUP1 ISZERO PUSH2 0x316 JUMPI PUSH1 0x0 DUP1 REVERT JUMPDEST POP PUSH2 0x166 PUSH2 0x87D JUMP JUMPDEST CALLVALUE DUP1 ISZERO PUSH2 0x32B JUMPI PUSH1 0x0 DUP1 REVERT JUMPDEST POP PUSH2 0x28B PUSH2 0x33A CALLDATASIZE PUSH1 0x4 PUSH2 0x1819 JUMP JUMPDEST PUSH1 0x0 SWAP1 DUP2 MSTORE PUSH1 0x7 PUSH1 0x20 MSTORE PUSH1 0x40 SWAP1 KECCAK256 SLOAD PUSH1 0x1 PUSH1 0x1 PUSH1 0xA0 SHL SUB AND SWAP1 JUMP JUMPDEST CALLVALUE DUP1 ISZERO PUSH2 0x361 JUMPI PUSH1 0x0 DUP1 REVERT JUMPDEST POP PUSH1 0x5 SLOAD PUSH1 0x1 PUSH1 0x1 PUSH1 0xA0 SHL SUB AND PUSH2 0x28B JUMP JUMPDEST CALLVALUE DUP1 ISZERO PUSH2 0x37F JUMPI PUSH1 0x0 DUP1 REVERT JUMPDEST POP PUSH2 0x1A5 PUSH2 0x891 JUMP JUMPDEST CALLVALUE DUP1 ISZERO PUSH2 0x394 JUMPI PUSH1 0x0 DUP1 REVERT JUMPDEST POP PUSH2 0x166 PUSH2 0x3A3 CALLDATASIZE PUSH1 0x4 PUSH2 0x190D JUMP JUMPDEST PUSH2 0x8A0 JUMP JUMPDEST CALLVALUE DUP1 ISZERO PUSH2 0x3B4 JUMPI PUSH1 0x0 DUP1 REVERT JUMPDEST POP PUSH2 0x17B PUSH2 0x3C3 CALLDATASIZE PUSH1 0x4 PUSH2 0x174D JUMP JUMPDEST PUSH2 0x8D9 JUMP JUMPDEST CALLVALUE DUP1 ISZERO PUSH2 0x3D4 JUMPI PUSH1 0x0 DUP1 REVERT JUMPDEST POP PUSH2 0x17B PUSH2 0x3E3 CALLDATASIZE PUSH1 0x4 PUSH2 0x17D8 JUMP JUMPDEST PUSH2 0x917 JUMP JUMPDEST CALLVALUE DUP1 ISZERO PUSH2 0x3F4 JUMPI PUSH1 0x0 DUP1 REVERT JUMPDEST POP PUSH2 0x17B PUSH2 0x403 CALLDATASIZE PUSH1 0x4 PUSH2 0x174D JUMP JUMPDEST PUSH2 0xA50 JUMP JUMPDEST CALLVALUE DUP1 ISZERO PUSH2 0x414 JUMPI PUSH1 0x0 DUP1 REVERT JUMPDEST POP PUSH2 0x1A5 PUSH2 0xA5D JUMP JUMPDEST CALLVALUE DUP1 ISZERO PUSH2 0x429 JUMPI PUSH1 0x0 DUP1 REVERT JUMPDEST POP PUSH2 0x166 PUSH2 0x438 CALLDATASIZE PUSH1 0x4 PUSH2 0x1819 JUMP JUMPDEST PUSH2 0xAEB JUMP JUMPDEST CALLVALUE DUP1 ISZERO PUSH2 0x449 JUMPI PUSH1 0x0 DUP1 REVERT JUMPDEST POP PUSH2 0x28B PUSH2 0x458 CALLDATASIZE PUSH1 0x4 PUSH2 0x1819 JUMP JUMPDEST PUSH1 0x7 PUSH1 0x20 MSTORE PUSH1 0x0 SWAP1 DUP2 MSTORE PUSH1 0x40 SWAP1 KECCAK256 SLOAD PUSH1 0x1 PUSH1 0x1 PUSH1 0xA0 SHL SUB AND DUP2 JUMP JUMPDEST CALLVALUE DUP1 ISZERO PUSH2 0x47F JUMPI PUSH1 0x0 DUP1 REVERT JUMPDEST POP PUSH2 0x1A5 PUSH2 0xB00 JUMP JUMPDEST CALLVALUE DUP1 ISZERO PUSH2 0x494 JUMPI PUSH1 0x0 DUP1 REVERT JUMPDEST POP PUSH1 0x8 SLOAD PUSH2 0x28B SWAP1 PUSH1 0x1 PUSH1 0x1 PUSH1 0xA0 SHL SUB AND DUP2 JUMP JUMPDEST CALLVALUE DUP1 ISZERO PUSH2 0x4B4 JUMPI PUSH1 0x0 DUP1 REVERT JUMPDEST POP PUSH2 0x1E8 PUSH2 0x4C3 CALLDATASIZE PUSH1 0x4 PUSH2 0x1971 JUMP JUMPDEST PUSH1 0x1 PUSH1 0x1 PUSH1 0xA0 SHL SUB SWAP2 DUP3 AND PUSH1 0x0 SWAP1 DUP2 MSTORE PUSH1 0x1 PUSH1 0x20 SWAP1 DUP2 MSTORE PUSH1 0x40 DUP1 DUP4 KECCAK256 SWAP4 SWAP1 SWAP5 AND DUP3 MSTORE SWAP2 SWAP1 SWAP2 MSTORE KECCAK256 SLOAD SWAP1 JUMP JUMPDEST CALLVALUE DUP1 ISZERO PUSH2 0x4FA JUMPI PUSH1 0x0 DUP1 REVERT JUMPDEST POP PUSH1 0x9 SLOAD PUSH2 0x28B SWAP1 PUSH1 0x1 PUSH1 0x1 PUSH1 0xA0 SHL SUB AND DUP2 JUMP JUMPDEST CALLVALUE DUP1 ISZERO PUSH2 0x51A JUMPI PUSH1 0x0 DUP1 REVERT JUMPDEST POP PUSH2 0x166 PUSH2 0x529 CALLDATASIZE PUSH1 0x4 PUSH2 0x1846 JUMP JUMPDEST PUSH2 0xB0D JUMP JUMPDEST CALLVALUE DUP1 ISZERO PUSH2 0x53A JUMPI PUSH1 0x0 DUP1 REVERT JUMPDEST POP PUSH2 0x17B PUSH2 0x549 CALLDATASIZE PUSH1 0x4 PUSH2 0x1846 JUMP JUMPDEST PUSH2 0xB88 JUMP JUMPDEST PUSH1 0x8 SLOAD PUSH1 0x0 SWAP1 PUSH1 0x1 PUSH1 0x1 PUSH1 0xA0 SHL SUB AND CALLER PUSH1 0x1 PUSH1 0x1 PUSH1 0xA0 SHL SUB AND EQ DUP1 PUSH2 0x586 JUMPI POP PUSH1 0x9 SLOAD PUSH1 0x1 PUSH1 0x1 PUSH1 0xA0 SHL SUB AND CALLER PUSH1 0x1 PUSH1 0x1 PUSH1 0xA0 SHL SUB AND EQ JUMPDEST PUSH2 0x58F JUMPI PUSH1 0x0 DUP1 REVERT JUMPDEST SELFBALANCE DUP3 GT ISZERO PUSH2 0x59B JUMPI SELFBALANCE SWAP2 POP JUMPDEST PUSH1 0x0 DUP4 PUSH1 0x1 PUSH1 0x1 PUSH1 0xA0 SHL SUB AND DUP4 PUSH1 0x40 MLOAD PUSH1 0x0 PUSH1 0x40 MLOAD DUP1 DUP4 SUB DUP2 DUP6 DUP8 GAS CALL SWAP3 POP POP POP RETURNDATASIZE DUP1 PUSH1 0x0 DUP2 EQ PUSH2 0x5E8 JUMPI PUSH1 0x40 MLOAD SWAP2 POP PUSH1 0x1F NOT PUSH1 0x3F RETURNDATASIZE ADD AND DUP3 ADD PUSH1 0x40 MSTORE RETURNDATASIZE DUP3 MSTORE RETURNDATASIZE PUSH1 0x0 PUSH1 0x20 DUP5 ADD RETURNDATACOPY PUSH2 0x5ED JUMP JUMPDEST PUSH1 0x60 SWAP2 POP JUMPDEST POP POP SWAP1 POP DUP1 PUSH2 0x5FB JUMPI PUSH1 0x0 DUP1 REVERT JUMPDEST POP PUSH1 0x1 SWAP4 SWAP3 POP POP POP JUMP JUMPDEST PUSH1 0x60 PUSH1 0x3 DUP1 SLOAD PUSH2 0x614 SWAP1 PUSH2 0x19AA JUMP JUMPDEST DUP1 PUSH1 0x1F ADD PUSH1 0x20 DUP1 SWAP2 DIV MUL PUSH1 0x20 ADD PUSH1 0x40 MLOAD SWAP1 DUP2 ADD PUSH1 0x40 MSTORE DUP1 SWAP3 SWAP2 SWAP1 DUP2 DUP2 MSTORE PUSH1 0x20 ADD DUP3 DUP1 SLOAD PUSH2 0x640 SWAP1 PUSH2 0x19AA JUMP JUMPDEST DUP1 ISZERO PUSH2 0x68D JUMPI DUP1 PUSH1 0x1F LT PUSH2 0x662 JUMPI PUSH2 0x100 DUP1 DUP4 SLOAD DIV MUL DUP4 MSTORE SWAP2 PUSH1 0x20 ADD SWAP2 PUSH2 0x68D JUMP JUMPDEST DUP3 ADD SWAP2 SWAP1 PUSH1 0x0 MSTORE PUSH1 0x20 PUSH1 0x0 KECCAK256 SWAP1 JUMPDEST DUP2 SLOAD DUP2 MSTORE SWAP1 PUSH1 0x1 ADD SWAP1 PUSH1 0x20 ADD DUP1 DUP4 GT PUSH2 0x670 JUMPI DUP3 SWAP1 SUB PUSH1 0x1F AND DUP3 ADD SWAP2 JUMPDEST POP POP POP POP POP SWAP1 POP SWAP1 JUMP JUMPDEST PUSH1 0x0 PUSH2 0x6A4 CALLER DUP5 DUP5 PUSH2 0xEE6 JUMP JUMPDEST POP PUSH1 0x1 SWAP3 SWAP2 POP POP JUMP JUMPDEST PUSH1 0x0 PUSH2 0x2710 ADDRESS PUSH1 0x1 PUSH1 0x1 PUSH1 0xA0 SHL SUB AND PUSH4 0x18160DDD PUSH1 0x40 MLOAD DUP2 PUSH4 0xFFFFFFFF AND PUSH1 0xE0 SHL DUP2 MSTORE PUSH1 0x4 ADD PUSH1 0x20 PUSH1 0x40 MLOAD DUP1 DUP4 SUB DUP2 DUP7 GAS STATICCALL ISZERO DUP1 ISZERO PUSH2 0x6F0 JUMPI RETURNDATASIZE PUSH1 0x0 DUP1 RETURNDATACOPY RETURNDATASIZE PUSH1 0x0 REVERT JUMPDEST POP POP POP POP PUSH1 0x40 MLOAD RETURNDATASIZE PUSH1 0x1F NOT PUSH1 0x1F DUP3 ADD AND DUP3 ADD DUP1 PUSH1 0x40 MSTORE POP DUP2 ADD SWAP1 PUSH2 0x714 SWAP2 SWAP1 PUSH2 0x19E4 JUMP JUMPDEST PUSH2 0x720 SWAP1 PUSH2 0x13EC PUSH2 0x1A13 JUMP JUMPDEST PUSH2 0x72A SWAP2 SWAP1 PUSH2 0x1A32 JUMP JUMPDEST PUSH1 0x40 MLOAD PUSH4 0x70A08231 PUSH1 0xE0 SHL DUP2 MSTORE ADDRESS SWAP1 PUSH4 0x70A08231 SWAP1 PUSH2 0x74D SWAP1 CALLER SWAP1 PUSH1 0x4 ADD PUSH2 0x1832 JUMP JUMPDEST PUSH1 0x20 PUSH1 0x40 MLOAD DUP1 DUP4 SUB DUP2 DUP7 GAS STATICCALL ISZERO DUP1 ISZERO PUSH2 0x76A JUMPI RETURNDATASIZE PUSH1 0x0 DUP1 RETURNDATACOPY RETURNDATASIZE PUSH1 0x0 REVERT JUMPDEST POP POP POP POP PUSH1 0x40 MLOAD RETURNDATASIZE PUSH1 0x1F NOT PUSH1 0x1F DUP3 ADD AND DUP3 ADD DUP1 PUSH1 0x40 MSTORE POP DUP2 ADD SWAP1 PUSH2 0x78E SWAP2 SWAP1 PUSH2 0x19E4 JUMP JUMPDEST LT ISZERO SWAP1 POP DUP1 PUSH2 0x79C JUMPI PUSH1 0x0 DUP1 REVERT JUMPDEST PUSH2 0x7A6 DUP4 DUP4 PUSH2 0xF6D JUMP JUMPDEST POP POP POP JUMP JUMPDEST PUSH1 0x0 PUSH2 0x7B8 DUP5 DUP5 DUP5 PUSH2 0xFF7 JUMP JUMPDEST PUSH1 0x1 PUSH1 0x1 PUSH1 0xA0 SHL SUB DUP5 AND PUSH1 0x0 SWAP1 DUP2 MSTORE PUSH1 0x1 PUSH1 0x20 SWAP1 DUP2 MSTORE PUSH1 0x40 DUP1 DUP4 KECCAK256 CALLER DUP5 MSTORE SWAP1 SWAP2 MSTORE SWAP1 KECCAK256 SLOAD DUP3 DUP2 LT ISZERO PUSH2 0x7E9 JUMPI PUSH1 0x0 DUP1 REVERT JUMPDEST PUSH2 0x7F6 DUP6 CALLER DUP6 DUP5 SUB PUSH2 0xEE6 JUMP JUMPDEST POP PUSH1 0x1 SWAP5 SWAP4 POP POP POP POP JUMP JUMPDEST PUSH2 0x809 PUSH2 0x11D2 JUMP JUMPDEST PUSH2 0x813 DUP3 DUP3 PUSH2 0x122C JUMP JUMPDEST POP POP JUMP JUMPDEST PUSH1 0xA DUP2 DUP2 SLOAD DUP2 LT PUSH2 0x827 JUMPI PUSH1 0x0 DUP1 REVERT JUMPDEST PUSH1 0x0 SWAP2 DUP3 MSTORE PUSH1 0x20 SWAP1 SWAP2 KECCAK256 ADD SLOAD PUSH1 0x1 PUSH1 0x1 PUSH1 0xA0 SHL SUB AND SWAP1 POP DUP2 JUMP JUMPDEST CALLER PUSH1 0x0 DUP2 DUP2 MSTORE PUSH1 0x1 PUSH1 0x20 SWAP1 DUP2 MSTORE PUSH1 0x40 DUP1 DUP4 KECCAK256 PUSH1 0x1 PUSH1 0x1 PUSH1 0xA0 SHL SUB DUP8 AND DUP5 MSTORE SWAP1 SWAP2 MSTORE DUP2 KECCAK256 SLOAD SWAP1 SWAP2 PUSH2 0x6A4 SWAP2 DUP6 SWAP1 PUSH2 0x878 SWAP1 DUP7 SWAP1 PUSH2 0x1A54 JUMP JUMPDEST PUSH2 0xEE6 JUMP JUMPDEST PUSH2 0x885 PUSH2 0x11D2 JUMP JUMPDEST PUSH2 0x88F PUSH1 0x0 PUSH2 0x12CD JUMP JUMPDEST JUMP JUMPDEST PUSH1 0x60 PUSH1 0x4 DUP1 SLOAD PUSH2 0x614 SWAP1 PUSH2 0x19AA JUMP JUMPDEST PUSH1 0x9 SLOAD PUSH1 0x1 PUSH1 0x1 PUSH1 0xA0 SHL SUB AND CALLER SUB PUSH2 0x813 JUMPI DUP2 MLOAD PUSH2 0x8C5 SWAP1 PUSH1 0x3 SWAP1 PUSH1 0x20 DUP6 ADD SWAP1 PUSH2 0x169F JUMP JUMPDEST POP DUP1 MLOAD PUSH2 0x7A6 SWAP1 PUSH1 0x4 SWAP1 PUSH1 0x20 DUP5 ADD SWAP1 PUSH2 0x169F JUMP JUMPDEST CALLER PUSH1 0x0 SWAP1 DUP2 MSTORE PUSH1 0x1 PUSH1 0x20 SWAP1 DUP2 MSTORE PUSH1 0x40 DUP1 DUP4 KECCAK256 PUSH1 0x1 PUSH1 0x1 PUSH1 0xA0 SHL SUB DUP7 AND DUP5 MSTORE SWAP1 SWAP2 MSTORE DUP2 KECCAK256 SLOAD DUP3 DUP2 LT ISZERO PUSH2 0x90A JUMPI PUSH1 0x0 DUP1 REVERT JUMPDEST PUSH2 0x5FB CALLER DUP6 DUP6 DUP5 SUB PUSH2 0xEE6 JUMP JUMPDEST PUSH1 0x8 SLOAD PUSH1 0x0 SWAP1 PUSH1 0x1 PUSH1 0x1 PUSH1 0xA0 SHL SUB AND CALLER PUSH1 0x1 PUSH1 0x1 PUSH1 0xA0 SHL SUB AND EQ DUP1 PUSH2 0x94F JUMPI POP PUSH1 0x9 SLOAD PUSH1 0x1 PUSH1 0x1 PUSH1 0xA0 SHL SUB AND CALLER PUSH1 0x1 PUSH1 0x1 PUSH1 0xA0 SHL SUB AND EQ JUMPDEST PUSH2 0x958 JUMPI PUSH1 0x0 DUP1 REVERT JUMPDEST PUSH1 0x40 MLOAD PUSH4 0x70A08231 PUSH1 0xE0 SHL DUP2 MSTORE PUSH1 0x1 PUSH1 0x1 PUSH1 0xA0 SHL SUB DUP6 AND SWAP1 PUSH4 0x70A08231 SWAP1 PUSH2 0x984 SWAP1 ADDRESS SWAP1 PUSH1 0x4 ADD PUSH2 0x1832 JUMP JUMPDEST PUSH1 0x20 PUSH1 0x40 MLOAD DUP1 DUP4 SUB DUP2 DUP7 GAS STATICCALL ISZERO DUP1 ISZERO PUSH2 0x9A1 JUMPI RETURNDATASIZE PUSH1 0x0 DUP1 RETURNDATACOPY RETURNDATASIZE PUSH1 0x0 REVERT JUMPDEST POP POP POP POP PUSH1 0x40 MLOAD RETURNDATASIZE PUSH1 0x1F NOT PUSH1 0x1F DUP3 ADD AND DUP3 ADD DUP1 PUSH1 0x40 MSTORE POP DUP2 ADD SWAP1 PUSH2 0x9C5 SWAP2 SWAP1 PUSH2 0x19E4 JUMP JUMPDEST DUP3 GT ISZERO PUSH2 0xA3C JUMPI PUSH1 0x40 MLOAD PUSH4 0x70A08231 PUSH1 0xE0 SHL DUP2 MSTORE PUSH1 0x1 PUSH1 0x1 PUSH1 0xA0 SHL SUB DUP6 AND SWAP1 PUSH4 0x70A08231 SWAP1 PUSH2 0x9F8 SWAP1 ADDRESS SWAP1 PUSH1 0x4 ADD PUSH2 0x1832 JUMP JUMPDEST PUSH1 0x20 PUSH1 0x40 MLOAD DUP1 DUP4 SUB DUP2 DUP7 GAS STATICCALL ISZERO DUP1 ISZERO PUSH2 0xA15 JUMPI RETURNDATASIZE PUSH1 0x0 DUP1 RETURNDATACOPY RETURNDATASIZE PUSH1 0x0 REVERT JUMPDEST POP POP POP POP PUSH1 0x40 MLOAD RETURNDATASIZE PUSH1 0x1F NOT PUSH1 0x1F DUP3 ADD AND DUP3 ADD DUP1 PUSH1 0x40 MSTORE POP DUP2 ADD SWAP1 PUSH2 0xA39 SWAP2 SWAP1 PUSH2 0x19E4 JUMP JUMPDEST SWAP2 POP JUMPDEST PUSH2 0x5FB PUSH1 0x1 PUSH1 0x1 PUSH1 0xA0 SHL SUB DUP6 AND DUP5 DUP5 PUSH2 0x131F JUMP JUMPDEST PUSH1 0x0 PUSH2 0x6A4 CALLER DUP5 DUP5 PUSH2 0xFF7 JUMP JUMPDEST PUSH1 0x4 DUP1 SLOAD PUSH2 0xA6A SWAP1 PUSH2 0x19AA JUMP JUMPDEST DUP1 PUSH1 0x1F ADD PUSH1 0x20 DUP1 SWAP2 DIV MUL PUSH1 0x20 ADD PUSH1 0x40 MLOAD SWAP1 DUP2 ADD PUSH1 0x40 MSTORE DUP1 SWAP3 SWAP2 SWAP1 DUP2 DUP2 MSTORE PUSH1 0x20 ADD DUP3 DUP1 SLOAD PUSH2 0xA96 SWAP1 PUSH2 0x19AA JUMP JUMPDEST DUP1 ISZERO PUSH2 0xAE3 JUMPI DUP1 PUSH1 0x1F LT PUSH2 0xAB8 JUMPI PUSH2 0x100 DUP1 DUP4 SLOAD DIV MUL DUP4 MSTORE SWAP2 PUSH1 0x20 ADD SWAP2 PUSH2 0xAE3 JUMP JUMPDEST DUP3 ADD SWAP2 SWAP1 PUSH1 0x0 MSTORE PUSH1 0x20 PUSH1 0x0 KECCAK256 SWAP1 JUMPDEST DUP2 SLOAD DUP2 MSTORE SWAP1 PUSH1 0x1 ADD SWAP1 PUSH1 0x20 ADD DUP1 DUP4 GT PUSH2 0xAC6 JUMPI DUP3 SWAP1 SUB PUSH1 0x1F AND DUP3 ADD SWAP2 JUMPDEST POP POP POP POP POP DUP2 JUMP JUMPDEST PUSH2 0xAF3 PUSH2 0x11D2 JUMP JUMPDEST PUSH2 0xAFD CALLER DUP3 PUSH2 0x122C JUMP JUMPDEST POP JUMP JUMPDEST PUSH1 0x3 DUP1 SLOAD PUSH2 0xA6A SWAP1 PUSH2 0x19AA JUMP JUMPDEST PUSH2 0xB15 PUSH2 0x11D2 JUMP JUMPDEST PUSH1 0x1 PUSH1 0x1 PUSH1 0xA0 SHL SUB DUP2 AND PUSH2 0xB7F JUMPI PUSH1 0x40 MLOAD PUSH3 0x461BCD PUSH1 0xE5 SHL DUP2 MSTORE PUSH1 0x20 PUSH1 0x4 DUP3 ADD MSTORE PUSH1 0x26 PUSH1 0x24 DUP3 ADD MSTORE PUSH32 0x4F776E61626C653A206E6577206F776E657220697320746865207A65726F2061 PUSH1 0x44 DUP3 ADD MSTORE PUSH6 0x646472657373 PUSH1 0xD0 SHL PUSH1 0x64 DUP3 ADD MSTORE PUSH1 0x84 ADD JUMPDEST PUSH1 0x40 MLOAD DUP1 SWAP2 SUB SWAP1 REVERT JUMPDEST PUSH2 0xAFD DUP2 PUSH2 0x12CD JUMP JUMPDEST PUSH1 0x9 SLOAD PUSH1 0x0 SWAP1 PUSH1 0x1 PUSH1 0x1 PUSH1 0xA0 SHL SUB DUP4 DUP2 AND SWAP2 AND EQ PUSH2 0xEDE JUMPI PUSH1 0x9 SLOAD PUSH1 0x1 PUSH1 0x1 PUSH1 0xA0 SHL SUB AND CALLER DUP2 SWAP1 SUB PUSH2 0xD21 JUMPI PUSH1 0x9 DUP1 SLOAD PUSH1 0x1 PUSH1 0x1 PUSH1 0xA0 SHL SUB DUP6 AND PUSH1 0x1 PUSH1 0x1 PUSH1 0xA0 SHL SUB NOT SWAP2 DUP3 AND DUP2 OR SWAP1 SWAP3 SSTORE PUSH1 0xA DUP1 SLOAD PUSH1 0x1 DUP2 ADD DUP3 SSTORE PUSH1 0x0 SWAP2 SWAP1 SWAP2 MSTORE PUSH32 0xC65A7BB8D6351C1CF70C95A316CC6A92839C986682D98BC35F958F4883F9D2A8 ADD DUP1 SLOAD SWAP1 SWAP2 AND SWAP1 SWAP2 OR SWAP1 SSTORE PUSH2 0xC1B TIMESTAMP PUSH2 0x258 PUSH2 0x1A54 JUMP JUMPDEST PUSH1 0xC SSTORE PUSH1 0x6 SLOAD PUSH1 0x40 DUP1 MLOAD PUSH4 0x18160DDD PUSH1 0xE0 SHL DUP2 MSTORE SWAP1 MLOAD PUSH2 0xC97 SWAP3 DUP7 SWAP3 PUSH1 0x1 PUSH1 0x1 PUSH1 0xA0 SHL SUB SWAP1 SWAP2 AND SWAP2 PUSH4 0x18160DDD SWAP2 PUSH1 0x4 DUP1 DUP3 ADD SWAP3 PUSH1 0x20 SWAP3 SWAP1 SWAP2 SWAP1 DUP3 SWAP1 SUB ADD DUP2 DUP7 GAS STATICCALL ISZERO DUP1 ISZERO PUSH2 0xC6E JUMPI RETURNDATASIZE PUSH1 0x0 DUP1 RETURNDATACOPY RETURNDATASIZE PUSH1 0x0 REVERT JUMPDEST POP POP POP POP PUSH1 0x40 MLOAD RETURNDATASIZE PUSH1 0x1F NOT PUSH1 0x1F DUP3 ADD AND DUP3 ADD DUP1 PUSH1 0x40 MSTORE POP DUP2 ADD SWAP1 PUSH2 0xC92 SWAP2 SWAP1 PUSH2 0x19E4 JUMP JUMPDEST PUSH2 0xF6D JUMP JUMPDEST PUSH2 0xCA0 DUP4 PUSH2 0xB0D JUMP JUMPDEST PUSH1 0x6 SLOAD PUSH1 0x40 MLOAD PUSH4 0x70A08231 PUSH1 0xE0 SHL DUP2 MSTORE PUSH2 0xD1C SWAP2 DUP4 SWAP2 PUSH1 0x1 PUSH1 0x1 PUSH1 0xA0 SHL SUB SWAP1 SWAP2 AND SWAP1 PUSH4 0x70A08231 SWAP1 PUSH2 0xCD6 SWAP1 DUP5 SWAP1 PUSH1 0x4 ADD PUSH2 0x1832 JUMP JUMPDEST PUSH1 0x20 PUSH1 0x40 MLOAD DUP1 DUP4 SUB DUP2 DUP7 GAS STATICCALL ISZERO DUP1 ISZERO PUSH2 0xCF3 JUMPI RETURNDATASIZE PUSH1 0x0 DUP1 RETURNDATACOPY RETURNDATASIZE PUSH1 0x0 REVERT JUMPDEST POP POP POP POP PUSH1 0x40 MLOAD RETURNDATASIZE PUSH1 0x1F NOT PUSH1 0x1F DUP3 ADD AND DUP3 ADD DUP1 PUSH1 0x40 MSTORE POP DUP2 ADD SWAP1 PUSH2 0xD17 SWAP2 SWAP1 PUSH2 0x19E4 JUMP JUMPDEST PUSH2 0x122C JUMP JUMPDEST PUSH2 0xE9C JUMP JUMPDEST PUSH2 0x2710 PUSH2 0x13EC PUSH1 0x6 PUSH1 0x0 SWAP1 SLOAD SWAP1 PUSH2 0x100 EXP SWAP1 DIV PUSH1 0x1 PUSH1 0x1 PUSH1 0xA0 SHL SUB AND PUSH1 0x1 PUSH1 0x1 PUSH1 0xA0 SHL SUB AND PUSH4 0x18160DDD PUSH1 0x40 MLOAD DUP2 PUSH4 0xFFFFFFFF AND PUSH1 0xE0 SHL DUP2 MSTORE PUSH1 0x4 ADD PUSH1 0x20 PUSH1 0x40 MLOAD DUP1 DUP4 SUB DUP2 DUP7 GAS STATICCALL ISZERO DUP1 ISZERO PUSH2 0xD7A JUMPI RETURNDATASIZE PUSH1 0x0 DUP1 RETURNDATACOPY RETURNDATASIZE PUSH1 0x0 REVERT JUMPDEST POP POP POP POP PUSH1 0x40 MLOAD RETURNDATASIZE PUSH1 0x1F NOT PUSH1 0x1F DUP3 ADD AND DUP3 ADD DUP1 PUSH1 0x40 MSTORE POP DUP2 ADD SWAP1 PUSH2 0xD9E SWAP2 SWAP1 PUSH2 0x19E4 JUMP JUMPDEST PUSH2 0xDA8 SWAP2 SWAP1 PUSH2 0x1A13 JUMP JUMPDEST PUSH2 0xDB2 SWAP2 SWAP1 PUSH2 0x1A32 JUMP JUMPDEST PUSH1 0x6 SLOAD PUSH1 0x40 MLOAD PUSH4 0x70A08231 PUSH1 0xE0 SHL DUP2 MSTORE PUSH1 0x1 PUSH1 0x1 PUSH1 0xA0 SHL SUB SWAP1 SWAP2 AND SWAP1 PUSH4 0x70A08231 SWAP1 PUSH2 0xDE2 SWAP1 DUP8 SWAP1 PUSH1 0x4 ADD PUSH2 0x1832 JUMP JUMPDEST PUSH1 0x20 PUSH1 0x40 MLOAD DUP1 DUP4 SUB DUP2 DUP7 GAS STATICCALL ISZERO DUP1 ISZERO PUSH2 0xDFF JUMPI RETURNDATASIZE PUSH1 0x0 DUP1 RETURNDATACOPY RETURNDATASIZE PUSH1 0x0 REVERT JUMPDEST POP POP POP POP PUSH1 0x40 MLOAD RETURNDATASIZE PUSH1 0x1F NOT PUSH1 0x1F DUP3 ADD AND DUP3 ADD DUP1 PUSH1 0x40 MSTORE POP DUP2 ADD SWAP1 PUSH2 0xE23 SWAP2 SWAP1 PUSH2 0x19E4 JUMP JUMPDEST LT PUSH2 0xE9C JUMPI PUSH1 0x9 DUP1 SLOAD PUSH1 0x1 PUSH1 0x1 PUSH1 0xA0 SHL SUB DUP6 AND PUSH1 0x1 PUSH1 0x1 PUSH1 0xA0 SHL SUB NOT SWAP2 DUP3 AND DUP2 OR SWAP1 SWAP3 SSTORE PUSH1 0xA DUP1 SLOAD PUSH1 0x1 DUP2 ADD DUP3 SSTORE PUSH1 0x0 SWAP2 SWAP1 SWAP2 MSTORE PUSH32 0xC65A7BB8D6351C1CF70C95A316CC6A92839C986682D98BC35F958F4883F9D2A8 ADD DUP1 SLOAD SWAP1 SWAP2 AND SWAP1 SWAP2 OR SWAP1 SSTORE PUSH2 0xE90 TIMESTAMP PUSH3 0x15180 PUSH2 0x1A54 JUMP JUMPDEST PUSH1 0xC SSTORE PUSH2 0xE9C DUP4 PUSH2 0xB0D JUMP JUMPDEST DUP3 PUSH1 0x1 PUSH1 0x1 PUSH1 0xA0 SHL SUB AND DUP2 PUSH1 0x1 PUSH1 0x1 PUSH1 0xA0 SHL SUB AND PUSH32 0x63DB4FD02ABE7291D8F941514C494426E598A36D386FAFA477735F923D30C83E PUSH1 0x40 MLOAD PUSH1 0x40 MLOAD DUP1 SWAP2 SUB SWAP1 LOG3 POP JUMPDEST POP PUSH1 0x1 SWAP2 SWAP1 POP JUMP JUMPDEST PUSH1 0x1 PUSH1 0x1 PUSH1 0xA0 SHL SUB DUP4 AND PUSH2 0xEF9 JUMPI PUSH1 0x0 DUP1 REVERT JUMPDEST PUSH1 0x1 PUSH1 0x1 PUSH1 0xA0 SHL SUB DUP3 AND PUSH2 0xF0C JUMPI PUSH1 0x0 DUP1 REVERT JUMPDEST PUSH1 0x1 PUSH1 0x1 PUSH1 0xA0 SHL SUB DUP4 DUP2 AND PUSH1 0x0 DUP2 DUP2 MSTORE PUSH1 0x1 PUSH1 0x20 SWAP1 DUP2 MSTORE PUSH1 0x40 DUP1 DUP4 KECCAK256 SWAP5 DUP8 AND DUP1 DUP5 MSTORE SWAP5 DUP3 MSTORE SWAP2 DUP3 SWAP1 KECCAK256 DUP6 SWAP1 SSTORE SWAP1 MLOAD DUP5 DUP2 MSTORE PUSH32 0x8C5BE1E5EBEC7D5BD14F71427D1E84F3DD0314C0F7B2291E5B200AC8C7C3B925 SWAP2 ADD PUSH1 0x40 MLOAD DUP1 SWAP2 SUB SWAP1 LOG3 POP POP POP JUMP JUMPDEST PUSH1 0x1 PUSH1 0x1 PUSH1 0xA0 SHL SUB DUP3 AND PUSH2 0xF80 JUMPI PUSH1 0x0 DUP1 REVERT JUMPDEST DUP1 PUSH1 0x2 PUSH1 0x0 DUP3 DUP3 SLOAD PUSH2 0xF92 SWAP2 SWAP1 PUSH2 0x1A54 JUMP JUMPDEST SWAP1 SWAP2 SSTORE POP POP PUSH1 0x1 PUSH1 0x1 PUSH1 0xA0 SHL SUB DUP3 AND PUSH1 0x0 SWAP1 DUP2 MSTORE PUSH1 0x20 DUP2 SWAP1 MSTORE PUSH1 0x40 DUP2 KECCAK256 DUP1 SLOAD DUP4 SWAP3 SWAP1 PUSH2 0xFBF SWAP1 DUP5 SWAP1 PUSH2 0x1A54 JUMP JUMPDEST SWAP1 SWAP2 SSTORE POP POP PUSH1 0x40 MLOAD DUP2 DUP2 MSTORE PUSH1 0x1 PUSH1 0x1 PUSH1 0xA0 SHL SUB DUP4 AND SWAP1 PUSH1 0x0 SWAP1 PUSH1 0x0 DUP1 MLOAD PUSH1 0x20 PUSH2 0x1AF1 DUP4 CODECOPY DUP2 MLOAD SWAP2 MSTORE SWAP1 PUSH1 0x20 ADD PUSH1 0x40 MLOAD DUP1 SWAP2 SUB SWAP1 LOG3 POP POP JUMP JUMPDEST PUSH1 0x0 JUMPDEST PUSH1 0xA SLOAD DUP2 LT ISZERO PUSH2 0x11C6 JUMPI PUSH2 0x2710 PUSH2 0x13EC PUSH1 0x6 PUSH1 0x0 SWAP1 SLOAD SWAP1 PUSH2 0x100 EXP SWAP1 DIV PUSH1 0x1 PUSH1 0x1 PUSH1 0xA0 SHL SUB AND PUSH1 0x1 PUSH1 0x1 PUSH1 0xA0 SHL SUB AND PUSH4 0x18160DDD PUSH1 0x40 MLOAD DUP2 PUSH4 0xFFFFFFFF AND PUSH1 0xE0 SHL DUP2 MSTORE PUSH1 0x4 ADD PUSH1 0x20 PUSH1 0x40 MLOAD DUP1 DUP4 SUB DUP2 DUP7 GAS STATICCALL ISZERO DUP1 ISZERO PUSH2 0x105D JUMPI RETURNDATASIZE PUSH1 0x0 DUP1 RETURNDATACOPY RETURNDATASIZE PUSH1 0x0 REVERT JUMPDEST POP POP POP POP PUSH1 0x40 MLOAD RETURNDATASIZE PUSH1 0x1F NOT PUSH1 0x1F DUP3 ADD AND DUP3 ADD DUP1 PUSH1 0x40 MSTORE POP DUP2 ADD SWAP1 PUSH2 0x1081 SWAP2 SWAP1 PUSH2 0x19E4 JUMP JUMPDEST PUSH2 0x108B SWAP2 SWAP1 PUSH2 0x1A13 JUMP JUMPDEST PUSH2 0x1095 SWAP2 SWAP1 PUSH2 0x1A32 JUMP JUMPDEST PUSH1 0x6 SLOAD PUSH1 0xA DUP1 SLOAD PUSH1 0x1 PUSH1 0x1 PUSH1 0xA0 SHL SUB SWAP1 SWAP3 AND SWAP2 PUSH4 0x70A08231 SWAP2 SWAP1 DUP6 SWAP1 DUP2 LT PUSH2 0x10BF JUMPI PUSH2 0x10BF PUSH2 0x1A6C JUMP JUMPDEST PUSH1 0x0 SWAP2 DUP3 MSTORE PUSH1 0x20 SWAP1 SWAP2 KECCAK256 ADD SLOAD PUSH1 0x40 MLOAD PUSH1 0x1 PUSH1 0x1 PUSH1 0xE0 SHL SUB NOT PUSH1 0xE0 DUP5 SWAP1 SHL AND DUP2 MSTORE PUSH2 0x10F5 SWAP2 PUSH1 0x1 PUSH1 0x1 PUSH1 0xA0 SHL SUB AND SWAP1 PUSH1 0x4 ADD PUSH2 0x1832 JUMP JUMPDEST PUSH1 0x20 PUSH1 0x40 MLOAD DUP1 DUP4 SUB DUP2 DUP7 GAS STATICCALL ISZERO DUP1 ISZERO PUSH2 0x1112 JUMPI RETURNDATASIZE PUSH1 0x0 DUP1 RETURNDATACOPY RETURNDATASIZE PUSH1 0x0 REVERT JUMPDEST POP POP POP POP PUSH1 0x40 MLOAD RETURNDATASIZE PUSH1 0x1F NOT PUSH1 0x1F DUP3 ADD AND DUP3 ADD DUP1 PUSH1 0x40 MSTORE POP DUP2 ADD SWAP1 PUSH2 0x1136 SWAP2 SWAP1 PUSH2 0x19E4 JUMP JUMPDEST LT PUSH2 0x11B4 JUMPI PUSH1 0x9 SLOAD PUSH1 0xA DUP1 SLOAD PUSH1 0x1 PUSH1 0x1 PUSH1 0xA0 SHL SUB SWAP1 SWAP3 AND SWAP2 DUP4 SWAP1 DUP2 LT PUSH2 0x115E JUMPI PUSH2 0x115E PUSH2 0x1A6C JUMP JUMPDEST PUSH1 0x0 SWAP2 DUP3 MSTORE PUSH1 0x20 SWAP1 SWAP2 KECCAK256 ADD SLOAD PUSH1 0x1 PUSH1 0x1 PUSH1 0xA0 SHL SUB AND EQ PUSH2 0x11B4 JUMPI PUSH1 0xC SLOAD TIMESTAMP GT ISZERO PUSH2 0x11B4 JUMPI PUSH2 0x11B2 PUSH1 0xA DUP3 DUP2 SLOAD DUP2 LT PUSH2 0x1198 JUMPI PUSH2 0x1198 PUSH2 0x1A6C JUMP JUMPDEST PUSH1 0x0 SWAP2 DUP3 MSTORE PUSH1 0x20 SWAP1 SWAP2 KECCAK256 ADD SLOAD PUSH1 0x1 PUSH1 0x1 PUSH1 0xA0 SHL SUB AND PUSH2 0xB88 JUMP JUMPDEST POP JUMPDEST DUP1 PUSH2 0x11BE DUP2 PUSH2 0x1A82 JUMP JUMPDEST SWAP2 POP POP PUSH2 0xFFA JUMP JUMPDEST POP PUSH2 0x7A6 DUP4 DUP4 DUP4 PUSH2 0x1371 JUMP JUMPDEST PUSH1 0x5 SLOAD PUSH1 0x1 PUSH1 0x1 PUSH1 0xA0 SHL SUB AND CALLER EQ PUSH2 0x88F JUMPI PUSH1 0x40 MLOAD PUSH3 0x461BCD PUSH1 0xE5 SHL DUP2 MSTORE PUSH1 0x20 PUSH1 0x4 DUP3 ADD DUP2 SWAP1 MSTORE PUSH1 0x24 DUP3 ADD MSTORE PUSH32 0x4F776E61626C653A2063616C6C6572206973206E6F7420746865206F776E6572 PUSH1 0x44 DUP3 ADD MSTORE PUSH1 0x64 ADD PUSH2 0xB76 JUMP JUMPDEST PUSH1 0x1 PUSH1 0x1 PUSH1 0xA0 SHL SUB DUP3 AND PUSH2 0x123F JUMPI PUSH1 0x0 DUP1 REVERT JUMPDEST PUSH1 0x1 PUSH1 0x1 PUSH1 0xA0 SHL SUB DUP3 AND PUSH1 0x0 SWAP1 DUP2 MSTORE PUSH1 0x20 DUP2 SWAP1 MSTORE PUSH1 0x40 SWAP1 KECCAK256 SLOAD DUP2 DUP2 LT ISZERO PUSH2 0x1265 JUMPI PUSH1 0x0 DUP1 REVERT JUMPDEST PUSH1 0x1 PUSH1 0x1 PUSH1 0xA0 SHL SUB DUP4 AND PUSH1 0x0 SWAP1 DUP2 MSTORE PUSH1 0x20 DUP2 SWAP1 MSTORE PUSH1 0x40 DUP2 KECCAK256 DUP4 DUP4 SUB SWAP1 SSTORE PUSH1 0x2 DUP1 SLOAD DUP5 SWAP3 SWAP1 PUSH2 0x1294 SWAP1 DUP5 SWAP1 PUSH2 0x1A9B JUMP JUMPDEST SWAP1 SWAP2 SSTORE POP POP PUSH1 0x40 MLOAD DUP3 DUP2 MSTORE PUSH1 0x0 SWAP1 PUSH1 0x1 PUSH1 0x1 PUSH1 0xA0 SHL SUB DUP6 AND SWAP1 PUSH1 0x0 DUP1 MLOAD PUSH1 0x20 PUSH2 0x1AF1 DUP4 CODECOPY DUP2 MLOAD SWAP2 MSTORE SWAP1 PUSH1 0x20 ADD PUSH1 0x40 MLOAD DUP1 SWAP2 SUB SWAP1 LOG3 POP POP POP JUMP JUMPDEST PUSH1 0x5 DUP1 SLOAD PUSH1 0x1 PUSH1 0x1 PUSH1 0xA0 SHL SUB DUP4 DUP2 AND PUSH1 0x1 PUSH1 0x1 PUSH1 0xA0 SHL SUB NOT DUP4 AND DUP2 OR SWAP1 SWAP4 SSTORE PUSH1 0x40 MLOAD SWAP2 AND SWAP2 SWAP1 DUP3 SWAP1 PUSH32 0x8BE0079C531659141344CD1FD0A4F28419497F9722A3DAAFE3B4186F6B6457E0 SWAP1 PUSH1 0x0 SWAP1 LOG3 POP POP JUMP JUMPDEST PUSH1 0x40 DUP1 MLOAD PUSH1 0x1 PUSH1 0x1 PUSH1 0xA0 SHL SUB DUP5 AND PUSH1 0x24 DUP3 ADD MSTORE PUSH1 0x44 DUP1 DUP3 ADD DUP5 SWAP1 MSTORE DUP3 MLOAD DUP1 DUP4 SUB SWAP1 SWAP2 ADD DUP2 MSTORE PUSH1 0x64 SWAP1 SWAP2 ADD SWAP1 SWAP2 MSTORE PUSH1 0x20 DUP2 ADD DUP1 MLOAD PUSH1 0x1 PUSH1 0x1 PUSH1 0xE0 SHL SUB AND PUSH4 0xA9059CBB PUSH1 0xE0 SHL OR SWAP1 MSTORE PUSH2 0x7A6 SWAP1 DUP5 SWAP1 PUSH2 0x143D JUMP JUMPDEST PUSH1 0x1 PUSH1 0x1 PUSH1 0xA0 SHL SUB DUP4 AND PUSH2 0x1384 JUMPI PUSH1 0x0 DUP1 REVERT JUMPDEST PUSH1 0x1 PUSH1 0x1 PUSH1 0xA0 SHL SUB DUP3 AND PUSH2 0x1397 JUMPI PUSH1 0x0 DUP1 REVERT JUMPDEST PUSH1 0x1 PUSH1 0x1 PUSH1 0xA0 SHL SUB DUP4 AND PUSH1 0x0 SWAP1 DUP2 MSTORE PUSH1 0x20 DUP2 SWAP1 MSTORE PUSH1 0x40 SWAP1 KECCAK256 SLOAD DUP2 DUP2 LT ISZERO PUSH2 0x13BD JUMPI PUSH1 0x0 DUP1 REVERT JUMPDEST PUSH1 0x1 PUSH1 0x1 PUSH1 0xA0 SHL SUB DUP1 DUP6 AND PUSH1 0x0 SWAP1 DUP2 MSTORE PUSH1 0x20 DUP2 SWAP1 MSTORE PUSH1 0x40 DUP1 DUP3 KECCAK256 DUP6 DUP6 SUB SWAP1 SSTORE SWAP2 DUP6 AND DUP2 MSTORE SWAP1 DUP2 KECCAK256 DUP1 SLOAD DUP5 SWAP3 SWAP1 PUSH2 0x13F4 SWAP1 DUP5 SWAP1 PUSH2 0x1A54 JUMP JUMPDEST SWAP3 POP POP DUP2 SWAP1 SSTORE POP DUP3 PUSH1 0x1 PUSH1 0x1 PUSH1 0xA0 SHL SUB AND DUP5 PUSH1 0x1 PUSH1 0x1 PUSH1 0xA0 SHL SUB AND PUSH1 0x0 DUP1 MLOAD PUSH1 0x20 PUSH2 0x1AF1 DUP4 CODECOPY DUP2 MLOAD SWAP2 MSTORE DUP5 PUSH1 0x40 MLOAD PUSH2 0x142E SWAP2 DUP2 MSTORE PUSH1 0x20 ADD SWAP1 JUMP JUMPDEST PUSH1 0x40 MLOAD DUP1 SWAP2 SUB SWAP1 LOG3 JUMPDEST POP POP POP POP JUMP JUMPDEST PUSH1 0x0 PUSH2 0x1492 DUP3 PUSH1 0x40 MLOAD DUP1 PUSH1 0x40 ADD PUSH1 0x40 MSTORE DUP1 PUSH1 0x20 DUP2 MSTORE PUSH1 0x20 ADD PUSH32 0x5361666545524332303A206C6F772D6C6576656C2063616C6C206661696C6564 DUP2 MSTORE POP DUP6 PUSH1 0x1 PUSH1 0x1 PUSH1 0xA0 SHL SUB AND PUSH2 0x150F SWAP1 SWAP3 SWAP2 SWAP1 PUSH4 0xFFFFFFFF AND JUMP JUMPDEST DUP1 MLOAD SWAP1 SWAP2 POP ISZERO PUSH2 0x7A6 JUMPI DUP1 DUP1 PUSH1 0x20 ADD SWAP1 MLOAD DUP2 ADD SWAP1 PUSH2 0x14B0 SWAP2 SWAP1 PUSH2 0x1AB2 JUMP JUMPDEST PUSH2 0x7A6 JUMPI PUSH1 0x40 MLOAD PUSH3 0x461BCD PUSH1 0xE5 SHL DUP2 MSTORE PUSH1 0x20 PUSH1 0x4 DUP3 ADD MSTORE PUSH1 0x2A PUSH1 0x24 DUP3 ADD MSTORE PUSH32 0x5361666545524332303A204552433230206F7065726174696F6E20646964206E PUSH1 0x44 DUP3 ADD MSTORE PUSH10 0x1BDD081CDD58D8D95959 PUSH1 0xB2 SHL PUSH1 0x64 DUP3 ADD MSTORE PUSH1 0x84 ADD PUSH2 0xB76 JUMP JUMPDEST PUSH1 0x60 PUSH2 0x151E DUP5 DUP5 PUSH1 0x0 DUP6 PUSH2 0x1526 JUMP JUMPDEST SWAP5 SWAP4 POP POP POP POP JUMP JUMPDEST PUSH1 0x60 DUP3 SELFBALANCE LT ISZERO PUSH2 0x1587 JUMPI PUSH1 0x40 MLOAD PUSH3 0x461BCD PUSH1 0xE5 SHL DUP2 MSTORE PUSH1 0x20 PUSH1 0x4 DUP3 ADD MSTORE PUSH1 0x26 PUSH1 0x24 DUP3 ADD MSTORE PUSH32 0x416464726573733A20696E73756666696369656E742062616C616E636520666F PUSH1 0x44 DUP3 ADD MSTORE PUSH6 0x1C8818D85B1B PUSH1 0xD2 SHL PUSH1 0x64 DUP3 ADD MSTORE PUSH1 0x84 ADD PUSH2 0xB76 JUMP JUMPDEST PUSH1 0x0 DUP1 DUP7 PUSH1 0x1 PUSH1 0x1 PUSH1 0xA0 SHL SUB AND DUP6 DUP8 PUSH1 0x40 MLOAD PUSH2 0x15A3 SWAP2 SWAP1 PUSH2 0x1AD4 JUMP JUMPDEST PUSH1 0x0 PUSH1 0x40 MLOAD DUP1 DUP4 SUB DUP2 DUP6 DUP8 GAS CALL SWAP3 POP POP POP RETURNDATASIZE DUP1 PUSH1 0x0 DUP2 EQ PUSH2 0x15E0 JUMPI PUSH1 0x40 MLOAD SWAP2 POP PUSH1 0x1F NOT PUSH1 0x3F RETURNDATASIZE ADD AND DUP3 ADD PUSH1 0x40 MSTORE RETURNDATASIZE DUP3 MSTORE RETURNDATASIZE PUSH1 0x0 PUSH1 0x20 DUP5 ADD RETURNDATACOPY PUSH2 0x15E5 JUMP JUMPDEST PUSH1 0x60 SWAP2 POP JUMPDEST POP SWAP2 POP SWAP2 POP PUSH2 0x15F6 DUP8 DUP4 DUP4 DUP8 PUSH2 0x1601 JUMP JUMPDEST SWAP8 SWAP7 POP POP POP POP POP POP POP JUMP JUMPDEST PUSH1 0x60 DUP4 ISZERO PUSH2 0x1670 JUMPI DUP3 MLOAD PUSH1 0x0 SUB PUSH2 0x1669 JUMPI PUSH1 0x1 PUSH1 0x1 PUSH1 0xA0 SHL SUB DUP6 AND EXTCODESIZE PUSH2 0x1669 JUMPI PUSH1 0x40 MLOAD PUSH3 0x461BCD PUSH1 0xE5 SHL DUP2 MSTORE PUSH1 0x20 PUSH1 0x4 DUP3 ADD MSTORE PUSH1 0x1D PUSH1 0x24 DUP3 ADD MSTORE PUSH32 0x416464726573733A2063616C6C20746F206E6F6E2D636F6E7472616374000000 PUSH1 0x44 DUP3 ADD MSTORE PUSH1 0x64 ADD PUSH2 0xB76 JUMP JUMPDEST POP DUP2 PUSH2 0x151E JUMP JUMPDEST PUSH2 0x151E DUP4 DUP4 DUP2 MLOAD ISZERO PUSH2 0x1685 JUMPI DUP2 MLOAD DUP1 DUP4 PUSH1 0x20 ADD REVERT JUMPDEST DUP1 PUSH1 0x40 MLOAD PUSH3 0x461BCD PUSH1 0xE5 SHL DUP2 MSTORE PUSH1 0x4 ADD PUSH2 0xB76 SWAP2 SWAP1 PUSH2 0x17A5 JUMP JUMPDEST DUP3 DUP1 SLOAD PUSH2 0x16AB SWAP1 PUSH2 0x19AA JUMP JUMPDEST SWAP1 PUSH1 0x0 MSTORE PUSH1 0x20 PUSH1 0x0 KECCAK256 SWAP1 PUSH1 0x1F ADD PUSH1 0x20 SWAP1 DIV DUP2 ADD SWAP3 DUP3 PUSH2 0x16CD JUMPI PUSH1 0x0 DUP6 SSTORE PUSH2 0x1713 JUMP JUMPDEST DUP3 PUSH1 0x1F LT PUSH2 0x16E6 JUMPI DUP1 MLOAD PUSH1 0xFF NOT AND DUP4 DUP1 ADD OR DUP6 SSTORE PUSH2 0x1713 JUMP JUMPDEST DUP3 DUP1 ADD PUSH1 0x1 ADD DUP6 SSTORE DUP3 ISZERO PUSH2 0x1713 JUMPI SWAP2 DUP3 ADD JUMPDEST DUP3 DUP2 GT ISZERO PUSH2 0x1713 JUMPI DUP3 MLOAD DUP3 SSTORE SWAP2 PUSH1 0x20 ADD SWAP2 SWAP1 PUSH1 0x1 ADD SWAP1 PUSH2 0x16F8 JUMP JUMPDEST POP PUSH2 0x171F SWAP3 SWAP2 POP PUSH2 0x1723 JUMP JUMPDEST POP SWAP1 JUMP JUMPDEST JUMPDEST DUP1 DUP3 GT ISZERO PUSH2 0x171F JUMPI PUSH1 0x0 DUP2 SSTORE PUSH1 0x1 ADD PUSH2 0x1724 JUMP JUMPDEST PUSH1 0x1 PUSH1 0x1 PUSH1 0xA0 SHL SUB DUP2 AND DUP2 EQ PUSH2 0xAFD JUMPI PUSH1 0x0 DUP1 REVERT JUMPDEST PUSH1 0x0 DUP1 PUSH1 0x40 DUP4 DUP6 SUB SLT ISZERO PUSH2 0x1760 JUMPI PUSH1 0x0 DUP1 REVERT JUMPDEST DUP3 CALLDATALOAD PUSH2 0x176B DUP2 PUSH2 0x1738 JUMP JUMPDEST SWAP5 PUSH1 0x20 SWAP4 SWAP1 SWAP4 ADD CALLDATALOAD SWAP4 POP POP POP JUMP JUMPDEST PUSH1 0x0 JUMPDEST DUP4 DUP2 LT ISZERO PUSH2 0x1794 JUMPI DUP2 DUP2 ADD MLOAD DUP4 DUP3 ADD MSTORE PUSH1 0x20 ADD PUSH2 0x177C JUMP JUMPDEST DUP4 DUP2 GT ISZERO PUSH2 0x1437 JUMPI POP POP PUSH1 0x0 SWAP2 ADD MSTORE JUMP JUMPDEST PUSH1 0x20 DUP2 MSTORE PUSH1 0x0 DUP3 MLOAD DUP1 PUSH1 0x20 DUP5 ADD MSTORE PUSH2 0x17C4 DUP2 PUSH1 0x40 DUP6 ADD PUSH1 0x20 DUP8 ADD PUSH2 0x1779 JUMP JUMPDEST PUSH1 0x1F ADD PUSH1 0x1F NOT AND SWAP2 SWAP1 SWAP2 ADD PUSH1 0x40 ADD SWAP3 SWAP2 POP POP JUMP JUMPDEST PUSH1 0x0 DUP1 PUSH1 0x0 PUSH1 0x60 DUP5 DUP7 SUB SLT ISZERO PUSH2 0x17ED JUMPI PUSH1 0x0 DUP1 REVERT JUMPDEST DUP4 CALLDATALOAD PUSH2 0x17F8 DUP2 PUSH2 0x1738 JUMP JUMPDEST SWAP3 POP PUSH1 0x20 DUP5 ADD CALLDATALOAD PUSH2 0x1808 DUP2 PUSH2 0x1738 JUMP JUMPDEST SWAP3 SWAP6 SWAP3 SWAP5 POP POP POP PUSH1 0x40 SWAP2 SWAP1 SWAP2 ADD CALLDATALOAD SWAP1 JUMP JUMPDEST PUSH1 0x0 PUSH1 0x20 DUP3 DUP5 SUB SLT ISZERO PUSH2 0x182B JUMPI PUSH1 0x0 DUP1 REVERT JUMPDEST POP CALLDATALOAD SWAP2 SWAP1 POP JUMP JUMPDEST PUSH1 0x1 PUSH1 0x1 PUSH1 0xA0 SHL SUB SWAP2 SWAP1 SWAP2 AND DUP2 MSTORE PUSH1 0x20 ADD SWAP1 JUMP JUMPDEST PUSH1 0x0 PUSH1 0x20 DUP3 DUP5 SUB SLT ISZERO PUSH2 0x1858 JUMPI PUSH1 0x0 DUP1 REVERT JUMPDEST DUP2 CALLDATALOAD PUSH2 0x1863 DUP2 PUSH2 0x1738 JUMP JUMPDEST SWAP4 SWAP3 POP POP POP JUMP JUMPDEST PUSH4 0x4E487B71 PUSH1 0xE0 SHL PUSH1 0x0 MSTORE PUSH1 0x41 PUSH1 0x4 MSTORE PUSH1 0x24 PUSH1 0x0 REVERT JUMPDEST PUSH1 0x0 DUP3 PUSH1 0x1F DUP4 ADD SLT PUSH2 0x1891 JUMPI PUSH1 0x0 DUP1 REVERT JUMPDEST DUP2 CALLDATALOAD PUSH8 0xFFFFFFFFFFFFFFFF DUP1 DUP3 GT ISZERO PUSH2 0x18AC JUMPI PUSH2 0x18AC PUSH2 0x186A JUMP JUMPDEST PUSH1 0x40 MLOAD PUSH1 0x1F DUP4 ADD PUSH1 0x1F NOT SWAP1 DUP2 AND PUSH1 0x3F ADD AND DUP2 ADD SWAP1 DUP3 DUP3 GT DUP2 DUP4 LT OR ISZERO PUSH2 0x18D4 JUMPI PUSH2 0x18D4 PUSH2 0x186A JUMP JUMPDEST DUP2 PUSH1 0x40 MSTORE DUP4 DUP2 MSTORE DUP7 PUSH1 0x20 DUP6 DUP9 ADD ADD GT ISZERO PUSH2 0x18ED JUMPI PUSH1 0x0 DUP1 REVERT JUMPDEST DUP4 PUSH1 0x20 DUP8 ADD PUSH1 0x20 DUP4 ADD CALLDATACOPY PUSH1 0x0 PUSH1 0x20 DUP6 DUP4 ADD ADD MSTORE DUP1 SWAP5 POP POP POP POP POP SWAP3 SWAP2 POP POP JUMP JUMPDEST PUSH1 0x0 DUP1 PUSH1 0x40 DUP4 DUP6 SUB SLT ISZERO PUSH2 0x1920 JUMPI PUSH1 0x0 DUP1 REVERT JUMPDEST DUP3 CALLDATALOAD PUSH8 0xFFFFFFFFFFFFFFFF DUP1 DUP3 GT ISZERO PUSH2 0x1938 JUMPI PUSH1 0x0 DUP1 REVERT JUMPDEST PUSH2 0x1944 DUP7 DUP4 DUP8 ADD PUSH2 0x1880 JUMP JUMPDEST SWAP4 POP PUSH1 0x20 DUP6 ADD CALLDATALOAD SWAP2 POP DUP1 DUP3 GT ISZERO PUSH2 0x195A JUMPI PUSH1 0x0 DUP1 REVERT JUMPDEST POP PUSH2 0x1967 DUP6 DUP3 DUP7 ADD PUSH2 0x1880 JUMP JUMPDEST SWAP2 POP POP SWAP3 POP SWAP3 SWAP1 POP JUMP JUMPDEST PUSH1 0x0 DUP1 PUSH1 0x40 DUP4 DUP6 SUB SLT ISZERO PUSH2 0x1984 JUMPI PUSH1 0x0 DUP1 REVERT JUMPDEST DUP3 CALLDATALOAD PUSH2 0x198F DUP2 PUSH2 0x1738 JUMP JUMPDEST SWAP2 POP PUSH1 0x20 DUP4 ADD CALLDATALOAD PUSH2 0x199F DUP2 PUSH2 0x1738 JUMP JUMPDEST DUP1 SWAP2 POP POP SWAP3 POP SWAP3 SWAP1 POP JUMP JUMPDEST PUSH1 0x1 DUP2 DUP2 SHR SWAP1 DUP3 AND DUP1 PUSH2 0x19BE JUMPI PUSH1 0x7F DUP3 AND SWAP2 POP JUMPDEST PUSH1 0x20 DUP3 LT DUP2 SUB PUSH2 0x19DE JUMPI PUSH4 0x4E487B71 PUSH1 0xE0 SHL PUSH1 0x0 MSTORE PUSH1 0x22 PUSH1 0x4 MSTORE PUSH1 0x24 PUSH1 0x0 REVERT JUMPDEST POP SWAP2 SWAP1 POP JUMP JUMPDEST PUSH1 0x0 PUSH1 0x20 DUP3 DUP5 SUB SLT ISZERO PUSH2 0x19F6 JUMPI PUSH1 0x0 DUP1 REVERT JUMPDEST POP MLOAD SWAP2 SWAP1 POP JUMP JUMPDEST PUSH4 0x4E487B71 PUSH1 0xE0 SHL PUSH1 0x0 MSTORE PUSH1 0x11 PUSH1 0x4 MSTORE PUSH1 0x24 PUSH1 0x0 REVERT JUMPDEST PUSH1 0x0 DUP2 PUSH1 0x0 NOT DIV DUP4 GT DUP3 ISZERO ISZERO AND ISZERO PUSH2 0x1A2D JUMPI PUSH2 0x1A2D PUSH2 0x19FD JUMP JUMPDEST POP MUL SWAP1 JUMP JUMPDEST PUSH1 0x0 DUP3 PUSH2 0x1A4F JUMPI PUSH4 0x4E487B71 PUSH1 0xE0 SHL PUSH1 0x0 MSTORE PUSH1 0x12 PUSH1 0x4 MSTORE PUSH1 0x24 PUSH1 0x0 REVERT JUMPDEST POP DIV SWAP1 JUMP JUMPDEST PUSH1 0x0 DUP3 NOT DUP3 GT ISZERO PUSH2 0x1A67 JUMPI PUSH2 0x1A67 PUSH2 0x19FD JUMP JUMPDEST POP ADD SWAP1 JUMP JUMPDEST PUSH4 0x4E487B71 PUSH1 0xE0 SHL PUSH1 0x0 MSTORE PUSH1 0x32 PUSH1 0x4 MSTORE PUSH1 0x24 PUSH1 0x0 REVERT JUMPDEST PUSH1 0x0 PUSH1 0x1 DUP3 ADD PUSH2 0x1A94 JUMPI PUSH2 0x1A94 PUSH2 0x19FD JUMP JUMPDEST POP PUSH1 0x1 ADD SWAP1 JUMP JUMPDEST PUSH1 0x0 DUP3 DUP3 LT ISZERO PUSH2 0x1AAD JUMPI PUSH2 0x1AAD PUSH2 0x19FD JUMP JUMPDEST POP SUB SWAP1 JUMP JUMPDEST PUSH1 0x0 PUSH1 0x20 DUP3 DUP5 SUB SLT ISZERO PUSH2 0x1AC4 JUMPI PUSH1 0x0 DUP1 REVERT JUMPDEST DUP2 MLOAD DUP1 ISZERO ISZERO DUP2 EQ PUSH2 0x1863 JUMPI PUSH1 0x0 DUP1 REVERT JUMPDEST PUSH1 0x0 DUP3 MLOAD PUSH2 0x1AE6 DUP2 DUP5 PUSH1 0x20 DUP8 ADD PUSH2 0x1779 JUMP JUMPDEST SWAP2 SWAP1 SWAP2 ADD SWAP3 SWAP2 POP POP JUMP INVALID 0xDD CALLCODE MSTORE 0xAD SHL 0xE2 0xC8 SWAP12 PUSH10 0xC2B068FC378DAA952BA7 CALL PUSH4 0xC4A11628 CREATE2 GAS 0x4D CREATE2 0x23 0xB3 0xEF LOG2 PUSH5 0x6970667358 0x22 SLT KECCAK256 0xEC PUSH21 0xB497EBFCCCCC36AED5B863A3B4309A3F26F187F6C6 0xE3 0x2D ADDRESS LOG1 PUSH23 0x1BAB17164736F6C634300080D00338BE0079C53165914 SGT DIFFICULTY 0xCD 0x1F 0xD0 LOG4 CALLCODE DUP5 NOT 0x49 PUSH32 0x9722A3DAAFE3B4186F6B6457E000000000000000000000000000000000000000 "
		},
		"gasEstimates": {
			"creation": {
				"codeDepositCost": "5680600",
				"executionCost": "infinite",
				"totalCost": "infinite"
			},
			"external": {
				"": "227",
				"authorize(address)": "26918",
				"deployVaults(uint256)": "infinite",
				"emergencyWithdrawEther()": "infinite",
				"indexOfWallet(address)": "infinite",
				"setVIP(address,address,bool,uint256,uint256,uint256,uint256)": "infinite",
				"transferAuthorization(address,address)": "infinite",
				"unauthorize(address)": "26944",
				"walletOfIndex(uint256)": "2633"
			},
			"internal": {
				"safeAddr(address)": "infinite"
			}
		},
		"methodIdentifiers": {
			"authorize(address)": "b6a5d7de",
			"deployVaults(uint256)": "284fce07",
			"emergencyWithdrawEther()": "dc92f8f0",
			"indexOfWallet(address)": "975d9205",
			"setVIP(address,address,bool,uint256,uint256,uint256,uint256)": "b5f1d3eb",
			"transferAuthorization(address,address)": "8cd0acc3",
			"unauthorize(address)": "f0b37c04",
			"walletOfIndex(uint256)": "f2a04e98"
		}
	},
	"abi": [
		{
			"inputs": [
				{
					"internalType": "address payable",
					"name": "ops",
					"type": "address"
				}
			],
			"stateMutability": "payable",
			"type": "constructor"
		},
		{
			"stateMutability": "payable",
			"type": "fallback"
		},
		{
			"inputs": [
				{
					"internalType": "address",
					"name": "adr",
					"type": "address"
				}
			],
			"name": "authorize",
			"outputs": [],
			"stateMutability": "nonpayable",
			"type": "function"
		},
		{
			"inputs": [
				{
					"internalType": "uint256",
					"name": "number",
					"type": "uint256"
				}
			],
			"name": "deployVaults",
			"outputs": [
				{
					"internalType": "address payable",
					"name": "",
					"type": "address"
				}
			],
			"stateMutability": "payable",
			"type": "function"
		},
		{
			"inputs": [],
			"name": "emergencyWithdrawEther",
			"outputs": [],
			"stateMutability": "nonpayable",
			"type": "function"
		},
		{
			"inputs": [
				{
					"internalType": "address",
					"name": "wallet",
					"type": "address"
				}
			],
			"name": "indexOfWallet",
			"outputs": [
				{
					"internalType": "uint256",
					"name": "",
					"type": "uint256"
				}
			],
			"stateMutability": "view",
			"type": "function"
		},
		{
			"inputs": [
				{
					"internalType": "address payable",
					"name": "iTOKEN",
					"type": "address"
				},
				{
					"internalType": "address payable",
					"name": "iWETH",
					"type": "address"
				},
				{
					"internalType": "bool",
					"name": "tokenFee",
					"type": "bool"
				},
				{
					"internalType": "uint256",
					"name": "tFee",
					"type": "uint256"
				},
				{
					"internalType": "uint256",
					"name": "tkFee",
					"type": "uint256"
				},
				{
					"internalType": "uint256",
					"name": "bMaxAmt",
					"type": "uint256"
				},
				{
					"internalType": "uint256",
					"name": "index",
					"type": "uint256"
				}
			],
			"name": "setVIP",
			"outputs": [],
			"stateMutability": "nonpayable",
			"type": "function"
		},
		{
			"inputs": [
				{
					"internalType": "address",
					"name": "fromAddr",
					"type": "address"
				},
				{
					"internalType": "address",
					"name": "toAddr",
					"type": "address"
				}
			],
			"name": "transferAuthorization",
			"outputs": [
				{
					"internalType": "bool",
					"name": "",
					"type": "bool"
				}
			],
			"stateMutability": "nonpayable",
			"type": "function"
		},
		{
			"inputs": [
				{
					"internalType": "address",
					"name": "adr",
					"type": "address"
				}
			],
			"name": "unauthorize",
			"outputs": [],
			"stateMutability": "nonpayable",
			"type": "function"
		},
		{
			"inputs": [
				{
					"internalType": "uint256",
					"name": "id",
					"type": "uint256"
				}
			],
			"name": "walletOfIndex",
			"outputs": [
				{
					"internalType": "address",
					"name": "",
					"type": "address"
				}
			],
			"stateMutability": "view",
			"type": "function"
		},
		{
			"stateMutability": "payable",
			"type": "receive"
		}
	]
}