{
	"data": {
		"bytecode": {
			"linkReferences": {},
			"object": "600280546001600160a01b031990811673050134fd4ea6547846ede4c4bf46a334b7e87ccd179091556003805490911673d166df9dfb917c3b960673e2f420f928d45c9be117905560e0604052600760a081905266714c53784fca4960c91b60c0908152620000729160049190620001d9565b5060408051808201909152600780825266e298a6f09f949160c81b6020909201918252620000a391600591620001d9565b50611f40600655612710608052600880546001600160a01b031990811673eaec17f25a8219fcd659b38c577dffdae25539be1790915560098054821673a888a7a2dc73efdb5705106a216f068e939a2693908117909155600a80549092161790556000600d819055600e55660d801472258000600f556934f086f3b33b6840000060105569d3c21bcecceda10000006011556012805460ff1916905560405162001efb3881900390819083398101604081905262000161916200027f565b600254600354600080546001600160a01b03199081163390811783558252600160208190526040808420805460ff1990811684179091556001600160a01b03968716855281852080548216841790559486168452909220805490931690911790915560078054939092169216919091179055620002ed565b828054620001e790620002b1565b90600052602060002090601f0160209004810192826200020b576000855562000256565b82601f106200022657805160ff191683800117855562000256565b8280016001018555821562000256579182015b828111156200025657825182559160200191906001019062000239565b506200026492915062000268565b5090565b5b8082111562000264576000815560010162000269565b6000602082840312156200029257600080fd5b81516001600160a01b0381168114620002aa57600080fd5b9392505050565b600181811c90821680620002c657607f821691505b602082108103620002e757634e487b7160e01b600052602260045260246000fd5b50919050565b608051611bf26200030960003960006117330152611bf26000f3fe60806040526004361061010e5760003560e01c80638cd0acc31161009b5780638cd0acc3146102a957806395d89b41146102c9578063985c51f9146102de57806398c37f21146102f457806399049f711461030a578063b6a5d7de1461035f578063ced72f871461037f578063dbba0f0114610394578063dd1599fa146103b4578063f0b37c04146103e1578063f8ff9ac91461040157610124565b806306fdde03146101335780631a40785c1461015e57806324f8958a146101815780633ccfd60b146101ae578063407e655c146101c357806343602017146101e35780634b4138c9146102035780635f1d9fbc1461021857806379cba1c414610269578063894760691461028957610124565b3661012457600f5434101561012257600080fd5b005b600f5434101561012257600080fd5b34801561013f57600080fd5b50610148610414565b6040516101559190611859565b60405180910390f35b61017161016c3660046118ae565b6104a2565b6040519015158152602001610155565b34801561018d57600080fd5b506007546101a1906001600160a01b031681565b60405161015591906118c7565b3480156101ba57600080fd5b5061012261062d565b3480156101cf57600080fd5b506101716101de3660046118f0565b610782565b3480156101ef57600080fd5b506101226101fe366004611920565b6108c8565b34801561020f57600080fd5b506101226108e6565b34801561022457600080fd5b5061025b610233366004611944565b6001600160a01b03919091166000908152600c60209081526040808320938352929052205490565b604051908152602001610155565b34801561027557600080fd5b5061012261028436600461197e565b610b12565b34801561029557600080fd5b506101226102a4366004611920565b610b85565b3480156102b557600080fd5b506101716102c43660046119e3565b611079565b3480156102d557600080fd5b506101486110c0565b3480156102ea57600080fd5b5061025b60105481565b34801561030057600080fd5b5061025b60115481565b34801561031657600080fd5b5061032a610325366004611920565b6110cd565b604080519788526020880196909652948601939093526060850191909152608084015260a083015260c082015260e001610155565b34801561036b57600080fd5b5061012261037a366004611920565b6111c1565b34801561038b57600080fd5b50600f5461025b565b3480156103a057600080fd5b506101716103af366004611a11565b6111fa565b3480156103c057600080fd5b506103d46103cf366004611920565b6113fe565b6040516101559190611a53565b3480156103ed57600080fd5b506101226103fc366004611920565b611477565b61017161040f3660046118ae565b6114aa565b6004805461042190611a97565b80601f016020809104026020016040519081016040528092919081815260200182805461044d90611a97565b801561049a5780601f1061046f5761010080835404028352916020019161049a565b820191906000526020600020905b81548152906001019060200180831161047d57829003601f168201915b505050505081565b6000600f543410156104b357600080fd5b6010548211156104c257600080fd5b6008546040516370a0823160e01b815283916001600160a01b0316906370a08231906104f29033906004016118c7565b602060405180830381865afa15801561050f573d6000803e3d6000fd5b505050506040513d601f19601f820116820180604052508101906105339190611ad1565b101561053e57600080fd5b600854604051636eb1769f60e11b815233600482015230602482015283916001600160a01b03169063dd62ed3e90604401602060405180830381865afa15801561058c573d6000803e3d6000fd5b505050506040513d601f19601f820116820180604052508101906105b09190611ad1565b10156105fe5760405162461bcd60e51b8152602060048201526018602482015277496e63726561736520616c6c6f77616e63652e2e2e4b454b60401b60448201526064015b60405180910390fd5b6000610616336008546001600160a01b0316856114ca565b905060018115151461062757600080fd5b92915050565b6003546001600160a01b039081166000908152600b602052604080822060025490931682528120904790819061066690829030906115eb565b151560011461067457600080fd5b60008060006106828561171b565b9250925092508187600001600201600082825461069f9190611b00565b9091555050600a860180548291906000906106bb908490611b00565b9091555050600060018801819055600987018190556003546040516001600160a01b039091169184156108fc02918591818181858888f19350505050158015610708573d6000803e3d6000fd5b506002546040516001600160a01b039091169082156108fc029083906000818181858888f19350505050158015610743573d6000803e3d6000fd5b5060405183815230907f7fcf532c15f0a6db0bd6d0e038bea71d30d808c7d98cb3bf7268a95bf5081b659060200160405180910390a250505050505050565b600061078d336117a2565b61079657600080fd5b6001600160a01b0382166107ac576107ac611b18565b6008546040516370a0823160e01b81526000916001600160a01b0316906370a08231906107dd9030906004016118c7565b602060405180830381865afa1580156107fa573d6000803e3d6000fd5b505050506040513d601f19601f8201168201806040525081019061081e9190611ad1565b60085490915061083a9082906001600160a01b031660016115eb565b151560011461084857600080fd5b60085460405163a9059cbb60e01b81526001600160a01b039091169063a9059cbb9061087a9086908890600401611b2e565b6020604051808303816000875af1158015610899573d6000803e3d6000fd5b505050506040513d601f19601f820116820180604052508101906108bd9190611b47565b506001949350505050565b6108d1336117a2565b6108da57600080fd5b6108e3816111c1565b50565b6003546001600160a01b039081166000908152600b6020526040808220600254909316825281209047908061091a8361171b565b9093509150600090508282476109318130866115eb565b151560011461093f57600080fd5b6009546040516370a0823160e01b81526000916001600160a01b0316906370a08231906109709030906004016118c7565b602060405180830381865afa15801561098d573d6000803e3d6000fd5b505050506040513d601f19601f820116820180604052508101906109b19190611ad1565b6009549091506109cd9082906001600160a01b031660016115eb565b15156001146109db57600080fd5b600a60009054906101000a90046001600160a01b03166001600160a01b031663d0e30db0896040518263ffffffff1660e01b81526004016000604051808303818588803b158015610a2b57600080fd5b505af193505050508015610a3d575060015b610a4a5760009450610abf565b868a6000016001016000828254610a619190611b64565b9091555050600989018054879190600090610a7d908490611b64565b909155505060048a018054859190600090610a99908490611b00565b9091555050600c89018054849190600090610ab5908490611b00565b9091555060019550505b600185151514610ad157610ad1611b18565b60405188815230907f04611f1757844fdc2d4237a951583ca101c93f843bdc2d91a0e3fcf1d7a64cd29060200160405180910390a250505050505050505050565b610b1b336117a2565b610b2457600080fd5b611f40841115610b3357600080fd5b6006939093556010929092556012805460ff1916911515919091179055600f55600980546001600160a01b03199081166001600160a01b03938416179091556008805490911692909116919091179055565b6003546001600160a01b039081166000908152600b60205260408082206002548416835281832091516370a0823160e01b815290939192918516906370a0823190610bd49030906004016118c7565b602060405180830381865afa158015610bf1573d6000803e3d6000fd5b505050506040513d601f19601f82011682018060405250810190610c159190611ad1565b9050600080610c238361171b565b6040516370a0823160e01b8152919450925083915082906000906001600160a01b038a16906370a0823190610c5c9030906004016118c7565b602060405180830381865afa158015610c79573d6000803e3d6000fd5b505050506040513d601f19601f82011682018060405250810190610c9d9190611ad1565b9050610cab818a60016115eb565b1515600114610cb957600080fd5b6009546001600160a01b03908116908a1603610e385782886000016004016000828254610ce69190611b64565b9091555050600c87018054839190600090610d02908490611b64565b9091555050600688018054869190600090610d1e908490611b00565b9091555050600e87018054859190600090610d3a908490611b00565b909155505060095460035460405163a9059cbb60e01b81526001600160a01b039283169263a9059cbb92610d75929116908990600401611b2e565b6020604051808303816000875af1158015610d94573d6000803e3d6000fd5b505050506040513d601f19601f82011682018060405250810190610db89190611b47565b5060095460025460405163a9059cbb60e01b81526001600160a01b039283169263a9059cbb92610def929116908890600401611b2e565b6020604051808303816000875af1158015610e0e573d6000803e3d6000fd5b505050506040513d601f19601f82011682018060405250810190610e329190611b47565b5061102e565b6008546001600160a01b038a81169116148015610e5c575060125460ff1615156001145b15610f7d5782886000016005016000828254610e789190611b64565b9091555050600d87018054839190600090610e94908490611b64565b9091555050600688018054869190600090610eb0908490611b00565b9091555050600e87018054859190600090610ecc908490611b00565b909155505060035460405163a9059cbb60e01b81526001600160a01b038b81169263a9059cbb92610f0592909116908990600401611b2e565b6020604051808303816000875af1158015610f24573d6000803e3d6000fd5b505050506040513d601f19601f82011682018060405250810190610f489190611b47565b5060025460405163a9059cbb60e01b81526001600160a01b038b81169263a9059cbb92610def92909116908890600401611b2e565b85886000016005016000828254610f949190611b64565b9091555050600688018054879190600090610fb0908490611b00565b909155505060035460405163a9059cbb60e01b81526001600160a01b038b81169263a9059cbb92610fe992909116908a90600401611b2e565b6020604051808303816000875af1158015611008573d6000803e3d6000fd5b505050506040513d601f19601f8201168201806040525081019061102c9190611b47565b505b6040518681526001600160a01b038a169030907f037238854fe57fbf51f09946f854fc3916fe83938d6521f09bd05463839f13049060200160405180910390a3505050505050505050565b6000611084336117a2565b61108d57600080fd5b6001600160a01b03831633146110a257600080fd5b60006110ad836111c1565b6110b684611477565b5060019392505050565b6005805461042190611a97565b60008080808080806110de336117a2565b6110e757600080fd5b6001600160a01b038089166000818152600b602052604081206003549093919283928392839283929190911690036111415750505060018301546005840154600485015460028601546006870154939550919350916111a3565b6002546001600160a01b03908116908f160361117f575050506009830154600d840154600c850154600a860154600e870154939550919350916111a3565b50505060118301546015840154601485015460128601546016870154939550919350915b600d54600e54909f909e50949c50929a509098509650945092505050565b6111ca336117a2565b6111d357600080fd5b6001600160a01b03166000908152600160208190526040909120805460ff19169091179055565b6000611205336117a2565b61120e57600080fd5b6003546001600160a01b039081166000818152600b6020526040808220600254851680845291909220919391929091861661124b5761124b611b18565b47611258813060006115eb565b151560011461126657600080fd5b6002546001600160a01b03808b16911603611283578692506112a5565b6003546001600160a01b03808b169116036112a0578691506112a5565b600080fd5b6000806112b18a61171b565b60018a01805492955090935084925083918391906000906112d3908490611b64565b90915550506009880180548491906000906112ef908490611b64565b909155505060028901805483919060009061130b908490611b00565b9091555050600a88018054829190600090611327908490611b00565b90915550506040516000906001600160a01b0388169086908381818185875af1925050503d8060008114611377576040519150601f19603f3d011682016040523d82523d6000602084013e61137c565b606091505b505090506000886001600160a01b03168560405160006040518083038185875af1925050503d80600081146113cd576040519150601f19603f3d011682016040523d82523d6000602084013e6113d2565b606091505b509091505081151581151514806113eb576113eb611b18565b9f9e505050505050505050505050505050565b6001600160a01b0381166000908152600b6020908152604091829020601081018054845181850281018501909552808552606094929391929183919083018282801561146957602002820191906000526020600020905b815481526020019060010190808311611455575b505050505092505050919050565b611480336117a2565b61148957600080fd5b6001600160a01b03166000908152600160205260409020805460ff19169055565b6000600f543410156114bb57600080fd5b6011548211156104c257600080fd5b600854600090829082906001600160a01b03908116908616036115a95783600e60008282546114f99190611b00565b9250508190555034600d60008282546115129190611b00565b90915550506008546040516323b872dd60e01b81526001600160a01b03888116600483015230602483015260448201879052909116906323b872dd906064016020604051808303816000875af1158015611570573d6000803e3d6000fd5b505050506040513d601f19601f820116820180604052508101906115949190611b47565b506115a1868360016117c0565b5060016115e2565b5060405162461bcd60e51b815260206004820152600a6024820152690854d5541413d495115160b21b60448201526000906064016105f5565b95945050505050565b60006115f6336117a2565b6115ff57600080fd5b6003546001600160a01b039081166000908152600b6020526040808220600254909316825281209080806116328961171b565b919450925090506000600188151514801561165a57506009546001600160a01b038a81169116145b15611675575060048501829055600c840181905560016116ec565b600188151514801561169457506008546001600160a01b038a81169116145b80156116a7575060125460ff1615156001145b156116c2575060058501829055600d840181905560016116ec565b8715156000036116e157506001808601839055600985018290556116ec565b506005850183905560015b83600e54101561170e5783600e60008282546117089190611b00565b90915550505b9998505050505050505050565b600080600080841161172f5761172f611b18565b60007f0000000000000000000000000000000000000000000000000000000000000000600654866117609190611b7b565b61176a9190611b9a565b905060006117788287611b64565b905060006117868284611b00565b905086811461179757611797611b18565b969195509350915050565b6001600160a01b031660009081526001602052604090205460ff1690565b6001600160a01b0383166000908152600b60209081526040808320338452600c835281842043808652908452918420869055601081018054600180820183559186529390942090920155908215159003611836578281601001600701600082825461182b9190611b00565b909155506118539050565b8281601001600301600082825461184d9190611b00565b90915550505b50505050565b600060208083528351808285015260005b818110156118865785810183015185820160400152820161186a565b81811115611898576000604083870101525b50601f01601f1916929092016040019392505050565b6000602082840312156118c057600080fd5b5035919050565b6001600160a01b0391909116815260200190565b6001600160a01b03811681146108e357600080fd5b6000806040838503121561190357600080fd5b823591506020830135611915816118db565b809150509250929050565b60006020828403121561193257600080fd5b813561193d816118db565b9392505050565b6000806040838503121561195757600080fd5b8235611962816118db565b946020939093013593505050565b80151581146108e357600080fd5b60008060008060008060c0878903121561199757600080fd5b86356119a2816118db565b955060208701356119b2816118db565b94506040870135935060608701356119c981611970565b9598949750929560808101359460a0909101359350915050565b600080604083850312156119f657600080fd5b8235611a01816118db565b91506020830135611915816118db565b600080600060608486031215611a2657600080fd5b8335611a31816118db565b9250602084013591506040840135611a48816118db565b809150509250925092565b6020808252825182820181905260009190848201906040850190845b81811015611a8b57835183529284019291840191600101611a6f565b50909695505050505050565b600181811c90821680611aab57607f821691505b602082108103611acb57634e487b7160e01b600052602260045260246000fd5b50919050565b600060208284031215611ae357600080fd5b5051919050565b634e487b7160e01b600052601160045260246000fd5b60008219821115611b1357611b13611aea565b500190565b634e487b7160e01b600052600160045260246000fd5b6001600160a01b03929092168252602082015260400190565b600060208284031215611b5957600080fd5b815161193d81611970565b600082821015611b7657611b76611aea565b500390565b6000816000190483118215151615611b9557611b95611aea565b500290565b600082611bb757634e487b7160e01b600052601260045260246000fd5b50049056fea2646970667358221220dedffea14f3e7b9ea7f12e33b97cb183e54f6c6425fe692de2bc2c7319547de464736f6c634300080d0033",
			"opcodes": "PUSH1 0x2 DUP1 SLOAD PUSH1 0x1 PUSH1 0x1 PUSH1 0xA0 SHL SUB NOT SWAP1 DUP2 AND PUSH20 0x50134FD4EA6547846EDE4C4BF46A334B7E87CCD OR SWAP1 SWAP2 SSTORE PUSH1 0x3 DUP1 SLOAD SWAP1 SWAP2 AND PUSH20 0xD166DF9DFB917C3B960673E2F420F928D45C9BE1 OR SWAP1 SSTORE PUSH1 0xE0 PUSH1 0x40 MSTORE PUSH1 0x7 PUSH1 0xA0 DUP2 SWAP1 MSTORE PUSH7 0x714C53784FCA49 PUSH1 0xC9 SHL PUSH1 0xC0 SWAP1 DUP2 MSTORE PUSH3 0x72 SWAP2 PUSH1 0x4 SWAP2 SWAP1 PUSH3 0x1D9 JUMP JUMPDEST POP PUSH1 0x40 DUP1 MLOAD DUP1 DUP3 ADD SWAP1 SWAP2 MSTORE PUSH1 0x7 DUP1 DUP3 MSTORE PUSH7 0xE298A6F09F9491 PUSH1 0xC8 SHL PUSH1 0x20 SWAP1 SWAP3 ADD SWAP2 DUP3 MSTORE PUSH3 0xA3 SWAP2 PUSH1 0x5 SWAP2 PUSH3 0x1D9 JUMP JUMPDEST POP PUSH2 0x1F40 PUSH1 0x6 SSTORE PUSH2 0x2710 PUSH1 0x80 MSTORE PUSH1 0x8 DUP1 SLOAD PUSH1 0x1 PUSH1 0x1 PUSH1 0xA0 SHL SUB NOT SWAP1 DUP2 AND PUSH20 0xEAEC17F25A8219FCD659B38C577DFFDAE25539BE OR SWAP1 SWAP2 SSTORE PUSH1 0x9 DUP1 SLOAD DUP3 AND PUSH20 0xA888A7A2DC73EFDB5705106A216F068E939A2693 SWAP1 DUP2 OR SWAP1 SWAP2 SSTORE PUSH1 0xA DUP1 SLOAD SWAP1 SWAP3 AND OR SWAP1 SSTORE PUSH1 0x0 PUSH1 0xD DUP2 SWAP1 SSTORE PUSH1 0xE SSTORE PUSH7 0xD801472258000 PUSH1 0xF SSTORE PUSH10 0x34F086F3B33B68400000 PUSH1 0x10 SSTORE PUSH10 0xD3C21BCECCEDA1000000 PUSH1 0x11 SSTORE PUSH1 0x12 DUP1 SLOAD PUSH1 0xFF NOT AND SWAP1 SSTORE PUSH1 0x40 MLOAD PUSH3 0x1EFB CODESIZE DUP2 SWAP1 SUB SWAP1 DUP2 SWAP1 DUP4 CODECOPY DUP2 ADD PUSH1 0x40 DUP2 SWAP1 MSTORE PUSH3 0x161 SWAP2 PUSH3 0x27F JUMP JUMPDEST PUSH1 0x2 SLOAD PUSH1 0x3 SLOAD PUSH1 0x0 DUP1 SLOAD PUSH1 0x1 PUSH1 0x1 PUSH1 0xA0 SHL SUB NOT SWAP1 DUP2 AND CALLER SWAP1 DUP2 OR DUP4 SSTORE DUP3 MSTORE PUSH1 0x1 PUSH1 0x20 DUP2 SWAP1 MSTORE PUSH1 0x40 DUP1 DUP5 KECCAK256 DUP1 SLOAD PUSH1 0xFF NOT SWAP1 DUP2 AND DUP5 OR SWAP1 SWAP2 SSTORE PUSH1 0x1 PUSH1 0x1 PUSH1 0xA0 SHL SUB SWAP7 DUP8 AND DUP6 MSTORE DUP2 DUP6 KECCAK256 DUP1 SLOAD DUP3 AND DUP5 OR SWAP1 SSTORE SWAP5 DUP7 AND DUP5 MSTORE SWAP1 SWAP3 KECCAK256 DUP1 SLOAD SWAP1 SWAP4 AND SWAP1 SWAP2 OR SWAP1 SWAP2 SSTORE PUSH1 0x7 DUP1 SLOAD SWAP4 SWAP1 SWAP3 AND SWAP3 AND SWAP2 SWAP1 SWAP2 OR SWAP1 SSTORE PUSH3 0x2ED JUMP JUMPDEST DUP3 DUP1 SLOAD PUSH3 0x1E7 SWAP1 PUSH3 0x2B1 JUMP JUMPDEST SWAP1 PUSH1 0x0 MSTORE PUSH1 0x20 PUSH1 0x0 KECCAK256 SWAP1 PUSH1 0x1F ADD PUSH1 0x20 SWAP1 DIV DUP2 ADD SWAP3 DUP3 PUSH3 0x20B JUMPI PUSH1 0x0 DUP6 SSTORE PUSH3 0x256 JUMP JUMPDEST DUP3 PUSH1 0x1F LT PUSH3 0x226 JUMPI DUP1 MLOAD PUSH1 0xFF NOT AND DUP4 DUP1 ADD OR DUP6 SSTORE PUSH3 0x256 JUMP JUMPDEST DUP3 DUP1 ADD PUSH1 0x1 ADD DUP6 SSTORE DUP3 ISZERO PUSH3 0x256 JUMPI SWAP2 DUP3 ADD JUMPDEST DUP3 DUP2 GT ISZERO PUSH3 0x256 JUMPI DUP3 MLOAD DUP3 SSTORE SWAP2 PUSH1 0x20 ADD SWAP2 SWAP1 PUSH1 0x1 ADD SWAP1 PUSH3 0x239 JUMP JUMPDEST POP PUSH3 0x264 SWAP3 SWAP2 POP PUSH3 0x268 JUMP JUMPDEST POP SWAP1 JUMP JUMPDEST JUMPDEST DUP1 DUP3 GT ISZERO PUSH3 0x264 JUMPI PUSH1 0x0 DUP2 SSTORE PUSH1 0x1 ADD PUSH3 0x269 JUMP JUMPDEST PUSH1 0x0 PUSH1 0x20 DUP3 DUP5 SUB SLT ISZERO PUSH3 0x292 JUMPI PUSH1 0x0 DUP1 REVERT JUMPDEST DUP2 MLOAD PUSH1 0x1 PUSH1 0x1 PUSH1 0xA0 SHL SUB DUP2 AND DUP2 EQ PUSH3 0x2AA JUMPI PUSH1 0x0 DUP1 REVERT JUMPDEST SWAP4 SWAP3 POP POP POP JUMP JUMPDEST PUSH1 0x1 DUP2 DUP2 SHR SWAP1 DUP3 AND DUP1 PUSH3 0x2C6 JUMPI PUSH1 0x7F DUP3 AND SWAP2 POP JUMPDEST PUSH1 0x20 DUP3 LT DUP2 SUB PUSH3 0x2E7 JUMPI PUSH4 0x4E487B71 PUSH1 0xE0 SHL PUSH1 0x0 MSTORE PUSH1 0x22 PUSH1 0x4 MSTORE PUSH1 0x24 PUSH1 0x0 REVERT JUMPDEST POP SWAP2 SWAP1 POP JUMP JUMPDEST PUSH1 0x80 MLOAD PUSH2 0x1BF2 PUSH3 0x309 PUSH1 0x0 CODECOPY PUSH1 0x0 PUSH2 0x1733 ADD MSTORE PUSH2 0x1BF2 PUSH1 0x0 RETURN INVALID PUSH1 0x80 PUSH1 0x40 MSTORE PUSH1 0x4 CALLDATASIZE LT PUSH2 0x10E JUMPI PUSH1 0x0 CALLDATALOAD PUSH1 0xE0 SHR DUP1 PUSH4 0x8CD0ACC3 GT PUSH2 0x9B JUMPI DUP1 PUSH4 0x8CD0ACC3 EQ PUSH2 0x2A9 JUMPI DUP1 PUSH4 0x95D89B41 EQ PUSH2 0x2C9 JUMPI DUP1 PUSH4 0x985C51F9 EQ PUSH2 0x2DE JUMPI DUP1 PUSH4 0x98C37F21 EQ PUSH2 0x2F4 JUMPI DUP1 PUSH4 0x99049F71 EQ PUSH2 0x30A JUMPI DUP1 PUSH4 0xB6A5D7DE EQ PUSH2 0x35F JUMPI DUP1 PUSH4 0xCED72F87 EQ PUSH2 0x37F JUMPI DUP1 PUSH4 0xDBBA0F01 EQ PUSH2 0x394 JUMPI DUP1 PUSH4 0xDD1599FA EQ PUSH2 0x3B4 JUMPI DUP1 PUSH4 0xF0B37C04 EQ PUSH2 0x3E1 JUMPI DUP1 PUSH4 0xF8FF9AC9 EQ PUSH2 0x401 JUMPI PUSH2 0x124 JUMP JUMPDEST DUP1 PUSH4 0x6FDDE03 EQ PUSH2 0x133 JUMPI DUP1 PUSH4 0x1A40785C EQ PUSH2 0x15E JUMPI DUP1 PUSH4 0x24F8958A EQ PUSH2 0x181 JUMPI DUP1 PUSH4 0x3CCFD60B EQ PUSH2 0x1AE JUMPI DUP1 PUSH4 0x407E655C EQ PUSH2 0x1C3 JUMPI DUP1 PUSH4 0x43602017 EQ PUSH2 0x1E3 JUMPI DUP1 PUSH4 0x4B4138C9 EQ PUSH2 0x203 JUMPI DUP1 PUSH4 0x5F1D9FBC EQ PUSH2 0x218 JUMPI DUP1 PUSH4 0x79CBA1C4 EQ PUSH2 0x269 JUMPI DUP1 PUSH4 0x89476069 EQ PUSH2 0x289 JUMPI PUSH2 0x124 JUMP JUMPDEST CALLDATASIZE PUSH2 0x124 JUMPI PUSH1 0xF SLOAD CALLVALUE LT ISZERO PUSH2 0x122 JUMPI PUSH1 0x0 DUP1 REVERT JUMPDEST STOP JUMPDEST PUSH1 0xF SLOAD CALLVALUE LT ISZERO PUSH2 0x122 JUMPI PUSH1 0x0 DUP1 REVERT JUMPDEST CALLVALUE DUP1 ISZERO PUSH2 0x13F JUMPI PUSH1 0x0 DUP1 REVERT JUMPDEST POP PUSH2 0x148 PUSH2 0x414 JUMP JUMPDEST PUSH1 0x40 MLOAD PUSH2 0x155 SWAP2 SWAP1 PUSH2 0x1859 JUMP JUMPDEST PUSH1 0x40 MLOAD DUP1 SWAP2 SUB SWAP1 RETURN JUMPDEST PUSH2 0x171 PUSH2 0x16C CALLDATASIZE PUSH1 0x4 PUSH2 0x18AE JUMP JUMPDEST PUSH2 0x4A2 JUMP JUMPDEST PUSH1 0x40 MLOAD SWAP1 ISZERO ISZERO DUP2 MSTORE PUSH1 0x20 ADD PUSH2 0x155 JUMP JUMPDEST CALLVALUE DUP1 ISZERO PUSH2 0x18D JUMPI PUSH1 0x0 DUP1 REVERT JUMPDEST POP PUSH1 0x7 SLOAD PUSH2 0x1A1 SWAP1 PUSH1 0x1 PUSH1 0x1 PUSH1 0xA0 SHL SUB AND DUP2 JUMP JUMPDEST PUSH1 0x40 MLOAD PUSH2 0x155 SWAP2 SWAP1 PUSH2 0x18C7 JUMP JUMPDEST CALLVALUE DUP1 ISZERO PUSH2 0x1BA JUMPI PUSH1 0x0 DUP1 REVERT JUMPDEST POP PUSH2 0x122 PUSH2 0x62D JUMP JUMPDEST CALLVALUE DUP1 ISZERO PUSH2 0x1CF JUMPI PUSH1 0x0 DUP1 REVERT JUMPDEST POP PUSH2 0x171 PUSH2 0x1DE CALLDATASIZE PUSH1 0x4 PUSH2 0x18F0 JUMP JUMPDEST PUSH2 0x782 JUMP JUMPDEST CALLVALUE DUP1 ISZERO PUSH2 0x1EF JUMPI PUSH1 0x0 DUP1 REVERT JUMPDEST POP PUSH2 0x122 PUSH2 0x1FE CALLDATASIZE PUSH1 0x4 PUSH2 0x1920 JUMP JUMPDEST PUSH2 0x8C8 JUMP JUMPDEST CALLVALUE DUP1 ISZERO PUSH2 0x20F JUMPI PUSH1 0x0 DUP1 REVERT JUMPDEST POP PUSH2 0x122 PUSH2 0x8E6 JUMP JUMPDEST CALLVALUE DUP1 ISZERO PUSH2 0x224 JUMPI PUSH1 0x0 DUP1 REVERT JUMPDEST POP PUSH2 0x25B PUSH2 0x233 CALLDATASIZE PUSH1 0x4 PUSH2 0x1944 JUMP JUMPDEST PUSH1 0x1 PUSH1 0x1 PUSH1 0xA0 SHL SUB SWAP2 SWAP1 SWAP2 AND PUSH1 0x0 SWAP1 DUP2 MSTORE PUSH1 0xC PUSH1 0x20 SWAP1 DUP2 MSTORE PUSH1 0x40 DUP1 DUP4 KECCAK256 SWAP4 DUP4 MSTORE SWAP3 SWAP1 MSTORE KECCAK256 SLOAD SWAP1 JUMP JUMPDEST PUSH1 0x40 MLOAD SWAP1 DUP2 MSTORE PUSH1 0x20 ADD PUSH2 0x155 JUMP JUMPDEST CALLVALUE DUP1 ISZERO PUSH2 0x275 JUMPI PUSH1 0x0 DUP1 REVERT JUMPDEST POP PUSH2 0x122 PUSH2 0x284 CALLDATASIZE PUSH1 0x4 PUSH2 0x197E JUMP JUMPDEST PUSH2 0xB12 JUMP JUMPDEST CALLVALUE DUP1 ISZERO PUSH2 0x295 JUMPI PUSH1 0x0 DUP1 REVERT JUMPDEST POP PUSH2 0x122 PUSH2 0x2A4 CALLDATASIZE PUSH1 0x4 PUSH2 0x1920 JUMP JUMPDEST PUSH2 0xB85 JUMP JUMPDEST CALLVALUE DUP1 ISZERO PUSH2 0x2B5 JUMPI PUSH1 0x0 DUP1 REVERT JUMPDEST POP PUSH2 0x171 PUSH2 0x2C4 CALLDATASIZE PUSH1 0x4 PUSH2 0x19E3 JUMP JUMPDEST PUSH2 0x1079 JUMP JUMPDEST CALLVALUE DUP1 ISZERO PUSH2 0x2D5 JUMPI PUSH1 0x0 DUP1 REVERT JUMPDEST POP PUSH2 0x148 PUSH2 0x10C0 JUMP JUMPDEST CALLVALUE DUP1 ISZERO PUSH2 0x2EA JUMPI PUSH1 0x0 DUP1 REVERT JUMPDEST POP PUSH2 0x25B PUSH1 0x10 SLOAD DUP2 JUMP JUMPDEST CALLVALUE DUP1 ISZERO PUSH2 0x300 JUMPI PUSH1 0x0 DUP1 REVERT JUMPDEST POP PUSH2 0x25B PUSH1 0x11 SLOAD DUP2 JUMP JUMPDEST CALLVALUE DUP1 ISZERO PUSH2 0x316 JUMPI PUSH1 0x0 DUP1 REVERT JUMPDEST POP PUSH2 0x32A PUSH2 0x325 CALLDATASIZE PUSH1 0x4 PUSH2 0x1920 JUMP JUMPDEST PUSH2 0x10CD JUMP JUMPDEST PUSH1 0x40 DUP1 MLOAD SWAP8 DUP9 MSTORE PUSH1 0x20 DUP9 ADD SWAP7 SWAP1 SWAP7 MSTORE SWAP5 DUP7 ADD SWAP4 SWAP1 SWAP4 MSTORE PUSH1 0x60 DUP6 ADD SWAP2 SWAP1 SWAP2 MSTORE PUSH1 0x80 DUP5 ADD MSTORE PUSH1 0xA0 DUP4 ADD MSTORE PUSH1 0xC0 DUP3 ADD MSTORE PUSH1 0xE0 ADD PUSH2 0x155 JUMP JUMPDEST CALLVALUE DUP1 ISZERO PUSH2 0x36B JUMPI PUSH1 0x0 DUP1 REVERT JUMPDEST POP PUSH2 0x122 PUSH2 0x37A CALLDATASIZE PUSH1 0x4 PUSH2 0x1920 JUMP JUMPDEST PUSH2 0x11C1 JUMP JUMPDEST CALLVALUE DUP1 ISZERO PUSH2 0x38B JUMPI PUSH1 0x0 DUP1 REVERT JUMPDEST POP PUSH1 0xF SLOAD PUSH2 0x25B JUMP JUMPDEST CALLVALUE DUP1 ISZERO PUSH2 0x3A0 JUMPI PUSH1 0x0 DUP1 REVERT JUMPDEST POP PUSH2 0x171 PUSH2 0x3AF CALLDATASIZE PUSH1 0x4 PUSH2 0x1A11 JUMP JUMPDEST PUSH2 0x11FA JUMP JUMPDEST CALLVALUE DUP1 ISZERO PUSH2 0x3C0 JUMPI PUSH1 0x0 DUP1 REVERT JUMPDEST POP PUSH2 0x3D4 PUSH2 0x3CF CALLDATASIZE PUSH1 0x4 PUSH2 0x1920 JUMP JUMPDEST PUSH2 0x13FE JUMP JUMPDEST PUSH1 0x40 MLOAD PUSH2 0x155 SWAP2 SWAP1 PUSH2 0x1A53 JUMP JUMPDEST CALLVALUE DUP1 ISZERO PUSH2 0x3ED JUMPI PUSH1 0x0 DUP1 REVERT JUMPDEST POP PUSH2 0x122 PUSH2 0x3FC CALLDATASIZE PUSH1 0x4 PUSH2 0x1920 JUMP JUMPDEST PUSH2 0x1477 JUMP JUMPDEST PUSH2 0x171 PUSH2 0x40F CALLDATASIZE PUSH1 0x4 PUSH2 0x18AE JUMP JUMPDEST PUSH2 0x14AA JUMP JUMPDEST PUSH1 0x4 DUP1 SLOAD PUSH2 0x421 SWAP1 PUSH2 0x1A97 JUMP JUMPDEST DUP1 PUSH1 0x1F ADD PUSH1 0x20 DUP1 SWAP2 DIV MUL PUSH1 0x20 ADD PUSH1 0x40 MLOAD SWAP1 DUP2 ADD PUSH1 0x40 MSTORE DUP1 SWAP3 SWAP2 SWAP1 DUP2 DUP2 MSTORE PUSH1 0x20 ADD DUP3 DUP1 SLOAD PUSH2 0x44D SWAP1 PUSH2 0x1A97 JUMP JUMPDEST DUP1 ISZERO PUSH2 0x49A JUMPI DUP1 PUSH1 0x1F LT PUSH2 0x46F JUMPI PUSH2 0x100 DUP1 DUP4 SLOAD DIV MUL DUP4 MSTORE SWAP2 PUSH1 0x20 ADD SWAP2 PUSH2 0x49A JUMP JUMPDEST DUP3 ADD SWAP2 SWAP1 PUSH1 0x0 MSTORE PUSH1 0x20 PUSH1 0x0 KECCAK256 SWAP1 JUMPDEST DUP2 SLOAD DUP2 MSTORE SWAP1 PUSH1 0x1 ADD SWAP1 PUSH1 0x20 ADD DUP1 DUP4 GT PUSH2 0x47D JUMPI DUP3 SWAP1 SUB PUSH1 0x1F AND DUP3 ADD SWAP2 JUMPDEST POP POP POP POP POP DUP2 JUMP JUMPDEST PUSH1 0x0 PUSH1 0xF SLOAD CALLVALUE LT ISZERO PUSH2 0x4B3 JUMPI PUSH1 0x0 DUP1 REVERT JUMPDEST PUSH1 0x10 SLOAD DUP3 GT ISZERO PUSH2 0x4C2 JUMPI PUSH1 0x0 DUP1 REVERT JUMPDEST PUSH1 0x8 SLOAD PUSH1 0x40 MLOAD PUSH4 0x70A08231 PUSH1 0xE0 SHL DUP2 MSTORE DUP4 SWAP2 PUSH1 0x1 PUSH1 0x1 PUSH1 0xA0 SHL SUB AND SWAP1 PUSH4 0x70A08231 SWAP1 PUSH2 0x4F2 SWAP1 CALLER SWAP1 PUSH1 0x4 ADD PUSH2 0x18C7 JUMP JUMPDEST PUSH1 0x20 PUSH1 0x40 MLOAD DUP1 DUP4 SUB DUP2 DUP7 GAS STATICCALL ISZERO DUP1 ISZERO PUSH2 0x50F JUMPI RETURNDATASIZE PUSH1 0x0 DUP1 RETURNDATACOPY RETURNDATASIZE PUSH1 0x0 REVERT JUMPDEST POP POP POP POP PUSH1 0x40 MLOAD RETURNDATASIZE PUSH1 0x1F NOT PUSH1 0x1F DUP3 ADD AND DUP3 ADD DUP1 PUSH1 0x40 MSTORE POP DUP2 ADD SWAP1 PUSH2 0x533 SWAP2 SWAP1 PUSH2 0x1AD1 JUMP JUMPDEST LT ISZERO PUSH2 0x53E JUMPI PUSH1 0x0 DUP1 REVERT JUMPDEST PUSH1 0x8 SLOAD PUSH1 0x40 MLOAD PUSH4 0x6EB1769F PUSH1 0xE1 SHL DUP2 MSTORE CALLER PUSH1 0x4 DUP3 ADD MSTORE ADDRESS PUSH1 0x24 DUP3 ADD MSTORE DUP4 SWAP2 PUSH1 0x1 PUSH1 0x1 PUSH1 0xA0 SHL SUB AND SWAP1 PUSH4 0xDD62ED3E SWAP1 PUSH1 0x44 ADD PUSH1 0x20 PUSH1 0x40 MLOAD DUP1 DUP4 SUB DUP2 DUP7 GAS STATICCALL ISZERO DUP1 ISZERO PUSH2 0x58C JUMPI RETURNDATASIZE PUSH1 0x0 DUP1 RETURNDATACOPY RETURNDATASIZE PUSH1 0x0 REVERT JUMPDEST POP POP POP POP PUSH1 0x40 MLOAD RETURNDATASIZE PUSH1 0x1F NOT PUSH1 0x1F DUP3 ADD AND DUP3 ADD DUP1 PUSH1 0x40 MSTORE POP DUP2 ADD SWAP1 PUSH2 0x5B0 SWAP2 SWAP1 PUSH2 0x1AD1 JUMP JUMPDEST LT ISZERO PUSH2 0x5FE JUMPI PUSH1 0x40 MLOAD PUSH3 0x461BCD PUSH1 0xE5 SHL DUP2 MSTORE PUSH1 0x20 PUSH1 0x4 DUP3 ADD MSTORE PUSH1 0x18 PUSH1 0x24 DUP3 ADD MSTORE PUSH24 0x496E63726561736520616C6C6F77616E63652E2E2E4B454B PUSH1 0x40 SHL PUSH1 0x44 DUP3 ADD MSTORE PUSH1 0x64 ADD JUMPDEST PUSH1 0x40 MLOAD DUP1 SWAP2 SUB SWAP1 REVERT JUMPDEST PUSH1 0x0 PUSH2 0x616 CALLER PUSH1 0x8 SLOAD PUSH1 0x1 PUSH1 0x1 PUSH1 0xA0 SHL SUB AND DUP6 PUSH2 0x14CA JUMP JUMPDEST SWAP1 POP PUSH1 0x1 DUP2 ISZERO ISZERO EQ PUSH2 0x627 JUMPI PUSH1 0x0 DUP1 REVERT JUMPDEST SWAP3 SWAP2 POP POP JUMP JUMPDEST PUSH1 0x3 SLOAD PUSH1 0x1 PUSH1 0x1 PUSH1 0xA0 SHL SUB SWAP1 DUP2 AND PUSH1 0x0 SWAP1 DUP2 MSTORE PUSH1 0xB PUSH1 0x20 MSTORE PUSH1 0x40 DUP1 DUP3 KECCAK256 PUSH1 0x2 SLOAD SWAP1 SWAP4 AND DUP3 MSTORE DUP2 KECCAK256 SWAP1 SELFBALANCE SWAP1 DUP2 SWAP1 PUSH2 0x666 SWAP1 DUP3 SWAP1 ADDRESS SWAP1 PUSH2 0x15EB JUMP JUMPDEST ISZERO ISZERO PUSH1 0x1 EQ PUSH2 0x674 JUMPI PUSH1 0x0 DUP1 REVERT JUMPDEST PUSH1 0x0 DUP1 PUSH1 0x0 PUSH2 0x682 DUP6 PUSH2 0x171B JUMP JUMPDEST SWAP3 POP SWAP3 POP SWAP3 POP DUP2 DUP8 PUSH1 0x0 ADD PUSH1 0x2 ADD PUSH1 0x0 DUP3 DUP3 SLOAD PUSH2 0x69F SWAP2 SWAP1 PUSH2 0x1B00 JUMP JUMPDEST SWAP1 SWAP2 SSTORE POP POP PUSH1 0xA DUP7 ADD DUP1 SLOAD DUP3 SWAP2 SWAP1 PUSH1 0x0 SWAP1 PUSH2 0x6BB SWAP1 DUP5 SWAP1 PUSH2 0x1B00 JUMP JUMPDEST SWAP1 SWAP2 SSTORE POP POP PUSH1 0x0 PUSH1 0x1 DUP9 ADD DUP2 SWAP1 SSTORE PUSH1 0x9 DUP8 ADD DUP2 SWAP1 SSTORE PUSH1 0x3 SLOAD PUSH1 0x40 MLOAD PUSH1 0x1 PUSH1 0x1 PUSH1 0xA0 SHL SUB SWAP1 SWAP2 AND SWAP2 DUP5 ISZERO PUSH2 0x8FC MUL SWAP2 DUP6 SWAP2 DUP2 DUP2 DUP2 DUP6 DUP9 DUP9 CALL SWAP4 POP POP POP POP ISZERO DUP1 ISZERO PUSH2 0x708 JUMPI RETURNDATASIZE PUSH1 0x0 DUP1 RETURNDATACOPY RETURNDATASIZE PUSH1 0x0 REVERT JUMPDEST POP PUSH1 0x2 SLOAD PUSH1 0x40 MLOAD PUSH1 0x1 PUSH1 0x1 PUSH1 0xA0 SHL SUB SWAP1 SWAP2 AND SWAP1 DUP3 ISZERO PUSH2 0x8FC MUL SWAP1 DUP4 SWAP1 PUSH1 0x0 DUP2 DUP2 DUP2 DUP6 DUP9 DUP9 CALL SWAP4 POP POP POP POP ISZERO DUP1 ISZERO PUSH2 0x743 JUMPI RETURNDATASIZE PUSH1 0x0 DUP1 RETURNDATACOPY RETURNDATASIZE PUSH1 0x0 REVERT JUMPDEST POP PUSH1 0x40 MLOAD DUP4 DUP2 MSTORE ADDRESS SWAP1 PUSH32 0x7FCF532C15F0A6DB0BD6D0E038BEA71D30D808C7D98CB3BF7268A95BF5081B65 SWAP1 PUSH1 0x20 ADD PUSH1 0x40 MLOAD DUP1 SWAP2 SUB SWAP1 LOG2 POP POP POP POP POP POP POP JUMP JUMPDEST PUSH1 0x0 PUSH2 0x78D CALLER PUSH2 0x17A2 JUMP JUMPDEST PUSH2 0x796 JUMPI PUSH1 0x0 DUP1 REVERT JUMPDEST PUSH1 0x1 PUSH1 0x1 PUSH1 0xA0 SHL SUB DUP3 AND PUSH2 0x7AC JUMPI PUSH2 0x7AC PUSH2 0x1B18 JUMP JUMPDEST PUSH1 0x8 SLOAD PUSH1 0x40 MLOAD PUSH4 0x70A08231 PUSH1 0xE0 SHL DUP2 MSTORE PUSH1 0x0 SWAP2 PUSH1 0x1 PUSH1 0x1 PUSH1 0xA0 SHL SUB AND SWAP1 PUSH4 0x70A08231 SWAP1 PUSH2 0x7DD SWAP1 ADDRESS SWAP1 PUSH1 0x4 ADD PUSH2 0x18C7 JUMP JUMPDEST PUSH1 0x20 PUSH1 0x40 MLOAD DUP1 DUP4 SUB DUP2 DUP7 GAS STATICCALL ISZERO DUP1 ISZERO PUSH2 0x7FA JUMPI RETURNDATASIZE PUSH1 0x0 DUP1 RETURNDATACOPY RETURNDATASIZE PUSH1 0x0 REVERT JUMPDEST POP POP POP POP PUSH1 0x40 MLOAD RETURNDATASIZE PUSH1 0x1F NOT PUSH1 0x1F DUP3 ADD AND DUP3 ADD DUP1 PUSH1 0x40 MSTORE POP DUP2 ADD SWAP1 PUSH2 0x81E SWAP2 SWAP1 PUSH2 0x1AD1 JUMP JUMPDEST PUSH1 0x8 SLOAD SWAP1 SWAP2 POP PUSH2 0x83A SWAP1 DUP3 SWAP1 PUSH1 0x1 PUSH1 0x1 PUSH1 0xA0 SHL SUB AND PUSH1 0x1 PUSH2 0x15EB JUMP JUMPDEST ISZERO ISZERO PUSH1 0x1 EQ PUSH2 0x848 JUMPI PUSH1 0x0 DUP1 REVERT JUMPDEST PUSH1 0x8 SLOAD PUSH1 0x40 MLOAD PUSH4 0xA9059CBB PUSH1 0xE0 SHL DUP2 MSTORE PUSH1 0x1 PUSH1 0x1 PUSH1 0xA0 SHL SUB SWAP1 SWAP2 AND SWAP1 PUSH4 0xA9059CBB SWAP1 PUSH2 0x87A SWAP1 DUP7 SWAP1 DUP9 SWAP1 PUSH1 0x4 ADD PUSH2 0x1B2E JUMP JUMPDEST PUSH1 0x20 PUSH1 0x40 MLOAD DUP1 DUP4 SUB DUP2 PUSH1 0x0 DUP8 GAS CALL ISZERO DUP1 ISZERO PUSH2 0x899 JUMPI RETURNDATASIZE PUSH1 0x0 DUP1 RETURNDATACOPY RETURNDATASIZE PUSH1 0x0 REVERT JUMPDEST POP POP POP POP PUSH1 0x40 MLOAD RETURNDATASIZE PUSH1 0x1F NOT PUSH1 0x1F DUP3 ADD AND DUP3 ADD DUP1 PUSH1 0x40 MSTORE POP DUP2 ADD SWAP1 PUSH2 0x8BD SWAP2 SWAP1 PUSH2 0x1B47 JUMP JUMPDEST POP PUSH1 0x1 SWAP5 SWAP4 POP POP POP POP JUMP JUMPDEST PUSH2 0x8D1 CALLER PUSH2 0x17A2 JUMP JUMPDEST PUSH2 0x8DA JUMPI PUSH1 0x0 DUP1 REVERT JUMPDEST PUSH2 0x8E3 DUP2 PUSH2 0x11C1 JUMP JUMPDEST POP JUMP JUMPDEST PUSH1 0x3 SLOAD PUSH1 0x1 PUSH1 0x1 PUSH1 0xA0 SHL SUB SWAP1 DUP2 AND PUSH1 0x0 SWAP1 DUP2 MSTORE PUSH1 0xB PUSH1 0x20 MSTORE PUSH1 0x40 DUP1 DUP3 KECCAK256 PUSH1 0x2 SLOAD SWAP1 SWAP4 AND DUP3 MSTORE DUP2 KECCAK256 SWAP1 SELFBALANCE SWAP1 DUP1 PUSH2 0x91A DUP4 PUSH2 0x171B JUMP JUMPDEST SWAP1 SWAP4 POP SWAP2 POP PUSH1 0x0 SWAP1 POP DUP3 DUP3 SELFBALANCE PUSH2 0x931 DUP2 ADDRESS DUP7 PUSH2 0x15EB JUMP JUMPDEST ISZERO ISZERO PUSH1 0x1 EQ PUSH2 0x93F JUMPI PUSH1 0x0 DUP1 REVERT JUMPDEST PUSH1 0x9 SLOAD PUSH1 0x40 MLOAD PUSH4 0x70A08231 PUSH1 0xE0 SHL DUP2 MSTORE PUSH1 0x0 SWAP2 PUSH1 0x1 PUSH1 0x1 PUSH1 0xA0 SHL SUB AND SWAP1 PUSH4 0x70A08231 SWAP1 PUSH2 0x970 SWAP1 ADDRESS SWAP1 PUSH1 0x4 ADD PUSH2 0x18C7 JUMP JUMPDEST PUSH1 0x20 PUSH1 0x40 MLOAD DUP1 DUP4 SUB DUP2 DUP7 GAS STATICCALL ISZERO DUP1 ISZERO PUSH2 0x98D JUMPI RETURNDATASIZE PUSH1 0x0 DUP1 RETURNDATACOPY RETURNDATASIZE PUSH1 0x0 REVERT JUMPDEST POP POP POP POP PUSH1 0x40 MLOAD RETURNDATASIZE PUSH1 0x1F NOT PUSH1 0x1F DUP3 ADD AND DUP3 ADD DUP1 PUSH1 0x40 MSTORE POP DUP2 ADD SWAP1 PUSH2 0x9B1 SWAP2 SWAP1 PUSH2 0x1AD1 JUMP JUMPDEST PUSH1 0x9 SLOAD SWAP1 SWAP2 POP PUSH2 0x9CD SWAP1 DUP3 SWAP1 PUSH1 0x1 PUSH1 0x1 PUSH1 0xA0 SHL SUB AND PUSH1 0x1 PUSH2 0x15EB JUMP JUMPDEST ISZERO ISZERO PUSH1 0x1 EQ PUSH2 0x9DB JUMPI PUSH1 0x0 DUP1 REVERT JUMPDEST PUSH1 0xA PUSH1 0x0 SWAP1 SLOAD SWAP1 PUSH2 0x100 EXP SWAP1 DIV PUSH1 0x1 PUSH1 0x1 PUSH1 0xA0 SHL SUB AND PUSH1 0x1 PUSH1 0x1 PUSH1 0xA0 SHL SUB AND PUSH4 0xD0E30DB0 DUP10 PUSH1 0x40 MLOAD DUP3 PUSH4 0xFFFFFFFF AND PUSH1 0xE0 SHL DUP2 MSTORE PUSH1 0x4 ADD PUSH1 0x0 PUSH1 0x40 MLOAD DUP1 DUP4 SUB DUP2 DUP6 DUP9 DUP1 EXTCODESIZE ISZERO DUP1 ISZERO PUSH2 0xA2B JUMPI PUSH1 0x0 DUP1 REVERT JUMPDEST POP GAS CALL SWAP4 POP POP POP POP DUP1 ISZERO PUSH2 0xA3D JUMPI POP PUSH1 0x1 JUMPDEST PUSH2 0xA4A JUMPI PUSH1 0x0 SWAP5 POP PUSH2 0xABF JUMP JUMPDEST DUP7 DUP11 PUSH1 0x0 ADD PUSH1 0x1 ADD PUSH1 0x0 DUP3 DUP3 SLOAD PUSH2 0xA61 SWAP2 SWAP1 PUSH2 0x1B64 JUMP JUMPDEST SWAP1 SWAP2 SSTORE POP POP PUSH1 0x9 DUP10 ADD DUP1 SLOAD DUP8 SWAP2 SWAP1 PUSH1 0x0 SWAP1 PUSH2 0xA7D SWAP1 DUP5 SWAP1 PUSH2 0x1B64 JUMP JUMPDEST SWAP1 SWAP2 SSTORE POP POP PUSH1 0x4 DUP11 ADD DUP1 SLOAD DUP6 SWAP2 SWAP1 PUSH1 0x0 SWAP1 PUSH2 0xA99 SWAP1 DUP5 SWAP1 PUSH2 0x1B00 JUMP JUMPDEST SWAP1 SWAP2 SSTORE POP POP PUSH1 0xC DUP10 ADD DUP1 SLOAD DUP5 SWAP2 SWAP1 PUSH1 0x0 SWAP1 PUSH2 0xAB5 SWAP1 DUP5 SWAP1 PUSH2 0x1B00 JUMP JUMPDEST SWAP1 SWAP2 SSTORE POP PUSH1 0x1 SWAP6 POP POP JUMPDEST PUSH1 0x1 DUP6 ISZERO ISZERO EQ PUSH2 0xAD1 JUMPI PUSH2 0xAD1 PUSH2 0x1B18 JUMP JUMPDEST PUSH1 0x40 MLOAD DUP9 DUP2 MSTORE ADDRESS SWAP1 PUSH32 0x4611F1757844FDC2D4237A951583CA101C93F843BDC2D91A0E3FCF1D7A64CD2 SWAP1 PUSH1 0x20 ADD PUSH1 0x40 MLOAD DUP1 SWAP2 SUB SWAP1 LOG2 POP POP POP POP POP POP POP POP POP POP JUMP JUMPDEST PUSH2 0xB1B CALLER PUSH2 0x17A2 JUMP JUMPDEST PUSH2 0xB24 JUMPI PUSH1 0x0 DUP1 REVERT JUMPDEST PUSH2 0x1F40 DUP5 GT ISZERO PUSH2 0xB33 JUMPI PUSH1 0x0 DUP1 REVERT JUMPDEST PUSH1 0x6 SWAP4 SWAP1 SWAP4 SSTORE PUSH1 0x10 SWAP3 SWAP1 SWAP3 SSTORE PUSH1 0x12 DUP1 SLOAD PUSH1 0xFF NOT AND SWAP2 ISZERO ISZERO SWAP2 SWAP1 SWAP2 OR SWAP1 SSTORE PUSH1 0xF SSTORE PUSH1 0x9 DUP1 SLOAD PUSH1 0x1 PUSH1 0x1 PUSH1 0xA0 SHL SUB NOT SWAP1 DUP2 AND PUSH1 0x1 PUSH1 0x1 PUSH1 0xA0 SHL SUB SWAP4 DUP5 AND OR SWAP1 SWAP2 SSTORE PUSH1 0x8 DUP1 SLOAD SWAP1 SWAP2 AND SWAP3 SWAP1 SWAP2 AND SWAP2 SWAP1 SWAP2 OR SWAP1 SSTORE JUMP JUMPDEST PUSH1 0x3 SLOAD PUSH1 0x1 PUSH1 0x1 PUSH1 0xA0 SHL SUB SWAP1 DUP2 AND PUSH1 0x0 SWAP1 DUP2 MSTORE PUSH1 0xB PUSH1 0x20 MSTORE PUSH1 0x40 DUP1 DUP3 KECCAK256 PUSH1 0x2 SLOAD DUP5 AND DUP4 MSTORE DUP2 DUP4 KECCAK256 SWAP2 MLOAD PUSH4 0x70A08231 PUSH1 0xE0 SHL DUP2 MSTORE SWAP1 SWAP4 SWAP2 SWAP3 SWAP2 DUP6 AND SWAP1 PUSH4 0x70A08231 SWAP1 PUSH2 0xBD4 SWAP1 ADDRESS SWAP1 PUSH1 0x4 ADD PUSH2 0x18C7 JUMP JUMPDEST PUSH1 0x20 PUSH1 0x40 MLOAD DUP1 DUP4 SUB DUP2 DUP7 GAS STATICCALL ISZERO DUP1 ISZERO PUSH2 0xBF1 JUMPI RETURNDATASIZE PUSH1 0x0 DUP1 RETURNDATACOPY RETURNDATASIZE PUSH1 0x0 REVERT JUMPDEST POP POP POP POP PUSH1 0x40 MLOAD RETURNDATASIZE PUSH1 0x1F NOT PUSH1 0x1F DUP3 ADD AND DUP3 ADD DUP1 PUSH1 0x40 MSTORE POP DUP2 ADD SWAP1 PUSH2 0xC15 SWAP2 SWAP1 PUSH2 0x1AD1 JUMP JUMPDEST SWAP1 POP PUSH1 0x0 DUP1 PUSH2 0xC23 DUP4 PUSH2 0x171B JUMP JUMPDEST PUSH1 0x40 MLOAD PUSH4 0x70A08231 PUSH1 0xE0 SHL DUP2 MSTORE SWAP2 SWAP5 POP SWAP3 POP DUP4 SWAP2 POP DUP3 SWAP1 PUSH1 0x0 SWAP1 PUSH1 0x1 PUSH1 0x1 PUSH1 0xA0 SHL SUB DUP11 AND SWAP1 PUSH4 0x70A08231 SWAP1 PUSH2 0xC5C SWAP1 ADDRESS SWAP1 PUSH1 0x4 ADD PUSH2 0x18C7 JUMP JUMPDEST PUSH1 0x20 PUSH1 0x40 MLOAD DUP1 DUP4 SUB DUP2 DUP7 GAS STATICCALL ISZERO DUP1 ISZERO PUSH2 0xC79 JUMPI RETURNDATASIZE PUSH1 0x0 DUP1 RETURNDATACOPY RETURNDATASIZE PUSH1 0x0 REVERT JUMPDEST POP POP POP POP PUSH1 0x40 MLOAD RETURNDATASIZE PUSH1 0x1F NOT PUSH1 0x1F DUP3 ADD AND DUP3 ADD DUP1 PUSH1 0x40 MSTORE POP DUP2 ADD SWAP1 PUSH2 0xC9D SWAP2 SWAP1 PUSH2 0x1AD1 JUMP JUMPDEST SWAP1 POP PUSH2 0xCAB DUP2 DUP11 PUSH1 0x1 PUSH2 0x15EB JUMP JUMPDEST ISZERO ISZERO PUSH1 0x1 EQ PUSH2 0xCB9 JUMPI PUSH1 0x0 DUP1 REVERT JUMPDEST PUSH1 0x9 SLOAD PUSH1 0x1 PUSH1 0x1 PUSH1 0xA0 SHL SUB SWAP1 DUP2 AND SWAP1 DUP11 AND SUB PUSH2 0xE38 JUMPI DUP3 DUP9 PUSH1 0x0 ADD PUSH1 0x4 ADD PUSH1 0x0 DUP3 DUP3 SLOAD PUSH2 0xCE6 SWAP2 SWAP1 PUSH2 0x1B64 JUMP JUMPDEST SWAP1 SWAP2 SSTORE POP POP PUSH1 0xC DUP8 ADD DUP1 SLOAD DUP4 SWAP2 SWAP1 PUSH1 0x0 SWAP1 PUSH2 0xD02 SWAP1 DUP5 SWAP1 PUSH2 0x1B64 JUMP JUMPDEST SWAP1 SWAP2 SSTORE POP POP PUSH1 0x6 DUP9 ADD DUP1 SLOAD DUP7 SWAP2 SWAP1 PUSH1 0x0 SWAP1 PUSH2 0xD1E SWAP1 DUP5 SWAP1 PUSH2 0x1B00 JUMP JUMPDEST SWAP1 SWAP2 SSTORE POP POP PUSH1 0xE DUP8 ADD DUP1 SLOAD DUP6 SWAP2 SWAP1 PUSH1 0x0 SWAP1 PUSH2 0xD3A SWAP1 DUP5 SWAP1 PUSH2 0x1B00 JUMP JUMPDEST SWAP1 SWAP2 SSTORE POP POP PUSH1 0x9 SLOAD PUSH1 0x3 SLOAD PUSH1 0x40 MLOAD PUSH4 0xA9059CBB PUSH1 0xE0 SHL DUP2 MSTORE PUSH1 0x1 PUSH1 0x1 PUSH1 0xA0 SHL SUB SWAP3 DUP4 AND SWAP3 PUSH4 0xA9059CBB SWAP3 PUSH2 0xD75 SWAP3 SWAP2 AND SWAP1 DUP10 SWAP1 PUSH1 0x4 ADD PUSH2 0x1B2E JUMP JUMPDEST PUSH1 0x20 PUSH1 0x40 MLOAD DUP1 DUP4 SUB DUP2 PUSH1 0x0 DUP8 GAS CALL ISZERO DUP1 ISZERO PUSH2 0xD94 JUMPI RETURNDATASIZE PUSH1 0x0 DUP1 RETURNDATACOPY RETURNDATASIZE PUSH1 0x0 REVERT JUMPDEST POP POP POP POP PUSH1 0x40 MLOAD RETURNDATASIZE PUSH1 0x1F NOT PUSH1 0x1F DUP3 ADD AND DUP3 ADD DUP1 PUSH1 0x40 MSTORE POP DUP2 ADD SWAP1 PUSH2 0xDB8 SWAP2 SWAP1 PUSH2 0x1B47 JUMP JUMPDEST POP PUSH1 0x9 SLOAD PUSH1 0x2 SLOAD PUSH1 0x40 MLOAD PUSH4 0xA9059CBB PUSH1 0xE0 SHL DUP2 MSTORE PUSH1 0x1 PUSH1 0x1 PUSH1 0xA0 SHL SUB SWAP3 DUP4 AND SWAP3 PUSH4 0xA9059CBB SWAP3 PUSH2 0xDEF SWAP3 SWAP2 AND SWAP1 DUP9 SWAP1 PUSH1 0x4 ADD PUSH2 0x1B2E JUMP JUMPDEST PUSH1 0x20 PUSH1 0x40 MLOAD DUP1 DUP4 SUB DUP2 PUSH1 0x0 DUP8 GAS CALL ISZERO DUP1 ISZERO PUSH2 0xE0E JUMPI RETURNDATASIZE PUSH1 0x0 DUP1 RETURNDATACOPY RETURNDATASIZE PUSH1 0x0 REVERT JUMPDEST POP POP POP POP PUSH1 0x40 MLOAD RETURNDATASIZE PUSH1 0x1F NOT PUSH1 0x1F DUP3 ADD AND DUP3 ADD DUP1 PUSH1 0x40 MSTORE POP DUP2 ADD SWAP1 PUSH2 0xE32 SWAP2 SWAP1 PUSH2 0x1B47 JUMP JUMPDEST POP PUSH2 0x102E JUMP JUMPDEST PUSH1 0x8 SLOAD PUSH1 0x1 PUSH1 0x1 PUSH1 0xA0 SHL SUB DUP11 DUP2 AND SWAP2 AND EQ DUP1 ISZERO PUSH2 0xE5C JUMPI POP PUSH1 0x12 SLOAD PUSH1 0xFF AND ISZERO ISZERO PUSH1 0x1 EQ JUMPDEST ISZERO PUSH2 0xF7D JUMPI DUP3 DUP9 PUSH1 0x0 ADD PUSH1 0x5 ADD PUSH1 0x0 DUP3 DUP3 SLOAD PUSH2 0xE78 SWAP2 SWAP1 PUSH2 0x1B64 JUMP JUMPDEST SWAP1 SWAP2 SSTORE POP POP PUSH1 0xD DUP8 ADD DUP1 SLOAD DUP4 SWAP2 SWAP1 PUSH1 0x0 SWAP1 PUSH2 0xE94 SWAP1 DUP5 SWAP1 PUSH2 0x1B64 JUMP JUMPDEST SWAP1 SWAP2 SSTORE POP POP PUSH1 0x6 DUP9 ADD DUP1 SLOAD DUP7 SWAP2 SWAP1 PUSH1 0x0 SWAP1 PUSH2 0xEB0 SWAP1 DUP5 SWAP1 PUSH2 0x1B00 JUMP JUMPDEST SWAP1 SWAP2 SSTORE POP POP PUSH1 0xE DUP8 ADD DUP1 SLOAD DUP6 SWAP2 SWAP1 PUSH1 0x0 SWAP1 PUSH2 0xECC SWAP1 DUP5 SWAP1 PUSH2 0x1B00 JUMP JUMPDEST SWAP1 SWAP2 SSTORE POP POP PUSH1 0x3 SLOAD PUSH1 0x40 MLOAD PUSH4 0xA9059CBB PUSH1 0xE0 SHL DUP2 MSTORE PUSH1 0x1 PUSH1 0x1 PUSH1 0xA0 SHL SUB DUP12 DUP2 AND SWAP3 PUSH4 0xA9059CBB SWAP3 PUSH2 0xF05 SWAP3 SWAP1 SWAP2 AND SWAP1 DUP10 SWAP1 PUSH1 0x4 ADD PUSH2 0x1B2E JUMP JUMPDEST PUSH1 0x20 PUSH1 0x40 MLOAD DUP1 DUP4 SUB DUP2 PUSH1 0x0 DUP8 GAS CALL ISZERO DUP1 ISZERO PUSH2 0xF24 JUMPI RETURNDATASIZE PUSH1 0x0 DUP1 RETURNDATACOPY RETURNDATASIZE PUSH1 0x0 REVERT JUMPDEST POP POP POP POP PUSH1 0x40 MLOAD RETURNDATASIZE PUSH1 0x1F NOT PUSH1 0x1F DUP3 ADD AND DUP3 ADD DUP1 PUSH1 0x40 MSTORE POP DUP2 ADD SWAP1 PUSH2 0xF48 SWAP2 SWAP1 PUSH2 0x1B47 JUMP JUMPDEST POP PUSH1 0x2 SLOAD PUSH1 0x40 MLOAD PUSH4 0xA9059CBB PUSH1 0xE0 SHL DUP2 MSTORE PUSH1 0x1 PUSH1 0x1 PUSH1 0xA0 SHL SUB DUP12 DUP2 AND SWAP3 PUSH4 0xA9059CBB SWAP3 PUSH2 0xDEF SWAP3 SWAP1 SWAP2 AND SWAP1 DUP9 SWAP1 PUSH1 0x4 ADD PUSH2 0x1B2E JUMP JUMPDEST DUP6 DUP9 PUSH1 0x0 ADD PUSH1 0x5 ADD PUSH1 0x0 DUP3 DUP3 SLOAD PUSH2 0xF94 SWAP2 SWAP1 PUSH2 0x1B64 JUMP JUMPDEST SWAP1 SWAP2 SSTORE POP POP PUSH1 0x6 DUP9 ADD DUP1 SLOAD DUP8 SWAP2 SWAP1 PUSH1 0x0 SWAP1 PUSH2 0xFB0 SWAP1 DUP5 SWAP1 PUSH2 0x1B00 JUMP JUMPDEST SWAP1 SWAP2 SSTORE POP POP PUSH1 0x3 SLOAD PUSH1 0x40 MLOAD PUSH4 0xA9059CBB PUSH1 0xE0 SHL DUP2 MSTORE PUSH1 0x1 PUSH1 0x1 PUSH1 0xA0 SHL SUB DUP12 DUP2 AND SWAP3 PUSH4 0xA9059CBB SWAP3 PUSH2 0xFE9 SWAP3 SWAP1 SWAP2 AND SWAP1 DUP11 SWAP1 PUSH1 0x4 ADD PUSH2 0x1B2E JUMP JUMPDEST PUSH1 0x20 PUSH1 0x40 MLOAD DUP1 DUP4 SUB DUP2 PUSH1 0x0 DUP8 GAS CALL ISZERO DUP1 ISZERO PUSH2 0x1008 JUMPI RETURNDATASIZE PUSH1 0x0 DUP1 RETURNDATACOPY RETURNDATASIZE PUSH1 0x0 REVERT JUMPDEST POP POP POP POP PUSH1 0x40 MLOAD RETURNDATASIZE PUSH1 0x1F NOT PUSH1 0x1F DUP3 ADD AND DUP3 ADD DUP1 PUSH1 0x40 MSTORE POP DUP2 ADD SWAP1 PUSH2 0x102C SWAP2 SWAP1 PUSH2 0x1B47 JUMP JUMPDEST POP JUMPDEST PUSH1 0x40 MLOAD DUP7 DUP2 MSTORE PUSH1 0x1 PUSH1 0x1 PUSH1 0xA0 SHL SUB DUP11 AND SWAP1 ADDRESS SWAP1 PUSH32 0x37238854FE57FBF51F09946F854FC3916FE83938D6521F09BD05463839F1304 SWAP1 PUSH1 0x20 ADD PUSH1 0x40 MLOAD DUP1 SWAP2 SUB SWAP1 LOG3 POP POP POP POP POP POP POP POP POP JUMP JUMPDEST PUSH1 0x0 PUSH2 0x1084 CALLER PUSH2 0x17A2 JUMP JUMPDEST PUSH2 0x108D JUMPI PUSH1 0x0 DUP1 REVERT JUMPDEST PUSH1 0x1 PUSH1 0x1 PUSH1 0xA0 SHL SUB DUP4 AND CALLER EQ PUSH2 0x10A2 JUMPI PUSH1 0x0 DUP1 REVERT JUMPDEST PUSH1 0x0 PUSH2 0x10AD DUP4 PUSH2 0x11C1 JUMP JUMPDEST PUSH2 0x10B6 DUP5 PUSH2 0x1477 JUMP JUMPDEST POP PUSH1 0x1 SWAP4 SWAP3 POP POP POP JUMP JUMPDEST PUSH1 0x5 DUP1 SLOAD PUSH2 0x421 SWAP1 PUSH2 0x1A97 JUMP JUMPDEST PUSH1 0x0 DUP1 DUP1 DUP1 DUP1 DUP1 DUP1 PUSH2 0x10DE CALLER PUSH2 0x17A2 JUMP JUMPDEST PUSH2 0x10E7 JUMPI PUSH1 0x0 DUP1 REVERT JUMPDEST PUSH1 0x1 PUSH1 0x1 PUSH1 0xA0 SHL SUB DUP1 DUP10 AND PUSH1 0x0 DUP2 DUP2 MSTORE PUSH1 0xB PUSH1 0x20 MSTORE PUSH1 0x40 DUP2 KECCAK256 PUSH1 0x3 SLOAD SWAP1 SWAP4 SWAP2 SWAP3 DUP4 SWAP3 DUP4 SWAP3 DUP4 SWAP3 DUP4 SWAP3 SWAP2 SWAP1 SWAP2 AND SWAP1 SUB PUSH2 0x1141 JUMPI POP POP POP PUSH1 0x1 DUP4 ADD SLOAD PUSH1 0x5 DUP5 ADD SLOAD PUSH1 0x4 DUP6 ADD SLOAD PUSH1 0x2 DUP7 ADD SLOAD PUSH1 0x6 DUP8 ADD SLOAD SWAP4 SWAP6 POP SWAP2 SWAP4 POP SWAP2 PUSH2 0x11A3 JUMP JUMPDEST PUSH1 0x2 SLOAD PUSH1 0x1 PUSH1 0x1 PUSH1 0xA0 SHL SUB SWAP1 DUP2 AND SWAP1 DUP16 AND SUB PUSH2 0x117F JUMPI POP POP POP PUSH1 0x9 DUP4 ADD SLOAD PUSH1 0xD DUP5 ADD SLOAD PUSH1 0xC DUP6 ADD SLOAD PUSH1 0xA DUP7 ADD SLOAD PUSH1 0xE DUP8 ADD SLOAD SWAP4 SWAP6 POP SWAP2 SWAP4 POP SWAP2 PUSH2 0x11A3 JUMP JUMPDEST POP POP POP PUSH1 0x11 DUP4 ADD SLOAD PUSH1 0x15 DUP5 ADD SLOAD PUSH1 0x14 DUP6 ADD SLOAD PUSH1 0x12 DUP7 ADD SLOAD PUSH1 0x16 DUP8 ADD SLOAD SWAP4 SWAP6 POP SWAP2 SWAP4 POP SWAP2 JUMPDEST PUSH1 0xD SLOAD PUSH1 0xE SLOAD SWAP1 SWAP16 SWAP1 SWAP15 POP SWAP5 SWAP13 POP SWAP3 SWAP11 POP SWAP1 SWAP9 POP SWAP7 POP SWAP5 POP SWAP3 POP POP POP JUMP JUMPDEST PUSH2 0x11CA CALLER PUSH2 0x17A2 JUMP JUMPDEST PUSH2 0x11D3 JUMPI PUSH1 0x0 DUP1 REVERT JUMPDEST PUSH1 0x1 PUSH1 0x1 PUSH1 0xA0 SHL SUB AND PUSH1 0x0 SWAP1 DUP2 MSTORE PUSH1 0x1 PUSH1 0x20 DUP2 SWAP1 MSTORE PUSH1 0x40 SWAP1 SWAP2 KECCAK256 DUP1 SLOAD PUSH1 0xFF NOT AND SWAP1 SWAP2 OR SWAP1 SSTORE JUMP JUMPDEST PUSH1 0x0 PUSH2 0x1205 CALLER PUSH2 0x17A2 JUMP JUMPDEST PUSH2 0x120E JUMPI PUSH1 0x0 DUP1 REVERT JUMPDEST PUSH1 0x3 SLOAD PUSH1 0x1 PUSH1 0x1 PUSH1 0xA0 SHL SUB SWAP1 DUP2 AND PUSH1 0x0 DUP2 DUP2 MSTORE PUSH1 0xB PUSH1 0x20 MSTORE PUSH1 0x40 DUP1 DUP3 KECCAK256 PUSH1 0x2 SLOAD DUP6 AND DUP1 DUP5 MSTORE SWAP2 SWAP1 SWAP3 KECCAK256 SWAP2 SWAP4 SWAP2 SWAP3 SWAP1 SWAP2 DUP7 AND PUSH2 0x124B JUMPI PUSH2 0x124B PUSH2 0x1B18 JUMP JUMPDEST SELFBALANCE PUSH2 0x1258 DUP2 ADDRESS PUSH1 0x0 PUSH2 0x15EB JUMP JUMPDEST ISZERO ISZERO PUSH1 0x1 EQ PUSH2 0x1266 JUMPI PUSH1 0x0 DUP1 REVERT JUMPDEST PUSH1 0x2 SLOAD PUSH1 0x1 PUSH1 0x1 PUSH1 0xA0 SHL SUB DUP1 DUP12 AND SWAP2 AND SUB PUSH2 0x1283 JUMPI DUP7 SWAP3 POP PUSH2 0x12A5 JUMP JUMPDEST PUSH1 0x3 SLOAD PUSH1 0x1 PUSH1 0x1 PUSH1 0xA0 SHL SUB DUP1 DUP12 AND SWAP2 AND SUB PUSH2 0x12A0 JUMPI DUP7 SWAP2 POP PUSH2 0x12A5 JUMP JUMPDEST PUSH1 0x0 DUP1 REVERT JUMPDEST PUSH1 0x0 DUP1 PUSH2 0x12B1 DUP11 PUSH2 0x171B JUMP JUMPDEST PUSH1 0x1 DUP11 ADD DUP1 SLOAD SWAP3 SWAP6 POP SWAP1 SWAP4 POP DUP5 SWAP3 POP DUP4 SWAP2 DUP4 SWAP2 SWAP1 PUSH1 0x0 SWAP1 PUSH2 0x12D3 SWAP1 DUP5 SWAP1 PUSH2 0x1B64 JUMP JUMPDEST SWAP1 SWAP2 SSTORE POP POP PUSH1 0x9 DUP9 ADD DUP1 SLOAD DUP5 SWAP2 SWAP1 PUSH1 0x0 SWAP1 PUSH2 0x12EF SWAP1 DUP5 SWAP1 PUSH2 0x1B64 JUMP JUMPDEST SWAP1 SWAP2 SSTORE POP POP PUSH1 0x2 DUP10 ADD DUP1 SLOAD DUP4 SWAP2 SWAP1 PUSH1 0x0 SWAP1 PUSH2 0x130B SWAP1 DUP5 SWAP1 PUSH2 0x1B00 JUMP JUMPDEST SWAP1 SWAP2 SSTORE POP POP PUSH1 0xA DUP9 ADD DUP1 SLOAD DUP3 SWAP2 SWAP1 PUSH1 0x0 SWAP1 PUSH2 0x1327 SWAP1 DUP5 SWAP1 PUSH2 0x1B00 JUMP JUMPDEST SWAP1 SWAP2 SSTORE POP POP PUSH1 0x40 MLOAD PUSH1 0x0 SWAP1 PUSH1 0x1 PUSH1 0x1 PUSH1 0xA0 SHL SUB DUP9 AND SWAP1 DUP7 SWAP1 DUP4 DUP2 DUP2 DUP2 DUP6 DUP8 GAS CALL SWAP3 POP POP POP RETURNDATASIZE DUP1 PUSH1 0x0 DUP2 EQ PUSH2 0x1377 JUMPI PUSH1 0x40 MLOAD SWAP2 POP PUSH1 0x1F NOT PUSH1 0x3F RETURNDATASIZE ADD AND DUP3 ADD PUSH1 0x40 MSTORE RETURNDATASIZE DUP3 MSTORE RETURNDATASIZE PUSH1 0x0 PUSH1 0x20 DUP5 ADD RETURNDATACOPY PUSH2 0x137C JUMP JUMPDEST PUSH1 0x60 SWAP2 POP JUMPDEST POP POP SWAP1 POP PUSH1 0x0 DUP9 PUSH1 0x1 PUSH1 0x1 PUSH1 0xA0 SHL SUB AND DUP6 PUSH1 0x40 MLOAD PUSH1 0x0 PUSH1 0x40 MLOAD DUP1 DUP4 SUB DUP2 DUP6 DUP8 GAS CALL SWAP3 POP POP POP RETURNDATASIZE DUP1 PUSH1 0x0 DUP2 EQ PUSH2 0x13CD JUMPI PUSH1 0x40 MLOAD SWAP2 POP PUSH1 0x1F NOT PUSH1 0x3F RETURNDATASIZE ADD AND DUP3 ADD PUSH1 0x40 MSTORE RETURNDATASIZE DUP3 MSTORE RETURNDATASIZE PUSH1 0x0 PUSH1 0x20 DUP5 ADD RETURNDATACOPY PUSH2 0x13D2 JUMP JUMPDEST PUSH1 0x60 SWAP2 POP JUMPDEST POP SWAP1 SWAP2 POP POP DUP2 ISZERO ISZERO DUP2 ISZERO ISZERO EQ DUP1 PUSH2 0x13EB JUMPI PUSH2 0x13EB PUSH2 0x1B18 JUMP JUMPDEST SWAP16 SWAP15 POP POP POP POP POP POP POP POP POP POP POP POP POP POP POP JUMP JUMPDEST PUSH1 0x1 PUSH1 0x1 PUSH1 0xA0 SHL SUB DUP2 AND PUSH1 0x0 SWAP1 DUP2 MSTORE PUSH1 0xB PUSH1 0x20 SWAP1 DUP2 MSTORE PUSH1 0x40 SWAP2 DUP3 SWAP1 KECCAK256 PUSH1 0x10 DUP2 ADD DUP1 SLOAD DUP5 MLOAD DUP2 DUP6 MUL DUP2 ADD DUP6 ADD SWAP1 SWAP6 MSTORE DUP1 DUP6 MSTORE PUSH1 0x60 SWAP5 SWAP3 SWAP4 SWAP2 SWAP3 SWAP2 DUP4 SWAP2 SWAP1 DUP4 ADD DUP3 DUP3 DUP1 ISZERO PUSH2 0x1469 JUMPI PUSH1 0x20 MUL DUP3 ADD SWAP2 SWAP1 PUSH1 0x0 MSTORE PUSH1 0x20 PUSH1 0x0 KECCAK256 SWAP1 JUMPDEST DUP2 SLOAD DUP2 MSTORE PUSH1 0x20 ADD SWAP1 PUSH1 0x1 ADD SWAP1 DUP1 DUP4 GT PUSH2 0x1455 JUMPI JUMPDEST POP POP POP POP POP SWAP3 POP POP POP SWAP2 SWAP1 POP JUMP JUMPDEST PUSH2 0x1480 CALLER PUSH2 0x17A2 JUMP JUMPDEST PUSH2 0x1489 JUMPI PUSH1 0x0 DUP1 REVERT JUMPDEST PUSH1 0x1 PUSH1 0x1 PUSH1 0xA0 SHL SUB AND PUSH1 0x0 SWAP1 DUP2 MSTORE PUSH1 0x1 PUSH1 0x20 MSTORE PUSH1 0x40 SWAP1 KECCAK256 DUP1 SLOAD PUSH1 0xFF NOT AND SWAP1 SSTORE JUMP JUMPDEST PUSH1 0x0 PUSH1 0xF SLOAD CALLVALUE LT ISZERO PUSH2 0x14BB JUMPI PUSH1 0x0 DUP1 REVERT JUMPDEST PUSH1 0x11 SLOAD DUP3 GT ISZERO PUSH2 0x4C2 JUMPI PUSH1 0x0 DUP1 REVERT JUMPDEST PUSH1 0x8 SLOAD PUSH1 0x0 SWAP1 DUP3 SWAP1 DUP3 SWAP1 PUSH1 0x1 PUSH1 0x1 PUSH1 0xA0 SHL SUB SWAP1 DUP2 AND SWAP1 DUP7 AND SUB PUSH2 0x15A9 JUMPI DUP4 PUSH1 0xE PUSH1 0x0 DUP3 DUP3 SLOAD PUSH2 0x14F9 SWAP2 SWAP1 PUSH2 0x1B00 JUMP JUMPDEST SWAP3 POP POP DUP2 SWAP1 SSTORE POP CALLVALUE PUSH1 0xD PUSH1 0x0 DUP3 DUP3 SLOAD PUSH2 0x1512 SWAP2 SWAP1 PUSH2 0x1B00 JUMP JUMPDEST SWAP1 SWAP2 SSTORE POP POP PUSH1 0x8 SLOAD PUSH1 0x40 MLOAD PUSH4 0x23B872DD PUSH1 0xE0 SHL DUP2 MSTORE PUSH1 0x1 PUSH1 0x1 PUSH1 0xA0 SHL SUB DUP9 DUP2 AND PUSH1 0x4 DUP4 ADD MSTORE ADDRESS PUSH1 0x24 DUP4 ADD MSTORE PUSH1 0x44 DUP3 ADD DUP8 SWAP1 MSTORE SWAP1 SWAP2 AND SWAP1 PUSH4 0x23B872DD SWAP1 PUSH1 0x64 ADD PUSH1 0x20 PUSH1 0x40 MLOAD DUP1 DUP4 SUB DUP2 PUSH1 0x0 DUP8 GAS CALL ISZERO DUP1 ISZERO PUSH2 0x1570 JUMPI RETURNDATASIZE PUSH1 0x0 DUP1 RETURNDATACOPY RETURNDATASIZE PUSH1 0x0 REVERT JUMPDEST POP POP POP POP PUSH1 0x40 MLOAD RETURNDATASIZE PUSH1 0x1F NOT PUSH1 0x1F DUP3 ADD AND DUP3 ADD DUP1 PUSH1 0x40 MSTORE POP DUP2 ADD SWAP1 PUSH2 0x1594 SWAP2 SWAP1 PUSH2 0x1B47 JUMP JUMPDEST POP PUSH2 0x15A1 DUP7 DUP4 PUSH1 0x1 PUSH2 0x17C0 JUMP JUMPDEST POP PUSH1 0x1 PUSH2 0x15E2 JUMP JUMPDEST POP PUSH1 0x40 MLOAD PUSH3 0x461BCD PUSH1 0xE5 SHL DUP2 MSTORE PUSH1 0x20 PUSH1 0x4 DUP3 ADD MSTORE PUSH1 0xA PUSH1 0x24 DUP3 ADD MSTORE PUSH10 0x854D5541413D4951151 PUSH1 0xB2 SHL PUSH1 0x44 DUP3 ADD MSTORE PUSH1 0x0 SWAP1 PUSH1 0x64 ADD PUSH2 0x5F5 JUMP JUMPDEST SWAP6 SWAP5 POP POP POP POP POP JUMP JUMPDEST PUSH1 0x0 PUSH2 0x15F6 CALLER PUSH2 0x17A2 JUMP JUMPDEST PUSH2 0x15FF JUMPI PUSH1 0x0 DUP1 REVERT JUMPDEST PUSH1 0x3 SLOAD PUSH1 0x1 PUSH1 0x1 PUSH1 0xA0 SHL SUB SWAP1 DUP2 AND PUSH1 0x0 SWAP1 DUP2 MSTORE PUSH1 0xB PUSH1 0x20 MSTORE PUSH1 0x40 DUP1 DUP3 KECCAK256 PUSH1 0x2 SLOAD SWAP1 SWAP4 AND DUP3 MSTORE DUP2 KECCAK256 SWAP1 DUP1 DUP1 PUSH2 0x1632 DUP10 PUSH2 0x171B JUMP JUMPDEST SWAP2 SWAP5 POP SWAP3 POP SWAP1 POP PUSH1 0x0 PUSH1 0x1 DUP9 ISZERO ISZERO EQ DUP1 ISZERO PUSH2 0x165A JUMPI POP PUSH1 0x9 SLOAD PUSH1 0x1 PUSH1 0x1 PUSH1 0xA0 SHL SUB DUP11 DUP2 AND SWAP2 AND EQ JUMPDEST ISZERO PUSH2 0x1675 JUMPI POP PUSH1 0x4 DUP6 ADD DUP3 SWAP1 SSTORE PUSH1 0xC DUP5 ADD DUP2 SWAP1 SSTORE PUSH1 0x1 PUSH2 0x16EC JUMP JUMPDEST PUSH1 0x1 DUP9 ISZERO ISZERO EQ DUP1 ISZERO PUSH2 0x1694 JUMPI POP PUSH1 0x8 SLOAD PUSH1 0x1 PUSH1 0x1 PUSH1 0xA0 SHL SUB DUP11 DUP2 AND SWAP2 AND EQ JUMPDEST DUP1 ISZERO PUSH2 0x16A7 JUMPI POP PUSH1 0x12 SLOAD PUSH1 0xFF AND ISZERO ISZERO PUSH1 0x1 EQ JUMPDEST ISZERO PUSH2 0x16C2 JUMPI POP PUSH1 0x5 DUP6 ADD DUP3 SWAP1 SSTORE PUSH1 0xD DUP5 ADD DUP2 SWAP1 SSTORE PUSH1 0x1 PUSH2 0x16EC JUMP JUMPDEST DUP8 ISZERO ISZERO PUSH1 0x0 SUB PUSH2 0x16E1 JUMPI POP PUSH1 0x1 DUP1 DUP7 ADD DUP4 SWAP1 SSTORE PUSH1 0x9 DUP6 ADD DUP3 SWAP1 SSTORE PUSH2 0x16EC JUMP JUMPDEST POP PUSH1 0x5 DUP6 ADD DUP4 SWAP1 SSTORE PUSH1 0x1 JUMPDEST DUP4 PUSH1 0xE SLOAD LT ISZERO PUSH2 0x170E JUMPI DUP4 PUSH1 0xE PUSH1 0x0 DUP3 DUP3 SLOAD PUSH2 0x1708 SWAP2 SWAP1 PUSH2 0x1B00 JUMP JUMPDEST SWAP1 SWAP2 SSTORE POP POP JUMPDEST SWAP10 SWAP9 POP POP POP POP POP POP POP POP POP JUMP JUMPDEST PUSH1 0x0 DUP1 PUSH1 0x0 DUP1 DUP5 GT PUSH2 0x172F JUMPI PUSH2 0x172F PUSH2 0x1B18 JUMP JUMPDEST PUSH1 0x0 PUSH32 0x0 PUSH1 0x6 SLOAD DUP7 PUSH2 0x1760 SWAP2 SWAP1 PUSH2 0x1B7B JUMP JUMPDEST PUSH2 0x176A SWAP2 SWAP1 PUSH2 0x1B9A JUMP JUMPDEST SWAP1 POP PUSH1 0x0 PUSH2 0x1778 DUP3 DUP8 PUSH2 0x1B64 JUMP JUMPDEST SWAP1 POP PUSH1 0x0 PUSH2 0x1786 DUP3 DUP5 PUSH2 0x1B00 JUMP JUMPDEST SWAP1 POP DUP7 DUP2 EQ PUSH2 0x1797 JUMPI PUSH2 0x1797 PUSH2 0x1B18 JUMP JUMPDEST SWAP7 SWAP2 SWAP6 POP SWAP4 POP SWAP2 POP POP JUMP JUMPDEST PUSH1 0x1 PUSH1 0x1 PUSH1 0xA0 SHL SUB AND PUSH1 0x0 SWAP1 DUP2 MSTORE PUSH1 0x1 PUSH1 0x20 MSTORE PUSH1 0x40 SWAP1 KECCAK256 SLOAD PUSH1 0xFF AND SWAP1 JUMP JUMPDEST PUSH1 0x1 PUSH1 0x1 PUSH1 0xA0 SHL SUB DUP4 AND PUSH1 0x0 SWAP1 DUP2 MSTORE PUSH1 0xB PUSH1 0x20 SWAP1 DUP2 MSTORE PUSH1 0x40 DUP1 DUP4 KECCAK256 CALLER DUP5 MSTORE PUSH1 0xC DUP4 MSTORE DUP2 DUP5 KECCAK256 NUMBER DUP1 DUP7 MSTORE SWAP1 DUP5 MSTORE SWAP2 DUP5 KECCAK256 DUP7 SWAP1 SSTORE PUSH1 0x10 DUP2 ADD DUP1 SLOAD PUSH1 0x1 DUP1 DUP3 ADD DUP4 SSTORE SWAP2 DUP7 MSTORE SWAP4 SWAP1 SWAP5 KECCAK256 SWAP1 SWAP3 ADD SSTORE SWAP1 DUP3 ISZERO ISZERO SWAP1 SUB PUSH2 0x1836 JUMPI DUP3 DUP2 PUSH1 0x10 ADD PUSH1 0x7 ADD PUSH1 0x0 DUP3 DUP3 SLOAD PUSH2 0x182B SWAP2 SWAP1 PUSH2 0x1B00 JUMP JUMPDEST SWAP1 SWAP2 SSTORE POP PUSH2 0x1853 SWAP1 POP JUMP JUMPDEST DUP3 DUP2 PUSH1 0x10 ADD PUSH1 0x3 ADD PUSH1 0x0 DUP3 DUP3 SLOAD PUSH2 0x184D SWAP2 SWAP1 PUSH2 0x1B00 JUMP JUMPDEST SWAP1 SWAP2 SSTORE POP POP JUMPDEST POP POP POP POP JUMP JUMPDEST PUSH1 0x0 PUSH1 0x20 DUP1 DUP4 MSTORE DUP4 MLOAD DUP1 DUP3 DUP6 ADD MSTORE PUSH1 0x0 JUMPDEST DUP2 DUP2 LT ISZERO PUSH2 0x1886 JUMPI DUP6 DUP2 ADD DUP4 ADD MLOAD DUP6 DUP3 ADD PUSH1 0x40 ADD MSTORE DUP3 ADD PUSH2 0x186A JUMP JUMPDEST DUP2 DUP2 GT ISZERO PUSH2 0x1898 JUMPI PUSH1 0x0 PUSH1 0x40 DUP4 DUP8 ADD ADD MSTORE JUMPDEST POP PUSH1 0x1F ADD PUSH1 0x1F NOT AND SWAP3 SWAP1 SWAP3 ADD PUSH1 0x40 ADD SWAP4 SWAP3 POP POP POP JUMP JUMPDEST PUSH1 0x0 PUSH1 0x20 DUP3 DUP5 SUB SLT ISZERO PUSH2 0x18C0 JUMPI PUSH1 0x0 DUP1 REVERT JUMPDEST POP CALLDATALOAD SWAP2 SWAP1 POP JUMP JUMPDEST PUSH1 0x1 PUSH1 0x1 PUSH1 0xA0 SHL SUB SWAP2 SWAP1 SWAP2 AND DUP2 MSTORE PUSH1 0x20 ADD SWAP1 JUMP JUMPDEST PUSH1 0x1 PUSH1 0x1 PUSH1 0xA0 SHL SUB DUP2 AND DUP2 EQ PUSH2 0x8E3 JUMPI PUSH1 0x0 DUP1 REVERT JUMPDEST PUSH1 0x0 DUP1 PUSH1 0x40 DUP4 DUP6 SUB SLT ISZERO PUSH2 0x1903 JUMPI PUSH1 0x0 DUP1 REVERT JUMPDEST DUP3 CALLDATALOAD SWAP2 POP PUSH1 0x20 DUP4 ADD CALLDATALOAD PUSH2 0x1915 DUP2 PUSH2 0x18DB JUMP JUMPDEST DUP1 SWAP2 POP POP SWAP3 POP SWAP3 SWAP1 POP JUMP JUMPDEST PUSH1 0x0 PUSH1 0x20 DUP3 DUP5 SUB SLT ISZERO PUSH2 0x1932 JUMPI PUSH1 0x0 DUP1 REVERT JUMPDEST DUP2 CALLDATALOAD PUSH2 0x193D DUP2 PUSH2 0x18DB JUMP JUMPDEST SWAP4 SWAP3 POP POP POP JUMP JUMPDEST PUSH1 0x0 DUP1 PUSH1 0x40 DUP4 DUP6 SUB SLT ISZERO PUSH2 0x1957 JUMPI PUSH1 0x0 DUP1 REVERT JUMPDEST DUP3 CALLDATALOAD PUSH2 0x1962 DUP2 PUSH2 0x18DB JUMP JUMPDEST SWAP5 PUSH1 0x20 SWAP4 SWAP1 SWAP4 ADD CALLDATALOAD SWAP4 POP POP POP JUMP JUMPDEST DUP1 ISZERO ISZERO DUP2 EQ PUSH2 0x8E3 JUMPI PUSH1 0x0 DUP1 REVERT JUMPDEST PUSH1 0x0 DUP1 PUSH1 0x0 DUP1 PUSH1 0x0 DUP1 PUSH1 0xC0 DUP8 DUP10 SUB SLT ISZERO PUSH2 0x1997 JUMPI PUSH1 0x0 DUP1 REVERT JUMPDEST DUP7 CALLDATALOAD PUSH2 0x19A2 DUP2 PUSH2 0x18DB JUMP JUMPDEST SWAP6 POP PUSH1 0x20 DUP8 ADD CALLDATALOAD PUSH2 0x19B2 DUP2 PUSH2 0x18DB JUMP JUMPDEST SWAP5 POP PUSH1 0x40 DUP8 ADD CALLDATALOAD SWAP4 POP PUSH1 0x60 DUP8 ADD CALLDATALOAD PUSH2 0x19C9 DUP2 PUSH2 0x1970 JUMP JUMPDEST SWAP6 SWAP9 SWAP5 SWAP8 POP SWAP3 SWAP6 PUSH1 0x80 DUP2 ADD CALLDATALOAD SWAP5 PUSH1 0xA0 SWAP1 SWAP2 ADD CALLDATALOAD SWAP4 POP SWAP2 POP POP JUMP JUMPDEST PUSH1 0x0 DUP1 PUSH1 0x40 DUP4 DUP6 SUB SLT ISZERO PUSH2 0x19F6 JUMPI PUSH1 0x0 DUP1 REVERT JUMPDEST DUP3 CALLDATALOAD PUSH2 0x1A01 DUP2 PUSH2 0x18DB JUMP JUMPDEST SWAP2 POP PUSH1 0x20 DUP4 ADD CALLDATALOAD PUSH2 0x1915 DUP2 PUSH2 0x18DB JUMP JUMPDEST PUSH1 0x0 DUP1 PUSH1 0x0 PUSH1 0x60 DUP5 DUP7 SUB SLT ISZERO PUSH2 0x1A26 JUMPI PUSH1 0x0 DUP1 REVERT JUMPDEST DUP4 CALLDATALOAD PUSH2 0x1A31 DUP2 PUSH2 0x18DB JUMP JUMPDEST SWAP3 POP PUSH1 0x20 DUP5 ADD CALLDATALOAD SWAP2 POP PUSH1 0x40 DUP5 ADD CALLDATALOAD PUSH2 0x1A48 DUP2 PUSH2 0x18DB JUMP JUMPDEST DUP1 SWAP2 POP POP SWAP3 POP SWAP3 POP SWAP3 JUMP JUMPDEST PUSH1 0x20 DUP1 DUP3 MSTORE DUP3 MLOAD DUP3 DUP3 ADD DUP2 SWAP1 MSTORE PUSH1 0x0 SWAP2 SWAP1 DUP5 DUP3 ADD SWAP1 PUSH1 0x40 DUP6 ADD SWAP1 DUP5 JUMPDEST DUP2 DUP2 LT ISZERO PUSH2 0x1A8B JUMPI DUP4 MLOAD DUP4 MSTORE SWAP3 DUP5 ADD SWAP3 SWAP2 DUP5 ADD SWAP2 PUSH1 0x1 ADD PUSH2 0x1A6F JUMP JUMPDEST POP SWAP1 SWAP7 SWAP6 POP POP POP POP POP POP JUMP JUMPDEST PUSH1 0x1 DUP2 DUP2 SHR SWAP1 DUP3 AND DUP1 PUSH2 0x1AAB JUMPI PUSH1 0x7F DUP3 AND SWAP2 POP JUMPDEST PUSH1 0x20 DUP3 LT DUP2 SUB PUSH2 0x1ACB JUMPI PUSH4 0x4E487B71 PUSH1 0xE0 SHL PUSH1 0x0 MSTORE PUSH1 0x22 PUSH1 0x4 MSTORE PUSH1 0x24 PUSH1 0x0 REVERT JUMPDEST POP SWAP2 SWAP1 POP JUMP JUMPDEST PUSH1 0x0 PUSH1 0x20 DUP3 DUP5 SUB SLT ISZERO PUSH2 0x1AE3 JUMPI PUSH1 0x0 DUP1 REVERT JUMPDEST POP MLOAD SWAP2 SWAP1 POP JUMP JUMPDEST PUSH4 0x4E487B71 PUSH1 0xE0 SHL PUSH1 0x0 MSTORE PUSH1 0x11 PUSH1 0x4 MSTORE PUSH1 0x24 PUSH1 0x0 REVERT JUMPDEST PUSH1 0x0 DUP3 NOT DUP3 GT ISZERO PUSH2 0x1B13 JUMPI PUSH2 0x1B13 PUSH2 0x1AEA JUMP JUMPDEST POP ADD SWAP1 JUMP JUMPDEST PUSH4 0x4E487B71 PUSH1 0xE0 SHL PUSH1 0x0 MSTORE PUSH1 0x1 PUSH1 0x4 MSTORE PUSH1 0x24 PUSH1 0x0 REVERT JUMPDEST PUSH1 0x1 PUSH1 0x1 PUSH1 0xA0 SHL SUB SWAP3 SWAP1 SWAP3 AND DUP3 MSTORE PUSH1 0x20 DUP3 ADD MSTORE PUSH1 0x40 ADD SWAP1 JUMP JUMPDEST PUSH1 0x0 PUSH1 0x20 DUP3 DUP5 SUB SLT ISZERO PUSH2 0x1B59 JUMPI PUSH1 0x0 DUP1 REVERT JUMPDEST DUP2 MLOAD PUSH2 0x193D DUP2 PUSH2 0x1970 JUMP JUMPDEST PUSH1 0x0 DUP3 DUP3 LT ISZERO PUSH2 0x1B76 JUMPI PUSH2 0x1B76 PUSH2 0x1AEA JUMP JUMPDEST POP SUB SWAP1 JUMP JUMPDEST PUSH1 0x0 DUP2 PUSH1 0x0 NOT DIV DUP4 GT DUP3 ISZERO ISZERO AND ISZERO PUSH2 0x1B95 JUMPI PUSH2 0x1B95 PUSH2 0x1AEA JUMP JUMPDEST POP MUL SWAP1 JUMP JUMPDEST PUSH1 0x0 DUP3 PUSH2 0x1BB7 JUMPI PUSH4 0x4E487B71 PUSH1 0xE0 SHL PUSH1 0x0 MSTORE PUSH1 0x12 PUSH1 0x4 MSTORE PUSH1 0x24 PUSH1 0x0 REVERT JUMPDEST POP DIV SWAP1 JUMP INVALID LOG2 PUSH5 0x6970667358 0x22 SLT KECCAK256 0xDE 0xDF INVALID LOG1 0x4F RETURNDATACOPY PUSH28 0x9EA7F12E33B97CB183E54F6C6425FE692DE2BC2C7319547DE464736F PUSH13 0x634300080D0033000000000000 "
		},
		"gasEstimates": {
			"creation": {
				"codeDepositCost": "1430800",
				"executionCost": "infinite",
				"totalCost": "infinite"
			},
			"external": {
				"": "2436",
				"authorize(address)": "26962",
				"bridgeBulkMaxAmount()": "2361",
				"bridgeKEK(uint256)": "infinite",
				"bridgeKEK_bulk(uint256)": "infinite",
				"bridgeMaxAmount()": "2339",
				"bridgeTransferOut(uint256,address)": "infinite",
				"depositTrace(address,uint256)": "2785",
				"depositTracer(address)": "infinite",
				"getFee()": "2424",
				"iVF()": "2406",
				"name()": "infinite",
				"setMoV(address)": "infinite",
				"setShards(address,address,uint256,bool,uint256,uint256)": "infinite",
				"symbol()": "infinite",
				"tokenizeWETH()": "infinite",
				"transfer(address,uint256,address)": "infinite",
				"transferAuthorization(address,address)": "infinite",
				"unauthorize(address)": "27032",
				"vaultDebt(address)": "22079",
				"withdraw()": "infinite",
				"withdrawToken(address)": "infinite"
			},
			"internal": {
				"deposit(address,address,uint256)": "infinite",
				"split(uint256)": "infinite",
				"synced(uint256,address,bool)": "infinite",
				"traceDeposit(address,uint256,bool)": "93104"
			}
		},
		"methodIdentifiers": {
			"authorize(address)": "b6a5d7de",
			"bridgeBulkMaxAmount()": "98c37f21",
			"bridgeKEK(uint256)": "1a40785c",
			"bridgeKEK_bulk(uint256)": "f8ff9ac9",
			"bridgeMaxAmount()": "985c51f9",
			"bridgeTransferOut(uint256,address)": "407e655c",
			"depositTrace(address,uint256)": "5f1d9fbc",
			"depositTracer(address)": "dd1599fa",
			"getFee()": "ced72f87",
			"iVF()": "24f8958a",
			"name()": "06fdde03",
			"setMoV(address)": "43602017",
			"setShards(address,address,uint256,bool,uint256,uint256)": "79cba1c4",
			"symbol()": "95d89b41",
			"tokenizeWETH()": "4b4138c9",
			"transfer(address,uint256,address)": "dbba0f01",
			"transferAuthorization(address,address)": "8cd0acc3",
			"unauthorize(address)": "f0b37c04",
			"vaultDebt(address)": "99049f71",
			"withdraw()": "3ccfd60b",
			"withdrawToken(address)": "89476069"
		}
	},
	"abi": [
		{
			"inputs": [
				{
					"internalType": "address",
					"name": "VF",
					"type": "address"
				}
			],
			"stateMutability": "payable",
			"type": "constructor"
		},
		{
			"anonymous": false,
			"inputs": [
				{
					"indexed": true,
					"internalType": "address",
					"name": "src",
					"type": "address"
				},
				{
					"indexed": false,
					"internalType": "uint256",
					"name": "wad",
					"type": "uint256"
				}
			],
			"name": "TokenizeWETH",
			"type": "event"
		},
		{
			"anonymous": false,
			"inputs": [
				{
					"indexed": true,
					"internalType": "address",
					"name": "from",
					"type": "address"
				},
				{
					"indexed": true,
					"internalType": "address",
					"name": "to",
					"type": "address"
				},
				{
					"indexed": false,
					"internalType": "uint256",
					"name": "value",
					"type": "uint256"
				}
			],
			"name": "Transfer",
			"type": "event"
		},
		{
			"anonymous": false,
			"inputs": [
				{
					"indexed": true,
					"internalType": "address",
					"name": "src",
					"type": "address"
				},
				{
					"indexed": true,
					"internalType": "address",
					"name": "token",
					"type": "address"
				},
				{
					"indexed": false,
					"internalType": "uint256",
					"name": "wad",
					"type": "uint256"
				}
			],
			"name": "WithdrawToken",
			"type": "event"
		},
		{
			"anonymous": false,
			"inputs": [
				{
					"indexed": true,
					"internalType": "address",
					"name": "src",
					"type": "address"
				},
				{
					"indexed": false,
					"internalType": "uint256",
					"name": "wad",
					"type": "uint256"
				}
			],
			"name": "Withdrawal",
			"type": "event"
		},
		{
			"stateMutability": "payable",
			"type": "fallback"
		},
		{
			"inputs": [
				{
					"internalType": "address",
					"name": "adr",
					"type": "address"
				}
			],
			"name": "authorize",
			"outputs": [],
			"stateMutability": "nonpayable",
			"type": "function"
		},
		{
			"inputs": [],
			"name": "bridgeBulkMaxAmount",
			"outputs": [
				{
					"internalType": "uint256",
					"name": "",
					"type": "uint256"
				}
			],
			"stateMutability": "view",
			"type": "function"
		},
		{
			"inputs": [
				{
					"internalType": "uint256",
					"name": "amountKEK",
					"type": "uint256"
				}
			],
			"name": "bridgeKEK",
			"outputs": [
				{
					"internalType": "bool",
					"name": "",
					"type": "bool"
				}
			],
			"stateMutability": "payable",
			"type": "function"
		},
		{
			"inputs": [
				{
					"internalType": "uint256",
					"name": "amountKEK",
					"type": "uint256"
				}
			],
			"name": "bridgeKEK_bulk",
			"outputs": [
				{
					"internalType": "bool",
					"name": "",
					"type": "bool"
				}
			],
			"stateMutability": "payable",
			"type": "function"
		},
		{
			"inputs": [],
			"name": "bridgeMaxAmount",
			"outputs": [
				{
					"internalType": "uint256",
					"name": "",
					"type": "uint256"
				}
			],
			"stateMutability": "view",
			"type": "function"
		},
		{
			"inputs": [
				{
					"internalType": "uint256",
					"name": "amount",
					"type": "uint256"
				},
				{
					"internalType": "address payable",
					"name": "receiver",
					"type": "address"
				}
			],
			"name": "bridgeTransferOut",
			"outputs": [
				{
					"internalType": "bool",
					"name": "",
					"type": "bool"
				}
			],
			"stateMutability": "nonpayable",
			"type": "function"
		},
		{
			"inputs": [
				{
					"internalType": "address",
					"name": "_depositor",
					"type": "address"
				},
				{
					"internalType": "uint256",
					"name": "blockNumber",
					"type": "uint256"
				}
			],
			"name": "depositTrace",
			"outputs": [
				{
					"internalType": "uint256",
					"name": "",
					"type": "uint256"
				}
			],
			"stateMutability": "view",
			"type": "function"
		},
		{
			"inputs": [
				{
					"internalType": "address",
					"name": "_depositor",
					"type": "address"
				}
			],
			"name": "depositTracer",
			"outputs": [
				{
					"internalType": "uint256[]",
					"name": "",
					"type": "uint256[]"
				}
			],
			"stateMutability": "view",
			"type": "function"
		},
		{
			"inputs": [],
			"name": "getFee",
			"outputs": [
				{
					"internalType": "uint256",
					"name": "",
					"type": "uint256"
				}
			],
			"stateMutability": "view",
			"type": "function"
		},
		{
			"inputs": [],
			"name": "iVF",
			"outputs": [
				{
					"internalType": "address",
					"name": "",
					"type": "address"
				}
			],
			"stateMutability": "view",
			"type": "function"
		},
		{
			"inputs": [],
			"name": "name",
			"outputs": [
				{
					"internalType": "string",
					"name": "",
					"type": "string"
				}
			],
			"stateMutability": "view",
			"type": "function"
		},
		{
			"inputs": [
				{
					"internalType": "address payable",
					"name": "iMov",
					"type": "address"
				}
			],
			"name": "setMoV",
			"outputs": [],
			"stateMutability": "nonpayable",
			"type": "function"
		},
		{
			"inputs": [
				{
					"internalType": "address payable",
					"name": "iKEK",
					"type": "address"
				},
				{
					"internalType": "address payable",
					"name": "iWKEK",
					"type": "address"
				},
				{
					"internalType": "uint256",
					"name": "_m",
					"type": "uint256"
				},
				{
					"internalType": "bool",
					"name": "tFee",
					"type": "bool"
				},
				{
					"internalType": "uint256",
					"name": "txFEE",
					"type": "uint256"
				},
				{
					"internalType": "uint256",
					"name": "bMaxAmt",
					"type": "uint256"
				}
			],
			"name": "setShards",
			"outputs": [],
			"stateMutability": "nonpayable",
			"type": "function"
		},
		{
			"inputs": [],
			"name": "symbol",
			"outputs": [
				{
					"internalType": "string",
					"name": "",
					"type": "string"
				}
			],
			"stateMutability": "view",
			"type": "function"
		},
		{
			"inputs": [],
			"name": "tokenizeWETH",
			"outputs": [],
			"stateMutability": "nonpayable",
			"type": "function"
		},
		{
			"inputs": [
				{
					"internalType": "address",
					"name": "sender",
					"type": "address"
				},
				{
					"internalType": "uint256",
					"name": "amount",
					"type": "uint256"
				},
				{
					"internalType": "address payable",
					"name": "receiver",
					"type": "address"
				}
			],
			"name": "transfer",
			"outputs": [
				{
					"internalType": "bool",
					"name": "",
					"type": "bool"
				}
			],
			"stateMutability": "nonpayable",
			"type": "function"
		},
		{
			"inputs": [
				{
					"internalType": "address",
					"name": "fromAddr",
					"type": "address"
				},
				{
					"internalType": "address",
					"name": "toAddr",
					"type": "address"
				}
			],
			"name": "transferAuthorization",
			"outputs": [
				{
					"internalType": "bool",
					"name": "",
					"type": "bool"
				}
			],
			"stateMutability": "nonpayable",
			"type": "function"
		},
		{
			"inputs": [
				{
					"internalType": "address",
					"name": "adr",
					"type": "address"
				}
			],
			"name": "unauthorize",
			"outputs": [],
			"stateMutability": "nonpayable",
			"type": "function"
		},
		{
			"inputs": [
				{
					"internalType": "address",
					"name": "vault",
					"type": "address"
				}
			],
			"name": "vaultDebt",
			"outputs": [
				{
					"internalType": "uint256",
					"name": "",
					"type": "uint256"
				},
				{
					"internalType": "uint256",
					"name": "",
					"type": "uint256"
				},
				{
					"internalType": "uint256",
					"name": "",
					"type": "uint256"
				},
				{
					"internalType": "uint256",
					"name": "",
					"type": "uint256"
				},
				{
					"internalType": "uint256",
					"name": "",
					"type": "uint256"
				},
				{
					"internalType": "uint256",
					"name": "",
					"type": "uint256"
				},
				{
					"internalType": "uint256",
					"name": "",
					"type": "uint256"
				}
			],
			"stateMutability": "view",
			"type": "function"
		},
		{
			"inputs": [],
			"name": "withdraw",
			"outputs": [],
			"stateMutability": "nonpayable",
			"type": "function"
		},
		{
			"inputs": [
				{
					"internalType": "address",
					"name": "token",
					"type": "address"
				}
			],
			"name": "withdrawToken",
			"outputs": [],
			"stateMutability": "nonpayable",
			"type": "function"
		},
		{
			"stateMutability": "payable",
			"type": "receive"
		}
	]
}