{
	"data": {
		"bytecode": {
			"linkReferences": {},
			"object": "600280546001600160a01b031990811673050134fd4ea6547846ede4c4bf46a334b7e87ccd179091556003805490911673d166df9dfb917c3b960673e2f420f928d45c9be117905560e0604052600760a081905266714c53784fca4960c91b60c0908152620000729160049190620001d0565b5060408051808201909152600780825266e298a6f09f949160c81b6020909201918252620000a391600591620001d0565b50611f40600655612710608052600880546001600160a01b031990811673eaec17f25a8219fcd659b38c577dffdae25539be1790915560098054821673a888a7a2dc73efdb5705106a216f068e939a2693908117909155600a80549092161790556000600d819055600e556064600f55660d80147225800060105569d3c21bcecceda10000006011556012805460ff191690556040516200206438819003908190833981016040819052620001589162000276565b600254600354600080546001600160a01b03199081163390811783558252600160208190526040808420805460ff1990811684179091556001600160a01b03968716855281852080548216841790559486168452909220805490931690911790915560078054939092169216919091179055620002e4565b828054620001de90620002a8565b90600052602060002090601f0160209004810192826200020257600085556200024d565b82601f106200021d57805160ff19168380011785556200024d565b828001600101855582156200024d579182015b828111156200024d57825182559160200191906001019062000230565b506200025b9291506200025f565b5090565b5b808211156200025b576000815560010162000260565b6000602082840312156200028957600080fd5b81516001600160a01b0381168114620002a157600080fd5b9392505050565b600181811c90821680620002bd57607f821691505b602082108103620002de57634e487b7160e01b600052602260045260246000fd5b50919050565b608051611d646200030060003960006117240152611d646000f3fe6080604052600436106100f85760003560e01c8063894760691161009057806389476069146102665780638cd0acc31461028657806395d89b41146102a6578063985c51f9146102bb57806399049f71146102d1578063b6a5d7de14610326578063dbba0f0114610346578063dd1599fa14610366578063f0b37c0414610393578063f8ff9ac9146103b35761010e565b806306fdde031461011d5780630cba52f9146101485780631a40785c1461016b57806324f8958a1461017e5780633ccfd60b146101ab57806343602017146101c05780634b4138c9146101e05780635f1d9fbc146101f557806379cba1c4146102465761010e565b3661010e5760105434101561010c57600080fd5b005b60105434101561010c57600080fd5b34801561012957600080fd5b506101326103c6565b60405161013f919061182c565b60405180910390f35b61015b610156366004611973565b610454565b604051901515815260200161013f565b61015b610179366004611a2b565b610564565b34801561018a57600080fd5b5060075461019e906001600160a01b031681565b60405161013f9190611a44565b3480156101b757600080fd5b5061010c6106ef565b3480156101cc57600080fd5b5061010c6101db366004611a58565b6107be565b3480156101ec57600080fd5b5061010c6107dc565b34801561020157600080fd5b50610238610210366004611a7c565b6001600160a01b03919091166000908152600b60209081526040808320938352929052205490565b60405190815260200161013f565b34801561025257600080fd5b5061010c610261366004611ab6565b610a08565b34801561027257600080fd5b5061010c610281366004611a58565b610a7b565b34801561029257600080fd5b5061015b6102a1366004611b1b565b610f6f565b3480156102b257600080fd5b50610132610fb6565b3480156102c757600080fd5b5061023860115481565b3480156102dd57600080fd5b506102f16102ec366004611a58565b610fc3565b604080519788526020880196909652948601939093526060850191909152608084015260a083015260c082015260e00161013f565b34801561033257600080fd5b5061010c610341366004611a58565b6110b7565b34801561035257600080fd5b5061015b610361366004611b54565b6110f0565b34801561037257600080fd5b50610386610381366004611a58565b611360565b60405161013f9190611b96565b34801561039f57600080fd5b5061010c6103ae366004611a58565b6113d9565b61015b6103c1366004611a2b565b61140c565b600480546103d390611bda565b80601f01602080910402602001604051908101604052809291908181526020018280546103ff90611bda565b801561044c5780601f106104215761010080835404028352916020019161044c565b820191906000526020600020905b81548152906001019060200180831161042f57829003601f168201915b505050505081565b600061045f33611438565b61046857600080fd5b6000805b835181101561055c5760006001600160a01b031684828151811061049257610492611c14565b60200260200101516001600160a01b0316036104b0576104b0611c2a565b60008482815181106104c4576104c4611c14565b60200260200101516001600160a01b03168683815181106104e7576104e7611c14565b602002602001015160405160006040518083038185875af1925050503d806000811461052f576040519150601f19603f3d011682016040523d82523d6000602084013e610534565b606091505b509091505060018115151461054857600080fd5b91508061055481611c56565b91505061046c565b509392505050565b600060105434101561057557600080fd5b60115482111561058457600080fd5b6008546040516370a0823160e01b815283916001600160a01b0316906370a08231906105b4903390600401611a44565b602060405180830381865afa1580156105d1573d6000803e3d6000fd5b505050506040513d601f19601f820116820180604052508101906105f59190611c6f565b101561060057600080fd5b600854604051636eb1769f60e11b815233600482015230602482015283916001600160a01b03169063dd62ed3e90604401602060405180830381865afa15801561064e573d6000803e3d6000fd5b505050506040513d601f19601f820116820180604052508101906106729190611c6f565b10156106c05760405162461bcd60e51b8152602060048201526018602482015277496e63726561736520616c6c6f77616e63652e2e2e4b454b60401b60448201526064015b60405180910390fd5b60006106d8336008546001600160a01b031685611456565b90506001811515146106e957600080fd5b92915050565b6003546001600160a01b03166000908152600c602052604081209047906107199082903090611577565b151560011461072757600080fd5b8082600001600201600082825461073e9190611c88565b90915550506000600183018190556003546040516001600160a01b039091169183156108fc02918491818181858888f19350505050158015610784573d6000803e3d6000fd5b5060405181815230907f7fcf532c15f0a6db0bd6d0e038bea71d30d808c7d98cb3bf7268a95bf5081b659060200160405180910390a25050565b6107c733611438565b6107d057600080fd5b6107d9816110b7565b50565b6003546001600160a01b039081166000908152600c602052604080822060025490931682528120904790806108108361170c565b909350915060009050828247610827813086611577565b151560011461083557600080fd5b6009546040516370a0823160e01b81526000916001600160a01b0316906370a0823190610866903090600401611a44565b602060405180830381865afa158015610883573d6000803e3d6000fd5b505050506040513d601f19601f820116820180604052508101906108a79190611c6f565b6009549091506108c39082906001600160a01b03166001611577565b15156001146108d157600080fd5b600a60009054906101000a90046001600160a01b03166001600160a01b031663d0e30db0896040518263ffffffff1660e01b81526004016000604051808303818588803b15801561092157600080fd5b505af193505050508015610933575060015b61094057600094506109b5565b868a60000160010160008282546109579190611ca0565b9091555050600989018054879190600090610973908490611ca0565b909155505060048a01805485919060009061098f908490611c88565b9091555050600c890180548491906000906109ab908490611c88565b9091555060019550505b6001851515146109c7576109c7611c2a565b60405188815230907f04611f1757844fdc2d4237a951583ca101c93f843bdc2d91a0e3fcf1d7a64cd29060200160405180910390a250505050505050505050565b610a1133611438565b610a1a57600080fd5b611f40841115610a2957600080fd5b6006939093556011929092556012805460ff1916911515919091179055601055600980546001600160a01b03199081166001600160a01b03938416179091556008805490911692909116919091179055565b6003546001600160a01b039081166000908152600c60205260408082206002548416835281832091516370a0823160e01b815290939192918516906370a0823190610aca903090600401611a44565b602060405180830381865afa158015610ae7573d6000803e3d6000fd5b505050506040513d601f19601f82011682018060405250810190610b0b9190611c6f565b9050600080610b198361170c565b6040516370a0823160e01b8152919450925083915082906000906001600160a01b038a16906370a0823190610b52903090600401611a44565b602060405180830381865afa158015610b6f573d6000803e3d6000fd5b505050506040513d601f19601f82011682018060405250810190610b939190611c6f565b9050610ba1818a6001611577565b1515600114610baf57600080fd5b6009546001600160a01b03908116908a1603610d2e5782886000016004016000828254610bdc9190611ca0565b9091555050600c87018054839190600090610bf8908490611ca0565b9091555050600688018054869190600090610c14908490611c88565b9091555050600e87018054859190600090610c30908490611c88565b909155505060095460035460405163a9059cbb60e01b81526001600160a01b039283169263a9059cbb92610c6b929116908990600401611cb7565b6020604051808303816000875af1158015610c8a573d6000803e3d6000fd5b505050506040513d601f19601f82011682018060405250810190610cae9190611cd0565b5060095460025460405163a9059cbb60e01b81526001600160a01b039283169263a9059cbb92610ce5929116908890600401611cb7565b6020604051808303816000875af1158015610d04573d6000803e3d6000fd5b505050506040513d601f19601f82011682018060405250810190610d289190611cd0565b50610f24565b6008546001600160a01b038a81169116148015610d52575060125460ff1615156001145b15610e735782886000016005016000828254610d6e9190611ca0565b9091555050600d87018054839190600090610d8a908490611ca0565b9091555050600688018054869190600090610da6908490611c88565b9091555050600e87018054859190600090610dc2908490611c88565b909155505060035460405163a9059cbb60e01b81526001600160a01b038b81169263a9059cbb92610dfb92909116908990600401611cb7565b6020604051808303816000875af1158015610e1a573d6000803e3d6000fd5b505050506040513d601f19601f82011682018060405250810190610e3e9190611cd0565b5060025460405163a9059cbb60e01b81526001600160a01b038b81169263a9059cbb92610ce592909116908890600401611cb7565b85886000016005016000828254610e8a9190611ca0565b9091555050600688018054879190600090610ea6908490611c88565b909155505060035460405163a9059cbb60e01b81526001600160a01b038b81169263a9059cbb92610edf92909116908a90600401611cb7565b6020604051808303816000875af1158015610efe573d6000803e3d6000fd5b505050506040513d601f19601f82011682018060405250810190610f229190611cd0565b505b6040518681526001600160a01b038a169030907f037238854fe57fbf51f09946f854fc3916fe83938d6521f09bd05463839f13049060200160405180910390a3505050505050505050565b6000610f7a33611438565b610f8357600080fd5b6001600160a01b0383163314610f9857600080fd5b6000610fa3836110b7565b610fac846113d9565b5060019392505050565b600580546103d390611bda565b6000808080808080610fd433611438565b610fdd57600080fd5b6001600160a01b038089166000818152600c60205260408120600354909391928392839283928392919091169003611037575050506001830154600584015460048501546002860154600687015493955091935091611099565b6002546001600160a01b03908116908f1603611075575050506009830154600d840154600c850154600a860154600e87015493955091935091611099565b50505060118301546015840154601485015460128601546016870154939550919350915b600d54600e54909f909e50949c50929a509098509650945092505050565b6110c033611438565b6110c957600080fd5b6001600160a01b03166000908152600160208190526040909120805460ff19169091179055565b60006110fb33611438565b61110457600080fd5b6003546001600160a01b0390811690831661112157611121611c2a565b60035484906000906001600160a01b038089169116036111ae578492506000836001600160a01b03168360405160006040518083038185875af1925050503d806000811461118b576040519150601f19603f3d011682016040523d82523d6000602084013e611190565b606091505b50909150506001811515146111a457600080fd5b600191505061134c565b6002546001600160a01b03808916911603611347578492506000612710600f54886111d99190611ced565b6111e39190611d0c565b90506111ef8188611ca0565b96506000806111fd8361170c565b92509250506000866001600160a01b03168a60405160006040518083038185875af1925050503d806000811461124f576040519150601f19603f3d011682016040523d82523d6000602084013e611254565b606091505b50506003546040519192506000916001600160a01b039091169085908381818185875af1925050503d80600081146112a8576040519150601f19603f3d011682016040523d82523d6000602084013e6112ad565b606091505b50506002546040519192506000916001600160a01b039091169085908381818185875af1925050503d8060008114611301576040519150601f19603f3d011682016040523d82523d6000602084013e611306565b606091505b509091505060018315151461131a57600080fd5b60018215151461132957600080fd5b60018115151461133857600080fd5b6001965050505050505061134c565b600080fd5b8061135657600080fd5b9695505050505050565b6001600160a01b0381166000908152600c602090815260409182902060108101805484518185028101850190955280855260609492939192918391908301828280156113cb57602002820191906000526020600020905b8154815260200190600101908083116113b7575b505050505092505050919050565b6113e233611438565b6113eb57600080fd5b6001600160a01b03166000908152600160205260409020805460ff19169055565b600060105434101561141d57600080fd5b602860115461142c9190611ced565b82111561058457600080fd5b6001600160a01b031660009081526001602052604090205460ff1690565b600854600090829082906001600160a01b03908116908616036115355783600e60008282546114859190611c88565b9250508190555034600d600082825461149e9190611c88565b90915550506008546040516323b872dd60e01b81526001600160a01b03888116600483015230602483015260448201879052909116906323b872dd906064016020604051808303816000875af11580156114fc573d6000803e3d6000fd5b505050506040513d601f19601f820116820180604052508101906115209190611cd0565b5061152d86836001611793565b50600161156e565b5060405162461bcd60e51b815260206004820152600a6024820152690854d5541413d495115160b21b60448201526000906064016106b7565b95945050505050565b600061158233611438565b61158b57600080fd5b6003546001600160a01b039081166000908152600c6020526040808220600254909316825281209080806115be8961170c565b91945092509050600060018815151480156115e657506009546001600160a01b038a81169116145b15611601575060048501829055600c840181905560016116b2565b600188151514801561162057506008546001600160a01b038a81169116145b801561162f575060125460ff16155b1561164357506005850183905560016116b2565b8715801561165957506001600160a01b03891630145b1561166c575060018086018490556116b2565b600188151514801561168657506001600160a01b03891630145b156116a057506001808601839055600985018290556116b2565b5060058501829055600d840181905560015b60018815151480156116c5575083600e54105b156116e75783600e60008282546116dc9190611c88565b909155506116ff9050565b83600d60008282546116f99190611c88565b90915550505b9998505050505050505050565b600080600080841161172057611720611c2a565b60007f0000000000000000000000000000000000000000000000000000000000000000600654866117519190611ced565b61175b9190611d0c565b905060006117698287611ca0565b905060006117778284611c88565b905086811461178857611788611c2a565b969195509350915050565b6001600160a01b0383166000908152600c60209081526040808320338452600b83528184204380865290845291842086905560108101805460018082018355918652939094209092015590821515900361180957828160100160070160008282546117fe9190611c88565b909155506118269050565b828160100160030160008282546118209190611c88565b90915550505b50505050565b600060208083528351808285015260005b818110156118595785810183015185820160400152820161183d565b8181111561186b576000604083870101525b50601f01601f1916929092016040019392505050565b634e487b7160e01b600052604160045260246000fd5b604051601f8201601f191681016001600160401b03811182821017156118bf576118bf611881565b604052919050565b60006001600160401b038211156118e0576118e0611881565b5060051b60200190565b6001600160a01b03811681146107d957600080fd5b600082601f83011261191057600080fd5b81356020611925611920836118c7565b611897565b82815260059290921b8401810191818101908684111561194457600080fd5b8286015b8481101561196857803561195b816118ea565b8352918301918301611948565b509695505050505050565b6000806040838503121561198657600080fd5b82356001600160401b038082111561199d57600080fd5b818501915085601f8301126119b157600080fd5b813560206119c1611920836118c7565b82815260059290921b840181019181810190898411156119e057600080fd5b948201945b838610156119fe578535825294820194908201906119e5565b96505086013592505080821115611a1457600080fd5b50611a21858286016118ff565b9150509250929050565b600060208284031215611a3d57600080fd5b5035919050565b6001600160a01b0391909116815260200190565b600060208284031215611a6a57600080fd5b8135611a75816118ea565b9392505050565b60008060408385031215611a8f57600080fd5b8235611a9a816118ea565b946020939093013593505050565b80151581146107d957600080fd5b60008060008060008060c08789031215611acf57600080fd5b8635611ada816118ea565b95506020870135611aea816118ea565b9450604087013593506060870135611b0181611aa8565b9598949750929560808101359460a0909101359350915050565b60008060408385031215611b2e57600080fd5b8235611b39816118ea565b91506020830135611b49816118ea565b809150509250929050565b600080600060608486031215611b6957600080fd5b8335611b74816118ea565b9250602084013591506040840135611b8b816118ea565b809150509250925092565b6020808252825182820181905260009190848201906040850190845b81811015611bce57835183529284019291840191600101611bb2565b50909695505050505050565b600181811c90821680611bee57607f821691505b602082108103611c0e57634e487b7160e01b600052602260045260246000fd5b50919050565b634e487b7160e01b600052603260045260246000fd5b634e487b7160e01b600052600160045260246000fd5b634e487b7160e01b600052601160045260246000fd5b600060018201611c6857611c68611c40565b5060010190565b600060208284031215611c8157600080fd5b5051919050565b60008219821115611c9b57611c9b611c40565b500190565b600082821015611cb257611cb2611c40565b500390565b6001600160a01b03929092168252602082015260400190565b600060208284031215611ce257600080fd5b8151611a7581611aa8565b6000816000190483118215151615611d0757611d07611c40565b500290565b600082611d2957634e487b7160e01b600052601260045260246000fd5b50049056fea26469706673582212207465eacca55e6772d8ddf5c1debd21b04d008be344114d1ebf132565ed53ac2a64736f6c634300080d0033",
			"opcodes": "PUSH1 0x2 DUP1 SLOAD PUSH1 0x1 PUSH1 0x1 PUSH1 0xA0 SHL SUB NOT SWAP1 DUP2 AND PUSH20 0x50134FD4EA6547846EDE4C4BF46A334B7E87CCD OR SWAP1 SWAP2 SSTORE PUSH1 0x3 DUP1 SLOAD SWAP1 SWAP2 AND PUSH20 0xD166DF9DFB917C3B960673E2F420F928D45C9BE1 OR SWAP1 SSTORE PUSH1 0xE0 PUSH1 0x40 MSTORE PUSH1 0x7 PUSH1 0xA0 DUP2 SWAP1 MSTORE PUSH7 0x714C53784FCA49 PUSH1 0xC9 SHL PUSH1 0xC0 SWAP1 DUP2 MSTORE PUSH3 0x72 SWAP2 PUSH1 0x4 SWAP2 SWAP1 PUSH3 0x1D0 JUMP JUMPDEST POP PUSH1 0x40 DUP1 MLOAD DUP1 DUP3 ADD SWAP1 SWAP2 MSTORE PUSH1 0x7 DUP1 DUP3 MSTORE PUSH7 0xE298A6F09F9491 PUSH1 0xC8 SHL PUSH1 0x20 SWAP1 SWAP3 ADD SWAP2 DUP3 MSTORE PUSH3 0xA3 SWAP2 PUSH1 0x5 SWAP2 PUSH3 0x1D0 JUMP JUMPDEST POP PUSH2 0x1F40 PUSH1 0x6 SSTORE PUSH2 0x2710 PUSH1 0x80 MSTORE PUSH1 0x8 DUP1 SLOAD PUSH1 0x1 PUSH1 0x1 PUSH1 0xA0 SHL SUB NOT SWAP1 DUP2 AND PUSH20 0xEAEC17F25A8219FCD659B38C577DFFDAE25539BE OR SWAP1 SWAP2 SSTORE PUSH1 0x9 DUP1 SLOAD DUP3 AND PUSH20 0xA888A7A2DC73EFDB5705106A216F068E939A2693 SWAP1 DUP2 OR SWAP1 SWAP2 SSTORE PUSH1 0xA DUP1 SLOAD SWAP1 SWAP3 AND OR SWAP1 SSTORE PUSH1 0x0 PUSH1 0xD DUP2 SWAP1 SSTORE PUSH1 0xE SSTORE PUSH1 0x64 PUSH1 0xF SSTORE PUSH7 0xD801472258000 PUSH1 0x10 SSTORE PUSH10 0xD3C21BCECCEDA1000000 PUSH1 0x11 SSTORE PUSH1 0x12 DUP1 SLOAD PUSH1 0xFF NOT AND SWAP1 SSTORE PUSH1 0x40 MLOAD PUSH3 0x2064 CODESIZE DUP2 SWAP1 SUB SWAP1 DUP2 SWAP1 DUP4 CODECOPY DUP2 ADD PUSH1 0x40 DUP2 SWAP1 MSTORE PUSH3 0x158 SWAP2 PUSH3 0x276 JUMP JUMPDEST PUSH1 0x2 SLOAD PUSH1 0x3 SLOAD PUSH1 0x0 DUP1 SLOAD PUSH1 0x1 PUSH1 0x1 PUSH1 0xA0 SHL SUB NOT SWAP1 DUP2 AND CALLER SWAP1 DUP2 OR DUP4 SSTORE DUP3 MSTORE PUSH1 0x1 PUSH1 0x20 DUP2 SWAP1 MSTORE PUSH1 0x40 DUP1 DUP5 KECCAK256 DUP1 SLOAD PUSH1 0xFF NOT SWAP1 DUP2 AND DUP5 OR SWAP1 SWAP2 SSTORE PUSH1 0x1 PUSH1 0x1 PUSH1 0xA0 SHL SUB SWAP7 DUP8 AND DUP6 MSTORE DUP2 DUP6 KECCAK256 DUP1 SLOAD DUP3 AND DUP5 OR SWAP1 SSTORE SWAP5 DUP7 AND DUP5 MSTORE SWAP1 SWAP3 KECCAK256 DUP1 SLOAD SWAP1 SWAP4 AND SWAP1 SWAP2 OR SWAP1 SWAP2 SSTORE PUSH1 0x7 DUP1 SLOAD SWAP4 SWAP1 SWAP3 AND SWAP3 AND SWAP2 SWAP1 SWAP2 OR SWAP1 SSTORE PUSH3 0x2E4 JUMP JUMPDEST DUP3 DUP1 SLOAD PUSH3 0x1DE SWAP1 PUSH3 0x2A8 JUMP JUMPDEST SWAP1 PUSH1 0x0 MSTORE PUSH1 0x20 PUSH1 0x0 KECCAK256 SWAP1 PUSH1 0x1F ADD PUSH1 0x20 SWAP1 DIV DUP2 ADD SWAP3 DUP3 PUSH3 0x202 JUMPI PUSH1 0x0 DUP6 SSTORE PUSH3 0x24D JUMP JUMPDEST DUP3 PUSH1 0x1F LT PUSH3 0x21D JUMPI DUP1 MLOAD PUSH1 0xFF NOT AND DUP4 DUP1 ADD OR DUP6 SSTORE PUSH3 0x24D JUMP JUMPDEST DUP3 DUP1 ADD PUSH1 0x1 ADD DUP6 SSTORE DUP3 ISZERO PUSH3 0x24D JUMPI SWAP2 DUP3 ADD JUMPDEST DUP3 DUP2 GT ISZERO PUSH3 0x24D JUMPI DUP3 MLOAD DUP3 SSTORE SWAP2 PUSH1 0x20 ADD SWAP2 SWAP1 PUSH1 0x1 ADD SWAP1 PUSH3 0x230 JUMP JUMPDEST POP PUSH3 0x25B SWAP3 SWAP2 POP PUSH3 0x25F JUMP JUMPDEST POP SWAP1 JUMP JUMPDEST JUMPDEST DUP1 DUP3 GT ISZERO PUSH3 0x25B JUMPI PUSH1 0x0 DUP2 SSTORE PUSH1 0x1 ADD PUSH3 0x260 JUMP JUMPDEST PUSH1 0x0 PUSH1 0x20 DUP3 DUP5 SUB SLT ISZERO PUSH3 0x289 JUMPI PUSH1 0x0 DUP1 REVERT JUMPDEST DUP2 MLOAD PUSH1 0x1 PUSH1 0x1 PUSH1 0xA0 SHL SUB DUP2 AND DUP2 EQ PUSH3 0x2A1 JUMPI PUSH1 0x0 DUP1 REVERT JUMPDEST SWAP4 SWAP3 POP POP POP JUMP JUMPDEST PUSH1 0x1 DUP2 DUP2 SHR SWAP1 DUP3 AND DUP1 PUSH3 0x2BD JUMPI PUSH1 0x7F DUP3 AND SWAP2 POP JUMPDEST PUSH1 0x20 DUP3 LT DUP2 SUB PUSH3 0x2DE JUMPI PUSH4 0x4E487B71 PUSH1 0xE0 SHL PUSH1 0x0 MSTORE PUSH1 0x22 PUSH1 0x4 MSTORE PUSH1 0x24 PUSH1 0x0 REVERT JUMPDEST POP SWAP2 SWAP1 POP JUMP JUMPDEST PUSH1 0x80 MLOAD PUSH2 0x1D64 PUSH3 0x300 PUSH1 0x0 CODECOPY PUSH1 0x0 PUSH2 0x1724 ADD MSTORE PUSH2 0x1D64 PUSH1 0x0 RETURN INVALID PUSH1 0x80 PUSH1 0x40 MSTORE PUSH1 0x4 CALLDATASIZE LT PUSH2 0xF8 JUMPI PUSH1 0x0 CALLDATALOAD PUSH1 0xE0 SHR DUP1 PUSH4 0x89476069 GT PUSH2 0x90 JUMPI DUP1 PUSH4 0x89476069 EQ PUSH2 0x266 JUMPI DUP1 PUSH4 0x8CD0ACC3 EQ PUSH2 0x286 JUMPI DUP1 PUSH4 0x95D89B41 EQ PUSH2 0x2A6 JUMPI DUP1 PUSH4 0x985C51F9 EQ PUSH2 0x2BB JUMPI DUP1 PUSH4 0x99049F71 EQ PUSH2 0x2D1 JUMPI DUP1 PUSH4 0xB6A5D7DE EQ PUSH2 0x326 JUMPI DUP1 PUSH4 0xDBBA0F01 EQ PUSH2 0x346 JUMPI DUP1 PUSH4 0xDD1599FA EQ PUSH2 0x366 JUMPI DUP1 PUSH4 0xF0B37C04 EQ PUSH2 0x393 JUMPI DUP1 PUSH4 0xF8FF9AC9 EQ PUSH2 0x3B3 JUMPI PUSH2 0x10E JUMP JUMPDEST DUP1 PUSH4 0x6FDDE03 EQ PUSH2 0x11D JUMPI DUP1 PUSH4 0xCBA52F9 EQ PUSH2 0x148 JUMPI DUP1 PUSH4 0x1A40785C EQ PUSH2 0x16B JUMPI DUP1 PUSH4 0x24F8958A EQ PUSH2 0x17E JUMPI DUP1 PUSH4 0x3CCFD60B EQ PUSH2 0x1AB JUMPI DUP1 PUSH4 0x43602017 EQ PUSH2 0x1C0 JUMPI DUP1 PUSH4 0x4B4138C9 EQ PUSH2 0x1E0 JUMPI DUP1 PUSH4 0x5F1D9FBC EQ PUSH2 0x1F5 JUMPI DUP1 PUSH4 0x79CBA1C4 EQ PUSH2 0x246 JUMPI PUSH2 0x10E JUMP JUMPDEST CALLDATASIZE PUSH2 0x10E JUMPI PUSH1 0x10 SLOAD CALLVALUE LT ISZERO PUSH2 0x10C JUMPI PUSH1 0x0 DUP1 REVERT JUMPDEST STOP JUMPDEST PUSH1 0x10 SLOAD CALLVALUE LT ISZERO PUSH2 0x10C JUMPI PUSH1 0x0 DUP1 REVERT JUMPDEST CALLVALUE DUP1 ISZERO PUSH2 0x129 JUMPI PUSH1 0x0 DUP1 REVERT JUMPDEST POP PUSH2 0x132 PUSH2 0x3C6 JUMP JUMPDEST PUSH1 0x40 MLOAD PUSH2 0x13F SWAP2 SWAP1 PUSH2 0x182C JUMP JUMPDEST PUSH1 0x40 MLOAD DUP1 SWAP2 SUB SWAP1 RETURN JUMPDEST PUSH2 0x15B PUSH2 0x156 CALLDATASIZE PUSH1 0x4 PUSH2 0x1973 JUMP JUMPDEST PUSH2 0x454 JUMP JUMPDEST PUSH1 0x40 MLOAD SWAP1 ISZERO ISZERO DUP2 MSTORE PUSH1 0x20 ADD PUSH2 0x13F JUMP JUMPDEST PUSH2 0x15B PUSH2 0x179 CALLDATASIZE PUSH1 0x4 PUSH2 0x1A2B JUMP JUMPDEST PUSH2 0x564 JUMP JUMPDEST CALLVALUE DUP1 ISZERO PUSH2 0x18A JUMPI PUSH1 0x0 DUP1 REVERT JUMPDEST POP PUSH1 0x7 SLOAD PUSH2 0x19E SWAP1 PUSH1 0x1 PUSH1 0x1 PUSH1 0xA0 SHL SUB AND DUP2 JUMP JUMPDEST PUSH1 0x40 MLOAD PUSH2 0x13F SWAP2 SWAP1 PUSH2 0x1A44 JUMP JUMPDEST CALLVALUE DUP1 ISZERO PUSH2 0x1B7 JUMPI PUSH1 0x0 DUP1 REVERT JUMPDEST POP PUSH2 0x10C PUSH2 0x6EF JUMP JUMPDEST CALLVALUE DUP1 ISZERO PUSH2 0x1CC JUMPI PUSH1 0x0 DUP1 REVERT JUMPDEST POP PUSH2 0x10C PUSH2 0x1DB CALLDATASIZE PUSH1 0x4 PUSH2 0x1A58 JUMP JUMPDEST PUSH2 0x7BE JUMP JUMPDEST CALLVALUE DUP1 ISZERO PUSH2 0x1EC JUMPI PUSH1 0x0 DUP1 REVERT JUMPDEST POP PUSH2 0x10C PUSH2 0x7DC JUMP JUMPDEST CALLVALUE DUP1 ISZERO PUSH2 0x201 JUMPI PUSH1 0x0 DUP1 REVERT JUMPDEST POP PUSH2 0x238 PUSH2 0x210 CALLDATASIZE PUSH1 0x4 PUSH2 0x1A7C JUMP JUMPDEST PUSH1 0x1 PUSH1 0x1 PUSH1 0xA0 SHL SUB SWAP2 SWAP1 SWAP2 AND PUSH1 0x0 SWAP1 DUP2 MSTORE PUSH1 0xB PUSH1 0x20 SWAP1 DUP2 MSTORE PUSH1 0x40 DUP1 DUP4 KECCAK256 SWAP4 DUP4 MSTORE SWAP3 SWAP1 MSTORE KECCAK256 SLOAD SWAP1 JUMP JUMPDEST PUSH1 0x40 MLOAD SWAP1 DUP2 MSTORE PUSH1 0x20 ADD PUSH2 0x13F JUMP JUMPDEST CALLVALUE DUP1 ISZERO PUSH2 0x252 JUMPI PUSH1 0x0 DUP1 REVERT JUMPDEST POP PUSH2 0x10C PUSH2 0x261 CALLDATASIZE PUSH1 0x4 PUSH2 0x1AB6 JUMP JUMPDEST PUSH2 0xA08 JUMP JUMPDEST CALLVALUE DUP1 ISZERO PUSH2 0x272 JUMPI PUSH1 0x0 DUP1 REVERT JUMPDEST POP PUSH2 0x10C PUSH2 0x281 CALLDATASIZE PUSH1 0x4 PUSH2 0x1A58 JUMP JUMPDEST PUSH2 0xA7B JUMP JUMPDEST CALLVALUE DUP1 ISZERO PUSH2 0x292 JUMPI PUSH1 0x0 DUP1 REVERT JUMPDEST POP PUSH2 0x15B PUSH2 0x2A1 CALLDATASIZE PUSH1 0x4 PUSH2 0x1B1B JUMP JUMPDEST PUSH2 0xF6F JUMP JUMPDEST CALLVALUE DUP1 ISZERO PUSH2 0x2B2 JUMPI PUSH1 0x0 DUP1 REVERT JUMPDEST POP PUSH2 0x132 PUSH2 0xFB6 JUMP JUMPDEST CALLVALUE DUP1 ISZERO PUSH2 0x2C7 JUMPI PUSH1 0x0 DUP1 REVERT JUMPDEST POP PUSH2 0x238 PUSH1 0x11 SLOAD DUP2 JUMP JUMPDEST CALLVALUE DUP1 ISZERO PUSH2 0x2DD JUMPI PUSH1 0x0 DUP1 REVERT JUMPDEST POP PUSH2 0x2F1 PUSH2 0x2EC CALLDATASIZE PUSH1 0x4 PUSH2 0x1A58 JUMP JUMPDEST PUSH2 0xFC3 JUMP JUMPDEST PUSH1 0x40 DUP1 MLOAD SWAP8 DUP9 MSTORE PUSH1 0x20 DUP9 ADD SWAP7 SWAP1 SWAP7 MSTORE SWAP5 DUP7 ADD SWAP4 SWAP1 SWAP4 MSTORE PUSH1 0x60 DUP6 ADD SWAP2 SWAP1 SWAP2 MSTORE PUSH1 0x80 DUP5 ADD MSTORE PUSH1 0xA0 DUP4 ADD MSTORE PUSH1 0xC0 DUP3 ADD MSTORE PUSH1 0xE0 ADD PUSH2 0x13F JUMP JUMPDEST CALLVALUE DUP1 ISZERO PUSH2 0x332 JUMPI PUSH1 0x0 DUP1 REVERT JUMPDEST POP PUSH2 0x10C PUSH2 0x341 CALLDATASIZE PUSH1 0x4 PUSH2 0x1A58 JUMP JUMPDEST PUSH2 0x10B7 JUMP JUMPDEST CALLVALUE DUP1 ISZERO PUSH2 0x352 JUMPI PUSH1 0x0 DUP1 REVERT JUMPDEST POP PUSH2 0x15B PUSH2 0x361 CALLDATASIZE PUSH1 0x4 PUSH2 0x1B54 JUMP JUMPDEST PUSH2 0x10F0 JUMP JUMPDEST CALLVALUE DUP1 ISZERO PUSH2 0x372 JUMPI PUSH1 0x0 DUP1 REVERT JUMPDEST POP PUSH2 0x386 PUSH2 0x381 CALLDATASIZE PUSH1 0x4 PUSH2 0x1A58 JUMP JUMPDEST PUSH2 0x1360 JUMP JUMPDEST PUSH1 0x40 MLOAD PUSH2 0x13F SWAP2 SWAP1 PUSH2 0x1B96 JUMP JUMPDEST CALLVALUE DUP1 ISZERO PUSH2 0x39F JUMPI PUSH1 0x0 DUP1 REVERT JUMPDEST POP PUSH2 0x10C PUSH2 0x3AE CALLDATASIZE PUSH1 0x4 PUSH2 0x1A58 JUMP JUMPDEST PUSH2 0x13D9 JUMP JUMPDEST PUSH2 0x15B PUSH2 0x3C1 CALLDATASIZE PUSH1 0x4 PUSH2 0x1A2B JUMP JUMPDEST PUSH2 0x140C JUMP JUMPDEST PUSH1 0x4 DUP1 SLOAD PUSH2 0x3D3 SWAP1 PUSH2 0x1BDA JUMP JUMPDEST DUP1 PUSH1 0x1F ADD PUSH1 0x20 DUP1 SWAP2 DIV MUL PUSH1 0x20 ADD PUSH1 0x40 MLOAD SWAP1 DUP2 ADD PUSH1 0x40 MSTORE DUP1 SWAP3 SWAP2 SWAP1 DUP2 DUP2 MSTORE PUSH1 0x20 ADD DUP3 DUP1 SLOAD PUSH2 0x3FF SWAP1 PUSH2 0x1BDA JUMP JUMPDEST DUP1 ISZERO PUSH2 0x44C JUMPI DUP1 PUSH1 0x1F LT PUSH2 0x421 JUMPI PUSH2 0x100 DUP1 DUP4 SLOAD DIV MUL DUP4 MSTORE SWAP2 PUSH1 0x20 ADD SWAP2 PUSH2 0x44C JUMP JUMPDEST DUP3 ADD SWAP2 SWAP1 PUSH1 0x0 MSTORE PUSH1 0x20 PUSH1 0x0 KECCAK256 SWAP1 JUMPDEST DUP2 SLOAD DUP2 MSTORE SWAP1 PUSH1 0x1 ADD SWAP1 PUSH1 0x20 ADD DUP1 DUP4 GT PUSH2 0x42F JUMPI DUP3 SWAP1 SUB PUSH1 0x1F AND DUP3 ADD SWAP2 JUMPDEST POP POP POP POP POP DUP2 JUMP JUMPDEST PUSH1 0x0 PUSH2 0x45F CALLER PUSH2 0x1438 JUMP JUMPDEST PUSH2 0x468 JUMPI PUSH1 0x0 DUP1 REVERT JUMPDEST PUSH1 0x0 DUP1 JUMPDEST DUP4 MLOAD DUP2 LT ISZERO PUSH2 0x55C JUMPI PUSH1 0x0 PUSH1 0x1 PUSH1 0x1 PUSH1 0xA0 SHL SUB AND DUP5 DUP3 DUP2 MLOAD DUP2 LT PUSH2 0x492 JUMPI PUSH2 0x492 PUSH2 0x1C14 JUMP JUMPDEST PUSH1 0x20 MUL PUSH1 0x20 ADD ADD MLOAD PUSH1 0x1 PUSH1 0x1 PUSH1 0xA0 SHL SUB AND SUB PUSH2 0x4B0 JUMPI PUSH2 0x4B0 PUSH2 0x1C2A JUMP JUMPDEST PUSH1 0x0 DUP5 DUP3 DUP2 MLOAD DUP2 LT PUSH2 0x4C4 JUMPI PUSH2 0x4C4 PUSH2 0x1C14 JUMP JUMPDEST PUSH1 0x20 MUL PUSH1 0x20 ADD ADD MLOAD PUSH1 0x1 PUSH1 0x1 PUSH1 0xA0 SHL SUB AND DUP7 DUP4 DUP2 MLOAD DUP2 LT PUSH2 0x4E7 JUMPI PUSH2 0x4E7 PUSH2 0x1C14 JUMP JUMPDEST PUSH1 0x20 MUL PUSH1 0x20 ADD ADD MLOAD PUSH1 0x40 MLOAD PUSH1 0x0 PUSH1 0x40 MLOAD DUP1 DUP4 SUB DUP2 DUP6 DUP8 GAS CALL SWAP3 POP POP POP RETURNDATASIZE DUP1 PUSH1 0x0 DUP2 EQ PUSH2 0x52F JUMPI PUSH1 0x40 MLOAD SWAP2 POP PUSH1 0x1F NOT PUSH1 0x3F RETURNDATASIZE ADD AND DUP3 ADD PUSH1 0x40 MSTORE RETURNDATASIZE DUP3 MSTORE RETURNDATASIZE PUSH1 0x0 PUSH1 0x20 DUP5 ADD RETURNDATACOPY PUSH2 0x534 JUMP JUMPDEST PUSH1 0x60 SWAP2 POP JUMPDEST POP SWAP1 SWAP2 POP POP PUSH1 0x1 DUP2 ISZERO ISZERO EQ PUSH2 0x548 JUMPI PUSH1 0x0 DUP1 REVERT JUMPDEST SWAP2 POP DUP1 PUSH2 0x554 DUP2 PUSH2 0x1C56 JUMP JUMPDEST SWAP2 POP POP PUSH2 0x46C JUMP JUMPDEST POP SWAP4 SWAP3 POP POP POP JUMP JUMPDEST PUSH1 0x0 PUSH1 0x10 SLOAD CALLVALUE LT ISZERO PUSH2 0x575 JUMPI PUSH1 0x0 DUP1 REVERT JUMPDEST PUSH1 0x11 SLOAD DUP3 GT ISZERO PUSH2 0x584 JUMPI PUSH1 0x0 DUP1 REVERT JUMPDEST PUSH1 0x8 SLOAD PUSH1 0x40 MLOAD PUSH4 0x70A08231 PUSH1 0xE0 SHL DUP2 MSTORE DUP4 SWAP2 PUSH1 0x1 PUSH1 0x1 PUSH1 0xA0 SHL SUB AND SWAP1 PUSH4 0x70A08231 SWAP1 PUSH2 0x5B4 SWAP1 CALLER SWAP1 PUSH1 0x4 ADD PUSH2 0x1A44 JUMP JUMPDEST PUSH1 0x20 PUSH1 0x40 MLOAD DUP1 DUP4 SUB DUP2 DUP7 GAS STATICCALL ISZERO DUP1 ISZERO PUSH2 0x5D1 JUMPI RETURNDATASIZE PUSH1 0x0 DUP1 RETURNDATACOPY RETURNDATASIZE PUSH1 0x0 REVERT JUMPDEST POP POP POP POP PUSH1 0x40 MLOAD RETURNDATASIZE PUSH1 0x1F NOT PUSH1 0x1F DUP3 ADD AND DUP3 ADD DUP1 PUSH1 0x40 MSTORE POP DUP2 ADD SWAP1 PUSH2 0x5F5 SWAP2 SWAP1 PUSH2 0x1C6F JUMP JUMPDEST LT ISZERO PUSH2 0x600 JUMPI PUSH1 0x0 DUP1 REVERT JUMPDEST PUSH1 0x8 SLOAD PUSH1 0x40 MLOAD PUSH4 0x6EB1769F PUSH1 0xE1 SHL DUP2 MSTORE CALLER PUSH1 0x4 DUP3 ADD MSTORE ADDRESS PUSH1 0x24 DUP3 ADD MSTORE DUP4 SWAP2 PUSH1 0x1 PUSH1 0x1 PUSH1 0xA0 SHL SUB AND SWAP1 PUSH4 0xDD62ED3E SWAP1 PUSH1 0x44 ADD PUSH1 0x20 PUSH1 0x40 MLOAD DUP1 DUP4 SUB DUP2 DUP7 GAS STATICCALL ISZERO DUP1 ISZERO PUSH2 0x64E JUMPI RETURNDATASIZE PUSH1 0x0 DUP1 RETURNDATACOPY RETURNDATASIZE PUSH1 0x0 REVERT JUMPDEST POP POP POP POP PUSH1 0x40 MLOAD RETURNDATASIZE PUSH1 0x1F NOT PUSH1 0x1F DUP3 ADD AND DUP3 ADD DUP1 PUSH1 0x40 MSTORE POP DUP2 ADD SWAP1 PUSH2 0x672 SWAP2 SWAP1 PUSH2 0x1C6F JUMP JUMPDEST LT ISZERO PUSH2 0x6C0 JUMPI PUSH1 0x40 MLOAD PUSH3 0x461BCD PUSH1 0xE5 SHL DUP2 MSTORE PUSH1 0x20 PUSH1 0x4 DUP3 ADD MSTORE PUSH1 0x18 PUSH1 0x24 DUP3 ADD MSTORE PUSH24 0x496E63726561736520616C6C6F77616E63652E2E2E4B454B PUSH1 0x40 SHL PUSH1 0x44 DUP3 ADD MSTORE PUSH1 0x64 ADD JUMPDEST PUSH1 0x40 MLOAD DUP1 SWAP2 SUB SWAP1 REVERT JUMPDEST PUSH1 0x0 PUSH2 0x6D8 CALLER PUSH1 0x8 SLOAD PUSH1 0x1 PUSH1 0x1 PUSH1 0xA0 SHL SUB AND DUP6 PUSH2 0x1456 JUMP JUMPDEST SWAP1 POP PUSH1 0x1 DUP2 ISZERO ISZERO EQ PUSH2 0x6E9 JUMPI PUSH1 0x0 DUP1 REVERT JUMPDEST SWAP3 SWAP2 POP POP JUMP JUMPDEST PUSH1 0x3 SLOAD PUSH1 0x1 PUSH1 0x1 PUSH1 0xA0 SHL SUB AND PUSH1 0x0 SWAP1 DUP2 MSTORE PUSH1 0xC PUSH1 0x20 MSTORE PUSH1 0x40 DUP2 KECCAK256 SWAP1 SELFBALANCE SWAP1 PUSH2 0x719 SWAP1 DUP3 SWAP1 ADDRESS SWAP1 PUSH2 0x1577 JUMP JUMPDEST ISZERO ISZERO PUSH1 0x1 EQ PUSH2 0x727 JUMPI PUSH1 0x0 DUP1 REVERT JUMPDEST DUP1 DUP3 PUSH1 0x0 ADD PUSH1 0x2 ADD PUSH1 0x0 DUP3 DUP3 SLOAD PUSH2 0x73E SWAP2 SWAP1 PUSH2 0x1C88 JUMP JUMPDEST SWAP1 SWAP2 SSTORE POP POP PUSH1 0x0 PUSH1 0x1 DUP4 ADD DUP2 SWAP1 SSTORE PUSH1 0x3 SLOAD PUSH1 0x40 MLOAD PUSH1 0x1 PUSH1 0x1 PUSH1 0xA0 SHL SUB SWAP1 SWAP2 AND SWAP2 DUP4 ISZERO PUSH2 0x8FC MUL SWAP2 DUP5 SWAP2 DUP2 DUP2 DUP2 DUP6 DUP9 DUP9 CALL SWAP4 POP POP POP POP ISZERO DUP1 ISZERO PUSH2 0x784 JUMPI RETURNDATASIZE PUSH1 0x0 DUP1 RETURNDATACOPY RETURNDATASIZE PUSH1 0x0 REVERT JUMPDEST POP PUSH1 0x40 MLOAD DUP2 DUP2 MSTORE ADDRESS SWAP1 PUSH32 0x7FCF532C15F0A6DB0BD6D0E038BEA71D30D808C7D98CB3BF7268A95BF5081B65 SWAP1 PUSH1 0x20 ADD PUSH1 0x40 MLOAD DUP1 SWAP2 SUB SWAP1 LOG2 POP POP JUMP JUMPDEST PUSH2 0x7C7 CALLER PUSH2 0x1438 JUMP JUMPDEST PUSH2 0x7D0 JUMPI PUSH1 0x0 DUP1 REVERT JUMPDEST PUSH2 0x7D9 DUP2 PUSH2 0x10B7 JUMP JUMPDEST POP JUMP JUMPDEST PUSH1 0x3 SLOAD PUSH1 0x1 PUSH1 0x1 PUSH1 0xA0 SHL SUB SWAP1 DUP2 AND PUSH1 0x0 SWAP1 DUP2 MSTORE PUSH1 0xC PUSH1 0x20 MSTORE PUSH1 0x40 DUP1 DUP3 KECCAK256 PUSH1 0x2 SLOAD SWAP1 SWAP4 AND DUP3 MSTORE DUP2 KECCAK256 SWAP1 SELFBALANCE SWAP1 DUP1 PUSH2 0x810 DUP4 PUSH2 0x170C JUMP JUMPDEST SWAP1 SWAP4 POP SWAP2 POP PUSH1 0x0 SWAP1 POP DUP3 DUP3 SELFBALANCE PUSH2 0x827 DUP2 ADDRESS DUP7 PUSH2 0x1577 JUMP JUMPDEST ISZERO ISZERO PUSH1 0x1 EQ PUSH2 0x835 JUMPI PUSH1 0x0 DUP1 REVERT JUMPDEST PUSH1 0x9 SLOAD PUSH1 0x40 MLOAD PUSH4 0x70A08231 PUSH1 0xE0 SHL DUP2 MSTORE PUSH1 0x0 SWAP2 PUSH1 0x1 PUSH1 0x1 PUSH1 0xA0 SHL SUB AND SWAP1 PUSH4 0x70A08231 SWAP1 PUSH2 0x866 SWAP1 ADDRESS SWAP1 PUSH1 0x4 ADD PUSH2 0x1A44 JUMP JUMPDEST PUSH1 0x20 PUSH1 0x40 MLOAD DUP1 DUP4 SUB DUP2 DUP7 GAS STATICCALL ISZERO DUP1 ISZERO PUSH2 0x883 JUMPI RETURNDATASIZE PUSH1 0x0 DUP1 RETURNDATACOPY RETURNDATASIZE PUSH1 0x0 REVERT JUMPDEST POP POP POP POP PUSH1 0x40 MLOAD RETURNDATASIZE PUSH1 0x1F NOT PUSH1 0x1F DUP3 ADD AND DUP3 ADD DUP1 PUSH1 0x40 MSTORE POP DUP2 ADD SWAP1 PUSH2 0x8A7 SWAP2 SWAP1 PUSH2 0x1C6F JUMP JUMPDEST PUSH1 0x9 SLOAD SWAP1 SWAP2 POP PUSH2 0x8C3 SWAP1 DUP3 SWAP1 PUSH1 0x1 PUSH1 0x1 PUSH1 0xA0 SHL SUB AND PUSH1 0x1 PUSH2 0x1577 JUMP JUMPDEST ISZERO ISZERO PUSH1 0x1 EQ PUSH2 0x8D1 JUMPI PUSH1 0x0 DUP1 REVERT JUMPDEST PUSH1 0xA PUSH1 0x0 SWAP1 SLOAD SWAP1 PUSH2 0x100 EXP SWAP1 DIV PUSH1 0x1 PUSH1 0x1 PUSH1 0xA0 SHL SUB AND PUSH1 0x1 PUSH1 0x1 PUSH1 0xA0 SHL SUB AND PUSH4 0xD0E30DB0 DUP10 PUSH1 0x40 MLOAD DUP3 PUSH4 0xFFFFFFFF AND PUSH1 0xE0 SHL DUP2 MSTORE PUSH1 0x4 ADD PUSH1 0x0 PUSH1 0x40 MLOAD DUP1 DUP4 SUB DUP2 DUP6 DUP9 DUP1 EXTCODESIZE ISZERO DUP1 ISZERO PUSH2 0x921 JUMPI PUSH1 0x0 DUP1 REVERT JUMPDEST POP GAS CALL SWAP4 POP POP POP POP DUP1 ISZERO PUSH2 0x933 JUMPI POP PUSH1 0x1 JUMPDEST PUSH2 0x940 JUMPI PUSH1 0x0 SWAP5 POP PUSH2 0x9B5 JUMP JUMPDEST DUP7 DUP11 PUSH1 0x0 ADD PUSH1 0x1 ADD PUSH1 0x0 DUP3 DUP3 SLOAD PUSH2 0x957 SWAP2 SWAP1 PUSH2 0x1CA0 JUMP JUMPDEST SWAP1 SWAP2 SSTORE POP POP PUSH1 0x9 DUP10 ADD DUP1 SLOAD DUP8 SWAP2 SWAP1 PUSH1 0x0 SWAP1 PUSH2 0x973 SWAP1 DUP5 SWAP1 PUSH2 0x1CA0 JUMP JUMPDEST SWAP1 SWAP2 SSTORE POP POP PUSH1 0x4 DUP11 ADD DUP1 SLOAD DUP6 SWAP2 SWAP1 PUSH1 0x0 SWAP1 PUSH2 0x98F SWAP1 DUP5 SWAP1 PUSH2 0x1C88 JUMP JUMPDEST SWAP1 SWAP2 SSTORE POP POP PUSH1 0xC DUP10 ADD DUP1 SLOAD DUP5 SWAP2 SWAP1 PUSH1 0x0 SWAP1 PUSH2 0x9AB SWAP1 DUP5 SWAP1 PUSH2 0x1C88 JUMP JUMPDEST SWAP1 SWAP2 SSTORE POP PUSH1 0x1 SWAP6 POP POP JUMPDEST PUSH1 0x1 DUP6 ISZERO ISZERO EQ PUSH2 0x9C7 JUMPI PUSH2 0x9C7 PUSH2 0x1C2A JUMP JUMPDEST PUSH1 0x40 MLOAD DUP9 DUP2 MSTORE ADDRESS SWAP1 PUSH32 0x4611F1757844FDC2D4237A951583CA101C93F843BDC2D91A0E3FCF1D7A64CD2 SWAP1 PUSH1 0x20 ADD PUSH1 0x40 MLOAD DUP1 SWAP2 SUB SWAP1 LOG2 POP POP POP POP POP POP POP POP POP POP JUMP JUMPDEST PUSH2 0xA11 CALLER PUSH2 0x1438 JUMP JUMPDEST PUSH2 0xA1A JUMPI PUSH1 0x0 DUP1 REVERT JUMPDEST PUSH2 0x1F40 DUP5 GT ISZERO PUSH2 0xA29 JUMPI PUSH1 0x0 DUP1 REVERT JUMPDEST PUSH1 0x6 SWAP4 SWAP1 SWAP4 SSTORE PUSH1 0x11 SWAP3 SWAP1 SWAP3 SSTORE PUSH1 0x12 DUP1 SLOAD PUSH1 0xFF NOT AND SWAP2 ISZERO ISZERO SWAP2 SWAP1 SWAP2 OR SWAP1 SSTORE PUSH1 0x10 SSTORE PUSH1 0x9 DUP1 SLOAD PUSH1 0x1 PUSH1 0x1 PUSH1 0xA0 SHL SUB NOT SWAP1 DUP2 AND PUSH1 0x1 PUSH1 0x1 PUSH1 0xA0 SHL SUB SWAP4 DUP5 AND OR SWAP1 SWAP2 SSTORE PUSH1 0x8 DUP1 SLOAD SWAP1 SWAP2 AND SWAP3 SWAP1 SWAP2 AND SWAP2 SWAP1 SWAP2 OR SWAP1 SSTORE JUMP JUMPDEST PUSH1 0x3 SLOAD PUSH1 0x1 PUSH1 0x1 PUSH1 0xA0 SHL SUB SWAP1 DUP2 AND PUSH1 0x0 SWAP1 DUP2 MSTORE PUSH1 0xC PUSH1 0x20 MSTORE PUSH1 0x40 DUP1 DUP3 KECCAK256 PUSH1 0x2 SLOAD DUP5 AND DUP4 MSTORE DUP2 DUP4 KECCAK256 SWAP2 MLOAD PUSH4 0x70A08231 PUSH1 0xE0 SHL DUP2 MSTORE SWAP1 SWAP4 SWAP2 SWAP3 SWAP2 DUP6 AND SWAP1 PUSH4 0x70A08231 SWAP1 PUSH2 0xACA SWAP1 ADDRESS SWAP1 PUSH1 0x4 ADD PUSH2 0x1A44 JUMP JUMPDEST PUSH1 0x20 PUSH1 0x40 MLOAD DUP1 DUP4 SUB DUP2 DUP7 GAS STATICCALL ISZERO DUP1 ISZERO PUSH2 0xAE7 JUMPI RETURNDATASIZE PUSH1 0x0 DUP1 RETURNDATACOPY RETURNDATASIZE PUSH1 0x0 REVERT JUMPDEST POP POP POP POP PUSH1 0x40 MLOAD RETURNDATASIZE PUSH1 0x1F NOT PUSH1 0x1F DUP3 ADD AND DUP3 ADD DUP1 PUSH1 0x40 MSTORE POP DUP2 ADD SWAP1 PUSH2 0xB0B SWAP2 SWAP1 PUSH2 0x1C6F JUMP JUMPDEST SWAP1 POP PUSH1 0x0 DUP1 PUSH2 0xB19 DUP4 PUSH2 0x170C JUMP JUMPDEST PUSH1 0x40 MLOAD PUSH4 0x70A08231 PUSH1 0xE0 SHL DUP2 MSTORE SWAP2 SWAP5 POP SWAP3 POP DUP4 SWAP2 POP DUP3 SWAP1 PUSH1 0x0 SWAP1 PUSH1 0x1 PUSH1 0x1 PUSH1 0xA0 SHL SUB DUP11 AND SWAP1 PUSH4 0x70A08231 SWAP1 PUSH2 0xB52 SWAP1 ADDRESS SWAP1 PUSH1 0x4 ADD PUSH2 0x1A44 JUMP JUMPDEST PUSH1 0x20 PUSH1 0x40 MLOAD DUP1 DUP4 SUB DUP2 DUP7 GAS STATICCALL ISZERO DUP1 ISZERO PUSH2 0xB6F JUMPI RETURNDATASIZE PUSH1 0x0 DUP1 RETURNDATACOPY RETURNDATASIZE PUSH1 0x0 REVERT JUMPDEST POP POP POP POP PUSH1 0x40 MLOAD RETURNDATASIZE PUSH1 0x1F NOT PUSH1 0x1F DUP3 ADD AND DUP3 ADD DUP1 PUSH1 0x40 MSTORE POP DUP2 ADD SWAP1 PUSH2 0xB93 SWAP2 SWAP1 PUSH2 0x1C6F JUMP JUMPDEST SWAP1 POP PUSH2 0xBA1 DUP2 DUP11 PUSH1 0x1 PUSH2 0x1577 JUMP JUMPDEST ISZERO ISZERO PUSH1 0x1 EQ PUSH2 0xBAF JUMPI PUSH1 0x0 DUP1 REVERT JUMPDEST PUSH1 0x9 SLOAD PUSH1 0x1 PUSH1 0x1 PUSH1 0xA0 SHL SUB SWAP1 DUP2 AND SWAP1 DUP11 AND SUB PUSH2 0xD2E JUMPI DUP3 DUP9 PUSH1 0x0 ADD PUSH1 0x4 ADD PUSH1 0x0 DUP3 DUP3 SLOAD PUSH2 0xBDC SWAP2 SWAP1 PUSH2 0x1CA0 JUMP JUMPDEST SWAP1 SWAP2 SSTORE POP POP PUSH1 0xC DUP8 ADD DUP1 SLOAD DUP4 SWAP2 SWAP1 PUSH1 0x0 SWAP1 PUSH2 0xBF8 SWAP1 DUP5 SWAP1 PUSH2 0x1CA0 JUMP JUMPDEST SWAP1 SWAP2 SSTORE POP POP PUSH1 0x6 DUP9 ADD DUP1 SLOAD DUP7 SWAP2 SWAP1 PUSH1 0x0 SWAP1 PUSH2 0xC14 SWAP1 DUP5 SWAP1 PUSH2 0x1C88 JUMP JUMPDEST SWAP1 SWAP2 SSTORE POP POP PUSH1 0xE DUP8 ADD DUP1 SLOAD DUP6 SWAP2 SWAP1 PUSH1 0x0 SWAP1 PUSH2 0xC30 SWAP1 DUP5 SWAP1 PUSH2 0x1C88 JUMP JUMPDEST SWAP1 SWAP2 SSTORE POP POP PUSH1 0x9 SLOAD PUSH1 0x3 SLOAD PUSH1 0x40 MLOAD PUSH4 0xA9059CBB PUSH1 0xE0 SHL DUP2 MSTORE PUSH1 0x1 PUSH1 0x1 PUSH1 0xA0 SHL SUB SWAP3 DUP4 AND SWAP3 PUSH4 0xA9059CBB SWAP3 PUSH2 0xC6B SWAP3 SWAP2 AND SWAP1 DUP10 SWAP1 PUSH1 0x4 ADD PUSH2 0x1CB7 JUMP JUMPDEST PUSH1 0x20 PUSH1 0x40 MLOAD DUP1 DUP4 SUB DUP2 PUSH1 0x0 DUP8 GAS CALL ISZERO DUP1 ISZERO PUSH2 0xC8A JUMPI RETURNDATASIZE PUSH1 0x0 DUP1 RETURNDATACOPY RETURNDATASIZE PUSH1 0x0 REVERT JUMPDEST POP POP POP POP PUSH1 0x40 MLOAD RETURNDATASIZE PUSH1 0x1F NOT PUSH1 0x1F DUP3 ADD AND DUP3 ADD DUP1 PUSH1 0x40 MSTORE POP DUP2 ADD SWAP1 PUSH2 0xCAE SWAP2 SWAP1 PUSH2 0x1CD0 JUMP JUMPDEST POP PUSH1 0x9 SLOAD PUSH1 0x2 SLOAD PUSH1 0x40 MLOAD PUSH4 0xA9059CBB PUSH1 0xE0 SHL DUP2 MSTORE PUSH1 0x1 PUSH1 0x1 PUSH1 0xA0 SHL SUB SWAP3 DUP4 AND SWAP3 PUSH4 0xA9059CBB SWAP3 PUSH2 0xCE5 SWAP3 SWAP2 AND SWAP1 DUP9 SWAP1 PUSH1 0x4 ADD PUSH2 0x1CB7 JUMP JUMPDEST PUSH1 0x20 PUSH1 0x40 MLOAD DUP1 DUP4 SUB DUP2 PUSH1 0x0 DUP8 GAS CALL ISZERO DUP1 ISZERO PUSH2 0xD04 JUMPI RETURNDATASIZE PUSH1 0x0 DUP1 RETURNDATACOPY RETURNDATASIZE PUSH1 0x0 REVERT JUMPDEST POP POP POP POP PUSH1 0x40 MLOAD RETURNDATASIZE PUSH1 0x1F NOT PUSH1 0x1F DUP3 ADD AND DUP3 ADD DUP1 PUSH1 0x40 MSTORE POP DUP2 ADD SWAP1 PUSH2 0xD28 SWAP2 SWAP1 PUSH2 0x1CD0 JUMP JUMPDEST POP PUSH2 0xF24 JUMP JUMPDEST PUSH1 0x8 SLOAD PUSH1 0x1 PUSH1 0x1 PUSH1 0xA0 SHL SUB DUP11 DUP2 AND SWAP2 AND EQ DUP1 ISZERO PUSH2 0xD52 JUMPI POP PUSH1 0x12 SLOAD PUSH1 0xFF AND ISZERO ISZERO PUSH1 0x1 EQ JUMPDEST ISZERO PUSH2 0xE73 JUMPI DUP3 DUP9 PUSH1 0x0 ADD PUSH1 0x5 ADD PUSH1 0x0 DUP3 DUP3 SLOAD PUSH2 0xD6E SWAP2 SWAP1 PUSH2 0x1CA0 JUMP JUMPDEST SWAP1 SWAP2 SSTORE POP POP PUSH1 0xD DUP8 ADD DUP1 SLOAD DUP4 SWAP2 SWAP1 PUSH1 0x0 SWAP1 PUSH2 0xD8A SWAP1 DUP5 SWAP1 PUSH2 0x1CA0 JUMP JUMPDEST SWAP1 SWAP2 SSTORE POP POP PUSH1 0x6 DUP9 ADD DUP1 SLOAD DUP7 SWAP2 SWAP1 PUSH1 0x0 SWAP1 PUSH2 0xDA6 SWAP1 DUP5 SWAP1 PUSH2 0x1C88 JUMP JUMPDEST SWAP1 SWAP2 SSTORE POP POP PUSH1 0xE DUP8 ADD DUP1 SLOAD DUP6 SWAP2 SWAP1 PUSH1 0x0 SWAP1 PUSH2 0xDC2 SWAP1 DUP5 SWAP1 PUSH2 0x1C88 JUMP JUMPDEST SWAP1 SWAP2 SSTORE POP POP PUSH1 0x3 SLOAD PUSH1 0x40 MLOAD PUSH4 0xA9059CBB PUSH1 0xE0 SHL DUP2 MSTORE PUSH1 0x1 PUSH1 0x1 PUSH1 0xA0 SHL SUB DUP12 DUP2 AND SWAP3 PUSH4 0xA9059CBB SWAP3 PUSH2 0xDFB SWAP3 SWAP1 SWAP2 AND SWAP1 DUP10 SWAP1 PUSH1 0x4 ADD PUSH2 0x1CB7 JUMP JUMPDEST PUSH1 0x20 PUSH1 0x40 MLOAD DUP1 DUP4 SUB DUP2 PUSH1 0x0 DUP8 GAS CALL ISZERO DUP1 ISZERO PUSH2 0xE1A JUMPI RETURNDATASIZE PUSH1 0x0 DUP1 RETURNDATACOPY RETURNDATASIZE PUSH1 0x0 REVERT JUMPDEST POP POP POP POP PUSH1 0x40 MLOAD RETURNDATASIZE PUSH1 0x1F NOT PUSH1 0x1F DUP3 ADD AND DUP3 ADD DUP1 PUSH1 0x40 MSTORE POP DUP2 ADD SWAP1 PUSH2 0xE3E SWAP2 SWAP1 PUSH2 0x1CD0 JUMP JUMPDEST POP PUSH1 0x2 SLOAD PUSH1 0x40 MLOAD PUSH4 0xA9059CBB PUSH1 0xE0 SHL DUP2 MSTORE PUSH1 0x1 PUSH1 0x1 PUSH1 0xA0 SHL SUB DUP12 DUP2 AND SWAP3 PUSH4 0xA9059CBB SWAP3 PUSH2 0xCE5 SWAP3 SWAP1 SWAP2 AND SWAP1 DUP9 SWAP1 PUSH1 0x4 ADD PUSH2 0x1CB7 JUMP JUMPDEST DUP6 DUP9 PUSH1 0x0 ADD PUSH1 0x5 ADD PUSH1 0x0 DUP3 DUP3 SLOAD PUSH2 0xE8A SWAP2 SWAP1 PUSH2 0x1CA0 JUMP JUMPDEST SWAP1 SWAP2 SSTORE POP POP PUSH1 0x6 DUP9 ADD DUP1 SLOAD DUP8 SWAP2 SWAP1 PUSH1 0x0 SWAP1 PUSH2 0xEA6 SWAP1 DUP5 SWAP1 PUSH2 0x1C88 JUMP JUMPDEST SWAP1 SWAP2 SSTORE POP POP PUSH1 0x3 SLOAD PUSH1 0x40 MLOAD PUSH4 0xA9059CBB PUSH1 0xE0 SHL DUP2 MSTORE PUSH1 0x1 PUSH1 0x1 PUSH1 0xA0 SHL SUB DUP12 DUP2 AND SWAP3 PUSH4 0xA9059CBB SWAP3 PUSH2 0xEDF SWAP3 SWAP1 SWAP2 AND SWAP1 DUP11 SWAP1 PUSH1 0x4 ADD PUSH2 0x1CB7 JUMP JUMPDEST PUSH1 0x20 PUSH1 0x40 MLOAD DUP1 DUP4 SUB DUP2 PUSH1 0x0 DUP8 GAS CALL ISZERO DUP1 ISZERO PUSH2 0xEFE JUMPI RETURNDATASIZE PUSH1 0x0 DUP1 RETURNDATACOPY RETURNDATASIZE PUSH1 0x0 REVERT JUMPDEST POP POP POP POP PUSH1 0x40 MLOAD RETURNDATASIZE PUSH1 0x1F NOT PUSH1 0x1F DUP3 ADD AND DUP3 ADD DUP1 PUSH1 0x40 MSTORE POP DUP2 ADD SWAP1 PUSH2 0xF22 SWAP2 SWAP1 PUSH2 0x1CD0 JUMP JUMPDEST POP JUMPDEST PUSH1 0x40 MLOAD DUP7 DUP2 MSTORE PUSH1 0x1 PUSH1 0x1 PUSH1 0xA0 SHL SUB DUP11 AND SWAP1 ADDRESS SWAP1 PUSH32 0x37238854FE57FBF51F09946F854FC3916FE83938D6521F09BD05463839F1304 SWAP1 PUSH1 0x20 ADD PUSH1 0x40 MLOAD DUP1 SWAP2 SUB SWAP1 LOG3 POP POP POP POP POP POP POP POP POP JUMP JUMPDEST PUSH1 0x0 PUSH2 0xF7A CALLER PUSH2 0x1438 JUMP JUMPDEST PUSH2 0xF83 JUMPI PUSH1 0x0 DUP1 REVERT JUMPDEST PUSH1 0x1 PUSH1 0x1 PUSH1 0xA0 SHL SUB DUP4 AND CALLER EQ PUSH2 0xF98 JUMPI PUSH1 0x0 DUP1 REVERT JUMPDEST PUSH1 0x0 PUSH2 0xFA3 DUP4 PUSH2 0x10B7 JUMP JUMPDEST PUSH2 0xFAC DUP5 PUSH2 0x13D9 JUMP JUMPDEST POP PUSH1 0x1 SWAP4 SWAP3 POP POP POP JUMP JUMPDEST PUSH1 0x5 DUP1 SLOAD PUSH2 0x3D3 SWAP1 PUSH2 0x1BDA JUMP JUMPDEST PUSH1 0x0 DUP1 DUP1 DUP1 DUP1 DUP1 DUP1 PUSH2 0xFD4 CALLER PUSH2 0x1438 JUMP JUMPDEST PUSH2 0xFDD JUMPI PUSH1 0x0 DUP1 REVERT JUMPDEST PUSH1 0x1 PUSH1 0x1 PUSH1 0xA0 SHL SUB DUP1 DUP10 AND PUSH1 0x0 DUP2 DUP2 MSTORE PUSH1 0xC PUSH1 0x20 MSTORE PUSH1 0x40 DUP2 KECCAK256 PUSH1 0x3 SLOAD SWAP1 SWAP4 SWAP2 SWAP3 DUP4 SWAP3 DUP4 SWAP3 DUP4 SWAP3 DUP4 SWAP3 SWAP2 SWAP1 SWAP2 AND SWAP1 SUB PUSH2 0x1037 JUMPI POP POP POP PUSH1 0x1 DUP4 ADD SLOAD PUSH1 0x5 DUP5 ADD SLOAD PUSH1 0x4 DUP6 ADD SLOAD PUSH1 0x2 DUP7 ADD SLOAD PUSH1 0x6 DUP8 ADD SLOAD SWAP4 SWAP6 POP SWAP2 SWAP4 POP SWAP2 PUSH2 0x1099 JUMP JUMPDEST PUSH1 0x2 SLOAD PUSH1 0x1 PUSH1 0x1 PUSH1 0xA0 SHL SUB SWAP1 DUP2 AND SWAP1 DUP16 AND SUB PUSH2 0x1075 JUMPI POP POP POP PUSH1 0x9 DUP4 ADD SLOAD PUSH1 0xD DUP5 ADD SLOAD PUSH1 0xC DUP6 ADD SLOAD PUSH1 0xA DUP7 ADD SLOAD PUSH1 0xE DUP8 ADD SLOAD SWAP4 SWAP6 POP SWAP2 SWAP4 POP SWAP2 PUSH2 0x1099 JUMP JUMPDEST POP POP POP PUSH1 0x11 DUP4 ADD SLOAD PUSH1 0x15 DUP5 ADD SLOAD PUSH1 0x14 DUP6 ADD SLOAD PUSH1 0x12 DUP7 ADD SLOAD PUSH1 0x16 DUP8 ADD SLOAD SWAP4 SWAP6 POP SWAP2 SWAP4 POP SWAP2 JUMPDEST PUSH1 0xD SLOAD PUSH1 0xE SLOAD SWAP1 SWAP16 SWAP1 SWAP15 POP SWAP5 SWAP13 POP SWAP3 SWAP11 POP SWAP1 SWAP9 POP SWAP7 POP SWAP5 POP SWAP3 POP POP POP JUMP JUMPDEST PUSH2 0x10C0 CALLER PUSH2 0x1438 JUMP JUMPDEST PUSH2 0x10C9 JUMPI PUSH1 0x0 DUP1 REVERT JUMPDEST PUSH1 0x1 PUSH1 0x1 PUSH1 0xA0 SHL SUB AND PUSH1 0x0 SWAP1 DUP2 MSTORE PUSH1 0x1 PUSH1 0x20 DUP2 SWAP1 MSTORE PUSH1 0x40 SWAP1 SWAP2 KECCAK256 DUP1 SLOAD PUSH1 0xFF NOT AND SWAP1 SWAP2 OR SWAP1 SSTORE JUMP JUMPDEST PUSH1 0x0 PUSH2 0x10FB CALLER PUSH2 0x1438 JUMP JUMPDEST PUSH2 0x1104 JUMPI PUSH1 0x0 DUP1 REVERT JUMPDEST PUSH1 0x3 SLOAD PUSH1 0x1 PUSH1 0x1 PUSH1 0xA0 SHL SUB SWAP1 DUP2 AND SWAP1 DUP4 AND PUSH2 0x1121 JUMPI PUSH2 0x1121 PUSH2 0x1C2A JUMP JUMPDEST PUSH1 0x3 SLOAD DUP5 SWAP1 PUSH1 0x0 SWAP1 PUSH1 0x1 PUSH1 0x1 PUSH1 0xA0 SHL SUB DUP1 DUP10 AND SWAP2 AND SUB PUSH2 0x11AE JUMPI DUP5 SWAP3 POP PUSH1 0x0 DUP4 PUSH1 0x1 PUSH1 0x1 PUSH1 0xA0 SHL SUB AND DUP4 PUSH1 0x40 MLOAD PUSH1 0x0 PUSH1 0x40 MLOAD DUP1 DUP4 SUB DUP2 DUP6 DUP8 GAS CALL SWAP3 POP POP POP RETURNDATASIZE DUP1 PUSH1 0x0 DUP2 EQ PUSH2 0x118B JUMPI PUSH1 0x40 MLOAD SWAP2 POP PUSH1 0x1F NOT PUSH1 0x3F RETURNDATASIZE ADD AND DUP3 ADD PUSH1 0x40 MSTORE RETURNDATASIZE DUP3 MSTORE RETURNDATASIZE PUSH1 0x0 PUSH1 0x20 DUP5 ADD RETURNDATACOPY PUSH2 0x1190 JUMP JUMPDEST PUSH1 0x60 SWAP2 POP JUMPDEST POP SWAP1 SWAP2 POP POP PUSH1 0x1 DUP2 ISZERO ISZERO EQ PUSH2 0x11A4 JUMPI PUSH1 0x0 DUP1 REVERT JUMPDEST PUSH1 0x1 SWAP2 POP POP PUSH2 0x134C JUMP JUMPDEST PUSH1 0x2 SLOAD PUSH1 0x1 PUSH1 0x1 PUSH1 0xA0 SHL SUB DUP1 DUP10 AND SWAP2 AND SUB PUSH2 0x1347 JUMPI DUP5 SWAP3 POP PUSH1 0x0 PUSH2 0x2710 PUSH1 0xF SLOAD DUP9 PUSH2 0x11D9 SWAP2 SWAP1 PUSH2 0x1CED JUMP JUMPDEST PUSH2 0x11E3 SWAP2 SWAP1 PUSH2 0x1D0C JUMP JUMPDEST SWAP1 POP PUSH2 0x11EF DUP2 DUP9 PUSH2 0x1CA0 JUMP JUMPDEST SWAP7 POP PUSH1 0x0 DUP1 PUSH2 0x11FD DUP4 PUSH2 0x170C JUMP JUMPDEST SWAP3 POP SWAP3 POP POP PUSH1 0x0 DUP7 PUSH1 0x1 PUSH1 0x1 PUSH1 0xA0 SHL SUB AND DUP11 PUSH1 0x40 MLOAD PUSH1 0x0 PUSH1 0x40 MLOAD DUP1 DUP4 SUB DUP2 DUP6 DUP8 GAS CALL SWAP3 POP POP POP RETURNDATASIZE DUP1 PUSH1 0x0 DUP2 EQ PUSH2 0x124F JUMPI PUSH1 0x40 MLOAD SWAP2 POP PUSH1 0x1F NOT PUSH1 0x3F RETURNDATASIZE ADD AND DUP3 ADD PUSH1 0x40 MSTORE RETURNDATASIZE DUP3 MSTORE RETURNDATASIZE PUSH1 0x0 PUSH1 0x20 DUP5 ADD RETURNDATACOPY PUSH2 0x1254 JUMP JUMPDEST PUSH1 0x60 SWAP2 POP JUMPDEST POP POP PUSH1 0x3 SLOAD PUSH1 0x40 MLOAD SWAP2 SWAP3 POP PUSH1 0x0 SWAP2 PUSH1 0x1 PUSH1 0x1 PUSH1 0xA0 SHL SUB SWAP1 SWAP2 AND SWAP1 DUP6 SWAP1 DUP4 DUP2 DUP2 DUP2 DUP6 DUP8 GAS CALL SWAP3 POP POP POP RETURNDATASIZE DUP1 PUSH1 0x0 DUP2 EQ PUSH2 0x12A8 JUMPI PUSH1 0x40 MLOAD SWAP2 POP PUSH1 0x1F NOT PUSH1 0x3F RETURNDATASIZE ADD AND DUP3 ADD PUSH1 0x40 MSTORE RETURNDATASIZE DUP3 MSTORE RETURNDATASIZE PUSH1 0x0 PUSH1 0x20 DUP5 ADD RETURNDATACOPY PUSH2 0x12AD JUMP JUMPDEST PUSH1 0x60 SWAP2 POP JUMPDEST POP POP PUSH1 0x2 SLOAD PUSH1 0x40 MLOAD SWAP2 SWAP3 POP PUSH1 0x0 SWAP2 PUSH1 0x1 PUSH1 0x1 PUSH1 0xA0 SHL SUB SWAP1 SWAP2 AND SWAP1 DUP6 SWAP1 DUP4 DUP2 DUP2 DUP2 DUP6 DUP8 GAS CALL SWAP3 POP POP POP RETURNDATASIZE DUP1 PUSH1 0x0 DUP2 EQ PUSH2 0x1301 JUMPI PUSH1 0x40 MLOAD SWAP2 POP PUSH1 0x1F NOT PUSH1 0x3F RETURNDATASIZE ADD AND DUP3 ADD PUSH1 0x40 MSTORE RETURNDATASIZE DUP3 MSTORE RETURNDATASIZE PUSH1 0x0 PUSH1 0x20 DUP5 ADD RETURNDATACOPY PUSH2 0x1306 JUMP JUMPDEST PUSH1 0x60 SWAP2 POP JUMPDEST POP SWAP1 SWAP2 POP POP PUSH1 0x1 DUP4 ISZERO ISZERO EQ PUSH2 0x131A JUMPI PUSH1 0x0 DUP1 REVERT JUMPDEST PUSH1 0x1 DUP3 ISZERO ISZERO EQ PUSH2 0x1329 JUMPI PUSH1 0x0 DUP1 REVERT JUMPDEST PUSH1 0x1 DUP2 ISZERO ISZERO EQ PUSH2 0x1338 JUMPI PUSH1 0x0 DUP1 REVERT JUMPDEST PUSH1 0x1 SWAP7 POP POP POP POP POP POP POP PUSH2 0x134C JUMP JUMPDEST PUSH1 0x0 DUP1 REVERT JUMPDEST DUP1 PUSH2 0x1356 JUMPI PUSH1 0x0 DUP1 REVERT JUMPDEST SWAP7 SWAP6 POP POP POP POP POP POP JUMP JUMPDEST PUSH1 0x1 PUSH1 0x1 PUSH1 0xA0 SHL SUB DUP2 AND PUSH1 0x0 SWAP1 DUP2 MSTORE PUSH1 0xC PUSH1 0x20 SWAP1 DUP2 MSTORE PUSH1 0x40 SWAP2 DUP3 SWAP1 KECCAK256 PUSH1 0x10 DUP2 ADD DUP1 SLOAD DUP5 MLOAD DUP2 DUP6 MUL DUP2 ADD DUP6 ADD SWAP1 SWAP6 MSTORE DUP1 DUP6 MSTORE PUSH1 0x60 SWAP5 SWAP3 SWAP4 SWAP2 SWAP3 SWAP2 DUP4 SWAP2 SWAP1 DUP4 ADD DUP3 DUP3 DUP1 ISZERO PUSH2 0x13CB JUMPI PUSH1 0x20 MUL DUP3 ADD SWAP2 SWAP1 PUSH1 0x0 MSTORE PUSH1 0x20 PUSH1 0x0 KECCAK256 SWAP1 JUMPDEST DUP2 SLOAD DUP2 MSTORE PUSH1 0x20 ADD SWAP1 PUSH1 0x1 ADD SWAP1 DUP1 DUP4 GT PUSH2 0x13B7 JUMPI JUMPDEST POP POP POP POP POP SWAP3 POP POP POP SWAP2 SWAP1 POP JUMP JUMPDEST PUSH2 0x13E2 CALLER PUSH2 0x1438 JUMP JUMPDEST PUSH2 0x13EB JUMPI PUSH1 0x0 DUP1 REVERT JUMPDEST PUSH1 0x1 PUSH1 0x1 PUSH1 0xA0 SHL SUB AND PUSH1 0x0 SWAP1 DUP2 MSTORE PUSH1 0x1 PUSH1 0x20 MSTORE PUSH1 0x40 SWAP1 KECCAK256 DUP1 SLOAD PUSH1 0xFF NOT AND SWAP1 SSTORE JUMP JUMPDEST PUSH1 0x0 PUSH1 0x10 SLOAD CALLVALUE LT ISZERO PUSH2 0x141D JUMPI PUSH1 0x0 DUP1 REVERT JUMPDEST PUSH1 0x28 PUSH1 0x11 SLOAD PUSH2 0x142C SWAP2 SWAP1 PUSH2 0x1CED JUMP JUMPDEST DUP3 GT ISZERO PUSH2 0x584 JUMPI PUSH1 0x0 DUP1 REVERT JUMPDEST PUSH1 0x1 PUSH1 0x1 PUSH1 0xA0 SHL SUB AND PUSH1 0x0 SWAP1 DUP2 MSTORE PUSH1 0x1 PUSH1 0x20 MSTORE PUSH1 0x40 SWAP1 KECCAK256 SLOAD PUSH1 0xFF AND SWAP1 JUMP JUMPDEST PUSH1 0x8 SLOAD PUSH1 0x0 SWAP1 DUP3 SWAP1 DUP3 SWAP1 PUSH1 0x1 PUSH1 0x1 PUSH1 0xA0 SHL SUB SWAP1 DUP2 AND SWAP1 DUP7 AND SUB PUSH2 0x1535 JUMPI DUP4 PUSH1 0xE PUSH1 0x0 DUP3 DUP3 SLOAD PUSH2 0x1485 SWAP2 SWAP1 PUSH2 0x1C88 JUMP JUMPDEST SWAP3 POP POP DUP2 SWAP1 SSTORE POP CALLVALUE PUSH1 0xD PUSH1 0x0 DUP3 DUP3 SLOAD PUSH2 0x149E SWAP2 SWAP1 PUSH2 0x1C88 JUMP JUMPDEST SWAP1 SWAP2 SSTORE POP POP PUSH1 0x8 SLOAD PUSH1 0x40 MLOAD PUSH4 0x23B872DD PUSH1 0xE0 SHL DUP2 MSTORE PUSH1 0x1 PUSH1 0x1 PUSH1 0xA0 SHL SUB DUP9 DUP2 AND PUSH1 0x4 DUP4 ADD MSTORE ADDRESS PUSH1 0x24 DUP4 ADD MSTORE PUSH1 0x44 DUP3 ADD DUP8 SWAP1 MSTORE SWAP1 SWAP2 AND SWAP1 PUSH4 0x23B872DD SWAP1 PUSH1 0x64 ADD PUSH1 0x20 PUSH1 0x40 MLOAD DUP1 DUP4 SUB DUP2 PUSH1 0x0 DUP8 GAS CALL ISZERO DUP1 ISZERO PUSH2 0x14FC JUMPI RETURNDATASIZE PUSH1 0x0 DUP1 RETURNDATACOPY RETURNDATASIZE PUSH1 0x0 REVERT JUMPDEST POP POP POP POP PUSH1 0x40 MLOAD RETURNDATASIZE PUSH1 0x1F NOT PUSH1 0x1F DUP3 ADD AND DUP3 ADD DUP1 PUSH1 0x40 MSTORE POP DUP2 ADD SWAP1 PUSH2 0x1520 SWAP2 SWAP1 PUSH2 0x1CD0 JUMP JUMPDEST POP PUSH2 0x152D DUP7 DUP4 PUSH1 0x1 PUSH2 0x1793 JUMP JUMPDEST POP PUSH1 0x1 PUSH2 0x156E JUMP JUMPDEST POP PUSH1 0x40 MLOAD PUSH3 0x461BCD PUSH1 0xE5 SHL DUP2 MSTORE PUSH1 0x20 PUSH1 0x4 DUP3 ADD MSTORE PUSH1 0xA PUSH1 0x24 DUP3 ADD MSTORE PUSH10 0x854D5541413D4951151 PUSH1 0xB2 SHL PUSH1 0x44 DUP3 ADD MSTORE PUSH1 0x0 SWAP1 PUSH1 0x64 ADD PUSH2 0x6B7 JUMP JUMPDEST SWAP6 SWAP5 POP POP POP POP POP JUMP JUMPDEST PUSH1 0x0 PUSH2 0x1582 CALLER PUSH2 0x1438 JUMP JUMPDEST PUSH2 0x158B JUMPI PUSH1 0x0 DUP1 REVERT JUMPDEST PUSH1 0x3 SLOAD PUSH1 0x1 PUSH1 0x1 PUSH1 0xA0 SHL SUB SWAP1 DUP2 AND PUSH1 0x0 SWAP1 DUP2 MSTORE PUSH1 0xC PUSH1 0x20 MSTORE PUSH1 0x40 DUP1 DUP3 KECCAK256 PUSH1 0x2 SLOAD SWAP1 SWAP4 AND DUP3 MSTORE DUP2 KECCAK256 SWAP1 DUP1 DUP1 PUSH2 0x15BE DUP10 PUSH2 0x170C JUMP JUMPDEST SWAP2 SWAP5 POP SWAP3 POP SWAP1 POP PUSH1 0x0 PUSH1 0x1 DUP9 ISZERO ISZERO EQ DUP1 ISZERO PUSH2 0x15E6 JUMPI POP PUSH1 0x9 SLOAD PUSH1 0x1 PUSH1 0x1 PUSH1 0xA0 SHL SUB DUP11 DUP2 AND SWAP2 AND EQ JUMPDEST ISZERO PUSH2 0x1601 JUMPI POP PUSH1 0x4 DUP6 ADD DUP3 SWAP1 SSTORE PUSH1 0xC DUP5 ADD DUP2 SWAP1 SSTORE PUSH1 0x1 PUSH2 0x16B2 JUMP JUMPDEST PUSH1 0x1 DUP9 ISZERO ISZERO EQ DUP1 ISZERO PUSH2 0x1620 JUMPI POP PUSH1 0x8 SLOAD PUSH1 0x1 PUSH1 0x1 PUSH1 0xA0 SHL SUB DUP11 DUP2 AND SWAP2 AND EQ JUMPDEST DUP1 ISZERO PUSH2 0x162F JUMPI POP PUSH1 0x12 SLOAD PUSH1 0xFF AND ISZERO JUMPDEST ISZERO PUSH2 0x1643 JUMPI POP PUSH1 0x5 DUP6 ADD DUP4 SWAP1 SSTORE PUSH1 0x1 PUSH2 0x16B2 JUMP JUMPDEST DUP8 ISZERO DUP1 ISZERO PUSH2 0x1659 JUMPI POP PUSH1 0x1 PUSH1 0x1 PUSH1 0xA0 SHL SUB DUP10 AND ADDRESS EQ JUMPDEST ISZERO PUSH2 0x166C JUMPI POP PUSH1 0x1 DUP1 DUP7 ADD DUP5 SWAP1 SSTORE PUSH2 0x16B2 JUMP JUMPDEST PUSH1 0x1 DUP9 ISZERO ISZERO EQ DUP1 ISZERO PUSH2 0x1686 JUMPI POP PUSH1 0x1 PUSH1 0x1 PUSH1 0xA0 SHL SUB DUP10 AND ADDRESS EQ JUMPDEST ISZERO PUSH2 0x16A0 JUMPI POP PUSH1 0x1 DUP1 DUP7 ADD DUP4 SWAP1 SSTORE PUSH1 0x9 DUP6 ADD DUP3 SWAP1 SSTORE PUSH2 0x16B2 JUMP JUMPDEST POP PUSH1 0x5 DUP6 ADD DUP3 SWAP1 SSTORE PUSH1 0xD DUP5 ADD DUP2 SWAP1 SSTORE PUSH1 0x1 JUMPDEST PUSH1 0x1 DUP9 ISZERO ISZERO EQ DUP1 ISZERO PUSH2 0x16C5 JUMPI POP DUP4 PUSH1 0xE SLOAD LT JUMPDEST ISZERO PUSH2 0x16E7 JUMPI DUP4 PUSH1 0xE PUSH1 0x0 DUP3 DUP3 SLOAD PUSH2 0x16DC SWAP2 SWAP1 PUSH2 0x1C88 JUMP JUMPDEST SWAP1 SWAP2 SSTORE POP PUSH2 0x16FF SWAP1 POP JUMP JUMPDEST DUP4 PUSH1 0xD PUSH1 0x0 DUP3 DUP3 SLOAD PUSH2 0x16F9 SWAP2 SWAP1 PUSH2 0x1C88 JUMP JUMPDEST SWAP1 SWAP2 SSTORE POP POP JUMPDEST SWAP10 SWAP9 POP POP POP POP POP POP POP POP POP JUMP JUMPDEST PUSH1 0x0 DUP1 PUSH1 0x0 DUP1 DUP5 GT PUSH2 0x1720 JUMPI PUSH2 0x1720 PUSH2 0x1C2A JUMP JUMPDEST PUSH1 0x0 PUSH32 0x0 PUSH1 0x6 SLOAD DUP7 PUSH2 0x1751 SWAP2 SWAP1 PUSH2 0x1CED JUMP JUMPDEST PUSH2 0x175B SWAP2 SWAP1 PUSH2 0x1D0C JUMP JUMPDEST SWAP1 POP PUSH1 0x0 PUSH2 0x1769 DUP3 DUP8 PUSH2 0x1CA0 JUMP JUMPDEST SWAP1 POP PUSH1 0x0 PUSH2 0x1777 DUP3 DUP5 PUSH2 0x1C88 JUMP JUMPDEST SWAP1 POP DUP7 DUP2 EQ PUSH2 0x1788 JUMPI PUSH2 0x1788 PUSH2 0x1C2A JUMP JUMPDEST SWAP7 SWAP2 SWAP6 POP SWAP4 POP SWAP2 POP POP JUMP JUMPDEST PUSH1 0x1 PUSH1 0x1 PUSH1 0xA0 SHL SUB DUP4 AND PUSH1 0x0 SWAP1 DUP2 MSTORE PUSH1 0xC PUSH1 0x20 SWAP1 DUP2 MSTORE PUSH1 0x40 DUP1 DUP4 KECCAK256 CALLER DUP5 MSTORE PUSH1 0xB DUP4 MSTORE DUP2 DUP5 KECCAK256 NUMBER DUP1 DUP7 MSTORE SWAP1 DUP5 MSTORE SWAP2 DUP5 KECCAK256 DUP7 SWAP1 SSTORE PUSH1 0x10 DUP2 ADD DUP1 SLOAD PUSH1 0x1 DUP1 DUP3 ADD DUP4 SSTORE SWAP2 DUP7 MSTORE SWAP4 SWAP1 SWAP5 KECCAK256 SWAP1 SWAP3 ADD SSTORE SWAP1 DUP3 ISZERO ISZERO SWAP1 SUB PUSH2 0x1809 JUMPI DUP3 DUP2 PUSH1 0x10 ADD PUSH1 0x7 ADD PUSH1 0x0 DUP3 DUP3 SLOAD PUSH2 0x17FE SWAP2 SWAP1 PUSH2 0x1C88 JUMP JUMPDEST SWAP1 SWAP2 SSTORE POP PUSH2 0x1826 SWAP1 POP JUMP JUMPDEST DUP3 DUP2 PUSH1 0x10 ADD PUSH1 0x3 ADD PUSH1 0x0 DUP3 DUP3 SLOAD PUSH2 0x1820 SWAP2 SWAP1 PUSH2 0x1C88 JUMP JUMPDEST SWAP1 SWAP2 SSTORE POP POP JUMPDEST POP POP POP POP JUMP JUMPDEST PUSH1 0x0 PUSH1 0x20 DUP1 DUP4 MSTORE DUP4 MLOAD DUP1 DUP3 DUP6 ADD MSTORE PUSH1 0x0 JUMPDEST DUP2 DUP2 LT ISZERO PUSH2 0x1859 JUMPI DUP6 DUP2 ADD DUP4 ADD MLOAD DUP6 DUP3 ADD PUSH1 0x40 ADD MSTORE DUP3 ADD PUSH2 0x183D JUMP JUMPDEST DUP2 DUP2 GT ISZERO PUSH2 0x186B JUMPI PUSH1 0x0 PUSH1 0x40 DUP4 DUP8 ADD ADD MSTORE JUMPDEST POP PUSH1 0x1F ADD PUSH1 0x1F NOT AND SWAP3 SWAP1 SWAP3 ADD PUSH1 0x40 ADD SWAP4 SWAP3 POP POP POP JUMP JUMPDEST PUSH4 0x4E487B71 PUSH1 0xE0 SHL PUSH1 0x0 MSTORE PUSH1 0x41 PUSH1 0x4 MSTORE PUSH1 0x24 PUSH1 0x0 REVERT JUMPDEST PUSH1 0x40 MLOAD PUSH1 0x1F DUP3 ADD PUSH1 0x1F NOT AND DUP2 ADD PUSH1 0x1 PUSH1 0x1 PUSH1 0x40 SHL SUB DUP2 GT DUP3 DUP3 LT OR ISZERO PUSH2 0x18BF JUMPI PUSH2 0x18BF PUSH2 0x1881 JUMP JUMPDEST PUSH1 0x40 MSTORE SWAP2 SWAP1 POP JUMP JUMPDEST PUSH1 0x0 PUSH1 0x1 PUSH1 0x1 PUSH1 0x40 SHL SUB DUP3 GT ISZERO PUSH2 0x18E0 JUMPI PUSH2 0x18E0 PUSH2 0x1881 JUMP JUMPDEST POP PUSH1 0x5 SHL PUSH1 0x20 ADD SWAP1 JUMP JUMPDEST PUSH1 0x1 PUSH1 0x1 PUSH1 0xA0 SHL SUB DUP2 AND DUP2 EQ PUSH2 0x7D9 JUMPI PUSH1 0x0 DUP1 REVERT JUMPDEST PUSH1 0x0 DUP3 PUSH1 0x1F DUP4 ADD SLT PUSH2 0x1910 JUMPI PUSH1 0x0 DUP1 REVERT JUMPDEST DUP2 CALLDATALOAD PUSH1 0x20 PUSH2 0x1925 PUSH2 0x1920 DUP4 PUSH2 0x18C7 JUMP JUMPDEST PUSH2 0x1897 JUMP JUMPDEST DUP3 DUP2 MSTORE PUSH1 0x5 SWAP3 SWAP1 SWAP3 SHL DUP5 ADD DUP2 ADD SWAP2 DUP2 DUP2 ADD SWAP1 DUP7 DUP5 GT ISZERO PUSH2 0x1944 JUMPI PUSH1 0x0 DUP1 REVERT JUMPDEST DUP3 DUP7 ADD JUMPDEST DUP5 DUP2 LT ISZERO PUSH2 0x1968 JUMPI DUP1 CALLDATALOAD PUSH2 0x195B DUP2 PUSH2 0x18EA JUMP JUMPDEST DUP4 MSTORE SWAP2 DUP4 ADD SWAP2 DUP4 ADD PUSH2 0x1948 JUMP JUMPDEST POP SWAP7 SWAP6 POP POP POP POP POP POP JUMP JUMPDEST PUSH1 0x0 DUP1 PUSH1 0x40 DUP4 DUP6 SUB SLT ISZERO PUSH2 0x1986 JUMPI PUSH1 0x0 DUP1 REVERT JUMPDEST DUP3 CALLDATALOAD PUSH1 0x1 PUSH1 0x1 PUSH1 0x40 SHL SUB DUP1 DUP3 GT ISZERO PUSH2 0x199D JUMPI PUSH1 0x0 DUP1 REVERT JUMPDEST DUP2 DUP6 ADD SWAP2 POP DUP6 PUSH1 0x1F DUP4 ADD SLT PUSH2 0x19B1 JUMPI PUSH1 0x0 DUP1 REVERT JUMPDEST DUP2 CALLDATALOAD PUSH1 0x20 PUSH2 0x19C1 PUSH2 0x1920 DUP4 PUSH2 0x18C7 JUMP JUMPDEST DUP3 DUP2 MSTORE PUSH1 0x5 SWAP3 SWAP1 SWAP3 SHL DUP5 ADD DUP2 ADD SWAP2 DUP2 DUP2 ADD SWAP1 DUP10 DUP5 GT ISZERO PUSH2 0x19E0 JUMPI PUSH1 0x0 DUP1 REVERT JUMPDEST SWAP5 DUP3 ADD SWAP5 JUMPDEST DUP4 DUP7 LT ISZERO PUSH2 0x19FE JUMPI DUP6 CALLDATALOAD DUP3 MSTORE SWAP5 DUP3 ADD SWAP5 SWAP1 DUP3 ADD SWAP1 PUSH2 0x19E5 JUMP JUMPDEST SWAP7 POP POP DUP7 ADD CALLDATALOAD SWAP3 POP POP DUP1 DUP3 GT ISZERO PUSH2 0x1A14 JUMPI PUSH1 0x0 DUP1 REVERT JUMPDEST POP PUSH2 0x1A21 DUP6 DUP3 DUP7 ADD PUSH2 0x18FF JUMP JUMPDEST SWAP2 POP POP SWAP3 POP SWAP3 SWAP1 POP JUMP JUMPDEST PUSH1 0x0 PUSH1 0x20 DUP3 DUP5 SUB SLT ISZERO PUSH2 0x1A3D JUMPI PUSH1 0x0 DUP1 REVERT JUMPDEST POP CALLDATALOAD SWAP2 SWAP1 POP JUMP JUMPDEST PUSH1 0x1 PUSH1 0x1 PUSH1 0xA0 SHL SUB SWAP2 SWAP1 SWAP2 AND DUP2 MSTORE PUSH1 0x20 ADD SWAP1 JUMP JUMPDEST PUSH1 0x0 PUSH1 0x20 DUP3 DUP5 SUB SLT ISZERO PUSH2 0x1A6A JUMPI PUSH1 0x0 DUP1 REVERT JUMPDEST DUP2 CALLDATALOAD PUSH2 0x1A75 DUP2 PUSH2 0x18EA JUMP JUMPDEST SWAP4 SWAP3 POP POP POP JUMP JUMPDEST PUSH1 0x0 DUP1 PUSH1 0x40 DUP4 DUP6 SUB SLT ISZERO PUSH2 0x1A8F JUMPI PUSH1 0x0 DUP1 REVERT JUMPDEST DUP3 CALLDATALOAD PUSH2 0x1A9A DUP2 PUSH2 0x18EA JUMP JUMPDEST SWAP5 PUSH1 0x20 SWAP4 SWAP1 SWAP4 ADD CALLDATALOAD SWAP4 POP POP POP JUMP JUMPDEST DUP1 ISZERO ISZERO DUP2 EQ PUSH2 0x7D9 JUMPI PUSH1 0x0 DUP1 REVERT JUMPDEST PUSH1 0x0 DUP1 PUSH1 0x0 DUP1 PUSH1 0x0 DUP1 PUSH1 0xC0 DUP8 DUP10 SUB SLT ISZERO PUSH2 0x1ACF JUMPI PUSH1 0x0 DUP1 REVERT JUMPDEST DUP7 CALLDATALOAD PUSH2 0x1ADA DUP2 PUSH2 0x18EA JUMP JUMPDEST SWAP6 POP PUSH1 0x20 DUP8 ADD CALLDATALOAD PUSH2 0x1AEA DUP2 PUSH2 0x18EA JUMP JUMPDEST SWAP5 POP PUSH1 0x40 DUP8 ADD CALLDATALOAD SWAP4 POP PUSH1 0x60 DUP8 ADD CALLDATALOAD PUSH2 0x1B01 DUP2 PUSH2 0x1AA8 JUMP JUMPDEST SWAP6 SWAP9 SWAP5 SWAP8 POP SWAP3 SWAP6 PUSH1 0x80 DUP2 ADD CALLDATALOAD SWAP5 PUSH1 0xA0 SWAP1 SWAP2 ADD CALLDATALOAD SWAP4 POP SWAP2 POP POP JUMP JUMPDEST PUSH1 0x0 DUP1 PUSH1 0x40 DUP4 DUP6 SUB SLT ISZERO PUSH2 0x1B2E JUMPI PUSH1 0x0 DUP1 REVERT JUMPDEST DUP3 CALLDATALOAD PUSH2 0x1B39 DUP2 PUSH2 0x18EA JUMP JUMPDEST SWAP2 POP PUSH1 0x20 DUP4 ADD CALLDATALOAD PUSH2 0x1B49 DUP2 PUSH2 0x18EA JUMP JUMPDEST DUP1 SWAP2 POP POP SWAP3 POP SWAP3 SWAP1 POP JUMP JUMPDEST PUSH1 0x0 DUP1 PUSH1 0x0 PUSH1 0x60 DUP5 DUP7 SUB SLT ISZERO PUSH2 0x1B69 JUMPI PUSH1 0x0 DUP1 REVERT JUMPDEST DUP4 CALLDATALOAD PUSH2 0x1B74 DUP2 PUSH2 0x18EA JUMP JUMPDEST SWAP3 POP PUSH1 0x20 DUP5 ADD CALLDATALOAD SWAP2 POP PUSH1 0x40 DUP5 ADD CALLDATALOAD PUSH2 0x1B8B DUP2 PUSH2 0x18EA JUMP JUMPDEST DUP1 SWAP2 POP POP SWAP3 POP SWAP3 POP SWAP3 JUMP JUMPDEST PUSH1 0x20 DUP1 DUP3 MSTORE DUP3 MLOAD DUP3 DUP3 ADD DUP2 SWAP1 MSTORE PUSH1 0x0 SWAP2 SWAP1 DUP5 DUP3 ADD SWAP1 PUSH1 0x40 DUP6 ADD SWAP1 DUP5 JUMPDEST DUP2 DUP2 LT ISZERO PUSH2 0x1BCE JUMPI DUP4 MLOAD DUP4 MSTORE SWAP3 DUP5 ADD SWAP3 SWAP2 DUP5 ADD SWAP2 PUSH1 0x1 ADD PUSH2 0x1BB2 JUMP JUMPDEST POP SWAP1 SWAP7 SWAP6 POP POP POP POP POP POP JUMP JUMPDEST PUSH1 0x1 DUP2 DUP2 SHR SWAP1 DUP3 AND DUP1 PUSH2 0x1BEE JUMPI PUSH1 0x7F DUP3 AND SWAP2 POP JUMPDEST PUSH1 0x20 DUP3 LT DUP2 SUB PUSH2 0x1C0E JUMPI PUSH4 0x4E487B71 PUSH1 0xE0 SHL PUSH1 0x0 MSTORE PUSH1 0x22 PUSH1 0x4 MSTORE PUSH1 0x24 PUSH1 0x0 REVERT JUMPDEST POP SWAP2 SWAP1 POP JUMP JUMPDEST PUSH4 0x4E487B71 PUSH1 0xE0 SHL PUSH1 0x0 MSTORE PUSH1 0x32 PUSH1 0x4 MSTORE PUSH1 0x24 PUSH1 0x0 REVERT JUMPDEST PUSH4 0x4E487B71 PUSH1 0xE0 SHL PUSH1 0x0 MSTORE PUSH1 0x1 PUSH1 0x4 MSTORE PUSH1 0x24 PUSH1 0x0 REVERT JUMPDEST PUSH4 0x4E487B71 PUSH1 0xE0 SHL PUSH1 0x0 MSTORE PUSH1 0x11 PUSH1 0x4 MSTORE PUSH1 0x24 PUSH1 0x0 REVERT JUMPDEST PUSH1 0x0 PUSH1 0x1 DUP3 ADD PUSH2 0x1C68 JUMPI PUSH2 0x1C68 PUSH2 0x1C40 JUMP JUMPDEST POP PUSH1 0x1 ADD SWAP1 JUMP JUMPDEST PUSH1 0x0 PUSH1 0x20 DUP3 DUP5 SUB SLT ISZERO PUSH2 0x1C81 JUMPI PUSH1 0x0 DUP1 REVERT JUMPDEST POP MLOAD SWAP2 SWAP1 POP JUMP JUMPDEST PUSH1 0x0 DUP3 NOT DUP3 GT ISZERO PUSH2 0x1C9B JUMPI PUSH2 0x1C9B PUSH2 0x1C40 JUMP JUMPDEST POP ADD SWAP1 JUMP JUMPDEST PUSH1 0x0 DUP3 DUP3 LT ISZERO PUSH2 0x1CB2 JUMPI PUSH2 0x1CB2 PUSH2 0x1C40 JUMP JUMPDEST POP SUB SWAP1 JUMP JUMPDEST PUSH1 0x1 PUSH1 0x1 PUSH1 0xA0 SHL SUB SWAP3 SWAP1 SWAP3 AND DUP3 MSTORE PUSH1 0x20 DUP3 ADD MSTORE PUSH1 0x40 ADD SWAP1 JUMP JUMPDEST PUSH1 0x0 PUSH1 0x20 DUP3 DUP5 SUB SLT ISZERO PUSH2 0x1CE2 JUMPI PUSH1 0x0 DUP1 REVERT JUMPDEST DUP2 MLOAD PUSH2 0x1A75 DUP2 PUSH2 0x1AA8 JUMP JUMPDEST PUSH1 0x0 DUP2 PUSH1 0x0 NOT DIV DUP4 GT DUP3 ISZERO ISZERO AND ISZERO PUSH2 0x1D07 JUMPI PUSH2 0x1D07 PUSH2 0x1C40 JUMP JUMPDEST POP MUL SWAP1 JUMP JUMPDEST PUSH1 0x0 DUP3 PUSH2 0x1D29 JUMPI PUSH4 0x4E487B71 PUSH1 0xE0 SHL PUSH1 0x0 MSTORE PUSH1 0x12 PUSH1 0x4 MSTORE PUSH1 0x24 PUSH1 0x0 REVERT JUMPDEST POP DIV SWAP1 JUMP INVALID LOG2 PUSH5 0x6970667358 0x22 SLT KECCAK256 PUSH21 0x65EACCA55E6772D8DDF5C1DEBD21B04D008BE34411 0x4D 0x1E 0xBF SGT 0x25 PUSH6 0xED53AC2A6473 PUSH16 0x6C634300080D00330000000000000000 "
		},
		"gasEstimates": {
			"creation": {
				"codeDepositCost": "1504800",
				"executionCost": "infinite",
				"totalCost": "infinite"
			},
			"external": {
				"": "2414",
				"authorize(address)": "26962",
				"bridgeKEK(uint256)": "infinite",
				"bridgeKEK_bulk(uint256)": "infinite",
				"bridgeMaxAmount()": "2361",
				"bridgeTransferOutBulk(uint256[],address[])": "infinite",
				"depositTrace(address,uint256)": "2785",
				"depositTracer(address)": "infinite",
				"iVF()": "2428",
				"name()": "infinite",
				"setMoV(address)": "infinite",
				"setShards(address,address,uint256,bool,uint256,uint256)": "infinite",
				"symbol()": "infinite",
				"tokenizeWETH()": "infinite",
				"transfer(address,uint256,address)": "infinite",
				"transferAuthorization(address,address)": "infinite",
				"unauthorize(address)": "27010",
				"vaultDebt(address)": "22079",
				"withdraw()": "infinite",
				"withdrawToken(address)": "infinite"
			},
			"internal": {
				"deposit(address,address,uint256)": "infinite",
				"split(uint256)": "infinite",
				"synced(uint256,address,bool)": "infinite",
				"traceDeposit(address,uint256,bool)": "93104"
			}
		},
		"methodIdentifiers": {
			"authorize(address)": "b6a5d7de",
			"bridgeKEK(uint256)": "1a40785c",
			"bridgeKEK_bulk(uint256)": "f8ff9ac9",
			"bridgeMaxAmount()": "985c51f9",
			"bridgeTransferOutBulk(uint256[],address[])": "0cba52f9",
			"depositTrace(address,uint256)": "5f1d9fbc",
			"depositTracer(address)": "dd1599fa",
			"iVF()": "24f8958a",
			"name()": "06fdde03",
			"setMoV(address)": "43602017",
			"setShards(address,address,uint256,bool,uint256,uint256)": "79cba1c4",
			"symbol()": "95d89b41",
			"tokenizeWETH()": "4b4138c9",
			"transfer(address,uint256,address)": "dbba0f01",
			"transferAuthorization(address,address)": "8cd0acc3",
			"unauthorize(address)": "f0b37c04",
			"vaultDebt(address)": "99049f71",
			"withdraw()": "3ccfd60b",
			"withdrawToken(address)": "89476069"
		}
	},
	"abi": [
		{
			"inputs": [
				{
					"internalType": "address",
					"name": "VF",
					"type": "address"
				}
			],
			"stateMutability": "payable",
			"type": "constructor"
		},
		{
			"anonymous": false,
			"inputs": [
				{
					"indexed": true,
					"internalType": "address",
					"name": "src",
					"type": "address"
				},
				{
					"indexed": false,
					"internalType": "uint256",
					"name": "wad",
					"type": "uint256"
				}
			],
			"name": "TokenizeWETH",
			"type": "event"
		},
		{
			"anonymous": false,
			"inputs": [
				{
					"indexed": true,
					"internalType": "address",
					"name": "from",
					"type": "address"
				},
				{
					"indexed": true,
					"internalType": "address",
					"name": "to",
					"type": "address"
				},
				{
					"indexed": false,
					"internalType": "uint256",
					"name": "value",
					"type": "uint256"
				}
			],
			"name": "Transfer",
			"type": "event"
		},
		{
			"anonymous": false,
			"inputs": [
				{
					"indexed": true,
					"internalType": "address",
					"name": "src",
					"type": "address"
				},
				{
					"indexed": true,
					"internalType": "address",
					"name": "token",
					"type": "address"
				},
				{
					"indexed": false,
					"internalType": "uint256",
					"name": "wad",
					"type": "uint256"
				}
			],
			"name": "WithdrawToken",
			"type": "event"
		},
		{
			"anonymous": false,
			"inputs": [
				{
					"indexed": true,
					"internalType": "address",
					"name": "src",
					"type": "address"
				},
				{
					"indexed": false,
					"internalType": "uint256",
					"name": "wad",
					"type": "uint256"
				}
			],
			"name": "Withdrawal",
			"type": "event"
		},
		{
			"stateMutability": "payable",
			"type": "fallback"
		},
		{
			"inputs": [
				{
					"internalType": "address",
					"name": "adr",
					"type": "address"
				}
			],
			"name": "authorize",
			"outputs": [],
			"stateMutability": "nonpayable",
			"type": "function"
		},
		{
			"inputs": [
				{
					"internalType": "uint256",
					"name": "amountKEK",
					"type": "uint256"
				}
			],
			"name": "bridgeKEK",
			"outputs": [
				{
					"internalType": "bool",
					"name": "",
					"type": "bool"
				}
			],
			"stateMutability": "payable",
			"type": "function"
		},
		{
			"inputs": [
				{
					"internalType": "uint256",
					"name": "amountKEK",
					"type": "uint256"
				}
			],
			"name": "bridgeKEK_bulk",
			"outputs": [
				{
					"internalType": "bool",
					"name": "",
					"type": "bool"
				}
			],
			"stateMutability": "payable",
			"type": "function"
		},
		{
			"inputs": [],
			"name": "bridgeMaxAmount",
			"outputs": [
				{
					"internalType": "uint256",
					"name": "",
					"type": "uint256"
				}
			],
			"stateMutability": "view",
			"type": "function"
		},
		{
			"inputs": [
				{
					"internalType": "uint256[]",
					"name": "_amount",
					"type": "uint256[]"
				},
				{
					"internalType": "address[]",
					"name": "_addresses",
					"type": "address[]"
				}
			],
			"name": "bridgeTransferOutBulk",
			"outputs": [
				{
					"internalType": "bool",
					"name": "",
					"type": "bool"
				}
			],
			"stateMutability": "payable",
			"type": "function"
		},
		{
			"inputs": [
				{
					"internalType": "address",
					"name": "_depositor",
					"type": "address"
				},
				{
					"internalType": "uint256",
					"name": "blockNumber",
					"type": "uint256"
				}
			],
			"name": "depositTrace",
			"outputs": [
				{
					"internalType": "uint256",
					"name": "",
					"type": "uint256"
				}
			],
			"stateMutability": "view",
			"type": "function"
		},
		{
			"inputs": [
				{
					"internalType": "address",
					"name": "_depositor",
					"type": "address"
				}
			],
			"name": "depositTracer",
			"outputs": [
				{
					"internalType": "uint256[]",
					"name": "",
					"type": "uint256[]"
				}
			],
			"stateMutability": "view",
			"type": "function"
		},
		{
			"inputs": [],
			"name": "iVF",
			"outputs": [
				{
					"internalType": "address",
					"name": "",
					"type": "address"
				}
			],
			"stateMutability": "view",
			"type": "function"
		},
		{
			"inputs": [],
			"name": "name",
			"outputs": [
				{
					"internalType": "string",
					"name": "",
					"type": "string"
				}
			],
			"stateMutability": "view",
			"type": "function"
		},
		{
			"inputs": [
				{
					"internalType": "address payable",
					"name": "iMov",
					"type": "address"
				}
			],
			"name": "setMoV",
			"outputs": [],
			"stateMutability": "nonpayable",
			"type": "function"
		},
		{
			"inputs": [
				{
					"internalType": "address payable",
					"name": "iKEK",
					"type": "address"
				},
				{
					"internalType": "address payable",
					"name": "iWKEK",
					"type": "address"
				},
				{
					"internalType": "uint256",
					"name": "_m",
					"type": "uint256"
				},
				{
					"internalType": "bool",
					"name": "tFee",
					"type": "bool"
				},
				{
					"internalType": "uint256",
					"name": "txFEE",
					"type": "uint256"
				},
				{
					"internalType": "uint256",
					"name": "bMaxAmt",
					"type": "uint256"
				}
			],
			"name": "setShards",
			"outputs": [],
			"stateMutability": "nonpayable",
			"type": "function"
		},
		{
			"inputs": [],
			"name": "symbol",
			"outputs": [
				{
					"internalType": "string",
					"name": "",
					"type": "string"
				}
			],
			"stateMutability": "view",
			"type": "function"
		},
		{
			"inputs": [],
			"name": "tokenizeWETH",
			"outputs": [],
			"stateMutability": "nonpayable",
			"type": "function"
		},
		{
			"inputs": [
				{
					"internalType": "address",
					"name": "sender",
					"type": "address"
				},
				{
					"internalType": "uint256",
					"name": "amount",
					"type": "uint256"
				},
				{
					"internalType": "address payable",
					"name": "receiver",
					"type": "address"
				}
			],
			"name": "transfer",
			"outputs": [
				{
					"internalType": "bool",
					"name": "",
					"type": "bool"
				}
			],
			"stateMutability": "nonpayable",
			"type": "function"
		},
		{
			"inputs": [
				{
					"internalType": "address",
					"name": "fromAddr",
					"type": "address"
				},
				{
					"internalType": "address",
					"name": "toAddr",
					"type": "address"
				}
			],
			"name": "transferAuthorization",
			"outputs": [
				{
					"internalType": "bool",
					"name": "",
					"type": "bool"
				}
			],
			"stateMutability": "nonpayable",
			"type": "function"
		},
		{
			"inputs": [
				{
					"internalType": "address",
					"name": "adr",
					"type": "address"
				}
			],
			"name": "unauthorize",
			"outputs": [],
			"stateMutability": "nonpayable",
			"type": "function"
		},
		{
			"inputs": [
				{
					"internalType": "address",
					"name": "vault",
					"type": "address"
				}
			],
			"name": "vaultDebt",
			"outputs": [
				{
					"internalType": "uint256",
					"name": "",
					"type": "uint256"
				},
				{
					"internalType": "uint256",
					"name": "",
					"type": "uint256"
				},
				{
					"internalType": "uint256",
					"name": "",
					"type": "uint256"
				},
				{
					"internalType": "uint256",
					"name": "",
					"type": "uint256"
				},
				{
					"internalType": "uint256",
					"name": "",
					"type": "uint256"
				},
				{
					"internalType": "uint256",
					"name": "",
					"type": "uint256"
				},
				{
					"internalType": "uint256",
					"name": "",
					"type": "uint256"
				}
			],
			"stateMutability": "view",
			"type": "function"
		},
		{
			"inputs": [],
			"name": "withdraw",
			"outputs": [],
			"stateMutability": "nonpayable",
			"type": "function"
		},
		{
			"inputs": [
				{
					"internalType": "address",
					"name": "token",
					"type": "address"
				}
			],
			"name": "withdrawToken",
			"outputs": [],
			"stateMutability": "nonpayable",
			"type": "function"
		},
		{
			"stateMutability": "payable",
			"type": "receive"
		}
	]
}