{
	"data": {
		"bytecode": {
			"linkReferences": {},
			"object": "60e0604052600460a081905263784fca4960e11b60c09081526200002791600991906200023e565b5060408051808201909152600480825263f09f949160e01b60209092019182526200005591600a916200023e565b50600b80546001600160a01b031990811673050134fd4ea6547846ede4c4bf46a334b7e87ccd17909155600c8054821673d166df9dfb917c3b960673e2f420f928d45c9be1179055611388600d556127106080819052600e80549092167367954768e721fad0f0f21e33e874497c73ed6a82179091556011556102ee60125560006013819055601455660d8014722580006015556934f086f3b33b6840000060165569d3c21bcecceda10000006017556018805460ff1916905560405162006966388190039081908339810160408190526200013191620002f2565b600b54600c54600080546001600160a01b031916339081178255808252600160208181526040808520805460ff1990811685179091556001600160a01b0397881686528186208054821685179055969095168452928490208054909516811790945560029390935581518083018352600381526208aa8960eb1b91810191909152905183929190620001c390620002cd565b620001d19392919062000324565b604051809103906000f080158015620001ee573d6000803e3d6000fd5b506000805260056020527f05b8ccbb9d4d8fb16ea74ce3c29a41f1b461fbdaff4714a0d9a8eb05499746bc80546001600160a01b0319166001600160a01b039290921691909117905550620003d4565b8280546200024c9062000398565b90600052602060002090601f016020900481019282620002705760008555620002bb565b82601f106200028b57805160ff1916838001178555620002bb565b82800160010185558215620002bb579182015b82811115620002bb5782518255916020019190600101906200029e565b50620002c9929150620002db565b5090565b61201e806200494883390190565b5b80821115620002c95760008155600101620002dc565b6000602082840312156200030557600080fd5b81516001600160a01b03811681146200031d57600080fd5b9392505050565b600060018060a01b038086168352602081861681850152606060408501528451915081606085015260005b828110156200036d578581018201518582016080015281016200034f565b8281111562000380576000608084870101525b5050601f01601f191691909101608001949350505050565b600181811c90821680620003ad57607f821691505b602082108103620003ce57634e487b7160e01b600052602260045260246000fd5b50919050565b608051614551620003f7600039600081816112d90152611a1501526145516000f3fe6080604052600436106200011f5760003560e01c80638cd0acc311620000a55780638cd0acc3146200029057806395d89b4114620002b55780639e281a9814620002cd578063b20b119c14620002f2578063b6a5d7de146200030a578063c6eceb10146200032f578063c79d43911462000347578063d9a06dbd146200036c578063db236d961462000391578063dd457d7614620003ea578063f0b37c04146200040f57005b806306fdde0314620001295780630cba52f91462000159578063436020171462000181578063528856f414620001a6578063560d999514620001cb578063570e9f7014620001e25780636532d89914620002095780636c7600c0146200022e5780637d21bbe21462000253578063841ba87d146200027857005b366200012757005b005b3480156200013657600080fd5b506200014162000434565b60405162000150919062001dca565b60405180910390f35b620001706200016a36600462001f39565b620004ca565b604051901515815260200162000150565b3480156200018e57600080fd5b5062000127620001a036600462001fa3565b62000668565b348015620001b357600080fd5b5062000170620001c536600462001fc3565b6200068b565b62000170620001dc3660046200202a565b620007ce565b348015620001ef57600080fd5b50620001fa60125481565b60405190815260200162000150565b3480156200021657600080fd5b50620001706200022836600462002066565b62000a68565b3480156200023b57600080fd5b50620001706200024d366004620020a2565b62000b44565b3480156200026057600080fd5b50620001706200027236600462002113565b62000d80565b3480156200028557600080fd5b50620001fa60145481565b3480156200029d57600080fd5b5062000170620002af36600462002188565b62000f8c565b348015620002c257600080fd5b506200014162000fdb565b348015620002da57600080fd5b5062000127620002ec366004620021c6565b62000fea565b348015620002ff57600080fd5b50620001fa60135481565b3480156200031757600080fd5b50620001276200032936600462001fa3565b62001214565b3480156200033c57600080fd5b50620001fa60155481565b3480156200035457600080fd5b50620001706200036636600462002113565b62001250565b3480156200037957600080fd5b50620001276200038b366004620021f5565b620014cd565b3480156200039e57600080fd5b50620003db620003b036600462001fa3565b6001600160a01b03908116600090815260086020908152604080832054835260059091529020541690565b60405162000150919062002273565b348015620003f757600080fd5b50620001706200040936600462002113565b62001565565b3480156200041c57600080fd5b50620001276200042e36600462001fa3565b620016cc565b60098054620004439062002287565b80601f0160208091040260200160405190810160405280929190818152602001828054620004719062002287565b8015620004c25780601f106200049657610100808354040283529160200191620004c2565b820191906000526020600020905b815481529060010190602001808311620004a457829003601f168201915b505050505081565b6000620004d73362001702565b620004e157600080fd5b6000805b83518110156200064b5760006001600160a01b03168482815181106200050f576200050f620022c3565b60200260200101516001600160a01b0316146200063157600080805260056020527f05b8ccbb9d4d8fb16ea74ce3c29a41f1b461fbdaff4714a0d9a8eb05499746bc5485516001600160a01b039091169190829062e73378908890869081106200057d576200057d620022c3565b60200260200101518986815181106200059a576200059a620022c3565b60200260200101516040518363ffffffff1660e01b8152600401620005d49291906001600160a01b03929092168252602082015260400190565b6020604051808303816000875af1158015620005f4573d6000803e3d6000fd5b505050506040513d601f19601f820116820180604052508101906200061a9190620022d9565b9050806200062757600080fd5b9250620006369050565b600091505b8062000642816200230f565b915050620004e5565b506001811515146200066157620006616200232b565b9392505050565b620006733362001702565b6200067d57600080fd5b620006888162001214565b50565b6000620006983362001702565b620006a257600080fd5b600e80546001600160a01b038087166001600160a01b031992831617909255600084815260066020526040902080549288169290911691909117905582620006e73390565b866001600160a01b03166395d89b416040518163ffffffff1660e01b8152600401600060405180830381865afa15801562000726573d6000803e3d6000fd5b505050506040513d6000823e601f3d908101601f1916820160405262000750919081019062002341565b6040516200075e9062001d5f565b6200076c93929190620023df565b604051809103906000f08015801562000789573d6000803e3d6000fd5b50600083815260056020908152604080832080546001600160a01b0319166001600160a01b03958616179055600690915290205486821691161490505b949350505050565b6000828152600660205260408120546001600160a01b031680620007f157600080fd5b600b546001600160a01b0316336001600160a01b0316141580156200082a5750600c546001600160a01b0316336001600160a01b031614155b1562000a2d5760185460ff166200095757826200094957604051636eb1769f60e11b815285906001600160a01b0383169063dd62ed3e906200087390339030906004016200240d565b602060405180830381865afa15801562000891573d6000803e3d6000fd5b505050506040513d601f19601f82011682018060405250810190620008b7919062002427565b1015620008c357600080fd5b846001600160a01b0382166370a08231335b6040518263ffffffff1660e01b8152600401620008f3919062002273565b602060405180830381865afa15801562000911573d6000803e3d6000fd5b505050506040513d601f19601f8201168201806040525081019062000937919062002427565b10156200094357600080fd5b62000a2d565b843410156200094357600080fd5b8262000a11576012546200096c908662002441565b604051636eb1769f60e11b81526001600160a01b0383169063dd62ed3e906200099c90339030906004016200240d565b602060405180830381865afa158015620009ba573d6000803e3d6000fd5b505050506040513d601f19601f82011682018060405250810190620009e0919062002427565b1015620009ec57600080fd5b601254620009fb908662002441565b6001600160a01b0382166370a0823133620008d5565b60155462000a20908662002441565b34101562000a2d57600080fd5b60165485111562000a3d57600080fd5b600062000a4d3383888762001720565b905060018115151462000a5f57600080fd5b95945050505050565b600062000a753362001702565b62000a7f57600080fd5b6001600160a01b03821662000a985762000a986200232b565b6001600160a01b038085166000908152600860209081526040808320548084526005909252918290205491516352f950a960e11b815290929190911690819063a5f2a1529062000af190899088908a906004016200245c565b6020604051808303816000875af115801562000b11573d6000803e3d6000fd5b505050506040513d601f19601f8201168201806040525081019062000b379190620022d9565b5060019695505050505050565b600062000b513362001702565b62000b5b57600080fd5b600b54600c546001600160a01b039182169190811690861662000b825762000b826200232b565b600b546001600160a01b03808a1691160362000ba15785915062000bc4565b600c546001600160a01b03808a1691160362000bbf57508462000bc4565b600080fd5b60008080600062000bd58b620019fa565b925092509250871562000cc257811562000c4f576000856001600160a01b03168360405160006040518083038185875af1925050503d806000811462000c38576040519150601f19603f3d011682016040523d82523d6000602084013e62000c3d565b606091505b505090508062000c4c57600080fd5b93505b801562000cbc576000866001600160a01b03168260405160006040518083038185875af1925050503d806000811462000ca5576040519150601f19603f3d011682016040523d82523d6000602084013e62000caa565b606091505b505090508062000cb957600080fd5b93505b62000d70565b6001600160a01b03808a16600090815260086020908152604080832054808452600590925290912054909116831562000d1357600c5462000d13906001600160a01b03808416918491168762001a8f565b821562000d3857600b5462000d38906001600160a01b03808416918491168662001a8f565b60405185815230907f7fcf532c15f0a6db0bd6d0e038bea71d30d808c7d98cb3bf7268a95bf5081b659060200160405180910390a250505b50919a9950505050505050505050565b600062000d8d3362001702565b62000d9757600080fd5b6000805b845181101562000f765760006001600160a01b031685828151811062000dc55762000dc5620022c3565b60200260200101516001600160a01b03161462000f5c576001600160a01b03808516600090815260086020908152604080832054808452600590925282205489519193169190819062000e35908b908790811062000e275762000e27620022c3565b6020026020010151620019fa565b600b546040516352f950a960e11b81529295509093506001600160a01b03808716935063a5f2a1529262000e72928d92169086906004016200245c565b6020604051808303816000875af115801562000e92573d6000803e3d6000fd5b505050506040513d601f19601f8201168201806040525081019062000eb89190620022d9565b50826001600160a01b031663a5f2a152898b888151811062000ede5762000ede620022c3565b6020026020010151856040518463ffffffff1660e01b815260040162000f07939291906200245c565b6020604051808303816000875af115801562000f27573d6000803e3d6000fd5b505050506040513d601f19601f8201168201806040525081019062000f4d9190620022d9565b50600195505050505062000f61565b600091505b8062000f6d816200230f565b91505062000d9b565b50600181151514620007c657620007c66200232b565b600062000f993362001702565b62000fa357600080fd5b6001600160a01b038316331462000fb957600080fd5b600062000fc68362001214565b62000fd184620016cc565b5060019392505050565b600a8054620004439062002287565b62000ff53362001702565b62000fff57600080fd5b6001600160a01b0380831660008181526008602090815260408083205480845260059092528083205490516370a0823160e01b815291941692906370a08231906200104f90859060040162002273565b602060405180830381865afa1580156200106d573d6000803e3d6000fd5b505050506040513d601f19601f8201168201806040525081019062001093919062002427565b905083811015620010a357600080fd5b8315620010ad5750825b600080620010bb83620019fa565b90935091505081156200114657600c546040516352f950a960e11b81526001600160a01b038087169263a5f2a15292620010fe928c92169086906004016200245c565b6020604051808303816000875af11580156200111e573d6000803e3d6000fd5b505050506040513d601f19601f82011682018060405250810190620011449190620022d9565b505b8015620011cb57600b546040516352f950a960e11b81526001600160a01b038087169263a5f2a1529262001183928c92169086906004016200245c565b6020604051808303816000875af1158015620011a3573d6000803e3d6000fd5b505050506040513d601f19601f82011682018060405250810190620011c99190620022d9565b505b6040518381526001600160a01b0388169030907f037238854fe57fbf51f09946f854fc3916fe83938d6521f09bd05463839f13049060200160405180910390a350505050505050565b6200121f3362001702565b6200122957600080fd5b6001600160a01b03166000908152600160208190526040909120805460ff19169091179055565b60006200125d3362001702565b6200126757600080fd5b6001600160a01b0380831660009081526008602090815260408083205480845260059092528220549092169080805b8751811015620014ac5760006001600160a01b0316888281518110620012c057620012c0620022c3565b60200260200101516001600160a01b03161462001492577f0000000000000000000000000000000000000000000000000000000000000000600d548a8381518110620013105762001310620022c3565b602002602001015162001324919062002480565b620013309190620024a2565b915081898281518110620013485762001348620022c3565b602002602001018181516200135e9190620024c5565b905250600b546040516352f950a960e11b81526001600160a01b038087169263a5f2a1529262001397928c92169087906004016200245c565b6020604051808303816000875af1158015620013b7573d6000803e3d6000fd5b505050506040513d601f19601f82011682018060405250810190620013dd9190620022d9565b50836001600160a01b031663a5f2a15288600b60009054906101000a90046001600160a01b03168c8581518110620014195762001419620022c3565b60200260200101516040518463ffffffff1660e01b815260040162001441939291906200245c565b6020604051808303816000875af115801562001461573d6000803e3d6000fd5b505050506040513d601f19601f82011682018060405250810190620014879190620022d9565b506001925062001497565b600092505b80620014a3816200230f565b91505062001296565b50600182151514620014c257620014c26200232b565b509695505050505050565b620014d83362001702565b620014e257600080fd5b611f40861115620014f257600080fd5b600d95909555600085815260066020908152604080832080546001600160a01b03199081166001600160a01b039c8d169081179092559084526008909252909120959095556016556018805460ff191693151593909317909255600e805490931693909416929092179055601255601555565b6000620015723362001702565b6200157c57600080fd5b6000805b845181101562000f765760006001600160a01b0316858281518110620015aa57620015aa620022c3565b60200260200101516001600160a01b031614620016b2576001600160a01b03808516600090815260086020908152604080832054808452600590925282205488519193169190829063a5f2a1529089908b90889081106200160f576200160f620022c3565b60200260200101518c88815181106200162c576200162c620022c3565b60200260200101516040518463ffffffff1660e01b815260040162001654939291906200245c565b6020604051808303816000875af115801562001674573d6000803e3d6000fd5b505050506040513d601f19601f820116820180604052508101906200169a9190620022d9565b905080620016a757600080fd5b9350620016b7915050565b600091505b80620016c3816200230f565b91505062001580565b620016d73362001702565b620016e157600080fd5b6001600160a01b03166000908152600160205260409020805460ff19169055565b6001600160a01b031660009081526001602052604090205460ff1690565b60006200172c62001af1565b8260008080856200183d576001600160a01b0380891660008181526008602090815260408083205480845260069092529091205490921690819081900362000bbf576000838152600560205260409020546001600160a01b03169350836200179357600080fd5b600083815260076020526040812080549160019190620017b4838562002441565b90915550506000848152600760205260409020549650620017d760018262002441565b8714620017e357600080fd5b8a60136000828254620017f7919062002441565b92505081905550346014600082825462001812919062002441565b909155506200182f90506001600160a01b0383168e878e62001a8f565b600195505050505062001987565b506000805260056020527f05b8ccbb9d4d8fb16ea74ce3c29a41f1b461fbdaff4714a0d9a8eb05499746bc546001600160a01b0316806200187d57600080fd5b600080805260076020527f6d5257204ebe7d88fd91ae87941cb2dd9d8062b64ae5a2bd2d28ec40b9fbf6df80549160019190620018bb838562002441565b90915550506000805260076020527f6d5257204ebe7d88fd91ae87941cb2dd9d8062b64ae5a2bd2d28ec40b9fbf6df549350620018fa60018262002441565b84146200190657600080fd5b34601460008282546200191a919062002441565b90915550506040516000906001600160a01b038416908a908381818185875af1925050503d80600081146200196c576040519150601f19603f3d011682016040523d82523d6000602084013e62001971565b606091505b50509050806200198057600080fd5b6001935050505b806001600160a01b0316896001600160a01b03167f1be148ffc14c73233fd9d869986611f77abcfd08494685a6552399ce5f948a2086868a604051620019e29392919092835260208301919091521515604082015260600190565b60405180910390a35092505050620007c66001600255565b600080600080841162001a115762001a116200232b565b60007f0000000000000000000000000000000000000000000000000000000000000000600d548662001a44919062002480565b62001a509190620024a2565b9050600062001a608287620024c5565b9050600062001a70828462002441565b905086811462001a845762001a846200232b565b969195509350915050565b62001aeb846323b872dd60e01b85858560405160240162001ab3939291906200245c565b60408051601f198184030181529190526020810180516001600160e01b03166001600160e01b03199093169290921790915262001b4e565b50505050565b600280540362001b485760405162461bcd60e51b815260206004820152601f60248201527f5265656e7472616e637947756172643a207265656e7472616e742063616c6c0060448201526064015b60405180910390fd5b60028055565b600062001ba5826040518060400160405280602081526020017f5361666545524332303a206c6f772d6c6576656c2063616c6c206661696c6564815250856001600160a01b031662001c2c9092919063ffffffff16565b80519091501562001c27578080602001905181019062001bc69190620022d9565b62001c275760405162461bcd60e51b815260206004820152602a60248201527f5361666545524332303a204552433230206f7065726174696f6e20646964206e6044820152691bdd081cdd58d8d9595960b21b606482015260840162001b3f565b505050565b6060620007c6848460008585600080866001600160a01b0316858760405162001c569190620024df565b60006040518083038185875af1925050503d806000811462001c95576040519150601f19603f3d011682016040523d82523d6000602084013e62001c9a565b606091505b509150915062001cad8783838762001cb8565b979650505050505050565b6060831562001d2c57825160000362001d24576001600160a01b0385163b62001d245760405162461bcd60e51b815260206004820152601d60248201527f416464726573733a2063616c6c20746f206e6f6e2d636f6e7472616374000000604482015260640162001b3f565b5081620007c6565b620007c6838381511562001d435781518083602001fd5b8060405162461bcd60e51b815260040162001b3f919062001dca565b61201e80620024fe83390190565b60005b8381101562001d8a57818101518382015260200162001d70565b8381111562001aeb5750506000910152565b6000815180845262001db681602086016020860162001d6d565b601f01601f19169290920160200192915050565b60208152600062000661602083018462001d9c565b634e487b7160e01b600052604160045260246000fd5b604051601f8201601f191681016001600160401b038111828210171562001e205762001e2062001ddf565b604052919050565b60006001600160401b0382111562001e445762001e4462001ddf565b5060051b60200190565b600082601f83011262001e6057600080fd5b8135602062001e7962001e738362001e28565b62001df5565b82815260059290921b8401810191818101908684111562001e9957600080fd5b8286015b84811015620014c2578035835291830191830162001e9d565b6001600160a01b03811681146200068857600080fd5b600082601f83011262001ede57600080fd5b8135602062001ef162001e738362001e28565b82815260059290921b8401810191818101908684111562001f1157600080fd5b8286015b84811015620014c257803562001f2b8162001eb6565b835291830191830162001f15565b6000806040838503121562001f4d57600080fd5b82356001600160401b038082111562001f6557600080fd5b62001f738683870162001e4e565b9350602085013591508082111562001f8a57600080fd5b5062001f998582860162001ecc565b9150509250929050565b60006020828403121562001fb657600080fd5b8135620006618162001eb6565b6000806000806080858703121562001fda57600080fd5b843562001fe78162001eb6565b9350602085013562001ff98162001eb6565b925060408501356200200b8162001eb6565b9396929550929360600135925050565b80151581146200068857600080fd5b6000806000606084860312156200204057600080fd5b833592506020840135915060408401356200205b816200201b565b809150509250925092565b6000806000606084860312156200207c57600080fd5b8335620020898162001eb6565b92506020840135915060408401356200205b8162001eb6565b600080600080600060a08688031215620020bb57600080fd5b8535620020c88162001eb6565b9450602086013593506040860135620020e18162001eb6565b92506060860135620020f38162001eb6565b9150608086013562002105816200201b565b809150509295509295909350565b6000806000606084860312156200212957600080fd5b83356001600160401b03808211156200214157600080fd5b6200214f8783880162001e4e565b945060208601359150808211156200216657600080fd5b50620021758682870162001ecc565b92505060408401356200205b8162001eb6565b600080604083850312156200219c57600080fd5b8235620021a98162001eb6565b91506020830135620021bb8162001eb6565b809150509250929050565b60008060408385031215620021da57600080fd5b8235620021e78162001eb6565b946020939093013593505050565b600080600080600080600080610100898b0312156200221357600080fd5b8835620022208162001eb6565b97506020890135620022328162001eb6565b96506040890135955060608901356200224b816200201b565b979a969950949760808101359660a0820135965060c0820135955060e0909101359350915050565b6001600160a01b0391909116815260200190565b600181811c908216806200229c57607f821691505b602082108103620022bd57634e487b7160e01b600052602260045260246000fd5b50919050565b634e487b7160e01b600052603260045260246000fd5b600060208284031215620022ec57600080fd5b815162000661816200201b565b634e487b7160e01b600052601160045260246000fd5b600060018201620023245762002324620022f9565b5060010190565b634e487b7160e01b600052600160045260246000fd5b6000602082840312156200235457600080fd5b81516001600160401b03808211156200236c57600080fd5b818401915084601f8301126200238157600080fd5b81518181111562002396576200239662001ddf565b620023ab601f8201601f191660200162001df5565b9150808252856020828501011115620023c357600080fd5b620023d681602084016020860162001d6d565b50949350505050565b6001600160a01b0384811682528316602082015260606040820181905260009062000a5f9083018462001d9c565b6001600160a01b0392831681529116602082015260400190565b6000602082840312156200243a57600080fd5b5051919050565b60008219821115620024575762002457620022f9565b500190565b6001600160a01b039384168152919092166020820152604081019190915260600190565b60008160001904831182151516156200249d576200249d620022f9565b500290565b600082620024c057634e487b7160e01b600052601260045260246000fd5b500490565b600082821015620024da57620024da620022f9565b500390565b60008251620024f381846020870162001d6d565b919091019291505056fe60806040819052600680546001600160a01b031916301790556200201e388190039081908339810160408190526200003791620002f6565b806040516020016200004a9190620003d6565b604051602081830303815290604052816040516020016200006c919062000413565b604051602081830303815290604052838282816003908051906020019062000096929190620001ea565b508051620000ac906004906020840190620001ea565b505050620000c9620000c3620001a560201b60201c565b620001a9565b8251620000de906003906020860190620001ea565b508151620000f4906004906020850190620001ea565b506040516001600160a01b0382169060009060008051602062001ffe833981519152908290a35050600980546001600160a01b038086166001600160a01b0319928316811790935560088054918816918316919091179055600a80546001810182556000919091527fc65a7bb8d6351c1cf70c95a316cc6a92839c986682d98bc35f958f4883f9d2a801805490911690911790555062000198426203f48062000445565b600c5550620004a8915050565b3390565b600580546001600160a01b038381166001600160a01b03198316811790935560405191169190829060008051602062001ffe83398151915290600090a35050565b828054620001f8906200046c565b90600052602060002090601f0160209004810192826200021c576000855562000267565b82601f106200023757805160ff191683800117855562000267565b8280016001018555821562000267579182015b82811115620002675782518255916020019190600101906200024a565b506200027592915062000279565b5090565b5b808211156200027557600081556001016200027a565b80516001600160a01b0381168114620002a857600080fd5b919050565b634e487b7160e01b600052604160045260246000fd5b60005b83811015620002e0578181015183820152602001620002c6565b83811115620002f0576000848401525b50505050565b6000806000606084860312156200030c57600080fd5b620003178462000290565b9250620003276020850162000290565b60408501519092506001600160401b03808211156200034557600080fd5b818601915086601f8301126200035a57600080fd5b8151818111156200036f576200036f620002ad565b604051601f8201601f19908116603f011681019083821181831017156200039a576200039a620002ad565b81604052828152896020848701011115620003b457600080fd5b620003c7836020830160208801620002c3565b80955050505050509250925092565b670d2acc2ead8e840560c31b815260008251620003fb816008850160208701620002c3565b602960f81b6008939091019283015250600901919050565b67427269646765642d60c01b81526000825162000438816008850160208701620002c3565b9190910160080192915050565b600082198211156200046757634e487b7160e01b600052601160045260246000fd5b500190565b600181811c908216806200048157607f821691505b602082108103620004a257634e487b7160e01b600052602260045260246000fd5b50919050565b611b4680620004b86000396000f3fe60806040526004361061015f5760003560e01c80638da5cb5b116100c45780638da5cb5b1461035557806395d89b41146103735780639a708be314610388578063a457c2d7146103a8578063a5f2a152146103c8578063a9059cbb146103e8578063b09f126614610408578063b90306ad1461041d578063bbb35f691461043d578063d28d885214610473578063d7b96d4e14610488578063dd62ed3e146104a8578063e534155d146104ee578063f2fde38b1461050e578063fd4c9b961461052e57005b8062e733781461016857806306fdde0314610190578063095ea7b3146101b25780630f388b4f146101d25780630f6798a5146101f657806318160ddd1461021657806323b872dd1461022b57806328e1a6041461024b5780632a11ced01461026b578063313ce5671461029857806339509351146102b457806370a08231146102d4578063715018a61461030a578063794f4dd11461031f57005b3661016657005b005b61017b61017636600461174d565b61054e565b60405190151581526020015b60405180910390f35b34801561019c57600080fd5b506101a5610605565b60405161018791906117a5565b3480156101be57600080fd5b5061017b6101cd36600461174d565b610697565b3480156101de57600080fd5b506101e8600b5481565b604051908152602001610187565b34801561020257600080fd5b5061016661021136600461174d565b6106ad565b34801561022257600080fd5b506002546101e8565b34801561023757600080fd5b5061017b6102463660046117d8565b6107ab565b34801561025757600080fd5b5061016661026636600461174d565b610801565b34801561027757600080fd5b5061028b610286366004611819565b610817565b6040516101879190611832565b3480156102a457600080fd5b5060405160128152602001610187565b3480156102c057600080fd5b5061017b6102cf36600461174d565b610841565b3480156102e057600080fd5b506101e86102ef366004611846565b6001600160a01b031660009081526020819052604090205490565b34801561031657600080fd5b5061016661087d565b34801561032b57600080fd5b5061028b61033a366004611819565b6000908152600760205260409020546001600160a01b031690565b34801561036157600080fd5b506005546001600160a01b031661028b565b34801561037f57600080fd5b506101a5610891565b34801561039457600080fd5b506101666103a336600461190d565b6108a0565b3480156103b457600080fd5b5061017b6103c336600461174d565b6108d9565b3480156103d457600080fd5b5061017b6103e33660046117d8565b610917565b3480156103f457600080fd5b5061017b61040336600461174d565b610a50565b34801561041457600080fd5b506101a5610a5d565b34801561042957600080fd5b50610166610438366004611819565b610aeb565b34801561044957600080fd5b5061028b610458366004611819565b6007602052600090815260409020546001600160a01b031681565b34801561047f57600080fd5b506101a5610b00565b34801561049457600080fd5b5060085461028b906001600160a01b031681565b3480156104b457600080fd5b506101e86104c3366004611971565b6001600160a01b03918216600090815260016020908152604080832093909416825291909152205490565b3480156104fa57600080fd5b5060095461028b906001600160a01b031681565b34801561051a57600080fd5b50610166610529366004611846565b610b0d565b34801561053a57600080fd5b5061017b610549366004611846565b610b88565b6008546000906001600160a01b0316336001600160a01b0316148061058657506009546001600160a01b0316336001600160a01b0316145b61058f57600080fd5b4782111561059b574791505b6000836001600160a01b03168360405160006040518083038185875af1925050503d80600081146105e8576040519150601f19603f3d011682016040523d82523d6000602084013e6105ed565b606091505b50509050806105fb57600080fd5b5060019392505050565b606060038054610614906119aa565b80601f0160208091040260200160405190810160405280929190818152602001828054610640906119aa565b801561068d5780601f106106625761010080835404028352916020019161068d565b820191906000526020600020905b81548152906001019060200180831161067057829003601f168201915b5050505050905090565b60006106a4338484610ee6565b50600192915050565b6000612710306001600160a01b03166318160ddd6040518163ffffffff1660e01b8152600401602060405180830381865afa1580156106f0573d6000803e3d6000fd5b505050506040513d601f19601f8201168201806040525081019061071491906119e4565b610720906113ec611a13565b61072a9190611a32565b6040516370a0823160e01b815230906370a082319061074d903390600401611832565b602060405180830381865afa15801561076a573d6000803e3d6000fd5b505050506040513d601f19601f8201168201806040525081019061078e91906119e4565b101590508061079c57600080fd5b6107a68383610f6d565b505050565b60006107b8848484610ff7565b6001600160a01b0384166000908152600160209081526040808320338452909152902054828110156107e957600080fd5b6107f68533858403610ee6565b506001949350505050565b6108096111d2565b610813828261122c565b5050565b600a818154811061082757600080fd5b6000918252602090912001546001600160a01b0316905081565b3360008181526001602090815260408083206001600160a01b038716845290915281205490916106a4918590610878908690611a54565b610ee6565b6108856111d2565b61088f60006112cd565b565b606060048054610614906119aa565b6009546001600160a01b031633036108135781516108c590600390602085019061169f565b5080516107a690600490602084019061169f565b3360009081526001602090815260408083206001600160a01b03861684529091528120548281101561090a57600080fd5b6105fb3385858403610ee6565b6008546000906001600160a01b0316336001600160a01b0316148061094f57506009546001600160a01b0316336001600160a01b0316145b61095857600080fd5b6040516370a0823160e01b81526001600160a01b038516906370a0823190610984903090600401611832565b602060405180830381865afa1580156109a1573d6000803e3d6000fd5b505050506040513d601f19601f820116820180604052508101906109c591906119e4565b821115610a3c576040516370a0823160e01b81526001600160a01b038516906370a08231906109f8903090600401611832565b602060405180830381865afa158015610a15573d6000803e3d6000fd5b505050506040513d601f19601f82011682018060405250810190610a3991906119e4565b91505b6105fb6001600160a01b038516848461131f565b60006106a4338484610ff7565b60048054610a6a906119aa565b80601f0160208091040260200160405190810160405280929190818152602001828054610a96906119aa565b8015610ae35780601f10610ab857610100808354040283529160200191610ae3565b820191906000526020600020905b815481529060010190602001808311610ac657829003601f168201915b505050505081565b610af36111d2565b610afd338261122c565b50565b60038054610a6a906119aa565b610b156111d2565b6001600160a01b038116610b7f5760405162461bcd60e51b815260206004820152602660248201527f4f776e61626c653a206e6577206f776e657220697320746865207a65726f206160448201526564647265737360d01b60648201526084015b60405180910390fd5b610afd816112cd565b6009546000906001600160a01b03838116911614610ede576009546001600160a01b031633819003610d2157600980546001600160a01b0385166001600160a01b03199182168117909255600a80546001810182556000919091527fc65a7bb8d6351c1cf70c95a316cc6a92839c986682d98bc35f958f4883f9d2a80180549091169091179055610c1b42610258611a54565b600c55600654604080516318160ddd60e01b81529051610c979286926001600160a01b03909116916318160ddd916004808201926020929091908290030181865afa158015610c6e573d6000803e3d6000fd5b505050506040513d601f19601f82011682018060405250810190610c9291906119e4565b610f6d565b610ca083610b0d565b6006546040516370a0823160e01b8152610d1c9183916001600160a01b03909116906370a0823190610cd6908490600401611832565b602060405180830381865afa158015610cf3573d6000803e3d6000fd5b505050506040513d601f19601f82011682018060405250810190610d1791906119e4565b61122c565b610e9c565b6127106113ec600660009054906101000a90046001600160a01b03166001600160a01b03166318160ddd6040518163ffffffff1660e01b8152600401602060405180830381865afa158015610d7a573d6000803e3d6000fd5b505050506040513d601f19601f82011682018060405250810190610d9e91906119e4565b610da89190611a13565b610db29190611a32565b6006546040516370a0823160e01b81526001600160a01b03909116906370a0823190610de2908790600401611832565b602060405180830381865afa158015610dff573d6000803e3d6000fd5b505050506040513d601f19601f82011682018060405250810190610e2391906119e4565b10610e9c57600980546001600160a01b0385166001600160a01b03199182168117909255600a80546001810182556000919091527fc65a7bb8d6351c1cf70c95a316cc6a92839c986682d98bc35f958f4883f9d2a80180549091169091179055610e904262015180611a54565b600c55610e9c83610b0d565b826001600160a01b0316816001600160a01b03167f63db4fd02abe7291d8f941514c494426e598a36d386fafa477735f923d30c83e60405160405180910390a3505b506001919050565b6001600160a01b038316610ef957600080fd5b6001600160a01b038216610f0c57600080fd5b6001600160a01b0383811660008181526001602090815260408083209487168084529482529182902085905590518481527f8c5be1e5ebec7d5bd14f71427d1e84f3dd0314c0f7b2291e5b200ac8c7c3b925910160405180910390a3505050565b6001600160a01b038216610f8057600080fd5b8060026000828254610f929190611a54565b90915550506001600160a01b03821660009081526020819052604081208054839290610fbf908490611a54565b90915550506040518181526001600160a01b03831690600090600080516020611af18339815191529060200160405180910390a35050565b60005b600a548110156111c6576127106113ec600660009054906101000a90046001600160a01b03166001600160a01b03166318160ddd6040518163ffffffff1660e01b8152600401602060405180830381865afa15801561105d573d6000803e3d6000fd5b505050506040513d601f19601f8201168201806040525081019061108191906119e4565b61108b9190611a13565b6110959190611a32565b600654600a80546001600160a01b03909216916370a082319190859081106110bf576110bf611a6c565b6000918252602090912001546040516001600160e01b031960e084901b1681526110f5916001600160a01b031690600401611832565b602060405180830381865afa158015611112573d6000803e3d6000fd5b505050506040513d601f19601f8201168201806040525081019061113691906119e4565b106111b457600954600a80546001600160a01b03909216918390811061115e5761115e611a6c565b6000918252602090912001546001600160a01b0316146111b457600c544211156111b4576111b2600a828154811061119857611198611a6c565b6000918252602090912001546001600160a01b0316610b88565b505b806111be81611a82565b915050610ffa565b506107a6838383611371565b6005546001600160a01b0316331461088f5760405162461bcd60e51b815260206004820181905260248201527f4f776e61626c653a2063616c6c6572206973206e6f7420746865206f776e65726044820152606401610b76565b6001600160a01b03821661123f57600080fd5b6001600160a01b0382166000908152602081905260409020548181101561126557600080fd5b6001600160a01b0383166000908152602081905260408120838303905560028054849290611294908490611a9b565b90915550506040518281526000906001600160a01b03851690600080516020611af18339815191529060200160405180910390a3505050565b600580546001600160a01b038381166001600160a01b0319831681179093556040519116919082907f8be0079c531659141344cd1fd0a4f28419497f9722a3daafe3b4186f6b6457e090600090a35050565b604080516001600160a01b038416602482015260448082018490528251808303909101815260649091019091526020810180516001600160e01b031663a9059cbb60e01b1790526107a690849061143d565b6001600160a01b03831661138457600080fd5b6001600160a01b03821661139757600080fd5b6001600160a01b038316600090815260208190526040902054818110156113bd57600080fd5b6001600160a01b038085166000908152602081905260408082208585039055918516815290812080548492906113f4908490611a54565b92505081905550826001600160a01b0316846001600160a01b0316600080516020611af18339815191528460405161142e91815260200190565b60405180910390a35b50505050565b6000611492826040518060400160405280602081526020017f5361666545524332303a206c6f772d6c6576656c2063616c6c206661696c6564815250856001600160a01b031661150f9092919063ffffffff16565b8051909150156107a657808060200190518101906114b09190611ab2565b6107a65760405162461bcd60e51b815260206004820152602a60248201527f5361666545524332303a204552433230206f7065726174696f6e20646964206e6044820152691bdd081cdd58d8d9595960b21b6064820152608401610b76565b606061151e8484600085611526565b949350505050565b6060824710156115875760405162461bcd60e51b815260206004820152602660248201527f416464726573733a20696e73756666696369656e742062616c616e636520666f6044820152651c8818d85b1b60d21b6064820152608401610b76565b600080866001600160a01b031685876040516115a39190611ad4565b60006040518083038185875af1925050503d80600081146115e0576040519150601f19603f3d011682016040523d82523d6000602084013e6115e5565b606091505b50915091506115f687838387611601565b979650505050505050565b60608315611670578251600003611669576001600160a01b0385163b6116695760405162461bcd60e51b815260206004820152601d60248201527f416464726573733a2063616c6c20746f206e6f6e2d636f6e74726163740000006044820152606401610b76565b508161151e565b61151e83838151156116855781518083602001fd5b8060405162461bcd60e51b8152600401610b7691906117a5565b8280546116ab906119aa565b90600052602060002090601f0160209004810192826116cd5760008555611713565b82601f106116e657805160ff1916838001178555611713565b82800160010185558215611713579182015b828111156117135782518255916020019190600101906116f8565b5061171f929150611723565b5090565b5b8082111561171f5760008155600101611724565b6001600160a01b0381168114610afd57600080fd5b6000806040838503121561176057600080fd5b823561176b81611738565b946020939093013593505050565b60005b8381101561179457818101518382015260200161177c565b838111156114375750506000910152565b60208152600082518060208401526117c4816040850160208701611779565b601f01601f19169190910160400192915050565b6000806000606084860312156117ed57600080fd5b83356117f881611738565b9250602084013561180881611738565b929592945050506040919091013590565b60006020828403121561182b57600080fd5b5035919050565b6001600160a01b0391909116815260200190565b60006020828403121561185857600080fd5b813561186381611738565b9392505050565b634e487b7160e01b600052604160045260246000fd5b600082601f83011261189157600080fd5b813567ffffffffffffffff808211156118ac576118ac61186a565b604051601f8301601f19908116603f011681019082821181831017156118d4576118d461186a565b816040528381528660208588010111156118ed57600080fd5b836020870160208301376000602085830101528094505050505092915050565b6000806040838503121561192057600080fd5b823567ffffffffffffffff8082111561193857600080fd5b61194486838701611880565b9350602085013591508082111561195a57600080fd5b5061196785828601611880565b9150509250929050565b6000806040838503121561198457600080fd5b823561198f81611738565b9150602083013561199f81611738565b809150509250929050565b600181811c908216806119be57607f821691505b6020821081036119de57634e487b7160e01b600052602260045260246000fd5b50919050565b6000602082840312156119f657600080fd5b5051919050565b634e487b7160e01b600052601160045260246000fd5b6000816000190483118215151615611a2d57611a2d6119fd565b500290565b600082611a4f57634e487b7160e01b600052601260045260246000fd5b500490565b60008219821115611a6757611a676119fd565b500190565b634e487b7160e01b600052603260045260246000fd5b600060018201611a9457611a946119fd565b5060010190565b600082821015611aad57611aad6119fd565b500390565b600060208284031215611ac457600080fd5b8151801515811461186357600080fd5b60008251611ae6818460208701611779565b919091019291505056feddf252ad1be2c89b69c2b068fc378daa952ba7f163c4a11628f55a4df523b3efa2646970667358221220ec74b497ebfccccc36aed5b863a3b4309a3f26f187f6c6e32d30a17601bab17164736f6c634300080d00338be0079c531659141344cd1fd0a4f28419497f9722a3daafe3b4186f6b6457e0a2646970667358221220a096b9341d151590552e0509a39fc3f92328441e071ec995e3fab82184ce7d5b64736f6c634300080d003360806040819052600680546001600160a01b031916301790556200201e388190039081908339810160408190526200003791620002f6565b806040516020016200004a9190620003d6565b604051602081830303815290604052816040516020016200006c919062000413565b604051602081830303815290604052838282816003908051906020019062000096929190620001ea565b508051620000ac906004906020840190620001ea565b505050620000c9620000c3620001a560201b60201c565b620001a9565b8251620000de906003906020860190620001ea565b508151620000f4906004906020850190620001ea565b506040516001600160a01b0382169060009060008051602062001ffe833981519152908290a35050600980546001600160a01b038086166001600160a01b0319928316811790935560088054918816918316919091179055600a80546001810182556000919091527fc65a7bb8d6351c1cf70c95a316cc6a92839c986682d98bc35f958f4883f9d2a801805490911690911790555062000198426203f48062000445565b600c5550620004a8915050565b3390565b600580546001600160a01b038381166001600160a01b03198316811790935560405191169190829060008051602062001ffe83398151915290600090a35050565b828054620001f8906200046c565b90600052602060002090601f0160209004810192826200021c576000855562000267565b82601f106200023757805160ff191683800117855562000267565b8280016001018555821562000267579182015b82811115620002675782518255916020019190600101906200024a565b506200027592915062000279565b5090565b5b808211156200027557600081556001016200027a565b80516001600160a01b0381168114620002a857600080fd5b919050565b634e487b7160e01b600052604160045260246000fd5b60005b83811015620002e0578181015183820152602001620002c6565b83811115620002f0576000848401525b50505050565b6000806000606084860312156200030c57600080fd5b620003178462000290565b9250620003276020850162000290565b60408501519092506001600160401b03808211156200034557600080fd5b818601915086601f8301126200035a57600080fd5b8151818111156200036f576200036f620002ad565b604051601f8201601f19908116603f011681019083821181831017156200039a576200039a620002ad565b81604052828152896020848701011115620003b457600080fd5b620003c7836020830160208801620002c3565b80955050505050509250925092565b670d2acc2ead8e840560c31b815260008251620003fb816008850160208701620002c3565b602960f81b6008939091019283015250600901919050565b67427269646765642d60c01b81526000825162000438816008850160208701620002c3565b9190910160080192915050565b600082198211156200046757634e487b7160e01b600052601160045260246000fd5b500190565b600181811c908216806200048157607f821691505b602082108103620004a257634e487b7160e01b600052602260045260246000fd5b50919050565b611b4680620004b86000396000f3fe60806040526004361061015f5760003560e01c80638da5cb5b116100c45780638da5cb5b1461035557806395d89b41146103735780639a708be314610388578063a457c2d7146103a8578063a5f2a152146103c8578063a9059cbb146103e8578063b09f126614610408578063b90306ad1461041d578063bbb35f691461043d578063d28d885214610473578063d7b96d4e14610488578063dd62ed3e146104a8578063e534155d146104ee578063f2fde38b1461050e578063fd4c9b961461052e57005b8062e733781461016857806306fdde0314610190578063095ea7b3146101b25780630f388b4f146101d25780630f6798a5146101f657806318160ddd1461021657806323b872dd1461022b57806328e1a6041461024b5780632a11ced01461026b578063313ce5671461029857806339509351146102b457806370a08231146102d4578063715018a61461030a578063794f4dd11461031f57005b3661016657005b005b61017b61017636600461174d565b61054e565b60405190151581526020015b60405180910390f35b34801561019c57600080fd5b506101a5610605565b60405161018791906117a5565b3480156101be57600080fd5b5061017b6101cd36600461174d565b610697565b3480156101de57600080fd5b506101e8600b5481565b604051908152602001610187565b34801561020257600080fd5b5061016661021136600461174d565b6106ad565b34801561022257600080fd5b506002546101e8565b34801561023757600080fd5b5061017b6102463660046117d8565b6107ab565b34801561025757600080fd5b5061016661026636600461174d565b610801565b34801561027757600080fd5b5061028b610286366004611819565b610817565b6040516101879190611832565b3480156102a457600080fd5b5060405160128152602001610187565b3480156102c057600080fd5b5061017b6102cf36600461174d565b610841565b3480156102e057600080fd5b506101e86102ef366004611846565b6001600160a01b031660009081526020819052604090205490565b34801561031657600080fd5b5061016661087d565b34801561032b57600080fd5b5061028b61033a366004611819565b6000908152600760205260409020546001600160a01b031690565b34801561036157600080fd5b506005546001600160a01b031661028b565b34801561037f57600080fd5b506101a5610891565b34801561039457600080fd5b506101666103a336600461190d565b6108a0565b3480156103b457600080fd5b5061017b6103c336600461174d565b6108d9565b3480156103d457600080fd5b5061017b6103e33660046117d8565b610917565b3480156103f457600080fd5b5061017b61040336600461174d565b610a50565b34801561041457600080fd5b506101a5610a5d565b34801561042957600080fd5b50610166610438366004611819565b610aeb565b34801561044957600080fd5b5061028b610458366004611819565b6007602052600090815260409020546001600160a01b031681565b34801561047f57600080fd5b506101a5610b00565b34801561049457600080fd5b5060085461028b906001600160a01b031681565b3480156104b457600080fd5b506101e86104c3366004611971565b6001600160a01b03918216600090815260016020908152604080832093909416825291909152205490565b3480156104fa57600080fd5b5060095461028b906001600160a01b031681565b34801561051a57600080fd5b50610166610529366004611846565b610b0d565b34801561053a57600080fd5b5061017b610549366004611846565b610b88565b6008546000906001600160a01b0316336001600160a01b0316148061058657506009546001600160a01b0316336001600160a01b0316145b61058f57600080fd5b4782111561059b574791505b6000836001600160a01b03168360405160006040518083038185875af1925050503d80600081146105e8576040519150601f19603f3d011682016040523d82523d6000602084013e6105ed565b606091505b50509050806105fb57600080fd5b5060019392505050565b606060038054610614906119aa565b80601f0160208091040260200160405190810160405280929190818152602001828054610640906119aa565b801561068d5780601f106106625761010080835404028352916020019161068d565b820191906000526020600020905b81548152906001019060200180831161067057829003601f168201915b5050505050905090565b60006106a4338484610ee6565b50600192915050565b6000612710306001600160a01b03166318160ddd6040518163ffffffff1660e01b8152600401602060405180830381865afa1580156106f0573d6000803e3d6000fd5b505050506040513d601f19601f8201168201806040525081019061071491906119e4565b610720906113ec611a13565b61072a9190611a32565b6040516370a0823160e01b815230906370a082319061074d903390600401611832565b602060405180830381865afa15801561076a573d6000803e3d6000fd5b505050506040513d601f19601f8201168201806040525081019061078e91906119e4565b101590508061079c57600080fd5b6107a68383610f6d565b505050565b60006107b8848484610ff7565b6001600160a01b0384166000908152600160209081526040808320338452909152902054828110156107e957600080fd5b6107f68533858403610ee6565b506001949350505050565b6108096111d2565b610813828261122c565b5050565b600a818154811061082757600080fd5b6000918252602090912001546001600160a01b0316905081565b3360008181526001602090815260408083206001600160a01b038716845290915281205490916106a4918590610878908690611a54565b610ee6565b6108856111d2565b61088f60006112cd565b565b606060048054610614906119aa565b6009546001600160a01b031633036108135781516108c590600390602085019061169f565b5080516107a690600490602084019061169f565b3360009081526001602090815260408083206001600160a01b03861684529091528120548281101561090a57600080fd5b6105fb3385858403610ee6565b6008546000906001600160a01b0316336001600160a01b0316148061094f57506009546001600160a01b0316336001600160a01b0316145b61095857600080fd5b6040516370a0823160e01b81526001600160a01b038516906370a0823190610984903090600401611832565b602060405180830381865afa1580156109a1573d6000803e3d6000fd5b505050506040513d601f19601f820116820180604052508101906109c591906119e4565b821115610a3c576040516370a0823160e01b81526001600160a01b038516906370a08231906109f8903090600401611832565b602060405180830381865afa158015610a15573d6000803e3d6000fd5b505050506040513d601f19601f82011682018060405250810190610a3991906119e4565b91505b6105fb6001600160a01b038516848461131f565b60006106a4338484610ff7565b60048054610a6a906119aa565b80601f0160208091040260200160405190810160405280929190818152602001828054610a96906119aa565b8015610ae35780601f10610ab857610100808354040283529160200191610ae3565b820191906000526020600020905b815481529060010190602001808311610ac657829003601f168201915b505050505081565b610af36111d2565b610afd338261122c565b50565b60038054610a6a906119aa565b610b156111d2565b6001600160a01b038116610b7f5760405162461bcd60e51b815260206004820152602660248201527f4f776e61626c653a206e6577206f776e657220697320746865207a65726f206160448201526564647265737360d01b60648201526084015b60405180910390fd5b610afd816112cd565b6009546000906001600160a01b03838116911614610ede576009546001600160a01b031633819003610d2157600980546001600160a01b0385166001600160a01b03199182168117909255600a80546001810182556000919091527fc65a7bb8d6351c1cf70c95a316cc6a92839c986682d98bc35f958f4883f9d2a80180549091169091179055610c1b42610258611a54565b600c55600654604080516318160ddd60e01b81529051610c979286926001600160a01b03909116916318160ddd916004808201926020929091908290030181865afa158015610c6e573d6000803e3d6000fd5b505050506040513d601f19601f82011682018060405250810190610c9291906119e4565b610f6d565b610ca083610b0d565b6006546040516370a0823160e01b8152610d1c9183916001600160a01b03909116906370a0823190610cd6908490600401611832565b602060405180830381865afa158015610cf3573d6000803e3d6000fd5b505050506040513d601f19601f82011682018060405250810190610d1791906119e4565b61122c565b610e9c565b6127106113ec600660009054906101000a90046001600160a01b03166001600160a01b03166318160ddd6040518163ffffffff1660e01b8152600401602060405180830381865afa158015610d7a573d6000803e3d6000fd5b505050506040513d601f19601f82011682018060405250810190610d9e91906119e4565b610da89190611a13565b610db29190611a32565b6006546040516370a0823160e01b81526001600160a01b03909116906370a0823190610de2908790600401611832565b602060405180830381865afa158015610dff573d6000803e3d6000fd5b505050506040513d601f19601f82011682018060405250810190610e2391906119e4565b10610e9c57600980546001600160a01b0385166001600160a01b03199182168117909255600a80546001810182556000919091527fc65a7bb8d6351c1cf70c95a316cc6a92839c986682d98bc35f958f4883f9d2a80180549091169091179055610e904262015180611a54565b600c55610e9c83610b0d565b826001600160a01b0316816001600160a01b03167f63db4fd02abe7291d8f941514c494426e598a36d386fafa477735f923d30c83e60405160405180910390a3505b506001919050565b6001600160a01b038316610ef957600080fd5b6001600160a01b038216610f0c57600080fd5b6001600160a01b0383811660008181526001602090815260408083209487168084529482529182902085905590518481527f8c5be1e5ebec7d5bd14f71427d1e84f3dd0314c0f7b2291e5b200ac8c7c3b925910160405180910390a3505050565b6001600160a01b038216610f8057600080fd5b8060026000828254610f929190611a54565b90915550506001600160a01b03821660009081526020819052604081208054839290610fbf908490611a54565b90915550506040518181526001600160a01b03831690600090600080516020611af18339815191529060200160405180910390a35050565b60005b600a548110156111c6576127106113ec600660009054906101000a90046001600160a01b03166001600160a01b03166318160ddd6040518163ffffffff1660e01b8152600401602060405180830381865afa15801561105d573d6000803e3d6000fd5b505050506040513d601f19601f8201168201806040525081019061108191906119e4565b61108b9190611a13565b6110959190611a32565b600654600a80546001600160a01b03909216916370a082319190859081106110bf576110bf611a6c565b6000918252602090912001546040516001600160e01b031960e084901b1681526110f5916001600160a01b031690600401611832565b602060405180830381865afa158015611112573d6000803e3d6000fd5b505050506040513d601f19601f8201168201806040525081019061113691906119e4565b106111b457600954600a80546001600160a01b03909216918390811061115e5761115e611a6c565b6000918252602090912001546001600160a01b0316146111b457600c544211156111b4576111b2600a828154811061119857611198611a6c565b6000918252602090912001546001600160a01b0316610b88565b505b806111be81611a82565b915050610ffa565b506107a6838383611371565b6005546001600160a01b0316331461088f5760405162461bcd60e51b815260206004820181905260248201527f4f776e61626c653a2063616c6c6572206973206e6f7420746865206f776e65726044820152606401610b76565b6001600160a01b03821661123f57600080fd5b6001600160a01b0382166000908152602081905260409020548181101561126557600080fd5b6001600160a01b0383166000908152602081905260408120838303905560028054849290611294908490611a9b565b90915550506040518281526000906001600160a01b03851690600080516020611af18339815191529060200160405180910390a3505050565b600580546001600160a01b038381166001600160a01b0319831681179093556040519116919082907f8be0079c531659141344cd1fd0a4f28419497f9722a3daafe3b4186f6b6457e090600090a35050565b604080516001600160a01b038416602482015260448082018490528251808303909101815260649091019091526020810180516001600160e01b031663a9059cbb60e01b1790526107a690849061143d565b6001600160a01b03831661138457600080fd5b6001600160a01b03821661139757600080fd5b6001600160a01b038316600090815260208190526040902054818110156113bd57600080fd5b6001600160a01b038085166000908152602081905260408082208585039055918516815290812080548492906113f4908490611a54565b92505081905550826001600160a01b0316846001600160a01b0316600080516020611af18339815191528460405161142e91815260200190565b60405180910390a35b50505050565b6000611492826040518060400160405280602081526020017f5361666545524332303a206c6f772d6c6576656c2063616c6c206661696c6564815250856001600160a01b031661150f9092919063ffffffff16565b8051909150156107a657808060200190518101906114b09190611ab2565b6107a65760405162461bcd60e51b815260206004820152602a60248201527f5361666545524332303a204552433230206f7065726174696f6e20646964206e6044820152691bdd081cdd58d8d9595960b21b6064820152608401610b76565b606061151e8484600085611526565b949350505050565b6060824710156115875760405162461bcd60e51b815260206004820152602660248201527f416464726573733a20696e73756666696369656e742062616c616e636520666f6044820152651c8818d85b1b60d21b6064820152608401610b76565b600080866001600160a01b031685876040516115a39190611ad4565b60006040518083038185875af1925050503d80600081146115e0576040519150601f19603f3d011682016040523d82523d6000602084013e6115e5565b606091505b50915091506115f687838387611601565b979650505050505050565b60608315611670578251600003611669576001600160a01b0385163b6116695760405162461bcd60e51b815260206004820152601d60248201527f416464726573733a2063616c6c20746f206e6f6e2d636f6e74726163740000006044820152606401610b76565b508161151e565b61151e83838151156116855781518083602001fd5b8060405162461bcd60e51b8152600401610b7691906117a5565b8280546116ab906119aa565b90600052602060002090601f0160209004810192826116cd5760008555611713565b82601f106116e657805160ff1916838001178555611713565b82800160010185558215611713579182015b828111156117135782518255916020019190600101906116f8565b5061171f929150611723565b5090565b5b8082111561171f5760008155600101611724565b6001600160a01b0381168114610afd57600080fd5b6000806040838503121561176057600080fd5b823561176b81611738565b946020939093013593505050565b60005b8381101561179457818101518382015260200161177c565b838111156114375750506000910152565b60208152600082518060208401526117c4816040850160208701611779565b601f01601f19169190910160400192915050565b6000806000606084860312156117ed57600080fd5b83356117f881611738565b9250602084013561180881611738565b929592945050506040919091013590565b60006020828403121561182b57600080fd5b5035919050565b6001600160a01b0391909116815260200190565b60006020828403121561185857600080fd5b813561186381611738565b9392505050565b634e487b7160e01b600052604160045260246000fd5b600082601f83011261189157600080fd5b813567ffffffffffffffff808211156118ac576118ac61186a565b604051601f8301601f19908116603f011681019082821181831017156118d4576118d461186a565b816040528381528660208588010111156118ed57600080fd5b836020870160208301376000602085830101528094505050505092915050565b6000806040838503121561192057600080fd5b823567ffffffffffffffff8082111561193857600080fd5b61194486838701611880565b9350602085013591508082111561195a57600080fd5b5061196785828601611880565b9150509250929050565b6000806040838503121561198457600080fd5b823561198f81611738565b9150602083013561199f81611738565b809150509250929050565b600181811c908216806119be57607f821691505b6020821081036119de57634e487b7160e01b600052602260045260246000fd5b50919050565b6000602082840312156119f657600080fd5b5051919050565b634e487b7160e01b600052601160045260246000fd5b6000816000190483118215151615611a2d57611a2d6119fd565b500290565b600082611a4f57634e487b7160e01b600052601260045260246000fd5b500490565b60008219821115611a6757611a676119fd565b500190565b634e487b7160e01b600052603260045260246000fd5b600060018201611a9457611a946119fd565b5060010190565b600082821015611aad57611aad6119fd565b500390565b600060208284031215611ac457600080fd5b8151801515811461186357600080fd5b60008251611ae6818460208701611779565b919091019291505056feddf252ad1be2c89b69c2b068fc378daa952ba7f163c4a11628f55a4df523b3efa2646970667358221220ec74b497ebfccccc36aed5b863a3b4309a3f26f187f6c6e32d30a17601bab17164736f6c634300080d00338be0079c531659141344cd1fd0a4f28419497f9722a3daafe3b4186f6b6457e0",
			"opcodes": "PUSH1 0xE0 PUSH1 0x40 MSTORE PUSH1 0x4 PUSH1 0xA0 DUP2 SWAP1 MSTORE PUSH4 0x784FCA49 PUSH1 0xE1 SHL PUSH1 0xC0 SWAP1 DUP2 MSTORE PUSH3 0x27 SWAP2 PUSH1 0x9 SWAP2 SWAP1 PUSH3 0x23E JUMP JUMPDEST POP PUSH1 0x40 DUP1 MLOAD DUP1 DUP3 ADD SWAP1 SWAP2 MSTORE PUSH1 0x4 DUP1 DUP3 MSTORE PUSH4 0xF09F9491 PUSH1 0xE0 SHL PUSH1 0x20 SWAP1 SWAP3 ADD SWAP2 DUP3 MSTORE PUSH3 0x55 SWAP2 PUSH1 0xA SWAP2 PUSH3 0x23E JUMP JUMPDEST POP PUSH1 0xB DUP1 SLOAD PUSH1 0x1 PUSH1 0x1 PUSH1 0xA0 SHL SUB NOT SWAP1 DUP2 AND PUSH20 0x50134FD4EA6547846EDE4C4BF46A334B7E87CCD OR SWAP1 SWAP2 SSTORE PUSH1 0xC DUP1 SLOAD DUP3 AND PUSH20 0xD166DF9DFB917C3B960673E2F420F928D45C9BE1 OR SWAP1 SSTORE PUSH2 0x1388 PUSH1 0xD SSTORE PUSH2 0x2710 PUSH1 0x80 DUP2 SWAP1 MSTORE PUSH1 0xE DUP1 SLOAD SWAP1 SWAP3 AND PUSH20 0x67954768E721FAD0F0F21E33E874497C73ED6A82 OR SWAP1 SWAP2 SSTORE PUSH1 0x11 SSTORE PUSH2 0x2EE PUSH1 0x12 SSTORE PUSH1 0x0 PUSH1 0x13 DUP2 SWAP1 SSTORE PUSH1 0x14 SSTORE PUSH7 0xD801472258000 PUSH1 0x15 SSTORE PUSH10 0x34F086F3B33B68400000 PUSH1 0x16 SSTORE PUSH10 0xD3C21BCECCEDA1000000 PUSH1 0x17 SSTORE PUSH1 0x18 DUP1 SLOAD PUSH1 0xFF NOT AND SWAP1 SSTORE PUSH1 0x40 MLOAD PUSH3 0x6966 CODESIZE DUP2 SWAP1 SUB SWAP1 DUP2 SWAP1 DUP4 CODECOPY DUP2 ADD PUSH1 0x40 DUP2 SWAP1 MSTORE PUSH3 0x131 SWAP2 PUSH3 0x2F2 JUMP JUMPDEST PUSH1 0xB SLOAD PUSH1 0xC SLOAD PUSH1 0x0 DUP1 SLOAD PUSH1 0x1 PUSH1 0x1 PUSH1 0xA0 SHL SUB NOT AND CALLER SWAP1 DUP2 OR DUP3 SSTORE DUP1 DUP3 MSTORE PUSH1 0x1 PUSH1 0x20 DUP2 DUP2 MSTORE PUSH1 0x40 DUP1 DUP6 KECCAK256 DUP1 SLOAD PUSH1 0xFF NOT SWAP1 DUP2 AND DUP6 OR SWAP1 SWAP2 SSTORE PUSH1 0x1 PUSH1 0x1 PUSH1 0xA0 SHL SUB SWAP8 DUP9 AND DUP7 MSTORE DUP2 DUP7 KECCAK256 DUP1 SLOAD DUP3 AND DUP6 OR SWAP1 SSTORE SWAP7 SWAP1 SWAP6 AND DUP5 MSTORE SWAP3 DUP5 SWAP1 KECCAK256 DUP1 SLOAD SWAP1 SWAP6 AND DUP2 OR SWAP1 SWAP5 SSTORE PUSH1 0x2 SWAP4 SWAP1 SWAP4 SSTORE DUP2 MLOAD DUP1 DUP4 ADD DUP4 MSTORE PUSH1 0x3 DUP2 MSTORE PUSH3 0x8AA89 PUSH1 0xEB SHL SWAP2 DUP2 ADD SWAP2 SWAP1 SWAP2 MSTORE SWAP1 MLOAD DUP4 SWAP3 SWAP2 SWAP1 PUSH3 0x1C3 SWAP1 PUSH3 0x2CD JUMP JUMPDEST PUSH3 0x1D1 SWAP4 SWAP3 SWAP2 SWAP1 PUSH3 0x324 JUMP JUMPDEST PUSH1 0x40 MLOAD DUP1 SWAP2 SUB SWAP1 PUSH1 0x0 CREATE DUP1 ISZERO DUP1 ISZERO PUSH3 0x1EE JUMPI RETURNDATASIZE PUSH1 0x0 DUP1 RETURNDATACOPY RETURNDATASIZE PUSH1 0x0 REVERT JUMPDEST POP PUSH1 0x0 DUP1 MSTORE PUSH1 0x5 PUSH1 0x20 MSTORE PUSH32 0x5B8CCBB9D4D8FB16EA74CE3C29A41F1B461FBDAFF4714A0D9A8EB05499746BC DUP1 SLOAD PUSH1 0x1 PUSH1 0x1 PUSH1 0xA0 SHL SUB NOT AND PUSH1 0x1 PUSH1 0x1 PUSH1 0xA0 SHL SUB SWAP3 SWAP1 SWAP3 AND SWAP2 SWAP1 SWAP2 OR SWAP1 SSTORE POP PUSH3 0x3D4 JUMP JUMPDEST DUP3 DUP1 SLOAD PUSH3 0x24C SWAP1 PUSH3 0x398 JUMP JUMPDEST SWAP1 PUSH1 0x0 MSTORE PUSH1 0x20 PUSH1 0x0 KECCAK256 SWAP1 PUSH1 0x1F ADD PUSH1 0x20 SWAP1 DIV DUP2 ADD SWAP3 DUP3 PUSH3 0x270 JUMPI PUSH1 0x0 DUP6 SSTORE PUSH3 0x2BB JUMP JUMPDEST DUP3 PUSH1 0x1F LT PUSH3 0x28B JUMPI DUP1 MLOAD PUSH1 0xFF NOT AND DUP4 DUP1 ADD OR DUP6 SSTORE PUSH3 0x2BB JUMP JUMPDEST DUP3 DUP1 ADD PUSH1 0x1 ADD DUP6 SSTORE DUP3 ISZERO PUSH3 0x2BB JUMPI SWAP2 DUP3 ADD JUMPDEST DUP3 DUP2 GT ISZERO PUSH3 0x2BB JUMPI DUP3 MLOAD DUP3 SSTORE SWAP2 PUSH1 0x20 ADD SWAP2 SWAP1 PUSH1 0x1 ADD SWAP1 PUSH3 0x29E JUMP JUMPDEST POP PUSH3 0x2C9 SWAP3 SWAP2 POP PUSH3 0x2DB JUMP JUMPDEST POP SWAP1 JUMP JUMPDEST PUSH2 0x201E DUP1 PUSH3 0x4948 DUP4 CODECOPY ADD SWAP1 JUMP JUMPDEST JUMPDEST DUP1 DUP3 GT ISZERO PUSH3 0x2C9 JUMPI PUSH1 0x0 DUP2 SSTORE PUSH1 0x1 ADD PUSH3 0x2DC JUMP JUMPDEST PUSH1 0x0 PUSH1 0x20 DUP3 DUP5 SUB SLT ISZERO PUSH3 0x305 JUMPI PUSH1 0x0 DUP1 REVERT JUMPDEST DUP2 MLOAD PUSH1 0x1 PUSH1 0x1 PUSH1 0xA0 SHL SUB DUP2 AND DUP2 EQ PUSH3 0x31D JUMPI PUSH1 0x0 DUP1 REVERT JUMPDEST SWAP4 SWAP3 POP POP POP JUMP JUMPDEST PUSH1 0x0 PUSH1 0x1 DUP1 PUSH1 0xA0 SHL SUB DUP1 DUP7 AND DUP4 MSTORE PUSH1 0x20 DUP2 DUP7 AND DUP2 DUP6 ADD MSTORE PUSH1 0x60 PUSH1 0x40 DUP6 ADD MSTORE DUP5 MLOAD SWAP2 POP DUP2 PUSH1 0x60 DUP6 ADD MSTORE PUSH1 0x0 JUMPDEST DUP3 DUP2 LT ISZERO PUSH3 0x36D JUMPI DUP6 DUP2 ADD DUP3 ADD MLOAD DUP6 DUP3 ADD PUSH1 0x80 ADD MSTORE DUP2 ADD PUSH3 0x34F JUMP JUMPDEST DUP3 DUP2 GT ISZERO PUSH3 0x380 JUMPI PUSH1 0x0 PUSH1 0x80 DUP5 DUP8 ADD ADD MSTORE JUMPDEST POP POP PUSH1 0x1F ADD PUSH1 0x1F NOT AND SWAP2 SWAP1 SWAP2 ADD PUSH1 0x80 ADD SWAP5 SWAP4 POP POP POP POP JUMP JUMPDEST PUSH1 0x1 DUP2 DUP2 SHR SWAP1 DUP3 AND DUP1 PUSH3 0x3AD JUMPI PUSH1 0x7F DUP3 AND SWAP2 POP JUMPDEST PUSH1 0x20 DUP3 LT DUP2 SUB PUSH3 0x3CE JUMPI PUSH4 0x4E487B71 PUSH1 0xE0 SHL PUSH1 0x0 MSTORE PUSH1 0x22 PUSH1 0x4 MSTORE PUSH1 0x24 PUSH1 0x0 REVERT JUMPDEST POP SWAP2 SWAP1 POP JUMP JUMPDEST PUSH1 0x80 MLOAD PUSH2 0x4551 PUSH3 0x3F7 PUSH1 0x0 CODECOPY PUSH1 0x0 DUP2 DUP2 PUSH2 0x12D9 ADD MSTORE PUSH2 0x1A15 ADD MSTORE PUSH2 0x4551 PUSH1 0x0 RETURN INVALID PUSH1 0x80 PUSH1 0x40 MSTORE PUSH1 0x4 CALLDATASIZE LT PUSH3 0x11F JUMPI PUSH1 0x0 CALLDATALOAD PUSH1 0xE0 SHR DUP1 PUSH4 0x8CD0ACC3 GT PUSH3 0xA5 JUMPI DUP1 PUSH4 0x8CD0ACC3 EQ PUSH3 0x290 JUMPI DUP1 PUSH4 0x95D89B41 EQ PUSH3 0x2B5 JUMPI DUP1 PUSH4 0x9E281A98 EQ PUSH3 0x2CD JUMPI DUP1 PUSH4 0xB20B119C EQ PUSH3 0x2F2 JUMPI DUP1 PUSH4 0xB6A5D7DE EQ PUSH3 0x30A JUMPI DUP1 PUSH4 0xC6ECEB10 EQ PUSH3 0x32F JUMPI DUP1 PUSH4 0xC79D4391 EQ PUSH3 0x347 JUMPI DUP1 PUSH4 0xD9A06DBD EQ PUSH3 0x36C JUMPI DUP1 PUSH4 0xDB236D96 EQ PUSH3 0x391 JUMPI DUP1 PUSH4 0xDD457D76 EQ PUSH3 0x3EA JUMPI DUP1 PUSH4 0xF0B37C04 EQ PUSH3 0x40F JUMPI STOP JUMPDEST DUP1 PUSH4 0x6FDDE03 EQ PUSH3 0x129 JUMPI DUP1 PUSH4 0xCBA52F9 EQ PUSH3 0x159 JUMPI DUP1 PUSH4 0x43602017 EQ PUSH3 0x181 JUMPI DUP1 PUSH4 0x528856F4 EQ PUSH3 0x1A6 JUMPI DUP1 PUSH4 0x560D9995 EQ PUSH3 0x1CB JUMPI DUP1 PUSH4 0x570E9F70 EQ PUSH3 0x1E2 JUMPI DUP1 PUSH4 0x6532D899 EQ PUSH3 0x209 JUMPI DUP1 PUSH4 0x6C7600C0 EQ PUSH3 0x22E JUMPI DUP1 PUSH4 0x7D21BBE2 EQ PUSH3 0x253 JUMPI DUP1 PUSH4 0x841BA87D EQ PUSH3 0x278 JUMPI STOP JUMPDEST CALLDATASIZE PUSH3 0x127 JUMPI STOP JUMPDEST STOP JUMPDEST CALLVALUE DUP1 ISZERO PUSH3 0x136 JUMPI PUSH1 0x0 DUP1 REVERT JUMPDEST POP PUSH3 0x141 PUSH3 0x434 JUMP JUMPDEST PUSH1 0x40 MLOAD PUSH3 0x150 SWAP2 SWAP1 PUSH3 0x1DCA JUMP JUMPDEST PUSH1 0x40 MLOAD DUP1 SWAP2 SUB SWAP1 RETURN JUMPDEST PUSH3 0x170 PUSH3 0x16A CALLDATASIZE PUSH1 0x4 PUSH3 0x1F39 JUMP JUMPDEST PUSH3 0x4CA JUMP JUMPDEST PUSH1 0x40 MLOAD SWAP1 ISZERO ISZERO DUP2 MSTORE PUSH1 0x20 ADD PUSH3 0x150 JUMP JUMPDEST CALLVALUE DUP1 ISZERO PUSH3 0x18E JUMPI PUSH1 0x0 DUP1 REVERT JUMPDEST POP PUSH3 0x127 PUSH3 0x1A0 CALLDATASIZE PUSH1 0x4 PUSH3 0x1FA3 JUMP JUMPDEST PUSH3 0x668 JUMP JUMPDEST CALLVALUE DUP1 ISZERO PUSH3 0x1B3 JUMPI PUSH1 0x0 DUP1 REVERT JUMPDEST POP PUSH3 0x170 PUSH3 0x1C5 CALLDATASIZE PUSH1 0x4 PUSH3 0x1FC3 JUMP JUMPDEST PUSH3 0x68B JUMP JUMPDEST PUSH3 0x170 PUSH3 0x1DC CALLDATASIZE PUSH1 0x4 PUSH3 0x202A JUMP JUMPDEST PUSH3 0x7CE JUMP JUMPDEST CALLVALUE DUP1 ISZERO PUSH3 0x1EF JUMPI PUSH1 0x0 DUP1 REVERT JUMPDEST POP PUSH3 0x1FA PUSH1 0x12 SLOAD DUP2 JUMP JUMPDEST PUSH1 0x40 MLOAD SWAP1 DUP2 MSTORE PUSH1 0x20 ADD PUSH3 0x150 JUMP JUMPDEST CALLVALUE DUP1 ISZERO PUSH3 0x216 JUMPI PUSH1 0x0 DUP1 REVERT JUMPDEST POP PUSH3 0x170 PUSH3 0x228 CALLDATASIZE PUSH1 0x4 PUSH3 0x2066 JUMP JUMPDEST PUSH3 0xA68 JUMP JUMPDEST CALLVALUE DUP1 ISZERO PUSH3 0x23B JUMPI PUSH1 0x0 DUP1 REVERT JUMPDEST POP PUSH3 0x170 PUSH3 0x24D CALLDATASIZE PUSH1 0x4 PUSH3 0x20A2 JUMP JUMPDEST PUSH3 0xB44 JUMP JUMPDEST CALLVALUE DUP1 ISZERO PUSH3 0x260 JUMPI PUSH1 0x0 DUP1 REVERT JUMPDEST POP PUSH3 0x170 PUSH3 0x272 CALLDATASIZE PUSH1 0x4 PUSH3 0x2113 JUMP JUMPDEST PUSH3 0xD80 JUMP JUMPDEST CALLVALUE DUP1 ISZERO PUSH3 0x285 JUMPI PUSH1 0x0 DUP1 REVERT JUMPDEST POP PUSH3 0x1FA PUSH1 0x14 SLOAD DUP2 JUMP JUMPDEST CALLVALUE DUP1 ISZERO PUSH3 0x29D JUMPI PUSH1 0x0 DUP1 REVERT JUMPDEST POP PUSH3 0x170 PUSH3 0x2AF CALLDATASIZE PUSH1 0x4 PUSH3 0x2188 JUMP JUMPDEST PUSH3 0xF8C JUMP JUMPDEST CALLVALUE DUP1 ISZERO PUSH3 0x2C2 JUMPI PUSH1 0x0 DUP1 REVERT JUMPDEST POP PUSH3 0x141 PUSH3 0xFDB JUMP JUMPDEST CALLVALUE DUP1 ISZERO PUSH3 0x2DA JUMPI PUSH1 0x0 DUP1 REVERT JUMPDEST POP PUSH3 0x127 PUSH3 0x2EC CALLDATASIZE PUSH1 0x4 PUSH3 0x21C6 JUMP JUMPDEST PUSH3 0xFEA JUMP JUMPDEST CALLVALUE DUP1 ISZERO PUSH3 0x2FF JUMPI PUSH1 0x0 DUP1 REVERT JUMPDEST POP PUSH3 0x1FA PUSH1 0x13 SLOAD DUP2 JUMP JUMPDEST CALLVALUE DUP1 ISZERO PUSH3 0x317 JUMPI PUSH1 0x0 DUP1 REVERT JUMPDEST POP PUSH3 0x127 PUSH3 0x329 CALLDATASIZE PUSH1 0x4 PUSH3 0x1FA3 JUMP JUMPDEST PUSH3 0x1214 JUMP JUMPDEST CALLVALUE DUP1 ISZERO PUSH3 0x33C JUMPI PUSH1 0x0 DUP1 REVERT JUMPDEST POP PUSH3 0x1FA PUSH1 0x15 SLOAD DUP2 JUMP JUMPDEST CALLVALUE DUP1 ISZERO PUSH3 0x354 JUMPI PUSH1 0x0 DUP1 REVERT JUMPDEST POP PUSH3 0x170 PUSH3 0x366 CALLDATASIZE PUSH1 0x4 PUSH3 0x2113 JUMP JUMPDEST PUSH3 0x1250 JUMP JUMPDEST CALLVALUE DUP1 ISZERO PUSH3 0x379 JUMPI PUSH1 0x0 DUP1 REVERT JUMPDEST POP PUSH3 0x127 PUSH3 0x38B CALLDATASIZE PUSH1 0x4 PUSH3 0x21F5 JUMP JUMPDEST PUSH3 0x14CD JUMP JUMPDEST CALLVALUE DUP1 ISZERO PUSH3 0x39E JUMPI PUSH1 0x0 DUP1 REVERT JUMPDEST POP PUSH3 0x3DB PUSH3 0x3B0 CALLDATASIZE PUSH1 0x4 PUSH3 0x1FA3 JUMP JUMPDEST PUSH1 0x1 PUSH1 0x1 PUSH1 0xA0 SHL SUB SWAP1 DUP2 AND PUSH1 0x0 SWAP1 DUP2 MSTORE PUSH1 0x8 PUSH1 0x20 SWAP1 DUP2 MSTORE PUSH1 0x40 DUP1 DUP4 KECCAK256 SLOAD DUP4 MSTORE PUSH1 0x5 SWAP1 SWAP2 MSTORE SWAP1 KECCAK256 SLOAD AND SWAP1 JUMP JUMPDEST PUSH1 0x40 MLOAD PUSH3 0x150 SWAP2 SWAP1 PUSH3 0x2273 JUMP JUMPDEST CALLVALUE DUP1 ISZERO PUSH3 0x3F7 JUMPI PUSH1 0x0 DUP1 REVERT JUMPDEST POP PUSH3 0x170 PUSH3 0x409 CALLDATASIZE PUSH1 0x4 PUSH3 0x2113 JUMP JUMPDEST PUSH3 0x1565 JUMP JUMPDEST CALLVALUE DUP1 ISZERO PUSH3 0x41C JUMPI PUSH1 0x0 DUP1 REVERT JUMPDEST POP PUSH3 0x127 PUSH3 0x42E CALLDATASIZE PUSH1 0x4 PUSH3 0x1FA3 JUMP JUMPDEST PUSH3 0x16CC JUMP JUMPDEST PUSH1 0x9 DUP1 SLOAD PUSH3 0x443 SWAP1 PUSH3 0x2287 JUMP JUMPDEST DUP1 PUSH1 0x1F ADD PUSH1 0x20 DUP1 SWAP2 DIV MUL PUSH1 0x20 ADD PUSH1 0x40 MLOAD SWAP1 DUP2 ADD PUSH1 0x40 MSTORE DUP1 SWAP3 SWAP2 SWAP1 DUP2 DUP2 MSTORE PUSH1 0x20 ADD DUP3 DUP1 SLOAD PUSH3 0x471 SWAP1 PUSH3 0x2287 JUMP JUMPDEST DUP1 ISZERO PUSH3 0x4C2 JUMPI DUP1 PUSH1 0x1F LT PUSH3 0x496 JUMPI PUSH2 0x100 DUP1 DUP4 SLOAD DIV MUL DUP4 MSTORE SWAP2 PUSH1 0x20 ADD SWAP2 PUSH3 0x4C2 JUMP JUMPDEST DUP3 ADD SWAP2 SWAP1 PUSH1 0x0 MSTORE PUSH1 0x20 PUSH1 0x0 KECCAK256 SWAP1 JUMPDEST DUP2 SLOAD DUP2 MSTORE SWAP1 PUSH1 0x1 ADD SWAP1 PUSH1 0x20 ADD DUP1 DUP4 GT PUSH3 0x4A4 JUMPI DUP3 SWAP1 SUB PUSH1 0x1F AND DUP3 ADD SWAP2 JUMPDEST POP POP POP POP POP DUP2 JUMP JUMPDEST PUSH1 0x0 PUSH3 0x4D7 CALLER PUSH3 0x1702 JUMP JUMPDEST PUSH3 0x4E1 JUMPI PUSH1 0x0 DUP1 REVERT JUMPDEST PUSH1 0x0 DUP1 JUMPDEST DUP4 MLOAD DUP2 LT ISZERO PUSH3 0x64B JUMPI PUSH1 0x0 PUSH1 0x1 PUSH1 0x1 PUSH1 0xA0 SHL SUB AND DUP5 DUP3 DUP2 MLOAD DUP2 LT PUSH3 0x50F JUMPI PUSH3 0x50F PUSH3 0x22C3 JUMP JUMPDEST PUSH1 0x20 MUL PUSH1 0x20 ADD ADD MLOAD PUSH1 0x1 PUSH1 0x1 PUSH1 0xA0 SHL SUB AND EQ PUSH3 0x631 JUMPI PUSH1 0x0 DUP1 DUP1 MSTORE PUSH1 0x5 PUSH1 0x20 MSTORE PUSH32 0x5B8CCBB9D4D8FB16EA74CE3C29A41F1B461FBDAFF4714A0D9A8EB05499746BC SLOAD DUP6 MLOAD PUSH1 0x1 PUSH1 0x1 PUSH1 0xA0 SHL SUB SWAP1 SWAP2 AND SWAP2 SWAP1 DUP3 SWAP1 PUSH3 0xE73378 SWAP1 DUP9 SWAP1 DUP7 SWAP1 DUP2 LT PUSH3 0x57D JUMPI PUSH3 0x57D PUSH3 0x22C3 JUMP JUMPDEST PUSH1 0x20 MUL PUSH1 0x20 ADD ADD MLOAD DUP10 DUP7 DUP2 MLOAD DUP2 LT PUSH3 0x59A JUMPI PUSH3 0x59A PUSH3 0x22C3 JUMP JUMPDEST PUSH1 0x20 MUL PUSH1 0x20 ADD ADD MLOAD PUSH1 0x40 MLOAD DUP4 PUSH4 0xFFFFFFFF AND PUSH1 0xE0 SHL DUP2 MSTORE PUSH1 0x4 ADD PUSH3 0x5D4 SWAP3 SWAP2 SWAP1 PUSH1 0x1 PUSH1 0x1 PUSH1 0xA0 SHL SUB SWAP3 SWAP1 SWAP3 AND DUP3 MSTORE PUSH1 0x20 DUP3 ADD MSTORE PUSH1 0x40 ADD SWAP1 JUMP JUMPDEST PUSH1 0x20 PUSH1 0x40 MLOAD DUP1 DUP4 SUB DUP2 PUSH1 0x0 DUP8 GAS CALL ISZERO DUP1 ISZERO PUSH3 0x5F4 JUMPI RETURNDATASIZE PUSH1 0x0 DUP1 RETURNDATACOPY RETURNDATASIZE PUSH1 0x0 REVERT JUMPDEST POP POP POP POP PUSH1 0x40 MLOAD RETURNDATASIZE PUSH1 0x1F NOT PUSH1 0x1F DUP3 ADD AND DUP3 ADD DUP1 PUSH1 0x40 MSTORE POP DUP2 ADD SWAP1 PUSH3 0x61A SWAP2 SWAP1 PUSH3 0x22D9 JUMP JUMPDEST SWAP1 POP DUP1 PUSH3 0x627 JUMPI PUSH1 0x0 DUP1 REVERT JUMPDEST SWAP3 POP PUSH3 0x636 SWAP1 POP JUMP JUMPDEST PUSH1 0x0 SWAP2 POP JUMPDEST DUP1 PUSH3 0x642 DUP2 PUSH3 0x230F JUMP JUMPDEST SWAP2 POP POP PUSH3 0x4E5 JUMP JUMPDEST POP PUSH1 0x1 DUP2 ISZERO ISZERO EQ PUSH3 0x661 JUMPI PUSH3 0x661 PUSH3 0x232B JUMP JUMPDEST SWAP4 SWAP3 POP POP POP JUMP JUMPDEST PUSH3 0x673 CALLER PUSH3 0x1702 JUMP JUMPDEST PUSH3 0x67D JUMPI PUSH1 0x0 DUP1 REVERT JUMPDEST PUSH3 0x688 DUP2 PUSH3 0x1214 JUMP JUMPDEST POP JUMP JUMPDEST PUSH1 0x0 PUSH3 0x698 CALLER PUSH3 0x1702 JUMP JUMPDEST PUSH3 0x6A2 JUMPI PUSH1 0x0 DUP1 REVERT JUMPDEST PUSH1 0xE DUP1 SLOAD PUSH1 0x1 PUSH1 0x1 PUSH1 0xA0 SHL SUB DUP1 DUP8 AND PUSH1 0x1 PUSH1 0x1 PUSH1 0xA0 SHL SUB NOT SWAP3 DUP4 AND OR SWAP1 SWAP3 SSTORE PUSH1 0x0 DUP5 DUP2 MSTORE PUSH1 0x6 PUSH1 0x20 MSTORE PUSH1 0x40 SWAP1 KECCAK256 DUP1 SLOAD SWAP3 DUP9 AND SWAP3 SWAP1 SWAP2 AND SWAP2 SWAP1 SWAP2 OR SWAP1 SSTORE DUP3 PUSH3 0x6E7 CALLER SWAP1 JUMP JUMPDEST DUP7 PUSH1 0x1 PUSH1 0x1 PUSH1 0xA0 SHL SUB AND PUSH4 0x95D89B41 PUSH1 0x40 MLOAD DUP2 PUSH4 0xFFFFFFFF AND PUSH1 0xE0 SHL DUP2 MSTORE PUSH1 0x4 ADD PUSH1 0x0 PUSH1 0x40 MLOAD DUP1 DUP4 SUB DUP2 DUP7 GAS STATICCALL ISZERO DUP1 ISZERO PUSH3 0x726 JUMPI RETURNDATASIZE PUSH1 0x0 DUP1 RETURNDATACOPY RETURNDATASIZE PUSH1 0x0 REVERT JUMPDEST POP POP POP POP PUSH1 0x40 MLOAD RETURNDATASIZE PUSH1 0x0 DUP3 RETURNDATACOPY PUSH1 0x1F RETURNDATASIZE SWAP1 DUP2 ADD PUSH1 0x1F NOT AND DUP3 ADD PUSH1 0x40 MSTORE PUSH3 0x750 SWAP2 SWAP1 DUP2 ADD SWAP1 PUSH3 0x2341 JUMP JUMPDEST PUSH1 0x40 MLOAD PUSH3 0x75E SWAP1 PUSH3 0x1D5F JUMP JUMPDEST PUSH3 0x76C SWAP4 SWAP3 SWAP2 SWAP1 PUSH3 0x23DF JUMP JUMPDEST PUSH1 0x40 MLOAD DUP1 SWAP2 SUB SWAP1 PUSH1 0x0 CREATE DUP1 ISZERO DUP1 ISZERO PUSH3 0x789 JUMPI RETURNDATASIZE PUSH1 0x0 DUP1 RETURNDATACOPY RETURNDATASIZE PUSH1 0x0 REVERT JUMPDEST POP PUSH1 0x0 DUP4 DUP2 MSTORE PUSH1 0x5 PUSH1 0x20 SWAP1 DUP2 MSTORE PUSH1 0x40 DUP1 DUP4 KECCAK256 DUP1 SLOAD PUSH1 0x1 PUSH1 0x1 PUSH1 0xA0 SHL SUB NOT AND PUSH1 0x1 PUSH1 0x1 PUSH1 0xA0 SHL SUB SWAP6 DUP7 AND OR SWAP1 SSTORE PUSH1 0x6 SWAP1 SWAP2 MSTORE SWAP1 KECCAK256 SLOAD DUP7 DUP3 AND SWAP2 AND EQ SWAP1 POP JUMPDEST SWAP5 SWAP4 POP POP POP POP JUMP JUMPDEST PUSH1 0x0 DUP3 DUP2 MSTORE PUSH1 0x6 PUSH1 0x20 MSTORE PUSH1 0x40 DUP2 KECCAK256 SLOAD PUSH1 0x1 PUSH1 0x1 PUSH1 0xA0 SHL SUB AND DUP1 PUSH3 0x7F1 JUMPI PUSH1 0x0 DUP1 REVERT JUMPDEST PUSH1 0xB SLOAD PUSH1 0x1 PUSH1 0x1 PUSH1 0xA0 SHL SUB AND CALLER PUSH1 0x1 PUSH1 0x1 PUSH1 0xA0 SHL SUB AND EQ ISZERO DUP1 ISZERO PUSH3 0x82A JUMPI POP PUSH1 0xC SLOAD PUSH1 0x1 PUSH1 0x1 PUSH1 0xA0 SHL SUB AND CALLER PUSH1 0x1 PUSH1 0x1 PUSH1 0xA0 SHL SUB AND EQ ISZERO JUMPDEST ISZERO PUSH3 0xA2D JUMPI PUSH1 0x18 SLOAD PUSH1 0xFF AND PUSH3 0x957 JUMPI DUP3 PUSH3 0x949 JUMPI PUSH1 0x40 MLOAD PUSH4 0x6EB1769F PUSH1 0xE1 SHL DUP2 MSTORE DUP6 SWAP1 PUSH1 0x1 PUSH1 0x1 PUSH1 0xA0 SHL SUB DUP4 AND SWAP1 PUSH4 0xDD62ED3E SWAP1 PUSH3 0x873 SWAP1 CALLER SWAP1 ADDRESS SWAP1 PUSH1 0x4 ADD PUSH3 0x240D JUMP JUMPDEST PUSH1 0x20 PUSH1 0x40 MLOAD DUP1 DUP4 SUB DUP2 DUP7 GAS STATICCALL ISZERO DUP1 ISZERO PUSH3 0x891 JUMPI RETURNDATASIZE PUSH1 0x0 DUP1 RETURNDATACOPY RETURNDATASIZE PUSH1 0x0 REVERT JUMPDEST POP POP POP POP PUSH1 0x40 MLOAD RETURNDATASIZE PUSH1 0x1F NOT PUSH1 0x1F DUP3 ADD AND DUP3 ADD DUP1 PUSH1 0x40 MSTORE POP DUP2 ADD SWAP1 PUSH3 0x8B7 SWAP2 SWAP1 PUSH3 0x2427 JUMP JUMPDEST LT ISZERO PUSH3 0x8C3 JUMPI PUSH1 0x0 DUP1 REVERT JUMPDEST DUP5 PUSH1 0x1 PUSH1 0x1 PUSH1 0xA0 SHL SUB DUP3 AND PUSH4 0x70A08231 CALLER JUMPDEST PUSH1 0x40 MLOAD DUP3 PUSH4 0xFFFFFFFF AND PUSH1 0xE0 SHL DUP2 MSTORE PUSH1 0x4 ADD PUSH3 0x8F3 SWAP2 SWAP1 PUSH3 0x2273 JUMP JUMPDEST PUSH1 0x20 PUSH1 0x40 MLOAD DUP1 DUP4 SUB DUP2 DUP7 GAS STATICCALL ISZERO DUP1 ISZERO PUSH3 0x911 JUMPI RETURNDATASIZE PUSH1 0x0 DUP1 RETURNDATACOPY RETURNDATASIZE PUSH1 0x0 REVERT JUMPDEST POP POP POP POP PUSH1 0x40 MLOAD RETURNDATASIZE PUSH1 0x1F NOT PUSH1 0x1F DUP3 ADD AND DUP3 ADD DUP1 PUSH1 0x40 MSTORE POP DUP2 ADD SWAP1 PUSH3 0x937 SWAP2 SWAP1 PUSH3 0x2427 JUMP JUMPDEST LT ISZERO PUSH3 0x943 JUMPI PUSH1 0x0 DUP1 REVERT JUMPDEST PUSH3 0xA2D JUMP JUMPDEST DUP5 CALLVALUE LT ISZERO PUSH3 0x943 JUMPI PUSH1 0x0 DUP1 REVERT JUMPDEST DUP3 PUSH3 0xA11 JUMPI PUSH1 0x12 SLOAD PUSH3 0x96C SWAP1 DUP7 PUSH3 0x2441 JUMP JUMPDEST PUSH1 0x40 MLOAD PUSH4 0x6EB1769F PUSH1 0xE1 SHL DUP2 MSTORE PUSH1 0x1 PUSH1 0x1 PUSH1 0xA0 SHL SUB DUP4 AND SWAP1 PUSH4 0xDD62ED3E SWAP1 PUSH3 0x99C SWAP1 CALLER SWAP1 ADDRESS SWAP1 PUSH1 0x4 ADD PUSH3 0x240D JUMP JUMPDEST PUSH1 0x20 PUSH1 0x40 MLOAD DUP1 DUP4 SUB DUP2 DUP7 GAS STATICCALL ISZERO DUP1 ISZERO PUSH3 0x9BA JUMPI RETURNDATASIZE PUSH1 0x0 DUP1 RETURNDATACOPY RETURNDATASIZE PUSH1 0x0 REVERT JUMPDEST POP POP POP POP PUSH1 0x40 MLOAD RETURNDATASIZE PUSH1 0x1F NOT PUSH1 0x1F DUP3 ADD AND DUP3 ADD DUP1 PUSH1 0x40 MSTORE POP DUP2 ADD SWAP1 PUSH3 0x9E0 SWAP2 SWAP1 PUSH3 0x2427 JUMP JUMPDEST LT ISZERO PUSH3 0x9EC JUMPI PUSH1 0x0 DUP1 REVERT JUMPDEST PUSH1 0x12 SLOAD PUSH3 0x9FB SWAP1 DUP7 PUSH3 0x2441 JUMP JUMPDEST PUSH1 0x1 PUSH1 0x1 PUSH1 0xA0 SHL SUB DUP3 AND PUSH4 0x70A08231 CALLER PUSH3 0x8D5 JUMP JUMPDEST PUSH1 0x15 SLOAD PUSH3 0xA20 SWAP1 DUP7 PUSH3 0x2441 JUMP JUMPDEST CALLVALUE LT ISZERO PUSH3 0xA2D JUMPI PUSH1 0x0 DUP1 REVERT JUMPDEST PUSH1 0x16 SLOAD DUP6 GT ISZERO PUSH3 0xA3D JUMPI PUSH1 0x0 DUP1 REVERT JUMPDEST PUSH1 0x0 PUSH3 0xA4D CALLER DUP4 DUP9 DUP8 PUSH3 0x1720 JUMP JUMPDEST SWAP1 POP PUSH1 0x1 DUP2 ISZERO ISZERO EQ PUSH3 0xA5F JUMPI PUSH1 0x0 DUP1 REVERT JUMPDEST SWAP6 SWAP5 POP POP POP POP POP JUMP JUMPDEST PUSH1 0x0 PUSH3 0xA75 CALLER PUSH3 0x1702 JUMP JUMPDEST PUSH3 0xA7F JUMPI PUSH1 0x0 DUP1 REVERT JUMPDEST PUSH1 0x1 PUSH1 0x1 PUSH1 0xA0 SHL SUB DUP3 AND PUSH3 0xA98 JUMPI PUSH3 0xA98 PUSH3 0x232B JUMP JUMPDEST PUSH1 0x1 PUSH1 0x1 PUSH1 0xA0 SHL SUB DUP1 DUP6 AND PUSH1 0x0 SWAP1 DUP2 MSTORE PUSH1 0x8 PUSH1 0x20 SWAP1 DUP2 MSTORE PUSH1 0x40 DUP1 DUP4 KECCAK256 SLOAD DUP1 DUP5 MSTORE PUSH1 0x5 SWAP1 SWAP3 MSTORE SWAP2 DUP3 SWAP1 KECCAK256 SLOAD SWAP2 MLOAD PUSH4 0x52F950A9 PUSH1 0xE1 SHL DUP2 MSTORE SWAP1 SWAP3 SWAP2 SWAP1 SWAP2 AND SWAP1 DUP2 SWAP1 PUSH4 0xA5F2A152 SWAP1 PUSH3 0xAF1 SWAP1 DUP10 SWAP1 DUP9 SWAP1 DUP11 SWAP1 PUSH1 0x4 ADD PUSH3 0x245C JUMP JUMPDEST PUSH1 0x20 PUSH1 0x40 MLOAD DUP1 DUP4 SUB DUP2 PUSH1 0x0 DUP8 GAS CALL ISZERO DUP1 ISZERO PUSH3 0xB11 JUMPI RETURNDATASIZE PUSH1 0x0 DUP1 RETURNDATACOPY RETURNDATASIZE PUSH1 0x0 REVERT JUMPDEST POP POP POP POP PUSH1 0x40 MLOAD RETURNDATASIZE PUSH1 0x1F NOT PUSH1 0x1F DUP3 ADD AND DUP3 ADD DUP1 PUSH1 0x40 MSTORE POP DUP2 ADD SWAP1 PUSH3 0xB37 SWAP2 SWAP1 PUSH3 0x22D9 JUMP JUMPDEST POP PUSH1 0x1 SWAP7 SWAP6 POP POP POP POP POP POP JUMP JUMPDEST PUSH1 0x0 PUSH3 0xB51 CALLER PUSH3 0x1702 JUMP JUMPDEST PUSH3 0xB5B JUMPI PUSH1 0x0 DUP1 REVERT JUMPDEST PUSH1 0xB SLOAD PUSH1 0xC SLOAD PUSH1 0x1 PUSH1 0x1 PUSH1 0xA0 SHL SUB SWAP2 DUP3 AND SWAP2 SWAP1 DUP2 AND SWAP1 DUP7 AND PUSH3 0xB82 JUMPI PUSH3 0xB82 PUSH3 0x232B JUMP JUMPDEST PUSH1 0xB SLOAD PUSH1 0x1 PUSH1 0x1 PUSH1 0xA0 SHL SUB DUP1 DUP11 AND SWAP2 AND SUB PUSH3 0xBA1 JUMPI DUP6 SWAP2 POP PUSH3 0xBC4 JUMP JUMPDEST PUSH1 0xC SLOAD PUSH1 0x1 PUSH1 0x1 PUSH1 0xA0 SHL SUB DUP1 DUP11 AND SWAP2 AND SUB PUSH3 0xBBF JUMPI POP DUP5 PUSH3 0xBC4 JUMP JUMPDEST PUSH1 0x0 DUP1 REVERT JUMPDEST PUSH1 0x0 DUP1 DUP1 PUSH1 0x0 PUSH3 0xBD5 DUP12 PUSH3 0x19FA JUMP JUMPDEST SWAP3 POP SWAP3 POP SWAP3 POP DUP8 ISZERO PUSH3 0xCC2 JUMPI DUP2 ISZERO PUSH3 0xC4F JUMPI PUSH1 0x0 DUP6 PUSH1 0x1 PUSH1 0x1 PUSH1 0xA0 SHL SUB AND DUP4 PUSH1 0x40 MLOAD PUSH1 0x0 PUSH1 0x40 MLOAD DUP1 DUP4 SUB DUP2 DUP6 DUP8 GAS CALL SWAP3 POP POP POP RETURNDATASIZE DUP1 PUSH1 0x0 DUP2 EQ PUSH3 0xC38 JUMPI PUSH1 0x40 MLOAD SWAP2 POP PUSH1 0x1F NOT PUSH1 0x3F RETURNDATASIZE ADD AND DUP3 ADD PUSH1 0x40 MSTORE RETURNDATASIZE DUP3 MSTORE RETURNDATASIZE PUSH1 0x0 PUSH1 0x20 DUP5 ADD RETURNDATACOPY PUSH3 0xC3D JUMP JUMPDEST PUSH1 0x60 SWAP2 POP JUMPDEST POP POP SWAP1 POP DUP1 PUSH3 0xC4C JUMPI PUSH1 0x0 DUP1 REVERT JUMPDEST SWAP4 POP JUMPDEST DUP1 ISZERO PUSH3 0xCBC JUMPI PUSH1 0x0 DUP7 PUSH1 0x1 PUSH1 0x1 PUSH1 0xA0 SHL SUB AND DUP3 PUSH1 0x40 MLOAD PUSH1 0x0 PUSH1 0x40 MLOAD DUP1 DUP4 SUB DUP2 DUP6 DUP8 GAS CALL SWAP3 POP POP POP RETURNDATASIZE DUP1 PUSH1 0x0 DUP2 EQ PUSH3 0xCA5 JUMPI PUSH1 0x40 MLOAD SWAP2 POP PUSH1 0x1F NOT PUSH1 0x3F RETURNDATASIZE ADD AND DUP3 ADD PUSH1 0x40 MSTORE RETURNDATASIZE DUP3 MSTORE RETURNDATASIZE PUSH1 0x0 PUSH1 0x20 DUP5 ADD RETURNDATACOPY PUSH3 0xCAA JUMP JUMPDEST PUSH1 0x60 SWAP2 POP JUMPDEST POP POP SWAP1 POP DUP1 PUSH3 0xCB9 JUMPI PUSH1 0x0 DUP1 REVERT JUMPDEST SWAP4 POP JUMPDEST PUSH3 0xD70 JUMP JUMPDEST PUSH1 0x1 PUSH1 0x1 PUSH1 0xA0 SHL SUB DUP1 DUP11 AND PUSH1 0x0 SWAP1 DUP2 MSTORE PUSH1 0x8 PUSH1 0x20 SWAP1 DUP2 MSTORE PUSH1 0x40 DUP1 DUP4 KECCAK256 SLOAD DUP1 DUP5 MSTORE PUSH1 0x5 SWAP1 SWAP3 MSTORE SWAP1 SWAP2 KECCAK256 SLOAD SWAP1 SWAP2 AND DUP4 ISZERO PUSH3 0xD13 JUMPI PUSH1 0xC SLOAD PUSH3 0xD13 SWAP1 PUSH1 0x1 PUSH1 0x1 PUSH1 0xA0 SHL SUB DUP1 DUP5 AND SWAP2 DUP5 SWAP2 AND DUP8 PUSH3 0x1A8F JUMP JUMPDEST DUP3 ISZERO PUSH3 0xD38 JUMPI PUSH1 0xB SLOAD PUSH3 0xD38 SWAP1 PUSH1 0x1 PUSH1 0x1 PUSH1 0xA0 SHL SUB DUP1 DUP5 AND SWAP2 DUP5 SWAP2 AND DUP7 PUSH3 0x1A8F JUMP JUMPDEST PUSH1 0x40 MLOAD DUP6 DUP2 MSTORE ADDRESS SWAP1 PUSH32 0x7FCF532C15F0A6DB0BD6D0E038BEA71D30D808C7D98CB3BF7268A95BF5081B65 SWAP1 PUSH1 0x20 ADD PUSH1 0x40 MLOAD DUP1 SWAP2 SUB SWAP1 LOG2 POP POP JUMPDEST POP SWAP2 SWAP11 SWAP10 POP POP POP POP POP POP POP POP POP POP JUMP JUMPDEST PUSH1 0x0 PUSH3 0xD8D CALLER PUSH3 0x1702 JUMP JUMPDEST PUSH3 0xD97 JUMPI PUSH1 0x0 DUP1 REVERT JUMPDEST PUSH1 0x0 DUP1 JUMPDEST DUP5 MLOAD DUP2 LT ISZERO PUSH3 0xF76 JUMPI PUSH1 0x0 PUSH1 0x1 PUSH1 0x1 PUSH1 0xA0 SHL SUB AND DUP6 DUP3 DUP2 MLOAD DUP2 LT PUSH3 0xDC5 JUMPI PUSH3 0xDC5 PUSH3 0x22C3 JUMP JUMPDEST PUSH1 0x20 MUL PUSH1 0x20 ADD ADD MLOAD PUSH1 0x1 PUSH1 0x1 PUSH1 0xA0 SHL SUB AND EQ PUSH3 0xF5C JUMPI PUSH1 0x1 PUSH1 0x1 PUSH1 0xA0 SHL SUB DUP1 DUP6 AND PUSH1 0x0 SWAP1 DUP2 MSTORE PUSH1 0x8 PUSH1 0x20 SWAP1 DUP2 MSTORE PUSH1 0x40 DUP1 DUP4 KECCAK256 SLOAD DUP1 DUP5 MSTORE PUSH1 0x5 SWAP1 SWAP3 MSTORE DUP3 KECCAK256 SLOAD DUP10 MLOAD SWAP2 SWAP4 AND SWAP2 SWAP1 DUP2 SWAP1 PUSH3 0xE35 SWAP1 DUP12 SWAP1 DUP8 SWAP1 DUP2 LT PUSH3 0xE27 JUMPI PUSH3 0xE27 PUSH3 0x22C3 JUMP JUMPDEST PUSH1 0x20 MUL PUSH1 0x20 ADD ADD MLOAD PUSH3 0x19FA JUMP JUMPDEST PUSH1 0xB SLOAD PUSH1 0x40 MLOAD PUSH4 0x52F950A9 PUSH1 0xE1 SHL DUP2 MSTORE SWAP3 SWAP6 POP SWAP1 SWAP4 POP PUSH1 0x1 PUSH1 0x1 PUSH1 0xA0 SHL SUB DUP1 DUP8 AND SWAP4 POP PUSH4 0xA5F2A152 SWAP3 PUSH3 0xE72 SWAP3 DUP14 SWAP3 AND SWAP1 DUP7 SWAP1 PUSH1 0x4 ADD PUSH3 0x245C JUMP JUMPDEST PUSH1 0x20 PUSH1 0x40 MLOAD DUP1 DUP4 SUB DUP2 PUSH1 0x0 DUP8 GAS CALL ISZERO DUP1 ISZERO PUSH3 0xE92 JUMPI RETURNDATASIZE PUSH1 0x0 DUP1 RETURNDATACOPY RETURNDATASIZE PUSH1 0x0 REVERT JUMPDEST POP POP POP POP PUSH1 0x40 MLOAD RETURNDATASIZE PUSH1 0x1F NOT PUSH1 0x1F DUP3 ADD AND DUP3 ADD DUP1 PUSH1 0x40 MSTORE POP DUP2 ADD SWAP1 PUSH3 0xEB8 SWAP2 SWAP1 PUSH3 0x22D9 JUMP JUMPDEST POP DUP3 PUSH1 0x1 PUSH1 0x1 PUSH1 0xA0 SHL SUB AND PUSH4 0xA5F2A152 DUP10 DUP12 DUP9 DUP2 MLOAD DUP2 LT PUSH3 0xEDE JUMPI PUSH3 0xEDE PUSH3 0x22C3 JUMP JUMPDEST PUSH1 0x20 MUL PUSH1 0x20 ADD ADD MLOAD DUP6 PUSH1 0x40 MLOAD DUP5 PUSH4 0xFFFFFFFF AND PUSH1 0xE0 SHL DUP2 MSTORE PUSH1 0x4 ADD PUSH3 0xF07 SWAP4 SWAP3 SWAP2 SWAP1 PUSH3 0x245C JUMP JUMPDEST PUSH1 0x20 PUSH1 0x40 MLOAD DUP1 DUP4 SUB DUP2 PUSH1 0x0 DUP8 GAS CALL ISZERO DUP1 ISZERO PUSH3 0xF27 JUMPI RETURNDATASIZE PUSH1 0x0 DUP1 RETURNDATACOPY RETURNDATASIZE PUSH1 0x0 REVERT JUMPDEST POP POP POP POP PUSH1 0x40 MLOAD RETURNDATASIZE PUSH1 0x1F NOT PUSH1 0x1F DUP3 ADD AND DUP3 ADD DUP1 PUSH1 0x40 MSTORE POP DUP2 ADD SWAP1 PUSH3 0xF4D SWAP2 SWAP1 PUSH3 0x22D9 JUMP JUMPDEST POP PUSH1 0x1 SWAP6 POP POP POP POP POP PUSH3 0xF61 JUMP JUMPDEST PUSH1 0x0 SWAP2 POP JUMPDEST DUP1 PUSH3 0xF6D DUP2 PUSH3 0x230F JUMP JUMPDEST SWAP2 POP POP PUSH3 0xD9B JUMP JUMPDEST POP PUSH1 0x1 DUP2 ISZERO ISZERO EQ PUSH3 0x7C6 JUMPI PUSH3 0x7C6 PUSH3 0x232B JUMP JUMPDEST PUSH1 0x0 PUSH3 0xF99 CALLER PUSH3 0x1702 JUMP JUMPDEST PUSH3 0xFA3 JUMPI PUSH1 0x0 DUP1 REVERT JUMPDEST PUSH1 0x1 PUSH1 0x1 PUSH1 0xA0 SHL SUB DUP4 AND CALLER EQ PUSH3 0xFB9 JUMPI PUSH1 0x0 DUP1 REVERT JUMPDEST PUSH1 0x0 PUSH3 0xFC6 DUP4 PUSH3 0x1214 JUMP JUMPDEST PUSH3 0xFD1 DUP5 PUSH3 0x16CC JUMP JUMPDEST POP PUSH1 0x1 SWAP4 SWAP3 POP POP POP JUMP JUMPDEST PUSH1 0xA DUP1 SLOAD PUSH3 0x443 SWAP1 PUSH3 0x2287 JUMP JUMPDEST PUSH3 0xFF5 CALLER PUSH3 0x1702 JUMP JUMPDEST PUSH3 0xFFF JUMPI PUSH1 0x0 DUP1 REVERT JUMPDEST PUSH1 0x1 PUSH1 0x1 PUSH1 0xA0 SHL SUB DUP1 DUP4 AND PUSH1 0x0 DUP2 DUP2 MSTORE PUSH1 0x8 PUSH1 0x20 SWAP1 DUP2 MSTORE PUSH1 0x40 DUP1 DUP4 KECCAK256 SLOAD DUP1 DUP5 MSTORE PUSH1 0x5 SWAP1 SWAP3 MSTORE DUP1 DUP4 KECCAK256 SLOAD SWAP1 MLOAD PUSH4 0x70A08231 PUSH1 0xE0 SHL DUP2 MSTORE SWAP2 SWAP5 AND SWAP3 SWAP1 PUSH4 0x70A08231 SWAP1 PUSH3 0x104F SWAP1 DUP6 SWAP1 PUSH1 0x4 ADD PUSH3 0x2273 JUMP JUMPDEST PUSH1 0x20 PUSH1 0x40 MLOAD DUP1 DUP4 SUB DUP2 DUP7 GAS STATICCALL ISZERO DUP1 ISZERO PUSH3 0x106D JUMPI RETURNDATASIZE PUSH1 0x0 DUP1 RETURNDATACOPY RETURNDATASIZE PUSH1 0x0 REVERT JUMPDEST POP POP POP POP PUSH1 0x40 MLOAD RETURNDATASIZE PUSH1 0x1F NOT PUSH1 0x1F DUP3 ADD AND DUP3 ADD DUP1 PUSH1 0x40 MSTORE POP DUP2 ADD SWAP1 PUSH3 0x1093 SWAP2 SWAP1 PUSH3 0x2427 JUMP JUMPDEST SWAP1 POP DUP4 DUP2 LT ISZERO PUSH3 0x10A3 JUMPI PUSH1 0x0 DUP1 REVERT JUMPDEST DUP4 ISZERO PUSH3 0x10AD JUMPI POP DUP3 JUMPDEST PUSH1 0x0 DUP1 PUSH3 0x10BB DUP4 PUSH3 0x19FA JUMP JUMPDEST SWAP1 SWAP4 POP SWAP2 POP POP DUP2 ISZERO PUSH3 0x1146 JUMPI PUSH1 0xC SLOAD PUSH1 0x40 MLOAD PUSH4 0x52F950A9 PUSH1 0xE1 SHL DUP2 MSTORE PUSH1 0x1 PUSH1 0x1 PUSH1 0xA0 SHL SUB DUP1 DUP8 AND SWAP3 PUSH4 0xA5F2A152 SWAP3 PUSH3 0x10FE SWAP3 DUP13 SWAP3 AND SWAP1 DUP7 SWAP1 PUSH1 0x4 ADD PUSH3 0x245C JUMP JUMPDEST PUSH1 0x20 PUSH1 0x40 MLOAD DUP1 DUP4 SUB DUP2 PUSH1 0x0 DUP8 GAS CALL ISZERO DUP1 ISZERO PUSH3 0x111E JUMPI RETURNDATASIZE PUSH1 0x0 DUP1 RETURNDATACOPY RETURNDATASIZE PUSH1 0x0 REVERT JUMPDEST POP POP POP POP PUSH1 0x40 MLOAD RETURNDATASIZE PUSH1 0x1F NOT PUSH1 0x1F DUP3 ADD AND DUP3 ADD DUP1 PUSH1 0x40 MSTORE POP DUP2 ADD SWAP1 PUSH3 0x1144 SWAP2 SWAP1 PUSH3 0x22D9 JUMP JUMPDEST POP JUMPDEST DUP1 ISZERO PUSH3 0x11CB JUMPI PUSH1 0xB SLOAD PUSH1 0x40 MLOAD PUSH4 0x52F950A9 PUSH1 0xE1 SHL DUP2 MSTORE PUSH1 0x1 PUSH1 0x1 PUSH1 0xA0 SHL SUB DUP1 DUP8 AND SWAP3 PUSH4 0xA5F2A152 SWAP3 PUSH3 0x1183 SWAP3 DUP13 SWAP3 AND SWAP1 DUP7 SWAP1 PUSH1 0x4 ADD PUSH3 0x245C JUMP JUMPDEST PUSH1 0x20 PUSH1 0x40 MLOAD DUP1 DUP4 SUB DUP2 PUSH1 0x0 DUP8 GAS CALL ISZERO DUP1 ISZERO PUSH3 0x11A3 JUMPI RETURNDATASIZE PUSH1 0x0 DUP1 RETURNDATACOPY RETURNDATASIZE PUSH1 0x0 REVERT JUMPDEST POP POP POP POP PUSH1 0x40 MLOAD RETURNDATASIZE PUSH1 0x1F NOT PUSH1 0x1F DUP3 ADD AND DUP3 ADD DUP1 PUSH1 0x40 MSTORE POP DUP2 ADD SWAP1 PUSH3 0x11C9 SWAP2 SWAP1 PUSH3 0x22D9 JUMP JUMPDEST POP JUMPDEST PUSH1 0x40 MLOAD DUP4 DUP2 MSTORE PUSH1 0x1 PUSH1 0x1 PUSH1 0xA0 SHL SUB DUP9 AND SWAP1 ADDRESS SWAP1 PUSH32 0x37238854FE57FBF51F09946F854FC3916FE83938D6521F09BD05463839F1304 SWAP1 PUSH1 0x20 ADD PUSH1 0x40 MLOAD DUP1 SWAP2 SUB SWAP1 LOG3 POP POP POP POP POP POP POP JUMP JUMPDEST PUSH3 0x121F CALLER PUSH3 0x1702 JUMP JUMPDEST PUSH3 0x1229 JUMPI PUSH1 0x0 DUP1 REVERT JUMPDEST PUSH1 0x1 PUSH1 0x1 PUSH1 0xA0 SHL SUB AND PUSH1 0x0 SWAP1 DUP2 MSTORE PUSH1 0x1 PUSH1 0x20 DUP2 SWAP1 MSTORE PUSH1 0x40 SWAP1 SWAP2 KECCAK256 DUP1 SLOAD PUSH1 0xFF NOT AND SWAP1 SWAP2 OR SWAP1 SSTORE JUMP JUMPDEST PUSH1 0x0 PUSH3 0x125D CALLER PUSH3 0x1702 JUMP JUMPDEST PUSH3 0x1267 JUMPI PUSH1 0x0 DUP1 REVERT JUMPDEST PUSH1 0x1 PUSH1 0x1 PUSH1 0xA0 SHL SUB DUP1 DUP4 AND PUSH1 0x0 SWAP1 DUP2 MSTORE PUSH1 0x8 PUSH1 0x20 SWAP1 DUP2 MSTORE PUSH1 0x40 DUP1 DUP4 KECCAK256 SLOAD DUP1 DUP5 MSTORE PUSH1 0x5 SWAP1 SWAP3 MSTORE DUP3 KECCAK256 SLOAD SWAP1 SWAP3 AND SWAP1 DUP1 DUP1 JUMPDEST DUP8 MLOAD DUP2 LT ISZERO PUSH3 0x14AC JUMPI PUSH1 0x0 PUSH1 0x1 PUSH1 0x1 PUSH1 0xA0 SHL SUB AND DUP9 DUP3 DUP2 MLOAD DUP2 LT PUSH3 0x12C0 JUMPI PUSH3 0x12C0 PUSH3 0x22C3 JUMP JUMPDEST PUSH1 0x20 MUL PUSH1 0x20 ADD ADD MLOAD PUSH1 0x1 PUSH1 0x1 PUSH1 0xA0 SHL SUB AND EQ PUSH3 0x1492 JUMPI PUSH32 0x0 PUSH1 0xD SLOAD DUP11 DUP4 DUP2 MLOAD DUP2 LT PUSH3 0x1310 JUMPI PUSH3 0x1310 PUSH3 0x22C3 JUMP JUMPDEST PUSH1 0x20 MUL PUSH1 0x20 ADD ADD MLOAD PUSH3 0x1324 SWAP2 SWAP1 PUSH3 0x2480 JUMP JUMPDEST PUSH3 0x1330 SWAP2 SWAP1 PUSH3 0x24A2 JUMP JUMPDEST SWAP2 POP DUP2 DUP10 DUP3 DUP2 MLOAD DUP2 LT PUSH3 0x1348 JUMPI PUSH3 0x1348 PUSH3 0x22C3 JUMP JUMPDEST PUSH1 0x20 MUL PUSH1 0x20 ADD ADD DUP2 DUP2 MLOAD PUSH3 0x135E SWAP2 SWAP1 PUSH3 0x24C5 JUMP JUMPDEST SWAP1 MSTORE POP PUSH1 0xB SLOAD PUSH1 0x40 MLOAD PUSH4 0x52F950A9 PUSH1 0xE1 SHL DUP2 MSTORE PUSH1 0x1 PUSH1 0x1 PUSH1 0xA0 SHL SUB DUP1 DUP8 AND SWAP3 PUSH4 0xA5F2A152 SWAP3 PUSH3 0x1397 SWAP3 DUP13 SWAP3 AND SWAP1 DUP8 SWAP1 PUSH1 0x4 ADD PUSH3 0x245C JUMP JUMPDEST PUSH1 0x20 PUSH1 0x40 MLOAD DUP1 DUP4 SUB DUP2 PUSH1 0x0 DUP8 GAS CALL ISZERO DUP1 ISZERO PUSH3 0x13B7 JUMPI RETURNDATASIZE PUSH1 0x0 DUP1 RETURNDATACOPY RETURNDATASIZE PUSH1 0x0 REVERT JUMPDEST POP POP POP POP PUSH1 0x40 MLOAD RETURNDATASIZE PUSH1 0x1F NOT PUSH1 0x1F DUP3 ADD AND DUP3 ADD DUP1 PUSH1 0x40 MSTORE POP DUP2 ADD SWAP1 PUSH3 0x13DD SWAP2 SWAP1 PUSH3 0x22D9 JUMP JUMPDEST POP DUP4 PUSH1 0x1 PUSH1 0x1 PUSH1 0xA0 SHL SUB AND PUSH4 0xA5F2A152 DUP9 PUSH1 0xB PUSH1 0x0 SWAP1 SLOAD SWAP1 PUSH2 0x100 EXP SWAP1 DIV PUSH1 0x1 PUSH1 0x1 PUSH1 0xA0 SHL SUB AND DUP13 DUP6 DUP2 MLOAD DUP2 LT PUSH3 0x1419 JUMPI PUSH3 0x1419 PUSH3 0x22C3 JUMP JUMPDEST PUSH1 0x20 MUL PUSH1 0x20 ADD ADD MLOAD PUSH1 0x40 MLOAD DUP5 PUSH4 0xFFFFFFFF AND PUSH1 0xE0 SHL DUP2 MSTORE PUSH1 0x4 ADD PUSH3 0x1441 SWAP4 SWAP3 SWAP2 SWAP1 PUSH3 0x245C JUMP JUMPDEST PUSH1 0x20 PUSH1 0x40 MLOAD DUP1 DUP4 SUB DUP2 PUSH1 0x0 DUP8 GAS CALL ISZERO DUP1 ISZERO PUSH3 0x1461 JUMPI RETURNDATASIZE PUSH1 0x0 DUP1 RETURNDATACOPY RETURNDATASIZE PUSH1 0x0 REVERT JUMPDEST POP POP POP POP PUSH1 0x40 MLOAD RETURNDATASIZE PUSH1 0x1F NOT PUSH1 0x1F DUP3 ADD AND DUP3 ADD DUP1 PUSH1 0x40 MSTORE POP DUP2 ADD SWAP1 PUSH3 0x1487 SWAP2 SWAP1 PUSH3 0x22D9 JUMP JUMPDEST POP PUSH1 0x1 SWAP3 POP PUSH3 0x1497 JUMP JUMPDEST PUSH1 0x0 SWAP3 POP JUMPDEST DUP1 PUSH3 0x14A3 DUP2 PUSH3 0x230F JUMP JUMPDEST SWAP2 POP POP PUSH3 0x1296 JUMP JUMPDEST POP PUSH1 0x1 DUP3 ISZERO ISZERO EQ PUSH3 0x14C2 JUMPI PUSH3 0x14C2 PUSH3 0x232B JUMP JUMPDEST POP SWAP7 SWAP6 POP POP POP POP POP POP JUMP JUMPDEST PUSH3 0x14D8 CALLER PUSH3 0x1702 JUMP JUMPDEST PUSH3 0x14E2 JUMPI PUSH1 0x0 DUP1 REVERT JUMPDEST PUSH2 0x1F40 DUP7 GT ISZERO PUSH3 0x14F2 JUMPI PUSH1 0x0 DUP1 REVERT JUMPDEST PUSH1 0xD SWAP6 SWAP1 SWAP6 SSTORE PUSH1 0x0 DUP6 DUP2 MSTORE PUSH1 0x6 PUSH1 0x20 SWAP1 DUP2 MSTORE PUSH1 0x40 DUP1 DUP4 KECCAK256 DUP1 SLOAD PUSH1 0x1 PUSH1 0x1 PUSH1 0xA0 SHL SUB NOT SWAP1 DUP2 AND PUSH1 0x1 PUSH1 0x1 PUSH1 0xA0 SHL SUB SWAP13 DUP14 AND SWAP1 DUP2 OR SWAP1 SWAP3 SSTORE SWAP1 DUP5 MSTORE PUSH1 0x8 SWAP1 SWAP3 MSTORE SWAP1 SWAP2 KECCAK256 SWAP6 SWAP1 SWAP6 SSTORE PUSH1 0x16 SSTORE PUSH1 0x18 DUP1 SLOAD PUSH1 0xFF NOT AND SWAP4 ISZERO ISZERO SWAP4 SWAP1 SWAP4 OR SWAP1 SWAP3 SSTORE PUSH1 0xE DUP1 SLOAD SWAP1 SWAP4 AND SWAP4 SWAP1 SWAP5 AND SWAP3 SWAP1 SWAP3 OR SWAP1 SSTORE PUSH1 0x12 SSTORE PUSH1 0x15 SSTORE JUMP JUMPDEST PUSH1 0x0 PUSH3 0x1572 CALLER PUSH3 0x1702 JUMP JUMPDEST PUSH3 0x157C JUMPI PUSH1 0x0 DUP1 REVERT JUMPDEST PUSH1 0x0 DUP1 JUMPDEST DUP5 MLOAD DUP2 LT ISZERO PUSH3 0xF76 JUMPI PUSH1 0x0 PUSH1 0x1 PUSH1 0x1 PUSH1 0xA0 SHL SUB AND DUP6 DUP3 DUP2 MLOAD DUP2 LT PUSH3 0x15AA JUMPI PUSH3 0x15AA PUSH3 0x22C3 JUMP JUMPDEST PUSH1 0x20 MUL PUSH1 0x20 ADD ADD MLOAD PUSH1 0x1 PUSH1 0x1 PUSH1 0xA0 SHL SUB AND EQ PUSH3 0x16B2 JUMPI PUSH1 0x1 PUSH1 0x1 PUSH1 0xA0 SHL SUB DUP1 DUP6 AND PUSH1 0x0 SWAP1 DUP2 MSTORE PUSH1 0x8 PUSH1 0x20 SWAP1 DUP2 MSTORE PUSH1 0x40 DUP1 DUP4 KECCAK256 SLOAD DUP1 DUP5 MSTORE PUSH1 0x5 SWAP1 SWAP3 MSTORE DUP3 KECCAK256 SLOAD DUP9 MLOAD SWAP2 SWAP4 AND SWAP2 SWAP1 DUP3 SWAP1 PUSH4 0xA5F2A152 SWAP1 DUP10 SWAP1 DUP12 SWAP1 DUP9 SWAP1 DUP2 LT PUSH3 0x160F JUMPI PUSH3 0x160F PUSH3 0x22C3 JUMP JUMPDEST PUSH1 0x20 MUL PUSH1 0x20 ADD ADD MLOAD DUP13 DUP9 DUP2 MLOAD DUP2 LT PUSH3 0x162C JUMPI PUSH3 0x162C PUSH3 0x22C3 JUMP JUMPDEST PUSH1 0x20 MUL PUSH1 0x20 ADD ADD MLOAD PUSH1 0x40 MLOAD DUP5 PUSH4 0xFFFFFFFF AND PUSH1 0xE0 SHL DUP2 MSTORE PUSH1 0x4 ADD PUSH3 0x1654 SWAP4 SWAP3 SWAP2 SWAP1 PUSH3 0x245C JUMP JUMPDEST PUSH1 0x20 PUSH1 0x40 MLOAD DUP1 DUP4 SUB DUP2 PUSH1 0x0 DUP8 GAS CALL ISZERO DUP1 ISZERO PUSH3 0x1674 JUMPI RETURNDATASIZE PUSH1 0x0 DUP1 RETURNDATACOPY RETURNDATASIZE PUSH1 0x0 REVERT JUMPDEST POP POP POP POP PUSH1 0x40 MLOAD RETURNDATASIZE PUSH1 0x1F NOT PUSH1 0x1F DUP3 ADD AND DUP3 ADD DUP1 PUSH1 0x40 MSTORE POP DUP2 ADD SWAP1 PUSH3 0x169A SWAP2 SWAP1 PUSH3 0x22D9 JUMP JUMPDEST SWAP1 POP DUP1 PUSH3 0x16A7 JUMPI PUSH1 0x0 DUP1 REVERT JUMPDEST SWAP4 POP PUSH3 0x16B7 SWAP2 POP POP JUMP JUMPDEST PUSH1 0x0 SWAP2 POP JUMPDEST DUP1 PUSH3 0x16C3 DUP2 PUSH3 0x230F JUMP JUMPDEST SWAP2 POP POP PUSH3 0x1580 JUMP JUMPDEST PUSH3 0x16D7 CALLER PUSH3 0x1702 JUMP JUMPDEST PUSH3 0x16E1 JUMPI PUSH1 0x0 DUP1 REVERT JUMPDEST PUSH1 0x1 PUSH1 0x1 PUSH1 0xA0 SHL SUB AND PUSH1 0x0 SWAP1 DUP2 MSTORE PUSH1 0x1 PUSH1 0x20 MSTORE PUSH1 0x40 SWAP1 KECCAK256 DUP1 SLOAD PUSH1 0xFF NOT AND SWAP1 SSTORE JUMP JUMPDEST PUSH1 0x1 PUSH1 0x1 PUSH1 0xA0 SHL SUB AND PUSH1 0x0 SWAP1 DUP2 MSTORE PUSH1 0x1 PUSH1 0x20 MSTORE PUSH1 0x40 SWAP1 KECCAK256 SLOAD PUSH1 0xFF AND SWAP1 JUMP JUMPDEST PUSH1 0x0 PUSH3 0x172C PUSH3 0x1AF1 JUMP JUMPDEST DUP3 PUSH1 0x0 DUP1 DUP1 DUP6 PUSH3 0x183D JUMPI PUSH1 0x1 PUSH1 0x1 PUSH1 0xA0 SHL SUB DUP1 DUP10 AND PUSH1 0x0 DUP2 DUP2 MSTORE PUSH1 0x8 PUSH1 0x20 SWAP1 DUP2 MSTORE PUSH1 0x40 DUP1 DUP4 KECCAK256 SLOAD DUP1 DUP5 MSTORE PUSH1 0x6 SWAP1 SWAP3 MSTORE SWAP1 SWAP2 KECCAK256 SLOAD SWAP1 SWAP3 AND SWAP1 DUP2 SWAP1 DUP2 SWAP1 SUB PUSH3 0xBBF JUMPI PUSH1 0x0 DUP4 DUP2 MSTORE PUSH1 0x5 PUSH1 0x20 MSTORE PUSH1 0x40 SWAP1 KECCAK256 SLOAD PUSH1 0x1 PUSH1 0x1 PUSH1 0xA0 SHL SUB AND SWAP4 POP DUP4 PUSH3 0x1793 JUMPI PUSH1 0x0 DUP1 REVERT JUMPDEST PUSH1 0x0 DUP4 DUP2 MSTORE PUSH1 0x7 PUSH1 0x20 MSTORE PUSH1 0x40 DUP2 KECCAK256 DUP1 SLOAD SWAP2 PUSH1 0x1 SWAP2 SWAP1 PUSH3 0x17B4 DUP4 DUP6 PUSH3 0x2441 JUMP JUMPDEST SWAP1 SWAP2 SSTORE POP POP PUSH1 0x0 DUP5 DUP2 MSTORE PUSH1 0x7 PUSH1 0x20 MSTORE PUSH1 0x40 SWAP1 KECCAK256 SLOAD SWAP7 POP PUSH3 0x17D7 PUSH1 0x1 DUP3 PUSH3 0x2441 JUMP JUMPDEST DUP8 EQ PUSH3 0x17E3 JUMPI PUSH1 0x0 DUP1 REVERT JUMPDEST DUP11 PUSH1 0x13 PUSH1 0x0 DUP3 DUP3 SLOAD PUSH3 0x17F7 SWAP2 SWAP1 PUSH3 0x2441 JUMP JUMPDEST SWAP3 POP POP DUP2 SWAP1 SSTORE POP CALLVALUE PUSH1 0x14 PUSH1 0x0 DUP3 DUP3 SLOAD PUSH3 0x1812 SWAP2 SWAP1 PUSH3 0x2441 JUMP JUMPDEST SWAP1 SWAP2 SSTORE POP PUSH3 0x182F SWAP1 POP PUSH1 0x1 PUSH1 0x1 PUSH1 0xA0 SHL SUB DUP4 AND DUP15 DUP8 DUP15 PUSH3 0x1A8F JUMP JUMPDEST PUSH1 0x1 SWAP6 POP POP POP POP POP PUSH3 0x1987 JUMP JUMPDEST POP PUSH1 0x0 DUP1 MSTORE PUSH1 0x5 PUSH1 0x20 MSTORE PUSH32 0x5B8CCBB9D4D8FB16EA74CE3C29A41F1B461FBDAFF4714A0D9A8EB05499746BC SLOAD PUSH1 0x1 PUSH1 0x1 PUSH1 0xA0 SHL SUB AND DUP1 PUSH3 0x187D JUMPI PUSH1 0x0 DUP1 REVERT JUMPDEST PUSH1 0x0 DUP1 DUP1 MSTORE PUSH1 0x7 PUSH1 0x20 MSTORE PUSH32 0x6D5257204EBE7D88FD91AE87941CB2DD9D8062B64AE5A2BD2D28EC40B9FBF6DF DUP1 SLOAD SWAP2 PUSH1 0x1 SWAP2 SWAP1 PUSH3 0x18BB DUP4 DUP6 PUSH3 0x2441 JUMP JUMPDEST SWAP1 SWAP2 SSTORE POP POP PUSH1 0x0 DUP1 MSTORE PUSH1 0x7 PUSH1 0x20 MSTORE PUSH32 0x6D5257204EBE7D88FD91AE87941CB2DD9D8062B64AE5A2BD2D28EC40B9FBF6DF SLOAD SWAP4 POP PUSH3 0x18FA PUSH1 0x1 DUP3 PUSH3 0x2441 JUMP JUMPDEST DUP5 EQ PUSH3 0x1906 JUMPI PUSH1 0x0 DUP1 REVERT JUMPDEST CALLVALUE PUSH1 0x14 PUSH1 0x0 DUP3 DUP3 SLOAD PUSH3 0x191A SWAP2 SWAP1 PUSH3 0x2441 JUMP JUMPDEST SWAP1 SWAP2 SSTORE POP POP PUSH1 0x40 MLOAD PUSH1 0x0 SWAP1 PUSH1 0x1 PUSH1 0x1 PUSH1 0xA0 SHL SUB DUP5 AND SWAP1 DUP11 SWAP1 DUP4 DUP2 DUP2 DUP2 DUP6 DUP8 GAS CALL SWAP3 POP POP POP RETURNDATASIZE DUP1 PUSH1 0x0 DUP2 EQ PUSH3 0x196C JUMPI PUSH1 0x40 MLOAD SWAP2 POP PUSH1 0x1F NOT PUSH1 0x3F RETURNDATASIZE ADD AND DUP3 ADD PUSH1 0x40 MSTORE RETURNDATASIZE DUP3 MSTORE RETURNDATASIZE PUSH1 0x0 PUSH1 0x20 DUP5 ADD RETURNDATACOPY PUSH3 0x1971 JUMP JUMPDEST PUSH1 0x60 SWAP2 POP JUMPDEST POP POP SWAP1 POP DUP1 PUSH3 0x1980 JUMPI PUSH1 0x0 DUP1 REVERT JUMPDEST PUSH1 0x1 SWAP4 POP POP POP JUMPDEST DUP1 PUSH1 0x1 PUSH1 0x1 PUSH1 0xA0 SHL SUB AND DUP10 PUSH1 0x1 PUSH1 0x1 PUSH1 0xA0 SHL SUB AND PUSH32 0x1BE148FFC14C73233FD9D869986611F77ABCFD08494685A6552399CE5F948A20 DUP7 DUP7 DUP11 PUSH1 0x40 MLOAD PUSH3 0x19E2 SWAP4 SWAP3 SWAP2 SWAP1 SWAP3 DUP4 MSTORE PUSH1 0x20 DUP4 ADD SWAP2 SWAP1 SWAP2 MSTORE ISZERO ISZERO PUSH1 0x40 DUP3 ADD MSTORE PUSH1 0x60 ADD SWAP1 JUMP JUMPDEST PUSH1 0x40 MLOAD DUP1 SWAP2 SUB SWAP1 LOG3 POP SWAP3 POP POP POP PUSH3 0x7C6 PUSH1 0x1 PUSH1 0x2 SSTORE JUMP JUMPDEST PUSH1 0x0 DUP1 PUSH1 0x0 DUP1 DUP5 GT PUSH3 0x1A11 JUMPI PUSH3 0x1A11 PUSH3 0x232B JUMP JUMPDEST PUSH1 0x0 PUSH32 0x0 PUSH1 0xD SLOAD DUP7 PUSH3 0x1A44 SWAP2 SWAP1 PUSH3 0x2480 JUMP JUMPDEST PUSH3 0x1A50 SWAP2 SWAP1 PUSH3 0x24A2 JUMP JUMPDEST SWAP1 POP PUSH1 0x0 PUSH3 0x1A60 DUP3 DUP8 PUSH3 0x24C5 JUMP JUMPDEST SWAP1 POP PUSH1 0x0 PUSH3 0x1A70 DUP3 DUP5 PUSH3 0x2441 JUMP JUMPDEST SWAP1 POP DUP7 DUP2 EQ PUSH3 0x1A84 JUMPI PUSH3 0x1A84 PUSH3 0x232B JUMP JUMPDEST SWAP7 SWAP2 SWAP6 POP SWAP4 POP SWAP2 POP POP JUMP JUMPDEST PUSH3 0x1AEB DUP5 PUSH4 0x23B872DD PUSH1 0xE0 SHL DUP6 DUP6 DUP6 PUSH1 0x40 MLOAD PUSH1 0x24 ADD PUSH3 0x1AB3 SWAP4 SWAP3 SWAP2 SWAP1 PUSH3 0x245C JUMP JUMPDEST PUSH1 0x40 DUP1 MLOAD PUSH1 0x1F NOT DUP2 DUP5 SUB ADD DUP2 MSTORE SWAP2 SWAP1 MSTORE PUSH1 0x20 DUP2 ADD DUP1 MLOAD PUSH1 0x1 PUSH1 0x1 PUSH1 0xE0 SHL SUB AND PUSH1 0x1 PUSH1 0x1 PUSH1 0xE0 SHL SUB NOT SWAP1 SWAP4 AND SWAP3 SWAP1 SWAP3 OR SWAP1 SWAP2 MSTORE PUSH3 0x1B4E JUMP JUMPDEST POP POP POP POP JUMP JUMPDEST PUSH1 0x2 DUP1 SLOAD SUB PUSH3 0x1B48 JUMPI PUSH1 0x40 MLOAD PUSH3 0x461BCD PUSH1 0xE5 SHL DUP2 MSTORE PUSH1 0x20 PUSH1 0x4 DUP3 ADD MSTORE PUSH1 0x1F PUSH1 0x24 DUP3 ADD MSTORE PUSH32 0x5265656E7472616E637947756172643A207265656E7472616E742063616C6C00 PUSH1 0x44 DUP3 ADD MSTORE PUSH1 0x64 ADD JUMPDEST PUSH1 0x40 MLOAD DUP1 SWAP2 SUB SWAP1 REVERT JUMPDEST PUSH1 0x2 DUP1 SSTORE JUMP JUMPDEST PUSH1 0x0 PUSH3 0x1BA5 DUP3 PUSH1 0x40 MLOAD DUP1 PUSH1 0x40 ADD PUSH1 0x40 MSTORE DUP1 PUSH1 0x20 DUP2 MSTORE PUSH1 0x20 ADD PUSH32 0x5361666545524332303A206C6F772D6C6576656C2063616C6C206661696C6564 DUP2 MSTORE POP DUP6 PUSH1 0x1 PUSH1 0x1 PUSH1 0xA0 SHL SUB AND PUSH3 0x1C2C SWAP1 SWAP3 SWAP2 SWAP1 PUSH4 0xFFFFFFFF AND JUMP JUMPDEST DUP1 MLOAD SWAP1 SWAP2 POP ISZERO PUSH3 0x1C27 JUMPI DUP1 DUP1 PUSH1 0x20 ADD SWAP1 MLOAD DUP2 ADD SWAP1 PUSH3 0x1BC6 SWAP2 SWAP1 PUSH3 0x22D9 JUMP JUMPDEST PUSH3 0x1C27 JUMPI PUSH1 0x40 MLOAD PUSH3 0x461BCD PUSH1 0xE5 SHL DUP2 MSTORE PUSH1 0x20 PUSH1 0x4 DUP3 ADD MSTORE PUSH1 0x2A PUSH1 0x24 DUP3 ADD MSTORE PUSH32 0x5361666545524332303A204552433230206F7065726174696F6E20646964206E PUSH1 0x44 DUP3 ADD MSTORE PUSH10 0x1BDD081CDD58D8D95959 PUSH1 0xB2 SHL PUSH1 0x64 DUP3 ADD MSTORE PUSH1 0x84 ADD PUSH3 0x1B3F JUMP JUMPDEST POP POP POP JUMP JUMPDEST PUSH1 0x60 PUSH3 0x7C6 DUP5 DUP5 PUSH1 0x0 DUP6 DUP6 PUSH1 0x0 DUP1 DUP7 PUSH1 0x1 PUSH1 0x1 PUSH1 0xA0 SHL SUB AND DUP6 DUP8 PUSH1 0x40 MLOAD PUSH3 0x1C56 SWAP2 SWAP1 PUSH3 0x24DF JUMP JUMPDEST PUSH1 0x0 PUSH1 0x40 MLOAD DUP1 DUP4 SUB DUP2 DUP6 DUP8 GAS CALL SWAP3 POP POP POP RETURNDATASIZE DUP1 PUSH1 0x0 DUP2 EQ PUSH3 0x1C95 JUMPI PUSH1 0x40 MLOAD SWAP2 POP PUSH1 0x1F NOT PUSH1 0x3F RETURNDATASIZE ADD AND DUP3 ADD PUSH1 0x40 MSTORE RETURNDATASIZE DUP3 MSTORE RETURNDATASIZE PUSH1 0x0 PUSH1 0x20 DUP5 ADD RETURNDATACOPY PUSH3 0x1C9A JUMP JUMPDEST PUSH1 0x60 SWAP2 POP JUMPDEST POP SWAP2 POP SWAP2 POP PUSH3 0x1CAD DUP8 DUP4 DUP4 DUP8 PUSH3 0x1CB8 JUMP JUMPDEST SWAP8 SWAP7 POP POP POP POP POP POP POP JUMP JUMPDEST PUSH1 0x60 DUP4 ISZERO PUSH3 0x1D2C JUMPI DUP3 MLOAD PUSH1 0x0 SUB PUSH3 0x1D24 JUMPI PUSH1 0x1 PUSH1 0x1 PUSH1 0xA0 SHL SUB DUP6 AND EXTCODESIZE PUSH3 0x1D24 JUMPI PUSH1 0x40 MLOAD PUSH3 0x461BCD PUSH1 0xE5 SHL DUP2 MSTORE PUSH1 0x20 PUSH1 0x4 DUP3 ADD MSTORE PUSH1 0x1D PUSH1 0x24 DUP3 ADD MSTORE PUSH32 0x416464726573733A2063616C6C20746F206E6F6E2D636F6E7472616374000000 PUSH1 0x44 DUP3 ADD MSTORE PUSH1 0x64 ADD PUSH3 0x1B3F JUMP JUMPDEST POP DUP2 PUSH3 0x7C6 JUMP JUMPDEST PUSH3 0x7C6 DUP4 DUP4 DUP2 MLOAD ISZERO PUSH3 0x1D43 JUMPI DUP2 MLOAD DUP1 DUP4 PUSH1 0x20 ADD REVERT JUMPDEST DUP1 PUSH1 0x40 MLOAD PUSH3 0x461BCD PUSH1 0xE5 SHL DUP2 MSTORE PUSH1 0x4 ADD PUSH3 0x1B3F SWAP2 SWAP1 PUSH3 0x1DCA JUMP JUMPDEST PUSH2 0x201E DUP1 PUSH3 0x24FE DUP4 CODECOPY ADD SWAP1 JUMP JUMPDEST PUSH1 0x0 JUMPDEST DUP4 DUP2 LT ISZERO PUSH3 0x1D8A JUMPI DUP2 DUP2 ADD MLOAD DUP4 DUP3 ADD MSTORE PUSH1 0x20 ADD PUSH3 0x1D70 JUMP JUMPDEST DUP4 DUP2 GT ISZERO PUSH3 0x1AEB JUMPI POP POP PUSH1 0x0 SWAP2 ADD MSTORE JUMP JUMPDEST PUSH1 0x0 DUP2 MLOAD DUP1 DUP5 MSTORE PUSH3 0x1DB6 DUP2 PUSH1 0x20 DUP7 ADD PUSH1 0x20 DUP7 ADD PUSH3 0x1D6D JUMP JUMPDEST PUSH1 0x1F ADD PUSH1 0x1F NOT AND SWAP3 SWAP1 SWAP3 ADD PUSH1 0x20 ADD SWAP3 SWAP2 POP POP JUMP JUMPDEST PUSH1 0x20 DUP2 MSTORE PUSH1 0x0 PUSH3 0x661 PUSH1 0x20 DUP4 ADD DUP5 PUSH3 0x1D9C JUMP JUMPDEST PUSH4 0x4E487B71 PUSH1 0xE0 SHL PUSH1 0x0 MSTORE PUSH1 0x41 PUSH1 0x4 MSTORE PUSH1 0x24 PUSH1 0x0 REVERT JUMPDEST PUSH1 0x40 MLOAD PUSH1 0x1F DUP3 ADD PUSH1 0x1F NOT AND DUP2 ADD PUSH1 0x1 PUSH1 0x1 PUSH1 0x40 SHL SUB DUP2 GT DUP3 DUP3 LT OR ISZERO PUSH3 0x1E20 JUMPI PUSH3 0x1E20 PUSH3 0x1DDF JUMP JUMPDEST PUSH1 0x40 MSTORE SWAP2 SWAP1 POP JUMP JUMPDEST PUSH1 0x0 PUSH1 0x1 PUSH1 0x1 PUSH1 0x40 SHL SUB DUP3 GT ISZERO PUSH3 0x1E44 JUMPI PUSH3 0x1E44 PUSH3 0x1DDF JUMP JUMPDEST POP PUSH1 0x5 SHL PUSH1 0x20 ADD SWAP1 JUMP JUMPDEST PUSH1 0x0 DUP3 PUSH1 0x1F DUP4 ADD SLT PUSH3 0x1E60 JUMPI PUSH1 0x0 DUP1 REVERT JUMPDEST DUP2 CALLDATALOAD PUSH1 0x20 PUSH3 0x1E79 PUSH3 0x1E73 DUP4 PUSH3 0x1E28 JUMP JUMPDEST PUSH3 0x1DF5 JUMP JUMPDEST DUP3 DUP2 MSTORE PUSH1 0x5 SWAP3 SWAP1 SWAP3 SHL DUP5 ADD DUP2 ADD SWAP2 DUP2 DUP2 ADD SWAP1 DUP7 DUP5 GT ISZERO PUSH3 0x1E99 JUMPI PUSH1 0x0 DUP1 REVERT JUMPDEST DUP3 DUP7 ADD JUMPDEST DUP5 DUP2 LT ISZERO PUSH3 0x14C2 JUMPI DUP1 CALLDATALOAD DUP4 MSTORE SWAP2 DUP4 ADD SWAP2 DUP4 ADD PUSH3 0x1E9D JUMP JUMPDEST PUSH1 0x1 PUSH1 0x1 PUSH1 0xA0 SHL SUB DUP2 AND DUP2 EQ PUSH3 0x688 JUMPI PUSH1 0x0 DUP1 REVERT JUMPDEST PUSH1 0x0 DUP3 PUSH1 0x1F DUP4 ADD SLT PUSH3 0x1EDE JUMPI PUSH1 0x0 DUP1 REVERT JUMPDEST DUP2 CALLDATALOAD PUSH1 0x20 PUSH3 0x1EF1 PUSH3 0x1E73 DUP4 PUSH3 0x1E28 JUMP JUMPDEST DUP3 DUP2 MSTORE PUSH1 0x5 SWAP3 SWAP1 SWAP3 SHL DUP5 ADD DUP2 ADD SWAP2 DUP2 DUP2 ADD SWAP1 DUP7 DUP5 GT ISZERO PUSH3 0x1F11 JUMPI PUSH1 0x0 DUP1 REVERT JUMPDEST DUP3 DUP7 ADD JUMPDEST DUP5 DUP2 LT ISZERO PUSH3 0x14C2 JUMPI DUP1 CALLDATALOAD PUSH3 0x1F2B DUP2 PUSH3 0x1EB6 JUMP JUMPDEST DUP4 MSTORE SWAP2 DUP4 ADD SWAP2 DUP4 ADD PUSH3 0x1F15 JUMP JUMPDEST PUSH1 0x0 DUP1 PUSH1 0x40 DUP4 DUP6 SUB SLT ISZERO PUSH3 0x1F4D JUMPI PUSH1 0x0 DUP1 REVERT JUMPDEST DUP3 CALLDATALOAD PUSH1 0x1 PUSH1 0x1 PUSH1 0x40 SHL SUB DUP1 DUP3 GT ISZERO PUSH3 0x1F65 JUMPI PUSH1 0x0 DUP1 REVERT JUMPDEST PUSH3 0x1F73 DUP7 DUP4 DUP8 ADD PUSH3 0x1E4E JUMP JUMPDEST SWAP4 POP PUSH1 0x20 DUP6 ADD CALLDATALOAD SWAP2 POP DUP1 DUP3 GT ISZERO PUSH3 0x1F8A JUMPI PUSH1 0x0 DUP1 REVERT JUMPDEST POP PUSH3 0x1F99 DUP6 DUP3 DUP7 ADD PUSH3 0x1ECC JUMP JUMPDEST SWAP2 POP POP SWAP3 POP SWAP3 SWAP1 POP JUMP JUMPDEST PUSH1 0x0 PUSH1 0x20 DUP3 DUP5 SUB SLT ISZERO PUSH3 0x1FB6 JUMPI PUSH1 0x0 DUP1 REVERT JUMPDEST DUP2 CALLDATALOAD PUSH3 0x661 DUP2 PUSH3 0x1EB6 JUMP JUMPDEST PUSH1 0x0 DUP1 PUSH1 0x0 DUP1 PUSH1 0x80 DUP6 DUP8 SUB SLT ISZERO PUSH3 0x1FDA JUMPI PUSH1 0x0 DUP1 REVERT JUMPDEST DUP5 CALLDATALOAD PUSH3 0x1FE7 DUP2 PUSH3 0x1EB6 JUMP JUMPDEST SWAP4 POP PUSH1 0x20 DUP6 ADD CALLDATALOAD PUSH3 0x1FF9 DUP2 PUSH3 0x1EB6 JUMP JUMPDEST SWAP3 POP PUSH1 0x40 DUP6 ADD CALLDATALOAD PUSH3 0x200B DUP2 PUSH3 0x1EB6 JUMP JUMPDEST SWAP4 SWAP7 SWAP3 SWAP6 POP SWAP3 SWAP4 PUSH1 0x60 ADD CALLDATALOAD SWAP3 POP POP JUMP JUMPDEST DUP1 ISZERO ISZERO DUP2 EQ PUSH3 0x688 JUMPI PUSH1 0x0 DUP1 REVERT JUMPDEST PUSH1 0x0 DUP1 PUSH1 0x0 PUSH1 0x60 DUP5 DUP7 SUB SLT ISZERO PUSH3 0x2040 JUMPI PUSH1 0x0 DUP1 REVERT JUMPDEST DUP4 CALLDATALOAD SWAP3 POP PUSH1 0x20 DUP5 ADD CALLDATALOAD SWAP2 POP PUSH1 0x40 DUP5 ADD CALLDATALOAD PUSH3 0x205B DUP2 PUSH3 0x201B JUMP JUMPDEST DUP1 SWAP2 POP POP SWAP3 POP SWAP3 POP SWAP3 JUMP JUMPDEST PUSH1 0x0 DUP1 PUSH1 0x0 PUSH1 0x60 DUP5 DUP7 SUB SLT ISZERO PUSH3 0x207C JUMPI PUSH1 0x0 DUP1 REVERT JUMPDEST DUP4 CALLDATALOAD PUSH3 0x2089 DUP2 PUSH3 0x1EB6 JUMP JUMPDEST SWAP3 POP PUSH1 0x20 DUP5 ADD CALLDATALOAD SWAP2 POP PUSH1 0x40 DUP5 ADD CALLDATALOAD PUSH3 0x205B DUP2 PUSH3 0x1EB6 JUMP JUMPDEST PUSH1 0x0 DUP1 PUSH1 0x0 DUP1 PUSH1 0x0 PUSH1 0xA0 DUP7 DUP9 SUB SLT ISZERO PUSH3 0x20BB JUMPI PUSH1 0x0 DUP1 REVERT JUMPDEST DUP6 CALLDATALOAD PUSH3 0x20C8 DUP2 PUSH3 0x1EB6 JUMP JUMPDEST SWAP5 POP PUSH1 0x20 DUP7 ADD CALLDATALOAD SWAP4 POP PUSH1 0x40 DUP7 ADD CALLDATALOAD PUSH3 0x20E1 DUP2 PUSH3 0x1EB6 JUMP JUMPDEST SWAP3 POP PUSH1 0x60 DUP7 ADD CALLDATALOAD PUSH3 0x20F3 DUP2 PUSH3 0x1EB6 JUMP JUMPDEST SWAP2 POP PUSH1 0x80 DUP7 ADD CALLDATALOAD PUSH3 0x2105 DUP2 PUSH3 0x201B JUMP JUMPDEST DUP1 SWAP2 POP POP SWAP3 SWAP6 POP SWAP3 SWAP6 SWAP1 SWAP4 POP JUMP JUMPDEST PUSH1 0x0 DUP1 PUSH1 0x0 PUSH1 0x60 DUP5 DUP7 SUB SLT ISZERO PUSH3 0x2129 JUMPI PUSH1 0x0 DUP1 REVERT JUMPDEST DUP4 CALLDATALOAD PUSH1 0x1 PUSH1 0x1 PUSH1 0x40 SHL SUB DUP1 DUP3 GT ISZERO PUSH3 0x2141 JUMPI PUSH1 0x0 DUP1 REVERT JUMPDEST PUSH3 0x214F DUP8 DUP4 DUP9 ADD PUSH3 0x1E4E JUMP JUMPDEST SWAP5 POP PUSH1 0x20 DUP7 ADD CALLDATALOAD SWAP2 POP DUP1 DUP3 GT ISZERO PUSH3 0x2166 JUMPI PUSH1 0x0 DUP1 REVERT JUMPDEST POP PUSH3 0x2175 DUP7 DUP3 DUP8 ADD PUSH3 0x1ECC JUMP JUMPDEST SWAP3 POP POP PUSH1 0x40 DUP5 ADD CALLDATALOAD PUSH3 0x205B DUP2 PUSH3 0x1EB6 JUMP JUMPDEST PUSH1 0x0 DUP1 PUSH1 0x40 DUP4 DUP6 SUB SLT ISZERO PUSH3 0x219C JUMPI PUSH1 0x0 DUP1 REVERT JUMPDEST DUP3 CALLDATALOAD PUSH3 0x21A9 DUP2 PUSH3 0x1EB6 JUMP JUMPDEST SWAP2 POP PUSH1 0x20 DUP4 ADD CALLDATALOAD PUSH3 0x21BB DUP2 PUSH3 0x1EB6 JUMP JUMPDEST DUP1 SWAP2 POP POP SWAP3 POP SWAP3 SWAP1 POP JUMP JUMPDEST PUSH1 0x0 DUP1 PUSH1 0x40 DUP4 DUP6 SUB SLT ISZERO PUSH3 0x21DA JUMPI PUSH1 0x0 DUP1 REVERT JUMPDEST DUP3 CALLDATALOAD PUSH3 0x21E7 DUP2 PUSH3 0x1EB6 JUMP JUMPDEST SWAP5 PUSH1 0x20 SWAP4 SWAP1 SWAP4 ADD CALLDATALOAD SWAP4 POP POP POP JUMP JUMPDEST PUSH1 0x0 DUP1 PUSH1 0x0 DUP1 PUSH1 0x0 DUP1 PUSH1 0x0 DUP1 PUSH2 0x100 DUP10 DUP12 SUB SLT ISZERO PUSH3 0x2213 JUMPI PUSH1 0x0 DUP1 REVERT JUMPDEST DUP9 CALLDATALOAD PUSH3 0x2220 DUP2 PUSH3 0x1EB6 JUMP JUMPDEST SWAP8 POP PUSH1 0x20 DUP10 ADD CALLDATALOAD PUSH3 0x2232 DUP2 PUSH3 0x1EB6 JUMP JUMPDEST SWAP7 POP PUSH1 0x40 DUP10 ADD CALLDATALOAD SWAP6 POP PUSH1 0x60 DUP10 ADD CALLDATALOAD PUSH3 0x224B DUP2 PUSH3 0x201B JUMP JUMPDEST SWAP8 SWAP11 SWAP7 SWAP10 POP SWAP5 SWAP8 PUSH1 0x80 DUP2 ADD CALLDATALOAD SWAP7 PUSH1 0xA0 DUP3 ADD CALLDATALOAD SWAP7 POP PUSH1 0xC0 DUP3 ADD CALLDATALOAD SWAP6 POP PUSH1 0xE0 SWAP1 SWAP2 ADD CALLDATALOAD SWAP4 POP SWAP2 POP POP JUMP JUMPDEST PUSH1 0x1 PUSH1 0x1 PUSH1 0xA0 SHL SUB SWAP2 SWAP1 SWAP2 AND DUP2 MSTORE PUSH1 0x20 ADD SWAP1 JUMP JUMPDEST PUSH1 0x1 DUP2 DUP2 SHR SWAP1 DUP3 AND DUP1 PUSH3 0x229C JUMPI PUSH1 0x7F DUP3 AND SWAP2 POP JUMPDEST PUSH1 0x20 DUP3 LT DUP2 SUB PUSH3 0x22BD JUMPI PUSH4 0x4E487B71 PUSH1 0xE0 SHL PUSH1 0x0 MSTORE PUSH1 0x22 PUSH1 0x4 MSTORE PUSH1 0x24 PUSH1 0x0 REVERT JUMPDEST POP SWAP2 SWAP1 POP JUMP JUMPDEST PUSH4 0x4E487B71 PUSH1 0xE0 SHL PUSH1 0x0 MSTORE PUSH1 0x32 PUSH1 0x4 MSTORE PUSH1 0x24 PUSH1 0x0 REVERT JUMPDEST PUSH1 0x0 PUSH1 0x20 DUP3 DUP5 SUB SLT ISZERO PUSH3 0x22EC JUMPI PUSH1 0x0 DUP1 REVERT JUMPDEST DUP2 MLOAD PUSH3 0x661 DUP2 PUSH3 0x201B JUMP JUMPDEST PUSH4 0x4E487B71 PUSH1 0xE0 SHL PUSH1 0x0 MSTORE PUSH1 0x11 PUSH1 0x4 MSTORE PUSH1 0x24 PUSH1 0x0 REVERT JUMPDEST PUSH1 0x0 PUSH1 0x1 DUP3 ADD PUSH3 0x2324 JUMPI PUSH3 0x2324 PUSH3 0x22F9 JUMP JUMPDEST POP PUSH1 0x1 ADD SWAP1 JUMP JUMPDEST PUSH4 0x4E487B71 PUSH1 0xE0 SHL PUSH1 0x0 MSTORE PUSH1 0x1 PUSH1 0x4 MSTORE PUSH1 0x24 PUSH1 0x0 REVERT JUMPDEST PUSH1 0x0 PUSH1 0x20 DUP3 DUP5 SUB SLT ISZERO PUSH3 0x2354 JUMPI PUSH1 0x0 DUP1 REVERT JUMPDEST DUP2 MLOAD PUSH1 0x1 PUSH1 0x1 PUSH1 0x40 SHL SUB DUP1 DUP3 GT ISZERO PUSH3 0x236C JUMPI PUSH1 0x0 DUP1 REVERT JUMPDEST DUP2 DUP5 ADD SWAP2 POP DUP5 PUSH1 0x1F DUP4 ADD SLT PUSH3 0x2381 JUMPI PUSH1 0x0 DUP1 REVERT JUMPDEST DUP2 MLOAD DUP2 DUP2 GT ISZERO PUSH3 0x2396 JUMPI PUSH3 0x2396 PUSH3 0x1DDF JUMP JUMPDEST PUSH3 0x23AB PUSH1 0x1F DUP3 ADD PUSH1 0x1F NOT AND PUSH1 0x20 ADD PUSH3 0x1DF5 JUMP JUMPDEST SWAP2 POP DUP1 DUP3 MSTORE DUP6 PUSH1 0x20 DUP3 DUP6 ADD ADD GT ISZERO PUSH3 0x23C3 JUMPI PUSH1 0x0 DUP1 REVERT JUMPDEST PUSH3 0x23D6 DUP2 PUSH1 0x20 DUP5 ADD PUSH1 0x20 DUP7 ADD PUSH3 0x1D6D JUMP JUMPDEST POP SWAP5 SWAP4 POP POP POP POP JUMP JUMPDEST PUSH1 0x1 PUSH1 0x1 PUSH1 0xA0 SHL SUB DUP5 DUP2 AND DUP3 MSTORE DUP4 AND PUSH1 0x20 DUP3 ADD MSTORE PUSH1 0x60 PUSH1 0x40 DUP3 ADD DUP2 SWAP1 MSTORE PUSH1 0x0 SWAP1 PUSH3 0xA5F SWAP1 DUP4 ADD DUP5 PUSH3 0x1D9C JUMP JUMPDEST PUSH1 0x1 PUSH1 0x1 PUSH1 0xA0 SHL SUB SWAP3 DUP4 AND DUP2 MSTORE SWAP2 AND PUSH1 0x20 DUP3 ADD MSTORE PUSH1 0x40 ADD SWAP1 JUMP JUMPDEST PUSH1 0x0 PUSH1 0x20 DUP3 DUP5 SUB SLT ISZERO PUSH3 0x243A JUMPI PUSH1 0x0 DUP1 REVERT JUMPDEST POP MLOAD SWAP2 SWAP1 POP JUMP JUMPDEST PUSH1 0x0 DUP3 NOT DUP3 GT ISZERO PUSH3 0x2457 JUMPI PUSH3 0x2457 PUSH3 0x22F9 JUMP JUMPDEST POP ADD SWAP1 JUMP JUMPDEST PUSH1 0x1 PUSH1 0x1 PUSH1 0xA0 SHL SUB SWAP4 DUP5 AND DUP2 MSTORE SWAP2 SWAP1 SWAP3 AND PUSH1 0x20 DUP3 ADD MSTORE PUSH1 0x40 DUP2 ADD SWAP2 SWAP1 SWAP2 MSTORE PUSH1 0x60 ADD SWAP1 JUMP JUMPDEST PUSH1 0x0 DUP2 PUSH1 0x0 NOT DIV DUP4 GT DUP3 ISZERO ISZERO AND ISZERO PUSH3 0x249D JUMPI PUSH3 0x249D PUSH3 0x22F9 JUMP JUMPDEST POP MUL SWAP1 JUMP JUMPDEST PUSH1 0x0 DUP3 PUSH3 0x24C0 JUMPI PUSH4 0x4E487B71 PUSH1 0xE0 SHL PUSH1 0x0 MSTORE PUSH1 0x12 PUSH1 0x4 MSTORE PUSH1 0x24 PUSH1 0x0 REVERT JUMPDEST POP DIV SWAP1 JUMP JUMPDEST PUSH1 0x0 DUP3 DUP3 LT ISZERO PUSH3 0x24DA JUMPI PUSH3 0x24DA PUSH3 0x22F9 JUMP JUMPDEST POP SUB SWAP1 JUMP JUMPDEST PUSH1 0x0 DUP3 MLOAD PUSH3 0x24F3 DUP2 DUP5 PUSH1 0x20 DUP8 ADD PUSH3 0x1D6D JUMP JUMPDEST SWAP2 SWAP1 SWAP2 ADD SWAP3 SWAP2 POP POP JUMP INVALID PUSH1 0x80 PUSH1 0x40 DUP2 SWAP1 MSTORE PUSH1 0x6 DUP1 SLOAD PUSH1 0x1 PUSH1 0x1 PUSH1 0xA0 SHL SUB NOT AND ADDRESS OR SWAP1 SSTORE PUSH3 0x201E CODESIZE DUP2 SWAP1 SUB SWAP1 DUP2 SWAP1 DUP4 CODECOPY DUP2 ADD PUSH1 0x40 DUP2 SWAP1 MSTORE PUSH3 0x37 SWAP2 PUSH3 0x2F6 JUMP JUMPDEST DUP1 PUSH1 0x40 MLOAD PUSH1 0x20 ADD PUSH3 0x4A SWAP2 SWAP1 PUSH3 0x3D6 JUMP JUMPDEST PUSH1 0x40 MLOAD PUSH1 0x20 DUP2 DUP4 SUB SUB DUP2 MSTORE SWAP1 PUSH1 0x40 MSTORE DUP2 PUSH1 0x40 MLOAD PUSH1 0x20 ADD PUSH3 0x6C SWAP2 SWAP1 PUSH3 0x413 JUMP JUMPDEST PUSH1 0x40 MLOAD PUSH1 0x20 DUP2 DUP4 SUB SUB DUP2 MSTORE SWAP1 PUSH1 0x40 MSTORE DUP4 DUP3 DUP3 DUP2 PUSH1 0x3 SWAP1 DUP1 MLOAD SWAP1 PUSH1 0x20 ADD SWAP1 PUSH3 0x96 SWAP3 SWAP2 SWAP1 PUSH3 0x1EA JUMP JUMPDEST POP DUP1 MLOAD PUSH3 0xAC SWAP1 PUSH1 0x4 SWAP1 PUSH1 0x20 DUP5 ADD SWAP1 PUSH3 0x1EA JUMP JUMPDEST POP POP POP PUSH3 0xC9 PUSH3 0xC3 PUSH3 0x1A5 PUSH1 0x20 SHL PUSH1 0x20 SHR JUMP JUMPDEST PUSH3 0x1A9 JUMP JUMPDEST DUP3 MLOAD PUSH3 0xDE SWAP1 PUSH1 0x3 SWAP1 PUSH1 0x20 DUP7 ADD SWAP1 PUSH3 0x1EA JUMP JUMPDEST POP DUP2 MLOAD PUSH3 0xF4 SWAP1 PUSH1 0x4 SWAP1 PUSH1 0x20 DUP6 ADD SWAP1 PUSH3 0x1EA JUMP JUMPDEST POP PUSH1 0x40 MLOAD PUSH1 0x1 PUSH1 0x1 PUSH1 0xA0 SHL SUB DUP3 AND SWAP1 PUSH1 0x0 SWAP1 PUSH1 0x0 DUP1 MLOAD PUSH1 0x20 PUSH3 0x1FFE DUP4 CODECOPY DUP2 MLOAD SWAP2 MSTORE SWAP1 DUP3 SWAP1 LOG3 POP POP PUSH1 0x9 DUP1 SLOAD PUSH1 0x1 PUSH1 0x1 PUSH1 0xA0 SHL SUB DUP1 DUP7 AND PUSH1 0x1 PUSH1 0x1 PUSH1 0xA0 SHL SUB NOT SWAP3 DUP4 AND DUP2 OR SWAP1 SWAP4 SSTORE PUSH1 0x8 DUP1 SLOAD SWAP2 DUP9 AND SWAP2 DUP4 AND SWAP2 SWAP1 SWAP2 OR SWAP1 SSTORE PUSH1 0xA DUP1 SLOAD PUSH1 0x1 DUP2 ADD DUP3 SSTORE PUSH1 0x0 SWAP2 SWAP1 SWAP2 MSTORE PUSH32 0xC65A7BB8D6351C1CF70C95A316CC6A92839C986682D98BC35F958F4883F9D2A8 ADD DUP1 SLOAD SWAP1 SWAP2 AND SWAP1 SWAP2 OR SWAP1 SSTORE POP PUSH3 0x198 TIMESTAMP PUSH3 0x3F480 PUSH3 0x445 JUMP JUMPDEST PUSH1 0xC SSTORE POP PUSH3 0x4A8 SWAP2 POP POP JUMP JUMPDEST CALLER SWAP1 JUMP JUMPDEST PUSH1 0x5 DUP1 SLOAD PUSH1 0x1 PUSH1 0x1 PUSH1 0xA0 SHL SUB DUP4 DUP2 AND PUSH1 0x1 PUSH1 0x1 PUSH1 0xA0 SHL SUB NOT DUP4 AND DUP2 OR SWAP1 SWAP4 SSTORE PUSH1 0x40 MLOAD SWAP2 AND SWAP2 SWAP1 DUP3 SWAP1 PUSH1 0x0 DUP1 MLOAD PUSH1 0x20 PUSH3 0x1FFE DUP4 CODECOPY DUP2 MLOAD SWAP2 MSTORE SWAP1 PUSH1 0x0 SWAP1 LOG3 POP POP JUMP JUMPDEST DUP3 DUP1 SLOAD PUSH3 0x1F8 SWAP1 PUSH3 0x46C JUMP JUMPDEST SWAP1 PUSH1 0x0 MSTORE PUSH1 0x20 PUSH1 0x0 KECCAK256 SWAP1 PUSH1 0x1F ADD PUSH1 0x20 SWAP1 DIV DUP2 ADD SWAP3 DUP3 PUSH3 0x21C JUMPI PUSH1 0x0 DUP6 SSTORE PUSH3 0x267 JUMP JUMPDEST DUP3 PUSH1 0x1F LT PUSH3 0x237 JUMPI DUP1 MLOAD PUSH1 0xFF NOT AND DUP4 DUP1 ADD OR DUP6 SSTORE PUSH3 0x267 JUMP JUMPDEST DUP3 DUP1 ADD PUSH1 0x1 ADD DUP6 SSTORE DUP3 ISZERO PUSH3 0x267 JUMPI SWAP2 DUP3 ADD JUMPDEST DUP3 DUP2 GT ISZERO PUSH3 0x267 JUMPI DUP3 MLOAD DUP3 SSTORE SWAP2 PUSH1 0x20 ADD SWAP2 SWAP1 PUSH1 0x1 ADD SWAP1 PUSH3 0x24A JUMP JUMPDEST POP PUSH3 0x275 SWAP3 SWAP2 POP PUSH3 0x279 JUMP JUMPDEST POP SWAP1 JUMP JUMPDEST JUMPDEST DUP1 DUP3 GT ISZERO PUSH3 0x275 JUMPI PUSH1 0x0 DUP2 SSTORE PUSH1 0x1 ADD PUSH3 0x27A JUMP JUMPDEST DUP1 MLOAD PUSH1 0x1 PUSH1 0x1 PUSH1 0xA0 SHL SUB DUP2 AND DUP2 EQ PUSH3 0x2A8 JUMPI PUSH1 0x0 DUP1 REVERT JUMPDEST SWAP2 SWAP1 POP JUMP JUMPDEST PUSH4 0x4E487B71 PUSH1 0xE0 SHL PUSH1 0x0 MSTORE PUSH1 0x41 PUSH1 0x4 MSTORE PUSH1 0x24 PUSH1 0x0 REVERT JUMPDEST PUSH1 0x0 JUMPDEST DUP4 DUP2 LT ISZERO PUSH3 0x2E0 JUMPI DUP2 DUP2 ADD MLOAD DUP4 DUP3 ADD MSTORE PUSH1 0x20 ADD PUSH3 0x2C6 JUMP JUMPDEST DUP4 DUP2 GT ISZERO PUSH3 0x2F0 JUMPI PUSH1 0x0 DUP5 DUP5 ADD MSTORE JUMPDEST POP POP POP POP JUMP JUMPDEST PUSH1 0x0 DUP1 PUSH1 0x0 PUSH1 0x60 DUP5 DUP7 SUB SLT ISZERO PUSH3 0x30C JUMPI PUSH1 0x0 DUP1 REVERT JUMPDEST PUSH3 0x317 DUP5 PUSH3 0x290 JUMP JUMPDEST SWAP3 POP PUSH3 0x327 PUSH1 0x20 DUP6 ADD PUSH3 0x290 JUMP JUMPDEST PUSH1 0x40 DUP6 ADD MLOAD SWAP1 SWAP3 POP PUSH1 0x1 PUSH1 0x1 PUSH1 0x40 SHL SUB DUP1 DUP3 GT ISZERO PUSH3 0x345 JUMPI PUSH1 0x0 DUP1 REVERT JUMPDEST DUP2 DUP7 ADD SWAP2 POP DUP7 PUSH1 0x1F DUP4 ADD SLT PUSH3 0x35A JUMPI PUSH1 0x0 DUP1 REVERT JUMPDEST DUP2 MLOAD DUP2 DUP2 GT ISZERO PUSH3 0x36F JUMPI PUSH3 0x36F PUSH3 0x2AD JUMP JUMPDEST PUSH1 0x40 MLOAD PUSH1 0x1F DUP3 ADD PUSH1 0x1F NOT SWAP1 DUP2 AND PUSH1 0x3F ADD AND DUP2 ADD SWAP1 DUP4 DUP3 GT DUP2 DUP4 LT OR ISZERO PUSH3 0x39A JUMPI PUSH3 0x39A PUSH3 0x2AD JUMP JUMPDEST DUP2 PUSH1 0x40 MSTORE DUP3 DUP2 MSTORE DUP10 PUSH1 0x20 DUP5 DUP8 ADD ADD GT ISZERO PUSH3 0x3B4 JUMPI PUSH1 0x0 DUP1 REVERT JUMPDEST PUSH3 0x3C7 DUP4 PUSH1 0x20 DUP4 ADD PUSH1 0x20 DUP9 ADD PUSH3 0x2C3 JUMP JUMPDEST DUP1 SWAP6 POP POP POP POP POP POP SWAP3 POP SWAP3 POP SWAP3 JUMP JUMPDEST PUSH8 0xD2ACC2EAD8E8405 PUSH1 0xC3 SHL DUP2 MSTORE PUSH1 0x0 DUP3 MLOAD PUSH3 0x3FB DUP2 PUSH1 0x8 DUP6 ADD PUSH1 0x20 DUP8 ADD PUSH3 0x2C3 JUMP JUMPDEST PUSH1 0x29 PUSH1 0xF8 SHL PUSH1 0x8 SWAP4 SWAP1 SWAP2 ADD SWAP3 DUP4 ADD MSTORE POP PUSH1 0x9 ADD SWAP2 SWAP1 POP JUMP JUMPDEST PUSH8 0x427269646765642D PUSH1 0xC0 SHL DUP2 MSTORE PUSH1 0x0 DUP3 MLOAD PUSH3 0x438 DUP2 PUSH1 0x8 DUP6 ADD PUSH1 0x20 DUP8 ADD PUSH3 0x2C3 JUMP JUMPDEST SWAP2 SWAP1 SWAP2 ADD PUSH1 0x8 ADD SWAP3 SWAP2 POP POP JUMP JUMPDEST PUSH1 0x0 DUP3 NOT DUP3 GT ISZERO PUSH3 0x467 JUMPI PUSH4 0x4E487B71 PUSH1 0xE0 SHL PUSH1 0x0 MSTORE PUSH1 0x11 PUSH1 0x4 MSTORE PUSH1 0x24 PUSH1 0x0 REVERT JUMPDEST POP ADD SWAP1 JUMP JUMPDEST PUSH1 0x1 DUP2 DUP2 SHR SWAP1 DUP3 AND DUP1 PUSH3 0x481 JUMPI PUSH1 0x7F DUP3 AND SWAP2 POP JUMPDEST PUSH1 0x20 DUP3 LT DUP2 SUB PUSH3 0x4A2 JUMPI PUSH4 0x4E487B71 PUSH1 0xE0 SHL PUSH1 0x0 MSTORE PUSH1 0x22 PUSH1 0x4 MSTORE PUSH1 0x24 PUSH1 0x0 REVERT JUMPDEST POP SWAP2 SWAP1 POP JUMP JUMPDEST PUSH2 0x1B46 DUP1 PUSH3 0x4B8 PUSH1 0x0 CODECOPY PUSH1 0x0 RETURN INVALID PUSH1 0x80 PUSH1 0x40 MSTORE PUSH1 0x4 CALLDATASIZE LT PUSH2 0x15F JUMPI PUSH1 0x0 CALLDATALOAD PUSH1 0xE0 SHR DUP1 PUSH4 0x8DA5CB5B GT PUSH2 0xC4 JUMPI DUP1 PUSH4 0x8DA5CB5B EQ PUSH2 0x355 JUMPI DUP1 PUSH4 0x95D89B41 EQ PUSH2 0x373 JUMPI DUP1 PUSH4 0x9A708BE3 EQ PUSH2 0x388 JUMPI DUP1 PUSH4 0xA457C2D7 EQ PUSH2 0x3A8 JUMPI DUP1 PUSH4 0xA5F2A152 EQ PUSH2 0x3C8 JUMPI DUP1 PUSH4 0xA9059CBB EQ PUSH2 0x3E8 JUMPI DUP1 PUSH4 0xB09F1266 EQ PUSH2 0x408 JUMPI DUP1 PUSH4 0xB90306AD EQ PUSH2 0x41D JUMPI DUP1 PUSH4 0xBBB35F69 EQ PUSH2 0x43D JUMPI DUP1 PUSH4 0xD28D8852 EQ PUSH2 0x473 JUMPI DUP1 PUSH4 0xD7B96D4E EQ PUSH2 0x488 JUMPI DUP1 PUSH4 0xDD62ED3E EQ PUSH2 0x4A8 JUMPI DUP1 PUSH4 0xE534155D EQ PUSH2 0x4EE JUMPI DUP1 PUSH4 0xF2FDE38B EQ PUSH2 0x50E JUMPI DUP1 PUSH4 0xFD4C9B96 EQ PUSH2 0x52E JUMPI STOP JUMPDEST DUP1 PUSH3 0xE73378 EQ PUSH2 0x168 JUMPI DUP1 PUSH4 0x6FDDE03 EQ PUSH2 0x190 JUMPI DUP1 PUSH4 0x95EA7B3 EQ PUSH2 0x1B2 JUMPI DUP1 PUSH4 0xF388B4F EQ PUSH2 0x1D2 JUMPI DUP1 PUSH4 0xF6798A5 EQ PUSH2 0x1F6 JUMPI DUP1 PUSH4 0x18160DDD EQ PUSH2 0x216 JUMPI DUP1 PUSH4 0x23B872DD EQ PUSH2 0x22B JUMPI DUP1 PUSH4 0x28E1A604 EQ PUSH2 0x24B JUMPI DUP1 PUSH4 0x2A11CED0 EQ PUSH2 0x26B JUMPI DUP1 PUSH4 0x313CE567 EQ PUSH2 0x298 JUMPI DUP1 PUSH4 0x39509351 EQ PUSH2 0x2B4 JUMPI DUP1 PUSH4 0x70A08231 EQ PUSH2 0x2D4 JUMPI DUP1 PUSH4 0x715018A6 EQ PUSH2 0x30A JUMPI DUP1 PUSH4 0x794F4DD1 EQ PUSH2 0x31F JUMPI STOP JUMPDEST CALLDATASIZE PUSH2 0x166 JUMPI STOP JUMPDEST STOP JUMPDEST PUSH2 0x17B PUSH2 0x176 CALLDATASIZE PUSH1 0x4 PUSH2 0x174D JUMP JUMPDEST PUSH2 0x54E JUMP JUMPDEST PUSH1 0x40 MLOAD SWAP1 ISZERO ISZERO DUP2 MSTORE PUSH1 0x20 ADD JUMPDEST PUSH1 0x40 MLOAD DUP1 SWAP2 SUB SWAP1 RETURN JUMPDEST CALLVALUE DUP1 ISZERO PUSH2 0x19C JUMPI PUSH1 0x0 DUP1 REVERT JUMPDEST POP PUSH2 0x1A5 PUSH2 0x605 JUMP JUMPDEST PUSH1 0x40 MLOAD PUSH2 0x187 SWAP2 SWAP1 PUSH2 0x17A5 JUMP JUMPDEST CALLVALUE DUP1 ISZERO PUSH2 0x1BE JUMPI PUSH1 0x0 DUP1 REVERT JUMPDEST POP PUSH2 0x17B PUSH2 0x1CD CALLDATASIZE PUSH1 0x4 PUSH2 0x174D JUMP JUMPDEST PUSH2 0x697 JUMP JUMPDEST CALLVALUE DUP1 ISZERO PUSH2 0x1DE JUMPI PUSH1 0x0 DUP1 REVERT JUMPDEST POP PUSH2 0x1E8 PUSH1 0xB SLOAD DUP2 JUMP JUMPDEST PUSH1 0x40 MLOAD SWAP1 DUP2 MSTORE PUSH1 0x20 ADD PUSH2 0x187 JUMP JUMPDEST CALLVALUE DUP1 ISZERO PUSH2 0x202 JUMPI PUSH1 0x0 DUP1 REVERT JUMPDEST POP PUSH2 0x166 PUSH2 0x211 CALLDATASIZE PUSH1 0x4 PUSH2 0x174D JUMP JUMPDEST PUSH2 0x6AD JUMP JUMPDEST CALLVALUE DUP1 ISZERO PUSH2 0x222 JUMPI PUSH1 0x0 DUP1 REVERT JUMPDEST POP PUSH1 0x2 SLOAD PUSH2 0x1E8 JUMP JUMPDEST CALLVALUE DUP1 ISZERO PUSH2 0x237 JUMPI PUSH1 0x0 DUP1 REVERT JUMPDEST POP PUSH2 0x17B PUSH2 0x246 CALLDATASIZE PUSH1 0x4 PUSH2 0x17D8 JUMP JUMPDEST PUSH2 0x7AB JUMP JUMPDEST CALLVALUE DUP1 ISZERO PUSH2 0x257 JUMPI PUSH1 0x0 DUP1 REVERT JUMPDEST POP PUSH2 0x166 PUSH2 0x266 CALLDATASIZE PUSH1 0x4 PUSH2 0x174D JUMP JUMPDEST PUSH2 0x801 JUMP JUMPDEST CALLVALUE DUP1 ISZERO PUSH2 0x277 JUMPI PUSH1 0x0 DUP1 REVERT JUMPDEST POP PUSH2 0x28B PUSH2 0x286 CALLDATASIZE PUSH1 0x4 PUSH2 0x1819 JUMP JUMPDEST PUSH2 0x817 JUMP JUMPDEST PUSH1 0x40 MLOAD PUSH2 0x187 SWAP2 SWAP1 PUSH2 0x1832 JUMP JUMPDEST CALLVALUE DUP1 ISZERO PUSH2 0x2A4 JUMPI PUSH1 0x0 DUP1 REVERT JUMPDEST POP PUSH1 0x40 MLOAD PUSH1 0x12 DUP2 MSTORE PUSH1 0x20 ADD PUSH2 0x187 JUMP JUMPDEST CALLVALUE DUP1 ISZERO PUSH2 0x2C0 JUMPI PUSH1 0x0 DUP1 REVERT JUMPDEST POP PUSH2 0x17B PUSH2 0x2CF CALLDATASIZE PUSH1 0x4 PUSH2 0x174D JUMP JUMPDEST PUSH2 0x841 JUMP JUMPDEST CALLVALUE DUP1 ISZERO PUSH2 0x2E0 JUMPI PUSH1 0x0 DUP1 REVERT JUMPDEST POP PUSH2 0x1E8 PUSH2 0x2EF CALLDATASIZE PUSH1 0x4 PUSH2 0x1846 JUMP JUMPDEST PUSH1 0x1 PUSH1 0x1 PUSH1 0xA0 SHL SUB AND PUSH1 0x0 SWAP1 DUP2 MSTORE PUSH1 0x20 DUP2 SWAP1 MSTORE PUSH1 0x40 SWAP1 KECCAK256 SLOAD SWAP1 JUMP JUMPDEST CALLVALUE DUP1 ISZERO PUSH2 0x316 JUMPI PUSH1 0x0 DUP1 REVERT JUMPDEST POP PUSH2 0x166 PUSH2 0x87D JUMP JUMPDEST CALLVALUE DUP1 ISZERO PUSH2 0x32B JUMPI PUSH1 0x0 DUP1 REVERT JUMPDEST POP PUSH2 0x28B PUSH2 0x33A CALLDATASIZE PUSH1 0x4 PUSH2 0x1819 JUMP JUMPDEST PUSH1 0x0 SWAP1 DUP2 MSTORE PUSH1 0x7 PUSH1 0x20 MSTORE PUSH1 0x40 SWAP1 KECCAK256 SLOAD PUSH1 0x1 PUSH1 0x1 PUSH1 0xA0 SHL SUB AND SWAP1 JUMP JUMPDEST CALLVALUE DUP1 ISZERO PUSH2 0x361 JUMPI PUSH1 0x0 DUP1 REVERT JUMPDEST POP PUSH1 0x5 SLOAD PUSH1 0x1 PUSH1 0x1 PUSH1 0xA0 SHL SUB AND PUSH2 0x28B JUMP JUMPDEST CALLVALUE DUP1 ISZERO PUSH2 0x37F JUMPI PUSH1 0x0 DUP1 REVERT JUMPDEST POP PUSH2 0x1A5 PUSH2 0x891 JUMP JUMPDEST CALLVALUE DUP1 ISZERO PUSH2 0x394 JUMPI PUSH1 0x0 DUP1 REVERT JUMPDEST POP PUSH2 0x166 PUSH2 0x3A3 CALLDATASIZE PUSH1 0x4 PUSH2 0x190D JUMP JUMPDEST PUSH2 0x8A0 JUMP JUMPDEST CALLVALUE DUP1 ISZERO PUSH2 0x3B4 JUMPI PUSH1 0x0 DUP1 REVERT JUMPDEST POP PUSH2 0x17B PUSH2 0x3C3 CALLDATASIZE PUSH1 0x4 PUSH2 0x174D JUMP JUMPDEST PUSH2 0x8D9 JUMP JUMPDEST CALLVALUE DUP1 ISZERO PUSH2 0x3D4 JUMPI PUSH1 0x0 DUP1 REVERT JUMPDEST POP PUSH2 0x17B PUSH2 0x3E3 CALLDATASIZE PUSH1 0x4 PUSH2 0x17D8 JUMP JUMPDEST PUSH2 0x917 JUMP JUMPDEST CALLVALUE DUP1 ISZERO PUSH2 0x3F4 JUMPI PUSH1 0x0 DUP1 REVERT JUMPDEST POP PUSH2 0x17B PUSH2 0x403 CALLDATASIZE PUSH1 0x4 PUSH2 0x174D JUMP JUMPDEST PUSH2 0xA50 JUMP JUMPDEST CALLVALUE DUP1 ISZERO PUSH2 0x414 JUMPI PUSH1 0x0 DUP1 REVERT JUMPDEST POP PUSH2 0x1A5 PUSH2 0xA5D JUMP JUMPDEST CALLVALUE DUP1 ISZERO PUSH2 0x429 JUMPI PUSH1 0x0 DUP1 REVERT JUMPDEST POP PUSH2 0x166 PUSH2 0x438 CALLDATASIZE PUSH1 0x4 PUSH2 0x1819 JUMP JUMPDEST PUSH2 0xAEB JUMP JUMPDEST CALLVALUE DUP1 ISZERO PUSH2 0x449 JUMPI PUSH1 0x0 DUP1 REVERT JUMPDEST POP PUSH2 0x28B PUSH2 0x458 CALLDATASIZE PUSH1 0x4 PUSH2 0x1819 JUMP JUMPDEST PUSH1 0x7 PUSH1 0x20 MSTORE PUSH1 0x0 SWAP1 DUP2 MSTORE PUSH1 0x40 SWAP1 KECCAK256 SLOAD PUSH1 0x1 PUSH1 0x1 PUSH1 0xA0 SHL SUB AND DUP2 JUMP JUMPDEST CALLVALUE DUP1 ISZERO PUSH2 0x47F JUMPI PUSH1 0x0 DUP1 REVERT JUMPDEST POP PUSH2 0x1A5 PUSH2 0xB00 JUMP JUMPDEST CALLVALUE DUP1 ISZERO PUSH2 0x494 JUMPI PUSH1 0x0 DUP1 REVERT JUMPDEST POP PUSH1 0x8 SLOAD PUSH2 0x28B SWAP1 PUSH1 0x1 PUSH1 0x1 PUSH1 0xA0 SHL SUB AND DUP2 JUMP JUMPDEST CALLVALUE DUP1 ISZERO PUSH2 0x4B4 JUMPI PUSH1 0x0 DUP1 REVERT JUMPDEST POP PUSH2 0x1E8 PUSH2 0x4C3 CALLDATASIZE PUSH1 0x4 PUSH2 0x1971 JUMP JUMPDEST PUSH1 0x1 PUSH1 0x1 PUSH1 0xA0 SHL SUB SWAP2 DUP3 AND PUSH1 0x0 SWAP1 DUP2 MSTORE PUSH1 0x1 PUSH1 0x20 SWAP1 DUP2 MSTORE PUSH1 0x40 DUP1 DUP4 KECCAK256 SWAP4 SWAP1 SWAP5 AND DUP3 MSTORE SWAP2 SWAP1 SWAP2 MSTORE KECCAK256 SLOAD SWAP1 JUMP JUMPDEST CALLVALUE DUP1 ISZERO PUSH2 0x4FA JUMPI PUSH1 0x0 DUP1 REVERT JUMPDEST POP PUSH1 0x9 SLOAD PUSH2 0x28B SWAP1 PUSH1 0x1 PUSH1 0x1 PUSH1 0xA0 SHL SUB AND DUP2 JUMP JUMPDEST CALLVALUE DUP1 ISZERO PUSH2 0x51A JUMPI PUSH1 0x0 DUP1 REVERT JUMPDEST POP PUSH2 0x166 PUSH2 0x529 CALLDATASIZE PUSH1 0x4 PUSH2 0x1846 JUMP JUMPDEST PUSH2 0xB0D JUMP JUMPDEST CALLVALUE DUP1 ISZERO PUSH2 0x53A JUMPI PUSH1 0x0 DUP1 REVERT JUMPDEST POP PUSH2 0x17B PUSH2 0x549 CALLDATASIZE PUSH1 0x4 PUSH2 0x1846 JUMP JUMPDEST PUSH2 0xB88 JUMP JUMPDEST PUSH1 0x8 SLOAD PUSH1 0x0 SWAP1 PUSH1 0x1 PUSH1 0x1 PUSH1 0xA0 SHL SUB AND CALLER PUSH1 0x1 PUSH1 0x1 PUSH1 0xA0 SHL SUB AND EQ DUP1 PUSH2 0x586 JUMPI POP PUSH1 0x9 SLOAD PUSH1 0x1 PUSH1 0x1 PUSH1 0xA0 SHL SUB AND CALLER PUSH1 0x1 PUSH1 0x1 PUSH1 0xA0 SHL SUB AND EQ JUMPDEST PUSH2 0x58F JUMPI PUSH1 0x0 DUP1 REVERT JUMPDEST SELFBALANCE DUP3 GT ISZERO PUSH2 0x59B JUMPI SELFBALANCE SWAP2 POP JUMPDEST PUSH1 0x0 DUP4 PUSH1 0x1 PUSH1 0x1 PUSH1 0xA0 SHL SUB AND DUP4 PUSH1 0x40 MLOAD PUSH1 0x0 PUSH1 0x40 MLOAD DUP1 DUP4 SUB DUP2 DUP6 DUP8 GAS CALL SWAP3 POP POP POP RETURNDATASIZE DUP1 PUSH1 0x0 DUP2 EQ PUSH2 0x5E8 JUMPI PUSH1 0x40 MLOAD SWAP2 POP PUSH1 0x1F NOT PUSH1 0x3F RETURNDATASIZE ADD AND DUP3 ADD PUSH1 0x40 MSTORE RETURNDATASIZE DUP3 MSTORE RETURNDATASIZE PUSH1 0x0 PUSH1 0x20 DUP5 ADD RETURNDATACOPY PUSH2 0x5ED JUMP JUMPDEST PUSH1 0x60 SWAP2 POP JUMPDEST POP POP SWAP1 POP DUP1 PUSH2 0x5FB JUMPI PUSH1 0x0 DUP1 REVERT JUMPDEST POP PUSH1 0x1 SWAP4 SWAP3 POP POP POP JUMP JUMPDEST PUSH1 0x60 PUSH1 0x3 DUP1 SLOAD PUSH2 0x614 SWAP1 PUSH2 0x19AA JUMP JUMPDEST DUP1 PUSH1 0x1F ADD PUSH1 0x20 DUP1 SWAP2 DIV MUL PUSH1 0x20 ADD PUSH1 0x40 MLOAD SWAP1 DUP2 ADD PUSH1 0x40 MSTORE DUP1 SWAP3 SWAP2 SWAP1 DUP2 DUP2 MSTORE PUSH1 0x20 ADD DUP3 DUP1 SLOAD PUSH2 0x640 SWAP1 PUSH2 0x19AA JUMP JUMPDEST DUP1 ISZERO PUSH2 0x68D JUMPI DUP1 PUSH1 0x1F LT PUSH2 0x662 JUMPI PUSH2 0x100 DUP1 DUP4 SLOAD DIV MUL DUP4 MSTORE SWAP2 PUSH1 0x20 ADD SWAP2 PUSH2 0x68D JUMP JUMPDEST DUP3 ADD SWAP2 SWAP1 PUSH1 0x0 MSTORE PUSH1 0x20 PUSH1 0x0 KECCAK256 SWAP1 JUMPDEST DUP2 SLOAD DUP2 MSTORE SWAP1 PUSH1 0x1 ADD SWAP1 PUSH1 0x20 ADD DUP1 DUP4 GT PUSH2 0x670 JUMPI DUP3 SWAP1 SUB PUSH1 0x1F AND DUP3 ADD SWAP2 JUMPDEST POP POP POP POP POP SWAP1 POP SWAP1 JUMP JUMPDEST PUSH1 0x0 PUSH2 0x6A4 CALLER DUP5 DUP5 PUSH2 0xEE6 JUMP JUMPDEST POP PUSH1 0x1 SWAP3 SWAP2 POP POP JUMP JUMPDEST PUSH1 0x0 PUSH2 0x2710 ADDRESS PUSH1 0x1 PUSH1 0x1 PUSH1 0xA0 SHL SUB AND PUSH4 0x18160DDD PUSH1 0x40 MLOAD DUP2 PUSH4 0xFFFFFFFF AND PUSH1 0xE0 SHL DUP2 MSTORE PUSH1 0x4 ADD PUSH1 0x20 PUSH1 0x40 MLOAD DUP1 DUP4 SUB DUP2 DUP7 GAS STATICCALL ISZERO DUP1 ISZERO PUSH2 0x6F0 JUMPI RETURNDATASIZE PUSH1 0x0 DUP1 RETURNDATACOPY RETURNDATASIZE PUSH1 0x0 REVERT JUMPDEST POP POP POP POP PUSH1 0x40 MLOAD RETURNDATASIZE PUSH1 0x1F NOT PUSH1 0x1F DUP3 ADD AND DUP3 ADD DUP1 PUSH1 0x40 MSTORE POP DUP2 ADD SWAP1 PUSH2 0x714 SWAP2 SWAP1 PUSH2 0x19E4 JUMP JUMPDEST PUSH2 0x720 SWAP1 PUSH2 0x13EC PUSH2 0x1A13 JUMP JUMPDEST PUSH2 0x72A SWAP2 SWAP1 PUSH2 0x1A32 JUMP JUMPDEST PUSH1 0x40 MLOAD PUSH4 0x70A08231 PUSH1 0xE0 SHL DUP2 MSTORE ADDRESS SWAP1 PUSH4 0x70A08231 SWAP1 PUSH2 0x74D SWAP1 CALLER SWAP1 PUSH1 0x4 ADD PUSH2 0x1832 JUMP JUMPDEST PUSH1 0x20 PUSH1 0x40 MLOAD DUP1 DUP4 SUB DUP2 DUP7 GAS STATICCALL ISZERO DUP1 ISZERO PUSH2 0x76A JUMPI RETURNDATASIZE PUSH1 0x0 DUP1 RETURNDATACOPY RETURNDATASIZE PUSH1 0x0 REVERT JUMPDEST POP POP POP POP PUSH1 0x40 MLOAD RETURNDATASIZE PUSH1 0x1F NOT PUSH1 0x1F DUP3 ADD AND DUP3 ADD DUP1 PUSH1 0x40 MSTORE POP DUP2 ADD SWAP1 PUSH2 0x78E SWAP2 SWAP1 PUSH2 0x19E4 JUMP JUMPDEST LT ISZERO SWAP1 POP DUP1 PUSH2 0x79C JUMPI PUSH1 0x0 DUP1 REVERT JUMPDEST PUSH2 0x7A6 DUP4 DUP4 PUSH2 0xF6D JUMP JUMPDEST POP POP POP JUMP JUMPDEST PUSH1 0x0 PUSH2 0x7B8 DUP5 DUP5 DUP5 PUSH2 0xFF7 JUMP JUMPDEST PUSH1 0x1 PUSH1 0x1 PUSH1 0xA0 SHL SUB DUP5 AND PUSH1 0x0 SWAP1 DUP2 MSTORE PUSH1 0x1 PUSH1 0x20 SWAP1 DUP2 MSTORE PUSH1 0x40 DUP1 DUP4 KECCAK256 CALLER DUP5 MSTORE SWAP1 SWAP2 MSTORE SWAP1 KECCAK256 SLOAD DUP3 DUP2 LT ISZERO PUSH2 0x7E9 JUMPI PUSH1 0x0 DUP1 REVERT JUMPDEST PUSH2 0x7F6 DUP6 CALLER DUP6 DUP5 SUB PUSH2 0xEE6 JUMP JUMPDEST POP PUSH1 0x1 SWAP5 SWAP4 POP POP POP POP JUMP JUMPDEST PUSH2 0x809 PUSH2 0x11D2 JUMP JUMPDEST PUSH2 0x813 DUP3 DUP3 PUSH2 0x122C JUMP JUMPDEST POP POP JUMP JUMPDEST PUSH1 0xA DUP2 DUP2 SLOAD DUP2 LT PUSH2 0x827 JUMPI PUSH1 0x0 DUP1 REVERT JUMPDEST PUSH1 0x0 SWAP2 DUP3 MSTORE PUSH1 0x20 SWAP1 SWAP2 KECCAK256 ADD SLOAD PUSH1 0x1 PUSH1 0x1 PUSH1 0xA0 SHL SUB AND SWAP1 POP DUP2 JUMP JUMPDEST CALLER PUSH1 0x0 DUP2 DUP2 MSTORE PUSH1 0x1 PUSH1 0x20 SWAP1 DUP2 MSTORE PUSH1 0x40 DUP1 DUP4 KECCAK256 PUSH1 0x1 PUSH1 0x1 PUSH1 0xA0 SHL SUB DUP8 AND DUP5 MSTORE SWAP1 SWAP2 MSTORE DUP2 KECCAK256 SLOAD SWAP1 SWAP2 PUSH2 0x6A4 SWAP2 DUP6 SWAP1 PUSH2 0x878 SWAP1 DUP7 SWAP1 PUSH2 0x1A54 JUMP JUMPDEST PUSH2 0xEE6 JUMP JUMPDEST PUSH2 0x885 PUSH2 0x11D2 JUMP JUMPDEST PUSH2 0x88F PUSH1 0x0 PUSH2 0x12CD JUMP JUMPDEST JUMP JUMPDEST PUSH1 0x60 PUSH1 0x4 DUP1 SLOAD PUSH2 0x614 SWAP1 PUSH2 0x19AA JUMP JUMPDEST PUSH1 0x9 SLOAD PUSH1 0x1 PUSH1 0x1 PUSH1 0xA0 SHL SUB AND CALLER SUB PUSH2 0x813 JUMPI DUP2 MLOAD PUSH2 0x8C5 SWAP1 PUSH1 0x3 SWAP1 PUSH1 0x20 DUP6 ADD SWAP1 PUSH2 0x169F JUMP JUMPDEST POP DUP1 MLOAD PUSH2 0x7A6 SWAP1 PUSH1 0x4 SWAP1 PUSH1 0x20 DUP5 ADD SWAP1 PUSH2 0x169F JUMP JUMPDEST CALLER PUSH1 0x0 SWAP1 DUP2 MSTORE PUSH1 0x1 PUSH1 0x20 SWAP1 DUP2 MSTORE PUSH1 0x40 DUP1 DUP4 KECCAK256 PUSH1 0x1 PUSH1 0x1 PUSH1 0xA0 SHL SUB DUP7 AND DUP5 MSTORE SWAP1 SWAP2 MSTORE DUP2 KECCAK256 SLOAD DUP3 DUP2 LT ISZERO PUSH2 0x90A JUMPI PUSH1 0x0 DUP1 REVERT JUMPDEST PUSH2 0x5FB CALLER DUP6 DUP6 DUP5 SUB PUSH2 0xEE6 JUMP JUMPDEST PUSH1 0x8 SLOAD PUSH1 0x0 SWAP1 PUSH1 0x1 PUSH1 0x1 PUSH1 0xA0 SHL SUB AND CALLER PUSH1 0x1 PUSH1 0x1 PUSH1 0xA0 SHL SUB AND EQ DUP1 PUSH2 0x94F JUMPI POP PUSH1 0x9 SLOAD PUSH1 0x1 PUSH1 0x1 PUSH1 0xA0 SHL SUB AND CALLER PUSH1 0x1 PUSH1 0x1 PUSH1 0xA0 SHL SUB AND EQ JUMPDEST PUSH2 0x958 JUMPI PUSH1 0x0 DUP1 REVERT JUMPDEST PUSH1 0x40 MLOAD PUSH4 0x70A08231 PUSH1 0xE0 SHL DUP2 MSTORE PUSH1 0x1 PUSH1 0x1 PUSH1 0xA0 SHL SUB DUP6 AND SWAP1 PUSH4 0x70A08231 SWAP1 PUSH2 0x984 SWAP1 ADDRESS SWAP1 PUSH1 0x4 ADD PUSH2 0x1832 JUMP JUMPDEST PUSH1 0x20 PUSH1 0x40 MLOAD DUP1 DUP4 SUB DUP2 DUP7 GAS STATICCALL ISZERO DUP1 ISZERO PUSH2 0x9A1 JUMPI RETURNDATASIZE PUSH1 0x0 DUP1 RETURNDATACOPY RETURNDATASIZE PUSH1 0x0 REVERT JUMPDEST POP POP POP POP PUSH1 0x40 MLOAD RETURNDATASIZE PUSH1 0x1F NOT PUSH1 0x1F DUP3 ADD AND DUP3 ADD DUP1 PUSH1 0x40 MSTORE POP DUP2 ADD SWAP1 PUSH2 0x9C5 SWAP2 SWAP1 PUSH2 0x19E4 JUMP JUMPDEST DUP3 GT ISZERO PUSH2 0xA3C JUMPI PUSH1 0x40 MLOAD PUSH4 0x70A08231 PUSH1 0xE0 SHL DUP2 MSTORE PUSH1 0x1 PUSH1 0x1 PUSH1 0xA0 SHL SUB DUP6 AND SWAP1 PUSH4 0x70A08231 SWAP1 PUSH2 0x9F8 SWAP1 ADDRESS SWAP1 PUSH1 0x4 ADD PUSH2 0x1832 JUMP JUMPDEST PUSH1 0x20 PUSH1 0x40 MLOAD DUP1 DUP4 SUB DUP2 DUP7 GAS STATICCALL ISZERO DUP1 ISZERO PUSH2 0xA15 JUMPI RETURNDATASIZE PUSH1 0x0 DUP1 RETURNDATACOPY RETURNDATASIZE PUSH1 0x0 REVERT JUMPDEST POP POP POP POP PUSH1 0x40 MLOAD RETURNDATASIZE PUSH1 0x1F NOT PUSH1 0x1F DUP3 ADD AND DUP3 ADD DUP1 PUSH1 0x40 MSTORE POP DUP2 ADD SWAP1 PUSH2 0xA39 SWAP2 SWAP1 PUSH2 0x19E4 JUMP JUMPDEST SWAP2 POP JUMPDEST PUSH2 0x5FB PUSH1 0x1 PUSH1 0x1 PUSH1 0xA0 SHL SUB DUP6 AND DUP5 DUP5 PUSH2 0x131F JUMP JUMPDEST PUSH1 0x0 PUSH2 0x6A4 CALLER DUP5 DUP5 PUSH2 0xFF7 JUMP JUMPDEST PUSH1 0x4 DUP1 SLOAD PUSH2 0xA6A SWAP1 PUSH2 0x19AA JUMP JUMPDEST DUP1 PUSH1 0x1F ADD PUSH1 0x20 DUP1 SWAP2 DIV MUL PUSH1 0x20 ADD PUSH1 0x40 MLOAD SWAP1 DUP2 ADD PUSH1 0x40 MSTORE DUP1 SWAP3 SWAP2 SWAP1 DUP2 DUP2 MSTORE PUSH1 0x20 ADD DUP3 DUP1 SLOAD PUSH2 0xA96 SWAP1 PUSH2 0x19AA JUMP JUMPDEST DUP1 ISZERO PUSH2 0xAE3 JUMPI DUP1 PUSH1 0x1F LT PUSH2 0xAB8 JUMPI PUSH2 0x100 DUP1 DUP4 SLOAD DIV MUL DUP4 MSTORE SWAP2 PUSH1 0x20 ADD SWAP2 PUSH2 0xAE3 JUMP JUMPDEST DUP3 ADD SWAP2 SWAP1 PUSH1 0x0 MSTORE PUSH1 0x20 PUSH1 0x0 KECCAK256 SWAP1 JUMPDEST DUP2 SLOAD DUP2 MSTORE SWAP1 PUSH1 0x1 ADD SWAP1 PUSH1 0x20 ADD DUP1 DUP4 GT PUSH2 0xAC6 JUMPI DUP3 SWAP1 SUB PUSH1 0x1F AND DUP3 ADD SWAP2 JUMPDEST POP POP POP POP POP DUP2 JUMP JUMPDEST PUSH2 0xAF3 PUSH2 0x11D2 JUMP JUMPDEST PUSH2 0xAFD CALLER DUP3 PUSH2 0x122C JUMP JUMPDEST POP JUMP JUMPDEST PUSH1 0x3 DUP1 SLOAD PUSH2 0xA6A SWAP1 PUSH2 0x19AA JUMP JUMPDEST PUSH2 0xB15 PUSH2 0x11D2 JUMP JUMPDEST PUSH1 0x1 PUSH1 0x1 PUSH1 0xA0 SHL SUB DUP2 AND PUSH2 0xB7F JUMPI PUSH1 0x40 MLOAD PUSH3 0x461BCD PUSH1 0xE5 SHL DUP2 MSTORE PUSH1 0x20 PUSH1 0x4 DUP3 ADD MSTORE PUSH1 0x26 PUSH1 0x24 DUP3 ADD MSTORE PUSH32 0x4F776E61626C653A206E6577206F776E657220697320746865207A65726F2061 PUSH1 0x44 DUP3 ADD MSTORE PUSH6 0x646472657373 PUSH1 0xD0 SHL PUSH1 0x64 DUP3 ADD MSTORE PUSH1 0x84 ADD JUMPDEST PUSH1 0x40 MLOAD DUP1 SWAP2 SUB SWAP1 REVERT JUMPDEST PUSH2 0xAFD DUP2 PUSH2 0x12CD JUMP JUMPDEST PUSH1 0x9 SLOAD PUSH1 0x0 SWAP1 PUSH1 0x1 PUSH1 0x1 PUSH1 0xA0 SHL SUB DUP4 DUP2 AND SWAP2 AND EQ PUSH2 0xEDE JUMPI PUSH1 0x9 SLOAD PUSH1 0x1 PUSH1 0x1 PUSH1 0xA0 SHL SUB AND CALLER DUP2 SWAP1 SUB PUSH2 0xD21 JUMPI PUSH1 0x9 DUP1 SLOAD PUSH1 0x1 PUSH1 0x1 PUSH1 0xA0 SHL SUB DUP6 AND PUSH1 0x1 PUSH1 0x1 PUSH1 0xA0 SHL SUB NOT SWAP2 DUP3 AND DUP2 OR SWAP1 SWAP3 SSTORE PUSH1 0xA DUP1 SLOAD PUSH1 0x1 DUP2 ADD DUP3 SSTORE PUSH1 0x0 SWAP2 SWAP1 SWAP2 MSTORE PUSH32 0xC65A7BB8D6351C1CF70C95A316CC6A92839C986682D98BC35F958F4883F9D2A8 ADD DUP1 SLOAD SWAP1 SWAP2 AND SWAP1 SWAP2 OR SWAP1 SSTORE PUSH2 0xC1B TIMESTAMP PUSH2 0x258 PUSH2 0x1A54 JUMP JUMPDEST PUSH1 0xC SSTORE PUSH1 0x6 SLOAD PUSH1 0x40 DUP1 MLOAD PUSH4 0x18160DDD PUSH1 0xE0 SHL DUP2 MSTORE SWAP1 MLOAD PUSH2 0xC97 SWAP3 DUP7 SWAP3 PUSH1 0x1 PUSH1 0x1 PUSH1 0xA0 SHL SUB SWAP1 SWAP2 AND SWAP2 PUSH4 0x18160DDD SWAP2 PUSH1 0x4 DUP1 DUP3 ADD SWAP3 PUSH1 0x20 SWAP3 SWAP1 SWAP2 SWAP1 DUP3 SWAP1 SUB ADD DUP2 DUP7 GAS STATICCALL ISZERO DUP1 ISZERO PUSH2 0xC6E JUMPI RETURNDATASIZE PUSH1 0x0 DUP1 RETURNDATACOPY RETURNDATASIZE PUSH1 0x0 REVERT JUMPDEST POP POP POP POP PUSH1 0x40 MLOAD RETURNDATASIZE PUSH1 0x1F NOT PUSH1 0x1F DUP3 ADD AND DUP3 ADD DUP1 PUSH1 0x40 MSTORE POP DUP2 ADD SWAP1 PUSH2 0xC92 SWAP2 SWAP1 PUSH2 0x19E4 JUMP JUMPDEST PUSH2 0xF6D JUMP JUMPDEST PUSH2 0xCA0 DUP4 PUSH2 0xB0D JUMP JUMPDEST PUSH1 0x6 SLOAD PUSH1 0x40 MLOAD PUSH4 0x70A08231 PUSH1 0xE0 SHL DUP2 MSTORE PUSH2 0xD1C SWAP2 DUP4 SWAP2 PUSH1 0x1 PUSH1 0x1 PUSH1 0xA0 SHL SUB SWAP1 SWAP2 AND SWAP1 PUSH4 0x70A08231 SWAP1 PUSH2 0xCD6 SWAP1 DUP5 SWAP1 PUSH1 0x4 ADD PUSH2 0x1832 JUMP JUMPDEST PUSH1 0x20 PUSH1 0x40 MLOAD DUP1 DUP4 SUB DUP2 DUP7 GAS STATICCALL ISZERO DUP1 ISZERO PUSH2 0xCF3 JUMPI RETURNDATASIZE PUSH1 0x0 DUP1 RETURNDATACOPY RETURNDATASIZE PUSH1 0x0 REVERT JUMPDEST POP POP POP POP PUSH1 0x40 MLOAD RETURNDATASIZE PUSH1 0x1F NOT PUSH1 0x1F DUP3 ADD AND DUP3 ADD DUP1 PUSH1 0x40 MSTORE POP DUP2 ADD SWAP1 PUSH2 0xD17 SWAP2 SWAP1 PUSH2 0x19E4 JUMP JUMPDEST PUSH2 0x122C JUMP JUMPDEST PUSH2 0xE9C JUMP JUMPDEST PUSH2 0x2710 PUSH2 0x13EC PUSH1 0x6 PUSH1 0x0 SWAP1 SLOAD SWAP1 PUSH2 0x100 EXP SWAP1 DIV PUSH1 0x1 PUSH1 0x1 PUSH1 0xA0 SHL SUB AND PUSH1 0x1 PUSH1 0x1 PUSH1 0xA0 SHL SUB AND PUSH4 0x18160DDD PUSH1 0x40 MLOAD DUP2 PUSH4 0xFFFFFFFF AND PUSH1 0xE0 SHL DUP2 MSTORE PUSH1 0x4 ADD PUSH1 0x20 PUSH1 0x40 MLOAD DUP1 DUP4 SUB DUP2 DUP7 GAS STATICCALL ISZERO DUP1 ISZERO PUSH2 0xD7A JUMPI RETURNDATASIZE PUSH1 0x0 DUP1 RETURNDATACOPY RETURNDATASIZE PUSH1 0x0 REVERT JUMPDEST POP POP POP POP PUSH1 0x40 MLOAD RETURNDATASIZE PUSH1 0x1F NOT PUSH1 0x1F DUP3 ADD AND DUP3 ADD DUP1 PUSH1 0x40 MSTORE POP DUP2 ADD SWAP1 PUSH2 0xD9E SWAP2 SWAP1 PUSH2 0x19E4 JUMP JUMPDEST PUSH2 0xDA8 SWAP2 SWAP1 PUSH2 0x1A13 JUMP JUMPDEST PUSH2 0xDB2 SWAP2 SWAP1 PUSH2 0x1A32 JUMP JUMPDEST PUSH1 0x6 SLOAD PUSH1 0x40 MLOAD PUSH4 0x70A08231 PUSH1 0xE0 SHL DUP2 MSTORE PUSH1 0x1 PUSH1 0x1 PUSH1 0xA0 SHL SUB SWAP1 SWAP2 AND SWAP1 PUSH4 0x70A08231 SWAP1 PUSH2 0xDE2 SWAP1 DUP8 SWAP1 PUSH1 0x4 ADD PUSH2 0x1832 JUMP JUMPDEST PUSH1 0x20 PUSH1 0x40 MLOAD DUP1 DUP4 SUB DUP2 DUP7 GAS STATICCALL ISZERO DUP1 ISZERO PUSH2 0xDFF JUMPI RETURNDATASIZE PUSH1 0x0 DUP1 RETURNDATACOPY RETURNDATASIZE PUSH1 0x0 REVERT JUMPDEST POP POP POP POP PUSH1 0x40 MLOAD RETURNDATASIZE PUSH1 0x1F NOT PUSH1 0x1F DUP3 ADD AND DUP3 ADD DUP1 PUSH1 0x40 MSTORE POP DUP2 ADD SWAP1 PUSH2 0xE23 SWAP2 SWAP1 PUSH2 0x19E4 JUMP JUMPDEST LT PUSH2 0xE9C JUMPI PUSH1 0x9 DUP1 SLOAD PUSH1 0x1 PUSH1 0x1 PUSH1 0xA0 SHL SUB DUP6 AND PUSH1 0x1 PUSH1 0x1 PUSH1 0xA0 SHL SUB NOT SWAP2 DUP3 AND DUP2 OR SWAP1 SWAP3 SSTORE PUSH1 0xA DUP1 SLOAD PUSH1 0x1 DUP2 ADD DUP3 SSTORE PUSH1 0x0 SWAP2 SWAP1 SWAP2 MSTORE PUSH32 0xC65A7BB8D6351C1CF70C95A316CC6A92839C986682D98BC35F958F4883F9D2A8 ADD DUP1 SLOAD SWAP1 SWAP2 AND SWAP1 SWAP2 OR SWAP1 SSTORE PUSH2 0xE90 TIMESTAMP PUSH3 0x15180 PUSH2 0x1A54 JUMP JUMPDEST PUSH1 0xC SSTORE PUSH2 0xE9C DUP4 PUSH2 0xB0D JUMP JUMPDEST DUP3 PUSH1 0x1 PUSH1 0x1 PUSH1 0xA0 SHL SUB AND DUP2 PUSH1 0x1 PUSH1 0x1 PUSH1 0xA0 SHL SUB AND PUSH32 0x63DB4FD02ABE7291D8F941514C494426E598A36D386FAFA477735F923D30C83E PUSH1 0x40 MLOAD PUSH1 0x40 MLOAD DUP1 SWAP2 SUB SWAP1 LOG3 POP JUMPDEST POP PUSH1 0x1 SWAP2 SWAP1 POP JUMP JUMPDEST PUSH1 0x1 PUSH1 0x1 PUSH1 0xA0 SHL SUB DUP4 AND PUSH2 0xEF9 JUMPI PUSH1 0x0 DUP1 REVERT JUMPDEST PUSH1 0x1 PUSH1 0x1 PUSH1 0xA0 SHL SUB DUP3 AND PUSH2 0xF0C JUMPI PUSH1 0x0 DUP1 REVERT JUMPDEST PUSH1 0x1 PUSH1 0x1 PUSH1 0xA0 SHL SUB DUP4 DUP2 AND PUSH1 0x0 DUP2 DUP2 MSTORE PUSH1 0x1 PUSH1 0x20 SWAP1 DUP2 MSTORE PUSH1 0x40 DUP1 DUP4 KECCAK256 SWAP5 DUP8 AND DUP1 DUP5 MSTORE SWAP5 DUP3 MSTORE SWAP2 DUP3 SWAP1 KECCAK256 DUP6 SWAP1 SSTORE SWAP1 MLOAD DUP5 DUP2 MSTORE PUSH32 0x8C5BE1E5EBEC7D5BD14F71427D1E84F3DD0314C0F7B2291E5B200AC8C7C3B925 SWAP2 ADD PUSH1 0x40 MLOAD DUP1 SWAP2 SUB SWAP1 LOG3 POP POP POP JUMP JUMPDEST PUSH1 0x1 PUSH1 0x1 PUSH1 0xA0 SHL SUB DUP3 AND PUSH2 0xF80 JUMPI PUSH1 0x0 DUP1 REVERT JUMPDEST DUP1 PUSH1 0x2 PUSH1 0x0 DUP3 DUP3 SLOAD PUSH2 0xF92 SWAP2 SWAP1 PUSH2 0x1A54 JUMP JUMPDEST SWAP1 SWAP2 SSTORE POP POP PUSH1 0x1 PUSH1 0x1 PUSH1 0xA0 SHL SUB DUP3 AND PUSH1 0x0 SWAP1 DUP2 MSTORE PUSH1 0x20 DUP2 SWAP1 MSTORE PUSH1 0x40 DUP2 KECCAK256 DUP1 SLOAD DUP4 SWAP3 SWAP1 PUSH2 0xFBF SWAP1 DUP5 SWAP1 PUSH2 0x1A54 JUMP JUMPDEST SWAP1 SWAP2 SSTORE POP POP PUSH1 0x40 MLOAD DUP2 DUP2 MSTORE PUSH1 0x1 PUSH1 0x1 PUSH1 0xA0 SHL SUB DUP4 AND SWAP1 PUSH1 0x0 SWAP1 PUSH1 0x0 DUP1 MLOAD PUSH1 0x20 PUSH2 0x1AF1 DUP4 CODECOPY DUP2 MLOAD SWAP2 MSTORE SWAP1 PUSH1 0x20 ADD PUSH1 0x40 MLOAD DUP1 SWAP2 SUB SWAP1 LOG3 POP POP JUMP JUMPDEST PUSH1 0x0 JUMPDEST PUSH1 0xA SLOAD DUP2 LT ISZERO PUSH2 0x11C6 JUMPI PUSH2 0x2710 PUSH2 0x13EC PUSH1 0x6 PUSH1 0x0 SWAP1 SLOAD SWAP1 PUSH2 0x100 EXP SWAP1 DIV PUSH1 0x1 PUSH1 0x1 PUSH1 0xA0 SHL SUB AND PUSH1 0x1 PUSH1 0x1 PUSH1 0xA0 SHL SUB AND PUSH4 0x18160DDD PUSH1 0x40 MLOAD DUP2 PUSH4 0xFFFFFFFF AND PUSH1 0xE0 SHL DUP2 MSTORE PUSH1 0x4 ADD PUSH1 0x20 PUSH1 0x40 MLOAD DUP1 DUP4 SUB DUP2 DUP7 GAS STATICCALL ISZERO DUP1 ISZERO PUSH2 0x105D JUMPI RETURNDATASIZE PUSH1 0x0 DUP1 RETURNDATACOPY RETURNDATASIZE PUSH1 0x0 REVERT JUMPDEST POP POP POP POP PUSH1 0x40 MLOAD RETURNDATASIZE PUSH1 0x1F NOT PUSH1 0x1F DUP3 ADD AND DUP3 ADD DUP1 PUSH1 0x40 MSTORE POP DUP2 ADD SWAP1 PUSH2 0x1081 SWAP2 SWAP1 PUSH2 0x19E4 JUMP JUMPDEST PUSH2 0x108B SWAP2 SWAP1 PUSH2 0x1A13 JUMP JUMPDEST PUSH2 0x1095 SWAP2 SWAP1 PUSH2 0x1A32 JUMP JUMPDEST PUSH1 0x6 SLOAD PUSH1 0xA DUP1 SLOAD PUSH1 0x1 PUSH1 0x1 PUSH1 0xA0 SHL SUB SWAP1 SWAP3 AND SWAP2 PUSH4 0x70A08231 SWAP2 SWAP1 DUP6 SWAP1 DUP2 LT PUSH2 0x10BF JUMPI PUSH2 0x10BF PUSH2 0x1A6C JUMP JUMPDEST PUSH1 0x0 SWAP2 DUP3 MSTORE PUSH1 0x20 SWAP1 SWAP2 KECCAK256 ADD SLOAD PUSH1 0x40 MLOAD PUSH1 0x1 PUSH1 0x1 PUSH1 0xE0 SHL SUB NOT PUSH1 0xE0 DUP5 SWAP1 SHL AND DUP2 MSTORE PUSH2 0x10F5 SWAP2 PUSH1 0x1 PUSH1 0x1 PUSH1 0xA0 SHL SUB AND SWAP1 PUSH1 0x4 ADD PUSH2 0x1832 JUMP JUMPDEST PUSH1 0x20 PUSH1 0x40 MLOAD DUP1 DUP4 SUB DUP2 DUP7 GAS STATICCALL ISZERO DUP1 ISZERO PUSH2 0x1112 JUMPI RETURNDATASIZE PUSH1 0x0 DUP1 RETURNDATACOPY RETURNDATASIZE PUSH1 0x0 REVERT JUMPDEST POP POP POP POP PUSH1 0x40 MLOAD RETURNDATASIZE PUSH1 0x1F NOT PUSH1 0x1F DUP3 ADD AND DUP3 ADD DUP1 PUSH1 0x40 MSTORE POP DUP2 ADD SWAP1 PUSH2 0x1136 SWAP2 SWAP1 PUSH2 0x19E4 JUMP JUMPDEST LT PUSH2 0x11B4 JUMPI PUSH1 0x9 SLOAD PUSH1 0xA DUP1 SLOAD PUSH1 0x1 PUSH1 0x1 PUSH1 0xA0 SHL SUB SWAP1 SWAP3 AND SWAP2 DUP4 SWAP1 DUP2 LT PUSH2 0x115E JUMPI PUSH2 0x115E PUSH2 0x1A6C JUMP JUMPDEST PUSH1 0x0 SWAP2 DUP3 MSTORE PUSH1 0x20 SWAP1 SWAP2 KECCAK256 ADD SLOAD PUSH1 0x1 PUSH1 0x1 PUSH1 0xA0 SHL SUB AND EQ PUSH2 0x11B4 JUMPI PUSH1 0xC SLOAD TIMESTAMP GT ISZERO PUSH2 0x11B4 JUMPI PUSH2 0x11B2 PUSH1 0xA DUP3 DUP2 SLOAD DUP2 LT PUSH2 0x1198 JUMPI PUSH2 0x1198 PUSH2 0x1A6C JUMP JUMPDEST PUSH1 0x0 SWAP2 DUP3 MSTORE PUSH1 0x20 SWAP1 SWAP2 KECCAK256 ADD SLOAD PUSH1 0x1 PUSH1 0x1 PUSH1 0xA0 SHL SUB AND PUSH2 0xB88 JUMP JUMPDEST POP JUMPDEST DUP1 PUSH2 0x11BE DUP2 PUSH2 0x1A82 JUMP JUMPDEST SWAP2 POP POP PUSH2 0xFFA JUMP JUMPDEST POP PUSH2 0x7A6 DUP4 DUP4 DUP4 PUSH2 0x1371 JUMP JUMPDEST PUSH1 0x5 SLOAD PUSH1 0x1 PUSH1 0x1 PUSH1 0xA0 SHL SUB AND CALLER EQ PUSH2 0x88F JUMPI PUSH1 0x40 MLOAD PUSH3 0x461BCD PUSH1 0xE5 SHL DUP2 MSTORE PUSH1 0x20 PUSH1 0x4 DUP3 ADD DUP2 SWAP1 MSTORE PUSH1 0x24 DUP3 ADD MSTORE PUSH32 0x4F776E61626C653A2063616C6C6572206973206E6F7420746865206F776E6572 PUSH1 0x44 DUP3 ADD MSTORE PUSH1 0x64 ADD PUSH2 0xB76 JUMP JUMPDEST PUSH1 0x1 PUSH1 0x1 PUSH1 0xA0 SHL SUB DUP3 AND PUSH2 0x123F JUMPI PUSH1 0x0 DUP1 REVERT JUMPDEST PUSH1 0x1 PUSH1 0x1 PUSH1 0xA0 SHL SUB DUP3 AND PUSH1 0x0 SWAP1 DUP2 MSTORE PUSH1 0x20 DUP2 SWAP1 MSTORE PUSH1 0x40 SWAP1 KECCAK256 SLOAD DUP2 DUP2 LT ISZERO PUSH2 0x1265 JUMPI PUSH1 0x0 DUP1 REVERT JUMPDEST PUSH1 0x1 PUSH1 0x1 PUSH1 0xA0 SHL SUB DUP4 AND PUSH1 0x0 SWAP1 DUP2 MSTORE PUSH1 0x20 DUP2 SWAP1 MSTORE PUSH1 0x40 DUP2 KECCAK256 DUP4 DUP4 SUB SWAP1 SSTORE PUSH1 0x2 DUP1 SLOAD DUP5 SWAP3 SWAP1 PUSH2 0x1294 SWAP1 DUP5 SWAP1 PUSH2 0x1A9B JUMP JUMPDEST SWAP1 SWAP2 SSTORE POP POP PUSH1 0x40 MLOAD DUP3 DUP2 MSTORE PUSH1 0x0 SWAP1 PUSH1 0x1 PUSH1 0x1 PUSH1 0xA0 SHL SUB DUP6 AND SWAP1 PUSH1 0x0 DUP1 MLOAD PUSH1 0x20 PUSH2 0x1AF1 DUP4 CODECOPY DUP2 MLOAD SWAP2 MSTORE SWAP1 PUSH1 0x20 ADD PUSH1 0x40 MLOAD DUP1 SWAP2 SUB SWAP1 LOG3 POP POP POP JUMP JUMPDEST PUSH1 0x5 DUP1 SLOAD PUSH1 0x1 PUSH1 0x1 PUSH1 0xA0 SHL SUB DUP4 DUP2 AND PUSH1 0x1 PUSH1 0x1 PUSH1 0xA0 SHL SUB NOT DUP4 AND DUP2 OR SWAP1 SWAP4 SSTORE PUSH1 0x40 MLOAD SWAP2 AND SWAP2 SWAP1 DUP3 SWAP1 PUSH32 0x8BE0079C531659141344CD1FD0A4F28419497F9722A3DAAFE3B4186F6B6457E0 SWAP1 PUSH1 0x0 SWAP1 LOG3 POP POP JUMP JUMPDEST PUSH1 0x40 DUP1 MLOAD PUSH1 0x1 PUSH1 0x1 PUSH1 0xA0 SHL SUB DUP5 AND PUSH1 0x24 DUP3 ADD MSTORE PUSH1 0x44 DUP1 DUP3 ADD DUP5 SWAP1 MSTORE DUP3 MLOAD DUP1 DUP4 SUB SWAP1 SWAP2 ADD DUP2 MSTORE PUSH1 0x64 SWAP1 SWAP2 ADD SWAP1 SWAP2 MSTORE PUSH1 0x20 DUP2 ADD DUP1 MLOAD PUSH1 0x1 PUSH1 0x1 PUSH1 0xE0 SHL SUB AND PUSH4 0xA9059CBB PUSH1 0xE0 SHL OR SWAP1 MSTORE PUSH2 0x7A6 SWAP1 DUP5 SWAP1 PUSH2 0x143D JUMP JUMPDEST PUSH1 0x1 PUSH1 0x1 PUSH1 0xA0 SHL SUB DUP4 AND PUSH2 0x1384 JUMPI PUSH1 0x0 DUP1 REVERT JUMPDEST PUSH1 0x1 PUSH1 0x1 PUSH1 0xA0 SHL SUB DUP3 AND PUSH2 0x1397 JUMPI PUSH1 0x0 DUP1 REVERT JUMPDEST PUSH1 0x1 PUSH1 0x1 PUSH1 0xA0 SHL SUB DUP4 AND PUSH1 0x0 SWAP1 DUP2 MSTORE PUSH1 0x20 DUP2 SWAP1 MSTORE PUSH1 0x40 SWAP1 KECCAK256 SLOAD DUP2 DUP2 LT ISZERO PUSH2 0x13BD JUMPI PUSH1 0x0 DUP1 REVERT JUMPDEST PUSH1 0x1 PUSH1 0x1 PUSH1 0xA0 SHL SUB DUP1 DUP6 AND PUSH1 0x0 SWAP1 DUP2 MSTORE PUSH1 0x20 DUP2 SWAP1 MSTORE PUSH1 0x40 DUP1 DUP3 KECCAK256 DUP6 DUP6 SUB SWAP1 SSTORE SWAP2 DUP6 AND DUP2 MSTORE SWAP1 DUP2 KECCAK256 DUP1 SLOAD DUP5 SWAP3 SWAP1 PUSH2 0x13F4 SWAP1 DUP5 SWAP1 PUSH2 0x1A54 JUMP JUMPDEST SWAP3 POP POP DUP2 SWAP1 SSTORE POP DUP3 PUSH1 0x1 PUSH1 0x1 PUSH1 0xA0 SHL SUB AND DUP5 PUSH1 0x1 PUSH1 0x1 PUSH1 0xA0 SHL SUB AND PUSH1 0x0 DUP1 MLOAD PUSH1 0x20 PUSH2 0x1AF1 DUP4 CODECOPY DUP2 MLOAD SWAP2 MSTORE DUP5 PUSH1 0x40 MLOAD PUSH2 0x142E SWAP2 DUP2 MSTORE PUSH1 0x20 ADD SWAP1 JUMP JUMPDEST PUSH1 0x40 MLOAD DUP1 SWAP2 SUB SWAP1 LOG3 JUMPDEST POP POP POP POP JUMP JUMPDEST PUSH1 0x0 PUSH2 0x1492 DUP3 PUSH1 0x40 MLOAD DUP1 PUSH1 0x40 ADD PUSH1 0x40 MSTORE DUP1 PUSH1 0x20 DUP2 MSTORE PUSH1 0x20 ADD PUSH32 0x5361666545524332303A206C6F772D6C6576656C2063616C6C206661696C6564 DUP2 MSTORE POP DUP6 PUSH1 0x1 PUSH1 0x1 PUSH1 0xA0 SHL SUB AND PUSH2 0x150F SWAP1 SWAP3 SWAP2 SWAP1 PUSH4 0xFFFFFFFF AND JUMP JUMPDEST DUP1 MLOAD SWAP1 SWAP2 POP ISZERO PUSH2 0x7A6 JUMPI DUP1 DUP1 PUSH1 0x20 ADD SWAP1 MLOAD DUP2 ADD SWAP1 PUSH2 0x14B0 SWAP2 SWAP1 PUSH2 0x1AB2 JUMP JUMPDEST PUSH2 0x7A6 JUMPI PUSH1 0x40 MLOAD PUSH3 0x461BCD PUSH1 0xE5 SHL DUP2 MSTORE PUSH1 0x20 PUSH1 0x4 DUP3 ADD MSTORE PUSH1 0x2A PUSH1 0x24 DUP3 ADD MSTORE PUSH32 0x5361666545524332303A204552433230206F7065726174696F6E20646964206E PUSH1 0x44 DUP3 ADD MSTORE PUSH10 0x1BDD081CDD58D8D95959 PUSH1 0xB2 SHL PUSH1 0x64 DUP3 ADD MSTORE PUSH1 0x84 ADD PUSH2 0xB76 JUMP JUMPDEST PUSH1 0x60 PUSH2 0x151E DUP5 DUP5 PUSH1 0x0 DUP6 PUSH2 0x1526 JUMP JUMPDEST SWAP5 SWAP4 POP POP POP POP JUMP JUMPDEST PUSH1 0x60 DUP3 SELFBALANCE LT ISZERO PUSH2 0x1587 JUMPI PUSH1 0x40 MLOAD PUSH3 0x461BCD PUSH1 0xE5 SHL DUP2 MSTORE PUSH1 0x20 PUSH1 0x4 DUP3 ADD MSTORE PUSH1 0x26 PUSH1 0x24 DUP3 ADD MSTORE PUSH32 0x416464726573733A20696E73756666696369656E742062616C616E636520666F PUSH1 0x44 DUP3 ADD MSTORE PUSH6 0x1C8818D85B1B PUSH1 0xD2 SHL PUSH1 0x64 DUP3 ADD MSTORE PUSH1 0x84 ADD PUSH2 0xB76 JUMP JUMPDEST PUSH1 0x0 DUP1 DUP7 PUSH1 0x1 PUSH1 0x1 PUSH1 0xA0 SHL SUB AND DUP6 DUP8 PUSH1 0x40 MLOAD PUSH2 0x15A3 SWAP2 SWAP1 PUSH2 0x1AD4 JUMP JUMPDEST PUSH1 0x0 PUSH1 0x40 MLOAD DUP1 DUP4 SUB DUP2 DUP6 DUP8 GAS CALL SWAP3 POP POP POP RETURNDATASIZE DUP1 PUSH1 0x0 DUP2 EQ PUSH2 0x15E0 JUMPI PUSH1 0x40 MLOAD SWAP2 POP PUSH1 0x1F NOT PUSH1 0x3F RETURNDATASIZE ADD AND DUP3 ADD PUSH1 0x40 MSTORE RETURNDATASIZE DUP3 MSTORE RETURNDATASIZE PUSH1 0x0 PUSH1 0x20 DUP5 ADD RETURNDATACOPY PUSH2 0x15E5 JUMP JUMPDEST PUSH1 0x60 SWAP2 POP JUMPDEST POP SWAP2 POP SWAP2 POP PUSH2 0x15F6 DUP8 DUP4 DUP4 DUP8 PUSH2 0x1601 JUMP JUMPDEST SWAP8 SWAP7 POP POP POP POP POP POP POP JUMP JUMPDEST PUSH1 0x60 DUP4 ISZERO PUSH2 0x1670 JUMPI DUP3 MLOAD PUSH1 0x0 SUB PUSH2 0x1669 JUMPI PUSH1 0x1 PUSH1 0x1 PUSH1 0xA0 SHL SUB DUP6 AND EXTCODESIZE PUSH2 0x1669 JUMPI PUSH1 0x40 MLOAD PUSH3 0x461BCD PUSH1 0xE5 SHL DUP2 MSTORE PUSH1 0x20 PUSH1 0x4 DUP3 ADD MSTORE PUSH1 0x1D PUSH1 0x24 DUP3 ADD MSTORE PUSH32 0x416464726573733A2063616C6C20746F206E6F6E2D636F6E7472616374000000 PUSH1 0x44 DUP3 ADD MSTORE PUSH1 0x64 ADD PUSH2 0xB76 JUMP JUMPDEST POP DUP2 PUSH2 0x151E JUMP JUMPDEST PUSH2 0x151E DUP4 DUP4 DUP2 MLOAD ISZERO PUSH2 0x1685 JUMPI DUP2 MLOAD DUP1 DUP4 PUSH1 0x20 ADD REVERT JUMPDEST DUP1 PUSH1 0x40 MLOAD PUSH3 0x461BCD PUSH1 0xE5 SHL DUP2 MSTORE PUSH1 0x4 ADD PUSH2 0xB76 SWAP2 SWAP1 PUSH2 0x17A5 JUMP JUMPDEST DUP3 DUP1 SLOAD PUSH2 0x16AB SWAP1 PUSH2 0x19AA JUMP JUMPDEST SWAP1 PUSH1 0x0 MSTORE PUSH1 0x20 PUSH1 0x0 KECCAK256 SWAP1 PUSH1 0x1F ADD PUSH1 0x20 SWAP1 DIV DUP2 ADD SWAP3 DUP3 PUSH2 0x16CD JUMPI PUSH1 0x0 DUP6 SSTORE PUSH2 0x1713 JUMP JUMPDEST DUP3 PUSH1 0x1F LT PUSH2 0x16E6 JUMPI DUP1 MLOAD PUSH1 0xFF NOT AND DUP4 DUP1 ADD OR DUP6 SSTORE PUSH2 0x1713 JUMP JUMPDEST DUP3 DUP1 ADD PUSH1 0x1 ADD DUP6 SSTORE DUP3 ISZERO PUSH2 0x1713 JUMPI SWAP2 DUP3 ADD JUMPDEST DUP3 DUP2 GT ISZERO PUSH2 0x1713 JUMPI DUP3 MLOAD DUP3 SSTORE SWAP2 PUSH1 0x20 ADD SWAP2 SWAP1 PUSH1 0x1 ADD SWAP1 PUSH2 0x16F8 JUMP JUMPDEST POP PUSH2 0x171F SWAP3 SWAP2 POP PUSH2 0x1723 JUMP JUMPDEST POP SWAP1 JUMP JUMPDEST JUMPDEST DUP1 DUP3 GT ISZERO PUSH2 0x171F JUMPI PUSH1 0x0 DUP2 SSTORE PUSH1 0x1 ADD PUSH2 0x1724 JUMP JUMPDEST PUSH1 0x1 PUSH1 0x1 PUSH1 0xA0 SHL SUB DUP2 AND DUP2 EQ PUSH2 0xAFD JUMPI PUSH1 0x0 DUP1 REVERT JUMPDEST PUSH1 0x0 DUP1 PUSH1 0x40 DUP4 DUP6 SUB SLT ISZERO PUSH2 0x1760 JUMPI PUSH1 0x0 DUP1 REVERT JUMPDEST DUP3 CALLDATALOAD PUSH2 0x176B DUP2 PUSH2 0x1738 JUMP JUMPDEST SWAP5 PUSH1 0x20 SWAP4 SWAP1 SWAP4 ADD CALLDATALOAD SWAP4 POP POP POP JUMP JUMPDEST PUSH1 0x0 JUMPDEST DUP4 DUP2 LT ISZERO PUSH2 0x1794 JUMPI DUP2 DUP2 ADD MLOAD DUP4 DUP3 ADD MSTORE PUSH1 0x20 ADD PUSH2 0x177C JUMP JUMPDEST DUP4 DUP2 GT ISZERO PUSH2 0x1437 JUMPI POP POP PUSH1 0x0 SWAP2 ADD MSTORE JUMP JUMPDEST PUSH1 0x20 DUP2 MSTORE PUSH1 0x0 DUP3 MLOAD DUP1 PUSH1 0x20 DUP5 ADD MSTORE PUSH2 0x17C4 DUP2 PUSH1 0x40 DUP6 ADD PUSH1 0x20 DUP8 ADD PUSH2 0x1779 JUMP JUMPDEST PUSH1 0x1F ADD PUSH1 0x1F NOT AND SWAP2 SWAP1 SWAP2 ADD PUSH1 0x40 ADD SWAP3 SWAP2 POP POP JUMP JUMPDEST PUSH1 0x0 DUP1 PUSH1 0x0 PUSH1 0x60 DUP5 DUP7 SUB SLT ISZERO PUSH2 0x17ED JUMPI PUSH1 0x0 DUP1 REVERT JUMPDEST DUP4 CALLDATALOAD PUSH2 0x17F8 DUP2 PUSH2 0x1738 JUMP JUMPDEST SWAP3 POP PUSH1 0x20 DUP5 ADD CALLDATALOAD PUSH2 0x1808 DUP2 PUSH2 0x1738 JUMP JUMPDEST SWAP3 SWAP6 SWAP3 SWAP5 POP POP POP PUSH1 0x40 SWAP2 SWAP1 SWAP2 ADD CALLDATALOAD SWAP1 JUMP JUMPDEST PUSH1 0x0 PUSH1 0x20 DUP3 DUP5 SUB SLT ISZERO PUSH2 0x182B JUMPI PUSH1 0x0 DUP1 REVERT JUMPDEST POP CALLDATALOAD SWAP2 SWAP1 POP JUMP JUMPDEST PUSH1 0x1 PUSH1 0x1 PUSH1 0xA0 SHL SUB SWAP2 SWAP1 SWAP2 AND DUP2 MSTORE PUSH1 0x20 ADD SWAP1 JUMP JUMPDEST PUSH1 0x0 PUSH1 0x20 DUP3 DUP5 SUB SLT ISZERO PUSH2 0x1858 JUMPI PUSH1 0x0 DUP1 REVERT JUMPDEST DUP2 CALLDATALOAD PUSH2 0x1863 DUP2 PUSH2 0x1738 JUMP JUMPDEST SWAP4 SWAP3 POP POP POP JUMP JUMPDEST PUSH4 0x4E487B71 PUSH1 0xE0 SHL PUSH1 0x0 MSTORE PUSH1 0x41 PUSH1 0x4 MSTORE PUSH1 0x24 PUSH1 0x0 REVERT JUMPDEST PUSH1 0x0 DUP3 PUSH1 0x1F DUP4 ADD SLT PUSH2 0x1891 JUMPI PUSH1 0x0 DUP1 REVERT JUMPDEST DUP2 CALLDATALOAD PUSH8 0xFFFFFFFFFFFFFFFF DUP1 DUP3 GT ISZERO PUSH2 0x18AC JUMPI PUSH2 0x18AC PUSH2 0x186A JUMP JUMPDEST PUSH1 0x40 MLOAD PUSH1 0x1F DUP4 ADD PUSH1 0x1F NOT SWAP1 DUP2 AND PUSH1 0x3F ADD AND DUP2 ADD SWAP1 DUP3 DUP3 GT DUP2 DUP4 LT OR ISZERO PUSH2 0x18D4 JUMPI PUSH2 0x18D4 PUSH2 0x186A JUMP JUMPDEST DUP2 PUSH1 0x40 MSTORE DUP4 DUP2 MSTORE DUP7 PUSH1 0x20 DUP6 DUP9 ADD ADD GT ISZERO PUSH2 0x18ED JUMPI PUSH1 0x0 DUP1 REVERT JUMPDEST DUP4 PUSH1 0x20 DUP8 ADD PUSH1 0x20 DUP4 ADD CALLDATACOPY PUSH1 0x0 PUSH1 0x20 DUP6 DUP4 ADD ADD MSTORE DUP1 SWAP5 POP POP POP POP POP SWAP3 SWAP2 POP POP JUMP JUMPDEST PUSH1 0x0 DUP1 PUSH1 0x40 DUP4 DUP6 SUB SLT ISZERO PUSH2 0x1920 JUMPI PUSH1 0x0 DUP1 REVERT JUMPDEST DUP3 CALLDATALOAD PUSH8 0xFFFFFFFFFFFFFFFF DUP1 DUP3 GT ISZERO PUSH2 0x1938 JUMPI PUSH1 0x0 DUP1 REVERT JUMPDEST PUSH2 0x1944 DUP7 DUP4 DUP8 ADD PUSH2 0x1880 JUMP JUMPDEST SWAP4 POP PUSH1 0x20 DUP6 ADD CALLDATALOAD SWAP2 POP DUP1 DUP3 GT ISZERO PUSH2 0x195A JUMPI PUSH1 0x0 DUP1 REVERT JUMPDEST POP PUSH2 0x1967 DUP6 DUP3 DUP7 ADD PUSH2 0x1880 JUMP JUMPDEST SWAP2 POP POP SWAP3 POP SWAP3 SWAP1 POP JUMP JUMPDEST PUSH1 0x0 DUP1 PUSH1 0x40 DUP4 DUP6 SUB SLT ISZERO PUSH2 0x1984 JUMPI PUSH1 0x0 DUP1 REVERT JUMPDEST DUP3 CALLDATALOAD PUSH2 0x198F DUP2 PUSH2 0x1738 JUMP JUMPDEST SWAP2 POP PUSH1 0x20 DUP4 ADD CALLDATALOAD PUSH2 0x199F DUP2 PUSH2 0x1738 JUMP JUMPDEST DUP1 SWAP2 POP POP SWAP3 POP SWAP3 SWAP1 POP JUMP JUMPDEST PUSH1 0x1 DUP2 DUP2 SHR SWAP1 DUP3 AND DUP1 PUSH2 0x19BE JUMPI PUSH1 0x7F DUP3 AND SWAP2 POP JUMPDEST PUSH1 0x20 DUP3 LT DUP2 SUB PUSH2 0x19DE JUMPI PUSH4 0x4E487B71 PUSH1 0xE0 SHL PUSH1 0x0 MSTORE PUSH1 0x22 PUSH1 0x4 MSTORE PUSH1 0x24 PUSH1 0x0 REVERT JUMPDEST POP SWAP2 SWAP1 POP JUMP JUMPDEST PUSH1 0x0 PUSH1 0x20 DUP3 DUP5 SUB SLT ISZERO PUSH2 0x19F6 JUMPI PUSH1 0x0 DUP1 REVERT JUMPDEST POP MLOAD SWAP2 SWAP1 POP JUMP JUMPDEST PUSH4 0x4E487B71 PUSH1 0xE0 SHL PUSH1 0x0 MSTORE PUSH1 0x11 PUSH1 0x4 MSTORE PUSH1 0x24 PUSH1 0x0 REVERT JUMPDEST PUSH1 0x0 DUP2 PUSH1 0x0 NOT DIV DUP4 GT DUP3 ISZERO ISZERO AND ISZERO PUSH2 0x1A2D JUMPI PUSH2 0x1A2D PUSH2 0x19FD JUMP JUMPDEST POP MUL SWAP1 JUMP JUMPDEST PUSH1 0x0 DUP3 PUSH2 0x1A4F JUMPI PUSH4 0x4E487B71 PUSH1 0xE0 SHL PUSH1 0x0 MSTORE PUSH1 0x12 PUSH1 0x4 MSTORE PUSH1 0x24 PUSH1 0x0 REVERT JUMPDEST POP DIV SWAP1 JUMP JUMPDEST PUSH1 0x0 DUP3 NOT DUP3 GT ISZERO PUSH2 0x1A67 JUMPI PUSH2 0x1A67 PUSH2 0x19FD JUMP JUMPDEST POP ADD SWAP1 JUMP JUMPDEST PUSH4 0x4E487B71 PUSH1 0xE0 SHL PUSH1 0x0 MSTORE PUSH1 0x32 PUSH1 0x4 MSTORE PUSH1 0x24 PUSH1 0x0 REVERT JUMPDEST PUSH1 0x0 PUSH1 0x1 DUP3 ADD PUSH2 0x1A94 JUMPI PUSH2 0x1A94 PUSH2 0x19FD JUMP JUMPDEST POP PUSH1 0x1 ADD SWAP1 JUMP JUMPDEST PUSH1 0x0 DUP3 DUP3 LT ISZERO PUSH2 0x1AAD JUMPI PUSH2 0x1AAD PUSH2 0x19FD JUMP JUMPDEST POP SUB SWAP1 JUMP JUMPDEST PUSH1 0x0 PUSH1 0x20 DUP3 DUP5 SUB SLT ISZERO PUSH2 0x1AC4 JUMPI PUSH1 0x0 DUP1 REVERT JUMPDEST DUP2 MLOAD DUP1 ISZERO ISZERO DUP2 EQ PUSH2 0x1863 JUMPI PUSH1 0x0 DUP1 REVERT JUMPDEST PUSH1 0x0 DUP3 MLOAD PUSH2 0x1AE6 DUP2 DUP5 PUSH1 0x20 DUP8 ADD PUSH2 0x1779 JUMP JUMPDEST SWAP2 SWAP1 SWAP2 ADD SWAP3 SWAP2 POP POP JUMP INVALID 0xDD CALLCODE MSTORE 0xAD SHL 0xE2 0xC8 SWAP12 PUSH10 0xC2B068FC378DAA952BA7 CALL PUSH4 0xC4A11628 CREATE2 GAS 0x4D CREATE2 0x23 0xB3 0xEF LOG2 PUSH5 0x6970667358 0x22 SLT KECCAK256 0xEC PUSH21 0xB497EBFCCCCC36AED5B863A3B4309A3F26F187F6C6 0xE3 0x2D ADDRESS LOG1 PUSH23 0x1BAB17164736F6C634300080D00338BE0079C53165914 SGT DIFFICULTY 0xCD 0x1F 0xD0 LOG4 CALLCODE DUP5 NOT 0x49 PUSH32 0x9722A3DAAFE3B4186F6B6457E0A2646970667358221220A096B9341D15159055 0x2E SDIV MULMOD LOG3 SWAP16 0xC3 0xF9 0x23 0x28 DIFFICULTY 0x1E SMOD 0x1E 0xC9 SWAP6 0xE3 STATICCALL 0xB8 0x21 DUP5 0xCE PUSH30 0x5B64736F6C634300080D003360806040819052600680546001600160A01B SUB NOT AND ADDRESS OR SWAP1 SSTORE PUSH3 0x201E CODESIZE DUP2 SWAP1 SUB SWAP1 DUP2 SWAP1 DUP4 CODECOPY DUP2 ADD PUSH1 0x40 DUP2 SWAP1 MSTORE PUSH3 0x37 SWAP2 PUSH3 0x2F6 JUMP JUMPDEST DUP1 PUSH1 0x40 MLOAD PUSH1 0x20 ADD PUSH3 0x4A SWAP2 SWAP1 PUSH3 0x3D6 JUMP JUMPDEST PUSH1 0x40 MLOAD PUSH1 0x20 DUP2 DUP4 SUB SUB DUP2 MSTORE SWAP1 PUSH1 0x40 MSTORE DUP2 PUSH1 0x40 MLOAD PUSH1 0x20 ADD PUSH3 0x6C SWAP2 SWAP1 PUSH3 0x413 JUMP JUMPDEST PUSH1 0x40 MLOAD PUSH1 0x20 DUP2 DUP4 SUB SUB DUP2 MSTORE SWAP1 PUSH1 0x40 MSTORE DUP4 DUP3 DUP3 DUP2 PUSH1 0x3 SWAP1 DUP1 MLOAD SWAP1 PUSH1 0x20 ADD SWAP1 PUSH3 0x96 SWAP3 SWAP2 SWAP1 PUSH3 0x1EA JUMP JUMPDEST POP DUP1 MLOAD PUSH3 0xAC SWAP1 PUSH1 0x4 SWAP1 PUSH1 0x20 DUP5 ADD SWAP1 PUSH3 0x1EA JUMP JUMPDEST POP POP POP PUSH3 0xC9 PUSH3 0xC3 PUSH3 0x1A5 PUSH1 0x20 SHL PUSH1 0x20 SHR JUMP JUMPDEST PUSH3 0x1A9 JUMP JUMPDEST DUP3 MLOAD PUSH3 0xDE SWAP1 PUSH1 0x3 SWAP1 PUSH1 0x20 DUP7 ADD SWAP1 PUSH3 0x1EA JUMP JUMPDEST POP DUP2 MLOAD PUSH3 0xF4 SWAP1 PUSH1 0x4 SWAP1 PUSH1 0x20 DUP6 ADD SWAP1 PUSH3 0x1EA JUMP JUMPDEST POP PUSH1 0x40 MLOAD PUSH1 0x1 PUSH1 0x1 PUSH1 0xA0 SHL SUB DUP3 AND SWAP1 PUSH1 0x0 SWAP1 PUSH1 0x0 DUP1 MLOAD PUSH1 0x20 PUSH3 0x1FFE DUP4 CODECOPY DUP2 MLOAD SWAP2 MSTORE SWAP1 DUP3 SWAP1 LOG3 POP POP PUSH1 0x9 DUP1 SLOAD PUSH1 0x1 PUSH1 0x1 PUSH1 0xA0 SHL SUB DUP1 DUP7 AND PUSH1 0x1 PUSH1 0x1 PUSH1 0xA0 SHL SUB NOT SWAP3 DUP4 AND DUP2 OR SWAP1 SWAP4 SSTORE PUSH1 0x8 DUP1 SLOAD SWAP2 DUP9 AND SWAP2 DUP4 AND SWAP2 SWAP1 SWAP2 OR SWAP1 SSTORE PUSH1 0xA DUP1 SLOAD PUSH1 0x1 DUP2 ADD DUP3 SSTORE PUSH1 0x0 SWAP2 SWAP1 SWAP2 MSTORE PUSH32 0xC65A7BB8D6351C1CF70C95A316CC6A92839C986682D98BC35F958F4883F9D2A8 ADD DUP1 SLOAD SWAP1 SWAP2 AND SWAP1 SWAP2 OR SWAP1 SSTORE POP PUSH3 0x198 TIMESTAMP PUSH3 0x3F480 PUSH3 0x445 JUMP JUMPDEST PUSH1 0xC SSTORE POP PUSH3 0x4A8 SWAP2 POP POP JUMP JUMPDEST CALLER SWAP1 JUMP JUMPDEST PUSH1 0x5 DUP1 SLOAD PUSH1 0x1 PUSH1 0x1 PUSH1 0xA0 SHL SUB DUP4 DUP2 AND PUSH1 0x1 PUSH1 0x1 PUSH1 0xA0 SHL SUB NOT DUP4 AND DUP2 OR SWAP1 SWAP4 SSTORE PUSH1 0x40 MLOAD SWAP2 AND SWAP2 SWAP1 DUP3 SWAP1 PUSH1 0x0 DUP1 MLOAD PUSH1 0x20 PUSH3 0x1FFE DUP4 CODECOPY DUP2 MLOAD SWAP2 MSTORE SWAP1 PUSH1 0x0 SWAP1 LOG3 POP POP JUMP JUMPDEST DUP3 DUP1 SLOAD PUSH3 0x1F8 SWAP1 PUSH3 0x46C JUMP JUMPDEST SWAP1 PUSH1 0x0 MSTORE PUSH1 0x20 PUSH1 0x0 KECCAK256 SWAP1 PUSH1 0x1F ADD PUSH1 0x20 SWAP1 DIV DUP2 ADD SWAP3 DUP3 PUSH3 0x21C JUMPI PUSH1 0x0 DUP6 SSTORE PUSH3 0x267 JUMP JUMPDEST DUP3 PUSH1 0x1F LT PUSH3 0x237 JUMPI DUP1 MLOAD PUSH1 0xFF NOT AND DUP4 DUP1 ADD OR DUP6 SSTORE PUSH3 0x267 JUMP JUMPDEST DUP3 DUP1 ADD PUSH1 0x1 ADD DUP6 SSTORE DUP3 ISZERO PUSH3 0x267 JUMPI SWAP2 DUP3 ADD JUMPDEST DUP3 DUP2 GT ISZERO PUSH3 0x267 JUMPI DUP3 MLOAD DUP3 SSTORE SWAP2 PUSH1 0x20 ADD SWAP2 SWAP1 PUSH1 0x1 ADD SWAP1 PUSH3 0x24A JUMP JUMPDEST POP PUSH3 0x275 SWAP3 SWAP2 POP PUSH3 0x279 JUMP JUMPDEST POP SWAP1 JUMP JUMPDEST JUMPDEST DUP1 DUP3 GT ISZERO PUSH3 0x275 JUMPI PUSH1 0x0 DUP2 SSTORE PUSH1 0x1 ADD PUSH3 0x27A JUMP JUMPDEST DUP1 MLOAD PUSH1 0x1 PUSH1 0x1 PUSH1 0xA0 SHL SUB DUP2 AND DUP2 EQ PUSH3 0x2A8 JUMPI PUSH1 0x0 DUP1 REVERT JUMPDEST SWAP2 SWAP1 POP JUMP JUMPDEST PUSH4 0x4E487B71 PUSH1 0xE0 SHL PUSH1 0x0 MSTORE PUSH1 0x41 PUSH1 0x4 MSTORE PUSH1 0x24 PUSH1 0x0 REVERT JUMPDEST PUSH1 0x0 JUMPDEST DUP4 DUP2 LT ISZERO PUSH3 0x2E0 JUMPI DUP2 DUP2 ADD MLOAD DUP4 DUP3 ADD MSTORE PUSH1 0x20 ADD PUSH3 0x2C6 JUMP JUMPDEST DUP4 DUP2 GT ISZERO PUSH3 0x2F0 JUMPI PUSH1 0x0 DUP5 DUP5 ADD MSTORE JUMPDEST POP POP POP POP JUMP JUMPDEST PUSH1 0x0 DUP1 PUSH1 0x0 PUSH1 0x60 DUP5 DUP7 SUB SLT ISZERO PUSH3 0x30C JUMPI PUSH1 0x0 DUP1 REVERT JUMPDEST PUSH3 0x317 DUP5 PUSH3 0x290 JUMP JUMPDEST SWAP3 POP PUSH3 0x327 PUSH1 0x20 DUP6 ADD PUSH3 0x290 JUMP JUMPDEST PUSH1 0x40 DUP6 ADD MLOAD SWAP1 SWAP3 POP PUSH1 0x1 PUSH1 0x1 PUSH1 0x40 SHL SUB DUP1 DUP3 GT ISZERO PUSH3 0x345 JUMPI PUSH1 0x0 DUP1 REVERT JUMPDEST DUP2 DUP7 ADD SWAP2 POP DUP7 PUSH1 0x1F DUP4 ADD SLT PUSH3 0x35A JUMPI PUSH1 0x0 DUP1 REVERT JUMPDEST DUP2 MLOAD DUP2 DUP2 GT ISZERO PUSH3 0x36F JUMPI PUSH3 0x36F PUSH3 0x2AD JUMP JUMPDEST PUSH1 0x40 MLOAD PUSH1 0x1F DUP3 ADD PUSH1 0x1F NOT SWAP1 DUP2 AND PUSH1 0x3F ADD AND DUP2 ADD SWAP1 DUP4 DUP3 GT DUP2 DUP4 LT OR ISZERO PUSH3 0x39A JUMPI PUSH3 0x39A PUSH3 0x2AD JUMP JUMPDEST DUP2 PUSH1 0x40 MSTORE DUP3 DUP2 MSTORE DUP10 PUSH1 0x20 DUP5 DUP8 ADD ADD GT ISZERO PUSH3 0x3B4 JUMPI PUSH1 0x0 DUP1 REVERT JUMPDEST PUSH3 0x3C7 DUP4 PUSH1 0x20 DUP4 ADD PUSH1 0x20 DUP9 ADD PUSH3 0x2C3 JUMP JUMPDEST DUP1 SWAP6 POP POP POP POP POP POP SWAP3 POP SWAP3 POP SWAP3 JUMP JUMPDEST PUSH8 0xD2ACC2EAD8E8405 PUSH1 0xC3 SHL DUP2 MSTORE PUSH1 0x0 DUP3 MLOAD PUSH3 0x3FB DUP2 PUSH1 0x8 DUP6 ADD PUSH1 0x20 DUP8 ADD PUSH3 0x2C3 JUMP JUMPDEST PUSH1 0x29 PUSH1 0xF8 SHL PUSH1 0x8 SWAP4 SWAP1 SWAP2 ADD SWAP3 DUP4 ADD MSTORE POP PUSH1 0x9 ADD SWAP2 SWAP1 POP JUMP JUMPDEST PUSH8 0x427269646765642D PUSH1 0xC0 SHL DUP2 MSTORE PUSH1 0x0 DUP3 MLOAD PUSH3 0x438 DUP2 PUSH1 0x8 DUP6 ADD PUSH1 0x20 DUP8 ADD PUSH3 0x2C3 JUMP JUMPDEST SWAP2 SWAP1 SWAP2 ADD PUSH1 0x8 ADD SWAP3 SWAP2 POP POP JUMP JUMPDEST PUSH1 0x0 DUP3 NOT DUP3 GT ISZERO PUSH3 0x467 JUMPI PUSH4 0x4E487B71 PUSH1 0xE0 SHL PUSH1 0x0 MSTORE PUSH1 0x11 PUSH1 0x4 MSTORE PUSH1 0x24 PUSH1 0x0 REVERT JUMPDEST POP ADD SWAP1 JUMP JUMPDEST PUSH1 0x1 DUP2 DUP2 SHR SWAP1 DUP3 AND DUP1 PUSH3 0x481 JUMPI PUSH1 0x7F DUP3 AND SWAP2 POP JUMPDEST PUSH1 0x20 DUP3 LT DUP2 SUB PUSH3 0x4A2 JUMPI PUSH4 0x4E487B71 PUSH1 0xE0 SHL PUSH1 0x0 MSTORE PUSH1 0x22 PUSH1 0x4 MSTORE PUSH1 0x24 PUSH1 0x0 REVERT JUMPDEST POP SWAP2 SWAP1 POP JUMP JUMPDEST PUSH2 0x1B46 DUP1 PUSH3 0x4B8 PUSH1 0x0 CODECOPY PUSH1 0x0 RETURN INVALID PUSH1 0x80 PUSH1 0x40 MSTORE PUSH1 0x4 CALLDATASIZE LT PUSH2 0x15F JUMPI PUSH1 0x0 CALLDATALOAD PUSH1 0xE0 SHR DUP1 PUSH4 0x8DA5CB5B GT PUSH2 0xC4 JUMPI DUP1 PUSH4 0x8DA5CB5B EQ PUSH2 0x355 JUMPI DUP1 PUSH4 0x95D89B41 EQ PUSH2 0x373 JUMPI DUP1 PUSH4 0x9A708BE3 EQ PUSH2 0x388 JUMPI DUP1 PUSH4 0xA457C2D7 EQ PUSH2 0x3A8 JUMPI DUP1 PUSH4 0xA5F2A152 EQ PUSH2 0x3C8 JUMPI DUP1 PUSH4 0xA9059CBB EQ PUSH2 0x3E8 JUMPI DUP1 PUSH4 0xB09F1266 EQ PUSH2 0x408 JUMPI DUP1 PUSH4 0xB90306AD EQ PUSH2 0x41D JUMPI DUP1 PUSH4 0xBBB35F69 EQ PUSH2 0x43D JUMPI DUP1 PUSH4 0xD28D8852 EQ PUSH2 0x473 JUMPI DUP1 PUSH4 0xD7B96D4E EQ PUSH2 0x488 JUMPI DUP1 PUSH4 0xDD62ED3E EQ PUSH2 0x4A8 JUMPI DUP1 PUSH4 0xE534155D EQ PUSH2 0x4EE JUMPI DUP1 PUSH4 0xF2FDE38B EQ PUSH2 0x50E JUMPI DUP1 PUSH4 0xFD4C9B96 EQ PUSH2 0x52E JUMPI STOP JUMPDEST DUP1 PUSH3 0xE73378 EQ PUSH2 0x168 JUMPI DUP1 PUSH4 0x6FDDE03 EQ PUSH2 0x190 JUMPI DUP1 PUSH4 0x95EA7B3 EQ PUSH2 0x1B2 JUMPI DUP1 PUSH4 0xF388B4F EQ PUSH2 0x1D2 JUMPI DUP1 PUSH4 0xF6798A5 EQ PUSH2 0x1F6 JUMPI DUP1 PUSH4 0x18160DDD EQ PUSH2 0x216 JUMPI DUP1 PUSH4 0x23B872DD EQ PUSH2 0x22B JUMPI DUP1 PUSH4 0x28E1A604 EQ PUSH2 0x24B JUMPI DUP1 PUSH4 0x2A11CED0 EQ PUSH2 0x26B JUMPI DUP1 PUSH4 0x313CE567 EQ PUSH2 0x298 JUMPI DUP1 PUSH4 0x39509351 EQ PUSH2 0x2B4 JUMPI DUP1 PUSH4 0x70A08231 EQ PUSH2 0x2D4 JUMPI DUP1 PUSH4 0x715018A6 EQ PUSH2 0x30A JUMPI DUP1 PUSH4 0x794F4DD1 EQ PUSH2 0x31F JUMPI STOP JUMPDEST CALLDATASIZE PUSH2 0x166 JUMPI STOP JUMPDEST STOP JUMPDEST PUSH2 0x17B PUSH2 0x176 CALLDATASIZE PUSH1 0x4 PUSH2 0x174D JUMP JUMPDEST PUSH2 0x54E JUMP JUMPDEST PUSH1 0x40 MLOAD SWAP1 ISZERO ISZERO DUP2 MSTORE PUSH1 0x20 ADD JUMPDEST PUSH1 0x40 MLOAD DUP1 SWAP2 SUB SWAP1 RETURN JUMPDEST CALLVALUE DUP1 ISZERO PUSH2 0x19C JUMPI PUSH1 0x0 DUP1 REVERT JUMPDEST POP PUSH2 0x1A5 PUSH2 0x605 JUMP JUMPDEST PUSH1 0x40 MLOAD PUSH2 0x187 SWAP2 SWAP1 PUSH2 0x17A5 JUMP JUMPDEST CALLVALUE DUP1 ISZERO PUSH2 0x1BE JUMPI PUSH1 0x0 DUP1 REVERT JUMPDEST POP PUSH2 0x17B PUSH2 0x1CD CALLDATASIZE PUSH1 0x4 PUSH2 0x174D JUMP JUMPDEST PUSH2 0x697 JUMP JUMPDEST CALLVALUE DUP1 ISZERO PUSH2 0x1DE JUMPI PUSH1 0x0 DUP1 REVERT JUMPDEST POP PUSH2 0x1E8 PUSH1 0xB SLOAD DUP2 JUMP JUMPDEST PUSH1 0x40 MLOAD SWAP1 DUP2 MSTORE PUSH1 0x20 ADD PUSH2 0x187 JUMP JUMPDEST CALLVALUE DUP1 ISZERO PUSH2 0x202 JUMPI PUSH1 0x0 DUP1 REVERT JUMPDEST POP PUSH2 0x166 PUSH2 0x211 CALLDATASIZE PUSH1 0x4 PUSH2 0x174D JUMP JUMPDEST PUSH2 0x6AD JUMP JUMPDEST CALLVALUE DUP1 ISZERO PUSH2 0x222 JUMPI PUSH1 0x0 DUP1 REVERT JUMPDEST POP PUSH1 0x2 SLOAD PUSH2 0x1E8 JUMP JUMPDEST CALLVALUE DUP1 ISZERO PUSH2 0x237 JUMPI PUSH1 0x0 DUP1 REVERT JUMPDEST POP PUSH2 0x17B PUSH2 0x246 CALLDATASIZE PUSH1 0x4 PUSH2 0x17D8 JUMP JUMPDEST PUSH2 0x7AB JUMP JUMPDEST CALLVALUE DUP1 ISZERO PUSH2 0x257 JUMPI PUSH1 0x0 DUP1 REVERT JUMPDEST POP PUSH2 0x166 PUSH2 0x266 CALLDATASIZE PUSH1 0x4 PUSH2 0x174D JUMP JUMPDEST PUSH2 0x801 JUMP JUMPDEST CALLVALUE DUP1 ISZERO PUSH2 0x277 JUMPI PUSH1 0x0 DUP1 REVERT JUMPDEST POP PUSH2 0x28B PUSH2 0x286 CALLDATASIZE PUSH1 0x4 PUSH2 0x1819 JUMP JUMPDEST PUSH2 0x817 JUMP JUMPDEST PUSH1 0x40 MLOAD PUSH2 0x187 SWAP2 SWAP1 PUSH2 0x1832 JUMP JUMPDEST CALLVALUE DUP1 ISZERO PUSH2 0x2A4 JUMPI PUSH1 0x0 DUP1 REVERT JUMPDEST POP PUSH1 0x40 MLOAD PUSH1 0x12 DUP2 MSTORE PUSH1 0x20 ADD PUSH2 0x187 JUMP JUMPDEST CALLVALUE DUP1 ISZERO PUSH2 0x2C0 JUMPI PUSH1 0x0 DUP1 REVERT JUMPDEST POP PUSH2 0x17B PUSH2 0x2CF CALLDATASIZE PUSH1 0x4 PUSH2 0x174D JUMP JUMPDEST PUSH2 0x841 JUMP JUMPDEST CALLVALUE DUP1 ISZERO PUSH2 0x2E0 JUMPI PUSH1 0x0 DUP1 REVERT JUMPDEST POP PUSH2 0x1E8 PUSH2 0x2EF CALLDATASIZE PUSH1 0x4 PUSH2 0x1846 JUMP JUMPDEST PUSH1 0x1 PUSH1 0x1 PUSH1 0xA0 SHL SUB AND PUSH1 0x0 SWAP1 DUP2 MSTORE PUSH1 0x20 DUP2 SWAP1 MSTORE PUSH1 0x40 SWAP1 KECCAK256 SLOAD SWAP1 JUMP JUMPDEST CALLVALUE DUP1 ISZERO PUSH2 0x316 JUMPI PUSH1 0x0 DUP1 REVERT JUMPDEST POP PUSH2 0x166 PUSH2 0x87D JUMP JUMPDEST CALLVALUE DUP1 ISZERO PUSH2 0x32B JUMPI PUSH1 0x0 DUP1 REVERT JUMPDEST POP PUSH2 0x28B PUSH2 0x33A CALLDATASIZE PUSH1 0x4 PUSH2 0x1819 JUMP JUMPDEST PUSH1 0x0 SWAP1 DUP2 MSTORE PUSH1 0x7 PUSH1 0x20 MSTORE PUSH1 0x40 SWAP1 KECCAK256 SLOAD PUSH1 0x1 PUSH1 0x1 PUSH1 0xA0 SHL SUB AND SWAP1 JUMP JUMPDEST CALLVALUE DUP1 ISZERO PUSH2 0x361 JUMPI PUSH1 0x0 DUP1 REVERT JUMPDEST POP PUSH1 0x5 SLOAD PUSH1 0x1 PUSH1 0x1 PUSH1 0xA0 SHL SUB AND PUSH2 0x28B JUMP JUMPDEST CALLVALUE DUP1 ISZERO PUSH2 0x37F JUMPI PUSH1 0x0 DUP1 REVERT JUMPDEST POP PUSH2 0x1A5 PUSH2 0x891 JUMP JUMPDEST CALLVALUE DUP1 ISZERO PUSH2 0x394 JUMPI PUSH1 0x0 DUP1 REVERT JUMPDEST POP PUSH2 0x166 PUSH2 0x3A3 CALLDATASIZE PUSH1 0x4 PUSH2 0x190D JUMP JUMPDEST PUSH2 0x8A0 JUMP JUMPDEST CALLVALUE DUP1 ISZERO PUSH2 0x3B4 JUMPI PUSH1 0x0 DUP1 REVERT JUMPDEST POP PUSH2 0x17B PUSH2 0x3C3 CALLDATASIZE PUSH1 0x4 PUSH2 0x174D JUMP JUMPDEST PUSH2 0x8D9 JUMP JUMPDEST CALLVALUE DUP1 ISZERO PUSH2 0x3D4 JUMPI PUSH1 0x0 DUP1 REVERT JUMPDEST POP PUSH2 0x17B PUSH2 0x3E3 CALLDATASIZE PUSH1 0x4 PUSH2 0x17D8 JUMP JUMPDEST PUSH2 0x917 JUMP JUMPDEST CALLVALUE DUP1 ISZERO PUSH2 0x3F4 JUMPI PUSH1 0x0 DUP1 REVERT JUMPDEST POP PUSH2 0x17B PUSH2 0x403 CALLDATASIZE PUSH1 0x4 PUSH2 0x174D JUMP JUMPDEST PUSH2 0xA50 JUMP JUMPDEST CALLVALUE DUP1 ISZERO PUSH2 0x414 JUMPI PUSH1 0x0 DUP1 REVERT JUMPDEST POP PUSH2 0x1A5 PUSH2 0xA5D JUMP JUMPDEST CALLVALUE DUP1 ISZERO PUSH2 0x429 JUMPI PUSH1 0x0 DUP1 REVERT JUMPDEST POP PUSH2 0x166 PUSH2 0x438 CALLDATASIZE PUSH1 0x4 PUSH2 0x1819 JUMP JUMPDEST PUSH2 0xAEB JUMP JUMPDEST CALLVALUE DUP1 ISZERO PUSH2 0x449 JUMPI PUSH1 0x0 DUP1 REVERT JUMPDEST POP PUSH2 0x28B PUSH2 0x458 CALLDATASIZE PUSH1 0x4 PUSH2 0x1819 JUMP JUMPDEST PUSH1 0x7 PUSH1 0x20 MSTORE PUSH1 0x0 SWAP1 DUP2 MSTORE PUSH1 0x40 SWAP1 KECCAK256 SLOAD PUSH1 0x1 PUSH1 0x1 PUSH1 0xA0 SHL SUB AND DUP2 JUMP JUMPDEST CALLVALUE DUP1 ISZERO PUSH2 0x47F JUMPI PUSH1 0x0 DUP1 REVERT JUMPDEST POP PUSH2 0x1A5 PUSH2 0xB00 JUMP JUMPDEST CALLVALUE DUP1 ISZERO PUSH2 0x494 JUMPI PUSH1 0x0 DUP1 REVERT JUMPDEST POP PUSH1 0x8 SLOAD PUSH2 0x28B SWAP1 PUSH1 0x1 PUSH1 0x1 PUSH1 0xA0 SHL SUB AND DUP2 JUMP JUMPDEST CALLVALUE DUP1 ISZERO PUSH2 0x4B4 JUMPI PUSH1 0x0 DUP1 REVERT JUMPDEST POP PUSH2 0x1E8 PUSH2 0x4C3 CALLDATASIZE PUSH1 0x4 PUSH2 0x1971 JUMP JUMPDEST PUSH1 0x1 PUSH1 0x1 PUSH1 0xA0 SHL SUB SWAP2 DUP3 AND PUSH1 0x0 SWAP1 DUP2 MSTORE PUSH1 0x1 PUSH1 0x20 SWAP1 DUP2 MSTORE PUSH1 0x40 DUP1 DUP4 KECCAK256 SWAP4 SWAP1 SWAP5 AND DUP3 MSTORE SWAP2 SWAP1 SWAP2 MSTORE KECCAK256 SLOAD SWAP1 JUMP JUMPDEST CALLVALUE DUP1 ISZERO PUSH2 0x4FA JUMPI PUSH1 0x0 DUP1 REVERT JUMPDEST POP PUSH1 0x9 SLOAD PUSH2 0x28B SWAP1 PUSH1 0x1 PUSH1 0x1 PUSH1 0xA0 SHL SUB AND DUP2 JUMP JUMPDEST CALLVALUE DUP1 ISZERO PUSH2 0x51A JUMPI PUSH1 0x0 DUP1 REVERT JUMPDEST POP PUSH2 0x166 PUSH2 0x529 CALLDATASIZE PUSH1 0x4 PUSH2 0x1846 JUMP JUMPDEST PUSH2 0xB0D JUMP JUMPDEST CALLVALUE DUP1 ISZERO PUSH2 0x53A JUMPI PUSH1 0x0 DUP1 REVERT JUMPDEST POP PUSH2 0x17B PUSH2 0x549 CALLDATASIZE PUSH1 0x4 PUSH2 0x1846 JUMP JUMPDEST PUSH2 0xB88 JUMP JUMPDEST PUSH1 0x8 SLOAD PUSH1 0x0 SWAP1 PUSH1 0x1 PUSH1 0x1 PUSH1 0xA0 SHL SUB AND CALLER PUSH1 0x1 PUSH1 0x1 PUSH1 0xA0 SHL SUB AND EQ DUP1 PUSH2 0x586 JUMPI POP PUSH1 0x9 SLOAD PUSH1 0x1 PUSH1 0x1 PUSH1 0xA0 SHL SUB AND CALLER PUSH1 0x1 PUSH1 0x1 PUSH1 0xA0 SHL SUB AND EQ JUMPDEST PUSH2 0x58F JUMPI PUSH1 0x0 DUP1 REVERT JUMPDEST SELFBALANCE DUP3 GT ISZERO PUSH2 0x59B JUMPI SELFBALANCE SWAP2 POP JUMPDEST PUSH1 0x0 DUP4 PUSH1 0x1 PUSH1 0x1 PUSH1 0xA0 SHL SUB AND DUP4 PUSH1 0x40 MLOAD PUSH1 0x0 PUSH1 0x40 MLOAD DUP1 DUP4 SUB DUP2 DUP6 DUP8 GAS CALL SWAP3 POP POP POP RETURNDATASIZE DUP1 PUSH1 0x0 DUP2 EQ PUSH2 0x5E8 JUMPI PUSH1 0x40 MLOAD SWAP2 POP PUSH1 0x1F NOT PUSH1 0x3F RETURNDATASIZE ADD AND DUP3 ADD PUSH1 0x40 MSTORE RETURNDATASIZE DUP3 MSTORE RETURNDATASIZE PUSH1 0x0 PUSH1 0x20 DUP5 ADD RETURNDATACOPY PUSH2 0x5ED JUMP JUMPDEST PUSH1 0x60 SWAP2 POP JUMPDEST POP POP SWAP1 POP DUP1 PUSH2 0x5FB JUMPI PUSH1 0x0 DUP1 REVERT JUMPDEST POP PUSH1 0x1 SWAP4 SWAP3 POP POP POP JUMP JUMPDEST PUSH1 0x60 PUSH1 0x3 DUP1 SLOAD PUSH2 0x614 SWAP1 PUSH2 0x19AA JUMP JUMPDEST DUP1 PUSH1 0x1F ADD PUSH1 0x20 DUP1 SWAP2 DIV MUL PUSH1 0x20 ADD PUSH1 0x40 MLOAD SWAP1 DUP2 ADD PUSH1 0x40 MSTORE DUP1 SWAP3 SWAP2 SWAP1 DUP2 DUP2 MSTORE PUSH1 0x20 ADD DUP3 DUP1 SLOAD PUSH2 0x640 SWAP1 PUSH2 0x19AA JUMP JUMPDEST DUP1 ISZERO PUSH2 0x68D JUMPI DUP1 PUSH1 0x1F LT PUSH2 0x662 JUMPI PUSH2 0x100 DUP1 DUP4 SLOAD DIV MUL DUP4 MSTORE SWAP2 PUSH1 0x20 ADD SWAP2 PUSH2 0x68D JUMP JUMPDEST DUP3 ADD SWAP2 SWAP1 PUSH1 0x0 MSTORE PUSH1 0x20 PUSH1 0x0 KECCAK256 SWAP1 JUMPDEST DUP2 SLOAD DUP2 MSTORE SWAP1 PUSH1 0x1 ADD SWAP1 PUSH1 0x20 ADD DUP1 DUP4 GT PUSH2 0x670 JUMPI DUP3 SWAP1 SUB PUSH1 0x1F AND DUP3 ADD SWAP2 JUMPDEST POP POP POP POP POP SWAP1 POP SWAP1 JUMP JUMPDEST PUSH1 0x0 PUSH2 0x6A4 CALLER DUP5 DUP5 PUSH2 0xEE6 JUMP JUMPDEST POP PUSH1 0x1 SWAP3 SWAP2 POP POP JUMP JUMPDEST PUSH1 0x0 PUSH2 0x2710 ADDRESS PUSH1 0x1 PUSH1 0x1 PUSH1 0xA0 SHL SUB AND PUSH4 0x18160DDD PUSH1 0x40 MLOAD DUP2 PUSH4 0xFFFFFFFF AND PUSH1 0xE0 SHL DUP2 MSTORE PUSH1 0x4 ADD PUSH1 0x20 PUSH1 0x40 MLOAD DUP1 DUP4 SUB DUP2 DUP7 GAS STATICCALL ISZERO DUP1 ISZERO PUSH2 0x6F0 JUMPI RETURNDATASIZE PUSH1 0x0 DUP1 RETURNDATACOPY RETURNDATASIZE PUSH1 0x0 REVERT JUMPDEST POP POP POP POP PUSH1 0x40 MLOAD RETURNDATASIZE PUSH1 0x1F NOT PUSH1 0x1F DUP3 ADD AND DUP3 ADD DUP1 PUSH1 0x40 MSTORE POP DUP2 ADD SWAP1 PUSH2 0x714 SWAP2 SWAP1 PUSH2 0x19E4 JUMP JUMPDEST PUSH2 0x720 SWAP1 PUSH2 0x13EC PUSH2 0x1A13 JUMP JUMPDEST PUSH2 0x72A SWAP2 SWAP1 PUSH2 0x1A32 JUMP JUMPDEST PUSH1 0x40 MLOAD PUSH4 0x70A08231 PUSH1 0xE0 SHL DUP2 MSTORE ADDRESS SWAP1 PUSH4 0x70A08231 SWAP1 PUSH2 0x74D SWAP1 CALLER SWAP1 PUSH1 0x4 ADD PUSH2 0x1832 JUMP JUMPDEST PUSH1 0x20 PUSH1 0x40 MLOAD DUP1 DUP4 SUB DUP2 DUP7 GAS STATICCALL ISZERO DUP1 ISZERO PUSH2 0x76A JUMPI RETURNDATASIZE PUSH1 0x0 DUP1 RETURNDATACOPY RETURNDATASIZE PUSH1 0x0 REVERT JUMPDEST POP POP POP POP PUSH1 0x40 MLOAD RETURNDATASIZE PUSH1 0x1F NOT PUSH1 0x1F DUP3 ADD AND DUP3 ADD DUP1 PUSH1 0x40 MSTORE POP DUP2 ADD SWAP1 PUSH2 0x78E SWAP2 SWAP1 PUSH2 0x19E4 JUMP JUMPDEST LT ISZERO SWAP1 POP DUP1 PUSH2 0x79C JUMPI PUSH1 0x0 DUP1 REVERT JUMPDEST PUSH2 0x7A6 DUP4 DUP4 PUSH2 0xF6D JUMP JUMPDEST POP POP POP JUMP JUMPDEST PUSH1 0x0 PUSH2 0x7B8 DUP5 DUP5 DUP5 PUSH2 0xFF7 JUMP JUMPDEST PUSH1 0x1 PUSH1 0x1 PUSH1 0xA0 SHL SUB DUP5 AND PUSH1 0x0 SWAP1 DUP2 MSTORE PUSH1 0x1 PUSH1 0x20 SWAP1 DUP2 MSTORE PUSH1 0x40 DUP1 DUP4 KECCAK256 CALLER DUP5 MSTORE SWAP1 SWAP2 MSTORE SWAP1 KECCAK256 SLOAD DUP3 DUP2 LT ISZERO PUSH2 0x7E9 JUMPI PUSH1 0x0 DUP1 REVERT JUMPDEST PUSH2 0x7F6 DUP6 CALLER DUP6 DUP5 SUB PUSH2 0xEE6 JUMP JUMPDEST POP PUSH1 0x1 SWAP5 SWAP4 POP POP POP POP JUMP JUMPDEST PUSH2 0x809 PUSH2 0x11D2 JUMP JUMPDEST PUSH2 0x813 DUP3 DUP3 PUSH2 0x122C JUMP JUMPDEST POP POP JUMP JUMPDEST PUSH1 0xA DUP2 DUP2 SLOAD DUP2 LT PUSH2 0x827 JUMPI PUSH1 0x0 DUP1 REVERT JUMPDEST PUSH1 0x0 SWAP2 DUP3 MSTORE PUSH1 0x20 SWAP1 SWAP2 KECCAK256 ADD SLOAD PUSH1 0x1 PUSH1 0x1 PUSH1 0xA0 SHL SUB AND SWAP1 POP DUP2 JUMP JUMPDEST CALLER PUSH1 0x0 DUP2 DUP2 MSTORE PUSH1 0x1 PUSH1 0x20 SWAP1 DUP2 MSTORE PUSH1 0x40 DUP1 DUP4 KECCAK256 PUSH1 0x1 PUSH1 0x1 PUSH1 0xA0 SHL SUB DUP8 AND DUP5 MSTORE SWAP1 SWAP2 MSTORE DUP2 KECCAK256 SLOAD SWAP1 SWAP2 PUSH2 0x6A4 SWAP2 DUP6 SWAP1 PUSH2 0x878 SWAP1 DUP7 SWAP1 PUSH2 0x1A54 JUMP JUMPDEST PUSH2 0xEE6 JUMP JUMPDEST PUSH2 0x885 PUSH2 0x11D2 JUMP JUMPDEST PUSH2 0x88F PUSH1 0x0 PUSH2 0x12CD JUMP JUMPDEST JUMP JUMPDEST PUSH1 0x60 PUSH1 0x4 DUP1 SLOAD PUSH2 0x614 SWAP1 PUSH2 0x19AA JUMP JUMPDEST PUSH1 0x9 SLOAD PUSH1 0x1 PUSH1 0x1 PUSH1 0xA0 SHL SUB AND CALLER SUB PUSH2 0x813 JUMPI DUP2 MLOAD PUSH2 0x8C5 SWAP1 PUSH1 0x3 SWAP1 PUSH1 0x20 DUP6 ADD SWAP1 PUSH2 0x169F JUMP JUMPDEST POP DUP1 MLOAD PUSH2 0x7A6 SWAP1 PUSH1 0x4 SWAP1 PUSH1 0x20 DUP5 ADD SWAP1 PUSH2 0x169F JUMP JUMPDEST CALLER PUSH1 0x0 SWAP1 DUP2 MSTORE PUSH1 0x1 PUSH1 0x20 SWAP1 DUP2 MSTORE PUSH1 0x40 DUP1 DUP4 KECCAK256 PUSH1 0x1 PUSH1 0x1 PUSH1 0xA0 SHL SUB DUP7 AND DUP5 MSTORE SWAP1 SWAP2 MSTORE DUP2 KECCAK256 SLOAD DUP3 DUP2 LT ISZERO PUSH2 0x90A JUMPI PUSH1 0x0 DUP1 REVERT JUMPDEST PUSH2 0x5FB CALLER DUP6 DUP6 DUP5 SUB PUSH2 0xEE6 JUMP JUMPDEST PUSH1 0x8 SLOAD PUSH1 0x0 SWAP1 PUSH1 0x1 PUSH1 0x1 PUSH1 0xA0 SHL SUB AND CALLER PUSH1 0x1 PUSH1 0x1 PUSH1 0xA0 SHL SUB AND EQ DUP1 PUSH2 0x94F JUMPI POP PUSH1 0x9 SLOAD PUSH1 0x1 PUSH1 0x1 PUSH1 0xA0 SHL SUB AND CALLER PUSH1 0x1 PUSH1 0x1 PUSH1 0xA0 SHL SUB AND EQ JUMPDEST PUSH2 0x958 JUMPI PUSH1 0x0 DUP1 REVERT JUMPDEST PUSH1 0x40 MLOAD PUSH4 0x70A08231 PUSH1 0xE0 SHL DUP2 MSTORE PUSH1 0x1 PUSH1 0x1 PUSH1 0xA0 SHL SUB DUP6 AND SWAP1 PUSH4 0x70A08231 SWAP1 PUSH2 0x984 SWAP1 ADDRESS SWAP1 PUSH1 0x4 ADD PUSH2 0x1832 JUMP JUMPDEST PUSH1 0x20 PUSH1 0x40 MLOAD DUP1 DUP4 SUB DUP2 DUP7 GAS STATICCALL ISZERO DUP1 ISZERO PUSH2 0x9A1 JUMPI RETURNDATASIZE PUSH1 0x0 DUP1 RETURNDATACOPY RETURNDATASIZE PUSH1 0x0 REVERT JUMPDEST POP POP POP POP PUSH1 0x40 MLOAD RETURNDATASIZE PUSH1 0x1F NOT PUSH1 0x1F DUP3 ADD AND DUP3 ADD DUP1 PUSH1 0x40 MSTORE POP DUP2 ADD SWAP1 PUSH2 0x9C5 SWAP2 SWAP1 PUSH2 0x19E4 JUMP JUMPDEST DUP3 GT ISZERO PUSH2 0xA3C JUMPI PUSH1 0x40 MLOAD PUSH4 0x70A08231 PUSH1 0xE0 SHL DUP2 MSTORE PUSH1 0x1 PUSH1 0x1 PUSH1 0xA0 SHL SUB DUP6 AND SWAP1 PUSH4 0x70A08231 SWAP1 PUSH2 0x9F8 SWAP1 ADDRESS SWAP1 PUSH1 0x4 ADD PUSH2 0x1832 JUMP JUMPDEST PUSH1 0x20 PUSH1 0x40 MLOAD DUP1 DUP4 SUB DUP2 DUP7 GAS STATICCALL ISZERO DUP1 ISZERO PUSH2 0xA15 JUMPI RETURNDATASIZE PUSH1 0x0 DUP1 RETURNDATACOPY RETURNDATASIZE PUSH1 0x0 REVERT JUMPDEST POP POP POP POP PUSH1 0x40 MLOAD RETURNDATASIZE PUSH1 0x1F NOT PUSH1 0x1F DUP3 ADD AND DUP3 ADD DUP1 PUSH1 0x40 MSTORE POP DUP2 ADD SWAP1 PUSH2 0xA39 SWAP2 SWAP1 PUSH2 0x19E4 JUMP JUMPDEST SWAP2 POP JUMPDEST PUSH2 0x5FB PUSH1 0x1 PUSH1 0x1 PUSH1 0xA0 SHL SUB DUP6 AND DUP5 DUP5 PUSH2 0x131F JUMP JUMPDEST PUSH1 0x0 PUSH2 0x6A4 CALLER DUP5 DUP5 PUSH2 0xFF7 JUMP JUMPDEST PUSH1 0x4 DUP1 SLOAD PUSH2 0xA6A SWAP1 PUSH2 0x19AA JUMP JUMPDEST DUP1 PUSH1 0x1F ADD PUSH1 0x20 DUP1 SWAP2 DIV MUL PUSH1 0x20 ADD PUSH1 0x40 MLOAD SWAP1 DUP2 ADD PUSH1 0x40 MSTORE DUP1 SWAP3 SWAP2 SWAP1 DUP2 DUP2 MSTORE PUSH1 0x20 ADD DUP3 DUP1 SLOAD PUSH2 0xA96 SWAP1 PUSH2 0x19AA JUMP JUMPDEST DUP1 ISZERO PUSH2 0xAE3 JUMPI DUP1 PUSH1 0x1F LT PUSH2 0xAB8 JUMPI PUSH2 0x100 DUP1 DUP4 SLOAD DIV MUL DUP4 MSTORE SWAP2 PUSH1 0x20 ADD SWAP2 PUSH2 0xAE3 JUMP JUMPDEST DUP3 ADD SWAP2 SWAP1 PUSH1 0x0 MSTORE PUSH1 0x20 PUSH1 0x0 KECCAK256 SWAP1 JUMPDEST DUP2 SLOAD DUP2 MSTORE SWAP1 PUSH1 0x1 ADD SWAP1 PUSH1 0x20 ADD DUP1 DUP4 GT PUSH2 0xAC6 JUMPI DUP3 SWAP1 SUB PUSH1 0x1F AND DUP3 ADD SWAP2 JUMPDEST POP POP POP POP POP DUP2 JUMP JUMPDEST PUSH2 0xAF3 PUSH2 0x11D2 JUMP JUMPDEST PUSH2 0xAFD CALLER DUP3 PUSH2 0x122C JUMP JUMPDEST POP JUMP JUMPDEST PUSH1 0x3 DUP1 SLOAD PUSH2 0xA6A SWAP1 PUSH2 0x19AA JUMP JUMPDEST PUSH2 0xB15 PUSH2 0x11D2 JUMP JUMPDEST PUSH1 0x1 PUSH1 0x1 PUSH1 0xA0 SHL SUB DUP2 AND PUSH2 0xB7F JUMPI PUSH1 0x40 MLOAD PUSH3 0x461BCD PUSH1 0xE5 SHL DUP2 MSTORE PUSH1 0x20 PUSH1 0x4 DUP3 ADD MSTORE PUSH1 0x26 PUSH1 0x24 DUP3 ADD MSTORE PUSH32 0x4F776E61626C653A206E6577206F776E657220697320746865207A65726F2061 PUSH1 0x44 DUP3 ADD MSTORE PUSH6 0x646472657373 PUSH1 0xD0 SHL PUSH1 0x64 DUP3 ADD MSTORE PUSH1 0x84 ADD JUMPDEST PUSH1 0x40 MLOAD DUP1 SWAP2 SUB SWAP1 REVERT JUMPDEST PUSH2 0xAFD DUP2 PUSH2 0x12CD JUMP JUMPDEST PUSH1 0x9 SLOAD PUSH1 0x0 SWAP1 PUSH1 0x1 PUSH1 0x1 PUSH1 0xA0 SHL SUB DUP4 DUP2 AND SWAP2 AND EQ PUSH2 0xEDE JUMPI PUSH1 0x9 SLOAD PUSH1 0x1 PUSH1 0x1 PUSH1 0xA0 SHL SUB AND CALLER DUP2 SWAP1 SUB PUSH2 0xD21 JUMPI PUSH1 0x9 DUP1 SLOAD PUSH1 0x1 PUSH1 0x1 PUSH1 0xA0 SHL SUB DUP6 AND PUSH1 0x1 PUSH1 0x1 PUSH1 0xA0 SHL SUB NOT SWAP2 DUP3 AND DUP2 OR SWAP1 SWAP3 SSTORE PUSH1 0xA DUP1 SLOAD PUSH1 0x1 DUP2 ADD DUP3 SSTORE PUSH1 0x0 SWAP2 SWAP1 SWAP2 MSTORE PUSH32 0xC65A7BB8D6351C1CF70C95A316CC6A92839C986682D98BC35F958F4883F9D2A8 ADD DUP1 SLOAD SWAP1 SWAP2 AND SWAP1 SWAP2 OR SWAP1 SSTORE PUSH2 0xC1B TIMESTAMP PUSH2 0x258 PUSH2 0x1A54 JUMP JUMPDEST PUSH1 0xC SSTORE PUSH1 0x6 SLOAD PUSH1 0x40 DUP1 MLOAD PUSH4 0x18160DDD PUSH1 0xE0 SHL DUP2 MSTORE SWAP1 MLOAD PUSH2 0xC97 SWAP3 DUP7 SWAP3 PUSH1 0x1 PUSH1 0x1 PUSH1 0xA0 SHL SUB SWAP1 SWAP2 AND SWAP2 PUSH4 0x18160DDD SWAP2 PUSH1 0x4 DUP1 DUP3 ADD SWAP3 PUSH1 0x20 SWAP3 SWAP1 SWAP2 SWAP1 DUP3 SWAP1 SUB ADD DUP2 DUP7 GAS STATICCALL ISZERO DUP1 ISZERO PUSH2 0xC6E JUMPI RETURNDATASIZE PUSH1 0x0 DUP1 RETURNDATACOPY RETURNDATASIZE PUSH1 0x0 REVERT JUMPDEST POP POP POP POP PUSH1 0x40 MLOAD RETURNDATASIZE PUSH1 0x1F NOT PUSH1 0x1F DUP3 ADD AND DUP3 ADD DUP1 PUSH1 0x40 MSTORE POP DUP2 ADD SWAP1 PUSH2 0xC92 SWAP2 SWAP1 PUSH2 0x19E4 JUMP JUMPDEST PUSH2 0xF6D JUMP JUMPDEST PUSH2 0xCA0 DUP4 PUSH2 0xB0D JUMP JUMPDEST PUSH1 0x6 SLOAD PUSH1 0x40 MLOAD PUSH4 0x70A08231 PUSH1 0xE0 SHL DUP2 MSTORE PUSH2 0xD1C SWAP2 DUP4 SWAP2 PUSH1 0x1 PUSH1 0x1 PUSH1 0xA0 SHL SUB SWAP1 SWAP2 AND SWAP1 PUSH4 0x70A08231 SWAP1 PUSH2 0xCD6 SWAP1 DUP5 SWAP1 PUSH1 0x4 ADD PUSH2 0x1832 JUMP JUMPDEST PUSH1 0x20 PUSH1 0x40 MLOAD DUP1 DUP4 SUB DUP2 DUP7 GAS STATICCALL ISZERO DUP1 ISZERO PUSH2 0xCF3 JUMPI RETURNDATASIZE PUSH1 0x0 DUP1 RETURNDATACOPY RETURNDATASIZE PUSH1 0x0 REVERT JUMPDEST POP POP POP POP PUSH1 0x40 MLOAD RETURNDATASIZE PUSH1 0x1F NOT PUSH1 0x1F DUP3 ADD AND DUP3 ADD DUP1 PUSH1 0x40 MSTORE POP DUP2 ADD SWAP1 PUSH2 0xD17 SWAP2 SWAP1 PUSH2 0x19E4 JUMP JUMPDEST PUSH2 0x122C JUMP JUMPDEST PUSH2 0xE9C JUMP JUMPDEST PUSH2 0x2710 PUSH2 0x13EC PUSH1 0x6 PUSH1 0x0 SWAP1 SLOAD SWAP1 PUSH2 0x100 EXP SWAP1 DIV PUSH1 0x1 PUSH1 0x1 PUSH1 0xA0 SHL SUB AND PUSH1 0x1 PUSH1 0x1 PUSH1 0xA0 SHL SUB AND PUSH4 0x18160DDD PUSH1 0x40 MLOAD DUP2 PUSH4 0xFFFFFFFF AND PUSH1 0xE0 SHL DUP2 MSTORE PUSH1 0x4 ADD PUSH1 0x20 PUSH1 0x40 MLOAD DUP1 DUP4 SUB DUP2 DUP7 GAS STATICCALL ISZERO DUP1 ISZERO PUSH2 0xD7A JUMPI RETURNDATASIZE PUSH1 0x0 DUP1 RETURNDATACOPY RETURNDATASIZE PUSH1 0x0 REVERT JUMPDEST POP POP POP POP PUSH1 0x40 MLOAD RETURNDATASIZE PUSH1 0x1F NOT PUSH1 0x1F DUP3 ADD AND DUP3 ADD DUP1 PUSH1 0x40 MSTORE POP DUP2 ADD SWAP1 PUSH2 0xD9E SWAP2 SWAP1 PUSH2 0x19E4 JUMP JUMPDEST PUSH2 0xDA8 SWAP2 SWAP1 PUSH2 0x1A13 JUMP JUMPDEST PUSH2 0xDB2 SWAP2 SWAP1 PUSH2 0x1A32 JUMP JUMPDEST PUSH1 0x6 SLOAD PUSH1 0x40 MLOAD PUSH4 0x70A08231 PUSH1 0xE0 SHL DUP2 MSTORE PUSH1 0x1 PUSH1 0x1 PUSH1 0xA0 SHL SUB SWAP1 SWAP2 AND SWAP1 PUSH4 0x70A08231 SWAP1 PUSH2 0xDE2 SWAP1 DUP8 SWAP1 PUSH1 0x4 ADD PUSH2 0x1832 JUMP JUMPDEST PUSH1 0x20 PUSH1 0x40 MLOAD DUP1 DUP4 SUB DUP2 DUP7 GAS STATICCALL ISZERO DUP1 ISZERO PUSH2 0xDFF JUMPI RETURNDATASIZE PUSH1 0x0 DUP1 RETURNDATACOPY RETURNDATASIZE PUSH1 0x0 REVERT JUMPDEST POP POP POP POP PUSH1 0x40 MLOAD RETURNDATASIZE PUSH1 0x1F NOT PUSH1 0x1F DUP3 ADD AND DUP3 ADD DUP1 PUSH1 0x40 MSTORE POP DUP2 ADD SWAP1 PUSH2 0xE23 SWAP2 SWAP1 PUSH2 0x19E4 JUMP JUMPDEST LT PUSH2 0xE9C JUMPI PUSH1 0x9 DUP1 SLOAD PUSH1 0x1 PUSH1 0x1 PUSH1 0xA0 SHL SUB DUP6 AND PUSH1 0x1 PUSH1 0x1 PUSH1 0xA0 SHL SUB NOT SWAP2 DUP3 AND DUP2 OR SWAP1 SWAP3 SSTORE PUSH1 0xA DUP1 SLOAD PUSH1 0x1 DUP2 ADD DUP3 SSTORE PUSH1 0x0 SWAP2 SWAP1 SWAP2 MSTORE PUSH32 0xC65A7BB8D6351C1CF70C95A316CC6A92839C986682D98BC35F958F4883F9D2A8 ADD DUP1 SLOAD SWAP1 SWAP2 AND SWAP1 SWAP2 OR SWAP1 SSTORE PUSH2 0xE90 TIMESTAMP PUSH3 0x15180 PUSH2 0x1A54 JUMP JUMPDEST PUSH1 0xC SSTORE PUSH2 0xE9C DUP4 PUSH2 0xB0D JUMP JUMPDEST DUP3 PUSH1 0x1 PUSH1 0x1 PUSH1 0xA0 SHL SUB AND DUP2 PUSH1 0x1 PUSH1 0x1 PUSH1 0xA0 SHL SUB AND PUSH32 0x63DB4FD02ABE7291D8F941514C494426E598A36D386FAFA477735F923D30C83E PUSH1 0x40 MLOAD PUSH1 0x40 MLOAD DUP1 SWAP2 SUB SWAP1 LOG3 POP JUMPDEST POP PUSH1 0x1 SWAP2 SWAP1 POP JUMP JUMPDEST PUSH1 0x1 PUSH1 0x1 PUSH1 0xA0 SHL SUB DUP4 AND PUSH2 0xEF9 JUMPI PUSH1 0x0 DUP1 REVERT JUMPDEST PUSH1 0x1 PUSH1 0x1 PUSH1 0xA0 SHL SUB DUP3 AND PUSH2 0xF0C JUMPI PUSH1 0x0 DUP1 REVERT JUMPDEST PUSH1 0x1 PUSH1 0x1 PUSH1 0xA0 SHL SUB DUP4 DUP2 AND PUSH1 0x0 DUP2 DUP2 MSTORE PUSH1 0x1 PUSH1 0x20 SWAP1 DUP2 MSTORE PUSH1 0x40 DUP1 DUP4 KECCAK256 SWAP5 DUP8 AND DUP1 DUP5 MSTORE SWAP5 DUP3 MSTORE SWAP2 DUP3 SWAP1 KECCAK256 DUP6 SWAP1 SSTORE SWAP1 MLOAD DUP5 DUP2 MSTORE PUSH32 0x8C5BE1E5EBEC7D5BD14F71427D1E84F3DD0314C0F7B2291E5B200AC8C7C3B925 SWAP2 ADD PUSH1 0x40 MLOAD DUP1 SWAP2 SUB SWAP1 LOG3 POP POP POP JUMP JUMPDEST PUSH1 0x1 PUSH1 0x1 PUSH1 0xA0 SHL SUB DUP3 AND PUSH2 0xF80 JUMPI PUSH1 0x0 DUP1 REVERT JUMPDEST DUP1 PUSH1 0x2 PUSH1 0x0 DUP3 DUP3 SLOAD PUSH2 0xF92 SWAP2 SWAP1 PUSH2 0x1A54 JUMP JUMPDEST SWAP1 SWAP2 SSTORE POP POP PUSH1 0x1 PUSH1 0x1 PUSH1 0xA0 SHL SUB DUP3 AND PUSH1 0x0 SWAP1 DUP2 MSTORE PUSH1 0x20 DUP2 SWAP1 MSTORE PUSH1 0x40 DUP2 KECCAK256 DUP1 SLOAD DUP4 SWAP3 SWAP1 PUSH2 0xFBF SWAP1 DUP5 SWAP1 PUSH2 0x1A54 JUMP JUMPDEST SWAP1 SWAP2 SSTORE POP POP PUSH1 0x40 MLOAD DUP2 DUP2 MSTORE PUSH1 0x1 PUSH1 0x1 PUSH1 0xA0 SHL SUB DUP4 AND SWAP1 PUSH1 0x0 SWAP1 PUSH1 0x0 DUP1 MLOAD PUSH1 0x20 PUSH2 0x1AF1 DUP4 CODECOPY DUP2 MLOAD SWAP2 MSTORE SWAP1 PUSH1 0x20 ADD PUSH1 0x40 MLOAD DUP1 SWAP2 SUB SWAP1 LOG3 POP POP JUMP JUMPDEST PUSH1 0x0 JUMPDEST PUSH1 0xA SLOAD DUP2 LT ISZERO PUSH2 0x11C6 JUMPI PUSH2 0x2710 PUSH2 0x13EC PUSH1 0x6 PUSH1 0x0 SWAP1 SLOAD SWAP1 PUSH2 0x100 EXP SWAP1 DIV PUSH1 0x1 PUSH1 0x1 PUSH1 0xA0 SHL SUB AND PUSH1 0x1 PUSH1 0x1 PUSH1 0xA0 SHL SUB AND PUSH4 0x18160DDD PUSH1 0x40 MLOAD DUP2 PUSH4 0xFFFFFFFF AND PUSH1 0xE0 SHL DUP2 MSTORE PUSH1 0x4 ADD PUSH1 0x20 PUSH1 0x40 MLOAD DUP1 DUP4 SUB DUP2 DUP7 GAS STATICCALL ISZERO DUP1 ISZERO PUSH2 0x105D JUMPI RETURNDATASIZE PUSH1 0x0 DUP1 RETURNDATACOPY RETURNDATASIZE PUSH1 0x0 REVERT JUMPDEST POP POP POP POP PUSH1 0x40 MLOAD RETURNDATASIZE PUSH1 0x1F NOT PUSH1 0x1F DUP3 ADD AND DUP3 ADD DUP1 PUSH1 0x40 MSTORE POP DUP2 ADD SWAP1 PUSH2 0x1081 SWAP2 SWAP1 PUSH2 0x19E4 JUMP JUMPDEST PUSH2 0x108B SWAP2 SWAP1 PUSH2 0x1A13 JUMP JUMPDEST PUSH2 0x1095 SWAP2 SWAP1 PUSH2 0x1A32 JUMP JUMPDEST PUSH1 0x6 SLOAD PUSH1 0xA DUP1 SLOAD PUSH1 0x1 PUSH1 0x1 PUSH1 0xA0 SHL SUB SWAP1 SWAP3 AND SWAP2 PUSH4 0x70A08231 SWAP2 SWAP1 DUP6 SWAP1 DUP2 LT PUSH2 0x10BF JUMPI PUSH2 0x10BF PUSH2 0x1A6C JUMP JUMPDEST PUSH1 0x0 SWAP2 DUP3 MSTORE PUSH1 0x20 SWAP1 SWAP2 KECCAK256 ADD SLOAD PUSH1 0x40 MLOAD PUSH1 0x1 PUSH1 0x1 PUSH1 0xE0 SHL SUB NOT PUSH1 0xE0 DUP5 SWAP1 SHL AND DUP2 MSTORE PUSH2 0x10F5 SWAP2 PUSH1 0x1 PUSH1 0x1 PUSH1 0xA0 SHL SUB AND SWAP1 PUSH1 0x4 ADD PUSH2 0x1832 JUMP JUMPDEST PUSH1 0x20 PUSH1 0x40 MLOAD DUP1 DUP4 SUB DUP2 DUP7 GAS STATICCALL ISZERO DUP1 ISZERO PUSH2 0x1112 JUMPI RETURNDATASIZE PUSH1 0x0 DUP1 RETURNDATACOPY RETURNDATASIZE PUSH1 0x0 REVERT JUMPDEST POP POP POP POP PUSH1 0x40 MLOAD RETURNDATASIZE PUSH1 0x1F NOT PUSH1 0x1F DUP3 ADD AND DUP3 ADD DUP1 PUSH1 0x40 MSTORE POP DUP2 ADD SWAP1 PUSH2 0x1136 SWAP2 SWAP1 PUSH2 0x19E4 JUMP JUMPDEST LT PUSH2 0x11B4 JUMPI PUSH1 0x9 SLOAD PUSH1 0xA DUP1 SLOAD PUSH1 0x1 PUSH1 0x1 PUSH1 0xA0 SHL SUB SWAP1 SWAP3 AND SWAP2 DUP4 SWAP1 DUP2 LT PUSH2 0x115E JUMPI PUSH2 0x115E PUSH2 0x1A6C JUMP JUMPDEST PUSH1 0x0 SWAP2 DUP3 MSTORE PUSH1 0x20 SWAP1 SWAP2 KECCAK256 ADD SLOAD PUSH1 0x1 PUSH1 0x1 PUSH1 0xA0 SHL SUB AND EQ PUSH2 0x11B4 JUMPI PUSH1 0xC SLOAD TIMESTAMP GT ISZERO PUSH2 0x11B4 JUMPI PUSH2 0x11B2 PUSH1 0xA DUP3 DUP2 SLOAD DUP2 LT PUSH2 0x1198 JUMPI PUSH2 0x1198 PUSH2 0x1A6C JUMP JUMPDEST PUSH1 0x0 SWAP2 DUP3 MSTORE PUSH1 0x20 SWAP1 SWAP2 KECCAK256 ADD SLOAD PUSH1 0x1 PUSH1 0x1 PUSH1 0xA0 SHL SUB AND PUSH2 0xB88 JUMP JUMPDEST POP JUMPDEST DUP1 PUSH2 0x11BE DUP2 PUSH2 0x1A82 JUMP JUMPDEST SWAP2 POP POP PUSH2 0xFFA JUMP JUMPDEST POP PUSH2 0x7A6 DUP4 DUP4 DUP4 PUSH2 0x1371 JUMP JUMPDEST PUSH1 0x5 SLOAD PUSH1 0x1 PUSH1 0x1 PUSH1 0xA0 SHL SUB AND CALLER EQ PUSH2 0x88F JUMPI PUSH1 0x40 MLOAD PUSH3 0x461BCD PUSH1 0xE5 SHL DUP2 MSTORE PUSH1 0x20 PUSH1 0x4 DUP3 ADD DUP2 SWAP1 MSTORE PUSH1 0x24 DUP3 ADD MSTORE PUSH32 0x4F776E61626C653A2063616C6C6572206973206E6F7420746865206F776E6572 PUSH1 0x44 DUP3 ADD MSTORE PUSH1 0x64 ADD PUSH2 0xB76 JUMP JUMPDEST PUSH1 0x1 PUSH1 0x1 PUSH1 0xA0 SHL SUB DUP3 AND PUSH2 0x123F JUMPI PUSH1 0x0 DUP1 REVERT JUMPDEST PUSH1 0x1 PUSH1 0x1 PUSH1 0xA0 SHL SUB DUP3 AND PUSH1 0x0 SWAP1 DUP2 MSTORE PUSH1 0x20 DUP2 SWAP1 MSTORE PUSH1 0x40 SWAP1 KECCAK256 SLOAD DUP2 DUP2 LT ISZERO PUSH2 0x1265 JUMPI PUSH1 0x0 DUP1 REVERT JUMPDEST PUSH1 0x1 PUSH1 0x1 PUSH1 0xA0 SHL SUB DUP4 AND PUSH1 0x0 SWAP1 DUP2 MSTORE PUSH1 0x20 DUP2 SWAP1 MSTORE PUSH1 0x40 DUP2 KECCAK256 DUP4 DUP4 SUB SWAP1 SSTORE PUSH1 0x2 DUP1 SLOAD DUP5 SWAP3 SWAP1 PUSH2 0x1294 SWAP1 DUP5 SWAP1 PUSH2 0x1A9B JUMP JUMPDEST SWAP1 SWAP2 SSTORE POP POP PUSH1 0x40 MLOAD DUP3 DUP2 MSTORE PUSH1 0x0 SWAP1 PUSH1 0x1 PUSH1 0x1 PUSH1 0xA0 SHL SUB DUP6 AND SWAP1 PUSH1 0x0 DUP1 MLOAD PUSH1 0x20 PUSH2 0x1AF1 DUP4 CODECOPY DUP2 MLOAD SWAP2 MSTORE SWAP1 PUSH1 0x20 ADD PUSH1 0x40 MLOAD DUP1 SWAP2 SUB SWAP1 LOG3 POP POP POP JUMP JUMPDEST PUSH1 0x5 DUP1 SLOAD PUSH1 0x1 PUSH1 0x1 PUSH1 0xA0 SHL SUB DUP4 DUP2 AND PUSH1 0x1 PUSH1 0x1 PUSH1 0xA0 SHL SUB NOT DUP4 AND DUP2 OR SWAP1 SWAP4 SSTORE PUSH1 0x40 MLOAD SWAP2 AND SWAP2 SWAP1 DUP3 SWAP1 PUSH32 0x8BE0079C531659141344CD1FD0A4F28419497F9722A3DAAFE3B4186F6B6457E0 SWAP1 PUSH1 0x0 SWAP1 LOG3 POP POP JUMP JUMPDEST PUSH1 0x40 DUP1 MLOAD PUSH1 0x1 PUSH1 0x1 PUSH1 0xA0 SHL SUB DUP5 AND PUSH1 0x24 DUP3 ADD MSTORE PUSH1 0x44 DUP1 DUP3 ADD DUP5 SWAP1 MSTORE DUP3 MLOAD DUP1 DUP4 SUB SWAP1 SWAP2 ADD DUP2 MSTORE PUSH1 0x64 SWAP1 SWAP2 ADD SWAP1 SWAP2 MSTORE PUSH1 0x20 DUP2 ADD DUP1 MLOAD PUSH1 0x1 PUSH1 0x1 PUSH1 0xE0 SHL SUB AND PUSH4 0xA9059CBB PUSH1 0xE0 SHL OR SWAP1 MSTORE PUSH2 0x7A6 SWAP1 DUP5 SWAP1 PUSH2 0x143D JUMP JUMPDEST PUSH1 0x1 PUSH1 0x1 PUSH1 0xA0 SHL SUB DUP4 AND PUSH2 0x1384 JUMPI PUSH1 0x0 DUP1 REVERT JUMPDEST PUSH1 0x1 PUSH1 0x1 PUSH1 0xA0 SHL SUB DUP3 AND PUSH2 0x1397 JUMPI PUSH1 0x0 DUP1 REVERT JUMPDEST PUSH1 0x1 PUSH1 0x1 PUSH1 0xA0 SHL SUB DUP4 AND PUSH1 0x0 SWAP1 DUP2 MSTORE PUSH1 0x20 DUP2 SWAP1 MSTORE PUSH1 0x40 SWAP1 KECCAK256 SLOAD DUP2 DUP2 LT ISZERO PUSH2 0x13BD JUMPI PUSH1 0x0 DUP1 REVERT JUMPDEST PUSH1 0x1 PUSH1 0x1 PUSH1 0xA0 SHL SUB DUP1 DUP6 AND PUSH1 0x0 SWAP1 DUP2 MSTORE PUSH1 0x20 DUP2 SWAP1 MSTORE PUSH1 0x40 DUP1 DUP3 KECCAK256 DUP6 DUP6 SUB SWAP1 SSTORE SWAP2 DUP6 AND DUP2 MSTORE SWAP1 DUP2 KECCAK256 DUP1 SLOAD DUP5 SWAP3 SWAP1 PUSH2 0x13F4 SWAP1 DUP5 SWAP1 PUSH2 0x1A54 JUMP JUMPDEST SWAP3 POP POP DUP2 SWAP1 SSTORE POP DUP3 PUSH1 0x1 PUSH1 0x1 PUSH1 0xA0 SHL SUB AND DUP5 PUSH1 0x1 PUSH1 0x1 PUSH1 0xA0 SHL SUB AND PUSH1 0x0 DUP1 MLOAD PUSH1 0x20 PUSH2 0x1AF1 DUP4 CODECOPY DUP2 MLOAD SWAP2 MSTORE DUP5 PUSH1 0x40 MLOAD PUSH2 0x142E SWAP2 DUP2 MSTORE PUSH1 0x20 ADD SWAP1 JUMP JUMPDEST PUSH1 0x40 MLOAD DUP1 SWAP2 SUB SWAP1 LOG3 JUMPDEST POP POP POP POP JUMP JUMPDEST PUSH1 0x0 PUSH2 0x1492 DUP3 PUSH1 0x40 MLOAD DUP1 PUSH1 0x40 ADD PUSH1 0x40 MSTORE DUP1 PUSH1 0x20 DUP2 MSTORE PUSH1 0x20 ADD PUSH32 0x5361666545524332303A206C6F772D6C6576656C2063616C6C206661696C6564 DUP2 MSTORE POP DUP6 PUSH1 0x1 PUSH1 0x1 PUSH1 0xA0 SHL SUB AND PUSH2 0x150F SWAP1 SWAP3 SWAP2 SWAP1 PUSH4 0xFFFFFFFF AND JUMP JUMPDEST DUP1 MLOAD SWAP1 SWAP2 POP ISZERO PUSH2 0x7A6 JUMPI DUP1 DUP1 PUSH1 0x20 ADD SWAP1 MLOAD DUP2 ADD SWAP1 PUSH2 0x14B0 SWAP2 SWAP1 PUSH2 0x1AB2 JUMP JUMPDEST PUSH2 0x7A6 JUMPI PUSH1 0x40 MLOAD PUSH3 0x461BCD PUSH1 0xE5 SHL DUP2 MSTORE PUSH1 0x20 PUSH1 0x4 DUP3 ADD MSTORE PUSH1 0x2A PUSH1 0x24 DUP3 ADD MSTORE PUSH32 0x5361666545524332303A204552433230206F7065726174696F6E20646964206E PUSH1 0x44 DUP3 ADD MSTORE PUSH10 0x1BDD081CDD58D8D95959 PUSH1 0xB2 SHL PUSH1 0x64 DUP3 ADD MSTORE PUSH1 0x84 ADD PUSH2 0xB76 JUMP JUMPDEST PUSH1 0x60 PUSH2 0x151E DUP5 DUP5 PUSH1 0x0 DUP6 PUSH2 0x1526 JUMP JUMPDEST SWAP5 SWAP4 POP POP POP POP JUMP JUMPDEST PUSH1 0x60 DUP3 SELFBALANCE LT ISZERO PUSH2 0x1587 JUMPI PUSH1 0x40 MLOAD PUSH3 0x461BCD PUSH1 0xE5 SHL DUP2 MSTORE PUSH1 0x20 PUSH1 0x4 DUP3 ADD MSTORE PUSH1 0x26 PUSH1 0x24 DUP3 ADD MSTORE PUSH32 0x416464726573733A20696E73756666696369656E742062616C616E636520666F PUSH1 0x44 DUP3 ADD MSTORE PUSH6 0x1C8818D85B1B PUSH1 0xD2 SHL PUSH1 0x64 DUP3 ADD MSTORE PUSH1 0x84 ADD PUSH2 0xB76 JUMP JUMPDEST PUSH1 0x0 DUP1 DUP7 PUSH1 0x1 PUSH1 0x1 PUSH1 0xA0 SHL SUB AND DUP6 DUP8 PUSH1 0x40 MLOAD PUSH2 0x15A3 SWAP2 SWAP1 PUSH2 0x1AD4 JUMP JUMPDEST PUSH1 0x0 PUSH1 0x40 MLOAD DUP1 DUP4 SUB DUP2 DUP6 DUP8 GAS CALL SWAP3 POP POP POP RETURNDATASIZE DUP1 PUSH1 0x0 DUP2 EQ PUSH2 0x15E0 JUMPI PUSH1 0x40 MLOAD SWAP2 POP PUSH1 0x1F NOT PUSH1 0x3F RETURNDATASIZE ADD AND DUP3 ADD PUSH1 0x40 MSTORE RETURNDATASIZE DUP3 MSTORE RETURNDATASIZE PUSH1 0x0 PUSH1 0x20 DUP5 ADD RETURNDATACOPY PUSH2 0x15E5 JUMP JUMPDEST PUSH1 0x60 SWAP2 POP JUMPDEST POP SWAP2 POP SWAP2 POP PUSH2 0x15F6 DUP8 DUP4 DUP4 DUP8 PUSH2 0x1601 JUMP JUMPDEST SWAP8 SWAP7 POP POP POP POP POP POP POP JUMP JUMPDEST PUSH1 0x60 DUP4 ISZERO PUSH2 0x1670 JUMPI DUP3 MLOAD PUSH1 0x0 SUB PUSH2 0x1669 JUMPI PUSH1 0x1 PUSH1 0x1 PUSH1 0xA0 SHL SUB DUP6 AND EXTCODESIZE PUSH2 0x1669 JUMPI PUSH1 0x40 MLOAD PUSH3 0x461BCD PUSH1 0xE5 SHL DUP2 MSTORE PUSH1 0x20 PUSH1 0x4 DUP3 ADD MSTORE PUSH1 0x1D PUSH1 0x24 DUP3 ADD MSTORE PUSH32 0x416464726573733A2063616C6C20746F206E6F6E2D636F6E7472616374000000 PUSH1 0x44 DUP3 ADD MSTORE PUSH1 0x64 ADD PUSH2 0xB76 JUMP JUMPDEST POP DUP2 PUSH2 0x151E JUMP JUMPDEST PUSH2 0x151E DUP4 DUP4 DUP2 MLOAD ISZERO PUSH2 0x1685 JUMPI DUP2 MLOAD DUP1 DUP4 PUSH1 0x20 ADD REVERT JUMPDEST DUP1 PUSH1 0x40 MLOAD PUSH3 0x461BCD PUSH1 0xE5 SHL DUP2 MSTORE PUSH1 0x4 ADD PUSH2 0xB76 SWAP2 SWAP1 PUSH2 0x17A5 JUMP JUMPDEST DUP3 DUP1 SLOAD PUSH2 0x16AB SWAP1 PUSH2 0x19AA JUMP JUMPDEST SWAP1 PUSH1 0x0 MSTORE PUSH1 0x20 PUSH1 0x0 KECCAK256 SWAP1 PUSH1 0x1F ADD PUSH1 0x20 SWAP1 DIV DUP2 ADD SWAP3 DUP3 PUSH2 0x16CD JUMPI PUSH1 0x0 DUP6 SSTORE PUSH2 0x1713 JUMP JUMPDEST DUP3 PUSH1 0x1F LT PUSH2 0x16E6 JUMPI DUP1 MLOAD PUSH1 0xFF NOT AND DUP4 DUP1 ADD OR DUP6 SSTORE PUSH2 0x1713 JUMP JUMPDEST DUP3 DUP1 ADD PUSH1 0x1 ADD DUP6 SSTORE DUP3 ISZERO PUSH2 0x1713 JUMPI SWAP2 DUP3 ADD JUMPDEST DUP3 DUP2 GT ISZERO PUSH2 0x1713 JUMPI DUP3 MLOAD DUP3 SSTORE SWAP2 PUSH1 0x20 ADD SWAP2 SWAP1 PUSH1 0x1 ADD SWAP1 PUSH2 0x16F8 JUMP JUMPDEST POP PUSH2 0x171F SWAP3 SWAP2 POP PUSH2 0x1723 JUMP JUMPDEST POP SWAP1 JUMP JUMPDEST JUMPDEST DUP1 DUP3 GT ISZERO PUSH2 0x171F JUMPI PUSH1 0x0 DUP2 SSTORE PUSH1 0x1 ADD PUSH2 0x1724 JUMP JUMPDEST PUSH1 0x1 PUSH1 0x1 PUSH1 0xA0 SHL SUB DUP2 AND DUP2 EQ PUSH2 0xAFD JUMPI PUSH1 0x0 DUP1 REVERT JUMPDEST PUSH1 0x0 DUP1 PUSH1 0x40 DUP4 DUP6 SUB SLT ISZERO PUSH2 0x1760 JUMPI PUSH1 0x0 DUP1 REVERT JUMPDEST DUP3 CALLDATALOAD PUSH2 0x176B DUP2 PUSH2 0x1738 JUMP JUMPDEST SWAP5 PUSH1 0x20 SWAP4 SWAP1 SWAP4 ADD CALLDATALOAD SWAP4 POP POP POP JUMP JUMPDEST PUSH1 0x0 JUMPDEST DUP4 DUP2 LT ISZERO PUSH2 0x1794 JUMPI DUP2 DUP2 ADD MLOAD DUP4 DUP3 ADD MSTORE PUSH1 0x20 ADD PUSH2 0x177C JUMP JUMPDEST DUP4 DUP2 GT ISZERO PUSH2 0x1437 JUMPI POP POP PUSH1 0x0 SWAP2 ADD MSTORE JUMP JUMPDEST PUSH1 0x20 DUP2 MSTORE PUSH1 0x0 DUP3 MLOAD DUP1 PUSH1 0x20 DUP5 ADD MSTORE PUSH2 0x17C4 DUP2 PUSH1 0x40 DUP6 ADD PUSH1 0x20 DUP8 ADD PUSH2 0x1779 JUMP JUMPDEST PUSH1 0x1F ADD PUSH1 0x1F NOT AND SWAP2 SWAP1 SWAP2 ADD PUSH1 0x40 ADD SWAP3 SWAP2 POP POP JUMP JUMPDEST PUSH1 0x0 DUP1 PUSH1 0x0 PUSH1 0x60 DUP5 DUP7 SUB SLT ISZERO PUSH2 0x17ED JUMPI PUSH1 0x0 DUP1 REVERT JUMPDEST DUP4 CALLDATALOAD PUSH2 0x17F8 DUP2 PUSH2 0x1738 JUMP JUMPDEST SWAP3 POP PUSH1 0x20 DUP5 ADD CALLDATALOAD PUSH2 0x1808 DUP2 PUSH2 0x1738 JUMP JUMPDEST SWAP3 SWAP6 SWAP3 SWAP5 POP POP POP PUSH1 0x40 SWAP2 SWAP1 SWAP2 ADD CALLDATALOAD SWAP1 JUMP JUMPDEST PUSH1 0x0 PUSH1 0x20 DUP3 DUP5 SUB SLT ISZERO PUSH2 0x182B JUMPI PUSH1 0x0 DUP1 REVERT JUMPDEST POP CALLDATALOAD SWAP2 SWAP1 POP JUMP JUMPDEST PUSH1 0x1 PUSH1 0x1 PUSH1 0xA0 SHL SUB SWAP2 SWAP1 SWAP2 AND DUP2 MSTORE PUSH1 0x20 ADD SWAP1 JUMP JUMPDEST PUSH1 0x0 PUSH1 0x20 DUP3 DUP5 SUB SLT ISZERO PUSH2 0x1858 JUMPI PUSH1 0x0 DUP1 REVERT JUMPDEST DUP2 CALLDATALOAD PUSH2 0x1863 DUP2 PUSH2 0x1738 JUMP JUMPDEST SWAP4 SWAP3 POP POP POP JUMP JUMPDEST PUSH4 0x4E487B71 PUSH1 0xE0 SHL PUSH1 0x0 MSTORE PUSH1 0x41 PUSH1 0x4 MSTORE PUSH1 0x24 PUSH1 0x0 REVERT JUMPDEST PUSH1 0x0 DUP3 PUSH1 0x1F DUP4 ADD SLT PUSH2 0x1891 JUMPI PUSH1 0x0 DUP1 REVERT JUMPDEST DUP2 CALLDATALOAD PUSH8 0xFFFFFFFFFFFFFFFF DUP1 DUP3 GT ISZERO PUSH2 0x18AC JUMPI PUSH2 0x18AC PUSH2 0x186A JUMP JUMPDEST PUSH1 0x40 MLOAD PUSH1 0x1F DUP4 ADD PUSH1 0x1F NOT SWAP1 DUP2 AND PUSH1 0x3F ADD AND DUP2 ADD SWAP1 DUP3 DUP3 GT DUP2 DUP4 LT OR ISZERO PUSH2 0x18D4 JUMPI PUSH2 0x18D4 PUSH2 0x186A JUMP JUMPDEST DUP2 PUSH1 0x40 MSTORE DUP4 DUP2 MSTORE DUP7 PUSH1 0x20 DUP6 DUP9 ADD ADD GT ISZERO PUSH2 0x18ED JUMPI PUSH1 0x0 DUP1 REVERT JUMPDEST DUP4 PUSH1 0x20 DUP8 ADD PUSH1 0x20 DUP4 ADD CALLDATACOPY PUSH1 0x0 PUSH1 0x20 DUP6 DUP4 ADD ADD MSTORE DUP1 SWAP5 POP POP POP POP POP SWAP3 SWAP2 POP POP JUMP JUMPDEST PUSH1 0x0 DUP1 PUSH1 0x40 DUP4 DUP6 SUB SLT ISZERO PUSH2 0x1920 JUMPI PUSH1 0x0 DUP1 REVERT JUMPDEST DUP3 CALLDATALOAD PUSH8 0xFFFFFFFFFFFFFFFF DUP1 DUP3 GT ISZERO PUSH2 0x1938 JUMPI PUSH1 0x0 DUP1 REVERT JUMPDEST PUSH2 0x1944 DUP7 DUP4 DUP8 ADD PUSH2 0x1880 JUMP JUMPDEST SWAP4 POP PUSH1 0x20 DUP6 ADD CALLDATALOAD SWAP2 POP DUP1 DUP3 GT ISZERO PUSH2 0x195A JUMPI PUSH1 0x0 DUP1 REVERT JUMPDEST POP PUSH2 0x1967 DUP6 DUP3 DUP7 ADD PUSH2 0x1880 JUMP JUMPDEST SWAP2 POP POP SWAP3 POP SWAP3 SWAP1 POP JUMP JUMPDEST PUSH1 0x0 DUP1 PUSH1 0x40 DUP4 DUP6 SUB SLT ISZERO PUSH2 0x1984 JUMPI PUSH1 0x0 DUP1 REVERT JUMPDEST DUP3 CALLDATALOAD PUSH2 0x198F DUP2 PUSH2 0x1738 JUMP JUMPDEST SWAP2 POP PUSH1 0x20 DUP4 ADD CALLDATALOAD PUSH2 0x199F DUP2 PUSH2 0x1738 JUMP JUMPDEST DUP1 SWAP2 POP POP SWAP3 POP SWAP3 SWAP1 POP JUMP JUMPDEST PUSH1 0x1 DUP2 DUP2 SHR SWAP1 DUP3 AND DUP1 PUSH2 0x19BE JUMPI PUSH1 0x7F DUP3 AND SWAP2 POP JUMPDEST PUSH1 0x20 DUP3 LT DUP2 SUB PUSH2 0x19DE JUMPI PUSH4 0x4E487B71 PUSH1 0xE0 SHL PUSH1 0x0 MSTORE PUSH1 0x22 PUSH1 0x4 MSTORE PUSH1 0x24 PUSH1 0x0 REVERT JUMPDEST POP SWAP2 SWAP1 POP JUMP JUMPDEST PUSH1 0x0 PUSH1 0x20 DUP3 DUP5 SUB SLT ISZERO PUSH2 0x19F6 JUMPI PUSH1 0x0 DUP1 REVERT JUMPDEST POP MLOAD SWAP2 SWAP1 POP JUMP JUMPDEST PUSH4 0x4E487B71 PUSH1 0xE0 SHL PUSH1 0x0 MSTORE PUSH1 0x11 PUSH1 0x4 MSTORE PUSH1 0x24 PUSH1 0x0 REVERT JUMPDEST PUSH1 0x0 DUP2 PUSH1 0x0 NOT DIV DUP4 GT DUP3 ISZERO ISZERO AND ISZERO PUSH2 0x1A2D JUMPI PUSH2 0x1A2D PUSH2 0x19FD JUMP JUMPDEST POP MUL SWAP1 JUMP JUMPDEST PUSH1 0x0 DUP3 PUSH2 0x1A4F JUMPI PUSH4 0x4E487B71 PUSH1 0xE0 SHL PUSH1 0x0 MSTORE PUSH1 0x12 PUSH1 0x4 MSTORE PUSH1 0x24 PUSH1 0x0 REVERT JUMPDEST POP DIV SWAP1 JUMP JUMPDEST PUSH1 0x0 DUP3 NOT DUP3 GT ISZERO PUSH2 0x1A67 JUMPI PUSH2 0x1A67 PUSH2 0x19FD JUMP JUMPDEST POP ADD SWAP1 JUMP JUMPDEST PUSH4 0x4E487B71 PUSH1 0xE0 SHL PUSH1 0x0 MSTORE PUSH1 0x32 PUSH1 0x4 MSTORE PUSH1 0x24 PUSH1 0x0 REVERT JUMPDEST PUSH1 0x0 PUSH1 0x1 DUP3 ADD PUSH2 0x1A94 JUMPI PUSH2 0x1A94 PUSH2 0x19FD JUMP JUMPDEST POP PUSH1 0x1 ADD SWAP1 JUMP JUMPDEST PUSH1 0x0 DUP3 DUP3 LT ISZERO PUSH2 0x1AAD JUMPI PUSH2 0x1AAD PUSH2 0x19FD JUMP JUMPDEST POP SUB SWAP1 JUMP JUMPDEST PUSH1 0x0 PUSH1 0x20 DUP3 DUP5 SUB SLT ISZERO PUSH2 0x1AC4 JUMPI PUSH1 0x0 DUP1 REVERT JUMPDEST DUP2 MLOAD DUP1 ISZERO ISZERO DUP2 EQ PUSH2 0x1863 JUMPI PUSH1 0x0 DUP1 REVERT JUMPDEST PUSH1 0x0 DUP3 MLOAD PUSH2 0x1AE6 DUP2 DUP5 PUSH1 0x20 DUP8 ADD PUSH2 0x1779 JUMP JUMPDEST SWAP2 SWAP1 SWAP2 ADD SWAP3 SWAP2 POP POP JUMP INVALID 0xDD CALLCODE MSTORE 0xAD SHL 0xE2 0xC8 SWAP12 PUSH10 0xC2B068FC378DAA952BA7 CALL PUSH4 0xC4A11628 CREATE2 GAS 0x4D CREATE2 0x23 0xB3 0xEF LOG2 PUSH5 0x6970667358 0x22 SLT KECCAK256 0xEC PUSH21 0xB497EBFCCCCC36AED5B863A3B4309A3F26F187F6C6 0xE3 0x2D ADDRESS LOG1 PUSH23 0x1BAB17164736F6C634300080D00338BE0079C53165914 SGT DIFFICULTY 0xCD 0x1F 0xD0 LOG4 CALLCODE DUP5 NOT 0x49 PUSH32 0x9722A3DAAFE3B4186F6B6457E000000000000000000000000000000000000000 "
		},
		"gasEstimates": {
			"creation": {
				"codeDepositCost": "3549000",
				"executionCost": "infinite",
				"totalCost": "infinite"
			},
			"external": {
				"": "294",
				"COIN_VOLUME()": "2494",
				"TOKEN_VOLUME()": "2361",
				"authorize(address)": "26940",
				"bridgeTOKEN(uint256,uint256,bool)": "infinite",
				"bridgeTransferOutBulk(uint256[],address[])": "infinite",
				"bridgeTransferOutBulkSupportingFee(uint256[],address[],address)": "infinite",
				"bridgeTransferOutBulkTOKEN(uint256[],address[],address)": "infinite",
				"bridgeTransferOutBulkTOKENSupportingFee(uint256[],address[],address)": "infinite",
				"bridgeTransferOutTOKEN(address,uint256,address)": "infinite",
				"getiVault_byToken(address)": "4933",
				"name()": "infinite",
				"setMoV(address)": "infinite",
				"setShards(address,address,uint256,bool,uint256,uint256,uint256,uint256)": "infinite",
				"setToken(address,address,address,uint256)": "infinite",
				"symbol()": "infinite",
				"tFEE()": "2405",
				"tkFEE()": "2406",
				"transfer(address,uint256,address,address,bool)": "infinite",
				"transferAuthorization(address,address)": "infinite",
				"unauthorize(address)": "27054",
				"withdrawToken(address,uint256)": "infinite"
			},
			"internal": {
				"deposit(address,address,uint256,bool)": "infinite",
				"split(uint256)": "infinite"
			}
		},
		"methodIdentifiers": {
			"COIN_VOLUME()": "841ba87d",
			"TOKEN_VOLUME()": "b20b119c",
			"authorize(address)": "b6a5d7de",
			"bridgeTOKEN(uint256,uint256,bool)": "560d9995",
			"bridgeTransferOutBulk(uint256[],address[])": "0cba52f9",
			"bridgeTransferOutBulkSupportingFee(uint256[],address[],address)": "c79d4391",
			"bridgeTransferOutBulkTOKEN(uint256[],address[],address)": "dd457d76",
			"bridgeTransferOutBulkTOKENSupportingFee(uint256[],address[],address)": "7d21bbe2",
			"bridgeTransferOutTOKEN(address,uint256,address)": "6532d899",
			"getiVault_byToken(address)": "db236d96",
			"name()": "06fdde03",
			"setMoV(address)": "43602017",
			"setShards(address,address,uint256,bool,uint256,uint256,uint256,uint256)": "d9a06dbd",
			"setToken(address,address,address,uint256)": "528856f4",
			"symbol()": "95d89b41",
			"tFEE()": "c6eceb10",
			"tkFEE()": "570e9f70",
			"transfer(address,uint256,address,address,bool)": "6c7600c0",
			"transferAuthorization(address,address)": "8cd0acc3",
			"unauthorize(address)": "f0b37c04",
			"withdrawToken(address,uint256)": "9e281a98"
		}
	},
	"abi": [
		{
			"inputs": [
				{
					"internalType": "address",
					"name": "holder",
					"type": "address"
				}
			],
			"stateMutability": "payable",
			"type": "constructor"
		},
		{
			"anonymous": false,
			"inputs": [
				{
					"indexed": true,
					"internalType": "address",
					"name": "from",
					"type": "address"
				},
				{
					"indexed": true,
					"internalType": "address",
					"name": "to",
					"type": "address"
				},
				{
					"indexed": false,
					"internalType": "uint256",
					"name": "value",
					"type": "uint256"
				}
			],
			"name": "Transfer",
			"type": "event"
		},
		{
			"anonymous": false,
			"inputs": [
				{
					"indexed": true,
					"internalType": "address",
					"name": "src",
					"type": "address"
				},
				{
					"indexed": true,
					"internalType": "address",
					"name": "token",
					"type": "address"
				},
				{
					"indexed": false,
					"internalType": "uint256",
					"name": "wad",
					"type": "uint256"
				}
			],
			"name": "WithdrawToken",
			"type": "event"
		},
		{
			"anonymous": false,
			"inputs": [
				{
					"indexed": true,
					"internalType": "address",
					"name": "src",
					"type": "address"
				},
				{
					"indexed": false,
					"internalType": "uint256",
					"name": "wad",
					"type": "uint256"
				}
			],
			"name": "Withdrawal",
			"type": "event"
		},
		{
			"anonymous": false,
			"inputs": [
				{
					"indexed": true,
					"internalType": "address",
					"name": "origin",
					"type": "address"
				},
				{
					"indexed": true,
					"internalType": "address",
					"name": "destination",
					"type": "address"
				},
				{
					"indexed": false,
					"internalType": "uint256",
					"name": "liquidity",
					"type": "uint256"
				},
				{
					"indexed": false,
					"internalType": "uint256",
					"name": "bridgeID",
					"type": "uint256"
				},
				{
					"indexed": false,
					"internalType": "bool",
					"name": "aTokenTx",
					"type": "bool"
				}
			],
			"name": "traceTransaction",
			"type": "event"
		},
		{
			"stateMutability": "payable",
			"type": "fallback"
		},
		{
			"inputs": [],
			"name": "COIN_VOLUME",
			"outputs": [
				{
					"internalType": "uint256",
					"name": "",
					"type": "uint256"
				}
			],
			"stateMutability": "view",
			"type": "function"
		},
		{
			"inputs": [],
			"name": "TOKEN_VOLUME",
			"outputs": [
				{
					"internalType": "uint256",
					"name": "",
					"type": "uint256"
				}
			],
			"stateMutability": "view",
			"type": "function"
		},
		{
			"inputs": [
				{
					"internalType": "address",
					"name": "adr",
					"type": "address"
				}
			],
			"name": "authorize",
			"outputs": [],
			"stateMutability": "nonpayable",
			"type": "function"
		},
		{
			"inputs": [
				{
					"internalType": "uint256",
					"name": "amountTOKEN",
					"type": "uint256"
				},
				{
					"internalType": "uint256",
					"name": "index",
					"type": "uint256"
				},
				{
					"internalType": "bool",
					"name": "isETH",
					"type": "bool"
				}
			],
			"name": "bridgeTOKEN",
			"outputs": [
				{
					"internalType": "bool",
					"name": "",
					"type": "bool"
				}
			],
			"stateMutability": "payable",
			"type": "function"
		},
		{
			"inputs": [
				{
					"internalType": "uint256[]",
					"name": "_amount",
					"type": "uint256[]"
				},
				{
					"internalType": "address[]",
					"name": "_addresses",
					"type": "address[]"
				}
			],
			"name": "bridgeTransferOutBulk",
			"outputs": [
				{
					"internalType": "bool",
					"name": "",
					"type": "bool"
				}
			],
			"stateMutability": "payable",
			"type": "function"
		},
		{
			"inputs": [
				{
					"internalType": "uint256[]",
					"name": "_amount",
					"type": "uint256[]"
				},
				{
					"internalType": "address[]",
					"name": "_addresses",
					"type": "address[]"
				},
				{
					"internalType": "address",
					"name": "token",
					"type": "address"
				}
			],
			"name": "bridgeTransferOutBulkSupportingFee",
			"outputs": [
				{
					"internalType": "bool",
					"name": "",
					"type": "bool"
				}
			],
			"stateMutability": "nonpayable",
			"type": "function"
		},
		{
			"inputs": [
				{
					"internalType": "uint256[]",
					"name": "_amount",
					"type": "uint256[]"
				},
				{
					"internalType": "address[]",
					"name": "_addresses",
					"type": "address[]"
				},
				{
					"internalType": "address",
					"name": "token",
					"type": "address"
				}
			],
			"name": "bridgeTransferOutBulkTOKEN",
			"outputs": [
				{
					"internalType": "bool",
					"name": "",
					"type": "bool"
				}
			],
			"stateMutability": "nonpayable",
			"type": "function"
		},
		{
			"inputs": [
				{
					"internalType": "uint256[]",
					"name": "_amount",
					"type": "uint256[]"
				},
				{
					"internalType": "address[]",
					"name": "_addresses",
					"type": "address[]"
				},
				{
					"internalType": "address",
					"name": "token",
					"type": "address"
				}
			],
			"name": "bridgeTransferOutBulkTOKENSupportingFee",
			"outputs": [
				{
					"internalType": "bool",
					"name": "",
					"type": "bool"
				}
			],
			"stateMutability": "nonpayable",
			"type": "function"
		},
		{
			"inputs": [
				{
					"internalType": "address",
					"name": "token",
					"type": "address"
				},
				{
					"internalType": "uint256",
					"name": "amount",
					"type": "uint256"
				},
				{
					"internalType": "address payable",
					"name": "receiver",
					"type": "address"
				}
			],
			"name": "bridgeTransferOutTOKEN",
			"outputs": [
				{
					"internalType": "bool",
					"name": "",
					"type": "bool"
				}
			],
			"stateMutability": "nonpayable",
			"type": "function"
		},
		{
			"inputs": [
				{
					"internalType": "address",
					"name": "token",
					"type": "address"
				}
			],
			"name": "getiVault_byToken",
			"outputs": [
				{
					"internalType": "address payable",
					"name": "",
					"type": "address"
				}
			],
			"stateMutability": "view",
			"type": "function"
		},
		{
			"inputs": [],
			"name": "name",
			"outputs": [
				{
					"internalType": "string",
					"name": "",
					"type": "string"
				}
			],
			"stateMutability": "view",
			"type": "function"
		},
		{
			"inputs": [
				{
					"internalType": "address payable",
					"name": "iMov",
					"type": "address"
				}
			],
			"name": "setMoV",
			"outputs": [],
			"stateMutability": "nonpayable",
			"type": "function"
		},
		{
			"inputs": [
				{
					"internalType": "address payable",
					"name": "iTOKEN",
					"type": "address"
				},
				{
					"internalType": "address payable",
					"name": "iWTOKEN",
					"type": "address"
				},
				{
					"internalType": "uint256",
					"name": "_teamDonationMultiplier",
					"type": "uint256"
				},
				{
					"internalType": "bool",
					"name": "_tokenFee",
					"type": "bool"
				},
				{
					"internalType": "uint256",
					"name": "_tFee",
					"type": "uint256"
				},
				{
					"internalType": "uint256",
					"name": "_tkFee",
					"type": "uint256"
				},
				{
					"internalType": "uint256",
					"name": "bMaxAmt",
					"type": "uint256"
				},
				{
					"internalType": "uint256",
					"name": "index",
					"type": "uint256"
				}
			],
			"name": "setShards",
			"outputs": [],
			"stateMutability": "nonpayable",
			"type": "function"
		},
		{
			"inputs": [
				{
					"internalType": "address",
					"name": "token",
					"type": "address"
				},
				{
					"internalType": "address",
					"name": "wToken",
					"type": "address"
				},
				{
					"internalType": "address",
					"name": "originator",
					"type": "address"
				},
				{
					"internalType": "uint256",
					"name": "index",
					"type": "uint256"
				}
			],
			"name": "setToken",
			"outputs": [
				{
					"internalType": "bool",
					"name": "",
					"type": "bool"
				}
			],
			"stateMutability": "nonpayable",
			"type": "function"
		},
		{
			"inputs": [],
			"name": "symbol",
			"outputs": [
				{
					"internalType": "string",
					"name": "",
					"type": "string"
				}
			],
			"stateMutability": "view",
			"type": "function"
		},
		{
			"inputs": [],
			"name": "tFEE",
			"outputs": [
				{
					"internalType": "uint256",
					"name": "",
					"type": "uint256"
				}
			],
			"stateMutability": "view",
			"type": "function"
		},
		{
			"inputs": [],
			"name": "tkFEE",
			"outputs": [
				{
					"internalType": "uint256",
					"name": "",
					"type": "uint256"
				}
			],
			"stateMutability": "view",
			"type": "function"
		},
		{
			"inputs": [
				{
					"internalType": "address",
					"name": "sender",
					"type": "address"
				},
				{
					"internalType": "uint256",
					"name": "amount",
					"type": "uint256"
				},
				{
					"internalType": "address payable",
					"name": "receiver",
					"type": "address"
				},
				{
					"internalType": "address payable",
					"name": "token",
					"type": "address"
				},
				{
					"internalType": "bool",
					"name": "isEth",
					"type": "bool"
				}
			],
			"name": "transfer",
			"outputs": [
				{
					"internalType": "bool",
					"name": "",
					"type": "bool"
				}
			],
			"stateMutability": "nonpayable",
			"type": "function"
		},
		{
			"inputs": [
				{
					"internalType": "address",
					"name": "fromAddr",
					"type": "address"
				},
				{
					"internalType": "address",
					"name": "toAddr",
					"type": "address"
				}
			],
			"name": "transferAuthorization",
			"outputs": [
				{
					"internalType": "bool",
					"name": "",
					"type": "bool"
				}
			],
			"stateMutability": "nonpayable",
			"type": "function"
		},
		{
			"inputs": [
				{
					"internalType": "address",
					"name": "adr",
					"type": "address"
				}
			],
			"name": "unauthorize",
			"outputs": [],
			"stateMutability": "nonpayable",
			"type": "function"
		},
		{
			"inputs": [
				{
					"internalType": "address",
					"name": "token",
					"type": "address"
				},
				{
					"internalType": "uint256",
					"name": "amount",
					"type": "uint256"
				}
			],
			"name": "withdrawToken",
			"outputs": [],
			"stateMutability": "nonpayable",
			"type": "function"
		},
		{
			"stateMutability": "payable",
			"type": "receive"
		}
	]
}